{
	"final project/General API Marketplace Token.sol": {
		"GeneralApiMarketplaceToken": {
			"abi": [
				{
					"inputs": [
						{
							"internalType": "contract IERC20",
							"name": "_token",
							"type": "address"
						}
					],
					"stateMutability": "nonpayable",
					"type": "constructor"
				},
				{
					"inputs": [
						{
							"internalType": "address",
							"name": "token",
							"type": "address"
						}
					],
					"name": "SafeERC20FailedOperation",
					"type": "error"
				},
				{
					"anonymous": false,
					"inputs": [
						{
							"indexed": true,
							"internalType": "address",
							"name": "user",
							"type": "address"
						},
						{
							"indexed": true,
							"internalType": "uint256",
							"name": "apiId",
							"type": "uint256"
						},
						{
							"indexed": false,
							"internalType": "uint256",
							"name": "requests",
							"type": "uint256"
						}
					],
					"name": "APIAccessPurchased",
					"type": "event"
				},
				{
					"anonymous": false,
					"inputs": [
						{
							"indexed": true,
							"internalType": "address",
							"name": "user",
							"type": "address"
						},
						{
							"indexed": true,
							"internalType": "uint256",
							"name": "apiId",
							"type": "uint256"
						}
					],
					"name": "APICallMade",
					"type": "event"
				},
				{
					"anonymous": false,
					"inputs": [
						{
							"indexed": true,
							"internalType": "uint256",
							"name": "apiId",
							"type": "uint256"
						},
						{
							"indexed": false,
							"internalType": "string",
							"name": "name",
							"type": "string"
						},
						{
							"indexed": false,
							"internalType": "uint256",
							"name": "pricePerRequest",
							"type": "uint256"
						}
					],
					"name": "APIRegistered",
					"type": "event"
				},
				{
					"anonymous": false,
					"inputs": [
						{
							"indexed": true,
							"internalType": "address",
							"name": "owner",
							"type": "address"
						},
						{
							"indexed": false,
							"internalType": "uint256",
							"name": "amount",
							"type": "uint256"
						}
					],
					"name": "TokensWithdrawn",
					"type": "event"
				},
				{
					"inputs": [],
					"name": "apiIdCounter",
					"outputs": [
						{
							"internalType": "uint256",
							"name": "",
							"type": "uint256"
						}
					],
					"stateMutability": "view",
					"type": "function"
				},
				{
					"inputs": [
						{
							"internalType": "uint256",
							"name": "",
							"type": "uint256"
						}
					],
					"name": "apis",
					"outputs": [
						{
							"internalType": "string",
							"name": "name",
							"type": "string"
						},
						{
							"internalType": "uint256",
							"name": "pricePerRequest",
							"type": "uint256"
						},
						{
							"internalType": "uint256",
							"name": "totalPurchases",
							"type": "uint256"
						},
						{
							"internalType": "bool",
							"name": "isActive",
							"type": "bool"
						}
					],
					"stateMutability": "view",
					"type": "function"
				},
				{
					"inputs": [
						{
							"internalType": "address",
							"name": "_user",
							"type": "address"
						},
						{
							"internalType": "uint256",
							"name": "_apiId",
							"type": "uint256"
						}
					],
					"name": "getRemainingRequests",
					"outputs": [
						{
							"internalType": "uint256",
							"name": "",
							"type": "uint256"
						}
					],
					"stateMutability": "view",
					"type": "function"
				},
				{
					"inputs": [],
					"name": "owner",
					"outputs": [
						{
							"internalType": "address",
							"name": "",
							"type": "address"
						}
					],
					"stateMutability": "view",
					"type": "function"
				},
				{
					"inputs": [
						{
							"internalType": "uint256",
							"name": "_apiId",
							"type": "uint256"
						},
						{
							"internalType": "uint256",
							"name": "_requests",
							"type": "uint256"
						}
					],
					"name": "purchaseAPIAccess",
					"outputs": [],
					"stateMutability": "nonpayable",
					"type": "function"
				},
				{
					"inputs": [
						{
							"internalType": "string",
							"name": "_name",
							"type": "string"
						},
						{
							"internalType": "uint256",
							"name": "_pricePerRequest",
							"type": "uint256"
						}
					],
					"name": "registerAPI",
					"outputs": [],
					"stateMutability": "nonpayable",
					"type": "function"
				},
				{
					"inputs": [],
					"name": "token",
					"outputs": [
						{
							"internalType": "contract IERC20",
							"name": "",
							"type": "address"
						}
					],
					"stateMutability": "view",
					"type": "function"
				},
				{
					"inputs": [
						{
							"internalType": "uint256",
							"name": "_apiId",
							"type": "uint256"
						}
					],
					"name": "useAPIAccess",
					"outputs": [],
					"stateMutability": "nonpayable",
					"type": "function"
				},
				{
					"inputs": [],
					"name": "withdrawTokens",
					"outputs": [],
					"stateMutability": "nonpayable",
					"type": "function"
				}
			],
			"devdoc": {
				"custom:dev-run-script": "./scripts/deploy_with_ethers.ts",
				"details": "General API Marketplace Contract",
				"errors": {
					"SafeERC20FailedOperation(address)": [
						{
							"details": "An operation with an ERC-20 token failed."
						}
					]
				},
				"kind": "dev",
				"methods": {},
				"title": "General API Marketplace Token",
				"version": 1
			},
			"evm": {
				"assembly": "    /* \"final project/General API Marketplace Token.sol\":513:4493  contract GeneralApiMarketplaceToken is ReentrancyGuard {... */\n  mstore(0x40, 0xa0)\n    /* \"final project/General API Marketplace Token.sol\":1612:1775  constructor(IERC20 _token) {... */\n  callvalue\n  dup1\n  iszero\n  tag_1\n  jumpi\n  0x00\n  dup1\n  revert\ntag_1:\n  pop\n  mload(0x40)\n  sub(codesize, bytecodeSize)\n  dup1\n  bytecodeSize\n  dup4\n  codecopy\n  dup2\n  dup2\n  add\n  0x40\n  mstore\n  dup2\n  add\n  swap1\n  tag_2\n  swap2\n  swap1\n  tag_3\n  jump\t// in\ntag_2:\n    /* \"@openzeppelin/contracts/security/ReentrancyGuard.sol\":1716:1717  1 */\n  0x01\n    /* \"@openzeppelin/contracts/security/ReentrancyGuard.sol\":1821:1828  _status */\n  0x00\n    /* \"@openzeppelin/contracts/security/ReentrancyGuard.sol\":1821:1843  _status = _NOT_ENTERED */\n  dup2\n  swap1\n  sstore\n  pop\n    /* \"final project/General API Marketplace Token.sol\":1685:1686  0 */\n  0x00\n    /* \"final project/General API Marketplace Token.sol\":1658:1687  address(_token) != address(0) */\n  0xffffffffffffffffffffffffffffffffffffffff\n  and\n    /* \"final project/General API Marketplace Token.sol\":1666:1672  _token */\n  dup2\n    /* \"final project/General API Marketplace Token.sol\":1658:1687  address(_token) != address(0) */\n  0xffffffffffffffffffffffffffffffffffffffff\n  and\n  sub\n    /* \"final project/General API Marketplace Token.sol\":1650:1713  require(address(_token) != address(0), \"Invalid token address\") */\n  tag_8\n  jumpi\n  mload(0x40)\n  0x08c379a000000000000000000000000000000000000000000000000000000000\n  dup2\n  mstore\n  0x04\n  add\n  tag_9\n  swap1\n  tag_10\n  jump\t// in\ntag_9:\n  mload(0x40)\n  dup1\n  swap2\n  sub\n  swap1\n  revert\ntag_8:\n    /* \"final project/General API Marketplace Token.sol\":1732:1738  _token */\n  dup1\n    /* \"final project/General API Marketplace Token.sol\":1724:1738  token = _token */\n  0xffffffffffffffffffffffffffffffffffffffff\n  and\n  0x80\n  dup2\n  0xffffffffffffffffffffffffffffffffffffffff\n  and\n  dup2\n  mstore\n  pop\n  pop\n    /* \"final project/General API Marketplace Token.sol\":1757:1767  msg.sender */\n  caller\n    /* \"final project/General API Marketplace Token.sol\":1749:1754  owner */\n  0x01\n  0x00\n    /* \"final project/General API Marketplace Token.sol\":1749:1767  owner = msg.sender */\n  0x0100\n  exp\n  dup2\n  sload\n  dup2\n  0xffffffffffffffffffffffffffffffffffffffff\n  mul\n  not\n  and\n  swap1\n  dup4\n  0xffffffffffffffffffffffffffffffffffffffff\n  and\n  mul\n  or\n  swap1\n  sstore\n  pop\n    /* \"final project/General API Marketplace Token.sol\":1612:1775  constructor(IERC20 _token) {... */\n  pop\n    /* \"final project/General API Marketplace Token.sol\":513:4493  contract GeneralApiMarketplaceToken is ReentrancyGuard {... */\n  jump(tag_11)\n    /* \"#utility.yul\":88:205   */\ntag_13:\n    /* \"#utility.yul\":197:198   */\n  0x00\n    /* \"#utility.yul\":194:195   */\n  dup1\n    /* \"#utility.yul\":187:199   */\n  revert\n    /* \"#utility.yul\":334:460   */\ntag_15:\n    /* \"#utility.yul\":371:378   */\n  0x00\n    /* \"#utility.yul\":411:453   */\n  0xffffffffffffffffffffffffffffffffffffffff\n    /* \"#utility.yul\":404:409   */\n  dup3\n    /* \"#utility.yul\":400:454   */\n  and\n    /* \"#utility.yul\":389:454   */\n  swap1\n  pop\n    /* \"#utility.yul\":334:460   */\n  swap2\n  swap1\n  pop\n  jump\t// out\n    /* \"#utility.yul\":466:562   */\ntag_16:\n    /* \"#utility.yul\":503:510   */\n  0x00\n    /* \"#utility.yul\":532:556   */\n  tag_29\n    /* \"#utility.yul\":550:555   */\n  dup3\n    /* \"#utility.yul\":532:556   */\n  tag_15\n  jump\t// in\ntag_29:\n    /* \"#utility.yul\":521:556   */\n  swap1\n  pop\n    /* \"#utility.yul\":466:562   */\n  swap2\n  swap1\n  pop\n  jump\t// out\n    /* \"#utility.yul\":568:678   */\ntag_17:\n    /* \"#utility.yul\":619:626   */\n  0x00\n    /* \"#utility.yul\":648:672   */\n  tag_31\n    /* \"#utility.yul\":666:671   */\n  dup3\n    /* \"#utility.yul\":648:672   */\n  tag_16\n  jump\t// in\ntag_31:\n    /* \"#utility.yul\":637:672   */\n  swap1\n  pop\n    /* \"#utility.yul\":568:678   */\n  swap2\n  swap1\n  pop\n  jump\t// out\n    /* \"#utility.yul\":684:834   */\ntag_18:\n    /* \"#utility.yul\":771:809   */\n  tag_33\n    /* \"#utility.yul\":803:808   */\n  dup2\n    /* \"#utility.yul\":771:809   */\n  tag_17\n  jump\t// in\ntag_33:\n    /* \"#utility.yul\":764:769   */\n  dup2\n    /* \"#utility.yul\":761:810   */\n  eq\n    /* \"#utility.yul\":751:828   */\n  tag_34\n  jumpi\n    /* \"#utility.yul\":824:825   */\n  0x00\n    /* \"#utility.yul\":821:822   */\n  dup1\n    /* \"#utility.yul\":814:826   */\n  revert\n    /* \"#utility.yul\":751:828   */\ntag_34:\n    /* \"#utility.yul\":684:834   */\n  pop\n  jump\t// out\n    /* \"#utility.yul\":840:1011   */\ntag_19:\n    /* \"#utility.yul\":911:916   */\n  0x00\n    /* \"#utility.yul\":942:948   */\n  dup2\n    /* \"#utility.yul\":936:949   */\n  mload\n    /* \"#utility.yul\":927:949   */\n  swap1\n  pop\n    /* \"#utility.yul\":958:1005   */\n  tag_36\n    /* \"#utility.yul\":999:1004   */\n  dup2\n    /* \"#utility.yul\":958:1005   */\n  tag_18\n  jump\t// in\ntag_36:\n    /* \"#utility.yul\":840:1011   */\n  swap3\n  swap2\n  pop\n  pop\n  jump\t// out\n    /* \"#utility.yul\":1017:1396   */\ntag_3:\n    /* \"#utility.yul\":1101:1107   */\n  0x00\n    /* \"#utility.yul\":1150:1152   */\n  0x20\n    /* \"#utility.yul\":1138:1147   */\n  dup3\n    /* \"#utility.yul\":1129:1136   */\n  dup5\n    /* \"#utility.yul\":1125:1148   */\n  sub\n    /* \"#utility.yul\":1121:1153   */\n  slt\n    /* \"#utility.yul\":1118:1237   */\n  iszero\n  tag_38\n  jumpi\n    /* \"#utility.yul\":1156:1235   */\n  tag_39\n  tag_13\n  jump\t// in\ntag_39:\n    /* \"#utility.yul\":1118:1237   */\ntag_38:\n    /* \"#utility.yul\":1276:1277   */\n  0x00\n    /* \"#utility.yul\":1301:1379   */\n  tag_40\n    /* \"#utility.yul\":1371:1378   */\n  dup5\n    /* \"#utility.yul\":1362:1368   */\n  dup3\n    /* \"#utility.yul\":1351:1360   */\n  dup6\n    /* \"#utility.yul\":1347:1369   */\n  add\n    /* \"#utility.yul\":1301:1379   */\n  tag_19\n  jump\t// in\ntag_40:\n    /* \"#utility.yul\":1291:1379   */\n  swap2\n  pop\n    /* \"#utility.yul\":1247:1389   */\n  pop\n    /* \"#utility.yul\":1017:1396   */\n  swap3\n  swap2\n  pop\n  pop\n  jump\t// out\n    /* \"#utility.yul\":1402:1571   */\ntag_20:\n    /* \"#utility.yul\":1486:1497   */\n  0x00\n    /* \"#utility.yul\":1520:1526   */\n  dup3\n    /* \"#utility.yul\":1515:1518   */\n  dup3\n    /* \"#utility.yul\":1508:1527   */\n  mstore\n    /* \"#utility.yul\":1560:1564   */\n  0x20\n    /* \"#utility.yul\":1555:1558   */\n  dup3\n    /* \"#utility.yul\":1551:1565   */\n  add\n    /* \"#utility.yul\":1536:1565   */\n  swap1\n  pop\n    /* \"#utility.yul\":1402:1571   */\n  swap3\n  swap2\n  pop\n  pop\n  jump\t// out\n    /* \"#utility.yul\":1577:1748   */\ntag_21:\n    /* \"#utility.yul\":1717:1740   */\n  0x496e76616c696420746f6b656e20616464726573730000000000000000000000\n    /* \"#utility.yul\":1713:1714   */\n  0x00\n    /* \"#utility.yul\":1705:1711   */\n  dup3\n    /* \"#utility.yul\":1701:1715   */\n  add\n    /* \"#utility.yul\":1694:1741   */\n  mstore\n    /* \"#utility.yul\":1577:1748   */\n  pop\n  jump\t// out\n    /* \"#utility.yul\":1754:2120   */\ntag_22:\n    /* \"#utility.yul\":1896:1899   */\n  0x00\n    /* \"#utility.yul\":1917:1984   */\n  tag_44\n    /* \"#utility.yul\":1981:1983   */\n  0x15\n    /* \"#utility.yul\":1976:1979   */\n  dup4\n    /* \"#utility.yul\":1917:1984   */\n  tag_20\n  jump\t// in\ntag_44:\n    /* \"#utility.yul\":1910:1984   */\n  swap2\n  pop\n    /* \"#utility.yul\":1993:2086   */\n  tag_45\n    /* \"#utility.yul\":2082:2085   */\n  dup3\n    /* \"#utility.yul\":1993:2086   */\n  tag_21\n  jump\t// in\ntag_45:\n    /* \"#utility.yul\":2111:2113   */\n  0x20\n    /* \"#utility.yul\":2106:2109   */\n  dup3\n    /* \"#utility.yul\":2102:2114   */\n  add\n    /* \"#utility.yul\":2095:2114   */\n  swap1\n  pop\n    /* \"#utility.yul\":1754:2120   */\n  swap2\n  swap1\n  pop\n  jump\t// out\n    /* \"#utility.yul\":2126:2545   */\ntag_10:\n    /* \"#utility.yul\":2292:2296   */\n  0x00\n    /* \"#utility.yul\":2330:2332   */\n  0x20\n    /* \"#utility.yul\":2319:2328   */\n  dup3\n    /* \"#utility.yul\":2315:2333   */\n  add\n    /* \"#utility.yul\":2307:2333   */\n  swap1\n  pop\n    /* \"#utility.yul\":2379:2388   */\n  dup2\n    /* \"#utility.yul\":2373:2377   */\n  dup2\n    /* \"#utility.yul\":2369:2389   */\n  sub\n    /* \"#utility.yul\":2365:2366   */\n  0x00\n    /* \"#utility.yul\":2354:2363   */\n  dup4\n    /* \"#utility.yul\":2350:2367   */\n  add\n    /* \"#utility.yul\":2343:2390   */\n  mstore\n    /* \"#utility.yul\":2407:2538   */\n  tag_47\n    /* \"#utility.yul\":2533:2537   */\n  dup2\n    /* \"#utility.yul\":2407:2538   */\n  tag_22\n  jump\t// in\ntag_47:\n    /* \"#utility.yul\":2399:2538   */\n  swap1\n  pop\n    /* \"#utility.yul\":2126:2545   */\n  swap2\n  swap1\n  pop\n  jump\t// out\n    /* \"final project/General API Marketplace Token.sol\":513:4493  contract GeneralApiMarketplaceToken is ReentrancyGuard {... */\ntag_11:\n  mload(0x80)\n  codecopy(0x00, dataOffset(sub_0), dataSize(sub_0))\n  0x00\n  assignImmutable(\"0x84d64b05fb6781395a889d7641a6a052ab1c8143a20e0073b5f8f8950ad4d39b\")\n  return(0x00, dataSize(sub_0))\nstop\n\nsub_0: assembly {\n        /* \"final project/General API Marketplace Token.sol\":513:4493  contract GeneralApiMarketplaceToken is ReentrancyGuard {... */\n      mstore(0x40, 0x80)\n      callvalue\n      dup1\n      iszero\n      tag_1\n      jumpi\n      0x00\n      dup1\n      revert\n    tag_1:\n      pop\n      jumpi(tag_2, lt(calldatasize, 0x04))\n      shr(0xe0, calldataload(0x00))\n      dup1\n      0x8d8f2adb\n      gt\n      tag_12\n      jumpi\n      dup1\n      0x8d8f2adb\n      eq\n      tag_7\n      jumpi\n      dup1\n      0x8da5cb5b\n      eq\n      tag_8\n      jumpi\n      dup1\n      0x8e04d8d8\n      eq\n      tag_9\n      jumpi\n      dup1\n      0xaf6e5689\n      eq\n      tag_10\n      jumpi\n      dup1\n      0xfc0c546a\n      eq\n      tag_11\n      jumpi\n      jump(tag_2)\n    tag_12:\n      dup1\n      0x099952c8\n      eq\n      tag_3\n      jumpi\n      dup1\n      0x400bb18d\n      eq\n      tag_4\n      jumpi\n      dup1\n      0x6d177a00\n      eq\n      tag_5\n      jumpi\n      dup1\n      0x838c0557\n      eq\n      tag_6\n      jumpi\n    tag_2:\n      0x00\n      dup1\n      revert\n        /* \"final project/General API Marketplace Token.sol\":1038:1065  uint256 public apiIdCounter */\n    tag_3:\n      tag_13\n      tag_14\n      jump\t// in\n    tag_13:\n      mload(0x40)\n      tag_15\n      swap2\n      swap1\n      tag_16\n      jump\t// in\n    tag_15:\n      mload(0x40)\n      dup1\n      swap2\n      sub\n      swap1\n      return\n        /* \"final project/General API Marketplace Token.sol\":4265:4490  function getRemainingRequests(address _user, uint256 _apiId) external view returns (uint256) {... */\n    tag_4:\n      tag_17\n      0x04\n      dup1\n      calldatasize\n      sub\n      dup2\n      add\n      swap1\n      tag_18\n      swap2\n      swap1\n      tag_19\n      jump\t// in\n    tag_18:\n      tag_20\n      jump\t// in\n    tag_17:\n      mload(0x40)\n      tag_21\n      swap2\n      swap1\n      tag_16\n      jump\t// in\n    tag_21:\n      mload(0x40)\n      dup1\n      swap2\n      sub\n      swap1\n      return\n        /* \"final project/General API Marketplace Token.sol\":2542:3381  function purchaseAPIAccess(uint256 _apiId, uint256 _requests) external {... */\n    tag_5:\n      tag_22\n      0x04\n      dup1\n      calldatasize\n      sub\n      dup2\n      add\n      swap1\n      tag_23\n      swap2\n      swap1\n      tag_24\n      jump\t// in\n    tag_23:\n      tag_25\n      jump\t// in\n    tag_22:\n      stop\n        /* \"final project/General API Marketplace Token.sol\":1956:2497  function registerAPI(string memory _name, uint256 _pricePerRequest) external onlyOwner {... */\n    tag_6:\n      tag_26\n      0x04\n      dup1\n      calldatasize\n      sub\n      dup2\n      add\n      swap1\n      tag_27\n      swap2\n      swap1\n      tag_28\n      jump\t// in\n    tag_27:\n      tag_29\n      jump\t// in\n    tag_26:\n      stop\n        /* \"final project/General API Marketplace Token.sol\":3940:4217  function withdrawTokens() external onlyOwner nonReentrant {... */\n    tag_7:\n      tag_30\n      tag_31\n      jump\t// in\n    tag_30:\n      stop\n        /* \"final project/General API Marketplace Token.sol\":670:690  address public owner */\n    tag_8:\n      tag_32\n      tag_33\n      jump\t// in\n    tag_32:\n      mload(0x40)\n      tag_34\n      swap2\n      swap1\n      tag_35\n      jump\t// in\n    tag_34:\n      mload(0x40)\n      dup1\n      swap2\n      sub\n      swap1\n      return\n        /* \"final project/General API Marketplace Token.sol\":3421:3899  function useAPIAccess(uint256 _apiId) external {... */\n    tag_9:\n      tag_36\n      0x04\n      dup1\n      calldatasize\n      sub\n      dup2\n      add\n      swap1\n      tag_37\n      swap2\n      swap1\n      tag_38\n      jump\t// in\n    tag_37:\n      tag_39\n      jump\t// in\n    tag_36:\n      stop\n        /* \"final project/General API Marketplace Token.sol\":1094:1135  mapping(uint256 => APIAccess) public apis */\n    tag_10:\n      tag_40\n      0x04\n      dup1\n      calldatasize\n      sub\n      dup2\n      add\n      swap1\n      tag_41\n      swap2\n      swap1\n      tag_38\n      jump\t// in\n    tag_41:\n      tag_42\n      jump\t// in\n    tag_40:\n      mload(0x40)\n      tag_43\n      swap5\n      swap4\n      swap3\n      swap2\n      swap1\n      tag_44\n      jump\t// in\n    tag_43:\n      mload(0x40)\n      dup1\n      swap2\n      sub\n      swap1\n      return\n        /* \"final project/General API Marketplace Token.sol\":634:663  IERC20 public immutable token */\n    tag_11:\n      tag_45\n      tag_46\n      jump\t// in\n    tag_45:\n      mload(0x40)\n      tag_47\n      swap2\n      swap1\n      tag_48\n      jump\t// in\n    tag_47:\n      mload(0x40)\n      dup1\n      swap2\n      sub\n      swap1\n      return\n        /* \"final project/General API Marketplace Token.sol\":1038:1065  uint256 public apiIdCounter */\n    tag_14:\n      sload(0x02)\n      dup2\n      jump\t// out\n        /* \"final project/General API Marketplace Token.sol\":4265:4490  function getRemainingRequests(address _user, uint256 _apiId) external view returns (uint256) {... */\n    tag_20:\n        /* \"final project/General API Marketplace Token.sol\":4349:4356  uint256 */\n      0x00\n        /* \"final project/General API Marketplace Token.sol\":4386:4398  apiIdCounter */\n      sload(0x02)\n        /* \"final project/General API Marketplace Token.sol\":4377:4383  _apiId */\n      dup3\n        /* \"final project/General API Marketplace Token.sol\":4377:4398  _apiId < apiIdCounter */\n      lt\n        /* \"final project/General API Marketplace Token.sol\":4369:4421  require(_apiId < apiIdCounter, \"API does not exist\") */\n      tag_50\n      jumpi\n      mload(0x40)\n      0x08c379a000000000000000000000000000000000000000000000000000000000\n      dup2\n      mstore\n      0x04\n      add\n      tag_51\n      swap1\n      tag_52\n      jump\t// in\n    tag_51:\n      mload(0x40)\n      dup1\n      swap2\n      sub\n      swap1\n      revert\n    tag_50:\n        /* \"final project/General API Marketplace Token.sol\":4439:4449  userUsages */\n      0x04\n        /* \"final project/General API Marketplace Token.sol\":4439:4456  userUsages[_user] */\n      0x00\n        /* \"final project/General API Marketplace Token.sol\":4450:4455  _user */\n      dup5\n        /* \"final project/General API Marketplace Token.sol\":4439:4456  userUsages[_user] */\n      0xffffffffffffffffffffffffffffffffffffffff\n      and\n      0xffffffffffffffffffffffffffffffffffffffff\n      and\n      dup2\n      mstore\n      0x20\n      add\n      swap1\n      dup2\n      mstore\n      0x20\n      add\n      0x00\n      keccak256\n        /* \"final project/General API Marketplace Token.sol\":4439:4474  userUsages[_user].remainingRequests */\n      0x00\n      add\n        /* \"final project/General API Marketplace Token.sol\":4439:4482  userUsages[_user].remainingRequests[_apiId] */\n      0x00\n        /* \"final project/General API Marketplace Token.sol\":4475:4481  _apiId */\n      dup4\n        /* \"final project/General API Marketplace Token.sol\":4439:4482  userUsages[_user].remainingRequests[_apiId] */\n      dup2\n      mstore\n      0x20\n      add\n      swap1\n      dup2\n      mstore\n      0x20\n      add\n      0x00\n      keccak256\n      sload\n        /* \"final project/General API Marketplace Token.sol\":4432:4482  return userUsages[_user].remainingRequests[_apiId] */\n      swap1\n      pop\n        /* \"final project/General API Marketplace Token.sol\":4265:4490  function getRemainingRequests(address _user, uint256 _apiId) external view returns (uint256) {... */\n      swap3\n      swap2\n      pop\n      pop\n      jump\t// out\n        /* \"final project/General API Marketplace Token.sol\":2542:3381  function purchaseAPIAccess(uint256 _apiId, uint256 _requests) external {... */\n    tag_25:\n        /* \"final project/General API Marketplace Token.sol\":2641:2653  apiIdCounter */\n      sload(0x02)\n        /* \"final project/General API Marketplace Token.sol\":2632:2638  _apiId */\n      dup3\n        /* \"final project/General API Marketplace Token.sol\":2632:2653  _apiId < apiIdCounter */\n      lt\n        /* \"final project/General API Marketplace Token.sol\":2624:2676  require(_apiId < apiIdCounter, \"API does not exist\") */\n      tag_54\n      jumpi\n      mload(0x40)\n      0x08c379a000000000000000000000000000000000000000000000000000000000\n      dup2\n      mstore\n      0x04\n      add\n      tag_55\n      swap1\n      tag_52\n      jump\t// in\n    tag_55:\n      mload(0x40)\n      dup1\n      swap2\n      sub\n      swap1\n      revert\n    tag_54:\n        /* \"final project/General API Marketplace Token.sol\":2707:2708  0 */\n      0x00\n        /* \"final project/General API Marketplace Token.sol\":2695:2704  _requests */\n      dup2\n        /* \"final project/General API Marketplace Token.sol\":2695:2708  _requests > 0 */\n      gt\n        /* \"final project/General API Marketplace Token.sol\":2687:2757  require(_requests > 0, \"Number of requests must be greater than zero\") */\n      tag_56\n      jumpi\n      mload(0x40)\n      0x08c379a000000000000000000000000000000000000000000000000000000000\n      dup2\n      mstore\n      0x04\n      add\n      tag_57\n      swap1\n      tag_58\n      jump\t// in\n    tag_57:\n      mload(0x40)\n      dup1\n      swap2\n      sub\n      swap1\n      revert\n    tag_56:\n        /* \"final project/General API Marketplace Token.sol\":2770:2791  APIAccess storage api */\n      0x00\n        /* \"final project/General API Marketplace Token.sol\":2794:2798  apis */\n      0x03\n        /* \"final project/General API Marketplace Token.sol\":2794:2806  apis[_apiId] */\n      0x00\n        /* \"final project/General API Marketplace Token.sol\":2799:2805  _apiId */\n      dup5\n        /* \"final project/General API Marketplace Token.sol\":2794:2806  apis[_apiId] */\n      dup2\n      mstore\n      0x20\n      add\n      swap1\n      dup2\n      mstore\n      0x20\n      add\n      0x00\n      keccak256\n        /* \"final project/General API Marketplace Token.sol\":2770:2806  APIAccess storage api = apis[_apiId] */\n      swap1\n      pop\n        /* \"final project/General API Marketplace Token.sol\":2825:2828  api */\n      dup1\n        /* \"final project/General API Marketplace Token.sol\":2825:2837  api.isActive */\n      0x03\n      add\n      0x00\n      swap1\n      sload\n      swap1\n      0x0100\n      exp\n      swap1\n      div\n      0xff\n      and\n        /* \"final project/General API Marketplace Token.sol\":2817:2859  require(api.isActive, \"API is not active\") */\n      tag_59\n      jumpi\n      mload(0x40)\n      0x08c379a000000000000000000000000000000000000000000000000000000000\n      dup2\n      mstore\n      0x04\n      add\n      tag_60\n      swap1\n      tag_61\n      jump\t// in\n    tag_60:\n      mload(0x40)\n      dup1\n      swap2\n      sub\n      swap1\n      revert\n    tag_59:\n        /* \"final project/General API Marketplace Token.sol\":2872:2889  uint256 totalCost */\n      0x00\n        /* \"final project/General API Marketplace Token.sol\":2914:2923  _requests */\n      dup3\n        /* \"final project/General API Marketplace Token.sol\":2892:2895  api */\n      dup3\n        /* \"final project/General API Marketplace Token.sol\":2892:2911  api.pricePerRequest */\n      0x01\n      add\n      sload\n        /* \"final project/General API Marketplace Token.sol\":2892:2923  api.pricePerRequest * _requests */\n      tag_62\n      swap2\n      swap1\n      tag_63\n      jump\t// in\n    tag_62:\n        /* \"final project/General API Marketplace Token.sol\":2872:2923  uint256 totalCost = api.pricePerRequest * _requests */\n      swap1\n      pop\n        /* \"final project/General API Marketplace Token.sol\":3026:3029  api */\n      dup2\n        /* \"final project/General API Marketplace Token.sol\":3026:3045  api.pricePerRequest */\n      0x01\n      add\n      sload\n        /* \"final project/General API Marketplace Token.sol\":3013:3022  _requests */\n      dup4\n        /* \"final project/General API Marketplace Token.sol\":3001:3010  totalCost */\n      dup3\n        /* \"final project/General API Marketplace Token.sol\":3001:3022  totalCost / _requests */\n      tag_64\n      swap2\n      swap1\n      tag_65\n      jump\t// in\n    tag_64:\n        /* \"final project/General API Marketplace Token.sol\":3001:3045  totalCost / _requests == api.pricePerRequest */\n      eq\n        /* \"final project/General API Marketplace Token.sol\":2993:3067  require(totalCost / _requests == api.pricePerRequest, \"Overflow detected\") */\n      tag_66\n      jumpi\n      mload(0x40)\n      0x08c379a000000000000000000000000000000000000000000000000000000000\n      dup2\n      mstore\n      0x04\n      add\n      tag_67\n      swap1\n      tag_68\n      jump\t// in\n    tag_67:\n      mload(0x40)\n      dup1\n      swap2\n      sub\n      swap1\n      revert\n    tag_66:\n        /* \"final project/General API Marketplace Token.sol\":3130:3190  token.safeTransferFrom(msg.sender, address(this), totalCost) */\n      tag_69\n        /* \"final project/General API Marketplace Token.sol\":3153:3163  msg.sender */\n      caller\n        /* \"final project/General API Marketplace Token.sol\":3173:3177  this */\n      address\n        /* \"final project/General API Marketplace Token.sol\":3180:3189  totalCost */\n      dup4\n        /* \"final project/General API Marketplace Token.sol\":3130:3135  token */\n      immutable(\"0x84d64b05fb6781395a889d7641a6a052ab1c8143a20e0073b5f8f8950ad4d39b\")\n        /* \"final project/General API Marketplace Token.sol\":3130:3152  token.safeTransferFrom */\n      0xffffffffffffffffffffffffffffffffffffffff\n      and\n      tag_70\n      swap1\n        /* \"final project/General API Marketplace Token.sol\":3130:3190  token.safeTransferFrom(msg.sender, address(this), totalCost) */\n      swap4\n      swap3\n      swap2\n      swap1\n      0xffffffff\n      and\n      jump\t// in\n    tag_69:\n        /* \"final project/General API Marketplace Token.sol\":3255:3264  _requests */\n      dup3\n        /* \"final project/General API Marketplace Token.sol\":3203:3213  userUsages */\n      0x04\n        /* \"final project/General API Marketplace Token.sol\":3203:3225  userUsages[msg.sender] */\n      0x00\n        /* \"final project/General API Marketplace Token.sol\":3214:3224  msg.sender */\n      caller\n        /* \"final project/General API Marketplace Token.sol\":3203:3225  userUsages[msg.sender] */\n      0xffffffffffffffffffffffffffffffffffffffff\n      and\n      0xffffffffffffffffffffffffffffffffffffffff\n      and\n      dup2\n      mstore\n      0x20\n      add\n      swap1\n      dup2\n      mstore\n      0x20\n      add\n      0x00\n      keccak256\n        /* \"final project/General API Marketplace Token.sol\":3203:3243  userUsages[msg.sender].remainingRequests */\n      0x00\n      add\n        /* \"final project/General API Marketplace Token.sol\":3203:3251  userUsages[msg.sender].remainingRequests[_apiId] */\n      0x00\n        /* \"final project/General API Marketplace Token.sol\":3244:3250  _apiId */\n      dup7\n        /* \"final project/General API Marketplace Token.sol\":3203:3251  userUsages[msg.sender].remainingRequests[_apiId] */\n      dup2\n      mstore\n      0x20\n      add\n      swap1\n      dup2\n      mstore\n      0x20\n      add\n      0x00\n      keccak256\n      0x00\n        /* \"final project/General API Marketplace Token.sol\":3203:3264  userUsages[msg.sender].remainingRequests[_apiId] += _requests */\n      dup3\n      dup3\n      sload\n      tag_71\n      swap2\n      swap1\n      tag_72\n      jump\t// in\n    tag_71:\n      swap3\n      pop\n      pop\n      dup2\n      swap1\n      sstore\n      pop\n        /* \"final project/General API Marketplace Token.sol\":3297:3306  _requests */\n      dup3\n        /* \"final project/General API Marketplace Token.sol\":3275:3278  api */\n      dup3\n        /* \"final project/General API Marketplace Token.sol\":3275:3293  api.totalPurchases */\n      0x02\n      add\n      0x00\n        /* \"final project/General API Marketplace Token.sol\":3275:3306  api.totalPurchases += _requests */\n      dup3\n      dup3\n      sload\n      tag_73\n      swap2\n      swap1\n      tag_72\n      jump\t// in\n    tag_73:\n      swap3\n      pop\n      pop\n      dup2\n      swap1\n      sstore\n      pop\n        /* \"final project/General API Marketplace Token.sol\":3355:3361  _apiId */\n      dup4\n        /* \"final project/General API Marketplace Token.sol\":3343:3353  msg.sender */\n      caller\n        /* \"final project/General API Marketplace Token.sol\":3324:3373  APIAccessPurchased(msg.sender, _apiId, _requests) */\n      0xffffffffffffffffffffffffffffffffffffffff\n      and\n      0x651496919c95942a8a70db2e93544280a0491b14565245385a8026dcb32e923b\n        /* \"final project/General API Marketplace Token.sol\":3363:3372  _requests */\n      dup6\n        /* \"final project/General API Marketplace Token.sol\":3324:3373  APIAccessPurchased(msg.sender, _apiId, _requests) */\n      mload(0x40)\n      tag_74\n      swap2\n      swap1\n      tag_16\n      jump\t// in\n    tag_74:\n      mload(0x40)\n      dup1\n      swap2\n      sub\n      swap1\n      log3\n        /* \"final project/General API Marketplace Token.sol\":2613:3381  {... */\n      pop\n      pop\n        /* \"final project/General API Marketplace Token.sol\":2542:3381  function purchaseAPIAccess(uint256 _apiId, uint256 _requests) external {... */\n      pop\n      pop\n      jump\t// out\n        /* \"final project/General API Marketplace Token.sol\":1956:2497  function registerAPI(string memory _name, uint256 _pricePerRequest) external onlyOwner {... */\n    tag_29:\n        /* \"final project/General API Marketplace Token.sol\":1865:1870  owner */\n      0x01\n      0x00\n      swap1\n      sload\n      swap1\n      0x0100\n      exp\n      swap1\n      div\n      0xffffffffffffffffffffffffffffffffffffffff\n      and\n        /* \"final project/General API Marketplace Token.sol\":1851:1870  msg.sender == owner */\n      0xffffffffffffffffffffffffffffffffffffffff\n      and\n        /* \"final project/General API Marketplace Token.sol\":1851:1861  msg.sender */\n      caller\n        /* \"final project/General API Marketplace Token.sol\":1851:1870  msg.sender == owner */\n      0xffffffffffffffffffffffffffffffffffffffff\n      and\n      eq\n        /* \"final project/General API Marketplace Token.sol\":1843:1898  require(msg.sender == owner, \"Caller is not the owner\") */\n      tag_76\n      jumpi\n      mload(0x40)\n      0x08c379a000000000000000000000000000000000000000000000000000000000\n      dup2\n      mstore\n      0x04\n      add\n      tag_77\n      swap1\n      tag_78\n      jump\t// in\n    tag_77:\n      mload(0x40)\n      dup1\n      swap2\n      sub\n      swap1\n      revert\n    tag_76:\n        /* \"final project/General API Marketplace Token.sol\":2084:2085  0 */\n      0x00\n        /* \"final project/General API Marketplace Token.sol\":2068:2073  _name */\n      dup3\n        /* \"final project/General API Marketplace Token.sol\":2062:2081  bytes(_name).length */\n      mload\n        /* \"final project/General API Marketplace Token.sol\":2062:2085  bytes(_name).length > 0 */\n      gt\n        /* \"final project/General API Marketplace Token.sol\":2054:2114  require(bytes(_name).length > 0, \"API name cannot be empty\") */\n      tag_80\n      jumpi\n      mload(0x40)\n      0x08c379a000000000000000000000000000000000000000000000000000000000\n      dup2\n      mstore\n      0x04\n      add\n      tag_81\n      swap1\n      tag_82\n      jump\t// in\n    tag_81:\n      mload(0x40)\n      dup1\n      swap2\n      sub\n      swap1\n      revert\n    tag_80:\n        /* \"final project/General API Marketplace Token.sol\":2152:2153  0 */\n      0x00\n        /* \"final project/General API Marketplace Token.sol\":2133:2149  _pricePerRequest */\n      dup2\n        /* \"final project/General API Marketplace Token.sol\":2133:2153  _pricePerRequest > 0 */\n      gt\n        /* \"final project/General API Marketplace Token.sol\":2125:2201  require(_pricePerRequest > 0, \"Price per request must be greater than zero\") */\n      tag_83\n      jumpi\n      mload(0x40)\n      0x08c379a000000000000000000000000000000000000000000000000000000000\n      dup2\n      mstore\n      0x04\n      add\n      tag_84\n      swap1\n      tag_85\n      jump\t// in\n    tag_84:\n      mload(0x40)\n      dup1\n      swap2\n      sub\n      swap1\n      revert\n    tag_83:\n        /* \"final project/General API Marketplace Token.sol\":2214:2227  uint256 apiId */\n      0x00\n        /* \"final project/General API Marketplace Token.sol\":2230:2242  apiIdCounter */\n      0x02\n      0x00\n        /* \"final project/General API Marketplace Token.sol\":2230:2244  apiIdCounter++ */\n      dup2\n      sload\n      dup1\n      swap3\n      swap2\n      swap1\n      tag_86\n      swap1\n      tag_87\n      jump\t// in\n    tag_86:\n      swap2\n      swap1\n      pop\n      sstore\n        /* \"final project/General API Marketplace Token.sol\":2214:2244  uint256 apiId = apiIdCounter++ */\n      swap1\n      pop\n        /* \"final project/General API Marketplace Token.sol\":2269:2426  APIAccess({... */\n      mload(0x40)\n      dup1\n      0x80\n      add\n      0x40\n      mstore\n      dup1\n        /* \"final project/General API Marketplace Token.sol\":2300:2305  _name */\n      dup5\n        /* \"final project/General API Marketplace Token.sol\":2269:2426  APIAccess({... */\n      dup2\n      mstore\n      0x20\n      add\n        /* \"final project/General API Marketplace Token.sol\":2337:2353  _pricePerRequest */\n      dup4\n        /* \"final project/General API Marketplace Token.sol\":2269:2426  APIAccess({... */\n      dup2\n      mstore\n      0x20\n      add\n        /* \"final project/General API Marketplace Token.sol\":2384:2385  0 */\n      0x00\n        /* \"final project/General API Marketplace Token.sol\":2269:2426  APIAccess({... */\n      dup2\n      mstore\n      0x20\n      add\n        /* \"final project/General API Marketplace Token.sol\":2410:2414  true */\n      0x01\n        /* \"final project/General API Marketplace Token.sol\":2269:2426  APIAccess({... */\n      iszero\n      iszero\n      dup2\n      mstore\n      pop\n        /* \"final project/General API Marketplace Token.sol\":2255:2259  apis */\n      0x03\n        /* \"final project/General API Marketplace Token.sol\":2255:2266  apis[apiId] */\n      0x00\n        /* \"final project/General API Marketplace Token.sol\":2260:2265  apiId */\n      dup4\n        /* \"final project/General API Marketplace Token.sol\":2255:2266  apis[apiId] */\n      dup2\n      mstore\n      0x20\n      add\n      swap1\n      dup2\n      mstore\n      0x20\n      add\n      0x00\n      keccak256\n        /* \"final project/General API Marketplace Token.sol\":2255:2426  apis[apiId] = APIAccess({... */\n      0x00\n      dup3\n      add\n      mload\n      dup2\n      0x00\n      add\n      swap1\n      dup2\n      tag_88\n      swap2\n      swap1\n      tag_89\n      jump\t// in\n    tag_88:\n      pop\n      0x20\n      dup3\n      add\n      mload\n      dup2\n      0x01\n      add\n      sstore\n      0x40\n      dup3\n      add\n      mload\n      dup2\n      0x02\n      add\n      sstore\n      0x60\n      dup3\n      add\n      mload\n      dup2\n      0x03\n      add\n      exp(0x0100, 0x00)\n      dup2\n      sload\n      dup2\n      0xff\n      mul\n      not\n      and\n      swap1\n      dup4\n      iszero\n      iszero\n      mul\n      or\n      swap1\n      sstore\n      pop\n      swap1\n      pop\n      pop\n        /* \"final project/General API Marketplace Token.sol\":2458:2463  apiId */\n      dup1\n        /* \"final project/General API Marketplace Token.sol\":2444:2489  APIRegistered(apiId, _name, _pricePerRequest) */\n      0x708b6915aad37cd1d491e64bf7a3b53c298499411a09f4b2315e30da638b5de2\n        /* \"final project/General API Marketplace Token.sol\":2465:2470  _name */\n      dup5\n        /* \"final project/General API Marketplace Token.sol\":2472:2488  _pricePerRequest */\n      dup5\n        /* \"final project/General API Marketplace Token.sol\":2444:2489  APIRegistered(apiId, _name, _pricePerRequest) */\n      mload(0x40)\n      tag_90\n      swap3\n      swap2\n      swap1\n      tag_91\n      jump\t// in\n    tag_90:\n      mload(0x40)\n      dup1\n      swap2\n      sub\n      swap1\n      log2\n        /* \"final project/General API Marketplace Token.sol\":2043:2497  {... */\n      pop\n        /* \"final project/General API Marketplace Token.sol\":1956:2497  function registerAPI(string memory _name, uint256 _pricePerRequest) external onlyOwner {... */\n      pop\n      pop\n      jump\t// out\n        /* \"final project/General API Marketplace Token.sol\":3940:4217  function withdrawTokens() external onlyOwner nonReentrant {... */\n    tag_31:\n        /* \"final project/General API Marketplace Token.sol\":1865:1870  owner */\n      0x01\n      0x00\n      swap1\n      sload\n      swap1\n      0x0100\n      exp\n      swap1\n      div\n      0xffffffffffffffffffffffffffffffffffffffff\n      and\n        /* \"final project/General API Marketplace Token.sol\":1851:1870  msg.sender == owner */\n      0xffffffffffffffffffffffffffffffffffffffff\n      and\n        /* \"final project/General API Marketplace Token.sol\":1851:1861  msg.sender */\n      caller\n        /* \"final project/General API Marketplace Token.sol\":1851:1870  msg.sender == owner */\n      0xffffffffffffffffffffffffffffffffffffffff\n      and\n      eq\n        /* \"final project/General API Marketplace Token.sol\":1843:1898  require(msg.sender == owner, \"Caller is not the owner\") */\n      tag_93\n      jumpi\n      mload(0x40)\n      0x08c379a000000000000000000000000000000000000000000000000000000000\n      dup2\n      mstore\n      0x04\n      add\n      tag_94\n      swap1\n      tag_78\n      jump\t// in\n    tag_94:\n      mload(0x40)\n      dup1\n      swap2\n      sub\n      swap1\n      revert\n    tag_93:\n        /* \"@openzeppelin/contracts/security/ReentrancyGuard.sol\":2261:2282  _nonReentrantBefore() */\n      tag_96\n        /* \"@openzeppelin/contracts/security/ReentrancyGuard.sol\":2261:2280  _nonReentrantBefore */\n      tag_97\n        /* \"@openzeppelin/contracts/security/ReentrancyGuard.sol\":2261:2282  _nonReentrantBefore() */\n      jump\t// in\n    tag_96:\n        /* \"final project/General API Marketplace Token.sol\":4009:4024  uint256 balance */\n      0x00\n        /* \"final project/General API Marketplace Token.sol\":4027:4032  token */\n      immutable(\"0x84d64b05fb6781395a889d7641a6a052ab1c8143a20e0073b5f8f8950ad4d39b\")\n        /* \"final project/General API Marketplace Token.sol\":4027:4042  token.balanceOf */\n      0xffffffffffffffffffffffffffffffffffffffff\n      and\n      0x70a08231\n        /* \"final project/General API Marketplace Token.sol\":4051:4055  this */\n      address\n        /* \"final project/General API Marketplace Token.sol\":4027:4057  token.balanceOf(address(this)) */\n      mload(0x40)\n      dup3\n      0xffffffff\n      and\n      0xe0\n      shl\n      dup2\n      mstore\n      0x04\n      add\n      tag_99\n      swap2\n      swap1\n      tag_35\n      jump\t// in\n    tag_99:\n      0x20\n      mload(0x40)\n      dup1\n      dup4\n      sub\n      dup2\n      dup7\n      gas\n      staticcall\n      iszero\n      dup1\n      iszero\n      tag_101\n      jumpi\n      returndatasize\n      0x00\n      dup1\n      returndatacopy\n      revert(0x00, returndatasize)\n    tag_101:\n      pop\n      pop\n      pop\n      pop\n      mload(0x40)\n      returndatasize\n      not(0x1f)\n      0x1f\n      dup3\n      add\n      and\n      dup3\n      add\n      dup1\n      0x40\n      mstore\n      pop\n      dup2\n      add\n      swap1\n      tag_102\n      swap2\n      swap1\n      tag_103\n      jump\t// in\n    tag_102:\n        /* \"final project/General API Marketplace Token.sol\":4009:4057  uint256 balance = token.balanceOf(address(this)) */\n      swap1\n      pop\n        /* \"final project/General API Marketplace Token.sol\":4086:4087  0 */\n      0x00\n        /* \"final project/General API Marketplace Token.sol\":4076:4083  balance */\n      dup2\n        /* \"final project/General API Marketplace Token.sol\":4076:4087  balance > 0 */\n      gt\n        /* \"final project/General API Marketplace Token.sol\":4068:4113  require(balance > 0, \"No tokens to withdraw\") */\n      tag_104\n      jumpi\n      mload(0x40)\n      0x08c379a000000000000000000000000000000000000000000000000000000000\n      dup2\n      mstore\n      0x04\n      add\n      tag_105\n      swap1\n      tag_106\n      jump\t// in\n    tag_105:\n      mload(0x40)\n      dup1\n      swap2\n      sub\n      swap1\n      revert\n    tag_104:\n        /* \"final project/General API Marketplace Token.sol\":4126:4160  token.safeTransfer(owner, balance) */\n      tag_107\n        /* \"final project/General API Marketplace Token.sol\":4145:4150  owner */\n      0x01\n      0x00\n      swap1\n      sload\n      swap1\n      0x0100\n      exp\n      swap1\n      div\n      0xffffffffffffffffffffffffffffffffffffffff\n      and\n        /* \"final project/General API Marketplace Token.sol\":4152:4159  balance */\n      dup3\n        /* \"final project/General API Marketplace Token.sol\":4126:4131  token */\n      immutable(\"0x84d64b05fb6781395a889d7641a6a052ab1c8143a20e0073b5f8f8950ad4d39b\")\n        /* \"final project/General API Marketplace Token.sol\":4126:4144  token.safeTransfer */\n      0xffffffffffffffffffffffffffffffffffffffff\n      and\n      tag_108\n      swap1\n        /* \"final project/General API Marketplace Token.sol\":4126:4160  token.safeTransfer(owner, balance) */\n      swap3\n      swap2\n      swap1\n      0xffffffff\n      and\n      jump\t// in\n    tag_107:\n        /* \"final project/General API Marketplace Token.sol\":4194:4199  owner */\n      0x01\n      0x00\n      swap1\n      sload\n      swap1\n      0x0100\n      exp\n      swap1\n      div\n      0xffffffffffffffffffffffffffffffffffffffff\n      and\n        /* \"final project/General API Marketplace Token.sol\":4178:4209  TokensWithdrawn(owner, balance) */\n      0xffffffffffffffffffffffffffffffffffffffff\n      and\n      0x6352c5382c4a4578e712449ca65e83cdb392d045dfcf1cad9615189db2da244b\n        /* \"final project/General API Marketplace Token.sol\":4201:4208  balance */\n      dup3\n        /* \"final project/General API Marketplace Token.sol\":4178:4209  TokensWithdrawn(owner, balance) */\n      mload(0x40)\n      tag_109\n      swap2\n      swap1\n      tag_16\n      jump\t// in\n    tag_109:\n      mload(0x40)\n      dup1\n      swap2\n      sub\n      swap1\n      log2\n        /* \"final project/General API Marketplace Token.sol\":3998:4217  {... */\n      pop\n        /* \"@openzeppelin/contracts/security/ReentrancyGuard.sol\":2303:2323  _nonReentrantAfter() */\n      tag_110\n        /* \"@openzeppelin/contracts/security/ReentrancyGuard.sol\":2303:2321  _nonReentrantAfter */\n      tag_111\n        /* \"@openzeppelin/contracts/security/ReentrancyGuard.sol\":2303:2323  _nonReentrantAfter() */\n      jump\t// in\n    tag_110:\n        /* \"final project/General API Marketplace Token.sol\":3940:4217  function withdrawTokens() external onlyOwner nonReentrant {... */\n      jump\t// out\n        /* \"final project/General API Marketplace Token.sol\":670:690  address public owner */\n    tag_33:\n      0x01\n      0x00\n      swap1\n      sload\n      swap1\n      0x0100\n      exp\n      swap1\n      div\n      0xffffffffffffffffffffffffffffffffffffffff\n      and\n      dup2\n      jump\t// out\n        /* \"final project/General API Marketplace Token.sol\":3421:3899  function useAPIAccess(uint256 _apiId) external {... */\n    tag_39:\n        /* \"final project/General API Marketplace Token.sol\":3496:3508  apiIdCounter */\n      sload(0x02)\n        /* \"final project/General API Marketplace Token.sol\":3487:3493  _apiId */\n      dup2\n        /* \"final project/General API Marketplace Token.sol\":3487:3508  _apiId < apiIdCounter */\n      lt\n        /* \"final project/General API Marketplace Token.sol\":3479:3531  require(_apiId < apiIdCounter, \"API does not exist\") */\n      tag_113\n      jumpi\n      mload(0x40)\n      0x08c379a000000000000000000000000000000000000000000000000000000000\n      dup2\n      mstore\n      0x04\n      add\n      tag_114\n      swap1\n      tag_52\n      jump\t// in\n    tag_114:\n      mload(0x40)\n      dup1\n      swap2\n      sub\n      swap1\n      revert\n    tag_113:\n        /* \"final project/General API Marketplace Token.sol\":3544:3565  APIAccess storage api */\n      0x00\n        /* \"final project/General API Marketplace Token.sol\":3568:3572  apis */\n      0x03\n        /* \"final project/General API Marketplace Token.sol\":3568:3580  apis[_apiId] */\n      0x00\n        /* \"final project/General API Marketplace Token.sol\":3573:3579  _apiId */\n      dup4\n        /* \"final project/General API Marketplace Token.sol\":3568:3580  apis[_apiId] */\n      dup2\n      mstore\n      0x20\n      add\n      swap1\n      dup2\n      mstore\n      0x20\n      add\n      0x00\n      keccak256\n        /* \"final project/General API Marketplace Token.sol\":3544:3580  APIAccess storage api = apis[_apiId] */\n      swap1\n      pop\n        /* \"final project/General API Marketplace Token.sol\":3599:3602  api */\n      dup1\n        /* \"final project/General API Marketplace Token.sol\":3599:3611  api.isActive */\n      0x03\n      add\n      0x00\n      swap1\n      sload\n      swap1\n      0x0100\n      exp\n      swap1\n      div\n      0xff\n      and\n        /* \"final project/General API Marketplace Token.sol\":3591:3633  require(api.isActive, \"API is not active\") */\n      tag_115\n      jumpi\n      mload(0x40)\n      0x08c379a000000000000000000000000000000000000000000000000000000000\n      dup2\n      mstore\n      0x04\n      add\n      tag_116\n      swap1\n      tag_61\n      jump\t// in\n    tag_116:\n      mload(0x40)\n      dup1\n      swap2\n      sub\n      swap1\n      revert\n    tag_115:\n        /* \"final project/General API Marketplace Token.sol\":3646:3663  uint256 remaining */\n      0x00\n        /* \"final project/General API Marketplace Token.sol\":3666:3676  userUsages */\n      0x04\n        /* \"final project/General API Marketplace Token.sol\":3666:3688  userUsages[msg.sender] */\n      0x00\n        /* \"final project/General API Marketplace Token.sol\":3677:3687  msg.sender */\n      caller\n        /* \"final project/General API Marketplace Token.sol\":3666:3688  userUsages[msg.sender] */\n      0xffffffffffffffffffffffffffffffffffffffff\n      and\n      0xffffffffffffffffffffffffffffffffffffffff\n      and\n      dup2\n      mstore\n      0x20\n      add\n      swap1\n      dup2\n      mstore\n      0x20\n      add\n      0x00\n      keccak256\n        /* \"final project/General API Marketplace Token.sol\":3666:3706  userUsages[msg.sender].remainingRequests */\n      0x00\n      add\n        /* \"final project/General API Marketplace Token.sol\":3666:3714  userUsages[msg.sender].remainingRequests[_apiId] */\n      0x00\n        /* \"final project/General API Marketplace Token.sol\":3707:3713  _apiId */\n      dup5\n        /* \"final project/General API Marketplace Token.sol\":3666:3714  userUsages[msg.sender].remainingRequests[_apiId] */\n      dup2\n      mstore\n      0x20\n      add\n      swap1\n      dup2\n      mstore\n      0x20\n      add\n      0x00\n      keccak256\n      sload\n        /* \"final project/General API Marketplace Token.sol\":3646:3714  uint256 remaining = userUsages[msg.sender].remainingRequests[_apiId] */\n      swap1\n      pop\n        /* \"final project/General API Marketplace Token.sol\":3745:3746  0 */\n      0x00\n        /* \"final project/General API Marketplace Token.sol\":3733:3742  remaining */\n      dup2\n        /* \"final project/General API Marketplace Token.sol\":3733:3746  remaining > 0 */\n      gt\n        /* \"final project/General API Marketplace Token.sol\":3725:3776  require(remaining > 0, \"No remaining API requests\") */\n      tag_117\n      jumpi\n      mload(0x40)\n      0x08c379a000000000000000000000000000000000000000000000000000000000\n      dup2\n      mstore\n      0x04\n      add\n      tag_118\n      swap1\n      tag_119\n      jump\t// in\n    tag_118:\n      mload(0x40)\n      dup1\n      swap2\n      sub\n      swap1\n      revert\n    tag_117:\n        /* \"final project/General API Marketplace Token.sol\":3841:3842  1 */\n      0x01\n        /* \"final project/General API Marketplace Token.sol\":3789:3799  userUsages */\n      0x04\n        /* \"final project/General API Marketplace Token.sol\":3789:3811  userUsages[msg.sender] */\n      0x00\n        /* \"final project/General API Marketplace Token.sol\":3800:3810  msg.sender */\n      caller\n        /* \"final project/General API Marketplace Token.sol\":3789:3811  userUsages[msg.sender] */\n      0xffffffffffffffffffffffffffffffffffffffff\n      and\n      0xffffffffffffffffffffffffffffffffffffffff\n      and\n      dup2\n      mstore\n      0x20\n      add\n      swap1\n      dup2\n      mstore\n      0x20\n      add\n      0x00\n      keccak256\n        /* \"final project/General API Marketplace Token.sol\":3789:3829  userUsages[msg.sender].remainingRequests */\n      0x00\n      add\n        /* \"final project/General API Marketplace Token.sol\":3789:3837  userUsages[msg.sender].remainingRequests[_apiId] */\n      0x00\n        /* \"final project/General API Marketplace Token.sol\":3830:3836  _apiId */\n      dup6\n        /* \"final project/General API Marketplace Token.sol\":3789:3837  userUsages[msg.sender].remainingRequests[_apiId] */\n      dup2\n      mstore\n      0x20\n      add\n      swap1\n      dup2\n      mstore\n      0x20\n      add\n      0x00\n      keccak256\n      0x00\n        /* \"final project/General API Marketplace Token.sol\":3789:3842  userUsages[msg.sender].remainingRequests[_apiId] -= 1 */\n      dup3\n      dup3\n      sload\n      tag_120\n      swap2\n      swap1\n      tag_121\n      jump\t// in\n    tag_120:\n      swap3\n      pop\n      pop\n      dup2\n      swap1\n      sstore\n      pop\n        /* \"final project/General API Marketplace Token.sol\":3884:3890  _apiId */\n      dup3\n        /* \"final project/General API Marketplace Token.sol\":3872:3882  msg.sender */\n      caller\n        /* \"final project/General API Marketplace Token.sol\":3860:3891  APICallMade(msg.sender, _apiId) */\n      0xffffffffffffffffffffffffffffffffffffffff\n      and\n      0x7598affe5bb8b864e84f0b819f6b046054c8f0d6771e8ae086411b5dd2a8bc12\n      mload(0x40)\n      mload(0x40)\n      dup1\n      swap2\n      sub\n      swap1\n      log3\n        /* \"final project/General API Marketplace Token.sol\":3468:3899  {... */\n      pop\n      pop\n        /* \"final project/General API Marketplace Token.sol\":3421:3899  function useAPIAccess(uint256 _apiId) external {... */\n      pop\n      jump\t// out\n        /* \"final project/General API Marketplace Token.sol\":1094:1135  mapping(uint256 => APIAccess) public apis */\n    tag_42:\n      mstore(0x20, 0x03)\n      dup1\n      0x00\n      mstore\n      keccak256(0x00, 0x40)\n      0x00\n      swap2\n      pop\n      swap1\n      pop\n      dup1\n      0x00\n      add\n      dup1\n      sload\n      tag_122\n      swap1\n      tag_123\n      jump\t// in\n    tag_122:\n      dup1\n      0x1f\n      add\n      0x20\n      dup1\n      swap2\n      div\n      mul\n      0x20\n      add\n      mload(0x40)\n      swap1\n      dup2\n      add\n      0x40\n      mstore\n      dup1\n      swap3\n      swap2\n      swap1\n      dup2\n      dup2\n      mstore\n      0x20\n      add\n      dup3\n      dup1\n      sload\n      tag_124\n      swap1\n      tag_123\n      jump\t// in\n    tag_124:\n      dup1\n      iszero\n      tag_125\n      jumpi\n      dup1\n      0x1f\n      lt\n      tag_126\n      jumpi\n      0x0100\n      dup1\n      dup4\n      sload\n      div\n      mul\n      dup4\n      mstore\n      swap2\n      0x20\n      add\n      swap2\n      jump(tag_125)\n    tag_126:\n      dup3\n      add\n      swap2\n      swap1\n      0x00\n      mstore\n      keccak256(0x00, 0x20)\n      swap1\n    tag_127:\n      dup2\n      sload\n      dup2\n      mstore\n      swap1\n      0x01\n      add\n      swap1\n      0x20\n      add\n      dup1\n      dup4\n      gt\n      tag_127\n      jumpi\n      dup3\n      swap1\n      sub\n      0x1f\n      and\n      dup3\n      add\n      swap2\n    tag_125:\n      pop\n      pop\n      pop\n      pop\n      pop\n      swap1\n      dup1\n      0x01\n      add\n      sload\n      swap1\n      dup1\n      0x02\n      add\n      sload\n      swap1\n      dup1\n      0x03\n      add\n      0x00\n      swap1\n      sload\n      swap1\n      0x0100\n      exp\n      swap1\n      div\n      0xff\n      and\n      swap1\n      pop\n      dup5\n      jump\t// out\n        /* \"final project/General API Marketplace Token.sol\":634:663  IERC20 public immutable token */\n    tag_46:\n      immutable(\"0x84d64b05fb6781395a889d7641a6a052ab1c8143a20e0073b5f8f8950ad4d39b\")\n      dup2\n      jump\t// out\n        /* \"@openzeppelin/contracts/token/ERC20/utils/SafeERC20.sol\":1618:1806  function safeTransferFrom(IERC20 token, address from, address to, uint256 value) internal {... */\n    tag_70:\n        /* \"@openzeppelin/contracts/token/ERC20/utils/SafeERC20.sol\":1718:1799  _callOptionalReturn(token, abi.encodeCall(token.transferFrom, (from, to, value))) */\n      tag_129\n        /* \"@openzeppelin/contracts/token/ERC20/utils/SafeERC20.sol\":1738:1743  token */\n      dup5\n        /* \"@openzeppelin/contracts/token/ERC20/utils/SafeERC20.sol\":1760:1765  token */\n      dup6\n        /* \"@openzeppelin/contracts/token/ERC20/utils/SafeERC20.sol\":1760:1778  token.transferFrom */\n      0xffffffffffffffffffffffffffffffffffffffff\n      and\n      0x23b872dd\n        /* \"@openzeppelin/contracts/token/ERC20/utils/SafeERC20.sol\":1781:1785  from */\n      dup7\n        /* \"@openzeppelin/contracts/token/ERC20/utils/SafeERC20.sol\":1787:1789  to */\n      dup7\n        /* \"@openzeppelin/contracts/token/ERC20/utils/SafeERC20.sol\":1791:1796  value */\n      dup7\n        /* \"@openzeppelin/contracts/token/ERC20/utils/SafeERC20.sol\":1745:1798  abi.encodeCall(token.transferFrom, (from, to, value)) */\n      add(0x24, mload(0x40))\n      tag_130\n      swap4\n      swap3\n      swap2\n      swap1\n      tag_131\n      jump\t// in\n    tag_130:\n      mload(0x40)\n      0x20\n      dup2\n      dup4\n      sub\n      sub\n      dup2\n      mstore\n      swap1\n      0x40\n      mstore\n      swap2\n      pop\n      0xe0\n      shl\n      0x20\n      dup3\n      add\n      dup1\n      mload\n      0xffffffffffffffffffffffffffffffffffffffffffffffffffffffff\n      dup4\n      dup2\n      dup4\n      and\n      or\n      dup4\n      mstore\n      pop\n      pop\n      pop\n      pop\n        /* \"@openzeppelin/contracts/token/ERC20/utils/SafeERC20.sol\":1718:1737  _callOptionalReturn */\n      tag_132\n        /* \"@openzeppelin/contracts/token/ERC20/utils/SafeERC20.sol\":1718:1799  _callOptionalReturn(token, abi.encodeCall(token.transferFrom, (from, to, value))) */\n      jump\t// in\n    tag_129:\n        /* \"@openzeppelin/contracts/token/ERC20/utils/SafeERC20.sol\":1618:1806  function safeTransferFrom(IERC20 token, address from, address to, uint256 value) internal {... */\n      pop\n      pop\n      pop\n      pop\n      jump\t// out\n        /* \"@openzeppelin/contracts/security/ReentrancyGuard.sol\":2336:2623  function _nonReentrantBefore() private {... */\n    tag_97:\n        /* \"@openzeppelin/contracts/security/ReentrancyGuard.sol\":1759:1760  2 */\n      0x02\n        /* \"@openzeppelin/contracts/security/ReentrancyGuard.sol\":2468:2475  _status */\n      sload(0x00)\n        /* \"@openzeppelin/contracts/security/ReentrancyGuard.sol\":2468:2487  _status != _ENTERED */\n      sub\n        /* \"@openzeppelin/contracts/security/ReentrancyGuard.sol\":2460:2523  require(_status != _ENTERED, \"ReentrancyGuard: reentrant call\") */\n      tag_134\n      jumpi\n      mload(0x40)\n      0x08c379a000000000000000000000000000000000000000000000000000000000\n      dup2\n      mstore\n      0x04\n      add\n      tag_135\n      swap1\n      tag_136\n      jump\t// in\n    tag_135:\n      mload(0x40)\n      dup1\n      swap2\n      sub\n      swap1\n      revert\n    tag_134:\n        /* \"@openzeppelin/contracts/security/ReentrancyGuard.sol\":1759:1760  2 */\n      0x02\n        /* \"@openzeppelin/contracts/security/ReentrancyGuard.sol\":2598:2605  _status */\n      0x00\n        /* \"@openzeppelin/contracts/security/ReentrancyGuard.sol\":2598:2616  _status = _ENTERED */\n      dup2\n      swap1\n      sstore\n      pop\n        /* \"@openzeppelin/contracts/security/ReentrancyGuard.sol\":2336:2623  function _nonReentrantBefore() private {... */\n      jump\t// out\n        /* \"@openzeppelin/contracts/token/ERC20/utils/SafeERC20.sol\":1219:1379  function safeTransfer(IERC20 token, address to, uint256 value) internal {... */\n    tag_108:\n        /* \"@openzeppelin/contracts/token/ERC20/utils/SafeERC20.sol\":1301:1372  _callOptionalReturn(token, abi.encodeCall(token.transfer, (to, value))) */\n      tag_138\n        /* \"@openzeppelin/contracts/token/ERC20/utils/SafeERC20.sol\":1321:1326  token */\n      dup4\n        /* \"@openzeppelin/contracts/token/ERC20/utils/SafeERC20.sol\":1343:1348  token */\n      dup5\n        /* \"@openzeppelin/contracts/token/ERC20/utils/SafeERC20.sol\":1343:1357  token.transfer */\n      0xffffffffffffffffffffffffffffffffffffffff\n      and\n      0xa9059cbb\n        /* \"@openzeppelin/contracts/token/ERC20/utils/SafeERC20.sol\":1360:1362  to */\n      dup6\n        /* \"@openzeppelin/contracts/token/ERC20/utils/SafeERC20.sol\":1364:1369  value */\n      dup6\n        /* \"@openzeppelin/contracts/token/ERC20/utils/SafeERC20.sol\":1328:1371  abi.encodeCall(token.transfer, (to, value)) */\n      add(0x24, mload(0x40))\n      tag_139\n      swap3\n      swap2\n      swap1\n      tag_140\n      jump\t// in\n    tag_139:\n      mload(0x40)\n      0x20\n      dup2\n      dup4\n      sub\n      sub\n      dup2\n      mstore\n      swap1\n      0x40\n      mstore\n      swap2\n      pop\n      0xe0\n      shl\n      0x20\n      dup3\n      add\n      dup1\n      mload\n      0xffffffffffffffffffffffffffffffffffffffffffffffffffffffff\n      dup4\n      dup2\n      dup4\n      and\n      or\n      dup4\n      mstore\n      pop\n      pop\n      pop\n      pop\n        /* \"@openzeppelin/contracts/token/ERC20/utils/SafeERC20.sol\":1301:1320  _callOptionalReturn */\n      tag_132\n        /* \"@openzeppelin/contracts/token/ERC20/utils/SafeERC20.sol\":1301:1372  _callOptionalReturn(token, abi.encodeCall(token.transfer, (to, value))) */\n      jump\t// in\n    tag_138:\n        /* \"@openzeppelin/contracts/token/ERC20/utils/SafeERC20.sol\":1219:1379  function safeTransfer(IERC20 token, address to, uint256 value) internal {... */\n      pop\n      pop\n      pop\n      jump\t// out\n        /* \"@openzeppelin/contracts/security/ReentrancyGuard.sol\":2629:2838  function _nonReentrantAfter() private {... */\n    tag_111:\n        /* \"@openzeppelin/contracts/security/ReentrancyGuard.sol\":1716:1717  1 */\n      0x01\n        /* \"@openzeppelin/contracts/security/ReentrancyGuard.sol\":2809:2816  _status */\n      0x00\n        /* \"@openzeppelin/contracts/security/ReentrancyGuard.sol\":2809:2831  _status = _NOT_ENTERED */\n      dup2\n      swap1\n      sstore\n      pop\n        /* \"@openzeppelin/contracts/security/ReentrancyGuard.sol\":2629:2838  function _nonReentrantAfter() private {... */\n      jump\t// out\n        /* \"@openzeppelin/contracts/token/ERC20/utils/SafeERC20.sol\":7686:8406  function _callOptionalReturn(IERC20 token, bytes memory data) private {... */\n    tag_132:\n        /* \"@openzeppelin/contracts/token/ERC20/utils/SafeERC20.sol\":7766:7784  uint256 returnSize */\n      0x00\n        /* \"@openzeppelin/contracts/token/ERC20/utils/SafeERC20.sol\":7794:7813  uint256 returnValue */\n      dup1\n        /* \"@openzeppelin/contracts/token/ERC20/utils/SafeERC20.sol\":7932:7936  0x20 */\n      0x20\n        /* \"@openzeppelin/contracts/token/ERC20/utils/SafeERC20.sol\":7929:7930  0 */\n      0x00\n        /* \"@openzeppelin/contracts/token/ERC20/utils/SafeERC20.sol\":7922:7926  data */\n      dup5\n        /* \"@openzeppelin/contracts/token/ERC20/utils/SafeERC20.sol\":7916:7927  mload(data) */\n      mload\n        /* \"@openzeppelin/contracts/token/ERC20/utils/SafeERC20.sol\":7909:7913  0x20 */\n      0x20\n        /* \"@openzeppelin/contracts/token/ERC20/utils/SafeERC20.sol\":7903:7907  data */\n      dup7\n        /* \"@openzeppelin/contracts/token/ERC20/utils/SafeERC20.sol\":7899:7914  add(data, 0x20) */\n      add\n        /* \"@openzeppelin/contracts/token/ERC20/utils/SafeERC20.sol\":7896:7897  0 */\n      0x00\n        /* \"@openzeppelin/contracts/token/ERC20/utils/SafeERC20.sol\":7889:7894  token */\n      dup9\n        /* \"@openzeppelin/contracts/token/ERC20/utils/SafeERC20.sol\":7882:7887  gas() */\n      gas\n        /* \"@openzeppelin/contracts/token/ERC20/utils/SafeERC20.sol\":7877:7937  call(gas(), token, 0, add(data, 0x20), mload(data), 0, 0x20) */\n      call\n        /* \"@openzeppelin/contracts/token/ERC20/utils/SafeERC20.sol\":7989:7996  success */\n      dup1\n        /* \"@openzeppelin/contracts/token/ERC20/utils/SafeERC20.sol\":7979:8155  if iszero(success) {... */\n      tag_143\n      jumpi\n        /* \"@openzeppelin/contracts/token/ERC20/utils/SafeERC20.sol\":8033:8037  0x40 */\n      0x40\n        /* \"@openzeppelin/contracts/token/ERC20/utils/SafeERC20.sol\":8027:8038  mload(0x40) */\n      mload\n        /* \"@openzeppelin/contracts/token/ERC20/utils/SafeERC20.sol\":8078:8094  returndatasize() */\n      returndatasize\n        /* \"@openzeppelin/contracts/token/ERC20/utils/SafeERC20.sol\":8075:8076  0 */\n      0x00\n        /* \"@openzeppelin/contracts/token/ERC20/utils/SafeERC20.sol\":8070:8073  ptr */\n      dup3\n        /* \"@openzeppelin/contracts/token/ERC20/utils/SafeERC20.sol\":8055:8095  returndatacopy(ptr, 0, returndatasize()) */\n      returndatacopy\n        /* \"@openzeppelin/contracts/token/ERC20/utils/SafeERC20.sol\":8124:8140  returndatasize() */\n      returndatasize\n        /* \"@openzeppelin/contracts/token/ERC20/utils/SafeERC20.sol\":8119:8122  ptr */\n      dup2\n        /* \"@openzeppelin/contracts/token/ERC20/utils/SafeERC20.sol\":8112:8141  revert(ptr, returndatasize()) */\n      revert\n        /* \"@openzeppelin/contracts/token/ERC20/utils/SafeERC20.sol\":7979:8155  if iszero(success) {... */\n    tag_143:\n        /* \"@openzeppelin/contracts/token/ERC20/utils/SafeERC20.sol\":8182:8198  returndatasize() */\n      returndatasize\n        /* \"@openzeppelin/contracts/token/ERC20/utils/SafeERC20.sol\":8168:8198  returnSize := returndatasize() */\n      swap3\n      pop\n        /* \"@openzeppelin/contracts/token/ERC20/utils/SafeERC20.sol\":8232:8233  0 */\n      0x00\n        /* \"@openzeppelin/contracts/token/ERC20/utils/SafeERC20.sol\":8226:8234  mload(0) */\n      mload\n        /* \"@openzeppelin/contracts/token/ERC20/utils/SafeERC20.sol\":8211:8234  returnValue := mload(0) */\n      swap2\n      pop\n        /* \"@openzeppelin/contracts/token/ERC20/utils/SafeERC20.sol\":7848:8244  {... */\n      pop\n        /* \"@openzeppelin/contracts/token/ERC20/utils/SafeERC20.sol\":8272:8273  0 */\n      0x00\n        /* \"@openzeppelin/contracts/token/ERC20/utils/SafeERC20.sol\":8258:8268  returnSize */\n      dup3\n        /* \"@openzeppelin/contracts/token/ERC20/utils/SafeERC20.sol\":8258:8273  returnSize == 0 */\n      eq\n        /* \"@openzeppelin/contracts/token/ERC20/utils/SafeERC20.sol\":8258:8326  returnSize == 0 ? address(token).code.length == 0 : returnValue != 1 */\n      tag_144\n      jumpi\n        /* \"@openzeppelin/contracts/token/ERC20/utils/SafeERC20.sol\":8325:8326  1 */\n      0x01\n        /* \"@openzeppelin/contracts/token/ERC20/utils/SafeERC20.sol\":8310:8321  returnValue */\n      dup2\n        /* \"@openzeppelin/contracts/token/ERC20/utils/SafeERC20.sol\":8310:8326  returnValue != 1 */\n      eq\n      iszero\n        /* \"@openzeppelin/contracts/token/ERC20/utils/SafeERC20.sol\":8258:8326  returnSize == 0 ? address(token).code.length == 0 : returnValue != 1 */\n      jump(tag_145)\n    tag_144:\n        /* \"@openzeppelin/contracts/token/ERC20/utils/SafeERC20.sol\":8306:8307  0 */\n      0x00\n        /* \"@openzeppelin/contracts/token/ERC20/utils/SafeERC20.sol\":8284:8289  token */\n      dup5\n        /* \"@openzeppelin/contracts/token/ERC20/utils/SafeERC20.sol\":8276:8302  address(token).code.length */\n      0xffffffffffffffffffffffffffffffffffffffff\n      and\n      extcodesize\n        /* \"@openzeppelin/contracts/token/ERC20/utils/SafeERC20.sol\":8276:8307  address(token).code.length == 0 */\n      eq\n        /* \"@openzeppelin/contracts/token/ERC20/utils/SafeERC20.sol\":8258:8326  returnSize == 0 ? address(token).code.length == 0 : returnValue != 1 */\n    tag_145:\n        /* \"@openzeppelin/contracts/token/ERC20/utils/SafeERC20.sol\":8254:8400  if (returnSize == 0 ? address(token).code.length == 0 : returnValue != 1) {... */\n      iszero\n      tag_146\n      jumpi\n        /* \"@openzeppelin/contracts/token/ERC20/utils/SafeERC20.sol\":8382:8387  token */\n      dup4\n        /* \"@openzeppelin/contracts/token/ERC20/utils/SafeERC20.sol\":8349:8389  SafeERC20FailedOperation(address(token)) */\n      mload(0x40)\n      0x5274afe700000000000000000000000000000000000000000000000000000000\n      dup2\n      mstore\n      0x04\n      add\n      tag_147\n      swap2\n      swap1\n      tag_35\n      jump\t// in\n    tag_147:\n      mload(0x40)\n      dup1\n      swap2\n      sub\n      swap1\n      revert\n        /* \"@openzeppelin/contracts/token/ERC20/utils/SafeERC20.sol\":8254:8400  if (returnSize == 0 ? address(token).code.length == 0 : returnValue != 1) {... */\n    tag_146:\n        /* \"@openzeppelin/contracts/token/ERC20/utils/SafeERC20.sol\":7756:8406  {... */\n      pop\n      pop\n        /* \"@openzeppelin/contracts/token/ERC20/utils/SafeERC20.sol\":7686:8406  function _callOptionalReturn(IERC20 token, bytes memory data) private {... */\n      pop\n      pop\n      jump\t// out\n        /* \"#utility.yul\":7:84   */\n    tag_148:\n        /* \"#utility.yul\":44:51   */\n      0x00\n        /* \"#utility.yul\":73:78   */\n      dup2\n        /* \"#utility.yul\":62:78   */\n      swap1\n      pop\n        /* \"#utility.yul\":7:84   */\n      swap2\n      swap1\n      pop\n      jump\t// out\n        /* \"#utility.yul\":90:208   */\n    tag_149:\n        /* \"#utility.yul\":177:201   */\n      tag_222\n        /* \"#utility.yul\":195:200   */\n      dup2\n        /* \"#utility.yul\":177:201   */\n      tag_148\n      jump\t// in\n    tag_222:\n        /* \"#utility.yul\":172:175   */\n      dup3\n        /* \"#utility.yul\":165:202   */\n      mstore\n        /* \"#utility.yul\":90:208   */\n      pop\n      pop\n      jump\t// out\n        /* \"#utility.yul\":214:436   */\n    tag_16:\n        /* \"#utility.yul\":307:311   */\n      0x00\n        /* \"#utility.yul\":345:347   */\n      0x20\n        /* \"#utility.yul\":334:343   */\n      dup3\n        /* \"#utility.yul\":330:348   */\n      add\n        /* \"#utility.yul\":322:348   */\n      swap1\n      pop\n        /* \"#utility.yul\":358:429   */\n      tag_224\n        /* \"#utility.yul\":426:427   */\n      0x00\n        /* \"#utility.yul\":415:424   */\n      dup4\n        /* \"#utility.yul\":411:428   */\n      add\n        /* \"#utility.yul\":402:408   */\n      dup5\n        /* \"#utility.yul\":358:429   */\n      tag_149\n      jump\t// in\n    tag_224:\n        /* \"#utility.yul\":214:436   */\n      swap3\n      swap2\n      pop\n      pop\n      jump\t// out\n        /* \"#utility.yul\":442:517   */\n    tag_150:\n        /* \"#utility.yul\":475:481   */\n      0x00\n        /* \"#utility.yul\":508:510   */\n      0x40\n        /* \"#utility.yul\":502:511   */\n      mload\n        /* \"#utility.yul\":492:511   */\n      swap1\n      pop\n        /* \"#utility.yul\":442:517   */\n      swap1\n      jump\t// out\n        /* \"#utility.yul\":523:640   */\n    tag_151:\n        /* \"#utility.yul\":632:633   */\n      0x00\n        /* \"#utility.yul\":629:630   */\n      dup1\n        /* \"#utility.yul\":622:634   */\n      revert\n        /* \"#utility.yul\":646:763   */\n    tag_152:\n        /* \"#utility.yul\":755:756   */\n      0x00\n        /* \"#utility.yul\":752:753   */\n      dup1\n        /* \"#utility.yul\":745:757   */\n      revert\n        /* \"#utility.yul\":769:895   */\n    tag_153:\n        /* \"#utility.yul\":806:813   */\n      0x00\n        /* \"#utility.yul\":846:888   */\n      0xffffffffffffffffffffffffffffffffffffffff\n        /* \"#utility.yul\":839:844   */\n      dup3\n        /* \"#utility.yul\":835:889   */\n      and\n        /* \"#utility.yul\":824:889   */\n      swap1\n      pop\n        /* \"#utility.yul\":769:895   */\n      swap2\n      swap1\n      pop\n      jump\t// out\n        /* \"#utility.yul\":901:997   */\n    tag_154:\n        /* \"#utility.yul\":938:945   */\n      0x00\n        /* \"#utility.yul\":967:991   */\n      tag_230\n        /* \"#utility.yul\":985:990   */\n      dup3\n        /* \"#utility.yul\":967:991   */\n      tag_153\n      jump\t// in\n    tag_230:\n        /* \"#utility.yul\":956:991   */\n      swap1\n      pop\n        /* \"#utility.yul\":901:997   */\n      swap2\n      swap1\n      pop\n      jump\t// out\n        /* \"#utility.yul\":1003:1125   */\n    tag_155:\n        /* \"#utility.yul\":1076:1100   */\n      tag_232\n        /* \"#utility.yul\":1094:1099   */\n      dup2\n        /* \"#utility.yul\":1076:1100   */\n      tag_154\n      jump\t// in\n    tag_232:\n        /* \"#utility.yul\":1069:1074   */\n      dup2\n        /* \"#utility.yul\":1066:1101   */\n      eq\n        /* \"#utility.yul\":1056:1119   */\n      tag_233\n      jumpi\n        /* \"#utility.yul\":1115:1116   */\n      0x00\n        /* \"#utility.yul\":1112:1113   */\n      dup1\n        /* \"#utility.yul\":1105:1117   */\n      revert\n        /* \"#utility.yul\":1056:1119   */\n    tag_233:\n        /* \"#utility.yul\":1003:1125   */\n      pop\n      jump\t// out\n        /* \"#utility.yul\":1131:1270   */\n    tag_156:\n        /* \"#utility.yul\":1177:1182   */\n      0x00\n        /* \"#utility.yul\":1215:1221   */\n      dup2\n        /* \"#utility.yul\":1202:1222   */\n      calldataload\n        /* \"#utility.yul\":1193:1222   */\n      swap1\n      pop\n        /* \"#utility.yul\":1231:1264   */\n      tag_235\n        /* \"#utility.yul\":1258:1263   */\n      dup2\n        /* \"#utility.yul\":1231:1264   */\n      tag_155\n      jump\t// in\n    tag_235:\n        /* \"#utility.yul\":1131:1270   */\n      swap3\n      swap2\n      pop\n      pop\n      jump\t// out\n        /* \"#utility.yul\":1276:1398   */\n    tag_157:\n        /* \"#utility.yul\":1349:1373   */\n      tag_237\n        /* \"#utility.yul\":1367:1372   */\n      dup2\n        /* \"#utility.yul\":1349:1373   */\n      tag_148\n      jump\t// in\n    tag_237:\n        /* \"#utility.yul\":1342:1347   */\n      dup2\n        /* \"#utility.yul\":1339:1374   */\n      eq\n        /* \"#utility.yul\":1329:1392   */\n      tag_238\n      jumpi\n        /* \"#utility.yul\":1388:1389   */\n      0x00\n        /* \"#utility.yul\":1385:1386   */\n      dup1\n        /* \"#utility.yul\":1378:1390   */\n      revert\n        /* \"#utility.yul\":1329:1392   */\n    tag_238:\n        /* \"#utility.yul\":1276:1398   */\n      pop\n      jump\t// out\n        /* \"#utility.yul\":1404:1543   */\n    tag_158:\n        /* \"#utility.yul\":1450:1455   */\n      0x00\n        /* \"#utility.yul\":1488:1494   */\n      dup2\n        /* \"#utility.yul\":1475:1495   */\n      calldataload\n        /* \"#utility.yul\":1466:1495   */\n      swap1\n      pop\n        /* \"#utility.yul\":1504:1537   */\n      tag_240\n        /* \"#utility.yul\":1531:1536   */\n      dup2\n        /* \"#utility.yul\":1504:1537   */\n      tag_157\n      jump\t// in\n    tag_240:\n        /* \"#utility.yul\":1404:1543   */\n      swap3\n      swap2\n      pop\n      pop\n      jump\t// out\n        /* \"#utility.yul\":1549:2023   */\n    tag_19:\n        /* \"#utility.yul\":1617:1623   */\n      0x00\n        /* \"#utility.yul\":1625:1631   */\n      dup1\n        /* \"#utility.yul\":1674:1676   */\n      0x40\n        /* \"#utility.yul\":1662:1671   */\n      dup4\n        /* \"#utility.yul\":1653:1660   */\n      dup6\n        /* \"#utility.yul\":1649:1672   */\n      sub\n        /* \"#utility.yul\":1645:1677   */\n      slt\n        /* \"#utility.yul\":1642:1761   */\n      iszero\n      tag_242\n      jumpi\n        /* \"#utility.yul\":1680:1759   */\n      tag_243\n      tag_151\n      jump\t// in\n    tag_243:\n        /* \"#utility.yul\":1642:1761   */\n    tag_242:\n        /* \"#utility.yul\":1800:1801   */\n      0x00\n        /* \"#utility.yul\":1825:1878   */\n      tag_244\n        /* \"#utility.yul\":1870:1877   */\n      dup6\n        /* \"#utility.yul\":1861:1867   */\n      dup3\n        /* \"#utility.yul\":1850:1859   */\n      dup7\n        /* \"#utility.yul\":1846:1868   */\n      add\n        /* \"#utility.yul\":1825:1878   */\n      tag_156\n      jump\t// in\n    tag_244:\n        /* \"#utility.yul\":1815:1878   */\n      swap3\n      pop\n        /* \"#utility.yul\":1771:1888   */\n      pop\n        /* \"#utility.yul\":1927:1929   */\n      0x20\n        /* \"#utility.yul\":1953:2006   */\n      tag_245\n        /* \"#utility.yul\":1998:2005   */\n      dup6\n        /* \"#utility.yul\":1989:1995   */\n      dup3\n        /* \"#utility.yul\":1978:1987   */\n      dup7\n        /* \"#utility.yul\":1974:1996   */\n      add\n        /* \"#utility.yul\":1953:2006   */\n      tag_158\n      jump\t// in\n    tag_245:\n        /* \"#utility.yul\":1943:2006   */\n      swap2\n      pop\n        /* \"#utility.yul\":1898:2016   */\n      pop\n        /* \"#utility.yul\":1549:2023   */\n      swap3\n      pop\n      swap3\n      swap1\n      pop\n      jump\t// out\n        /* \"#utility.yul\":2029:2503   */\n    tag_24:\n        /* \"#utility.yul\":2097:2103   */\n      0x00\n        /* \"#utility.yul\":2105:2111   */\n      dup1\n        /* \"#utility.yul\":2154:2156   */\n      0x40\n        /* \"#utility.yul\":2142:2151   */\n      dup4\n        /* \"#utility.yul\":2133:2140   */\n      dup6\n        /* \"#utility.yul\":2129:2152   */\n      sub\n        /* \"#utility.yul\":2125:2157   */\n      slt\n        /* \"#utility.yul\":2122:2241   */\n      iszero\n      tag_247\n      jumpi\n        /* \"#utility.yul\":2160:2239   */\n      tag_248\n      tag_151\n      jump\t// in\n    tag_248:\n        /* \"#utility.yul\":2122:2241   */\n    tag_247:\n        /* \"#utility.yul\":2280:2281   */\n      0x00\n        /* \"#utility.yul\":2305:2358   */\n      tag_249\n        /* \"#utility.yul\":2350:2357   */\n      dup6\n        /* \"#utility.yul\":2341:2347   */\n      dup3\n        /* \"#utility.yul\":2330:2339   */\n      dup7\n        /* \"#utility.yul\":2326:2348   */\n      add\n        /* \"#utility.yul\":2305:2358   */\n      tag_158\n      jump\t// in\n    tag_249:\n        /* \"#utility.yul\":2295:2358   */\n      swap3\n      pop\n        /* \"#utility.yul\":2251:2368   */\n      pop\n        /* \"#utility.yul\":2407:2409   */\n      0x20\n        /* \"#utility.yul\":2433:2486   */\n      tag_250\n        /* \"#utility.yul\":2478:2485   */\n      dup6\n        /* \"#utility.yul\":2469:2475   */\n      dup3\n        /* \"#utility.yul\":2458:2467   */\n      dup7\n        /* \"#utility.yul\":2454:2476   */\n      add\n        /* \"#utility.yul\":2433:2486   */\n      tag_158\n      jump\t// in\n    tag_250:\n        /* \"#utility.yul\":2423:2486   */\n      swap2\n      pop\n        /* \"#utility.yul\":2378:2496   */\n      pop\n        /* \"#utility.yul\":2029:2503   */\n      swap3\n      pop\n      swap3\n      swap1\n      pop\n      jump\t// out\n        /* \"#utility.yul\":2509:2626   */\n    tag_159:\n        /* \"#utility.yul\":2618:2619   */\n      0x00\n        /* \"#utility.yul\":2615:2616   */\n      dup1\n        /* \"#utility.yul\":2608:2620   */\n      revert\n        /* \"#utility.yul\":2632:2749   */\n    tag_160:\n        /* \"#utility.yul\":2741:2742   */\n      0x00\n        /* \"#utility.yul\":2738:2739   */\n      dup1\n        /* \"#utility.yul\":2731:2743   */\n      revert\n        /* \"#utility.yul\":2755:2857   */\n    tag_161:\n        /* \"#utility.yul\":2796:2802   */\n      0x00\n        /* \"#utility.yul\":2847:2849   */\n      0x1f\n        /* \"#utility.yul\":2843:2850   */\n      not\n        /* \"#utility.yul\":2838:2840   */\n      0x1f\n        /* \"#utility.yul\":2831:2836   */\n      dup4\n        /* \"#utility.yul\":2827:2841   */\n      add\n        /* \"#utility.yul\":2823:2851   */\n      and\n        /* \"#utility.yul\":2813:2851   */\n      swap1\n      pop\n        /* \"#utility.yul\":2755:2857   */\n      swap2\n      swap1\n      pop\n      jump\t// out\n        /* \"#utility.yul\":2863:3043   */\n    tag_162:\n        /* \"#utility.yul\":2911:2988   */\n      0x4e487b7100000000000000000000000000000000000000000000000000000000\n        /* \"#utility.yul\":2908:2909   */\n      0x00\n        /* \"#utility.yul\":2901:2989   */\n      mstore\n        /* \"#utility.yul\":3008:3012   */\n      0x41\n        /* \"#utility.yul\":3005:3006   */\n      0x04\n        /* \"#utility.yul\":2998:3013   */\n      mstore\n        /* \"#utility.yul\":3032:3036   */\n      0x24\n        /* \"#utility.yul\":3029:3030   */\n      0x00\n        /* \"#utility.yul\":3022:3037   */\n      revert\n        /* \"#utility.yul\":3049:3330   */\n    tag_163:\n        /* \"#utility.yul\":3132:3159   */\n      tag_256\n        /* \"#utility.yul\":3154:3158   */\n      dup3\n        /* \"#utility.yul\":3132:3159   */\n      tag_161\n      jump\t// in\n    tag_256:\n        /* \"#utility.yul\":3124:3130   */\n      dup2\n        /* \"#utility.yul\":3120:3160   */\n      add\n        /* \"#utility.yul\":3262:3268   */\n      dup2\n        /* \"#utility.yul\":3250:3260   */\n      dup2\n        /* \"#utility.yul\":3247:3269   */\n      lt\n        /* \"#utility.yul\":3226:3244   */\n      0xffffffffffffffff\n        /* \"#utility.yul\":3214:3224   */\n      dup3\n        /* \"#utility.yul\":3211:3245   */\n      gt\n        /* \"#utility.yul\":3208:3270   */\n      or\n        /* \"#utility.yul\":3205:3293   */\n      iszero\n      tag_257\n      jumpi\n        /* \"#utility.yul\":3273:3291   */\n      tag_258\n      tag_162\n      jump\t// in\n    tag_258:\n        /* \"#utility.yul\":3205:3293   */\n    tag_257:\n        /* \"#utility.yul\":3313:3323   */\n      dup1\n        /* \"#utility.yul\":3309:3311   */\n      0x40\n        /* \"#utility.yul\":3302:3324   */\n      mstore\n        /* \"#utility.yul\":3092:3330   */\n      pop\n        /* \"#utility.yul\":3049:3330   */\n      pop\n      pop\n      jump\t// out\n        /* \"#utility.yul\":3336:3465   */\n    tag_164:\n        /* \"#utility.yul\":3370:3376   */\n      0x00\n        /* \"#utility.yul\":3397:3417   */\n      tag_260\n      tag_150\n      jump\t// in\n    tag_260:\n        /* \"#utility.yul\":3387:3417   */\n      swap1\n      pop\n        /* \"#utility.yul\":3426:3459   */\n      tag_261\n        /* \"#utility.yul\":3454:3458   */\n      dup3\n        /* \"#utility.yul\":3446:3452   */\n      dup3\n        /* \"#utility.yul\":3426:3459   */\n      tag_163\n      jump\t// in\n    tag_261:\n        /* \"#utility.yul\":3336:3465   */\n      swap2\n      swap1\n      pop\n      jump\t// out\n        /* \"#utility.yul\":3471:3779   */\n    tag_165:\n        /* \"#utility.yul\":3533:3537   */\n      0x00\n        /* \"#utility.yul\":3623:3641   */\n      0xffffffffffffffff\n        /* \"#utility.yul\":3615:3621   */\n      dup3\n        /* \"#utility.yul\":3612:3642   */\n      gt\n        /* \"#utility.yul\":3609:3665   */\n      iszero\n      tag_263\n      jumpi\n        /* \"#utility.yul\":3645:3663   */\n      tag_264\n      tag_162\n      jump\t// in\n    tag_264:\n        /* \"#utility.yul\":3609:3665   */\n    tag_263:\n        /* \"#utility.yul\":3683:3712   */\n      tag_265\n        /* \"#utility.yul\":3705:3711   */\n      dup3\n        /* \"#utility.yul\":3683:3712   */\n      tag_161\n      jump\t// in\n    tag_265:\n        /* \"#utility.yul\":3675:3712   */\n      swap1\n      pop\n        /* \"#utility.yul\":3767:3771   */\n      0x20\n        /* \"#utility.yul\":3761:3765   */\n      dup2\n        /* \"#utility.yul\":3757:3772   */\n      add\n        /* \"#utility.yul\":3749:3772   */\n      swap1\n      pop\n        /* \"#utility.yul\":3471:3779   */\n      swap2\n      swap1\n      pop\n      jump\t// out\n        /* \"#utility.yul\":3785:3933   */\n    tag_166:\n        /* \"#utility.yul\":3883:3889   */\n      dup3\n        /* \"#utility.yul\":3878:3881   */\n      dup2\n        /* \"#utility.yul\":3873:3876   */\n      dup4\n        /* \"#utility.yul\":3860:3890   */\n      calldatacopy\n        /* \"#utility.yul\":3924:3925   */\n      0x00\n        /* \"#utility.yul\":3915:3921   */\n      dup4\n        /* \"#utility.yul\":3910:3913   */\n      dup4\n        /* \"#utility.yul\":3906:3922   */\n      add\n        /* \"#utility.yul\":3899:3926   */\n      mstore\n        /* \"#utility.yul\":3785:3933   */\n      pop\n      pop\n      pop\n      jump\t// out\n        /* \"#utility.yul\":3939:4364   */\n    tag_167:\n        /* \"#utility.yul\":4017:4022   */\n      0x00\n        /* \"#utility.yul\":4042:4108   */\n      tag_268\n        /* \"#utility.yul\":4058:4107   */\n      tag_269\n        /* \"#utility.yul\":4100:4106   */\n      dup5\n        /* \"#utility.yul\":4058:4107   */\n      tag_165\n      jump\t// in\n    tag_269:\n        /* \"#utility.yul\":4042:4108   */\n      tag_164\n      jump\t// in\n    tag_268:\n        /* \"#utility.yul\":4033:4108   */\n      swap1\n      pop\n        /* \"#utility.yul\":4131:4137   */\n      dup3\n        /* \"#utility.yul\":4124:4129   */\n      dup2\n        /* \"#utility.yul\":4117:4138   */\n      mstore\n        /* \"#utility.yul\":4169:4173   */\n      0x20\n        /* \"#utility.yul\":4162:4167   */\n      dup2\n        /* \"#utility.yul\":4158:4174   */\n      add\n        /* \"#utility.yul\":4207:4210   */\n      dup5\n        /* \"#utility.yul\":4198:4204   */\n      dup5\n        /* \"#utility.yul\":4193:4196   */\n      dup5\n        /* \"#utility.yul\":4189:4205   */\n      add\n        /* \"#utility.yul\":4186:4211   */\n      gt\n        /* \"#utility.yul\":4183:4295   */\n      iszero\n      tag_270\n      jumpi\n        /* \"#utility.yul\":4214:4293   */\n      tag_271\n      tag_160\n      jump\t// in\n    tag_271:\n        /* \"#utility.yul\":4183:4295   */\n    tag_270:\n        /* \"#utility.yul\":4304:4358   */\n      tag_272\n        /* \"#utility.yul\":4351:4357   */\n      dup5\n        /* \"#utility.yul\":4346:4349   */\n      dup3\n        /* \"#utility.yul\":4341:4344   */\n      dup6\n        /* \"#utility.yul\":4304:4358   */\n      tag_166\n      jump\t// in\n    tag_272:\n        /* \"#utility.yul\":4023:4364   */\n      pop\n        /* \"#utility.yul\":3939:4364   */\n      swap4\n      swap3\n      pop\n      pop\n      pop\n      jump\t// out\n        /* \"#utility.yul\":4384:4724   */\n    tag_168:\n        /* \"#utility.yul\":4440:4445   */\n      0x00\n        /* \"#utility.yul\":4489:4492   */\n      dup3\n        /* \"#utility.yul\":4482:4486   */\n      0x1f\n        /* \"#utility.yul\":4474:4480   */\n      dup4\n        /* \"#utility.yul\":4470:4487   */\n      add\n        /* \"#utility.yul\":4466:4493   */\n      slt\n        /* \"#utility.yul\":4456:4578   */\n      tag_274\n      jumpi\n        /* \"#utility.yul\":4497:4576   */\n      tag_275\n      tag_159\n      jump\t// in\n    tag_275:\n        /* \"#utility.yul\":4456:4578   */\n    tag_274:\n        /* \"#utility.yul\":4614:4620   */\n      dup2\n        /* \"#utility.yul\":4601:4621   */\n      calldataload\n        /* \"#utility.yul\":4639:4718   */\n      tag_276\n        /* \"#utility.yul\":4714:4717   */\n      dup5\n        /* \"#utility.yul\":4706:4712   */\n      dup3\n        /* \"#utility.yul\":4699:4703   */\n      0x20\n        /* \"#utility.yul\":4691:4697   */\n      dup7\n        /* \"#utility.yul\":4687:4704   */\n      add\n        /* \"#utility.yul\":4639:4718   */\n      tag_167\n      jump\t// in\n    tag_276:\n        /* \"#utility.yul\":4630:4718   */\n      swap2\n      pop\n        /* \"#utility.yul\":4446:4724   */\n      pop\n        /* \"#utility.yul\":4384:4724   */\n      swap3\n      swap2\n      pop\n      pop\n      jump\t// out\n        /* \"#utility.yul\":4730:5384   */\n    tag_28:\n        /* \"#utility.yul\":4808:4814   */\n      0x00\n        /* \"#utility.yul\":4816:4822   */\n      dup1\n        /* \"#utility.yul\":4865:4867   */\n      0x40\n        /* \"#utility.yul\":4853:4862   */\n      dup4\n        /* \"#utility.yul\":4844:4851   */\n      dup6\n        /* \"#utility.yul\":4840:4863   */\n      sub\n        /* \"#utility.yul\":4836:4868   */\n      slt\n        /* \"#utility.yul\":4833:4952   */\n      iszero\n      tag_278\n      jumpi\n        /* \"#utility.yul\":4871:4950   */\n      tag_279\n      tag_151\n      jump\t// in\n    tag_279:\n        /* \"#utility.yul\":4833:4952   */\n    tag_278:\n        /* \"#utility.yul\":5019:5020   */\n      0x00\n        /* \"#utility.yul\":5008:5017   */\n      dup4\n        /* \"#utility.yul\":5004:5021   */\n      add\n        /* \"#utility.yul\":4991:5022   */\n      calldataload\n        /* \"#utility.yul\":5049:5067   */\n      0xffffffffffffffff\n        /* \"#utility.yul\":5041:5047   */\n      dup2\n        /* \"#utility.yul\":5038:5068   */\n      gt\n        /* \"#utility.yul\":5035:5152   */\n      iszero\n      tag_280\n      jumpi\n        /* \"#utility.yul\":5071:5150   */\n      tag_281\n      tag_152\n      jump\t// in\n    tag_281:\n        /* \"#utility.yul\":5035:5152   */\n    tag_280:\n        /* \"#utility.yul\":5176:5239   */\n      tag_282\n        /* \"#utility.yul\":5231:5238   */\n      dup6\n        /* \"#utility.yul\":5222:5228   */\n      dup3\n        /* \"#utility.yul\":5211:5220   */\n      dup7\n        /* \"#utility.yul\":5207:5229   */\n      add\n        /* \"#utility.yul\":5176:5239   */\n      tag_168\n      jump\t// in\n    tag_282:\n        /* \"#utility.yul\":5166:5239   */\n      swap3\n      pop\n        /* \"#utility.yul\":4962:5249   */\n      pop\n        /* \"#utility.yul\":5288:5290   */\n      0x20\n        /* \"#utility.yul\":5314:5367   */\n      tag_283\n        /* \"#utility.yul\":5359:5366   */\n      dup6\n        /* \"#utility.yul\":5350:5356   */\n      dup3\n        /* \"#utility.yul\":5339:5348   */\n      dup7\n        /* \"#utility.yul\":5335:5357   */\n      add\n        /* \"#utility.yul\":5314:5367   */\n      tag_158\n      jump\t// in\n    tag_283:\n        /* \"#utility.yul\":5304:5367   */\n      swap2\n      pop\n        /* \"#utility.yul\":5259:5377   */\n      pop\n        /* \"#utility.yul\":4730:5384   */\n      swap3\n      pop\n      swap3\n      swap1\n      pop\n      jump\t// out\n        /* \"#utility.yul\":5390:5508   */\n    tag_169:\n        /* \"#utility.yul\":5477:5501   */\n      tag_285\n        /* \"#utility.yul\":5495:5500   */\n      dup2\n        /* \"#utility.yul\":5477:5501   */\n      tag_154\n      jump\t// in\n    tag_285:\n        /* \"#utility.yul\":5472:5475   */\n      dup3\n        /* \"#utility.yul\":5465:5502   */\n      mstore\n        /* \"#utility.yul\":5390:5508   */\n      pop\n      pop\n      jump\t// out\n        /* \"#utility.yul\":5514:5736   */\n    tag_35:\n        /* \"#utility.yul\":5607:5611   */\n      0x00\n        /* \"#utility.yul\":5645:5647   */\n      0x20\n        /* \"#utility.yul\":5634:5643   */\n      dup3\n        /* \"#utility.yul\":5630:5648   */\n      add\n        /* \"#utility.yul\":5622:5648   */\n      swap1\n      pop\n        /* \"#utility.yul\":5658:5729   */\n      tag_287\n        /* \"#utility.yul\":5726:5727   */\n      0x00\n        /* \"#utility.yul\":5715:5724   */\n      dup4\n        /* \"#utility.yul\":5711:5728   */\n      add\n        /* \"#utility.yul\":5702:5708   */\n      dup5\n        /* \"#utility.yul\":5658:5729   */\n      tag_169\n      jump\t// in\n    tag_287:\n        /* \"#utility.yul\":5514:5736   */\n      swap3\n      swap2\n      pop\n      pop\n      jump\t// out\n        /* \"#utility.yul\":5742:6071   */\n    tag_38:\n        /* \"#utility.yul\":5801:5807   */\n      0x00\n        /* \"#utility.yul\":5850:5852   */\n      0x20\n        /* \"#utility.yul\":5838:5847   */\n      dup3\n        /* \"#utility.yul\":5829:5836   */\n      dup5\n        /* \"#utility.yul\":5825:5848   */\n      sub\n        /* \"#utility.yul\":5821:5853   */\n      slt\n        /* \"#utility.yul\":5818:5937   */\n      iszero\n      tag_289\n      jumpi\n        /* \"#utility.yul\":5856:5935   */\n      tag_290\n      tag_151\n      jump\t// in\n    tag_290:\n        /* \"#utility.yul\":5818:5937   */\n    tag_289:\n        /* \"#utility.yul\":5976:5977   */\n      0x00\n        /* \"#utility.yul\":6001:6054   */\n      tag_291\n        /* \"#utility.yul\":6046:6053   */\n      dup5\n        /* \"#utility.yul\":6037:6043   */\n      dup3\n        /* \"#utility.yul\":6026:6035   */\n      dup6\n        /* \"#utility.yul\":6022:6044   */\n      add\n        /* \"#utility.yul\":6001:6054   */\n      tag_158\n      jump\t// in\n    tag_291:\n        /* \"#utility.yul\":5991:6054   */\n      swap2\n      pop\n        /* \"#utility.yul\":5947:6064   */\n      pop\n        /* \"#utility.yul\":5742:6071   */\n      swap3\n      swap2\n      pop\n      pop\n      jump\t// out\n        /* \"#utility.yul\":6077:6176   */\n    tag_170:\n        /* \"#utility.yul\":6129:6135   */\n      0x00\n        /* \"#utility.yul\":6163:6168   */\n      dup2\n        /* \"#utility.yul\":6157:6169   */\n      mload\n        /* \"#utility.yul\":6147:6169   */\n      swap1\n      pop\n        /* \"#utility.yul\":6077:6176   */\n      swap2\n      swap1\n      pop\n      jump\t// out\n        /* \"#utility.yul\":6182:6351   */\n    tag_171:\n        /* \"#utility.yul\":6266:6277   */\n      0x00\n        /* \"#utility.yul\":6300:6306   */\n      dup3\n        /* \"#utility.yul\":6295:6298   */\n      dup3\n        /* \"#utility.yul\":6288:6307   */\n      mstore\n        /* \"#utility.yul\":6340:6344   */\n      0x20\n        /* \"#utility.yul\":6335:6338   */\n      dup3\n        /* \"#utility.yul\":6331:6345   */\n      add\n        /* \"#utility.yul\":6316:6345   */\n      swap1\n      pop\n        /* \"#utility.yul\":6182:6351   */\n      swap3\n      swap2\n      pop\n      pop\n      jump\t// out\n        /* \"#utility.yul\":6357:6496   */\n    tag_172:\n        /* \"#utility.yul\":6446:6452   */\n      dup3\n        /* \"#utility.yul\":6441:6444   */\n      dup2\n        /* \"#utility.yul\":6436:6439   */\n      dup4\n        /* \"#utility.yul\":6430:6453   */\n      mcopy\n        /* \"#utility.yul\":6487:6488   */\n      0x00\n        /* \"#utility.yul\":6478:6484   */\n      dup4\n        /* \"#utility.yul\":6473:6476   */\n      dup4\n        /* \"#utility.yul\":6469:6485   */\n      add\n        /* \"#utility.yul\":6462:6489   */\n      mstore\n        /* \"#utility.yul\":6357:6496   */\n      pop\n      pop\n      pop\n      jump\t// out\n        /* \"#utility.yul\":6502:6879   */\n    tag_173:\n        /* \"#utility.yul\":6590:6593   */\n      0x00\n        /* \"#utility.yul\":6618:6657   */\n      tag_296\n        /* \"#utility.yul\":6651:6656   */\n      dup3\n        /* \"#utility.yul\":6618:6657   */\n      tag_170\n      jump\t// in\n    tag_296:\n        /* \"#utility.yul\":6673:6744   */\n      tag_297\n        /* \"#utility.yul\":6737:6743   */\n      dup2\n        /* \"#utility.yul\":6732:6735   */\n      dup6\n        /* \"#utility.yul\":6673:6744   */\n      tag_171\n      jump\t// in\n    tag_297:\n        /* \"#utility.yul\":6666:6744   */\n      swap4\n      pop\n        /* \"#utility.yul\":6753:6818   */\n      tag_298\n        /* \"#utility.yul\":6811:6817   */\n      dup2\n        /* \"#utility.yul\":6806:6809   */\n      dup6\n        /* \"#utility.yul\":6799:6803   */\n      0x20\n        /* \"#utility.yul\":6792:6797   */\n      dup7\n        /* \"#utility.yul\":6788:6804   */\n      add\n        /* \"#utility.yul\":6753:6818   */\n      tag_172\n      jump\t// in\n    tag_298:\n        /* \"#utility.yul\":6843:6872   */\n      tag_299\n        /* \"#utility.yul\":6865:6871   */\n      dup2\n        /* \"#utility.yul\":6843:6872   */\n      tag_161\n      jump\t// in\n    tag_299:\n        /* \"#utility.yul\":6838:6841   */\n      dup5\n        /* \"#utility.yul\":6834:6873   */\n      add\n        /* \"#utility.yul\":6827:6873   */\n      swap2\n      pop\n        /* \"#utility.yul\":6594:6879   */\n      pop\n        /* \"#utility.yul\":6502:6879   */\n      swap3\n      swap2\n      pop\n      pop\n      jump\t// out\n        /* \"#utility.yul\":6885:6975   */\n    tag_174:\n        /* \"#utility.yul\":6919:6926   */\n      0x00\n        /* \"#utility.yul\":6962:6967   */\n      dup2\n        /* \"#utility.yul\":6955:6968   */\n      iszero\n        /* \"#utility.yul\":6948:6969   */\n      iszero\n        /* \"#utility.yul\":6937:6969   */\n      swap1\n      pop\n        /* \"#utility.yul\":6885:6975   */\n      swap2\n      swap1\n      pop\n      jump\t// out\n        /* \"#utility.yul\":6981:7090   */\n    tag_175:\n        /* \"#utility.yul\":7062:7083   */\n      tag_302\n        /* \"#utility.yul\":7077:7082   */\n      dup2\n        /* \"#utility.yul\":7062:7083   */\n      tag_174\n      jump\t// in\n    tag_302:\n        /* \"#utility.yul\":7057:7060   */\n      dup3\n        /* \"#utility.yul\":7050:7084   */\n      mstore\n        /* \"#utility.yul\":6981:7090   */\n      pop\n      pop\n      jump\t// out\n        /* \"#utility.yul\":7096:7728   */\n    tag_44:\n        /* \"#utility.yul\":7287:7291   */\n      0x00\n        /* \"#utility.yul\":7325:7328   */\n      0x80\n        /* \"#utility.yul\":7314:7323   */\n      dup3\n        /* \"#utility.yul\":7310:7329   */\n      add\n        /* \"#utility.yul\":7302:7329   */\n      swap1\n      pop\n        /* \"#utility.yul\":7375:7384   */\n      dup2\n        /* \"#utility.yul\":7369:7373   */\n      dup2\n        /* \"#utility.yul\":7365:7385   */\n      sub\n        /* \"#utility.yul\":7361:7362   */\n      0x00\n        /* \"#utility.yul\":7350:7359   */\n      dup4\n        /* \"#utility.yul\":7346:7363   */\n      add\n        /* \"#utility.yul\":7339:7386   */\n      mstore\n        /* \"#utility.yul\":7403:7481   */\n      tag_304\n        /* \"#utility.yul\":7476:7480   */\n      dup2\n        /* \"#utility.yul\":7467:7473   */\n      dup8\n        /* \"#utility.yul\":7403:7481   */\n      tag_173\n      jump\t// in\n    tag_304:\n        /* \"#utility.yul\":7395:7481   */\n      swap1\n      pop\n        /* \"#utility.yul\":7491:7563   */\n      tag_305\n        /* \"#utility.yul\":7559:7561   */\n      0x20\n        /* \"#utility.yul\":7548:7557   */\n      dup4\n        /* \"#utility.yul\":7544:7562   */\n      add\n        /* \"#utility.yul\":7535:7541   */\n      dup7\n        /* \"#utility.yul\":7491:7563   */\n      tag_149\n      jump\t// in\n    tag_305:\n        /* \"#utility.yul\":7573:7645   */\n      tag_306\n        /* \"#utility.yul\":7641:7643   */\n      0x40\n        /* \"#utility.yul\":7630:7639   */\n      dup4\n        /* \"#utility.yul\":7626:7644   */\n      add\n        /* \"#utility.yul\":7617:7623   */\n      dup6\n        /* \"#utility.yul\":7573:7645   */\n      tag_149\n      jump\t// in\n    tag_306:\n        /* \"#utility.yul\":7655:7721   */\n      tag_307\n        /* \"#utility.yul\":7717:7719   */\n      0x60\n        /* \"#utility.yul\":7706:7715   */\n      dup4\n        /* \"#utility.yul\":7702:7720   */\n      add\n        /* \"#utility.yul\":7693:7699   */\n      dup5\n        /* \"#utility.yul\":7655:7721   */\n      tag_175\n      jump\t// in\n    tag_307:\n        /* \"#utility.yul\":7096:7728   */\n      swap6\n      swap5\n      pop\n      pop\n      pop\n      pop\n      pop\n      jump\t// out\n        /* \"#utility.yul\":7734:7794   */\n    tag_176:\n        /* \"#utility.yul\":7762:7765   */\n      0x00\n        /* \"#utility.yul\":7783:7788   */\n      dup2\n        /* \"#utility.yul\":7776:7788   */\n      swap1\n      pop\n        /* \"#utility.yul\":7734:7794   */\n      swap2\n      swap1\n      pop\n      jump\t// out\n        /* \"#utility.yul\":7800:7942   */\n    tag_177:\n        /* \"#utility.yul\":7850:7859   */\n      0x00\n        /* \"#utility.yul\":7883:7936   */\n      tag_310\n        /* \"#utility.yul\":7901:7935   */\n      tag_311\n        /* \"#utility.yul\":7910:7934   */\n      tag_312\n        /* \"#utility.yul\":7928:7933   */\n      dup5\n        /* \"#utility.yul\":7910:7934   */\n      tag_153\n      jump\t// in\n    tag_312:\n        /* \"#utility.yul\":7901:7935   */\n      tag_176\n      jump\t// in\n    tag_311:\n        /* \"#utility.yul\":7883:7936   */\n      tag_153\n      jump\t// in\n    tag_310:\n        /* \"#utility.yul\":7870:7936   */\n      swap1\n      pop\n        /* \"#utility.yul\":7800:7942   */\n      swap2\n      swap1\n      pop\n      jump\t// out\n        /* \"#utility.yul\":7948:8074   */\n    tag_178:\n        /* \"#utility.yul\":7998:8007   */\n      0x00\n        /* \"#utility.yul\":8031:8068   */\n      tag_314\n        /* \"#utility.yul\":8062:8067   */\n      dup3\n        /* \"#utility.yul\":8031:8068   */\n      tag_177\n      jump\t// in\n    tag_314:\n        /* \"#utility.yul\":8018:8068   */\n      swap1\n      pop\n        /* \"#utility.yul\":7948:8074   */\n      swap2\n      swap1\n      pop\n      jump\t// out\n        /* \"#utility.yul\":8080:8220   */\n    tag_179:\n        /* \"#utility.yul\":8144:8153   */\n      0x00\n        /* \"#utility.yul\":8177:8214   */\n      tag_316\n        /* \"#utility.yul\":8208:8213   */\n      dup3\n        /* \"#utility.yul\":8177:8214   */\n      tag_178\n      jump\t// in\n    tag_316:\n        /* \"#utility.yul\":8164:8214   */\n      swap1\n      pop\n        /* \"#utility.yul\":8080:8220   */\n      swap2\n      swap1\n      pop\n      jump\t// out\n        /* \"#utility.yul\":8226:8385   */\n    tag_180:\n        /* \"#utility.yul\":8327:8378   */\n      tag_318\n        /* \"#utility.yul\":8372:8377   */\n      dup2\n        /* \"#utility.yul\":8327:8378   */\n      tag_179\n      jump\t// in\n    tag_318:\n        /* \"#utility.yul\":8322:8325   */\n      dup3\n        /* \"#utility.yul\":8315:8379   */\n      mstore\n        /* \"#utility.yul\":8226:8385   */\n      pop\n      pop\n      jump\t// out\n        /* \"#utility.yul\":8391:8641   */\n    tag_48:\n        /* \"#utility.yul\":8498:8502   */\n      0x00\n        /* \"#utility.yul\":8536:8538   */\n      0x20\n        /* \"#utility.yul\":8525:8534   */\n      dup3\n        /* \"#utility.yul\":8521:8539   */\n      add\n        /* \"#utility.yul\":8513:8539   */\n      swap1\n      pop\n        /* \"#utility.yul\":8549:8634   */\n      tag_320\n        /* \"#utility.yul\":8631:8632   */\n      0x00\n        /* \"#utility.yul\":8620:8629   */\n      dup4\n        /* \"#utility.yul\":8616:8633   */\n      add\n        /* \"#utility.yul\":8607:8613   */\n      dup5\n        /* \"#utility.yul\":8549:8634   */\n      tag_180\n      jump\t// in\n    tag_320:\n        /* \"#utility.yul\":8391:8641   */\n      swap3\n      swap2\n      pop\n      pop\n      jump\t// out\n        /* \"#utility.yul\":8647:8815   */\n    tag_181:\n        /* \"#utility.yul\":8787:8807   */\n      0x41504920646f6573206e6f742065786973740000000000000000000000000000\n        /* \"#utility.yul\":8783:8784   */\n      0x00\n        /* \"#utility.yul\":8775:8781   */\n      dup3\n        /* \"#utility.yul\":8771:8785   */\n      add\n        /* \"#utility.yul\":8764:8808   */\n      mstore\n        /* \"#utility.yul\":8647:8815   */\n      pop\n      jump\t// out\n        /* \"#utility.yul\":8821:9187   */\n    tag_182:\n        /* \"#utility.yul\":8963:8966   */\n      0x00\n        /* \"#utility.yul\":8984:9051   */\n      tag_323\n        /* \"#utility.yul\":9048:9050   */\n      0x12\n        /* \"#utility.yul\":9043:9046   */\n      dup4\n        /* \"#utility.yul\":8984:9051   */\n      tag_171\n      jump\t// in\n    tag_323:\n        /* \"#utility.yul\":8977:9051   */\n      swap2\n      pop\n        /* \"#utility.yul\":9060:9153   */\n      tag_324\n        /* \"#utility.yul\":9149:9152   */\n      dup3\n        /* \"#utility.yul\":9060:9153   */\n      tag_181\n      jump\t// in\n    tag_324:\n        /* \"#utility.yul\":9178:9180   */\n      0x20\n        /* \"#utility.yul\":9173:9176   */\n      dup3\n        /* \"#utility.yul\":9169:9181   */\n      add\n        /* \"#utility.yul\":9162:9181   */\n      swap1\n      pop\n        /* \"#utility.yul\":8821:9187   */\n      swap2\n      swap1\n      pop\n      jump\t// out\n        /* \"#utility.yul\":9193:9612   */\n    tag_52:\n        /* \"#utility.yul\":9359:9363   */\n      0x00\n        /* \"#utility.yul\":9397:9399   */\n      0x20\n        /* \"#utility.yul\":9386:9395   */\n      dup3\n        /* \"#utility.yul\":9382:9400   */\n      add\n        /* \"#utility.yul\":9374:9400   */\n      swap1\n      pop\n        /* \"#utility.yul\":9446:9455   */\n      dup2\n        /* \"#utility.yul\":9440:9444   */\n      dup2\n        /* \"#utility.yul\":9436:9456   */\n      sub\n        /* \"#utility.yul\":9432:9433   */\n      0x00\n        /* \"#utility.yul\":9421:9430   */\n      dup4\n        /* \"#utility.yul\":9417:9434   */\n      add\n        /* \"#utility.yul\":9410:9457   */\n      mstore\n        /* \"#utility.yul\":9474:9605   */\n      tag_326\n        /* \"#utility.yul\":9600:9604   */\n      dup2\n        /* \"#utility.yul\":9474:9605   */\n      tag_182\n      jump\t// in\n    tag_326:\n        /* \"#utility.yul\":9466:9605   */\n      swap1\n      pop\n        /* \"#utility.yul\":9193:9612   */\n      swap2\n      swap1\n      pop\n      jump\t// out\n        /* \"#utility.yul\":9618:9849   */\n    tag_183:\n        /* \"#utility.yul\":9758:9792   */\n      0x4e756d626572206f66207265717565737473206d757374206265206772656174\n        /* \"#utility.yul\":9754:9755   */\n      0x00\n        /* \"#utility.yul\":9746:9752   */\n      dup3\n        /* \"#utility.yul\":9742:9756   */\n      add\n        /* \"#utility.yul\":9735:9793   */\n      mstore\n        /* \"#utility.yul\":9827:9841   */\n      0x6572207468616e207a65726f0000000000000000000000000000000000000000\n        /* \"#utility.yul\":9822:9824   */\n      0x20\n        /* \"#utility.yul\":9814:9820   */\n      dup3\n        /* \"#utility.yul\":9810:9825   */\n      add\n        /* \"#utility.yul\":9803:9842   */\n      mstore\n        /* \"#utility.yul\":9618:9849   */\n      pop\n      jump\t// out\n        /* \"#utility.yul\":9855:10221   */\n    tag_184:\n        /* \"#utility.yul\":9997:10000   */\n      0x00\n        /* \"#utility.yul\":10018:10085   */\n      tag_329\n        /* \"#utility.yul\":10082:10084   */\n      0x2c\n        /* \"#utility.yul\":10077:10080   */\n      dup4\n        /* \"#utility.yul\":10018:10085   */\n      tag_171\n      jump\t// in\n    tag_329:\n        /* \"#utility.yul\":10011:10085   */\n      swap2\n      pop\n        /* \"#utility.yul\":10094:10187   */\n      tag_330\n        /* \"#utility.yul\":10183:10186   */\n      dup3\n        /* \"#utility.yul\":10094:10187   */\n      tag_183\n      jump\t// in\n    tag_330:\n        /* \"#utility.yul\":10212:10214   */\n      0x40\n        /* \"#utility.yul\":10207:10210   */\n      dup3\n        /* \"#utility.yul\":10203:10215   */\n      add\n        /* \"#utility.yul\":10196:10215   */\n      swap1\n      pop\n        /* \"#utility.yul\":9855:10221   */\n      swap2\n      swap1\n      pop\n      jump\t// out\n        /* \"#utility.yul\":10227:10646   */\n    tag_58:\n        /* \"#utility.yul\":10393:10397   */\n      0x00\n        /* \"#utility.yul\":10431:10433   */\n      0x20\n        /* \"#utility.yul\":10420:10429   */\n      dup3\n        /* \"#utility.yul\":10416:10434   */\n      add\n        /* \"#utility.yul\":10408:10434   */\n      swap1\n      pop\n        /* \"#utility.yul\":10480:10489   */\n      dup2\n        /* \"#utility.yul\":10474:10478   */\n      dup2\n        /* \"#utility.yul\":10470:10490   */\n      sub\n        /* \"#utility.yul\":10466:10467   */\n      0x00\n        /* \"#utility.yul\":10455:10464   */\n      dup4\n        /* \"#utility.yul\":10451:10468   */\n      add\n        /* \"#utility.yul\":10444:10491   */\n      mstore\n        /* \"#utility.yul\":10508:10639   */\n      tag_332\n        /* \"#utility.yul\":10634:10638   */\n      dup2\n        /* \"#utility.yul\":10508:10639   */\n      tag_184\n      jump\t// in\n    tag_332:\n        /* \"#utility.yul\":10500:10639   */\n      swap1\n      pop\n        /* \"#utility.yul\":10227:10646   */\n      swap2\n      swap1\n      pop\n      jump\t// out\n        /* \"#utility.yul\":10652:10819   */\n    tag_185:\n        /* \"#utility.yul\":10792:10811   */\n      0x415049206973206e6f7420616374697665000000000000000000000000000000\n        /* \"#utility.yul\":10788:10789   */\n      0x00\n        /* \"#utility.yul\":10780:10786   */\n      dup3\n        /* \"#utility.yul\":10776:10790   */\n      add\n        /* \"#utility.yul\":10769:10812   */\n      mstore\n        /* \"#utility.yul\":10652:10819   */\n      pop\n      jump\t// out\n        /* \"#utility.yul\":10825:11191   */\n    tag_186:\n        /* \"#utility.yul\":10967:10970   */\n      0x00\n        /* \"#utility.yul\":10988:11055   */\n      tag_335\n        /* \"#utility.yul\":11052:11054   */\n      0x11\n        /* \"#utility.yul\":11047:11050   */\n      dup4\n        /* \"#utility.yul\":10988:11055   */\n      tag_171\n      jump\t// in\n    tag_335:\n        /* \"#utility.yul\":10981:11055   */\n      swap2\n      pop\n        /* \"#utility.yul\":11064:11157   */\n      tag_336\n        /* \"#utility.yul\":11153:11156   */\n      dup3\n        /* \"#utility.yul\":11064:11157   */\n      tag_185\n      jump\t// in\n    tag_336:\n        /* \"#utility.yul\":11182:11184   */\n      0x20\n        /* \"#utility.yul\":11177:11180   */\n      dup3\n        /* \"#utility.yul\":11173:11185   */\n      add\n        /* \"#utility.yul\":11166:11185   */\n      swap1\n      pop\n        /* \"#utility.yul\":10825:11191   */\n      swap2\n      swap1\n      pop\n      jump\t// out\n        /* \"#utility.yul\":11197:11616   */\n    tag_61:\n        /* \"#utility.yul\":11363:11367   */\n      0x00\n        /* \"#utility.yul\":11401:11403   */\n      0x20\n        /* \"#utility.yul\":11390:11399   */\n      dup3\n        /* \"#utility.yul\":11386:11404   */\n      add\n        /* \"#utility.yul\":11378:11404   */\n      swap1\n      pop\n        /* \"#utility.yul\":11450:11459   */\n      dup2\n        /* \"#utility.yul\":11444:11448   */\n      dup2\n        /* \"#utility.yul\":11440:11460   */\n      sub\n        /* \"#utility.yul\":11436:11437   */\n      0x00\n        /* \"#utility.yul\":11425:11434   */\n      dup4\n        /* \"#utility.yul\":11421:11438   */\n      add\n        /* \"#utility.yul\":11414:11461   */\n      mstore\n        /* \"#utility.yul\":11478:11609   */\n      tag_338\n        /* \"#utility.yul\":11604:11608   */\n      dup2\n        /* \"#utility.yul\":11478:11609   */\n      tag_186\n      jump\t// in\n    tag_338:\n        /* \"#utility.yul\":11470:11609   */\n      swap1\n      pop\n        /* \"#utility.yul\":11197:11616   */\n      swap2\n      swap1\n      pop\n      jump\t// out\n        /* \"#utility.yul\":11622:11802   */\n    tag_187:\n        /* \"#utility.yul\":11670:11747   */\n      0x4e487b7100000000000000000000000000000000000000000000000000000000\n        /* \"#utility.yul\":11667:11668   */\n      0x00\n        /* \"#utility.yul\":11660:11748   */\n      mstore\n        /* \"#utility.yul\":11767:11771   */\n      0x11\n        /* \"#utility.yul\":11764:11765   */\n      0x04\n        /* \"#utility.yul\":11757:11772   */\n      mstore\n        /* \"#utility.yul\":11791:11795   */\n      0x24\n        /* \"#utility.yul\":11788:11789   */\n      0x00\n        /* \"#utility.yul\":11781:11796   */\n      revert\n        /* \"#utility.yul\":11808:12218   */\n    tag_63:\n        /* \"#utility.yul\":11848:11855   */\n      0x00\n        /* \"#utility.yul\":11871:11891   */\n      tag_341\n        /* \"#utility.yul\":11889:11890   */\n      dup3\n        /* \"#utility.yul\":11871:11891   */\n      tag_148\n      jump\t// in\n    tag_341:\n        /* \"#utility.yul\":11866:11891   */\n      swap2\n      pop\n        /* \"#utility.yul\":11905:11925   */\n      tag_342\n        /* \"#utility.yul\":11923:11924   */\n      dup4\n        /* \"#utility.yul\":11905:11925   */\n      tag_148\n      jump\t// in\n    tag_342:\n        /* \"#utility.yul\":11900:11925   */\n      swap3\n      pop\n        /* \"#utility.yul\":11960:11961   */\n      dup3\n        /* \"#utility.yul\":11957:11958   */\n      dup3\n        /* \"#utility.yul\":11953:11962   */\n      mul\n        /* \"#utility.yul\":11982:12012   */\n      tag_343\n        /* \"#utility.yul\":12000:12011   */\n      dup2\n        /* \"#utility.yul\":11982:12012   */\n      tag_148\n      jump\t// in\n    tag_343:\n        /* \"#utility.yul\":11971:12012   */\n      swap2\n      pop\n        /* \"#utility.yul\":12161:12162   */\n      dup3\n        /* \"#utility.yul\":12152:12159   */\n      dup3\n        /* \"#utility.yul\":12148:12163   */\n      div\n        /* \"#utility.yul\":12145:12146   */\n      dup5\n        /* \"#utility.yul\":12142:12164   */\n      eq\n        /* \"#utility.yul\":12122:12123   */\n      dup4\n        /* \"#utility.yul\":12115:12124   */\n      iszero\n        /* \"#utility.yul\":12095:12178   */\n      or\n        /* \"#utility.yul\":12072:12211   */\n      tag_344\n      jumpi\n        /* \"#utility.yul\":12191:12209   */\n      tag_345\n      tag_187\n      jump\t// in\n    tag_345:\n        /* \"#utility.yul\":12072:12211   */\n    tag_344:\n        /* \"#utility.yul\":11856:12218   */\n      pop\n        /* \"#utility.yul\":11808:12218   */\n      swap3\n      swap2\n      pop\n      pop\n      jump\t// out\n        /* \"#utility.yul\":12224:12404   */\n    tag_188:\n        /* \"#utility.yul\":12272:12349   */\n      0x4e487b7100000000000000000000000000000000000000000000000000000000\n        /* \"#utility.yul\":12269:12270   */\n      0x00\n        /* \"#utility.yul\":12262:12350   */\n      mstore\n        /* \"#utility.yul\":12369:12373   */\n      0x12\n        /* \"#utility.yul\":12366:12367   */\n      0x04\n        /* \"#utility.yul\":12359:12374   */\n      mstore\n        /* \"#utility.yul\":12393:12397   */\n      0x24\n        /* \"#utility.yul\":12390:12391   */\n      0x00\n        /* \"#utility.yul\":12383:12398   */\n      revert\n        /* \"#utility.yul\":12410:12595   */\n    tag_65:\n        /* \"#utility.yul\":12450:12451   */\n      0x00\n        /* \"#utility.yul\":12467:12487   */\n      tag_348\n        /* \"#utility.yul\":12485:12486   */\n      dup3\n        /* \"#utility.yul\":12467:12487   */\n      tag_148\n      jump\t// in\n    tag_348:\n        /* \"#utility.yul\":12462:12487   */\n      swap2\n      pop\n        /* \"#utility.yul\":12501:12521   */\n      tag_349\n        /* \"#utility.yul\":12519:12520   */\n      dup4\n        /* \"#utility.yul\":12501:12521   */\n      tag_148\n      jump\t// in\n    tag_349:\n        /* \"#utility.yul\":12496:12521   */\n      swap3\n      pop\n        /* \"#utility.yul\":12540:12541   */\n      dup3\n        /* \"#utility.yul\":12530:12565   */\n      tag_350\n      jumpi\n        /* \"#utility.yul\":12545:12563   */\n      tag_351\n      tag_188\n      jump\t// in\n    tag_351:\n        /* \"#utility.yul\":12530:12565   */\n    tag_350:\n        /* \"#utility.yul\":12587:12588   */\n      dup3\n        /* \"#utility.yul\":12584:12585   */\n      dup3\n        /* \"#utility.yul\":12580:12589   */\n      div\n        /* \"#utility.yul\":12575:12589   */\n      swap1\n      pop\n        /* \"#utility.yul\":12410:12595   */\n      swap3\n      swap2\n      pop\n      pop\n      jump\t// out\n        /* \"#utility.yul\":12601:12768   */\n    tag_189:\n        /* \"#utility.yul\":12741:12760   */\n      0x4f766572666c6f77206465746563746564000000000000000000000000000000\n        /* \"#utility.yul\":12737:12738   */\n      0x00\n        /* \"#utility.yul\":12729:12735   */\n      dup3\n        /* \"#utility.yul\":12725:12739   */\n      add\n        /* \"#utility.yul\":12718:12761   */\n      mstore\n        /* \"#utility.yul\":12601:12768   */\n      pop\n      jump\t// out\n        /* \"#utility.yul\":12774:13140   */\n    tag_190:\n        /* \"#utility.yul\":12916:12919   */\n      0x00\n        /* \"#utility.yul\":12937:13004   */\n      tag_354\n        /* \"#utility.yul\":13001:13003   */\n      0x11\n        /* \"#utility.yul\":12996:12999   */\n      dup4\n        /* \"#utility.yul\":12937:13004   */\n      tag_171\n      jump\t// in\n    tag_354:\n        /* \"#utility.yul\":12930:13004   */\n      swap2\n      pop\n        /* \"#utility.yul\":13013:13106   */\n      tag_355\n        /* \"#utility.yul\":13102:13105   */\n      dup3\n        /* \"#utility.yul\":13013:13106   */\n      tag_189\n      jump\t// in\n    tag_355:\n        /* \"#utility.yul\":13131:13133   */\n      0x20\n        /* \"#utility.yul\":13126:13129   */\n      dup3\n        /* \"#utility.yul\":13122:13134   */\n      add\n        /* \"#utility.yul\":13115:13134   */\n      swap1\n      pop\n        /* \"#utility.yul\":12774:13140   */\n      swap2\n      swap1\n      pop\n      jump\t// out\n        /* \"#utility.yul\":13146:13565   */\n    tag_68:\n        /* \"#utility.yul\":13312:13316   */\n      0x00\n        /* \"#utility.yul\":13350:13352   */\n      0x20\n        /* \"#utility.yul\":13339:13348   */\n      dup3\n        /* \"#utility.yul\":13335:13353   */\n      add\n        /* \"#utility.yul\":13327:13353   */\n      swap1\n      pop\n        /* \"#utility.yul\":13399:13408   */\n      dup2\n        /* \"#utility.yul\":13393:13397   */\n      dup2\n        /* \"#utility.yul\":13389:13409   */\n      sub\n        /* \"#utility.yul\":13385:13386   */\n      0x00\n        /* \"#utility.yul\":13374:13383   */\n      dup4\n        /* \"#utility.yul\":13370:13387   */\n      add\n        /* \"#utility.yul\":13363:13410   */\n      mstore\n        /* \"#utility.yul\":13427:13558   */\n      tag_357\n        /* \"#utility.yul\":13553:13557   */\n      dup2\n        /* \"#utility.yul\":13427:13558   */\n      tag_190\n      jump\t// in\n    tag_357:\n        /* \"#utility.yul\":13419:13558   */\n      swap1\n      pop\n        /* \"#utility.yul\":13146:13565   */\n      swap2\n      swap1\n      pop\n      jump\t// out\n        /* \"#utility.yul\":13571:13762   */\n    tag_72:\n        /* \"#utility.yul\":13611:13614   */\n      0x00\n        /* \"#utility.yul\":13630:13650   */\n      tag_359\n        /* \"#utility.yul\":13648:13649   */\n      dup3\n        /* \"#utility.yul\":13630:13650   */\n      tag_148\n      jump\t// in\n    tag_359:\n        /* \"#utility.yul\":13625:13650   */\n      swap2\n      pop\n        /* \"#utility.yul\":13664:13684   */\n      tag_360\n        /* \"#utility.yul\":13682:13683   */\n      dup4\n        /* \"#utility.yul\":13664:13684   */\n      tag_148\n      jump\t// in\n    tag_360:\n        /* \"#utility.yul\":13659:13684   */\n      swap3\n      pop\n        /* \"#utility.yul\":13707:13708   */\n      dup3\n        /* \"#utility.yul\":13704:13705   */\n      dup3\n        /* \"#utility.yul\":13700:13709   */\n      add\n        /* \"#utility.yul\":13693:13709   */\n      swap1\n      pop\n        /* \"#utility.yul\":13728:13731   */\n      dup1\n        /* \"#utility.yul\":13725:13726   */\n      dup3\n        /* \"#utility.yul\":13722:13732   */\n      gt\n        /* \"#utility.yul\":13719:13755   */\n      iszero\n      tag_361\n      jumpi\n        /* \"#utility.yul\":13735:13753   */\n      tag_362\n      tag_187\n      jump\t// in\n    tag_362:\n        /* \"#utility.yul\":13719:13755   */\n    tag_361:\n        /* \"#utility.yul\":13571:13762   */\n      swap3\n      swap2\n      pop\n      pop\n      jump\t// out\n        /* \"#utility.yul\":13768:13941   */\n    tag_191:\n        /* \"#utility.yul\":13908:13933   */\n      0x43616c6c6572206973206e6f7420746865206f776e6572000000000000000000\n        /* \"#utility.yul\":13904:13905   */\n      0x00\n        /* \"#utility.yul\":13896:13902   */\n      dup3\n        /* \"#utility.yul\":13892:13906   */\n      add\n        /* \"#utility.yul\":13885:13934   */\n      mstore\n        /* \"#utility.yul\":13768:13941   */\n      pop\n      jump\t// out\n        /* \"#utility.yul\":13947:14313   */\n    tag_192:\n        /* \"#utility.yul\":14089:14092   */\n      0x00\n        /* \"#utility.yul\":14110:14177   */\n      tag_365\n        /* \"#utility.yul\":14174:14176   */\n      0x17\n        /* \"#utility.yul\":14169:14172   */\n      dup4\n        /* \"#utility.yul\":14110:14177   */\n      tag_171\n      jump\t// in\n    tag_365:\n        /* \"#utility.yul\":14103:14177   */\n      swap2\n      pop\n        /* \"#utility.yul\":14186:14279   */\n      tag_366\n        /* \"#utility.yul\":14275:14278   */\n      dup3\n        /* \"#utility.yul\":14186:14279   */\n      tag_191\n      jump\t// in\n    tag_366:\n        /* \"#utility.yul\":14304:14306   */\n      0x20\n        /* \"#utility.yul\":14299:14302   */\n      dup3\n        /* \"#utility.yul\":14295:14307   */\n      add\n        /* \"#utility.yul\":14288:14307   */\n      swap1\n      pop\n        /* \"#utility.yul\":13947:14313   */\n      swap2\n      swap1\n      pop\n      jump\t// out\n        /* \"#utility.yul\":14319:14738   */\n    tag_78:\n        /* \"#utility.yul\":14485:14489   */\n      0x00\n        /* \"#utility.yul\":14523:14525   */\n      0x20\n        /* \"#utility.yul\":14512:14521   */\n      dup3\n        /* \"#utility.yul\":14508:14526   */\n      add\n        /* \"#utility.yul\":14500:14526   */\n      swap1\n      pop\n        /* \"#utility.yul\":14572:14581   */\n      dup2\n        /* \"#utility.yul\":14566:14570   */\n      dup2\n        /* \"#utility.yul\":14562:14582   */\n      sub\n        /* \"#utility.yul\":14558:14559   */\n      0x00\n        /* \"#utility.yul\":14547:14556   */\n      dup4\n        /* \"#utility.yul\":14543:14560   */\n      add\n        /* \"#utility.yul\":14536:14583   */\n      mstore\n        /* \"#utility.yul\":14600:14731   */\n      tag_368\n        /* \"#utility.yul\":14726:14730   */\n      dup2\n        /* \"#utility.yul\":14600:14731   */\n      tag_192\n      jump\t// in\n    tag_368:\n        /* \"#utility.yul\":14592:14731   */\n      swap1\n      pop\n        /* \"#utility.yul\":14319:14738   */\n      swap2\n      swap1\n      pop\n      jump\t// out\n        /* \"#utility.yul\":14744:14918   */\n    tag_193:\n        /* \"#utility.yul\":14884:14910   */\n      0x415049206e616d652063616e6e6f7420626520656d7074790000000000000000\n        /* \"#utility.yul\":14880:14881   */\n      0x00\n        /* \"#utility.yul\":14872:14878   */\n      dup3\n        /* \"#utility.yul\":14868:14882   */\n      add\n        /* \"#utility.yul\":14861:14911   */\n      mstore\n        /* \"#utility.yul\":14744:14918   */\n      pop\n      jump\t// out\n        /* \"#utility.yul\":14924:15290   */\n    tag_194:\n        /* \"#utility.yul\":15066:15069   */\n      0x00\n        /* \"#utility.yul\":15087:15154   */\n      tag_371\n        /* \"#utility.yul\":15151:15153   */\n      0x18\n        /* \"#utility.yul\":15146:15149   */\n      dup4\n        /* \"#utility.yul\":15087:15154   */\n      tag_171\n      jump\t// in\n    tag_371:\n        /* \"#utility.yul\":15080:15154   */\n      swap2\n      pop\n        /* \"#utility.yul\":15163:15256   */\n      tag_372\n        /* \"#utility.yul\":15252:15255   */\n      dup3\n        /* \"#utility.yul\":15163:15256   */\n      tag_193\n      jump\t// in\n    tag_372:\n        /* \"#utility.yul\":15281:15283   */\n      0x20\n        /* \"#utility.yul\":15276:15279   */\n      dup3\n        /* \"#utility.yul\":15272:15284   */\n      add\n        /* \"#utility.yul\":15265:15284   */\n      swap1\n      pop\n        /* \"#utility.yul\":14924:15290   */\n      swap2\n      swap1\n      pop\n      jump\t// out\n        /* \"#utility.yul\":15296:15715   */\n    tag_82:\n        /* \"#utility.yul\":15462:15466   */\n      0x00\n        /* \"#utility.yul\":15500:15502   */\n      0x20\n        /* \"#utility.yul\":15489:15498   */\n      dup3\n        /* \"#utility.yul\":15485:15503   */\n      add\n        /* \"#utility.yul\":15477:15503   */\n      swap1\n      pop\n        /* \"#utility.yul\":15549:15558   */\n      dup2\n        /* \"#utility.yul\":15543:15547   */\n      dup2\n        /* \"#utility.yul\":15539:15559   */\n      sub\n        /* \"#utility.yul\":15535:15536   */\n      0x00\n        /* \"#utility.yul\":15524:15533   */\n      dup4\n        /* \"#utility.yul\":15520:15537   */\n      add\n        /* \"#utility.yul\":15513:15560   */\n      mstore\n        /* \"#utility.yul\":15577:15708   */\n      tag_374\n        /* \"#utility.yul\":15703:15707   */\n      dup2\n        /* \"#utility.yul\":15577:15708   */\n      tag_194\n      jump\t// in\n    tag_374:\n        /* \"#utility.yul\":15569:15708   */\n      swap1\n      pop\n        /* \"#utility.yul\":15296:15715   */\n      swap2\n      swap1\n      pop\n      jump\t// out\n        /* \"#utility.yul\":15721:15951   */\n    tag_195:\n        /* \"#utility.yul\":15861:15895   */\n      0x5072696365207065722072657175657374206d75737420626520677265617465\n        /* \"#utility.yul\":15857:15858   */\n      0x00\n        /* \"#utility.yul\":15849:15855   */\n      dup3\n        /* \"#utility.yul\":15845:15859   */\n      add\n        /* \"#utility.yul\":15838:15896   */\n      mstore\n        /* \"#utility.yul\":15930:15943   */\n      0x72207468616e207a65726f000000000000000000000000000000000000000000\n        /* \"#utility.yul\":15925:15927   */\n      0x20\n        /* \"#utility.yul\":15917:15923   */\n      dup3\n        /* \"#utility.yul\":15913:15928   */\n      add\n        /* \"#utility.yul\":15906:15944   */\n      mstore\n        /* \"#utility.yul\":15721:15951   */\n      pop\n      jump\t// out\n        /* \"#utility.yul\":15957:16323   */\n    tag_196:\n        /* \"#utility.yul\":16099:16102   */\n      0x00\n        /* \"#utility.yul\":16120:16187   */\n      tag_377\n        /* \"#utility.yul\":16184:16186   */\n      0x2b\n        /* \"#utility.yul\":16179:16182   */\n      dup4\n        /* \"#utility.yul\":16120:16187   */\n      tag_171\n      jump\t// in\n    tag_377:\n        /* \"#utility.yul\":16113:16187   */\n      swap2\n      pop\n        /* \"#utility.yul\":16196:16289   */\n      tag_378\n        /* \"#utility.yul\":16285:16288   */\n      dup3\n        /* \"#utility.yul\":16196:16289   */\n      tag_195\n      jump\t// in\n    tag_378:\n        /* \"#utility.yul\":16314:16316   */\n      0x40\n        /* \"#utility.yul\":16309:16312   */\n      dup3\n        /* \"#utility.yul\":16305:16317   */\n      add\n        /* \"#utility.yul\":16298:16317   */\n      swap1\n      pop\n        /* \"#utility.yul\":15957:16323   */\n      swap2\n      swap1\n      pop\n      jump\t// out\n        /* \"#utility.yul\":16329:16748   */\n    tag_85:\n        /* \"#utility.yul\":16495:16499   */\n      0x00\n        /* \"#utility.yul\":16533:16535   */\n      0x20\n        /* \"#utility.yul\":16522:16531   */\n      dup3\n        /* \"#utility.yul\":16518:16536   */\n      add\n        /* \"#utility.yul\":16510:16536   */\n      swap1\n      pop\n        /* \"#utility.yul\":16582:16591   */\n      dup2\n        /* \"#utility.yul\":16576:16580   */\n      dup2\n        /* \"#utility.yul\":16572:16592   */\n      sub\n        /* \"#utility.yul\":16568:16569   */\n      0x00\n        /* \"#utility.yul\":16557:16566   */\n      dup4\n        /* \"#utility.yul\":16553:16570   */\n      add\n        /* \"#utility.yul\":16546:16593   */\n      mstore\n        /* \"#utility.yul\":16610:16741   */\n      tag_380\n        /* \"#utility.yul\":16736:16740   */\n      dup2\n        /* \"#utility.yul\":16610:16741   */\n      tag_196\n      jump\t// in\n    tag_380:\n        /* \"#utility.yul\":16602:16741   */\n      swap1\n      pop\n        /* \"#utility.yul\":16329:16748   */\n      swap2\n      swap1\n      pop\n      jump\t// out\n        /* \"#utility.yul\":16754:16987   */\n    tag_87:\n        /* \"#utility.yul\":16793:16796   */\n      0x00\n        /* \"#utility.yul\":16816:16840   */\n      tag_382\n        /* \"#utility.yul\":16834:16839   */\n      dup3\n        /* \"#utility.yul\":16816:16840   */\n      tag_148\n      jump\t// in\n    tag_382:\n        /* \"#utility.yul\":16807:16840   */\n      swap2\n      pop\n        /* \"#utility.yul\":16862:16928   */\n      0xffffffffffffffffffffffffffffffffffffffffffffffffffffffffffffffff\n        /* \"#utility.yul\":16855:16860   */\n      dup3\n        /* \"#utility.yul\":16852:16929   */\n      sub\n        /* \"#utility.yul\":16849:16952   */\n      tag_383\n      jumpi\n        /* \"#utility.yul\":16932:16950   */\n      tag_384\n      tag_187\n      jump\t// in\n    tag_384:\n        /* \"#utility.yul\":16849:16952   */\n    tag_383:\n        /* \"#utility.yul\":16979:16980   */\n      0x01\n        /* \"#utility.yul\":16972:16977   */\n      dup3\n        /* \"#utility.yul\":16968:16981   */\n      add\n        /* \"#utility.yul\":16961:16981   */\n      swap1\n      pop\n        /* \"#utility.yul\":16754:16987   */\n      swap2\n      swap1\n      pop\n      jump\t// out\n        /* \"#utility.yul\":16993:17173   */\n    tag_197:\n        /* \"#utility.yul\":17041:17118   */\n      0x4e487b7100000000000000000000000000000000000000000000000000000000\n        /* \"#utility.yul\":17038:17039   */\n      0x00\n        /* \"#utility.yul\":17031:17119   */\n      mstore\n        /* \"#utility.yul\":17138:17142   */\n      0x22\n        /* \"#utility.yul\":17135:17136   */\n      0x04\n        /* \"#utility.yul\":17128:17143   */\n      mstore\n        /* \"#utility.yul\":17162:17166   */\n      0x24\n        /* \"#utility.yul\":17159:17160   */\n      0x00\n        /* \"#utility.yul\":17152:17167   */\n      revert\n        /* \"#utility.yul\":17179:17499   */\n    tag_123:\n        /* \"#utility.yul\":17223:17229   */\n      0x00\n        /* \"#utility.yul\":17260:17261   */\n      0x02\n        /* \"#utility.yul\":17254:17258   */\n      dup3\n        /* \"#utility.yul\":17250:17262   */\n      div\n        /* \"#utility.yul\":17240:17262   */\n      swap1\n      pop\n        /* \"#utility.yul\":17307:17308   */\n      0x01\n        /* \"#utility.yul\":17301:17305   */\n      dup3\n        /* \"#utility.yul\":17297:17309   */\n      and\n        /* \"#utility.yul\":17328:17346   */\n      dup1\n        /* \"#utility.yul\":17318:17399   */\n      tag_387\n      jumpi\n        /* \"#utility.yul\":17384:17388   */\n      0x7f\n        /* \"#utility.yul\":17376:17382   */\n      dup3\n        /* \"#utility.yul\":17372:17389   */\n      and\n        /* \"#utility.yul\":17362:17389   */\n      swap2\n      pop\n        /* \"#utility.yul\":17318:17399   */\n    tag_387:\n        /* \"#utility.yul\":17446:17448   */\n      0x20\n        /* \"#utility.yul\":17438:17444   */\n      dup3\n        /* \"#utility.yul\":17435:17449   */\n      lt\n        /* \"#utility.yul\":17415:17433   */\n      dup2\n        /* \"#utility.yul\":17412:17450   */\n      sub\n        /* \"#utility.yul\":17409:17493   */\n      tag_388\n      jumpi\n        /* \"#utility.yul\":17465:17483   */\n      tag_389\n      tag_197\n      jump\t// in\n    tag_389:\n        /* \"#utility.yul\":17409:17493   */\n    tag_388:\n        /* \"#utility.yul\":17230:17499   */\n      pop\n        /* \"#utility.yul\":17179:17499   */\n      swap2\n      swap1\n      pop\n      jump\t// out\n        /* \"#utility.yul\":17505:17646   */\n    tag_198:\n        /* \"#utility.yul\":17554:17558   */\n      0x00\n        /* \"#utility.yul\":17577:17580   */\n      dup2\n        /* \"#utility.yul\":17569:17580   */\n      swap1\n      pop\n        /* \"#utility.yul\":17600:17603   */\n      dup2\n        /* \"#utility.yul\":17597:17598   */\n      0x00\n        /* \"#utility.yul\":17590:17604   */\n      mstore\n        /* \"#utility.yul\":17634:17638   */\n      0x20\n        /* \"#utility.yul\":17631:17632   */\n      0x00\n        /* \"#utility.yul\":17621:17639   */\n      keccak256\n        /* \"#utility.yul\":17613:17639   */\n      swap1\n      pop\n        /* \"#utility.yul\":17505:17646   */\n      swap2\n      swap1\n      pop\n      jump\t// out\n        /* \"#utility.yul\":17652:17745   */\n    tag_199:\n        /* \"#utility.yul\":17689:17695   */\n      0x00\n        /* \"#utility.yul\":17736:17738   */\n      0x20\n        /* \"#utility.yul\":17731:17733   */\n      0x1f\n        /* \"#utility.yul\":17724:17729   */\n      dup4\n        /* \"#utility.yul\":17720:17734   */\n      add\n        /* \"#utility.yul\":17716:17739   */\n      div\n        /* \"#utility.yul\":17706:17739   */\n      swap1\n      pop\n        /* \"#utility.yul\":17652:17745   */\n      swap2\n      swap1\n      pop\n      jump\t// out\n        /* \"#utility.yul\":17751:17858   */\n    tag_200:\n        /* \"#utility.yul\":17795:17803   */\n      0x00\n        /* \"#utility.yul\":17845:17850   */\n      dup3\n        /* \"#utility.yul\":17839:17843   */\n      dup3\n        /* \"#utility.yul\":17835:17851   */\n      shl\n        /* \"#utility.yul\":17814:17851   */\n      swap1\n      pop\n        /* \"#utility.yul\":17751:17858   */\n      swap3\n      swap2\n      pop\n      pop\n      jump\t// out\n        /* \"#utility.yul\":17864:18257   */\n    tag_201:\n        /* \"#utility.yul\":17933:17939   */\n      0x00\n        /* \"#utility.yul\":17983:17984   */\n      0x08\n        /* \"#utility.yul\":17971:17981   */\n      dup4\n        /* \"#utility.yul\":17967:17985   */\n      mul\n        /* \"#utility.yul\":18006:18103   */\n      tag_394\n        /* \"#utility.yul\":18036:18102   */\n      0xffffffffffffffffffffffffffffffffffffffffffffffffffffffffffffffff\n        /* \"#utility.yul\":18025:18034   */\n      dup3\n        /* \"#utility.yul\":18006:18103   */\n      tag_200\n      jump\t// in\n    tag_394:\n        /* \"#utility.yul\":18124:18163   */\n      tag_395\n        /* \"#utility.yul\":18154:18162   */\n      dup7\n        /* \"#utility.yul\":18143:18152   */\n      dup4\n        /* \"#utility.yul\":18124:18163   */\n      tag_200\n      jump\t// in\n    tag_395:\n        /* \"#utility.yul\":18112:18163   */\n      swap6\n      pop\n        /* \"#utility.yul\":18196:18200   */\n      dup1\n        /* \"#utility.yul\":18192:18201   */\n      not\n        /* \"#utility.yul\":18185:18190   */\n      dup5\n        /* \"#utility.yul\":18181:18202   */\n      and\n        /* \"#utility.yul\":18172:18202   */\n      swap4\n      pop\n        /* \"#utility.yul\":18245:18249   */\n      dup1\n        /* \"#utility.yul\":18235:18243   */\n      dup7\n        /* \"#utility.yul\":18231:18250   */\n      and\n        /* \"#utility.yul\":18224:18229   */\n      dup5\n        /* \"#utility.yul\":18221:18251   */\n      or\n        /* \"#utility.yul\":18211:18251   */\n      swap3\n      pop\n        /* \"#utility.yul\":17940:18257   */\n      pop\n      pop\n        /* \"#utility.yul\":17864:18257   */\n      swap4\n      swap3\n      pop\n      pop\n      pop\n      jump\t// out\n        /* \"#utility.yul\":18263:18405   */\n    tag_202:\n        /* \"#utility.yul\":18313:18322   */\n      0x00\n        /* \"#utility.yul\":18346:18399   */\n      tag_397\n        /* \"#utility.yul\":18364:18398   */\n      tag_398\n        /* \"#utility.yul\":18373:18397   */\n      tag_399\n        /* \"#utility.yul\":18391:18396   */\n      dup5\n        /* \"#utility.yul\":18373:18397   */\n      tag_148\n      jump\t// in\n    tag_399:\n        /* \"#utility.yul\":18364:18398   */\n      tag_176\n      jump\t// in\n    tag_398:\n        /* \"#utility.yul\":18346:18399   */\n      tag_148\n      jump\t// in\n    tag_397:\n        /* \"#utility.yul\":18333:18399   */\n      swap1\n      pop\n        /* \"#utility.yul\":18263:18405   */\n      swap2\n      swap1\n      pop\n      jump\t// out\n        /* \"#utility.yul\":18411:18486   */\n    tag_203:\n        /* \"#utility.yul\":18454:18457   */\n      0x00\n        /* \"#utility.yul\":18475:18480   */\n      dup2\n        /* \"#utility.yul\":18468:18480   */\n      swap1\n      pop\n        /* \"#utility.yul\":18411:18486   */\n      swap2\n      swap1\n      pop\n      jump\t// out\n        /* \"#utility.yul\":18492:18761   */\n    tag_204:\n        /* \"#utility.yul\":18602:18641   */\n      tag_402\n        /* \"#utility.yul\":18633:18640   */\n      dup4\n        /* \"#utility.yul\":18602:18641   */\n      tag_202\n      jump\t// in\n    tag_402:\n        /* \"#utility.yul\":18663:18754   */\n      tag_403\n        /* \"#utility.yul\":18712:18753   */\n      tag_404\n        /* \"#utility.yul\":18736:18752   */\n      dup3\n        /* \"#utility.yul\":18712:18753   */\n      tag_203\n      jump\t// in\n    tag_404:\n        /* \"#utility.yul\":18704:18710   */\n      dup5\n        /* \"#utility.yul\":18697:18701   */\n      dup5\n        /* \"#utility.yul\":18691:18702   */\n      sload\n        /* \"#utility.yul\":18663:18754   */\n      tag_201\n      jump\t// in\n    tag_403:\n        /* \"#utility.yul\":18657:18661   */\n      dup3\n        /* \"#utility.yul\":18650:18755   */\n      sstore\n        /* \"#utility.yul\":18568:18761   */\n      pop\n        /* \"#utility.yul\":18492:18761   */\n      pop\n      pop\n      pop\n      jump\t// out\n        /* \"#utility.yul\":18767:18840   */\n    tag_205:\n        /* \"#utility.yul\":18812:18815   */\n      0x00\n        /* \"#utility.yul\":18767:18840   */\n      swap1\n      jump\t// out\n        /* \"#utility.yul\":18846:19035   */\n    tag_206:\n        /* \"#utility.yul\":18923:18955   */\n      tag_407\n      tag_205\n      jump\t// in\n    tag_407:\n        /* \"#utility.yul\":18964:19029   */\n      tag_408\n        /* \"#utility.yul\":19022:19028   */\n      dup2\n        /* \"#utility.yul\":19014:19020   */\n      dup5\n        /* \"#utility.yul\":19008:19012   */\n      dup5\n        /* \"#utility.yul\":18964:19029   */\n      tag_204\n      jump\t// in\n    tag_408:\n        /* \"#utility.yul\":18899:19035   */\n      pop\n        /* \"#utility.yul\":18846:19035   */\n      pop\n      pop\n      jump\t// out\n        /* \"#utility.yul\":19041:19227   */\n    tag_207:\n        /* \"#utility.yul\":19101:19221   */\n    tag_410:\n        /* \"#utility.yul\":19118:19121   */\n      dup2\n        /* \"#utility.yul\":19111:19116   */\n      dup2\n        /* \"#utility.yul\":19108:19122   */\n      lt\n        /* \"#utility.yul\":19101:19221   */\n      iszero\n      tag_412\n      jumpi\n        /* \"#utility.yul\":19172:19211   */\n      tag_413\n        /* \"#utility.yul\":19209:19210   */\n      0x00\n        /* \"#utility.yul\":19202:19207   */\n      dup3\n        /* \"#utility.yul\":19172:19211   */\n      tag_206\n      jump\t// in\n    tag_413:\n        /* \"#utility.yul\":19145:19146   */\n      0x01\n        /* \"#utility.yul\":19138:19143   */\n      dup2\n        /* \"#utility.yul\":19134:19147   */\n      add\n        /* \"#utility.yul\":19125:19147   */\n      swap1\n      pop\n        /* \"#utility.yul\":19101:19221   */\n      jump(tag_410)\n    tag_412:\n        /* \"#utility.yul\":19041:19227   */\n      pop\n      pop\n      jump\t// out\n        /* \"#utility.yul\":19233:19776   */\n    tag_208:\n        /* \"#utility.yul\":19334:19336   */\n      0x1f\n        /* \"#utility.yul\":19329:19332   */\n      dup3\n        /* \"#utility.yul\":19326:19337   */\n      gt\n        /* \"#utility.yul\":19323:19769   */\n      iszero\n      tag_415\n      jumpi\n        /* \"#utility.yul\":19368:19406   */\n      tag_416\n        /* \"#utility.yul\":19400:19405   */\n      dup2\n        /* \"#utility.yul\":19368:19406   */\n      tag_198\n      jump\t// in\n    tag_416:\n        /* \"#utility.yul\":19452:19481   */\n      tag_417\n        /* \"#utility.yul\":19470:19480   */\n      dup5\n        /* \"#utility.yul\":19452:19481   */\n      tag_199\n      jump\t// in\n    tag_417:\n        /* \"#utility.yul\":19442:19450   */\n      dup2\n        /* \"#utility.yul\":19438:19482   */\n      add\n        /* \"#utility.yul\":19635:19637   */\n      0x20\n        /* \"#utility.yul\":19623:19633   */\n      dup6\n        /* \"#utility.yul\":19620:19638   */\n      lt\n        /* \"#utility.yul\":19617:19666   */\n      iszero\n      tag_418\n      jumpi\n        /* \"#utility.yul\":19656:19664   */\n      dup2\n        /* \"#utility.yul\":19641:19664   */\n      swap1\n      pop\n        /* \"#utility.yul\":19617:19666   */\n    tag_418:\n        /* \"#utility.yul\":19679:19759   */\n      tag_419\n        /* \"#utility.yul\":19735:19757   */\n      tag_420\n        /* \"#utility.yul\":19753:19756   */\n      dup6\n        /* \"#utility.yul\":19735:19757   */\n      tag_199\n      jump\t// in\n    tag_420:\n        /* \"#utility.yul\":19725:19733   */\n      dup4\n        /* \"#utility.yul\":19721:19758   */\n      add\n        /* \"#utility.yul\":19708:19719   */\n      dup3\n        /* \"#utility.yul\":19679:19759   */\n      tag_207\n      jump\t// in\n    tag_419:\n        /* \"#utility.yul\":19338:19769   */\n      pop\n      pop\n        /* \"#utility.yul\":19323:19769   */\n    tag_415:\n        /* \"#utility.yul\":19233:19776   */\n      pop\n      pop\n      pop\n      jump\t// out\n        /* \"#utility.yul\":19782:19899   */\n    tag_209:\n        /* \"#utility.yul\":19836:19844   */\n      0x00\n        /* \"#utility.yul\":19886:19891   */\n      dup3\n        /* \"#utility.yul\":19880:19884   */\n      dup3\n        /* \"#utility.yul\":19876:19892   */\n      shr\n        /* \"#utility.yul\":19855:19892   */\n      swap1\n      pop\n        /* \"#utility.yul\":19782:19899   */\n      swap3\n      swap2\n      pop\n      pop\n      jump\t// out\n        /* \"#utility.yul\":19905:20074   */\n    tag_210:\n        /* \"#utility.yul\":19949:19955   */\n      0x00\n        /* \"#utility.yul\":19982:20033   */\n      tag_423\n        /* \"#utility.yul\":20030:20031   */\n      0x00\n        /* \"#utility.yul\":20026:20032   */\n      not\n        /* \"#utility.yul\":20018:20023   */\n      dup5\n        /* \"#utility.yul\":20015:20016   */\n      0x08\n        /* \"#utility.yul\":20011:20024   */\n      mul\n        /* \"#utility.yul\":19982:20033   */\n      tag_209\n      jump\t// in\n    tag_423:\n        /* \"#utility.yul\":19978:20034   */\n      not\n        /* \"#utility.yul\":20063:20067   */\n      dup1\n        /* \"#utility.yul\":20057:20061   */\n      dup4\n        /* \"#utility.yul\":20053:20068   */\n      and\n        /* \"#utility.yul\":20043:20068   */\n      swap2\n      pop\n        /* \"#utility.yul\":19956:20074   */\n      pop\n        /* \"#utility.yul\":19905:20074   */\n      swap3\n      swap2\n      pop\n      pop\n      jump\t// out\n        /* \"#utility.yul\":20079:20374   */\n    tag_211:\n        /* \"#utility.yul\":20155:20159   */\n      0x00\n        /* \"#utility.yul\":20301:20330   */\n      tag_425\n        /* \"#utility.yul\":20326:20329   */\n      dup4\n        /* \"#utility.yul\":20320:20324   */\n      dup4\n        /* \"#utility.yul\":20301:20330   */\n      tag_210\n      jump\t// in\n    tag_425:\n        /* \"#utility.yul\":20293:20330   */\n      swap2\n      pop\n        /* \"#utility.yul\":20363:20366   */\n      dup3\n        /* \"#utility.yul\":20360:20361   */\n      0x02\n        /* \"#utility.yul\":20356:20367   */\n      mul\n        /* \"#utility.yul\":20350:20354   */\n      dup3\n        /* \"#utility.yul\":20347:20368   */\n      or\n        /* \"#utility.yul\":20339:20368   */\n      swap1\n      pop\n        /* \"#utility.yul\":20079:20374   */\n      swap3\n      swap2\n      pop\n      pop\n      jump\t// out\n        /* \"#utility.yul\":20379:21774   */\n    tag_89:\n        /* \"#utility.yul\":20496:20533   */\n      tag_427\n        /* \"#utility.yul\":20529:20532   */\n      dup3\n        /* \"#utility.yul\":20496:20533   */\n      tag_170\n      jump\t// in\n    tag_427:\n        /* \"#utility.yul\":20598:20616   */\n      0xffffffffffffffff\n        /* \"#utility.yul\":20590:20596   */\n      dup2\n        /* \"#utility.yul\":20587:20617   */\n      gt\n        /* \"#utility.yul\":20584:20640   */\n      iszero\n      tag_428\n      jumpi\n        /* \"#utility.yul\":20620:20638   */\n      tag_429\n      tag_162\n      jump\t// in\n    tag_429:\n        /* \"#utility.yul\":20584:20640   */\n    tag_428:\n        /* \"#utility.yul\":20664:20702   */\n      tag_430\n        /* \"#utility.yul\":20696:20700   */\n      dup3\n        /* \"#utility.yul\":20690:20701   */\n      sload\n        /* \"#utility.yul\":20664:20702   */\n      tag_123\n      jump\t// in\n    tag_430:\n        /* \"#utility.yul\":20749:20816   */\n      tag_431\n        /* \"#utility.yul\":20809:20815   */\n      dup3\n        /* \"#utility.yul\":20801:20807   */\n      dup3\n        /* \"#utility.yul\":20795:20799   */\n      dup6\n        /* \"#utility.yul\":20749:20816   */\n      tag_208\n      jump\t// in\n    tag_431:\n        /* \"#utility.yul\":20843:20844   */\n      0x00\n        /* \"#utility.yul\":20867:20871   */\n      0x20\n        /* \"#utility.yul\":20854:20871   */\n      swap1\n      pop\n        /* \"#utility.yul\":20899:20901   */\n      0x1f\n        /* \"#utility.yul\":20891:20897   */\n      dup4\n        /* \"#utility.yul\":20888:20902   */\n      gt\n        /* \"#utility.yul\":20916:20917   */\n      0x01\n        /* \"#utility.yul\":20911:21529   */\n      dup2\n      eq\n      tag_433\n      jumpi\n        /* \"#utility.yul\":21573:21574   */\n      0x00\n        /* \"#utility.yul\":21590:21596   */\n      dup5\n        /* \"#utility.yul\":21587:21664   */\n      iszero\n      tag_434\n      jumpi\n        /* \"#utility.yul\":21639:21648   */\n      dup3\n        /* \"#utility.yul\":21634:21637   */\n      dup8\n        /* \"#utility.yul\":21630:21649   */\n      add\n        /* \"#utility.yul\":21624:21650   */\n      mload\n        /* \"#utility.yul\":21615:21650   */\n      swap1\n      pop\n        /* \"#utility.yul\":21587:21664   */\n    tag_434:\n        /* \"#utility.yul\":21690:21757   */\n      tag_435\n        /* \"#utility.yul\":21750:21756   */\n      dup6\n        /* \"#utility.yul\":21743:21748   */\n      dup3\n        /* \"#utility.yul\":21690:21757   */\n      tag_211\n      jump\t// in\n    tag_435:\n        /* \"#utility.yul\":21684:21688   */\n      dup7\n        /* \"#utility.yul\":21677:21758   */\n      sstore\n        /* \"#utility.yul\":21546:21768   */\n      pop\n        /* \"#utility.yul\":20881:21768   */\n      jump(tag_432)\n        /* \"#utility.yul\":20911:21529   */\n    tag_433:\n        /* \"#utility.yul\":20963:20967   */\n      0x1f\n        /* \"#utility.yul\":20959:20968   */\n      not\n        /* \"#utility.yul\":20951:20957   */\n      dup5\n        /* \"#utility.yul\":20947:20969   */\n      and\n        /* \"#utility.yul\":20997:21034   */\n      tag_436\n        /* \"#utility.yul\":21029:21033   */\n      dup7\n        /* \"#utility.yul\":20997:21034   */\n      tag_198\n      jump\t// in\n    tag_436:\n        /* \"#utility.yul\":21056:21057   */\n      0x00\n        /* \"#utility.yul\":21070:21278   */\n    tag_437:\n        /* \"#utility.yul\":21084:21091   */\n      dup3\n        /* \"#utility.yul\":21081:21082   */\n      dup2\n        /* \"#utility.yul\":21078:21092   */\n      lt\n        /* \"#utility.yul\":21070:21278   */\n      iszero\n      tag_439\n      jumpi\n        /* \"#utility.yul\":21163:21172   */\n      dup5\n        /* \"#utility.yul\":21158:21161   */\n      dup10\n        /* \"#utility.yul\":21154:21173   */\n      add\n        /* \"#utility.yul\":21148:21174   */\n      mload\n        /* \"#utility.yul\":21140:21146   */\n      dup3\n        /* \"#utility.yul\":21133:21175   */\n      sstore\n        /* \"#utility.yul\":21214:21215   */\n      0x01\n        /* \"#utility.yul\":21206:21212   */\n      dup3\n        /* \"#utility.yul\":21202:21216   */\n      add\n        /* \"#utility.yul\":21192:21216   */\n      swap2\n      pop\n        /* \"#utility.yul\":21261:21263   */\n      0x20\n        /* \"#utility.yul\":21250:21259   */\n      dup6\n        /* \"#utility.yul\":21246:21264   */\n      add\n        /* \"#utility.yul\":21233:21264   */\n      swap5\n      pop\n        /* \"#utility.yul\":21107:21111   */\n      0x20\n        /* \"#utility.yul\":21104:21105   */\n      dup2\n        /* \"#utility.yul\":21100:21112   */\n      add\n        /* \"#utility.yul\":21095:21112   */\n      swap1\n      pop\n        /* \"#utility.yul\":21070:21278   */\n      jump(tag_437)\n    tag_439:\n        /* \"#utility.yul\":21306:21312   */\n      dup7\n        /* \"#utility.yul\":21297:21304   */\n      dup4\n        /* \"#utility.yul\":21294:21313   */\n      lt\n        /* \"#utility.yul\":21291:21470   */\n      iszero\n      tag_440\n      jumpi\n        /* \"#utility.yul\":21364:21373   */\n      dup5\n        /* \"#utility.yul\":21359:21362   */\n      dup10\n        /* \"#utility.yul\":21355:21374   */\n      add\n        /* \"#utility.yul\":21349:21375   */\n      mload\n        /* \"#utility.yul\":21407:21455   */\n      tag_441\n        /* \"#utility.yul\":21449:21453   */\n      0x1f\n        /* \"#utility.yul\":21441:21447   */\n      dup10\n        /* \"#utility.yul\":21437:21454   */\n      and\n        /* \"#utility.yul\":21426:21435   */\n      dup3\n        /* \"#utility.yul\":21407:21455   */\n      tag_210\n      jump\t// in\n    tag_441:\n        /* \"#utility.yul\":21399:21405   */\n      dup4\n        /* \"#utility.yul\":21392:21456   */\n      sstore\n        /* \"#utility.yul\":21314:21470   */\n      pop\n        /* \"#utility.yul\":21291:21470   */\n    tag_440:\n        /* \"#utility.yul\":21516:21517   */\n      0x01\n        /* \"#utility.yul\":21512:21513   */\n      0x02\n        /* \"#utility.yul\":21504:21510   */\n      dup9\n        /* \"#utility.yul\":21500:21514   */\n      mul\n        /* \"#utility.yul\":21496:21518   */\n      add\n        /* \"#utility.yul\":21490:21494   */\n      dup9\n        /* \"#utility.yul\":21483:21519   */\n      sstore\n        /* \"#utility.yul\":20918:21529   */\n      pop\n      pop\n      pop\n        /* \"#utility.yul\":20881:21768   */\n    tag_432:\n      pop\n        /* \"#utility.yul\":20471:21774   */\n      pop\n      pop\n      pop\n        /* \"#utility.yul\":20379:21774   */\n      pop\n      pop\n      jump\t// out\n        /* \"#utility.yul\":21780:22203   */\n    tag_91:\n        /* \"#utility.yul\":21921:21925   */\n      0x00\n        /* \"#utility.yul\":21959:21961   */\n      0x40\n        /* \"#utility.yul\":21948:21957   */\n      dup3\n        /* \"#utility.yul\":21944:21962   */\n      add\n        /* \"#utility.yul\":21936:21962   */\n      swap1\n      pop\n        /* \"#utility.yul\":22008:22017   */\n      dup2\n        /* \"#utility.yul\":22002:22006   */\n      dup2\n        /* \"#utility.yul\":21998:22018   */\n      sub\n        /* \"#utility.yul\":21994:21995   */\n      0x00\n        /* \"#utility.yul\":21983:21992   */\n      dup4\n        /* \"#utility.yul\":21979:21996   */\n      add\n        /* \"#utility.yul\":21972:22019   */\n      mstore\n        /* \"#utility.yul\":22036:22114   */\n      tag_443\n        /* \"#utility.yul\":22109:22113   */\n      dup2\n        /* \"#utility.yul\":22100:22106   */\n      dup6\n        /* \"#utility.yul\":22036:22114   */\n      tag_173\n      jump\t// in\n    tag_443:\n        /* \"#utility.yul\":22028:22114   */\n      swap1\n      pop\n        /* \"#utility.yul\":22124:22196   */\n      tag_444\n        /* \"#utility.yul\":22192:22194   */\n      0x20\n        /* \"#utility.yul\":22181:22190   */\n      dup4\n        /* \"#utility.yul\":22177:22195   */\n      add\n        /* \"#utility.yul\":22168:22174   */\n      dup5\n        /* \"#utility.yul\":22124:22196   */\n      tag_149\n      jump\t// in\n    tag_444:\n        /* \"#utility.yul\":21780:22203   */\n      swap4\n      swap3\n      pop\n      pop\n      pop\n      jump\t// out\n        /* \"#utility.yul\":22209:22352   */\n    tag_212:\n        /* \"#utility.yul\":22266:22271   */\n      0x00\n        /* \"#utility.yul\":22297:22303   */\n      dup2\n        /* \"#utility.yul\":22291:22304   */\n      mload\n        /* \"#utility.yul\":22282:22304   */\n      swap1\n      pop\n        /* \"#utility.yul\":22313:22346   */\n      tag_446\n        /* \"#utility.yul\":22340:22345   */\n      dup2\n        /* \"#utility.yul\":22313:22346   */\n      tag_157\n      jump\t// in\n    tag_446:\n        /* \"#utility.yul\":22209:22352   */\n      swap3\n      swap2\n      pop\n      pop\n      jump\t// out\n        /* \"#utility.yul\":22358:22709   */\n    tag_103:\n        /* \"#utility.yul\":22428:22434   */\n      0x00\n        /* \"#utility.yul\":22477:22479   */\n      0x20\n        /* \"#utility.yul\":22465:22474   */\n      dup3\n        /* \"#utility.yul\":22456:22463   */\n      dup5\n        /* \"#utility.yul\":22452:22475   */\n      sub\n        /* \"#utility.yul\":22448:22480   */\n      slt\n        /* \"#utility.yul\":22445:22564   */\n      iszero\n      tag_448\n      jumpi\n        /* \"#utility.yul\":22483:22562   */\n      tag_449\n      tag_151\n      jump\t// in\n    tag_449:\n        /* \"#utility.yul\":22445:22564   */\n    tag_448:\n        /* \"#utility.yul\":22603:22604   */\n      0x00\n        /* \"#utility.yul\":22628:22692   */\n      tag_450\n        /* \"#utility.yul\":22684:22691   */\n      dup5\n        /* \"#utility.yul\":22675:22681   */\n      dup3\n        /* \"#utility.yul\":22664:22673   */\n      dup6\n        /* \"#utility.yul\":22660:22682   */\n      add\n        /* \"#utility.yul\":22628:22692   */\n      tag_212\n      jump\t// in\n    tag_450:\n        /* \"#utility.yul\":22618:22692   */\n      swap2\n      pop\n        /* \"#utility.yul\":22574:22702   */\n      pop\n        /* \"#utility.yul\":22358:22709   */\n      swap3\n      swap2\n      pop\n      pop\n      jump\t// out\n        /* \"#utility.yul\":22715:22886   */\n    tag_213:\n        /* \"#utility.yul\":22855:22878   */\n      0x4e6f20746f6b656e7320746f2077697468647261770000000000000000000000\n        /* \"#utility.yul\":22851:22852   */\n      0x00\n        /* \"#utility.yul\":22843:22849   */\n      dup3\n        /* \"#utility.yul\":22839:22853   */\n      add\n        /* \"#utility.yul\":22832:22879   */\n      mstore\n        /* \"#utility.yul\":22715:22886   */\n      pop\n      jump\t// out\n        /* \"#utility.yul\":22892:23258   */\n    tag_214:\n        /* \"#utility.yul\":23034:23037   */\n      0x00\n        /* \"#utility.yul\":23055:23122   */\n      tag_453\n        /* \"#utility.yul\":23119:23121   */\n      0x15\n        /* \"#utility.yul\":23114:23117   */\n      dup4\n        /* \"#utility.yul\":23055:23122   */\n      tag_171\n      jump\t// in\n    tag_453:\n        /* \"#utility.yul\":23048:23122   */\n      swap2\n      pop\n        /* \"#utility.yul\":23131:23224   */\n      tag_454\n        /* \"#utility.yul\":23220:23223   */\n      dup3\n        /* \"#utility.yul\":23131:23224   */\n      tag_213\n      jump\t// in\n    tag_454:\n        /* \"#utility.yul\":23249:23251   */\n      0x20\n        /* \"#utility.yul\":23244:23247   */\n      dup3\n        /* \"#utility.yul\":23240:23252   */\n      add\n        /* \"#utility.yul\":23233:23252   */\n      swap1\n      pop\n        /* \"#utility.yul\":22892:23258   */\n      swap2\n      swap1\n      pop\n      jump\t// out\n        /* \"#utility.yul\":23264:23683   */\n    tag_106:\n        /* \"#utility.yul\":23430:23434   */\n      0x00\n        /* \"#utility.yul\":23468:23470   */\n      0x20\n        /* \"#utility.yul\":23457:23466   */\n      dup3\n        /* \"#utility.yul\":23453:23471   */\n      add\n        /* \"#utility.yul\":23445:23471   */\n      swap1\n      pop\n        /* \"#utility.yul\":23517:23526   */\n      dup2\n        /* \"#utility.yul\":23511:23515   */\n      dup2\n        /* \"#utility.yul\":23507:23527   */\n      sub\n        /* \"#utility.yul\":23503:23504   */\n      0x00\n        /* \"#utility.yul\":23492:23501   */\n      dup4\n        /* \"#utility.yul\":23488:23505   */\n      add\n        /* \"#utility.yul\":23481:23528   */\n      mstore\n        /* \"#utility.yul\":23545:23676   */\n      tag_456\n        /* \"#utility.yul\":23671:23675   */\n      dup2\n        /* \"#utility.yul\":23545:23676   */\n      tag_214\n      jump\t// in\n    tag_456:\n        /* \"#utility.yul\":23537:23676   */\n      swap1\n      pop\n        /* \"#utility.yul\":23264:23683   */\n      swap2\n      swap1\n      pop\n      jump\t// out\n        /* \"#utility.yul\":23689:23864   */\n    tag_215:\n        /* \"#utility.yul\":23829:23856   */\n      0x4e6f2072656d61696e696e672041504920726571756573747300000000000000\n        /* \"#utility.yul\":23825:23826   */\n      0x00\n        /* \"#utility.yul\":23817:23823   */\n      dup3\n        /* \"#utility.yul\":23813:23827   */\n      add\n        /* \"#utility.yul\":23806:23857   */\n      mstore\n        /* \"#utility.yul\":23689:23864   */\n      pop\n      jump\t// out\n        /* \"#utility.yul\":23870:24236   */\n    tag_216:\n        /* \"#utility.yul\":24012:24015   */\n      0x00\n        /* \"#utility.yul\":24033:24100   */\n      tag_459\n        /* \"#utility.yul\":24097:24099   */\n      0x19\n        /* \"#utility.yul\":24092:24095   */\n      dup4\n        /* \"#utility.yul\":24033:24100   */\n      tag_171\n      jump\t// in\n    tag_459:\n        /* \"#utility.yul\":24026:24100   */\n      swap2\n      pop\n        /* \"#utility.yul\":24109:24202   */\n      tag_460\n        /* \"#utility.yul\":24198:24201   */\n      dup3\n        /* \"#utility.yul\":24109:24202   */\n      tag_215\n      jump\t// in\n    tag_460:\n        /* \"#utility.yul\":24227:24229   */\n      0x20\n        /* \"#utility.yul\":24222:24225   */\n      dup3\n        /* \"#utility.yul\":24218:24230   */\n      add\n        /* \"#utility.yul\":24211:24230   */\n      swap1\n      pop\n        /* \"#utility.yul\":23870:24236   */\n      swap2\n      swap1\n      pop\n      jump\t// out\n        /* \"#utility.yul\":24242:24661   */\n    tag_119:\n        /* \"#utility.yul\":24408:24412   */\n      0x00\n        /* \"#utility.yul\":24446:24448   */\n      0x20\n        /* \"#utility.yul\":24435:24444   */\n      dup3\n        /* \"#utility.yul\":24431:24449   */\n      add\n        /* \"#utility.yul\":24423:24449   */\n      swap1\n      pop\n        /* \"#utility.yul\":24495:24504   */\n      dup2\n        /* \"#utility.yul\":24489:24493   */\n      dup2\n        /* \"#utility.yul\":24485:24505   */\n      sub\n        /* \"#utility.yul\":24481:24482   */\n      0x00\n        /* \"#utility.yul\":24470:24479   */\n      dup4\n        /* \"#utility.yul\":24466:24483   */\n      add\n        /* \"#utility.yul\":24459:24506   */\n      mstore\n        /* \"#utility.yul\":24523:24654   */\n      tag_462\n        /* \"#utility.yul\":24649:24653   */\n      dup2\n        /* \"#utility.yul\":24523:24654   */\n      tag_216\n      jump\t// in\n    tag_462:\n        /* \"#utility.yul\":24515:24654   */\n      swap1\n      pop\n        /* \"#utility.yul\":24242:24661   */\n      swap2\n      swap1\n      pop\n      jump\t// out\n        /* \"#utility.yul\":24667:24861   */\n    tag_121:\n        /* \"#utility.yul\":24707:24711   */\n      0x00\n        /* \"#utility.yul\":24727:24747   */\n      tag_464\n        /* \"#utility.yul\":24745:24746   */\n      dup3\n        /* \"#utility.yul\":24727:24747   */\n      tag_148\n      jump\t// in\n    tag_464:\n        /* \"#utility.yul\":24722:24747   */\n      swap2\n      pop\n        /* \"#utility.yul\":24761:24781   */\n      tag_465\n        /* \"#utility.yul\":24779:24780   */\n      dup4\n        /* \"#utility.yul\":24761:24781   */\n      tag_148\n      jump\t// in\n    tag_465:\n        /* \"#utility.yul\":24756:24781   */\n      swap3\n      pop\n        /* \"#utility.yul\":24805:24806   */\n      dup3\n        /* \"#utility.yul\":24802:24803   */\n      dup3\n        /* \"#utility.yul\":24798:24807   */\n      sub\n        /* \"#utility.yul\":24790:24807   */\n      swap1\n      pop\n        /* \"#utility.yul\":24829:24830   */\n      dup2\n        /* \"#utility.yul\":24823:24827   */\n      dup2\n        /* \"#utility.yul\":24820:24831   */\n      gt\n        /* \"#utility.yul\":24817:24854   */\n      iszero\n      tag_466\n      jumpi\n        /* \"#utility.yul\":24834:24852   */\n      tag_467\n      tag_187\n      jump\t// in\n    tag_467:\n        /* \"#utility.yul\":24817:24854   */\n    tag_466:\n        /* \"#utility.yul\":24667:24861   */\n      swap3\n      swap2\n      pop\n      pop\n      jump\t// out\n        /* \"#utility.yul\":24867:25309   */\n    tag_131:\n        /* \"#utility.yul\":25016:25020   */\n      0x00\n        /* \"#utility.yul\":25054:25056   */\n      0x60\n        /* \"#utility.yul\":25043:25052   */\n      dup3\n        /* \"#utility.yul\":25039:25057   */\n      add\n        /* \"#utility.yul\":25031:25057   */\n      swap1\n      pop\n        /* \"#utility.yul\":25067:25138   */\n      tag_469\n        /* \"#utility.yul\":25135:25136   */\n      0x00\n        /* \"#utility.yul\":25124:25133   */\n      dup4\n        /* \"#utility.yul\":25120:25137   */\n      add\n        /* \"#utility.yul\":25111:25117   */\n      dup7\n        /* \"#utility.yul\":25067:25138   */\n      tag_169\n      jump\t// in\n    tag_469:\n        /* \"#utility.yul\":25148:25220   */\n      tag_470\n        /* \"#utility.yul\":25216:25218   */\n      0x20\n        /* \"#utility.yul\":25205:25214   */\n      dup4\n        /* \"#utility.yul\":25201:25219   */\n      add\n        /* \"#utility.yul\":25192:25198   */\n      dup6\n        /* \"#utility.yul\":25148:25220   */\n      tag_169\n      jump\t// in\n    tag_470:\n        /* \"#utility.yul\":25230:25302   */\n      tag_471\n        /* \"#utility.yul\":25298:25300   */\n      0x40\n        /* \"#utility.yul\":25287:25296   */\n      dup4\n        /* \"#utility.yul\":25283:25301   */\n      add\n        /* \"#utility.yul\":25274:25280   */\n      dup5\n        /* \"#utility.yul\":25230:25302   */\n      tag_149\n      jump\t// in\n    tag_471:\n        /* \"#utility.yul\":24867:25309   */\n      swap5\n      swap4\n      pop\n      pop\n      pop\n      pop\n      jump\t// out\n        /* \"#utility.yul\":25315:25496   */\n    tag_217:\n        /* \"#utility.yul\":25455:25488   */\n      0x5265656e7472616e637947756172643a207265656e7472616e742063616c6c00\n        /* \"#utility.yul\":25451:25452   */\n      0x00\n        /* \"#utility.yul\":25443:25449   */\n      dup3\n        /* \"#utility.yul\":25439:25453   */\n      add\n        /* \"#utility.yul\":25432:25489   */\n      mstore\n        /* \"#utility.yul\":25315:25496   */\n      pop\n      jump\t// out\n        /* \"#utility.yul\":25502:25868   */\n    tag_218:\n        /* \"#utility.yul\":25644:25647   */\n      0x00\n        /* \"#utility.yul\":25665:25732   */\n      tag_474\n        /* \"#utility.yul\":25729:25731   */\n      0x1f\n        /* \"#utility.yul\":25724:25727   */\n      dup4\n        /* \"#utility.yul\":25665:25732   */\n      tag_171\n      jump\t// in\n    tag_474:\n        /* \"#utility.yul\":25658:25732   */\n      swap2\n      pop\n        /* \"#utility.yul\":25741:25834   */\n      tag_475\n        /* \"#utility.yul\":25830:25833   */\n      dup3\n        /* \"#utility.yul\":25741:25834   */\n      tag_217\n      jump\t// in\n    tag_475:\n        /* \"#utility.yul\":25859:25861   */\n      0x20\n        /* \"#utility.yul\":25854:25857   */\n      dup3\n        /* \"#utility.yul\":25850:25862   */\n      add\n        /* \"#utility.yul\":25843:25862   */\n      swap1\n      pop\n        /* \"#utility.yul\":25502:25868   */\n      swap2\n      swap1\n      pop\n      jump\t// out\n        /* \"#utility.yul\":25874:26293   */\n    tag_136:\n        /* \"#utility.yul\":26040:26044   */\n      0x00\n        /* \"#utility.yul\":26078:26080   */\n      0x20\n        /* \"#utility.yul\":26067:26076   */\n      dup3\n        /* \"#utility.yul\":26063:26081   */\n      add\n        /* \"#utility.yul\":26055:26081   */\n      swap1\n      pop\n        /* \"#utility.yul\":26127:26136   */\n      dup2\n        /* \"#utility.yul\":26121:26125   */\n      dup2\n        /* \"#utility.yul\":26117:26137   */\n      sub\n        /* \"#utility.yul\":26113:26114   */\n      0x00\n        /* \"#utility.yul\":26102:26111   */\n      dup4\n        /* \"#utility.yul\":26098:26115   */\n      add\n        /* \"#utility.yul\":26091:26138   */\n      mstore\n        /* \"#utility.yul\":26155:26286   */\n      tag_477\n        /* \"#utility.yul\":26281:26285   */\n      dup2\n        /* \"#utility.yul\":26155:26286   */\n      tag_218\n      jump\t// in\n    tag_477:\n        /* \"#utility.yul\":26147:26286   */\n      swap1\n      pop\n        /* \"#utility.yul\":25874:26293   */\n      swap2\n      swap1\n      pop\n      jump\t// out\n        /* \"#utility.yul\":26299:26631   */\n    tag_140:\n        /* \"#utility.yul\":26420:26424   */\n      0x00\n        /* \"#utility.yul\":26458:26460   */\n      0x40\n        /* \"#utility.yul\":26447:26456   */\n      dup3\n        /* \"#utility.yul\":26443:26461   */\n      add\n        /* \"#utility.yul\":26435:26461   */\n      swap1\n      pop\n        /* \"#utility.yul\":26471:26542   */\n      tag_479\n        /* \"#utility.yul\":26539:26540   */\n      0x00\n        /* \"#utility.yul\":26528:26537   */\n      dup4\n        /* \"#utility.yul\":26524:26541   */\n      add\n        /* \"#utility.yul\":26515:26521   */\n      dup6\n        /* \"#utility.yul\":26471:26542   */\n      tag_169\n      jump\t// in\n    tag_479:\n        /* \"#utility.yul\":26552:26624   */\n      tag_480\n        /* \"#utility.yul\":26620:26622   */\n      0x20\n        /* \"#utility.yul\":26609:26618   */\n      dup4\n        /* \"#utility.yul\":26605:26623   */\n      add\n        /* \"#utility.yul\":26596:26602   */\n      dup5\n        /* \"#utility.yul\":26552:26624   */\n      tag_149\n      jump\t// in\n    tag_480:\n        /* \"#utility.yul\":26299:26631   */\n      swap4\n      swap3\n      pop\n      pop\n      pop\n      jump\t// out\n\n    auxdata: 0xa2646970667358221220c49ca6da9644ebbc74a8780dc3b739231e8486aa435e99224291ed4122932e5a64736f6c634300081a0033\n}\n",
				"bytecode": {
					"linkReferences": {},
					"object": "60a060405234801561000f575f80fd5b50604051611e3d380380611e3d8339818101604052810190610031919061018f565b60015f819055505f73ffffffffffffffffffffffffffffffffffffffff168173ffffffffffffffffffffffffffffffffffffffff16036100a6576040517f08c379a000000000000000000000000000000000000000000000000000000000815260040161009d90610214565b60405180910390fd5b8073ffffffffffffffffffffffffffffffffffffffff1660808173ffffffffffffffffffffffffffffffffffffffff16815250503360015f6101000a81548173ffffffffffffffffffffffffffffffffffffffff021916908373ffffffffffffffffffffffffffffffffffffffff16021790555050610232565b5f80fd5b5f73ffffffffffffffffffffffffffffffffffffffff82169050919050565b5f61014d82610124565b9050919050565b5f61015e82610143565b9050919050565b61016e81610154565b8114610178575f80fd5b50565b5f8151905061018981610165565b92915050565b5f602082840312156101a4576101a3610120565b5b5f6101b18482850161017b565b91505092915050565b5f82825260208201905092915050565b7f496e76616c696420746f6b656e206164647265737300000000000000000000005f82015250565b5f6101fe6015836101ba565b9150610209826101ca565b602082019050919050565b5f6020820190508181035f83015261022b816101f2565b9050919050565b608051611bde61025f5f395f81816103a801528181610745015281816108470152610bd40152611bde5ff3fe608060405234801561000f575f80fd5b5060043610610091575f3560e01c80638d8f2adb116100645780638d8f2adb1461011b5780638da5cb5b146101255780638e04d8d814610143578063af6e56891461015f578063fc0c546a1461019257610091565b8063099952c814610095578063400bb18d146100b35780636d177a00146100e3578063838c0557146100ff575b5f80fd5b61009d6101b0565b6040516100aa9190610e00565b60405180910390f35b6100cd60048036038101906100c89190610eae565b6101b6565b6040516100da9190610e00565b60405180910390f35b6100fd60048036038101906100f89190610eec565b610252565b005b61011960048036038101906101149190611066565b6104c0565b005b6101236106ab565b005b61012d610905565b60405161013a91906110cf565b60405180910390f35b61015d600480360381019061015891906110e8565b61092a565b005b610179600480360381019061017491906110e8565b610b14565b604051610189949392919061118d565b60405180910390f35b61019a610bd2565b6040516101a79190611232565b60405180910390f35b60025481565b5f60025482106101fb576040517f08c379a00000000000000000000000000000000000000000000000000000000081526004016101f290611295565b60405180910390fd5b60045f8473ffffffffffffffffffffffffffffffffffffffff1673ffffffffffffffffffffffffffffffffffffffff1681526020019081526020015f205f015f8381526020019081526020015f2054905092915050565b6002548210610296576040517f08c379a000000000000000000000000000000000000000000000000000000000815260040161028d90611295565b60405180910390fd5b5f81116102d8576040517f08c379a00000000000000000000000000000000000000000000000000000000081526004016102cf90611323565b60405180910390fd5b5f60035f8481526020019081526020015f209050806003015f9054906101000a900460ff1661033c576040517f08c379a00000000000000000000000000000000000000000000000000000000081526004016103339061138b565b60405180910390fd5b5f82826001015461034d91906113d6565b9050816001015483826103609190611444565b146103a0576040517f08c379a0000000000000000000000000000000000000000000000000000000008152600401610397906114be565b60405180910390fd5b6103ed3330837f000000000000000000000000000000000000000000000000000000000000000073ffffffffffffffffffffffffffffffffffffffff16610bf6909392919063ffffffff16565b8260045f3373ffffffffffffffffffffffffffffffffffffffff1673ffffffffffffffffffffffffffffffffffffffff1681526020019081526020015f205f015f8681526020019081526020015f205f82825461044a91906114dc565b9250508190555082826002015f82825461046491906114dc565b92505081905550833373ffffffffffffffffffffffffffffffffffffffff167f651496919c95942a8a70db2e93544280a0491b14565245385a8026dcb32e923b856040516104b29190610e00565b60405180910390a350505050565b60015f9054906101000a900473ffffffffffffffffffffffffffffffffffffffff1673ffffffffffffffffffffffffffffffffffffffff163373ffffffffffffffffffffffffffffffffffffffff161461054f576040517f08c379a000000000000000000000000000000000000000000000000000000000815260040161054690611559565b60405180910390fd5b5f825111610592576040517f08c379a0000000000000000000000000000000000000000000000000000000008152600401610589906115c1565b60405180910390fd5b5f81116105d4576040517f08c379a00000000000000000000000000000000000000000000000000000000081526004016105cb9061164f565b60405180910390fd5b5f60025f8154809291906105e79061166d565b91905055905060405180608001604052808481526020018381526020015f81526020016001151581525060035f8381526020019081526020015f205f820151815f01908161063591906118a5565b5060208201518160010155604082015181600201556060820151816003015f6101000a81548160ff021916908315150217905550905050807f708b6915aad37cd1d491e64bf7a3b53c298499411a09f4b2315e30da638b5de2848460405161069e929190611974565b60405180910390a2505050565b60015f9054906101000a900473ffffffffffffffffffffffffffffffffffffffff1673ffffffffffffffffffffffffffffffffffffffff163373ffffffffffffffffffffffffffffffffffffffff161461073a576040517f08c379a000000000000000000000000000000000000000000000000000000000815260040161073190611559565b60405180910390fd5b610742610c78565b5f7f000000000000000000000000000000000000000000000000000000000000000073ffffffffffffffffffffffffffffffffffffffff166370a08231306040518263ffffffff1660e01b815260040161079c91906110cf565b602060405180830381865afa1580156107b7573d5f803e3d5ffd5b505050506040513d601f19601f820116820180604052508101906107db91906119b6565b90505f811161081f576040517f08c379a000000000000000000000000000000000000000000000000000000000815260040161081690611a2b565b60405180910390fd5b61088b60015f9054906101000a900473ffffffffffffffffffffffffffffffffffffffff16827f000000000000000000000000000000000000000000000000000000000000000073ffffffffffffffffffffffffffffffffffffffff16610cc59092919063ffffffff16565b60015f9054906101000a900473ffffffffffffffffffffffffffffffffffffffff1673ffffffffffffffffffffffffffffffffffffffff167f6352c5382c4a4578e712449ca65e83cdb392d045dfcf1cad9615189db2da244b826040516108f29190610e00565b60405180910390a250610903610d44565b565b60015f9054906101000a900473ffffffffffffffffffffffffffffffffffffffff1681565b600254811061096e576040517f08c379a000000000000000000000000000000000000000000000000000000000815260040161096590611295565b60405180910390fd5b5f60035f8381526020019081526020015f209050806003015f9054906101000a900460ff166109d2576040517f08c379a00000000000000000000000000000000000000000000000000000000081526004016109c99061138b565b60405180910390fd5b5f60045f3373ffffffffffffffffffffffffffffffffffffffff1673ffffffffffffffffffffffffffffffffffffffff1681526020019081526020015f205f015f8481526020019081526020015f205490505f8111610a66576040517f08c379a0000000000000000000000000000000000000000000000000000000008152600401610a5d90611a93565b60405180910390fd5b600160045f3373ffffffffffffffffffffffffffffffffffffffff1673ffffffffffffffffffffffffffffffffffffffff1681526020019081526020015f205f015f8581526020019081526020015f205f828254610ac49190611ab1565b92505081905550823373ffffffffffffffffffffffffffffffffffffffff167f7598affe5bb8b864e84f0b819f6b046054c8f0d6771e8ae086411b5dd2a8bc1260405160405180910390a3505050565b6003602052805f5260405f205f91509050805f018054610b33906116e1565b80601f0160208091040260200160405190810160405280929190818152602001828054610b5f906116e1565b8015610baa5780601f10610b8157610100808354040283529160200191610baa565b820191905f5260205f20905b815481529060010190602001808311610b8d57829003601f168201915b505050505090806001015490806002015490806003015f9054906101000a900460ff16905084565b7f000000000000000000000000000000000000000000000000000000000000000081565b610c72848573ffffffffffffffffffffffffffffffffffffffff166323b872dd868686604051602401610c2b93929190611ae4565b604051602081830303815290604052915060e01b6020820180517bffffffffffffffffffffffffffffffffffffffffffffffffffffffff8381831617835250505050610d4d565b50505050565b60025f5403610cbc576040517f08c379a0000000000000000000000000000000000000000000000000000000008152600401610cb390611b63565b60405180910390fd5b60025f81905550565b610d3f838473ffffffffffffffffffffffffffffffffffffffff1663a9059cbb8585604051602401610cf8929190611b81565b604051602081830303815290604052915060e01b6020820180517bffffffffffffffffffffffffffffffffffffffffffffffffffffffff8381831617835250505050610d4d565b505050565b60015f81905550565b5f8060205f8451602086015f885af180610d6c576040513d5f823e3d81fd5b3d92505f519150505f8214610d85576001811415610da0565b5f8473ffffffffffffffffffffffffffffffffffffffff163b145b15610de257836040517f5274afe7000000000000000000000000000000000000000000000000000000008152600401610dd991906110cf565b60405180910390fd5b50505050565b5f819050919050565b610dfa81610de8565b82525050565b5f602082019050610e135f830184610df1565b92915050565b5f604051905090565b5f80fd5b5f80fd5b5f73ffffffffffffffffffffffffffffffffffffffff82169050919050565b5f610e5382610e2a565b9050919050565b610e6381610e49565b8114610e6d575f80fd5b50565b5f81359050610e7e81610e5a565b92915050565b610e8d81610de8565b8114610e97575f80fd5b50565b5f81359050610ea881610e84565b92915050565b5f8060408385031215610ec457610ec3610e22565b5b5f610ed185828601610e70565b9250506020610ee285828601610e9a565b9150509250929050565b5f8060408385031215610f0257610f01610e22565b5b5f610f0f85828601610e9a565b9250506020610f2085828601610e9a565b9150509250929050565b5f80fd5b5f80fd5b5f601f19601f8301169050919050565b7f4e487b71000000000000000000000000000000000000000000000000000000005f52604160045260245ffd5b610f7882610f32565b810181811067ffffffffffffffff82111715610f9757610f96610f42565b5b80604052505050565b5f610fa9610e19565b9050610fb58282610f6f565b919050565b5f67ffffffffffffffff821115610fd457610fd3610f42565b5b610fdd82610f32565b9050602081019050919050565b828183375f83830152505050565b5f61100a61100584610fba565b610fa0565b90508281526020810184848401111561102657611025610f2e565b5b611031848285610fea565b509392505050565b5f82601f83011261104d5761104c610f2a565b5b813561105d848260208601610ff8565b91505092915050565b5f806040838503121561107c5761107b610e22565b5b5f83013567ffffffffffffffff81111561109957611098610e26565b5b6110a585828601611039565b92505060206110b685828601610e9a565b9150509250929050565b6110c981610e49565b82525050565b5f6020820190506110e25f8301846110c0565b92915050565b5f602082840312156110fd576110fc610e22565b5b5f61110a84828501610e9a565b91505092915050565b5f81519050919050565b5f82825260208201905092915050565b8281835e5f83830152505050565b5f61114582611113565b61114f818561111d565b935061115f81856020860161112d565b61116881610f32565b840191505092915050565b5f8115159050919050565b61118781611173565b82525050565b5f6080820190508181035f8301526111a5818761113b565b90506111b46020830186610df1565b6111c16040830185610df1565b6111ce606083018461117e565b95945050505050565b5f819050919050565b5f6111fa6111f56111f084610e2a565b6111d7565b610e2a565b9050919050565b5f61120b826111e0565b9050919050565b5f61121c82611201565b9050919050565b61122c81611212565b82525050565b5f6020820190506112455f830184611223565b92915050565b7f41504920646f6573206e6f7420657869737400000000000000000000000000005f82015250565b5f61127f60128361111d565b915061128a8261124b565b602082019050919050565b5f6020820190508181035f8301526112ac81611273565b9050919050565b7f4e756d626572206f66207265717565737473206d7573742062652067726561745f8201527f6572207468616e207a65726f0000000000000000000000000000000000000000602082015250565b5f61130d602c8361111d565b9150611318826112b3565b604082019050919050565b5f6020820190508181035f83015261133a81611301565b9050919050565b7f415049206973206e6f74206163746976650000000000000000000000000000005f82015250565b5f61137560118361111d565b915061138082611341565b602082019050919050565b5f6020820190508181035f8301526113a281611369565b9050919050565b7f4e487b71000000000000000000000000000000000000000000000000000000005f52601160045260245ffd5b5f6113e082610de8565b91506113eb83610de8565b92508282026113f981610de8565b915082820484148315176114105761140f6113a9565b5b5092915050565b7f4e487b71000000000000000000000000000000000000000000000000000000005f52601260045260245ffd5b5f61144e82610de8565b915061145983610de8565b92508261146957611468611417565b5b828204905092915050565b7f4f766572666c6f772064657465637465640000000000000000000000000000005f82015250565b5f6114a860118361111d565b91506114b382611474565b602082019050919050565b5f6020820190508181035f8301526114d58161149c565b9050919050565b5f6114e682610de8565b91506114f183610de8565b9250828201905080821115611509576115086113a9565b5b92915050565b7f43616c6c6572206973206e6f7420746865206f776e65720000000000000000005f82015250565b5f61154360178361111d565b915061154e8261150f565b602082019050919050565b5f6020820190508181035f83015261157081611537565b9050919050565b7f415049206e616d652063616e6e6f7420626520656d70747900000000000000005f82015250565b5f6115ab60188361111d565b91506115b682611577565b602082019050919050565b5f6020820190508181035f8301526115d88161159f565b9050919050565b7f5072696365207065722072657175657374206d757374206265206772656174655f8201527f72207468616e207a65726f000000000000000000000000000000000000000000602082015250565b5f611639602b8361111d565b9150611644826115df565b604082019050919050565b5f6020820190508181035f8301526116668161162d565b9050919050565b5f61167782610de8565b91507fffffffffffffffffffffffffffffffffffffffffffffffffffffffffffffffff82036116a9576116a86113a9565b5b600182019050919050565b7f4e487b71000000000000000000000000000000000000000000000000000000005f52602260045260245ffd5b5f60028204905060018216806116f857607f821691505b60208210810361170b5761170a6116b4565b5b50919050565b5f819050815f5260205f209050919050565b5f6020601f8301049050919050565b5f82821b905092915050565b5f6008830261176d7fffffffffffffffffffffffffffffffffffffffffffffffffffffffffffffffff82611732565b6117778683611732565b95508019841693508086168417925050509392505050565b5f6117a96117a461179f84610de8565b6111d7565b610de8565b9050919050565b5f819050919050565b6117c28361178f565b6117d66117ce826117b0565b84845461173e565b825550505050565b5f90565b6117ea6117de565b6117f58184846117b9565b505050565b5b818110156118185761180d5f826117e2565b6001810190506117fb565b5050565b601f82111561185d5761182e81611711565b61183784611723565b81016020851015611846578190505b61185a61185285611723565b8301826117fa565b50505b505050565b5f82821c905092915050565b5f61187d5f1984600802611862565b1980831691505092915050565b5f611895838361186e565b9150826002028217905092915050565b6118ae82611113565b67ffffffffffffffff8111156118c7576118c6610f42565b5b6118d182546116e1565b6118dc82828561181c565b5f60209050601f83116001811461190d575f84156118fb578287015190505b611905858261188a565b86555061196c565b601f19841661191b86611711565b5f5b828110156119425784890151825560018201915060208501945060208101905061191d565b8683101561195f578489015161195b601f89168261186e565b8355505b6001600288020188555050505b505050505050565b5f6040820190508181035f83015261198c818561113b565b905061199b6020830184610df1565b9392505050565b5f815190506119b081610e84565b92915050565b5f602082840312156119cb576119ca610e22565b5b5f6119d8848285016119a2565b91505092915050565b7f4e6f20746f6b656e7320746f20776974686472617700000000000000000000005f82015250565b5f611a1560158361111d565b9150611a20826119e1565b602082019050919050565b5f6020820190508181035f830152611a4281611a09565b9050919050565b7f4e6f2072656d61696e696e6720415049207265717565737473000000000000005f82015250565b5f611a7d60198361111d565b9150611a8882611a49565b602082019050919050565b5f6020820190508181035f830152611aaa81611a71565b9050919050565b5f611abb82610de8565b9150611ac683610de8565b9250828203905081811115611ade57611add6113a9565b5b92915050565b5f606082019050611af75f8301866110c0565b611b0460208301856110c0565b611b116040830184610df1565b949350505050565b7f5265656e7472616e637947756172643a207265656e7472616e742063616c6c005f82015250565b5f611b4d601f8361111d565b9150611b5882611b19565b602082019050919050565b5f6020820190508181035f830152611b7a81611b41565b9050919050565b5f604082019050611b945f8301856110c0565b611ba16020830184610df1565b939250505056fea2646970667358221220c49ca6da9644ebbc74a8780dc3b739231e8486aa435e99224291ed4122932e5a64736f6c634300081a0033",
					"opcodes": "PUSH1 0xA0 PUSH1 0x40 MSTORE CALLVALUE DUP1 ISZERO PUSH2 0xF JUMPI PUSH0 DUP1 REVERT JUMPDEST POP PUSH1 0x40 MLOAD PUSH2 0x1E3D CODESIZE SUB DUP1 PUSH2 0x1E3D DUP4 CODECOPY DUP2 DUP2 ADD PUSH1 0x40 MSTORE DUP2 ADD SWAP1 PUSH2 0x31 SWAP2 SWAP1 PUSH2 0x18F JUMP JUMPDEST PUSH1 0x1 PUSH0 DUP2 SWAP1 SSTORE POP PUSH0 PUSH20 0xFFFFFFFFFFFFFFFFFFFFFFFFFFFFFFFFFFFFFFFF AND DUP2 PUSH20 0xFFFFFFFFFFFFFFFFFFFFFFFFFFFFFFFFFFFFFFFF AND SUB PUSH2 0xA6 JUMPI PUSH1 0x40 MLOAD PUSH32 0x8C379A000000000000000000000000000000000000000000000000000000000 DUP2 MSTORE PUSH1 0x4 ADD PUSH2 0x9D SWAP1 PUSH2 0x214 JUMP JUMPDEST PUSH1 0x40 MLOAD DUP1 SWAP2 SUB SWAP1 REVERT JUMPDEST DUP1 PUSH20 0xFFFFFFFFFFFFFFFFFFFFFFFFFFFFFFFFFFFFFFFF AND PUSH1 0x80 DUP2 PUSH20 0xFFFFFFFFFFFFFFFFFFFFFFFFFFFFFFFFFFFFFFFF AND DUP2 MSTORE POP POP CALLER PUSH1 0x1 PUSH0 PUSH2 0x100 EXP DUP2 SLOAD DUP2 PUSH20 0xFFFFFFFFFFFFFFFFFFFFFFFFFFFFFFFFFFFFFFFF MUL NOT AND SWAP1 DUP4 PUSH20 0xFFFFFFFFFFFFFFFFFFFFFFFFFFFFFFFFFFFFFFFF AND MUL OR SWAP1 SSTORE POP POP PUSH2 0x232 JUMP JUMPDEST PUSH0 DUP1 REVERT JUMPDEST PUSH0 PUSH20 0xFFFFFFFFFFFFFFFFFFFFFFFFFFFFFFFFFFFFFFFF DUP3 AND SWAP1 POP SWAP2 SWAP1 POP JUMP JUMPDEST PUSH0 PUSH2 0x14D DUP3 PUSH2 0x124 JUMP JUMPDEST SWAP1 POP SWAP2 SWAP1 POP JUMP JUMPDEST PUSH0 PUSH2 0x15E DUP3 PUSH2 0x143 JUMP JUMPDEST SWAP1 POP SWAP2 SWAP1 POP JUMP JUMPDEST PUSH2 0x16E DUP2 PUSH2 0x154 JUMP JUMPDEST DUP2 EQ PUSH2 0x178 JUMPI PUSH0 DUP1 REVERT JUMPDEST POP JUMP JUMPDEST PUSH0 DUP2 MLOAD SWAP1 POP PUSH2 0x189 DUP2 PUSH2 0x165 JUMP JUMPDEST SWAP3 SWAP2 POP POP JUMP JUMPDEST PUSH0 PUSH1 0x20 DUP3 DUP5 SUB SLT ISZERO PUSH2 0x1A4 JUMPI PUSH2 0x1A3 PUSH2 0x120 JUMP JUMPDEST JUMPDEST PUSH0 PUSH2 0x1B1 DUP5 DUP3 DUP6 ADD PUSH2 0x17B JUMP JUMPDEST SWAP2 POP POP SWAP3 SWAP2 POP POP JUMP JUMPDEST PUSH0 DUP3 DUP3 MSTORE PUSH1 0x20 DUP3 ADD SWAP1 POP SWAP3 SWAP2 POP POP JUMP JUMPDEST PUSH32 0x496E76616C696420746F6B656E20616464726573730000000000000000000000 PUSH0 DUP3 ADD MSTORE POP JUMP JUMPDEST PUSH0 PUSH2 0x1FE PUSH1 0x15 DUP4 PUSH2 0x1BA JUMP JUMPDEST SWAP2 POP PUSH2 0x209 DUP3 PUSH2 0x1CA JUMP JUMPDEST PUSH1 0x20 DUP3 ADD SWAP1 POP SWAP2 SWAP1 POP JUMP JUMPDEST PUSH0 PUSH1 0x20 DUP3 ADD SWAP1 POP DUP2 DUP2 SUB PUSH0 DUP4 ADD MSTORE PUSH2 0x22B DUP2 PUSH2 0x1F2 JUMP JUMPDEST SWAP1 POP SWAP2 SWAP1 POP JUMP JUMPDEST PUSH1 0x80 MLOAD PUSH2 0x1BDE PUSH2 0x25F PUSH0 CODECOPY PUSH0 DUP2 DUP2 PUSH2 0x3A8 ADD MSTORE DUP2 DUP2 PUSH2 0x745 ADD MSTORE DUP2 DUP2 PUSH2 0x847 ADD MSTORE PUSH2 0xBD4 ADD MSTORE PUSH2 0x1BDE PUSH0 RETURN INVALID PUSH1 0x80 PUSH1 0x40 MSTORE CALLVALUE DUP1 ISZERO PUSH2 0xF JUMPI PUSH0 DUP1 REVERT JUMPDEST POP PUSH1 0x4 CALLDATASIZE LT PUSH2 0x91 JUMPI PUSH0 CALLDATALOAD PUSH1 0xE0 SHR DUP1 PUSH4 0x8D8F2ADB GT PUSH2 0x64 JUMPI DUP1 PUSH4 0x8D8F2ADB EQ PUSH2 0x11B JUMPI DUP1 PUSH4 0x8DA5CB5B EQ PUSH2 0x125 JUMPI DUP1 PUSH4 0x8E04D8D8 EQ PUSH2 0x143 JUMPI DUP1 PUSH4 0xAF6E5689 EQ PUSH2 0x15F JUMPI DUP1 PUSH4 0xFC0C546A EQ PUSH2 0x192 JUMPI PUSH2 0x91 JUMP JUMPDEST DUP1 PUSH4 0x99952C8 EQ PUSH2 0x95 JUMPI DUP1 PUSH4 0x400BB18D EQ PUSH2 0xB3 JUMPI DUP1 PUSH4 0x6D177A00 EQ PUSH2 0xE3 JUMPI DUP1 PUSH4 0x838C0557 EQ PUSH2 0xFF JUMPI JUMPDEST PUSH0 DUP1 REVERT JUMPDEST PUSH2 0x9D PUSH2 0x1B0 JUMP JUMPDEST PUSH1 0x40 MLOAD PUSH2 0xAA SWAP2 SWAP1 PUSH2 0xE00 JUMP JUMPDEST PUSH1 0x40 MLOAD DUP1 SWAP2 SUB SWAP1 RETURN JUMPDEST PUSH2 0xCD PUSH1 0x4 DUP1 CALLDATASIZE SUB DUP2 ADD SWAP1 PUSH2 0xC8 SWAP2 SWAP1 PUSH2 0xEAE JUMP JUMPDEST PUSH2 0x1B6 JUMP JUMPDEST PUSH1 0x40 MLOAD PUSH2 0xDA SWAP2 SWAP1 PUSH2 0xE00 JUMP JUMPDEST PUSH1 0x40 MLOAD DUP1 SWAP2 SUB SWAP1 RETURN JUMPDEST PUSH2 0xFD PUSH1 0x4 DUP1 CALLDATASIZE SUB DUP2 ADD SWAP1 PUSH2 0xF8 SWAP2 SWAP1 PUSH2 0xEEC JUMP JUMPDEST PUSH2 0x252 JUMP JUMPDEST STOP JUMPDEST PUSH2 0x119 PUSH1 0x4 DUP1 CALLDATASIZE SUB DUP2 ADD SWAP1 PUSH2 0x114 SWAP2 SWAP1 PUSH2 0x1066 JUMP JUMPDEST PUSH2 0x4C0 JUMP JUMPDEST STOP JUMPDEST PUSH2 0x123 PUSH2 0x6AB JUMP JUMPDEST STOP JUMPDEST PUSH2 0x12D PUSH2 0x905 JUMP JUMPDEST PUSH1 0x40 MLOAD PUSH2 0x13A SWAP2 SWAP1 PUSH2 0x10CF JUMP JUMPDEST PUSH1 0x40 MLOAD DUP1 SWAP2 SUB SWAP1 RETURN JUMPDEST PUSH2 0x15D PUSH1 0x4 DUP1 CALLDATASIZE SUB DUP2 ADD SWAP1 PUSH2 0x158 SWAP2 SWAP1 PUSH2 0x10E8 JUMP JUMPDEST PUSH2 0x92A JUMP JUMPDEST STOP JUMPDEST PUSH2 0x179 PUSH1 0x4 DUP1 CALLDATASIZE SUB DUP2 ADD SWAP1 PUSH2 0x174 SWAP2 SWAP1 PUSH2 0x10E8 JUMP JUMPDEST PUSH2 0xB14 JUMP JUMPDEST PUSH1 0x40 MLOAD PUSH2 0x189 SWAP5 SWAP4 SWAP3 SWAP2 SWAP1 PUSH2 0x118D JUMP JUMPDEST PUSH1 0x40 MLOAD DUP1 SWAP2 SUB SWAP1 RETURN JUMPDEST PUSH2 0x19A PUSH2 0xBD2 JUMP JUMPDEST PUSH1 0x40 MLOAD PUSH2 0x1A7 SWAP2 SWAP1 PUSH2 0x1232 JUMP JUMPDEST PUSH1 0x40 MLOAD DUP1 SWAP2 SUB SWAP1 RETURN JUMPDEST PUSH1 0x2 SLOAD DUP2 JUMP JUMPDEST PUSH0 PUSH1 0x2 SLOAD DUP3 LT PUSH2 0x1FB JUMPI PUSH1 0x40 MLOAD PUSH32 0x8C379A000000000000000000000000000000000000000000000000000000000 DUP2 MSTORE PUSH1 0x4 ADD PUSH2 0x1F2 SWAP1 PUSH2 0x1295 JUMP JUMPDEST PUSH1 0x40 MLOAD DUP1 SWAP2 SUB SWAP1 REVERT JUMPDEST PUSH1 0x4 PUSH0 DUP5 PUSH20 0xFFFFFFFFFFFFFFFFFFFFFFFFFFFFFFFFFFFFFFFF AND PUSH20 0xFFFFFFFFFFFFFFFFFFFFFFFFFFFFFFFFFFFFFFFF AND DUP2 MSTORE PUSH1 0x20 ADD SWAP1 DUP2 MSTORE PUSH1 0x20 ADD PUSH0 KECCAK256 PUSH0 ADD PUSH0 DUP4 DUP2 MSTORE PUSH1 0x20 ADD SWAP1 DUP2 MSTORE PUSH1 0x20 ADD PUSH0 KECCAK256 SLOAD SWAP1 POP SWAP3 SWAP2 POP POP JUMP JUMPDEST PUSH1 0x2 SLOAD DUP3 LT PUSH2 0x296 JUMPI PUSH1 0x40 MLOAD PUSH32 0x8C379A000000000000000000000000000000000000000000000000000000000 DUP2 MSTORE PUSH1 0x4 ADD PUSH2 0x28D SWAP1 PUSH2 0x1295 JUMP JUMPDEST PUSH1 0x40 MLOAD DUP1 SWAP2 SUB SWAP1 REVERT JUMPDEST PUSH0 DUP2 GT PUSH2 0x2D8 JUMPI PUSH1 0x40 MLOAD PUSH32 0x8C379A000000000000000000000000000000000000000000000000000000000 DUP2 MSTORE PUSH1 0x4 ADD PUSH2 0x2CF SWAP1 PUSH2 0x1323 JUMP JUMPDEST PUSH1 0x40 MLOAD DUP1 SWAP2 SUB SWAP1 REVERT JUMPDEST PUSH0 PUSH1 0x3 PUSH0 DUP5 DUP2 MSTORE PUSH1 0x20 ADD SWAP1 DUP2 MSTORE PUSH1 0x20 ADD PUSH0 KECCAK256 SWAP1 POP DUP1 PUSH1 0x3 ADD PUSH0 SWAP1 SLOAD SWAP1 PUSH2 0x100 EXP SWAP1 DIV PUSH1 0xFF AND PUSH2 0x33C JUMPI PUSH1 0x40 MLOAD PUSH32 0x8C379A000000000000000000000000000000000000000000000000000000000 DUP2 MSTORE PUSH1 0x4 ADD PUSH2 0x333 SWAP1 PUSH2 0x138B JUMP JUMPDEST PUSH1 0x40 MLOAD DUP1 SWAP2 SUB SWAP1 REVERT JUMPDEST PUSH0 DUP3 DUP3 PUSH1 0x1 ADD SLOAD PUSH2 0x34D SWAP2 SWAP1 PUSH2 0x13D6 JUMP JUMPDEST SWAP1 POP DUP2 PUSH1 0x1 ADD SLOAD DUP4 DUP3 PUSH2 0x360 SWAP2 SWAP1 PUSH2 0x1444 JUMP JUMPDEST EQ PUSH2 0x3A0 JUMPI PUSH1 0x40 MLOAD PUSH32 0x8C379A000000000000000000000000000000000000000000000000000000000 DUP2 MSTORE PUSH1 0x4 ADD PUSH2 0x397 SWAP1 PUSH2 0x14BE JUMP JUMPDEST PUSH1 0x40 MLOAD DUP1 SWAP2 SUB SWAP1 REVERT JUMPDEST PUSH2 0x3ED CALLER ADDRESS DUP4 PUSH32 0x0 PUSH20 0xFFFFFFFFFFFFFFFFFFFFFFFFFFFFFFFFFFFFFFFF AND PUSH2 0xBF6 SWAP1 SWAP4 SWAP3 SWAP2 SWAP1 PUSH4 0xFFFFFFFF AND JUMP JUMPDEST DUP3 PUSH1 0x4 PUSH0 CALLER PUSH20 0xFFFFFFFFFFFFFFFFFFFFFFFFFFFFFFFFFFFFFFFF AND PUSH20 0xFFFFFFFFFFFFFFFFFFFFFFFFFFFFFFFFFFFFFFFF AND DUP2 MSTORE PUSH1 0x20 ADD SWAP1 DUP2 MSTORE PUSH1 0x20 ADD PUSH0 KECCAK256 PUSH0 ADD PUSH0 DUP7 DUP2 MSTORE PUSH1 0x20 ADD SWAP1 DUP2 MSTORE PUSH1 0x20 ADD PUSH0 KECCAK256 PUSH0 DUP3 DUP3 SLOAD PUSH2 0x44A SWAP2 SWAP1 PUSH2 0x14DC JUMP JUMPDEST SWAP3 POP POP DUP2 SWAP1 SSTORE POP DUP3 DUP3 PUSH1 0x2 ADD PUSH0 DUP3 DUP3 SLOAD PUSH2 0x464 SWAP2 SWAP1 PUSH2 0x14DC JUMP JUMPDEST SWAP3 POP POP DUP2 SWAP1 SSTORE POP DUP4 CALLER PUSH20 0xFFFFFFFFFFFFFFFFFFFFFFFFFFFFFFFFFFFFFFFF AND PUSH32 0x651496919C95942A8A70DB2E93544280A0491B14565245385A8026DCB32E923B DUP6 PUSH1 0x40 MLOAD PUSH2 0x4B2 SWAP2 SWAP1 PUSH2 0xE00 JUMP JUMPDEST PUSH1 0x40 MLOAD DUP1 SWAP2 SUB SWAP1 LOG3 POP POP POP POP JUMP JUMPDEST PUSH1 0x1 PUSH0 SWAP1 SLOAD SWAP1 PUSH2 0x100 EXP SWAP1 DIV PUSH20 0xFFFFFFFFFFFFFFFFFFFFFFFFFFFFFFFFFFFFFFFF AND PUSH20 0xFFFFFFFFFFFFFFFFFFFFFFFFFFFFFFFFFFFFFFFF AND CALLER PUSH20 0xFFFFFFFFFFFFFFFFFFFFFFFFFFFFFFFFFFFFFFFF AND EQ PUSH2 0x54F JUMPI PUSH1 0x40 MLOAD PUSH32 0x8C379A000000000000000000000000000000000000000000000000000000000 DUP2 MSTORE PUSH1 0x4 ADD PUSH2 0x546 SWAP1 PUSH2 0x1559 JUMP JUMPDEST PUSH1 0x40 MLOAD DUP1 SWAP2 SUB SWAP1 REVERT JUMPDEST PUSH0 DUP3 MLOAD GT PUSH2 0x592 JUMPI PUSH1 0x40 MLOAD PUSH32 0x8C379A000000000000000000000000000000000000000000000000000000000 DUP2 MSTORE PUSH1 0x4 ADD PUSH2 0x589 SWAP1 PUSH2 0x15C1 JUMP JUMPDEST PUSH1 0x40 MLOAD DUP1 SWAP2 SUB SWAP1 REVERT JUMPDEST PUSH0 DUP2 GT PUSH2 0x5D4 JUMPI PUSH1 0x40 MLOAD PUSH32 0x8C379A000000000000000000000000000000000000000000000000000000000 DUP2 MSTORE PUSH1 0x4 ADD PUSH2 0x5CB SWAP1 PUSH2 0x164F JUMP JUMPDEST PUSH1 0x40 MLOAD DUP1 SWAP2 SUB SWAP1 REVERT JUMPDEST PUSH0 PUSH1 0x2 PUSH0 DUP2 SLOAD DUP1 SWAP3 SWAP2 SWAP1 PUSH2 0x5E7 SWAP1 PUSH2 0x166D JUMP JUMPDEST SWAP2 SWAP1 POP SSTORE SWAP1 POP PUSH1 0x40 MLOAD DUP1 PUSH1 0x80 ADD PUSH1 0x40 MSTORE DUP1 DUP5 DUP2 MSTORE PUSH1 0x20 ADD DUP4 DUP2 MSTORE PUSH1 0x20 ADD PUSH0 DUP2 MSTORE PUSH1 0x20 ADD PUSH1 0x1 ISZERO ISZERO DUP2 MSTORE POP PUSH1 0x3 PUSH0 DUP4 DUP2 MSTORE PUSH1 0x20 ADD SWAP1 DUP2 MSTORE PUSH1 0x20 ADD PUSH0 KECCAK256 PUSH0 DUP3 ADD MLOAD DUP2 PUSH0 ADD SWAP1 DUP2 PUSH2 0x635 SWAP2 SWAP1 PUSH2 0x18A5 JUMP JUMPDEST POP PUSH1 0x20 DUP3 ADD MLOAD DUP2 PUSH1 0x1 ADD SSTORE PUSH1 0x40 DUP3 ADD MLOAD DUP2 PUSH1 0x2 ADD SSTORE PUSH1 0x60 DUP3 ADD MLOAD DUP2 PUSH1 0x3 ADD PUSH0 PUSH2 0x100 EXP DUP2 SLOAD DUP2 PUSH1 0xFF MUL NOT AND SWAP1 DUP4 ISZERO ISZERO MUL OR SWAP1 SSTORE POP SWAP1 POP POP DUP1 PUSH32 0x708B6915AAD37CD1D491E64BF7A3B53C298499411A09F4B2315E30DA638B5DE2 DUP5 DUP5 PUSH1 0x40 MLOAD PUSH2 0x69E SWAP3 SWAP2 SWAP1 PUSH2 0x1974 JUMP JUMPDEST PUSH1 0x40 MLOAD DUP1 SWAP2 SUB SWAP1 LOG2 POP POP POP JUMP JUMPDEST PUSH1 0x1 PUSH0 SWAP1 SLOAD SWAP1 PUSH2 0x100 EXP SWAP1 DIV PUSH20 0xFFFFFFFFFFFFFFFFFFFFFFFFFFFFFFFFFFFFFFFF AND PUSH20 0xFFFFFFFFFFFFFFFFFFFFFFFFFFFFFFFFFFFFFFFF AND CALLER PUSH20 0xFFFFFFFFFFFFFFFFFFFFFFFFFFFFFFFFFFFFFFFF AND EQ PUSH2 0x73A JUMPI PUSH1 0x40 MLOAD PUSH32 0x8C379A000000000000000000000000000000000000000000000000000000000 DUP2 MSTORE PUSH1 0x4 ADD PUSH2 0x731 SWAP1 PUSH2 0x1559 JUMP JUMPDEST PUSH1 0x40 MLOAD DUP1 SWAP2 SUB SWAP1 REVERT JUMPDEST PUSH2 0x742 PUSH2 0xC78 JUMP JUMPDEST PUSH0 PUSH32 0x0 PUSH20 0xFFFFFFFFFFFFFFFFFFFFFFFFFFFFFFFFFFFFFFFF AND PUSH4 0x70A08231 ADDRESS PUSH1 0x40 MLOAD DUP3 PUSH4 0xFFFFFFFF AND PUSH1 0xE0 SHL DUP2 MSTORE PUSH1 0x4 ADD PUSH2 0x79C SWAP2 SWAP1 PUSH2 0x10CF JUMP JUMPDEST PUSH1 0x20 PUSH1 0x40 MLOAD DUP1 DUP4 SUB DUP2 DUP7 GAS STATICCALL ISZERO DUP1 ISZERO PUSH2 0x7B7 JUMPI RETURNDATASIZE PUSH0 DUP1 RETURNDATACOPY RETURNDATASIZE PUSH0 REVERT JUMPDEST POP POP POP POP PUSH1 0x40 MLOAD RETURNDATASIZE PUSH1 0x1F NOT PUSH1 0x1F DUP3 ADD AND DUP3 ADD DUP1 PUSH1 0x40 MSTORE POP DUP2 ADD SWAP1 PUSH2 0x7DB SWAP2 SWAP1 PUSH2 0x19B6 JUMP JUMPDEST SWAP1 POP PUSH0 DUP2 GT PUSH2 0x81F JUMPI PUSH1 0x40 MLOAD PUSH32 0x8C379A000000000000000000000000000000000000000000000000000000000 DUP2 MSTORE PUSH1 0x4 ADD PUSH2 0x816 SWAP1 PUSH2 0x1A2B JUMP JUMPDEST PUSH1 0x40 MLOAD DUP1 SWAP2 SUB SWAP1 REVERT JUMPDEST PUSH2 0x88B PUSH1 0x1 PUSH0 SWAP1 SLOAD SWAP1 PUSH2 0x100 EXP SWAP1 DIV PUSH20 0xFFFFFFFFFFFFFFFFFFFFFFFFFFFFFFFFFFFFFFFF AND DUP3 PUSH32 0x0 PUSH20 0xFFFFFFFFFFFFFFFFFFFFFFFFFFFFFFFFFFFFFFFF AND PUSH2 0xCC5 SWAP1 SWAP3 SWAP2 SWAP1 PUSH4 0xFFFFFFFF AND JUMP JUMPDEST PUSH1 0x1 PUSH0 SWAP1 SLOAD SWAP1 PUSH2 0x100 EXP SWAP1 DIV PUSH20 0xFFFFFFFFFFFFFFFFFFFFFFFFFFFFFFFFFFFFFFFF AND PUSH20 0xFFFFFFFFFFFFFFFFFFFFFFFFFFFFFFFFFFFFFFFF AND PUSH32 0x6352C5382C4A4578E712449CA65E83CDB392D045DFCF1CAD9615189DB2DA244B DUP3 PUSH1 0x40 MLOAD PUSH2 0x8F2 SWAP2 SWAP1 PUSH2 0xE00 JUMP JUMPDEST PUSH1 0x40 MLOAD DUP1 SWAP2 SUB SWAP1 LOG2 POP PUSH2 0x903 PUSH2 0xD44 JUMP JUMPDEST JUMP JUMPDEST PUSH1 0x1 PUSH0 SWAP1 SLOAD SWAP1 PUSH2 0x100 EXP SWAP1 DIV PUSH20 0xFFFFFFFFFFFFFFFFFFFFFFFFFFFFFFFFFFFFFFFF AND DUP2 JUMP JUMPDEST PUSH1 0x2 SLOAD DUP2 LT PUSH2 0x96E JUMPI PUSH1 0x40 MLOAD PUSH32 0x8C379A000000000000000000000000000000000000000000000000000000000 DUP2 MSTORE PUSH1 0x4 ADD PUSH2 0x965 SWAP1 PUSH2 0x1295 JUMP JUMPDEST PUSH1 0x40 MLOAD DUP1 SWAP2 SUB SWAP1 REVERT JUMPDEST PUSH0 PUSH1 0x3 PUSH0 DUP4 DUP2 MSTORE PUSH1 0x20 ADD SWAP1 DUP2 MSTORE PUSH1 0x20 ADD PUSH0 KECCAK256 SWAP1 POP DUP1 PUSH1 0x3 ADD PUSH0 SWAP1 SLOAD SWAP1 PUSH2 0x100 EXP SWAP1 DIV PUSH1 0xFF AND PUSH2 0x9D2 JUMPI PUSH1 0x40 MLOAD PUSH32 0x8C379A000000000000000000000000000000000000000000000000000000000 DUP2 MSTORE PUSH1 0x4 ADD PUSH2 0x9C9 SWAP1 PUSH2 0x138B JUMP JUMPDEST PUSH1 0x40 MLOAD DUP1 SWAP2 SUB SWAP1 REVERT JUMPDEST PUSH0 PUSH1 0x4 PUSH0 CALLER PUSH20 0xFFFFFFFFFFFFFFFFFFFFFFFFFFFFFFFFFFFFFFFF AND PUSH20 0xFFFFFFFFFFFFFFFFFFFFFFFFFFFFFFFFFFFFFFFF AND DUP2 MSTORE PUSH1 0x20 ADD SWAP1 DUP2 MSTORE PUSH1 0x20 ADD PUSH0 KECCAK256 PUSH0 ADD PUSH0 DUP5 DUP2 MSTORE PUSH1 0x20 ADD SWAP1 DUP2 MSTORE PUSH1 0x20 ADD PUSH0 KECCAK256 SLOAD SWAP1 POP PUSH0 DUP2 GT PUSH2 0xA66 JUMPI PUSH1 0x40 MLOAD PUSH32 0x8C379A000000000000000000000000000000000000000000000000000000000 DUP2 MSTORE PUSH1 0x4 ADD PUSH2 0xA5D SWAP1 PUSH2 0x1A93 JUMP JUMPDEST PUSH1 0x40 MLOAD DUP1 SWAP2 SUB SWAP1 REVERT JUMPDEST PUSH1 0x1 PUSH1 0x4 PUSH0 CALLER PUSH20 0xFFFFFFFFFFFFFFFFFFFFFFFFFFFFFFFFFFFFFFFF AND PUSH20 0xFFFFFFFFFFFFFFFFFFFFFFFFFFFFFFFFFFFFFFFF AND DUP2 MSTORE PUSH1 0x20 ADD SWAP1 DUP2 MSTORE PUSH1 0x20 ADD PUSH0 KECCAK256 PUSH0 ADD PUSH0 DUP6 DUP2 MSTORE PUSH1 0x20 ADD SWAP1 DUP2 MSTORE PUSH1 0x20 ADD PUSH0 KECCAK256 PUSH0 DUP3 DUP3 SLOAD PUSH2 0xAC4 SWAP2 SWAP1 PUSH2 0x1AB1 JUMP JUMPDEST SWAP3 POP POP DUP2 SWAP1 SSTORE POP DUP3 CALLER PUSH20 0xFFFFFFFFFFFFFFFFFFFFFFFFFFFFFFFFFFFFFFFF AND PUSH32 0x7598AFFE5BB8B864E84F0B819F6B046054C8F0D6771E8AE086411B5DD2A8BC12 PUSH1 0x40 MLOAD PUSH1 0x40 MLOAD DUP1 SWAP2 SUB SWAP1 LOG3 POP POP POP JUMP JUMPDEST PUSH1 0x3 PUSH1 0x20 MSTORE DUP1 PUSH0 MSTORE PUSH1 0x40 PUSH0 KECCAK256 PUSH0 SWAP2 POP SWAP1 POP DUP1 PUSH0 ADD DUP1 SLOAD PUSH2 0xB33 SWAP1 PUSH2 0x16E1 JUMP JUMPDEST DUP1 PUSH1 0x1F ADD PUSH1 0x20 DUP1 SWAP2 DIV MUL PUSH1 0x20 ADD PUSH1 0x40 MLOAD SWAP1 DUP2 ADD PUSH1 0x40 MSTORE DUP1 SWAP3 SWAP2 SWAP1 DUP2 DUP2 MSTORE PUSH1 0x20 ADD DUP3 DUP1 SLOAD PUSH2 0xB5F SWAP1 PUSH2 0x16E1 JUMP JUMPDEST DUP1 ISZERO PUSH2 0xBAA JUMPI DUP1 PUSH1 0x1F LT PUSH2 0xB81 JUMPI PUSH2 0x100 DUP1 DUP4 SLOAD DIV MUL DUP4 MSTORE SWAP2 PUSH1 0x20 ADD SWAP2 PUSH2 0xBAA JUMP JUMPDEST DUP3 ADD SWAP2 SWAP1 PUSH0 MSTORE PUSH1 0x20 PUSH0 KECCAK256 SWAP1 JUMPDEST DUP2 SLOAD DUP2 MSTORE SWAP1 PUSH1 0x1 ADD SWAP1 PUSH1 0x20 ADD DUP1 DUP4 GT PUSH2 0xB8D JUMPI DUP3 SWAP1 SUB PUSH1 0x1F AND DUP3 ADD SWAP2 JUMPDEST POP POP POP POP POP SWAP1 DUP1 PUSH1 0x1 ADD SLOAD SWAP1 DUP1 PUSH1 0x2 ADD SLOAD SWAP1 DUP1 PUSH1 0x3 ADD PUSH0 SWAP1 SLOAD SWAP1 PUSH2 0x100 EXP SWAP1 DIV PUSH1 0xFF AND SWAP1 POP DUP5 JUMP JUMPDEST PUSH32 0x0 DUP2 JUMP JUMPDEST PUSH2 0xC72 DUP5 DUP6 PUSH20 0xFFFFFFFFFFFFFFFFFFFFFFFFFFFFFFFFFFFFFFFF AND PUSH4 0x23B872DD DUP7 DUP7 DUP7 PUSH1 0x40 MLOAD PUSH1 0x24 ADD PUSH2 0xC2B SWAP4 SWAP3 SWAP2 SWAP1 PUSH2 0x1AE4 JUMP JUMPDEST PUSH1 0x40 MLOAD PUSH1 0x20 DUP2 DUP4 SUB SUB DUP2 MSTORE SWAP1 PUSH1 0x40 MSTORE SWAP2 POP PUSH1 0xE0 SHL PUSH1 0x20 DUP3 ADD DUP1 MLOAD PUSH28 0xFFFFFFFFFFFFFFFFFFFFFFFFFFFFFFFFFFFFFFFFFFFFFFFFFFFFFFFF DUP4 DUP2 DUP4 AND OR DUP4 MSTORE POP POP POP POP PUSH2 0xD4D JUMP JUMPDEST POP POP POP POP JUMP JUMPDEST PUSH1 0x2 PUSH0 SLOAD SUB PUSH2 0xCBC JUMPI PUSH1 0x40 MLOAD PUSH32 0x8C379A000000000000000000000000000000000000000000000000000000000 DUP2 MSTORE PUSH1 0x4 ADD PUSH2 0xCB3 SWAP1 PUSH2 0x1B63 JUMP JUMPDEST PUSH1 0x40 MLOAD DUP1 SWAP2 SUB SWAP1 REVERT JUMPDEST PUSH1 0x2 PUSH0 DUP2 SWAP1 SSTORE POP JUMP JUMPDEST PUSH2 0xD3F DUP4 DUP5 PUSH20 0xFFFFFFFFFFFFFFFFFFFFFFFFFFFFFFFFFFFFFFFF AND PUSH4 0xA9059CBB DUP6 DUP6 PUSH1 0x40 MLOAD PUSH1 0x24 ADD PUSH2 0xCF8 SWAP3 SWAP2 SWAP1 PUSH2 0x1B81 JUMP JUMPDEST PUSH1 0x40 MLOAD PUSH1 0x20 DUP2 DUP4 SUB SUB DUP2 MSTORE SWAP1 PUSH1 0x40 MSTORE SWAP2 POP PUSH1 0xE0 SHL PUSH1 0x20 DUP3 ADD DUP1 MLOAD PUSH28 0xFFFFFFFFFFFFFFFFFFFFFFFFFFFFFFFFFFFFFFFFFFFFFFFFFFFFFFFF DUP4 DUP2 DUP4 AND OR DUP4 MSTORE POP POP POP POP PUSH2 0xD4D JUMP JUMPDEST POP POP POP JUMP JUMPDEST PUSH1 0x1 PUSH0 DUP2 SWAP1 SSTORE POP JUMP JUMPDEST PUSH0 DUP1 PUSH1 0x20 PUSH0 DUP5 MLOAD PUSH1 0x20 DUP7 ADD PUSH0 DUP9 GAS CALL DUP1 PUSH2 0xD6C JUMPI PUSH1 0x40 MLOAD RETURNDATASIZE PUSH0 DUP3 RETURNDATACOPY RETURNDATASIZE DUP2 REVERT JUMPDEST RETURNDATASIZE SWAP3 POP PUSH0 MLOAD SWAP2 POP POP PUSH0 DUP3 EQ PUSH2 0xD85 JUMPI PUSH1 0x1 DUP2 EQ ISZERO PUSH2 0xDA0 JUMP JUMPDEST PUSH0 DUP5 PUSH20 0xFFFFFFFFFFFFFFFFFFFFFFFFFFFFFFFFFFFFFFFF AND EXTCODESIZE EQ JUMPDEST ISZERO PUSH2 0xDE2 JUMPI DUP4 PUSH1 0x40 MLOAD PUSH32 0x5274AFE700000000000000000000000000000000000000000000000000000000 DUP2 MSTORE PUSH1 0x4 ADD PUSH2 0xDD9 SWAP2 SWAP1 PUSH2 0x10CF JUMP JUMPDEST PUSH1 0x40 MLOAD DUP1 SWAP2 SUB SWAP1 REVERT JUMPDEST POP POP POP POP JUMP JUMPDEST PUSH0 DUP2 SWAP1 POP SWAP2 SWAP1 POP JUMP JUMPDEST PUSH2 0xDFA DUP2 PUSH2 0xDE8 JUMP JUMPDEST DUP3 MSTORE POP POP JUMP JUMPDEST PUSH0 PUSH1 0x20 DUP3 ADD SWAP1 POP PUSH2 0xE13 PUSH0 DUP4 ADD DUP5 PUSH2 0xDF1 JUMP JUMPDEST SWAP3 SWAP2 POP POP JUMP JUMPDEST PUSH0 PUSH1 0x40 MLOAD SWAP1 POP SWAP1 JUMP JUMPDEST PUSH0 DUP1 REVERT JUMPDEST PUSH0 DUP1 REVERT JUMPDEST PUSH0 PUSH20 0xFFFFFFFFFFFFFFFFFFFFFFFFFFFFFFFFFFFFFFFF DUP3 AND SWAP1 POP SWAP2 SWAP1 POP JUMP JUMPDEST PUSH0 PUSH2 0xE53 DUP3 PUSH2 0xE2A JUMP JUMPDEST SWAP1 POP SWAP2 SWAP1 POP JUMP JUMPDEST PUSH2 0xE63 DUP2 PUSH2 0xE49 JUMP JUMPDEST DUP2 EQ PUSH2 0xE6D JUMPI PUSH0 DUP1 REVERT JUMPDEST POP JUMP JUMPDEST PUSH0 DUP2 CALLDATALOAD SWAP1 POP PUSH2 0xE7E DUP2 PUSH2 0xE5A JUMP JUMPDEST SWAP3 SWAP2 POP POP JUMP JUMPDEST PUSH2 0xE8D DUP2 PUSH2 0xDE8 JUMP JUMPDEST DUP2 EQ PUSH2 0xE97 JUMPI PUSH0 DUP1 REVERT JUMPDEST POP JUMP JUMPDEST PUSH0 DUP2 CALLDATALOAD SWAP1 POP PUSH2 0xEA8 DUP2 PUSH2 0xE84 JUMP JUMPDEST SWAP3 SWAP2 POP POP JUMP JUMPDEST PUSH0 DUP1 PUSH1 0x40 DUP4 DUP6 SUB SLT ISZERO PUSH2 0xEC4 JUMPI PUSH2 0xEC3 PUSH2 0xE22 JUMP JUMPDEST JUMPDEST PUSH0 PUSH2 0xED1 DUP6 DUP3 DUP7 ADD PUSH2 0xE70 JUMP JUMPDEST SWAP3 POP POP PUSH1 0x20 PUSH2 0xEE2 DUP6 DUP3 DUP7 ADD PUSH2 0xE9A JUMP JUMPDEST SWAP2 POP POP SWAP3 POP SWAP3 SWAP1 POP JUMP JUMPDEST PUSH0 DUP1 PUSH1 0x40 DUP4 DUP6 SUB SLT ISZERO PUSH2 0xF02 JUMPI PUSH2 0xF01 PUSH2 0xE22 JUMP JUMPDEST JUMPDEST PUSH0 PUSH2 0xF0F DUP6 DUP3 DUP7 ADD PUSH2 0xE9A JUMP JUMPDEST SWAP3 POP POP PUSH1 0x20 PUSH2 0xF20 DUP6 DUP3 DUP7 ADD PUSH2 0xE9A JUMP JUMPDEST SWAP2 POP POP SWAP3 POP SWAP3 SWAP1 POP JUMP JUMPDEST PUSH0 DUP1 REVERT JUMPDEST PUSH0 DUP1 REVERT JUMPDEST PUSH0 PUSH1 0x1F NOT PUSH1 0x1F DUP4 ADD AND SWAP1 POP SWAP2 SWAP1 POP JUMP JUMPDEST PUSH32 0x4E487B7100000000000000000000000000000000000000000000000000000000 PUSH0 MSTORE PUSH1 0x41 PUSH1 0x4 MSTORE PUSH1 0x24 PUSH0 REVERT JUMPDEST PUSH2 0xF78 DUP3 PUSH2 0xF32 JUMP JUMPDEST DUP2 ADD DUP2 DUP2 LT PUSH8 0xFFFFFFFFFFFFFFFF DUP3 GT OR ISZERO PUSH2 0xF97 JUMPI PUSH2 0xF96 PUSH2 0xF42 JUMP JUMPDEST JUMPDEST DUP1 PUSH1 0x40 MSTORE POP POP POP JUMP JUMPDEST PUSH0 PUSH2 0xFA9 PUSH2 0xE19 JUMP JUMPDEST SWAP1 POP PUSH2 0xFB5 DUP3 DUP3 PUSH2 0xF6F JUMP JUMPDEST SWAP2 SWAP1 POP JUMP JUMPDEST PUSH0 PUSH8 0xFFFFFFFFFFFFFFFF DUP3 GT ISZERO PUSH2 0xFD4 JUMPI PUSH2 0xFD3 PUSH2 0xF42 JUMP JUMPDEST JUMPDEST PUSH2 0xFDD DUP3 PUSH2 0xF32 JUMP JUMPDEST SWAP1 POP PUSH1 0x20 DUP2 ADD SWAP1 POP SWAP2 SWAP1 POP JUMP JUMPDEST DUP3 DUP2 DUP4 CALLDATACOPY PUSH0 DUP4 DUP4 ADD MSTORE POP POP POP JUMP JUMPDEST PUSH0 PUSH2 0x100A PUSH2 0x1005 DUP5 PUSH2 0xFBA JUMP JUMPDEST PUSH2 0xFA0 JUMP JUMPDEST SWAP1 POP DUP3 DUP2 MSTORE PUSH1 0x20 DUP2 ADD DUP5 DUP5 DUP5 ADD GT ISZERO PUSH2 0x1026 JUMPI PUSH2 0x1025 PUSH2 0xF2E JUMP JUMPDEST JUMPDEST PUSH2 0x1031 DUP5 DUP3 DUP6 PUSH2 0xFEA JUMP JUMPDEST POP SWAP4 SWAP3 POP POP POP JUMP JUMPDEST PUSH0 DUP3 PUSH1 0x1F DUP4 ADD SLT PUSH2 0x104D JUMPI PUSH2 0x104C PUSH2 0xF2A JUMP JUMPDEST JUMPDEST DUP2 CALLDATALOAD PUSH2 0x105D DUP5 DUP3 PUSH1 0x20 DUP7 ADD PUSH2 0xFF8 JUMP JUMPDEST SWAP2 POP POP SWAP3 SWAP2 POP POP JUMP JUMPDEST PUSH0 DUP1 PUSH1 0x40 DUP4 DUP6 SUB SLT ISZERO PUSH2 0x107C JUMPI PUSH2 0x107B PUSH2 0xE22 JUMP JUMPDEST JUMPDEST PUSH0 DUP4 ADD CALLDATALOAD PUSH8 0xFFFFFFFFFFFFFFFF DUP2 GT ISZERO PUSH2 0x1099 JUMPI PUSH2 0x1098 PUSH2 0xE26 JUMP JUMPDEST JUMPDEST PUSH2 0x10A5 DUP6 DUP3 DUP7 ADD PUSH2 0x1039 JUMP JUMPDEST SWAP3 POP POP PUSH1 0x20 PUSH2 0x10B6 DUP6 DUP3 DUP7 ADD PUSH2 0xE9A JUMP JUMPDEST SWAP2 POP POP SWAP3 POP SWAP3 SWAP1 POP JUMP JUMPDEST PUSH2 0x10C9 DUP2 PUSH2 0xE49 JUMP JUMPDEST DUP3 MSTORE POP POP JUMP JUMPDEST PUSH0 PUSH1 0x20 DUP3 ADD SWAP1 POP PUSH2 0x10E2 PUSH0 DUP4 ADD DUP5 PUSH2 0x10C0 JUMP JUMPDEST SWAP3 SWAP2 POP POP JUMP JUMPDEST PUSH0 PUSH1 0x20 DUP3 DUP5 SUB SLT ISZERO PUSH2 0x10FD JUMPI PUSH2 0x10FC PUSH2 0xE22 JUMP JUMPDEST JUMPDEST PUSH0 PUSH2 0x110A DUP5 DUP3 DUP6 ADD PUSH2 0xE9A JUMP JUMPDEST SWAP2 POP POP SWAP3 SWAP2 POP POP JUMP JUMPDEST PUSH0 DUP2 MLOAD SWAP1 POP SWAP2 SWAP1 POP JUMP JUMPDEST PUSH0 DUP3 DUP3 MSTORE PUSH1 0x20 DUP3 ADD SWAP1 POP SWAP3 SWAP2 POP POP JUMP JUMPDEST DUP3 DUP2 DUP4 MCOPY PUSH0 DUP4 DUP4 ADD MSTORE POP POP POP JUMP JUMPDEST PUSH0 PUSH2 0x1145 DUP3 PUSH2 0x1113 JUMP JUMPDEST PUSH2 0x114F DUP2 DUP6 PUSH2 0x111D JUMP JUMPDEST SWAP4 POP PUSH2 0x115F DUP2 DUP6 PUSH1 0x20 DUP7 ADD PUSH2 0x112D JUMP JUMPDEST PUSH2 0x1168 DUP2 PUSH2 0xF32 JUMP JUMPDEST DUP5 ADD SWAP2 POP POP SWAP3 SWAP2 POP POP JUMP JUMPDEST PUSH0 DUP2 ISZERO ISZERO SWAP1 POP SWAP2 SWAP1 POP JUMP JUMPDEST PUSH2 0x1187 DUP2 PUSH2 0x1173 JUMP JUMPDEST DUP3 MSTORE POP POP JUMP JUMPDEST PUSH0 PUSH1 0x80 DUP3 ADD SWAP1 POP DUP2 DUP2 SUB PUSH0 DUP4 ADD MSTORE PUSH2 0x11A5 DUP2 DUP8 PUSH2 0x113B JUMP JUMPDEST SWAP1 POP PUSH2 0x11B4 PUSH1 0x20 DUP4 ADD DUP7 PUSH2 0xDF1 JUMP JUMPDEST PUSH2 0x11C1 PUSH1 0x40 DUP4 ADD DUP6 PUSH2 0xDF1 JUMP JUMPDEST PUSH2 0x11CE PUSH1 0x60 DUP4 ADD DUP5 PUSH2 0x117E JUMP JUMPDEST SWAP6 SWAP5 POP POP POP POP POP JUMP JUMPDEST PUSH0 DUP2 SWAP1 POP SWAP2 SWAP1 POP JUMP JUMPDEST PUSH0 PUSH2 0x11FA PUSH2 0x11F5 PUSH2 0x11F0 DUP5 PUSH2 0xE2A JUMP JUMPDEST PUSH2 0x11D7 JUMP JUMPDEST PUSH2 0xE2A JUMP JUMPDEST SWAP1 POP SWAP2 SWAP1 POP JUMP JUMPDEST PUSH0 PUSH2 0x120B DUP3 PUSH2 0x11E0 JUMP JUMPDEST SWAP1 POP SWAP2 SWAP1 POP JUMP JUMPDEST PUSH0 PUSH2 0x121C DUP3 PUSH2 0x1201 JUMP JUMPDEST SWAP1 POP SWAP2 SWAP1 POP JUMP JUMPDEST PUSH2 0x122C DUP2 PUSH2 0x1212 JUMP JUMPDEST DUP3 MSTORE POP POP JUMP JUMPDEST PUSH0 PUSH1 0x20 DUP3 ADD SWAP1 POP PUSH2 0x1245 PUSH0 DUP4 ADD DUP5 PUSH2 0x1223 JUMP JUMPDEST SWAP3 SWAP2 POP POP JUMP JUMPDEST PUSH32 0x41504920646F6573206E6F742065786973740000000000000000000000000000 PUSH0 DUP3 ADD MSTORE POP JUMP JUMPDEST PUSH0 PUSH2 0x127F PUSH1 0x12 DUP4 PUSH2 0x111D JUMP JUMPDEST SWAP2 POP PUSH2 0x128A DUP3 PUSH2 0x124B JUMP JUMPDEST PUSH1 0x20 DUP3 ADD SWAP1 POP SWAP2 SWAP1 POP JUMP JUMPDEST PUSH0 PUSH1 0x20 DUP3 ADD SWAP1 POP DUP2 DUP2 SUB PUSH0 DUP4 ADD MSTORE PUSH2 0x12AC DUP2 PUSH2 0x1273 JUMP JUMPDEST SWAP1 POP SWAP2 SWAP1 POP JUMP JUMPDEST PUSH32 0x4E756D626572206F66207265717565737473206D757374206265206772656174 PUSH0 DUP3 ADD MSTORE PUSH32 0x6572207468616E207A65726F0000000000000000000000000000000000000000 PUSH1 0x20 DUP3 ADD MSTORE POP JUMP JUMPDEST PUSH0 PUSH2 0x130D PUSH1 0x2C DUP4 PUSH2 0x111D JUMP JUMPDEST SWAP2 POP PUSH2 0x1318 DUP3 PUSH2 0x12B3 JUMP JUMPDEST PUSH1 0x40 DUP3 ADD SWAP1 POP SWAP2 SWAP1 POP JUMP JUMPDEST PUSH0 PUSH1 0x20 DUP3 ADD SWAP1 POP DUP2 DUP2 SUB PUSH0 DUP4 ADD MSTORE PUSH2 0x133A DUP2 PUSH2 0x1301 JUMP JUMPDEST SWAP1 POP SWAP2 SWAP1 POP JUMP JUMPDEST PUSH32 0x415049206973206E6F7420616374697665000000000000000000000000000000 PUSH0 DUP3 ADD MSTORE POP JUMP JUMPDEST PUSH0 PUSH2 0x1375 PUSH1 0x11 DUP4 PUSH2 0x111D JUMP JUMPDEST SWAP2 POP PUSH2 0x1380 DUP3 PUSH2 0x1341 JUMP JUMPDEST PUSH1 0x20 DUP3 ADD SWAP1 POP SWAP2 SWAP1 POP JUMP JUMPDEST PUSH0 PUSH1 0x20 DUP3 ADD SWAP1 POP DUP2 DUP2 SUB PUSH0 DUP4 ADD MSTORE PUSH2 0x13A2 DUP2 PUSH2 0x1369 JUMP JUMPDEST SWAP1 POP SWAP2 SWAP1 POP JUMP JUMPDEST PUSH32 0x4E487B7100000000000000000000000000000000000000000000000000000000 PUSH0 MSTORE PUSH1 0x11 PUSH1 0x4 MSTORE PUSH1 0x24 PUSH0 REVERT JUMPDEST PUSH0 PUSH2 0x13E0 DUP3 PUSH2 0xDE8 JUMP JUMPDEST SWAP2 POP PUSH2 0x13EB DUP4 PUSH2 0xDE8 JUMP JUMPDEST SWAP3 POP DUP3 DUP3 MUL PUSH2 0x13F9 DUP2 PUSH2 0xDE8 JUMP JUMPDEST SWAP2 POP DUP3 DUP3 DIV DUP5 EQ DUP4 ISZERO OR PUSH2 0x1410 JUMPI PUSH2 0x140F PUSH2 0x13A9 JUMP JUMPDEST JUMPDEST POP SWAP3 SWAP2 POP POP JUMP JUMPDEST PUSH32 0x4E487B7100000000000000000000000000000000000000000000000000000000 PUSH0 MSTORE PUSH1 0x12 PUSH1 0x4 MSTORE PUSH1 0x24 PUSH0 REVERT JUMPDEST PUSH0 PUSH2 0x144E DUP3 PUSH2 0xDE8 JUMP JUMPDEST SWAP2 POP PUSH2 0x1459 DUP4 PUSH2 0xDE8 JUMP JUMPDEST SWAP3 POP DUP3 PUSH2 0x1469 JUMPI PUSH2 0x1468 PUSH2 0x1417 JUMP JUMPDEST JUMPDEST DUP3 DUP3 DIV SWAP1 POP SWAP3 SWAP2 POP POP JUMP JUMPDEST PUSH32 0x4F766572666C6F77206465746563746564000000000000000000000000000000 PUSH0 DUP3 ADD MSTORE POP JUMP JUMPDEST PUSH0 PUSH2 0x14A8 PUSH1 0x11 DUP4 PUSH2 0x111D JUMP JUMPDEST SWAP2 POP PUSH2 0x14B3 DUP3 PUSH2 0x1474 JUMP JUMPDEST PUSH1 0x20 DUP3 ADD SWAP1 POP SWAP2 SWAP1 POP JUMP JUMPDEST PUSH0 PUSH1 0x20 DUP3 ADD SWAP1 POP DUP2 DUP2 SUB PUSH0 DUP4 ADD MSTORE PUSH2 0x14D5 DUP2 PUSH2 0x149C JUMP JUMPDEST SWAP1 POP SWAP2 SWAP1 POP JUMP JUMPDEST PUSH0 PUSH2 0x14E6 DUP3 PUSH2 0xDE8 JUMP JUMPDEST SWAP2 POP PUSH2 0x14F1 DUP4 PUSH2 0xDE8 JUMP JUMPDEST SWAP3 POP DUP3 DUP3 ADD SWAP1 POP DUP1 DUP3 GT ISZERO PUSH2 0x1509 JUMPI PUSH2 0x1508 PUSH2 0x13A9 JUMP JUMPDEST JUMPDEST SWAP3 SWAP2 POP POP JUMP JUMPDEST PUSH32 0x43616C6C6572206973206E6F7420746865206F776E6572000000000000000000 PUSH0 DUP3 ADD MSTORE POP JUMP JUMPDEST PUSH0 PUSH2 0x1543 PUSH1 0x17 DUP4 PUSH2 0x111D JUMP JUMPDEST SWAP2 POP PUSH2 0x154E DUP3 PUSH2 0x150F JUMP JUMPDEST PUSH1 0x20 DUP3 ADD SWAP1 POP SWAP2 SWAP1 POP JUMP JUMPDEST PUSH0 PUSH1 0x20 DUP3 ADD SWAP1 POP DUP2 DUP2 SUB PUSH0 DUP4 ADD MSTORE PUSH2 0x1570 DUP2 PUSH2 0x1537 JUMP JUMPDEST SWAP1 POP SWAP2 SWAP1 POP JUMP JUMPDEST PUSH32 0x415049206E616D652063616E6E6F7420626520656D7074790000000000000000 PUSH0 DUP3 ADD MSTORE POP JUMP JUMPDEST PUSH0 PUSH2 0x15AB PUSH1 0x18 DUP4 PUSH2 0x111D JUMP JUMPDEST SWAP2 POP PUSH2 0x15B6 DUP3 PUSH2 0x1577 JUMP JUMPDEST PUSH1 0x20 DUP3 ADD SWAP1 POP SWAP2 SWAP1 POP JUMP JUMPDEST PUSH0 PUSH1 0x20 DUP3 ADD SWAP1 POP DUP2 DUP2 SUB PUSH0 DUP4 ADD MSTORE PUSH2 0x15D8 DUP2 PUSH2 0x159F JUMP JUMPDEST SWAP1 POP SWAP2 SWAP1 POP JUMP JUMPDEST PUSH32 0x5072696365207065722072657175657374206D75737420626520677265617465 PUSH0 DUP3 ADD MSTORE PUSH32 0x72207468616E207A65726F000000000000000000000000000000000000000000 PUSH1 0x20 DUP3 ADD MSTORE POP JUMP JUMPDEST PUSH0 PUSH2 0x1639 PUSH1 0x2B DUP4 PUSH2 0x111D JUMP JUMPDEST SWAP2 POP PUSH2 0x1644 DUP3 PUSH2 0x15DF JUMP JUMPDEST PUSH1 0x40 DUP3 ADD SWAP1 POP SWAP2 SWAP1 POP JUMP JUMPDEST PUSH0 PUSH1 0x20 DUP3 ADD SWAP1 POP DUP2 DUP2 SUB PUSH0 DUP4 ADD MSTORE PUSH2 0x1666 DUP2 PUSH2 0x162D JUMP JUMPDEST SWAP1 POP SWAP2 SWAP1 POP JUMP JUMPDEST PUSH0 PUSH2 0x1677 DUP3 PUSH2 0xDE8 JUMP JUMPDEST SWAP2 POP PUSH32 0xFFFFFFFFFFFFFFFFFFFFFFFFFFFFFFFFFFFFFFFFFFFFFFFFFFFFFFFFFFFFFFFF DUP3 SUB PUSH2 0x16A9 JUMPI PUSH2 0x16A8 PUSH2 0x13A9 JUMP JUMPDEST JUMPDEST PUSH1 0x1 DUP3 ADD SWAP1 POP SWAP2 SWAP1 POP JUMP JUMPDEST PUSH32 0x4E487B7100000000000000000000000000000000000000000000000000000000 PUSH0 MSTORE PUSH1 0x22 PUSH1 0x4 MSTORE PUSH1 0x24 PUSH0 REVERT JUMPDEST PUSH0 PUSH1 0x2 DUP3 DIV SWAP1 POP PUSH1 0x1 DUP3 AND DUP1 PUSH2 0x16F8 JUMPI PUSH1 0x7F DUP3 AND SWAP2 POP JUMPDEST PUSH1 0x20 DUP3 LT DUP2 SUB PUSH2 0x170B JUMPI PUSH2 0x170A PUSH2 0x16B4 JUMP JUMPDEST JUMPDEST POP SWAP2 SWAP1 POP JUMP JUMPDEST PUSH0 DUP2 SWAP1 POP DUP2 PUSH0 MSTORE PUSH1 0x20 PUSH0 KECCAK256 SWAP1 POP SWAP2 SWAP1 POP JUMP JUMPDEST PUSH0 PUSH1 0x20 PUSH1 0x1F DUP4 ADD DIV SWAP1 POP SWAP2 SWAP1 POP JUMP JUMPDEST PUSH0 DUP3 DUP3 SHL SWAP1 POP SWAP3 SWAP2 POP POP JUMP JUMPDEST PUSH0 PUSH1 0x8 DUP4 MUL PUSH2 0x176D PUSH32 0xFFFFFFFFFFFFFFFFFFFFFFFFFFFFFFFFFFFFFFFFFFFFFFFFFFFFFFFFFFFFFFFF DUP3 PUSH2 0x1732 JUMP JUMPDEST PUSH2 0x1777 DUP7 DUP4 PUSH2 0x1732 JUMP JUMPDEST SWAP6 POP DUP1 NOT DUP5 AND SWAP4 POP DUP1 DUP7 AND DUP5 OR SWAP3 POP POP POP SWAP4 SWAP3 POP POP POP JUMP JUMPDEST PUSH0 PUSH2 0x17A9 PUSH2 0x17A4 PUSH2 0x179F DUP5 PUSH2 0xDE8 JUMP JUMPDEST PUSH2 0x11D7 JUMP JUMPDEST PUSH2 0xDE8 JUMP JUMPDEST SWAP1 POP SWAP2 SWAP1 POP JUMP JUMPDEST PUSH0 DUP2 SWAP1 POP SWAP2 SWAP1 POP JUMP JUMPDEST PUSH2 0x17C2 DUP4 PUSH2 0x178F JUMP JUMPDEST PUSH2 0x17D6 PUSH2 0x17CE DUP3 PUSH2 0x17B0 JUMP JUMPDEST DUP5 DUP5 SLOAD PUSH2 0x173E JUMP JUMPDEST DUP3 SSTORE POP POP POP POP JUMP JUMPDEST PUSH0 SWAP1 JUMP JUMPDEST PUSH2 0x17EA PUSH2 0x17DE JUMP JUMPDEST PUSH2 0x17F5 DUP2 DUP5 DUP5 PUSH2 0x17B9 JUMP JUMPDEST POP POP POP JUMP JUMPDEST JUMPDEST DUP2 DUP2 LT ISZERO PUSH2 0x1818 JUMPI PUSH2 0x180D PUSH0 DUP3 PUSH2 0x17E2 JUMP JUMPDEST PUSH1 0x1 DUP2 ADD SWAP1 POP PUSH2 0x17FB JUMP JUMPDEST POP POP JUMP JUMPDEST PUSH1 0x1F DUP3 GT ISZERO PUSH2 0x185D JUMPI PUSH2 0x182E DUP2 PUSH2 0x1711 JUMP JUMPDEST PUSH2 0x1837 DUP5 PUSH2 0x1723 JUMP JUMPDEST DUP2 ADD PUSH1 0x20 DUP6 LT ISZERO PUSH2 0x1846 JUMPI DUP2 SWAP1 POP JUMPDEST PUSH2 0x185A PUSH2 0x1852 DUP6 PUSH2 0x1723 JUMP JUMPDEST DUP4 ADD DUP3 PUSH2 0x17FA JUMP JUMPDEST POP POP JUMPDEST POP POP POP JUMP JUMPDEST PUSH0 DUP3 DUP3 SHR SWAP1 POP SWAP3 SWAP2 POP POP JUMP JUMPDEST PUSH0 PUSH2 0x187D PUSH0 NOT DUP5 PUSH1 0x8 MUL PUSH2 0x1862 JUMP JUMPDEST NOT DUP1 DUP4 AND SWAP2 POP POP SWAP3 SWAP2 POP POP JUMP JUMPDEST PUSH0 PUSH2 0x1895 DUP4 DUP4 PUSH2 0x186E JUMP JUMPDEST SWAP2 POP DUP3 PUSH1 0x2 MUL DUP3 OR SWAP1 POP SWAP3 SWAP2 POP POP JUMP JUMPDEST PUSH2 0x18AE DUP3 PUSH2 0x1113 JUMP JUMPDEST PUSH8 0xFFFFFFFFFFFFFFFF DUP2 GT ISZERO PUSH2 0x18C7 JUMPI PUSH2 0x18C6 PUSH2 0xF42 JUMP JUMPDEST JUMPDEST PUSH2 0x18D1 DUP3 SLOAD PUSH2 0x16E1 JUMP JUMPDEST PUSH2 0x18DC DUP3 DUP3 DUP6 PUSH2 0x181C JUMP JUMPDEST PUSH0 PUSH1 0x20 SWAP1 POP PUSH1 0x1F DUP4 GT PUSH1 0x1 DUP2 EQ PUSH2 0x190D JUMPI PUSH0 DUP5 ISZERO PUSH2 0x18FB JUMPI DUP3 DUP8 ADD MLOAD SWAP1 POP JUMPDEST PUSH2 0x1905 DUP6 DUP3 PUSH2 0x188A JUMP JUMPDEST DUP7 SSTORE POP PUSH2 0x196C JUMP JUMPDEST PUSH1 0x1F NOT DUP5 AND PUSH2 0x191B DUP7 PUSH2 0x1711 JUMP JUMPDEST PUSH0 JUMPDEST DUP3 DUP2 LT ISZERO PUSH2 0x1942 JUMPI DUP5 DUP10 ADD MLOAD DUP3 SSTORE PUSH1 0x1 DUP3 ADD SWAP2 POP PUSH1 0x20 DUP6 ADD SWAP5 POP PUSH1 0x20 DUP2 ADD SWAP1 POP PUSH2 0x191D JUMP JUMPDEST DUP7 DUP4 LT ISZERO PUSH2 0x195F JUMPI DUP5 DUP10 ADD MLOAD PUSH2 0x195B PUSH1 0x1F DUP10 AND DUP3 PUSH2 0x186E JUMP JUMPDEST DUP4 SSTORE POP JUMPDEST PUSH1 0x1 PUSH1 0x2 DUP9 MUL ADD DUP9 SSTORE POP POP POP JUMPDEST POP POP POP POP POP POP JUMP JUMPDEST PUSH0 PUSH1 0x40 DUP3 ADD SWAP1 POP DUP2 DUP2 SUB PUSH0 DUP4 ADD MSTORE PUSH2 0x198C DUP2 DUP6 PUSH2 0x113B JUMP JUMPDEST SWAP1 POP PUSH2 0x199B PUSH1 0x20 DUP4 ADD DUP5 PUSH2 0xDF1 JUMP JUMPDEST SWAP4 SWAP3 POP POP POP JUMP JUMPDEST PUSH0 DUP2 MLOAD SWAP1 POP PUSH2 0x19B0 DUP2 PUSH2 0xE84 JUMP JUMPDEST SWAP3 SWAP2 POP POP JUMP JUMPDEST PUSH0 PUSH1 0x20 DUP3 DUP5 SUB SLT ISZERO PUSH2 0x19CB JUMPI PUSH2 0x19CA PUSH2 0xE22 JUMP JUMPDEST JUMPDEST PUSH0 PUSH2 0x19D8 DUP5 DUP3 DUP6 ADD PUSH2 0x19A2 JUMP JUMPDEST SWAP2 POP POP SWAP3 SWAP2 POP POP JUMP JUMPDEST PUSH32 0x4E6F20746F6B656E7320746F2077697468647261770000000000000000000000 PUSH0 DUP3 ADD MSTORE POP JUMP JUMPDEST PUSH0 PUSH2 0x1A15 PUSH1 0x15 DUP4 PUSH2 0x111D JUMP JUMPDEST SWAP2 POP PUSH2 0x1A20 DUP3 PUSH2 0x19E1 JUMP JUMPDEST PUSH1 0x20 DUP3 ADD SWAP1 POP SWAP2 SWAP1 POP JUMP JUMPDEST PUSH0 PUSH1 0x20 DUP3 ADD SWAP1 POP DUP2 DUP2 SUB PUSH0 DUP4 ADD MSTORE PUSH2 0x1A42 DUP2 PUSH2 0x1A09 JUMP JUMPDEST SWAP1 POP SWAP2 SWAP1 POP JUMP JUMPDEST PUSH32 0x4E6F2072656D61696E696E672041504920726571756573747300000000000000 PUSH0 DUP3 ADD MSTORE POP JUMP JUMPDEST PUSH0 PUSH2 0x1A7D PUSH1 0x19 DUP4 PUSH2 0x111D JUMP JUMPDEST SWAP2 POP PUSH2 0x1A88 DUP3 PUSH2 0x1A49 JUMP JUMPDEST PUSH1 0x20 DUP3 ADD SWAP1 POP SWAP2 SWAP1 POP JUMP JUMPDEST PUSH0 PUSH1 0x20 DUP3 ADD SWAP1 POP DUP2 DUP2 SUB PUSH0 DUP4 ADD MSTORE PUSH2 0x1AAA DUP2 PUSH2 0x1A71 JUMP JUMPDEST SWAP1 POP SWAP2 SWAP1 POP JUMP JUMPDEST PUSH0 PUSH2 0x1ABB DUP3 PUSH2 0xDE8 JUMP JUMPDEST SWAP2 POP PUSH2 0x1AC6 DUP4 PUSH2 0xDE8 JUMP JUMPDEST SWAP3 POP DUP3 DUP3 SUB SWAP1 POP DUP2 DUP2 GT ISZERO PUSH2 0x1ADE JUMPI PUSH2 0x1ADD PUSH2 0x13A9 JUMP JUMPDEST JUMPDEST SWAP3 SWAP2 POP POP JUMP JUMPDEST PUSH0 PUSH1 0x60 DUP3 ADD SWAP1 POP PUSH2 0x1AF7 PUSH0 DUP4 ADD DUP7 PUSH2 0x10C0 JUMP JUMPDEST PUSH2 0x1B04 PUSH1 0x20 DUP4 ADD DUP6 PUSH2 0x10C0 JUMP JUMPDEST PUSH2 0x1B11 PUSH1 0x40 DUP4 ADD DUP5 PUSH2 0xDF1 JUMP JUMPDEST SWAP5 SWAP4 POP POP POP POP JUMP JUMPDEST PUSH32 0x5265656E7472616E637947756172643A207265656E7472616E742063616C6C00 PUSH0 DUP3 ADD MSTORE POP JUMP JUMPDEST PUSH0 PUSH2 0x1B4D PUSH1 0x1F DUP4 PUSH2 0x111D JUMP JUMPDEST SWAP2 POP PUSH2 0x1B58 DUP3 PUSH2 0x1B19 JUMP JUMPDEST PUSH1 0x20 DUP3 ADD SWAP1 POP SWAP2 SWAP1 POP JUMP JUMPDEST PUSH0 PUSH1 0x20 DUP3 ADD SWAP1 POP DUP2 DUP2 SUB PUSH0 DUP4 ADD MSTORE PUSH2 0x1B7A DUP2 PUSH2 0x1B41 JUMP JUMPDEST SWAP1 POP SWAP2 SWAP1 POP JUMP JUMPDEST PUSH0 PUSH1 0x40 DUP3 ADD SWAP1 POP PUSH2 0x1B94 PUSH0 DUP4 ADD DUP6 PUSH2 0x10C0 JUMP JUMPDEST PUSH2 0x1BA1 PUSH1 0x20 DUP4 ADD DUP5 PUSH2 0xDF1 JUMP JUMPDEST SWAP4 SWAP3 POP POP POP JUMP INVALID LOG2 PUSH5 0x6970667358 0x22 SLT KECCAK256 0xC4 SWAP13 0xA6 0xDA SWAP7 PREVRANDAO 0xEB 0xBC PUSH21 0xA8780DC3B739231E8486AA435E99224291ED412293 0x2E GAS PUSH5 0x736F6C6343 STOP ADDMOD BYTE STOP CALLER "
				},
				"gasEstimates": {
					"creation": {
						"codeDepositCost": "1426800",
						"executionCost": "infinite",
						"totalCost": "infinite"
					},
					"external": {
						"apiIdCounter()": "2426",
						"apis(uint256)": "infinite",
						"getRemainingRequests(address,uint256)": "infinite",
						"owner()": "2530",
						"purchaseAPIAccess(uint256,uint256)": "infinite",
						"registerAPI(string,uint256)": "infinite",
						"token()": "infinite",
						"useAPIAccess(uint256)": "infinite",
						"withdrawTokens()": "infinite"
					}
				},
				"methodIdentifiers": {
					"apiIdCounter()": "099952c8",
					"apis(uint256)": "af6e5689",
					"getRemainingRequests(address,uint256)": "400bb18d",
					"owner()": "8da5cb5b",
					"purchaseAPIAccess(uint256,uint256)": "6d177a00",
					"registerAPI(string,uint256)": "838c0557",
					"token()": "fc0c546a",
					"useAPIAccess(uint256)": "8e04d8d8",
					"withdrawTokens()": "8d8f2adb"
				}
			},
			"storageLayout": {
				"storage": [
					{
						"astId": 100,
						"contract": "final project/General API Marketplace Token.sol:GeneralApiMarketplaceToken",
						"label": "_status",
						"offset": 0,
						"slot": "0",
						"type": "t_uint256"
					},
					{
						"astId": 670,
						"contract": "final project/General API Marketplace Token.sol:GeneralApiMarketplaceToken",
						"label": "owner",
						"offset": 0,
						"slot": "1",
						"type": "t_address"
					},
					{
						"astId": 686,
						"contract": "final project/General API Marketplace Token.sol:GeneralApiMarketplaceToken",
						"label": "apiIdCounter",
						"offset": 0,
						"slot": "2",
						"type": "t_uint256"
					},
					{
						"astId": 691,
						"contract": "final project/General API Marketplace Token.sol:GeneralApiMarketplaceToken",
						"label": "apis",
						"offset": 0,
						"slot": "3",
						"type": "t_mapping(t_uint256,t_struct(APIAccess)679_storage)"
					},
					{
						"astId": 696,
						"contract": "final project/General API Marketplace Token.sol:GeneralApiMarketplaceToken",
						"label": "userUsages",
						"offset": 0,
						"slot": "4",
						"type": "t_mapping(t_address,t_struct(UserUsage)684_storage)"
					}
				],
				"types": {
					"t_address": {
						"encoding": "inplace",
						"label": "address",
						"numberOfBytes": "20"
					},
					"t_bool": {
						"encoding": "inplace",
						"label": "bool",
						"numberOfBytes": "1"
					},
					"t_mapping(t_address,t_struct(UserUsage)684_storage)": {
						"encoding": "mapping",
						"key": "t_address",
						"label": "mapping(address => struct GeneralApiMarketplaceToken.UserUsage)",
						"numberOfBytes": "32",
						"value": "t_struct(UserUsage)684_storage"
					},
					"t_mapping(t_uint256,t_struct(APIAccess)679_storage)": {
						"encoding": "mapping",
						"key": "t_uint256",
						"label": "mapping(uint256 => struct GeneralApiMarketplaceToken.APIAccess)",
						"numberOfBytes": "32",
						"value": "t_struct(APIAccess)679_storage"
					},
					"t_mapping(t_uint256,t_uint256)": {
						"encoding": "mapping",
						"key": "t_uint256",
						"label": "mapping(uint256 => uint256)",
						"numberOfBytes": "32",
						"value": "t_uint256"
					},
					"t_string_storage": {
						"encoding": "bytes",
						"label": "string",
						"numberOfBytes": "32"
					},
					"t_struct(APIAccess)679_storage": {
						"encoding": "inplace",
						"label": "struct GeneralApiMarketplaceToken.APIAccess",
						"members": [
							{
								"astId": 672,
								"contract": "final project/General API Marketplace Token.sol:GeneralApiMarketplaceToken",
								"label": "name",
								"offset": 0,
								"slot": "0",
								"type": "t_string_storage"
							},
							{
								"astId": 674,
								"contract": "final project/General API Marketplace Token.sol:GeneralApiMarketplaceToken",
								"label": "pricePerRequest",
								"offset": 0,
								"slot": "1",
								"type": "t_uint256"
							},
							{
								"astId": 676,
								"contract": "final project/General API Marketplace Token.sol:GeneralApiMarketplaceToken",
								"label": "totalPurchases",
								"offset": 0,
								"slot": "2",
								"type": "t_uint256"
							},
							{
								"astId": 678,
								"contract": "final project/General API Marketplace Token.sol:GeneralApiMarketplaceToken",
								"label": "isActive",
								"offset": 0,
								"slot": "3",
								"type": "t_bool"
							}
						],
						"numberOfBytes": "128"
					},
					"t_struct(UserUsage)684_storage": {
						"encoding": "inplace",
						"label": "struct GeneralApiMarketplaceToken.UserUsage",
						"members": [
							{
								"astId": 683,
								"contract": "final project/General API Marketplace Token.sol:GeneralApiMarketplaceToken",
								"label": "remainingRequests",
								"offset": 0,
								"slot": "0",
								"type": "t_mapping(t_uint256,t_uint256)"
							}
						],
						"numberOfBytes": "32"
					},
					"t_uint256": {
						"encoding": "inplace",
						"label": "uint256",
						"numberOfBytes": "32"
					}
				}
			},
			"userdoc": {
				"kind": "user",
				"methods": {},
				"notice": "Created by Matt Lindborg UAT MS636 Week 7",
				"version": 1
			}
		}
	}
}