{
	"final project/General API Marketplace Token.sol": {
		"GeneralApiMarketplaceToken": {
			"abi": [
				{
					"inputs": [
						{
							"internalType": "contract IERC20",
							"name": "_token",
							"type": "address"
						}
					],
					"stateMutability": "nonpayable",
					"type": "constructor"
				},
				{
					"inputs": [],
					"name": "AccessControlBadConfirmation",
					"type": "error"
				},
				{
					"inputs": [
						{
							"internalType": "address",
							"name": "account",
							"type": "address"
						},
						{
							"internalType": "bytes32",
							"name": "neededRole",
							"type": "bytes32"
						}
					],
					"name": "AccessControlUnauthorizedAccount",
					"type": "error"
				},
				{
					"inputs": [
						{
							"internalType": "address",
							"name": "token",
							"type": "address"
						}
					],
					"name": "SafeERC20FailedOperation",
					"type": "error"
				},
				{
					"anonymous": false,
					"inputs": [
						{
							"indexed": true,
							"internalType": "address",
							"name": "user",
							"type": "address"
						},
						{
							"indexed": true,
							"internalType": "uint256",
							"name": "apiId",
							"type": "uint256"
						},
						{
							"indexed": false,
							"internalType": "uint256",
							"name": "requests",
							"type": "uint256"
						}
					],
					"name": "APIAccessPurchased",
					"type": "event"
				},
				{
					"anonymous": false,
					"inputs": [
						{
							"indexed": true,
							"internalType": "address",
							"name": "user",
							"type": "address"
						},
						{
							"indexed": true,
							"internalType": "uint256",
							"name": "apiId",
							"type": "uint256"
						}
					],
					"name": "APICallMade",
					"type": "event"
				},
				{
					"anonymous": false,
					"inputs": [
						{
							"indexed": true,
							"internalType": "uint256",
							"name": "apiId",
							"type": "uint256"
						},
						{
							"indexed": false,
							"internalType": "string",
							"name": "name",
							"type": "string"
						},
						{
							"indexed": false,
							"internalType": "uint256",
							"name": "pricePerRequest",
							"type": "uint256"
						}
					],
					"name": "APIRegistered",
					"type": "event"
				},
				{
					"anonymous": false,
					"inputs": [
						{
							"indexed": true,
							"internalType": "uint256",
							"name": "apiId",
							"type": "uint256"
						},
						{
							"indexed": false,
							"internalType": "bool",
							"name": "isActive",
							"type": "bool"
						}
					],
					"name": "APIStatusUpdated",
					"type": "event"
				},
				{
					"anonymous": false,
					"inputs": [
						{
							"indexed": true,
							"internalType": "address",
							"name": "user",
							"type": "address"
						},
						{
							"indexed": true,
							"internalType": "uint256",
							"name": "apiId",
							"type": "uint256"
						},
						{
							"indexed": false,
							"internalType": "uint256",
							"name": "amount",
							"type": "uint256"
						}
					],
					"name": "RefundIssued",
					"type": "event"
				},
				{
					"anonymous": false,
					"inputs": [
						{
							"indexed": true,
							"internalType": "bytes32",
							"name": "role",
							"type": "bytes32"
						},
						{
							"indexed": true,
							"internalType": "bytes32",
							"name": "previousAdminRole",
							"type": "bytes32"
						},
						{
							"indexed": true,
							"internalType": "bytes32",
							"name": "newAdminRole",
							"type": "bytes32"
						}
					],
					"name": "RoleAdminChanged",
					"type": "event"
				},
				{
					"anonymous": false,
					"inputs": [
						{
							"indexed": true,
							"internalType": "bytes32",
							"name": "role",
							"type": "bytes32"
						},
						{
							"indexed": true,
							"internalType": "address",
							"name": "account",
							"type": "address"
						},
						{
							"indexed": true,
							"internalType": "address",
							"name": "sender",
							"type": "address"
						}
					],
					"name": "RoleGranted",
					"type": "event"
				},
				{
					"anonymous": false,
					"inputs": [
						{
							"indexed": true,
							"internalType": "bytes32",
							"name": "role",
							"type": "bytes32"
						},
						{
							"indexed": true,
							"internalType": "address",
							"name": "account",
							"type": "address"
						},
						{
							"indexed": true,
							"internalType": "address",
							"name": "sender",
							"type": "address"
						}
					],
					"name": "RoleRevoked",
					"type": "event"
				},
				{
					"anonymous": false,
					"inputs": [
						{
							"indexed": true,
							"internalType": "address",
							"name": "user",
							"type": "address"
						},
						{
							"indexed": true,
							"internalType": "uint256",
							"name": "apiId",
							"type": "uint256"
						},
						{
							"indexed": false,
							"internalType": "uint256",
							"name": "duration",
							"type": "uint256"
						}
					],
					"name": "SubscriptionPurchased",
					"type": "event"
				},
				{
					"anonymous": false,
					"inputs": [
						{
							"indexed": true,
							"internalType": "address",
							"name": "owner",
							"type": "address"
						},
						{
							"indexed": false,
							"internalType": "uint256",
							"name": "amount",
							"type": "uint256"
						}
					],
					"name": "TokensWithdrawn",
					"type": "event"
				},
				{
					"inputs": [],
					"name": "ADMIN_ROLE",
					"outputs": [
						{
							"internalType": "bytes32",
							"name": "",
							"type": "bytes32"
						}
					],
					"stateMutability": "view",
					"type": "function"
				},
				{
					"inputs": [],
					"name": "DEFAULT_ADMIN_ROLE",
					"outputs": [
						{
							"internalType": "bytes32",
							"name": "",
							"type": "bytes32"
						}
					],
					"stateMutability": "view",
					"type": "function"
				},
				{
					"inputs": [
						{
							"internalType": "address",
							"name": "_admin",
							"type": "address"
						}
					],
					"name": "addAdmin",
					"outputs": [],
					"stateMutability": "nonpayable",
					"type": "function"
				},
				{
					"inputs": [],
					"name": "apiIdCounter",
					"outputs": [
						{
							"internalType": "uint256",
							"name": "",
							"type": "uint256"
						}
					],
					"stateMutability": "view",
					"type": "function"
				},
				{
					"inputs": [
						{
							"internalType": "uint256",
							"name": "",
							"type": "uint256"
						}
					],
					"name": "apis",
					"outputs": [
						{
							"internalType": "string",
							"name": "name",
							"type": "string"
						},
						{
							"internalType": "uint256",
							"name": "pricePerRequest",
							"type": "uint256"
						},
						{
							"internalType": "uint256",
							"name": "totalPurchases",
							"type": "uint256"
						},
						{
							"internalType": "bool",
							"name": "isActive",
							"type": "bool"
						}
					],
					"stateMutability": "view",
					"type": "function"
				},
				{
					"inputs": [
						{
							"internalType": "address",
							"name": "_user",
							"type": "address"
						},
						{
							"internalType": "uint256",
							"name": "_apiId",
							"type": "uint256"
						}
					],
					"name": "getRemainingRequests",
					"outputs": [
						{
							"internalType": "uint256",
							"name": "",
							"type": "uint256"
						}
					],
					"stateMutability": "view",
					"type": "function"
				},
				{
					"inputs": [
						{
							"internalType": "bytes32",
							"name": "role",
							"type": "bytes32"
						}
					],
					"name": "getRoleAdmin",
					"outputs": [
						{
							"internalType": "bytes32",
							"name": "",
							"type": "bytes32"
						}
					],
					"stateMutability": "view",
					"type": "function"
				},
				{
					"inputs": [
						{
							"internalType": "address",
							"name": "_user",
							"type": "address"
						},
						{
							"internalType": "uint256",
							"name": "_apiId",
							"type": "uint256"
						}
					],
					"name": "getSubscriptionStatus",
					"outputs": [
						{
							"internalType": "bool",
							"name": "",
							"type": "bool"
						}
					],
					"stateMutability": "view",
					"type": "function"
				},
				{
					"inputs": [
						{
							"internalType": "bytes32",
							"name": "role",
							"type": "bytes32"
						},
						{
							"internalType": "address",
							"name": "account",
							"type": "address"
						}
					],
					"name": "grantRole",
					"outputs": [],
					"stateMutability": "nonpayable",
					"type": "function"
				},
				{
					"inputs": [
						{
							"internalType": "bytes32",
							"name": "role",
							"type": "bytes32"
						},
						{
							"internalType": "address",
							"name": "account",
							"type": "address"
						}
					],
					"name": "hasRole",
					"outputs": [
						{
							"internalType": "bool",
							"name": "",
							"type": "bool"
						}
					],
					"stateMutability": "view",
					"type": "function"
				},
				{
					"inputs": [],
					"name": "owner",
					"outputs": [
						{
							"internalType": "address",
							"name": "",
							"type": "address"
						}
					],
					"stateMutability": "view",
					"type": "function"
				},
				{
					"inputs": [
						{
							"internalType": "uint256",
							"name": "_apiId",
							"type": "uint256"
						},
						{
							"internalType": "uint256",
							"name": "_requests",
							"type": "uint256"
						}
					],
					"name": "purchaseAPIAccess",
					"outputs": [],
					"stateMutability": "nonpayable",
					"type": "function"
				},
				{
					"inputs": [
						{
							"internalType": "uint256",
							"name": "_apiId",
							"type": "uint256"
						},
						{
							"internalType": "uint256",
							"name": "_duration",
							"type": "uint256"
						}
					],
					"name": "purchaseSubscription",
					"outputs": [],
					"stateMutability": "nonpayable",
					"type": "function"
				},
				{
					"inputs": [
						{
							"internalType": "uint256",
							"name": "_apiId",
							"type": "uint256"
						}
					],
					"name": "refundUnusedRequests",
					"outputs": [],
					"stateMutability": "nonpayable",
					"type": "function"
				},
				{
					"inputs": [
						{
							"internalType": "string",
							"name": "_name",
							"type": "string"
						},
						{
							"internalType": "uint256",
							"name": "_pricePerRequest",
							"type": "uint256"
						}
					],
					"name": "registerAPI",
					"outputs": [],
					"stateMutability": "nonpayable",
					"type": "function"
				},
				{
					"inputs": [
						{
							"internalType": "address",
							"name": "_admin",
							"type": "address"
						}
					],
					"name": "removeAdmin",
					"outputs": [],
					"stateMutability": "nonpayable",
					"type": "function"
				},
				{
					"inputs": [
						{
							"internalType": "bytes32",
							"name": "role",
							"type": "bytes32"
						},
						{
							"internalType": "address",
							"name": "callerConfirmation",
							"type": "address"
						}
					],
					"name": "renounceRole",
					"outputs": [],
					"stateMutability": "nonpayable",
					"type": "function"
				},
				{
					"inputs": [
						{
							"internalType": "bytes32",
							"name": "role",
							"type": "bytes32"
						},
						{
							"internalType": "address",
							"name": "account",
							"type": "address"
						}
					],
					"name": "revokeRole",
					"outputs": [],
					"stateMutability": "nonpayable",
					"type": "function"
				},
				{
					"inputs": [
						{
							"internalType": "uint256",
							"name": "_apiId",
							"type": "uint256"
						},
						{
							"internalType": "bool",
							"name": "_isActive",
							"type": "bool"
						}
					],
					"name": "setAPIStatus",
					"outputs": [],
					"stateMutability": "nonpayable",
					"type": "function"
				},
				{
					"inputs": [
						{
							"internalType": "bytes4",
							"name": "interfaceId",
							"type": "bytes4"
						}
					],
					"name": "supportsInterface",
					"outputs": [
						{
							"internalType": "bool",
							"name": "",
							"type": "bool"
						}
					],
					"stateMutability": "view",
					"type": "function"
				},
				{
					"inputs": [],
					"name": "token",
					"outputs": [
						{
							"internalType": "contract IERC20",
							"name": "",
							"type": "address"
						}
					],
					"stateMutability": "view",
					"type": "function"
				},
				{
					"inputs": [
						{
							"internalType": "uint256",
							"name": "_apiId",
							"type": "uint256"
						}
					],
					"name": "useAPIAccess",
					"outputs": [],
					"stateMutability": "nonpayable",
					"type": "function"
				},
				{
					"inputs": [],
					"name": "withdrawTokens",
					"outputs": [],
					"stateMutability": "nonpayable",
					"type": "function"
				}
			],
			"devdoc": {
				"details": "Marketplace where users can buy API access with tokens",
				"errors": {
					"AccessControlBadConfirmation()": [
						{
							"details": "The caller of a function is not the expected one. NOTE: Don't confuse with {AccessControlUnauthorizedAccount}."
						}
					],
					"AccessControlUnauthorizedAccount(address,bytes32)": [
						{
							"details": "The `account` is missing a role."
						}
					],
					"SafeERC20FailedOperation(address)": [
						{
							"details": "An operation with an ERC-20 token failed."
						}
					]
				},
				"events": {
					"RoleAdminChanged(bytes32,bytes32,bytes32)": {
						"details": "Emitted when `newAdminRole` is set as ``role``'s admin role, replacing `previousAdminRole` `DEFAULT_ADMIN_ROLE` is the starting admin for all roles, despite {RoleAdminChanged} not being emitted signaling this."
					},
					"RoleGranted(bytes32,address,address)": {
						"details": "Emitted when `account` is granted `role`. `sender` is the account that originated the contract call. This account bears the admin role (for the granted role). Expected in cases where the role was granted using the internal {AccessControl-_grantRole}."
					},
					"RoleRevoked(bytes32,address,address)": {
						"details": "Emitted when `account` is revoked `role`. `sender` is the account that originated the contract call:   - if using `revokeRole`, it is the admin role bearer   - if using `renounceRole`, it is the role bearer (i.e. `account`)"
					}
				},
				"kind": "dev",
				"methods": {
					"getRoleAdmin(bytes32)": {
						"details": "Returns the admin role that controls `role`. See {grantRole} and {revokeRole}. To change a role's admin, use {_setRoleAdmin}."
					},
					"grantRole(bytes32,address)": {
						"details": "Grants `role` to `account`. If `account` had not been already granted `role`, emits a {RoleGranted} event. Requirements: - the caller must have ``role``'s admin role. May emit a {RoleGranted} event."
					},
					"hasRole(bytes32,address)": {
						"details": "Returns `true` if `account` has been granted `role`."
					},
					"renounceRole(bytes32,address)": {
						"details": "Revokes `role` from the calling account. Roles are often managed via {grantRole} and {revokeRole}: this function's purpose is to provide a mechanism for accounts to lose their privileges if they are compromised (such as when a trusted device is misplaced). If the calling account had been revoked `role`, emits a {RoleRevoked} event. Requirements: - the caller must be `callerConfirmation`. May emit a {RoleRevoked} event."
					},
					"revokeRole(bytes32,address)": {
						"details": "Revokes `role` from `account`. If `account` had been granted `role`, emits a {RoleRevoked} event. Requirements: - the caller must have ``role``'s admin role. May emit a {RoleRevoked} event."
					},
					"supportsInterface(bytes4)": {
						"details": "See {IERC165-supportsInterface}."
					}
				},
				"title": "General API Marketplace Token",
				"version": 1
			},
			"evm": {
				"assembly": "    /* \"final project/General API Marketplace Token.sol\":437:6374  contract GeneralApiMarketplaceToken is ReentrancyGuard, AccessControl {... */\n  mstore(0x40, 0xa0)\n    /* \"final project/General API Marketplace Token.sol\":1681:1929  constructor(IERC20 _token) {... */\n  callvalue\n  dup1\n  iszero\n  tag_1\n  jumpi\n  0x00\n  dup1\n  revert\ntag_1:\n  pop\n  mload(0x40)\n  sub(codesize, bytecodeSize)\n  dup1\n  bytecodeSize\n  dup4\n  codecopy\n  dup2\n  dup2\n  add\n  0x40\n  mstore\n  dup2\n  add\n  swap1\n  tag_2\n  swap2\n  swap1\n  tag_3\n  jump\t// in\ntag_2:\n    /* \"@openzeppelin/contracts/security/ReentrancyGuard.sol\":1716:1717  1 */\n  0x01\n    /* \"@openzeppelin/contracts/security/ReentrancyGuard.sol\":1821:1828  _status */\n  0x00\n    /* \"@openzeppelin/contracts/security/ReentrancyGuard.sol\":1821:1843  _status = _NOT_ENTERED */\n  dup2\n  swap1\n  sstore\n  pop\n    /* \"final project/General API Marketplace Token.sol\":1750:1751  0 */\n  0x00\n    /* \"final project/General API Marketplace Token.sol\":1723:1752  address(_token) != address(0) */\n  0xffffffffffffffffffffffffffffffffffffffff\n  and\n    /* \"final project/General API Marketplace Token.sol\":1731:1737  _token */\n  dup2\n    /* \"final project/General API Marketplace Token.sol\":1723:1752  address(_token) != address(0) */\n  0xffffffffffffffffffffffffffffffffffffffff\n  and\n  sub\n    /* \"final project/General API Marketplace Token.sol\":1715:1778  require(address(_token) != address(0), \"Invalid token address\") */\n  tag_8\n  jumpi\n  mload(0x40)\n  0x08c379a000000000000000000000000000000000000000000000000000000000\n  dup2\n  mstore\n  0x04\n  add\n  tag_9\n  swap1\n  tag_10\n  jump\t// in\ntag_9:\n  mload(0x40)\n  dup1\n  swap2\n  sub\n  swap1\n  revert\ntag_8:\n    /* \"final project/General API Marketplace Token.sol\":1793:1799  _token */\n  dup1\n    /* \"final project/General API Marketplace Token.sol\":1785:1799  token = _token */\n  0xffffffffffffffffffffffffffffffffffffffff\n  and\n  0x80\n  dup2\n  0xffffffffffffffffffffffffffffffffffffffff\n  and\n  dup2\n  mstore\n  pop\n  pop\n    /* \"final project/General API Marketplace Token.sol\":1814:1824  msg.sender */\n  caller\n    /* \"final project/General API Marketplace Token.sol\":1806:1811  owner */\n  0x02\n  0x00\n    /* \"final project/General API Marketplace Token.sol\":1806:1824  owner = msg.sender */\n  0x0100\n  exp\n  dup2\n  sload\n  dup2\n  0xffffffffffffffffffffffffffffffffffffffff\n  mul\n  not\n  and\n  swap1\n  dup4\n  0xffffffffffffffffffffffffffffffffffffffff\n  and\n  mul\n  or\n  swap1\n  sstore\n  pop\n    /* \"final project/General API Marketplace Token.sol\":1833:1875  _grantRole(DEFAULT_ADMIN_ROLE, msg.sender) */\n  tag_11\n    /* \"@openzeppelin/contracts/access/AccessControl.sol\":2232:2236  0x00 */\n  0x00\n    /* \"final project/General API Marketplace Token.sol\":1844:1862  DEFAULT_ADMIN_ROLE */\n  dup1\n  shl\n    /* \"final project/General API Marketplace Token.sol\":1864:1874  msg.sender */\n  caller\n    /* \"final project/General API Marketplace Token.sol\":1833:1843  _grantRole */\n  shl(0x20, tag_12)\n    /* \"final project/General API Marketplace Token.sol\":1833:1875  _grantRole(DEFAULT_ADMIN_ROLE, msg.sender) */\n  0x20\n  shr\n  jump\t// in\ntag_11:\n  pop\n    /* \"final project/General API Marketplace Token.sol\":1883:1917  _grantRole(ADMIN_ROLE, msg.sender) */\n  tag_13\n    /* \"final project/General API Marketplace Token.sol\":649:672  keccak256(\"ADMIN_ROLE\") */\n  0xa49807205ce4d355092ef5a8a18f56e8913cf4a201fbe287825b095693c21775\n    /* \"final project/General API Marketplace Token.sol\":1906:1916  msg.sender */\n  caller\n    /* \"final project/General API Marketplace Token.sol\":1883:1893  _grantRole */\n  shl(0x20, tag_12)\n    /* \"final project/General API Marketplace Token.sol\":1883:1917  _grantRole(ADMIN_ROLE, msg.sender) */\n  0x20\n  shr\n  jump\t// in\ntag_13:\n  pop\n    /* \"final project/General API Marketplace Token.sol\":1681:1929  constructor(IERC20 _token) {... */\n  pop\n    /* \"final project/General API Marketplace Token.sol\":437:6374  contract GeneralApiMarketplaceToken is ReentrancyGuard, AccessControl {... */\n  jump(tag_14)\n    /* \"@openzeppelin/contracts/access/AccessControl.sol\":6179:6495  function _grantRole(bytes32 role, address account) internal virtual returns (bool) {... */\ntag_12:\n    /* \"@openzeppelin/contracts/access/AccessControl.sol\":6256:6260  bool */\n  0x00\n    /* \"@openzeppelin/contracts/access/AccessControl.sol\":6277:6299  hasRole(role, account) */\n  tag_16\n    /* \"@openzeppelin/contracts/access/AccessControl.sol\":6285:6289  role */\n  dup4\n    /* \"@openzeppelin/contracts/access/AccessControl.sol\":6291:6298  account */\n  dup4\n    /* \"@openzeppelin/contracts/access/AccessControl.sol\":6277:6284  hasRole */\n  shl(0x20, tag_17)\n    /* \"@openzeppelin/contracts/access/AccessControl.sol\":6277:6299  hasRole(role, account) */\n  0x20\n  shr\n  jump\t// in\ntag_16:\n    /* \"@openzeppelin/contracts/access/AccessControl.sol\":6272:6489  if (!hasRole(role, account)) {... */\n  tag_18\n  jumpi\n    /* \"@openzeppelin/contracts/access/AccessControl.sol\":6347:6351  true */\n  0x01\n    /* \"@openzeppelin/contracts/access/AccessControl.sol\":6315:6321  _roles */\n  dup1\n    /* \"@openzeppelin/contracts/access/AccessControl.sol\":6315:6327  _roles[role] */\n  0x00\n    /* \"@openzeppelin/contracts/access/AccessControl.sol\":6322:6326  role */\n  dup6\n    /* \"@openzeppelin/contracts/access/AccessControl.sol\":6315:6327  _roles[role] */\n  dup2\n  mstore\n  0x20\n  add\n  swap1\n  dup2\n  mstore\n  0x20\n  add\n  0x00\n  keccak256\n    /* \"@openzeppelin/contracts/access/AccessControl.sol\":6315:6335  _roles[role].hasRole */\n  0x00\n  add\n    /* \"@openzeppelin/contracts/access/AccessControl.sol\":6315:6344  _roles[role].hasRole[account] */\n  0x00\n    /* \"@openzeppelin/contracts/access/AccessControl.sol\":6336:6343  account */\n  dup5\n    /* \"@openzeppelin/contracts/access/AccessControl.sol\":6315:6344  _roles[role].hasRole[account] */\n  0xffffffffffffffffffffffffffffffffffffffff\n  and\n  0xffffffffffffffffffffffffffffffffffffffff\n  and\n  dup2\n  mstore\n  0x20\n  add\n  swap1\n  dup2\n  mstore\n  0x20\n  add\n  0x00\n  keccak256\n  0x00\n    /* \"@openzeppelin/contracts/access/AccessControl.sol\":6315:6351  _roles[role].hasRole[account] = true */\n  0x0100\n  exp\n  dup2\n  sload\n  dup2\n  0xff\n  mul\n  not\n  and\n  swap1\n  dup4\n  iszero\n  iszero\n  mul\n  or\n  swap1\n  sstore\n  pop\n    /* \"@openzeppelin/contracts/access/AccessControl.sol\":6397:6409  _msgSender() */\n  tag_19\n    /* \"@openzeppelin/contracts/access/AccessControl.sol\":6397:6407  _msgSender */\n  shl(0x20, tag_20)\n    /* \"@openzeppelin/contracts/access/AccessControl.sol\":6397:6409  _msgSender() */\n  0x20\n  shr\n  jump\t// in\ntag_19:\n    /* \"@openzeppelin/contracts/access/AccessControl.sol\":6370:6410  RoleGranted(role, account, _msgSender()) */\n  0xffffffffffffffffffffffffffffffffffffffff\n  and\n    /* \"@openzeppelin/contracts/access/AccessControl.sol\":6388:6395  account */\n  dup3\n    /* \"@openzeppelin/contracts/access/AccessControl.sol\":6370:6410  RoleGranted(role, account, _msgSender()) */\n  0xffffffffffffffffffffffffffffffffffffffff\n  and\n    /* \"@openzeppelin/contracts/access/AccessControl.sol\":6382:6386  role */\n  dup5\n    /* \"@openzeppelin/contracts/access/AccessControl.sol\":6370:6410  RoleGranted(role, account, _msgSender()) */\n  0x2f8788117e7eff1d82e926ec794901d17c78024a50270940304540a733656f0d\n  mload(0x40)\n  mload(0x40)\n  dup1\n  swap2\n  sub\n  swap1\n  log4\n    /* \"@openzeppelin/contracts/access/AccessControl.sol\":6431:6435  true */\n  0x01\n    /* \"@openzeppelin/contracts/access/AccessControl.sol\":6424:6435  return true */\n  swap1\n  pop\n  jump(tag_15)\n    /* \"@openzeppelin/contracts/access/AccessControl.sol\":6272:6489  if (!hasRole(role, account)) {... */\ntag_18:\n    /* \"@openzeppelin/contracts/access/AccessControl.sol\":6473:6478  false */\n  0x00\n    /* \"@openzeppelin/contracts/access/AccessControl.sol\":6466:6478  return false */\n  swap1\n  pop\n    /* \"@openzeppelin/contracts/access/AccessControl.sol\":6179:6495  function _grantRole(bytes32 role, address account) internal virtual returns (bool) {... */\ntag_15:\n  swap3\n  swap2\n  pop\n  pop\n  jump\t// out\n    /* \"@openzeppelin/contracts/access/AccessControl.sol\":2854:2990  function hasRole(bytes32 role, address account) public view virtual returns (bool) {... */\ntag_17:\n    /* \"@openzeppelin/contracts/access/AccessControl.sol\":2931:2935  bool */\n  0x00\n    /* \"@openzeppelin/contracts/access/AccessControl.sol\":2954:2960  _roles */\n  0x01\n    /* \"@openzeppelin/contracts/access/AccessControl.sol\":2954:2966  _roles[role] */\n  0x00\n    /* \"@openzeppelin/contracts/access/AccessControl.sol\":2961:2965  role */\n  dup5\n    /* \"@openzeppelin/contracts/access/AccessControl.sol\":2954:2966  _roles[role] */\n  dup2\n  mstore\n  0x20\n  add\n  swap1\n  dup2\n  mstore\n  0x20\n  add\n  0x00\n  keccak256\n    /* \"@openzeppelin/contracts/access/AccessControl.sol\":2954:2974  _roles[role].hasRole */\n  0x00\n  add\n    /* \"@openzeppelin/contracts/access/AccessControl.sol\":2954:2983  _roles[role].hasRole[account] */\n  0x00\n    /* \"@openzeppelin/contracts/access/AccessControl.sol\":2975:2982  account */\n  dup4\n    /* \"@openzeppelin/contracts/access/AccessControl.sol\":2954:2983  _roles[role].hasRole[account] */\n  0xffffffffffffffffffffffffffffffffffffffff\n  and\n  0xffffffffffffffffffffffffffffffffffffffff\n  and\n  dup2\n  mstore\n  0x20\n  add\n  swap1\n  dup2\n  mstore\n  0x20\n  add\n  0x00\n  keccak256\n  0x00\n  swap1\n  sload\n  swap1\n  0x0100\n  exp\n  swap1\n  div\n  0xff\n  and\n    /* \"@openzeppelin/contracts/access/AccessControl.sol\":2947:2983  return _roles[role].hasRole[account] */\n  swap1\n  pop\n    /* \"@openzeppelin/contracts/access/AccessControl.sol\":2854:2990  function hasRole(bytes32 role, address account) public view virtual returns (bool) {... */\n  swap3\n  swap2\n  pop\n  pop\n  jump\t// out\n    /* \"@openzeppelin/contracts/utils/Context.sol\":656:752  function _msgSender() internal view virtual returns (address) {... */\ntag_20:\n    /* \"@openzeppelin/contracts/utils/Context.sol\":709:716  address */\n  0x00\n    /* \"@openzeppelin/contracts/utils/Context.sol\":735:745  msg.sender */\n  caller\n    /* \"@openzeppelin/contracts/utils/Context.sol\":728:745  return msg.sender */\n  swap1\n  pop\n    /* \"@openzeppelin/contracts/utils/Context.sol\":656:752  function _msgSender() internal view virtual returns (address) {... */\n  swap1\n  jump\t// out\n    /* \"#utility.yul\":88:205   */\ntag_25:\n    /* \"#utility.yul\":197:198   */\n  0x00\n    /* \"#utility.yul\":194:195   */\n  dup1\n    /* \"#utility.yul\":187:199   */\n  revert\n    /* \"#utility.yul\":334:460   */\ntag_27:\n    /* \"#utility.yul\":371:378   */\n  0x00\n    /* \"#utility.yul\":411:453   */\n  0xffffffffffffffffffffffffffffffffffffffff\n    /* \"#utility.yul\":404:409   */\n  dup3\n    /* \"#utility.yul\":400:454   */\n  and\n    /* \"#utility.yul\":389:454   */\n  swap1\n  pop\n    /* \"#utility.yul\":334:460   */\n  swap2\n  swap1\n  pop\n  jump\t// out\n    /* \"#utility.yul\":466:562   */\ntag_28:\n    /* \"#utility.yul\":503:510   */\n  0x00\n    /* \"#utility.yul\":532:556   */\n  tag_41\n    /* \"#utility.yul\":550:555   */\n  dup3\n    /* \"#utility.yul\":532:556   */\n  tag_27\n  jump\t// in\ntag_41:\n    /* \"#utility.yul\":521:556   */\n  swap1\n  pop\n    /* \"#utility.yul\":466:562   */\n  swap2\n  swap1\n  pop\n  jump\t// out\n    /* \"#utility.yul\":568:678   */\ntag_29:\n    /* \"#utility.yul\":619:626   */\n  0x00\n    /* \"#utility.yul\":648:672   */\n  tag_43\n    /* \"#utility.yul\":666:671   */\n  dup3\n    /* \"#utility.yul\":648:672   */\n  tag_28\n  jump\t// in\ntag_43:\n    /* \"#utility.yul\":637:672   */\n  swap1\n  pop\n    /* \"#utility.yul\":568:678   */\n  swap2\n  swap1\n  pop\n  jump\t// out\n    /* \"#utility.yul\":684:834   */\ntag_30:\n    /* \"#utility.yul\":771:809   */\n  tag_45\n    /* \"#utility.yul\":803:808   */\n  dup2\n    /* \"#utility.yul\":771:809   */\n  tag_29\n  jump\t// in\ntag_45:\n    /* \"#utility.yul\":764:769   */\n  dup2\n    /* \"#utility.yul\":761:810   */\n  eq\n    /* \"#utility.yul\":751:828   */\n  tag_46\n  jumpi\n    /* \"#utility.yul\":824:825   */\n  0x00\n    /* \"#utility.yul\":821:822   */\n  dup1\n    /* \"#utility.yul\":814:826   */\n  revert\n    /* \"#utility.yul\":751:828   */\ntag_46:\n    /* \"#utility.yul\":684:834   */\n  pop\n  jump\t// out\n    /* \"#utility.yul\":840:1011   */\ntag_31:\n    /* \"#utility.yul\":911:916   */\n  0x00\n    /* \"#utility.yul\":942:948   */\n  dup2\n    /* \"#utility.yul\":936:949   */\n  mload\n    /* \"#utility.yul\":927:949   */\n  swap1\n  pop\n    /* \"#utility.yul\":958:1005   */\n  tag_48\n    /* \"#utility.yul\":999:1004   */\n  dup2\n    /* \"#utility.yul\":958:1005   */\n  tag_30\n  jump\t// in\ntag_48:\n    /* \"#utility.yul\":840:1011   */\n  swap3\n  swap2\n  pop\n  pop\n  jump\t// out\n    /* \"#utility.yul\":1017:1396   */\ntag_3:\n    /* \"#utility.yul\":1101:1107   */\n  0x00\n    /* \"#utility.yul\":1150:1152   */\n  0x20\n    /* \"#utility.yul\":1138:1147   */\n  dup3\n    /* \"#utility.yul\":1129:1136   */\n  dup5\n    /* \"#utility.yul\":1125:1148   */\n  sub\n    /* \"#utility.yul\":1121:1153   */\n  slt\n    /* \"#utility.yul\":1118:1237   */\n  iszero\n  tag_50\n  jumpi\n    /* \"#utility.yul\":1156:1235   */\n  tag_51\n  tag_25\n  jump\t// in\ntag_51:\n    /* \"#utility.yul\":1118:1237   */\ntag_50:\n    /* \"#utility.yul\":1276:1277   */\n  0x00\n    /* \"#utility.yul\":1301:1379   */\n  tag_52\n    /* \"#utility.yul\":1371:1378   */\n  dup5\n    /* \"#utility.yul\":1362:1368   */\n  dup3\n    /* \"#utility.yul\":1351:1360   */\n  dup6\n    /* \"#utility.yul\":1347:1369   */\n  add\n    /* \"#utility.yul\":1301:1379   */\n  tag_31\n  jump\t// in\ntag_52:\n    /* \"#utility.yul\":1291:1379   */\n  swap2\n  pop\n    /* \"#utility.yul\":1247:1389   */\n  pop\n    /* \"#utility.yul\":1017:1396   */\n  swap3\n  swap2\n  pop\n  pop\n  jump\t// out\n    /* \"#utility.yul\":1402:1571   */\ntag_32:\n    /* \"#utility.yul\":1486:1497   */\n  0x00\n    /* \"#utility.yul\":1520:1526   */\n  dup3\n    /* \"#utility.yul\":1515:1518   */\n  dup3\n    /* \"#utility.yul\":1508:1527   */\n  mstore\n    /* \"#utility.yul\":1560:1564   */\n  0x20\n    /* \"#utility.yul\":1555:1558   */\n  dup3\n    /* \"#utility.yul\":1551:1565   */\n  add\n    /* \"#utility.yul\":1536:1565   */\n  swap1\n  pop\n    /* \"#utility.yul\":1402:1571   */\n  swap3\n  swap2\n  pop\n  pop\n  jump\t// out\n    /* \"#utility.yul\":1577:1748   */\ntag_33:\n    /* \"#utility.yul\":1717:1740   */\n  0x496e76616c696420746f6b656e20616464726573730000000000000000000000\n    /* \"#utility.yul\":1713:1714   */\n  0x00\n    /* \"#utility.yul\":1705:1711   */\n  dup3\n    /* \"#utility.yul\":1701:1715   */\n  add\n    /* \"#utility.yul\":1694:1741   */\n  mstore\n    /* \"#utility.yul\":1577:1748   */\n  pop\n  jump\t// out\n    /* \"#utility.yul\":1754:2120   */\ntag_34:\n    /* \"#utility.yul\":1896:1899   */\n  0x00\n    /* \"#utility.yul\":1917:1984   */\n  tag_56\n    /* \"#utility.yul\":1981:1983   */\n  0x15\n    /* \"#utility.yul\":1976:1979   */\n  dup4\n    /* \"#utility.yul\":1917:1984   */\n  tag_32\n  jump\t// in\ntag_56:\n    /* \"#utility.yul\":1910:1984   */\n  swap2\n  pop\n    /* \"#utility.yul\":1993:2086   */\n  tag_57\n    /* \"#utility.yul\":2082:2085   */\n  dup3\n    /* \"#utility.yul\":1993:2086   */\n  tag_33\n  jump\t// in\ntag_57:\n    /* \"#utility.yul\":2111:2113   */\n  0x20\n    /* \"#utility.yul\":2106:2109   */\n  dup3\n    /* \"#utility.yul\":2102:2114   */\n  add\n    /* \"#utility.yul\":2095:2114   */\n  swap1\n  pop\n    /* \"#utility.yul\":1754:2120   */\n  swap2\n  swap1\n  pop\n  jump\t// out\n    /* \"#utility.yul\":2126:2545   */\ntag_10:\n    /* \"#utility.yul\":2292:2296   */\n  0x00\n    /* \"#utility.yul\":2330:2332   */\n  0x20\n    /* \"#utility.yul\":2319:2328   */\n  dup3\n    /* \"#utility.yul\":2315:2333   */\n  add\n    /* \"#utility.yul\":2307:2333   */\n  swap1\n  pop\n    /* \"#utility.yul\":2379:2388   */\n  dup2\n    /* \"#utility.yul\":2373:2377   */\n  dup2\n    /* \"#utility.yul\":2369:2389   */\n  sub\n    /* \"#utility.yul\":2365:2366   */\n  0x00\n    /* \"#utility.yul\":2354:2363   */\n  dup4\n    /* \"#utility.yul\":2350:2367   */\n  add\n    /* \"#utility.yul\":2343:2390   */\n  mstore\n    /* \"#utility.yul\":2407:2538   */\n  tag_59\n    /* \"#utility.yul\":2533:2537   */\n  dup2\n    /* \"#utility.yul\":2407:2538   */\n  tag_34\n  jump\t// in\ntag_59:\n    /* \"#utility.yul\":2399:2538   */\n  swap1\n  pop\n    /* \"#utility.yul\":2126:2545   */\n  swap2\n  swap1\n  pop\n  jump\t// out\n    /* \"final project/General API Marketplace Token.sol\":437:6374  contract GeneralApiMarketplaceToken is ReentrancyGuard, AccessControl {... */\ntag_14:\n  mload(0x80)\n  codecopy(0x00, dataOffset(sub_0), dataSize(sub_0))\n  0x00\n  assignImmutable(\"0x208ad8d9d4ca969ed7f17809392789f61ed5b8bb6f6790375ce7d972071a1fbe\")\n  return(0x00, dataSize(sub_0))\nstop\n\nsub_0: assembly {\n        /* \"final project/General API Marketplace Token.sol\":437:6374  contract GeneralApiMarketplaceToken is ReentrancyGuard, AccessControl {... */\n      mstore(0x40, 0x80)\n      callvalue\n      dup1\n      iszero\n      tag_1\n      jumpi\n      0x00\n      dup1\n      revert\n    tag_1:\n      pop\n      jumpi(tag_2, lt(calldatasize, 0x04))\n      shr(0xe0, calldataload(0x00))\n      dup1\n      0x75b238fc\n      gt\n      tag_26\n      jumpi\n      dup1\n      0x91d14854\n      gt\n      tag_27\n      jumpi\n      dup1\n      0x91d14854\n      eq\n      tag_20\n      jumpi\n      dup1\n      0xa217fddf\n      eq\n      tag_21\n      jumpi\n      dup1\n      0xaf6e5689\n      eq\n      tag_22\n      jumpi\n      dup1\n      0xbc39c0ef\n      eq\n      tag_23\n      jumpi\n      dup1\n      0xd547741f\n      eq\n      tag_24\n      jumpi\n      dup1\n      0xfc0c546a\n      eq\n      tag_25\n      jumpi\n      jump(tag_2)\n    tag_27:\n      dup1\n      0x75b238fc\n      eq\n      tag_14\n      jumpi\n      dup1\n      0x838c0557\n      eq\n      tag_15\n      jumpi\n      dup1\n      0x8d1d44a9\n      eq\n      tag_16\n      jumpi\n      dup1\n      0x8d8f2adb\n      eq\n      tag_17\n      jumpi\n      dup1\n      0x8da5cb5b\n      eq\n      tag_18\n      jumpi\n      dup1\n      0x8e04d8d8\n      eq\n      tag_19\n      jumpi\n      jump(tag_2)\n    tag_26:\n      dup1\n      0x24cce39f\n      gt\n      tag_28\n      jumpi\n      dup1\n      0x24cce39f\n      eq\n      tag_8\n      jumpi\n      dup1\n      0x2f2ff15d\n      eq\n      tag_9\n      jumpi\n      dup1\n      0x36568abe\n      eq\n      tag_10\n      jumpi\n      dup1\n      0x400bb18d\n      eq\n      tag_11\n      jumpi\n      dup1\n      0x6d177a00\n      eq\n      tag_12\n      jumpi\n      dup1\n      0x70480275\n      eq\n      tag_13\n      jumpi\n      jump(tag_2)\n    tag_28:\n      dup1\n      0x01ffc9a7\n      eq\n      tag_3\n      jumpi\n      dup1\n      0x099952c8\n      eq\n      tag_4\n      jumpi\n      dup1\n      0x0cd2c460\n      eq\n      tag_5\n      jumpi\n      dup1\n      0x1785f53c\n      eq\n      tag_6\n      jumpi\n      dup1\n      0x248a9ca3\n      eq\n      tag_7\n      jumpi\n    tag_2:\n      0x00\n      dup1\n      revert\n        /* \"@openzeppelin/contracts/access/AccessControl.sol\":2565:2767  function supportsInterface(bytes4 interfaceId) public view virtual override returns (bool) {... */\n    tag_3:\n      tag_29\n      0x04\n      dup1\n      calldatasize\n      sub\n      dup2\n      add\n      swap1\n      tag_30\n      swap2\n      swap1\n      tag_31\n      jump\t// in\n    tag_30:\n      tag_32\n      jump\t// in\n    tag_29:\n      mload(0x40)\n      tag_33\n      swap2\n      swap1\n      tag_34\n      jump\t// in\n    tag_33:\n      mload(0x40)\n      dup1\n      swap2\n      sub\n      swap1\n      return\n        /* \"final project/General API Marketplace Token.sol\":973:1000  uint256 public apiIdCounter */\n    tag_4:\n      tag_35\n      tag_36\n      jump\t// in\n    tag_35:\n      mload(0x40)\n      tag_37\n      swap2\n      swap1\n      tag_38\n      jump\t// in\n    tag_37:\n      mload(0x40)\n      dup1\n      swap2\n      sub\n      swap1\n      return\n        /* \"final project/General API Marketplace Token.sol\":6128:6371  function getSubscriptionStatus(address _user, uint256 _apiId) external view returns (bool) {... */\n    tag_5:\n      tag_39\n      0x04\n      dup1\n      calldatasize\n      sub\n      dup2\n      add\n      swap1\n      tag_40\n      swap2\n      swap1\n      tag_41\n      jump\t// in\n    tag_40:\n      tag_42\n      jump\t// in\n    tag_39:\n      mload(0x40)\n      tag_43\n      swap2\n      swap1\n      tag_34\n      jump\t// in\n    tag_43:\n      mload(0x40)\n      dup1\n      swap2\n      sub\n      swap1\n      return\n        /* \"final project/General API Marketplace Token.sol\":2309:2414  function removeAdmin(address _admin) external onlyOwner {... */\n    tag_6:\n      tag_44\n      0x04\n      dup1\n      calldatasize\n      sub\n      dup2\n      add\n      swap1\n      tag_45\n      swap2\n      swap1\n      tag_46\n      jump\t// in\n    tag_45:\n      tag_47\n      jump\t// in\n    tag_44:\n      stop\n        /* \"@openzeppelin/contracts/access/AccessControl.sol\":3810:3930  function getRoleAdmin(bytes32 role) public view virtual returns (bytes32) {... */\n    tag_7:\n      tag_48\n      0x04\n      dup1\n      calldatasize\n      sub\n      dup2\n      add\n      swap1\n      tag_49\n      swap2\n      swap1\n      tag_50\n      jump\t// in\n    tag_49:\n      tag_51\n      jump\t// in\n    tag_48:\n      mload(0x40)\n      tag_52\n      swap2\n      swap1\n      tag_53\n      jump\t// in\n    tag_52:\n      mload(0x40)\n      dup1\n      swap2\n      sub\n      swap1\n      return\n        /* \"final project/General API Marketplace Token.sol\":2971:3212  function setAPIStatus(uint256 _apiId, bool _isActive) external onlyAdmin {... */\n    tag_8:\n      tag_54\n      0x04\n      dup1\n      calldatasize\n      sub\n      dup2\n      add\n      swap1\n      tag_55\n      swap2\n      swap1\n      tag_56\n      jump\t// in\n    tag_55:\n      tag_57\n      jump\t// in\n    tag_54:\n      stop\n        /* \"@openzeppelin/contracts/access/AccessControl.sol\":4226:4362  function grantRole(bytes32 role, address account) public virtual onlyRole(getRoleAdmin(role)) {... */\n    tag_9:\n      tag_58\n      0x04\n      dup1\n      calldatasize\n      sub\n      dup2\n      add\n      swap1\n      tag_59\n      swap2\n      swap1\n      tag_60\n      jump\t// in\n    tag_59:\n      tag_61\n      jump\t// in\n    tag_58:\n      stop\n        /* \"@openzeppelin/contracts/access/AccessControl.sol\":5328:5573  function renounceRole(bytes32 role, address callerConfirmation) public virtual {... */\n    tag_10:\n      tag_62\n      0x04\n      dup1\n      calldatasize\n      sub\n      dup2\n      add\n      swap1\n      tag_63\n      swap2\n      swap1\n      tag_60\n      jump\t// in\n    tag_63:\n      tag_64\n      jump\t// in\n    tag_62:\n      stop\n        /* \"final project/General API Marketplace Token.sol\":5895:6120  function getRemainingRequests(address _user, uint256 _apiId) external view returns (uint256) {... */\n    tag_11:\n      tag_65\n      0x04\n      dup1\n      calldatasize\n      sub\n      dup2\n      add\n      swap1\n      tag_66\n      swap2\n      swap1\n      tag_41\n      jump\t// in\n    tag_66:\n      tag_67\n      jump\t// in\n    tag_65:\n      mload(0x40)\n      tag_68\n      swap2\n      swap1\n      tag_38\n      jump\t// in\n    tag_68:\n      mload(0x40)\n      dup1\n      swap2\n      sub\n      swap1\n      return\n        /* \"final project/General API Marketplace Token.sol\":3220:3948  function purchaseAPIAccess(uint256 _apiId, uint256 _requests) external {... */\n    tag_12:\n      tag_69\n      0x04\n      dup1\n      calldatasize\n      sub\n      dup2\n      add\n      swap1\n      tag_70\n      swap2\n      swap1\n      tag_71\n      jump\t// in\n    tag_70:\n      tag_72\n      jump\t// in\n    tag_69:\n      stop\n        /* \"final project/General API Marketplace Token.sol\":2200:2301  function addAdmin(address _admin) external onlyOwner {... */\n    tag_13:\n      tag_73\n      0x04\n      dup1\n      calldatasize\n      sub\n      dup2\n      add\n      swap1\n      tag_74\n      swap2\n      swap1\n      tag_46\n      jump\t// in\n    tag_74:\n      tag_75\n      jump\t// in\n    tag_73:\n      stop\n        /* \"final project/General API Marketplace Token.sol\":612:672  bytes32 public constant ADMIN_ROLE = keccak256(\"ADMIN_ROLE\") */\n    tag_14:\n      tag_76\n      tag_77\n      jump\t// in\n    tag_76:\n      mload(0x40)\n      tag_78\n      swap2\n      swap1\n      tag_53\n      jump\t// in\n    tag_78:\n      mload(0x40)\n      dup1\n      swap2\n      sub\n      swap1\n      return\n        /* \"final project/General API Marketplace Token.sol\":2422:2963  function registerAPI(string memory _name, uint256 _pricePerRequest) external onlyAdmin {... */\n    tag_15:\n      tag_79\n      0x04\n      dup1\n      calldatasize\n      sub\n      dup2\n      add\n      swap1\n      tag_80\n      swap2\n      swap1\n      tag_81\n      jump\t// in\n    tag_80:\n      tag_82\n      jump\t// in\n    tag_79:\n      stop\n        /* \"final project/General API Marketplace Token.sol\":3956:4500  function purchaseSubscription(uint256 _apiId, uint256 _duration) external {... */\n    tag_16:\n      tag_83\n      0x04\n      dup1\n      calldatasize\n      sub\n      dup2\n      add\n      swap1\n      tag_84\n      swap2\n      swap1\n      tag_71\n      jump\t// in\n    tag_84:\n      tag_85\n      jump\t// in\n    tag_83:\n      stop\n        /* \"final project/General API Marketplace Token.sol\":4992:5267  function withdrawTokens() external onlyOwner nonReentrant {... */\n    tag_17:\n      tag_86\n      tag_87\n      jump\t// in\n    tag_86:\n      stop\n        /* \"final project/General API Marketplace Token.sol\":585:605  address public owner */\n    tag_18:\n      tag_88\n      tag_89\n      jump\t// in\n    tag_88:\n      mload(0x40)\n      tag_90\n      swap2\n      swap1\n      tag_91\n      jump\t// in\n    tag_90:\n      mload(0x40)\n      dup1\n      swap2\n      sub\n      swap1\n      return\n        /* \"final project/General API Marketplace Token.sol\":4508:4984  function useAPIAccess(uint256 _apiId) external {... */\n    tag_19:\n      tag_92\n      0x04\n      dup1\n      calldatasize\n      sub\n      dup2\n      add\n      swap1\n      tag_93\n      swap2\n      swap1\n      tag_94\n      jump\t// in\n    tag_93:\n      tag_95\n      jump\t// in\n    tag_92:\n      stop\n        /* \"@openzeppelin/contracts/access/AccessControl.sol\":2854:2990  function hasRole(bytes32 role, address account) public view virtual returns (bool) {... */\n    tag_20:\n      tag_96\n      0x04\n      dup1\n      calldatasize\n      sub\n      dup2\n      add\n      swap1\n      tag_97\n      swap2\n      swap1\n      tag_60\n      jump\t// in\n    tag_97:\n      tag_98\n      jump\t// in\n    tag_96:\n      mload(0x40)\n      tag_99\n      swap2\n      swap1\n      tag_34\n      jump\t// in\n    tag_99:\n      mload(0x40)\n      dup1\n      swap2\n      sub\n      swap1\n      return\n        /* \"@openzeppelin/contracts/access/AccessControl.sol\":2187:2236  bytes32 public constant DEFAULT_ADMIN_ROLE = 0x00 */\n    tag_21:\n      tag_100\n      tag_101\n      jump\t// in\n    tag_100:\n      mload(0x40)\n      tag_102\n      swap2\n      swap1\n      tag_53\n      jump\t// in\n    tag_102:\n      mload(0x40)\n      dup1\n      swap2\n      sub\n      swap1\n      return\n        /* \"final project/General API Marketplace Token.sol\":1007:1048  mapping(uint256 => APIAccess) public apis */\n    tag_22:\n      tag_103\n      0x04\n      dup1\n      calldatasize\n      sub\n      dup2\n      add\n      swap1\n      tag_104\n      swap2\n      swap1\n      tag_94\n      jump\t// in\n    tag_104:\n      tag_105\n      jump\t// in\n    tag_103:\n      mload(0x40)\n      tag_106\n      swap5\n      swap4\n      swap3\n      swap2\n      swap1\n      tag_107\n      jump\t// in\n    tag_106:\n      mload(0x40)\n      dup1\n      swap2\n      sub\n      swap1\n      return\n        /* \"final project/General API Marketplace Token.sol\":5275:5887  function refundUnusedRequests(uint256 _apiId) external {... */\n    tag_23:\n      tag_108\n      0x04\n      dup1\n      calldatasize\n      sub\n      dup2\n      add\n      swap1\n      tag_109\n      swap2\n      swap1\n      tag_94\n      jump\t// in\n    tag_109:\n      tag_110\n      jump\t// in\n    tag_108:\n      stop\n        /* \"@openzeppelin/contracts/access/AccessControl.sol\":4642:4780  function revokeRole(bytes32 role, address account) public virtual onlyRole(getRoleAdmin(role)) {... */\n    tag_24:\n      tag_111\n      0x04\n      dup1\n      calldatasize\n      sub\n      dup2\n      add\n      swap1\n      tag_112\n      swap2\n      swap1\n      tag_60\n      jump\t// in\n    tag_112:\n      tag_113\n      jump\t// in\n    tag_111:\n      stop\n        /* \"final project/General API Marketplace Token.sol\":549:578  IERC20 public immutable token */\n    tag_25:\n      tag_114\n      tag_115\n      jump\t// in\n    tag_114:\n      mload(0x40)\n      tag_116\n      swap2\n      swap1\n      tag_117\n      jump\t// in\n    tag_116:\n      mload(0x40)\n      dup1\n      swap2\n      sub\n      swap1\n      return\n        /* \"@openzeppelin/contracts/access/AccessControl.sol\":2565:2767  function supportsInterface(bytes4 interfaceId) public view virtual override returns (bool) {... */\n    tag_32:\n        /* \"@openzeppelin/contracts/access/AccessControl.sol\":2650:2654  bool */\n      0x00\n        /* \"@openzeppelin/contracts/access/AccessControl.sol\":2688:2720  type(IAccessControl).interfaceId */\n      0x7965db0b00000000000000000000000000000000000000000000000000000000\n        /* \"@openzeppelin/contracts/access/AccessControl.sol\":2673:2720  interfaceId == type(IAccessControl).interfaceId */\n      not(0xffffffffffffffffffffffffffffffffffffffffffffffffffffffff)\n      and\n        /* \"@openzeppelin/contracts/access/AccessControl.sol\":2673:2684  interfaceId */\n      dup3\n        /* \"@openzeppelin/contracts/access/AccessControl.sol\":2673:2720  interfaceId == type(IAccessControl).interfaceId */\n      not(0xffffffffffffffffffffffffffffffffffffffffffffffffffffffff)\n      and\n      eq\n        /* \"@openzeppelin/contracts/access/AccessControl.sol\":2673:2760  interfaceId == type(IAccessControl).interfaceId || super.supportsInterface(interfaceId) */\n      dup1\n      tag_119\n      jumpi\n      pop\n        /* \"@openzeppelin/contracts/access/AccessControl.sol\":2724:2760  super.supportsInterface(interfaceId) */\n      tag_120\n        /* \"@openzeppelin/contracts/access/AccessControl.sol\":2748:2759  interfaceId */\n      dup3\n        /* \"@openzeppelin/contracts/access/AccessControl.sol\":2724:2747  super.supportsInterface */\n      tag_121\n        /* \"@openzeppelin/contracts/access/AccessControl.sol\":2724:2760  super.supportsInterface(interfaceId) */\n      jump\t// in\n    tag_120:\n        /* \"@openzeppelin/contracts/access/AccessControl.sol\":2673:2760  interfaceId == type(IAccessControl).interfaceId || super.supportsInterface(interfaceId) */\n    tag_119:\n        /* \"@openzeppelin/contracts/access/AccessControl.sol\":2666:2760  return interfaceId == type(IAccessControl).interfaceId || super.supportsInterface(interfaceId) */\n      swap1\n      pop\n        /* \"@openzeppelin/contracts/access/AccessControl.sol\":2565:2767  function supportsInterface(bytes4 interfaceId) public view virtual override returns (bool) {... */\n      swap2\n      swap1\n      pop\n      jump\t// out\n        /* \"final project/General API Marketplace Token.sol\":973:1000  uint256 public apiIdCounter */\n    tag_36:\n      sload(0x03)\n      dup2\n      jump\t// out\n        /* \"final project/General API Marketplace Token.sol\":6128:6371  function getSubscriptionStatus(address _user, uint256 _apiId) external view returns (bool) {... */\n    tag_42:\n        /* \"final project/General API Marketplace Token.sol\":6213:6217  bool */\n      0x00\n        /* \"final project/General API Marketplace Token.sol\":6247:6259  apiIdCounter */\n      sload(0x03)\n        /* \"final project/General API Marketplace Token.sol\":6238:6244  _apiId */\n      dup3\n        /* \"final project/General API Marketplace Token.sol\":6238:6259  _apiId < apiIdCounter */\n      lt\n        /* \"final project/General API Marketplace Token.sol\":6230:6282  require(_apiId < apiIdCounter, \"API does not exist\") */\n      tag_123\n      jumpi\n      mload(0x40)\n      0x08c379a000000000000000000000000000000000000000000000000000000000\n      dup2\n      mstore\n      0x04\n      add\n      tag_124\n      swap1\n      tag_125\n      jump\t// in\n    tag_124:\n      mload(0x40)\n      dup1\n      swap2\n      sub\n      swap1\n      revert\n    tag_123:\n        /* \"final project/General API Marketplace Token.sol\":6319:6329  userUsages */\n      0x05\n        /* \"final project/General API Marketplace Token.sol\":6319:6336  userUsages[_user] */\n      0x00\n        /* \"final project/General API Marketplace Token.sol\":6330:6335  _user */\n      dup5\n        /* \"final project/General API Marketplace Token.sol\":6319:6336  userUsages[_user] */\n      0xffffffffffffffffffffffffffffffffffffffff\n      and\n      0xffffffffffffffffffffffffffffffffffffffff\n      and\n      dup2\n      mstore\n      0x20\n      add\n      swap1\n      dup2\n      mstore\n      0x20\n      add\n      0x00\n      keccak256\n        /* \"final project/General API Marketplace Token.sol\":6319:6355  userUsages[_user].subscriptionExpiry */\n      0x01\n      add\n        /* \"final project/General API Marketplace Token.sol\":6319:6363  userUsages[_user].subscriptionExpiry[_apiId] */\n      0x00\n        /* \"final project/General API Marketplace Token.sol\":6356:6362  _apiId */\n      dup4\n        /* \"final project/General API Marketplace Token.sol\":6319:6363  userUsages[_user].subscriptionExpiry[_apiId] */\n      dup2\n      mstore\n      0x20\n      add\n      swap1\n      dup2\n      mstore\n      0x20\n      add\n      0x00\n      keccak256\n      sload\n        /* \"final project/General API Marketplace Token.sol\":6300:6315  block.timestamp */\n      timestamp\n        /* \"final project/General API Marketplace Token.sol\":6300:6363  block.timestamp <= userUsages[_user].subscriptionExpiry[_apiId] */\n      gt\n      iszero\n        /* \"final project/General API Marketplace Token.sol\":6293:6363  return block.timestamp <= userUsages[_user].subscriptionExpiry[_apiId] */\n      swap1\n      pop\n        /* \"final project/General API Marketplace Token.sol\":6128:6371  function getSubscriptionStatus(address _user, uint256 _apiId) external view returns (bool) {... */\n      swap3\n      swap2\n      pop\n      pop\n      jump\t// out\n        /* \"final project/General API Marketplace Token.sol\":2309:2414  function removeAdmin(address _admin) external onlyOwner {... */\n    tag_47:\n        /* \"final project/General API Marketplace Token.sol\":1979:2018  hasRole(DEFAULT_ADMIN_ROLE, msg.sender) */\n      tag_127\n        /* \"@openzeppelin/contracts/access/AccessControl.sol\":2232:2236  0x00 */\n      0x00\n        /* \"final project/General API Marketplace Token.sol\":1987:2005  DEFAULT_ADMIN_ROLE */\n      dup1\n      shl\n        /* \"final project/General API Marketplace Token.sol\":2007:2017  msg.sender */\n      caller\n        /* \"final project/General API Marketplace Token.sol\":1979:1986  hasRole */\n      tag_98\n        /* \"final project/General API Marketplace Token.sol\":1979:2018  hasRole(DEFAULT_ADMIN_ROLE, msg.sender) */\n      jump\t// in\n    tag_127:\n        /* \"final project/General API Marketplace Token.sol\":1971:2046  require(hasRole(DEFAULT_ADMIN_ROLE, msg.sender), \"Caller is not the owner\") */\n      tag_128\n      jumpi\n      mload(0x40)\n      0x08c379a000000000000000000000000000000000000000000000000000000000\n      dup2\n      mstore\n      0x04\n      add\n      tag_129\n      swap1\n      tag_130\n      jump\t// in\n    tag_129:\n      mload(0x40)\n      dup1\n      swap2\n      sub\n      swap1\n      revert\n    tag_128:\n        /* \"final project/General API Marketplace Token.sol\":2376:2406  revokeRole(ADMIN_ROLE, _admin) */\n      tag_132\n        /* \"final project/General API Marketplace Token.sol\":649:672  keccak256(\"ADMIN_ROLE\") */\n      0xa49807205ce4d355092ef5a8a18f56e8913cf4a201fbe287825b095693c21775\n        /* \"final project/General API Marketplace Token.sol\":2399:2405  _admin */\n      dup3\n        /* \"final project/General API Marketplace Token.sol\":2376:2386  revokeRole */\n      tag_113\n        /* \"final project/General API Marketplace Token.sol\":2376:2406  revokeRole(ADMIN_ROLE, _admin) */\n      jump\t// in\n    tag_132:\n        /* \"final project/General API Marketplace Token.sol\":2309:2414  function removeAdmin(address _admin) external onlyOwner {... */\n      pop\n      jump\t// out\n        /* \"@openzeppelin/contracts/access/AccessControl.sol\":3810:3930  function getRoleAdmin(bytes32 role) public view virtual returns (bytes32) {... */\n    tag_51:\n        /* \"@openzeppelin/contracts/access/AccessControl.sol\":3875:3882  bytes32 */\n      0x00\n        /* \"@openzeppelin/contracts/access/AccessControl.sol\":3901:3907  _roles */\n      0x01\n        /* \"@openzeppelin/contracts/access/AccessControl.sol\":3901:3913  _roles[role] */\n      0x00\n        /* \"@openzeppelin/contracts/access/AccessControl.sol\":3908:3912  role */\n      dup4\n        /* \"@openzeppelin/contracts/access/AccessControl.sol\":3901:3913  _roles[role] */\n      dup2\n      mstore\n      0x20\n      add\n      swap1\n      dup2\n      mstore\n      0x20\n      add\n      0x00\n      keccak256\n        /* \"@openzeppelin/contracts/access/AccessControl.sol\":3901:3923  _roles[role].adminRole */\n      0x01\n      add\n      sload\n        /* \"@openzeppelin/contracts/access/AccessControl.sol\":3894:3923  return _roles[role].adminRole */\n      swap1\n      pop\n        /* \"@openzeppelin/contracts/access/AccessControl.sol\":3810:3930  function getRoleAdmin(bytes32 role) public view virtual returns (bytes32) {... */\n      swap2\n      swap1\n      pop\n      jump\t// out\n        /* \"final project/General API Marketplace Token.sol\":2971:3212  function setAPIStatus(uint256 _apiId, bool _isActive) external onlyAdmin {... */\n    tag_57:\n        /* \"final project/General API Marketplace Token.sol\":2114:2145  hasRole(ADMIN_ROLE, msg.sender) */\n      tag_135\n        /* \"final project/General API Marketplace Token.sol\":649:672  keccak256(\"ADMIN_ROLE\") */\n      0xa49807205ce4d355092ef5a8a18f56e8913cf4a201fbe287825b095693c21775\n        /* \"final project/General API Marketplace Token.sol\":2134:2144  msg.sender */\n      caller\n        /* \"final project/General API Marketplace Token.sol\":2114:2121  hasRole */\n      tag_98\n        /* \"final project/General API Marketplace Token.sol\":2114:2145  hasRole(ADMIN_ROLE, msg.sender) */\n      jump\t// in\n    tag_135:\n        /* \"final project/General API Marketplace Token.sol\":2106:2172  require(hasRole(ADMIN_ROLE, msg.sender), \"Caller is not an admin\") */\n      tag_136\n      jumpi\n      mload(0x40)\n      0x08c379a000000000000000000000000000000000000000000000000000000000\n      dup2\n      mstore\n      0x04\n      add\n      tag_137\n      swap1\n      tag_138\n      jump\t// in\n    tag_137:\n      mload(0x40)\n      dup1\n      swap2\n      sub\n      swap1\n      revert\n    tag_136:\n        /* \"final project/General API Marketplace Token.sol\":3072:3084  apiIdCounter */\n      sload(0x03)\n        /* \"final project/General API Marketplace Token.sol\":3063:3069  _apiId */\n      dup3\n        /* \"final project/General API Marketplace Token.sol\":3063:3084  _apiId < apiIdCounter */\n      lt\n        /* \"final project/General API Marketplace Token.sol\":3055:3107  require(_apiId < apiIdCounter, \"API does not exist\") */\n      tag_140\n      jumpi\n      mload(0x40)\n      0x08c379a000000000000000000000000000000000000000000000000000000000\n      dup2\n      mstore\n      0x04\n      add\n      tag_141\n      swap1\n      tag_125\n      jump\t// in\n    tag_141:\n      mload(0x40)\n      dup1\n      swap2\n      sub\n      swap1\n      revert\n    tag_140:\n        /* \"final project/General API Marketplace Token.sol\":3142:3151  _isActive */\n      dup1\n        /* \"final project/General API Marketplace Token.sol\":3118:3122  apis */\n      0x04\n        /* \"final project/General API Marketplace Token.sol\":3118:3130  apis[_apiId] */\n      0x00\n        /* \"final project/General API Marketplace Token.sol\":3123:3129  _apiId */\n      dup5\n        /* \"final project/General API Marketplace Token.sol\":3118:3130  apis[_apiId] */\n      dup2\n      mstore\n      0x20\n      add\n      swap1\n      dup2\n      mstore\n      0x20\n      add\n      0x00\n      keccak256\n        /* \"final project/General API Marketplace Token.sol\":3118:3139  apis[_apiId].isActive */\n      0x03\n      add\n      0x00\n        /* \"final project/General API Marketplace Token.sol\":3118:3151  apis[_apiId].isActive = _isActive */\n      0x0100\n      exp\n      dup2\n      sload\n      dup2\n      0xff\n      mul\n      not\n      and\n      swap1\n      dup4\n      iszero\n      iszero\n      mul\n      or\n      swap1\n      sstore\n      pop\n        /* \"final project/General API Marketplace Token.sol\":3186:3192  _apiId */\n      dup2\n        /* \"final project/General API Marketplace Token.sol\":3169:3204  APIStatusUpdated(_apiId, _isActive) */\n      0x33446694866e808b8c5250f584345f59832e7a6f29e30bf7a8ead78441940d9e\n        /* \"final project/General API Marketplace Token.sol\":3194:3203  _isActive */\n      dup3\n        /* \"final project/General API Marketplace Token.sol\":3169:3204  APIStatusUpdated(_apiId, _isActive) */\n      mload(0x40)\n      tag_142\n      swap2\n      swap1\n      tag_34\n      jump\t// in\n    tag_142:\n      mload(0x40)\n      dup1\n      swap2\n      sub\n      swap1\n      log2\n        /* \"final project/General API Marketplace Token.sol\":2971:3212  function setAPIStatus(uint256 _apiId, bool _isActive) external onlyAdmin {... */\n      pop\n      pop\n      jump\t// out\n        /* \"@openzeppelin/contracts/access/AccessControl.sol\":4226:4362  function grantRole(bytes32 role, address account) public virtual onlyRole(getRoleAdmin(role)) {... */\n    tag_61:\n        /* \"@openzeppelin/contracts/access/AccessControl.sol\":4300:4318  getRoleAdmin(role) */\n      tag_143\n        /* \"@openzeppelin/contracts/access/AccessControl.sol\":4313:4317  role */\n      dup3\n        /* \"@openzeppelin/contracts/access/AccessControl.sol\":4300:4312  getRoleAdmin */\n      tag_51\n        /* \"@openzeppelin/contracts/access/AccessControl.sol\":4300:4318  getRoleAdmin(role) */\n      jump\t// in\n    tag_143:\n        /* \"@openzeppelin/contracts/access/AccessControl.sol\":2464:2480  _checkRole(role) */\n      tag_145\n        /* \"@openzeppelin/contracts/access/AccessControl.sol\":2475:2479  role */\n      dup2\n        /* \"@openzeppelin/contracts/access/AccessControl.sol\":2464:2474  _checkRole */\n      tag_146\n        /* \"@openzeppelin/contracts/access/AccessControl.sol\":2464:2480  _checkRole(role) */\n      jump\t// in\n    tag_145:\n        /* \"@openzeppelin/contracts/access/AccessControl.sol\":4330:4355  _grantRole(role, account) */\n      tag_148\n        /* \"@openzeppelin/contracts/access/AccessControl.sol\":4341:4345  role */\n      dup4\n        /* \"@openzeppelin/contracts/access/AccessControl.sol\":4347:4354  account */\n      dup4\n        /* \"@openzeppelin/contracts/access/AccessControl.sol\":4330:4340  _grantRole */\n      tag_149\n        /* \"@openzeppelin/contracts/access/AccessControl.sol\":4330:4355  _grantRole(role, account) */\n      jump\t// in\n    tag_148:\n      pop\n        /* \"@openzeppelin/contracts/access/AccessControl.sol\":4226:4362  function grantRole(bytes32 role, address account) public virtual onlyRole(getRoleAdmin(role)) {... */\n      pop\n      pop\n      pop\n      jump\t// out\n        /* \"@openzeppelin/contracts/access/AccessControl.sol\":5328:5573  function renounceRole(bytes32 role, address callerConfirmation) public virtual {... */\n    tag_64:\n        /* \"@openzeppelin/contracts/access/AccessControl.sol\":5443:5455  _msgSender() */\n      tag_151\n        /* \"@openzeppelin/contracts/access/AccessControl.sol\":5443:5453  _msgSender */\n      tag_152\n        /* \"@openzeppelin/contracts/access/AccessControl.sol\":5443:5455  _msgSender() */\n      jump\t// in\n    tag_151:\n        /* \"@openzeppelin/contracts/access/AccessControl.sol\":5421:5455  callerConfirmation != _msgSender() */\n      0xffffffffffffffffffffffffffffffffffffffff\n      and\n        /* \"@openzeppelin/contracts/access/AccessControl.sol\":5421:5439  callerConfirmation */\n      dup2\n        /* \"@openzeppelin/contracts/access/AccessControl.sol\":5421:5455  callerConfirmation != _msgSender() */\n      0xffffffffffffffffffffffffffffffffffffffff\n      and\n      eq\n        /* \"@openzeppelin/contracts/access/AccessControl.sol\":5417:5519  if (callerConfirmation != _msgSender()) {... */\n      tag_153\n      jumpi\n        /* \"@openzeppelin/contracts/access/AccessControl.sol\":5478:5508  AccessControlBadConfirmation() */\n      mload(0x40)\n      0x6697b23200000000000000000000000000000000000000000000000000000000\n      dup2\n      mstore\n      0x04\n      add\n      mload(0x40)\n      dup1\n      swap2\n      sub\n      swap1\n      revert\n        /* \"@openzeppelin/contracts/access/AccessControl.sol\":5417:5519  if (callerConfirmation != _msgSender()) {... */\n    tag_153:\n        /* \"@openzeppelin/contracts/access/AccessControl.sol\":5529:5566  _revokeRole(role, callerConfirmation) */\n      tag_154\n        /* \"@openzeppelin/contracts/access/AccessControl.sol\":5541:5545  role */\n      dup3\n        /* \"@openzeppelin/contracts/access/AccessControl.sol\":5547:5565  callerConfirmation */\n      dup3\n        /* \"@openzeppelin/contracts/access/AccessControl.sol\":5529:5540  _revokeRole */\n      tag_155\n        /* \"@openzeppelin/contracts/access/AccessControl.sol\":5529:5566  _revokeRole(role, callerConfirmation) */\n      jump\t// in\n    tag_154:\n      pop\n        /* \"@openzeppelin/contracts/access/AccessControl.sol\":5328:5573  function renounceRole(bytes32 role, address callerConfirmation) public virtual {... */\n      pop\n      pop\n      jump\t// out\n        /* \"final project/General API Marketplace Token.sol\":5895:6120  function getRemainingRequests(address _user, uint256 _apiId) external view returns (uint256) {... */\n    tag_67:\n        /* \"final project/General API Marketplace Token.sol\":5979:5986  uint256 */\n      0x00\n        /* \"final project/General API Marketplace Token.sol\":6016:6028  apiIdCounter */\n      sload(0x03)\n        /* \"final project/General API Marketplace Token.sol\":6007:6013  _apiId */\n      dup3\n        /* \"final project/General API Marketplace Token.sol\":6007:6028  _apiId < apiIdCounter */\n      lt\n        /* \"final project/General API Marketplace Token.sol\":5999:6051  require(_apiId < apiIdCounter, \"API does not exist\") */\n      tag_157\n      jumpi\n      mload(0x40)\n      0x08c379a000000000000000000000000000000000000000000000000000000000\n      dup2\n      mstore\n      0x04\n      add\n      tag_158\n      swap1\n      tag_125\n      jump\t// in\n    tag_158:\n      mload(0x40)\n      dup1\n      swap2\n      sub\n      swap1\n      revert\n    tag_157:\n        /* \"final project/General API Marketplace Token.sol\":6069:6079  userUsages */\n      0x05\n        /* \"final project/General API Marketplace Token.sol\":6069:6086  userUsages[_user] */\n      0x00\n        /* \"final project/General API Marketplace Token.sol\":6080:6085  _user */\n      dup5\n        /* \"final project/General API Marketplace Token.sol\":6069:6086  userUsages[_user] */\n      0xffffffffffffffffffffffffffffffffffffffff\n      and\n      0xffffffffffffffffffffffffffffffffffffffff\n      and\n      dup2\n      mstore\n      0x20\n      add\n      swap1\n      dup2\n      mstore\n      0x20\n      add\n      0x00\n      keccak256\n        /* \"final project/General API Marketplace Token.sol\":6069:6104  userUsages[_user].remainingRequests */\n      0x00\n      add\n        /* \"final project/General API Marketplace Token.sol\":6069:6112  userUsages[_user].remainingRequests[_apiId] */\n      0x00\n        /* \"final project/General API Marketplace Token.sol\":6105:6111  _apiId */\n      dup4\n        /* \"final project/General API Marketplace Token.sol\":6069:6112  userUsages[_user].remainingRequests[_apiId] */\n      dup2\n      mstore\n      0x20\n      add\n      swap1\n      dup2\n      mstore\n      0x20\n      add\n      0x00\n      keccak256\n      sload\n        /* \"final project/General API Marketplace Token.sol\":6062:6112  return userUsages[_user].remainingRequests[_apiId] */\n      swap1\n      pop\n        /* \"final project/General API Marketplace Token.sol\":5895:6120  function getRemainingRequests(address _user, uint256 _apiId) external view returns (uint256) {... */\n      swap3\n      swap2\n      pop\n      pop\n      jump\t// out\n        /* \"final project/General API Marketplace Token.sol\":3220:3948  function purchaseAPIAccess(uint256 _apiId, uint256 _requests) external {... */\n    tag_72:\n        /* \"final project/General API Marketplace Token.sol\":3319:3331  apiIdCounter */\n      sload(0x03)\n        /* \"final project/General API Marketplace Token.sol\":3310:3316  _apiId */\n      dup3\n        /* \"final project/General API Marketplace Token.sol\":3310:3331  _apiId < apiIdCounter */\n      lt\n        /* \"final project/General API Marketplace Token.sol\":3302:3354  require(_apiId < apiIdCounter, \"API does not exist\") */\n      tag_160\n      jumpi\n      mload(0x40)\n      0x08c379a000000000000000000000000000000000000000000000000000000000\n      dup2\n      mstore\n      0x04\n      add\n      tag_161\n      swap1\n      tag_125\n      jump\t// in\n    tag_161:\n      mload(0x40)\n      dup1\n      swap2\n      sub\n      swap1\n      revert\n    tag_160:\n        /* \"final project/General API Marketplace Token.sol\":3385:3386  0 */\n      0x00\n        /* \"final project/General API Marketplace Token.sol\":3373:3382  _requests */\n      dup2\n        /* \"final project/General API Marketplace Token.sol\":3373:3386  _requests > 0 */\n      gt\n        /* \"final project/General API Marketplace Token.sol\":3365:3435  require(_requests > 0, \"Number of requests must be greater than zero\") */\n      tag_162\n      jumpi\n      mload(0x40)\n      0x08c379a000000000000000000000000000000000000000000000000000000000\n      dup2\n      mstore\n      0x04\n      add\n      tag_163\n      swap1\n      tag_164\n      jump\t// in\n    tag_163:\n      mload(0x40)\n      dup1\n      swap2\n      sub\n      swap1\n      revert\n    tag_162:\n        /* \"final project/General API Marketplace Token.sol\":3448:3469  APIAccess storage api */\n      0x00\n        /* \"final project/General API Marketplace Token.sol\":3472:3476  apis */\n      0x04\n        /* \"final project/General API Marketplace Token.sol\":3472:3484  apis[_apiId] */\n      0x00\n        /* \"final project/General API Marketplace Token.sol\":3477:3483  _apiId */\n      dup5\n        /* \"final project/General API Marketplace Token.sol\":3472:3484  apis[_apiId] */\n      dup2\n      mstore\n      0x20\n      add\n      swap1\n      dup2\n      mstore\n      0x20\n      add\n      0x00\n      keccak256\n        /* \"final project/General API Marketplace Token.sol\":3448:3484  APIAccess storage api = apis[_apiId] */\n      swap1\n      pop\n        /* \"final project/General API Marketplace Token.sol\":3503:3506  api */\n      dup1\n        /* \"final project/General API Marketplace Token.sol\":3503:3515  api.isActive */\n      0x03\n      add\n      0x00\n      swap1\n      sload\n      swap1\n      0x0100\n      exp\n      swap1\n      div\n      0xff\n      and\n        /* \"final project/General API Marketplace Token.sol\":3495:3537  require(api.isActive, \"API is not active\") */\n      tag_165\n      jumpi\n      mload(0x40)\n      0x08c379a000000000000000000000000000000000000000000000000000000000\n      dup2\n      mstore\n      0x04\n      add\n      tag_166\n      swap1\n      tag_167\n      jump\t// in\n    tag_166:\n      mload(0x40)\n      dup1\n      swap2\n      sub\n      swap1\n      revert\n    tag_165:\n        /* \"final project/General API Marketplace Token.sol\":3550:3567  uint256 totalCost */\n      0x00\n        /* \"final project/General API Marketplace Token.sol\":3592:3601  _requests */\n      dup3\n        /* \"final project/General API Marketplace Token.sol\":3570:3573  api */\n      dup3\n        /* \"final project/General API Marketplace Token.sol\":3570:3589  api.pricePerRequest */\n      0x01\n      add\n      sload\n        /* \"final project/General API Marketplace Token.sol\":3570:3601  api.pricePerRequest * _requests */\n      tag_168\n      swap2\n      swap1\n      tag_169\n      jump\t// in\n    tag_168:\n        /* \"final project/General API Marketplace Token.sol\":3550:3601  uint256 totalCost = api.pricePerRequest * _requests */\n      swap1\n      pop\n        /* \"final project/General API Marketplace Token.sol\":3645:3648  api */\n      dup2\n        /* \"final project/General API Marketplace Token.sol\":3645:3664  api.pricePerRequest */\n      0x01\n      add\n      sload\n        /* \"final project/General API Marketplace Token.sol\":3632:3641  _requests */\n      dup4\n        /* \"final project/General API Marketplace Token.sol\":3620:3629  totalCost */\n      dup3\n        /* \"final project/General API Marketplace Token.sol\":3620:3641  totalCost / _requests */\n      tag_170\n      swap2\n      swap1\n      tag_171\n      jump\t// in\n    tag_170:\n        /* \"final project/General API Marketplace Token.sol\":3620:3664  totalCost / _requests == api.pricePerRequest */\n      eq\n        /* \"final project/General API Marketplace Token.sol\":3612:3686  require(totalCost / _requests == api.pricePerRequest, \"Overflow detected\") */\n      tag_172\n      jumpi\n      mload(0x40)\n      0x08c379a000000000000000000000000000000000000000000000000000000000\n      dup2\n      mstore\n      0x04\n      add\n      tag_173\n      swap1\n      tag_174\n      jump\t// in\n    tag_173:\n      mload(0x40)\n      dup1\n      swap2\n      sub\n      swap1\n      revert\n    tag_172:\n        /* \"final project/General API Marketplace Token.sol\":3699:3759  token.safeTransferFrom(msg.sender, address(this), totalCost) */\n      tag_175\n        /* \"final project/General API Marketplace Token.sol\":3722:3732  msg.sender */\n      caller\n        /* \"final project/General API Marketplace Token.sol\":3742:3746  this */\n      address\n        /* \"final project/General API Marketplace Token.sol\":3749:3758  totalCost */\n      dup4\n        /* \"final project/General API Marketplace Token.sol\":3699:3704  token */\n      immutable(\"0x208ad8d9d4ca969ed7f17809392789f61ed5b8bb6f6790375ce7d972071a1fbe\")\n        /* \"final project/General API Marketplace Token.sol\":3699:3721  token.safeTransferFrom */\n      0xffffffffffffffffffffffffffffffffffffffff\n      and\n      tag_176\n      swap1\n        /* \"final project/General API Marketplace Token.sol\":3699:3759  token.safeTransferFrom(msg.sender, address(this), totalCost) */\n      swap4\n      swap3\n      swap2\n      swap1\n      0xffffffff\n      and\n      jump\t// in\n    tag_175:\n        /* \"final project/General API Marketplace Token.sol\":3822:3831  _requests */\n      dup3\n        /* \"final project/General API Marketplace Token.sol\":3770:3780  userUsages */\n      0x05\n        /* \"final project/General API Marketplace Token.sol\":3770:3792  userUsages[msg.sender] */\n      0x00\n        /* \"final project/General API Marketplace Token.sol\":3781:3791  msg.sender */\n      caller\n        /* \"final project/General API Marketplace Token.sol\":3770:3792  userUsages[msg.sender] */\n      0xffffffffffffffffffffffffffffffffffffffff\n      and\n      0xffffffffffffffffffffffffffffffffffffffff\n      and\n      dup2\n      mstore\n      0x20\n      add\n      swap1\n      dup2\n      mstore\n      0x20\n      add\n      0x00\n      keccak256\n        /* \"final project/General API Marketplace Token.sol\":3770:3810  userUsages[msg.sender].remainingRequests */\n      0x00\n      add\n        /* \"final project/General API Marketplace Token.sol\":3770:3818  userUsages[msg.sender].remainingRequests[_apiId] */\n      0x00\n        /* \"final project/General API Marketplace Token.sol\":3811:3817  _apiId */\n      dup7\n        /* \"final project/General API Marketplace Token.sol\":3770:3818  userUsages[msg.sender].remainingRequests[_apiId] */\n      dup2\n      mstore\n      0x20\n      add\n      swap1\n      dup2\n      mstore\n      0x20\n      add\n      0x00\n      keccak256\n      0x00\n        /* \"final project/General API Marketplace Token.sol\":3770:3831  userUsages[msg.sender].remainingRequests[_apiId] += _requests */\n      dup3\n      dup3\n      sload\n      tag_177\n      swap2\n      swap1\n      tag_178\n      jump\t// in\n    tag_177:\n      swap3\n      pop\n      pop\n      dup2\n      swap1\n      sstore\n      pop\n        /* \"final project/General API Marketplace Token.sol\":3864:3873  _requests */\n      dup3\n        /* \"final project/General API Marketplace Token.sol\":3842:3845  api */\n      dup3\n        /* \"final project/General API Marketplace Token.sol\":3842:3860  api.totalPurchases */\n      0x02\n      add\n      0x00\n        /* \"final project/General API Marketplace Token.sol\":3842:3873  api.totalPurchases += _requests */\n      dup3\n      dup3\n      sload\n      tag_179\n      swap2\n      swap1\n      tag_178\n      jump\t// in\n    tag_179:\n      swap3\n      pop\n      pop\n      dup2\n      swap1\n      sstore\n      pop\n        /* \"final project/General API Marketplace Token.sol\":3922:3928  _apiId */\n      dup4\n        /* \"final project/General API Marketplace Token.sol\":3910:3920  msg.sender */\n      caller\n        /* \"final project/General API Marketplace Token.sol\":3891:3940  APIAccessPurchased(msg.sender, _apiId, _requests) */\n      0xffffffffffffffffffffffffffffffffffffffff\n      and\n      0x651496919c95942a8a70db2e93544280a0491b14565245385a8026dcb32e923b\n        /* \"final project/General API Marketplace Token.sol\":3930:3939  _requests */\n      dup6\n        /* \"final project/General API Marketplace Token.sol\":3891:3940  APIAccessPurchased(msg.sender, _apiId, _requests) */\n      mload(0x40)\n      tag_180\n      swap2\n      swap1\n      tag_38\n      jump\t// in\n    tag_180:\n      mload(0x40)\n      dup1\n      swap2\n      sub\n      swap1\n      log3\n        /* \"final project/General API Marketplace Token.sol\":3291:3948  {... */\n      pop\n      pop\n        /* \"final project/General API Marketplace Token.sol\":3220:3948  function purchaseAPIAccess(uint256 _apiId, uint256 _requests) external {... */\n      pop\n      pop\n      jump\t// out\n        /* \"final project/General API Marketplace Token.sol\":2200:2301  function addAdmin(address _admin) external onlyOwner {... */\n    tag_75:\n        /* \"final project/General API Marketplace Token.sol\":1979:2018  hasRole(DEFAULT_ADMIN_ROLE, msg.sender) */\n      tag_182\n        /* \"@openzeppelin/contracts/access/AccessControl.sol\":2232:2236  0x00 */\n      0x00\n        /* \"final project/General API Marketplace Token.sol\":1987:2005  DEFAULT_ADMIN_ROLE */\n      dup1\n      shl\n        /* \"final project/General API Marketplace Token.sol\":2007:2017  msg.sender */\n      caller\n        /* \"final project/General API Marketplace Token.sol\":1979:1986  hasRole */\n      tag_98\n        /* \"final project/General API Marketplace Token.sol\":1979:2018  hasRole(DEFAULT_ADMIN_ROLE, msg.sender) */\n      jump\t// in\n    tag_182:\n        /* \"final project/General API Marketplace Token.sol\":1971:2046  require(hasRole(DEFAULT_ADMIN_ROLE, msg.sender), \"Caller is not the owner\") */\n      tag_183\n      jumpi\n      mload(0x40)\n      0x08c379a000000000000000000000000000000000000000000000000000000000\n      dup2\n      mstore\n      0x04\n      add\n      tag_184\n      swap1\n      tag_130\n      jump\t// in\n    tag_184:\n      mload(0x40)\n      dup1\n      swap2\n      sub\n      swap1\n      revert\n    tag_183:\n        /* \"final project/General API Marketplace Token.sol\":2264:2293  grantRole(ADMIN_ROLE, _admin) */\n      tag_186\n        /* \"final project/General API Marketplace Token.sol\":649:672  keccak256(\"ADMIN_ROLE\") */\n      0xa49807205ce4d355092ef5a8a18f56e8913cf4a201fbe287825b095693c21775\n        /* \"final project/General API Marketplace Token.sol\":2286:2292  _admin */\n      dup3\n        /* \"final project/General API Marketplace Token.sol\":2264:2273  grantRole */\n      tag_61\n        /* \"final project/General API Marketplace Token.sol\":2264:2293  grantRole(ADMIN_ROLE, _admin) */\n      jump\t// in\n    tag_186:\n        /* \"final project/General API Marketplace Token.sol\":2200:2301  function addAdmin(address _admin) external onlyOwner {... */\n      pop\n      jump\t// out\n        /* \"final project/General API Marketplace Token.sol\":612:672  bytes32 public constant ADMIN_ROLE = keccak256(\"ADMIN_ROLE\") */\n    tag_77:\n        /* \"final project/General API Marketplace Token.sol\":649:672  keccak256(\"ADMIN_ROLE\") */\n      0xa49807205ce4d355092ef5a8a18f56e8913cf4a201fbe287825b095693c21775\n        /* \"final project/General API Marketplace Token.sol\":612:672  bytes32 public constant ADMIN_ROLE = keccak256(\"ADMIN_ROLE\") */\n      dup2\n      jump\t// out\n        /* \"final project/General API Marketplace Token.sol\":2422:2963  function registerAPI(string memory _name, uint256 _pricePerRequest) external onlyAdmin {... */\n    tag_82:\n        /* \"final project/General API Marketplace Token.sol\":2114:2145  hasRole(ADMIN_ROLE, msg.sender) */\n      tag_188\n        /* \"final project/General API Marketplace Token.sol\":649:672  keccak256(\"ADMIN_ROLE\") */\n      0xa49807205ce4d355092ef5a8a18f56e8913cf4a201fbe287825b095693c21775\n        /* \"final project/General API Marketplace Token.sol\":2134:2144  msg.sender */\n      caller\n        /* \"final project/General API Marketplace Token.sol\":2114:2121  hasRole */\n      tag_98\n        /* \"final project/General API Marketplace Token.sol\":2114:2145  hasRole(ADMIN_ROLE, msg.sender) */\n      jump\t// in\n    tag_188:\n        /* \"final project/General API Marketplace Token.sol\":2106:2172  require(hasRole(ADMIN_ROLE, msg.sender), \"Caller is not an admin\") */\n      tag_189\n      jumpi\n      mload(0x40)\n      0x08c379a000000000000000000000000000000000000000000000000000000000\n      dup2\n      mstore\n      0x04\n      add\n      tag_190\n      swap1\n      tag_138\n      jump\t// in\n    tag_190:\n      mload(0x40)\n      dup1\n      swap2\n      sub\n      swap1\n      revert\n    tag_189:\n        /* \"final project/General API Marketplace Token.sol\":2550:2551  0 */\n      0x00\n        /* \"final project/General API Marketplace Token.sol\":2534:2539  _name */\n      dup3\n        /* \"final project/General API Marketplace Token.sol\":2528:2547  bytes(_name).length */\n      mload\n        /* \"final project/General API Marketplace Token.sol\":2528:2551  bytes(_name).length > 0 */\n      gt\n        /* \"final project/General API Marketplace Token.sol\":2520:2580  require(bytes(_name).length > 0, \"API name cannot be empty\") */\n      tag_192\n      jumpi\n      mload(0x40)\n      0x08c379a000000000000000000000000000000000000000000000000000000000\n      dup2\n      mstore\n      0x04\n      add\n      tag_193\n      swap1\n      tag_194\n      jump\t// in\n    tag_193:\n      mload(0x40)\n      dup1\n      swap2\n      sub\n      swap1\n      revert\n    tag_192:\n        /* \"final project/General API Marketplace Token.sol\":2618:2619  0 */\n      0x00\n        /* \"final project/General API Marketplace Token.sol\":2599:2615  _pricePerRequest */\n      dup2\n        /* \"final project/General API Marketplace Token.sol\":2599:2619  _pricePerRequest > 0 */\n      gt\n        /* \"final project/General API Marketplace Token.sol\":2591:2667  require(_pricePerRequest > 0, \"Price per request must be greater than zero\") */\n      tag_195\n      jumpi\n      mload(0x40)\n      0x08c379a000000000000000000000000000000000000000000000000000000000\n      dup2\n      mstore\n      0x04\n      add\n      tag_196\n      swap1\n      tag_197\n      jump\t// in\n    tag_196:\n      mload(0x40)\n      dup1\n      swap2\n      sub\n      swap1\n      revert\n    tag_195:\n        /* \"final project/General API Marketplace Token.sol\":2680:2693  uint256 apiId */\n      0x00\n        /* \"final project/General API Marketplace Token.sol\":2696:2708  apiIdCounter */\n      0x03\n      0x00\n        /* \"final project/General API Marketplace Token.sol\":2696:2710  apiIdCounter++ */\n      dup2\n      sload\n      dup1\n      swap3\n      swap2\n      swap1\n      tag_198\n      swap1\n      tag_199\n      jump\t// in\n    tag_198:\n      swap2\n      swap1\n      pop\n      sstore\n        /* \"final project/General API Marketplace Token.sol\":2680:2710  uint256 apiId = apiIdCounter++ */\n      swap1\n      pop\n        /* \"final project/General API Marketplace Token.sol\":2735:2892  APIAccess({... */\n      mload(0x40)\n      dup1\n      0x80\n      add\n      0x40\n      mstore\n      dup1\n        /* \"final project/General API Marketplace Token.sol\":2766:2771  _name */\n      dup5\n        /* \"final project/General API Marketplace Token.sol\":2735:2892  APIAccess({... */\n      dup2\n      mstore\n      0x20\n      add\n        /* \"final project/General API Marketplace Token.sol\":2803:2819  _pricePerRequest */\n      dup4\n        /* \"final project/General API Marketplace Token.sol\":2735:2892  APIAccess({... */\n      dup2\n      mstore\n      0x20\n      add\n        /* \"final project/General API Marketplace Token.sol\":2850:2851  0 */\n      0x00\n        /* \"final project/General API Marketplace Token.sol\":2735:2892  APIAccess({... */\n      dup2\n      mstore\n      0x20\n      add\n        /* \"final project/General API Marketplace Token.sol\":2876:2880  true */\n      0x01\n        /* \"final project/General API Marketplace Token.sol\":2735:2892  APIAccess({... */\n      iszero\n      iszero\n      dup2\n      mstore\n      pop\n        /* \"final project/General API Marketplace Token.sol\":2721:2725  apis */\n      0x04\n        /* \"final project/General API Marketplace Token.sol\":2721:2732  apis[apiId] */\n      0x00\n        /* \"final project/General API Marketplace Token.sol\":2726:2731  apiId */\n      dup4\n        /* \"final project/General API Marketplace Token.sol\":2721:2732  apis[apiId] */\n      dup2\n      mstore\n      0x20\n      add\n      swap1\n      dup2\n      mstore\n      0x20\n      add\n      0x00\n      keccak256\n        /* \"final project/General API Marketplace Token.sol\":2721:2892  apis[apiId] = APIAccess({... */\n      0x00\n      dup3\n      add\n      mload\n      dup2\n      0x00\n      add\n      swap1\n      dup2\n      tag_200\n      swap2\n      swap1\n      tag_201\n      jump\t// in\n    tag_200:\n      pop\n      0x20\n      dup3\n      add\n      mload\n      dup2\n      0x01\n      add\n      sstore\n      0x40\n      dup3\n      add\n      mload\n      dup2\n      0x02\n      add\n      sstore\n      0x60\n      dup3\n      add\n      mload\n      dup2\n      0x03\n      add\n      exp(0x0100, 0x00)\n      dup2\n      sload\n      dup2\n      0xff\n      mul\n      not\n      and\n      swap1\n      dup4\n      iszero\n      iszero\n      mul\n      or\n      swap1\n      sstore\n      pop\n      swap1\n      pop\n      pop\n        /* \"final project/General API Marketplace Token.sol\":2924:2929  apiId */\n      dup1\n        /* \"final project/General API Marketplace Token.sol\":2910:2955  APIRegistered(apiId, _name, _pricePerRequest) */\n      0x708b6915aad37cd1d491e64bf7a3b53c298499411a09f4b2315e30da638b5de2\n        /* \"final project/General API Marketplace Token.sol\":2931:2936  _name */\n      dup5\n        /* \"final project/General API Marketplace Token.sol\":2938:2954  _pricePerRequest */\n      dup5\n        /* \"final project/General API Marketplace Token.sol\":2910:2955  APIRegistered(apiId, _name, _pricePerRequest) */\n      mload(0x40)\n      tag_202\n      swap3\n      swap2\n      swap1\n      tag_203\n      jump\t// in\n    tag_202:\n      mload(0x40)\n      dup1\n      swap2\n      sub\n      swap1\n      log2\n        /* \"final project/General API Marketplace Token.sol\":2509:2963  {... */\n      pop\n        /* \"final project/General API Marketplace Token.sol\":2422:2963  function registerAPI(string memory _name, uint256 _pricePerRequest) external onlyAdmin {... */\n      pop\n      pop\n      jump\t// out\n        /* \"final project/General API Marketplace Token.sol\":3956:4500  function purchaseSubscription(uint256 _apiId, uint256 _duration) external {... */\n    tag_85:\n        /* \"final project/General API Marketplace Token.sol\":4058:4070  apiIdCounter */\n      sload(0x03)\n        /* \"final project/General API Marketplace Token.sol\":4049:4055  _apiId */\n      dup3\n        /* \"final project/General API Marketplace Token.sol\":4049:4070  _apiId < apiIdCounter */\n      lt\n        /* \"final project/General API Marketplace Token.sol\":4041:4093  require(_apiId < apiIdCounter, \"API does not exist\") */\n      tag_205\n      jumpi\n      mload(0x40)\n      0x08c379a000000000000000000000000000000000000000000000000000000000\n      dup2\n      mstore\n      0x04\n      add\n      tag_206\n      swap1\n      tag_125\n      jump\t// in\n    tag_206:\n      mload(0x40)\n      dup1\n      swap2\n      sub\n      swap1\n      revert\n    tag_205:\n        /* \"final project/General API Marketplace Token.sol\":4106:4127  APIAccess storage api */\n      0x00\n        /* \"final project/General API Marketplace Token.sol\":4130:4134  apis */\n      0x04\n        /* \"final project/General API Marketplace Token.sol\":4130:4142  apis[_apiId] */\n      0x00\n        /* \"final project/General API Marketplace Token.sol\":4135:4141  _apiId */\n      dup5\n        /* \"final project/General API Marketplace Token.sol\":4130:4142  apis[_apiId] */\n      dup2\n      mstore\n      0x20\n      add\n      swap1\n      dup2\n      mstore\n      0x20\n      add\n      0x00\n      keccak256\n        /* \"final project/General API Marketplace Token.sol\":4106:4142  APIAccess storage api = apis[_apiId] */\n      swap1\n      pop\n        /* \"final project/General API Marketplace Token.sol\":4161:4164  api */\n      dup1\n        /* \"final project/General API Marketplace Token.sol\":4161:4173  api.isActive */\n      0x03\n      add\n      0x00\n      swap1\n      sload\n      swap1\n      0x0100\n      exp\n      swap1\n      div\n      0xff\n      and\n        /* \"final project/General API Marketplace Token.sol\":4153:4195  require(api.isActive, \"API is not active\") */\n      tag_207\n      jumpi\n      mload(0x40)\n      0x08c379a000000000000000000000000000000000000000000000000000000000\n      dup2\n      mstore\n      0x04\n      add\n      tag_208\n      swap1\n      tag_167\n      jump\t// in\n    tag_208:\n      mload(0x40)\n      dup1\n      swap2\n      sub\n      swap1\n      revert\n    tag_207:\n        /* \"final project/General API Marketplace Token.sol\":4208:4225  uint256 totalCost */\n      0x00\n        /* \"final project/General API Marketplace Token.sol\":4250:4259  _duration */\n      dup3\n        /* \"final project/General API Marketplace Token.sol\":4228:4231  api */\n      dup3\n        /* \"final project/General API Marketplace Token.sol\":4228:4247  api.pricePerRequest */\n      0x01\n      add\n      sload\n        /* \"final project/General API Marketplace Token.sol\":4228:4259  api.pricePerRequest * _duration */\n      tag_209\n      swap2\n      swap1\n      tag_169\n      jump\t// in\n    tag_209:\n        /* \"final project/General API Marketplace Token.sol\":4208:4259  uint256 totalCost = api.pricePerRequest * _duration */\n      swap1\n      pop\n        /* \"final project/General API Marketplace Token.sol\":4270:4330  token.safeTransferFrom(msg.sender, address(this), totalCost) */\n      tag_210\n        /* \"final project/General API Marketplace Token.sol\":4293:4303  msg.sender */\n      caller\n        /* \"final project/General API Marketplace Token.sol\":4313:4317  this */\n      address\n        /* \"final project/General API Marketplace Token.sol\":4320:4329  totalCost */\n      dup4\n        /* \"final project/General API Marketplace Token.sol\":4270:4275  token */\n      immutable(\"0x208ad8d9d4ca969ed7f17809392789f61ed5b8bb6f6790375ce7d972071a1fbe\")\n        /* \"final project/General API Marketplace Token.sol\":4270:4292  token.safeTransferFrom */\n      0xffffffffffffffffffffffffffffffffffffffff\n      and\n      tag_176\n      swap1\n        /* \"final project/General API Marketplace Token.sol\":4270:4330  token.safeTransferFrom(msg.sender, address(this), totalCost) */\n      swap4\n      swap3\n      swap2\n      swap1\n      0xffffffff\n      and\n      jump\t// in\n    tag_210:\n        /* \"final project/General API Marketplace Token.sol\":4413:4422  _duration */\n      dup3\n        /* \"final project/General API Marketplace Token.sol\":4395:4410  block.timestamp */\n      timestamp\n        /* \"final project/General API Marketplace Token.sol\":4395:4422  block.timestamp + _duration */\n      tag_211\n      swap2\n      swap1\n      tag_178\n      jump\t// in\n    tag_211:\n        /* \"final project/General API Marketplace Token.sol\":4343:4353  userUsages */\n      0x05\n        /* \"final project/General API Marketplace Token.sol\":4343:4365  userUsages[msg.sender] */\n      0x00\n        /* \"final project/General API Marketplace Token.sol\":4354:4364  msg.sender */\n      caller\n        /* \"final project/General API Marketplace Token.sol\":4343:4365  userUsages[msg.sender] */\n      0xffffffffffffffffffffffffffffffffffffffff\n      and\n      0xffffffffffffffffffffffffffffffffffffffff\n      and\n      dup2\n      mstore\n      0x20\n      add\n      swap1\n      dup2\n      mstore\n      0x20\n      add\n      0x00\n      keccak256\n        /* \"final project/General API Marketplace Token.sol\":4343:4384  userUsages[msg.sender].subscriptionExpiry */\n      0x01\n      add\n        /* \"final project/General API Marketplace Token.sol\":4343:4392  userUsages[msg.sender].subscriptionExpiry[_apiId] */\n      0x00\n        /* \"final project/General API Marketplace Token.sol\":4385:4391  _apiId */\n      dup7\n        /* \"final project/General API Marketplace Token.sol\":4343:4392  userUsages[msg.sender].subscriptionExpiry[_apiId] */\n      dup2\n      mstore\n      0x20\n      add\n      swap1\n      dup2\n      mstore\n      0x20\n      add\n      0x00\n      keccak256\n        /* \"final project/General API Marketplace Token.sol\":4343:4422  userUsages[msg.sender].subscriptionExpiry[_apiId] = block.timestamp + _duration */\n      dup2\n      swap1\n      sstore\n      pop\n        /* \"final project/General API Marketplace Token.sol\":4474:4480  _apiId */\n      dup4\n        /* \"final project/General API Marketplace Token.sol\":4462:4472  msg.sender */\n      caller\n        /* \"final project/General API Marketplace Token.sol\":4440:4492  SubscriptionPurchased(msg.sender, _apiId, _duration) */\n      0xffffffffffffffffffffffffffffffffffffffff\n      and\n      0x6d458fa94cc5b30d7877bed127c2029f98bc0cbc4634dc7789b6bc804fbdae03\n        /* \"final project/General API Marketplace Token.sol\":4482:4491  _duration */\n      dup6\n        /* \"final project/General API Marketplace Token.sol\":4440:4492  SubscriptionPurchased(msg.sender, _apiId, _duration) */\n      mload(0x40)\n      tag_212\n      swap2\n      swap1\n      tag_38\n      jump\t// in\n    tag_212:\n      mload(0x40)\n      dup1\n      swap2\n      sub\n      swap1\n      log3\n        /* \"final project/General API Marketplace Token.sol\":4030:4500  {... */\n      pop\n      pop\n        /* \"final project/General API Marketplace Token.sol\":3956:4500  function purchaseSubscription(uint256 _apiId, uint256 _duration) external {... */\n      pop\n      pop\n      jump\t// out\n        /* \"final project/General API Marketplace Token.sol\":4992:5267  function withdrawTokens() external onlyOwner nonReentrant {... */\n    tag_87:\n        /* \"final project/General API Marketplace Token.sol\":1979:2018  hasRole(DEFAULT_ADMIN_ROLE, msg.sender) */\n      tag_214\n        /* \"@openzeppelin/contracts/access/AccessControl.sol\":2232:2236  0x00 */\n      0x00\n        /* \"final project/General API Marketplace Token.sol\":1987:2005  DEFAULT_ADMIN_ROLE */\n      dup1\n      shl\n        /* \"final project/General API Marketplace Token.sol\":2007:2017  msg.sender */\n      caller\n        /* \"final project/General API Marketplace Token.sol\":1979:1986  hasRole */\n      tag_98\n        /* \"final project/General API Marketplace Token.sol\":1979:2018  hasRole(DEFAULT_ADMIN_ROLE, msg.sender) */\n      jump\t// in\n    tag_214:\n        /* \"final project/General API Marketplace Token.sol\":1971:2046  require(hasRole(DEFAULT_ADMIN_ROLE, msg.sender), \"Caller is not the owner\") */\n      tag_215\n      jumpi\n      mload(0x40)\n      0x08c379a000000000000000000000000000000000000000000000000000000000\n      dup2\n      mstore\n      0x04\n      add\n      tag_216\n      swap1\n      tag_130\n      jump\t// in\n    tag_216:\n      mload(0x40)\n      dup1\n      swap2\n      sub\n      swap1\n      revert\n    tag_215:\n        /* \"@openzeppelin/contracts/security/ReentrancyGuard.sol\":2261:2282  _nonReentrantBefore() */\n      tag_218\n        /* \"@openzeppelin/contracts/security/ReentrancyGuard.sol\":2261:2280  _nonReentrantBefore */\n      tag_219\n        /* \"@openzeppelin/contracts/security/ReentrancyGuard.sol\":2261:2282  _nonReentrantBefore() */\n      jump\t// in\n    tag_218:\n        /* \"final project/General API Marketplace Token.sol\":5061:5076  uint256 balance */\n      0x00\n        /* \"final project/General API Marketplace Token.sol\":5079:5084  token */\n      immutable(\"0x208ad8d9d4ca969ed7f17809392789f61ed5b8bb6f6790375ce7d972071a1fbe\")\n        /* \"final project/General API Marketplace Token.sol\":5079:5094  token.balanceOf */\n      0xffffffffffffffffffffffffffffffffffffffff\n      and\n      0x70a08231\n        /* \"final project/General API Marketplace Token.sol\":5103:5107  this */\n      address\n        /* \"final project/General API Marketplace Token.sol\":5079:5109  token.balanceOf(address(this)) */\n      mload(0x40)\n      dup3\n      0xffffffff\n      and\n      0xe0\n      shl\n      dup2\n      mstore\n      0x04\n      add\n      tag_221\n      swap2\n      swap1\n      tag_91\n      jump\t// in\n    tag_221:\n      0x20\n      mload(0x40)\n      dup1\n      dup4\n      sub\n      dup2\n      dup7\n      gas\n      staticcall\n      iszero\n      dup1\n      iszero\n      tag_223\n      jumpi\n      returndatasize\n      0x00\n      dup1\n      returndatacopy\n      revert(0x00, returndatasize)\n    tag_223:\n      pop\n      pop\n      pop\n      pop\n      mload(0x40)\n      returndatasize\n      not(0x1f)\n      0x1f\n      dup3\n      add\n      and\n      dup3\n      add\n      dup1\n      0x40\n      mstore\n      pop\n      dup2\n      add\n      swap1\n      tag_224\n      swap2\n      swap1\n      tag_225\n      jump\t// in\n    tag_224:\n        /* \"final project/General API Marketplace Token.sol\":5061:5109  uint256 balance = token.balanceOf(address(this)) */\n      swap1\n      pop\n        /* \"final project/General API Marketplace Token.sol\":5138:5139  0 */\n      0x00\n        /* \"final project/General API Marketplace Token.sol\":5128:5135  balance */\n      dup2\n        /* \"final project/General API Marketplace Token.sol\":5128:5139  balance > 0 */\n      gt\n        /* \"final project/General API Marketplace Token.sol\":5120:5165  require(balance > 0, \"No tokens to withdraw\") */\n      tag_226\n      jumpi\n      mload(0x40)\n      0x08c379a000000000000000000000000000000000000000000000000000000000\n      dup2\n      mstore\n      0x04\n      add\n      tag_227\n      swap1\n      tag_228\n      jump\t// in\n    tag_227:\n      mload(0x40)\n      dup1\n      swap2\n      sub\n      swap1\n      revert\n    tag_226:\n        /* \"final project/General API Marketplace Token.sol\":5178:5212  token.safeTransfer(owner, balance) */\n      tag_229\n        /* \"final project/General API Marketplace Token.sol\":5197:5202  owner */\n      0x02\n      0x00\n      swap1\n      sload\n      swap1\n      0x0100\n      exp\n      swap1\n      div\n      0xffffffffffffffffffffffffffffffffffffffff\n      and\n        /* \"final project/General API Marketplace Token.sol\":5204:5211  balance */\n      dup3\n        /* \"final project/General API Marketplace Token.sol\":5178:5183  token */\n      immutable(\"0x208ad8d9d4ca969ed7f17809392789f61ed5b8bb6f6790375ce7d972071a1fbe\")\n        /* \"final project/General API Marketplace Token.sol\":5178:5196  token.safeTransfer */\n      0xffffffffffffffffffffffffffffffffffffffff\n      and\n      tag_230\n      swap1\n        /* \"final project/General API Marketplace Token.sol\":5178:5212  token.safeTransfer(owner, balance) */\n      swap3\n      swap2\n      swap1\n      0xffffffff\n      and\n      jump\t// in\n    tag_229:\n        /* \"final project/General API Marketplace Token.sol\":5244:5249  owner */\n      0x02\n      0x00\n      swap1\n      sload\n      swap1\n      0x0100\n      exp\n      swap1\n      div\n      0xffffffffffffffffffffffffffffffffffffffff\n      and\n        /* \"final project/General API Marketplace Token.sol\":5228:5259  TokensWithdrawn(owner, balance) */\n      0xffffffffffffffffffffffffffffffffffffffff\n      and\n      0x6352c5382c4a4578e712449ca65e83cdb392d045dfcf1cad9615189db2da244b\n        /* \"final project/General API Marketplace Token.sol\":5251:5258  balance */\n      dup3\n        /* \"final project/General API Marketplace Token.sol\":5228:5259  TokensWithdrawn(owner, balance) */\n      mload(0x40)\n      tag_231\n      swap2\n      swap1\n      tag_38\n      jump\t// in\n    tag_231:\n      mload(0x40)\n      dup1\n      swap2\n      sub\n      swap1\n      log2\n        /* \"final project/General API Marketplace Token.sol\":5050:5267  {... */\n      pop\n        /* \"@openzeppelin/contracts/security/ReentrancyGuard.sol\":2303:2323  _nonReentrantAfter() */\n      tag_232\n        /* \"@openzeppelin/contracts/security/ReentrancyGuard.sol\":2303:2321  _nonReentrantAfter */\n      tag_233\n        /* \"@openzeppelin/contracts/security/ReentrancyGuard.sol\":2303:2323  _nonReentrantAfter() */\n      jump\t// in\n    tag_232:\n        /* \"final project/General API Marketplace Token.sol\":4992:5267  function withdrawTokens() external onlyOwner nonReentrant {... */\n      jump\t// out\n        /* \"final project/General API Marketplace Token.sol\":585:605  address public owner */\n    tag_89:\n      0x02\n      0x00\n      swap1\n      sload\n      swap1\n      0x0100\n      exp\n      swap1\n      div\n      0xffffffffffffffffffffffffffffffffffffffff\n      and\n      dup2\n      jump\t// out\n        /* \"final project/General API Marketplace Token.sol\":4508:4984  function useAPIAccess(uint256 _apiId) external {... */\n    tag_95:\n        /* \"final project/General API Marketplace Token.sol\":4583:4595  apiIdCounter */\n      sload(0x03)\n        /* \"final project/General API Marketplace Token.sol\":4574:4580  _apiId */\n      dup2\n        /* \"final project/General API Marketplace Token.sol\":4574:4595  _apiId < apiIdCounter */\n      lt\n        /* \"final project/General API Marketplace Token.sol\":4566:4618  require(_apiId < apiIdCounter, \"API does not exist\") */\n      tag_235\n      jumpi\n      mload(0x40)\n      0x08c379a000000000000000000000000000000000000000000000000000000000\n      dup2\n      mstore\n      0x04\n      add\n      tag_236\n      swap1\n      tag_125\n      jump\t// in\n    tag_236:\n      mload(0x40)\n      dup1\n      swap2\n      sub\n      swap1\n      revert\n    tag_235:\n        /* \"final project/General API Marketplace Token.sol\":4631:4652  APIAccess storage api */\n      0x00\n        /* \"final project/General API Marketplace Token.sol\":4655:4659  apis */\n      0x04\n        /* \"final project/General API Marketplace Token.sol\":4655:4667  apis[_apiId] */\n      0x00\n        /* \"final project/General API Marketplace Token.sol\":4660:4666  _apiId */\n      dup4\n        /* \"final project/General API Marketplace Token.sol\":4655:4667  apis[_apiId] */\n      dup2\n      mstore\n      0x20\n      add\n      swap1\n      dup2\n      mstore\n      0x20\n      add\n      0x00\n      keccak256\n        /* \"final project/General API Marketplace Token.sol\":4631:4667  APIAccess storage api = apis[_apiId] */\n      swap1\n      pop\n        /* \"final project/General API Marketplace Token.sol\":4686:4689  api */\n      dup1\n        /* \"final project/General API Marketplace Token.sol\":4686:4698  api.isActive */\n      0x03\n      add\n      0x00\n      swap1\n      sload\n      swap1\n      0x0100\n      exp\n      swap1\n      div\n      0xff\n      and\n        /* \"final project/General API Marketplace Token.sol\":4678:4720  require(api.isActive, \"API is not active\") */\n      tag_237\n      jumpi\n      mload(0x40)\n      0x08c379a000000000000000000000000000000000000000000000000000000000\n      dup2\n      mstore\n      0x04\n      add\n      tag_238\n      swap1\n      tag_167\n      jump\t// in\n    tag_238:\n      mload(0x40)\n      dup1\n      swap2\n      sub\n      swap1\n      revert\n    tag_237:\n        /* \"final project/General API Marketplace Token.sol\":4733:4750  uint256 remaining */\n      0x00\n        /* \"final project/General API Marketplace Token.sol\":4753:4763  userUsages */\n      0x05\n        /* \"final project/General API Marketplace Token.sol\":4753:4775  userUsages[msg.sender] */\n      0x00\n        /* \"final project/General API Marketplace Token.sol\":4764:4774  msg.sender */\n      caller\n        /* \"final project/General API Marketplace Token.sol\":4753:4775  userUsages[msg.sender] */\n      0xffffffffffffffffffffffffffffffffffffffff\n      and\n      0xffffffffffffffffffffffffffffffffffffffff\n      and\n      dup2\n      mstore\n      0x20\n      add\n      swap1\n      dup2\n      mstore\n      0x20\n      add\n      0x00\n      keccak256\n        /* \"final project/General API Marketplace Token.sol\":4753:4793  userUsages[msg.sender].remainingRequests */\n      0x00\n      add\n        /* \"final project/General API Marketplace Token.sol\":4753:4801  userUsages[msg.sender].remainingRequests[_apiId] */\n      0x00\n        /* \"final project/General API Marketplace Token.sol\":4794:4800  _apiId */\n      dup5\n        /* \"final project/General API Marketplace Token.sol\":4753:4801  userUsages[msg.sender].remainingRequests[_apiId] */\n      dup2\n      mstore\n      0x20\n      add\n      swap1\n      dup2\n      mstore\n      0x20\n      add\n      0x00\n      keccak256\n      sload\n        /* \"final project/General API Marketplace Token.sol\":4733:4801  uint256 remaining = userUsages[msg.sender].remainingRequests[_apiId] */\n      swap1\n      pop\n        /* \"final project/General API Marketplace Token.sol\":4832:4833  0 */\n      0x00\n        /* \"final project/General API Marketplace Token.sol\":4820:4829  remaining */\n      dup2\n        /* \"final project/General API Marketplace Token.sol\":4820:4833  remaining > 0 */\n      gt\n        /* \"final project/General API Marketplace Token.sol\":4812:4863  require(remaining > 0, \"No remaining API requests\") */\n      tag_239\n      jumpi\n      mload(0x40)\n      0x08c379a000000000000000000000000000000000000000000000000000000000\n      dup2\n      mstore\n      0x04\n      add\n      tag_240\n      swap1\n      tag_241\n      jump\t// in\n    tag_240:\n      mload(0x40)\n      dup1\n      swap2\n      sub\n      swap1\n      revert\n    tag_239:\n        /* \"final project/General API Marketplace Token.sol\":4928:4929  1 */\n      0x01\n        /* \"final project/General API Marketplace Token.sol\":4876:4886  userUsages */\n      0x05\n        /* \"final project/General API Marketplace Token.sol\":4876:4898  userUsages[msg.sender] */\n      0x00\n        /* \"final project/General API Marketplace Token.sol\":4887:4897  msg.sender */\n      caller\n        /* \"final project/General API Marketplace Token.sol\":4876:4898  userUsages[msg.sender] */\n      0xffffffffffffffffffffffffffffffffffffffff\n      and\n      0xffffffffffffffffffffffffffffffffffffffff\n      and\n      dup2\n      mstore\n      0x20\n      add\n      swap1\n      dup2\n      mstore\n      0x20\n      add\n      0x00\n      keccak256\n        /* \"final project/General API Marketplace Token.sol\":4876:4916  userUsages[msg.sender].remainingRequests */\n      0x00\n      add\n        /* \"final project/General API Marketplace Token.sol\":4876:4924  userUsages[msg.sender].remainingRequests[_apiId] */\n      0x00\n        /* \"final project/General API Marketplace Token.sol\":4917:4923  _apiId */\n      dup6\n        /* \"final project/General API Marketplace Token.sol\":4876:4924  userUsages[msg.sender].remainingRequests[_apiId] */\n      dup2\n      mstore\n      0x20\n      add\n      swap1\n      dup2\n      mstore\n      0x20\n      add\n      0x00\n      keccak256\n      0x00\n        /* \"final project/General API Marketplace Token.sol\":4876:4929  userUsages[msg.sender].remainingRequests[_apiId] -= 1 */\n      dup3\n      dup3\n      sload\n      tag_242\n      swap2\n      swap1\n      tag_243\n      jump\t// in\n    tag_242:\n      swap3\n      pop\n      pop\n      dup2\n      swap1\n      sstore\n      pop\n        /* \"final project/General API Marketplace Token.sol\":4969:4975  _apiId */\n      dup3\n        /* \"final project/General API Marketplace Token.sol\":4957:4967  msg.sender */\n      caller\n        /* \"final project/General API Marketplace Token.sol\":4945:4976  APICallMade(msg.sender, _apiId) */\n      0xffffffffffffffffffffffffffffffffffffffff\n      and\n      0x7598affe5bb8b864e84f0b819f6b046054c8f0d6771e8ae086411b5dd2a8bc12\n      mload(0x40)\n      mload(0x40)\n      dup1\n      swap2\n      sub\n      swap1\n      log3\n        /* \"final project/General API Marketplace Token.sol\":4555:4984  {... */\n      pop\n      pop\n        /* \"final project/General API Marketplace Token.sol\":4508:4984  function useAPIAccess(uint256 _apiId) external {... */\n      pop\n      jump\t// out\n        /* \"@openzeppelin/contracts/access/AccessControl.sol\":2854:2990  function hasRole(bytes32 role, address account) public view virtual returns (bool) {... */\n    tag_98:\n        /* \"@openzeppelin/contracts/access/AccessControl.sol\":2931:2935  bool */\n      0x00\n        /* \"@openzeppelin/contracts/access/AccessControl.sol\":2954:2960  _roles */\n      0x01\n        /* \"@openzeppelin/contracts/access/AccessControl.sol\":2954:2966  _roles[role] */\n      0x00\n        /* \"@openzeppelin/contracts/access/AccessControl.sol\":2961:2965  role */\n      dup5\n        /* \"@openzeppelin/contracts/access/AccessControl.sol\":2954:2966  _roles[role] */\n      dup2\n      mstore\n      0x20\n      add\n      swap1\n      dup2\n      mstore\n      0x20\n      add\n      0x00\n      keccak256\n        /* \"@openzeppelin/contracts/access/AccessControl.sol\":2954:2974  _roles[role].hasRole */\n      0x00\n      add\n        /* \"@openzeppelin/contracts/access/AccessControl.sol\":2954:2983  _roles[role].hasRole[account] */\n      0x00\n        /* \"@openzeppelin/contracts/access/AccessControl.sol\":2975:2982  account */\n      dup4\n        /* \"@openzeppelin/contracts/access/AccessControl.sol\":2954:2983  _roles[role].hasRole[account] */\n      0xffffffffffffffffffffffffffffffffffffffff\n      and\n      0xffffffffffffffffffffffffffffffffffffffff\n      and\n      dup2\n      mstore\n      0x20\n      add\n      swap1\n      dup2\n      mstore\n      0x20\n      add\n      0x00\n      keccak256\n      0x00\n      swap1\n      sload\n      swap1\n      0x0100\n      exp\n      swap1\n      div\n      0xff\n      and\n        /* \"@openzeppelin/contracts/access/AccessControl.sol\":2947:2983  return _roles[role].hasRole[account] */\n      swap1\n      pop\n        /* \"@openzeppelin/contracts/access/AccessControl.sol\":2854:2990  function hasRole(bytes32 role, address account) public view virtual returns (bool) {... */\n      swap3\n      swap2\n      pop\n      pop\n      jump\t// out\n        /* \"@openzeppelin/contracts/access/AccessControl.sol\":2187:2236  bytes32 public constant DEFAULT_ADMIN_ROLE = 0x00 */\n    tag_101:\n        /* \"@openzeppelin/contracts/access/AccessControl.sol\":2232:2236  0x00 */\n      0x00\n        /* \"@openzeppelin/contracts/access/AccessControl.sol\":2187:2236  bytes32 public constant DEFAULT_ADMIN_ROLE = 0x00 */\n      dup1\n      shl\n      dup2\n      jump\t// out\n        /* \"final project/General API Marketplace Token.sol\":1007:1048  mapping(uint256 => APIAccess) public apis */\n    tag_105:\n      mstore(0x20, 0x04)\n      dup1\n      0x00\n      mstore\n      keccak256(0x00, 0x40)\n      0x00\n      swap2\n      pop\n      swap1\n      pop\n      dup1\n      0x00\n      add\n      dup1\n      sload\n      tag_245\n      swap1\n      tag_246\n      jump\t// in\n    tag_245:\n      dup1\n      0x1f\n      add\n      0x20\n      dup1\n      swap2\n      div\n      mul\n      0x20\n      add\n      mload(0x40)\n      swap1\n      dup2\n      add\n      0x40\n      mstore\n      dup1\n      swap3\n      swap2\n      swap1\n      dup2\n      dup2\n      mstore\n      0x20\n      add\n      dup3\n      dup1\n      sload\n      tag_247\n      swap1\n      tag_246\n      jump\t// in\n    tag_247:\n      dup1\n      iszero\n      tag_248\n      jumpi\n      dup1\n      0x1f\n      lt\n      tag_249\n      jumpi\n      0x0100\n      dup1\n      dup4\n      sload\n      div\n      mul\n      dup4\n      mstore\n      swap2\n      0x20\n      add\n      swap2\n      jump(tag_248)\n    tag_249:\n      dup3\n      add\n      swap2\n      swap1\n      0x00\n      mstore\n      keccak256(0x00, 0x20)\n      swap1\n    tag_250:\n      dup2\n      sload\n      dup2\n      mstore\n      swap1\n      0x01\n      add\n      swap1\n      0x20\n      add\n      dup1\n      dup4\n      gt\n      tag_250\n      jumpi\n      dup3\n      swap1\n      sub\n      0x1f\n      and\n      dup3\n      add\n      swap2\n    tag_248:\n      pop\n      pop\n      pop\n      pop\n      pop\n      swap1\n      dup1\n      0x01\n      add\n      sload\n      swap1\n      dup1\n      0x02\n      add\n      sload\n      swap1\n      dup1\n      0x03\n      add\n      0x00\n      swap1\n      sload\n      swap1\n      0x0100\n      exp\n      swap1\n      div\n      0xff\n      and\n      swap1\n      pop\n      dup5\n      jump\t// out\n        /* \"final project/General API Marketplace Token.sol\":5275:5887  function refundUnusedRequests(uint256 _apiId) external {... */\n    tag_110:\n        /* \"final project/General API Marketplace Token.sol\":5358:5370  apiIdCounter */\n      sload(0x03)\n        /* \"final project/General API Marketplace Token.sol\":5349:5355  _apiId */\n      dup2\n        /* \"final project/General API Marketplace Token.sol\":5349:5370  _apiId < apiIdCounter */\n      lt\n        /* \"final project/General API Marketplace Token.sol\":5341:5393  require(_apiId < apiIdCounter, \"API does not exist\") */\n      tag_252\n      jumpi\n      mload(0x40)\n      0x08c379a000000000000000000000000000000000000000000000000000000000\n      dup2\n      mstore\n      0x04\n      add\n      tag_253\n      swap1\n      tag_125\n      jump\t// in\n    tag_253:\n      mload(0x40)\n      dup1\n      swap2\n      sub\n      swap1\n      revert\n    tag_252:\n        /* \"final project/General API Marketplace Token.sol\":5413:5417  apis */\n      0x04\n        /* \"final project/General API Marketplace Token.sol\":5413:5425  apis[_apiId] */\n      0x00\n        /* \"final project/General API Marketplace Token.sol\":5418:5424  _apiId */\n      dup3\n        /* \"final project/General API Marketplace Token.sol\":5413:5425  apis[_apiId] */\n      dup2\n      mstore\n      0x20\n      add\n      swap1\n      dup2\n      mstore\n      0x20\n      add\n      0x00\n      keccak256\n        /* \"final project/General API Marketplace Token.sol\":5413:5434  apis[_apiId].isActive */\n      0x03\n      add\n      0x00\n      swap1\n      sload\n      swap1\n      0x0100\n      exp\n      swap1\n      div\n      0xff\n      and\n        /* \"final project/General API Marketplace Token.sol\":5412:5434  !apis[_apiId].isActive */\n      iszero\n        /* \"final project/General API Marketplace Token.sol\":5404:5458  require(!apis[_apiId].isActive, \"API is still active\") */\n      tag_254\n      jumpi\n      mload(0x40)\n      0x08c379a000000000000000000000000000000000000000000000000000000000\n      dup2\n      mstore\n      0x04\n      add\n      tag_255\n      swap1\n      tag_256\n      jump\t// in\n    tag_255:\n      mload(0x40)\n      dup1\n      swap2\n      sub\n      swap1\n      revert\n    tag_254:\n        /* \"final project/General API Marketplace Token.sol\":5471:5496  uint256 remainingRequests */\n      0x00\n        /* \"final project/General API Marketplace Token.sol\":5499:5509  userUsages */\n      0x05\n        /* \"final project/General API Marketplace Token.sol\":5499:5521  userUsages[msg.sender] */\n      0x00\n        /* \"final project/General API Marketplace Token.sol\":5510:5520  msg.sender */\n      caller\n        /* \"final project/General API Marketplace Token.sol\":5499:5521  userUsages[msg.sender] */\n      0xffffffffffffffffffffffffffffffffffffffff\n      and\n      0xffffffffffffffffffffffffffffffffffffffff\n      and\n      dup2\n      mstore\n      0x20\n      add\n      swap1\n      dup2\n      mstore\n      0x20\n      add\n      0x00\n      keccak256\n        /* \"final project/General API Marketplace Token.sol\":5499:5539  userUsages[msg.sender].remainingRequests */\n      0x00\n      add\n        /* \"final project/General API Marketplace Token.sol\":5499:5547  userUsages[msg.sender].remainingRequests[_apiId] */\n      0x00\n        /* \"final project/General API Marketplace Token.sol\":5540:5546  _apiId */\n      dup4\n        /* \"final project/General API Marketplace Token.sol\":5499:5547  userUsages[msg.sender].remainingRequests[_apiId] */\n      dup2\n      mstore\n      0x20\n      add\n      swap1\n      dup2\n      mstore\n      0x20\n      add\n      0x00\n      keccak256\n      sload\n        /* \"final project/General API Marketplace Token.sol\":5471:5547  uint256 remainingRequests = userUsages[msg.sender].remainingRequests[_apiId] */\n      swap1\n      pop\n        /* \"final project/General API Marketplace Token.sol\":5586:5587  0 */\n      0x00\n        /* \"final project/General API Marketplace Token.sol\":5566:5583  remainingRequests */\n      dup2\n        /* \"final project/General API Marketplace Token.sol\":5566:5587  remainingRequests > 0 */\n      gt\n        /* \"final project/General API Marketplace Token.sol\":5558:5613  require(remainingRequests > 0, \"No requests to refund\") */\n      tag_257\n      jumpi\n      mload(0x40)\n      0x08c379a000000000000000000000000000000000000000000000000000000000\n      dup2\n      mstore\n      0x04\n      add\n      tag_258\n      swap1\n      tag_259\n      jump\t// in\n    tag_258:\n      mload(0x40)\n      dup1\n      swap2\n      sub\n      swap1\n      revert\n    tag_257:\n        /* \"final project/General API Marketplace Token.sol\":5626:5646  uint256 refundAmount */\n      0x00\n        /* \"final project/General API Marketplace Token.sol\":5669:5673  apis */\n      0x04\n        /* \"final project/General API Marketplace Token.sol\":5669:5681  apis[_apiId] */\n      0x00\n        /* \"final project/General API Marketplace Token.sol\":5674:5680  _apiId */\n      dup5\n        /* \"final project/General API Marketplace Token.sol\":5669:5681  apis[_apiId] */\n      dup2\n      mstore\n      0x20\n      add\n      swap1\n      dup2\n      mstore\n      0x20\n      add\n      0x00\n      keccak256\n        /* \"final project/General API Marketplace Token.sol\":5669:5697  apis[_apiId].pricePerRequest */\n      0x01\n      add\n      sload\n        /* \"final project/General API Marketplace Token.sol\":5649:5666  remainingRequests */\n      dup3\n        /* \"final project/General API Marketplace Token.sol\":5649:5697  remainingRequests * apis[_apiId].pricePerRequest */\n      tag_260\n      swap2\n      swap1\n      tag_169\n      jump\t// in\n    tag_260:\n        /* \"final project/General API Marketplace Token.sol\":5626:5697  uint256 refundAmount = remainingRequests * apis[_apiId].pricePerRequest */\n      swap1\n      pop\n        /* \"final project/General API Marketplace Token.sol\":5759:5760  0 */\n      0x00\n        /* \"final project/General API Marketplace Token.sol\":5708:5718  userUsages */\n      0x05\n        /* \"final project/General API Marketplace Token.sol\":5708:5730  userUsages[msg.sender] */\n      0x00\n        /* \"final project/General API Marketplace Token.sol\":5719:5729  msg.sender */\n      caller\n        /* \"final project/General API Marketplace Token.sol\":5708:5730  userUsages[msg.sender] */\n      0xffffffffffffffffffffffffffffffffffffffff\n      and\n      0xffffffffffffffffffffffffffffffffffffffff\n      and\n      dup2\n      mstore\n      0x20\n      add\n      swap1\n      dup2\n      mstore\n      0x20\n      add\n      0x00\n      keccak256\n        /* \"final project/General API Marketplace Token.sol\":5708:5748  userUsages[msg.sender].remainingRequests */\n      0x00\n      add\n        /* \"final project/General API Marketplace Token.sol\":5708:5756  userUsages[msg.sender].remainingRequests[_apiId] */\n      0x00\n        /* \"final project/General API Marketplace Token.sol\":5749:5755  _apiId */\n      dup6\n        /* \"final project/General API Marketplace Token.sol\":5708:5756  userUsages[msg.sender].remainingRequests[_apiId] */\n      dup2\n      mstore\n      0x20\n      add\n      swap1\n      dup2\n      mstore\n      0x20\n      add\n      0x00\n      keccak256\n        /* \"final project/General API Marketplace Token.sol\":5708:5760  userUsages[msg.sender].remainingRequests[_apiId] = 0 */\n      dup2\n      swap1\n      sstore\n      pop\n        /* \"final project/General API Marketplace Token.sol\":5773:5817  token.safeTransfer(msg.sender, refundAmount) */\n      tag_261\n        /* \"final project/General API Marketplace Token.sol\":5792:5802  msg.sender */\n      caller\n        /* \"final project/General API Marketplace Token.sol\":5804:5816  refundAmount */\n      dup3\n        /* \"final project/General API Marketplace Token.sol\":5773:5778  token */\n      immutable(\"0x208ad8d9d4ca969ed7f17809392789f61ed5b8bb6f6790375ce7d972071a1fbe\")\n        /* \"final project/General API Marketplace Token.sol\":5773:5791  token.safeTransfer */\n      0xffffffffffffffffffffffffffffffffffffffff\n      and\n      tag_230\n      swap1\n        /* \"final project/General API Marketplace Token.sol\":5773:5817  token.safeTransfer(msg.sender, refundAmount) */\n      swap3\n      swap2\n      swap1\n      0xffffffff\n      and\n      jump\t// in\n    tag_261:\n        /* \"final project/General API Marketplace Token.sol\":5858:5864  _apiId */\n      dup3\n        /* \"final project/General API Marketplace Token.sol\":5846:5856  msg.sender */\n      caller\n        /* \"final project/General API Marketplace Token.sol\":5833:5879  RefundIssued(msg.sender, _apiId, refundAmount) */\n      0xffffffffffffffffffffffffffffffffffffffff\n      and\n      0x93c496f36ecab5f5583f216646cac3acb12a63aeacddb1a9251ceb81f0ee36e7\n        /* \"final project/General API Marketplace Token.sol\":5866:5878  refundAmount */\n      dup4\n        /* \"final project/General API Marketplace Token.sol\":5833:5879  RefundIssued(msg.sender, _apiId, refundAmount) */\n      mload(0x40)\n      tag_262\n      swap2\n      swap1\n      tag_38\n      jump\t// in\n    tag_262:\n      mload(0x40)\n      dup1\n      swap2\n      sub\n      swap1\n      log3\n        /* \"final project/General API Marketplace Token.sol\":5330:5887  {... */\n      pop\n      pop\n        /* \"final project/General API Marketplace Token.sol\":5275:5887  function refundUnusedRequests(uint256 _apiId) external {... */\n      pop\n      jump\t// out\n        /* \"@openzeppelin/contracts/access/AccessControl.sol\":4642:4780  function revokeRole(bytes32 role, address account) public virtual onlyRole(getRoleAdmin(role)) {... */\n    tag_113:\n        /* \"@openzeppelin/contracts/access/AccessControl.sol\":4717:4735  getRoleAdmin(role) */\n      tag_263\n        /* \"@openzeppelin/contracts/access/AccessControl.sol\":4730:4734  role */\n      dup3\n        /* \"@openzeppelin/contracts/access/AccessControl.sol\":4717:4729  getRoleAdmin */\n      tag_51\n        /* \"@openzeppelin/contracts/access/AccessControl.sol\":4717:4735  getRoleAdmin(role) */\n      jump\t// in\n    tag_263:\n        /* \"@openzeppelin/contracts/access/AccessControl.sol\":2464:2480  _checkRole(role) */\n      tag_265\n        /* \"@openzeppelin/contracts/access/AccessControl.sol\":2475:2479  role */\n      dup2\n        /* \"@openzeppelin/contracts/access/AccessControl.sol\":2464:2474  _checkRole */\n      tag_146\n        /* \"@openzeppelin/contracts/access/AccessControl.sol\":2464:2480  _checkRole(role) */\n      jump\t// in\n    tag_265:\n        /* \"@openzeppelin/contracts/access/AccessControl.sol\":4747:4773  _revokeRole(role, account) */\n      tag_267\n        /* \"@openzeppelin/contracts/access/AccessControl.sol\":4759:4763  role */\n      dup4\n        /* \"@openzeppelin/contracts/access/AccessControl.sol\":4765:4772  account */\n      dup4\n        /* \"@openzeppelin/contracts/access/AccessControl.sol\":4747:4758  _revokeRole */\n      tag_155\n        /* \"@openzeppelin/contracts/access/AccessControl.sol\":4747:4773  _revokeRole(role, account) */\n      jump\t// in\n    tag_267:\n      pop\n        /* \"@openzeppelin/contracts/access/AccessControl.sol\":4642:4780  function revokeRole(bytes32 role, address account) public virtual onlyRole(getRoleAdmin(role)) {... */\n      pop\n      pop\n      pop\n      jump\t// out\n        /* \"final project/General API Marketplace Token.sol\":549:578  IERC20 public immutable token */\n    tag_115:\n      immutable(\"0x208ad8d9d4ca969ed7f17809392789f61ed5b8bb6f6790375ce7d972071a1fbe\")\n      dup2\n      jump\t// out\n        /* \"@openzeppelin/contracts/utils/introspection/ERC165.sol\":763:909  function supportsInterface(bytes4 interfaceId) public view virtual returns (bool) {... */\n    tag_121:\n        /* \"@openzeppelin/contracts/utils/introspection/ERC165.sol\":839:843  bool */\n      0x00\n        /* \"@openzeppelin/contracts/utils/introspection/ERC165.sol\":877:902  type(IERC165).interfaceId */\n      0x01ffc9a700000000000000000000000000000000000000000000000000000000\n        /* \"@openzeppelin/contracts/utils/introspection/ERC165.sol\":862:902  interfaceId == type(IERC165).interfaceId */\n      not(0xffffffffffffffffffffffffffffffffffffffffffffffffffffffff)\n      and\n        /* \"@openzeppelin/contracts/utils/introspection/ERC165.sol\":862:873  interfaceId */\n      dup3\n        /* \"@openzeppelin/contracts/utils/introspection/ERC165.sol\":862:902  interfaceId == type(IERC165).interfaceId */\n      not(0xffffffffffffffffffffffffffffffffffffffffffffffffffffffff)\n      and\n      eq\n        /* \"@openzeppelin/contracts/utils/introspection/ERC165.sol\":855:902  return interfaceId == type(IERC165).interfaceId */\n      swap1\n      pop\n        /* \"@openzeppelin/contracts/utils/introspection/ERC165.sol\":763:909  function supportsInterface(bytes4 interfaceId) public view virtual returns (bool) {... */\n      swap2\n      swap1\n      pop\n      jump\t// out\n        /* \"@openzeppelin/contracts/access/AccessControl.sol\":3199:3302  function _checkRole(bytes32 role) internal view virtual {... */\n    tag_146:\n        /* \"@openzeppelin/contracts/access/AccessControl.sol\":3265:3295  _checkRole(role, _msgSender()) */\n      tag_270\n        /* \"@openzeppelin/contracts/access/AccessControl.sol\":3276:3280  role */\n      dup2\n        /* \"@openzeppelin/contracts/access/AccessControl.sol\":3282:3294  _msgSender() */\n      tag_271\n        /* \"@openzeppelin/contracts/access/AccessControl.sol\":3282:3292  _msgSender */\n      tag_152\n        /* \"@openzeppelin/contracts/access/AccessControl.sol\":3282:3294  _msgSender() */\n      jump\t// in\n    tag_271:\n        /* \"@openzeppelin/contracts/access/AccessControl.sol\":3265:3275  _checkRole */\n      tag_272\n        /* \"@openzeppelin/contracts/access/AccessControl.sol\":3265:3295  _checkRole(role, _msgSender()) */\n      jump\t// in\n    tag_270:\n        /* \"@openzeppelin/contracts/access/AccessControl.sol\":3199:3302  function _checkRole(bytes32 role) internal view virtual {... */\n      pop\n      jump\t// out\n        /* \"@openzeppelin/contracts/access/AccessControl.sol\":6179:6495  function _grantRole(bytes32 role, address account) internal virtual returns (bool) {... */\n    tag_149:\n        /* \"@openzeppelin/contracts/access/AccessControl.sol\":6256:6260  bool */\n      0x00\n        /* \"@openzeppelin/contracts/access/AccessControl.sol\":6277:6299  hasRole(role, account) */\n      tag_274\n        /* \"@openzeppelin/contracts/access/AccessControl.sol\":6285:6289  role */\n      dup4\n        /* \"@openzeppelin/contracts/access/AccessControl.sol\":6291:6298  account */\n      dup4\n        /* \"@openzeppelin/contracts/access/AccessControl.sol\":6277:6284  hasRole */\n      tag_98\n        /* \"@openzeppelin/contracts/access/AccessControl.sol\":6277:6299  hasRole(role, account) */\n      jump\t// in\n    tag_274:\n        /* \"@openzeppelin/contracts/access/AccessControl.sol\":6272:6489  if (!hasRole(role, account)) {... */\n      tag_275\n      jumpi\n        /* \"@openzeppelin/contracts/access/AccessControl.sol\":6347:6351  true */\n      0x01\n        /* \"@openzeppelin/contracts/access/AccessControl.sol\":6315:6321  _roles */\n      dup1\n        /* \"@openzeppelin/contracts/access/AccessControl.sol\":6315:6327  _roles[role] */\n      0x00\n        /* \"@openzeppelin/contracts/access/AccessControl.sol\":6322:6326  role */\n      dup6\n        /* \"@openzeppelin/contracts/access/AccessControl.sol\":6315:6327  _roles[role] */\n      dup2\n      mstore\n      0x20\n      add\n      swap1\n      dup2\n      mstore\n      0x20\n      add\n      0x00\n      keccak256\n        /* \"@openzeppelin/contracts/access/AccessControl.sol\":6315:6335  _roles[role].hasRole */\n      0x00\n      add\n        /* \"@openzeppelin/contracts/access/AccessControl.sol\":6315:6344  _roles[role].hasRole[account] */\n      0x00\n        /* \"@openzeppelin/contracts/access/AccessControl.sol\":6336:6343  account */\n      dup5\n        /* \"@openzeppelin/contracts/access/AccessControl.sol\":6315:6344  _roles[role].hasRole[account] */\n      0xffffffffffffffffffffffffffffffffffffffff\n      and\n      0xffffffffffffffffffffffffffffffffffffffff\n      and\n      dup2\n      mstore\n      0x20\n      add\n      swap1\n      dup2\n      mstore\n      0x20\n      add\n      0x00\n      keccak256\n      0x00\n        /* \"@openzeppelin/contracts/access/AccessControl.sol\":6315:6351  _roles[role].hasRole[account] = true */\n      0x0100\n      exp\n      dup2\n      sload\n      dup2\n      0xff\n      mul\n      not\n      and\n      swap1\n      dup4\n      iszero\n      iszero\n      mul\n      or\n      swap1\n      sstore\n      pop\n        /* \"@openzeppelin/contracts/access/AccessControl.sol\":6397:6409  _msgSender() */\n      tag_276\n        /* \"@openzeppelin/contracts/access/AccessControl.sol\":6397:6407  _msgSender */\n      tag_152\n        /* \"@openzeppelin/contracts/access/AccessControl.sol\":6397:6409  _msgSender() */\n      jump\t// in\n    tag_276:\n        /* \"@openzeppelin/contracts/access/AccessControl.sol\":6370:6410  RoleGranted(role, account, _msgSender()) */\n      0xffffffffffffffffffffffffffffffffffffffff\n      and\n        /* \"@openzeppelin/contracts/access/AccessControl.sol\":6388:6395  account */\n      dup3\n        /* \"@openzeppelin/contracts/access/AccessControl.sol\":6370:6410  RoleGranted(role, account, _msgSender()) */\n      0xffffffffffffffffffffffffffffffffffffffff\n      and\n        /* \"@openzeppelin/contracts/access/AccessControl.sol\":6382:6386  role */\n      dup5\n        /* \"@openzeppelin/contracts/access/AccessControl.sol\":6370:6410  RoleGranted(role, account, _msgSender()) */\n      0x2f8788117e7eff1d82e926ec794901d17c78024a50270940304540a733656f0d\n      mload(0x40)\n      mload(0x40)\n      dup1\n      swap2\n      sub\n      swap1\n      log4\n        /* \"@openzeppelin/contracts/access/AccessControl.sol\":6431:6435  true */\n      0x01\n        /* \"@openzeppelin/contracts/access/AccessControl.sol\":6424:6435  return true */\n      swap1\n      pop\n      jump(tag_273)\n        /* \"@openzeppelin/contracts/access/AccessControl.sol\":6272:6489  if (!hasRole(role, account)) {... */\n    tag_275:\n        /* \"@openzeppelin/contracts/access/AccessControl.sol\":6473:6478  false */\n      0x00\n        /* \"@openzeppelin/contracts/access/AccessControl.sol\":6466:6478  return false */\n      swap1\n      pop\n        /* \"@openzeppelin/contracts/access/AccessControl.sol\":6179:6495  function _grantRole(bytes32 role, address account) internal virtual returns (bool) {... */\n    tag_273:\n      swap3\n      swap2\n      pop\n      pop\n      jump\t// out\n        /* \"@openzeppelin/contracts/utils/Context.sol\":656:752  function _msgSender() internal view virtual returns (address) {... */\n    tag_152:\n        /* \"@openzeppelin/contracts/utils/Context.sol\":709:716  address */\n      0x00\n        /* \"@openzeppelin/contracts/utils/Context.sol\":735:745  msg.sender */\n      caller\n        /* \"@openzeppelin/contracts/utils/Context.sol\":728:745  return msg.sender */\n      swap1\n      pop\n        /* \"@openzeppelin/contracts/utils/Context.sol\":656:752  function _msgSender() internal view virtual returns (address) {... */\n      swap1\n      jump\t// out\n        /* \"@openzeppelin/contracts/access/AccessControl.sol\":6730:7047  function _revokeRole(bytes32 role, address account) internal virtual returns (bool) {... */\n    tag_155:\n        /* \"@openzeppelin/contracts/access/AccessControl.sol\":6808:6812  bool */\n      0x00\n        /* \"@openzeppelin/contracts/access/AccessControl.sol\":6828:6850  hasRole(role, account) */\n      tag_280\n        /* \"@openzeppelin/contracts/access/AccessControl.sol\":6836:6840  role */\n      dup4\n        /* \"@openzeppelin/contracts/access/AccessControl.sol\":6842:6849  account */\n      dup4\n        /* \"@openzeppelin/contracts/access/AccessControl.sol\":6828:6835  hasRole */\n      tag_98\n        /* \"@openzeppelin/contracts/access/AccessControl.sol\":6828:6850  hasRole(role, account) */\n      jump\t// in\n    tag_280:\n        /* \"@openzeppelin/contracts/access/AccessControl.sol\":6824:7041  if (hasRole(role, account)) {... */\n      iszero\n      tag_281\n      jumpi\n        /* \"@openzeppelin/contracts/access/AccessControl.sol\":6898:6903  false */\n      0x00\n        /* \"@openzeppelin/contracts/access/AccessControl.sol\":6866:6872  _roles */\n      0x01\n        /* \"@openzeppelin/contracts/access/AccessControl.sol\":6866:6878  _roles[role] */\n      0x00\n        /* \"@openzeppelin/contracts/access/AccessControl.sol\":6873:6877  role */\n      dup6\n        /* \"@openzeppelin/contracts/access/AccessControl.sol\":6866:6878  _roles[role] */\n      dup2\n      mstore\n      0x20\n      add\n      swap1\n      dup2\n      mstore\n      0x20\n      add\n      0x00\n      keccak256\n        /* \"@openzeppelin/contracts/access/AccessControl.sol\":6866:6886  _roles[role].hasRole */\n      0x00\n      add\n        /* \"@openzeppelin/contracts/access/AccessControl.sol\":6866:6895  _roles[role].hasRole[account] */\n      0x00\n        /* \"@openzeppelin/contracts/access/AccessControl.sol\":6887:6894  account */\n      dup5\n        /* \"@openzeppelin/contracts/access/AccessControl.sol\":6866:6895  _roles[role].hasRole[account] */\n      0xffffffffffffffffffffffffffffffffffffffff\n      and\n      0xffffffffffffffffffffffffffffffffffffffff\n      and\n      dup2\n      mstore\n      0x20\n      add\n      swap1\n      dup2\n      mstore\n      0x20\n      add\n      0x00\n      keccak256\n      0x00\n        /* \"@openzeppelin/contracts/access/AccessControl.sol\":6866:6903  _roles[role].hasRole[account] = false */\n      0x0100\n      exp\n      dup2\n      sload\n      dup2\n      0xff\n      mul\n      not\n      and\n      swap1\n      dup4\n      iszero\n      iszero\n      mul\n      or\n      swap1\n      sstore\n      pop\n        /* \"@openzeppelin/contracts/access/AccessControl.sol\":6949:6961  _msgSender() */\n      tag_282\n        /* \"@openzeppelin/contracts/access/AccessControl.sol\":6949:6959  _msgSender */\n      tag_152\n        /* \"@openzeppelin/contracts/access/AccessControl.sol\":6949:6961  _msgSender() */\n      jump\t// in\n    tag_282:\n        /* \"@openzeppelin/contracts/access/AccessControl.sol\":6922:6962  RoleRevoked(role, account, _msgSender()) */\n      0xffffffffffffffffffffffffffffffffffffffff\n      and\n        /* \"@openzeppelin/contracts/access/AccessControl.sol\":6940:6947  account */\n      dup3\n        /* \"@openzeppelin/contracts/access/AccessControl.sol\":6922:6962  RoleRevoked(role, account, _msgSender()) */\n      0xffffffffffffffffffffffffffffffffffffffff\n      and\n        /* \"@openzeppelin/contracts/access/AccessControl.sol\":6934:6938  role */\n      dup5\n        /* \"@openzeppelin/contracts/access/AccessControl.sol\":6922:6962  RoleRevoked(role, account, _msgSender()) */\n      0xf6391f5c32d9c69d2a47ea670b442974b53935d1edc7fd64eb21e047a839171b\n      mload(0x40)\n      mload(0x40)\n      dup1\n      swap2\n      sub\n      swap1\n      log4\n        /* \"@openzeppelin/contracts/access/AccessControl.sol\":6983:6987  true */\n      0x01\n        /* \"@openzeppelin/contracts/access/AccessControl.sol\":6976:6987  return true */\n      swap1\n      pop\n      jump(tag_279)\n        /* \"@openzeppelin/contracts/access/AccessControl.sol\":6824:7041  if (hasRole(role, account)) {... */\n    tag_281:\n        /* \"@openzeppelin/contracts/access/AccessControl.sol\":7025:7030  false */\n      0x00\n        /* \"@openzeppelin/contracts/access/AccessControl.sol\":7018:7030  return false */\n      swap1\n      pop\n        /* \"@openzeppelin/contracts/access/AccessControl.sol\":6730:7047  function _revokeRole(bytes32 role, address account) internal virtual returns (bool) {... */\n    tag_279:\n      swap3\n      swap2\n      pop\n      pop\n      jump\t// out\n        /* \"@openzeppelin/contracts/token/ERC20/utils/SafeERC20.sol\":1618:1806  function safeTransferFrom(IERC20 token, address from, address to, uint256 value) internal {... */\n    tag_176:\n        /* \"@openzeppelin/contracts/token/ERC20/utils/SafeERC20.sol\":1718:1799  _callOptionalReturn(token, abi.encodeCall(token.transferFrom, (from, to, value))) */\n      tag_285\n        /* \"@openzeppelin/contracts/token/ERC20/utils/SafeERC20.sol\":1738:1743  token */\n      dup5\n        /* \"@openzeppelin/contracts/token/ERC20/utils/SafeERC20.sol\":1760:1765  token */\n      dup6\n        /* \"@openzeppelin/contracts/token/ERC20/utils/SafeERC20.sol\":1760:1778  token.transferFrom */\n      0xffffffffffffffffffffffffffffffffffffffff\n      and\n      0x23b872dd\n        /* \"@openzeppelin/contracts/token/ERC20/utils/SafeERC20.sol\":1781:1785  from */\n      dup7\n        /* \"@openzeppelin/contracts/token/ERC20/utils/SafeERC20.sol\":1787:1789  to */\n      dup7\n        /* \"@openzeppelin/contracts/token/ERC20/utils/SafeERC20.sol\":1791:1796  value */\n      dup7\n        /* \"@openzeppelin/contracts/token/ERC20/utils/SafeERC20.sol\":1745:1798  abi.encodeCall(token.transferFrom, (from, to, value)) */\n      add(0x24, mload(0x40))\n      tag_286\n      swap4\n      swap3\n      swap2\n      swap1\n      tag_287\n      jump\t// in\n    tag_286:\n      mload(0x40)\n      0x20\n      dup2\n      dup4\n      sub\n      sub\n      dup2\n      mstore\n      swap1\n      0x40\n      mstore\n      swap2\n      pop\n      0xe0\n      shl\n      0x20\n      dup3\n      add\n      dup1\n      mload\n      0xffffffffffffffffffffffffffffffffffffffffffffffffffffffff\n      dup4\n      dup2\n      dup4\n      and\n      or\n      dup4\n      mstore\n      pop\n      pop\n      pop\n      pop\n        /* \"@openzeppelin/contracts/token/ERC20/utils/SafeERC20.sol\":1718:1737  _callOptionalReturn */\n      tag_288\n        /* \"@openzeppelin/contracts/token/ERC20/utils/SafeERC20.sol\":1718:1799  _callOptionalReturn(token, abi.encodeCall(token.transferFrom, (from, to, value))) */\n      jump\t// in\n    tag_285:\n        /* \"@openzeppelin/contracts/token/ERC20/utils/SafeERC20.sol\":1618:1806  function safeTransferFrom(IERC20 token, address from, address to, uint256 value) internal {... */\n      pop\n      pop\n      pop\n      pop\n      jump\t// out\n        /* \"@openzeppelin/contracts/security/ReentrancyGuard.sol\":2336:2623  function _nonReentrantBefore() private {... */\n    tag_219:\n        /* \"@openzeppelin/contracts/security/ReentrancyGuard.sol\":1759:1760  2 */\n      0x02\n        /* \"@openzeppelin/contracts/security/ReentrancyGuard.sol\":2468:2475  _status */\n      sload(0x00)\n        /* \"@openzeppelin/contracts/security/ReentrancyGuard.sol\":2468:2487  _status != _ENTERED */\n      sub\n        /* \"@openzeppelin/contracts/security/ReentrancyGuard.sol\":2460:2523  require(_status != _ENTERED, \"ReentrancyGuard: reentrant call\") */\n      tag_290\n      jumpi\n      mload(0x40)\n      0x08c379a000000000000000000000000000000000000000000000000000000000\n      dup2\n      mstore\n      0x04\n      add\n      tag_291\n      swap1\n      tag_292\n      jump\t// in\n    tag_291:\n      mload(0x40)\n      dup1\n      swap2\n      sub\n      swap1\n      revert\n    tag_290:\n        /* \"@openzeppelin/contracts/security/ReentrancyGuard.sol\":1759:1760  2 */\n      0x02\n        /* \"@openzeppelin/contracts/security/ReentrancyGuard.sol\":2598:2605  _status */\n      0x00\n        /* \"@openzeppelin/contracts/security/ReentrancyGuard.sol\":2598:2616  _status = _ENTERED */\n      dup2\n      swap1\n      sstore\n      pop\n        /* \"@openzeppelin/contracts/security/ReentrancyGuard.sol\":2336:2623  function _nonReentrantBefore() private {... */\n      jump\t// out\n        /* \"@openzeppelin/contracts/token/ERC20/utils/SafeERC20.sol\":1219:1379  function safeTransfer(IERC20 token, address to, uint256 value) internal {... */\n    tag_230:\n        /* \"@openzeppelin/contracts/token/ERC20/utils/SafeERC20.sol\":1301:1372  _callOptionalReturn(token, abi.encodeCall(token.transfer, (to, value))) */\n      tag_294\n        /* \"@openzeppelin/contracts/token/ERC20/utils/SafeERC20.sol\":1321:1326  token */\n      dup4\n        /* \"@openzeppelin/contracts/token/ERC20/utils/SafeERC20.sol\":1343:1348  token */\n      dup5\n        /* \"@openzeppelin/contracts/token/ERC20/utils/SafeERC20.sol\":1343:1357  token.transfer */\n      0xffffffffffffffffffffffffffffffffffffffff\n      and\n      0xa9059cbb\n        /* \"@openzeppelin/contracts/token/ERC20/utils/SafeERC20.sol\":1360:1362  to */\n      dup6\n        /* \"@openzeppelin/contracts/token/ERC20/utils/SafeERC20.sol\":1364:1369  value */\n      dup6\n        /* \"@openzeppelin/contracts/token/ERC20/utils/SafeERC20.sol\":1328:1371  abi.encodeCall(token.transfer, (to, value)) */\n      add(0x24, mload(0x40))\n      tag_295\n      swap3\n      swap2\n      swap1\n      tag_296\n      jump\t// in\n    tag_295:\n      mload(0x40)\n      0x20\n      dup2\n      dup4\n      sub\n      sub\n      dup2\n      mstore\n      swap1\n      0x40\n      mstore\n      swap2\n      pop\n      0xe0\n      shl\n      0x20\n      dup3\n      add\n      dup1\n      mload\n      0xffffffffffffffffffffffffffffffffffffffffffffffffffffffff\n      dup4\n      dup2\n      dup4\n      and\n      or\n      dup4\n      mstore\n      pop\n      pop\n      pop\n      pop\n        /* \"@openzeppelin/contracts/token/ERC20/utils/SafeERC20.sol\":1301:1320  _callOptionalReturn */\n      tag_288\n        /* \"@openzeppelin/contracts/token/ERC20/utils/SafeERC20.sol\":1301:1372  _callOptionalReturn(token, abi.encodeCall(token.transfer, (to, value))) */\n      jump\t// in\n    tag_294:\n        /* \"@openzeppelin/contracts/token/ERC20/utils/SafeERC20.sol\":1219:1379  function safeTransfer(IERC20 token, address to, uint256 value) internal {... */\n      pop\n      pop\n      pop\n      jump\t// out\n        /* \"@openzeppelin/contracts/security/ReentrancyGuard.sol\":2629:2838  function _nonReentrantAfter() private {... */\n    tag_233:\n        /* \"@openzeppelin/contracts/security/ReentrancyGuard.sol\":1716:1717  1 */\n      0x01\n        /* \"@openzeppelin/contracts/security/ReentrancyGuard.sol\":2809:2816  _status */\n      0x00\n        /* \"@openzeppelin/contracts/security/ReentrancyGuard.sol\":2809:2831  _status = _NOT_ENTERED */\n      dup2\n      swap1\n      sstore\n      pop\n        /* \"@openzeppelin/contracts/security/ReentrancyGuard.sol\":2629:2838  function _nonReentrantAfter() private {... */\n      jump\t// out\n        /* \"@openzeppelin/contracts/access/AccessControl.sol\":3432:3629  function _checkRole(bytes32 role, address account) internal view virtual {... */\n    tag_272:\n        /* \"@openzeppelin/contracts/access/AccessControl.sol\":3520:3542  hasRole(role, account) */\n      tag_299\n        /* \"@openzeppelin/contracts/access/AccessControl.sol\":3528:3532  role */\n      dup3\n        /* \"@openzeppelin/contracts/access/AccessControl.sol\":3534:3541  account */\n      dup3\n        /* \"@openzeppelin/contracts/access/AccessControl.sol\":3520:3527  hasRole */\n      tag_98\n        /* \"@openzeppelin/contracts/access/AccessControl.sol\":3520:3542  hasRole(role, account) */\n      jump\t// in\n    tag_299:\n        /* \"@openzeppelin/contracts/access/AccessControl.sol\":3515:3623  if (!hasRole(role, account)) {... */\n      tag_300\n      jumpi\n        /* \"@openzeppelin/contracts/access/AccessControl.sol\":3598:3605  account */\n      dup1\n        /* \"@openzeppelin/contracts/access/AccessControl.sol\":3607:3611  role */\n      dup3\n        /* \"@openzeppelin/contracts/access/AccessControl.sol\":3565:3612  AccessControlUnauthorizedAccount(account, role) */\n      mload(0x40)\n      0xe2517d3f00000000000000000000000000000000000000000000000000000000\n      dup2\n      mstore\n      0x04\n      add\n      tag_301\n      swap3\n      swap2\n      swap1\n      tag_302\n      jump\t// in\n    tag_301:\n      mload(0x40)\n      dup1\n      swap2\n      sub\n      swap1\n      revert\n        /* \"@openzeppelin/contracts/access/AccessControl.sol\":3515:3623  if (!hasRole(role, account)) {... */\n    tag_300:\n        /* \"@openzeppelin/contracts/access/AccessControl.sol\":3432:3629  function _checkRole(bytes32 role, address account) internal view virtual {... */\n      pop\n      pop\n      jump\t// out\n        /* \"@openzeppelin/contracts/token/ERC20/utils/SafeERC20.sol\":7686:8406  function _callOptionalReturn(IERC20 token, bytes memory data) private {... */\n    tag_288:\n        /* \"@openzeppelin/contracts/token/ERC20/utils/SafeERC20.sol\":7766:7784  uint256 returnSize */\n      0x00\n        /* \"@openzeppelin/contracts/token/ERC20/utils/SafeERC20.sol\":7794:7813  uint256 returnValue */\n      dup1\n        /* \"@openzeppelin/contracts/token/ERC20/utils/SafeERC20.sol\":7932:7936  0x20 */\n      0x20\n        /* \"@openzeppelin/contracts/token/ERC20/utils/SafeERC20.sol\":7929:7930  0 */\n      0x00\n        /* \"@openzeppelin/contracts/token/ERC20/utils/SafeERC20.sol\":7922:7926  data */\n      dup5\n        /* \"@openzeppelin/contracts/token/ERC20/utils/SafeERC20.sol\":7916:7927  mload(data) */\n      mload\n        /* \"@openzeppelin/contracts/token/ERC20/utils/SafeERC20.sol\":7909:7913  0x20 */\n      0x20\n        /* \"@openzeppelin/contracts/token/ERC20/utils/SafeERC20.sol\":7903:7907  data */\n      dup7\n        /* \"@openzeppelin/contracts/token/ERC20/utils/SafeERC20.sol\":7899:7914  add(data, 0x20) */\n      add\n        /* \"@openzeppelin/contracts/token/ERC20/utils/SafeERC20.sol\":7896:7897  0 */\n      0x00\n        /* \"@openzeppelin/contracts/token/ERC20/utils/SafeERC20.sol\":7889:7894  token */\n      dup9\n        /* \"@openzeppelin/contracts/token/ERC20/utils/SafeERC20.sol\":7882:7887  gas() */\n      gas\n        /* \"@openzeppelin/contracts/token/ERC20/utils/SafeERC20.sol\":7877:7937  call(gas(), token, 0, add(data, 0x20), mload(data), 0, 0x20) */\n      call\n        /* \"@openzeppelin/contracts/token/ERC20/utils/SafeERC20.sol\":7989:7996  success */\n      dup1\n        /* \"@openzeppelin/contracts/token/ERC20/utils/SafeERC20.sol\":7979:8155  if iszero(success) {... */\n      tag_304\n      jumpi\n        /* \"@openzeppelin/contracts/token/ERC20/utils/SafeERC20.sol\":8033:8037  0x40 */\n      0x40\n        /* \"@openzeppelin/contracts/token/ERC20/utils/SafeERC20.sol\":8027:8038  mload(0x40) */\n      mload\n        /* \"@openzeppelin/contracts/token/ERC20/utils/SafeERC20.sol\":8078:8094  returndatasize() */\n      returndatasize\n        /* \"@openzeppelin/contracts/token/ERC20/utils/SafeERC20.sol\":8075:8076  0 */\n      0x00\n        /* \"@openzeppelin/contracts/token/ERC20/utils/SafeERC20.sol\":8070:8073  ptr */\n      dup3\n        /* \"@openzeppelin/contracts/token/ERC20/utils/SafeERC20.sol\":8055:8095  returndatacopy(ptr, 0, returndatasize()) */\n      returndatacopy\n        /* \"@openzeppelin/contracts/token/ERC20/utils/SafeERC20.sol\":8124:8140  returndatasize() */\n      returndatasize\n        /* \"@openzeppelin/contracts/token/ERC20/utils/SafeERC20.sol\":8119:8122  ptr */\n      dup2\n        /* \"@openzeppelin/contracts/token/ERC20/utils/SafeERC20.sol\":8112:8141  revert(ptr, returndatasize()) */\n      revert\n        /* \"@openzeppelin/contracts/token/ERC20/utils/SafeERC20.sol\":7979:8155  if iszero(success) {... */\n    tag_304:\n        /* \"@openzeppelin/contracts/token/ERC20/utils/SafeERC20.sol\":8182:8198  returndatasize() */\n      returndatasize\n        /* \"@openzeppelin/contracts/token/ERC20/utils/SafeERC20.sol\":8168:8198  returnSize := returndatasize() */\n      swap3\n      pop\n        /* \"@openzeppelin/contracts/token/ERC20/utils/SafeERC20.sol\":8232:8233  0 */\n      0x00\n        /* \"@openzeppelin/contracts/token/ERC20/utils/SafeERC20.sol\":8226:8234  mload(0) */\n      mload\n        /* \"@openzeppelin/contracts/token/ERC20/utils/SafeERC20.sol\":8211:8234  returnValue := mload(0) */\n      swap2\n      pop\n        /* \"@openzeppelin/contracts/token/ERC20/utils/SafeERC20.sol\":7848:8244  {... */\n      pop\n        /* \"@openzeppelin/contracts/token/ERC20/utils/SafeERC20.sol\":8272:8273  0 */\n      0x00\n        /* \"@openzeppelin/contracts/token/ERC20/utils/SafeERC20.sol\":8258:8268  returnSize */\n      dup3\n        /* \"@openzeppelin/contracts/token/ERC20/utils/SafeERC20.sol\":8258:8273  returnSize == 0 */\n      eq\n        /* \"@openzeppelin/contracts/token/ERC20/utils/SafeERC20.sol\":8258:8326  returnSize == 0 ? address(token).code.length == 0 : returnValue != 1 */\n      tag_305\n      jumpi\n        /* \"@openzeppelin/contracts/token/ERC20/utils/SafeERC20.sol\":8325:8326  1 */\n      0x01\n        /* \"@openzeppelin/contracts/token/ERC20/utils/SafeERC20.sol\":8310:8321  returnValue */\n      dup2\n        /* \"@openzeppelin/contracts/token/ERC20/utils/SafeERC20.sol\":8310:8326  returnValue != 1 */\n      eq\n      iszero\n        /* \"@openzeppelin/contracts/token/ERC20/utils/SafeERC20.sol\":8258:8326  returnSize == 0 ? address(token).code.length == 0 : returnValue != 1 */\n      jump(tag_306)\n    tag_305:\n        /* \"@openzeppelin/contracts/token/ERC20/utils/SafeERC20.sol\":8306:8307  0 */\n      0x00\n        /* \"@openzeppelin/contracts/token/ERC20/utils/SafeERC20.sol\":8284:8289  token */\n      dup5\n        /* \"@openzeppelin/contracts/token/ERC20/utils/SafeERC20.sol\":8276:8302  address(token).code.length */\n      0xffffffffffffffffffffffffffffffffffffffff\n      and\n      extcodesize\n        /* \"@openzeppelin/contracts/token/ERC20/utils/SafeERC20.sol\":8276:8307  address(token).code.length == 0 */\n      eq\n        /* \"@openzeppelin/contracts/token/ERC20/utils/SafeERC20.sol\":8258:8326  returnSize == 0 ? address(token).code.length == 0 : returnValue != 1 */\n    tag_306:\n        /* \"@openzeppelin/contracts/token/ERC20/utils/SafeERC20.sol\":8254:8400  if (returnSize == 0 ? address(token).code.length == 0 : returnValue != 1) {... */\n      iszero\n      tag_307\n      jumpi\n        /* \"@openzeppelin/contracts/token/ERC20/utils/SafeERC20.sol\":8382:8387  token */\n      dup4\n        /* \"@openzeppelin/contracts/token/ERC20/utils/SafeERC20.sol\":8349:8389  SafeERC20FailedOperation(address(token)) */\n      mload(0x40)\n      0x5274afe700000000000000000000000000000000000000000000000000000000\n      dup2\n      mstore\n      0x04\n      add\n      tag_308\n      swap2\n      swap1\n      tag_91\n      jump\t// in\n    tag_308:\n      mload(0x40)\n      dup1\n      swap2\n      sub\n      swap1\n      revert\n        /* \"@openzeppelin/contracts/token/ERC20/utils/SafeERC20.sol\":8254:8400  if (returnSize == 0 ? address(token).code.length == 0 : returnValue != 1) {... */\n    tag_307:\n        /* \"@openzeppelin/contracts/token/ERC20/utils/SafeERC20.sol\":7756:8406  {... */\n      pop\n      pop\n        /* \"@openzeppelin/contracts/token/ERC20/utils/SafeERC20.sol\":7686:8406  function _callOptionalReturn(IERC20 token, bytes memory data) private {... */\n      pop\n      pop\n      jump\t// out\n        /* \"#utility.yul\":7:82   */\n    tag_309:\n        /* \"#utility.yul\":40:46   */\n      0x00\n        /* \"#utility.yul\":73:75   */\n      0x40\n        /* \"#utility.yul\":67:76   */\n      mload\n        /* \"#utility.yul\":57:76   */\n      swap1\n      pop\n        /* \"#utility.yul\":7:82   */\n      swap1\n      jump\t// out\n        /* \"#utility.yul\":88:205   */\n    tag_310:\n        /* \"#utility.yul\":197:198   */\n      0x00\n        /* \"#utility.yul\":194:195   */\n      dup1\n        /* \"#utility.yul\":187:199   */\n      revert\n        /* \"#utility.yul\":211:328   */\n    tag_311:\n        /* \"#utility.yul\":320:321   */\n      0x00\n        /* \"#utility.yul\":317:318   */\n      dup1\n        /* \"#utility.yul\":310:322   */\n      revert\n        /* \"#utility.yul\":334:483   */\n    tag_312:\n        /* \"#utility.yul\":370:377   */\n      0x00\n        /* \"#utility.yul\":410:476   */\n      0xffffffff00000000000000000000000000000000000000000000000000000000\n        /* \"#utility.yul\":403:408   */\n      dup3\n        /* \"#utility.yul\":399:477   */\n      and\n        /* \"#utility.yul\":388:477   */\n      swap1\n      pop\n        /* \"#utility.yul\":334:483   */\n      swap2\n      swap1\n      pop\n      jump\t// out\n        /* \"#utility.yul\":489:609   */\n    tag_313:\n        /* \"#utility.yul\":561:584   */\n      tag_401\n        /* \"#utility.yul\":578:583   */\n      dup2\n        /* \"#utility.yul\":561:584   */\n      tag_312\n      jump\t// in\n    tag_401:\n        /* \"#utility.yul\":554:559   */\n      dup2\n        /* \"#utility.yul\":551:585   */\n      eq\n        /* \"#utility.yul\":541:603   */\n      tag_402\n      jumpi\n        /* \"#utility.yul\":599:600   */\n      0x00\n        /* \"#utility.yul\":596:597   */\n      dup1\n        /* \"#utility.yul\":589:601   */\n      revert\n        /* \"#utility.yul\":541:603   */\n    tag_402:\n        /* \"#utility.yul\":489:609   */\n      pop\n      jump\t// out\n        /* \"#utility.yul\":615:752   */\n    tag_314:\n        /* \"#utility.yul\":660:665   */\n      0x00\n        /* \"#utility.yul\":698:704   */\n      dup2\n        /* \"#utility.yul\":685:705   */\n      calldataload\n        /* \"#utility.yul\":676:705   */\n      swap1\n      pop\n        /* \"#utility.yul\":714:746   */\n      tag_404\n        /* \"#utility.yul\":740:745   */\n      dup2\n        /* \"#utility.yul\":714:746   */\n      tag_313\n      jump\t// in\n    tag_404:\n        /* \"#utility.yul\":615:752   */\n      swap3\n      swap2\n      pop\n      pop\n      jump\t// out\n        /* \"#utility.yul\":758:1085   */\n    tag_31:\n        /* \"#utility.yul\":816:822   */\n      0x00\n        /* \"#utility.yul\":865:867   */\n      0x20\n        /* \"#utility.yul\":853:862   */\n      dup3\n        /* \"#utility.yul\":844:851   */\n      dup5\n        /* \"#utility.yul\":840:863   */\n      sub\n        /* \"#utility.yul\":836:868   */\n      slt\n        /* \"#utility.yul\":833:952   */\n      iszero\n      tag_406\n      jumpi\n        /* \"#utility.yul\":871:950   */\n      tag_407\n      tag_310\n      jump\t// in\n    tag_407:\n        /* \"#utility.yul\":833:952   */\n    tag_406:\n        /* \"#utility.yul\":991:992   */\n      0x00\n        /* \"#utility.yul\":1016:1068   */\n      tag_408\n        /* \"#utility.yul\":1060:1067   */\n      dup5\n        /* \"#utility.yul\":1051:1057   */\n      dup3\n        /* \"#utility.yul\":1040:1049   */\n      dup6\n        /* \"#utility.yul\":1036:1058   */\n      add\n        /* \"#utility.yul\":1016:1068   */\n      tag_314\n      jump\t// in\n    tag_408:\n        /* \"#utility.yul\":1006:1068   */\n      swap2\n      pop\n        /* \"#utility.yul\":962:1078   */\n      pop\n        /* \"#utility.yul\":758:1085   */\n      swap3\n      swap2\n      pop\n      pop\n      jump\t// out\n        /* \"#utility.yul\":1091:1181   */\n    tag_315:\n        /* \"#utility.yul\":1125:1132   */\n      0x00\n        /* \"#utility.yul\":1168:1173   */\n      dup2\n        /* \"#utility.yul\":1161:1174   */\n      iszero\n        /* \"#utility.yul\":1154:1175   */\n      iszero\n        /* \"#utility.yul\":1143:1175   */\n      swap1\n      pop\n        /* \"#utility.yul\":1091:1181   */\n      swap2\n      swap1\n      pop\n      jump\t// out\n        /* \"#utility.yul\":1187:1296   */\n    tag_316:\n        /* \"#utility.yul\":1268:1289   */\n      tag_411\n        /* \"#utility.yul\":1283:1288   */\n      dup2\n        /* \"#utility.yul\":1268:1289   */\n      tag_315\n      jump\t// in\n    tag_411:\n        /* \"#utility.yul\":1263:1266   */\n      dup3\n        /* \"#utility.yul\":1256:1290   */\n      mstore\n        /* \"#utility.yul\":1187:1296   */\n      pop\n      pop\n      jump\t// out\n        /* \"#utility.yul\":1302:1512   */\n    tag_34:\n        /* \"#utility.yul\":1389:1393   */\n      0x00\n        /* \"#utility.yul\":1427:1429   */\n      0x20\n        /* \"#utility.yul\":1416:1425   */\n      dup3\n        /* \"#utility.yul\":1412:1430   */\n      add\n        /* \"#utility.yul\":1404:1430   */\n      swap1\n      pop\n        /* \"#utility.yul\":1440:1505   */\n      tag_413\n        /* \"#utility.yul\":1502:1503   */\n      0x00\n        /* \"#utility.yul\":1491:1500   */\n      dup4\n        /* \"#utility.yul\":1487:1504   */\n      add\n        /* \"#utility.yul\":1478:1484   */\n      dup5\n        /* \"#utility.yul\":1440:1505   */\n      tag_316\n      jump\t// in\n    tag_413:\n        /* \"#utility.yul\":1302:1512   */\n      swap3\n      swap2\n      pop\n      pop\n      jump\t// out\n        /* \"#utility.yul\":1518:1595   */\n    tag_317:\n        /* \"#utility.yul\":1555:1562   */\n      0x00\n        /* \"#utility.yul\":1584:1589   */\n      dup2\n        /* \"#utility.yul\":1573:1589   */\n      swap1\n      pop\n        /* \"#utility.yul\":1518:1595   */\n      swap2\n      swap1\n      pop\n      jump\t// out\n        /* \"#utility.yul\":1601:1719   */\n    tag_318:\n        /* \"#utility.yul\":1688:1712   */\n      tag_416\n        /* \"#utility.yul\":1706:1711   */\n      dup2\n        /* \"#utility.yul\":1688:1712   */\n      tag_317\n      jump\t// in\n    tag_416:\n        /* \"#utility.yul\":1683:1686   */\n      dup3\n        /* \"#utility.yul\":1676:1713   */\n      mstore\n        /* \"#utility.yul\":1601:1719   */\n      pop\n      pop\n      jump\t// out\n        /* \"#utility.yul\":1725:1947   */\n    tag_38:\n        /* \"#utility.yul\":1818:1822   */\n      0x00\n        /* \"#utility.yul\":1856:1858   */\n      0x20\n        /* \"#utility.yul\":1845:1854   */\n      dup3\n        /* \"#utility.yul\":1841:1859   */\n      add\n        /* \"#utility.yul\":1833:1859   */\n      swap1\n      pop\n        /* \"#utility.yul\":1869:1940   */\n      tag_418\n        /* \"#utility.yul\":1937:1938   */\n      0x00\n        /* \"#utility.yul\":1926:1935   */\n      dup4\n        /* \"#utility.yul\":1922:1939   */\n      add\n        /* \"#utility.yul\":1913:1919   */\n      dup5\n        /* \"#utility.yul\":1869:1940   */\n      tag_318\n      jump\t// in\n    tag_418:\n        /* \"#utility.yul\":1725:1947   */\n      swap3\n      swap2\n      pop\n      pop\n      jump\t// out\n        /* \"#utility.yul\":1953:2079   */\n    tag_319:\n        /* \"#utility.yul\":1990:1997   */\n      0x00\n        /* \"#utility.yul\":2030:2072   */\n      0xffffffffffffffffffffffffffffffffffffffff\n        /* \"#utility.yul\":2023:2028   */\n      dup3\n        /* \"#utility.yul\":2019:2073   */\n      and\n        /* \"#utility.yul\":2008:2073   */\n      swap1\n      pop\n        /* \"#utility.yul\":1953:2079   */\n      swap2\n      swap1\n      pop\n      jump\t// out\n        /* \"#utility.yul\":2085:2181   */\n    tag_320:\n        /* \"#utility.yul\":2122:2129   */\n      0x00\n        /* \"#utility.yul\":2151:2175   */\n      tag_421\n        /* \"#utility.yul\":2169:2174   */\n      dup3\n        /* \"#utility.yul\":2151:2175   */\n      tag_319\n      jump\t// in\n    tag_421:\n        /* \"#utility.yul\":2140:2175   */\n      swap1\n      pop\n        /* \"#utility.yul\":2085:2181   */\n      swap2\n      swap1\n      pop\n      jump\t// out\n        /* \"#utility.yul\":2187:2309   */\n    tag_321:\n        /* \"#utility.yul\":2260:2284   */\n      tag_423\n        /* \"#utility.yul\":2278:2283   */\n      dup2\n        /* \"#utility.yul\":2260:2284   */\n      tag_320\n      jump\t// in\n    tag_423:\n        /* \"#utility.yul\":2253:2258   */\n      dup2\n        /* \"#utility.yul\":2250:2285   */\n      eq\n        /* \"#utility.yul\":2240:2303   */\n      tag_424\n      jumpi\n        /* \"#utility.yul\":2299:2300   */\n      0x00\n        /* \"#utility.yul\":2296:2297   */\n      dup1\n        /* \"#utility.yul\":2289:2301   */\n      revert\n        /* \"#utility.yul\":2240:2303   */\n    tag_424:\n        /* \"#utility.yul\":2187:2309   */\n      pop\n      jump\t// out\n        /* \"#utility.yul\":2315:2454   */\n    tag_322:\n        /* \"#utility.yul\":2361:2366   */\n      0x00\n        /* \"#utility.yul\":2399:2405   */\n      dup2\n        /* \"#utility.yul\":2386:2406   */\n      calldataload\n        /* \"#utility.yul\":2377:2406   */\n      swap1\n      pop\n        /* \"#utility.yul\":2415:2448   */\n      tag_426\n        /* \"#utility.yul\":2442:2447   */\n      dup2\n        /* \"#utility.yul\":2415:2448   */\n      tag_321\n      jump\t// in\n    tag_426:\n        /* \"#utility.yul\":2315:2454   */\n      swap3\n      swap2\n      pop\n      pop\n      jump\t// out\n        /* \"#utility.yul\":2460:2582   */\n    tag_323:\n        /* \"#utility.yul\":2533:2557   */\n      tag_428\n        /* \"#utility.yul\":2551:2556   */\n      dup2\n        /* \"#utility.yul\":2533:2557   */\n      tag_317\n      jump\t// in\n    tag_428:\n        /* \"#utility.yul\":2526:2531   */\n      dup2\n        /* \"#utility.yul\":2523:2558   */\n      eq\n        /* \"#utility.yul\":2513:2576   */\n      tag_429\n      jumpi\n        /* \"#utility.yul\":2572:2573   */\n      0x00\n        /* \"#utility.yul\":2569:2570   */\n      dup1\n        /* \"#utility.yul\":2562:2574   */\n      revert\n        /* \"#utility.yul\":2513:2576   */\n    tag_429:\n        /* \"#utility.yul\":2460:2582   */\n      pop\n      jump\t// out\n        /* \"#utility.yul\":2588:2727   */\n    tag_324:\n        /* \"#utility.yul\":2634:2639   */\n      0x00\n        /* \"#utility.yul\":2672:2678   */\n      dup2\n        /* \"#utility.yul\":2659:2679   */\n      calldataload\n        /* \"#utility.yul\":2650:2679   */\n      swap1\n      pop\n        /* \"#utility.yul\":2688:2721   */\n      tag_431\n        /* \"#utility.yul\":2715:2720   */\n      dup2\n        /* \"#utility.yul\":2688:2721   */\n      tag_323\n      jump\t// in\n    tag_431:\n        /* \"#utility.yul\":2588:2727   */\n      swap3\n      swap2\n      pop\n      pop\n      jump\t// out\n        /* \"#utility.yul\":2733:3207   */\n    tag_41:\n        /* \"#utility.yul\":2801:2807   */\n      0x00\n        /* \"#utility.yul\":2809:2815   */\n      dup1\n        /* \"#utility.yul\":2858:2860   */\n      0x40\n        /* \"#utility.yul\":2846:2855   */\n      dup4\n        /* \"#utility.yul\":2837:2844   */\n      dup6\n        /* \"#utility.yul\":2833:2856   */\n      sub\n        /* \"#utility.yul\":2829:2861   */\n      slt\n        /* \"#utility.yul\":2826:2945   */\n      iszero\n      tag_433\n      jumpi\n        /* \"#utility.yul\":2864:2943   */\n      tag_434\n      tag_310\n      jump\t// in\n    tag_434:\n        /* \"#utility.yul\":2826:2945   */\n    tag_433:\n        /* \"#utility.yul\":2984:2985   */\n      0x00\n        /* \"#utility.yul\":3009:3062   */\n      tag_435\n        /* \"#utility.yul\":3054:3061   */\n      dup6\n        /* \"#utility.yul\":3045:3051   */\n      dup3\n        /* \"#utility.yul\":3034:3043   */\n      dup7\n        /* \"#utility.yul\":3030:3052   */\n      add\n        /* \"#utility.yul\":3009:3062   */\n      tag_322\n      jump\t// in\n    tag_435:\n        /* \"#utility.yul\":2999:3062   */\n      swap3\n      pop\n        /* \"#utility.yul\":2955:3072   */\n      pop\n        /* \"#utility.yul\":3111:3113   */\n      0x20\n        /* \"#utility.yul\":3137:3190   */\n      tag_436\n        /* \"#utility.yul\":3182:3189   */\n      dup6\n        /* \"#utility.yul\":3173:3179   */\n      dup3\n        /* \"#utility.yul\":3162:3171   */\n      dup7\n        /* \"#utility.yul\":3158:3180   */\n      add\n        /* \"#utility.yul\":3137:3190   */\n      tag_324\n      jump\t// in\n    tag_436:\n        /* \"#utility.yul\":3127:3190   */\n      swap2\n      pop\n        /* \"#utility.yul\":3082:3200   */\n      pop\n        /* \"#utility.yul\":2733:3207   */\n      swap3\n      pop\n      swap3\n      swap1\n      pop\n      jump\t// out\n        /* \"#utility.yul\":3213:3542   */\n    tag_46:\n        /* \"#utility.yul\":3272:3278   */\n      0x00\n        /* \"#utility.yul\":3321:3323   */\n      0x20\n        /* \"#utility.yul\":3309:3318   */\n      dup3\n        /* \"#utility.yul\":3300:3307   */\n      dup5\n        /* \"#utility.yul\":3296:3319   */\n      sub\n        /* \"#utility.yul\":3292:3324   */\n      slt\n        /* \"#utility.yul\":3289:3408   */\n      iszero\n      tag_438\n      jumpi\n        /* \"#utility.yul\":3327:3406   */\n      tag_439\n      tag_310\n      jump\t// in\n    tag_439:\n        /* \"#utility.yul\":3289:3408   */\n    tag_438:\n        /* \"#utility.yul\":3447:3448   */\n      0x00\n        /* \"#utility.yul\":3472:3525   */\n      tag_440\n        /* \"#utility.yul\":3517:3524   */\n      dup5\n        /* \"#utility.yul\":3508:3514   */\n      dup3\n        /* \"#utility.yul\":3497:3506   */\n      dup6\n        /* \"#utility.yul\":3493:3515   */\n      add\n        /* \"#utility.yul\":3472:3525   */\n      tag_322\n      jump\t// in\n    tag_440:\n        /* \"#utility.yul\":3462:3525   */\n      swap2\n      pop\n        /* \"#utility.yul\":3418:3535   */\n      pop\n        /* \"#utility.yul\":3213:3542   */\n      swap3\n      swap2\n      pop\n      pop\n      jump\t// out\n        /* \"#utility.yul\":3548:3625   */\n    tag_325:\n        /* \"#utility.yul\":3585:3592   */\n      0x00\n        /* \"#utility.yul\":3614:3619   */\n      dup2\n        /* \"#utility.yul\":3603:3619   */\n      swap1\n      pop\n        /* \"#utility.yul\":3548:3625   */\n      swap2\n      swap1\n      pop\n      jump\t// out\n        /* \"#utility.yul\":3631:3753   */\n    tag_326:\n        /* \"#utility.yul\":3704:3728   */\n      tag_443\n        /* \"#utility.yul\":3722:3727   */\n      dup2\n        /* \"#utility.yul\":3704:3728   */\n      tag_325\n      jump\t// in\n    tag_443:\n        /* \"#utility.yul\":3697:3702   */\n      dup2\n        /* \"#utility.yul\":3694:3729   */\n      eq\n        /* \"#utility.yul\":3684:3747   */\n      tag_444\n      jumpi\n        /* \"#utility.yul\":3743:3744   */\n      0x00\n        /* \"#utility.yul\":3740:3741   */\n      dup1\n        /* \"#utility.yul\":3733:3745   */\n      revert\n        /* \"#utility.yul\":3684:3747   */\n    tag_444:\n        /* \"#utility.yul\":3631:3753   */\n      pop\n      jump\t// out\n        /* \"#utility.yul\":3759:3898   */\n    tag_327:\n        /* \"#utility.yul\":3805:3810   */\n      0x00\n        /* \"#utility.yul\":3843:3849   */\n      dup2\n        /* \"#utility.yul\":3830:3850   */\n      calldataload\n        /* \"#utility.yul\":3821:3850   */\n      swap1\n      pop\n        /* \"#utility.yul\":3859:3892   */\n      tag_446\n        /* \"#utility.yul\":3886:3891   */\n      dup2\n        /* \"#utility.yul\":3859:3892   */\n      tag_326\n      jump\t// in\n    tag_446:\n        /* \"#utility.yul\":3759:3898   */\n      swap3\n      swap2\n      pop\n      pop\n      jump\t// out\n        /* \"#utility.yul\":3904:4233   */\n    tag_50:\n        /* \"#utility.yul\":3963:3969   */\n      0x00\n        /* \"#utility.yul\":4012:4014   */\n      0x20\n        /* \"#utility.yul\":4000:4009   */\n      dup3\n        /* \"#utility.yul\":3991:3998   */\n      dup5\n        /* \"#utility.yul\":3987:4010   */\n      sub\n        /* \"#utility.yul\":3983:4015   */\n      slt\n        /* \"#utility.yul\":3980:4099   */\n      iszero\n      tag_448\n      jumpi\n        /* \"#utility.yul\":4018:4097   */\n      tag_449\n      tag_310\n      jump\t// in\n    tag_449:\n        /* \"#utility.yul\":3980:4099   */\n    tag_448:\n        /* \"#utility.yul\":4138:4139   */\n      0x00\n        /* \"#utility.yul\":4163:4216   */\n      tag_450\n        /* \"#utility.yul\":4208:4215   */\n      dup5\n        /* \"#utility.yul\":4199:4205   */\n      dup3\n        /* \"#utility.yul\":4188:4197   */\n      dup6\n        /* \"#utility.yul\":4184:4206   */\n      add\n        /* \"#utility.yul\":4163:4216   */\n      tag_327\n      jump\t// in\n    tag_450:\n        /* \"#utility.yul\":4153:4216   */\n      swap2\n      pop\n        /* \"#utility.yul\":4109:4226   */\n      pop\n        /* \"#utility.yul\":3904:4233   */\n      swap3\n      swap2\n      pop\n      pop\n      jump\t// out\n        /* \"#utility.yul\":4239:4357   */\n    tag_328:\n        /* \"#utility.yul\":4326:4350   */\n      tag_452\n        /* \"#utility.yul\":4344:4349   */\n      dup2\n        /* \"#utility.yul\":4326:4350   */\n      tag_325\n      jump\t// in\n    tag_452:\n        /* \"#utility.yul\":4321:4324   */\n      dup3\n        /* \"#utility.yul\":4314:4351   */\n      mstore\n        /* \"#utility.yul\":4239:4357   */\n      pop\n      pop\n      jump\t// out\n        /* \"#utility.yul\":4363:4585   */\n    tag_53:\n        /* \"#utility.yul\":4456:4460   */\n      0x00\n        /* \"#utility.yul\":4494:4496   */\n      0x20\n        /* \"#utility.yul\":4483:4492   */\n      dup3\n        /* \"#utility.yul\":4479:4497   */\n      add\n        /* \"#utility.yul\":4471:4497   */\n      swap1\n      pop\n        /* \"#utility.yul\":4507:4578   */\n      tag_454\n        /* \"#utility.yul\":4575:4576   */\n      0x00\n        /* \"#utility.yul\":4564:4573   */\n      dup4\n        /* \"#utility.yul\":4560:4577   */\n      add\n        /* \"#utility.yul\":4551:4557   */\n      dup5\n        /* \"#utility.yul\":4507:4578   */\n      tag_328\n      jump\t// in\n    tag_454:\n        /* \"#utility.yul\":4363:4585   */\n      swap3\n      swap2\n      pop\n      pop\n      jump\t// out\n        /* \"#utility.yul\":4591:4707   */\n    tag_329:\n        /* \"#utility.yul\":4661:4682   */\n      tag_456\n        /* \"#utility.yul\":4676:4681   */\n      dup2\n        /* \"#utility.yul\":4661:4682   */\n      tag_315\n      jump\t// in\n    tag_456:\n        /* \"#utility.yul\":4654:4659   */\n      dup2\n        /* \"#utility.yul\":4651:4683   */\n      eq\n        /* \"#utility.yul\":4641:4701   */\n      tag_457\n      jumpi\n        /* \"#utility.yul\":4697:4698   */\n      0x00\n        /* \"#utility.yul\":4694:4695   */\n      dup1\n        /* \"#utility.yul\":4687:4699   */\n      revert\n        /* \"#utility.yul\":4641:4701   */\n    tag_457:\n        /* \"#utility.yul\":4591:4707   */\n      pop\n      jump\t// out\n        /* \"#utility.yul\":4713:4846   */\n    tag_330:\n        /* \"#utility.yul\":4756:4761   */\n      0x00\n        /* \"#utility.yul\":4794:4800   */\n      dup2\n        /* \"#utility.yul\":4781:4801   */\n      calldataload\n        /* \"#utility.yul\":4772:4801   */\n      swap1\n      pop\n        /* \"#utility.yul\":4810:4840   */\n      tag_459\n        /* \"#utility.yul\":4834:4839   */\n      dup2\n        /* \"#utility.yul\":4810:4840   */\n      tag_329\n      jump\t// in\n    tag_459:\n        /* \"#utility.yul\":4713:4846   */\n      swap3\n      swap2\n      pop\n      pop\n      jump\t// out\n        /* \"#utility.yul\":4852:5320   */\n    tag_56:\n        /* \"#utility.yul\":4917:4923   */\n      0x00\n        /* \"#utility.yul\":4925:4931   */\n      dup1\n        /* \"#utility.yul\":4974:4976   */\n      0x40\n        /* \"#utility.yul\":4962:4971   */\n      dup4\n        /* \"#utility.yul\":4953:4960   */\n      dup6\n        /* \"#utility.yul\":4949:4972   */\n      sub\n        /* \"#utility.yul\":4945:4977   */\n      slt\n        /* \"#utility.yul\":4942:5061   */\n      iszero\n      tag_461\n      jumpi\n        /* \"#utility.yul\":4980:5059   */\n      tag_462\n      tag_310\n      jump\t// in\n    tag_462:\n        /* \"#utility.yul\":4942:5061   */\n    tag_461:\n        /* \"#utility.yul\":5100:5101   */\n      0x00\n        /* \"#utility.yul\":5125:5178   */\n      tag_463\n        /* \"#utility.yul\":5170:5177   */\n      dup6\n        /* \"#utility.yul\":5161:5167   */\n      dup3\n        /* \"#utility.yul\":5150:5159   */\n      dup7\n        /* \"#utility.yul\":5146:5168   */\n      add\n        /* \"#utility.yul\":5125:5178   */\n      tag_324\n      jump\t// in\n    tag_463:\n        /* \"#utility.yul\":5115:5178   */\n      swap3\n      pop\n        /* \"#utility.yul\":5071:5188   */\n      pop\n        /* \"#utility.yul\":5227:5229   */\n      0x20\n        /* \"#utility.yul\":5253:5303   */\n      tag_464\n        /* \"#utility.yul\":5295:5302   */\n      dup6\n        /* \"#utility.yul\":5286:5292   */\n      dup3\n        /* \"#utility.yul\":5275:5284   */\n      dup7\n        /* \"#utility.yul\":5271:5293   */\n      add\n        /* \"#utility.yul\":5253:5303   */\n      tag_330\n      jump\t// in\n    tag_464:\n        /* \"#utility.yul\":5243:5303   */\n      swap2\n      pop\n        /* \"#utility.yul\":5198:5313   */\n      pop\n        /* \"#utility.yul\":4852:5320   */\n      swap3\n      pop\n      swap3\n      swap1\n      pop\n      jump\t// out\n        /* \"#utility.yul\":5326:5800   */\n    tag_60:\n        /* \"#utility.yul\":5394:5400   */\n      0x00\n        /* \"#utility.yul\":5402:5408   */\n      dup1\n        /* \"#utility.yul\":5451:5453   */\n      0x40\n        /* \"#utility.yul\":5439:5448   */\n      dup4\n        /* \"#utility.yul\":5430:5437   */\n      dup6\n        /* \"#utility.yul\":5426:5449   */\n      sub\n        /* \"#utility.yul\":5422:5454   */\n      slt\n        /* \"#utility.yul\":5419:5538   */\n      iszero\n      tag_466\n      jumpi\n        /* \"#utility.yul\":5457:5536   */\n      tag_467\n      tag_310\n      jump\t// in\n    tag_467:\n        /* \"#utility.yul\":5419:5538   */\n    tag_466:\n        /* \"#utility.yul\":5577:5578   */\n      0x00\n        /* \"#utility.yul\":5602:5655   */\n      tag_468\n        /* \"#utility.yul\":5647:5654   */\n      dup6\n        /* \"#utility.yul\":5638:5644   */\n      dup3\n        /* \"#utility.yul\":5627:5636   */\n      dup7\n        /* \"#utility.yul\":5623:5645   */\n      add\n        /* \"#utility.yul\":5602:5655   */\n      tag_327\n      jump\t// in\n    tag_468:\n        /* \"#utility.yul\":5592:5655   */\n      swap3\n      pop\n        /* \"#utility.yul\":5548:5665   */\n      pop\n        /* \"#utility.yul\":5704:5706   */\n      0x20\n        /* \"#utility.yul\":5730:5783   */\n      tag_469\n        /* \"#utility.yul\":5775:5782   */\n      dup6\n        /* \"#utility.yul\":5766:5772   */\n      dup3\n        /* \"#utility.yul\":5755:5764   */\n      dup7\n        /* \"#utility.yul\":5751:5773   */\n      add\n        /* \"#utility.yul\":5730:5783   */\n      tag_322\n      jump\t// in\n    tag_469:\n        /* \"#utility.yul\":5720:5783   */\n      swap2\n      pop\n        /* \"#utility.yul\":5675:5793   */\n      pop\n        /* \"#utility.yul\":5326:5800   */\n      swap3\n      pop\n      swap3\n      swap1\n      pop\n      jump\t// out\n        /* \"#utility.yul\":5806:6280   */\n    tag_71:\n        /* \"#utility.yul\":5874:5880   */\n      0x00\n        /* \"#utility.yul\":5882:5888   */\n      dup1\n        /* \"#utility.yul\":5931:5933   */\n      0x40\n        /* \"#utility.yul\":5919:5928   */\n      dup4\n        /* \"#utility.yul\":5910:5917   */\n      dup6\n        /* \"#utility.yul\":5906:5929   */\n      sub\n        /* \"#utility.yul\":5902:5934   */\n      slt\n        /* \"#utility.yul\":5899:6018   */\n      iszero\n      tag_471\n      jumpi\n        /* \"#utility.yul\":5937:6016   */\n      tag_472\n      tag_310\n      jump\t// in\n    tag_472:\n        /* \"#utility.yul\":5899:6018   */\n    tag_471:\n        /* \"#utility.yul\":6057:6058   */\n      0x00\n        /* \"#utility.yul\":6082:6135   */\n      tag_473\n        /* \"#utility.yul\":6127:6134   */\n      dup6\n        /* \"#utility.yul\":6118:6124   */\n      dup3\n        /* \"#utility.yul\":6107:6116   */\n      dup7\n        /* \"#utility.yul\":6103:6125   */\n      add\n        /* \"#utility.yul\":6082:6135   */\n      tag_324\n      jump\t// in\n    tag_473:\n        /* \"#utility.yul\":6072:6135   */\n      swap3\n      pop\n        /* \"#utility.yul\":6028:6145   */\n      pop\n        /* \"#utility.yul\":6184:6186   */\n      0x20\n        /* \"#utility.yul\":6210:6263   */\n      tag_474\n        /* \"#utility.yul\":6255:6262   */\n      dup6\n        /* \"#utility.yul\":6246:6252   */\n      dup3\n        /* \"#utility.yul\":6235:6244   */\n      dup7\n        /* \"#utility.yul\":6231:6253   */\n      add\n        /* \"#utility.yul\":6210:6263   */\n      tag_324\n      jump\t// in\n    tag_474:\n        /* \"#utility.yul\":6200:6263   */\n      swap2\n      pop\n        /* \"#utility.yul\":6155:6273   */\n      pop\n        /* \"#utility.yul\":5806:6280   */\n      swap3\n      pop\n      swap3\n      swap1\n      pop\n      jump\t// out\n        /* \"#utility.yul\":6286:6403   */\n    tag_331:\n        /* \"#utility.yul\":6395:6396   */\n      0x00\n        /* \"#utility.yul\":6392:6393   */\n      dup1\n        /* \"#utility.yul\":6385:6397   */\n      revert\n        /* \"#utility.yul\":6409:6526   */\n    tag_332:\n        /* \"#utility.yul\":6518:6519   */\n      0x00\n        /* \"#utility.yul\":6515:6516   */\n      dup1\n        /* \"#utility.yul\":6508:6520   */\n      revert\n        /* \"#utility.yul\":6532:6634   */\n    tag_333:\n        /* \"#utility.yul\":6573:6579   */\n      0x00\n        /* \"#utility.yul\":6624:6626   */\n      0x1f\n        /* \"#utility.yul\":6620:6627   */\n      not\n        /* \"#utility.yul\":6615:6617   */\n      0x1f\n        /* \"#utility.yul\":6608:6613   */\n      dup4\n        /* \"#utility.yul\":6604:6618   */\n      add\n        /* \"#utility.yul\":6600:6628   */\n      and\n        /* \"#utility.yul\":6590:6628   */\n      swap1\n      pop\n        /* \"#utility.yul\":6532:6634   */\n      swap2\n      swap1\n      pop\n      jump\t// out\n        /* \"#utility.yul\":6640:6820   */\n    tag_334:\n        /* \"#utility.yul\":6688:6765   */\n      0x4e487b7100000000000000000000000000000000000000000000000000000000\n        /* \"#utility.yul\":6685:6686   */\n      0x00\n        /* \"#utility.yul\":6678:6766   */\n      mstore\n        /* \"#utility.yul\":6785:6789   */\n      0x41\n        /* \"#utility.yul\":6782:6783   */\n      0x04\n        /* \"#utility.yul\":6775:6790   */\n      mstore\n        /* \"#utility.yul\":6809:6813   */\n      0x24\n        /* \"#utility.yul\":6806:6807   */\n      0x00\n        /* \"#utility.yul\":6799:6814   */\n      revert\n        /* \"#utility.yul\":6826:7107   */\n    tag_335:\n        /* \"#utility.yul\":6909:6936   */\n      tag_480\n        /* \"#utility.yul\":6931:6935   */\n      dup3\n        /* \"#utility.yul\":6909:6936   */\n      tag_333\n      jump\t// in\n    tag_480:\n        /* \"#utility.yul\":6901:6907   */\n      dup2\n        /* \"#utility.yul\":6897:6937   */\n      add\n        /* \"#utility.yul\":7039:7045   */\n      dup2\n        /* \"#utility.yul\":7027:7037   */\n      dup2\n        /* \"#utility.yul\":7024:7046   */\n      lt\n        /* \"#utility.yul\":7003:7021   */\n      0xffffffffffffffff\n        /* \"#utility.yul\":6991:7001   */\n      dup3\n        /* \"#utility.yul\":6988:7022   */\n      gt\n        /* \"#utility.yul\":6985:7047   */\n      or\n        /* \"#utility.yul\":6982:7070   */\n      iszero\n      tag_481\n      jumpi\n        /* \"#utility.yul\":7050:7068   */\n      tag_482\n      tag_334\n      jump\t// in\n    tag_482:\n        /* \"#utility.yul\":6982:7070   */\n    tag_481:\n        /* \"#utility.yul\":7090:7100   */\n      dup1\n        /* \"#utility.yul\":7086:7088   */\n      0x40\n        /* \"#utility.yul\":7079:7101   */\n      mstore\n        /* \"#utility.yul\":6869:7107   */\n      pop\n        /* \"#utility.yul\":6826:7107   */\n      pop\n      pop\n      jump\t// out\n        /* \"#utility.yul\":7113:7242   */\n    tag_336:\n        /* \"#utility.yul\":7147:7153   */\n      0x00\n        /* \"#utility.yul\":7174:7194   */\n      tag_484\n      tag_309\n      jump\t// in\n    tag_484:\n        /* \"#utility.yul\":7164:7194   */\n      swap1\n      pop\n        /* \"#utility.yul\":7203:7236   */\n      tag_485\n        /* \"#utility.yul\":7231:7235   */\n      dup3\n        /* \"#utility.yul\":7223:7229   */\n      dup3\n        /* \"#utility.yul\":7203:7236   */\n      tag_335\n      jump\t// in\n    tag_485:\n        /* \"#utility.yul\":7113:7242   */\n      swap2\n      swap1\n      pop\n      jump\t// out\n        /* \"#utility.yul\":7248:7556   */\n    tag_337:\n        /* \"#utility.yul\":7310:7314   */\n      0x00\n        /* \"#utility.yul\":7400:7418   */\n      0xffffffffffffffff\n        /* \"#utility.yul\":7392:7398   */\n      dup3\n        /* \"#utility.yul\":7389:7419   */\n      gt\n        /* \"#utility.yul\":7386:7442   */\n      iszero\n      tag_487\n      jumpi\n        /* \"#utility.yul\":7422:7440   */\n      tag_488\n      tag_334\n      jump\t// in\n    tag_488:\n        /* \"#utility.yul\":7386:7442   */\n    tag_487:\n        /* \"#utility.yul\":7460:7489   */\n      tag_489\n        /* \"#utility.yul\":7482:7488   */\n      dup3\n        /* \"#utility.yul\":7460:7489   */\n      tag_333\n      jump\t// in\n    tag_489:\n        /* \"#utility.yul\":7452:7489   */\n      swap1\n      pop\n        /* \"#utility.yul\":7544:7548   */\n      0x20\n        /* \"#utility.yul\":7538:7542   */\n      dup2\n        /* \"#utility.yul\":7534:7549   */\n      add\n        /* \"#utility.yul\":7526:7549   */\n      swap1\n      pop\n        /* \"#utility.yul\":7248:7556   */\n      swap2\n      swap1\n      pop\n      jump\t// out\n        /* \"#utility.yul\":7562:7710   */\n    tag_338:\n        /* \"#utility.yul\":7660:7666   */\n      dup3\n        /* \"#utility.yul\":7655:7658   */\n      dup2\n        /* \"#utility.yul\":7650:7653   */\n      dup4\n        /* \"#utility.yul\":7637:7667   */\n      calldatacopy\n        /* \"#utility.yul\":7701:7702   */\n      0x00\n        /* \"#utility.yul\":7692:7698   */\n      dup4\n        /* \"#utility.yul\":7687:7690   */\n      dup4\n        /* \"#utility.yul\":7683:7699   */\n      add\n        /* \"#utility.yul\":7676:7703   */\n      mstore\n        /* \"#utility.yul\":7562:7710   */\n      pop\n      pop\n      pop\n      jump\t// out\n        /* \"#utility.yul\":7716:8141   */\n    tag_339:\n        /* \"#utility.yul\":7794:7799   */\n      0x00\n        /* \"#utility.yul\":7819:7885   */\n      tag_492\n        /* \"#utility.yul\":7835:7884   */\n      tag_493\n        /* \"#utility.yul\":7877:7883   */\n      dup5\n        /* \"#utility.yul\":7835:7884   */\n      tag_337\n      jump\t// in\n    tag_493:\n        /* \"#utility.yul\":7819:7885   */\n      tag_336\n      jump\t// in\n    tag_492:\n        /* \"#utility.yul\":7810:7885   */\n      swap1\n      pop\n        /* \"#utility.yul\":7908:7914   */\n      dup3\n        /* \"#utility.yul\":7901:7906   */\n      dup2\n        /* \"#utility.yul\":7894:7915   */\n      mstore\n        /* \"#utility.yul\":7946:7950   */\n      0x20\n        /* \"#utility.yul\":7939:7944   */\n      dup2\n        /* \"#utility.yul\":7935:7951   */\n      add\n        /* \"#utility.yul\":7984:7987   */\n      dup5\n        /* \"#utility.yul\":7975:7981   */\n      dup5\n        /* \"#utility.yul\":7970:7973   */\n      dup5\n        /* \"#utility.yul\":7966:7982   */\n      add\n        /* \"#utility.yul\":7963:7988   */\n      gt\n        /* \"#utility.yul\":7960:8072   */\n      iszero\n      tag_494\n      jumpi\n        /* \"#utility.yul\":7991:8070   */\n      tag_495\n      tag_332\n      jump\t// in\n    tag_495:\n        /* \"#utility.yul\":7960:8072   */\n    tag_494:\n        /* \"#utility.yul\":8081:8135   */\n      tag_496\n        /* \"#utility.yul\":8128:8134   */\n      dup5\n        /* \"#utility.yul\":8123:8126   */\n      dup3\n        /* \"#utility.yul\":8118:8121   */\n      dup6\n        /* \"#utility.yul\":8081:8135   */\n      tag_338\n      jump\t// in\n    tag_496:\n        /* \"#utility.yul\":7800:8141   */\n      pop\n        /* \"#utility.yul\":7716:8141   */\n      swap4\n      swap3\n      pop\n      pop\n      pop\n      jump\t// out\n        /* \"#utility.yul\":8161:8501   */\n    tag_340:\n        /* \"#utility.yul\":8217:8222   */\n      0x00\n        /* \"#utility.yul\":8266:8269   */\n      dup3\n        /* \"#utility.yul\":8259:8263   */\n      0x1f\n        /* \"#utility.yul\":8251:8257   */\n      dup4\n        /* \"#utility.yul\":8247:8264   */\n      add\n        /* \"#utility.yul\":8243:8270   */\n      slt\n        /* \"#utility.yul\":8233:8355   */\n      tag_498\n      jumpi\n        /* \"#utility.yul\":8274:8353   */\n      tag_499\n      tag_331\n      jump\t// in\n    tag_499:\n        /* \"#utility.yul\":8233:8355   */\n    tag_498:\n        /* \"#utility.yul\":8391:8397   */\n      dup2\n        /* \"#utility.yul\":8378:8398   */\n      calldataload\n        /* \"#utility.yul\":8416:8495   */\n      tag_500\n        /* \"#utility.yul\":8491:8494   */\n      dup5\n        /* \"#utility.yul\":8483:8489   */\n      dup3\n        /* \"#utility.yul\":8476:8480   */\n      0x20\n        /* \"#utility.yul\":8468:8474   */\n      dup7\n        /* \"#utility.yul\":8464:8481   */\n      add\n        /* \"#utility.yul\":8416:8495   */\n      tag_339\n      jump\t// in\n    tag_500:\n        /* \"#utility.yul\":8407:8495   */\n      swap2\n      pop\n        /* \"#utility.yul\":8223:8501   */\n      pop\n        /* \"#utility.yul\":8161:8501   */\n      swap3\n      swap2\n      pop\n      pop\n      jump\t// out\n        /* \"#utility.yul\":8507:9161   */\n    tag_81:\n        /* \"#utility.yul\":8585:8591   */\n      0x00\n        /* \"#utility.yul\":8593:8599   */\n      dup1\n        /* \"#utility.yul\":8642:8644   */\n      0x40\n        /* \"#utility.yul\":8630:8639   */\n      dup4\n        /* \"#utility.yul\":8621:8628   */\n      dup6\n        /* \"#utility.yul\":8617:8640   */\n      sub\n        /* \"#utility.yul\":8613:8645   */\n      slt\n        /* \"#utility.yul\":8610:8729   */\n      iszero\n      tag_502\n      jumpi\n        /* \"#utility.yul\":8648:8727   */\n      tag_503\n      tag_310\n      jump\t// in\n    tag_503:\n        /* \"#utility.yul\":8610:8729   */\n    tag_502:\n        /* \"#utility.yul\":8796:8797   */\n      0x00\n        /* \"#utility.yul\":8785:8794   */\n      dup4\n        /* \"#utility.yul\":8781:8798   */\n      add\n        /* \"#utility.yul\":8768:8799   */\n      calldataload\n        /* \"#utility.yul\":8826:8844   */\n      0xffffffffffffffff\n        /* \"#utility.yul\":8818:8824   */\n      dup2\n        /* \"#utility.yul\":8815:8845   */\n      gt\n        /* \"#utility.yul\":8812:8929   */\n      iszero\n      tag_504\n      jumpi\n        /* \"#utility.yul\":8848:8927   */\n      tag_505\n      tag_311\n      jump\t// in\n    tag_505:\n        /* \"#utility.yul\":8812:8929   */\n    tag_504:\n        /* \"#utility.yul\":8953:9016   */\n      tag_506\n        /* \"#utility.yul\":9008:9015   */\n      dup6\n        /* \"#utility.yul\":8999:9005   */\n      dup3\n        /* \"#utility.yul\":8988:8997   */\n      dup7\n        /* \"#utility.yul\":8984:9006   */\n      add\n        /* \"#utility.yul\":8953:9016   */\n      tag_340\n      jump\t// in\n    tag_506:\n        /* \"#utility.yul\":8943:9016   */\n      swap3\n      pop\n        /* \"#utility.yul\":8739:9026   */\n      pop\n        /* \"#utility.yul\":9065:9067   */\n      0x20\n        /* \"#utility.yul\":9091:9144   */\n      tag_507\n        /* \"#utility.yul\":9136:9143   */\n      dup6\n        /* \"#utility.yul\":9127:9133   */\n      dup3\n        /* \"#utility.yul\":9116:9125   */\n      dup7\n        /* \"#utility.yul\":9112:9134   */\n      add\n        /* \"#utility.yul\":9091:9144   */\n      tag_324\n      jump\t// in\n    tag_507:\n        /* \"#utility.yul\":9081:9144   */\n      swap2\n      pop\n        /* \"#utility.yul\":9036:9154   */\n      pop\n        /* \"#utility.yul\":8507:9161   */\n      swap3\n      pop\n      swap3\n      swap1\n      pop\n      jump\t// out\n        /* \"#utility.yul\":9167:9285   */\n    tag_341:\n        /* \"#utility.yul\":9254:9278   */\n      tag_509\n        /* \"#utility.yul\":9272:9277   */\n      dup2\n        /* \"#utility.yul\":9254:9278   */\n      tag_320\n      jump\t// in\n    tag_509:\n        /* \"#utility.yul\":9249:9252   */\n      dup3\n        /* \"#utility.yul\":9242:9279   */\n      mstore\n        /* \"#utility.yul\":9167:9285   */\n      pop\n      pop\n      jump\t// out\n        /* \"#utility.yul\":9291:9513   */\n    tag_91:\n        /* \"#utility.yul\":9384:9388   */\n      0x00\n        /* \"#utility.yul\":9422:9424   */\n      0x20\n        /* \"#utility.yul\":9411:9420   */\n      dup3\n        /* \"#utility.yul\":9407:9425   */\n      add\n        /* \"#utility.yul\":9399:9425   */\n      swap1\n      pop\n        /* \"#utility.yul\":9435:9506   */\n      tag_511\n        /* \"#utility.yul\":9503:9504   */\n      0x00\n        /* \"#utility.yul\":9492:9501   */\n      dup4\n        /* \"#utility.yul\":9488:9505   */\n      add\n        /* \"#utility.yul\":9479:9485   */\n      dup5\n        /* \"#utility.yul\":9435:9506   */\n      tag_341\n      jump\t// in\n    tag_511:\n        /* \"#utility.yul\":9291:9513   */\n      swap3\n      swap2\n      pop\n      pop\n      jump\t// out\n        /* \"#utility.yul\":9519:9848   */\n    tag_94:\n        /* \"#utility.yul\":9578:9584   */\n      0x00\n        /* \"#utility.yul\":9627:9629   */\n      0x20\n        /* \"#utility.yul\":9615:9624   */\n      dup3\n        /* \"#utility.yul\":9606:9613   */\n      dup5\n        /* \"#utility.yul\":9602:9625   */\n      sub\n        /* \"#utility.yul\":9598:9630   */\n      slt\n        /* \"#utility.yul\":9595:9714   */\n      iszero\n      tag_513\n      jumpi\n        /* \"#utility.yul\":9633:9712   */\n      tag_514\n      tag_310\n      jump\t// in\n    tag_514:\n        /* \"#utility.yul\":9595:9714   */\n    tag_513:\n        /* \"#utility.yul\":9753:9754   */\n      0x00\n        /* \"#utility.yul\":9778:9831   */\n      tag_515\n        /* \"#utility.yul\":9823:9830   */\n      dup5\n        /* \"#utility.yul\":9814:9820   */\n      dup3\n        /* \"#utility.yul\":9803:9812   */\n      dup6\n        /* \"#utility.yul\":9799:9821   */\n      add\n        /* \"#utility.yul\":9778:9831   */\n      tag_324\n      jump\t// in\n    tag_515:\n        /* \"#utility.yul\":9768:9831   */\n      swap2\n      pop\n        /* \"#utility.yul\":9724:9841   */\n      pop\n        /* \"#utility.yul\":9519:9848   */\n      swap3\n      swap2\n      pop\n      pop\n      jump\t// out\n        /* \"#utility.yul\":9854:9953   */\n    tag_342:\n        /* \"#utility.yul\":9906:9912   */\n      0x00\n        /* \"#utility.yul\":9940:9945   */\n      dup2\n        /* \"#utility.yul\":9934:9946   */\n      mload\n        /* \"#utility.yul\":9924:9946   */\n      swap1\n      pop\n        /* \"#utility.yul\":9854:9953   */\n      swap2\n      swap1\n      pop\n      jump\t// out\n        /* \"#utility.yul\":9959:10128   */\n    tag_343:\n        /* \"#utility.yul\":10043:10054   */\n      0x00\n        /* \"#utility.yul\":10077:10083   */\n      dup3\n        /* \"#utility.yul\":10072:10075   */\n      dup3\n        /* \"#utility.yul\":10065:10084   */\n      mstore\n        /* \"#utility.yul\":10117:10121   */\n      0x20\n        /* \"#utility.yul\":10112:10115   */\n      dup3\n        /* \"#utility.yul\":10108:10122   */\n      add\n        /* \"#utility.yul\":10093:10122   */\n      swap1\n      pop\n        /* \"#utility.yul\":9959:10128   */\n      swap3\n      swap2\n      pop\n      pop\n      jump\t// out\n        /* \"#utility.yul\":10134:10273   */\n    tag_344:\n        /* \"#utility.yul\":10223:10229   */\n      dup3\n        /* \"#utility.yul\":10218:10221   */\n      dup2\n        /* \"#utility.yul\":10213:10216   */\n      dup4\n        /* \"#utility.yul\":10207:10230   */\n      mcopy\n        /* \"#utility.yul\":10264:10265   */\n      0x00\n        /* \"#utility.yul\":10255:10261   */\n      dup4\n        /* \"#utility.yul\":10250:10253   */\n      dup4\n        /* \"#utility.yul\":10246:10262   */\n      add\n        /* \"#utility.yul\":10239:10266   */\n      mstore\n        /* \"#utility.yul\":10134:10273   */\n      pop\n      pop\n      pop\n      jump\t// out\n        /* \"#utility.yul\":10279:10656   */\n    tag_345:\n        /* \"#utility.yul\":10367:10370   */\n      0x00\n        /* \"#utility.yul\":10395:10434   */\n      tag_520\n        /* \"#utility.yul\":10428:10433   */\n      dup3\n        /* \"#utility.yul\":10395:10434   */\n      tag_342\n      jump\t// in\n    tag_520:\n        /* \"#utility.yul\":10450:10521   */\n      tag_521\n        /* \"#utility.yul\":10514:10520   */\n      dup2\n        /* \"#utility.yul\":10509:10512   */\n      dup6\n        /* \"#utility.yul\":10450:10521   */\n      tag_343\n      jump\t// in\n    tag_521:\n        /* \"#utility.yul\":10443:10521   */\n      swap4\n      pop\n        /* \"#utility.yul\":10530:10595   */\n      tag_522\n        /* \"#utility.yul\":10588:10594   */\n      dup2\n        /* \"#utility.yul\":10583:10586   */\n      dup6\n        /* \"#utility.yul\":10576:10580   */\n      0x20\n        /* \"#utility.yul\":10569:10574   */\n      dup7\n        /* \"#utility.yul\":10565:10581   */\n      add\n        /* \"#utility.yul\":10530:10595   */\n      tag_344\n      jump\t// in\n    tag_522:\n        /* \"#utility.yul\":10620:10649   */\n      tag_523\n        /* \"#utility.yul\":10642:10648   */\n      dup2\n        /* \"#utility.yul\":10620:10649   */\n      tag_333\n      jump\t// in\n    tag_523:\n        /* \"#utility.yul\":10615:10618   */\n      dup5\n        /* \"#utility.yul\":10611:10650   */\n      add\n        /* \"#utility.yul\":10604:10650   */\n      swap2\n      pop\n        /* \"#utility.yul\":10371:10656   */\n      pop\n        /* \"#utility.yul\":10279:10656   */\n      swap3\n      swap2\n      pop\n      pop\n      jump\t// out\n        /* \"#utility.yul\":10662:11294   */\n    tag_107:\n        /* \"#utility.yul\":10853:10857   */\n      0x00\n        /* \"#utility.yul\":10891:10894   */\n      0x80\n        /* \"#utility.yul\":10880:10889   */\n      dup3\n        /* \"#utility.yul\":10876:10895   */\n      add\n        /* \"#utility.yul\":10868:10895   */\n      swap1\n      pop\n        /* \"#utility.yul\":10941:10950   */\n      dup2\n        /* \"#utility.yul\":10935:10939   */\n      dup2\n        /* \"#utility.yul\":10931:10951   */\n      sub\n        /* \"#utility.yul\":10927:10928   */\n      0x00\n        /* \"#utility.yul\":10916:10925   */\n      dup4\n        /* \"#utility.yul\":10912:10929   */\n      add\n        /* \"#utility.yul\":10905:10952   */\n      mstore\n        /* \"#utility.yul\":10969:11047   */\n      tag_525\n        /* \"#utility.yul\":11042:11046   */\n      dup2\n        /* \"#utility.yul\":11033:11039   */\n      dup8\n        /* \"#utility.yul\":10969:11047   */\n      tag_345\n      jump\t// in\n    tag_525:\n        /* \"#utility.yul\":10961:11047   */\n      swap1\n      pop\n        /* \"#utility.yul\":11057:11129   */\n      tag_526\n        /* \"#utility.yul\":11125:11127   */\n      0x20\n        /* \"#utility.yul\":11114:11123   */\n      dup4\n        /* \"#utility.yul\":11110:11128   */\n      add\n        /* \"#utility.yul\":11101:11107   */\n      dup7\n        /* \"#utility.yul\":11057:11129   */\n      tag_318\n      jump\t// in\n    tag_526:\n        /* \"#utility.yul\":11139:11211   */\n      tag_527\n        /* \"#utility.yul\":11207:11209   */\n      0x40\n        /* \"#utility.yul\":11196:11205   */\n      dup4\n        /* \"#utility.yul\":11192:11210   */\n      add\n        /* \"#utility.yul\":11183:11189   */\n      dup6\n        /* \"#utility.yul\":11139:11211   */\n      tag_318\n      jump\t// in\n    tag_527:\n        /* \"#utility.yul\":11221:11287   */\n      tag_528\n        /* \"#utility.yul\":11283:11285   */\n      0x60\n        /* \"#utility.yul\":11272:11281   */\n      dup4\n        /* \"#utility.yul\":11268:11286   */\n      add\n        /* \"#utility.yul\":11259:11265   */\n      dup5\n        /* \"#utility.yul\":11221:11287   */\n      tag_316\n      jump\t// in\n    tag_528:\n        /* \"#utility.yul\":10662:11294   */\n      swap6\n      swap5\n      pop\n      pop\n      pop\n      pop\n      pop\n      jump\t// out\n        /* \"#utility.yul\":11300:11360   */\n    tag_346:\n        /* \"#utility.yul\":11328:11331   */\n      0x00\n        /* \"#utility.yul\":11349:11354   */\n      dup2\n        /* \"#utility.yul\":11342:11354   */\n      swap1\n      pop\n        /* \"#utility.yul\":11300:11360   */\n      swap2\n      swap1\n      pop\n      jump\t// out\n        /* \"#utility.yul\":11366:11508   */\n    tag_347:\n        /* \"#utility.yul\":11416:11425   */\n      0x00\n        /* \"#utility.yul\":11449:11502   */\n      tag_531\n        /* \"#utility.yul\":11467:11501   */\n      tag_532\n        /* \"#utility.yul\":11476:11500   */\n      tag_533\n        /* \"#utility.yul\":11494:11499   */\n      dup5\n        /* \"#utility.yul\":11476:11500   */\n      tag_319\n      jump\t// in\n    tag_533:\n        /* \"#utility.yul\":11467:11501   */\n      tag_346\n      jump\t// in\n    tag_532:\n        /* \"#utility.yul\":11449:11502   */\n      tag_319\n      jump\t// in\n    tag_531:\n        /* \"#utility.yul\":11436:11502   */\n      swap1\n      pop\n        /* \"#utility.yul\":11366:11508   */\n      swap2\n      swap1\n      pop\n      jump\t// out\n        /* \"#utility.yul\":11514:11640   */\n    tag_348:\n        /* \"#utility.yul\":11564:11573   */\n      0x00\n        /* \"#utility.yul\":11597:11634   */\n      tag_535\n        /* \"#utility.yul\":11628:11633   */\n      dup3\n        /* \"#utility.yul\":11597:11634   */\n      tag_347\n      jump\t// in\n    tag_535:\n        /* \"#utility.yul\":11584:11634   */\n      swap1\n      pop\n        /* \"#utility.yul\":11514:11640   */\n      swap2\n      swap1\n      pop\n      jump\t// out\n        /* \"#utility.yul\":11646:11786   */\n    tag_349:\n        /* \"#utility.yul\":11710:11719   */\n      0x00\n        /* \"#utility.yul\":11743:11780   */\n      tag_537\n        /* \"#utility.yul\":11774:11779   */\n      dup3\n        /* \"#utility.yul\":11743:11780   */\n      tag_348\n      jump\t// in\n    tag_537:\n        /* \"#utility.yul\":11730:11780   */\n      swap1\n      pop\n        /* \"#utility.yul\":11646:11786   */\n      swap2\n      swap1\n      pop\n      jump\t// out\n        /* \"#utility.yul\":11792:11951   */\n    tag_350:\n        /* \"#utility.yul\":11893:11944   */\n      tag_539\n        /* \"#utility.yul\":11938:11943   */\n      dup2\n        /* \"#utility.yul\":11893:11944   */\n      tag_349\n      jump\t// in\n    tag_539:\n        /* \"#utility.yul\":11888:11891   */\n      dup3\n        /* \"#utility.yul\":11881:11945   */\n      mstore\n        /* \"#utility.yul\":11792:11951   */\n      pop\n      pop\n      jump\t// out\n        /* \"#utility.yul\":11957:12207   */\n    tag_117:\n        /* \"#utility.yul\":12064:12068   */\n      0x00\n        /* \"#utility.yul\":12102:12104   */\n      0x20\n        /* \"#utility.yul\":12091:12100   */\n      dup3\n        /* \"#utility.yul\":12087:12105   */\n      add\n        /* \"#utility.yul\":12079:12105   */\n      swap1\n      pop\n        /* \"#utility.yul\":12115:12200   */\n      tag_541\n        /* \"#utility.yul\":12197:12198   */\n      0x00\n        /* \"#utility.yul\":12186:12195   */\n      dup4\n        /* \"#utility.yul\":12182:12199   */\n      add\n        /* \"#utility.yul\":12173:12179   */\n      dup5\n        /* \"#utility.yul\":12115:12200   */\n      tag_350\n      jump\t// in\n    tag_541:\n        /* \"#utility.yul\":11957:12207   */\n      swap3\n      swap2\n      pop\n      pop\n      jump\t// out\n        /* \"#utility.yul\":12213:12381   */\n    tag_351:\n        /* \"#utility.yul\":12353:12373   */\n      0x41504920646f6573206e6f742065786973740000000000000000000000000000\n        /* \"#utility.yul\":12349:12350   */\n      0x00\n        /* \"#utility.yul\":12341:12347   */\n      dup3\n        /* \"#utility.yul\":12337:12351   */\n      add\n        /* \"#utility.yul\":12330:12374   */\n      mstore\n        /* \"#utility.yul\":12213:12381   */\n      pop\n      jump\t// out\n        /* \"#utility.yul\":12387:12753   */\n    tag_352:\n        /* \"#utility.yul\":12529:12532   */\n      0x00\n        /* \"#utility.yul\":12550:12617   */\n      tag_544\n        /* \"#utility.yul\":12614:12616   */\n      0x12\n        /* \"#utility.yul\":12609:12612   */\n      dup4\n        /* \"#utility.yul\":12550:12617   */\n      tag_343\n      jump\t// in\n    tag_544:\n        /* \"#utility.yul\":12543:12617   */\n      swap2\n      pop\n        /* \"#utility.yul\":12626:12719   */\n      tag_545\n        /* \"#utility.yul\":12715:12718   */\n      dup3\n        /* \"#utility.yul\":12626:12719   */\n      tag_351\n      jump\t// in\n    tag_545:\n        /* \"#utility.yul\":12744:12746   */\n      0x20\n        /* \"#utility.yul\":12739:12742   */\n      dup3\n        /* \"#utility.yul\":12735:12747   */\n      add\n        /* \"#utility.yul\":12728:12747   */\n      swap1\n      pop\n        /* \"#utility.yul\":12387:12753   */\n      swap2\n      swap1\n      pop\n      jump\t// out\n        /* \"#utility.yul\":12759:13178   */\n    tag_125:\n        /* \"#utility.yul\":12925:12929   */\n      0x00\n        /* \"#utility.yul\":12963:12965   */\n      0x20\n        /* \"#utility.yul\":12952:12961   */\n      dup3\n        /* \"#utility.yul\":12948:12966   */\n      add\n        /* \"#utility.yul\":12940:12966   */\n      swap1\n      pop\n        /* \"#utility.yul\":13012:13021   */\n      dup2\n        /* \"#utility.yul\":13006:13010   */\n      dup2\n        /* \"#utility.yul\":13002:13022   */\n      sub\n        /* \"#utility.yul\":12998:12999   */\n      0x00\n        /* \"#utility.yul\":12987:12996   */\n      dup4\n        /* \"#utility.yul\":12983:13000   */\n      add\n        /* \"#utility.yul\":12976:13023   */\n      mstore\n        /* \"#utility.yul\":13040:13171   */\n      tag_547\n        /* \"#utility.yul\":13166:13170   */\n      dup2\n        /* \"#utility.yul\":13040:13171   */\n      tag_352\n      jump\t// in\n    tag_547:\n        /* \"#utility.yul\":13032:13171   */\n      swap1\n      pop\n        /* \"#utility.yul\":12759:13178   */\n      swap2\n      swap1\n      pop\n      jump\t// out\n        /* \"#utility.yul\":13184:13357   */\n    tag_353:\n        /* \"#utility.yul\":13324:13349   */\n      0x43616c6c6572206973206e6f7420746865206f776e6572000000000000000000\n        /* \"#utility.yul\":13320:13321   */\n      0x00\n        /* \"#utility.yul\":13312:13318   */\n      dup3\n        /* \"#utility.yul\":13308:13322   */\n      add\n        /* \"#utility.yul\":13301:13350   */\n      mstore\n        /* \"#utility.yul\":13184:13357   */\n      pop\n      jump\t// out\n        /* \"#utility.yul\":13363:13729   */\n    tag_354:\n        /* \"#utility.yul\":13505:13508   */\n      0x00\n        /* \"#utility.yul\":13526:13593   */\n      tag_550\n        /* \"#utility.yul\":13590:13592   */\n      0x17\n        /* \"#utility.yul\":13585:13588   */\n      dup4\n        /* \"#utility.yul\":13526:13593   */\n      tag_343\n      jump\t// in\n    tag_550:\n        /* \"#utility.yul\":13519:13593   */\n      swap2\n      pop\n        /* \"#utility.yul\":13602:13695   */\n      tag_551\n        /* \"#utility.yul\":13691:13694   */\n      dup3\n        /* \"#utility.yul\":13602:13695   */\n      tag_353\n      jump\t// in\n    tag_551:\n        /* \"#utility.yul\":13720:13722   */\n      0x20\n        /* \"#utility.yul\":13715:13718   */\n      dup3\n        /* \"#utility.yul\":13711:13723   */\n      add\n        /* \"#utility.yul\":13704:13723   */\n      swap1\n      pop\n        /* \"#utility.yul\":13363:13729   */\n      swap2\n      swap1\n      pop\n      jump\t// out\n        /* \"#utility.yul\":13735:14154   */\n    tag_130:\n        /* \"#utility.yul\":13901:13905   */\n      0x00\n        /* \"#utility.yul\":13939:13941   */\n      0x20\n        /* \"#utility.yul\":13928:13937   */\n      dup3\n        /* \"#utility.yul\":13924:13942   */\n      add\n        /* \"#utility.yul\":13916:13942   */\n      swap1\n      pop\n        /* \"#utility.yul\":13988:13997   */\n      dup2\n        /* \"#utility.yul\":13982:13986   */\n      dup2\n        /* \"#utility.yul\":13978:13998   */\n      sub\n        /* \"#utility.yul\":13974:13975   */\n      0x00\n        /* \"#utility.yul\":13963:13972   */\n      dup4\n        /* \"#utility.yul\":13959:13976   */\n      add\n        /* \"#utility.yul\":13952:13999   */\n      mstore\n        /* \"#utility.yul\":14016:14147   */\n      tag_553\n        /* \"#utility.yul\":14142:14146   */\n      dup2\n        /* \"#utility.yul\":14016:14147   */\n      tag_354\n      jump\t// in\n    tag_553:\n        /* \"#utility.yul\":14008:14147   */\n      swap1\n      pop\n        /* \"#utility.yul\":13735:14154   */\n      swap2\n      swap1\n      pop\n      jump\t// out\n        /* \"#utility.yul\":14160:14332   */\n    tag_355:\n        /* \"#utility.yul\":14300:14324   */\n      0x43616c6c6572206973206e6f7420616e2061646d696e00000000000000000000\n        /* \"#utility.yul\":14296:14297   */\n      0x00\n        /* \"#utility.yul\":14288:14294   */\n      dup3\n        /* \"#utility.yul\":14284:14298   */\n      add\n        /* \"#utility.yul\":14277:14325   */\n      mstore\n        /* \"#utility.yul\":14160:14332   */\n      pop\n      jump\t// out\n        /* \"#utility.yul\":14338:14704   */\n    tag_356:\n        /* \"#utility.yul\":14480:14483   */\n      0x00\n        /* \"#utility.yul\":14501:14568   */\n      tag_556\n        /* \"#utility.yul\":14565:14567   */\n      0x16\n        /* \"#utility.yul\":14560:14563   */\n      dup4\n        /* \"#utility.yul\":14501:14568   */\n      tag_343\n      jump\t// in\n    tag_556:\n        /* \"#utility.yul\":14494:14568   */\n      swap2\n      pop\n        /* \"#utility.yul\":14577:14670   */\n      tag_557\n        /* \"#utility.yul\":14666:14669   */\n      dup3\n        /* \"#utility.yul\":14577:14670   */\n      tag_355\n      jump\t// in\n    tag_557:\n        /* \"#utility.yul\":14695:14697   */\n      0x20\n        /* \"#utility.yul\":14690:14693   */\n      dup3\n        /* \"#utility.yul\":14686:14698   */\n      add\n        /* \"#utility.yul\":14679:14698   */\n      swap1\n      pop\n        /* \"#utility.yul\":14338:14704   */\n      swap2\n      swap1\n      pop\n      jump\t// out\n        /* \"#utility.yul\":14710:15129   */\n    tag_138:\n        /* \"#utility.yul\":14876:14880   */\n      0x00\n        /* \"#utility.yul\":14914:14916   */\n      0x20\n        /* \"#utility.yul\":14903:14912   */\n      dup3\n        /* \"#utility.yul\":14899:14917   */\n      add\n        /* \"#utility.yul\":14891:14917   */\n      swap1\n      pop\n        /* \"#utility.yul\":14963:14972   */\n      dup2\n        /* \"#utility.yul\":14957:14961   */\n      dup2\n        /* \"#utility.yul\":14953:14973   */\n      sub\n        /* \"#utility.yul\":14949:14950   */\n      0x00\n        /* \"#utility.yul\":14938:14947   */\n      dup4\n        /* \"#utility.yul\":14934:14951   */\n      add\n        /* \"#utility.yul\":14927:14974   */\n      mstore\n        /* \"#utility.yul\":14991:15122   */\n      tag_559\n        /* \"#utility.yul\":15117:15121   */\n      dup2\n        /* \"#utility.yul\":14991:15122   */\n      tag_356\n      jump\t// in\n    tag_559:\n        /* \"#utility.yul\":14983:15122   */\n      swap1\n      pop\n        /* \"#utility.yul\":14710:15129   */\n      swap2\n      swap1\n      pop\n      jump\t// out\n        /* \"#utility.yul\":15135:15366   */\n    tag_357:\n        /* \"#utility.yul\":15275:15309   */\n      0x4e756d626572206f66207265717565737473206d757374206265206772656174\n        /* \"#utility.yul\":15271:15272   */\n      0x00\n        /* \"#utility.yul\":15263:15269   */\n      dup3\n        /* \"#utility.yul\":15259:15273   */\n      add\n        /* \"#utility.yul\":15252:15310   */\n      mstore\n        /* \"#utility.yul\":15344:15358   */\n      0x6572207468616e207a65726f0000000000000000000000000000000000000000\n        /* \"#utility.yul\":15339:15341   */\n      0x20\n        /* \"#utility.yul\":15331:15337   */\n      dup3\n        /* \"#utility.yul\":15327:15342   */\n      add\n        /* \"#utility.yul\":15320:15359   */\n      mstore\n        /* \"#utility.yul\":15135:15366   */\n      pop\n      jump\t// out\n        /* \"#utility.yul\":15372:15738   */\n    tag_358:\n        /* \"#utility.yul\":15514:15517   */\n      0x00\n        /* \"#utility.yul\":15535:15602   */\n      tag_562\n        /* \"#utility.yul\":15599:15601   */\n      0x2c\n        /* \"#utility.yul\":15594:15597   */\n      dup4\n        /* \"#utility.yul\":15535:15602   */\n      tag_343\n      jump\t// in\n    tag_562:\n        /* \"#utility.yul\":15528:15602   */\n      swap2\n      pop\n        /* \"#utility.yul\":15611:15704   */\n      tag_563\n        /* \"#utility.yul\":15700:15703   */\n      dup3\n        /* \"#utility.yul\":15611:15704   */\n      tag_357\n      jump\t// in\n    tag_563:\n        /* \"#utility.yul\":15729:15731   */\n      0x40\n        /* \"#utility.yul\":15724:15727   */\n      dup3\n        /* \"#utility.yul\":15720:15732   */\n      add\n        /* \"#utility.yul\":15713:15732   */\n      swap1\n      pop\n        /* \"#utility.yul\":15372:15738   */\n      swap2\n      swap1\n      pop\n      jump\t// out\n        /* \"#utility.yul\":15744:16163   */\n    tag_164:\n        /* \"#utility.yul\":15910:15914   */\n      0x00\n        /* \"#utility.yul\":15948:15950   */\n      0x20\n        /* \"#utility.yul\":15937:15946   */\n      dup3\n        /* \"#utility.yul\":15933:15951   */\n      add\n        /* \"#utility.yul\":15925:15951   */\n      swap1\n      pop\n        /* \"#utility.yul\":15997:16006   */\n      dup2\n        /* \"#utility.yul\":15991:15995   */\n      dup2\n        /* \"#utility.yul\":15987:16007   */\n      sub\n        /* \"#utility.yul\":15983:15984   */\n      0x00\n        /* \"#utility.yul\":15972:15981   */\n      dup4\n        /* \"#utility.yul\":15968:15985   */\n      add\n        /* \"#utility.yul\":15961:16008   */\n      mstore\n        /* \"#utility.yul\":16025:16156   */\n      tag_565\n        /* \"#utility.yul\":16151:16155   */\n      dup2\n        /* \"#utility.yul\":16025:16156   */\n      tag_358\n      jump\t// in\n    tag_565:\n        /* \"#utility.yul\":16017:16156   */\n      swap1\n      pop\n        /* \"#utility.yul\":15744:16163   */\n      swap2\n      swap1\n      pop\n      jump\t// out\n        /* \"#utility.yul\":16169:16336   */\n    tag_359:\n        /* \"#utility.yul\":16309:16328   */\n      0x415049206973206e6f7420616374697665000000000000000000000000000000\n        /* \"#utility.yul\":16305:16306   */\n      0x00\n        /* \"#utility.yul\":16297:16303   */\n      dup3\n        /* \"#utility.yul\":16293:16307   */\n      add\n        /* \"#utility.yul\":16286:16329   */\n      mstore\n        /* \"#utility.yul\":16169:16336   */\n      pop\n      jump\t// out\n        /* \"#utility.yul\":16342:16708   */\n    tag_360:\n        /* \"#utility.yul\":16484:16487   */\n      0x00\n        /* \"#utility.yul\":16505:16572   */\n      tag_568\n        /* \"#utility.yul\":16569:16571   */\n      0x11\n        /* \"#utility.yul\":16564:16567   */\n      dup4\n        /* \"#utility.yul\":16505:16572   */\n      tag_343\n      jump\t// in\n    tag_568:\n        /* \"#utility.yul\":16498:16572   */\n      swap2\n      pop\n        /* \"#utility.yul\":16581:16674   */\n      tag_569\n        /* \"#utility.yul\":16670:16673   */\n      dup3\n        /* \"#utility.yul\":16581:16674   */\n      tag_359\n      jump\t// in\n    tag_569:\n        /* \"#utility.yul\":16699:16701   */\n      0x20\n        /* \"#utility.yul\":16694:16697   */\n      dup3\n        /* \"#utility.yul\":16690:16702   */\n      add\n        /* \"#utility.yul\":16683:16702   */\n      swap1\n      pop\n        /* \"#utility.yul\":16342:16708   */\n      swap2\n      swap1\n      pop\n      jump\t// out\n        /* \"#utility.yul\":16714:17133   */\n    tag_167:\n        /* \"#utility.yul\":16880:16884   */\n      0x00\n        /* \"#utility.yul\":16918:16920   */\n      0x20\n        /* \"#utility.yul\":16907:16916   */\n      dup3\n        /* \"#utility.yul\":16903:16921   */\n      add\n        /* \"#utility.yul\":16895:16921   */\n      swap1\n      pop\n        /* \"#utility.yul\":16967:16976   */\n      dup2\n        /* \"#utility.yul\":16961:16965   */\n      dup2\n        /* \"#utility.yul\":16957:16977   */\n      sub\n        /* \"#utility.yul\":16953:16954   */\n      0x00\n        /* \"#utility.yul\":16942:16951   */\n      dup4\n        /* \"#utility.yul\":16938:16955   */\n      add\n        /* \"#utility.yul\":16931:16978   */\n      mstore\n        /* \"#utility.yul\":16995:17126   */\n      tag_571\n        /* \"#utility.yul\":17121:17125   */\n      dup2\n        /* \"#utility.yul\":16995:17126   */\n      tag_360\n      jump\t// in\n    tag_571:\n        /* \"#utility.yul\":16987:17126   */\n      swap1\n      pop\n        /* \"#utility.yul\":16714:17133   */\n      swap2\n      swap1\n      pop\n      jump\t// out\n        /* \"#utility.yul\":17139:17319   */\n    tag_361:\n        /* \"#utility.yul\":17187:17264   */\n      0x4e487b7100000000000000000000000000000000000000000000000000000000\n        /* \"#utility.yul\":17184:17185   */\n      0x00\n        /* \"#utility.yul\":17177:17265   */\n      mstore\n        /* \"#utility.yul\":17284:17288   */\n      0x11\n        /* \"#utility.yul\":17281:17282   */\n      0x04\n        /* \"#utility.yul\":17274:17289   */\n      mstore\n        /* \"#utility.yul\":17308:17312   */\n      0x24\n        /* \"#utility.yul\":17305:17306   */\n      0x00\n        /* \"#utility.yul\":17298:17313   */\n      revert\n        /* \"#utility.yul\":17325:17735   */\n    tag_169:\n        /* \"#utility.yul\":17365:17372   */\n      0x00\n        /* \"#utility.yul\":17388:17408   */\n      tag_574\n        /* \"#utility.yul\":17406:17407   */\n      dup3\n        /* \"#utility.yul\":17388:17408   */\n      tag_317\n      jump\t// in\n    tag_574:\n        /* \"#utility.yul\":17383:17408   */\n      swap2\n      pop\n        /* \"#utility.yul\":17422:17442   */\n      tag_575\n        /* \"#utility.yul\":17440:17441   */\n      dup4\n        /* \"#utility.yul\":17422:17442   */\n      tag_317\n      jump\t// in\n    tag_575:\n        /* \"#utility.yul\":17417:17442   */\n      swap3\n      pop\n        /* \"#utility.yul\":17477:17478   */\n      dup3\n        /* \"#utility.yul\":17474:17475   */\n      dup3\n        /* \"#utility.yul\":17470:17479   */\n      mul\n        /* \"#utility.yul\":17499:17529   */\n      tag_576\n        /* \"#utility.yul\":17517:17528   */\n      dup2\n        /* \"#utility.yul\":17499:17529   */\n      tag_317\n      jump\t// in\n    tag_576:\n        /* \"#utility.yul\":17488:17529   */\n      swap2\n      pop\n        /* \"#utility.yul\":17678:17679   */\n      dup3\n        /* \"#utility.yul\":17669:17676   */\n      dup3\n        /* \"#utility.yul\":17665:17680   */\n      div\n        /* \"#utility.yul\":17662:17663   */\n      dup5\n        /* \"#utility.yul\":17659:17681   */\n      eq\n        /* \"#utility.yul\":17639:17640   */\n      dup4\n        /* \"#utility.yul\":17632:17641   */\n      iszero\n        /* \"#utility.yul\":17612:17695   */\n      or\n        /* \"#utility.yul\":17589:17728   */\n      tag_577\n      jumpi\n        /* \"#utility.yul\":17708:17726   */\n      tag_578\n      tag_361\n      jump\t// in\n    tag_578:\n        /* \"#utility.yul\":17589:17728   */\n    tag_577:\n        /* \"#utility.yul\":17373:17735   */\n      pop\n        /* \"#utility.yul\":17325:17735   */\n      swap3\n      swap2\n      pop\n      pop\n      jump\t// out\n        /* \"#utility.yul\":17741:17921   */\n    tag_362:\n        /* \"#utility.yul\":17789:17866   */\n      0x4e487b7100000000000000000000000000000000000000000000000000000000\n        /* \"#utility.yul\":17786:17787   */\n      0x00\n        /* \"#utility.yul\":17779:17867   */\n      mstore\n        /* \"#utility.yul\":17886:17890   */\n      0x12\n        /* \"#utility.yul\":17883:17884   */\n      0x04\n        /* \"#utility.yul\":17876:17891   */\n      mstore\n        /* \"#utility.yul\":17910:17914   */\n      0x24\n        /* \"#utility.yul\":17907:17908   */\n      0x00\n        /* \"#utility.yul\":17900:17915   */\n      revert\n        /* \"#utility.yul\":17927:18112   */\n    tag_171:\n        /* \"#utility.yul\":17967:17968   */\n      0x00\n        /* \"#utility.yul\":17984:18004   */\n      tag_581\n        /* \"#utility.yul\":18002:18003   */\n      dup3\n        /* \"#utility.yul\":17984:18004   */\n      tag_317\n      jump\t// in\n    tag_581:\n        /* \"#utility.yul\":17979:18004   */\n      swap2\n      pop\n        /* \"#utility.yul\":18018:18038   */\n      tag_582\n        /* \"#utility.yul\":18036:18037   */\n      dup4\n        /* \"#utility.yul\":18018:18038   */\n      tag_317\n      jump\t// in\n    tag_582:\n        /* \"#utility.yul\":18013:18038   */\n      swap3\n      pop\n        /* \"#utility.yul\":18057:18058   */\n      dup3\n        /* \"#utility.yul\":18047:18082   */\n      tag_583\n      jumpi\n        /* \"#utility.yul\":18062:18080   */\n      tag_584\n      tag_362\n      jump\t// in\n    tag_584:\n        /* \"#utility.yul\":18047:18082   */\n    tag_583:\n        /* \"#utility.yul\":18104:18105   */\n      dup3\n        /* \"#utility.yul\":18101:18102   */\n      dup3\n        /* \"#utility.yul\":18097:18106   */\n      div\n        /* \"#utility.yul\":18092:18106   */\n      swap1\n      pop\n        /* \"#utility.yul\":17927:18112   */\n      swap3\n      swap2\n      pop\n      pop\n      jump\t// out\n        /* \"#utility.yul\":18118:18285   */\n    tag_363:\n        /* \"#utility.yul\":18258:18277   */\n      0x4f766572666c6f77206465746563746564000000000000000000000000000000\n        /* \"#utility.yul\":18254:18255   */\n      0x00\n        /* \"#utility.yul\":18246:18252   */\n      dup3\n        /* \"#utility.yul\":18242:18256   */\n      add\n        /* \"#utility.yul\":18235:18278   */\n      mstore\n        /* \"#utility.yul\":18118:18285   */\n      pop\n      jump\t// out\n        /* \"#utility.yul\":18291:18657   */\n    tag_364:\n        /* \"#utility.yul\":18433:18436   */\n      0x00\n        /* \"#utility.yul\":18454:18521   */\n      tag_587\n        /* \"#utility.yul\":18518:18520   */\n      0x11\n        /* \"#utility.yul\":18513:18516   */\n      dup4\n        /* \"#utility.yul\":18454:18521   */\n      tag_343\n      jump\t// in\n    tag_587:\n        /* \"#utility.yul\":18447:18521   */\n      swap2\n      pop\n        /* \"#utility.yul\":18530:18623   */\n      tag_588\n        /* \"#utility.yul\":18619:18622   */\n      dup3\n        /* \"#utility.yul\":18530:18623   */\n      tag_363\n      jump\t// in\n    tag_588:\n        /* \"#utility.yul\":18648:18650   */\n      0x20\n        /* \"#utility.yul\":18643:18646   */\n      dup3\n        /* \"#utility.yul\":18639:18651   */\n      add\n        /* \"#utility.yul\":18632:18651   */\n      swap1\n      pop\n        /* \"#utility.yul\":18291:18657   */\n      swap2\n      swap1\n      pop\n      jump\t// out\n        /* \"#utility.yul\":18663:19082   */\n    tag_174:\n        /* \"#utility.yul\":18829:18833   */\n      0x00\n        /* \"#utility.yul\":18867:18869   */\n      0x20\n        /* \"#utility.yul\":18856:18865   */\n      dup3\n        /* \"#utility.yul\":18852:18870   */\n      add\n        /* \"#utility.yul\":18844:18870   */\n      swap1\n      pop\n        /* \"#utility.yul\":18916:18925   */\n      dup2\n        /* \"#utility.yul\":18910:18914   */\n      dup2\n        /* \"#utility.yul\":18906:18926   */\n      sub\n        /* \"#utility.yul\":18902:18903   */\n      0x00\n        /* \"#utility.yul\":18891:18900   */\n      dup4\n        /* \"#utility.yul\":18887:18904   */\n      add\n        /* \"#utility.yul\":18880:18927   */\n      mstore\n        /* \"#utility.yul\":18944:19075   */\n      tag_590\n        /* \"#utility.yul\":19070:19074   */\n      dup2\n        /* \"#utility.yul\":18944:19075   */\n      tag_364\n      jump\t// in\n    tag_590:\n        /* \"#utility.yul\":18936:19075   */\n      swap1\n      pop\n        /* \"#utility.yul\":18663:19082   */\n      swap2\n      swap1\n      pop\n      jump\t// out\n        /* \"#utility.yul\":19088:19279   */\n    tag_178:\n        /* \"#utility.yul\":19128:19131   */\n      0x00\n        /* \"#utility.yul\":19147:19167   */\n      tag_592\n        /* \"#utility.yul\":19165:19166   */\n      dup3\n        /* \"#utility.yul\":19147:19167   */\n      tag_317\n      jump\t// in\n    tag_592:\n        /* \"#utility.yul\":19142:19167   */\n      swap2\n      pop\n        /* \"#utility.yul\":19181:19201   */\n      tag_593\n        /* \"#utility.yul\":19199:19200   */\n      dup4\n        /* \"#utility.yul\":19181:19201   */\n      tag_317\n      jump\t// in\n    tag_593:\n        /* \"#utility.yul\":19176:19201   */\n      swap3\n      pop\n        /* \"#utility.yul\":19224:19225   */\n      dup3\n        /* \"#utility.yul\":19221:19222   */\n      dup3\n        /* \"#utility.yul\":19217:19226   */\n      add\n        /* \"#utility.yul\":19210:19226   */\n      swap1\n      pop\n        /* \"#utility.yul\":19245:19248   */\n      dup1\n        /* \"#utility.yul\":19242:19243   */\n      dup3\n        /* \"#utility.yul\":19239:19249   */\n      gt\n        /* \"#utility.yul\":19236:19272   */\n      iszero\n      tag_594\n      jumpi\n        /* \"#utility.yul\":19252:19270   */\n      tag_595\n      tag_361\n      jump\t// in\n    tag_595:\n        /* \"#utility.yul\":19236:19272   */\n    tag_594:\n        /* \"#utility.yul\":19088:19279   */\n      swap3\n      swap2\n      pop\n      pop\n      jump\t// out\n        /* \"#utility.yul\":19285:19459   */\n    tag_365:\n        /* \"#utility.yul\":19425:19451   */\n      0x415049206e616d652063616e6e6f7420626520656d7074790000000000000000\n        /* \"#utility.yul\":19421:19422   */\n      0x00\n        /* \"#utility.yul\":19413:19419   */\n      dup3\n        /* \"#utility.yul\":19409:19423   */\n      add\n        /* \"#utility.yul\":19402:19452   */\n      mstore\n        /* \"#utility.yul\":19285:19459   */\n      pop\n      jump\t// out\n        /* \"#utility.yul\":19465:19831   */\n    tag_366:\n        /* \"#utility.yul\":19607:19610   */\n      0x00\n        /* \"#utility.yul\":19628:19695   */\n      tag_598\n        /* \"#utility.yul\":19692:19694   */\n      0x18\n        /* \"#utility.yul\":19687:19690   */\n      dup4\n        /* \"#utility.yul\":19628:19695   */\n      tag_343\n      jump\t// in\n    tag_598:\n        /* \"#utility.yul\":19621:19695   */\n      swap2\n      pop\n        /* \"#utility.yul\":19704:19797   */\n      tag_599\n        /* \"#utility.yul\":19793:19796   */\n      dup3\n        /* \"#utility.yul\":19704:19797   */\n      tag_365\n      jump\t// in\n    tag_599:\n        /* \"#utility.yul\":19822:19824   */\n      0x20\n        /* \"#utility.yul\":19817:19820   */\n      dup3\n        /* \"#utility.yul\":19813:19825   */\n      add\n        /* \"#utility.yul\":19806:19825   */\n      swap1\n      pop\n        /* \"#utility.yul\":19465:19831   */\n      swap2\n      swap1\n      pop\n      jump\t// out\n        /* \"#utility.yul\":19837:20256   */\n    tag_194:\n        /* \"#utility.yul\":20003:20007   */\n      0x00\n        /* \"#utility.yul\":20041:20043   */\n      0x20\n        /* \"#utility.yul\":20030:20039   */\n      dup3\n        /* \"#utility.yul\":20026:20044   */\n      add\n        /* \"#utility.yul\":20018:20044   */\n      swap1\n      pop\n        /* \"#utility.yul\":20090:20099   */\n      dup2\n        /* \"#utility.yul\":20084:20088   */\n      dup2\n        /* \"#utility.yul\":20080:20100   */\n      sub\n        /* \"#utility.yul\":20076:20077   */\n      0x00\n        /* \"#utility.yul\":20065:20074   */\n      dup4\n        /* \"#utility.yul\":20061:20078   */\n      add\n        /* \"#utility.yul\":20054:20101   */\n      mstore\n        /* \"#utility.yul\":20118:20249   */\n      tag_601\n        /* \"#utility.yul\":20244:20248   */\n      dup2\n        /* \"#utility.yul\":20118:20249   */\n      tag_366\n      jump\t// in\n    tag_601:\n        /* \"#utility.yul\":20110:20249   */\n      swap1\n      pop\n        /* \"#utility.yul\":19837:20256   */\n      swap2\n      swap1\n      pop\n      jump\t// out\n        /* \"#utility.yul\":20262:20492   */\n    tag_367:\n        /* \"#utility.yul\":20402:20436   */\n      0x5072696365207065722072657175657374206d75737420626520677265617465\n        /* \"#utility.yul\":20398:20399   */\n      0x00\n        /* \"#utility.yul\":20390:20396   */\n      dup3\n        /* \"#utility.yul\":20386:20400   */\n      add\n        /* \"#utility.yul\":20379:20437   */\n      mstore\n        /* \"#utility.yul\":20471:20484   */\n      0x72207468616e207a65726f000000000000000000000000000000000000000000\n        /* \"#utility.yul\":20466:20468   */\n      0x20\n        /* \"#utility.yul\":20458:20464   */\n      dup3\n        /* \"#utility.yul\":20454:20469   */\n      add\n        /* \"#utility.yul\":20447:20485   */\n      mstore\n        /* \"#utility.yul\":20262:20492   */\n      pop\n      jump\t// out\n        /* \"#utility.yul\":20498:20864   */\n    tag_368:\n        /* \"#utility.yul\":20640:20643   */\n      0x00\n        /* \"#utility.yul\":20661:20728   */\n      tag_604\n        /* \"#utility.yul\":20725:20727   */\n      0x2b\n        /* \"#utility.yul\":20720:20723   */\n      dup4\n        /* \"#utility.yul\":20661:20728   */\n      tag_343\n      jump\t// in\n    tag_604:\n        /* \"#utility.yul\":20654:20728   */\n      swap2\n      pop\n        /* \"#utility.yul\":20737:20830   */\n      tag_605\n        /* \"#utility.yul\":20826:20829   */\n      dup3\n        /* \"#utility.yul\":20737:20830   */\n      tag_367\n      jump\t// in\n    tag_605:\n        /* \"#utility.yul\":20855:20857   */\n      0x40\n        /* \"#utility.yul\":20850:20853   */\n      dup3\n        /* \"#utility.yul\":20846:20858   */\n      add\n        /* \"#utility.yul\":20839:20858   */\n      swap1\n      pop\n        /* \"#utility.yul\":20498:20864   */\n      swap2\n      swap1\n      pop\n      jump\t// out\n        /* \"#utility.yul\":20870:21289   */\n    tag_197:\n        /* \"#utility.yul\":21036:21040   */\n      0x00\n        /* \"#utility.yul\":21074:21076   */\n      0x20\n        /* \"#utility.yul\":21063:21072   */\n      dup3\n        /* \"#utility.yul\":21059:21077   */\n      add\n        /* \"#utility.yul\":21051:21077   */\n      swap1\n      pop\n        /* \"#utility.yul\":21123:21132   */\n      dup2\n        /* \"#utility.yul\":21117:21121   */\n      dup2\n        /* \"#utility.yul\":21113:21133   */\n      sub\n        /* \"#utility.yul\":21109:21110   */\n      0x00\n        /* \"#utility.yul\":21098:21107   */\n      dup4\n        /* \"#utility.yul\":21094:21111   */\n      add\n        /* \"#utility.yul\":21087:21134   */\n      mstore\n        /* \"#utility.yul\":21151:21282   */\n      tag_607\n        /* \"#utility.yul\":21277:21281   */\n      dup2\n        /* \"#utility.yul\":21151:21282   */\n      tag_368\n      jump\t// in\n    tag_607:\n        /* \"#utility.yul\":21143:21282   */\n      swap1\n      pop\n        /* \"#utility.yul\":20870:21289   */\n      swap2\n      swap1\n      pop\n      jump\t// out\n        /* \"#utility.yul\":21295:21528   */\n    tag_199:\n        /* \"#utility.yul\":21334:21337   */\n      0x00\n        /* \"#utility.yul\":21357:21381   */\n      tag_609\n        /* \"#utility.yul\":21375:21380   */\n      dup3\n        /* \"#utility.yul\":21357:21381   */\n      tag_317\n      jump\t// in\n    tag_609:\n        /* \"#utility.yul\":21348:21381   */\n      swap2\n      pop\n        /* \"#utility.yul\":21403:21469   */\n      0xffffffffffffffffffffffffffffffffffffffffffffffffffffffffffffffff\n        /* \"#utility.yul\":21396:21401   */\n      dup3\n        /* \"#utility.yul\":21393:21470   */\n      sub\n        /* \"#utility.yul\":21390:21493   */\n      tag_610\n      jumpi\n        /* \"#utility.yul\":21473:21491   */\n      tag_611\n      tag_361\n      jump\t// in\n    tag_611:\n        /* \"#utility.yul\":21390:21493   */\n    tag_610:\n        /* \"#utility.yul\":21520:21521   */\n      0x01\n        /* \"#utility.yul\":21513:21518   */\n      dup3\n        /* \"#utility.yul\":21509:21522   */\n      add\n        /* \"#utility.yul\":21502:21522   */\n      swap1\n      pop\n        /* \"#utility.yul\":21295:21528   */\n      swap2\n      swap1\n      pop\n      jump\t// out\n        /* \"#utility.yul\":21534:21714   */\n    tag_369:\n        /* \"#utility.yul\":21582:21659   */\n      0x4e487b7100000000000000000000000000000000000000000000000000000000\n        /* \"#utility.yul\":21579:21580   */\n      0x00\n        /* \"#utility.yul\":21572:21660   */\n      mstore\n        /* \"#utility.yul\":21679:21683   */\n      0x22\n        /* \"#utility.yul\":21676:21677   */\n      0x04\n        /* \"#utility.yul\":21669:21684   */\n      mstore\n        /* \"#utility.yul\":21703:21707   */\n      0x24\n        /* \"#utility.yul\":21700:21701   */\n      0x00\n        /* \"#utility.yul\":21693:21708   */\n      revert\n        /* \"#utility.yul\":21720:22040   */\n    tag_246:\n        /* \"#utility.yul\":21764:21770   */\n      0x00\n        /* \"#utility.yul\":21801:21802   */\n      0x02\n        /* \"#utility.yul\":21795:21799   */\n      dup3\n        /* \"#utility.yul\":21791:21803   */\n      div\n        /* \"#utility.yul\":21781:21803   */\n      swap1\n      pop\n        /* \"#utility.yul\":21848:21849   */\n      0x01\n        /* \"#utility.yul\":21842:21846   */\n      dup3\n        /* \"#utility.yul\":21838:21850   */\n      and\n        /* \"#utility.yul\":21869:21887   */\n      dup1\n        /* \"#utility.yul\":21859:21940   */\n      tag_614\n      jumpi\n        /* \"#utility.yul\":21925:21929   */\n      0x7f\n        /* \"#utility.yul\":21917:21923   */\n      dup3\n        /* \"#utility.yul\":21913:21930   */\n      and\n        /* \"#utility.yul\":21903:21930   */\n      swap2\n      pop\n        /* \"#utility.yul\":21859:21940   */\n    tag_614:\n        /* \"#utility.yul\":21987:21989   */\n      0x20\n        /* \"#utility.yul\":21979:21985   */\n      dup3\n        /* \"#utility.yul\":21976:21990   */\n      lt\n        /* \"#utility.yul\":21956:21974   */\n      dup2\n        /* \"#utility.yul\":21953:21991   */\n      sub\n        /* \"#utility.yul\":21950:22034   */\n      tag_615\n      jumpi\n        /* \"#utility.yul\":22006:22024   */\n      tag_616\n      tag_369\n      jump\t// in\n    tag_616:\n        /* \"#utility.yul\":21950:22034   */\n    tag_615:\n        /* \"#utility.yul\":21771:22040   */\n      pop\n        /* \"#utility.yul\":21720:22040   */\n      swap2\n      swap1\n      pop\n      jump\t// out\n        /* \"#utility.yul\":22046:22187   */\n    tag_370:\n        /* \"#utility.yul\":22095:22099   */\n      0x00\n        /* \"#utility.yul\":22118:22121   */\n      dup2\n        /* \"#utility.yul\":22110:22121   */\n      swap1\n      pop\n        /* \"#utility.yul\":22141:22144   */\n      dup2\n        /* \"#utility.yul\":22138:22139   */\n      0x00\n        /* \"#utility.yul\":22131:22145   */\n      mstore\n        /* \"#utility.yul\":22175:22179   */\n      0x20\n        /* \"#utility.yul\":22172:22173   */\n      0x00\n        /* \"#utility.yul\":22162:22180   */\n      keccak256\n        /* \"#utility.yul\":22154:22180   */\n      swap1\n      pop\n        /* \"#utility.yul\":22046:22187   */\n      swap2\n      swap1\n      pop\n      jump\t// out\n        /* \"#utility.yul\":22193:22286   */\n    tag_371:\n        /* \"#utility.yul\":22230:22236   */\n      0x00\n        /* \"#utility.yul\":22277:22279   */\n      0x20\n        /* \"#utility.yul\":22272:22274   */\n      0x1f\n        /* \"#utility.yul\":22265:22270   */\n      dup4\n        /* \"#utility.yul\":22261:22275   */\n      add\n        /* \"#utility.yul\":22257:22280   */\n      div\n        /* \"#utility.yul\":22247:22280   */\n      swap1\n      pop\n        /* \"#utility.yul\":22193:22286   */\n      swap2\n      swap1\n      pop\n      jump\t// out\n        /* \"#utility.yul\":22292:22399   */\n    tag_372:\n        /* \"#utility.yul\":22336:22344   */\n      0x00\n        /* \"#utility.yul\":22386:22391   */\n      dup3\n        /* \"#utility.yul\":22380:22384   */\n      dup3\n        /* \"#utility.yul\":22376:22392   */\n      shl\n        /* \"#utility.yul\":22355:22392   */\n      swap1\n      pop\n        /* \"#utility.yul\":22292:22399   */\n      swap3\n      swap2\n      pop\n      pop\n      jump\t// out\n        /* \"#utility.yul\":22405:22798   */\n    tag_373:\n        /* \"#utility.yul\":22474:22480   */\n      0x00\n        /* \"#utility.yul\":22524:22525   */\n      0x08\n        /* \"#utility.yul\":22512:22522   */\n      dup4\n        /* \"#utility.yul\":22508:22526   */\n      mul\n        /* \"#utility.yul\":22547:22644   */\n      tag_621\n        /* \"#utility.yul\":22577:22643   */\n      0xffffffffffffffffffffffffffffffffffffffffffffffffffffffffffffffff\n        /* \"#utility.yul\":22566:22575   */\n      dup3\n        /* \"#utility.yul\":22547:22644   */\n      tag_372\n      jump\t// in\n    tag_621:\n        /* \"#utility.yul\":22665:22704   */\n      tag_622\n        /* \"#utility.yul\":22695:22703   */\n      dup7\n        /* \"#utility.yul\":22684:22693   */\n      dup4\n        /* \"#utility.yul\":22665:22704   */\n      tag_372\n      jump\t// in\n    tag_622:\n        /* \"#utility.yul\":22653:22704   */\n      swap6\n      pop\n        /* \"#utility.yul\":22737:22741   */\n      dup1\n        /* \"#utility.yul\":22733:22742   */\n      not\n        /* \"#utility.yul\":22726:22731   */\n      dup5\n        /* \"#utility.yul\":22722:22743   */\n      and\n        /* \"#utility.yul\":22713:22743   */\n      swap4\n      pop\n        /* \"#utility.yul\":22786:22790   */\n      dup1\n        /* \"#utility.yul\":22776:22784   */\n      dup7\n        /* \"#utility.yul\":22772:22791   */\n      and\n        /* \"#utility.yul\":22765:22770   */\n      dup5\n        /* \"#utility.yul\":22762:22792   */\n      or\n        /* \"#utility.yul\":22752:22792   */\n      swap3\n      pop\n        /* \"#utility.yul\":22481:22798   */\n      pop\n      pop\n        /* \"#utility.yul\":22405:22798   */\n      swap4\n      swap3\n      pop\n      pop\n      pop\n      jump\t// out\n        /* \"#utility.yul\":22804:22946   */\n    tag_374:\n        /* \"#utility.yul\":22854:22863   */\n      0x00\n        /* \"#utility.yul\":22887:22940   */\n      tag_624\n        /* \"#utility.yul\":22905:22939   */\n      tag_625\n        /* \"#utility.yul\":22914:22938   */\n      tag_626\n        /* \"#utility.yul\":22932:22937   */\n      dup5\n        /* \"#utility.yul\":22914:22938   */\n      tag_317\n      jump\t// in\n    tag_626:\n        /* \"#utility.yul\":22905:22939   */\n      tag_346\n      jump\t// in\n    tag_625:\n        /* \"#utility.yul\":22887:22940   */\n      tag_317\n      jump\t// in\n    tag_624:\n        /* \"#utility.yul\":22874:22940   */\n      swap1\n      pop\n        /* \"#utility.yul\":22804:22946   */\n      swap2\n      swap1\n      pop\n      jump\t// out\n        /* \"#utility.yul\":22952:23027   */\n    tag_375:\n        /* \"#utility.yul\":22995:22998   */\n      0x00\n        /* \"#utility.yul\":23016:23021   */\n      dup2\n        /* \"#utility.yul\":23009:23021   */\n      swap1\n      pop\n        /* \"#utility.yul\":22952:23027   */\n      swap2\n      swap1\n      pop\n      jump\t// out\n        /* \"#utility.yul\":23033:23302   */\n    tag_376:\n        /* \"#utility.yul\":23143:23182   */\n      tag_629\n        /* \"#utility.yul\":23174:23181   */\n      dup4\n        /* \"#utility.yul\":23143:23182   */\n      tag_374\n      jump\t// in\n    tag_629:\n        /* \"#utility.yul\":23204:23295   */\n      tag_630\n        /* \"#utility.yul\":23253:23294   */\n      tag_631\n        /* \"#utility.yul\":23277:23293   */\n      dup3\n        /* \"#utility.yul\":23253:23294   */\n      tag_375\n      jump\t// in\n    tag_631:\n        /* \"#utility.yul\":23245:23251   */\n      dup5\n        /* \"#utility.yul\":23238:23242   */\n      dup5\n        /* \"#utility.yul\":23232:23243   */\n      sload\n        /* \"#utility.yul\":23204:23295   */\n      tag_373\n      jump\t// in\n    tag_630:\n        /* \"#utility.yul\":23198:23202   */\n      dup3\n        /* \"#utility.yul\":23191:23296   */\n      sstore\n        /* \"#utility.yul\":23109:23302   */\n      pop\n        /* \"#utility.yul\":23033:23302   */\n      pop\n      pop\n      pop\n      jump\t// out\n        /* \"#utility.yul\":23308:23381   */\n    tag_377:\n        /* \"#utility.yul\":23353:23356   */\n      0x00\n        /* \"#utility.yul\":23308:23381   */\n      swap1\n      jump\t// out\n        /* \"#utility.yul\":23387:23576   */\n    tag_378:\n        /* \"#utility.yul\":23464:23496   */\n      tag_634\n      tag_377\n      jump\t// in\n    tag_634:\n        /* \"#utility.yul\":23505:23570   */\n      tag_635\n        /* \"#utility.yul\":23563:23569   */\n      dup2\n        /* \"#utility.yul\":23555:23561   */\n      dup5\n        /* \"#utility.yul\":23549:23553   */\n      dup5\n        /* \"#utility.yul\":23505:23570   */\n      tag_376\n      jump\t// in\n    tag_635:\n        /* \"#utility.yul\":23440:23576   */\n      pop\n        /* \"#utility.yul\":23387:23576   */\n      pop\n      pop\n      jump\t// out\n        /* \"#utility.yul\":23582:23768   */\n    tag_379:\n        /* \"#utility.yul\":23642:23762   */\n    tag_637:\n        /* \"#utility.yul\":23659:23662   */\n      dup2\n        /* \"#utility.yul\":23652:23657   */\n      dup2\n        /* \"#utility.yul\":23649:23663   */\n      lt\n        /* \"#utility.yul\":23642:23762   */\n      iszero\n      tag_639\n      jumpi\n        /* \"#utility.yul\":23713:23752   */\n      tag_640\n        /* \"#utility.yul\":23750:23751   */\n      0x00\n        /* \"#utility.yul\":23743:23748   */\n      dup3\n        /* \"#utility.yul\":23713:23752   */\n      tag_378\n      jump\t// in\n    tag_640:\n        /* \"#utility.yul\":23686:23687   */\n      0x01\n        /* \"#utility.yul\":23679:23684   */\n      dup2\n        /* \"#utility.yul\":23675:23688   */\n      add\n        /* \"#utility.yul\":23666:23688   */\n      swap1\n      pop\n        /* \"#utility.yul\":23642:23762   */\n      jump(tag_637)\n    tag_639:\n        /* \"#utility.yul\":23582:23768   */\n      pop\n      pop\n      jump\t// out\n        /* \"#utility.yul\":23774:24317   */\n    tag_380:\n        /* \"#utility.yul\":23875:23877   */\n      0x1f\n        /* \"#utility.yul\":23870:23873   */\n      dup3\n        /* \"#utility.yul\":23867:23878   */\n      gt\n        /* \"#utility.yul\":23864:24310   */\n      iszero\n      tag_642\n      jumpi\n        /* \"#utility.yul\":23909:23947   */\n      tag_643\n        /* \"#utility.yul\":23941:23946   */\n      dup2\n        /* \"#utility.yul\":23909:23947   */\n      tag_370\n      jump\t// in\n    tag_643:\n        /* \"#utility.yul\":23993:24022   */\n      tag_644\n        /* \"#utility.yul\":24011:24021   */\n      dup5\n        /* \"#utility.yul\":23993:24022   */\n      tag_371\n      jump\t// in\n    tag_644:\n        /* \"#utility.yul\":23983:23991   */\n      dup2\n        /* \"#utility.yul\":23979:24023   */\n      add\n        /* \"#utility.yul\":24176:24178   */\n      0x20\n        /* \"#utility.yul\":24164:24174   */\n      dup6\n        /* \"#utility.yul\":24161:24179   */\n      lt\n        /* \"#utility.yul\":24158:24207   */\n      iszero\n      tag_645\n      jumpi\n        /* \"#utility.yul\":24197:24205   */\n      dup2\n        /* \"#utility.yul\":24182:24205   */\n      swap1\n      pop\n        /* \"#utility.yul\":24158:24207   */\n    tag_645:\n        /* \"#utility.yul\":24220:24300   */\n      tag_646\n        /* \"#utility.yul\":24276:24298   */\n      tag_647\n        /* \"#utility.yul\":24294:24297   */\n      dup6\n        /* \"#utility.yul\":24276:24298   */\n      tag_371\n      jump\t// in\n    tag_647:\n        /* \"#utility.yul\":24266:24274   */\n      dup4\n        /* \"#utility.yul\":24262:24299   */\n      add\n        /* \"#utility.yul\":24249:24260   */\n      dup3\n        /* \"#utility.yul\":24220:24300   */\n      tag_379\n      jump\t// in\n    tag_646:\n        /* \"#utility.yul\":23879:24310   */\n      pop\n      pop\n        /* \"#utility.yul\":23864:24310   */\n    tag_642:\n        /* \"#utility.yul\":23774:24317   */\n      pop\n      pop\n      pop\n      jump\t// out\n        /* \"#utility.yul\":24323:24440   */\n    tag_381:\n        /* \"#utility.yul\":24377:24385   */\n      0x00\n        /* \"#utility.yul\":24427:24432   */\n      dup3\n        /* \"#utility.yul\":24421:24425   */\n      dup3\n        /* \"#utility.yul\":24417:24433   */\n      shr\n        /* \"#utility.yul\":24396:24433   */\n      swap1\n      pop\n        /* \"#utility.yul\":24323:24440   */\n      swap3\n      swap2\n      pop\n      pop\n      jump\t// out\n        /* \"#utility.yul\":24446:24615   */\n    tag_382:\n        /* \"#utility.yul\":24490:24496   */\n      0x00\n        /* \"#utility.yul\":24523:24574   */\n      tag_650\n        /* \"#utility.yul\":24571:24572   */\n      0x00\n        /* \"#utility.yul\":24567:24573   */\n      not\n        /* \"#utility.yul\":24559:24564   */\n      dup5\n        /* \"#utility.yul\":24556:24557   */\n      0x08\n        /* \"#utility.yul\":24552:24565   */\n      mul\n        /* \"#utility.yul\":24523:24574   */\n      tag_381\n      jump\t// in\n    tag_650:\n        /* \"#utility.yul\":24519:24575   */\n      not\n        /* \"#utility.yul\":24604:24608   */\n      dup1\n        /* \"#utility.yul\":24598:24602   */\n      dup4\n        /* \"#utility.yul\":24594:24609   */\n      and\n        /* \"#utility.yul\":24584:24609   */\n      swap2\n      pop\n        /* \"#utility.yul\":24497:24615   */\n      pop\n        /* \"#utility.yul\":24446:24615   */\n      swap3\n      swap2\n      pop\n      pop\n      jump\t// out\n        /* \"#utility.yul\":24620:24915   */\n    tag_383:\n        /* \"#utility.yul\":24696:24700   */\n      0x00\n        /* \"#utility.yul\":24842:24871   */\n      tag_652\n        /* \"#utility.yul\":24867:24870   */\n      dup4\n        /* \"#utility.yul\":24861:24865   */\n      dup4\n        /* \"#utility.yul\":24842:24871   */\n      tag_382\n      jump\t// in\n    tag_652:\n        /* \"#utility.yul\":24834:24871   */\n      swap2\n      pop\n        /* \"#utility.yul\":24904:24907   */\n      dup3\n        /* \"#utility.yul\":24901:24902   */\n      0x02\n        /* \"#utility.yul\":24897:24908   */\n      mul\n        /* \"#utility.yul\":24891:24895   */\n      dup3\n        /* \"#utility.yul\":24888:24909   */\n      or\n        /* \"#utility.yul\":24880:24909   */\n      swap1\n      pop\n        /* \"#utility.yul\":24620:24915   */\n      swap3\n      swap2\n      pop\n      pop\n      jump\t// out\n        /* \"#utility.yul\":24920:26315   */\n    tag_201:\n        /* \"#utility.yul\":25037:25074   */\n      tag_654\n        /* \"#utility.yul\":25070:25073   */\n      dup3\n        /* \"#utility.yul\":25037:25074   */\n      tag_342\n      jump\t// in\n    tag_654:\n        /* \"#utility.yul\":25139:25157   */\n      0xffffffffffffffff\n        /* \"#utility.yul\":25131:25137   */\n      dup2\n        /* \"#utility.yul\":25128:25158   */\n      gt\n        /* \"#utility.yul\":25125:25181   */\n      iszero\n      tag_655\n      jumpi\n        /* \"#utility.yul\":25161:25179   */\n      tag_656\n      tag_334\n      jump\t// in\n    tag_656:\n        /* \"#utility.yul\":25125:25181   */\n    tag_655:\n        /* \"#utility.yul\":25205:25243   */\n      tag_657\n        /* \"#utility.yul\":25237:25241   */\n      dup3\n        /* \"#utility.yul\":25231:25242   */\n      sload\n        /* \"#utility.yul\":25205:25243   */\n      tag_246\n      jump\t// in\n    tag_657:\n        /* \"#utility.yul\":25290:25357   */\n      tag_658\n        /* \"#utility.yul\":25350:25356   */\n      dup3\n        /* \"#utility.yul\":25342:25348   */\n      dup3\n        /* \"#utility.yul\":25336:25340   */\n      dup6\n        /* \"#utility.yul\":25290:25357   */\n      tag_380\n      jump\t// in\n    tag_658:\n        /* \"#utility.yul\":25384:25385   */\n      0x00\n        /* \"#utility.yul\":25408:25412   */\n      0x20\n        /* \"#utility.yul\":25395:25412   */\n      swap1\n      pop\n        /* \"#utility.yul\":25440:25442   */\n      0x1f\n        /* \"#utility.yul\":25432:25438   */\n      dup4\n        /* \"#utility.yul\":25429:25443   */\n      gt\n        /* \"#utility.yul\":25457:25458   */\n      0x01\n        /* \"#utility.yul\":25452:26070   */\n      dup2\n      eq\n      tag_660\n      jumpi\n        /* \"#utility.yul\":26114:26115   */\n      0x00\n        /* \"#utility.yul\":26131:26137   */\n      dup5\n        /* \"#utility.yul\":26128:26205   */\n      iszero\n      tag_661\n      jumpi\n        /* \"#utility.yul\":26180:26189   */\n      dup3\n        /* \"#utility.yul\":26175:26178   */\n      dup8\n        /* \"#utility.yul\":26171:26190   */\n      add\n        /* \"#utility.yul\":26165:26191   */\n      mload\n        /* \"#utility.yul\":26156:26191   */\n      swap1\n      pop\n        /* \"#utility.yul\":26128:26205   */\n    tag_661:\n        /* \"#utility.yul\":26231:26298   */\n      tag_662\n        /* \"#utility.yul\":26291:26297   */\n      dup6\n        /* \"#utility.yul\":26284:26289   */\n      dup3\n        /* \"#utility.yul\":26231:26298   */\n      tag_383\n      jump\t// in\n    tag_662:\n        /* \"#utility.yul\":26225:26229   */\n      dup7\n        /* \"#utility.yul\":26218:26299   */\n      sstore\n        /* \"#utility.yul\":26087:26309   */\n      pop\n        /* \"#utility.yul\":25422:26309   */\n      jump(tag_659)\n        /* \"#utility.yul\":25452:26070   */\n    tag_660:\n        /* \"#utility.yul\":25504:25508   */\n      0x1f\n        /* \"#utility.yul\":25500:25509   */\n      not\n        /* \"#utility.yul\":25492:25498   */\n      dup5\n        /* \"#utility.yul\":25488:25510   */\n      and\n        /* \"#utility.yul\":25538:25575   */\n      tag_663\n        /* \"#utility.yul\":25570:25574   */\n      dup7\n        /* \"#utility.yul\":25538:25575   */\n      tag_370\n      jump\t// in\n    tag_663:\n        /* \"#utility.yul\":25597:25598   */\n      0x00\n        /* \"#utility.yul\":25611:25819   */\n    tag_664:\n        /* \"#utility.yul\":25625:25632   */\n      dup3\n        /* \"#utility.yul\":25622:25623   */\n      dup2\n        /* \"#utility.yul\":25619:25633   */\n      lt\n        /* \"#utility.yul\":25611:25819   */\n      iszero\n      tag_666\n      jumpi\n        /* \"#utility.yul\":25704:25713   */\n      dup5\n        /* \"#utility.yul\":25699:25702   */\n      dup10\n        /* \"#utility.yul\":25695:25714   */\n      add\n        /* \"#utility.yul\":25689:25715   */\n      mload\n        /* \"#utility.yul\":25681:25687   */\n      dup3\n        /* \"#utility.yul\":25674:25716   */\n      sstore\n        /* \"#utility.yul\":25755:25756   */\n      0x01\n        /* \"#utility.yul\":25747:25753   */\n      dup3\n        /* \"#utility.yul\":25743:25757   */\n      add\n        /* \"#utility.yul\":25733:25757   */\n      swap2\n      pop\n        /* \"#utility.yul\":25802:25804   */\n      0x20\n        /* \"#utility.yul\":25791:25800   */\n      dup6\n        /* \"#utility.yul\":25787:25805   */\n      add\n        /* \"#utility.yul\":25774:25805   */\n      swap5\n      pop\n        /* \"#utility.yul\":25648:25652   */\n      0x20\n        /* \"#utility.yul\":25645:25646   */\n      dup2\n        /* \"#utility.yul\":25641:25653   */\n      add\n        /* \"#utility.yul\":25636:25653   */\n      swap1\n      pop\n        /* \"#utility.yul\":25611:25819   */\n      jump(tag_664)\n    tag_666:\n        /* \"#utility.yul\":25847:25853   */\n      dup7\n        /* \"#utility.yul\":25838:25845   */\n      dup4\n        /* \"#utility.yul\":25835:25854   */\n      lt\n        /* \"#utility.yul\":25832:26011   */\n      iszero\n      tag_667\n      jumpi\n        /* \"#utility.yul\":25905:25914   */\n      dup5\n        /* \"#utility.yul\":25900:25903   */\n      dup10\n        /* \"#utility.yul\":25896:25915   */\n      add\n        /* \"#utility.yul\":25890:25916   */\n      mload\n        /* \"#utility.yul\":25948:25996   */\n      tag_668\n        /* \"#utility.yul\":25990:25994   */\n      0x1f\n        /* \"#utility.yul\":25982:25988   */\n      dup10\n        /* \"#utility.yul\":25978:25995   */\n      and\n        /* \"#utility.yul\":25967:25976   */\n      dup3\n        /* \"#utility.yul\":25948:25996   */\n      tag_382\n      jump\t// in\n    tag_668:\n        /* \"#utility.yul\":25940:25946   */\n      dup4\n        /* \"#utility.yul\":25933:25997   */\n      sstore\n        /* \"#utility.yul\":25855:26011   */\n      pop\n        /* \"#utility.yul\":25832:26011   */\n    tag_667:\n        /* \"#utility.yul\":26057:26058   */\n      0x01\n        /* \"#utility.yul\":26053:26054   */\n      0x02\n        /* \"#utility.yul\":26045:26051   */\n      dup9\n        /* \"#utility.yul\":26041:26055   */\n      mul\n        /* \"#utility.yul\":26037:26059   */\n      add\n        /* \"#utility.yul\":26031:26035   */\n      dup9\n        /* \"#utility.yul\":26024:26060   */\n      sstore\n        /* \"#utility.yul\":25459:26070   */\n      pop\n      pop\n      pop\n        /* \"#utility.yul\":25422:26309   */\n    tag_659:\n      pop\n        /* \"#utility.yul\":25012:26315   */\n      pop\n      pop\n      pop\n        /* \"#utility.yul\":24920:26315   */\n      pop\n      pop\n      jump\t// out\n        /* \"#utility.yul\":26321:26744   */\n    tag_203:\n        /* \"#utility.yul\":26462:26466   */\n      0x00\n        /* \"#utility.yul\":26500:26502   */\n      0x40\n        /* \"#utility.yul\":26489:26498   */\n      dup3\n        /* \"#utility.yul\":26485:26503   */\n      add\n        /* \"#utility.yul\":26477:26503   */\n      swap1\n      pop\n        /* \"#utility.yul\":26549:26558   */\n      dup2\n        /* \"#utility.yul\":26543:26547   */\n      dup2\n        /* \"#utility.yul\":26539:26559   */\n      sub\n        /* \"#utility.yul\":26535:26536   */\n      0x00\n        /* \"#utility.yul\":26524:26533   */\n      dup4\n        /* \"#utility.yul\":26520:26537   */\n      add\n        /* \"#utility.yul\":26513:26560   */\n      mstore\n        /* \"#utility.yul\":26577:26655   */\n      tag_670\n        /* \"#utility.yul\":26650:26654   */\n      dup2\n        /* \"#utility.yul\":26641:26647   */\n      dup6\n        /* \"#utility.yul\":26577:26655   */\n      tag_345\n      jump\t// in\n    tag_670:\n        /* \"#utility.yul\":26569:26655   */\n      swap1\n      pop\n        /* \"#utility.yul\":26665:26737   */\n      tag_671\n        /* \"#utility.yul\":26733:26735   */\n      0x20\n        /* \"#utility.yul\":26722:26731   */\n      dup4\n        /* \"#utility.yul\":26718:26736   */\n      add\n        /* \"#utility.yul\":26709:26715   */\n      dup5\n        /* \"#utility.yul\":26665:26737   */\n      tag_318\n      jump\t// in\n    tag_671:\n        /* \"#utility.yul\":26321:26744   */\n      swap4\n      swap3\n      pop\n      pop\n      pop\n      jump\t// out\n        /* \"#utility.yul\":26750:26893   */\n    tag_384:\n        /* \"#utility.yul\":26807:26812   */\n      0x00\n        /* \"#utility.yul\":26838:26844   */\n      dup2\n        /* \"#utility.yul\":26832:26845   */\n      mload\n        /* \"#utility.yul\":26823:26845   */\n      swap1\n      pop\n        /* \"#utility.yul\":26854:26887   */\n      tag_673\n        /* \"#utility.yul\":26881:26886   */\n      dup2\n        /* \"#utility.yul\":26854:26887   */\n      tag_323\n      jump\t// in\n    tag_673:\n        /* \"#utility.yul\":26750:26893   */\n      swap3\n      swap2\n      pop\n      pop\n      jump\t// out\n        /* \"#utility.yul\":26899:27250   */\n    tag_225:\n        /* \"#utility.yul\":26969:26975   */\n      0x00\n        /* \"#utility.yul\":27018:27020   */\n      0x20\n        /* \"#utility.yul\":27006:27015   */\n      dup3\n        /* \"#utility.yul\":26997:27004   */\n      dup5\n        /* \"#utility.yul\":26993:27016   */\n      sub\n        /* \"#utility.yul\":26989:27021   */\n      slt\n        /* \"#utility.yul\":26986:27105   */\n      iszero\n      tag_675\n      jumpi\n        /* \"#utility.yul\":27024:27103   */\n      tag_676\n      tag_310\n      jump\t// in\n    tag_676:\n        /* \"#utility.yul\":26986:27105   */\n    tag_675:\n        /* \"#utility.yul\":27144:27145   */\n      0x00\n        /* \"#utility.yul\":27169:27233   */\n      tag_677\n        /* \"#utility.yul\":27225:27232   */\n      dup5\n        /* \"#utility.yul\":27216:27222   */\n      dup3\n        /* \"#utility.yul\":27205:27214   */\n      dup6\n        /* \"#utility.yul\":27201:27223   */\n      add\n        /* \"#utility.yul\":27169:27233   */\n      tag_384\n      jump\t// in\n    tag_677:\n        /* \"#utility.yul\":27159:27233   */\n      swap2\n      pop\n        /* \"#utility.yul\":27115:27243   */\n      pop\n        /* \"#utility.yul\":26899:27250   */\n      swap3\n      swap2\n      pop\n      pop\n      jump\t// out\n        /* \"#utility.yul\":27256:27427   */\n    tag_385:\n        /* \"#utility.yul\":27396:27419   */\n      0x4e6f20746f6b656e7320746f2077697468647261770000000000000000000000\n        /* \"#utility.yul\":27392:27393   */\n      0x00\n        /* \"#utility.yul\":27384:27390   */\n      dup3\n        /* \"#utility.yul\":27380:27394   */\n      add\n        /* \"#utility.yul\":27373:27420   */\n      mstore\n        /* \"#utility.yul\":27256:27427   */\n      pop\n      jump\t// out\n        /* \"#utility.yul\":27433:27799   */\n    tag_386:\n        /* \"#utility.yul\":27575:27578   */\n      0x00\n        /* \"#utility.yul\":27596:27663   */\n      tag_680\n        /* \"#utility.yul\":27660:27662   */\n      0x15\n        /* \"#utility.yul\":27655:27658   */\n      dup4\n        /* \"#utility.yul\":27596:27663   */\n      tag_343\n      jump\t// in\n    tag_680:\n        /* \"#utility.yul\":27589:27663   */\n      swap2\n      pop\n        /* \"#utility.yul\":27672:27765   */\n      tag_681\n        /* \"#utility.yul\":27761:27764   */\n      dup3\n        /* \"#utility.yul\":27672:27765   */\n      tag_385\n      jump\t// in\n    tag_681:\n        /* \"#utility.yul\":27790:27792   */\n      0x20\n        /* \"#utility.yul\":27785:27788   */\n      dup3\n        /* \"#utility.yul\":27781:27793   */\n      add\n        /* \"#utility.yul\":27774:27793   */\n      swap1\n      pop\n        /* \"#utility.yul\":27433:27799   */\n      swap2\n      swap1\n      pop\n      jump\t// out\n        /* \"#utility.yul\":27805:28224   */\n    tag_228:\n        /* \"#utility.yul\":27971:27975   */\n      0x00\n        /* \"#utility.yul\":28009:28011   */\n      0x20\n        /* \"#utility.yul\":27998:28007   */\n      dup3\n        /* \"#utility.yul\":27994:28012   */\n      add\n        /* \"#utility.yul\":27986:28012   */\n      swap1\n      pop\n        /* \"#utility.yul\":28058:28067   */\n      dup2\n        /* \"#utility.yul\":28052:28056   */\n      dup2\n        /* \"#utility.yul\":28048:28068   */\n      sub\n        /* \"#utility.yul\":28044:28045   */\n      0x00\n        /* \"#utility.yul\":28033:28042   */\n      dup4\n        /* \"#utility.yul\":28029:28046   */\n      add\n        /* \"#utility.yul\":28022:28069   */\n      mstore\n        /* \"#utility.yul\":28086:28217   */\n      tag_683\n        /* \"#utility.yul\":28212:28216   */\n      dup2\n        /* \"#utility.yul\":28086:28217   */\n      tag_386\n      jump\t// in\n    tag_683:\n        /* \"#utility.yul\":28078:28217   */\n      swap1\n      pop\n        /* \"#utility.yul\":27805:28224   */\n      swap2\n      swap1\n      pop\n      jump\t// out\n        /* \"#utility.yul\":28230:28405   */\n    tag_387:\n        /* \"#utility.yul\":28370:28397   */\n      0x4e6f2072656d61696e696e672041504920726571756573747300000000000000\n        /* \"#utility.yul\":28366:28367   */\n      0x00\n        /* \"#utility.yul\":28358:28364   */\n      dup3\n        /* \"#utility.yul\":28354:28368   */\n      add\n        /* \"#utility.yul\":28347:28398   */\n      mstore\n        /* \"#utility.yul\":28230:28405   */\n      pop\n      jump\t// out\n        /* \"#utility.yul\":28411:28777   */\n    tag_388:\n        /* \"#utility.yul\":28553:28556   */\n      0x00\n        /* \"#utility.yul\":28574:28641   */\n      tag_686\n        /* \"#utility.yul\":28638:28640   */\n      0x19\n        /* \"#utility.yul\":28633:28636   */\n      dup4\n        /* \"#utility.yul\":28574:28641   */\n      tag_343\n      jump\t// in\n    tag_686:\n        /* \"#utility.yul\":28567:28641   */\n      swap2\n      pop\n        /* \"#utility.yul\":28650:28743   */\n      tag_687\n        /* \"#utility.yul\":28739:28742   */\n      dup3\n        /* \"#utility.yul\":28650:28743   */\n      tag_387\n      jump\t// in\n    tag_687:\n        /* \"#utility.yul\":28768:28770   */\n      0x20\n        /* \"#utility.yul\":28763:28766   */\n      dup3\n        /* \"#utility.yul\":28759:28771   */\n      add\n        /* \"#utility.yul\":28752:28771   */\n      swap1\n      pop\n        /* \"#utility.yul\":28411:28777   */\n      swap2\n      swap1\n      pop\n      jump\t// out\n        /* \"#utility.yul\":28783:29202   */\n    tag_241:\n        /* \"#utility.yul\":28949:28953   */\n      0x00\n        /* \"#utility.yul\":28987:28989   */\n      0x20\n        /* \"#utility.yul\":28976:28985   */\n      dup3\n        /* \"#utility.yul\":28972:28990   */\n      add\n        /* \"#utility.yul\":28964:28990   */\n      swap1\n      pop\n        /* \"#utility.yul\":29036:29045   */\n      dup2\n        /* \"#utility.yul\":29030:29034   */\n      dup2\n        /* \"#utility.yul\":29026:29046   */\n      sub\n        /* \"#utility.yul\":29022:29023   */\n      0x00\n        /* \"#utility.yul\":29011:29020   */\n      dup4\n        /* \"#utility.yul\":29007:29024   */\n      add\n        /* \"#utility.yul\":29000:29047   */\n      mstore\n        /* \"#utility.yul\":29064:29195   */\n      tag_689\n        /* \"#utility.yul\":29190:29194   */\n      dup2\n        /* \"#utility.yul\":29064:29195   */\n      tag_388\n      jump\t// in\n    tag_689:\n        /* \"#utility.yul\":29056:29195   */\n      swap1\n      pop\n        /* \"#utility.yul\":28783:29202   */\n      swap2\n      swap1\n      pop\n      jump\t// out\n        /* \"#utility.yul\":29208:29402   */\n    tag_243:\n        /* \"#utility.yul\":29248:29252   */\n      0x00\n        /* \"#utility.yul\":29268:29288   */\n      tag_691\n        /* \"#utility.yul\":29286:29287   */\n      dup3\n        /* \"#utility.yul\":29268:29288   */\n      tag_317\n      jump\t// in\n    tag_691:\n        /* \"#utility.yul\":29263:29288   */\n      swap2\n      pop\n        /* \"#utility.yul\":29302:29322   */\n      tag_692\n        /* \"#utility.yul\":29320:29321   */\n      dup4\n        /* \"#utility.yul\":29302:29322   */\n      tag_317\n      jump\t// in\n    tag_692:\n        /* \"#utility.yul\":29297:29322   */\n      swap3\n      pop\n        /* \"#utility.yul\":29346:29347   */\n      dup3\n        /* \"#utility.yul\":29343:29344   */\n      dup3\n        /* \"#utility.yul\":29339:29348   */\n      sub\n        /* \"#utility.yul\":29331:29348   */\n      swap1\n      pop\n        /* \"#utility.yul\":29370:29371   */\n      dup2\n        /* \"#utility.yul\":29364:29368   */\n      dup2\n        /* \"#utility.yul\":29361:29372   */\n      gt\n        /* \"#utility.yul\":29358:29395   */\n      iszero\n      tag_693\n      jumpi\n        /* \"#utility.yul\":29375:29393   */\n      tag_694\n      tag_361\n      jump\t// in\n    tag_694:\n        /* \"#utility.yul\":29358:29395   */\n    tag_693:\n        /* \"#utility.yul\":29208:29402   */\n      swap3\n      swap2\n      pop\n      pop\n      jump\t// out\n        /* \"#utility.yul\":29408:29577   */\n    tag_389:\n        /* \"#utility.yul\":29548:29569   */\n      0x415049206973207374696c6c2061637469766500000000000000000000000000\n        /* \"#utility.yul\":29544:29545   */\n      0x00\n        /* \"#utility.yul\":29536:29542   */\n      dup3\n        /* \"#utility.yul\":29532:29546   */\n      add\n        /* \"#utility.yul\":29525:29570   */\n      mstore\n        /* \"#utility.yul\":29408:29577   */\n      pop\n      jump\t// out\n        /* \"#utility.yul\":29583:29949   */\n    tag_390:\n        /* \"#utility.yul\":29725:29728   */\n      0x00\n        /* \"#utility.yul\":29746:29813   */\n      tag_697\n        /* \"#utility.yul\":29810:29812   */\n      0x13\n        /* \"#utility.yul\":29805:29808   */\n      dup4\n        /* \"#utility.yul\":29746:29813   */\n      tag_343\n      jump\t// in\n    tag_697:\n        /* \"#utility.yul\":29739:29813   */\n      swap2\n      pop\n        /* \"#utility.yul\":29822:29915   */\n      tag_698\n        /* \"#utility.yul\":29911:29914   */\n      dup3\n        /* \"#utility.yul\":29822:29915   */\n      tag_389\n      jump\t// in\n    tag_698:\n        /* \"#utility.yul\":29940:29942   */\n      0x20\n        /* \"#utility.yul\":29935:29938   */\n      dup3\n        /* \"#utility.yul\":29931:29943   */\n      add\n        /* \"#utility.yul\":29924:29943   */\n      swap1\n      pop\n        /* \"#utility.yul\":29583:29949   */\n      swap2\n      swap1\n      pop\n      jump\t// out\n        /* \"#utility.yul\":29955:30374   */\n    tag_256:\n        /* \"#utility.yul\":30121:30125   */\n      0x00\n        /* \"#utility.yul\":30159:30161   */\n      0x20\n        /* \"#utility.yul\":30148:30157   */\n      dup3\n        /* \"#utility.yul\":30144:30162   */\n      add\n        /* \"#utility.yul\":30136:30162   */\n      swap1\n      pop\n        /* \"#utility.yul\":30208:30217   */\n      dup2\n        /* \"#utility.yul\":30202:30206   */\n      dup2\n        /* \"#utility.yul\":30198:30218   */\n      sub\n        /* \"#utility.yul\":30194:30195   */\n      0x00\n        /* \"#utility.yul\":30183:30192   */\n      dup4\n        /* \"#utility.yul\":30179:30196   */\n      add\n        /* \"#utility.yul\":30172:30219   */\n      mstore\n        /* \"#utility.yul\":30236:30367   */\n      tag_700\n        /* \"#utility.yul\":30362:30366   */\n      dup2\n        /* \"#utility.yul\":30236:30367   */\n      tag_390\n      jump\t// in\n    tag_700:\n        /* \"#utility.yul\":30228:30367   */\n      swap1\n      pop\n        /* \"#utility.yul\":29955:30374   */\n      swap2\n      swap1\n      pop\n      jump\t// out\n        /* \"#utility.yul\":30380:30551   */\n    tag_391:\n        /* \"#utility.yul\":30520:30543   */\n      0x4e6f20726571756573747320746f20726566756e640000000000000000000000\n        /* \"#utility.yul\":30516:30517   */\n      0x00\n        /* \"#utility.yul\":30508:30514   */\n      dup3\n        /* \"#utility.yul\":30504:30518   */\n      add\n        /* \"#utility.yul\":30497:30544   */\n      mstore\n        /* \"#utility.yul\":30380:30551   */\n      pop\n      jump\t// out\n        /* \"#utility.yul\":30557:30923   */\n    tag_392:\n        /* \"#utility.yul\":30699:30702   */\n      0x00\n        /* \"#utility.yul\":30720:30787   */\n      tag_703\n        /* \"#utility.yul\":30784:30786   */\n      0x15\n        /* \"#utility.yul\":30779:30782   */\n      dup4\n        /* \"#utility.yul\":30720:30787   */\n      tag_343\n      jump\t// in\n    tag_703:\n        /* \"#utility.yul\":30713:30787   */\n      swap2\n      pop\n        /* \"#utility.yul\":30796:30889   */\n      tag_704\n        /* \"#utility.yul\":30885:30888   */\n      dup3\n        /* \"#utility.yul\":30796:30889   */\n      tag_391\n      jump\t// in\n    tag_704:\n        /* \"#utility.yul\":30914:30916   */\n      0x20\n        /* \"#utility.yul\":30909:30912   */\n      dup3\n        /* \"#utility.yul\":30905:30917   */\n      add\n        /* \"#utility.yul\":30898:30917   */\n      swap1\n      pop\n        /* \"#utility.yul\":30557:30923   */\n      swap2\n      swap1\n      pop\n      jump\t// out\n        /* \"#utility.yul\":30929:31348   */\n    tag_259:\n        /* \"#utility.yul\":31095:31099   */\n      0x00\n        /* \"#utility.yul\":31133:31135   */\n      0x20\n        /* \"#utility.yul\":31122:31131   */\n      dup3\n        /* \"#utility.yul\":31118:31136   */\n      add\n        /* \"#utility.yul\":31110:31136   */\n      swap1\n      pop\n        /* \"#utility.yul\":31182:31191   */\n      dup2\n        /* \"#utility.yul\":31176:31180   */\n      dup2\n        /* \"#utility.yul\":31172:31192   */\n      sub\n        /* \"#utility.yul\":31168:31169   */\n      0x00\n        /* \"#utility.yul\":31157:31166   */\n      dup4\n        /* \"#utility.yul\":31153:31170   */\n      add\n        /* \"#utility.yul\":31146:31193   */\n      mstore\n        /* \"#utility.yul\":31210:31341   */\n      tag_706\n        /* \"#utility.yul\":31336:31340   */\n      dup2\n        /* \"#utility.yul\":31210:31341   */\n      tag_392\n      jump\t// in\n    tag_706:\n        /* \"#utility.yul\":31202:31341   */\n      swap1\n      pop\n        /* \"#utility.yul\":30929:31348   */\n      swap2\n      swap1\n      pop\n      jump\t// out\n        /* \"#utility.yul\":31354:31796   */\n    tag_287:\n        /* \"#utility.yul\":31503:31507   */\n      0x00\n        /* \"#utility.yul\":31541:31543   */\n      0x60\n        /* \"#utility.yul\":31530:31539   */\n      dup3\n        /* \"#utility.yul\":31526:31544   */\n      add\n        /* \"#utility.yul\":31518:31544   */\n      swap1\n      pop\n        /* \"#utility.yul\":31554:31625   */\n      tag_708\n        /* \"#utility.yul\":31622:31623   */\n      0x00\n        /* \"#utility.yul\":31611:31620   */\n      dup4\n        /* \"#utility.yul\":31607:31624   */\n      add\n        /* \"#utility.yul\":31598:31604   */\n      dup7\n        /* \"#utility.yul\":31554:31625   */\n      tag_341\n      jump\t// in\n    tag_708:\n        /* \"#utility.yul\":31635:31707   */\n      tag_709\n        /* \"#utility.yul\":31703:31705   */\n      0x20\n        /* \"#utility.yul\":31692:31701   */\n      dup4\n        /* \"#utility.yul\":31688:31706   */\n      add\n        /* \"#utility.yul\":31679:31685   */\n      dup6\n        /* \"#utility.yul\":31635:31707   */\n      tag_341\n      jump\t// in\n    tag_709:\n        /* \"#utility.yul\":31717:31789   */\n      tag_710\n        /* \"#utility.yul\":31785:31787   */\n      0x40\n        /* \"#utility.yul\":31774:31783   */\n      dup4\n        /* \"#utility.yul\":31770:31788   */\n      add\n        /* \"#utility.yul\":31761:31767   */\n      dup5\n        /* \"#utility.yul\":31717:31789   */\n      tag_318\n      jump\t// in\n    tag_710:\n        /* \"#utility.yul\":31354:31796   */\n      swap5\n      swap4\n      pop\n      pop\n      pop\n      pop\n      jump\t// out\n        /* \"#utility.yul\":31802:31983   */\n    tag_393:\n        /* \"#utility.yul\":31942:31975   */\n      0x5265656e7472616e637947756172643a207265656e7472616e742063616c6c00\n        /* \"#utility.yul\":31938:31939   */\n      0x00\n        /* \"#utility.yul\":31930:31936   */\n      dup3\n        /* \"#utility.yul\":31926:31940   */\n      add\n        /* \"#utility.yul\":31919:31976   */\n      mstore\n        /* \"#utility.yul\":31802:31983   */\n      pop\n      jump\t// out\n        /* \"#utility.yul\":31989:32355   */\n    tag_394:\n        /* \"#utility.yul\":32131:32134   */\n      0x00\n        /* \"#utility.yul\":32152:32219   */\n      tag_713\n        /* \"#utility.yul\":32216:32218   */\n      0x1f\n        /* \"#utility.yul\":32211:32214   */\n      dup4\n        /* \"#utility.yul\":32152:32219   */\n      tag_343\n      jump\t// in\n    tag_713:\n        /* \"#utility.yul\":32145:32219   */\n      swap2\n      pop\n        /* \"#utility.yul\":32228:32321   */\n      tag_714\n        /* \"#utility.yul\":32317:32320   */\n      dup3\n        /* \"#utility.yul\":32228:32321   */\n      tag_393\n      jump\t// in\n    tag_714:\n        /* \"#utility.yul\":32346:32348   */\n      0x20\n        /* \"#utility.yul\":32341:32344   */\n      dup3\n        /* \"#utility.yul\":32337:32349   */\n      add\n        /* \"#utility.yul\":32330:32349   */\n      swap1\n      pop\n        /* \"#utility.yul\":31989:32355   */\n      swap2\n      swap1\n      pop\n      jump\t// out\n        /* \"#utility.yul\":32361:32780   */\n    tag_292:\n        /* \"#utility.yul\":32527:32531   */\n      0x00\n        /* \"#utility.yul\":32565:32567   */\n      0x20\n        /* \"#utility.yul\":32554:32563   */\n      dup3\n        /* \"#utility.yul\":32550:32568   */\n      add\n        /* \"#utility.yul\":32542:32568   */\n      swap1\n      pop\n        /* \"#utility.yul\":32614:32623   */\n      dup2\n        /* \"#utility.yul\":32608:32612   */\n      dup2\n        /* \"#utility.yul\":32604:32624   */\n      sub\n        /* \"#utility.yul\":32600:32601   */\n      0x00\n        /* \"#utility.yul\":32589:32598   */\n      dup4\n        /* \"#utility.yul\":32585:32602   */\n      add\n        /* \"#utility.yul\":32578:32625   */\n      mstore\n        /* \"#utility.yul\":32642:32773   */\n      tag_716\n        /* \"#utility.yul\":32768:32772   */\n      dup2\n        /* \"#utility.yul\":32642:32773   */\n      tag_394\n      jump\t// in\n    tag_716:\n        /* \"#utility.yul\":32634:32773   */\n      swap1\n      pop\n        /* \"#utility.yul\":32361:32780   */\n      swap2\n      swap1\n      pop\n      jump\t// out\n        /* \"#utility.yul\":32786:33118   */\n    tag_296:\n        /* \"#utility.yul\":32907:32911   */\n      0x00\n        /* \"#utility.yul\":32945:32947   */\n      0x40\n        /* \"#utility.yul\":32934:32943   */\n      dup3\n        /* \"#utility.yul\":32930:32948   */\n      add\n        /* \"#utility.yul\":32922:32948   */\n      swap1\n      pop\n        /* \"#utility.yul\":32958:33029   */\n      tag_718\n        /* \"#utility.yul\":33026:33027   */\n      0x00\n        /* \"#utility.yul\":33015:33024   */\n      dup4\n        /* \"#utility.yul\":33011:33028   */\n      add\n        /* \"#utility.yul\":33002:33008   */\n      dup6\n        /* \"#utility.yul\":32958:33029   */\n      tag_341\n      jump\t// in\n    tag_718:\n        /* \"#utility.yul\":33039:33111   */\n      tag_719\n        /* \"#utility.yul\":33107:33109   */\n      0x20\n        /* \"#utility.yul\":33096:33105   */\n      dup4\n        /* \"#utility.yul\":33092:33110   */\n      add\n        /* \"#utility.yul\":33083:33089   */\n      dup5\n        /* \"#utility.yul\":33039:33111   */\n      tag_318\n      jump\t// in\n    tag_719:\n        /* \"#utility.yul\":32786:33118   */\n      swap4\n      swap3\n      pop\n      pop\n      pop\n      jump\t// out\n        /* \"#utility.yul\":33124:33456   */\n    tag_302:\n        /* \"#utility.yul\":33245:33249   */\n      0x00\n        /* \"#utility.yul\":33283:33285   */\n      0x40\n        /* \"#utility.yul\":33272:33281   */\n      dup3\n        /* \"#utility.yul\":33268:33286   */\n      add\n        /* \"#utility.yul\":33260:33286   */\n      swap1\n      pop\n        /* \"#utility.yul\":33296:33367   */\n      tag_721\n        /* \"#utility.yul\":33364:33365   */\n      0x00\n        /* \"#utility.yul\":33353:33362   */\n      dup4\n        /* \"#utility.yul\":33349:33366   */\n      add\n        /* \"#utility.yul\":33340:33346   */\n      dup6\n        /* \"#utility.yul\":33296:33367   */\n      tag_341\n      jump\t// in\n    tag_721:\n        /* \"#utility.yul\":33377:33449   */\n      tag_722\n        /* \"#utility.yul\":33445:33447   */\n      0x20\n        /* \"#utility.yul\":33434:33443   */\n      dup4\n        /* \"#utility.yul\":33430:33448   */\n      add\n        /* \"#utility.yul\":33421:33427   */\n      dup5\n        /* \"#utility.yul\":33377:33449   */\n      tag_328\n      jump\t// in\n    tag_722:\n        /* \"#utility.yul\":33124:33456   */\n      swap4\n      swap3\n      pop\n      pop\n      pop\n      jump\t// out\n\n    auxdata: 0xa2646970667358221220031f819e2e9209180c39d2abecff3feee7ba793989a7254cbce4091c45ed843a64736f6c634300081a0033\n}\n",
				"bytecode": {
					"linkReferences": {},
					"object": "60a060405234801561000f575f80fd5b506040516130a33803806130a383398181016040528101906100319190610333565b60015f819055505f73ffffffffffffffffffffffffffffffffffffffff168173ffffffffffffffffffffffffffffffffffffffff16036100a6576040517f08c379a000000000000000000000000000000000000000000000000000000000815260040161009d906103b8565b60405180910390fd5b8073ffffffffffffffffffffffffffffffffffffffff1660808173ffffffffffffffffffffffffffffffffffffffff16815250503360025f6101000a81548173ffffffffffffffffffffffffffffffffffffffff021916908373ffffffffffffffffffffffffffffffffffffffff16021790555061012c5f801b3361016460201b60201c565b5061015d7fa49807205ce4d355092ef5a8a18f56e8913cf4a201fbe287825b095693c217753361016460201b60201c565b50506103d6565b5f610175838361025960201b60201c565b61024f576001805f8581526020019081526020015f205f015f8473ffffffffffffffffffffffffffffffffffffffff1673ffffffffffffffffffffffffffffffffffffffff1681526020019081526020015f205f6101000a81548160ff0219169083151502179055506101ec6102bd60201b60201c565b73ffffffffffffffffffffffffffffffffffffffff168273ffffffffffffffffffffffffffffffffffffffff16847f2f8788117e7eff1d82e926ec794901d17c78024a50270940304540a733656f0d60405160405180910390a460019050610253565b5f90505b92915050565b5f60015f8481526020019081526020015f205f015f8373ffffffffffffffffffffffffffffffffffffffff1673ffffffffffffffffffffffffffffffffffffffff1681526020019081526020015f205f9054906101000a900460ff16905092915050565b5f33905090565b5f80fd5b5f73ffffffffffffffffffffffffffffffffffffffff82169050919050565b5f6102f1826102c8565b9050919050565b5f610302826102e7565b9050919050565b610312816102f8565b811461031c575f80fd5b50565b5f8151905061032d81610309565b92915050565b5f60208284031215610348576103476102c4565b5b5f6103558482850161031f565b91505092915050565b5f82825260208201905092915050565b7f496e76616c696420746f6b656e206164647265737300000000000000000000005f82015250565b5f6103a260158361035e565b91506103ad8261036e565b602082019050919050565b5f6020820190508181035f8301526103cf81610396565b9050919050565b608051612c926104115f395f818161099d01528181610dd901528181610f280152818161102a015281816115d501526116910152612c925ff3fe608060405234801561000f575f80fd5b506004361061014b575f3560e01c806375b238fc116100c157806391d148541161007a57806391d148541461036f578063a217fddf1461039f578063af6e5689146103bd578063bc39c0ef146103f0578063d547741f1461040c578063fc0c546a146104285761014b565b806375b238fc146102d5578063838c0557146102f35780638d1d44a91461030f5780638d8f2adb1461032b5780638da5cb5b146103355780638e04d8d8146103535761014b565b806324cce39f1161011357806324cce39f146102195780632f2ff15d1461023557806336568abe14610251578063400bb18d1461026d5780636d177a001461029d57806370480275146102b95761014b565b806301ffc9a71461014f578063099952c81461017f5780630cd2c4601461019d5780631785f53c146101cd578063248a9ca3146101e9575b5f80fd5b61016960048036038101906101649190611bb3565b610446565b6040516101769190611bf8565b60405180910390f35b6101876104bf565b6040516101949190611c29565b60405180910390f35b6101b760048036038101906101b29190611cc6565b6104c5565b6040516101c49190611bf8565b60405180910390f35b6101e760048036038101906101e29190611d04565b610565565b005b61020360048036038101906101fe9190611d62565b6105dd565b6040516102109190611d9c565b60405180910390f35b610233600480360381019061022e9190611ddf565b6105fa565b005b61024f600480360381019061024a9190611e1d565b61070e565b005b61026b60048036038101906102669190611e1d565b610730565b005b61028760048036038101906102829190611cc6565b6107ab565b6040516102949190611c29565b60405180910390f35b6102b760048036038101906102b29190611e5b565b610847565b005b6102d360048036038101906102ce9190611d04565b610ab5565b005b6102dd610b2d565b6040516102ea9190611d9c565b60405180910390f35b61030d60048036038101906103089190611fd5565b610b51565b005b61032960048036038101906103249190611e5b565b610d16565b005b610333610ed2565b005b61033d6110e8565b60405161034a919061203e565b60405180910390f35b61036d60048036038101906103689190612057565b61110d565b005b61038960048036038101906103849190611e1d565b6112f7565b6040516103969190611bf8565b60405180910390f35b6103a761135b565b6040516103b49190611d9c565b60405180910390f35b6103d760048036038101906103d29190612057565b611361565b6040516103e794939291906120e2565b60405180910390f35b61040a60048036038101906104059190612057565b61141f565b005b61042660048036038101906104219190611e1d565b61166d565b005b61043061168f565b60405161043d9190612187565b60405180910390f35b5f7f7965db0b000000000000000000000000000000000000000000000000000000007bffffffffffffffffffffffffffffffffffffffffffffffffffffffff1916827bffffffffffffffffffffffffffffffffffffffffffffffffffffffff191614806104b857506104b7826116b3565b5b9050919050565b60035481565b5f600354821061050a576040517f08c379a0000000000000000000000000000000000000000000000000000000008152600401610501906121ea565b60405180910390fd5b60055f8473ffffffffffffffffffffffffffffffffffffffff1673ffffffffffffffffffffffffffffffffffffffff1681526020019081526020015f206001015f8381526020019081526020015f2054421115905092915050565b6105715f801b336112f7565b6105b0576040517f08c379a00000000000000000000000000000000000000000000000000000000081526004016105a790612252565b60405180910390fd5b6105da7fa49807205ce4d355092ef5a8a18f56e8913cf4a201fbe287825b095693c217758261166d565b50565b5f60015f8381526020019081526020015f20600101549050919050565b6106247fa49807205ce4d355092ef5a8a18f56e8913cf4a201fbe287825b095693c21775336112f7565b610663576040517f08c379a000000000000000000000000000000000000000000000000000000000815260040161065a906122ba565b60405180910390fd5b60035482106106a7576040517f08c379a000000000000000000000000000000000000000000000000000000000815260040161069e906121ea565b60405180910390fd5b8060045f8481526020019081526020015f206003015f6101000a81548160ff021916908315150217905550817f33446694866e808b8c5250f584345f59832e7a6f29e30bf7a8ead78441940d9e826040516107029190611bf8565b60405180910390a25050565b610717826105dd565b6107208161171c565b61072a8383611730565b50505050565b610738611819565b73ffffffffffffffffffffffffffffffffffffffff168173ffffffffffffffffffffffffffffffffffffffff161461079c576040517f6697b23200000000000000000000000000000000000000000000000000000000815260040160405180910390fd5b6107a68282611820565b505050565b5f60035482106107f0576040517f08c379a00000000000000000000000000000000000000000000000000000000081526004016107e7906121ea565b60405180910390fd5b60055f8473ffffffffffffffffffffffffffffffffffffffff1673ffffffffffffffffffffffffffffffffffffffff1681526020019081526020015f205f015f8381526020019081526020015f2054905092915050565b600354821061088b576040517f08c379a0000000000000000000000000000000000000000000000000000000008152600401610882906121ea565b60405180910390fd5b5f81116108cd576040517f08c379a00000000000000000000000000000000000000000000000000000000081526004016108c490612348565b60405180910390fd5b5f60045f8481526020019081526020015f209050806003015f9054906101000a900460ff16610931576040517f08c379a0000000000000000000000000000000000000000000000000000000008152600401610928906123b0565b60405180910390fd5b5f82826001015461094291906123fb565b9050816001015483826109559190612469565b14610995576040517f08c379a000000000000000000000000000000000000000000000000000000000815260040161098c906124e3565b60405180910390fd5b6109e23330837f000000000000000000000000000000000000000000000000000000000000000073ffffffffffffffffffffffffffffffffffffffff1661190a909392919063ffffffff16565b8260055f3373ffffffffffffffffffffffffffffffffffffffff1673ffffffffffffffffffffffffffffffffffffffff1681526020019081526020015f205f015f8681526020019081526020015f205f828254610a3f9190612501565b9250508190555082826002015f828254610a599190612501565b92505081905550833373ffffffffffffffffffffffffffffffffffffffff167f651496919c95942a8a70db2e93544280a0491b14565245385a8026dcb32e923b85604051610aa79190611c29565b60405180910390a350505050565b610ac15f801b336112f7565b610b00576040517f08c379a0000000000000000000000000000000000000000000000000000000008152600401610af790612252565b60405180910390fd5b610b2a7fa49807205ce4d355092ef5a8a18f56e8913cf4a201fbe287825b095693c217758261070e565b50565b7fa49807205ce4d355092ef5a8a18f56e8913cf4a201fbe287825b095693c2177581565b610b7b7fa49807205ce4d355092ef5a8a18f56e8913cf4a201fbe287825b095693c21775336112f7565b610bba576040517f08c379a0000000000000000000000000000000000000000000000000000000008152600401610bb1906122ba565b60405180910390fd5b5f825111610bfd576040517f08c379a0000000000000000000000000000000000000000000000000000000008152600401610bf49061257e565b60405180910390fd5b5f8111610c3f576040517f08c379a0000000000000000000000000000000000000000000000000000000008152600401610c369061260c565b60405180910390fd5b5f60035f815480929190610c529061262a565b91905055905060405180608001604052808481526020018381526020015f81526020016001151581525060045f8381526020019081526020015f205f820151815f019081610ca09190612862565b5060208201518160010155604082015181600201556060820151816003015f6101000a81548160ff021916908315150217905550905050807f708b6915aad37cd1d491e64bf7a3b53c298499411a09f4b2315e30da638b5de28484604051610d09929190612931565b60405180910390a2505050565b6003548210610d5a576040517f08c379a0000000000000000000000000000000000000000000000000000000008152600401610d51906121ea565b60405180910390fd5b5f60045f8481526020019081526020015f209050806003015f9054906101000a900460ff16610dbe576040517f08c379a0000000000000000000000000000000000000000000000000000000008152600401610db5906123b0565b60405180910390fd5b5f828260010154610dcf91906123fb565b9050610e1e3330837f000000000000000000000000000000000000000000000000000000000000000073ffffffffffffffffffffffffffffffffffffffff1661190a909392919063ffffffff16565b8242610e2a9190612501565b60055f3373ffffffffffffffffffffffffffffffffffffffff1673ffffffffffffffffffffffffffffffffffffffff1681526020019081526020015f206001015f8681526020019081526020015f2081905550833373ffffffffffffffffffffffffffffffffffffffff167f6d458fa94cc5b30d7877bed127c2029f98bc0cbc4634dc7789b6bc804fbdae0385604051610ec49190611c29565b60405180910390a350505050565b610ede5f801b336112f7565b610f1d576040517f08c379a0000000000000000000000000000000000000000000000000000000008152600401610f1490612252565b60405180910390fd5b610f2561198c565b5f7f000000000000000000000000000000000000000000000000000000000000000073ffffffffffffffffffffffffffffffffffffffff166370a08231306040518263ffffffff1660e01b8152600401610f7f919061203e565b602060405180830381865afa158015610f9a573d5f803e3d5ffd5b505050506040513d601f19601f82011682018060405250810190610fbe9190612973565b90505f8111611002576040517f08c379a0000000000000000000000000000000000000000000000000000000008152600401610ff9906129e8565b60405180910390fd5b61106e60025f9054906101000a900473ffffffffffffffffffffffffffffffffffffffff16827f000000000000000000000000000000000000000000000000000000000000000073ffffffffffffffffffffffffffffffffffffffff166119d99092919063ffffffff16565b60025f9054906101000a900473ffffffffffffffffffffffffffffffffffffffff1673ffffffffffffffffffffffffffffffffffffffff167f6352c5382c4a4578e712449ca65e83cdb392d045dfcf1cad9615189db2da244b826040516110d59190611c29565b60405180910390a2506110e6611a58565b565b60025f9054906101000a900473ffffffffffffffffffffffffffffffffffffffff1681565b6003548110611151576040517f08c379a0000000000000000000000000000000000000000000000000000000008152600401611148906121ea565b60405180910390fd5b5f60045f8381526020019081526020015f209050806003015f9054906101000a900460ff166111b5576040517f08c379a00000000000000000000000000000000000000000000000000000000081526004016111ac906123b0565b60405180910390fd5b5f60055f3373ffffffffffffffffffffffffffffffffffffffff1673ffffffffffffffffffffffffffffffffffffffff1681526020019081526020015f205f015f8481526020019081526020015f205490505f8111611249576040517f08c379a000000000000000000000000000000000000000000000000000000000815260040161124090612a50565b60405180910390fd5b600160055f3373ffffffffffffffffffffffffffffffffffffffff1673ffffffffffffffffffffffffffffffffffffffff1681526020019081526020015f205f015f8581526020019081526020015f205f8282546112a79190612a6e565b92505081905550823373ffffffffffffffffffffffffffffffffffffffff167f7598affe5bb8b864e84f0b819f6b046054c8f0d6771e8ae086411b5dd2a8bc1260405160405180910390a3505050565b5f60015f8481526020019081526020015f205f015f8373ffffffffffffffffffffffffffffffffffffffff1673ffffffffffffffffffffffffffffffffffffffff1681526020019081526020015f205f9054906101000a900460ff16905092915050565b5f801b81565b6004602052805f5260405f205f91509050805f0180546113809061269e565b80601f01602080910402602001604051908101604052809291908181526020018280546113ac9061269e565b80156113f75780601f106113ce576101008083540402835291602001916113f7565b820191905f5260205f20905b8154815290600101906020018083116113da57829003601f168201915b505050505090806001015490806002015490806003015f9054906101000a900460ff16905084565b6003548110611463576040517f08c379a000000000000000000000000000000000000000000000000000000000815260040161145a906121ea565b60405180910390fd5b60045f8281526020019081526020015f206003015f9054906101000a900460ff16156114c4576040517f08c379a00000000000000000000000000000000000000000000000000000000081526004016114bb90612aeb565b60405180910390fd5b5f60055f3373ffffffffffffffffffffffffffffffffffffffff1673ffffffffffffffffffffffffffffffffffffffff1681526020019081526020015f205f015f8381526020019081526020015f205490505f8111611558576040517f08c379a000000000000000000000000000000000000000000000000000000000815260040161154f90612b53565b60405180910390fd5b5f60045f8481526020019081526020015f20600101548261157991906123fb565b90505f60055f3373ffffffffffffffffffffffffffffffffffffffff1673ffffffffffffffffffffffffffffffffffffffff1681526020019081526020015f205f015f8581526020019081526020015f208190555061161933827f000000000000000000000000000000000000000000000000000000000000000073ffffffffffffffffffffffffffffffffffffffff166119d99092919063ffffffff16565b823373ffffffffffffffffffffffffffffffffffffffff167f93c496f36ecab5f5583f216646cac3acb12a63aeacddb1a9251ceb81f0ee36e7836040516116609190611c29565b60405180910390a3505050565b611676826105dd565b61167f8161171c565b6116898383611820565b50505050565b7f000000000000000000000000000000000000000000000000000000000000000081565b5f7f01ffc9a7000000000000000000000000000000000000000000000000000000007bffffffffffffffffffffffffffffffffffffffffffffffffffffffff1916827bffffffffffffffffffffffffffffffffffffffffffffffffffffffff1916149050919050565b61172d81611728611819565b611a61565b50565b5f61173b83836112f7565b61180f576001805f8581526020019081526020015f205f015f8473ffffffffffffffffffffffffffffffffffffffff1673ffffffffffffffffffffffffffffffffffffffff1681526020019081526020015f205f6101000a81548160ff0219169083151502179055506117ac611819565b73ffffffffffffffffffffffffffffffffffffffff168273ffffffffffffffffffffffffffffffffffffffff16847f2f8788117e7eff1d82e926ec794901d17c78024a50270940304540a733656f0d60405160405180910390a460019050611813565b5f90505b92915050565b5f33905090565b5f61182b83836112f7565b15611900575f60015f8581526020019081526020015f205f015f8473ffffffffffffffffffffffffffffffffffffffff1673ffffffffffffffffffffffffffffffffffffffff1681526020019081526020015f205f6101000a81548160ff02191690831515021790555061189d611819565b73ffffffffffffffffffffffffffffffffffffffff168273ffffffffffffffffffffffffffffffffffffffff16847ff6391f5c32d9c69d2a47ea670b442974b53935d1edc7fd64eb21e047a839171b60405160405180910390a460019050611904565b5f90505b92915050565b611986848573ffffffffffffffffffffffffffffffffffffffff166323b872dd86868660405160240161193f93929190612b71565b604051602081830303815290604052915060e01b6020820180517bffffffffffffffffffffffffffffffffffffffffffffffffffffffff8381831617835250505050611ab2565b50505050565b60025f54036119d0576040517f08c379a00000000000000000000000000000000000000000000000000000000081526004016119c790612bf0565b60405180910390fd5b60025f81905550565b611a53838473ffffffffffffffffffffffffffffffffffffffff1663a9059cbb8585604051602401611a0c929190612c0e565b604051602081830303815290604052915060e01b6020820180517bffffffffffffffffffffffffffffffffffffffffffffffffffffffff8381831617835250505050611ab2565b505050565b60015f81905550565b611a6b82826112f7565b611aae5780826040517fe2517d3f000000000000000000000000000000000000000000000000000000008152600401611aa5929190612c35565b60405180910390fd5b5050565b5f8060205f8451602086015f885af180611ad1576040513d5f823e3d81fd5b3d92505f519150505f8214611aea576001811415611b05565b5f8473ffffffffffffffffffffffffffffffffffffffff163b145b15611b4757836040517f5274afe7000000000000000000000000000000000000000000000000000000008152600401611b3e919061203e565b60405180910390fd5b50505050565b5f604051905090565b5f80fd5b5f80fd5b5f7fffffffff0000000000000000000000000000000000000000000000000000000082169050919050565b611b9281611b5e565b8114611b9c575f80fd5b50565b5f81359050611bad81611b89565b92915050565b5f60208284031215611bc857611bc7611b56565b5b5f611bd584828501611b9f565b91505092915050565b5f8115159050919050565b611bf281611bde565b82525050565b5f602082019050611c0b5f830184611be9565b92915050565b5f819050919050565b611c2381611c11565b82525050565b5f602082019050611c3c5f830184611c1a565b92915050565b5f73ffffffffffffffffffffffffffffffffffffffff82169050919050565b5f611c6b82611c42565b9050919050565b611c7b81611c61565b8114611c85575f80fd5b50565b5f81359050611c9681611c72565b92915050565b611ca581611c11565b8114611caf575f80fd5b50565b5f81359050611cc081611c9c565b92915050565b5f8060408385031215611cdc57611cdb611b56565b5b5f611ce985828601611c88565b9250506020611cfa85828601611cb2565b9150509250929050565b5f60208284031215611d1957611d18611b56565b5b5f611d2684828501611c88565b91505092915050565b5f819050919050565b611d4181611d2f565b8114611d4b575f80fd5b50565b5f81359050611d5c81611d38565b92915050565b5f60208284031215611d7757611d76611b56565b5b5f611d8484828501611d4e565b91505092915050565b611d9681611d2f565b82525050565b5f602082019050611daf5f830184611d8d565b92915050565b611dbe81611bde565b8114611dc8575f80fd5b50565b5f81359050611dd981611db5565b92915050565b5f8060408385031215611df557611df4611b56565b5b5f611e0285828601611cb2565b9250506020611e1385828601611dcb565b9150509250929050565b5f8060408385031215611e3357611e32611b56565b5b5f611e4085828601611d4e565b9250506020611e5185828601611c88565b9150509250929050565b5f8060408385031215611e7157611e70611b56565b5b5f611e7e85828601611cb2565b9250506020611e8f85828601611cb2565b9150509250929050565b5f80fd5b5f80fd5b5f601f19601f8301169050919050565b7f4e487b71000000000000000000000000000000000000000000000000000000005f52604160045260245ffd5b611ee782611ea1565b810181811067ffffffffffffffff82111715611f0657611f05611eb1565b5b80604052505050565b5f611f18611b4d565b9050611f248282611ede565b919050565b5f67ffffffffffffffff821115611f4357611f42611eb1565b5b611f4c82611ea1565b9050602081019050919050565b828183375f83830152505050565b5f611f79611f7484611f29565b611f0f565b905082815260208101848484011115611f9557611f94611e9d565b5b611fa0848285611f59565b509392505050565b5f82601f830112611fbc57611fbb611e99565b5b8135611fcc848260208601611f67565b91505092915050565b5f8060408385031215611feb57611fea611b56565b5b5f83013567ffffffffffffffff81111561200857612007611b5a565b5b61201485828601611fa8565b925050602061202585828601611cb2565b9150509250929050565b61203881611c61565b82525050565b5f6020820190506120515f83018461202f565b92915050565b5f6020828403121561206c5761206b611b56565b5b5f61207984828501611cb2565b91505092915050565b5f81519050919050565b5f82825260208201905092915050565b8281835e5f83830152505050565b5f6120b482612082565b6120be818561208c565b93506120ce81856020860161209c565b6120d781611ea1565b840191505092915050565b5f6080820190508181035f8301526120fa81876120aa565b90506121096020830186611c1a565b6121166040830185611c1a565b6121236060830184611be9565b95945050505050565b5f819050919050565b5f61214f61214a61214584611c42565b61212c565b611c42565b9050919050565b5f61216082612135565b9050919050565b5f61217182612156565b9050919050565b61218181612167565b82525050565b5f60208201905061219a5f830184612178565b92915050565b7f41504920646f6573206e6f7420657869737400000000000000000000000000005f82015250565b5f6121d460128361208c565b91506121df826121a0565b602082019050919050565b5f6020820190508181035f830152612201816121c8565b9050919050565b7f43616c6c6572206973206e6f7420746865206f776e65720000000000000000005f82015250565b5f61223c60178361208c565b915061224782612208565b602082019050919050565b5f6020820190508181035f83015261226981612230565b9050919050565b7f43616c6c6572206973206e6f7420616e2061646d696e000000000000000000005f82015250565b5f6122a460168361208c565b91506122af82612270565b602082019050919050565b5f6020820190508181035f8301526122d181612298565b9050919050565b7f4e756d626572206f66207265717565737473206d7573742062652067726561745f8201527f6572207468616e207a65726f0000000000000000000000000000000000000000602082015250565b5f612332602c8361208c565b915061233d826122d8565b604082019050919050565b5f6020820190508181035f83015261235f81612326565b9050919050565b7f415049206973206e6f74206163746976650000000000000000000000000000005f82015250565b5f61239a60118361208c565b91506123a582612366565b602082019050919050565b5f6020820190508181035f8301526123c78161238e565b9050919050565b7f4e487b71000000000000000000000000000000000000000000000000000000005f52601160045260245ffd5b5f61240582611c11565b915061241083611c11565b925082820261241e81611c11565b91508282048414831517612435576124346123ce565b5b5092915050565b7f4e487b71000000000000000000000000000000000000000000000000000000005f52601260045260245ffd5b5f61247382611c11565b915061247e83611c11565b92508261248e5761248d61243c565b5b828204905092915050565b7f4f766572666c6f772064657465637465640000000000000000000000000000005f82015250565b5f6124cd60118361208c565b91506124d882612499565b602082019050919050565b5f6020820190508181035f8301526124fa816124c1565b9050919050565b5f61250b82611c11565b915061251683611c11565b925082820190508082111561252e5761252d6123ce565b5b92915050565b7f415049206e616d652063616e6e6f7420626520656d70747900000000000000005f82015250565b5f61256860188361208c565b915061257382612534565b602082019050919050565b5f6020820190508181035f8301526125958161255c565b9050919050565b7f5072696365207065722072657175657374206d757374206265206772656174655f8201527f72207468616e207a65726f000000000000000000000000000000000000000000602082015250565b5f6125f6602b8361208c565b91506126018261259c565b604082019050919050565b5f6020820190508181035f830152612623816125ea565b9050919050565b5f61263482611c11565b91507fffffffffffffffffffffffffffffffffffffffffffffffffffffffffffffffff8203612666576126656123ce565b5b600182019050919050565b7f4e487b71000000000000000000000000000000000000000000000000000000005f52602260045260245ffd5b5f60028204905060018216806126b557607f821691505b6020821081036126c8576126c7612671565b5b50919050565b5f819050815f5260205f209050919050565b5f6020601f8301049050919050565b5f82821b905092915050565b5f6008830261272a7fffffffffffffffffffffffffffffffffffffffffffffffffffffffffffffffff826126ef565b61273486836126ef565b95508019841693508086168417925050509392505050565b5f61276661276161275c84611c11565b61212c565b611c11565b9050919050565b5f819050919050565b61277f8361274c565b61279361278b8261276d565b8484546126fb565b825550505050565b5f90565b6127a761279b565b6127b2818484612776565b505050565b5b818110156127d5576127ca5f8261279f565b6001810190506127b8565b5050565b601f82111561281a576127eb816126ce565b6127f4846126e0565b81016020851015612803578190505b61281761280f856126e0565b8301826127b7565b50505b505050565b5f82821c905092915050565b5f61283a5f198460080261281f565b1980831691505092915050565b5f612852838361282b565b9150826002028217905092915050565b61286b82612082565b67ffffffffffffffff81111561288457612883611eb1565b5b61288e825461269e565b6128998282856127d9565b5f60209050601f8311600181146128ca575f84156128b8578287015190505b6128c28582612847565b865550612929565b601f1984166128d8866126ce565b5f5b828110156128ff578489015182556001820191506020850194506020810190506128da565b8683101561291c5784890151612918601f89168261282b565b8355505b6001600288020188555050505b505050505050565b5f6040820190508181035f83015261294981856120aa565b90506129586020830184611c1a565b9392505050565b5f8151905061296d81611c9c565b92915050565b5f6020828403121561298857612987611b56565b5b5f6129958482850161295f565b91505092915050565b7f4e6f20746f6b656e7320746f20776974686472617700000000000000000000005f82015250565b5f6129d260158361208c565b91506129dd8261299e565b602082019050919050565b5f6020820190508181035f8301526129ff816129c6565b9050919050565b7f4e6f2072656d61696e696e6720415049207265717565737473000000000000005f82015250565b5f612a3a60198361208c565b9150612a4582612a06565b602082019050919050565b5f6020820190508181035f830152612a6781612a2e565b9050919050565b5f612a7882611c11565b9150612a8383611c11565b9250828203905081811115612a9b57612a9a6123ce565b5b92915050565b7f415049206973207374696c6c20616374697665000000000000000000000000005f82015250565b5f612ad560138361208c565b9150612ae082612aa1565b602082019050919050565b5f6020820190508181035f830152612b0281612ac9565b9050919050565b7f4e6f20726571756573747320746f20726566756e6400000000000000000000005f82015250565b5f612b3d60158361208c565b9150612b4882612b09565b602082019050919050565b5f6020820190508181035f830152612b6a81612b31565b9050919050565b5f606082019050612b845f83018661202f565b612b91602083018561202f565b612b9e6040830184611c1a565b949350505050565b7f5265656e7472616e637947756172643a207265656e7472616e742063616c6c005f82015250565b5f612bda601f8361208c565b9150612be582612ba6565b602082019050919050565b5f6020820190508181035f830152612c0781612bce565b9050919050565b5f604082019050612c215f83018561202f565b612c2e6020830184611c1a565b9392505050565b5f604082019050612c485f83018561202f565b612c556020830184611d8d565b939250505056fea2646970667358221220031f819e2e9209180c39d2abecff3feee7ba793989a7254cbce4091c45ed843a64736f6c634300081a0033",
					"opcodes": "PUSH1 0xA0 PUSH1 0x40 MSTORE CALLVALUE DUP1 ISZERO PUSH2 0xF JUMPI PUSH0 DUP1 REVERT JUMPDEST POP PUSH1 0x40 MLOAD PUSH2 0x30A3 CODESIZE SUB DUP1 PUSH2 0x30A3 DUP4 CODECOPY DUP2 DUP2 ADD PUSH1 0x40 MSTORE DUP2 ADD SWAP1 PUSH2 0x31 SWAP2 SWAP1 PUSH2 0x333 JUMP JUMPDEST PUSH1 0x1 PUSH0 DUP2 SWAP1 SSTORE POP PUSH0 PUSH20 0xFFFFFFFFFFFFFFFFFFFFFFFFFFFFFFFFFFFFFFFF AND DUP2 PUSH20 0xFFFFFFFFFFFFFFFFFFFFFFFFFFFFFFFFFFFFFFFF AND SUB PUSH2 0xA6 JUMPI PUSH1 0x40 MLOAD PUSH32 0x8C379A000000000000000000000000000000000000000000000000000000000 DUP2 MSTORE PUSH1 0x4 ADD PUSH2 0x9D SWAP1 PUSH2 0x3B8 JUMP JUMPDEST PUSH1 0x40 MLOAD DUP1 SWAP2 SUB SWAP1 REVERT JUMPDEST DUP1 PUSH20 0xFFFFFFFFFFFFFFFFFFFFFFFFFFFFFFFFFFFFFFFF AND PUSH1 0x80 DUP2 PUSH20 0xFFFFFFFFFFFFFFFFFFFFFFFFFFFFFFFFFFFFFFFF AND DUP2 MSTORE POP POP CALLER PUSH1 0x2 PUSH0 PUSH2 0x100 EXP DUP2 SLOAD DUP2 PUSH20 0xFFFFFFFFFFFFFFFFFFFFFFFFFFFFFFFFFFFFFFFF MUL NOT AND SWAP1 DUP4 PUSH20 0xFFFFFFFFFFFFFFFFFFFFFFFFFFFFFFFFFFFFFFFF AND MUL OR SWAP1 SSTORE POP PUSH2 0x12C PUSH0 DUP1 SHL CALLER PUSH2 0x164 PUSH1 0x20 SHL PUSH1 0x20 SHR JUMP JUMPDEST POP PUSH2 0x15D PUSH32 0xA49807205CE4D355092EF5A8A18F56E8913CF4A201FBE287825B095693C21775 CALLER PUSH2 0x164 PUSH1 0x20 SHL PUSH1 0x20 SHR JUMP JUMPDEST POP POP PUSH2 0x3D6 JUMP JUMPDEST PUSH0 PUSH2 0x175 DUP4 DUP4 PUSH2 0x259 PUSH1 0x20 SHL PUSH1 0x20 SHR JUMP JUMPDEST PUSH2 0x24F JUMPI PUSH1 0x1 DUP1 PUSH0 DUP6 DUP2 MSTORE PUSH1 0x20 ADD SWAP1 DUP2 MSTORE PUSH1 0x20 ADD PUSH0 KECCAK256 PUSH0 ADD PUSH0 DUP5 PUSH20 0xFFFFFFFFFFFFFFFFFFFFFFFFFFFFFFFFFFFFFFFF AND PUSH20 0xFFFFFFFFFFFFFFFFFFFFFFFFFFFFFFFFFFFFFFFF AND DUP2 MSTORE PUSH1 0x20 ADD SWAP1 DUP2 MSTORE PUSH1 0x20 ADD PUSH0 KECCAK256 PUSH0 PUSH2 0x100 EXP DUP2 SLOAD DUP2 PUSH1 0xFF MUL NOT AND SWAP1 DUP4 ISZERO ISZERO MUL OR SWAP1 SSTORE POP PUSH2 0x1EC PUSH2 0x2BD PUSH1 0x20 SHL PUSH1 0x20 SHR JUMP JUMPDEST PUSH20 0xFFFFFFFFFFFFFFFFFFFFFFFFFFFFFFFFFFFFFFFF AND DUP3 PUSH20 0xFFFFFFFFFFFFFFFFFFFFFFFFFFFFFFFFFFFFFFFF AND DUP5 PUSH32 0x2F8788117E7EFF1D82E926EC794901D17C78024A50270940304540A733656F0D PUSH1 0x40 MLOAD PUSH1 0x40 MLOAD DUP1 SWAP2 SUB SWAP1 LOG4 PUSH1 0x1 SWAP1 POP PUSH2 0x253 JUMP JUMPDEST PUSH0 SWAP1 POP JUMPDEST SWAP3 SWAP2 POP POP JUMP JUMPDEST PUSH0 PUSH1 0x1 PUSH0 DUP5 DUP2 MSTORE PUSH1 0x20 ADD SWAP1 DUP2 MSTORE PUSH1 0x20 ADD PUSH0 KECCAK256 PUSH0 ADD PUSH0 DUP4 PUSH20 0xFFFFFFFFFFFFFFFFFFFFFFFFFFFFFFFFFFFFFFFF AND PUSH20 0xFFFFFFFFFFFFFFFFFFFFFFFFFFFFFFFFFFFFFFFF AND DUP2 MSTORE PUSH1 0x20 ADD SWAP1 DUP2 MSTORE PUSH1 0x20 ADD PUSH0 KECCAK256 PUSH0 SWAP1 SLOAD SWAP1 PUSH2 0x100 EXP SWAP1 DIV PUSH1 0xFF AND SWAP1 POP SWAP3 SWAP2 POP POP JUMP JUMPDEST PUSH0 CALLER SWAP1 POP SWAP1 JUMP JUMPDEST PUSH0 DUP1 REVERT JUMPDEST PUSH0 PUSH20 0xFFFFFFFFFFFFFFFFFFFFFFFFFFFFFFFFFFFFFFFF DUP3 AND SWAP1 POP SWAP2 SWAP1 POP JUMP JUMPDEST PUSH0 PUSH2 0x2F1 DUP3 PUSH2 0x2C8 JUMP JUMPDEST SWAP1 POP SWAP2 SWAP1 POP JUMP JUMPDEST PUSH0 PUSH2 0x302 DUP3 PUSH2 0x2E7 JUMP JUMPDEST SWAP1 POP SWAP2 SWAP1 POP JUMP JUMPDEST PUSH2 0x312 DUP2 PUSH2 0x2F8 JUMP JUMPDEST DUP2 EQ PUSH2 0x31C JUMPI PUSH0 DUP1 REVERT JUMPDEST POP JUMP JUMPDEST PUSH0 DUP2 MLOAD SWAP1 POP PUSH2 0x32D DUP2 PUSH2 0x309 JUMP JUMPDEST SWAP3 SWAP2 POP POP JUMP JUMPDEST PUSH0 PUSH1 0x20 DUP3 DUP5 SUB SLT ISZERO PUSH2 0x348 JUMPI PUSH2 0x347 PUSH2 0x2C4 JUMP JUMPDEST JUMPDEST PUSH0 PUSH2 0x355 DUP5 DUP3 DUP6 ADD PUSH2 0x31F JUMP JUMPDEST SWAP2 POP POP SWAP3 SWAP2 POP POP JUMP JUMPDEST PUSH0 DUP3 DUP3 MSTORE PUSH1 0x20 DUP3 ADD SWAP1 POP SWAP3 SWAP2 POP POP JUMP JUMPDEST PUSH32 0x496E76616C696420746F6B656E20616464726573730000000000000000000000 PUSH0 DUP3 ADD MSTORE POP JUMP JUMPDEST PUSH0 PUSH2 0x3A2 PUSH1 0x15 DUP4 PUSH2 0x35E JUMP JUMPDEST SWAP2 POP PUSH2 0x3AD DUP3 PUSH2 0x36E JUMP JUMPDEST PUSH1 0x20 DUP3 ADD SWAP1 POP SWAP2 SWAP1 POP JUMP JUMPDEST PUSH0 PUSH1 0x20 DUP3 ADD SWAP1 POP DUP2 DUP2 SUB PUSH0 DUP4 ADD MSTORE PUSH2 0x3CF DUP2 PUSH2 0x396 JUMP JUMPDEST SWAP1 POP SWAP2 SWAP1 POP JUMP JUMPDEST PUSH1 0x80 MLOAD PUSH2 0x2C92 PUSH2 0x411 PUSH0 CODECOPY PUSH0 DUP2 DUP2 PUSH2 0x99D ADD MSTORE DUP2 DUP2 PUSH2 0xDD9 ADD MSTORE DUP2 DUP2 PUSH2 0xF28 ADD MSTORE DUP2 DUP2 PUSH2 0x102A ADD MSTORE DUP2 DUP2 PUSH2 0x15D5 ADD MSTORE PUSH2 0x1691 ADD MSTORE PUSH2 0x2C92 PUSH0 RETURN INVALID PUSH1 0x80 PUSH1 0x40 MSTORE CALLVALUE DUP1 ISZERO PUSH2 0xF JUMPI PUSH0 DUP1 REVERT JUMPDEST POP PUSH1 0x4 CALLDATASIZE LT PUSH2 0x14B JUMPI PUSH0 CALLDATALOAD PUSH1 0xE0 SHR DUP1 PUSH4 0x75B238FC GT PUSH2 0xC1 JUMPI DUP1 PUSH4 0x91D14854 GT PUSH2 0x7A JUMPI DUP1 PUSH4 0x91D14854 EQ PUSH2 0x36F JUMPI DUP1 PUSH4 0xA217FDDF EQ PUSH2 0x39F JUMPI DUP1 PUSH4 0xAF6E5689 EQ PUSH2 0x3BD JUMPI DUP1 PUSH4 0xBC39C0EF EQ PUSH2 0x3F0 JUMPI DUP1 PUSH4 0xD547741F EQ PUSH2 0x40C JUMPI DUP1 PUSH4 0xFC0C546A EQ PUSH2 0x428 JUMPI PUSH2 0x14B JUMP JUMPDEST DUP1 PUSH4 0x75B238FC EQ PUSH2 0x2D5 JUMPI DUP1 PUSH4 0x838C0557 EQ PUSH2 0x2F3 JUMPI DUP1 PUSH4 0x8D1D44A9 EQ PUSH2 0x30F JUMPI DUP1 PUSH4 0x8D8F2ADB EQ PUSH2 0x32B JUMPI DUP1 PUSH4 0x8DA5CB5B EQ PUSH2 0x335 JUMPI DUP1 PUSH4 0x8E04D8D8 EQ PUSH2 0x353 JUMPI PUSH2 0x14B JUMP JUMPDEST DUP1 PUSH4 0x24CCE39F GT PUSH2 0x113 JUMPI DUP1 PUSH4 0x24CCE39F EQ PUSH2 0x219 JUMPI DUP1 PUSH4 0x2F2FF15D EQ PUSH2 0x235 JUMPI DUP1 PUSH4 0x36568ABE EQ PUSH2 0x251 JUMPI DUP1 PUSH4 0x400BB18D EQ PUSH2 0x26D JUMPI DUP1 PUSH4 0x6D177A00 EQ PUSH2 0x29D JUMPI DUP1 PUSH4 0x70480275 EQ PUSH2 0x2B9 JUMPI PUSH2 0x14B JUMP JUMPDEST DUP1 PUSH4 0x1FFC9A7 EQ PUSH2 0x14F JUMPI DUP1 PUSH4 0x99952C8 EQ PUSH2 0x17F JUMPI DUP1 PUSH4 0xCD2C460 EQ PUSH2 0x19D JUMPI DUP1 PUSH4 0x1785F53C EQ PUSH2 0x1CD JUMPI DUP1 PUSH4 0x248A9CA3 EQ PUSH2 0x1E9 JUMPI JUMPDEST PUSH0 DUP1 REVERT JUMPDEST PUSH2 0x169 PUSH1 0x4 DUP1 CALLDATASIZE SUB DUP2 ADD SWAP1 PUSH2 0x164 SWAP2 SWAP1 PUSH2 0x1BB3 JUMP JUMPDEST PUSH2 0x446 JUMP JUMPDEST PUSH1 0x40 MLOAD PUSH2 0x176 SWAP2 SWAP1 PUSH2 0x1BF8 JUMP JUMPDEST PUSH1 0x40 MLOAD DUP1 SWAP2 SUB SWAP1 RETURN JUMPDEST PUSH2 0x187 PUSH2 0x4BF JUMP JUMPDEST PUSH1 0x40 MLOAD PUSH2 0x194 SWAP2 SWAP1 PUSH2 0x1C29 JUMP JUMPDEST PUSH1 0x40 MLOAD DUP1 SWAP2 SUB SWAP1 RETURN JUMPDEST PUSH2 0x1B7 PUSH1 0x4 DUP1 CALLDATASIZE SUB DUP2 ADD SWAP1 PUSH2 0x1B2 SWAP2 SWAP1 PUSH2 0x1CC6 JUMP JUMPDEST PUSH2 0x4C5 JUMP JUMPDEST PUSH1 0x40 MLOAD PUSH2 0x1C4 SWAP2 SWAP1 PUSH2 0x1BF8 JUMP JUMPDEST PUSH1 0x40 MLOAD DUP1 SWAP2 SUB SWAP1 RETURN JUMPDEST PUSH2 0x1E7 PUSH1 0x4 DUP1 CALLDATASIZE SUB DUP2 ADD SWAP1 PUSH2 0x1E2 SWAP2 SWAP1 PUSH2 0x1D04 JUMP JUMPDEST PUSH2 0x565 JUMP JUMPDEST STOP JUMPDEST PUSH2 0x203 PUSH1 0x4 DUP1 CALLDATASIZE SUB DUP2 ADD SWAP1 PUSH2 0x1FE SWAP2 SWAP1 PUSH2 0x1D62 JUMP JUMPDEST PUSH2 0x5DD JUMP JUMPDEST PUSH1 0x40 MLOAD PUSH2 0x210 SWAP2 SWAP1 PUSH2 0x1D9C JUMP JUMPDEST PUSH1 0x40 MLOAD DUP1 SWAP2 SUB SWAP1 RETURN JUMPDEST PUSH2 0x233 PUSH1 0x4 DUP1 CALLDATASIZE SUB DUP2 ADD SWAP1 PUSH2 0x22E SWAP2 SWAP1 PUSH2 0x1DDF JUMP JUMPDEST PUSH2 0x5FA JUMP JUMPDEST STOP JUMPDEST PUSH2 0x24F PUSH1 0x4 DUP1 CALLDATASIZE SUB DUP2 ADD SWAP1 PUSH2 0x24A SWAP2 SWAP1 PUSH2 0x1E1D JUMP JUMPDEST PUSH2 0x70E JUMP JUMPDEST STOP JUMPDEST PUSH2 0x26B PUSH1 0x4 DUP1 CALLDATASIZE SUB DUP2 ADD SWAP1 PUSH2 0x266 SWAP2 SWAP1 PUSH2 0x1E1D JUMP JUMPDEST PUSH2 0x730 JUMP JUMPDEST STOP JUMPDEST PUSH2 0x287 PUSH1 0x4 DUP1 CALLDATASIZE SUB DUP2 ADD SWAP1 PUSH2 0x282 SWAP2 SWAP1 PUSH2 0x1CC6 JUMP JUMPDEST PUSH2 0x7AB JUMP JUMPDEST PUSH1 0x40 MLOAD PUSH2 0x294 SWAP2 SWAP1 PUSH2 0x1C29 JUMP JUMPDEST PUSH1 0x40 MLOAD DUP1 SWAP2 SUB SWAP1 RETURN JUMPDEST PUSH2 0x2B7 PUSH1 0x4 DUP1 CALLDATASIZE SUB DUP2 ADD SWAP1 PUSH2 0x2B2 SWAP2 SWAP1 PUSH2 0x1E5B JUMP JUMPDEST PUSH2 0x847 JUMP JUMPDEST STOP JUMPDEST PUSH2 0x2D3 PUSH1 0x4 DUP1 CALLDATASIZE SUB DUP2 ADD SWAP1 PUSH2 0x2CE SWAP2 SWAP1 PUSH2 0x1D04 JUMP JUMPDEST PUSH2 0xAB5 JUMP JUMPDEST STOP JUMPDEST PUSH2 0x2DD PUSH2 0xB2D JUMP JUMPDEST PUSH1 0x40 MLOAD PUSH2 0x2EA SWAP2 SWAP1 PUSH2 0x1D9C JUMP JUMPDEST PUSH1 0x40 MLOAD DUP1 SWAP2 SUB SWAP1 RETURN JUMPDEST PUSH2 0x30D PUSH1 0x4 DUP1 CALLDATASIZE SUB DUP2 ADD SWAP1 PUSH2 0x308 SWAP2 SWAP1 PUSH2 0x1FD5 JUMP JUMPDEST PUSH2 0xB51 JUMP JUMPDEST STOP JUMPDEST PUSH2 0x329 PUSH1 0x4 DUP1 CALLDATASIZE SUB DUP2 ADD SWAP1 PUSH2 0x324 SWAP2 SWAP1 PUSH2 0x1E5B JUMP JUMPDEST PUSH2 0xD16 JUMP JUMPDEST STOP JUMPDEST PUSH2 0x333 PUSH2 0xED2 JUMP JUMPDEST STOP JUMPDEST PUSH2 0x33D PUSH2 0x10E8 JUMP JUMPDEST PUSH1 0x40 MLOAD PUSH2 0x34A SWAP2 SWAP1 PUSH2 0x203E JUMP JUMPDEST PUSH1 0x40 MLOAD DUP1 SWAP2 SUB SWAP1 RETURN JUMPDEST PUSH2 0x36D PUSH1 0x4 DUP1 CALLDATASIZE SUB DUP2 ADD SWAP1 PUSH2 0x368 SWAP2 SWAP1 PUSH2 0x2057 JUMP JUMPDEST PUSH2 0x110D JUMP JUMPDEST STOP JUMPDEST PUSH2 0x389 PUSH1 0x4 DUP1 CALLDATASIZE SUB DUP2 ADD SWAP1 PUSH2 0x384 SWAP2 SWAP1 PUSH2 0x1E1D JUMP JUMPDEST PUSH2 0x12F7 JUMP JUMPDEST PUSH1 0x40 MLOAD PUSH2 0x396 SWAP2 SWAP1 PUSH2 0x1BF8 JUMP JUMPDEST PUSH1 0x40 MLOAD DUP1 SWAP2 SUB SWAP1 RETURN JUMPDEST PUSH2 0x3A7 PUSH2 0x135B JUMP JUMPDEST PUSH1 0x40 MLOAD PUSH2 0x3B4 SWAP2 SWAP1 PUSH2 0x1D9C JUMP JUMPDEST PUSH1 0x40 MLOAD DUP1 SWAP2 SUB SWAP1 RETURN JUMPDEST PUSH2 0x3D7 PUSH1 0x4 DUP1 CALLDATASIZE SUB DUP2 ADD SWAP1 PUSH2 0x3D2 SWAP2 SWAP1 PUSH2 0x2057 JUMP JUMPDEST PUSH2 0x1361 JUMP JUMPDEST PUSH1 0x40 MLOAD PUSH2 0x3E7 SWAP5 SWAP4 SWAP3 SWAP2 SWAP1 PUSH2 0x20E2 JUMP JUMPDEST PUSH1 0x40 MLOAD DUP1 SWAP2 SUB SWAP1 RETURN JUMPDEST PUSH2 0x40A PUSH1 0x4 DUP1 CALLDATASIZE SUB DUP2 ADD SWAP1 PUSH2 0x405 SWAP2 SWAP1 PUSH2 0x2057 JUMP JUMPDEST PUSH2 0x141F JUMP JUMPDEST STOP JUMPDEST PUSH2 0x426 PUSH1 0x4 DUP1 CALLDATASIZE SUB DUP2 ADD SWAP1 PUSH2 0x421 SWAP2 SWAP1 PUSH2 0x1E1D JUMP JUMPDEST PUSH2 0x166D JUMP JUMPDEST STOP JUMPDEST PUSH2 0x430 PUSH2 0x168F JUMP JUMPDEST PUSH1 0x40 MLOAD PUSH2 0x43D SWAP2 SWAP1 PUSH2 0x2187 JUMP JUMPDEST PUSH1 0x40 MLOAD DUP1 SWAP2 SUB SWAP1 RETURN JUMPDEST PUSH0 PUSH32 0x7965DB0B00000000000000000000000000000000000000000000000000000000 PUSH28 0xFFFFFFFFFFFFFFFFFFFFFFFFFFFFFFFFFFFFFFFFFFFFFFFFFFFFFFFF NOT AND DUP3 PUSH28 0xFFFFFFFFFFFFFFFFFFFFFFFFFFFFFFFFFFFFFFFFFFFFFFFFFFFFFFFF NOT AND EQ DUP1 PUSH2 0x4B8 JUMPI POP PUSH2 0x4B7 DUP3 PUSH2 0x16B3 JUMP JUMPDEST JUMPDEST SWAP1 POP SWAP2 SWAP1 POP JUMP JUMPDEST PUSH1 0x3 SLOAD DUP2 JUMP JUMPDEST PUSH0 PUSH1 0x3 SLOAD DUP3 LT PUSH2 0x50A JUMPI PUSH1 0x40 MLOAD PUSH32 0x8C379A000000000000000000000000000000000000000000000000000000000 DUP2 MSTORE PUSH1 0x4 ADD PUSH2 0x501 SWAP1 PUSH2 0x21EA JUMP JUMPDEST PUSH1 0x40 MLOAD DUP1 SWAP2 SUB SWAP1 REVERT JUMPDEST PUSH1 0x5 PUSH0 DUP5 PUSH20 0xFFFFFFFFFFFFFFFFFFFFFFFFFFFFFFFFFFFFFFFF AND PUSH20 0xFFFFFFFFFFFFFFFFFFFFFFFFFFFFFFFFFFFFFFFF AND DUP2 MSTORE PUSH1 0x20 ADD SWAP1 DUP2 MSTORE PUSH1 0x20 ADD PUSH0 KECCAK256 PUSH1 0x1 ADD PUSH0 DUP4 DUP2 MSTORE PUSH1 0x20 ADD SWAP1 DUP2 MSTORE PUSH1 0x20 ADD PUSH0 KECCAK256 SLOAD TIMESTAMP GT ISZERO SWAP1 POP SWAP3 SWAP2 POP POP JUMP JUMPDEST PUSH2 0x571 PUSH0 DUP1 SHL CALLER PUSH2 0x12F7 JUMP JUMPDEST PUSH2 0x5B0 JUMPI PUSH1 0x40 MLOAD PUSH32 0x8C379A000000000000000000000000000000000000000000000000000000000 DUP2 MSTORE PUSH1 0x4 ADD PUSH2 0x5A7 SWAP1 PUSH2 0x2252 JUMP JUMPDEST PUSH1 0x40 MLOAD DUP1 SWAP2 SUB SWAP1 REVERT JUMPDEST PUSH2 0x5DA PUSH32 0xA49807205CE4D355092EF5A8A18F56E8913CF4A201FBE287825B095693C21775 DUP3 PUSH2 0x166D JUMP JUMPDEST POP JUMP JUMPDEST PUSH0 PUSH1 0x1 PUSH0 DUP4 DUP2 MSTORE PUSH1 0x20 ADD SWAP1 DUP2 MSTORE PUSH1 0x20 ADD PUSH0 KECCAK256 PUSH1 0x1 ADD SLOAD SWAP1 POP SWAP2 SWAP1 POP JUMP JUMPDEST PUSH2 0x624 PUSH32 0xA49807205CE4D355092EF5A8A18F56E8913CF4A201FBE287825B095693C21775 CALLER PUSH2 0x12F7 JUMP JUMPDEST PUSH2 0x663 JUMPI PUSH1 0x40 MLOAD PUSH32 0x8C379A000000000000000000000000000000000000000000000000000000000 DUP2 MSTORE PUSH1 0x4 ADD PUSH2 0x65A SWAP1 PUSH2 0x22BA JUMP JUMPDEST PUSH1 0x40 MLOAD DUP1 SWAP2 SUB SWAP1 REVERT JUMPDEST PUSH1 0x3 SLOAD DUP3 LT PUSH2 0x6A7 JUMPI PUSH1 0x40 MLOAD PUSH32 0x8C379A000000000000000000000000000000000000000000000000000000000 DUP2 MSTORE PUSH1 0x4 ADD PUSH2 0x69E SWAP1 PUSH2 0x21EA JUMP JUMPDEST PUSH1 0x40 MLOAD DUP1 SWAP2 SUB SWAP1 REVERT JUMPDEST DUP1 PUSH1 0x4 PUSH0 DUP5 DUP2 MSTORE PUSH1 0x20 ADD SWAP1 DUP2 MSTORE PUSH1 0x20 ADD PUSH0 KECCAK256 PUSH1 0x3 ADD PUSH0 PUSH2 0x100 EXP DUP2 SLOAD DUP2 PUSH1 0xFF MUL NOT AND SWAP1 DUP4 ISZERO ISZERO MUL OR SWAP1 SSTORE POP DUP2 PUSH32 0x33446694866E808B8C5250F584345F59832E7A6F29E30BF7A8EAD78441940D9E DUP3 PUSH1 0x40 MLOAD PUSH2 0x702 SWAP2 SWAP1 PUSH2 0x1BF8 JUMP JUMPDEST PUSH1 0x40 MLOAD DUP1 SWAP2 SUB SWAP1 LOG2 POP POP JUMP JUMPDEST PUSH2 0x717 DUP3 PUSH2 0x5DD JUMP JUMPDEST PUSH2 0x720 DUP2 PUSH2 0x171C JUMP JUMPDEST PUSH2 0x72A DUP4 DUP4 PUSH2 0x1730 JUMP JUMPDEST POP POP POP POP JUMP JUMPDEST PUSH2 0x738 PUSH2 0x1819 JUMP JUMPDEST PUSH20 0xFFFFFFFFFFFFFFFFFFFFFFFFFFFFFFFFFFFFFFFF AND DUP2 PUSH20 0xFFFFFFFFFFFFFFFFFFFFFFFFFFFFFFFFFFFFFFFF AND EQ PUSH2 0x79C JUMPI PUSH1 0x40 MLOAD PUSH32 0x6697B23200000000000000000000000000000000000000000000000000000000 DUP2 MSTORE PUSH1 0x4 ADD PUSH1 0x40 MLOAD DUP1 SWAP2 SUB SWAP1 REVERT JUMPDEST PUSH2 0x7A6 DUP3 DUP3 PUSH2 0x1820 JUMP JUMPDEST POP POP POP JUMP JUMPDEST PUSH0 PUSH1 0x3 SLOAD DUP3 LT PUSH2 0x7F0 JUMPI PUSH1 0x40 MLOAD PUSH32 0x8C379A000000000000000000000000000000000000000000000000000000000 DUP2 MSTORE PUSH1 0x4 ADD PUSH2 0x7E7 SWAP1 PUSH2 0x21EA JUMP JUMPDEST PUSH1 0x40 MLOAD DUP1 SWAP2 SUB SWAP1 REVERT JUMPDEST PUSH1 0x5 PUSH0 DUP5 PUSH20 0xFFFFFFFFFFFFFFFFFFFFFFFFFFFFFFFFFFFFFFFF AND PUSH20 0xFFFFFFFFFFFFFFFFFFFFFFFFFFFFFFFFFFFFFFFF AND DUP2 MSTORE PUSH1 0x20 ADD SWAP1 DUP2 MSTORE PUSH1 0x20 ADD PUSH0 KECCAK256 PUSH0 ADD PUSH0 DUP4 DUP2 MSTORE PUSH1 0x20 ADD SWAP1 DUP2 MSTORE PUSH1 0x20 ADD PUSH0 KECCAK256 SLOAD SWAP1 POP SWAP3 SWAP2 POP POP JUMP JUMPDEST PUSH1 0x3 SLOAD DUP3 LT PUSH2 0x88B JUMPI PUSH1 0x40 MLOAD PUSH32 0x8C379A000000000000000000000000000000000000000000000000000000000 DUP2 MSTORE PUSH1 0x4 ADD PUSH2 0x882 SWAP1 PUSH2 0x21EA JUMP JUMPDEST PUSH1 0x40 MLOAD DUP1 SWAP2 SUB SWAP1 REVERT JUMPDEST PUSH0 DUP2 GT PUSH2 0x8CD JUMPI PUSH1 0x40 MLOAD PUSH32 0x8C379A000000000000000000000000000000000000000000000000000000000 DUP2 MSTORE PUSH1 0x4 ADD PUSH2 0x8C4 SWAP1 PUSH2 0x2348 JUMP JUMPDEST PUSH1 0x40 MLOAD DUP1 SWAP2 SUB SWAP1 REVERT JUMPDEST PUSH0 PUSH1 0x4 PUSH0 DUP5 DUP2 MSTORE PUSH1 0x20 ADD SWAP1 DUP2 MSTORE PUSH1 0x20 ADD PUSH0 KECCAK256 SWAP1 POP DUP1 PUSH1 0x3 ADD PUSH0 SWAP1 SLOAD SWAP1 PUSH2 0x100 EXP SWAP1 DIV PUSH1 0xFF AND PUSH2 0x931 JUMPI PUSH1 0x40 MLOAD PUSH32 0x8C379A000000000000000000000000000000000000000000000000000000000 DUP2 MSTORE PUSH1 0x4 ADD PUSH2 0x928 SWAP1 PUSH2 0x23B0 JUMP JUMPDEST PUSH1 0x40 MLOAD DUP1 SWAP2 SUB SWAP1 REVERT JUMPDEST PUSH0 DUP3 DUP3 PUSH1 0x1 ADD SLOAD PUSH2 0x942 SWAP2 SWAP1 PUSH2 0x23FB JUMP JUMPDEST SWAP1 POP DUP2 PUSH1 0x1 ADD SLOAD DUP4 DUP3 PUSH2 0x955 SWAP2 SWAP1 PUSH2 0x2469 JUMP JUMPDEST EQ PUSH2 0x995 JUMPI PUSH1 0x40 MLOAD PUSH32 0x8C379A000000000000000000000000000000000000000000000000000000000 DUP2 MSTORE PUSH1 0x4 ADD PUSH2 0x98C SWAP1 PUSH2 0x24E3 JUMP JUMPDEST PUSH1 0x40 MLOAD DUP1 SWAP2 SUB SWAP1 REVERT JUMPDEST PUSH2 0x9E2 CALLER ADDRESS DUP4 PUSH32 0x0 PUSH20 0xFFFFFFFFFFFFFFFFFFFFFFFFFFFFFFFFFFFFFFFF AND PUSH2 0x190A SWAP1 SWAP4 SWAP3 SWAP2 SWAP1 PUSH4 0xFFFFFFFF AND JUMP JUMPDEST DUP3 PUSH1 0x5 PUSH0 CALLER PUSH20 0xFFFFFFFFFFFFFFFFFFFFFFFFFFFFFFFFFFFFFFFF AND PUSH20 0xFFFFFFFFFFFFFFFFFFFFFFFFFFFFFFFFFFFFFFFF AND DUP2 MSTORE PUSH1 0x20 ADD SWAP1 DUP2 MSTORE PUSH1 0x20 ADD PUSH0 KECCAK256 PUSH0 ADD PUSH0 DUP7 DUP2 MSTORE PUSH1 0x20 ADD SWAP1 DUP2 MSTORE PUSH1 0x20 ADD PUSH0 KECCAK256 PUSH0 DUP3 DUP3 SLOAD PUSH2 0xA3F SWAP2 SWAP1 PUSH2 0x2501 JUMP JUMPDEST SWAP3 POP POP DUP2 SWAP1 SSTORE POP DUP3 DUP3 PUSH1 0x2 ADD PUSH0 DUP3 DUP3 SLOAD PUSH2 0xA59 SWAP2 SWAP1 PUSH2 0x2501 JUMP JUMPDEST SWAP3 POP POP DUP2 SWAP1 SSTORE POP DUP4 CALLER PUSH20 0xFFFFFFFFFFFFFFFFFFFFFFFFFFFFFFFFFFFFFFFF AND PUSH32 0x651496919C95942A8A70DB2E93544280A0491B14565245385A8026DCB32E923B DUP6 PUSH1 0x40 MLOAD PUSH2 0xAA7 SWAP2 SWAP1 PUSH2 0x1C29 JUMP JUMPDEST PUSH1 0x40 MLOAD DUP1 SWAP2 SUB SWAP1 LOG3 POP POP POP POP JUMP JUMPDEST PUSH2 0xAC1 PUSH0 DUP1 SHL CALLER PUSH2 0x12F7 JUMP JUMPDEST PUSH2 0xB00 JUMPI PUSH1 0x40 MLOAD PUSH32 0x8C379A000000000000000000000000000000000000000000000000000000000 DUP2 MSTORE PUSH1 0x4 ADD PUSH2 0xAF7 SWAP1 PUSH2 0x2252 JUMP JUMPDEST PUSH1 0x40 MLOAD DUP1 SWAP2 SUB SWAP1 REVERT JUMPDEST PUSH2 0xB2A PUSH32 0xA49807205CE4D355092EF5A8A18F56E8913CF4A201FBE287825B095693C21775 DUP3 PUSH2 0x70E JUMP JUMPDEST POP JUMP JUMPDEST PUSH32 0xA49807205CE4D355092EF5A8A18F56E8913CF4A201FBE287825B095693C21775 DUP2 JUMP JUMPDEST PUSH2 0xB7B PUSH32 0xA49807205CE4D355092EF5A8A18F56E8913CF4A201FBE287825B095693C21775 CALLER PUSH2 0x12F7 JUMP JUMPDEST PUSH2 0xBBA JUMPI PUSH1 0x40 MLOAD PUSH32 0x8C379A000000000000000000000000000000000000000000000000000000000 DUP2 MSTORE PUSH1 0x4 ADD PUSH2 0xBB1 SWAP1 PUSH2 0x22BA JUMP JUMPDEST PUSH1 0x40 MLOAD DUP1 SWAP2 SUB SWAP1 REVERT JUMPDEST PUSH0 DUP3 MLOAD GT PUSH2 0xBFD JUMPI PUSH1 0x40 MLOAD PUSH32 0x8C379A000000000000000000000000000000000000000000000000000000000 DUP2 MSTORE PUSH1 0x4 ADD PUSH2 0xBF4 SWAP1 PUSH2 0x257E JUMP JUMPDEST PUSH1 0x40 MLOAD DUP1 SWAP2 SUB SWAP1 REVERT JUMPDEST PUSH0 DUP2 GT PUSH2 0xC3F JUMPI PUSH1 0x40 MLOAD PUSH32 0x8C379A000000000000000000000000000000000000000000000000000000000 DUP2 MSTORE PUSH1 0x4 ADD PUSH2 0xC36 SWAP1 PUSH2 0x260C JUMP JUMPDEST PUSH1 0x40 MLOAD DUP1 SWAP2 SUB SWAP1 REVERT JUMPDEST PUSH0 PUSH1 0x3 PUSH0 DUP2 SLOAD DUP1 SWAP3 SWAP2 SWAP1 PUSH2 0xC52 SWAP1 PUSH2 0x262A JUMP JUMPDEST SWAP2 SWAP1 POP SSTORE SWAP1 POP PUSH1 0x40 MLOAD DUP1 PUSH1 0x80 ADD PUSH1 0x40 MSTORE DUP1 DUP5 DUP2 MSTORE PUSH1 0x20 ADD DUP4 DUP2 MSTORE PUSH1 0x20 ADD PUSH0 DUP2 MSTORE PUSH1 0x20 ADD PUSH1 0x1 ISZERO ISZERO DUP2 MSTORE POP PUSH1 0x4 PUSH0 DUP4 DUP2 MSTORE PUSH1 0x20 ADD SWAP1 DUP2 MSTORE PUSH1 0x20 ADD PUSH0 KECCAK256 PUSH0 DUP3 ADD MLOAD DUP2 PUSH0 ADD SWAP1 DUP2 PUSH2 0xCA0 SWAP2 SWAP1 PUSH2 0x2862 JUMP JUMPDEST POP PUSH1 0x20 DUP3 ADD MLOAD DUP2 PUSH1 0x1 ADD SSTORE PUSH1 0x40 DUP3 ADD MLOAD DUP2 PUSH1 0x2 ADD SSTORE PUSH1 0x60 DUP3 ADD MLOAD DUP2 PUSH1 0x3 ADD PUSH0 PUSH2 0x100 EXP DUP2 SLOAD DUP2 PUSH1 0xFF MUL NOT AND SWAP1 DUP4 ISZERO ISZERO MUL OR SWAP1 SSTORE POP SWAP1 POP POP DUP1 PUSH32 0x708B6915AAD37CD1D491E64BF7A3B53C298499411A09F4B2315E30DA638B5DE2 DUP5 DUP5 PUSH1 0x40 MLOAD PUSH2 0xD09 SWAP3 SWAP2 SWAP1 PUSH2 0x2931 JUMP JUMPDEST PUSH1 0x40 MLOAD DUP1 SWAP2 SUB SWAP1 LOG2 POP POP POP JUMP JUMPDEST PUSH1 0x3 SLOAD DUP3 LT PUSH2 0xD5A JUMPI PUSH1 0x40 MLOAD PUSH32 0x8C379A000000000000000000000000000000000000000000000000000000000 DUP2 MSTORE PUSH1 0x4 ADD PUSH2 0xD51 SWAP1 PUSH2 0x21EA JUMP JUMPDEST PUSH1 0x40 MLOAD DUP1 SWAP2 SUB SWAP1 REVERT JUMPDEST PUSH0 PUSH1 0x4 PUSH0 DUP5 DUP2 MSTORE PUSH1 0x20 ADD SWAP1 DUP2 MSTORE PUSH1 0x20 ADD PUSH0 KECCAK256 SWAP1 POP DUP1 PUSH1 0x3 ADD PUSH0 SWAP1 SLOAD SWAP1 PUSH2 0x100 EXP SWAP1 DIV PUSH1 0xFF AND PUSH2 0xDBE JUMPI PUSH1 0x40 MLOAD PUSH32 0x8C379A000000000000000000000000000000000000000000000000000000000 DUP2 MSTORE PUSH1 0x4 ADD PUSH2 0xDB5 SWAP1 PUSH2 0x23B0 JUMP JUMPDEST PUSH1 0x40 MLOAD DUP1 SWAP2 SUB SWAP1 REVERT JUMPDEST PUSH0 DUP3 DUP3 PUSH1 0x1 ADD SLOAD PUSH2 0xDCF SWAP2 SWAP1 PUSH2 0x23FB JUMP JUMPDEST SWAP1 POP PUSH2 0xE1E CALLER ADDRESS DUP4 PUSH32 0x0 PUSH20 0xFFFFFFFFFFFFFFFFFFFFFFFFFFFFFFFFFFFFFFFF AND PUSH2 0x190A SWAP1 SWAP4 SWAP3 SWAP2 SWAP1 PUSH4 0xFFFFFFFF AND JUMP JUMPDEST DUP3 TIMESTAMP PUSH2 0xE2A SWAP2 SWAP1 PUSH2 0x2501 JUMP JUMPDEST PUSH1 0x5 PUSH0 CALLER PUSH20 0xFFFFFFFFFFFFFFFFFFFFFFFFFFFFFFFFFFFFFFFF AND PUSH20 0xFFFFFFFFFFFFFFFFFFFFFFFFFFFFFFFFFFFFFFFF AND DUP2 MSTORE PUSH1 0x20 ADD SWAP1 DUP2 MSTORE PUSH1 0x20 ADD PUSH0 KECCAK256 PUSH1 0x1 ADD PUSH0 DUP7 DUP2 MSTORE PUSH1 0x20 ADD SWAP1 DUP2 MSTORE PUSH1 0x20 ADD PUSH0 KECCAK256 DUP2 SWAP1 SSTORE POP DUP4 CALLER PUSH20 0xFFFFFFFFFFFFFFFFFFFFFFFFFFFFFFFFFFFFFFFF AND PUSH32 0x6D458FA94CC5B30D7877BED127C2029F98BC0CBC4634DC7789B6BC804FBDAE03 DUP6 PUSH1 0x40 MLOAD PUSH2 0xEC4 SWAP2 SWAP1 PUSH2 0x1C29 JUMP JUMPDEST PUSH1 0x40 MLOAD DUP1 SWAP2 SUB SWAP1 LOG3 POP POP POP POP JUMP JUMPDEST PUSH2 0xEDE PUSH0 DUP1 SHL CALLER PUSH2 0x12F7 JUMP JUMPDEST PUSH2 0xF1D JUMPI PUSH1 0x40 MLOAD PUSH32 0x8C379A000000000000000000000000000000000000000000000000000000000 DUP2 MSTORE PUSH1 0x4 ADD PUSH2 0xF14 SWAP1 PUSH2 0x2252 JUMP JUMPDEST PUSH1 0x40 MLOAD DUP1 SWAP2 SUB SWAP1 REVERT JUMPDEST PUSH2 0xF25 PUSH2 0x198C JUMP JUMPDEST PUSH0 PUSH32 0x0 PUSH20 0xFFFFFFFFFFFFFFFFFFFFFFFFFFFFFFFFFFFFFFFF AND PUSH4 0x70A08231 ADDRESS PUSH1 0x40 MLOAD DUP3 PUSH4 0xFFFFFFFF AND PUSH1 0xE0 SHL DUP2 MSTORE PUSH1 0x4 ADD PUSH2 0xF7F SWAP2 SWAP1 PUSH2 0x203E JUMP JUMPDEST PUSH1 0x20 PUSH1 0x40 MLOAD DUP1 DUP4 SUB DUP2 DUP7 GAS STATICCALL ISZERO DUP1 ISZERO PUSH2 0xF9A JUMPI RETURNDATASIZE PUSH0 DUP1 RETURNDATACOPY RETURNDATASIZE PUSH0 REVERT JUMPDEST POP POP POP POP PUSH1 0x40 MLOAD RETURNDATASIZE PUSH1 0x1F NOT PUSH1 0x1F DUP3 ADD AND DUP3 ADD DUP1 PUSH1 0x40 MSTORE POP DUP2 ADD SWAP1 PUSH2 0xFBE SWAP2 SWAP1 PUSH2 0x2973 JUMP JUMPDEST SWAP1 POP PUSH0 DUP2 GT PUSH2 0x1002 JUMPI PUSH1 0x40 MLOAD PUSH32 0x8C379A000000000000000000000000000000000000000000000000000000000 DUP2 MSTORE PUSH1 0x4 ADD PUSH2 0xFF9 SWAP1 PUSH2 0x29E8 JUMP JUMPDEST PUSH1 0x40 MLOAD DUP1 SWAP2 SUB SWAP1 REVERT JUMPDEST PUSH2 0x106E PUSH1 0x2 PUSH0 SWAP1 SLOAD SWAP1 PUSH2 0x100 EXP SWAP1 DIV PUSH20 0xFFFFFFFFFFFFFFFFFFFFFFFFFFFFFFFFFFFFFFFF AND DUP3 PUSH32 0x0 PUSH20 0xFFFFFFFFFFFFFFFFFFFFFFFFFFFFFFFFFFFFFFFF AND PUSH2 0x19D9 SWAP1 SWAP3 SWAP2 SWAP1 PUSH4 0xFFFFFFFF AND JUMP JUMPDEST PUSH1 0x2 PUSH0 SWAP1 SLOAD SWAP1 PUSH2 0x100 EXP SWAP1 DIV PUSH20 0xFFFFFFFFFFFFFFFFFFFFFFFFFFFFFFFFFFFFFFFF AND PUSH20 0xFFFFFFFFFFFFFFFFFFFFFFFFFFFFFFFFFFFFFFFF AND PUSH32 0x6352C5382C4A4578E712449CA65E83CDB392D045DFCF1CAD9615189DB2DA244B DUP3 PUSH1 0x40 MLOAD PUSH2 0x10D5 SWAP2 SWAP1 PUSH2 0x1C29 JUMP JUMPDEST PUSH1 0x40 MLOAD DUP1 SWAP2 SUB SWAP1 LOG2 POP PUSH2 0x10E6 PUSH2 0x1A58 JUMP JUMPDEST JUMP JUMPDEST PUSH1 0x2 PUSH0 SWAP1 SLOAD SWAP1 PUSH2 0x100 EXP SWAP1 DIV PUSH20 0xFFFFFFFFFFFFFFFFFFFFFFFFFFFFFFFFFFFFFFFF AND DUP2 JUMP JUMPDEST PUSH1 0x3 SLOAD DUP2 LT PUSH2 0x1151 JUMPI PUSH1 0x40 MLOAD PUSH32 0x8C379A000000000000000000000000000000000000000000000000000000000 DUP2 MSTORE PUSH1 0x4 ADD PUSH2 0x1148 SWAP1 PUSH2 0x21EA JUMP JUMPDEST PUSH1 0x40 MLOAD DUP1 SWAP2 SUB SWAP1 REVERT JUMPDEST PUSH0 PUSH1 0x4 PUSH0 DUP4 DUP2 MSTORE PUSH1 0x20 ADD SWAP1 DUP2 MSTORE PUSH1 0x20 ADD PUSH0 KECCAK256 SWAP1 POP DUP1 PUSH1 0x3 ADD PUSH0 SWAP1 SLOAD SWAP1 PUSH2 0x100 EXP SWAP1 DIV PUSH1 0xFF AND PUSH2 0x11B5 JUMPI PUSH1 0x40 MLOAD PUSH32 0x8C379A000000000000000000000000000000000000000000000000000000000 DUP2 MSTORE PUSH1 0x4 ADD PUSH2 0x11AC SWAP1 PUSH2 0x23B0 JUMP JUMPDEST PUSH1 0x40 MLOAD DUP1 SWAP2 SUB SWAP1 REVERT JUMPDEST PUSH0 PUSH1 0x5 PUSH0 CALLER PUSH20 0xFFFFFFFFFFFFFFFFFFFFFFFFFFFFFFFFFFFFFFFF AND PUSH20 0xFFFFFFFFFFFFFFFFFFFFFFFFFFFFFFFFFFFFFFFF AND DUP2 MSTORE PUSH1 0x20 ADD SWAP1 DUP2 MSTORE PUSH1 0x20 ADD PUSH0 KECCAK256 PUSH0 ADD PUSH0 DUP5 DUP2 MSTORE PUSH1 0x20 ADD SWAP1 DUP2 MSTORE PUSH1 0x20 ADD PUSH0 KECCAK256 SLOAD SWAP1 POP PUSH0 DUP2 GT PUSH2 0x1249 JUMPI PUSH1 0x40 MLOAD PUSH32 0x8C379A000000000000000000000000000000000000000000000000000000000 DUP2 MSTORE PUSH1 0x4 ADD PUSH2 0x1240 SWAP1 PUSH2 0x2A50 JUMP JUMPDEST PUSH1 0x40 MLOAD DUP1 SWAP2 SUB SWAP1 REVERT JUMPDEST PUSH1 0x1 PUSH1 0x5 PUSH0 CALLER PUSH20 0xFFFFFFFFFFFFFFFFFFFFFFFFFFFFFFFFFFFFFFFF AND PUSH20 0xFFFFFFFFFFFFFFFFFFFFFFFFFFFFFFFFFFFFFFFF AND DUP2 MSTORE PUSH1 0x20 ADD SWAP1 DUP2 MSTORE PUSH1 0x20 ADD PUSH0 KECCAK256 PUSH0 ADD PUSH0 DUP6 DUP2 MSTORE PUSH1 0x20 ADD SWAP1 DUP2 MSTORE PUSH1 0x20 ADD PUSH0 KECCAK256 PUSH0 DUP3 DUP3 SLOAD PUSH2 0x12A7 SWAP2 SWAP1 PUSH2 0x2A6E JUMP JUMPDEST SWAP3 POP POP DUP2 SWAP1 SSTORE POP DUP3 CALLER PUSH20 0xFFFFFFFFFFFFFFFFFFFFFFFFFFFFFFFFFFFFFFFF AND PUSH32 0x7598AFFE5BB8B864E84F0B819F6B046054C8F0D6771E8AE086411B5DD2A8BC12 PUSH1 0x40 MLOAD PUSH1 0x40 MLOAD DUP1 SWAP2 SUB SWAP1 LOG3 POP POP POP JUMP JUMPDEST PUSH0 PUSH1 0x1 PUSH0 DUP5 DUP2 MSTORE PUSH1 0x20 ADD SWAP1 DUP2 MSTORE PUSH1 0x20 ADD PUSH0 KECCAK256 PUSH0 ADD PUSH0 DUP4 PUSH20 0xFFFFFFFFFFFFFFFFFFFFFFFFFFFFFFFFFFFFFFFF AND PUSH20 0xFFFFFFFFFFFFFFFFFFFFFFFFFFFFFFFFFFFFFFFF AND DUP2 MSTORE PUSH1 0x20 ADD SWAP1 DUP2 MSTORE PUSH1 0x20 ADD PUSH0 KECCAK256 PUSH0 SWAP1 SLOAD SWAP1 PUSH2 0x100 EXP SWAP1 DIV PUSH1 0xFF AND SWAP1 POP SWAP3 SWAP2 POP POP JUMP JUMPDEST PUSH0 DUP1 SHL DUP2 JUMP JUMPDEST PUSH1 0x4 PUSH1 0x20 MSTORE DUP1 PUSH0 MSTORE PUSH1 0x40 PUSH0 KECCAK256 PUSH0 SWAP2 POP SWAP1 POP DUP1 PUSH0 ADD DUP1 SLOAD PUSH2 0x1380 SWAP1 PUSH2 0x269E JUMP JUMPDEST DUP1 PUSH1 0x1F ADD PUSH1 0x20 DUP1 SWAP2 DIV MUL PUSH1 0x20 ADD PUSH1 0x40 MLOAD SWAP1 DUP2 ADD PUSH1 0x40 MSTORE DUP1 SWAP3 SWAP2 SWAP1 DUP2 DUP2 MSTORE PUSH1 0x20 ADD DUP3 DUP1 SLOAD PUSH2 0x13AC SWAP1 PUSH2 0x269E JUMP JUMPDEST DUP1 ISZERO PUSH2 0x13F7 JUMPI DUP1 PUSH1 0x1F LT PUSH2 0x13CE JUMPI PUSH2 0x100 DUP1 DUP4 SLOAD DIV MUL DUP4 MSTORE SWAP2 PUSH1 0x20 ADD SWAP2 PUSH2 0x13F7 JUMP JUMPDEST DUP3 ADD SWAP2 SWAP1 PUSH0 MSTORE PUSH1 0x20 PUSH0 KECCAK256 SWAP1 JUMPDEST DUP2 SLOAD DUP2 MSTORE SWAP1 PUSH1 0x1 ADD SWAP1 PUSH1 0x20 ADD DUP1 DUP4 GT PUSH2 0x13DA JUMPI DUP3 SWAP1 SUB PUSH1 0x1F AND DUP3 ADD SWAP2 JUMPDEST POP POP POP POP POP SWAP1 DUP1 PUSH1 0x1 ADD SLOAD SWAP1 DUP1 PUSH1 0x2 ADD SLOAD SWAP1 DUP1 PUSH1 0x3 ADD PUSH0 SWAP1 SLOAD SWAP1 PUSH2 0x100 EXP SWAP1 DIV PUSH1 0xFF AND SWAP1 POP DUP5 JUMP JUMPDEST PUSH1 0x3 SLOAD DUP2 LT PUSH2 0x1463 JUMPI PUSH1 0x40 MLOAD PUSH32 0x8C379A000000000000000000000000000000000000000000000000000000000 DUP2 MSTORE PUSH1 0x4 ADD PUSH2 0x145A SWAP1 PUSH2 0x21EA JUMP JUMPDEST PUSH1 0x40 MLOAD DUP1 SWAP2 SUB SWAP1 REVERT JUMPDEST PUSH1 0x4 PUSH0 DUP3 DUP2 MSTORE PUSH1 0x20 ADD SWAP1 DUP2 MSTORE PUSH1 0x20 ADD PUSH0 KECCAK256 PUSH1 0x3 ADD PUSH0 SWAP1 SLOAD SWAP1 PUSH2 0x100 EXP SWAP1 DIV PUSH1 0xFF AND ISZERO PUSH2 0x14C4 JUMPI PUSH1 0x40 MLOAD PUSH32 0x8C379A000000000000000000000000000000000000000000000000000000000 DUP2 MSTORE PUSH1 0x4 ADD PUSH2 0x14BB SWAP1 PUSH2 0x2AEB JUMP JUMPDEST PUSH1 0x40 MLOAD DUP1 SWAP2 SUB SWAP1 REVERT JUMPDEST PUSH0 PUSH1 0x5 PUSH0 CALLER PUSH20 0xFFFFFFFFFFFFFFFFFFFFFFFFFFFFFFFFFFFFFFFF AND PUSH20 0xFFFFFFFFFFFFFFFFFFFFFFFFFFFFFFFFFFFFFFFF AND DUP2 MSTORE PUSH1 0x20 ADD SWAP1 DUP2 MSTORE PUSH1 0x20 ADD PUSH0 KECCAK256 PUSH0 ADD PUSH0 DUP4 DUP2 MSTORE PUSH1 0x20 ADD SWAP1 DUP2 MSTORE PUSH1 0x20 ADD PUSH0 KECCAK256 SLOAD SWAP1 POP PUSH0 DUP2 GT PUSH2 0x1558 JUMPI PUSH1 0x40 MLOAD PUSH32 0x8C379A000000000000000000000000000000000000000000000000000000000 DUP2 MSTORE PUSH1 0x4 ADD PUSH2 0x154F SWAP1 PUSH2 0x2B53 JUMP JUMPDEST PUSH1 0x40 MLOAD DUP1 SWAP2 SUB SWAP1 REVERT JUMPDEST PUSH0 PUSH1 0x4 PUSH0 DUP5 DUP2 MSTORE PUSH1 0x20 ADD SWAP1 DUP2 MSTORE PUSH1 0x20 ADD PUSH0 KECCAK256 PUSH1 0x1 ADD SLOAD DUP3 PUSH2 0x1579 SWAP2 SWAP1 PUSH2 0x23FB JUMP JUMPDEST SWAP1 POP PUSH0 PUSH1 0x5 PUSH0 CALLER PUSH20 0xFFFFFFFFFFFFFFFFFFFFFFFFFFFFFFFFFFFFFFFF AND PUSH20 0xFFFFFFFFFFFFFFFFFFFFFFFFFFFFFFFFFFFFFFFF AND DUP2 MSTORE PUSH1 0x20 ADD SWAP1 DUP2 MSTORE PUSH1 0x20 ADD PUSH0 KECCAK256 PUSH0 ADD PUSH0 DUP6 DUP2 MSTORE PUSH1 0x20 ADD SWAP1 DUP2 MSTORE PUSH1 0x20 ADD PUSH0 KECCAK256 DUP2 SWAP1 SSTORE POP PUSH2 0x1619 CALLER DUP3 PUSH32 0x0 PUSH20 0xFFFFFFFFFFFFFFFFFFFFFFFFFFFFFFFFFFFFFFFF AND PUSH2 0x19D9 SWAP1 SWAP3 SWAP2 SWAP1 PUSH4 0xFFFFFFFF AND JUMP JUMPDEST DUP3 CALLER PUSH20 0xFFFFFFFFFFFFFFFFFFFFFFFFFFFFFFFFFFFFFFFF AND PUSH32 0x93C496F36ECAB5F5583F216646CAC3ACB12A63AEACDDB1A9251CEB81F0EE36E7 DUP4 PUSH1 0x40 MLOAD PUSH2 0x1660 SWAP2 SWAP1 PUSH2 0x1C29 JUMP JUMPDEST PUSH1 0x40 MLOAD DUP1 SWAP2 SUB SWAP1 LOG3 POP POP POP JUMP JUMPDEST PUSH2 0x1676 DUP3 PUSH2 0x5DD JUMP JUMPDEST PUSH2 0x167F DUP2 PUSH2 0x171C JUMP JUMPDEST PUSH2 0x1689 DUP4 DUP4 PUSH2 0x1820 JUMP JUMPDEST POP POP POP POP JUMP JUMPDEST PUSH32 0x0 DUP2 JUMP JUMPDEST PUSH0 PUSH32 0x1FFC9A700000000000000000000000000000000000000000000000000000000 PUSH28 0xFFFFFFFFFFFFFFFFFFFFFFFFFFFFFFFFFFFFFFFFFFFFFFFFFFFFFFFF NOT AND DUP3 PUSH28 0xFFFFFFFFFFFFFFFFFFFFFFFFFFFFFFFFFFFFFFFFFFFFFFFFFFFFFFFF NOT AND EQ SWAP1 POP SWAP2 SWAP1 POP JUMP JUMPDEST PUSH2 0x172D DUP2 PUSH2 0x1728 PUSH2 0x1819 JUMP JUMPDEST PUSH2 0x1A61 JUMP JUMPDEST POP JUMP JUMPDEST PUSH0 PUSH2 0x173B DUP4 DUP4 PUSH2 0x12F7 JUMP JUMPDEST PUSH2 0x180F JUMPI PUSH1 0x1 DUP1 PUSH0 DUP6 DUP2 MSTORE PUSH1 0x20 ADD SWAP1 DUP2 MSTORE PUSH1 0x20 ADD PUSH0 KECCAK256 PUSH0 ADD PUSH0 DUP5 PUSH20 0xFFFFFFFFFFFFFFFFFFFFFFFFFFFFFFFFFFFFFFFF AND PUSH20 0xFFFFFFFFFFFFFFFFFFFFFFFFFFFFFFFFFFFFFFFF AND DUP2 MSTORE PUSH1 0x20 ADD SWAP1 DUP2 MSTORE PUSH1 0x20 ADD PUSH0 KECCAK256 PUSH0 PUSH2 0x100 EXP DUP2 SLOAD DUP2 PUSH1 0xFF MUL NOT AND SWAP1 DUP4 ISZERO ISZERO MUL OR SWAP1 SSTORE POP PUSH2 0x17AC PUSH2 0x1819 JUMP JUMPDEST PUSH20 0xFFFFFFFFFFFFFFFFFFFFFFFFFFFFFFFFFFFFFFFF AND DUP3 PUSH20 0xFFFFFFFFFFFFFFFFFFFFFFFFFFFFFFFFFFFFFFFF AND DUP5 PUSH32 0x2F8788117E7EFF1D82E926EC794901D17C78024A50270940304540A733656F0D PUSH1 0x40 MLOAD PUSH1 0x40 MLOAD DUP1 SWAP2 SUB SWAP1 LOG4 PUSH1 0x1 SWAP1 POP PUSH2 0x1813 JUMP JUMPDEST PUSH0 SWAP1 POP JUMPDEST SWAP3 SWAP2 POP POP JUMP JUMPDEST PUSH0 CALLER SWAP1 POP SWAP1 JUMP JUMPDEST PUSH0 PUSH2 0x182B DUP4 DUP4 PUSH2 0x12F7 JUMP JUMPDEST ISZERO PUSH2 0x1900 JUMPI PUSH0 PUSH1 0x1 PUSH0 DUP6 DUP2 MSTORE PUSH1 0x20 ADD SWAP1 DUP2 MSTORE PUSH1 0x20 ADD PUSH0 KECCAK256 PUSH0 ADD PUSH0 DUP5 PUSH20 0xFFFFFFFFFFFFFFFFFFFFFFFFFFFFFFFFFFFFFFFF AND PUSH20 0xFFFFFFFFFFFFFFFFFFFFFFFFFFFFFFFFFFFFFFFF AND DUP2 MSTORE PUSH1 0x20 ADD SWAP1 DUP2 MSTORE PUSH1 0x20 ADD PUSH0 KECCAK256 PUSH0 PUSH2 0x100 EXP DUP2 SLOAD DUP2 PUSH1 0xFF MUL NOT AND SWAP1 DUP4 ISZERO ISZERO MUL OR SWAP1 SSTORE POP PUSH2 0x189D PUSH2 0x1819 JUMP JUMPDEST PUSH20 0xFFFFFFFFFFFFFFFFFFFFFFFFFFFFFFFFFFFFFFFF AND DUP3 PUSH20 0xFFFFFFFFFFFFFFFFFFFFFFFFFFFFFFFFFFFFFFFF AND DUP5 PUSH32 0xF6391F5C32D9C69D2A47EA670B442974B53935D1EDC7FD64EB21E047A839171B PUSH1 0x40 MLOAD PUSH1 0x40 MLOAD DUP1 SWAP2 SUB SWAP1 LOG4 PUSH1 0x1 SWAP1 POP PUSH2 0x1904 JUMP JUMPDEST PUSH0 SWAP1 POP JUMPDEST SWAP3 SWAP2 POP POP JUMP JUMPDEST PUSH2 0x1986 DUP5 DUP6 PUSH20 0xFFFFFFFFFFFFFFFFFFFFFFFFFFFFFFFFFFFFFFFF AND PUSH4 0x23B872DD DUP7 DUP7 DUP7 PUSH1 0x40 MLOAD PUSH1 0x24 ADD PUSH2 0x193F SWAP4 SWAP3 SWAP2 SWAP1 PUSH2 0x2B71 JUMP JUMPDEST PUSH1 0x40 MLOAD PUSH1 0x20 DUP2 DUP4 SUB SUB DUP2 MSTORE SWAP1 PUSH1 0x40 MSTORE SWAP2 POP PUSH1 0xE0 SHL PUSH1 0x20 DUP3 ADD DUP1 MLOAD PUSH28 0xFFFFFFFFFFFFFFFFFFFFFFFFFFFFFFFFFFFFFFFFFFFFFFFFFFFFFFFF DUP4 DUP2 DUP4 AND OR DUP4 MSTORE POP POP POP POP PUSH2 0x1AB2 JUMP JUMPDEST POP POP POP POP JUMP JUMPDEST PUSH1 0x2 PUSH0 SLOAD SUB PUSH2 0x19D0 JUMPI PUSH1 0x40 MLOAD PUSH32 0x8C379A000000000000000000000000000000000000000000000000000000000 DUP2 MSTORE PUSH1 0x4 ADD PUSH2 0x19C7 SWAP1 PUSH2 0x2BF0 JUMP JUMPDEST PUSH1 0x40 MLOAD DUP1 SWAP2 SUB SWAP1 REVERT JUMPDEST PUSH1 0x2 PUSH0 DUP2 SWAP1 SSTORE POP JUMP JUMPDEST PUSH2 0x1A53 DUP4 DUP5 PUSH20 0xFFFFFFFFFFFFFFFFFFFFFFFFFFFFFFFFFFFFFFFF AND PUSH4 0xA9059CBB DUP6 DUP6 PUSH1 0x40 MLOAD PUSH1 0x24 ADD PUSH2 0x1A0C SWAP3 SWAP2 SWAP1 PUSH2 0x2C0E JUMP JUMPDEST PUSH1 0x40 MLOAD PUSH1 0x20 DUP2 DUP4 SUB SUB DUP2 MSTORE SWAP1 PUSH1 0x40 MSTORE SWAP2 POP PUSH1 0xE0 SHL PUSH1 0x20 DUP3 ADD DUP1 MLOAD PUSH28 0xFFFFFFFFFFFFFFFFFFFFFFFFFFFFFFFFFFFFFFFFFFFFFFFFFFFFFFFF DUP4 DUP2 DUP4 AND OR DUP4 MSTORE POP POP POP POP PUSH2 0x1AB2 JUMP JUMPDEST POP POP POP JUMP JUMPDEST PUSH1 0x1 PUSH0 DUP2 SWAP1 SSTORE POP JUMP JUMPDEST PUSH2 0x1A6B DUP3 DUP3 PUSH2 0x12F7 JUMP JUMPDEST PUSH2 0x1AAE JUMPI DUP1 DUP3 PUSH1 0x40 MLOAD PUSH32 0xE2517D3F00000000000000000000000000000000000000000000000000000000 DUP2 MSTORE PUSH1 0x4 ADD PUSH2 0x1AA5 SWAP3 SWAP2 SWAP1 PUSH2 0x2C35 JUMP JUMPDEST PUSH1 0x40 MLOAD DUP1 SWAP2 SUB SWAP1 REVERT JUMPDEST POP POP JUMP JUMPDEST PUSH0 DUP1 PUSH1 0x20 PUSH0 DUP5 MLOAD PUSH1 0x20 DUP7 ADD PUSH0 DUP9 GAS CALL DUP1 PUSH2 0x1AD1 JUMPI PUSH1 0x40 MLOAD RETURNDATASIZE PUSH0 DUP3 RETURNDATACOPY RETURNDATASIZE DUP2 REVERT JUMPDEST RETURNDATASIZE SWAP3 POP PUSH0 MLOAD SWAP2 POP POP PUSH0 DUP3 EQ PUSH2 0x1AEA JUMPI PUSH1 0x1 DUP2 EQ ISZERO PUSH2 0x1B05 JUMP JUMPDEST PUSH0 DUP5 PUSH20 0xFFFFFFFFFFFFFFFFFFFFFFFFFFFFFFFFFFFFFFFF AND EXTCODESIZE EQ JUMPDEST ISZERO PUSH2 0x1B47 JUMPI DUP4 PUSH1 0x40 MLOAD PUSH32 0x5274AFE700000000000000000000000000000000000000000000000000000000 DUP2 MSTORE PUSH1 0x4 ADD PUSH2 0x1B3E SWAP2 SWAP1 PUSH2 0x203E JUMP JUMPDEST PUSH1 0x40 MLOAD DUP1 SWAP2 SUB SWAP1 REVERT JUMPDEST POP POP POP POP JUMP JUMPDEST PUSH0 PUSH1 0x40 MLOAD SWAP1 POP SWAP1 JUMP JUMPDEST PUSH0 DUP1 REVERT JUMPDEST PUSH0 DUP1 REVERT JUMPDEST PUSH0 PUSH32 0xFFFFFFFF00000000000000000000000000000000000000000000000000000000 DUP3 AND SWAP1 POP SWAP2 SWAP1 POP JUMP JUMPDEST PUSH2 0x1B92 DUP2 PUSH2 0x1B5E JUMP JUMPDEST DUP2 EQ PUSH2 0x1B9C JUMPI PUSH0 DUP1 REVERT JUMPDEST POP JUMP JUMPDEST PUSH0 DUP2 CALLDATALOAD SWAP1 POP PUSH2 0x1BAD DUP2 PUSH2 0x1B89 JUMP JUMPDEST SWAP3 SWAP2 POP POP JUMP JUMPDEST PUSH0 PUSH1 0x20 DUP3 DUP5 SUB SLT ISZERO PUSH2 0x1BC8 JUMPI PUSH2 0x1BC7 PUSH2 0x1B56 JUMP JUMPDEST JUMPDEST PUSH0 PUSH2 0x1BD5 DUP5 DUP3 DUP6 ADD PUSH2 0x1B9F JUMP JUMPDEST SWAP2 POP POP SWAP3 SWAP2 POP POP JUMP JUMPDEST PUSH0 DUP2 ISZERO ISZERO SWAP1 POP SWAP2 SWAP1 POP JUMP JUMPDEST PUSH2 0x1BF2 DUP2 PUSH2 0x1BDE JUMP JUMPDEST DUP3 MSTORE POP POP JUMP JUMPDEST PUSH0 PUSH1 0x20 DUP3 ADD SWAP1 POP PUSH2 0x1C0B PUSH0 DUP4 ADD DUP5 PUSH2 0x1BE9 JUMP JUMPDEST SWAP3 SWAP2 POP POP JUMP JUMPDEST PUSH0 DUP2 SWAP1 POP SWAP2 SWAP1 POP JUMP JUMPDEST PUSH2 0x1C23 DUP2 PUSH2 0x1C11 JUMP JUMPDEST DUP3 MSTORE POP POP JUMP JUMPDEST PUSH0 PUSH1 0x20 DUP3 ADD SWAP1 POP PUSH2 0x1C3C PUSH0 DUP4 ADD DUP5 PUSH2 0x1C1A JUMP JUMPDEST SWAP3 SWAP2 POP POP JUMP JUMPDEST PUSH0 PUSH20 0xFFFFFFFFFFFFFFFFFFFFFFFFFFFFFFFFFFFFFFFF DUP3 AND SWAP1 POP SWAP2 SWAP1 POP JUMP JUMPDEST PUSH0 PUSH2 0x1C6B DUP3 PUSH2 0x1C42 JUMP JUMPDEST SWAP1 POP SWAP2 SWAP1 POP JUMP JUMPDEST PUSH2 0x1C7B DUP2 PUSH2 0x1C61 JUMP JUMPDEST DUP2 EQ PUSH2 0x1C85 JUMPI PUSH0 DUP1 REVERT JUMPDEST POP JUMP JUMPDEST PUSH0 DUP2 CALLDATALOAD SWAP1 POP PUSH2 0x1C96 DUP2 PUSH2 0x1C72 JUMP JUMPDEST SWAP3 SWAP2 POP POP JUMP JUMPDEST PUSH2 0x1CA5 DUP2 PUSH2 0x1C11 JUMP JUMPDEST DUP2 EQ PUSH2 0x1CAF JUMPI PUSH0 DUP1 REVERT JUMPDEST POP JUMP JUMPDEST PUSH0 DUP2 CALLDATALOAD SWAP1 POP PUSH2 0x1CC0 DUP2 PUSH2 0x1C9C JUMP JUMPDEST SWAP3 SWAP2 POP POP JUMP JUMPDEST PUSH0 DUP1 PUSH1 0x40 DUP4 DUP6 SUB SLT ISZERO PUSH2 0x1CDC JUMPI PUSH2 0x1CDB PUSH2 0x1B56 JUMP JUMPDEST JUMPDEST PUSH0 PUSH2 0x1CE9 DUP6 DUP3 DUP7 ADD PUSH2 0x1C88 JUMP JUMPDEST SWAP3 POP POP PUSH1 0x20 PUSH2 0x1CFA DUP6 DUP3 DUP7 ADD PUSH2 0x1CB2 JUMP JUMPDEST SWAP2 POP POP SWAP3 POP SWAP3 SWAP1 POP JUMP JUMPDEST PUSH0 PUSH1 0x20 DUP3 DUP5 SUB SLT ISZERO PUSH2 0x1D19 JUMPI PUSH2 0x1D18 PUSH2 0x1B56 JUMP JUMPDEST JUMPDEST PUSH0 PUSH2 0x1D26 DUP5 DUP3 DUP6 ADD PUSH2 0x1C88 JUMP JUMPDEST SWAP2 POP POP SWAP3 SWAP2 POP POP JUMP JUMPDEST PUSH0 DUP2 SWAP1 POP SWAP2 SWAP1 POP JUMP JUMPDEST PUSH2 0x1D41 DUP2 PUSH2 0x1D2F JUMP JUMPDEST DUP2 EQ PUSH2 0x1D4B JUMPI PUSH0 DUP1 REVERT JUMPDEST POP JUMP JUMPDEST PUSH0 DUP2 CALLDATALOAD SWAP1 POP PUSH2 0x1D5C DUP2 PUSH2 0x1D38 JUMP JUMPDEST SWAP3 SWAP2 POP POP JUMP JUMPDEST PUSH0 PUSH1 0x20 DUP3 DUP5 SUB SLT ISZERO PUSH2 0x1D77 JUMPI PUSH2 0x1D76 PUSH2 0x1B56 JUMP JUMPDEST JUMPDEST PUSH0 PUSH2 0x1D84 DUP5 DUP3 DUP6 ADD PUSH2 0x1D4E JUMP JUMPDEST SWAP2 POP POP SWAP3 SWAP2 POP POP JUMP JUMPDEST PUSH2 0x1D96 DUP2 PUSH2 0x1D2F JUMP JUMPDEST DUP3 MSTORE POP POP JUMP JUMPDEST PUSH0 PUSH1 0x20 DUP3 ADD SWAP1 POP PUSH2 0x1DAF PUSH0 DUP4 ADD DUP5 PUSH2 0x1D8D JUMP JUMPDEST SWAP3 SWAP2 POP POP JUMP JUMPDEST PUSH2 0x1DBE DUP2 PUSH2 0x1BDE JUMP JUMPDEST DUP2 EQ PUSH2 0x1DC8 JUMPI PUSH0 DUP1 REVERT JUMPDEST POP JUMP JUMPDEST PUSH0 DUP2 CALLDATALOAD SWAP1 POP PUSH2 0x1DD9 DUP2 PUSH2 0x1DB5 JUMP JUMPDEST SWAP3 SWAP2 POP POP JUMP JUMPDEST PUSH0 DUP1 PUSH1 0x40 DUP4 DUP6 SUB SLT ISZERO PUSH2 0x1DF5 JUMPI PUSH2 0x1DF4 PUSH2 0x1B56 JUMP JUMPDEST JUMPDEST PUSH0 PUSH2 0x1E02 DUP6 DUP3 DUP7 ADD PUSH2 0x1CB2 JUMP JUMPDEST SWAP3 POP POP PUSH1 0x20 PUSH2 0x1E13 DUP6 DUP3 DUP7 ADD PUSH2 0x1DCB JUMP JUMPDEST SWAP2 POP POP SWAP3 POP SWAP3 SWAP1 POP JUMP JUMPDEST PUSH0 DUP1 PUSH1 0x40 DUP4 DUP6 SUB SLT ISZERO PUSH2 0x1E33 JUMPI PUSH2 0x1E32 PUSH2 0x1B56 JUMP JUMPDEST JUMPDEST PUSH0 PUSH2 0x1E40 DUP6 DUP3 DUP7 ADD PUSH2 0x1D4E JUMP JUMPDEST SWAP3 POP POP PUSH1 0x20 PUSH2 0x1E51 DUP6 DUP3 DUP7 ADD PUSH2 0x1C88 JUMP JUMPDEST SWAP2 POP POP SWAP3 POP SWAP3 SWAP1 POP JUMP JUMPDEST PUSH0 DUP1 PUSH1 0x40 DUP4 DUP6 SUB SLT ISZERO PUSH2 0x1E71 JUMPI PUSH2 0x1E70 PUSH2 0x1B56 JUMP JUMPDEST JUMPDEST PUSH0 PUSH2 0x1E7E DUP6 DUP3 DUP7 ADD PUSH2 0x1CB2 JUMP JUMPDEST SWAP3 POP POP PUSH1 0x20 PUSH2 0x1E8F DUP6 DUP3 DUP7 ADD PUSH2 0x1CB2 JUMP JUMPDEST SWAP2 POP POP SWAP3 POP SWAP3 SWAP1 POP JUMP JUMPDEST PUSH0 DUP1 REVERT JUMPDEST PUSH0 DUP1 REVERT JUMPDEST PUSH0 PUSH1 0x1F NOT PUSH1 0x1F DUP4 ADD AND SWAP1 POP SWAP2 SWAP1 POP JUMP JUMPDEST PUSH32 0x4E487B7100000000000000000000000000000000000000000000000000000000 PUSH0 MSTORE PUSH1 0x41 PUSH1 0x4 MSTORE PUSH1 0x24 PUSH0 REVERT JUMPDEST PUSH2 0x1EE7 DUP3 PUSH2 0x1EA1 JUMP JUMPDEST DUP2 ADD DUP2 DUP2 LT PUSH8 0xFFFFFFFFFFFFFFFF DUP3 GT OR ISZERO PUSH2 0x1F06 JUMPI PUSH2 0x1F05 PUSH2 0x1EB1 JUMP JUMPDEST JUMPDEST DUP1 PUSH1 0x40 MSTORE POP POP POP JUMP JUMPDEST PUSH0 PUSH2 0x1F18 PUSH2 0x1B4D JUMP JUMPDEST SWAP1 POP PUSH2 0x1F24 DUP3 DUP3 PUSH2 0x1EDE JUMP JUMPDEST SWAP2 SWAP1 POP JUMP JUMPDEST PUSH0 PUSH8 0xFFFFFFFFFFFFFFFF DUP3 GT ISZERO PUSH2 0x1F43 JUMPI PUSH2 0x1F42 PUSH2 0x1EB1 JUMP JUMPDEST JUMPDEST PUSH2 0x1F4C DUP3 PUSH2 0x1EA1 JUMP JUMPDEST SWAP1 POP PUSH1 0x20 DUP2 ADD SWAP1 POP SWAP2 SWAP1 POP JUMP JUMPDEST DUP3 DUP2 DUP4 CALLDATACOPY PUSH0 DUP4 DUP4 ADD MSTORE POP POP POP JUMP JUMPDEST PUSH0 PUSH2 0x1F79 PUSH2 0x1F74 DUP5 PUSH2 0x1F29 JUMP JUMPDEST PUSH2 0x1F0F JUMP JUMPDEST SWAP1 POP DUP3 DUP2 MSTORE PUSH1 0x20 DUP2 ADD DUP5 DUP5 DUP5 ADD GT ISZERO PUSH2 0x1F95 JUMPI PUSH2 0x1F94 PUSH2 0x1E9D JUMP JUMPDEST JUMPDEST PUSH2 0x1FA0 DUP5 DUP3 DUP6 PUSH2 0x1F59 JUMP JUMPDEST POP SWAP4 SWAP3 POP POP POP JUMP JUMPDEST PUSH0 DUP3 PUSH1 0x1F DUP4 ADD SLT PUSH2 0x1FBC JUMPI PUSH2 0x1FBB PUSH2 0x1E99 JUMP JUMPDEST JUMPDEST DUP2 CALLDATALOAD PUSH2 0x1FCC DUP5 DUP3 PUSH1 0x20 DUP7 ADD PUSH2 0x1F67 JUMP JUMPDEST SWAP2 POP POP SWAP3 SWAP2 POP POP JUMP JUMPDEST PUSH0 DUP1 PUSH1 0x40 DUP4 DUP6 SUB SLT ISZERO PUSH2 0x1FEB JUMPI PUSH2 0x1FEA PUSH2 0x1B56 JUMP JUMPDEST JUMPDEST PUSH0 DUP4 ADD CALLDATALOAD PUSH8 0xFFFFFFFFFFFFFFFF DUP2 GT ISZERO PUSH2 0x2008 JUMPI PUSH2 0x2007 PUSH2 0x1B5A JUMP JUMPDEST JUMPDEST PUSH2 0x2014 DUP6 DUP3 DUP7 ADD PUSH2 0x1FA8 JUMP JUMPDEST SWAP3 POP POP PUSH1 0x20 PUSH2 0x2025 DUP6 DUP3 DUP7 ADD PUSH2 0x1CB2 JUMP JUMPDEST SWAP2 POP POP SWAP3 POP SWAP3 SWAP1 POP JUMP JUMPDEST PUSH2 0x2038 DUP2 PUSH2 0x1C61 JUMP JUMPDEST DUP3 MSTORE POP POP JUMP JUMPDEST PUSH0 PUSH1 0x20 DUP3 ADD SWAP1 POP PUSH2 0x2051 PUSH0 DUP4 ADD DUP5 PUSH2 0x202F JUMP JUMPDEST SWAP3 SWAP2 POP POP JUMP JUMPDEST PUSH0 PUSH1 0x20 DUP3 DUP5 SUB SLT ISZERO PUSH2 0x206C JUMPI PUSH2 0x206B PUSH2 0x1B56 JUMP JUMPDEST JUMPDEST PUSH0 PUSH2 0x2079 DUP5 DUP3 DUP6 ADD PUSH2 0x1CB2 JUMP JUMPDEST SWAP2 POP POP SWAP3 SWAP2 POP POP JUMP JUMPDEST PUSH0 DUP2 MLOAD SWAP1 POP SWAP2 SWAP1 POP JUMP JUMPDEST PUSH0 DUP3 DUP3 MSTORE PUSH1 0x20 DUP3 ADD SWAP1 POP SWAP3 SWAP2 POP POP JUMP JUMPDEST DUP3 DUP2 DUP4 MCOPY PUSH0 DUP4 DUP4 ADD MSTORE POP POP POP JUMP JUMPDEST PUSH0 PUSH2 0x20B4 DUP3 PUSH2 0x2082 JUMP JUMPDEST PUSH2 0x20BE DUP2 DUP6 PUSH2 0x208C JUMP JUMPDEST SWAP4 POP PUSH2 0x20CE DUP2 DUP6 PUSH1 0x20 DUP7 ADD PUSH2 0x209C JUMP JUMPDEST PUSH2 0x20D7 DUP2 PUSH2 0x1EA1 JUMP JUMPDEST DUP5 ADD SWAP2 POP POP SWAP3 SWAP2 POP POP JUMP JUMPDEST PUSH0 PUSH1 0x80 DUP3 ADD SWAP1 POP DUP2 DUP2 SUB PUSH0 DUP4 ADD MSTORE PUSH2 0x20FA DUP2 DUP8 PUSH2 0x20AA JUMP JUMPDEST SWAP1 POP PUSH2 0x2109 PUSH1 0x20 DUP4 ADD DUP7 PUSH2 0x1C1A JUMP JUMPDEST PUSH2 0x2116 PUSH1 0x40 DUP4 ADD DUP6 PUSH2 0x1C1A JUMP JUMPDEST PUSH2 0x2123 PUSH1 0x60 DUP4 ADD DUP5 PUSH2 0x1BE9 JUMP JUMPDEST SWAP6 SWAP5 POP POP POP POP POP JUMP JUMPDEST PUSH0 DUP2 SWAP1 POP SWAP2 SWAP1 POP JUMP JUMPDEST PUSH0 PUSH2 0x214F PUSH2 0x214A PUSH2 0x2145 DUP5 PUSH2 0x1C42 JUMP JUMPDEST PUSH2 0x212C JUMP JUMPDEST PUSH2 0x1C42 JUMP JUMPDEST SWAP1 POP SWAP2 SWAP1 POP JUMP JUMPDEST PUSH0 PUSH2 0x2160 DUP3 PUSH2 0x2135 JUMP JUMPDEST SWAP1 POP SWAP2 SWAP1 POP JUMP JUMPDEST PUSH0 PUSH2 0x2171 DUP3 PUSH2 0x2156 JUMP JUMPDEST SWAP1 POP SWAP2 SWAP1 POP JUMP JUMPDEST PUSH2 0x2181 DUP2 PUSH2 0x2167 JUMP JUMPDEST DUP3 MSTORE POP POP JUMP JUMPDEST PUSH0 PUSH1 0x20 DUP3 ADD SWAP1 POP PUSH2 0x219A PUSH0 DUP4 ADD DUP5 PUSH2 0x2178 JUMP JUMPDEST SWAP3 SWAP2 POP POP JUMP JUMPDEST PUSH32 0x41504920646F6573206E6F742065786973740000000000000000000000000000 PUSH0 DUP3 ADD MSTORE POP JUMP JUMPDEST PUSH0 PUSH2 0x21D4 PUSH1 0x12 DUP4 PUSH2 0x208C JUMP JUMPDEST SWAP2 POP PUSH2 0x21DF DUP3 PUSH2 0x21A0 JUMP JUMPDEST PUSH1 0x20 DUP3 ADD SWAP1 POP SWAP2 SWAP1 POP JUMP JUMPDEST PUSH0 PUSH1 0x20 DUP3 ADD SWAP1 POP DUP2 DUP2 SUB PUSH0 DUP4 ADD MSTORE PUSH2 0x2201 DUP2 PUSH2 0x21C8 JUMP JUMPDEST SWAP1 POP SWAP2 SWAP1 POP JUMP JUMPDEST PUSH32 0x43616C6C6572206973206E6F7420746865206F776E6572000000000000000000 PUSH0 DUP3 ADD MSTORE POP JUMP JUMPDEST PUSH0 PUSH2 0x223C PUSH1 0x17 DUP4 PUSH2 0x208C JUMP JUMPDEST SWAP2 POP PUSH2 0x2247 DUP3 PUSH2 0x2208 JUMP JUMPDEST PUSH1 0x20 DUP3 ADD SWAP1 POP SWAP2 SWAP1 POP JUMP JUMPDEST PUSH0 PUSH1 0x20 DUP3 ADD SWAP1 POP DUP2 DUP2 SUB PUSH0 DUP4 ADD MSTORE PUSH2 0x2269 DUP2 PUSH2 0x2230 JUMP JUMPDEST SWAP1 POP SWAP2 SWAP1 POP JUMP JUMPDEST PUSH32 0x43616C6C6572206973206E6F7420616E2061646D696E00000000000000000000 PUSH0 DUP3 ADD MSTORE POP JUMP JUMPDEST PUSH0 PUSH2 0x22A4 PUSH1 0x16 DUP4 PUSH2 0x208C JUMP JUMPDEST SWAP2 POP PUSH2 0x22AF DUP3 PUSH2 0x2270 JUMP JUMPDEST PUSH1 0x20 DUP3 ADD SWAP1 POP SWAP2 SWAP1 POP JUMP JUMPDEST PUSH0 PUSH1 0x20 DUP3 ADD SWAP1 POP DUP2 DUP2 SUB PUSH0 DUP4 ADD MSTORE PUSH2 0x22D1 DUP2 PUSH2 0x2298 JUMP JUMPDEST SWAP1 POP SWAP2 SWAP1 POP JUMP JUMPDEST PUSH32 0x4E756D626572206F66207265717565737473206D757374206265206772656174 PUSH0 DUP3 ADD MSTORE PUSH32 0x6572207468616E207A65726F0000000000000000000000000000000000000000 PUSH1 0x20 DUP3 ADD MSTORE POP JUMP JUMPDEST PUSH0 PUSH2 0x2332 PUSH1 0x2C DUP4 PUSH2 0x208C JUMP JUMPDEST SWAP2 POP PUSH2 0x233D DUP3 PUSH2 0x22D8 JUMP JUMPDEST PUSH1 0x40 DUP3 ADD SWAP1 POP SWAP2 SWAP1 POP JUMP JUMPDEST PUSH0 PUSH1 0x20 DUP3 ADD SWAP1 POP DUP2 DUP2 SUB PUSH0 DUP4 ADD MSTORE PUSH2 0x235F DUP2 PUSH2 0x2326 JUMP JUMPDEST SWAP1 POP SWAP2 SWAP1 POP JUMP JUMPDEST PUSH32 0x415049206973206E6F7420616374697665000000000000000000000000000000 PUSH0 DUP3 ADD MSTORE POP JUMP JUMPDEST PUSH0 PUSH2 0x239A PUSH1 0x11 DUP4 PUSH2 0x208C JUMP JUMPDEST SWAP2 POP PUSH2 0x23A5 DUP3 PUSH2 0x2366 JUMP JUMPDEST PUSH1 0x20 DUP3 ADD SWAP1 POP SWAP2 SWAP1 POP JUMP JUMPDEST PUSH0 PUSH1 0x20 DUP3 ADD SWAP1 POP DUP2 DUP2 SUB PUSH0 DUP4 ADD MSTORE PUSH2 0x23C7 DUP2 PUSH2 0x238E JUMP JUMPDEST SWAP1 POP SWAP2 SWAP1 POP JUMP JUMPDEST PUSH32 0x4E487B7100000000000000000000000000000000000000000000000000000000 PUSH0 MSTORE PUSH1 0x11 PUSH1 0x4 MSTORE PUSH1 0x24 PUSH0 REVERT JUMPDEST PUSH0 PUSH2 0x2405 DUP3 PUSH2 0x1C11 JUMP JUMPDEST SWAP2 POP PUSH2 0x2410 DUP4 PUSH2 0x1C11 JUMP JUMPDEST SWAP3 POP DUP3 DUP3 MUL PUSH2 0x241E DUP2 PUSH2 0x1C11 JUMP JUMPDEST SWAP2 POP DUP3 DUP3 DIV DUP5 EQ DUP4 ISZERO OR PUSH2 0x2435 JUMPI PUSH2 0x2434 PUSH2 0x23CE JUMP JUMPDEST JUMPDEST POP SWAP3 SWAP2 POP POP JUMP JUMPDEST PUSH32 0x4E487B7100000000000000000000000000000000000000000000000000000000 PUSH0 MSTORE PUSH1 0x12 PUSH1 0x4 MSTORE PUSH1 0x24 PUSH0 REVERT JUMPDEST PUSH0 PUSH2 0x2473 DUP3 PUSH2 0x1C11 JUMP JUMPDEST SWAP2 POP PUSH2 0x247E DUP4 PUSH2 0x1C11 JUMP JUMPDEST SWAP3 POP DUP3 PUSH2 0x248E JUMPI PUSH2 0x248D PUSH2 0x243C JUMP JUMPDEST JUMPDEST DUP3 DUP3 DIV SWAP1 POP SWAP3 SWAP2 POP POP JUMP JUMPDEST PUSH32 0x4F766572666C6F77206465746563746564000000000000000000000000000000 PUSH0 DUP3 ADD MSTORE POP JUMP JUMPDEST PUSH0 PUSH2 0x24CD PUSH1 0x11 DUP4 PUSH2 0x208C JUMP JUMPDEST SWAP2 POP PUSH2 0x24D8 DUP3 PUSH2 0x2499 JUMP JUMPDEST PUSH1 0x20 DUP3 ADD SWAP1 POP SWAP2 SWAP1 POP JUMP JUMPDEST PUSH0 PUSH1 0x20 DUP3 ADD SWAP1 POP DUP2 DUP2 SUB PUSH0 DUP4 ADD MSTORE PUSH2 0x24FA DUP2 PUSH2 0x24C1 JUMP JUMPDEST SWAP1 POP SWAP2 SWAP1 POP JUMP JUMPDEST PUSH0 PUSH2 0x250B DUP3 PUSH2 0x1C11 JUMP JUMPDEST SWAP2 POP PUSH2 0x2516 DUP4 PUSH2 0x1C11 JUMP JUMPDEST SWAP3 POP DUP3 DUP3 ADD SWAP1 POP DUP1 DUP3 GT ISZERO PUSH2 0x252E JUMPI PUSH2 0x252D PUSH2 0x23CE JUMP JUMPDEST JUMPDEST SWAP3 SWAP2 POP POP JUMP JUMPDEST PUSH32 0x415049206E616D652063616E6E6F7420626520656D7074790000000000000000 PUSH0 DUP3 ADD MSTORE POP JUMP JUMPDEST PUSH0 PUSH2 0x2568 PUSH1 0x18 DUP4 PUSH2 0x208C JUMP JUMPDEST SWAP2 POP PUSH2 0x2573 DUP3 PUSH2 0x2534 JUMP JUMPDEST PUSH1 0x20 DUP3 ADD SWAP1 POP SWAP2 SWAP1 POP JUMP JUMPDEST PUSH0 PUSH1 0x20 DUP3 ADD SWAP1 POP DUP2 DUP2 SUB PUSH0 DUP4 ADD MSTORE PUSH2 0x2595 DUP2 PUSH2 0x255C JUMP JUMPDEST SWAP1 POP SWAP2 SWAP1 POP JUMP JUMPDEST PUSH32 0x5072696365207065722072657175657374206D75737420626520677265617465 PUSH0 DUP3 ADD MSTORE PUSH32 0x72207468616E207A65726F000000000000000000000000000000000000000000 PUSH1 0x20 DUP3 ADD MSTORE POP JUMP JUMPDEST PUSH0 PUSH2 0x25F6 PUSH1 0x2B DUP4 PUSH2 0x208C JUMP JUMPDEST SWAP2 POP PUSH2 0x2601 DUP3 PUSH2 0x259C JUMP JUMPDEST PUSH1 0x40 DUP3 ADD SWAP1 POP SWAP2 SWAP1 POP JUMP JUMPDEST PUSH0 PUSH1 0x20 DUP3 ADD SWAP1 POP DUP2 DUP2 SUB PUSH0 DUP4 ADD MSTORE PUSH2 0x2623 DUP2 PUSH2 0x25EA JUMP JUMPDEST SWAP1 POP SWAP2 SWAP1 POP JUMP JUMPDEST PUSH0 PUSH2 0x2634 DUP3 PUSH2 0x1C11 JUMP JUMPDEST SWAP2 POP PUSH32 0xFFFFFFFFFFFFFFFFFFFFFFFFFFFFFFFFFFFFFFFFFFFFFFFFFFFFFFFFFFFFFFFF DUP3 SUB PUSH2 0x2666 JUMPI PUSH2 0x2665 PUSH2 0x23CE JUMP JUMPDEST JUMPDEST PUSH1 0x1 DUP3 ADD SWAP1 POP SWAP2 SWAP1 POP JUMP JUMPDEST PUSH32 0x4E487B7100000000000000000000000000000000000000000000000000000000 PUSH0 MSTORE PUSH1 0x22 PUSH1 0x4 MSTORE PUSH1 0x24 PUSH0 REVERT JUMPDEST PUSH0 PUSH1 0x2 DUP3 DIV SWAP1 POP PUSH1 0x1 DUP3 AND DUP1 PUSH2 0x26B5 JUMPI PUSH1 0x7F DUP3 AND SWAP2 POP JUMPDEST PUSH1 0x20 DUP3 LT DUP2 SUB PUSH2 0x26C8 JUMPI PUSH2 0x26C7 PUSH2 0x2671 JUMP JUMPDEST JUMPDEST POP SWAP2 SWAP1 POP JUMP JUMPDEST PUSH0 DUP2 SWAP1 POP DUP2 PUSH0 MSTORE PUSH1 0x20 PUSH0 KECCAK256 SWAP1 POP SWAP2 SWAP1 POP JUMP JUMPDEST PUSH0 PUSH1 0x20 PUSH1 0x1F DUP4 ADD DIV SWAP1 POP SWAP2 SWAP1 POP JUMP JUMPDEST PUSH0 DUP3 DUP3 SHL SWAP1 POP SWAP3 SWAP2 POP POP JUMP JUMPDEST PUSH0 PUSH1 0x8 DUP4 MUL PUSH2 0x272A PUSH32 0xFFFFFFFFFFFFFFFFFFFFFFFFFFFFFFFFFFFFFFFFFFFFFFFFFFFFFFFFFFFFFFFF DUP3 PUSH2 0x26EF JUMP JUMPDEST PUSH2 0x2734 DUP7 DUP4 PUSH2 0x26EF JUMP JUMPDEST SWAP6 POP DUP1 NOT DUP5 AND SWAP4 POP DUP1 DUP7 AND DUP5 OR SWAP3 POP POP POP SWAP4 SWAP3 POP POP POP JUMP JUMPDEST PUSH0 PUSH2 0x2766 PUSH2 0x2761 PUSH2 0x275C DUP5 PUSH2 0x1C11 JUMP JUMPDEST PUSH2 0x212C JUMP JUMPDEST PUSH2 0x1C11 JUMP JUMPDEST SWAP1 POP SWAP2 SWAP1 POP JUMP JUMPDEST PUSH0 DUP2 SWAP1 POP SWAP2 SWAP1 POP JUMP JUMPDEST PUSH2 0x277F DUP4 PUSH2 0x274C JUMP JUMPDEST PUSH2 0x2793 PUSH2 0x278B DUP3 PUSH2 0x276D JUMP JUMPDEST DUP5 DUP5 SLOAD PUSH2 0x26FB JUMP JUMPDEST DUP3 SSTORE POP POP POP POP JUMP JUMPDEST PUSH0 SWAP1 JUMP JUMPDEST PUSH2 0x27A7 PUSH2 0x279B JUMP JUMPDEST PUSH2 0x27B2 DUP2 DUP5 DUP5 PUSH2 0x2776 JUMP JUMPDEST POP POP POP JUMP JUMPDEST JUMPDEST DUP2 DUP2 LT ISZERO PUSH2 0x27D5 JUMPI PUSH2 0x27CA PUSH0 DUP3 PUSH2 0x279F JUMP JUMPDEST PUSH1 0x1 DUP2 ADD SWAP1 POP PUSH2 0x27B8 JUMP JUMPDEST POP POP JUMP JUMPDEST PUSH1 0x1F DUP3 GT ISZERO PUSH2 0x281A JUMPI PUSH2 0x27EB DUP2 PUSH2 0x26CE JUMP JUMPDEST PUSH2 0x27F4 DUP5 PUSH2 0x26E0 JUMP JUMPDEST DUP2 ADD PUSH1 0x20 DUP6 LT ISZERO PUSH2 0x2803 JUMPI DUP2 SWAP1 POP JUMPDEST PUSH2 0x2817 PUSH2 0x280F DUP6 PUSH2 0x26E0 JUMP JUMPDEST DUP4 ADD DUP3 PUSH2 0x27B7 JUMP JUMPDEST POP POP JUMPDEST POP POP POP JUMP JUMPDEST PUSH0 DUP3 DUP3 SHR SWAP1 POP SWAP3 SWAP2 POP POP JUMP JUMPDEST PUSH0 PUSH2 0x283A PUSH0 NOT DUP5 PUSH1 0x8 MUL PUSH2 0x281F JUMP JUMPDEST NOT DUP1 DUP4 AND SWAP2 POP POP SWAP3 SWAP2 POP POP JUMP JUMPDEST PUSH0 PUSH2 0x2852 DUP4 DUP4 PUSH2 0x282B JUMP JUMPDEST SWAP2 POP DUP3 PUSH1 0x2 MUL DUP3 OR SWAP1 POP SWAP3 SWAP2 POP POP JUMP JUMPDEST PUSH2 0x286B DUP3 PUSH2 0x2082 JUMP JUMPDEST PUSH8 0xFFFFFFFFFFFFFFFF DUP2 GT ISZERO PUSH2 0x2884 JUMPI PUSH2 0x2883 PUSH2 0x1EB1 JUMP JUMPDEST JUMPDEST PUSH2 0x288E DUP3 SLOAD PUSH2 0x269E JUMP JUMPDEST PUSH2 0x2899 DUP3 DUP3 DUP6 PUSH2 0x27D9 JUMP JUMPDEST PUSH0 PUSH1 0x20 SWAP1 POP PUSH1 0x1F DUP4 GT PUSH1 0x1 DUP2 EQ PUSH2 0x28CA JUMPI PUSH0 DUP5 ISZERO PUSH2 0x28B8 JUMPI DUP3 DUP8 ADD MLOAD SWAP1 POP JUMPDEST PUSH2 0x28C2 DUP6 DUP3 PUSH2 0x2847 JUMP JUMPDEST DUP7 SSTORE POP PUSH2 0x2929 JUMP JUMPDEST PUSH1 0x1F NOT DUP5 AND PUSH2 0x28D8 DUP7 PUSH2 0x26CE JUMP JUMPDEST PUSH0 JUMPDEST DUP3 DUP2 LT ISZERO PUSH2 0x28FF JUMPI DUP5 DUP10 ADD MLOAD DUP3 SSTORE PUSH1 0x1 DUP3 ADD SWAP2 POP PUSH1 0x20 DUP6 ADD SWAP5 POP PUSH1 0x20 DUP2 ADD SWAP1 POP PUSH2 0x28DA JUMP JUMPDEST DUP7 DUP4 LT ISZERO PUSH2 0x291C JUMPI DUP5 DUP10 ADD MLOAD PUSH2 0x2918 PUSH1 0x1F DUP10 AND DUP3 PUSH2 0x282B JUMP JUMPDEST DUP4 SSTORE POP JUMPDEST PUSH1 0x1 PUSH1 0x2 DUP9 MUL ADD DUP9 SSTORE POP POP POP JUMPDEST POP POP POP POP POP POP JUMP JUMPDEST PUSH0 PUSH1 0x40 DUP3 ADD SWAP1 POP DUP2 DUP2 SUB PUSH0 DUP4 ADD MSTORE PUSH2 0x2949 DUP2 DUP6 PUSH2 0x20AA JUMP JUMPDEST SWAP1 POP PUSH2 0x2958 PUSH1 0x20 DUP4 ADD DUP5 PUSH2 0x1C1A JUMP JUMPDEST SWAP4 SWAP3 POP POP POP JUMP JUMPDEST PUSH0 DUP2 MLOAD SWAP1 POP PUSH2 0x296D DUP2 PUSH2 0x1C9C JUMP JUMPDEST SWAP3 SWAP2 POP POP JUMP JUMPDEST PUSH0 PUSH1 0x20 DUP3 DUP5 SUB SLT ISZERO PUSH2 0x2988 JUMPI PUSH2 0x2987 PUSH2 0x1B56 JUMP JUMPDEST JUMPDEST PUSH0 PUSH2 0x2995 DUP5 DUP3 DUP6 ADD PUSH2 0x295F JUMP JUMPDEST SWAP2 POP POP SWAP3 SWAP2 POP POP JUMP JUMPDEST PUSH32 0x4E6F20746F6B656E7320746F2077697468647261770000000000000000000000 PUSH0 DUP3 ADD MSTORE POP JUMP JUMPDEST PUSH0 PUSH2 0x29D2 PUSH1 0x15 DUP4 PUSH2 0x208C JUMP JUMPDEST SWAP2 POP PUSH2 0x29DD DUP3 PUSH2 0x299E JUMP JUMPDEST PUSH1 0x20 DUP3 ADD SWAP1 POP SWAP2 SWAP1 POP JUMP JUMPDEST PUSH0 PUSH1 0x20 DUP3 ADD SWAP1 POP DUP2 DUP2 SUB PUSH0 DUP4 ADD MSTORE PUSH2 0x29FF DUP2 PUSH2 0x29C6 JUMP JUMPDEST SWAP1 POP SWAP2 SWAP1 POP JUMP JUMPDEST PUSH32 0x4E6F2072656D61696E696E672041504920726571756573747300000000000000 PUSH0 DUP3 ADD MSTORE POP JUMP JUMPDEST PUSH0 PUSH2 0x2A3A PUSH1 0x19 DUP4 PUSH2 0x208C JUMP JUMPDEST SWAP2 POP PUSH2 0x2A45 DUP3 PUSH2 0x2A06 JUMP JUMPDEST PUSH1 0x20 DUP3 ADD SWAP1 POP SWAP2 SWAP1 POP JUMP JUMPDEST PUSH0 PUSH1 0x20 DUP3 ADD SWAP1 POP DUP2 DUP2 SUB PUSH0 DUP4 ADD MSTORE PUSH2 0x2A67 DUP2 PUSH2 0x2A2E JUMP JUMPDEST SWAP1 POP SWAP2 SWAP1 POP JUMP JUMPDEST PUSH0 PUSH2 0x2A78 DUP3 PUSH2 0x1C11 JUMP JUMPDEST SWAP2 POP PUSH2 0x2A83 DUP4 PUSH2 0x1C11 JUMP JUMPDEST SWAP3 POP DUP3 DUP3 SUB SWAP1 POP DUP2 DUP2 GT ISZERO PUSH2 0x2A9B JUMPI PUSH2 0x2A9A PUSH2 0x23CE JUMP JUMPDEST JUMPDEST SWAP3 SWAP2 POP POP JUMP JUMPDEST PUSH32 0x415049206973207374696C6C2061637469766500000000000000000000000000 PUSH0 DUP3 ADD MSTORE POP JUMP JUMPDEST PUSH0 PUSH2 0x2AD5 PUSH1 0x13 DUP4 PUSH2 0x208C JUMP JUMPDEST SWAP2 POP PUSH2 0x2AE0 DUP3 PUSH2 0x2AA1 JUMP JUMPDEST PUSH1 0x20 DUP3 ADD SWAP1 POP SWAP2 SWAP1 POP JUMP JUMPDEST PUSH0 PUSH1 0x20 DUP3 ADD SWAP1 POP DUP2 DUP2 SUB PUSH0 DUP4 ADD MSTORE PUSH2 0x2B02 DUP2 PUSH2 0x2AC9 JUMP JUMPDEST SWAP1 POP SWAP2 SWAP1 POP JUMP JUMPDEST PUSH32 0x4E6F20726571756573747320746F20726566756E640000000000000000000000 PUSH0 DUP3 ADD MSTORE POP JUMP JUMPDEST PUSH0 PUSH2 0x2B3D PUSH1 0x15 DUP4 PUSH2 0x208C JUMP JUMPDEST SWAP2 POP PUSH2 0x2B48 DUP3 PUSH2 0x2B09 JUMP JUMPDEST PUSH1 0x20 DUP3 ADD SWAP1 POP SWAP2 SWAP1 POP JUMP JUMPDEST PUSH0 PUSH1 0x20 DUP3 ADD SWAP1 POP DUP2 DUP2 SUB PUSH0 DUP4 ADD MSTORE PUSH2 0x2B6A DUP2 PUSH2 0x2B31 JUMP JUMPDEST SWAP1 POP SWAP2 SWAP1 POP JUMP JUMPDEST PUSH0 PUSH1 0x60 DUP3 ADD SWAP1 POP PUSH2 0x2B84 PUSH0 DUP4 ADD DUP7 PUSH2 0x202F JUMP JUMPDEST PUSH2 0x2B91 PUSH1 0x20 DUP4 ADD DUP6 PUSH2 0x202F JUMP JUMPDEST PUSH2 0x2B9E PUSH1 0x40 DUP4 ADD DUP5 PUSH2 0x1C1A JUMP JUMPDEST SWAP5 SWAP4 POP POP POP POP JUMP JUMPDEST PUSH32 0x5265656E7472616E637947756172643A207265656E7472616E742063616C6C00 PUSH0 DUP3 ADD MSTORE POP JUMP JUMPDEST PUSH0 PUSH2 0x2BDA PUSH1 0x1F DUP4 PUSH2 0x208C JUMP JUMPDEST SWAP2 POP PUSH2 0x2BE5 DUP3 PUSH2 0x2BA6 JUMP JUMPDEST PUSH1 0x20 DUP3 ADD SWAP1 POP SWAP2 SWAP1 POP JUMP JUMPDEST PUSH0 PUSH1 0x20 DUP3 ADD SWAP1 POP DUP2 DUP2 SUB PUSH0 DUP4 ADD MSTORE PUSH2 0x2C07 DUP2 PUSH2 0x2BCE JUMP JUMPDEST SWAP1 POP SWAP2 SWAP1 POP JUMP JUMPDEST PUSH0 PUSH1 0x40 DUP3 ADD SWAP1 POP PUSH2 0x2C21 PUSH0 DUP4 ADD DUP6 PUSH2 0x202F JUMP JUMPDEST PUSH2 0x2C2E PUSH1 0x20 DUP4 ADD DUP5 PUSH2 0x1C1A JUMP JUMPDEST SWAP4 SWAP3 POP POP POP JUMP JUMPDEST PUSH0 PUSH1 0x40 DUP3 ADD SWAP1 POP PUSH2 0x2C48 PUSH0 DUP4 ADD DUP6 PUSH2 0x202F JUMP JUMPDEST PUSH2 0x2C55 PUSH1 0x20 DUP4 ADD DUP5 PUSH2 0x1D8D JUMP JUMPDEST SWAP4 SWAP3 POP POP POP JUMP INVALID LOG2 PUSH5 0x6970667358 0x22 SLT KECCAK256 SUB 0x1F DUP2 SWAP15 0x2E SWAP3 MULMOD XOR 0xC CODECOPY 0xD2 0xAB 0xEC SELFDESTRUCT EXTCODEHASH 0xEE 0xE7 0xBA PUSH26 0x3989A7254CBCE4091C45ED843A64736F6C634300081A00330000 "
				},
				"gasEstimates": {
					"creation": {
						"codeDepositCost": "2282000",
						"executionCost": "infinite",
						"totalCost": "infinite"
					},
					"external": {
						"ADMIN_ROLE()": "348",
						"DEFAULT_ADMIN_ROLE()": "374",
						"addAdmin(address)": "infinite",
						"apiIdCounter()": "2471",
						"apis(uint256)": "infinite",
						"getRemainingRequests(address,uint256)": "infinite",
						"getRoleAdmin(bytes32)": "infinite",
						"getSubscriptionStatus(address,uint256)": "5287",
						"grantRole(bytes32,address)": "infinite",
						"hasRole(bytes32,address)": "3144",
						"owner()": "2619",
						"purchaseAPIAccess(uint256,uint256)": "infinite",
						"purchaseSubscription(uint256,uint256)": "infinite",
						"refundUnusedRequests(uint256)": "infinite",
						"registerAPI(string,uint256)": "infinite",
						"removeAdmin(address)": "infinite",
						"renounceRole(bytes32,address)": "infinite",
						"revokeRole(bytes32,address)": "infinite",
						"setAPIStatus(uint256,bool)": "infinite",
						"supportsInterface(bytes4)": "741",
						"token()": "infinite",
						"useAPIAccess(uint256)": "infinite",
						"withdrawTokens()": "infinite"
					}
				},
				"methodIdentifiers": {
					"ADMIN_ROLE()": "75b238fc",
					"DEFAULT_ADMIN_ROLE()": "a217fddf",
					"addAdmin(address)": "70480275",
					"apiIdCounter()": "099952c8",
					"apis(uint256)": "af6e5689",
					"getRemainingRequests(address,uint256)": "400bb18d",
					"getRoleAdmin(bytes32)": "248a9ca3",
					"getSubscriptionStatus(address,uint256)": "0cd2c460",
					"grantRole(bytes32,address)": "2f2ff15d",
					"hasRole(bytes32,address)": "91d14854",
					"owner()": "8da5cb5b",
					"purchaseAPIAccess(uint256,uint256)": "6d177a00",
					"purchaseSubscription(uint256,uint256)": "8d1d44a9",
					"refundUnusedRequests(uint256)": "bc39c0ef",
					"registerAPI(string,uint256)": "838c0557",
					"removeAdmin(address)": "1785f53c",
					"renounceRole(bytes32,address)": "36568abe",
					"revokeRole(bytes32,address)": "d547741f",
					"setAPIStatus(uint256,bool)": "24cce39f",
					"supportsInterface(bytes4)": "01ffc9a7",
					"token()": "fc0c546a",
					"useAPIAccess(uint256)": "8e04d8d8",
					"withdrawTokens()": "8d8f2adb"
				}
			},
			"storageLayout": {
				"storage": [
					{
						"astId": 479,
						"contract": "final project/General API Marketplace Token.sol:GeneralApiMarketplaceToken",
						"label": "_status",
						"offset": 0,
						"slot": "0",
						"type": "t_uint256"
					},
					{
						"astId": 26,
						"contract": "final project/General API Marketplace Token.sol:GeneralApiMarketplaceToken",
						"label": "_roles",
						"offset": 0,
						"slot": "1",
						"type": "t_mapping(t_bytes32,t_struct(RoleData)21_storage)"
					},
					{
						"astId": 1106,
						"contract": "final project/General API Marketplace Token.sol:GeneralApiMarketplaceToken",
						"label": "owner",
						"offset": 0,
						"slot": "2",
						"type": "t_address"
					},
					{
						"astId": 1131,
						"contract": "final project/General API Marketplace Token.sol:GeneralApiMarketplaceToken",
						"label": "apiIdCounter",
						"offset": 0,
						"slot": "3",
						"type": "t_uint256"
					},
					{
						"astId": 1136,
						"contract": "final project/General API Marketplace Token.sol:GeneralApiMarketplaceToken",
						"label": "apis",
						"offset": 0,
						"slot": "4",
						"type": "t_mapping(t_uint256,t_struct(APIAccess)1120_storage)"
					},
					{
						"astId": 1141,
						"contract": "final project/General API Marketplace Token.sol:GeneralApiMarketplaceToken",
						"label": "userUsages",
						"offset": 0,
						"slot": "5",
						"type": "t_mapping(t_address,t_struct(UserUsage)1129_storage)"
					}
				],
				"types": {
					"t_address": {
						"encoding": "inplace",
						"label": "address",
						"numberOfBytes": "20"
					},
					"t_bool": {
						"encoding": "inplace",
						"label": "bool",
						"numberOfBytes": "1"
					},
					"t_bytes32": {
						"encoding": "inplace",
						"label": "bytes32",
						"numberOfBytes": "32"
					},
					"t_mapping(t_address,t_bool)": {
						"encoding": "mapping",
						"key": "t_address",
						"label": "mapping(address => bool)",
						"numberOfBytes": "32",
						"value": "t_bool"
					},
					"t_mapping(t_address,t_struct(UserUsage)1129_storage)": {
						"encoding": "mapping",
						"key": "t_address",
						"label": "mapping(address => struct GeneralApiMarketplaceToken.UserUsage)",
						"numberOfBytes": "32",
						"value": "t_struct(UserUsage)1129_storage"
					},
					"t_mapping(t_bytes32,t_struct(RoleData)21_storage)": {
						"encoding": "mapping",
						"key": "t_bytes32",
						"label": "mapping(bytes32 => struct AccessControl.RoleData)",
						"numberOfBytes": "32",
						"value": "t_struct(RoleData)21_storage"
					},
					"t_mapping(t_uint256,t_struct(APIAccess)1120_storage)": {
						"encoding": "mapping",
						"key": "t_uint256",
						"label": "mapping(uint256 => struct GeneralApiMarketplaceToken.APIAccess)",
						"numberOfBytes": "32",
						"value": "t_struct(APIAccess)1120_storage"
					},
					"t_mapping(t_uint256,t_uint256)": {
						"encoding": "mapping",
						"key": "t_uint256",
						"label": "mapping(uint256 => uint256)",
						"numberOfBytes": "32",
						"value": "t_uint256"
					},
					"t_string_storage": {
						"encoding": "bytes",
						"label": "string",
						"numberOfBytes": "32"
					},
					"t_struct(APIAccess)1120_storage": {
						"encoding": "inplace",
						"label": "struct GeneralApiMarketplaceToken.APIAccess",
						"members": [
							{
								"astId": 1113,
								"contract": "final project/General API Marketplace Token.sol:GeneralApiMarketplaceToken",
								"label": "name",
								"offset": 0,
								"slot": "0",
								"type": "t_string_storage"
							},
							{
								"astId": 1115,
								"contract": "final project/General API Marketplace Token.sol:GeneralApiMarketplaceToken",
								"label": "pricePerRequest",
								"offset": 0,
								"slot": "1",
								"type": "t_uint256"
							},
							{
								"astId": 1117,
								"contract": "final project/General API Marketplace Token.sol:GeneralApiMarketplaceToken",
								"label": "totalPurchases",
								"offset": 0,
								"slot": "2",
								"type": "t_uint256"
							},
							{
								"astId": 1119,
								"contract": "final project/General API Marketplace Token.sol:GeneralApiMarketplaceToken",
								"label": "isActive",
								"offset": 0,
								"slot": "3",
								"type": "t_bool"
							}
						],
						"numberOfBytes": "128"
					},
					"t_struct(RoleData)21_storage": {
						"encoding": "inplace",
						"label": "struct AccessControl.RoleData",
						"members": [
							{
								"astId": 18,
								"contract": "final project/General API Marketplace Token.sol:GeneralApiMarketplaceToken",
								"label": "hasRole",
								"offset": 0,
								"slot": "0",
								"type": "t_mapping(t_address,t_bool)"
							},
							{
								"astId": 20,
								"contract": "final project/General API Marketplace Token.sol:GeneralApiMarketplaceToken",
								"label": "adminRole",
								"offset": 0,
								"slot": "1",
								"type": "t_bytes32"
							}
						],
						"numberOfBytes": "64"
					},
					"t_struct(UserUsage)1129_storage": {
						"encoding": "inplace",
						"label": "struct GeneralApiMarketplaceToken.UserUsage",
						"members": [
							{
								"astId": 1124,
								"contract": "final project/General API Marketplace Token.sol:GeneralApiMarketplaceToken",
								"label": "remainingRequests",
								"offset": 0,
								"slot": "0",
								"type": "t_mapping(t_uint256,t_uint256)"
							},
							{
								"astId": 1128,
								"contract": "final project/General API Marketplace Token.sol:GeneralApiMarketplaceToken",
								"label": "subscriptionExpiry",
								"offset": 0,
								"slot": "1",
								"type": "t_mapping(t_uint256,t_uint256)"
							}
						],
						"numberOfBytes": "64"
					},
					"t_uint256": {
						"encoding": "inplace",
						"label": "uint256",
						"numberOfBytes": "32"
					}
				}
			},
			"userdoc": {
				"kind": "user",
				"methods": {},
				"version": 1
			}
		}
	}
}