{
	"final project/GeneralApiMarketplaceToken.sol": {
		"GeneralApiMarketplaceToken": {
			"abi": [
				{
					"inputs": [
						{
							"internalType": "contract IERC20",
							"name": "_token",
							"type": "address"
						}
					],
					"stateMutability": "nonpayable",
					"type": "constructor"
				},
				{
					"inputs": [],
					"name": "AccessControlBadConfirmation",
					"type": "error"
				},
				{
					"inputs": [
						{
							"internalType": "address",
							"name": "account",
							"type": "address"
						},
						{
							"internalType": "bytes32",
							"name": "neededRole",
							"type": "bytes32"
						}
					],
					"name": "AccessControlUnauthorizedAccount",
					"type": "error"
				},
				{
					"inputs": [
						{
							"internalType": "address",
							"name": "token",
							"type": "address"
						}
					],
					"name": "SafeERC20FailedOperation",
					"type": "error"
				},
				{
					"anonymous": false,
					"inputs": [
						{
							"indexed": true,
							"internalType": "address",
							"name": "user",
							"type": "address"
						},
						{
							"indexed": true,
							"internalType": "uint256",
							"name": "apiId",
							"type": "uint256"
						},
						{
							"indexed": false,
							"internalType": "uint256",
							"name": "requests",
							"type": "uint256"
						}
					],
					"name": "APIAccessPurchased",
					"type": "event"
				},
				{
					"anonymous": false,
					"inputs": [
						{
							"indexed": true,
							"internalType": "address",
							"name": "user",
							"type": "address"
						},
						{
							"indexed": true,
							"internalType": "uint256",
							"name": "apiId",
							"type": "uint256"
						},
						{
							"indexed": false,
							"internalType": "uint256",
							"name": "timestamp",
							"type": "uint256"
						}
					],
					"name": "APICallMade",
					"type": "event"
				},
				{
					"anonymous": false,
					"inputs": [
						{
							"indexed": true,
							"internalType": "uint256",
							"name": "apiId",
							"type": "uint256"
						},
						{
							"indexed": true,
							"internalType": "address",
							"name": "provider",
							"type": "address"
						},
						{
							"indexed": false,
							"internalType": "string",
							"name": "name",
							"type": "string"
						},
						{
							"indexed": false,
							"internalType": "uint256",
							"name": "pricePerRequest",
							"type": "uint256"
						},
						{
							"indexed": false,
							"internalType": "uint256",
							"name": "subscriptionPrice",
							"type": "uint256"
						}
					],
					"name": "APIRegistered",
					"type": "event"
				},
				{
					"anonymous": false,
					"inputs": [
						{
							"indexed": true,
							"internalType": "uint256",
							"name": "apiId",
							"type": "uint256"
						},
						{
							"indexed": false,
							"internalType": "bool",
							"name": "isActive",
							"type": "bool"
						}
					],
					"name": "APIStatusUpdated",
					"type": "event"
				},
				{
					"anonymous": false,
					"inputs": [
						{
							"indexed": true,
							"internalType": "address",
							"name": "user",
							"type": "address"
						},
						{
							"indexed": true,
							"internalType": "uint256",
							"name": "apiId",
							"type": "uint256"
						},
						{
							"indexed": false,
							"internalType": "uint256",
							"name": "amount",
							"type": "uint256"
						}
					],
					"name": "RefundIssued",
					"type": "event"
				},
				{
					"anonymous": false,
					"inputs": [
						{
							"indexed": true,
							"internalType": "bytes32",
							"name": "role",
							"type": "bytes32"
						},
						{
							"indexed": true,
							"internalType": "bytes32",
							"name": "previousAdminRole",
							"type": "bytes32"
						},
						{
							"indexed": true,
							"internalType": "bytes32",
							"name": "newAdminRole",
							"type": "bytes32"
						}
					],
					"name": "RoleAdminChanged",
					"type": "event"
				},
				{
					"anonymous": false,
					"inputs": [
						{
							"indexed": true,
							"internalType": "bytes32",
							"name": "role",
							"type": "bytes32"
						},
						{
							"indexed": true,
							"internalType": "address",
							"name": "account",
							"type": "address"
						},
						{
							"indexed": true,
							"internalType": "address",
							"name": "sender",
							"type": "address"
						}
					],
					"name": "RoleGranted",
					"type": "event"
				},
				{
					"anonymous": false,
					"inputs": [
						{
							"indexed": true,
							"internalType": "bytes32",
							"name": "role",
							"type": "bytes32"
						},
						{
							"indexed": true,
							"internalType": "address",
							"name": "account",
							"type": "address"
						},
						{
							"indexed": true,
							"internalType": "address",
							"name": "sender",
							"type": "address"
						}
					],
					"name": "RoleRevoked",
					"type": "event"
				},
				{
					"anonymous": false,
					"inputs": [
						{
							"indexed": true,
							"internalType": "address",
							"name": "user",
							"type": "address"
						},
						{
							"indexed": true,
							"internalType": "uint256",
							"name": "apiId",
							"type": "uint256"
						}
					],
					"name": "SubscriptionCancelled",
					"type": "event"
				},
				{
					"anonymous": false,
					"inputs": [
						{
							"indexed": true,
							"internalType": "address",
							"name": "user",
							"type": "address"
						},
						{
							"indexed": true,
							"internalType": "uint256",
							"name": "apiId",
							"type": "uint256"
						},
						{
							"indexed": false,
							"internalType": "uint256",
							"name": "duration",
							"type": "uint256"
						}
					],
					"name": "SubscriptionPurchased",
					"type": "event"
				},
				{
					"anonymous": false,
					"inputs": [
						{
							"indexed": true,
							"internalType": "address",
							"name": "provider",
							"type": "address"
						},
						{
							"indexed": false,
							"internalType": "uint256",
							"name": "amount",
							"type": "uint256"
						}
					],
					"name": "TokensWithdrawn",
					"type": "event"
				},
				{
					"inputs": [],
					"name": "ADMIN_ROLE",
					"outputs": [
						{
							"internalType": "bytes32",
							"name": "",
							"type": "bytes32"
						}
					],
					"stateMutability": "view",
					"type": "function"
				},
				{
					"inputs": [],
					"name": "DEFAULT_ADMIN_ROLE",
					"outputs": [
						{
							"internalType": "bytes32",
							"name": "",
							"type": "bytes32"
						}
					],
					"stateMutability": "view",
					"type": "function"
				},
				{
					"inputs": [],
					"name": "apiIdCounter",
					"outputs": [
						{
							"internalType": "uint256",
							"name": "",
							"type": "uint256"
						}
					],
					"stateMutability": "view",
					"type": "function"
				},
				{
					"inputs": [
						{
							"internalType": "uint256",
							"name": "",
							"type": "uint256"
						}
					],
					"name": "apis",
					"outputs": [
						{
							"internalType": "address",
							"name": "provider",
							"type": "address"
						},
						{
							"internalType": "string",
							"name": "name",
							"type": "string"
						},
						{
							"internalType": "uint256",
							"name": "pricePerRequest",
							"type": "uint256"
						},
						{
							"internalType": "uint256",
							"name": "subscriptionPrice",
							"type": "uint256"
						},
						{
							"internalType": "uint256",
							"name": "subscriptionDuration",
							"type": "uint256"
						},
						{
							"internalType": "uint256",
							"name": "totalPurchases",
							"type": "uint256"
						},
						{
							"internalType": "bool",
							"name": "isActive",
							"type": "bool"
						}
					],
					"stateMutability": "view",
					"type": "function"
				},
				{
					"inputs": [
						{
							"internalType": "uint256",
							"name": "_apiId",
							"type": "uint256"
						},
						{
							"internalType": "uint256",
							"name": "_requests",
							"type": "uint256"
						}
					],
					"name": "approveAndPurchaseAPIAccess",
					"outputs": [],
					"stateMutability": "nonpayable",
					"type": "function"
				},
				{
					"inputs": [
						{
							"internalType": "uint256",
							"name": "_apiId",
							"type": "uint256"
						}
					],
					"name": "approveAndPurchaseSubscription",
					"outputs": [],
					"stateMutability": "nonpayable",
					"type": "function"
				},
				{
					"inputs": [
						{
							"internalType": "uint256",
							"name": "_apiId",
							"type": "uint256"
						}
					],
					"name": "cancelSubscription",
					"outputs": [],
					"stateMutability": "nonpayable",
					"type": "function"
				},
				{
					"inputs": [
						{
							"internalType": "bytes32",
							"name": "role",
							"type": "bytes32"
						}
					],
					"name": "getRoleAdmin",
					"outputs": [
						{
							"internalType": "bytes32",
							"name": "",
							"type": "bytes32"
						}
					],
					"stateMutability": "view",
					"type": "function"
				},
				{
					"inputs": [
						{
							"internalType": "address",
							"name": "_user",
							"type": "address"
						}
					],
					"name": "getUserBalance",
					"outputs": [
						{
							"internalType": "uint256",
							"name": "",
							"type": "uint256"
						}
					],
					"stateMutability": "view",
					"type": "function"
				},
				{
					"inputs": [
						{
							"internalType": "bytes32",
							"name": "role",
							"type": "bytes32"
						},
						{
							"internalType": "address",
							"name": "account",
							"type": "address"
						}
					],
					"name": "grantRole",
					"outputs": [],
					"stateMutability": "nonpayable",
					"type": "function"
				},
				{
					"inputs": [
						{
							"internalType": "bytes32",
							"name": "role",
							"type": "bytes32"
						},
						{
							"internalType": "address",
							"name": "account",
							"type": "address"
						}
					],
					"name": "hasRole",
					"outputs": [
						{
							"internalType": "bool",
							"name": "",
							"type": "bool"
						}
					],
					"stateMutability": "view",
					"type": "function"
				},
				{
					"inputs": [],
					"name": "owner",
					"outputs": [
						{
							"internalType": "address",
							"name": "",
							"type": "address"
						}
					],
					"stateMutability": "view",
					"type": "function"
				},
				{
					"inputs": [
						{
							"internalType": "address",
							"name": "",
							"type": "address"
						}
					],
					"name": "providerBalances",
					"outputs": [
						{
							"internalType": "uint256",
							"name": "",
							"type": "uint256"
						}
					],
					"stateMutability": "view",
					"type": "function"
				},
				{
					"inputs": [
						{
							"internalType": "string",
							"name": "_name",
							"type": "string"
						},
						{
							"internalType": "uint256",
							"name": "_pricePerRequest",
							"type": "uint256"
						},
						{
							"internalType": "uint256",
							"name": "_subscriptionPrice",
							"type": "uint256"
						},
						{
							"internalType": "uint256",
							"name": "_subscriptionDuration",
							"type": "uint256"
						}
					],
					"name": "registerAPI",
					"outputs": [],
					"stateMutability": "nonpayable",
					"type": "function"
				},
				{
					"inputs": [
						{
							"internalType": "bytes32",
							"name": "role",
							"type": "bytes32"
						},
						{
							"internalType": "address",
							"name": "callerConfirmation",
							"type": "address"
						}
					],
					"name": "renounceRole",
					"outputs": [],
					"stateMutability": "nonpayable",
					"type": "function"
				},
				{
					"inputs": [
						{
							"internalType": "bytes32",
							"name": "role",
							"type": "bytes32"
						},
						{
							"internalType": "address",
							"name": "account",
							"type": "address"
						}
					],
					"name": "revokeRole",
					"outputs": [],
					"stateMutability": "nonpayable",
					"type": "function"
				},
				{
					"inputs": [
						{
							"internalType": "bytes4",
							"name": "interfaceId",
							"type": "bytes4"
						}
					],
					"name": "supportsInterface",
					"outputs": [
						{
							"internalType": "bool",
							"name": "",
							"type": "bool"
						}
					],
					"stateMutability": "view",
					"type": "function"
				},
				{
					"inputs": [],
					"name": "token",
					"outputs": [
						{
							"internalType": "contract IERC20",
							"name": "",
							"type": "address"
						}
					],
					"stateMutability": "view",
					"type": "function"
				},
				{
					"inputs": [
						{
							"internalType": "uint256",
							"name": "_apiId",
							"type": "uint256"
						}
					],
					"name": "useAPIAccess",
					"outputs": [],
					"stateMutability": "nonpayable",
					"type": "function"
				},
				{
					"inputs": [],
					"name": "withdrawEarnings",
					"outputs": [],
					"stateMutability": "nonpayable",
					"type": "function"
				}
			],
			"devdoc": {
				"custom:dev-run-script": "./scripts/deploy_with_ethers.ts",
				"details": "General API Marketplace Contract",
				"errors": {
					"AccessControlBadConfirmation()": [
						{
							"details": "The caller of a function is not the expected one. NOTE: Don't confuse with {AccessControlUnauthorizedAccount}."
						}
					],
					"AccessControlUnauthorizedAccount(address,bytes32)": [
						{
							"details": "The `account` is missing a role."
						}
					],
					"SafeERC20FailedOperation(address)": [
						{
							"details": "An operation with an ERC-20 token failed."
						}
					]
				},
				"events": {
					"RoleAdminChanged(bytes32,bytes32,bytes32)": {
						"details": "Emitted when `newAdminRole` is set as ``role``'s admin role, replacing `previousAdminRole` `DEFAULT_ADMIN_ROLE` is the starting admin for all roles, despite {RoleAdminChanged} not being emitted signaling this."
					},
					"RoleGranted(bytes32,address,address)": {
						"details": "Emitted when `account` is granted `role`. `sender` is the account that originated the contract call. This account bears the admin role (for the granted role). Expected in cases where the role was granted using the internal {AccessControl-_grantRole}."
					},
					"RoleRevoked(bytes32,address,address)": {
						"details": "Emitted when `account` is revoked `role`. `sender` is the account that originated the contract call:   - if using `revokeRole`, it is the admin role bearer   - if using `renounceRole`, it is the role bearer (i.e. `account`)"
					}
				},
				"kind": "dev",
				"methods": {
					"getRoleAdmin(bytes32)": {
						"details": "Returns the admin role that controls `role`. See {grantRole} and {revokeRole}. To change a role's admin, use {_setRoleAdmin}."
					},
					"grantRole(bytes32,address)": {
						"details": "Grants `role` to `account`. If `account` had not been already granted `role`, emits a {RoleGranted} event. Requirements: - the caller must have ``role``'s admin role. May emit a {RoleGranted} event."
					},
					"hasRole(bytes32,address)": {
						"details": "Returns `true` if `account` has been granted `role`."
					},
					"renounceRole(bytes32,address)": {
						"details": "Revokes `role` from the calling account. Roles are often managed via {grantRole} and {revokeRole}: this function's purpose is to provide a mechanism for accounts to lose their privileges if they are compromised (such as when a trusted device is misplaced). If the calling account had been revoked `role`, emits a {RoleRevoked} event. Requirements: - the caller must be `callerConfirmation`. May emit a {RoleRevoked} event."
					},
					"revokeRole(bytes32,address)": {
						"details": "Revokes `role` from `account`. If `account` had been granted `role`, emits a {RoleRevoked} event. Requirements: - the caller must have ``role``'s admin role. May emit a {RoleRevoked} event."
					},
					"supportsInterface(bytes4)": {
						"details": "See {IERC165-supportsInterface}."
					}
				},
				"title": "General API Marketplace Token",
				"version": 1
			},
			"evm": {
				"assembly": "    /* \"final project/GeneralApiMarketplaceToken.sol\":503:6565  contract GeneralApiMarketplaceToken is ReentrancyGuard, AccessControl {... */\n  mstore(0x40, 0xa0)\n    /* \"final project/GeneralApiMarketplaceToken.sol\":2578:2834  constructor(IERC20 _token) {... */\n  callvalue\n  dup1\n  iszero\n  tag_1\n  jumpi\n  0x00\n  dup1\n  revert\ntag_1:\n  pop\n  mload(0x40)\n  sub(codesize, bytecodeSize)\n  dup1\n  bytecodeSize\n  dup4\n  codecopy\n  dup2\n  dup2\n  add\n  0x40\n  mstore\n  dup2\n  add\n  swap1\n  tag_2\n  swap2\n  swap1\n  tag_3\n  jump\t// in\ntag_2:\n    /* \"@openzeppelin/contracts/security/ReentrancyGuard.sol\":1716:1717  1 */\n  0x01\n    /* \"@openzeppelin/contracts/security/ReentrancyGuard.sol\":1821:1828  _status */\n  0x00\n    /* \"@openzeppelin/contracts/security/ReentrancyGuard.sol\":1821:1843  _status = _NOT_ENTERED */\n  dup2\n  swap1\n  sstore\n  pop\n    /* \"final project/GeneralApiMarketplaceToken.sol\":2650:2651  0 */\n  0x00\n    /* \"final project/GeneralApiMarketplaceToken.sol\":2623:2652  address(_token) != address(0) */\n  0xffffffffffffffffffffffffffffffffffffffff\n  and\n    /* \"final project/GeneralApiMarketplaceToken.sol\":2631:2637  _token */\n  dup2\n    /* \"final project/GeneralApiMarketplaceToken.sol\":2623:2652  address(_token) != address(0) */\n  0xffffffffffffffffffffffffffffffffffffffff\n  and\n  sub\n    /* \"final project/GeneralApiMarketplaceToken.sol\":2615:2678  require(address(_token) != address(0), \"Invalid token address\") */\n  tag_8\n  jumpi\n  mload(0x40)\n  0x08c379a000000000000000000000000000000000000000000000000000000000\n  dup2\n  mstore\n  0x04\n  add\n  tag_9\n  swap1\n  tag_10\n  jump\t// in\ntag_9:\n  mload(0x40)\n  dup1\n  swap2\n  sub\n  swap1\n  revert\ntag_8:\n    /* \"final project/GeneralApiMarketplaceToken.sol\":2696:2702  _token */\n  dup1\n    /* \"final project/GeneralApiMarketplaceToken.sol\":2688:2702  token = _token */\n  0xffffffffffffffffffffffffffffffffffffffff\n  and\n  0x80\n  dup2\n  0xffffffffffffffffffffffffffffffffffffffff\n  and\n  dup2\n  mstore\n  pop\n  pop\n    /* \"final project/GeneralApiMarketplaceToken.sol\":2720:2730  msg.sender */\n  caller\n    /* \"final project/GeneralApiMarketplaceToken.sol\":2712:2717  owner */\n  0x02\n  0x00\n    /* \"final project/GeneralApiMarketplaceToken.sol\":2712:2730  owner = msg.sender */\n  0x0100\n  exp\n  dup2\n  sload\n  dup2\n  0xffffffffffffffffffffffffffffffffffffffff\n  mul\n  not\n  and\n  swap1\n  dup4\n  0xffffffffffffffffffffffffffffffffffffffff\n  and\n  mul\n  or\n  swap1\n  sstore\n  pop\n    /* \"final project/GeneralApiMarketplaceToken.sol\":2741:2783  _grantRole(DEFAULT_ADMIN_ROLE, msg.sender) */\n  tag_11\n    /* \"@openzeppelin/contracts/access/AccessControl.sol\":2232:2236  0x00 */\n  0x00\n    /* \"final project/GeneralApiMarketplaceToken.sol\":2752:2770  DEFAULT_ADMIN_ROLE */\n  dup1\n  shl\n    /* \"final project/GeneralApiMarketplaceToken.sol\":2772:2782  msg.sender */\n  caller\n    /* \"final project/GeneralApiMarketplaceToken.sol\":2741:2751  _grantRole */\n  shl(0x20, tag_12)\n    /* \"final project/GeneralApiMarketplaceToken.sol\":2741:2783  _grantRole(DEFAULT_ADMIN_ROLE, msg.sender) */\n  0x20\n  shr\n  jump\t// in\ntag_11:\n  pop\n    /* \"final project/GeneralApiMarketplaceToken.sol\":2793:2827  _grantRole(ADMIN_ROLE, msg.sender) */\n  tag_13\n    /* \"final project/GeneralApiMarketplaceToken.sol\":842:865  keccak256(\"ADMIN_ROLE\") */\n  0xa49807205ce4d355092ef5a8a18f56e8913cf4a201fbe287825b095693c21775\n    /* \"final project/GeneralApiMarketplaceToken.sol\":2816:2826  msg.sender */\n  caller\n    /* \"final project/GeneralApiMarketplaceToken.sol\":2793:2803  _grantRole */\n  shl(0x20, tag_12)\n    /* \"final project/GeneralApiMarketplaceToken.sol\":2793:2827  _grantRole(ADMIN_ROLE, msg.sender) */\n  0x20\n  shr\n  jump\t// in\ntag_13:\n  pop\n    /* \"final project/GeneralApiMarketplaceToken.sol\":2578:2834  constructor(IERC20 _token) {... */\n  pop\n    /* \"final project/GeneralApiMarketplaceToken.sol\":503:6565  contract GeneralApiMarketplaceToken is ReentrancyGuard, AccessControl {... */\n  jump(tag_14)\n    /* \"@openzeppelin/contracts/access/AccessControl.sol\":6179:6495  function _grantRole(bytes32 role, address account) internal virtual returns (bool) {... */\ntag_12:\n    /* \"@openzeppelin/contracts/access/AccessControl.sol\":6256:6260  bool */\n  0x00\n    /* \"@openzeppelin/contracts/access/AccessControl.sol\":6277:6299  hasRole(role, account) */\n  tag_16\n    /* \"@openzeppelin/contracts/access/AccessControl.sol\":6285:6289  role */\n  dup4\n    /* \"@openzeppelin/contracts/access/AccessControl.sol\":6291:6298  account */\n  dup4\n    /* \"@openzeppelin/contracts/access/AccessControl.sol\":6277:6284  hasRole */\n  shl(0x20, tag_17)\n    /* \"@openzeppelin/contracts/access/AccessControl.sol\":6277:6299  hasRole(role, account) */\n  0x20\n  shr\n  jump\t// in\ntag_16:\n    /* \"@openzeppelin/contracts/access/AccessControl.sol\":6272:6489  if (!hasRole(role, account)) {... */\n  tag_18\n  jumpi\n    /* \"@openzeppelin/contracts/access/AccessControl.sol\":6347:6351  true */\n  0x01\n    /* \"@openzeppelin/contracts/access/AccessControl.sol\":6315:6321  _roles */\n  dup1\n    /* \"@openzeppelin/contracts/access/AccessControl.sol\":6315:6327  _roles[role] */\n  0x00\n    /* \"@openzeppelin/contracts/access/AccessControl.sol\":6322:6326  role */\n  dup6\n    /* \"@openzeppelin/contracts/access/AccessControl.sol\":6315:6327  _roles[role] */\n  dup2\n  mstore\n  0x20\n  add\n  swap1\n  dup2\n  mstore\n  0x20\n  add\n  0x00\n  keccak256\n    /* \"@openzeppelin/contracts/access/AccessControl.sol\":6315:6335  _roles[role].hasRole */\n  0x00\n  add\n    /* \"@openzeppelin/contracts/access/AccessControl.sol\":6315:6344  _roles[role].hasRole[account] */\n  0x00\n    /* \"@openzeppelin/contracts/access/AccessControl.sol\":6336:6343  account */\n  dup5\n    /* \"@openzeppelin/contracts/access/AccessControl.sol\":6315:6344  _roles[role].hasRole[account] */\n  0xffffffffffffffffffffffffffffffffffffffff\n  and\n  0xffffffffffffffffffffffffffffffffffffffff\n  and\n  dup2\n  mstore\n  0x20\n  add\n  swap1\n  dup2\n  mstore\n  0x20\n  add\n  0x00\n  keccak256\n  0x00\n    /* \"@openzeppelin/contracts/access/AccessControl.sol\":6315:6351  _roles[role].hasRole[account] = true */\n  0x0100\n  exp\n  dup2\n  sload\n  dup2\n  0xff\n  mul\n  not\n  and\n  swap1\n  dup4\n  iszero\n  iszero\n  mul\n  or\n  swap1\n  sstore\n  pop\n    /* \"@openzeppelin/contracts/access/AccessControl.sol\":6397:6409  _msgSender() */\n  tag_19\n    /* \"@openzeppelin/contracts/access/AccessControl.sol\":6397:6407  _msgSender */\n  shl(0x20, tag_20)\n    /* \"@openzeppelin/contracts/access/AccessControl.sol\":6397:6409  _msgSender() */\n  0x20\n  shr\n  jump\t// in\ntag_19:\n    /* \"@openzeppelin/contracts/access/AccessControl.sol\":6370:6410  RoleGranted(role, account, _msgSender()) */\n  0xffffffffffffffffffffffffffffffffffffffff\n  and\n    /* \"@openzeppelin/contracts/access/AccessControl.sol\":6388:6395  account */\n  dup3\n    /* \"@openzeppelin/contracts/access/AccessControl.sol\":6370:6410  RoleGranted(role, account, _msgSender()) */\n  0xffffffffffffffffffffffffffffffffffffffff\n  and\n    /* \"@openzeppelin/contracts/access/AccessControl.sol\":6382:6386  role */\n  dup5\n    /* \"@openzeppelin/contracts/access/AccessControl.sol\":6370:6410  RoleGranted(role, account, _msgSender()) */\n  0x2f8788117e7eff1d82e926ec794901d17c78024a50270940304540a733656f0d\n  mload(0x40)\n  mload(0x40)\n  dup1\n  swap2\n  sub\n  swap1\n  log4\n    /* \"@openzeppelin/contracts/access/AccessControl.sol\":6431:6435  true */\n  0x01\n    /* \"@openzeppelin/contracts/access/AccessControl.sol\":6424:6435  return true */\n  swap1\n  pop\n  jump(tag_15)\n    /* \"@openzeppelin/contracts/access/AccessControl.sol\":6272:6489  if (!hasRole(role, account)) {... */\ntag_18:\n    /* \"@openzeppelin/contracts/access/AccessControl.sol\":6473:6478  false */\n  0x00\n    /* \"@openzeppelin/contracts/access/AccessControl.sol\":6466:6478  return false */\n  swap1\n  pop\n    /* \"@openzeppelin/contracts/access/AccessControl.sol\":6179:6495  function _grantRole(bytes32 role, address account) internal virtual returns (bool) {... */\ntag_15:\n  swap3\n  swap2\n  pop\n  pop\n  jump\t// out\n    /* \"@openzeppelin/contracts/access/AccessControl.sol\":2854:2990  function hasRole(bytes32 role, address account) public view virtual returns (bool) {... */\ntag_17:\n    /* \"@openzeppelin/contracts/access/AccessControl.sol\":2931:2935  bool */\n  0x00\n    /* \"@openzeppelin/contracts/access/AccessControl.sol\":2954:2960  _roles */\n  0x01\n    /* \"@openzeppelin/contracts/access/AccessControl.sol\":2954:2966  _roles[role] */\n  0x00\n    /* \"@openzeppelin/contracts/access/AccessControl.sol\":2961:2965  role */\n  dup5\n    /* \"@openzeppelin/contracts/access/AccessControl.sol\":2954:2966  _roles[role] */\n  dup2\n  mstore\n  0x20\n  add\n  swap1\n  dup2\n  mstore\n  0x20\n  add\n  0x00\n  keccak256\n    /* \"@openzeppelin/contracts/access/AccessControl.sol\":2954:2974  _roles[role].hasRole */\n  0x00\n  add\n    /* \"@openzeppelin/contracts/access/AccessControl.sol\":2954:2983  _roles[role].hasRole[account] */\n  0x00\n    /* \"@openzeppelin/contracts/access/AccessControl.sol\":2975:2982  account */\n  dup4\n    /* \"@openzeppelin/contracts/access/AccessControl.sol\":2954:2983  _roles[role].hasRole[account] */\n  0xffffffffffffffffffffffffffffffffffffffff\n  and\n  0xffffffffffffffffffffffffffffffffffffffff\n  and\n  dup2\n  mstore\n  0x20\n  add\n  swap1\n  dup2\n  mstore\n  0x20\n  add\n  0x00\n  keccak256\n  0x00\n  swap1\n  sload\n  swap1\n  0x0100\n  exp\n  swap1\n  div\n  0xff\n  and\n    /* \"@openzeppelin/contracts/access/AccessControl.sol\":2947:2983  return _roles[role].hasRole[account] */\n  swap1\n  pop\n    /* \"@openzeppelin/contracts/access/AccessControl.sol\":2854:2990  function hasRole(bytes32 role, address account) public view virtual returns (bool) {... */\n  swap3\n  swap2\n  pop\n  pop\n  jump\t// out\n    /* \"@openzeppelin/contracts/utils/Context.sol\":656:752  function _msgSender() internal view virtual returns (address) {... */\ntag_20:\n    /* \"@openzeppelin/contracts/utils/Context.sol\":709:716  address */\n  0x00\n    /* \"@openzeppelin/contracts/utils/Context.sol\":735:745  msg.sender */\n  caller\n    /* \"@openzeppelin/contracts/utils/Context.sol\":728:745  return msg.sender */\n  swap1\n  pop\n    /* \"@openzeppelin/contracts/utils/Context.sol\":656:752  function _msgSender() internal view virtual returns (address) {... */\n  swap1\n  jump\t// out\n    /* \"#utility.yul\":88:205   */\ntag_25:\n    /* \"#utility.yul\":197:198   */\n  0x00\n    /* \"#utility.yul\":194:195   */\n  dup1\n    /* \"#utility.yul\":187:199   */\n  revert\n    /* \"#utility.yul\":334:460   */\ntag_27:\n    /* \"#utility.yul\":371:378   */\n  0x00\n    /* \"#utility.yul\":411:453   */\n  0xffffffffffffffffffffffffffffffffffffffff\n    /* \"#utility.yul\":404:409   */\n  dup3\n    /* \"#utility.yul\":400:454   */\n  and\n    /* \"#utility.yul\":389:454   */\n  swap1\n  pop\n    /* \"#utility.yul\":334:460   */\n  swap2\n  swap1\n  pop\n  jump\t// out\n    /* \"#utility.yul\":466:562   */\ntag_28:\n    /* \"#utility.yul\":503:510   */\n  0x00\n    /* \"#utility.yul\":532:556   */\n  tag_41\n    /* \"#utility.yul\":550:555   */\n  dup3\n    /* \"#utility.yul\":532:556   */\n  tag_27\n  jump\t// in\ntag_41:\n    /* \"#utility.yul\":521:556   */\n  swap1\n  pop\n    /* \"#utility.yul\":466:562   */\n  swap2\n  swap1\n  pop\n  jump\t// out\n    /* \"#utility.yul\":568:678   */\ntag_29:\n    /* \"#utility.yul\":619:626   */\n  0x00\n    /* \"#utility.yul\":648:672   */\n  tag_43\n    /* \"#utility.yul\":666:671   */\n  dup3\n    /* \"#utility.yul\":648:672   */\n  tag_28\n  jump\t// in\ntag_43:\n    /* \"#utility.yul\":637:672   */\n  swap1\n  pop\n    /* \"#utility.yul\":568:678   */\n  swap2\n  swap1\n  pop\n  jump\t// out\n    /* \"#utility.yul\":684:834   */\ntag_30:\n    /* \"#utility.yul\":771:809   */\n  tag_45\n    /* \"#utility.yul\":803:808   */\n  dup2\n    /* \"#utility.yul\":771:809   */\n  tag_29\n  jump\t// in\ntag_45:\n    /* \"#utility.yul\":764:769   */\n  dup2\n    /* \"#utility.yul\":761:810   */\n  eq\n    /* \"#utility.yul\":751:828   */\n  tag_46\n  jumpi\n    /* \"#utility.yul\":824:825   */\n  0x00\n    /* \"#utility.yul\":821:822   */\n  dup1\n    /* \"#utility.yul\":814:826   */\n  revert\n    /* \"#utility.yul\":751:828   */\ntag_46:\n    /* \"#utility.yul\":684:834   */\n  pop\n  jump\t// out\n    /* \"#utility.yul\":840:1011   */\ntag_31:\n    /* \"#utility.yul\":911:916   */\n  0x00\n    /* \"#utility.yul\":942:948   */\n  dup2\n    /* \"#utility.yul\":936:949   */\n  mload\n    /* \"#utility.yul\":927:949   */\n  swap1\n  pop\n    /* \"#utility.yul\":958:1005   */\n  tag_48\n    /* \"#utility.yul\":999:1004   */\n  dup2\n    /* \"#utility.yul\":958:1005   */\n  tag_30\n  jump\t// in\ntag_48:\n    /* \"#utility.yul\":840:1011   */\n  swap3\n  swap2\n  pop\n  pop\n  jump\t// out\n    /* \"#utility.yul\":1017:1396   */\ntag_3:\n    /* \"#utility.yul\":1101:1107   */\n  0x00\n    /* \"#utility.yul\":1150:1152   */\n  0x20\n    /* \"#utility.yul\":1138:1147   */\n  dup3\n    /* \"#utility.yul\":1129:1136   */\n  dup5\n    /* \"#utility.yul\":1125:1148   */\n  sub\n    /* \"#utility.yul\":1121:1153   */\n  slt\n    /* \"#utility.yul\":1118:1237   */\n  iszero\n  tag_50\n  jumpi\n    /* \"#utility.yul\":1156:1235   */\n  tag_51\n  tag_25\n  jump\t// in\ntag_51:\n    /* \"#utility.yul\":1118:1237   */\ntag_50:\n    /* \"#utility.yul\":1276:1277   */\n  0x00\n    /* \"#utility.yul\":1301:1379   */\n  tag_52\n    /* \"#utility.yul\":1371:1378   */\n  dup5\n    /* \"#utility.yul\":1362:1368   */\n  dup3\n    /* \"#utility.yul\":1351:1360   */\n  dup6\n    /* \"#utility.yul\":1347:1369   */\n  add\n    /* \"#utility.yul\":1301:1379   */\n  tag_31\n  jump\t// in\ntag_52:\n    /* \"#utility.yul\":1291:1379   */\n  swap2\n  pop\n    /* \"#utility.yul\":1247:1389   */\n  pop\n    /* \"#utility.yul\":1017:1396   */\n  swap3\n  swap2\n  pop\n  pop\n  jump\t// out\n    /* \"#utility.yul\":1402:1571   */\ntag_32:\n    /* \"#utility.yul\":1486:1497   */\n  0x00\n    /* \"#utility.yul\":1520:1526   */\n  dup3\n    /* \"#utility.yul\":1515:1518   */\n  dup3\n    /* \"#utility.yul\":1508:1527   */\n  mstore\n    /* \"#utility.yul\":1560:1564   */\n  0x20\n    /* \"#utility.yul\":1555:1558   */\n  dup3\n    /* \"#utility.yul\":1551:1565   */\n  add\n    /* \"#utility.yul\":1536:1565   */\n  swap1\n  pop\n    /* \"#utility.yul\":1402:1571   */\n  swap3\n  swap2\n  pop\n  pop\n  jump\t// out\n    /* \"#utility.yul\":1577:1748   */\ntag_33:\n    /* \"#utility.yul\":1717:1740   */\n  0x496e76616c696420746f6b656e20616464726573730000000000000000000000\n    /* \"#utility.yul\":1713:1714   */\n  0x00\n    /* \"#utility.yul\":1705:1711   */\n  dup3\n    /* \"#utility.yul\":1701:1715   */\n  add\n    /* \"#utility.yul\":1694:1741   */\n  mstore\n    /* \"#utility.yul\":1577:1748   */\n  pop\n  jump\t// out\n    /* \"#utility.yul\":1754:2120   */\ntag_34:\n    /* \"#utility.yul\":1896:1899   */\n  0x00\n    /* \"#utility.yul\":1917:1984   */\n  tag_56\n    /* \"#utility.yul\":1981:1983   */\n  0x15\n    /* \"#utility.yul\":1976:1979   */\n  dup4\n    /* \"#utility.yul\":1917:1984   */\n  tag_32\n  jump\t// in\ntag_56:\n    /* \"#utility.yul\":1910:1984   */\n  swap2\n  pop\n    /* \"#utility.yul\":1993:2086   */\n  tag_57\n    /* \"#utility.yul\":2082:2085   */\n  dup3\n    /* \"#utility.yul\":1993:2086   */\n  tag_33\n  jump\t// in\ntag_57:\n    /* \"#utility.yul\":2111:2113   */\n  0x20\n    /* \"#utility.yul\":2106:2109   */\n  dup3\n    /* \"#utility.yul\":2102:2114   */\n  add\n    /* \"#utility.yul\":2095:2114   */\n  swap1\n  pop\n    /* \"#utility.yul\":1754:2120   */\n  swap2\n  swap1\n  pop\n  jump\t// out\n    /* \"#utility.yul\":2126:2545   */\ntag_10:\n    /* \"#utility.yul\":2292:2296   */\n  0x00\n    /* \"#utility.yul\":2330:2332   */\n  0x20\n    /* \"#utility.yul\":2319:2328   */\n  dup3\n    /* \"#utility.yul\":2315:2333   */\n  add\n    /* \"#utility.yul\":2307:2333   */\n  swap1\n  pop\n    /* \"#utility.yul\":2379:2388   */\n  dup2\n    /* \"#utility.yul\":2373:2377   */\n  dup2\n    /* \"#utility.yul\":2369:2389   */\n  sub\n    /* \"#utility.yul\":2365:2366   */\n  0x00\n    /* \"#utility.yul\":2354:2363   */\n  dup4\n    /* \"#utility.yul\":2350:2367   */\n  add\n    /* \"#utility.yul\":2343:2390   */\n  mstore\n    /* \"#utility.yul\":2407:2538   */\n  tag_59\n    /* \"#utility.yul\":2533:2537   */\n  dup2\n    /* \"#utility.yul\":2407:2538   */\n  tag_34\n  jump\t// in\ntag_59:\n    /* \"#utility.yul\":2399:2538   */\n  swap1\n  pop\n    /* \"#utility.yul\":2126:2545   */\n  swap2\n  swap1\n  pop\n  jump\t// out\n    /* \"final project/GeneralApiMarketplaceToken.sol\":503:6565  contract GeneralApiMarketplaceToken is ReentrancyGuard, AccessControl {... */\ntag_14:\n  mload(0x80)\n  codecopy(0x00, dataOffset(sub_0), dataSize(sub_0))\n  0x00\n  assignImmutable(\"0x208ad8d9d4ca969ed7f17809392789f61ed5b8bb6f6790375ce7d972071a1fbe\")\n  return(0x00, dataSize(sub_0))\nstop\n\nsub_0: assembly {\n        /* \"final project/GeneralApiMarketplaceToken.sol\":503:6565  contract GeneralApiMarketplaceToken is ReentrancyGuard, AccessControl {... */\n      mstore(0x40, 0x80)\n      callvalue\n      dup1\n      iszero\n      tag_1\n      jumpi\n      0x00\n      dup1\n      revert\n    tag_1:\n      pop\n      jumpi(tag_2, lt(calldatasize, 0x04))\n      shr(0xe0, calldataload(0x00))\n      dup1\n      0x75b238fc\n      gt\n      tag_23\n      jumpi\n      dup1\n      0xa217fddf\n      gt\n      tag_24\n      jumpi\n      dup1\n      0xa217fddf\n      eq\n      tag_18\n      jumpi\n      dup1\n      0xaf6e5689\n      eq\n      tag_19\n      jumpi\n      dup1\n      0xb73c6ce9\n      eq\n      tag_20\n      jumpi\n      dup1\n      0xd547741f\n      eq\n      tag_21\n      jumpi\n      dup1\n      0xfc0c546a\n      eq\n      tag_22\n      jumpi\n      jump(tag_2)\n    tag_24:\n      dup1\n      0x75b238fc\n      eq\n      tag_13\n      jumpi\n      dup1\n      0x8da5cb5b\n      eq\n      tag_14\n      jumpi\n      dup1\n      0x8e04d8d8\n      eq\n      tag_15\n      jumpi\n      dup1\n      0x91d14854\n      eq\n      tag_16\n      jumpi\n      dup1\n      0x9c4d9c0c\n      eq\n      tag_17\n      jumpi\n      jump(tag_2)\n    tag_23:\n      dup1\n      0x29206bd1\n      gt\n      tag_25\n      jumpi\n      dup1\n      0x29206bd1\n      eq\n      tag_8\n      jumpi\n      dup1\n      0x2a222851\n      eq\n      tag_9\n      jumpi\n      dup1\n      0x2f2ff15d\n      eq\n      tag_10\n      jumpi\n      dup1\n      0x36568abe\n      eq\n      tag_11\n      jumpi\n      dup1\n      0x47734892\n      eq\n      tag_12\n      jumpi\n      jump(tag_2)\n    tag_25:\n      dup1\n      0x01ffc9a7\n      eq\n      tag_3\n      jumpi\n      dup1\n      0x099952c8\n      eq\n      tag_4\n      jumpi\n      dup1\n      0x21235083\n      eq\n      tag_5\n      jumpi\n      dup1\n      0x248a9ca3\n      eq\n      tag_6\n      jumpi\n      dup1\n      0x28ac7f2c\n      eq\n      tag_7\n      jumpi\n    tag_2:\n      0x00\n      dup1\n      revert\n        /* \"@openzeppelin/contracts/access/AccessControl.sol\":2565:2767  function supportsInterface(bytes4 interfaceId) public view virtual override returns (bool) {... */\n    tag_3:\n      tag_26\n      0x04\n      dup1\n      calldatasize\n      sub\n      dup2\n      add\n      swap1\n      tag_27\n      swap2\n      swap1\n      tag_28\n      jump\t// in\n    tag_27:\n      tag_29\n      jump\t// in\n    tag_26:\n      mload(0x40)\n      tag_30\n      swap2\n      swap1\n      tag_31\n      jump\t// in\n    tag_30:\n      mload(0x40)\n      dup1\n      swap2\n      sub\n      swap1\n      return\n        /* \"final project/GeneralApiMarketplaceToken.sol\":899:926  uint256 public apiIdCounter */\n    tag_4:\n      tag_32\n      tag_33\n      jump\t// in\n    tag_32:\n      mload(0x40)\n      tag_34\n      swap2\n      swap1\n      tag_35\n      jump\t// in\n    tag_34:\n      mload(0x40)\n      dup1\n      swap2\n      sub\n      swap1\n      return\n        /* \"final project/GeneralApiMarketplaceToken.sol\":6038:6440  function cancelSubscription(uint256 _apiId) external {... */\n    tag_5:\n      tag_36\n      0x04\n      dup1\n      calldatasize\n      sub\n      dup2\n      add\n      swap1\n      tag_37\n      swap2\n      swap1\n      tag_38\n      jump\t// in\n    tag_37:\n      tag_39\n      jump\t// in\n    tag_36:\n      stop\n        /* \"@openzeppelin/contracts/access/AccessControl.sol\":3810:3930  function getRoleAdmin(bytes32 role) public view virtual returns (bytes32) {... */\n    tag_6:\n      tag_40\n      0x04\n      dup1\n      calldatasize\n      sub\n      dup2\n      add\n      swap1\n      tag_41\n      swap2\n      swap1\n      tag_42\n      jump\t// in\n    tag_41:\n      tag_43\n      jump\t// in\n    tag_40:\n      mload(0x40)\n      tag_44\n      swap2\n      swap1\n      tag_45\n      jump\t// in\n    tag_44:\n      mload(0x40)\n      dup1\n      swap2\n      sub\n      swap1\n      return\n        /* \"final project/GeneralApiMarketplaceToken.sol\":970:1021  mapping(address => uint256) public providerBalances */\n    tag_7:\n      tag_46\n      0x04\n      dup1\n      calldatasize\n      sub\n      dup2\n      add\n      swap1\n      tag_47\n      swap2\n      swap1\n      tag_48\n      jump\t// in\n    tag_47:\n      tag_49\n      jump\t// in\n    tag_46:\n      mload(0x40)\n      tag_50\n      swap2\n      swap1\n      tag_35\n      jump\t// in\n    tag_50:\n      mload(0x40)\n      dup1\n      swap2\n      sub\n      swap1\n      return\n        /* \"final project/GeneralApiMarketplaceToken.sol\":3101:4007  function registerAPI(... */\n    tag_8:\n      tag_51\n      0x04\n      dup1\n      calldatasize\n      sub\n      dup2\n      add\n      swap1\n      tag_52\n      swap2\n      swap1\n      tag_53\n      jump\t// in\n    tag_52:\n      tag_54\n      jump\t// in\n    tag_51:\n      stop\n        /* \"final project/GeneralApiMarketplaceToken.sol\":4013:4679  function approveAndPurchaseAPIAccess(uint256 _apiId, uint256 _requests) external {... */\n    tag_9:\n      tag_55\n      0x04\n      dup1\n      calldatasize\n      sub\n      dup2\n      add\n      swap1\n      tag_56\n      swap2\n      swap1\n      tag_57\n      jump\t// in\n    tag_56:\n      tag_58\n      jump\t// in\n    tag_55:\n      stop\n        /* \"@openzeppelin/contracts/access/AccessControl.sol\":4226:4362  function grantRole(bytes32 role, address account) public virtual onlyRole(getRoleAdmin(role)) {... */\n    tag_10:\n      tag_59\n      0x04\n      dup1\n      calldatasize\n      sub\n      dup2\n      add\n      swap1\n      tag_60\n      swap2\n      swap1\n      tag_61\n      jump\t// in\n    tag_60:\n      tag_62\n      jump\t// in\n    tag_59:\n      stop\n        /* \"@openzeppelin/contracts/access/AccessControl.sol\":5328:5573  function renounceRole(bytes32 role, address callerConfirmation) public virtual {... */\n    tag_11:\n      tag_63\n      0x04\n      dup1\n      calldatasize\n      sub\n      dup2\n      add\n      swap1\n      tag_64\n      swap2\n      swap1\n      tag_61\n      jump\t// in\n    tag_64:\n      tag_65\n      jump\t// in\n    tag_63:\n      stop\n        /* \"final project/GeneralApiMarketplaceToken.sol\":6446:6563  function getUserBalance(address _user) external view returns (uint256) {... */\n    tag_12:\n      tag_66\n      0x04\n      dup1\n      calldatasize\n      sub\n      dup2\n      add\n      swap1\n      tag_67\n      swap2\n      swap1\n      tag_48\n      jump\t// in\n    tag_67:\n      tag_68\n      jump\t// in\n    tag_66:\n      mload(0x40)\n      tag_69\n      swap2\n      swap1\n      tag_35\n      jump\t// in\n    tag_69:\n      mload(0x40)\n      dup1\n      swap2\n      sub\n      swap1\n      return\n        /* \"final project/GeneralApiMarketplaceToken.sol\":805:865  bytes32 public constant ADMIN_ROLE = keccak256(\"ADMIN_ROLE\") */\n    tag_13:\n      tag_70\n      tag_71\n      jump\t// in\n    tag_70:\n      mload(0x40)\n      tag_72\n      swap2\n      swap1\n      tag_45\n      jump\t// in\n    tag_72:\n      mload(0x40)\n      dup1\n      swap2\n      sub\n      swap1\n      return\n        /* \"final project/GeneralApiMarketplaceToken.sol\":731:751  address public owner */\n    tag_14:\n      tag_73\n      tag_74\n      jump\t// in\n    tag_73:\n      mload(0x40)\n      tag_75\n      swap2\n      swap1\n      tag_76\n      jump\t// in\n    tag_75:\n      mload(0x40)\n      dup1\n      swap2\n      sub\n      swap1\n      return\n        /* \"final project/GeneralApiMarketplaceToken.sol\":5271:5712  function useAPIAccess(uint256 _apiId) external {... */\n    tag_15:\n      tag_77\n      0x04\n      dup1\n      calldatasize\n      sub\n      dup2\n      add\n      swap1\n      tag_78\n      swap2\n      swap1\n      tag_38\n      jump\t// in\n    tag_78:\n      tag_79\n      jump\t// in\n    tag_77:\n      stop\n        /* \"@openzeppelin/contracts/access/AccessControl.sol\":2854:2990  function hasRole(bytes32 role, address account) public view virtual returns (bool) {... */\n    tag_16:\n      tag_80\n      0x04\n      dup1\n      calldatasize\n      sub\n      dup2\n      add\n      swap1\n      tag_81\n      swap2\n      swap1\n      tag_61\n      jump\t// in\n    tag_81:\n      tag_82\n      jump\t// in\n    tag_80:\n      mload(0x40)\n      tag_83\n      swap2\n      swap1\n      tag_31\n      jump\t// in\n    tag_83:\n      mload(0x40)\n      dup1\n      swap2\n      sub\n      swap1\n      return\n        /* \"final project/GeneralApiMarketplaceToken.sol\":4681:5269  function approveAndPurchaseSubscription(uint256 _apiId) external {... */\n    tag_17:\n      tag_84\n      0x04\n      dup1\n      calldatasize\n      sub\n      dup2\n      add\n      swap1\n      tag_85\n      swap2\n      swap1\n      tag_38\n      jump\t// in\n    tag_85:\n      tag_86\n      jump\t// in\n    tag_84:\n      stop\n        /* \"@openzeppelin/contracts/access/AccessControl.sol\":2187:2236  bytes32 public constant DEFAULT_ADMIN_ROLE = 0x00 */\n    tag_18:\n      tag_87\n      tag_88\n      jump\t// in\n    tag_87:\n      mload(0x40)\n      tag_89\n      swap2\n      swap1\n      tag_45\n      jump\t// in\n    tag_89:\n      mload(0x40)\n      dup1\n      swap2\n      sub\n      swap1\n      return\n        /* \"final project/GeneralApiMarketplaceToken.sol\":1336:1371  mapping(uint256 => API) public apis */\n    tag_19:\n      tag_90\n      0x04\n      dup1\n      calldatasize\n      sub\n      dup2\n      add\n      swap1\n      tag_91\n      swap2\n      swap1\n      tag_38\n      jump\t// in\n    tag_91:\n      tag_92\n      jump\t// in\n    tag_90:\n      mload(0x40)\n      tag_93\n      swap8\n      swap7\n      swap6\n      swap5\n      swap4\n      swap3\n      swap2\n      swap1\n      tag_94\n      jump\t// in\n    tag_93:\n      mload(0x40)\n      dup1\n      swap2\n      sub\n      swap1\n      return\n        /* \"final project/GeneralApiMarketplaceToken.sol\":5718:6032  function withdrawEarnings() external nonReentrant {... */\n    tag_20:\n      tag_95\n      tag_96\n      jump\t// in\n    tag_95:\n      stop\n        /* \"@openzeppelin/contracts/access/AccessControl.sol\":4642:4780  function revokeRole(bytes32 role, address account) public virtual onlyRole(getRoleAdmin(role)) {... */\n    tag_21:\n      tag_97\n      0x04\n      dup1\n      calldatasize\n      sub\n      dup2\n      add\n      swap1\n      tag_98\n      swap2\n      swap1\n      tag_61\n      jump\t// in\n    tag_98:\n      tag_99\n      jump\t// in\n    tag_97:\n      stop\n        /* \"final project/GeneralApiMarketplaceToken.sol\":644:673  IERC20 public immutable token */\n    tag_22:\n      tag_100\n      tag_101\n      jump\t// in\n    tag_100:\n      mload(0x40)\n      tag_102\n      swap2\n      swap1\n      tag_103\n      jump\t// in\n    tag_102:\n      mload(0x40)\n      dup1\n      swap2\n      sub\n      swap1\n      return\n        /* \"@openzeppelin/contracts/access/AccessControl.sol\":2565:2767  function supportsInterface(bytes4 interfaceId) public view virtual override returns (bool) {... */\n    tag_29:\n        /* \"@openzeppelin/contracts/access/AccessControl.sol\":2650:2654  bool */\n      0x00\n        /* \"@openzeppelin/contracts/access/AccessControl.sol\":2688:2720  type(IAccessControl).interfaceId */\n      0x7965db0b00000000000000000000000000000000000000000000000000000000\n        /* \"@openzeppelin/contracts/access/AccessControl.sol\":2673:2720  interfaceId == type(IAccessControl).interfaceId */\n      not(0xffffffffffffffffffffffffffffffffffffffffffffffffffffffff)\n      and\n        /* \"@openzeppelin/contracts/access/AccessControl.sol\":2673:2684  interfaceId */\n      dup3\n        /* \"@openzeppelin/contracts/access/AccessControl.sol\":2673:2720  interfaceId == type(IAccessControl).interfaceId */\n      not(0xffffffffffffffffffffffffffffffffffffffffffffffffffffffff)\n      and\n      eq\n        /* \"@openzeppelin/contracts/access/AccessControl.sol\":2673:2760  interfaceId == type(IAccessControl).interfaceId || super.supportsInterface(interfaceId) */\n      dup1\n      tag_105\n      jumpi\n      pop\n        /* \"@openzeppelin/contracts/access/AccessControl.sol\":2724:2760  super.supportsInterface(interfaceId) */\n      tag_106\n        /* \"@openzeppelin/contracts/access/AccessControl.sol\":2748:2759  interfaceId */\n      dup3\n        /* \"@openzeppelin/contracts/access/AccessControl.sol\":2724:2747  super.supportsInterface */\n      tag_107\n        /* \"@openzeppelin/contracts/access/AccessControl.sol\":2724:2760  super.supportsInterface(interfaceId) */\n      jump\t// in\n    tag_106:\n        /* \"@openzeppelin/contracts/access/AccessControl.sol\":2673:2760  interfaceId == type(IAccessControl).interfaceId || super.supportsInterface(interfaceId) */\n    tag_105:\n        /* \"@openzeppelin/contracts/access/AccessControl.sol\":2666:2760  return interfaceId == type(IAccessControl).interfaceId || super.supportsInterface(interfaceId) */\n      swap1\n      pop\n        /* \"@openzeppelin/contracts/access/AccessControl.sol\":2565:2767  function supportsInterface(bytes4 interfaceId) public view virtual override returns (bool) {... */\n      swap2\n      swap1\n      pop\n      jump\t// out\n        /* \"final project/GeneralApiMarketplaceToken.sol\":899:926  uint256 public apiIdCounter */\n    tag_33:\n      sload(0x03)\n      dup2\n      jump\t// out\n        /* \"final project/GeneralApiMarketplaceToken.sol\":6038:6440  function cancelSubscription(uint256 _apiId) external {... */\n    tag_39:\n        /* \"final project/GeneralApiMarketplaceToken.sol\":6118:6130  apiIdCounter */\n      sload(0x03)\n        /* \"final project/GeneralApiMarketplaceToken.sol\":6109:6115  _apiId */\n      dup2\n        /* \"final project/GeneralApiMarketplaceToken.sol\":6109:6130  _apiId < apiIdCounter */\n      lt\n        /* \"final project/GeneralApiMarketplaceToken.sol\":6101:6153  require(_apiId < apiIdCounter, \"API does not exist\") */\n      tag_109\n      jumpi\n      mload(0x40)\n      0x08c379a000000000000000000000000000000000000000000000000000000000\n      dup2\n      mstore\n      0x04\n      add\n      tag_110\n      swap1\n      tag_111\n      jump\t// in\n    tag_110:\n      mload(0x40)\n      dup1\n      swap2\n      sub\n      swap1\n      revert\n    tag_109:\n        /* \"final project/GeneralApiMarketplaceToken.sol\":6236:6251  block.timestamp */\n      timestamp\n        /* \"final project/GeneralApiMarketplaceToken.sol\":6184:6194  userUsages */\n      0x06\n        /* \"final project/GeneralApiMarketplaceToken.sol\":6184:6206  userUsages[msg.sender] */\n      0x00\n        /* \"final project/GeneralApiMarketplaceToken.sol\":6195:6205  msg.sender */\n      caller\n        /* \"final project/GeneralApiMarketplaceToken.sol\":6184:6206  userUsages[msg.sender] */\n      0xffffffffffffffffffffffffffffffffffffffff\n      and\n      0xffffffffffffffffffffffffffffffffffffffff\n      and\n      dup2\n      mstore\n      0x20\n      add\n      swap1\n      dup2\n      mstore\n      0x20\n      add\n      0x00\n      keccak256\n        /* \"final project/GeneralApiMarketplaceToken.sol\":6184:6225  userUsages[msg.sender].subscriptionExpiry */\n      0x01\n      add\n        /* \"final project/GeneralApiMarketplaceToken.sol\":6184:6233  userUsages[msg.sender].subscriptionExpiry[_apiId] */\n      0x00\n        /* \"final project/GeneralApiMarketplaceToken.sol\":6226:6232  _apiId */\n      dup4\n        /* \"final project/GeneralApiMarketplaceToken.sol\":6184:6233  userUsages[msg.sender].subscriptionExpiry[_apiId] */\n      dup2\n      mstore\n      0x20\n      add\n      swap1\n      dup2\n      mstore\n      0x20\n      add\n      0x00\n      keccak256\n      sload\n        /* \"final project/GeneralApiMarketplaceToken.sol\":6184:6251  userUsages[msg.sender].subscriptionExpiry[_apiId] > block.timestamp */\n      gt\n        /* \"final project/GeneralApiMarketplaceToken.sol\":6163:6299  require(... */\n      tag_112\n      jumpi\n      mload(0x40)\n      0x08c379a000000000000000000000000000000000000000000000000000000000\n      dup2\n      mstore\n      0x04\n      add\n      tag_113\n      swap1\n      tag_114\n      jump\t// in\n    tag_113:\n      mload(0x40)\n      dup1\n      swap2\n      sub\n      swap1\n      revert\n    tag_112:\n        /* \"final project/GeneralApiMarketplaceToken.sol\":6362:6377  block.timestamp */\n      timestamp\n        /* \"final project/GeneralApiMarketplaceToken.sol\":6310:6320  userUsages */\n      0x06\n        /* \"final project/GeneralApiMarketplaceToken.sol\":6310:6332  userUsages[msg.sender] */\n      0x00\n        /* \"final project/GeneralApiMarketplaceToken.sol\":6321:6331  msg.sender */\n      caller\n        /* \"final project/GeneralApiMarketplaceToken.sol\":6310:6332  userUsages[msg.sender] */\n      0xffffffffffffffffffffffffffffffffffffffff\n      and\n      0xffffffffffffffffffffffffffffffffffffffff\n      and\n      dup2\n      mstore\n      0x20\n      add\n      swap1\n      dup2\n      mstore\n      0x20\n      add\n      0x00\n      keccak256\n        /* \"final project/GeneralApiMarketplaceToken.sol\":6310:6351  userUsages[msg.sender].subscriptionExpiry */\n      0x01\n      add\n        /* \"final project/GeneralApiMarketplaceToken.sol\":6310:6359  userUsages[msg.sender].subscriptionExpiry[_apiId] */\n      0x00\n        /* \"final project/GeneralApiMarketplaceToken.sol\":6352:6358  _apiId */\n      dup4\n        /* \"final project/GeneralApiMarketplaceToken.sol\":6310:6359  userUsages[msg.sender].subscriptionExpiry[_apiId] */\n      dup2\n      mstore\n      0x20\n      add\n      swap1\n      dup2\n      mstore\n      0x20\n      add\n      0x00\n      keccak256\n        /* \"final project/GeneralApiMarketplaceToken.sol\":6310:6377  userUsages[msg.sender].subscriptionExpiry[_apiId] = block.timestamp */\n      dup2\n      swap1\n      sstore\n      pop\n        /* \"final project/GeneralApiMarketplaceToken.sol\":6426:6432  _apiId */\n      dup1\n        /* \"final project/GeneralApiMarketplaceToken.sol\":6414:6424  msg.sender */\n      caller\n        /* \"final project/GeneralApiMarketplaceToken.sol\":6392:6433  SubscriptionCancelled(msg.sender, _apiId) */\n      0xffffffffffffffffffffffffffffffffffffffff\n      and\n      0x06aa12c0ad65927b4a753d119c26e490d3c4a4e11cb631b43131a709dc1e5917\n      mload(0x40)\n      mload(0x40)\n      dup1\n      swap2\n      sub\n      swap1\n      log3\n        /* \"final project/GeneralApiMarketplaceToken.sol\":6038:6440  function cancelSubscription(uint256 _apiId) external {... */\n      pop\n      jump\t// out\n        /* \"@openzeppelin/contracts/access/AccessControl.sol\":3810:3930  function getRoleAdmin(bytes32 role) public view virtual returns (bytes32) {... */\n    tag_43:\n        /* \"@openzeppelin/contracts/access/AccessControl.sol\":3875:3882  bytes32 */\n      0x00\n        /* \"@openzeppelin/contracts/access/AccessControl.sol\":3901:3907  _roles */\n      0x01\n        /* \"@openzeppelin/contracts/access/AccessControl.sol\":3901:3913  _roles[role] */\n      0x00\n        /* \"@openzeppelin/contracts/access/AccessControl.sol\":3908:3912  role */\n      dup4\n        /* \"@openzeppelin/contracts/access/AccessControl.sol\":3901:3913  _roles[role] */\n      dup2\n      mstore\n      0x20\n      add\n      swap1\n      dup2\n      mstore\n      0x20\n      add\n      0x00\n      keccak256\n        /* \"@openzeppelin/contracts/access/AccessControl.sol\":3901:3923  _roles[role].adminRole */\n      0x01\n      add\n      sload\n        /* \"@openzeppelin/contracts/access/AccessControl.sol\":3894:3923  return _roles[role].adminRole */\n      swap1\n      pop\n        /* \"@openzeppelin/contracts/access/AccessControl.sol\":3810:3930  function getRoleAdmin(bytes32 role) public view virtual returns (bytes32) {... */\n      swap2\n      swap1\n      pop\n      jump\t// out\n        /* \"final project/GeneralApiMarketplaceToken.sol\":970:1021  mapping(address => uint256) public providerBalances */\n    tag_49:\n      mstore(0x20, 0x04)\n      dup1\n      0x00\n      mstore\n      keccak256(0x00, 0x40)\n      0x00\n      swap2\n      pop\n      swap1\n      pop\n      sload\n      dup2\n      jump\t// out\n        /* \"final project/GeneralApiMarketplaceToken.sol\":3101:4007  function registerAPI(... */\n    tag_54:\n        /* \"final project/GeneralApiMarketplaceToken.sol\":3315:3316  0 */\n      0x00\n        /* \"final project/GeneralApiMarketplaceToken.sol\":3299:3304  _name */\n      dup5\n        /* \"final project/GeneralApiMarketplaceToken.sol\":3293:3312  bytes(_name).length */\n      mload\n        /* \"final project/GeneralApiMarketplaceToken.sol\":3293:3316  bytes(_name).length > 0 */\n      gt\n        /* \"final project/GeneralApiMarketplaceToken.sol\":3285:3345  require(bytes(_name).length > 0, \"API name cannot be empty\") */\n      tag_117\n      jumpi\n      mload(0x40)\n      0x08c379a000000000000000000000000000000000000000000000000000000000\n      dup2\n      mstore\n      0x04\n      add\n      tag_118\n      swap1\n      tag_119\n      jump\t// in\n    tag_118:\n      mload(0x40)\n      dup1\n      swap2\n      sub\n      swap1\n      revert\n    tag_117:\n        /* \"final project/GeneralApiMarketplaceToken.sol\":3395:3396  0 */\n      0x00\n        /* \"final project/GeneralApiMarketplaceToken.sol\":3376:3392  _pricePerRequest */\n      dup4\n        /* \"final project/GeneralApiMarketplaceToken.sol\":3376:3396  _pricePerRequest > 0 */\n      gt\n        /* \"final project/GeneralApiMarketplaceToken.sol\":3376:3422  _pricePerRequest > 0 || _subscriptionPrice > 0 */\n      dup1\n      tag_120\n      jumpi\n      pop\n        /* \"final project/GeneralApiMarketplaceToken.sol\":3421:3422  0 */\n      0x00\n        /* \"final project/GeneralApiMarketplaceToken.sol\":3400:3418  _subscriptionPrice */\n      dup3\n        /* \"final project/GeneralApiMarketplaceToken.sol\":3400:3422  _subscriptionPrice > 0 */\n      gt\n        /* \"final project/GeneralApiMarketplaceToken.sol\":3376:3422  _pricePerRequest > 0 || _subscriptionPrice > 0 */\n    tag_120:\n        /* \"final project/GeneralApiMarketplaceToken.sol\":3355:3484  require(... */\n      tag_121\n      jumpi\n      mload(0x40)\n      0x08c379a000000000000000000000000000000000000000000000000000000000\n      dup2\n      mstore\n      0x04\n      add\n      tag_122\n      swap1\n      tag_123\n      jump\t// in\n    tag_122:\n      mload(0x40)\n      dup1\n      swap2\n      sub\n      swap1\n      revert\n    tag_121:\n        /* \"final project/GeneralApiMarketplaceToken.sol\":3495:3508  uint256 apiId */\n      0x00\n        /* \"final project/GeneralApiMarketplaceToken.sol\":3511:3523  apiIdCounter */\n      0x03\n      0x00\n        /* \"final project/GeneralApiMarketplaceToken.sol\":3511:3525  apiIdCounter++ */\n      dup2\n      sload\n      dup1\n      swap3\n      swap2\n      swap1\n      tag_124\n      swap1\n      tag_125\n      jump\t// in\n    tag_124:\n      swap2\n      swap1\n      pop\n      sstore\n        /* \"final project/GeneralApiMarketplaceToken.sol\":3495:3525  uint256 apiId = apiIdCounter++ */\n      swap1\n      pop\n        /* \"final project/GeneralApiMarketplaceToken.sol\":3549:3837  API({... */\n      mload(0x40)\n      dup1\n      0xe0\n      add\n      0x40\n      mstore\n      dup1\n        /* \"final project/GeneralApiMarketplaceToken.sol\":3577:3587  msg.sender */\n      caller\n        /* \"final project/GeneralApiMarketplaceToken.sol\":3549:3837  API({... */\n      0xffffffffffffffffffffffffffffffffffffffff\n      and\n      dup2\n      mstore\n      0x20\n      add\n        /* \"final project/GeneralApiMarketplaceToken.sol\":3607:3612  _name */\n      dup7\n        /* \"final project/GeneralApiMarketplaceToken.sol\":3549:3837  API({... */\n      dup2\n      mstore\n      0x20\n      add\n        /* \"final project/GeneralApiMarketplaceToken.sol\":3643:3659  _pricePerRequest */\n      dup6\n        /* \"final project/GeneralApiMarketplaceToken.sol\":3549:3837  API({... */\n      dup2\n      mstore\n      0x20\n      add\n        /* \"final project/GeneralApiMarketplaceToken.sol\":3692:3710  _subscriptionPrice */\n      dup5\n        /* \"final project/GeneralApiMarketplaceToken.sol\":3549:3837  API({... */\n      dup2\n      mstore\n      0x20\n      add\n        /* \"final project/GeneralApiMarketplaceToken.sol\":3746:3767  _subscriptionDuration */\n      dup4\n        /* \"final project/GeneralApiMarketplaceToken.sol\":3549:3837  API({... */\n      dup2\n      mstore\n      0x20\n      add\n        /* \"final project/GeneralApiMarketplaceToken.sol\":3797:3798  0 */\n      0x00\n        /* \"final project/GeneralApiMarketplaceToken.sol\":3549:3837  API({... */\n      dup2\n      mstore\n      0x20\n      add\n        /* \"final project/GeneralApiMarketplaceToken.sol\":3822:3826  true */\n      0x01\n        /* \"final project/GeneralApiMarketplaceToken.sol\":3549:3837  API({... */\n      iszero\n      iszero\n      dup2\n      mstore\n      pop\n        /* \"final project/GeneralApiMarketplaceToken.sol\":3535:3539  apis */\n      0x05\n        /* \"final project/GeneralApiMarketplaceToken.sol\":3535:3546  apis[apiId] */\n      0x00\n        /* \"final project/GeneralApiMarketplaceToken.sol\":3540:3545  apiId */\n      dup4\n        /* \"final project/GeneralApiMarketplaceToken.sol\":3535:3546  apis[apiId] */\n      dup2\n      mstore\n      0x20\n      add\n      swap1\n      dup2\n      mstore\n      0x20\n      add\n      0x00\n      keccak256\n        /* \"final project/GeneralApiMarketplaceToken.sol\":3535:3837  apis[apiId] = API({... */\n      0x00\n      dup3\n      add\n      mload\n      dup2\n      0x00\n      add\n      exp(0x0100, 0x00)\n      dup2\n      sload\n      dup2\n      0xffffffffffffffffffffffffffffffffffffffff\n      mul\n      not\n      and\n      swap1\n      dup4\n      0xffffffffffffffffffffffffffffffffffffffff\n      and\n      mul\n      or\n      swap1\n      sstore\n      pop\n      0x20\n      dup3\n      add\n      mload\n      dup2\n      0x01\n      add\n      swap1\n      dup2\n      tag_126\n      swap2\n      swap1\n      tag_127\n      jump\t// in\n    tag_126:\n      pop\n      0x40\n      dup3\n      add\n      mload\n      dup2\n      0x02\n      add\n      sstore\n      0x60\n      dup3\n      add\n      mload\n      dup2\n      0x03\n      add\n      sstore\n      0x80\n      dup3\n      add\n      mload\n      dup2\n      0x04\n      add\n      sstore\n      0xa0\n      dup3\n      add\n      mload\n      dup2\n      0x05\n      add\n      sstore\n      0xc0\n      dup3\n      add\n      mload\n      dup2\n      0x06\n      add\n      exp(0x0100, 0x00)\n      dup2\n      sload\n      dup2\n      0xff\n      mul\n      not\n      and\n      swap1\n      dup4\n      iszero\n      iszero\n      mul\n      or\n      swap1\n      sstore\n      pop\n      swap1\n      pop\n      pop\n        /* \"final project/GeneralApiMarketplaceToken.sol\":3899:3909  msg.sender */\n      caller\n        /* \"final project/GeneralApiMarketplaceToken.sol\":3853:4000  APIRegistered(... */\n      0xffffffffffffffffffffffffffffffffffffffff\n      and\n        /* \"final project/GeneralApiMarketplaceToken.sol\":3880:3885  apiId */\n      dup2\n        /* \"final project/GeneralApiMarketplaceToken.sol\":3853:4000  APIRegistered(... */\n      0xaeb4fdd5a376011a12e318bf03de0006c5c806196fb1d14f787be471267cb8dc\n        /* \"final project/GeneralApiMarketplaceToken.sol\":3923:3928  _name */\n      dup8\n        /* \"final project/GeneralApiMarketplaceToken.sol\":3942:3958  _pricePerRequest */\n      dup8\n        /* \"final project/GeneralApiMarketplaceToken.sol\":3972:3990  _subscriptionPrice */\n      dup8\n        /* \"final project/GeneralApiMarketplaceToken.sol\":3853:4000  APIRegistered(... */\n      mload(0x40)\n      tag_128\n      swap4\n      swap3\n      swap2\n      swap1\n      tag_129\n      jump\t// in\n    tag_128:\n      mload(0x40)\n      dup1\n      swap2\n      sub\n      swap1\n      log3\n        /* \"final project/GeneralApiMarketplaceToken.sol\":3275:4007  {... */\n      pop\n        /* \"final project/GeneralApiMarketplaceToken.sol\":3101:4007  function registerAPI(... */\n      pop\n      pop\n      pop\n      pop\n      jump\t// out\n        /* \"final project/GeneralApiMarketplaceToken.sol\":4013:4679  function approveAndPurchaseAPIAccess(uint256 _apiId, uint256 _requests) external {... */\n    tag_58:\n        /* \"final project/GeneralApiMarketplaceToken.sol\":4117:4129  apiIdCounter */\n      sload(0x03)\n        /* \"final project/GeneralApiMarketplaceToken.sol\":4108:4114  _apiId */\n      dup3\n        /* \"final project/GeneralApiMarketplaceToken.sol\":4108:4129  _apiId < apiIdCounter */\n      lt\n        /* \"final project/GeneralApiMarketplaceToken.sol\":4100:4152  require(_apiId < apiIdCounter, \"API does not exist\") */\n      tag_131\n      jumpi\n      mload(0x40)\n      0x08c379a000000000000000000000000000000000000000000000000000000000\n      dup2\n      mstore\n      0x04\n      add\n      tag_132\n      swap1\n      tag_111\n      jump\t// in\n    tag_132:\n      mload(0x40)\n      dup1\n      swap2\n      sub\n      swap1\n      revert\n    tag_131:\n        /* \"final project/GeneralApiMarketplaceToken.sol\":4178:4179  0 */\n      0x00\n        /* \"final project/GeneralApiMarketplaceToken.sol\":4166:4175  _requests */\n      dup2\n        /* \"final project/GeneralApiMarketplaceToken.sol\":4166:4179  _requests > 0 */\n      gt\n        /* \"final project/GeneralApiMarketplaceToken.sol\":4158:4218  require(_requests > 0, \"Must purchase at least one request\") */\n      tag_133\n      jumpi\n      mload(0x40)\n      0x08c379a000000000000000000000000000000000000000000000000000000000\n      dup2\n      mstore\n      0x04\n      add\n      tag_134\n      swap1\n      tag_135\n      jump\t// in\n    tag_134:\n      mload(0x40)\n      dup1\n      swap2\n      sub\n      swap1\n      revert\n    tag_133:\n        /* \"final project/GeneralApiMarketplaceToken.sol\":4225:4240  API storage api */\n      0x00\n        /* \"final project/GeneralApiMarketplaceToken.sol\":4243:4247  apis */\n      0x05\n        /* \"final project/GeneralApiMarketplaceToken.sol\":4243:4255  apis[_apiId] */\n      0x00\n        /* \"final project/GeneralApiMarketplaceToken.sol\":4248:4254  _apiId */\n      dup5\n        /* \"final project/GeneralApiMarketplaceToken.sol\":4243:4255  apis[_apiId] */\n      dup2\n      mstore\n      0x20\n      add\n      swap1\n      dup2\n      mstore\n      0x20\n      add\n      0x00\n      keccak256\n        /* \"final project/GeneralApiMarketplaceToken.sol\":4225:4255  API storage api = apis[_apiId] */\n      swap1\n      pop\n        /* \"final project/GeneralApiMarketplaceToken.sol\":4269:4272  api */\n      dup1\n        /* \"final project/GeneralApiMarketplaceToken.sol\":4269:4281  api.isActive */\n      0x06\n      add\n      0x00\n      swap1\n      sload\n      swap1\n      0x0100\n      exp\n      swap1\n      div\n      0xff\n      and\n        /* \"final project/GeneralApiMarketplaceToken.sol\":4261:4303  require(api.isActive, \"API is not active\") */\n      tag_136\n      jumpi\n      mload(0x40)\n      0x08c379a000000000000000000000000000000000000000000000000000000000\n      dup2\n      mstore\n      0x04\n      add\n      tag_137\n      swap1\n      tag_138\n      jump\t// in\n    tag_137:\n      mload(0x40)\n      dup1\n      swap2\n      sub\n      swap1\n      revert\n    tag_136:\n        /* \"final project/GeneralApiMarketplaceToken.sol\":4310:4327  uint256 totalCost */\n      0x00\n        /* \"final project/GeneralApiMarketplaceToken.sol\":4352:4361  _requests */\n      dup3\n        /* \"final project/GeneralApiMarketplaceToken.sol\":4330:4333  api */\n      dup3\n        /* \"final project/GeneralApiMarketplaceToken.sol\":4330:4349  api.pricePerRequest */\n      0x02\n      add\n      sload\n        /* \"final project/GeneralApiMarketplaceToken.sol\":4330:4361  api.pricePerRequest * _requests */\n      tag_139\n      swap2\n      swap1\n      tag_140\n      jump\t// in\n    tag_139:\n        /* \"final project/GeneralApiMarketplaceToken.sol\":4310:4361  uint256 totalCost = api.pricePerRequest * _requests */\n      swap1\n      pop\n        /* \"final project/GeneralApiMarketplaceToken.sol\":4401:4461  token.safeTransferFrom(msg.sender, address(this), totalCost) */\n      tag_141\n        /* \"final project/GeneralApiMarketplaceToken.sol\":4424:4434  msg.sender */\n      caller\n        /* \"final project/GeneralApiMarketplaceToken.sol\":4444:4448  this */\n      address\n        /* \"final project/GeneralApiMarketplaceToken.sol\":4451:4460  totalCost */\n      dup4\n        /* \"final project/GeneralApiMarketplaceToken.sol\":4401:4406  token */\n      immutable(\"0x208ad8d9d4ca969ed7f17809392789f61ed5b8bb6f6790375ce7d972071a1fbe\")\n        /* \"final project/GeneralApiMarketplaceToken.sol\":4401:4423  token.safeTransferFrom */\n      0xffffffffffffffffffffffffffffffffffffffff\n      and\n      tag_142\n      swap1\n        /* \"final project/GeneralApiMarketplaceToken.sol\":4401:4461  token.safeTransferFrom(msg.sender, address(this), totalCost) */\n      swap4\n      swap3\n      swap2\n      swap1\n      0xffffffff\n      and\n      jump\t// in\n    tag_141:\n        /* \"final project/GeneralApiMarketplaceToken.sol\":4520:4529  _requests */\n      dup3\n        /* \"final project/GeneralApiMarketplaceToken.sol\":4468:4478  userUsages */\n      0x06\n        /* \"final project/GeneralApiMarketplaceToken.sol\":4468:4490  userUsages[msg.sender] */\n      0x00\n        /* \"final project/GeneralApiMarketplaceToken.sol\":4479:4489  msg.sender */\n      caller\n        /* \"final project/GeneralApiMarketplaceToken.sol\":4468:4490  userUsages[msg.sender] */\n      0xffffffffffffffffffffffffffffffffffffffff\n      and\n      0xffffffffffffffffffffffffffffffffffffffff\n      and\n      dup2\n      mstore\n      0x20\n      add\n      swap1\n      dup2\n      mstore\n      0x20\n      add\n      0x00\n      keccak256\n        /* \"final project/GeneralApiMarketplaceToken.sol\":4468:4508  userUsages[msg.sender].remainingRequests */\n      0x00\n      add\n        /* \"final project/GeneralApiMarketplaceToken.sol\":4468:4516  userUsages[msg.sender].remainingRequests[_apiId] */\n      0x00\n        /* \"final project/GeneralApiMarketplaceToken.sol\":4509:4515  _apiId */\n      dup7\n        /* \"final project/GeneralApiMarketplaceToken.sol\":4468:4516  userUsages[msg.sender].remainingRequests[_apiId] */\n      dup2\n      mstore\n      0x20\n      add\n      swap1\n      dup2\n      mstore\n      0x20\n      add\n      0x00\n      keccak256\n      0x00\n        /* \"final project/GeneralApiMarketplaceToken.sol\":4468:4529  userUsages[msg.sender].remainingRequests[_apiId] += _requests */\n      dup3\n      dup3\n      sload\n      tag_143\n      swap2\n      swap1\n      tag_144\n      jump\t// in\n    tag_143:\n      swap3\n      pop\n      pop\n      dup2\n      swap1\n      sstore\n      pop\n        /* \"final project/GeneralApiMarketplaceToken.sol\":4569:4578  totalCost */\n      dup1\n        /* \"final project/GeneralApiMarketplaceToken.sol\":4535:4551  providerBalances */\n      0x04\n        /* \"final project/GeneralApiMarketplaceToken.sol\":4535:4565  providerBalances[api.provider] */\n      0x00\n        /* \"final project/GeneralApiMarketplaceToken.sol\":4552:4555  api */\n      dup5\n        /* \"final project/GeneralApiMarketplaceToken.sol\":4552:4564  api.provider */\n      0x00\n      add\n      0x00\n      swap1\n      sload\n      swap1\n      0x0100\n      exp\n      swap1\n      div\n      0xffffffffffffffffffffffffffffffffffffffff\n      and\n        /* \"final project/GeneralApiMarketplaceToken.sol\":4535:4565  providerBalances[api.provider] */\n      0xffffffffffffffffffffffffffffffffffffffff\n      and\n      0xffffffffffffffffffffffffffffffffffffffff\n      and\n      dup2\n      mstore\n      0x20\n      add\n      swap1\n      dup2\n      mstore\n      0x20\n      add\n      0x00\n      keccak256\n      0x00\n        /* \"final project/GeneralApiMarketplaceToken.sol\":4535:4578  providerBalances[api.provider] += totalCost */\n      dup3\n      dup3\n      sload\n      tag_145\n      swap2\n      swap1\n      tag_144\n      jump\t// in\n    tag_145:\n      swap3\n      pop\n      pop\n      dup2\n      swap1\n      sstore\n      pop\n        /* \"final project/GeneralApiMarketplaceToken.sol\":4607:4616  _requests */\n      dup3\n        /* \"final project/GeneralApiMarketplaceToken.sol\":4585:4588  api */\n      dup3\n        /* \"final project/GeneralApiMarketplaceToken.sol\":4585:4603  api.totalPurchases */\n      0x05\n      add\n      0x00\n        /* \"final project/GeneralApiMarketplaceToken.sol\":4585:4616  api.totalPurchases += _requests */\n      dup3\n      dup3\n      sload\n      tag_146\n      swap2\n      swap1\n      tag_144\n      jump\t// in\n    tag_146:\n      swap3\n      pop\n      pop\n      dup2\n      swap1\n      sstore\n      pop\n        /* \"final project/GeneralApiMarketplaceToken.sol\":4658:4664  _apiId */\n      dup4\n        /* \"final project/GeneralApiMarketplaceToken.sol\":4646:4656  msg.sender */\n      caller\n        /* \"final project/GeneralApiMarketplaceToken.sol\":4627:4676  APIAccessPurchased(msg.sender, _apiId, _requests) */\n      0xffffffffffffffffffffffffffffffffffffffff\n      and\n      0x651496919c95942a8a70db2e93544280a0491b14565245385a8026dcb32e923b\n        /* \"final project/GeneralApiMarketplaceToken.sol\":4666:4675  _requests */\n      dup6\n        /* \"final project/GeneralApiMarketplaceToken.sol\":4627:4676  APIAccessPurchased(msg.sender, _apiId, _requests) */\n      mload(0x40)\n      tag_147\n      swap2\n      swap1\n      tag_35\n      jump\t// in\n    tag_147:\n      mload(0x40)\n      dup1\n      swap2\n      sub\n      swap1\n      log3\n        /* \"final project/GeneralApiMarketplaceToken.sol\":4094:4679  {... */\n      pop\n      pop\n        /* \"final project/GeneralApiMarketplaceToken.sol\":4013:4679  function approveAndPurchaseAPIAccess(uint256 _apiId, uint256 _requests) external {... */\n      pop\n      pop\n      jump\t// out\n        /* \"@openzeppelin/contracts/access/AccessControl.sol\":4226:4362  function grantRole(bytes32 role, address account) public virtual onlyRole(getRoleAdmin(role)) {... */\n    tag_62:\n        /* \"@openzeppelin/contracts/access/AccessControl.sol\":4300:4318  getRoleAdmin(role) */\n      tag_148\n        /* \"@openzeppelin/contracts/access/AccessControl.sol\":4313:4317  role */\n      dup3\n        /* \"@openzeppelin/contracts/access/AccessControl.sol\":4300:4312  getRoleAdmin */\n      tag_43\n        /* \"@openzeppelin/contracts/access/AccessControl.sol\":4300:4318  getRoleAdmin(role) */\n      jump\t// in\n    tag_148:\n        /* \"@openzeppelin/contracts/access/AccessControl.sol\":2464:2480  _checkRole(role) */\n      tag_150\n        /* \"@openzeppelin/contracts/access/AccessControl.sol\":2475:2479  role */\n      dup2\n        /* \"@openzeppelin/contracts/access/AccessControl.sol\":2464:2474  _checkRole */\n      tag_151\n        /* \"@openzeppelin/contracts/access/AccessControl.sol\":2464:2480  _checkRole(role) */\n      jump\t// in\n    tag_150:\n        /* \"@openzeppelin/contracts/access/AccessControl.sol\":4330:4355  _grantRole(role, account) */\n      tag_153\n        /* \"@openzeppelin/contracts/access/AccessControl.sol\":4341:4345  role */\n      dup4\n        /* \"@openzeppelin/contracts/access/AccessControl.sol\":4347:4354  account */\n      dup4\n        /* \"@openzeppelin/contracts/access/AccessControl.sol\":4330:4340  _grantRole */\n      tag_154\n        /* \"@openzeppelin/contracts/access/AccessControl.sol\":4330:4355  _grantRole(role, account) */\n      jump\t// in\n    tag_153:\n      pop\n        /* \"@openzeppelin/contracts/access/AccessControl.sol\":4226:4362  function grantRole(bytes32 role, address account) public virtual onlyRole(getRoleAdmin(role)) {... */\n      pop\n      pop\n      pop\n      jump\t// out\n        /* \"@openzeppelin/contracts/access/AccessControl.sol\":5328:5573  function renounceRole(bytes32 role, address callerConfirmation) public virtual {... */\n    tag_65:\n        /* \"@openzeppelin/contracts/access/AccessControl.sol\":5443:5455  _msgSender() */\n      tag_156\n        /* \"@openzeppelin/contracts/access/AccessControl.sol\":5443:5453  _msgSender */\n      tag_157\n        /* \"@openzeppelin/contracts/access/AccessControl.sol\":5443:5455  _msgSender() */\n      jump\t// in\n    tag_156:\n        /* \"@openzeppelin/contracts/access/AccessControl.sol\":5421:5455  callerConfirmation != _msgSender() */\n      0xffffffffffffffffffffffffffffffffffffffff\n      and\n        /* \"@openzeppelin/contracts/access/AccessControl.sol\":5421:5439  callerConfirmation */\n      dup2\n        /* \"@openzeppelin/contracts/access/AccessControl.sol\":5421:5455  callerConfirmation != _msgSender() */\n      0xffffffffffffffffffffffffffffffffffffffff\n      and\n      eq\n        /* \"@openzeppelin/contracts/access/AccessControl.sol\":5417:5519  if (callerConfirmation != _msgSender()) {... */\n      tag_158\n      jumpi\n        /* \"@openzeppelin/contracts/access/AccessControl.sol\":5478:5508  AccessControlBadConfirmation() */\n      mload(0x40)\n      0x6697b23200000000000000000000000000000000000000000000000000000000\n      dup2\n      mstore\n      0x04\n      add\n      mload(0x40)\n      dup1\n      swap2\n      sub\n      swap1\n      revert\n        /* \"@openzeppelin/contracts/access/AccessControl.sol\":5417:5519  if (callerConfirmation != _msgSender()) {... */\n    tag_158:\n        /* \"@openzeppelin/contracts/access/AccessControl.sol\":5529:5566  _revokeRole(role, callerConfirmation) */\n      tag_159\n        /* \"@openzeppelin/contracts/access/AccessControl.sol\":5541:5545  role */\n      dup3\n        /* \"@openzeppelin/contracts/access/AccessControl.sol\":5547:5565  callerConfirmation */\n      dup3\n        /* \"@openzeppelin/contracts/access/AccessControl.sol\":5529:5540  _revokeRole */\n      tag_160\n        /* \"@openzeppelin/contracts/access/AccessControl.sol\":5529:5566  _revokeRole(role, callerConfirmation) */\n      jump\t// in\n    tag_159:\n      pop\n        /* \"@openzeppelin/contracts/access/AccessControl.sol\":5328:5573  function renounceRole(bytes32 role, address callerConfirmation) public virtual {... */\n      pop\n      pop\n      jump\t// out\n        /* \"final project/GeneralApiMarketplaceToken.sol\":6446:6563  function getUserBalance(address _user) external view returns (uint256) {... */\n    tag_68:\n        /* \"final project/GeneralApiMarketplaceToken.sol\":6508:6515  uint256 */\n      0x00\n        /* \"final project/GeneralApiMarketplaceToken.sol\":6534:6539  token */\n      immutable(\"0x208ad8d9d4ca969ed7f17809392789f61ed5b8bb6f6790375ce7d972071a1fbe\")\n        /* \"final project/GeneralApiMarketplaceToken.sol\":6534:6549  token.balanceOf */\n      0xffffffffffffffffffffffffffffffffffffffff\n      and\n      0x70a08231\n        /* \"final project/GeneralApiMarketplaceToken.sol\":6550:6555  _user */\n      dup4\n        /* \"final project/GeneralApiMarketplaceToken.sol\":6534:6556  token.balanceOf(_user) */\n      mload(0x40)\n      dup3\n      0xffffffff\n      and\n      0xe0\n      shl\n      dup2\n      mstore\n      0x04\n      add\n      tag_162\n      swap2\n      swap1\n      tag_76\n      jump\t// in\n    tag_162:\n      0x20\n      mload(0x40)\n      dup1\n      dup4\n      sub\n      dup2\n      dup7\n      gas\n      staticcall\n      iszero\n      dup1\n      iszero\n      tag_164\n      jumpi\n      returndatasize\n      0x00\n      dup1\n      returndatacopy\n      revert(0x00, returndatasize)\n    tag_164:\n      pop\n      pop\n      pop\n      pop\n      mload(0x40)\n      returndatasize\n      not(0x1f)\n      0x1f\n      dup3\n      add\n      and\n      dup3\n      add\n      dup1\n      0x40\n      mstore\n      pop\n      dup2\n      add\n      swap1\n      tag_165\n      swap2\n      swap1\n      tag_166\n      jump\t// in\n    tag_165:\n        /* \"final project/GeneralApiMarketplaceToken.sol\":6527:6556  return token.balanceOf(_user) */\n      swap1\n      pop\n        /* \"final project/GeneralApiMarketplaceToken.sol\":6446:6563  function getUserBalance(address _user) external view returns (uint256) {... */\n      swap2\n      swap1\n      pop\n      jump\t// out\n        /* \"final project/GeneralApiMarketplaceToken.sol\":805:865  bytes32 public constant ADMIN_ROLE = keccak256(\"ADMIN_ROLE\") */\n    tag_71:\n        /* \"final project/GeneralApiMarketplaceToken.sol\":842:865  keccak256(\"ADMIN_ROLE\") */\n      0xa49807205ce4d355092ef5a8a18f56e8913cf4a201fbe287825b095693c21775\n        /* \"final project/GeneralApiMarketplaceToken.sol\":805:865  bytes32 public constant ADMIN_ROLE = keccak256(\"ADMIN_ROLE\") */\n      dup2\n      jump\t// out\n        /* \"final project/GeneralApiMarketplaceToken.sol\":731:751  address public owner */\n    tag_74:\n      0x02\n      0x00\n      swap1\n      sload\n      swap1\n      0x0100\n      exp\n      swap1\n      div\n      0xffffffffffffffffffffffffffffffffffffffff\n      and\n      dup2\n      jump\t// out\n        /* \"final project/GeneralApiMarketplaceToken.sol\":5271:5712  function useAPIAccess(uint256 _apiId) external {... */\n    tag_79:\n        /* \"final project/GeneralApiMarketplaceToken.sol\":5341:5353  apiIdCounter */\n      sload(0x03)\n        /* \"final project/GeneralApiMarketplaceToken.sol\":5332:5338  _apiId */\n      dup2\n        /* \"final project/GeneralApiMarketplaceToken.sol\":5332:5353  _apiId < apiIdCounter */\n      lt\n        /* \"final project/GeneralApiMarketplaceToken.sol\":5324:5376  require(_apiId < apiIdCounter, \"API does not exist\") */\n      tag_168\n      jumpi\n      mload(0x40)\n      0x08c379a000000000000000000000000000000000000000000000000000000000\n      dup2\n      mstore\n      0x04\n      add\n      tag_169\n      swap1\n      tag_111\n      jump\t// in\n    tag_169:\n      mload(0x40)\n      dup1\n      swap2\n      sub\n      swap1\n      revert\n    tag_168:\n        /* \"final project/GeneralApiMarketplaceToken.sol\":5383:5398  API storage api */\n      0x00\n        /* \"final project/GeneralApiMarketplaceToken.sol\":5401:5405  apis */\n      0x05\n        /* \"final project/GeneralApiMarketplaceToken.sol\":5401:5413  apis[_apiId] */\n      0x00\n        /* \"final project/GeneralApiMarketplaceToken.sol\":5406:5412  _apiId */\n      dup4\n        /* \"final project/GeneralApiMarketplaceToken.sol\":5401:5413  apis[_apiId] */\n      dup2\n      mstore\n      0x20\n      add\n      swap1\n      dup2\n      mstore\n      0x20\n      add\n      0x00\n      keccak256\n        /* \"final project/GeneralApiMarketplaceToken.sol\":5383:5413  API storage api = apis[_apiId] */\n      swap1\n      pop\n        /* \"final project/GeneralApiMarketplaceToken.sol\":5427:5430  api */\n      dup1\n        /* \"final project/GeneralApiMarketplaceToken.sol\":5427:5439  api.isActive */\n      0x06\n      add\n      0x00\n      swap1\n      sload\n      swap1\n      0x0100\n      exp\n      swap1\n      div\n      0xff\n      and\n        /* \"final project/GeneralApiMarketplaceToken.sol\":5419:5461  require(api.isActive, \"API is not active\") */\n      tag_170\n      jumpi\n      mload(0x40)\n      0x08c379a000000000000000000000000000000000000000000000000000000000\n      dup2\n      mstore\n      0x04\n      add\n      tag_171\n      swap1\n      tag_138\n      jump\t// in\n    tag_171:\n      mload(0x40)\n      dup1\n      swap2\n      sub\n      swap1\n      revert\n    tag_170:\n        /* \"final project/GeneralApiMarketplaceToken.sol\":5468:5485  uint256 remaining */\n      0x00\n        /* \"final project/GeneralApiMarketplaceToken.sol\":5488:5498  userUsages */\n      0x06\n        /* \"final project/GeneralApiMarketplaceToken.sol\":5488:5510  userUsages[msg.sender] */\n      0x00\n        /* \"final project/GeneralApiMarketplaceToken.sol\":5499:5509  msg.sender */\n      caller\n        /* \"final project/GeneralApiMarketplaceToken.sol\":5488:5510  userUsages[msg.sender] */\n      0xffffffffffffffffffffffffffffffffffffffff\n      and\n      0xffffffffffffffffffffffffffffffffffffffff\n      and\n      dup2\n      mstore\n      0x20\n      add\n      swap1\n      dup2\n      mstore\n      0x20\n      add\n      0x00\n      keccak256\n        /* \"final project/GeneralApiMarketplaceToken.sol\":5488:5528  userUsages[msg.sender].remainingRequests */\n      0x00\n      add\n        /* \"final project/GeneralApiMarketplaceToken.sol\":5488:5536  userUsages[msg.sender].remainingRequests[_apiId] */\n      0x00\n        /* \"final project/GeneralApiMarketplaceToken.sol\":5529:5535  _apiId */\n      dup5\n        /* \"final project/GeneralApiMarketplaceToken.sol\":5488:5536  userUsages[msg.sender].remainingRequests[_apiId] */\n      dup2\n      mstore\n      0x20\n      add\n      swap1\n      dup2\n      mstore\n      0x20\n      add\n      0x00\n      keccak256\n      sload\n        /* \"final project/GeneralApiMarketplaceToken.sol\":5468:5536  uint256 remaining = userUsages[msg.sender].remainingRequests[_apiId] */\n      swap1\n      pop\n        /* \"final project/GeneralApiMarketplaceToken.sol\":5562:5563  0 */\n      0x00\n        /* \"final project/GeneralApiMarketplaceToken.sol\":5550:5559  remaining */\n      dup2\n        /* \"final project/GeneralApiMarketplaceToken.sol\":5550:5563  remaining > 0 */\n      gt\n        /* \"final project/GeneralApiMarketplaceToken.sol\":5542:5589  require(remaining > 0, \"No remaining requests\") */\n      tag_172\n      jumpi\n      mload(0x40)\n      0x08c379a000000000000000000000000000000000000000000000000000000000\n      dup2\n      mstore\n      0x04\n      add\n      tag_173\n      swap1\n      tag_174\n      jump\t// in\n    tag_173:\n      mload(0x40)\n      dup1\n      swap2\n      sub\n      swap1\n      revert\n    tag_172:\n        /* \"final project/GeneralApiMarketplaceToken.sol\":5648:5649  1 */\n      0x01\n        /* \"final project/GeneralApiMarketplaceToken.sol\":5596:5606  userUsages */\n      0x06\n        /* \"final project/GeneralApiMarketplaceToken.sol\":5596:5618  userUsages[msg.sender] */\n      0x00\n        /* \"final project/GeneralApiMarketplaceToken.sol\":5607:5617  msg.sender */\n      caller\n        /* \"final project/GeneralApiMarketplaceToken.sol\":5596:5618  userUsages[msg.sender] */\n      0xffffffffffffffffffffffffffffffffffffffff\n      and\n      0xffffffffffffffffffffffffffffffffffffffff\n      and\n      dup2\n      mstore\n      0x20\n      add\n      swap1\n      dup2\n      mstore\n      0x20\n      add\n      0x00\n      keccak256\n        /* \"final project/GeneralApiMarketplaceToken.sol\":5596:5636  userUsages[msg.sender].remainingRequests */\n      0x00\n      add\n        /* \"final project/GeneralApiMarketplaceToken.sol\":5596:5644  userUsages[msg.sender].remainingRequests[_apiId] */\n      0x00\n        /* \"final project/GeneralApiMarketplaceToken.sol\":5637:5643  _apiId */\n      dup6\n        /* \"final project/GeneralApiMarketplaceToken.sol\":5596:5644  userUsages[msg.sender].remainingRequests[_apiId] */\n      dup2\n      mstore\n      0x20\n      add\n      swap1\n      dup2\n      mstore\n      0x20\n      add\n      0x00\n      keccak256\n      0x00\n        /* \"final project/GeneralApiMarketplaceToken.sol\":5596:5649  userUsages[msg.sender].remainingRequests[_apiId] -= 1 */\n      dup3\n      dup3\n      sload\n      tag_175\n      swap2\n      swap1\n      tag_176\n      jump\t// in\n    tag_175:\n      swap3\n      pop\n      pop\n      dup2\n      swap1\n      sstore\n      pop\n        /* \"final project/GeneralApiMarketplaceToken.sol\":5685:5691  _apiId */\n      dup3\n        /* \"final project/GeneralApiMarketplaceToken.sol\":5673:5683  msg.sender */\n      caller\n        /* \"final project/GeneralApiMarketplaceToken.sol\":5661:5709  APICallMade(msg.sender, _apiId, block.timestamp) */\n      0xffffffffffffffffffffffffffffffffffffffff\n      and\n      0xcca1381d7195cd2569f7fc5ea523be6bbec35a1421ab82b215b1651f7b22157e\n        /* \"final project/GeneralApiMarketplaceToken.sol\":5693:5708  block.timestamp */\n      timestamp\n        /* \"final project/GeneralApiMarketplaceToken.sol\":5661:5709  APICallMade(msg.sender, _apiId, block.timestamp) */\n      mload(0x40)\n      tag_177\n      swap2\n      swap1\n      tag_35\n      jump\t// in\n    tag_177:\n      mload(0x40)\n      dup1\n      swap2\n      sub\n      swap1\n      log3\n        /* \"final project/GeneralApiMarketplaceToken.sol\":5318:5712  {... */\n      pop\n      pop\n        /* \"final project/GeneralApiMarketplaceToken.sol\":5271:5712  function useAPIAccess(uint256 _apiId) external {... */\n      pop\n      jump\t// out\n        /* \"@openzeppelin/contracts/access/AccessControl.sol\":2854:2990  function hasRole(bytes32 role, address account) public view virtual returns (bool) {... */\n    tag_82:\n        /* \"@openzeppelin/contracts/access/AccessControl.sol\":2931:2935  bool */\n      0x00\n        /* \"@openzeppelin/contracts/access/AccessControl.sol\":2954:2960  _roles */\n      0x01\n        /* \"@openzeppelin/contracts/access/AccessControl.sol\":2954:2966  _roles[role] */\n      0x00\n        /* \"@openzeppelin/contracts/access/AccessControl.sol\":2961:2965  role */\n      dup5\n        /* \"@openzeppelin/contracts/access/AccessControl.sol\":2954:2966  _roles[role] */\n      dup2\n      mstore\n      0x20\n      add\n      swap1\n      dup2\n      mstore\n      0x20\n      add\n      0x00\n      keccak256\n        /* \"@openzeppelin/contracts/access/AccessControl.sol\":2954:2974  _roles[role].hasRole */\n      0x00\n      add\n        /* \"@openzeppelin/contracts/access/AccessControl.sol\":2954:2983  _roles[role].hasRole[account] */\n      0x00\n        /* \"@openzeppelin/contracts/access/AccessControl.sol\":2975:2982  account */\n      dup4\n        /* \"@openzeppelin/contracts/access/AccessControl.sol\":2954:2983  _roles[role].hasRole[account] */\n      0xffffffffffffffffffffffffffffffffffffffff\n      and\n      0xffffffffffffffffffffffffffffffffffffffff\n      and\n      dup2\n      mstore\n      0x20\n      add\n      swap1\n      dup2\n      mstore\n      0x20\n      add\n      0x00\n      keccak256\n      0x00\n      swap1\n      sload\n      swap1\n      0x0100\n      exp\n      swap1\n      div\n      0xff\n      and\n        /* \"@openzeppelin/contracts/access/AccessControl.sol\":2947:2983  return _roles[role].hasRole[account] */\n      swap1\n      pop\n        /* \"@openzeppelin/contracts/access/AccessControl.sol\":2854:2990  function hasRole(bytes32 role, address account) public view virtual returns (bool) {... */\n      swap3\n      swap2\n      pop\n      pop\n      jump\t// out\n        /* \"final project/GeneralApiMarketplaceToken.sol\":4681:5269  function approveAndPurchaseSubscription(uint256 _apiId) external {... */\n    tag_86:\n        /* \"final project/GeneralApiMarketplaceToken.sol\":4769:4781  apiIdCounter */\n      sload(0x03)\n        /* \"final project/GeneralApiMarketplaceToken.sol\":4760:4766  _apiId */\n      dup2\n        /* \"final project/GeneralApiMarketplaceToken.sol\":4760:4781  _apiId < apiIdCounter */\n      lt\n        /* \"final project/GeneralApiMarketplaceToken.sol\":4752:4804  require(_apiId < apiIdCounter, \"API does not exist\") */\n      tag_180\n      jumpi\n      mload(0x40)\n      0x08c379a000000000000000000000000000000000000000000000000000000000\n      dup2\n      mstore\n      0x04\n      add\n      tag_181\n      swap1\n      tag_111\n      jump\t// in\n    tag_181:\n      mload(0x40)\n      dup1\n      swap2\n      sub\n      swap1\n      revert\n    tag_180:\n        /* \"final project/GeneralApiMarketplaceToken.sol\":4811:4826  API storage api */\n      0x00\n        /* \"final project/GeneralApiMarketplaceToken.sol\":4829:4833  apis */\n      0x05\n        /* \"final project/GeneralApiMarketplaceToken.sol\":4829:4841  apis[_apiId] */\n      0x00\n        /* \"final project/GeneralApiMarketplaceToken.sol\":4834:4840  _apiId */\n      dup4\n        /* \"final project/GeneralApiMarketplaceToken.sol\":4829:4841  apis[_apiId] */\n      dup2\n      mstore\n      0x20\n      add\n      swap1\n      dup2\n      mstore\n      0x20\n      add\n      0x00\n      keccak256\n        /* \"final project/GeneralApiMarketplaceToken.sol\":4811:4841  API storage api = apis[_apiId] */\n      swap1\n      pop\n        /* \"final project/GeneralApiMarketplaceToken.sol\":4855:4858  api */\n      dup1\n        /* \"final project/GeneralApiMarketplaceToken.sol\":4855:4867  api.isActive */\n      0x06\n      add\n      0x00\n      swap1\n      sload\n      swap1\n      0x0100\n      exp\n      swap1\n      div\n      0xff\n      and\n        /* \"final project/GeneralApiMarketplaceToken.sol\":4847:4889  require(api.isActive, \"API is not active\") */\n      tag_182\n      jumpi\n      mload(0x40)\n      0x08c379a000000000000000000000000000000000000000000000000000000000\n      dup2\n      mstore\n      0x04\n      add\n      tag_183\n      swap1\n      tag_138\n      jump\t// in\n    tag_183:\n      mload(0x40)\n      dup1\n      swap2\n      sub\n      swap1\n      revert\n    tag_182:\n        /* \"final project/GeneralApiMarketplaceToken.sol\":4896:4913  uint256 totalCost */\n      0x00\n        /* \"final project/GeneralApiMarketplaceToken.sol\":4916:4919  api */\n      dup2\n        /* \"final project/GeneralApiMarketplaceToken.sol\":4916:4937  api.subscriptionPrice */\n      0x03\n      add\n      sload\n        /* \"final project/GeneralApiMarketplaceToken.sol\":4896:4937  uint256 totalCost = api.subscriptionPrice */\n      swap1\n      pop\n        /* \"final project/GeneralApiMarketplaceToken.sol\":4977:5037  token.safeTransferFrom(msg.sender, address(this), totalCost) */\n      tag_184\n        /* \"final project/GeneralApiMarketplaceToken.sol\":5000:5010  msg.sender */\n      caller\n        /* \"final project/GeneralApiMarketplaceToken.sol\":5020:5024  this */\n      address\n        /* \"final project/GeneralApiMarketplaceToken.sol\":5027:5036  totalCost */\n      dup4\n        /* \"final project/GeneralApiMarketplaceToken.sol\":4977:4982  token */\n      immutable(\"0x208ad8d9d4ca969ed7f17809392789f61ed5b8bb6f6790375ce7d972071a1fbe\")\n        /* \"final project/GeneralApiMarketplaceToken.sol\":4977:4999  token.safeTransferFrom */\n      0xffffffffffffffffffffffffffffffffffffffff\n      and\n      tag_142\n      swap1\n        /* \"final project/GeneralApiMarketplaceToken.sol\":4977:5037  token.safeTransferFrom(msg.sender, address(this), totalCost) */\n      swap4\n      swap3\n      swap2\n      swap1\n      0xffffffff\n      and\n      jump\t// in\n    tag_184:\n        /* \"final project/GeneralApiMarketplaceToken.sol\":5114:5117  api */\n      dup2\n        /* \"final project/GeneralApiMarketplaceToken.sol\":5114:5138  api.subscriptionDuration */\n      0x04\n      add\n      sload\n        /* \"final project/GeneralApiMarketplaceToken.sol\":5096:5111  block.timestamp */\n      timestamp\n        /* \"final project/GeneralApiMarketplaceToken.sol\":5096:5138  block.timestamp + api.subscriptionDuration */\n      tag_185\n      swap2\n      swap1\n      tag_144\n      jump\t// in\n    tag_185:\n        /* \"final project/GeneralApiMarketplaceToken.sol\":5044:5054  userUsages */\n      0x06\n        /* \"final project/GeneralApiMarketplaceToken.sol\":5044:5066  userUsages[msg.sender] */\n      0x00\n        /* \"final project/GeneralApiMarketplaceToken.sol\":5055:5065  msg.sender */\n      caller\n        /* \"final project/GeneralApiMarketplaceToken.sol\":5044:5066  userUsages[msg.sender] */\n      0xffffffffffffffffffffffffffffffffffffffff\n      and\n      0xffffffffffffffffffffffffffffffffffffffff\n      and\n      dup2\n      mstore\n      0x20\n      add\n      swap1\n      dup2\n      mstore\n      0x20\n      add\n      0x00\n      keccak256\n        /* \"final project/GeneralApiMarketplaceToken.sol\":5044:5085  userUsages[msg.sender].subscriptionExpiry */\n      0x01\n      add\n        /* \"final project/GeneralApiMarketplaceToken.sol\":5044:5093  userUsages[msg.sender].subscriptionExpiry[_apiId] */\n      0x00\n        /* \"final project/GeneralApiMarketplaceToken.sol\":5086:5092  _apiId */\n      dup6\n        /* \"final project/GeneralApiMarketplaceToken.sol\":5044:5093  userUsages[msg.sender].subscriptionExpiry[_apiId] */\n      dup2\n      mstore\n      0x20\n      add\n      swap1\n      dup2\n      mstore\n      0x20\n      add\n      0x00\n      keccak256\n        /* \"final project/GeneralApiMarketplaceToken.sol\":5044:5138  userUsages[msg.sender].subscriptionExpiry[_apiId] = block.timestamp + api.subscriptionDuration */\n      dup2\n      swap1\n      sstore\n      pop\n        /* \"final project/GeneralApiMarketplaceToken.sol\":5178:5187  totalCost */\n      dup1\n        /* \"final project/GeneralApiMarketplaceToken.sol\":5144:5160  providerBalances */\n      0x04\n        /* \"final project/GeneralApiMarketplaceToken.sol\":5144:5174  providerBalances[api.provider] */\n      0x00\n        /* \"final project/GeneralApiMarketplaceToken.sol\":5161:5164  api */\n      dup5\n        /* \"final project/GeneralApiMarketplaceToken.sol\":5161:5173  api.provider */\n      0x00\n      add\n      0x00\n      swap1\n      sload\n      swap1\n      0x0100\n      exp\n      swap1\n      div\n      0xffffffffffffffffffffffffffffffffffffffff\n      and\n        /* \"final project/GeneralApiMarketplaceToken.sol\":5144:5174  providerBalances[api.provider] */\n      0xffffffffffffffffffffffffffffffffffffffff\n      and\n      0xffffffffffffffffffffffffffffffffffffffff\n      and\n      dup2\n      mstore\n      0x20\n      add\n      swap1\n      dup2\n      mstore\n      0x20\n      add\n      0x00\n      keccak256\n      0x00\n        /* \"final project/GeneralApiMarketplaceToken.sol\":5144:5187  providerBalances[api.provider] += totalCost */\n      dup3\n      dup3\n      sload\n      tag_186\n      swap2\n      swap1\n      tag_144\n      jump\t// in\n    tag_186:\n      swap3\n      pop\n      pop\n      dup2\n      swap1\n      sstore\n      pop\n        /* \"final project/GeneralApiMarketplaceToken.sol\":5233:5239  _apiId */\n      dup3\n        /* \"final project/GeneralApiMarketplaceToken.sol\":5221:5231  msg.sender */\n      caller\n        /* \"final project/GeneralApiMarketplaceToken.sol\":5199:5266  SubscriptionPurchased(msg.sender, _apiId, api.subscriptionDuration) */\n      0xffffffffffffffffffffffffffffffffffffffff\n      and\n      0x6d458fa94cc5b30d7877bed127c2029f98bc0cbc4634dc7789b6bc804fbdae03\n        /* \"final project/GeneralApiMarketplaceToken.sol\":5241:5244  api */\n      dup5\n        /* \"final project/GeneralApiMarketplaceToken.sol\":5241:5265  api.subscriptionDuration */\n      0x04\n      add\n      sload\n        /* \"final project/GeneralApiMarketplaceToken.sol\":5199:5266  SubscriptionPurchased(msg.sender, _apiId, api.subscriptionDuration) */\n      mload(0x40)\n      tag_187\n      swap2\n      swap1\n      tag_35\n      jump\t// in\n    tag_187:\n      mload(0x40)\n      dup1\n      swap2\n      sub\n      swap1\n      log3\n        /* \"final project/GeneralApiMarketplaceToken.sol\":4746:5269  {... */\n      pop\n      pop\n        /* \"final project/GeneralApiMarketplaceToken.sol\":4681:5269  function approveAndPurchaseSubscription(uint256 _apiId) external {... */\n      pop\n      jump\t// out\n        /* \"@openzeppelin/contracts/access/AccessControl.sol\":2187:2236  bytes32 public constant DEFAULT_ADMIN_ROLE = 0x00 */\n    tag_88:\n        /* \"@openzeppelin/contracts/access/AccessControl.sol\":2232:2236  0x00 */\n      0x00\n        /* \"@openzeppelin/contracts/access/AccessControl.sol\":2187:2236  bytes32 public constant DEFAULT_ADMIN_ROLE = 0x00 */\n      dup1\n      shl\n      dup2\n      jump\t// out\n        /* \"final project/GeneralApiMarketplaceToken.sol\":1336:1371  mapping(uint256 => API) public apis */\n    tag_92:\n      mstore(0x20, 0x05)\n      dup1\n      0x00\n      mstore\n      keccak256(0x00, 0x40)\n      0x00\n      swap2\n      pop\n      swap1\n      pop\n      dup1\n      0x00\n      add\n      0x00\n      swap1\n      sload\n      swap1\n      0x0100\n      exp\n      swap1\n      div\n      0xffffffffffffffffffffffffffffffffffffffff\n      and\n      swap1\n      dup1\n      0x01\n      add\n      dup1\n      sload\n      tag_188\n      swap1\n      tag_189\n      jump\t// in\n    tag_188:\n      dup1\n      0x1f\n      add\n      0x20\n      dup1\n      swap2\n      div\n      mul\n      0x20\n      add\n      mload(0x40)\n      swap1\n      dup2\n      add\n      0x40\n      mstore\n      dup1\n      swap3\n      swap2\n      swap1\n      dup2\n      dup2\n      mstore\n      0x20\n      add\n      dup3\n      dup1\n      sload\n      tag_190\n      swap1\n      tag_189\n      jump\t// in\n    tag_190:\n      dup1\n      iszero\n      tag_191\n      jumpi\n      dup1\n      0x1f\n      lt\n      tag_192\n      jumpi\n      0x0100\n      dup1\n      dup4\n      sload\n      div\n      mul\n      dup4\n      mstore\n      swap2\n      0x20\n      add\n      swap2\n      jump(tag_191)\n    tag_192:\n      dup3\n      add\n      swap2\n      swap1\n      0x00\n      mstore\n      keccak256(0x00, 0x20)\n      swap1\n    tag_193:\n      dup2\n      sload\n      dup2\n      mstore\n      swap1\n      0x01\n      add\n      swap1\n      0x20\n      add\n      dup1\n      dup4\n      gt\n      tag_193\n      jumpi\n      dup3\n      swap1\n      sub\n      0x1f\n      and\n      dup3\n      add\n      swap2\n    tag_191:\n      pop\n      pop\n      pop\n      pop\n      pop\n      swap1\n      dup1\n      0x02\n      add\n      sload\n      swap1\n      dup1\n      0x03\n      add\n      sload\n      swap1\n      dup1\n      0x04\n      add\n      sload\n      swap1\n      dup1\n      0x05\n      add\n      sload\n      swap1\n      dup1\n      0x06\n      add\n      0x00\n      swap1\n      sload\n      swap1\n      0x0100\n      exp\n      swap1\n      div\n      0xff\n      and\n      swap1\n      pop\n      dup8\n      jump\t// out\n        /* \"final project/GeneralApiMarketplaceToken.sol\":5718:6032  function withdrawEarnings() external nonReentrant {... */\n    tag_96:\n        /* \"@openzeppelin/contracts/security/ReentrancyGuard.sol\":2261:2282  _nonReentrantBefore() */\n      tag_195\n        /* \"@openzeppelin/contracts/security/ReentrancyGuard.sol\":2261:2280  _nonReentrantBefore */\n      tag_196\n        /* \"@openzeppelin/contracts/security/ReentrancyGuard.sol\":2261:2282  _nonReentrantBefore() */\n      jump\t// in\n    tag_195:\n        /* \"final project/GeneralApiMarketplaceToken.sol\":5778:5793  uint256 balance */\n      0x00\n        /* \"final project/GeneralApiMarketplaceToken.sol\":5796:5812  providerBalances */\n      0x04\n        /* \"final project/GeneralApiMarketplaceToken.sol\":5796:5824  providerBalances[msg.sender] */\n      0x00\n        /* \"final project/GeneralApiMarketplaceToken.sol\":5813:5823  msg.sender */\n      caller\n        /* \"final project/GeneralApiMarketplaceToken.sol\":5796:5824  providerBalances[msg.sender] */\n      0xffffffffffffffffffffffffffffffffffffffff\n      and\n      0xffffffffffffffffffffffffffffffffffffffff\n      and\n      dup2\n      mstore\n      0x20\n      add\n      swap1\n      dup2\n      mstore\n      0x20\n      add\n      0x00\n      keccak256\n      sload\n        /* \"final project/GeneralApiMarketplaceToken.sol\":5778:5824  uint256 balance = providerBalances[msg.sender] */\n      swap1\n      pop\n        /* \"final project/GeneralApiMarketplaceToken.sol\":5852:5853  0 */\n      0x00\n        /* \"final project/GeneralApiMarketplaceToken.sol\":5842:5849  balance */\n      dup2\n        /* \"final project/GeneralApiMarketplaceToken.sol\":5842:5853  balance > 0 */\n      gt\n        /* \"final project/GeneralApiMarketplaceToken.sol\":5834:5881  require(balance > 0, \"No earnings to withdraw\") */\n      tag_198\n      jumpi\n      mload(0x40)\n      0x08c379a000000000000000000000000000000000000000000000000000000000\n      dup2\n      mstore\n      0x04\n      add\n      tag_199\n      swap1\n      tag_200\n      jump\t// in\n    tag_199:\n      mload(0x40)\n      dup1\n      swap2\n      sub\n      swap1\n      revert\n    tag_198:\n        /* \"final project/GeneralApiMarketplaceToken.sol\":5923:5924  0 */\n      0x00\n        /* \"final project/GeneralApiMarketplaceToken.sol\":5892:5908  providerBalances */\n      0x04\n        /* \"final project/GeneralApiMarketplaceToken.sol\":5892:5920  providerBalances[msg.sender] */\n      0x00\n        /* \"final project/GeneralApiMarketplaceToken.sol\":5909:5919  msg.sender */\n      caller\n        /* \"final project/GeneralApiMarketplaceToken.sol\":5892:5920  providerBalances[msg.sender] */\n      0xffffffffffffffffffffffffffffffffffffffff\n      and\n      0xffffffffffffffffffffffffffffffffffffffff\n      and\n      dup2\n      mstore\n      0x20\n      add\n      swap1\n      dup2\n      mstore\n      0x20\n      add\n      0x00\n      keccak256\n        /* \"final project/GeneralApiMarketplaceToken.sol\":5892:5924  providerBalances[msg.sender] = 0 */\n      dup2\n      swap1\n      sstore\n      pop\n        /* \"final project/GeneralApiMarketplaceToken.sol\":5934:5973  token.safeTransfer(msg.sender, balance) */\n      tag_201\n        /* \"final project/GeneralApiMarketplaceToken.sol\":5953:5963  msg.sender */\n      caller\n        /* \"final project/GeneralApiMarketplaceToken.sol\":5965:5972  balance */\n      dup3\n        /* \"final project/GeneralApiMarketplaceToken.sol\":5934:5939  token */\n      immutable(\"0x208ad8d9d4ca969ed7f17809392789f61ed5b8bb6f6790375ce7d972071a1fbe\")\n        /* \"final project/GeneralApiMarketplaceToken.sol\":5934:5952  token.safeTransfer */\n      0xffffffffffffffffffffffffffffffffffffffff\n      and\n      tag_202\n      swap1\n        /* \"final project/GeneralApiMarketplaceToken.sol\":5934:5973  token.safeTransfer(msg.sender, balance) */\n      swap3\n      swap2\n      swap1\n      0xffffffff\n      and\n      jump\t// in\n    tag_201:\n        /* \"final project/GeneralApiMarketplaceToken.sol\":6005:6015  msg.sender */\n      caller\n        /* \"final project/GeneralApiMarketplaceToken.sol\":5989:6025  TokensWithdrawn(msg.sender, balance) */\n      0xffffffffffffffffffffffffffffffffffffffff\n      and\n      0x6352c5382c4a4578e712449ca65e83cdb392d045dfcf1cad9615189db2da244b\n        /* \"final project/GeneralApiMarketplaceToken.sol\":6017:6024  balance */\n      dup3\n        /* \"final project/GeneralApiMarketplaceToken.sol\":5989:6025  TokensWithdrawn(msg.sender, balance) */\n      mload(0x40)\n      tag_203\n      swap2\n      swap1\n      tag_35\n      jump\t// in\n    tag_203:\n      mload(0x40)\n      dup1\n      swap2\n      sub\n      swap1\n      log2\n        /* \"final project/GeneralApiMarketplaceToken.sol\":5768:6032  {... */\n      pop\n        /* \"@openzeppelin/contracts/security/ReentrancyGuard.sol\":2303:2323  _nonReentrantAfter() */\n      tag_204\n        /* \"@openzeppelin/contracts/security/ReentrancyGuard.sol\":2303:2321  _nonReentrantAfter */\n      tag_205\n        /* \"@openzeppelin/contracts/security/ReentrancyGuard.sol\":2303:2323  _nonReentrantAfter() */\n      jump\t// in\n    tag_204:\n        /* \"final project/GeneralApiMarketplaceToken.sol\":5718:6032  function withdrawEarnings() external nonReentrant {... */\n      jump\t// out\n        /* \"@openzeppelin/contracts/access/AccessControl.sol\":4642:4780  function revokeRole(bytes32 role, address account) public virtual onlyRole(getRoleAdmin(role)) {... */\n    tag_99:\n        /* \"@openzeppelin/contracts/access/AccessControl.sol\":4717:4735  getRoleAdmin(role) */\n      tag_206\n        /* \"@openzeppelin/contracts/access/AccessControl.sol\":4730:4734  role */\n      dup3\n        /* \"@openzeppelin/contracts/access/AccessControl.sol\":4717:4729  getRoleAdmin */\n      tag_43\n        /* \"@openzeppelin/contracts/access/AccessControl.sol\":4717:4735  getRoleAdmin(role) */\n      jump\t// in\n    tag_206:\n        /* \"@openzeppelin/contracts/access/AccessControl.sol\":2464:2480  _checkRole(role) */\n      tag_208\n        /* \"@openzeppelin/contracts/access/AccessControl.sol\":2475:2479  role */\n      dup2\n        /* \"@openzeppelin/contracts/access/AccessControl.sol\":2464:2474  _checkRole */\n      tag_151\n        /* \"@openzeppelin/contracts/access/AccessControl.sol\":2464:2480  _checkRole(role) */\n      jump\t// in\n    tag_208:\n        /* \"@openzeppelin/contracts/access/AccessControl.sol\":4747:4773  _revokeRole(role, account) */\n      tag_210\n        /* \"@openzeppelin/contracts/access/AccessControl.sol\":4759:4763  role */\n      dup4\n        /* \"@openzeppelin/contracts/access/AccessControl.sol\":4765:4772  account */\n      dup4\n        /* \"@openzeppelin/contracts/access/AccessControl.sol\":4747:4758  _revokeRole */\n      tag_160\n        /* \"@openzeppelin/contracts/access/AccessControl.sol\":4747:4773  _revokeRole(role, account) */\n      jump\t// in\n    tag_210:\n      pop\n        /* \"@openzeppelin/contracts/access/AccessControl.sol\":4642:4780  function revokeRole(bytes32 role, address account) public virtual onlyRole(getRoleAdmin(role)) {... */\n      pop\n      pop\n      pop\n      jump\t// out\n        /* \"final project/GeneralApiMarketplaceToken.sol\":644:673  IERC20 public immutable token */\n    tag_101:\n      immutable(\"0x208ad8d9d4ca969ed7f17809392789f61ed5b8bb6f6790375ce7d972071a1fbe\")\n      dup2\n      jump\t// out\n        /* \"@openzeppelin/contracts/utils/introspection/ERC165.sol\":763:909  function supportsInterface(bytes4 interfaceId) public view virtual returns (bool) {... */\n    tag_107:\n        /* \"@openzeppelin/contracts/utils/introspection/ERC165.sol\":839:843  bool */\n      0x00\n        /* \"@openzeppelin/contracts/utils/introspection/ERC165.sol\":877:902  type(IERC165).interfaceId */\n      0x01ffc9a700000000000000000000000000000000000000000000000000000000\n        /* \"@openzeppelin/contracts/utils/introspection/ERC165.sol\":862:902  interfaceId == type(IERC165).interfaceId */\n      not(0xffffffffffffffffffffffffffffffffffffffffffffffffffffffff)\n      and\n        /* \"@openzeppelin/contracts/utils/introspection/ERC165.sol\":862:873  interfaceId */\n      dup3\n        /* \"@openzeppelin/contracts/utils/introspection/ERC165.sol\":862:902  interfaceId == type(IERC165).interfaceId */\n      not(0xffffffffffffffffffffffffffffffffffffffffffffffffffffffff)\n      and\n      eq\n        /* \"@openzeppelin/contracts/utils/introspection/ERC165.sol\":855:902  return interfaceId == type(IERC165).interfaceId */\n      swap1\n      pop\n        /* \"@openzeppelin/contracts/utils/introspection/ERC165.sol\":763:909  function supportsInterface(bytes4 interfaceId) public view virtual returns (bool) {... */\n      swap2\n      swap1\n      pop\n      jump\t// out\n        /* \"@openzeppelin/contracts/token/ERC20/utils/SafeERC20.sol\":1618:1806  function safeTransferFrom(IERC20 token, address from, address to, uint256 value) internal {... */\n    tag_142:\n        /* \"@openzeppelin/contracts/token/ERC20/utils/SafeERC20.sol\":1718:1799  _callOptionalReturn(token, abi.encodeCall(token.transferFrom, (from, to, value))) */\n      tag_213\n        /* \"@openzeppelin/contracts/token/ERC20/utils/SafeERC20.sol\":1738:1743  token */\n      dup5\n        /* \"@openzeppelin/contracts/token/ERC20/utils/SafeERC20.sol\":1760:1765  token */\n      dup6\n        /* \"@openzeppelin/contracts/token/ERC20/utils/SafeERC20.sol\":1760:1778  token.transferFrom */\n      0xffffffffffffffffffffffffffffffffffffffff\n      and\n      0x23b872dd\n        /* \"@openzeppelin/contracts/token/ERC20/utils/SafeERC20.sol\":1781:1785  from */\n      dup7\n        /* \"@openzeppelin/contracts/token/ERC20/utils/SafeERC20.sol\":1787:1789  to */\n      dup7\n        /* \"@openzeppelin/contracts/token/ERC20/utils/SafeERC20.sol\":1791:1796  value */\n      dup7\n        /* \"@openzeppelin/contracts/token/ERC20/utils/SafeERC20.sol\":1745:1798  abi.encodeCall(token.transferFrom, (from, to, value)) */\n      add(0x24, mload(0x40))\n      tag_214\n      swap4\n      swap3\n      swap2\n      swap1\n      tag_215\n      jump\t// in\n    tag_214:\n      mload(0x40)\n      0x20\n      dup2\n      dup4\n      sub\n      sub\n      dup2\n      mstore\n      swap1\n      0x40\n      mstore\n      swap2\n      pop\n      0xe0\n      shl\n      0x20\n      dup3\n      add\n      dup1\n      mload\n      0xffffffffffffffffffffffffffffffffffffffffffffffffffffffff\n      dup4\n      dup2\n      dup4\n      and\n      or\n      dup4\n      mstore\n      pop\n      pop\n      pop\n      pop\n        /* \"@openzeppelin/contracts/token/ERC20/utils/SafeERC20.sol\":1718:1737  _callOptionalReturn */\n      tag_216\n        /* \"@openzeppelin/contracts/token/ERC20/utils/SafeERC20.sol\":1718:1799  _callOptionalReturn(token, abi.encodeCall(token.transferFrom, (from, to, value))) */\n      jump\t// in\n    tag_213:\n        /* \"@openzeppelin/contracts/token/ERC20/utils/SafeERC20.sol\":1618:1806  function safeTransferFrom(IERC20 token, address from, address to, uint256 value) internal {... */\n      pop\n      pop\n      pop\n      pop\n      jump\t// out\n        /* \"@openzeppelin/contracts/access/AccessControl.sol\":3199:3302  function _checkRole(bytes32 role) internal view virtual {... */\n    tag_151:\n        /* \"@openzeppelin/contracts/access/AccessControl.sol\":3265:3295  _checkRole(role, _msgSender()) */\n      tag_218\n        /* \"@openzeppelin/contracts/access/AccessControl.sol\":3276:3280  role */\n      dup2\n        /* \"@openzeppelin/contracts/access/AccessControl.sol\":3282:3294  _msgSender() */\n      tag_219\n        /* \"@openzeppelin/contracts/access/AccessControl.sol\":3282:3292  _msgSender */\n      tag_157\n        /* \"@openzeppelin/contracts/access/AccessControl.sol\":3282:3294  _msgSender() */\n      jump\t// in\n    tag_219:\n        /* \"@openzeppelin/contracts/access/AccessControl.sol\":3265:3275  _checkRole */\n      tag_220\n        /* \"@openzeppelin/contracts/access/AccessControl.sol\":3265:3295  _checkRole(role, _msgSender()) */\n      jump\t// in\n    tag_218:\n        /* \"@openzeppelin/contracts/access/AccessControl.sol\":3199:3302  function _checkRole(bytes32 role) internal view virtual {... */\n      pop\n      jump\t// out\n        /* \"@openzeppelin/contracts/access/AccessControl.sol\":6179:6495  function _grantRole(bytes32 role, address account) internal virtual returns (bool) {... */\n    tag_154:\n        /* \"@openzeppelin/contracts/access/AccessControl.sol\":6256:6260  bool */\n      0x00\n        /* \"@openzeppelin/contracts/access/AccessControl.sol\":6277:6299  hasRole(role, account) */\n      tag_222\n        /* \"@openzeppelin/contracts/access/AccessControl.sol\":6285:6289  role */\n      dup4\n        /* \"@openzeppelin/contracts/access/AccessControl.sol\":6291:6298  account */\n      dup4\n        /* \"@openzeppelin/contracts/access/AccessControl.sol\":6277:6284  hasRole */\n      tag_82\n        /* \"@openzeppelin/contracts/access/AccessControl.sol\":6277:6299  hasRole(role, account) */\n      jump\t// in\n    tag_222:\n        /* \"@openzeppelin/contracts/access/AccessControl.sol\":6272:6489  if (!hasRole(role, account)) {... */\n      tag_223\n      jumpi\n        /* \"@openzeppelin/contracts/access/AccessControl.sol\":6347:6351  true */\n      0x01\n        /* \"@openzeppelin/contracts/access/AccessControl.sol\":6315:6321  _roles */\n      dup1\n        /* \"@openzeppelin/contracts/access/AccessControl.sol\":6315:6327  _roles[role] */\n      0x00\n        /* \"@openzeppelin/contracts/access/AccessControl.sol\":6322:6326  role */\n      dup6\n        /* \"@openzeppelin/contracts/access/AccessControl.sol\":6315:6327  _roles[role] */\n      dup2\n      mstore\n      0x20\n      add\n      swap1\n      dup2\n      mstore\n      0x20\n      add\n      0x00\n      keccak256\n        /* \"@openzeppelin/contracts/access/AccessControl.sol\":6315:6335  _roles[role].hasRole */\n      0x00\n      add\n        /* \"@openzeppelin/contracts/access/AccessControl.sol\":6315:6344  _roles[role].hasRole[account] */\n      0x00\n        /* \"@openzeppelin/contracts/access/AccessControl.sol\":6336:6343  account */\n      dup5\n        /* \"@openzeppelin/contracts/access/AccessControl.sol\":6315:6344  _roles[role].hasRole[account] */\n      0xffffffffffffffffffffffffffffffffffffffff\n      and\n      0xffffffffffffffffffffffffffffffffffffffff\n      and\n      dup2\n      mstore\n      0x20\n      add\n      swap1\n      dup2\n      mstore\n      0x20\n      add\n      0x00\n      keccak256\n      0x00\n        /* \"@openzeppelin/contracts/access/AccessControl.sol\":6315:6351  _roles[role].hasRole[account] = true */\n      0x0100\n      exp\n      dup2\n      sload\n      dup2\n      0xff\n      mul\n      not\n      and\n      swap1\n      dup4\n      iszero\n      iszero\n      mul\n      or\n      swap1\n      sstore\n      pop\n        /* \"@openzeppelin/contracts/access/AccessControl.sol\":6397:6409  _msgSender() */\n      tag_224\n        /* \"@openzeppelin/contracts/access/AccessControl.sol\":6397:6407  _msgSender */\n      tag_157\n        /* \"@openzeppelin/contracts/access/AccessControl.sol\":6397:6409  _msgSender() */\n      jump\t// in\n    tag_224:\n        /* \"@openzeppelin/contracts/access/AccessControl.sol\":6370:6410  RoleGranted(role, account, _msgSender()) */\n      0xffffffffffffffffffffffffffffffffffffffff\n      and\n        /* \"@openzeppelin/contracts/access/AccessControl.sol\":6388:6395  account */\n      dup3\n        /* \"@openzeppelin/contracts/access/AccessControl.sol\":6370:6410  RoleGranted(role, account, _msgSender()) */\n      0xffffffffffffffffffffffffffffffffffffffff\n      and\n        /* \"@openzeppelin/contracts/access/AccessControl.sol\":6382:6386  role */\n      dup5\n        /* \"@openzeppelin/contracts/access/AccessControl.sol\":6370:6410  RoleGranted(role, account, _msgSender()) */\n      0x2f8788117e7eff1d82e926ec794901d17c78024a50270940304540a733656f0d\n      mload(0x40)\n      mload(0x40)\n      dup1\n      swap2\n      sub\n      swap1\n      log4\n        /* \"@openzeppelin/contracts/access/AccessControl.sol\":6431:6435  true */\n      0x01\n        /* \"@openzeppelin/contracts/access/AccessControl.sol\":6424:6435  return true */\n      swap1\n      pop\n      jump(tag_221)\n        /* \"@openzeppelin/contracts/access/AccessControl.sol\":6272:6489  if (!hasRole(role, account)) {... */\n    tag_223:\n        /* \"@openzeppelin/contracts/access/AccessControl.sol\":6473:6478  false */\n      0x00\n        /* \"@openzeppelin/contracts/access/AccessControl.sol\":6466:6478  return false */\n      swap1\n      pop\n        /* \"@openzeppelin/contracts/access/AccessControl.sol\":6179:6495  function _grantRole(bytes32 role, address account) internal virtual returns (bool) {... */\n    tag_221:\n      swap3\n      swap2\n      pop\n      pop\n      jump\t// out\n        /* \"@openzeppelin/contracts/utils/Context.sol\":656:752  function _msgSender() internal view virtual returns (address) {... */\n    tag_157:\n        /* \"@openzeppelin/contracts/utils/Context.sol\":709:716  address */\n      0x00\n        /* \"@openzeppelin/contracts/utils/Context.sol\":735:745  msg.sender */\n      caller\n        /* \"@openzeppelin/contracts/utils/Context.sol\":728:745  return msg.sender */\n      swap1\n      pop\n        /* \"@openzeppelin/contracts/utils/Context.sol\":656:752  function _msgSender() internal view virtual returns (address) {... */\n      swap1\n      jump\t// out\n        /* \"@openzeppelin/contracts/access/AccessControl.sol\":6730:7047  function _revokeRole(bytes32 role, address account) internal virtual returns (bool) {... */\n    tag_160:\n        /* \"@openzeppelin/contracts/access/AccessControl.sol\":6808:6812  bool */\n      0x00\n        /* \"@openzeppelin/contracts/access/AccessControl.sol\":6828:6850  hasRole(role, account) */\n      tag_228\n        /* \"@openzeppelin/contracts/access/AccessControl.sol\":6836:6840  role */\n      dup4\n        /* \"@openzeppelin/contracts/access/AccessControl.sol\":6842:6849  account */\n      dup4\n        /* \"@openzeppelin/contracts/access/AccessControl.sol\":6828:6835  hasRole */\n      tag_82\n        /* \"@openzeppelin/contracts/access/AccessControl.sol\":6828:6850  hasRole(role, account) */\n      jump\t// in\n    tag_228:\n        /* \"@openzeppelin/contracts/access/AccessControl.sol\":6824:7041  if (hasRole(role, account)) {... */\n      iszero\n      tag_229\n      jumpi\n        /* \"@openzeppelin/contracts/access/AccessControl.sol\":6898:6903  false */\n      0x00\n        /* \"@openzeppelin/contracts/access/AccessControl.sol\":6866:6872  _roles */\n      0x01\n        /* \"@openzeppelin/contracts/access/AccessControl.sol\":6866:6878  _roles[role] */\n      0x00\n        /* \"@openzeppelin/contracts/access/AccessControl.sol\":6873:6877  role */\n      dup6\n        /* \"@openzeppelin/contracts/access/AccessControl.sol\":6866:6878  _roles[role] */\n      dup2\n      mstore\n      0x20\n      add\n      swap1\n      dup2\n      mstore\n      0x20\n      add\n      0x00\n      keccak256\n        /* \"@openzeppelin/contracts/access/AccessControl.sol\":6866:6886  _roles[role].hasRole */\n      0x00\n      add\n        /* \"@openzeppelin/contracts/access/AccessControl.sol\":6866:6895  _roles[role].hasRole[account] */\n      0x00\n        /* \"@openzeppelin/contracts/access/AccessControl.sol\":6887:6894  account */\n      dup5\n        /* \"@openzeppelin/contracts/access/AccessControl.sol\":6866:6895  _roles[role].hasRole[account] */\n      0xffffffffffffffffffffffffffffffffffffffff\n      and\n      0xffffffffffffffffffffffffffffffffffffffff\n      and\n      dup2\n      mstore\n      0x20\n      add\n      swap1\n      dup2\n      mstore\n      0x20\n      add\n      0x00\n      keccak256\n      0x00\n        /* \"@openzeppelin/contracts/access/AccessControl.sol\":6866:6903  _roles[role].hasRole[account] = false */\n      0x0100\n      exp\n      dup2\n      sload\n      dup2\n      0xff\n      mul\n      not\n      and\n      swap1\n      dup4\n      iszero\n      iszero\n      mul\n      or\n      swap1\n      sstore\n      pop\n        /* \"@openzeppelin/contracts/access/AccessControl.sol\":6949:6961  _msgSender() */\n      tag_230\n        /* \"@openzeppelin/contracts/access/AccessControl.sol\":6949:6959  _msgSender */\n      tag_157\n        /* \"@openzeppelin/contracts/access/AccessControl.sol\":6949:6961  _msgSender() */\n      jump\t// in\n    tag_230:\n        /* \"@openzeppelin/contracts/access/AccessControl.sol\":6922:6962  RoleRevoked(role, account, _msgSender()) */\n      0xffffffffffffffffffffffffffffffffffffffff\n      and\n        /* \"@openzeppelin/contracts/access/AccessControl.sol\":6940:6947  account */\n      dup3\n        /* \"@openzeppelin/contracts/access/AccessControl.sol\":6922:6962  RoleRevoked(role, account, _msgSender()) */\n      0xffffffffffffffffffffffffffffffffffffffff\n      and\n        /* \"@openzeppelin/contracts/access/AccessControl.sol\":6934:6938  role */\n      dup5\n        /* \"@openzeppelin/contracts/access/AccessControl.sol\":6922:6962  RoleRevoked(role, account, _msgSender()) */\n      0xf6391f5c32d9c69d2a47ea670b442974b53935d1edc7fd64eb21e047a839171b\n      mload(0x40)\n      mload(0x40)\n      dup1\n      swap2\n      sub\n      swap1\n      log4\n        /* \"@openzeppelin/contracts/access/AccessControl.sol\":6983:6987  true */\n      0x01\n        /* \"@openzeppelin/contracts/access/AccessControl.sol\":6976:6987  return true */\n      swap1\n      pop\n      jump(tag_227)\n        /* \"@openzeppelin/contracts/access/AccessControl.sol\":6824:7041  if (hasRole(role, account)) {... */\n    tag_229:\n        /* \"@openzeppelin/contracts/access/AccessControl.sol\":7025:7030  false */\n      0x00\n        /* \"@openzeppelin/contracts/access/AccessControl.sol\":7018:7030  return false */\n      swap1\n      pop\n        /* \"@openzeppelin/contracts/access/AccessControl.sol\":6730:7047  function _revokeRole(bytes32 role, address account) internal virtual returns (bool) {... */\n    tag_227:\n      swap3\n      swap2\n      pop\n      pop\n      jump\t// out\n        /* \"@openzeppelin/contracts/security/ReentrancyGuard.sol\":2336:2623  function _nonReentrantBefore() private {... */\n    tag_196:\n        /* \"@openzeppelin/contracts/security/ReentrancyGuard.sol\":1759:1760  2 */\n      0x02\n        /* \"@openzeppelin/contracts/security/ReentrancyGuard.sol\":2468:2475  _status */\n      sload(0x00)\n        /* \"@openzeppelin/contracts/security/ReentrancyGuard.sol\":2468:2487  _status != _ENTERED */\n      sub\n        /* \"@openzeppelin/contracts/security/ReentrancyGuard.sol\":2460:2523  require(_status != _ENTERED, \"ReentrancyGuard: reentrant call\") */\n      tag_233\n      jumpi\n      mload(0x40)\n      0x08c379a000000000000000000000000000000000000000000000000000000000\n      dup2\n      mstore\n      0x04\n      add\n      tag_234\n      swap1\n      tag_235\n      jump\t// in\n    tag_234:\n      mload(0x40)\n      dup1\n      swap2\n      sub\n      swap1\n      revert\n    tag_233:\n        /* \"@openzeppelin/contracts/security/ReentrancyGuard.sol\":1759:1760  2 */\n      0x02\n        /* \"@openzeppelin/contracts/security/ReentrancyGuard.sol\":2598:2605  _status */\n      0x00\n        /* \"@openzeppelin/contracts/security/ReentrancyGuard.sol\":2598:2616  _status = _ENTERED */\n      dup2\n      swap1\n      sstore\n      pop\n        /* \"@openzeppelin/contracts/security/ReentrancyGuard.sol\":2336:2623  function _nonReentrantBefore() private {... */\n      jump\t// out\n        /* \"@openzeppelin/contracts/token/ERC20/utils/SafeERC20.sol\":1219:1379  function safeTransfer(IERC20 token, address to, uint256 value) internal {... */\n    tag_202:\n        /* \"@openzeppelin/contracts/token/ERC20/utils/SafeERC20.sol\":1301:1372  _callOptionalReturn(token, abi.encodeCall(token.transfer, (to, value))) */\n      tag_237\n        /* \"@openzeppelin/contracts/token/ERC20/utils/SafeERC20.sol\":1321:1326  token */\n      dup4\n        /* \"@openzeppelin/contracts/token/ERC20/utils/SafeERC20.sol\":1343:1348  token */\n      dup5\n        /* \"@openzeppelin/contracts/token/ERC20/utils/SafeERC20.sol\":1343:1357  token.transfer */\n      0xffffffffffffffffffffffffffffffffffffffff\n      and\n      0xa9059cbb\n        /* \"@openzeppelin/contracts/token/ERC20/utils/SafeERC20.sol\":1360:1362  to */\n      dup6\n        /* \"@openzeppelin/contracts/token/ERC20/utils/SafeERC20.sol\":1364:1369  value */\n      dup6\n        /* \"@openzeppelin/contracts/token/ERC20/utils/SafeERC20.sol\":1328:1371  abi.encodeCall(token.transfer, (to, value)) */\n      add(0x24, mload(0x40))\n      tag_238\n      swap3\n      swap2\n      swap1\n      tag_239\n      jump\t// in\n    tag_238:\n      mload(0x40)\n      0x20\n      dup2\n      dup4\n      sub\n      sub\n      dup2\n      mstore\n      swap1\n      0x40\n      mstore\n      swap2\n      pop\n      0xe0\n      shl\n      0x20\n      dup3\n      add\n      dup1\n      mload\n      0xffffffffffffffffffffffffffffffffffffffffffffffffffffffff\n      dup4\n      dup2\n      dup4\n      and\n      or\n      dup4\n      mstore\n      pop\n      pop\n      pop\n      pop\n        /* \"@openzeppelin/contracts/token/ERC20/utils/SafeERC20.sol\":1301:1320  _callOptionalReturn */\n      tag_216\n        /* \"@openzeppelin/contracts/token/ERC20/utils/SafeERC20.sol\":1301:1372  _callOptionalReturn(token, abi.encodeCall(token.transfer, (to, value))) */\n      jump\t// in\n    tag_237:\n        /* \"@openzeppelin/contracts/token/ERC20/utils/SafeERC20.sol\":1219:1379  function safeTransfer(IERC20 token, address to, uint256 value) internal {... */\n      pop\n      pop\n      pop\n      jump\t// out\n        /* \"@openzeppelin/contracts/security/ReentrancyGuard.sol\":2629:2838  function _nonReentrantAfter() private {... */\n    tag_205:\n        /* \"@openzeppelin/contracts/security/ReentrancyGuard.sol\":1716:1717  1 */\n      0x01\n        /* \"@openzeppelin/contracts/security/ReentrancyGuard.sol\":2809:2816  _status */\n      0x00\n        /* \"@openzeppelin/contracts/security/ReentrancyGuard.sol\":2809:2831  _status = _NOT_ENTERED */\n      dup2\n      swap1\n      sstore\n      pop\n        /* \"@openzeppelin/contracts/security/ReentrancyGuard.sol\":2629:2838  function _nonReentrantAfter() private {... */\n      jump\t// out\n        /* \"@openzeppelin/contracts/token/ERC20/utils/SafeERC20.sol\":7686:8406  function _callOptionalReturn(IERC20 token, bytes memory data) private {... */\n    tag_216:\n        /* \"@openzeppelin/contracts/token/ERC20/utils/SafeERC20.sol\":7766:7784  uint256 returnSize */\n      0x00\n        /* \"@openzeppelin/contracts/token/ERC20/utils/SafeERC20.sol\":7794:7813  uint256 returnValue */\n      dup1\n        /* \"@openzeppelin/contracts/token/ERC20/utils/SafeERC20.sol\":7932:7936  0x20 */\n      0x20\n        /* \"@openzeppelin/contracts/token/ERC20/utils/SafeERC20.sol\":7929:7930  0 */\n      0x00\n        /* \"@openzeppelin/contracts/token/ERC20/utils/SafeERC20.sol\":7922:7926  data */\n      dup5\n        /* \"@openzeppelin/contracts/token/ERC20/utils/SafeERC20.sol\":7916:7927  mload(data) */\n      mload\n        /* \"@openzeppelin/contracts/token/ERC20/utils/SafeERC20.sol\":7909:7913  0x20 */\n      0x20\n        /* \"@openzeppelin/contracts/token/ERC20/utils/SafeERC20.sol\":7903:7907  data */\n      dup7\n        /* \"@openzeppelin/contracts/token/ERC20/utils/SafeERC20.sol\":7899:7914  add(data, 0x20) */\n      add\n        /* \"@openzeppelin/contracts/token/ERC20/utils/SafeERC20.sol\":7896:7897  0 */\n      0x00\n        /* \"@openzeppelin/contracts/token/ERC20/utils/SafeERC20.sol\":7889:7894  token */\n      dup9\n        /* \"@openzeppelin/contracts/token/ERC20/utils/SafeERC20.sol\":7882:7887  gas() */\n      gas\n        /* \"@openzeppelin/contracts/token/ERC20/utils/SafeERC20.sol\":7877:7937  call(gas(), token, 0, add(data, 0x20), mload(data), 0, 0x20) */\n      call\n        /* \"@openzeppelin/contracts/token/ERC20/utils/SafeERC20.sol\":7989:7996  success */\n      dup1\n        /* \"@openzeppelin/contracts/token/ERC20/utils/SafeERC20.sol\":7979:8155  if iszero(success) {... */\n      tag_242\n      jumpi\n        /* \"@openzeppelin/contracts/token/ERC20/utils/SafeERC20.sol\":8033:8037  0x40 */\n      0x40\n        /* \"@openzeppelin/contracts/token/ERC20/utils/SafeERC20.sol\":8027:8038  mload(0x40) */\n      mload\n        /* \"@openzeppelin/contracts/token/ERC20/utils/SafeERC20.sol\":8078:8094  returndatasize() */\n      returndatasize\n        /* \"@openzeppelin/contracts/token/ERC20/utils/SafeERC20.sol\":8075:8076  0 */\n      0x00\n        /* \"@openzeppelin/contracts/token/ERC20/utils/SafeERC20.sol\":8070:8073  ptr */\n      dup3\n        /* \"@openzeppelin/contracts/token/ERC20/utils/SafeERC20.sol\":8055:8095  returndatacopy(ptr, 0, returndatasize()) */\n      returndatacopy\n        /* \"@openzeppelin/contracts/token/ERC20/utils/SafeERC20.sol\":8124:8140  returndatasize() */\n      returndatasize\n        /* \"@openzeppelin/contracts/token/ERC20/utils/SafeERC20.sol\":8119:8122  ptr */\n      dup2\n        /* \"@openzeppelin/contracts/token/ERC20/utils/SafeERC20.sol\":8112:8141  revert(ptr, returndatasize()) */\n      revert\n        /* \"@openzeppelin/contracts/token/ERC20/utils/SafeERC20.sol\":7979:8155  if iszero(success) {... */\n    tag_242:\n        /* \"@openzeppelin/contracts/token/ERC20/utils/SafeERC20.sol\":8182:8198  returndatasize() */\n      returndatasize\n        /* \"@openzeppelin/contracts/token/ERC20/utils/SafeERC20.sol\":8168:8198  returnSize := returndatasize() */\n      swap3\n      pop\n        /* \"@openzeppelin/contracts/token/ERC20/utils/SafeERC20.sol\":8232:8233  0 */\n      0x00\n        /* \"@openzeppelin/contracts/token/ERC20/utils/SafeERC20.sol\":8226:8234  mload(0) */\n      mload\n        /* \"@openzeppelin/contracts/token/ERC20/utils/SafeERC20.sol\":8211:8234  returnValue := mload(0) */\n      swap2\n      pop\n        /* \"@openzeppelin/contracts/token/ERC20/utils/SafeERC20.sol\":7848:8244  {... */\n      pop\n        /* \"@openzeppelin/contracts/token/ERC20/utils/SafeERC20.sol\":8272:8273  0 */\n      0x00\n        /* \"@openzeppelin/contracts/token/ERC20/utils/SafeERC20.sol\":8258:8268  returnSize */\n      dup3\n        /* \"@openzeppelin/contracts/token/ERC20/utils/SafeERC20.sol\":8258:8273  returnSize == 0 */\n      eq\n        /* \"@openzeppelin/contracts/token/ERC20/utils/SafeERC20.sol\":8258:8326  returnSize == 0 ? address(token).code.length == 0 : returnValue != 1 */\n      tag_243\n      jumpi\n        /* \"@openzeppelin/contracts/token/ERC20/utils/SafeERC20.sol\":8325:8326  1 */\n      0x01\n        /* \"@openzeppelin/contracts/token/ERC20/utils/SafeERC20.sol\":8310:8321  returnValue */\n      dup2\n        /* \"@openzeppelin/contracts/token/ERC20/utils/SafeERC20.sol\":8310:8326  returnValue != 1 */\n      eq\n      iszero\n        /* \"@openzeppelin/contracts/token/ERC20/utils/SafeERC20.sol\":8258:8326  returnSize == 0 ? address(token).code.length == 0 : returnValue != 1 */\n      jump(tag_244)\n    tag_243:\n        /* \"@openzeppelin/contracts/token/ERC20/utils/SafeERC20.sol\":8306:8307  0 */\n      0x00\n        /* \"@openzeppelin/contracts/token/ERC20/utils/SafeERC20.sol\":8284:8289  token */\n      dup5\n        /* \"@openzeppelin/contracts/token/ERC20/utils/SafeERC20.sol\":8276:8302  address(token).code.length */\n      0xffffffffffffffffffffffffffffffffffffffff\n      and\n      extcodesize\n        /* \"@openzeppelin/contracts/token/ERC20/utils/SafeERC20.sol\":8276:8307  address(token).code.length == 0 */\n      eq\n        /* \"@openzeppelin/contracts/token/ERC20/utils/SafeERC20.sol\":8258:8326  returnSize == 0 ? address(token).code.length == 0 : returnValue != 1 */\n    tag_244:\n        /* \"@openzeppelin/contracts/token/ERC20/utils/SafeERC20.sol\":8254:8400  if (returnSize == 0 ? address(token).code.length == 0 : returnValue != 1) {... */\n      iszero\n      tag_245\n      jumpi\n        /* \"@openzeppelin/contracts/token/ERC20/utils/SafeERC20.sol\":8382:8387  token */\n      dup4\n        /* \"@openzeppelin/contracts/token/ERC20/utils/SafeERC20.sol\":8349:8389  SafeERC20FailedOperation(address(token)) */\n      mload(0x40)\n      0x5274afe700000000000000000000000000000000000000000000000000000000\n      dup2\n      mstore\n      0x04\n      add\n      tag_246\n      swap2\n      swap1\n      tag_76\n      jump\t// in\n    tag_246:\n      mload(0x40)\n      dup1\n      swap2\n      sub\n      swap1\n      revert\n        /* \"@openzeppelin/contracts/token/ERC20/utils/SafeERC20.sol\":8254:8400  if (returnSize == 0 ? address(token).code.length == 0 : returnValue != 1) {... */\n    tag_245:\n        /* \"@openzeppelin/contracts/token/ERC20/utils/SafeERC20.sol\":7756:8406  {... */\n      pop\n      pop\n        /* \"@openzeppelin/contracts/token/ERC20/utils/SafeERC20.sol\":7686:8406  function _callOptionalReturn(IERC20 token, bytes memory data) private {... */\n      pop\n      pop\n      jump\t// out\n        /* \"@openzeppelin/contracts/access/AccessControl.sol\":3432:3629  function _checkRole(bytes32 role, address account) internal view virtual {... */\n    tag_220:\n        /* \"@openzeppelin/contracts/access/AccessControl.sol\":3520:3542  hasRole(role, account) */\n      tag_248\n        /* \"@openzeppelin/contracts/access/AccessControl.sol\":3528:3532  role */\n      dup3\n        /* \"@openzeppelin/contracts/access/AccessControl.sol\":3534:3541  account */\n      dup3\n        /* \"@openzeppelin/contracts/access/AccessControl.sol\":3520:3527  hasRole */\n      tag_82\n        /* \"@openzeppelin/contracts/access/AccessControl.sol\":3520:3542  hasRole(role, account) */\n      jump\t// in\n    tag_248:\n        /* \"@openzeppelin/contracts/access/AccessControl.sol\":3515:3623  if (!hasRole(role, account)) {... */\n      tag_249\n      jumpi\n        /* \"@openzeppelin/contracts/access/AccessControl.sol\":3598:3605  account */\n      dup1\n        /* \"@openzeppelin/contracts/access/AccessControl.sol\":3607:3611  role */\n      dup3\n        /* \"@openzeppelin/contracts/access/AccessControl.sol\":3565:3612  AccessControlUnauthorizedAccount(account, role) */\n      mload(0x40)\n      0xe2517d3f00000000000000000000000000000000000000000000000000000000\n      dup2\n      mstore\n      0x04\n      add\n      tag_250\n      swap3\n      swap2\n      swap1\n      tag_251\n      jump\t// in\n    tag_250:\n      mload(0x40)\n      dup1\n      swap2\n      sub\n      swap1\n      revert\n        /* \"@openzeppelin/contracts/access/AccessControl.sol\":3515:3623  if (!hasRole(role, account)) {... */\n    tag_249:\n        /* \"@openzeppelin/contracts/access/AccessControl.sol\":3432:3629  function _checkRole(bytes32 role, address account) internal view virtual {... */\n      pop\n      pop\n      jump\t// out\n        /* \"#utility.yul\":7:82   */\n    tag_252:\n        /* \"#utility.yul\":40:46   */\n      0x00\n        /* \"#utility.yul\":73:75   */\n      0x40\n        /* \"#utility.yul\":67:76   */\n      mload\n        /* \"#utility.yul\":57:76   */\n      swap1\n      pop\n        /* \"#utility.yul\":7:82   */\n      swap1\n      jump\t// out\n        /* \"#utility.yul\":88:205   */\n    tag_253:\n        /* \"#utility.yul\":197:198   */\n      0x00\n        /* \"#utility.yul\":194:195   */\n      dup1\n        /* \"#utility.yul\":187:199   */\n      revert\n        /* \"#utility.yul\":211:328   */\n    tag_254:\n        /* \"#utility.yul\":320:321   */\n      0x00\n        /* \"#utility.yul\":317:318   */\n      dup1\n        /* \"#utility.yul\":310:322   */\n      revert\n        /* \"#utility.yul\":334:483   */\n    tag_255:\n        /* \"#utility.yul\":370:377   */\n      0x00\n        /* \"#utility.yul\":410:476   */\n      0xffffffff00000000000000000000000000000000000000000000000000000000\n        /* \"#utility.yul\":403:408   */\n      dup3\n        /* \"#utility.yul\":399:477   */\n      and\n        /* \"#utility.yul\":388:477   */\n      swap1\n      pop\n        /* \"#utility.yul\":334:483   */\n      swap2\n      swap1\n      pop\n      jump\t// out\n        /* \"#utility.yul\":489:609   */\n    tag_256:\n        /* \"#utility.yul\":561:584   */\n      tag_333\n        /* \"#utility.yul\":578:583   */\n      dup2\n        /* \"#utility.yul\":561:584   */\n      tag_255\n      jump\t// in\n    tag_333:\n        /* \"#utility.yul\":554:559   */\n      dup2\n        /* \"#utility.yul\":551:585   */\n      eq\n        /* \"#utility.yul\":541:603   */\n      tag_334\n      jumpi\n        /* \"#utility.yul\":599:600   */\n      0x00\n        /* \"#utility.yul\":596:597   */\n      dup1\n        /* \"#utility.yul\":589:601   */\n      revert\n        /* \"#utility.yul\":541:603   */\n    tag_334:\n        /* \"#utility.yul\":489:609   */\n      pop\n      jump\t// out\n        /* \"#utility.yul\":615:752   */\n    tag_257:\n        /* \"#utility.yul\":660:665   */\n      0x00\n        /* \"#utility.yul\":698:704   */\n      dup2\n        /* \"#utility.yul\":685:705   */\n      calldataload\n        /* \"#utility.yul\":676:705   */\n      swap1\n      pop\n        /* \"#utility.yul\":714:746   */\n      tag_336\n        /* \"#utility.yul\":740:745   */\n      dup2\n        /* \"#utility.yul\":714:746   */\n      tag_256\n      jump\t// in\n    tag_336:\n        /* \"#utility.yul\":615:752   */\n      swap3\n      swap2\n      pop\n      pop\n      jump\t// out\n        /* \"#utility.yul\":758:1085   */\n    tag_28:\n        /* \"#utility.yul\":816:822   */\n      0x00\n        /* \"#utility.yul\":865:867   */\n      0x20\n        /* \"#utility.yul\":853:862   */\n      dup3\n        /* \"#utility.yul\":844:851   */\n      dup5\n        /* \"#utility.yul\":840:863   */\n      sub\n        /* \"#utility.yul\":836:868   */\n      slt\n        /* \"#utility.yul\":833:952   */\n      iszero\n      tag_338\n      jumpi\n        /* \"#utility.yul\":871:950   */\n      tag_339\n      tag_253\n      jump\t// in\n    tag_339:\n        /* \"#utility.yul\":833:952   */\n    tag_338:\n        /* \"#utility.yul\":991:992   */\n      0x00\n        /* \"#utility.yul\":1016:1068   */\n      tag_340\n        /* \"#utility.yul\":1060:1067   */\n      dup5\n        /* \"#utility.yul\":1051:1057   */\n      dup3\n        /* \"#utility.yul\":1040:1049   */\n      dup6\n        /* \"#utility.yul\":1036:1058   */\n      add\n        /* \"#utility.yul\":1016:1068   */\n      tag_257\n      jump\t// in\n    tag_340:\n        /* \"#utility.yul\":1006:1068   */\n      swap2\n      pop\n        /* \"#utility.yul\":962:1078   */\n      pop\n        /* \"#utility.yul\":758:1085   */\n      swap3\n      swap2\n      pop\n      pop\n      jump\t// out\n        /* \"#utility.yul\":1091:1181   */\n    tag_258:\n        /* \"#utility.yul\":1125:1132   */\n      0x00\n        /* \"#utility.yul\":1168:1173   */\n      dup2\n        /* \"#utility.yul\":1161:1174   */\n      iszero\n        /* \"#utility.yul\":1154:1175   */\n      iszero\n        /* \"#utility.yul\":1143:1175   */\n      swap1\n      pop\n        /* \"#utility.yul\":1091:1181   */\n      swap2\n      swap1\n      pop\n      jump\t// out\n        /* \"#utility.yul\":1187:1296   */\n    tag_259:\n        /* \"#utility.yul\":1268:1289   */\n      tag_343\n        /* \"#utility.yul\":1283:1288   */\n      dup2\n        /* \"#utility.yul\":1268:1289   */\n      tag_258\n      jump\t// in\n    tag_343:\n        /* \"#utility.yul\":1263:1266   */\n      dup3\n        /* \"#utility.yul\":1256:1290   */\n      mstore\n        /* \"#utility.yul\":1187:1296   */\n      pop\n      pop\n      jump\t// out\n        /* \"#utility.yul\":1302:1512   */\n    tag_31:\n        /* \"#utility.yul\":1389:1393   */\n      0x00\n        /* \"#utility.yul\":1427:1429   */\n      0x20\n        /* \"#utility.yul\":1416:1425   */\n      dup3\n        /* \"#utility.yul\":1412:1430   */\n      add\n        /* \"#utility.yul\":1404:1430   */\n      swap1\n      pop\n        /* \"#utility.yul\":1440:1505   */\n      tag_345\n        /* \"#utility.yul\":1502:1503   */\n      0x00\n        /* \"#utility.yul\":1491:1500   */\n      dup4\n        /* \"#utility.yul\":1487:1504   */\n      add\n        /* \"#utility.yul\":1478:1484   */\n      dup5\n        /* \"#utility.yul\":1440:1505   */\n      tag_259\n      jump\t// in\n    tag_345:\n        /* \"#utility.yul\":1302:1512   */\n      swap3\n      swap2\n      pop\n      pop\n      jump\t// out\n        /* \"#utility.yul\":1518:1595   */\n    tag_260:\n        /* \"#utility.yul\":1555:1562   */\n      0x00\n        /* \"#utility.yul\":1584:1589   */\n      dup2\n        /* \"#utility.yul\":1573:1589   */\n      swap1\n      pop\n        /* \"#utility.yul\":1518:1595   */\n      swap2\n      swap1\n      pop\n      jump\t// out\n        /* \"#utility.yul\":1601:1719   */\n    tag_261:\n        /* \"#utility.yul\":1688:1712   */\n      tag_348\n        /* \"#utility.yul\":1706:1711   */\n      dup2\n        /* \"#utility.yul\":1688:1712   */\n      tag_260\n      jump\t// in\n    tag_348:\n        /* \"#utility.yul\":1683:1686   */\n      dup3\n        /* \"#utility.yul\":1676:1713   */\n      mstore\n        /* \"#utility.yul\":1601:1719   */\n      pop\n      pop\n      jump\t// out\n        /* \"#utility.yul\":1725:1947   */\n    tag_35:\n        /* \"#utility.yul\":1818:1822   */\n      0x00\n        /* \"#utility.yul\":1856:1858   */\n      0x20\n        /* \"#utility.yul\":1845:1854   */\n      dup3\n        /* \"#utility.yul\":1841:1859   */\n      add\n        /* \"#utility.yul\":1833:1859   */\n      swap1\n      pop\n        /* \"#utility.yul\":1869:1940   */\n      tag_350\n        /* \"#utility.yul\":1937:1938   */\n      0x00\n        /* \"#utility.yul\":1926:1935   */\n      dup4\n        /* \"#utility.yul\":1922:1939   */\n      add\n        /* \"#utility.yul\":1913:1919   */\n      dup5\n        /* \"#utility.yul\":1869:1940   */\n      tag_261\n      jump\t// in\n    tag_350:\n        /* \"#utility.yul\":1725:1947   */\n      swap3\n      swap2\n      pop\n      pop\n      jump\t// out\n        /* \"#utility.yul\":1953:2075   */\n    tag_262:\n        /* \"#utility.yul\":2026:2050   */\n      tag_352\n        /* \"#utility.yul\":2044:2049   */\n      dup2\n        /* \"#utility.yul\":2026:2050   */\n      tag_260\n      jump\t// in\n    tag_352:\n        /* \"#utility.yul\":2019:2024   */\n      dup2\n        /* \"#utility.yul\":2016:2051   */\n      eq\n        /* \"#utility.yul\":2006:2069   */\n      tag_353\n      jumpi\n        /* \"#utility.yul\":2065:2066   */\n      0x00\n        /* \"#utility.yul\":2062:2063   */\n      dup1\n        /* \"#utility.yul\":2055:2067   */\n      revert\n        /* \"#utility.yul\":2006:2069   */\n    tag_353:\n        /* \"#utility.yul\":1953:2075   */\n      pop\n      jump\t// out\n        /* \"#utility.yul\":2081:2220   */\n    tag_263:\n        /* \"#utility.yul\":2127:2132   */\n      0x00\n        /* \"#utility.yul\":2165:2171   */\n      dup2\n        /* \"#utility.yul\":2152:2172   */\n      calldataload\n        /* \"#utility.yul\":2143:2172   */\n      swap1\n      pop\n        /* \"#utility.yul\":2181:2214   */\n      tag_355\n        /* \"#utility.yul\":2208:2213   */\n      dup2\n        /* \"#utility.yul\":2181:2214   */\n      tag_262\n      jump\t// in\n    tag_355:\n        /* \"#utility.yul\":2081:2220   */\n      swap3\n      swap2\n      pop\n      pop\n      jump\t// out\n        /* \"#utility.yul\":2226:2555   */\n    tag_38:\n        /* \"#utility.yul\":2285:2291   */\n      0x00\n        /* \"#utility.yul\":2334:2336   */\n      0x20\n        /* \"#utility.yul\":2322:2331   */\n      dup3\n        /* \"#utility.yul\":2313:2320   */\n      dup5\n        /* \"#utility.yul\":2309:2332   */\n      sub\n        /* \"#utility.yul\":2305:2337   */\n      slt\n        /* \"#utility.yul\":2302:2421   */\n      iszero\n      tag_357\n      jumpi\n        /* \"#utility.yul\":2340:2419   */\n      tag_358\n      tag_253\n      jump\t// in\n    tag_358:\n        /* \"#utility.yul\":2302:2421   */\n    tag_357:\n        /* \"#utility.yul\":2460:2461   */\n      0x00\n        /* \"#utility.yul\":2485:2538   */\n      tag_359\n        /* \"#utility.yul\":2530:2537   */\n      dup5\n        /* \"#utility.yul\":2521:2527   */\n      dup3\n        /* \"#utility.yul\":2510:2519   */\n      dup6\n        /* \"#utility.yul\":2506:2528   */\n      add\n        /* \"#utility.yul\":2485:2538   */\n      tag_263\n      jump\t// in\n    tag_359:\n        /* \"#utility.yul\":2475:2538   */\n      swap2\n      pop\n        /* \"#utility.yul\":2431:2548   */\n      pop\n        /* \"#utility.yul\":2226:2555   */\n      swap3\n      swap2\n      pop\n      pop\n      jump\t// out\n        /* \"#utility.yul\":2561:2638   */\n    tag_264:\n        /* \"#utility.yul\":2598:2605   */\n      0x00\n        /* \"#utility.yul\":2627:2632   */\n      dup2\n        /* \"#utility.yul\":2616:2632   */\n      swap1\n      pop\n        /* \"#utility.yul\":2561:2638   */\n      swap2\n      swap1\n      pop\n      jump\t// out\n        /* \"#utility.yul\":2644:2766   */\n    tag_265:\n        /* \"#utility.yul\":2717:2741   */\n      tag_362\n        /* \"#utility.yul\":2735:2740   */\n      dup2\n        /* \"#utility.yul\":2717:2741   */\n      tag_264\n      jump\t// in\n    tag_362:\n        /* \"#utility.yul\":2710:2715   */\n      dup2\n        /* \"#utility.yul\":2707:2742   */\n      eq\n        /* \"#utility.yul\":2697:2760   */\n      tag_363\n      jumpi\n        /* \"#utility.yul\":2756:2757   */\n      0x00\n        /* \"#utility.yul\":2753:2754   */\n      dup1\n        /* \"#utility.yul\":2746:2758   */\n      revert\n        /* \"#utility.yul\":2697:2760   */\n    tag_363:\n        /* \"#utility.yul\":2644:2766   */\n      pop\n      jump\t// out\n        /* \"#utility.yul\":2772:2911   */\n    tag_266:\n        /* \"#utility.yul\":2818:2823   */\n      0x00\n        /* \"#utility.yul\":2856:2862   */\n      dup2\n        /* \"#utility.yul\":2843:2863   */\n      calldataload\n        /* \"#utility.yul\":2834:2863   */\n      swap1\n      pop\n        /* \"#utility.yul\":2872:2905   */\n      tag_365\n        /* \"#utility.yul\":2899:2904   */\n      dup2\n        /* \"#utility.yul\":2872:2905   */\n      tag_265\n      jump\t// in\n    tag_365:\n        /* \"#utility.yul\":2772:2911   */\n      swap3\n      swap2\n      pop\n      pop\n      jump\t// out\n        /* \"#utility.yul\":2917:3246   */\n    tag_42:\n        /* \"#utility.yul\":2976:2982   */\n      0x00\n        /* \"#utility.yul\":3025:3027   */\n      0x20\n        /* \"#utility.yul\":3013:3022   */\n      dup3\n        /* \"#utility.yul\":3004:3011   */\n      dup5\n        /* \"#utility.yul\":3000:3023   */\n      sub\n        /* \"#utility.yul\":2996:3028   */\n      slt\n        /* \"#utility.yul\":2993:3112   */\n      iszero\n      tag_367\n      jumpi\n        /* \"#utility.yul\":3031:3110   */\n      tag_368\n      tag_253\n      jump\t// in\n    tag_368:\n        /* \"#utility.yul\":2993:3112   */\n    tag_367:\n        /* \"#utility.yul\":3151:3152   */\n      0x00\n        /* \"#utility.yul\":3176:3229   */\n      tag_369\n        /* \"#utility.yul\":3221:3228   */\n      dup5\n        /* \"#utility.yul\":3212:3218   */\n      dup3\n        /* \"#utility.yul\":3201:3210   */\n      dup6\n        /* \"#utility.yul\":3197:3219   */\n      add\n        /* \"#utility.yul\":3176:3229   */\n      tag_266\n      jump\t// in\n    tag_369:\n        /* \"#utility.yul\":3166:3229   */\n      swap2\n      pop\n        /* \"#utility.yul\":3122:3239   */\n      pop\n        /* \"#utility.yul\":2917:3246   */\n      swap3\n      swap2\n      pop\n      pop\n      jump\t// out\n        /* \"#utility.yul\":3252:3370   */\n    tag_267:\n        /* \"#utility.yul\":3339:3363   */\n      tag_371\n        /* \"#utility.yul\":3357:3362   */\n      dup2\n        /* \"#utility.yul\":3339:3363   */\n      tag_264\n      jump\t// in\n    tag_371:\n        /* \"#utility.yul\":3334:3337   */\n      dup3\n        /* \"#utility.yul\":3327:3364   */\n      mstore\n        /* \"#utility.yul\":3252:3370   */\n      pop\n      pop\n      jump\t// out\n        /* \"#utility.yul\":3376:3598   */\n    tag_45:\n        /* \"#utility.yul\":3469:3473   */\n      0x00\n        /* \"#utility.yul\":3507:3509   */\n      0x20\n        /* \"#utility.yul\":3496:3505   */\n      dup3\n        /* \"#utility.yul\":3492:3510   */\n      add\n        /* \"#utility.yul\":3484:3510   */\n      swap1\n      pop\n        /* \"#utility.yul\":3520:3591   */\n      tag_373\n        /* \"#utility.yul\":3588:3589   */\n      0x00\n        /* \"#utility.yul\":3577:3586   */\n      dup4\n        /* \"#utility.yul\":3573:3590   */\n      add\n        /* \"#utility.yul\":3564:3570   */\n      dup5\n        /* \"#utility.yul\":3520:3591   */\n      tag_267\n      jump\t// in\n    tag_373:\n        /* \"#utility.yul\":3376:3598   */\n      swap3\n      swap2\n      pop\n      pop\n      jump\t// out\n        /* \"#utility.yul\":3604:3730   */\n    tag_268:\n        /* \"#utility.yul\":3641:3648   */\n      0x00\n        /* \"#utility.yul\":3681:3723   */\n      0xffffffffffffffffffffffffffffffffffffffff\n        /* \"#utility.yul\":3674:3679   */\n      dup3\n        /* \"#utility.yul\":3670:3724   */\n      and\n        /* \"#utility.yul\":3659:3724   */\n      swap1\n      pop\n        /* \"#utility.yul\":3604:3730   */\n      swap2\n      swap1\n      pop\n      jump\t// out\n        /* \"#utility.yul\":3736:3832   */\n    tag_269:\n        /* \"#utility.yul\":3773:3780   */\n      0x00\n        /* \"#utility.yul\":3802:3826   */\n      tag_376\n        /* \"#utility.yul\":3820:3825   */\n      dup3\n        /* \"#utility.yul\":3802:3826   */\n      tag_268\n      jump\t// in\n    tag_376:\n        /* \"#utility.yul\":3791:3826   */\n      swap1\n      pop\n        /* \"#utility.yul\":3736:3832   */\n      swap2\n      swap1\n      pop\n      jump\t// out\n        /* \"#utility.yul\":3838:3960   */\n    tag_270:\n        /* \"#utility.yul\":3911:3935   */\n      tag_378\n        /* \"#utility.yul\":3929:3934   */\n      dup2\n        /* \"#utility.yul\":3911:3935   */\n      tag_269\n      jump\t// in\n    tag_378:\n        /* \"#utility.yul\":3904:3909   */\n      dup2\n        /* \"#utility.yul\":3901:3936   */\n      eq\n        /* \"#utility.yul\":3891:3954   */\n      tag_379\n      jumpi\n        /* \"#utility.yul\":3950:3951   */\n      0x00\n        /* \"#utility.yul\":3947:3948   */\n      dup1\n        /* \"#utility.yul\":3940:3952   */\n      revert\n        /* \"#utility.yul\":3891:3954   */\n    tag_379:\n        /* \"#utility.yul\":3838:3960   */\n      pop\n      jump\t// out\n        /* \"#utility.yul\":3966:4105   */\n    tag_271:\n        /* \"#utility.yul\":4012:4017   */\n      0x00\n        /* \"#utility.yul\":4050:4056   */\n      dup2\n        /* \"#utility.yul\":4037:4057   */\n      calldataload\n        /* \"#utility.yul\":4028:4057   */\n      swap1\n      pop\n        /* \"#utility.yul\":4066:4099   */\n      tag_381\n        /* \"#utility.yul\":4093:4098   */\n      dup2\n        /* \"#utility.yul\":4066:4099   */\n      tag_270\n      jump\t// in\n    tag_381:\n        /* \"#utility.yul\":3966:4105   */\n      swap3\n      swap2\n      pop\n      pop\n      jump\t// out\n        /* \"#utility.yul\":4111:4440   */\n    tag_48:\n        /* \"#utility.yul\":4170:4176   */\n      0x00\n        /* \"#utility.yul\":4219:4221   */\n      0x20\n        /* \"#utility.yul\":4207:4216   */\n      dup3\n        /* \"#utility.yul\":4198:4205   */\n      dup5\n        /* \"#utility.yul\":4194:4217   */\n      sub\n        /* \"#utility.yul\":4190:4222   */\n      slt\n        /* \"#utility.yul\":4187:4306   */\n      iszero\n      tag_383\n      jumpi\n        /* \"#utility.yul\":4225:4304   */\n      tag_384\n      tag_253\n      jump\t// in\n    tag_384:\n        /* \"#utility.yul\":4187:4306   */\n    tag_383:\n        /* \"#utility.yul\":4345:4346   */\n      0x00\n        /* \"#utility.yul\":4370:4423   */\n      tag_385\n        /* \"#utility.yul\":4415:4422   */\n      dup5\n        /* \"#utility.yul\":4406:4412   */\n      dup3\n        /* \"#utility.yul\":4395:4404   */\n      dup6\n        /* \"#utility.yul\":4391:4413   */\n      add\n        /* \"#utility.yul\":4370:4423   */\n      tag_271\n      jump\t// in\n    tag_385:\n        /* \"#utility.yul\":4360:4423   */\n      swap2\n      pop\n        /* \"#utility.yul\":4316:4433   */\n      pop\n        /* \"#utility.yul\":4111:4440   */\n      swap3\n      swap2\n      pop\n      pop\n      jump\t// out\n        /* \"#utility.yul\":4446:4563   */\n    tag_272:\n        /* \"#utility.yul\":4555:4556   */\n      0x00\n        /* \"#utility.yul\":4552:4553   */\n      dup1\n        /* \"#utility.yul\":4545:4557   */\n      revert\n        /* \"#utility.yul\":4569:4686   */\n    tag_273:\n        /* \"#utility.yul\":4678:4679   */\n      0x00\n        /* \"#utility.yul\":4675:4676   */\n      dup1\n        /* \"#utility.yul\":4668:4680   */\n      revert\n        /* \"#utility.yul\":4692:4794   */\n    tag_274:\n        /* \"#utility.yul\":4733:4739   */\n      0x00\n        /* \"#utility.yul\":4784:4786   */\n      0x1f\n        /* \"#utility.yul\":4780:4787   */\n      not\n        /* \"#utility.yul\":4775:4777   */\n      0x1f\n        /* \"#utility.yul\":4768:4773   */\n      dup4\n        /* \"#utility.yul\":4764:4778   */\n      add\n        /* \"#utility.yul\":4760:4788   */\n      and\n        /* \"#utility.yul\":4750:4788   */\n      swap1\n      pop\n        /* \"#utility.yul\":4692:4794   */\n      swap2\n      swap1\n      pop\n      jump\t// out\n        /* \"#utility.yul\":4800:4980   */\n    tag_275:\n        /* \"#utility.yul\":4848:4925   */\n      0x4e487b7100000000000000000000000000000000000000000000000000000000\n        /* \"#utility.yul\":4845:4846   */\n      0x00\n        /* \"#utility.yul\":4838:4926   */\n      mstore\n        /* \"#utility.yul\":4945:4949   */\n      0x41\n        /* \"#utility.yul\":4942:4943   */\n      0x04\n        /* \"#utility.yul\":4935:4950   */\n      mstore\n        /* \"#utility.yul\":4969:4973   */\n      0x24\n        /* \"#utility.yul\":4966:4967   */\n      0x00\n        /* \"#utility.yul\":4959:4974   */\n      revert\n        /* \"#utility.yul\":4986:5267   */\n    tag_276:\n        /* \"#utility.yul\":5069:5096   */\n      tag_391\n        /* \"#utility.yul\":5091:5095   */\n      dup3\n        /* \"#utility.yul\":5069:5096   */\n      tag_274\n      jump\t// in\n    tag_391:\n        /* \"#utility.yul\":5061:5067   */\n      dup2\n        /* \"#utility.yul\":5057:5097   */\n      add\n        /* \"#utility.yul\":5199:5205   */\n      dup2\n        /* \"#utility.yul\":5187:5197   */\n      dup2\n        /* \"#utility.yul\":5184:5206   */\n      lt\n        /* \"#utility.yul\":5163:5181   */\n      0xffffffffffffffff\n        /* \"#utility.yul\":5151:5161   */\n      dup3\n        /* \"#utility.yul\":5148:5182   */\n      gt\n        /* \"#utility.yul\":5145:5207   */\n      or\n        /* \"#utility.yul\":5142:5230   */\n      iszero\n      tag_392\n      jumpi\n        /* \"#utility.yul\":5210:5228   */\n      tag_393\n      tag_275\n      jump\t// in\n    tag_393:\n        /* \"#utility.yul\":5142:5230   */\n    tag_392:\n        /* \"#utility.yul\":5250:5260   */\n      dup1\n        /* \"#utility.yul\":5246:5248   */\n      0x40\n        /* \"#utility.yul\":5239:5261   */\n      mstore\n        /* \"#utility.yul\":5029:5267   */\n      pop\n        /* \"#utility.yul\":4986:5267   */\n      pop\n      pop\n      jump\t// out\n        /* \"#utility.yul\":5273:5402   */\n    tag_277:\n        /* \"#utility.yul\":5307:5313   */\n      0x00\n        /* \"#utility.yul\":5334:5354   */\n      tag_395\n      tag_252\n      jump\t// in\n    tag_395:\n        /* \"#utility.yul\":5324:5354   */\n      swap1\n      pop\n        /* \"#utility.yul\":5363:5396   */\n      tag_396\n        /* \"#utility.yul\":5391:5395   */\n      dup3\n        /* \"#utility.yul\":5383:5389   */\n      dup3\n        /* \"#utility.yul\":5363:5396   */\n      tag_276\n      jump\t// in\n    tag_396:\n        /* \"#utility.yul\":5273:5402   */\n      swap2\n      swap1\n      pop\n      jump\t// out\n        /* \"#utility.yul\":5408:5716   */\n    tag_278:\n        /* \"#utility.yul\":5470:5474   */\n      0x00\n        /* \"#utility.yul\":5560:5578   */\n      0xffffffffffffffff\n        /* \"#utility.yul\":5552:5558   */\n      dup3\n        /* \"#utility.yul\":5549:5579   */\n      gt\n        /* \"#utility.yul\":5546:5602   */\n      iszero\n      tag_398\n      jumpi\n        /* \"#utility.yul\":5582:5600   */\n      tag_399\n      tag_275\n      jump\t// in\n    tag_399:\n        /* \"#utility.yul\":5546:5602   */\n    tag_398:\n        /* \"#utility.yul\":5620:5649   */\n      tag_400\n        /* \"#utility.yul\":5642:5648   */\n      dup3\n        /* \"#utility.yul\":5620:5649   */\n      tag_274\n      jump\t// in\n    tag_400:\n        /* \"#utility.yul\":5612:5649   */\n      swap1\n      pop\n        /* \"#utility.yul\":5704:5708   */\n      0x20\n        /* \"#utility.yul\":5698:5702   */\n      dup2\n        /* \"#utility.yul\":5694:5709   */\n      add\n        /* \"#utility.yul\":5686:5709   */\n      swap1\n      pop\n        /* \"#utility.yul\":5408:5716   */\n      swap2\n      swap1\n      pop\n      jump\t// out\n        /* \"#utility.yul\":5722:5870   */\n    tag_279:\n        /* \"#utility.yul\":5820:5826   */\n      dup3\n        /* \"#utility.yul\":5815:5818   */\n      dup2\n        /* \"#utility.yul\":5810:5813   */\n      dup4\n        /* \"#utility.yul\":5797:5827   */\n      calldatacopy\n        /* \"#utility.yul\":5861:5862   */\n      0x00\n        /* \"#utility.yul\":5852:5858   */\n      dup4\n        /* \"#utility.yul\":5847:5850   */\n      dup4\n        /* \"#utility.yul\":5843:5859   */\n      add\n        /* \"#utility.yul\":5836:5863   */\n      mstore\n        /* \"#utility.yul\":5722:5870   */\n      pop\n      pop\n      pop\n      jump\t// out\n        /* \"#utility.yul\":5876:6301   */\n    tag_280:\n        /* \"#utility.yul\":5954:5959   */\n      0x00\n        /* \"#utility.yul\":5979:6045   */\n      tag_403\n        /* \"#utility.yul\":5995:6044   */\n      tag_404\n        /* \"#utility.yul\":6037:6043   */\n      dup5\n        /* \"#utility.yul\":5995:6044   */\n      tag_278\n      jump\t// in\n    tag_404:\n        /* \"#utility.yul\":5979:6045   */\n      tag_277\n      jump\t// in\n    tag_403:\n        /* \"#utility.yul\":5970:6045   */\n      swap1\n      pop\n        /* \"#utility.yul\":6068:6074   */\n      dup3\n        /* \"#utility.yul\":6061:6066   */\n      dup2\n        /* \"#utility.yul\":6054:6075   */\n      mstore\n        /* \"#utility.yul\":6106:6110   */\n      0x20\n        /* \"#utility.yul\":6099:6104   */\n      dup2\n        /* \"#utility.yul\":6095:6111   */\n      add\n        /* \"#utility.yul\":6144:6147   */\n      dup5\n        /* \"#utility.yul\":6135:6141   */\n      dup5\n        /* \"#utility.yul\":6130:6133   */\n      dup5\n        /* \"#utility.yul\":6126:6142   */\n      add\n        /* \"#utility.yul\":6123:6148   */\n      gt\n        /* \"#utility.yul\":6120:6232   */\n      iszero\n      tag_405\n      jumpi\n        /* \"#utility.yul\":6151:6230   */\n      tag_406\n      tag_273\n      jump\t// in\n    tag_406:\n        /* \"#utility.yul\":6120:6232   */\n    tag_405:\n        /* \"#utility.yul\":6241:6295   */\n      tag_407\n        /* \"#utility.yul\":6288:6294   */\n      dup5\n        /* \"#utility.yul\":6283:6286   */\n      dup3\n        /* \"#utility.yul\":6278:6281   */\n      dup6\n        /* \"#utility.yul\":6241:6295   */\n      tag_279\n      jump\t// in\n    tag_407:\n        /* \"#utility.yul\":5960:6301   */\n      pop\n        /* \"#utility.yul\":5876:6301   */\n      swap4\n      swap3\n      pop\n      pop\n      pop\n      jump\t// out\n        /* \"#utility.yul\":6321:6661   */\n    tag_281:\n        /* \"#utility.yul\":6377:6382   */\n      0x00\n        /* \"#utility.yul\":6426:6429   */\n      dup3\n        /* \"#utility.yul\":6419:6423   */\n      0x1f\n        /* \"#utility.yul\":6411:6417   */\n      dup4\n        /* \"#utility.yul\":6407:6424   */\n      add\n        /* \"#utility.yul\":6403:6430   */\n      slt\n        /* \"#utility.yul\":6393:6515   */\n      tag_409\n      jumpi\n        /* \"#utility.yul\":6434:6513   */\n      tag_410\n      tag_272\n      jump\t// in\n    tag_410:\n        /* \"#utility.yul\":6393:6515   */\n    tag_409:\n        /* \"#utility.yul\":6551:6557   */\n      dup2\n        /* \"#utility.yul\":6538:6558   */\n      calldataload\n        /* \"#utility.yul\":6576:6655   */\n      tag_411\n        /* \"#utility.yul\":6651:6654   */\n      dup5\n        /* \"#utility.yul\":6643:6649   */\n      dup3\n        /* \"#utility.yul\":6636:6640   */\n      0x20\n        /* \"#utility.yul\":6628:6634   */\n      dup7\n        /* \"#utility.yul\":6624:6641   */\n      add\n        /* \"#utility.yul\":6576:6655   */\n      tag_280\n      jump\t// in\n    tag_411:\n        /* \"#utility.yul\":6567:6655   */\n      swap2\n      pop\n        /* \"#utility.yul\":6383:6661   */\n      pop\n        /* \"#utility.yul\":6321:6661   */\n      swap3\n      swap2\n      pop\n      pop\n      jump\t// out\n        /* \"#utility.yul\":6667:7612   */\n    tag_53:\n        /* \"#utility.yul\":6763:6769   */\n      0x00\n        /* \"#utility.yul\":6771:6777   */\n      dup1\n        /* \"#utility.yul\":6779:6785   */\n      0x00\n        /* \"#utility.yul\":6787:6793   */\n      dup1\n        /* \"#utility.yul\":6836:6839   */\n      0x80\n        /* \"#utility.yul\":6824:6833   */\n      dup6\n        /* \"#utility.yul\":6815:6822   */\n      dup8\n        /* \"#utility.yul\":6811:6834   */\n      sub\n        /* \"#utility.yul\":6807:6840   */\n      slt\n        /* \"#utility.yul\":6804:6924   */\n      iszero\n      tag_413\n      jumpi\n        /* \"#utility.yul\":6843:6922   */\n      tag_414\n      tag_253\n      jump\t// in\n    tag_414:\n        /* \"#utility.yul\":6804:6924   */\n    tag_413:\n        /* \"#utility.yul\":6991:6992   */\n      0x00\n        /* \"#utility.yul\":6980:6989   */\n      dup6\n        /* \"#utility.yul\":6976:6993   */\n      add\n        /* \"#utility.yul\":6963:6994   */\n      calldataload\n        /* \"#utility.yul\":7021:7039   */\n      0xffffffffffffffff\n        /* \"#utility.yul\":7013:7019   */\n      dup2\n        /* \"#utility.yul\":7010:7040   */\n      gt\n        /* \"#utility.yul\":7007:7124   */\n      iszero\n      tag_415\n      jumpi\n        /* \"#utility.yul\":7043:7122   */\n      tag_416\n      tag_254\n      jump\t// in\n    tag_416:\n        /* \"#utility.yul\":7007:7124   */\n    tag_415:\n        /* \"#utility.yul\":7148:7211   */\n      tag_417\n        /* \"#utility.yul\":7203:7210   */\n      dup8\n        /* \"#utility.yul\":7194:7200   */\n      dup3\n        /* \"#utility.yul\":7183:7192   */\n      dup9\n        /* \"#utility.yul\":7179:7201   */\n      add\n        /* \"#utility.yul\":7148:7211   */\n      tag_281\n      jump\t// in\n    tag_417:\n        /* \"#utility.yul\":7138:7211   */\n      swap5\n      pop\n        /* \"#utility.yul\":6934:7221   */\n      pop\n        /* \"#utility.yul\":7260:7262   */\n      0x20\n        /* \"#utility.yul\":7286:7339   */\n      tag_418\n        /* \"#utility.yul\":7331:7338   */\n      dup8\n        /* \"#utility.yul\":7322:7328   */\n      dup3\n        /* \"#utility.yul\":7311:7320   */\n      dup9\n        /* \"#utility.yul\":7307:7329   */\n      add\n        /* \"#utility.yul\":7286:7339   */\n      tag_263\n      jump\t// in\n    tag_418:\n        /* \"#utility.yul\":7276:7339   */\n      swap4\n      pop\n        /* \"#utility.yul\":7231:7349   */\n      pop\n        /* \"#utility.yul\":7388:7390   */\n      0x40\n        /* \"#utility.yul\":7414:7467   */\n      tag_419\n        /* \"#utility.yul\":7459:7466   */\n      dup8\n        /* \"#utility.yul\":7450:7456   */\n      dup3\n        /* \"#utility.yul\":7439:7448   */\n      dup9\n        /* \"#utility.yul\":7435:7457   */\n      add\n        /* \"#utility.yul\":7414:7467   */\n      tag_263\n      jump\t// in\n    tag_419:\n        /* \"#utility.yul\":7404:7467   */\n      swap3\n      pop\n        /* \"#utility.yul\":7359:7477   */\n      pop\n        /* \"#utility.yul\":7516:7518   */\n      0x60\n        /* \"#utility.yul\":7542:7595   */\n      tag_420\n        /* \"#utility.yul\":7587:7594   */\n      dup8\n        /* \"#utility.yul\":7578:7584   */\n      dup3\n        /* \"#utility.yul\":7567:7576   */\n      dup9\n        /* \"#utility.yul\":7563:7585   */\n      add\n        /* \"#utility.yul\":7542:7595   */\n      tag_263\n      jump\t// in\n    tag_420:\n        /* \"#utility.yul\":7532:7595   */\n      swap2\n      pop\n        /* \"#utility.yul\":7487:7605   */\n      pop\n        /* \"#utility.yul\":6667:7612   */\n      swap3\n      swap6\n      swap2\n      swap5\n      pop\n      swap3\n      pop\n      jump\t// out\n        /* \"#utility.yul\":7618:8092   */\n    tag_57:\n        /* \"#utility.yul\":7686:7692   */\n      0x00\n        /* \"#utility.yul\":7694:7700   */\n      dup1\n        /* \"#utility.yul\":7743:7745   */\n      0x40\n        /* \"#utility.yul\":7731:7740   */\n      dup4\n        /* \"#utility.yul\":7722:7729   */\n      dup6\n        /* \"#utility.yul\":7718:7741   */\n      sub\n        /* \"#utility.yul\":7714:7746   */\n      slt\n        /* \"#utility.yul\":7711:7830   */\n      iszero\n      tag_422\n      jumpi\n        /* \"#utility.yul\":7749:7828   */\n      tag_423\n      tag_253\n      jump\t// in\n    tag_423:\n        /* \"#utility.yul\":7711:7830   */\n    tag_422:\n        /* \"#utility.yul\":7869:7870   */\n      0x00\n        /* \"#utility.yul\":7894:7947   */\n      tag_424\n        /* \"#utility.yul\":7939:7946   */\n      dup6\n        /* \"#utility.yul\":7930:7936   */\n      dup3\n        /* \"#utility.yul\":7919:7928   */\n      dup7\n        /* \"#utility.yul\":7915:7937   */\n      add\n        /* \"#utility.yul\":7894:7947   */\n      tag_263\n      jump\t// in\n    tag_424:\n        /* \"#utility.yul\":7884:7947   */\n      swap3\n      pop\n        /* \"#utility.yul\":7840:7957   */\n      pop\n        /* \"#utility.yul\":7996:7998   */\n      0x20\n        /* \"#utility.yul\":8022:8075   */\n      tag_425\n        /* \"#utility.yul\":8067:8074   */\n      dup6\n        /* \"#utility.yul\":8058:8064   */\n      dup3\n        /* \"#utility.yul\":8047:8056   */\n      dup7\n        /* \"#utility.yul\":8043:8065   */\n      add\n        /* \"#utility.yul\":8022:8075   */\n      tag_263\n      jump\t// in\n    tag_425:\n        /* \"#utility.yul\":8012:8075   */\n      swap2\n      pop\n        /* \"#utility.yul\":7967:8085   */\n      pop\n        /* \"#utility.yul\":7618:8092   */\n      swap3\n      pop\n      swap3\n      swap1\n      pop\n      jump\t// out\n        /* \"#utility.yul\":8098:8572   */\n    tag_61:\n        /* \"#utility.yul\":8166:8172   */\n      0x00\n        /* \"#utility.yul\":8174:8180   */\n      dup1\n        /* \"#utility.yul\":8223:8225   */\n      0x40\n        /* \"#utility.yul\":8211:8220   */\n      dup4\n        /* \"#utility.yul\":8202:8209   */\n      dup6\n        /* \"#utility.yul\":8198:8221   */\n      sub\n        /* \"#utility.yul\":8194:8226   */\n      slt\n        /* \"#utility.yul\":8191:8310   */\n      iszero\n      tag_427\n      jumpi\n        /* \"#utility.yul\":8229:8308   */\n      tag_428\n      tag_253\n      jump\t// in\n    tag_428:\n        /* \"#utility.yul\":8191:8310   */\n    tag_427:\n        /* \"#utility.yul\":8349:8350   */\n      0x00\n        /* \"#utility.yul\":8374:8427   */\n      tag_429\n        /* \"#utility.yul\":8419:8426   */\n      dup6\n        /* \"#utility.yul\":8410:8416   */\n      dup3\n        /* \"#utility.yul\":8399:8408   */\n      dup7\n        /* \"#utility.yul\":8395:8417   */\n      add\n        /* \"#utility.yul\":8374:8427   */\n      tag_266\n      jump\t// in\n    tag_429:\n        /* \"#utility.yul\":8364:8427   */\n      swap3\n      pop\n        /* \"#utility.yul\":8320:8437   */\n      pop\n        /* \"#utility.yul\":8476:8478   */\n      0x20\n        /* \"#utility.yul\":8502:8555   */\n      tag_430\n        /* \"#utility.yul\":8547:8554   */\n      dup6\n        /* \"#utility.yul\":8538:8544   */\n      dup3\n        /* \"#utility.yul\":8527:8536   */\n      dup7\n        /* \"#utility.yul\":8523:8545   */\n      add\n        /* \"#utility.yul\":8502:8555   */\n      tag_271\n      jump\t// in\n    tag_430:\n        /* \"#utility.yul\":8492:8555   */\n      swap2\n      pop\n        /* \"#utility.yul\":8447:8565   */\n      pop\n        /* \"#utility.yul\":8098:8572   */\n      swap3\n      pop\n      swap3\n      swap1\n      pop\n      jump\t// out\n        /* \"#utility.yul\":8578:8696   */\n    tag_282:\n        /* \"#utility.yul\":8665:8689   */\n      tag_432\n        /* \"#utility.yul\":8683:8688   */\n      dup2\n        /* \"#utility.yul\":8665:8689   */\n      tag_269\n      jump\t// in\n    tag_432:\n        /* \"#utility.yul\":8660:8663   */\n      dup3\n        /* \"#utility.yul\":8653:8690   */\n      mstore\n        /* \"#utility.yul\":8578:8696   */\n      pop\n      pop\n      jump\t// out\n        /* \"#utility.yul\":8702:8924   */\n    tag_76:\n        /* \"#utility.yul\":8795:8799   */\n      0x00\n        /* \"#utility.yul\":8833:8835   */\n      0x20\n        /* \"#utility.yul\":8822:8831   */\n      dup3\n        /* \"#utility.yul\":8818:8836   */\n      add\n        /* \"#utility.yul\":8810:8836   */\n      swap1\n      pop\n        /* \"#utility.yul\":8846:8917   */\n      tag_434\n        /* \"#utility.yul\":8914:8915   */\n      0x00\n        /* \"#utility.yul\":8903:8912   */\n      dup4\n        /* \"#utility.yul\":8899:8916   */\n      add\n        /* \"#utility.yul\":8890:8896   */\n      dup5\n        /* \"#utility.yul\":8846:8917   */\n      tag_282\n      jump\t// in\n    tag_434:\n        /* \"#utility.yul\":8702:8924   */\n      swap3\n      swap2\n      pop\n      pop\n      jump\t// out\n        /* \"#utility.yul\":8930:9029   */\n    tag_283:\n        /* \"#utility.yul\":8982:8988   */\n      0x00\n        /* \"#utility.yul\":9016:9021   */\n      dup2\n        /* \"#utility.yul\":9010:9022   */\n      mload\n        /* \"#utility.yul\":9000:9022   */\n      swap1\n      pop\n        /* \"#utility.yul\":8930:9029   */\n      swap2\n      swap1\n      pop\n      jump\t// out\n        /* \"#utility.yul\":9035:9204   */\n    tag_284:\n        /* \"#utility.yul\":9119:9130   */\n      0x00\n        /* \"#utility.yul\":9153:9159   */\n      dup3\n        /* \"#utility.yul\":9148:9151   */\n      dup3\n        /* \"#utility.yul\":9141:9160   */\n      mstore\n        /* \"#utility.yul\":9193:9197   */\n      0x20\n        /* \"#utility.yul\":9188:9191   */\n      dup3\n        /* \"#utility.yul\":9184:9198   */\n      add\n        /* \"#utility.yul\":9169:9198   */\n      swap1\n      pop\n        /* \"#utility.yul\":9035:9204   */\n      swap3\n      swap2\n      pop\n      pop\n      jump\t// out\n        /* \"#utility.yul\":9210:9349   */\n    tag_285:\n        /* \"#utility.yul\":9299:9305   */\n      dup3\n        /* \"#utility.yul\":9294:9297   */\n      dup2\n        /* \"#utility.yul\":9289:9292   */\n      dup4\n        /* \"#utility.yul\":9283:9306   */\n      mcopy\n        /* \"#utility.yul\":9340:9341   */\n      0x00\n        /* \"#utility.yul\":9331:9337   */\n      dup4\n        /* \"#utility.yul\":9326:9329   */\n      dup4\n        /* \"#utility.yul\":9322:9338   */\n      add\n        /* \"#utility.yul\":9315:9342   */\n      mstore\n        /* \"#utility.yul\":9210:9349   */\n      pop\n      pop\n      pop\n      jump\t// out\n        /* \"#utility.yul\":9355:9732   */\n    tag_286:\n        /* \"#utility.yul\":9443:9446   */\n      0x00\n        /* \"#utility.yul\":9471:9510   */\n      tag_439\n        /* \"#utility.yul\":9504:9509   */\n      dup3\n        /* \"#utility.yul\":9471:9510   */\n      tag_283\n      jump\t// in\n    tag_439:\n        /* \"#utility.yul\":9526:9597   */\n      tag_440\n        /* \"#utility.yul\":9590:9596   */\n      dup2\n        /* \"#utility.yul\":9585:9588   */\n      dup6\n        /* \"#utility.yul\":9526:9597   */\n      tag_284\n      jump\t// in\n    tag_440:\n        /* \"#utility.yul\":9519:9597   */\n      swap4\n      pop\n        /* \"#utility.yul\":9606:9671   */\n      tag_441\n        /* \"#utility.yul\":9664:9670   */\n      dup2\n        /* \"#utility.yul\":9659:9662   */\n      dup6\n        /* \"#utility.yul\":9652:9656   */\n      0x20\n        /* \"#utility.yul\":9645:9650   */\n      dup7\n        /* \"#utility.yul\":9641:9657   */\n      add\n        /* \"#utility.yul\":9606:9671   */\n      tag_285\n      jump\t// in\n    tag_441:\n        /* \"#utility.yul\":9696:9725   */\n      tag_442\n        /* \"#utility.yul\":9718:9724   */\n      dup2\n        /* \"#utility.yul\":9696:9725   */\n      tag_274\n      jump\t// in\n    tag_442:\n        /* \"#utility.yul\":9691:9694   */\n      dup5\n        /* \"#utility.yul\":9687:9726   */\n      add\n        /* \"#utility.yul\":9680:9726   */\n      swap2\n      pop\n        /* \"#utility.yul\":9447:9732   */\n      pop\n        /* \"#utility.yul\":9355:9732   */\n      swap3\n      swap2\n      pop\n      pop\n      jump\t// out\n        /* \"#utility.yul\":9738:10703   */\n    tag_94:\n        /* \"#utility.yul\":10013:10017   */\n      0x00\n        /* \"#utility.yul\":10051:10054   */\n      0xe0\n        /* \"#utility.yul\":10040:10049   */\n      dup3\n        /* \"#utility.yul\":10036:10055   */\n      add\n        /* \"#utility.yul\":10028:10055   */\n      swap1\n      pop\n        /* \"#utility.yul\":10065:10136   */\n      tag_444\n        /* \"#utility.yul\":10133:10134   */\n      0x00\n        /* \"#utility.yul\":10122:10131   */\n      dup4\n        /* \"#utility.yul\":10118:10135   */\n      add\n        /* \"#utility.yul\":10109:10115   */\n      dup11\n        /* \"#utility.yul\":10065:10136   */\n      tag_282\n      jump\t// in\n    tag_444:\n        /* \"#utility.yul\":10183:10192   */\n      dup2\n        /* \"#utility.yul\":10177:10181   */\n      dup2\n        /* \"#utility.yul\":10173:10193   */\n      sub\n        /* \"#utility.yul\":10168:10170   */\n      0x20\n        /* \"#utility.yul\":10157:10166   */\n      dup4\n        /* \"#utility.yul\":10153:10171   */\n      add\n        /* \"#utility.yul\":10146:10194   */\n      mstore\n        /* \"#utility.yul\":10211:10289   */\n      tag_445\n        /* \"#utility.yul\":10284:10288   */\n      dup2\n        /* \"#utility.yul\":10275:10281   */\n      dup10\n        /* \"#utility.yul\":10211:10289   */\n      tag_286\n      jump\t// in\n    tag_445:\n        /* \"#utility.yul\":10203:10289   */\n      swap1\n      pop\n        /* \"#utility.yul\":10299:10371   */\n      tag_446\n        /* \"#utility.yul\":10367:10369   */\n      0x40\n        /* \"#utility.yul\":10356:10365   */\n      dup4\n        /* \"#utility.yul\":10352:10370   */\n      add\n        /* \"#utility.yul\":10343:10349   */\n      dup9\n        /* \"#utility.yul\":10299:10371   */\n      tag_261\n      jump\t// in\n    tag_446:\n        /* \"#utility.yul\":10381:10453   */\n      tag_447\n        /* \"#utility.yul\":10449:10451   */\n      0x60\n        /* \"#utility.yul\":10438:10447   */\n      dup4\n        /* \"#utility.yul\":10434:10452   */\n      add\n        /* \"#utility.yul\":10425:10431   */\n      dup8\n        /* \"#utility.yul\":10381:10453   */\n      tag_261\n      jump\t// in\n    tag_447:\n        /* \"#utility.yul\":10463:10536   */\n      tag_448\n        /* \"#utility.yul\":10531:10534   */\n      0x80\n        /* \"#utility.yul\":10520:10529   */\n      dup4\n        /* \"#utility.yul\":10516:10535   */\n      add\n        /* \"#utility.yul\":10507:10513   */\n      dup7\n        /* \"#utility.yul\":10463:10536   */\n      tag_261\n      jump\t// in\n    tag_448:\n        /* \"#utility.yul\":10546:10619   */\n      tag_449\n        /* \"#utility.yul\":10614:10617   */\n      0xa0\n        /* \"#utility.yul\":10603:10612   */\n      dup4\n        /* \"#utility.yul\":10599:10618   */\n      add\n        /* \"#utility.yul\":10590:10596   */\n      dup6\n        /* \"#utility.yul\":10546:10619   */\n      tag_261\n      jump\t// in\n    tag_449:\n        /* \"#utility.yul\":10629:10696   */\n      tag_450\n        /* \"#utility.yul\":10691:10694   */\n      0xc0\n        /* \"#utility.yul\":10680:10689   */\n      dup4\n        /* \"#utility.yul\":10676:10695   */\n      add\n        /* \"#utility.yul\":10667:10673   */\n      dup5\n        /* \"#utility.yul\":10629:10696   */\n      tag_259\n      jump\t// in\n    tag_450:\n        /* \"#utility.yul\":9738:10703   */\n      swap9\n      swap8\n      pop\n      pop\n      pop\n      pop\n      pop\n      pop\n      pop\n      pop\n      jump\t// out\n        /* \"#utility.yul\":10709:10769   */\n    tag_287:\n        /* \"#utility.yul\":10737:10740   */\n      0x00\n        /* \"#utility.yul\":10758:10763   */\n      dup2\n        /* \"#utility.yul\":10751:10763   */\n      swap1\n      pop\n        /* \"#utility.yul\":10709:10769   */\n      swap2\n      swap1\n      pop\n      jump\t// out\n        /* \"#utility.yul\":10775:10917   */\n    tag_288:\n        /* \"#utility.yul\":10825:10834   */\n      0x00\n        /* \"#utility.yul\":10858:10911   */\n      tag_453\n        /* \"#utility.yul\":10876:10910   */\n      tag_454\n        /* \"#utility.yul\":10885:10909   */\n      tag_455\n        /* \"#utility.yul\":10903:10908   */\n      dup5\n        /* \"#utility.yul\":10885:10909   */\n      tag_268\n      jump\t// in\n    tag_455:\n        /* \"#utility.yul\":10876:10910   */\n      tag_287\n      jump\t// in\n    tag_454:\n        /* \"#utility.yul\":10858:10911   */\n      tag_268\n      jump\t// in\n    tag_453:\n        /* \"#utility.yul\":10845:10911   */\n      swap1\n      pop\n        /* \"#utility.yul\":10775:10917   */\n      swap2\n      swap1\n      pop\n      jump\t// out\n        /* \"#utility.yul\":10923:11049   */\n    tag_289:\n        /* \"#utility.yul\":10973:10982   */\n      0x00\n        /* \"#utility.yul\":11006:11043   */\n      tag_457\n        /* \"#utility.yul\":11037:11042   */\n      dup3\n        /* \"#utility.yul\":11006:11043   */\n      tag_288\n      jump\t// in\n    tag_457:\n        /* \"#utility.yul\":10993:11043   */\n      swap1\n      pop\n        /* \"#utility.yul\":10923:11049   */\n      swap2\n      swap1\n      pop\n      jump\t// out\n        /* \"#utility.yul\":11055:11195   */\n    tag_290:\n        /* \"#utility.yul\":11119:11128   */\n      0x00\n        /* \"#utility.yul\":11152:11189   */\n      tag_459\n        /* \"#utility.yul\":11183:11188   */\n      dup3\n        /* \"#utility.yul\":11152:11189   */\n      tag_289\n      jump\t// in\n    tag_459:\n        /* \"#utility.yul\":11139:11189   */\n      swap1\n      pop\n        /* \"#utility.yul\":11055:11195   */\n      swap2\n      swap1\n      pop\n      jump\t// out\n        /* \"#utility.yul\":11201:11360   */\n    tag_291:\n        /* \"#utility.yul\":11302:11353   */\n      tag_461\n        /* \"#utility.yul\":11347:11352   */\n      dup2\n        /* \"#utility.yul\":11302:11353   */\n      tag_290\n      jump\t// in\n    tag_461:\n        /* \"#utility.yul\":11297:11300   */\n      dup3\n        /* \"#utility.yul\":11290:11354   */\n      mstore\n        /* \"#utility.yul\":11201:11360   */\n      pop\n      pop\n      jump\t// out\n        /* \"#utility.yul\":11366:11616   */\n    tag_103:\n        /* \"#utility.yul\":11473:11477   */\n      0x00\n        /* \"#utility.yul\":11511:11513   */\n      0x20\n        /* \"#utility.yul\":11500:11509   */\n      dup3\n        /* \"#utility.yul\":11496:11514   */\n      add\n        /* \"#utility.yul\":11488:11514   */\n      swap1\n      pop\n        /* \"#utility.yul\":11524:11609   */\n      tag_463\n        /* \"#utility.yul\":11606:11607   */\n      0x00\n        /* \"#utility.yul\":11595:11604   */\n      dup4\n        /* \"#utility.yul\":11591:11608   */\n      add\n        /* \"#utility.yul\":11582:11588   */\n      dup5\n        /* \"#utility.yul\":11524:11609   */\n      tag_291\n      jump\t// in\n    tag_463:\n        /* \"#utility.yul\":11366:11616   */\n      swap3\n      swap2\n      pop\n      pop\n      jump\t// out\n        /* \"#utility.yul\":11622:11790   */\n    tag_292:\n        /* \"#utility.yul\":11762:11782   */\n      0x41504920646f6573206e6f742065786973740000000000000000000000000000\n        /* \"#utility.yul\":11758:11759   */\n      0x00\n        /* \"#utility.yul\":11750:11756   */\n      dup3\n        /* \"#utility.yul\":11746:11760   */\n      add\n        /* \"#utility.yul\":11739:11783   */\n      mstore\n        /* \"#utility.yul\":11622:11790   */\n      pop\n      jump\t// out\n        /* \"#utility.yul\":11796:12162   */\n    tag_293:\n        /* \"#utility.yul\":11938:11941   */\n      0x00\n        /* \"#utility.yul\":11959:12026   */\n      tag_466\n        /* \"#utility.yul\":12023:12025   */\n      0x12\n        /* \"#utility.yul\":12018:12021   */\n      dup4\n        /* \"#utility.yul\":11959:12026   */\n      tag_284\n      jump\t// in\n    tag_466:\n        /* \"#utility.yul\":11952:12026   */\n      swap2\n      pop\n        /* \"#utility.yul\":12035:12128   */\n      tag_467\n        /* \"#utility.yul\":12124:12127   */\n      dup3\n        /* \"#utility.yul\":12035:12128   */\n      tag_292\n      jump\t// in\n    tag_467:\n        /* \"#utility.yul\":12153:12155   */\n      0x20\n        /* \"#utility.yul\":12148:12151   */\n      dup3\n        /* \"#utility.yul\":12144:12156   */\n      add\n        /* \"#utility.yul\":12137:12156   */\n      swap1\n      pop\n        /* \"#utility.yul\":11796:12162   */\n      swap2\n      swap1\n      pop\n      jump\t// out\n        /* \"#utility.yul\":12168:12587   */\n    tag_111:\n        /* \"#utility.yul\":12334:12338   */\n      0x00\n        /* \"#utility.yul\":12372:12374   */\n      0x20\n        /* \"#utility.yul\":12361:12370   */\n      dup3\n        /* \"#utility.yul\":12357:12375   */\n      add\n        /* \"#utility.yul\":12349:12375   */\n      swap1\n      pop\n        /* \"#utility.yul\":12421:12430   */\n      dup2\n        /* \"#utility.yul\":12415:12419   */\n      dup2\n        /* \"#utility.yul\":12411:12431   */\n      sub\n        /* \"#utility.yul\":12407:12408   */\n      0x00\n        /* \"#utility.yul\":12396:12405   */\n      dup4\n        /* \"#utility.yul\":12392:12409   */\n      add\n        /* \"#utility.yul\":12385:12432   */\n      mstore\n        /* \"#utility.yul\":12449:12580   */\n      tag_469\n        /* \"#utility.yul\":12575:12579   */\n      dup2\n        /* \"#utility.yul\":12449:12580   */\n      tag_293\n      jump\t// in\n    tag_469:\n        /* \"#utility.yul\":12441:12580   */\n      swap1\n      pop\n        /* \"#utility.yul\":12168:12587   */\n      swap2\n      swap1\n      pop\n      jump\t// out\n        /* \"#utility.yul\":12593:12765   */\n    tag_294:\n        /* \"#utility.yul\":12733:12757   */\n      0x4e6f2061637469766520737562736372697074696f6e00000000000000000000\n        /* \"#utility.yul\":12729:12730   */\n      0x00\n        /* \"#utility.yul\":12721:12727   */\n      dup3\n        /* \"#utility.yul\":12717:12731   */\n      add\n        /* \"#utility.yul\":12710:12758   */\n      mstore\n        /* \"#utility.yul\":12593:12765   */\n      pop\n      jump\t// out\n        /* \"#utility.yul\":12771:13137   */\n    tag_295:\n        /* \"#utility.yul\":12913:12916   */\n      0x00\n        /* \"#utility.yul\":12934:13001   */\n      tag_472\n        /* \"#utility.yul\":12998:13000   */\n      0x16\n        /* \"#utility.yul\":12993:12996   */\n      dup4\n        /* \"#utility.yul\":12934:13001   */\n      tag_284\n      jump\t// in\n    tag_472:\n        /* \"#utility.yul\":12927:13001   */\n      swap2\n      pop\n        /* \"#utility.yul\":13010:13103   */\n      tag_473\n        /* \"#utility.yul\":13099:13102   */\n      dup3\n        /* \"#utility.yul\":13010:13103   */\n      tag_294\n      jump\t// in\n    tag_473:\n        /* \"#utility.yul\":13128:13130   */\n      0x20\n        /* \"#utility.yul\":13123:13126   */\n      dup3\n        /* \"#utility.yul\":13119:13131   */\n      add\n        /* \"#utility.yul\":13112:13131   */\n      swap1\n      pop\n        /* \"#utility.yul\":12771:13137   */\n      swap2\n      swap1\n      pop\n      jump\t// out\n        /* \"#utility.yul\":13143:13562   */\n    tag_114:\n        /* \"#utility.yul\":13309:13313   */\n      0x00\n        /* \"#utility.yul\":13347:13349   */\n      0x20\n        /* \"#utility.yul\":13336:13345   */\n      dup3\n        /* \"#utility.yul\":13332:13350   */\n      add\n        /* \"#utility.yul\":13324:13350   */\n      swap1\n      pop\n        /* \"#utility.yul\":13396:13405   */\n      dup2\n        /* \"#utility.yul\":13390:13394   */\n      dup2\n        /* \"#utility.yul\":13386:13406   */\n      sub\n        /* \"#utility.yul\":13382:13383   */\n      0x00\n        /* \"#utility.yul\":13371:13380   */\n      dup4\n        /* \"#utility.yul\":13367:13384   */\n      add\n        /* \"#utility.yul\":13360:13407   */\n      mstore\n        /* \"#utility.yul\":13424:13555   */\n      tag_475\n        /* \"#utility.yul\":13550:13554   */\n      dup2\n        /* \"#utility.yul\":13424:13555   */\n      tag_295\n      jump\t// in\n    tag_475:\n        /* \"#utility.yul\":13416:13555   */\n      swap1\n      pop\n        /* \"#utility.yul\":13143:13562   */\n      swap2\n      swap1\n      pop\n      jump\t// out\n        /* \"#utility.yul\":13568:13742   */\n    tag_296:\n        /* \"#utility.yul\":13708:13734   */\n      0x415049206e616d652063616e6e6f7420626520656d7074790000000000000000\n        /* \"#utility.yul\":13704:13705   */\n      0x00\n        /* \"#utility.yul\":13696:13702   */\n      dup3\n        /* \"#utility.yul\":13692:13706   */\n      add\n        /* \"#utility.yul\":13685:13735   */\n      mstore\n        /* \"#utility.yul\":13568:13742   */\n      pop\n      jump\t// out\n        /* \"#utility.yul\":13748:14114   */\n    tag_297:\n        /* \"#utility.yul\":13890:13893   */\n      0x00\n        /* \"#utility.yul\":13911:13978   */\n      tag_478\n        /* \"#utility.yul\":13975:13977   */\n      0x18\n        /* \"#utility.yul\":13970:13973   */\n      dup4\n        /* \"#utility.yul\":13911:13978   */\n      tag_284\n      jump\t// in\n    tag_478:\n        /* \"#utility.yul\":13904:13978   */\n      swap2\n      pop\n        /* \"#utility.yul\":13987:14080   */\n      tag_479\n        /* \"#utility.yul\":14076:14079   */\n      dup3\n        /* \"#utility.yul\":13987:14080   */\n      tag_296\n      jump\t// in\n    tag_479:\n        /* \"#utility.yul\":14105:14107   */\n      0x20\n        /* \"#utility.yul\":14100:14103   */\n      dup3\n        /* \"#utility.yul\":14096:14108   */\n      add\n        /* \"#utility.yul\":14089:14108   */\n      swap1\n      pop\n        /* \"#utility.yul\":13748:14114   */\n      swap2\n      swap1\n      pop\n      jump\t// out\n        /* \"#utility.yul\":14120:14539   */\n    tag_119:\n        /* \"#utility.yul\":14286:14290   */\n      0x00\n        /* \"#utility.yul\":14324:14326   */\n      0x20\n        /* \"#utility.yul\":14313:14322   */\n      dup3\n        /* \"#utility.yul\":14309:14327   */\n      add\n        /* \"#utility.yul\":14301:14327   */\n      swap1\n      pop\n        /* \"#utility.yul\":14373:14382   */\n      dup2\n        /* \"#utility.yul\":14367:14371   */\n      dup2\n        /* \"#utility.yul\":14363:14383   */\n      sub\n        /* \"#utility.yul\":14359:14360   */\n      0x00\n        /* \"#utility.yul\":14348:14357   */\n      dup4\n        /* \"#utility.yul\":14344:14361   */\n      add\n        /* \"#utility.yul\":14337:14384   */\n      mstore\n        /* \"#utility.yul\":14401:14532   */\n      tag_481\n        /* \"#utility.yul\":14527:14531   */\n      dup2\n        /* \"#utility.yul\":14401:14532   */\n      tag_297\n      jump\t// in\n    tag_481:\n        /* \"#utility.yul\":14393:14532   */\n      swap1\n      pop\n        /* \"#utility.yul\":14120:14539   */\n      swap2\n      swap1\n      pop\n      jump\t// out\n        /* \"#utility.yul\":14545:14768   */\n    tag_298:\n        /* \"#utility.yul\":14685:14719   */\n      0x4174206c65617374206f6e652070726963696e67206f7074696f6e2072657175\n        /* \"#utility.yul\":14681:14682   */\n      0x00\n        /* \"#utility.yul\":14673:14679   */\n      dup3\n        /* \"#utility.yul\":14669:14683   */\n      add\n        /* \"#utility.yul\":14662:14720   */\n      mstore\n        /* \"#utility.yul\":14754:14760   */\n      0x6972656400000000000000000000000000000000000000000000000000000000\n        /* \"#utility.yul\":14749:14751   */\n      0x20\n        /* \"#utility.yul\":14741:14747   */\n      dup3\n        /* \"#utility.yul\":14737:14752   */\n      add\n        /* \"#utility.yul\":14730:14761   */\n      mstore\n        /* \"#utility.yul\":14545:14768   */\n      pop\n      jump\t// out\n        /* \"#utility.yul\":14774:15140   */\n    tag_299:\n        /* \"#utility.yul\":14916:14919   */\n      0x00\n        /* \"#utility.yul\":14937:15004   */\n      tag_484\n        /* \"#utility.yul\":15001:15003   */\n      0x24\n        /* \"#utility.yul\":14996:14999   */\n      dup4\n        /* \"#utility.yul\":14937:15004   */\n      tag_284\n      jump\t// in\n    tag_484:\n        /* \"#utility.yul\":14930:15004   */\n      swap2\n      pop\n        /* \"#utility.yul\":15013:15106   */\n      tag_485\n        /* \"#utility.yul\":15102:15105   */\n      dup3\n        /* \"#utility.yul\":15013:15106   */\n      tag_298\n      jump\t// in\n    tag_485:\n        /* \"#utility.yul\":15131:15133   */\n      0x40\n        /* \"#utility.yul\":15126:15129   */\n      dup3\n        /* \"#utility.yul\":15122:15134   */\n      add\n        /* \"#utility.yul\":15115:15134   */\n      swap1\n      pop\n        /* \"#utility.yul\":14774:15140   */\n      swap2\n      swap1\n      pop\n      jump\t// out\n        /* \"#utility.yul\":15146:15565   */\n    tag_123:\n        /* \"#utility.yul\":15312:15316   */\n      0x00\n        /* \"#utility.yul\":15350:15352   */\n      0x20\n        /* \"#utility.yul\":15339:15348   */\n      dup3\n        /* \"#utility.yul\":15335:15353   */\n      add\n        /* \"#utility.yul\":15327:15353   */\n      swap1\n      pop\n        /* \"#utility.yul\":15399:15408   */\n      dup2\n        /* \"#utility.yul\":15393:15397   */\n      dup2\n        /* \"#utility.yul\":15389:15409   */\n      sub\n        /* \"#utility.yul\":15385:15386   */\n      0x00\n        /* \"#utility.yul\":15374:15383   */\n      dup4\n        /* \"#utility.yul\":15370:15387   */\n      add\n        /* \"#utility.yul\":15363:15410   */\n      mstore\n        /* \"#utility.yul\":15427:15558   */\n      tag_487\n        /* \"#utility.yul\":15553:15557   */\n      dup2\n        /* \"#utility.yul\":15427:15558   */\n      tag_299\n      jump\t// in\n    tag_487:\n        /* \"#utility.yul\":15419:15558   */\n      swap1\n      pop\n        /* \"#utility.yul\":15146:15565   */\n      swap2\n      swap1\n      pop\n      jump\t// out\n        /* \"#utility.yul\":15571:15751   */\n    tag_300:\n        /* \"#utility.yul\":15619:15696   */\n      0x4e487b7100000000000000000000000000000000000000000000000000000000\n        /* \"#utility.yul\":15616:15617   */\n      0x00\n        /* \"#utility.yul\":15609:15697   */\n      mstore\n        /* \"#utility.yul\":15716:15720   */\n      0x11\n        /* \"#utility.yul\":15713:15714   */\n      0x04\n        /* \"#utility.yul\":15706:15721   */\n      mstore\n        /* \"#utility.yul\":15740:15744   */\n      0x24\n        /* \"#utility.yul\":15737:15738   */\n      0x00\n        /* \"#utility.yul\":15730:15745   */\n      revert\n        /* \"#utility.yul\":15757:15990   */\n    tag_125:\n        /* \"#utility.yul\":15796:15799   */\n      0x00\n        /* \"#utility.yul\":15819:15843   */\n      tag_490\n        /* \"#utility.yul\":15837:15842   */\n      dup3\n        /* \"#utility.yul\":15819:15843   */\n      tag_260\n      jump\t// in\n    tag_490:\n        /* \"#utility.yul\":15810:15843   */\n      swap2\n      pop\n        /* \"#utility.yul\":15865:15931   */\n      0xffffffffffffffffffffffffffffffffffffffffffffffffffffffffffffffff\n        /* \"#utility.yul\":15858:15863   */\n      dup3\n        /* \"#utility.yul\":15855:15932   */\n      sub\n        /* \"#utility.yul\":15852:15955   */\n      tag_491\n      jumpi\n        /* \"#utility.yul\":15935:15953   */\n      tag_492\n      tag_300\n      jump\t// in\n    tag_492:\n        /* \"#utility.yul\":15852:15955   */\n    tag_491:\n        /* \"#utility.yul\":15982:15983   */\n      0x01\n        /* \"#utility.yul\":15975:15980   */\n      dup3\n        /* \"#utility.yul\":15971:15984   */\n      add\n        /* \"#utility.yul\":15964:15984   */\n      swap1\n      pop\n        /* \"#utility.yul\":15757:15990   */\n      swap2\n      swap1\n      pop\n      jump\t// out\n        /* \"#utility.yul\":15996:16176   */\n    tag_301:\n        /* \"#utility.yul\":16044:16121   */\n      0x4e487b7100000000000000000000000000000000000000000000000000000000\n        /* \"#utility.yul\":16041:16042   */\n      0x00\n        /* \"#utility.yul\":16034:16122   */\n      mstore\n        /* \"#utility.yul\":16141:16145   */\n      0x22\n        /* \"#utility.yul\":16138:16139   */\n      0x04\n        /* \"#utility.yul\":16131:16146   */\n      mstore\n        /* \"#utility.yul\":16165:16169   */\n      0x24\n        /* \"#utility.yul\":16162:16163   */\n      0x00\n        /* \"#utility.yul\":16155:16170   */\n      revert\n        /* \"#utility.yul\":16182:16502   */\n    tag_189:\n        /* \"#utility.yul\":16226:16232   */\n      0x00\n        /* \"#utility.yul\":16263:16264   */\n      0x02\n        /* \"#utility.yul\":16257:16261   */\n      dup3\n        /* \"#utility.yul\":16253:16265   */\n      div\n        /* \"#utility.yul\":16243:16265   */\n      swap1\n      pop\n        /* \"#utility.yul\":16310:16311   */\n      0x01\n        /* \"#utility.yul\":16304:16308   */\n      dup3\n        /* \"#utility.yul\":16300:16312   */\n      and\n        /* \"#utility.yul\":16331:16349   */\n      dup1\n        /* \"#utility.yul\":16321:16402   */\n      tag_495\n      jumpi\n        /* \"#utility.yul\":16387:16391   */\n      0x7f\n        /* \"#utility.yul\":16379:16385   */\n      dup3\n        /* \"#utility.yul\":16375:16392   */\n      and\n        /* \"#utility.yul\":16365:16392   */\n      swap2\n      pop\n        /* \"#utility.yul\":16321:16402   */\n    tag_495:\n        /* \"#utility.yul\":16449:16451   */\n      0x20\n        /* \"#utility.yul\":16441:16447   */\n      dup3\n        /* \"#utility.yul\":16438:16452   */\n      lt\n        /* \"#utility.yul\":16418:16436   */\n      dup2\n        /* \"#utility.yul\":16415:16453   */\n      sub\n        /* \"#utility.yul\":16412:16496   */\n      tag_496\n      jumpi\n        /* \"#utility.yul\":16468:16486   */\n      tag_497\n      tag_301\n      jump\t// in\n    tag_497:\n        /* \"#utility.yul\":16412:16496   */\n    tag_496:\n        /* \"#utility.yul\":16233:16502   */\n      pop\n        /* \"#utility.yul\":16182:16502   */\n      swap2\n      swap1\n      pop\n      jump\t// out\n        /* \"#utility.yul\":16508:16649   */\n    tag_302:\n        /* \"#utility.yul\":16557:16561   */\n      0x00\n        /* \"#utility.yul\":16580:16583   */\n      dup2\n        /* \"#utility.yul\":16572:16583   */\n      swap1\n      pop\n        /* \"#utility.yul\":16603:16606   */\n      dup2\n        /* \"#utility.yul\":16600:16601   */\n      0x00\n        /* \"#utility.yul\":16593:16607   */\n      mstore\n        /* \"#utility.yul\":16637:16641   */\n      0x20\n        /* \"#utility.yul\":16634:16635   */\n      0x00\n        /* \"#utility.yul\":16624:16642   */\n      keccak256\n        /* \"#utility.yul\":16616:16642   */\n      swap1\n      pop\n        /* \"#utility.yul\":16508:16649   */\n      swap2\n      swap1\n      pop\n      jump\t// out\n        /* \"#utility.yul\":16655:16748   */\n    tag_303:\n        /* \"#utility.yul\":16692:16698   */\n      0x00\n        /* \"#utility.yul\":16739:16741   */\n      0x20\n        /* \"#utility.yul\":16734:16736   */\n      0x1f\n        /* \"#utility.yul\":16727:16732   */\n      dup4\n        /* \"#utility.yul\":16723:16737   */\n      add\n        /* \"#utility.yul\":16719:16742   */\n      div\n        /* \"#utility.yul\":16709:16742   */\n      swap1\n      pop\n        /* \"#utility.yul\":16655:16748   */\n      swap2\n      swap1\n      pop\n      jump\t// out\n        /* \"#utility.yul\":16754:16861   */\n    tag_304:\n        /* \"#utility.yul\":16798:16806   */\n      0x00\n        /* \"#utility.yul\":16848:16853   */\n      dup3\n        /* \"#utility.yul\":16842:16846   */\n      dup3\n        /* \"#utility.yul\":16838:16854   */\n      shl\n        /* \"#utility.yul\":16817:16854   */\n      swap1\n      pop\n        /* \"#utility.yul\":16754:16861   */\n      swap3\n      swap2\n      pop\n      pop\n      jump\t// out\n        /* \"#utility.yul\":16867:17260   */\n    tag_305:\n        /* \"#utility.yul\":16936:16942   */\n      0x00\n        /* \"#utility.yul\":16986:16987   */\n      0x08\n        /* \"#utility.yul\":16974:16984   */\n      dup4\n        /* \"#utility.yul\":16970:16988   */\n      mul\n        /* \"#utility.yul\":17009:17106   */\n      tag_502\n        /* \"#utility.yul\":17039:17105   */\n      0xffffffffffffffffffffffffffffffffffffffffffffffffffffffffffffffff\n        /* \"#utility.yul\":17028:17037   */\n      dup3\n        /* \"#utility.yul\":17009:17106   */\n      tag_304\n      jump\t// in\n    tag_502:\n        /* \"#utility.yul\":17127:17166   */\n      tag_503\n        /* \"#utility.yul\":17157:17165   */\n      dup7\n        /* \"#utility.yul\":17146:17155   */\n      dup4\n        /* \"#utility.yul\":17127:17166   */\n      tag_304\n      jump\t// in\n    tag_503:\n        /* \"#utility.yul\":17115:17166   */\n      swap6\n      pop\n        /* \"#utility.yul\":17199:17203   */\n      dup1\n        /* \"#utility.yul\":17195:17204   */\n      not\n        /* \"#utility.yul\":17188:17193   */\n      dup5\n        /* \"#utility.yul\":17184:17205   */\n      and\n        /* \"#utility.yul\":17175:17205   */\n      swap4\n      pop\n        /* \"#utility.yul\":17248:17252   */\n      dup1\n        /* \"#utility.yul\":17238:17246   */\n      dup7\n        /* \"#utility.yul\":17234:17253   */\n      and\n        /* \"#utility.yul\":17227:17232   */\n      dup5\n        /* \"#utility.yul\":17224:17254   */\n      or\n        /* \"#utility.yul\":17214:17254   */\n      swap3\n      pop\n        /* \"#utility.yul\":16943:17260   */\n      pop\n      pop\n        /* \"#utility.yul\":16867:17260   */\n      swap4\n      swap3\n      pop\n      pop\n      pop\n      jump\t// out\n        /* \"#utility.yul\":17266:17408   */\n    tag_306:\n        /* \"#utility.yul\":17316:17325   */\n      0x00\n        /* \"#utility.yul\":17349:17402   */\n      tag_505\n        /* \"#utility.yul\":17367:17401   */\n      tag_506\n        /* \"#utility.yul\":17376:17400   */\n      tag_507\n        /* \"#utility.yul\":17394:17399   */\n      dup5\n        /* \"#utility.yul\":17376:17400   */\n      tag_260\n      jump\t// in\n    tag_507:\n        /* \"#utility.yul\":17367:17401   */\n      tag_287\n      jump\t// in\n    tag_506:\n        /* \"#utility.yul\":17349:17402   */\n      tag_260\n      jump\t// in\n    tag_505:\n        /* \"#utility.yul\":17336:17402   */\n      swap1\n      pop\n        /* \"#utility.yul\":17266:17408   */\n      swap2\n      swap1\n      pop\n      jump\t// out\n        /* \"#utility.yul\":17414:17489   */\n    tag_307:\n        /* \"#utility.yul\":17457:17460   */\n      0x00\n        /* \"#utility.yul\":17478:17483   */\n      dup2\n        /* \"#utility.yul\":17471:17483   */\n      swap1\n      pop\n        /* \"#utility.yul\":17414:17489   */\n      swap2\n      swap1\n      pop\n      jump\t// out\n        /* \"#utility.yul\":17495:17764   */\n    tag_308:\n        /* \"#utility.yul\":17605:17644   */\n      tag_510\n        /* \"#utility.yul\":17636:17643   */\n      dup4\n        /* \"#utility.yul\":17605:17644   */\n      tag_306\n      jump\t// in\n    tag_510:\n        /* \"#utility.yul\":17666:17757   */\n      tag_511\n        /* \"#utility.yul\":17715:17756   */\n      tag_512\n        /* \"#utility.yul\":17739:17755   */\n      dup3\n        /* \"#utility.yul\":17715:17756   */\n      tag_307\n      jump\t// in\n    tag_512:\n        /* \"#utility.yul\":17707:17713   */\n      dup5\n        /* \"#utility.yul\":17700:17704   */\n      dup5\n        /* \"#utility.yul\":17694:17705   */\n      sload\n        /* \"#utility.yul\":17666:17757   */\n      tag_305\n      jump\t// in\n    tag_511:\n        /* \"#utility.yul\":17660:17664   */\n      dup3\n        /* \"#utility.yul\":17653:17758   */\n      sstore\n        /* \"#utility.yul\":17571:17764   */\n      pop\n        /* \"#utility.yul\":17495:17764   */\n      pop\n      pop\n      pop\n      jump\t// out\n        /* \"#utility.yul\":17770:17843   */\n    tag_309:\n        /* \"#utility.yul\":17815:17818   */\n      0x00\n        /* \"#utility.yul\":17770:17843   */\n      swap1\n      jump\t// out\n        /* \"#utility.yul\":17849:18038   */\n    tag_310:\n        /* \"#utility.yul\":17926:17958   */\n      tag_515\n      tag_309\n      jump\t// in\n    tag_515:\n        /* \"#utility.yul\":17967:18032   */\n      tag_516\n        /* \"#utility.yul\":18025:18031   */\n      dup2\n        /* \"#utility.yul\":18017:18023   */\n      dup5\n        /* \"#utility.yul\":18011:18015   */\n      dup5\n        /* \"#utility.yul\":17967:18032   */\n      tag_308\n      jump\t// in\n    tag_516:\n        /* \"#utility.yul\":17902:18038   */\n      pop\n        /* \"#utility.yul\":17849:18038   */\n      pop\n      pop\n      jump\t// out\n        /* \"#utility.yul\":18044:18230   */\n    tag_311:\n        /* \"#utility.yul\":18104:18224   */\n    tag_518:\n        /* \"#utility.yul\":18121:18124   */\n      dup2\n        /* \"#utility.yul\":18114:18119   */\n      dup2\n        /* \"#utility.yul\":18111:18125   */\n      lt\n        /* \"#utility.yul\":18104:18224   */\n      iszero\n      tag_520\n      jumpi\n        /* \"#utility.yul\":18175:18214   */\n      tag_521\n        /* \"#utility.yul\":18212:18213   */\n      0x00\n        /* \"#utility.yul\":18205:18210   */\n      dup3\n        /* \"#utility.yul\":18175:18214   */\n      tag_310\n      jump\t// in\n    tag_521:\n        /* \"#utility.yul\":18148:18149   */\n      0x01\n        /* \"#utility.yul\":18141:18146   */\n      dup2\n        /* \"#utility.yul\":18137:18150   */\n      add\n        /* \"#utility.yul\":18128:18150   */\n      swap1\n      pop\n        /* \"#utility.yul\":18104:18224   */\n      jump(tag_518)\n    tag_520:\n        /* \"#utility.yul\":18044:18230   */\n      pop\n      pop\n      jump\t// out\n        /* \"#utility.yul\":18236:18779   */\n    tag_312:\n        /* \"#utility.yul\":18337:18339   */\n      0x1f\n        /* \"#utility.yul\":18332:18335   */\n      dup3\n        /* \"#utility.yul\":18329:18340   */\n      gt\n        /* \"#utility.yul\":18326:18772   */\n      iszero\n      tag_523\n      jumpi\n        /* \"#utility.yul\":18371:18409   */\n      tag_524\n        /* \"#utility.yul\":18403:18408   */\n      dup2\n        /* \"#utility.yul\":18371:18409   */\n      tag_302\n      jump\t// in\n    tag_524:\n        /* \"#utility.yul\":18455:18484   */\n      tag_525\n        /* \"#utility.yul\":18473:18483   */\n      dup5\n        /* \"#utility.yul\":18455:18484   */\n      tag_303\n      jump\t// in\n    tag_525:\n        /* \"#utility.yul\":18445:18453   */\n      dup2\n        /* \"#utility.yul\":18441:18485   */\n      add\n        /* \"#utility.yul\":18638:18640   */\n      0x20\n        /* \"#utility.yul\":18626:18636   */\n      dup6\n        /* \"#utility.yul\":18623:18641   */\n      lt\n        /* \"#utility.yul\":18620:18669   */\n      iszero\n      tag_526\n      jumpi\n        /* \"#utility.yul\":18659:18667   */\n      dup2\n        /* \"#utility.yul\":18644:18667   */\n      swap1\n      pop\n        /* \"#utility.yul\":18620:18669   */\n    tag_526:\n        /* \"#utility.yul\":18682:18762   */\n      tag_527\n        /* \"#utility.yul\":18738:18760   */\n      tag_528\n        /* \"#utility.yul\":18756:18759   */\n      dup6\n        /* \"#utility.yul\":18738:18760   */\n      tag_303\n      jump\t// in\n    tag_528:\n        /* \"#utility.yul\":18728:18736   */\n      dup4\n        /* \"#utility.yul\":18724:18761   */\n      add\n        /* \"#utility.yul\":18711:18722   */\n      dup3\n        /* \"#utility.yul\":18682:18762   */\n      tag_311\n      jump\t// in\n    tag_527:\n        /* \"#utility.yul\":18341:18772   */\n      pop\n      pop\n        /* \"#utility.yul\":18326:18772   */\n    tag_523:\n        /* \"#utility.yul\":18236:18779   */\n      pop\n      pop\n      pop\n      jump\t// out\n        /* \"#utility.yul\":18785:18902   */\n    tag_313:\n        /* \"#utility.yul\":18839:18847   */\n      0x00\n        /* \"#utility.yul\":18889:18894   */\n      dup3\n        /* \"#utility.yul\":18883:18887   */\n      dup3\n        /* \"#utility.yul\":18879:18895   */\n      shr\n        /* \"#utility.yul\":18858:18895   */\n      swap1\n      pop\n        /* \"#utility.yul\":18785:18902   */\n      swap3\n      swap2\n      pop\n      pop\n      jump\t// out\n        /* \"#utility.yul\":18908:19077   */\n    tag_314:\n        /* \"#utility.yul\":18952:18958   */\n      0x00\n        /* \"#utility.yul\":18985:19036   */\n      tag_531\n        /* \"#utility.yul\":19033:19034   */\n      0x00\n        /* \"#utility.yul\":19029:19035   */\n      not\n        /* \"#utility.yul\":19021:19026   */\n      dup5\n        /* \"#utility.yul\":19018:19019   */\n      0x08\n        /* \"#utility.yul\":19014:19027   */\n      mul\n        /* \"#utility.yul\":18985:19036   */\n      tag_313\n      jump\t// in\n    tag_531:\n        /* \"#utility.yul\":18981:19037   */\n      not\n        /* \"#utility.yul\":19066:19070   */\n      dup1\n        /* \"#utility.yul\":19060:19064   */\n      dup4\n        /* \"#utility.yul\":19056:19071   */\n      and\n        /* \"#utility.yul\":19046:19071   */\n      swap2\n      pop\n        /* \"#utility.yul\":18959:19077   */\n      pop\n        /* \"#utility.yul\":18908:19077   */\n      swap3\n      swap2\n      pop\n      pop\n      jump\t// out\n        /* \"#utility.yul\":19082:19377   */\n    tag_315:\n        /* \"#utility.yul\":19158:19162   */\n      0x00\n        /* \"#utility.yul\":19304:19333   */\n      tag_533\n        /* \"#utility.yul\":19329:19332   */\n      dup4\n        /* \"#utility.yul\":19323:19327   */\n      dup4\n        /* \"#utility.yul\":19304:19333   */\n      tag_314\n      jump\t// in\n    tag_533:\n        /* \"#utility.yul\":19296:19333   */\n      swap2\n      pop\n        /* \"#utility.yul\":19366:19369   */\n      dup3\n        /* \"#utility.yul\":19363:19364   */\n      0x02\n        /* \"#utility.yul\":19359:19370   */\n      mul\n        /* \"#utility.yul\":19353:19357   */\n      dup3\n        /* \"#utility.yul\":19350:19371   */\n      or\n        /* \"#utility.yul\":19342:19371   */\n      swap1\n      pop\n        /* \"#utility.yul\":19082:19377   */\n      swap3\n      swap2\n      pop\n      pop\n      jump\t// out\n        /* \"#utility.yul\":19382:20777   */\n    tag_127:\n        /* \"#utility.yul\":19499:19536   */\n      tag_535\n        /* \"#utility.yul\":19532:19535   */\n      dup3\n        /* \"#utility.yul\":19499:19536   */\n      tag_283\n      jump\t// in\n    tag_535:\n        /* \"#utility.yul\":19601:19619   */\n      0xffffffffffffffff\n        /* \"#utility.yul\":19593:19599   */\n      dup2\n        /* \"#utility.yul\":19590:19620   */\n      gt\n        /* \"#utility.yul\":19587:19643   */\n      iszero\n      tag_536\n      jumpi\n        /* \"#utility.yul\":19623:19641   */\n      tag_537\n      tag_275\n      jump\t// in\n    tag_537:\n        /* \"#utility.yul\":19587:19643   */\n    tag_536:\n        /* \"#utility.yul\":19667:19705   */\n      tag_538\n        /* \"#utility.yul\":19699:19703   */\n      dup3\n        /* \"#utility.yul\":19693:19704   */\n      sload\n        /* \"#utility.yul\":19667:19705   */\n      tag_189\n      jump\t// in\n    tag_538:\n        /* \"#utility.yul\":19752:19819   */\n      tag_539\n        /* \"#utility.yul\":19812:19818   */\n      dup3\n        /* \"#utility.yul\":19804:19810   */\n      dup3\n        /* \"#utility.yul\":19798:19802   */\n      dup6\n        /* \"#utility.yul\":19752:19819   */\n      tag_312\n      jump\t// in\n    tag_539:\n        /* \"#utility.yul\":19846:19847   */\n      0x00\n        /* \"#utility.yul\":19870:19874   */\n      0x20\n        /* \"#utility.yul\":19857:19874   */\n      swap1\n      pop\n        /* \"#utility.yul\":19902:19904   */\n      0x1f\n        /* \"#utility.yul\":19894:19900   */\n      dup4\n        /* \"#utility.yul\":19891:19905   */\n      gt\n        /* \"#utility.yul\":19919:19920   */\n      0x01\n        /* \"#utility.yul\":19914:20532   */\n      dup2\n      eq\n      tag_541\n      jumpi\n        /* \"#utility.yul\":20576:20577   */\n      0x00\n        /* \"#utility.yul\":20593:20599   */\n      dup5\n        /* \"#utility.yul\":20590:20667   */\n      iszero\n      tag_542\n      jumpi\n        /* \"#utility.yul\":20642:20651   */\n      dup3\n        /* \"#utility.yul\":20637:20640   */\n      dup8\n        /* \"#utility.yul\":20633:20652   */\n      add\n        /* \"#utility.yul\":20627:20653   */\n      mload\n        /* \"#utility.yul\":20618:20653   */\n      swap1\n      pop\n        /* \"#utility.yul\":20590:20667   */\n    tag_542:\n        /* \"#utility.yul\":20693:20760   */\n      tag_543\n        /* \"#utility.yul\":20753:20759   */\n      dup6\n        /* \"#utility.yul\":20746:20751   */\n      dup3\n        /* \"#utility.yul\":20693:20760   */\n      tag_315\n      jump\t// in\n    tag_543:\n        /* \"#utility.yul\":20687:20691   */\n      dup7\n        /* \"#utility.yul\":20680:20761   */\n      sstore\n        /* \"#utility.yul\":20549:20771   */\n      pop\n        /* \"#utility.yul\":19884:20771   */\n      jump(tag_540)\n        /* \"#utility.yul\":19914:20532   */\n    tag_541:\n        /* \"#utility.yul\":19966:19970   */\n      0x1f\n        /* \"#utility.yul\":19962:19971   */\n      not\n        /* \"#utility.yul\":19954:19960   */\n      dup5\n        /* \"#utility.yul\":19950:19972   */\n      and\n        /* \"#utility.yul\":20000:20037   */\n      tag_544\n        /* \"#utility.yul\":20032:20036   */\n      dup7\n        /* \"#utility.yul\":20000:20037   */\n      tag_302\n      jump\t// in\n    tag_544:\n        /* \"#utility.yul\":20059:20060   */\n      0x00\n        /* \"#utility.yul\":20073:20281   */\n    tag_545:\n        /* \"#utility.yul\":20087:20094   */\n      dup3\n        /* \"#utility.yul\":20084:20085   */\n      dup2\n        /* \"#utility.yul\":20081:20095   */\n      lt\n        /* \"#utility.yul\":20073:20281   */\n      iszero\n      tag_547\n      jumpi\n        /* \"#utility.yul\":20166:20175   */\n      dup5\n        /* \"#utility.yul\":20161:20164   */\n      dup10\n        /* \"#utility.yul\":20157:20176   */\n      add\n        /* \"#utility.yul\":20151:20177   */\n      mload\n        /* \"#utility.yul\":20143:20149   */\n      dup3\n        /* \"#utility.yul\":20136:20178   */\n      sstore\n        /* \"#utility.yul\":20217:20218   */\n      0x01\n        /* \"#utility.yul\":20209:20215   */\n      dup3\n        /* \"#utility.yul\":20205:20219   */\n      add\n        /* \"#utility.yul\":20195:20219   */\n      swap2\n      pop\n        /* \"#utility.yul\":20264:20266   */\n      0x20\n        /* \"#utility.yul\":20253:20262   */\n      dup6\n        /* \"#utility.yul\":20249:20267   */\n      add\n        /* \"#utility.yul\":20236:20267   */\n      swap5\n      pop\n        /* \"#utility.yul\":20110:20114   */\n      0x20\n        /* \"#utility.yul\":20107:20108   */\n      dup2\n        /* \"#utility.yul\":20103:20115   */\n      add\n        /* \"#utility.yul\":20098:20115   */\n      swap1\n      pop\n        /* \"#utility.yul\":20073:20281   */\n      jump(tag_545)\n    tag_547:\n        /* \"#utility.yul\":20309:20315   */\n      dup7\n        /* \"#utility.yul\":20300:20307   */\n      dup4\n        /* \"#utility.yul\":20297:20316   */\n      lt\n        /* \"#utility.yul\":20294:20473   */\n      iszero\n      tag_548\n      jumpi\n        /* \"#utility.yul\":20367:20376   */\n      dup5\n        /* \"#utility.yul\":20362:20365   */\n      dup10\n        /* \"#utility.yul\":20358:20377   */\n      add\n        /* \"#utility.yul\":20352:20378   */\n      mload\n        /* \"#utility.yul\":20410:20458   */\n      tag_549\n        /* \"#utility.yul\":20452:20456   */\n      0x1f\n        /* \"#utility.yul\":20444:20450   */\n      dup10\n        /* \"#utility.yul\":20440:20457   */\n      and\n        /* \"#utility.yul\":20429:20438   */\n      dup3\n        /* \"#utility.yul\":20410:20458   */\n      tag_314\n      jump\t// in\n    tag_549:\n        /* \"#utility.yul\":20402:20408   */\n      dup4\n        /* \"#utility.yul\":20395:20459   */\n      sstore\n        /* \"#utility.yul\":20317:20473   */\n      pop\n        /* \"#utility.yul\":20294:20473   */\n    tag_548:\n        /* \"#utility.yul\":20519:20520   */\n      0x01\n        /* \"#utility.yul\":20515:20516   */\n      0x02\n        /* \"#utility.yul\":20507:20513   */\n      dup9\n        /* \"#utility.yul\":20503:20517   */\n      mul\n        /* \"#utility.yul\":20499:20521   */\n      add\n        /* \"#utility.yul\":20493:20497   */\n      dup9\n        /* \"#utility.yul\":20486:20522   */\n      sstore\n        /* \"#utility.yul\":19921:20532   */\n      pop\n      pop\n      pop\n        /* \"#utility.yul\":19884:20771   */\n    tag_540:\n      pop\n        /* \"#utility.yul\":19474:20777   */\n      pop\n      pop\n      pop\n        /* \"#utility.yul\":19382:20777   */\n      pop\n      pop\n      jump\t// out\n        /* \"#utility.yul\":20783:21316   */\n    tag_129:\n        /* \"#utility.yul\":20952:20956   */\n      0x00\n        /* \"#utility.yul\":20990:20992   */\n      0x60\n        /* \"#utility.yul\":20979:20988   */\n      dup3\n        /* \"#utility.yul\":20975:20993   */\n      add\n        /* \"#utility.yul\":20967:20993   */\n      swap1\n      pop\n        /* \"#utility.yul\":21039:21048   */\n      dup2\n        /* \"#utility.yul\":21033:21037   */\n      dup2\n        /* \"#utility.yul\":21029:21049   */\n      sub\n        /* \"#utility.yul\":21025:21026   */\n      0x00\n        /* \"#utility.yul\":21014:21023   */\n      dup4\n        /* \"#utility.yul\":21010:21027   */\n      add\n        /* \"#utility.yul\":21003:21050   */\n      mstore\n        /* \"#utility.yul\":21067:21145   */\n      tag_551\n        /* \"#utility.yul\":21140:21144   */\n      dup2\n        /* \"#utility.yul\":21131:21137   */\n      dup7\n        /* \"#utility.yul\":21067:21145   */\n      tag_286\n      jump\t// in\n    tag_551:\n        /* \"#utility.yul\":21059:21145   */\n      swap1\n      pop\n        /* \"#utility.yul\":21155:21227   */\n      tag_552\n        /* \"#utility.yul\":21223:21225   */\n      0x20\n        /* \"#utility.yul\":21212:21221   */\n      dup4\n        /* \"#utility.yul\":21208:21226   */\n      add\n        /* \"#utility.yul\":21199:21205   */\n      dup6\n        /* \"#utility.yul\":21155:21227   */\n      tag_261\n      jump\t// in\n    tag_552:\n        /* \"#utility.yul\":21237:21309   */\n      tag_553\n        /* \"#utility.yul\":21305:21307   */\n      0x40\n        /* \"#utility.yul\":21294:21303   */\n      dup4\n        /* \"#utility.yul\":21290:21308   */\n      add\n        /* \"#utility.yul\":21281:21287   */\n      dup5\n        /* \"#utility.yul\":21237:21309   */\n      tag_261\n      jump\t// in\n    tag_553:\n        /* \"#utility.yul\":20783:21316   */\n      swap5\n      swap4\n      pop\n      pop\n      pop\n      pop\n      jump\t// out\n        /* \"#utility.yul\":21322:21543   */\n    tag_316:\n        /* \"#utility.yul\":21462:21496   */\n      0x4d757374207075726368617365206174206c65617374206f6e65207265717565\n        /* \"#utility.yul\":21458:21459   */\n      0x00\n        /* \"#utility.yul\":21450:21456   */\n      dup3\n        /* \"#utility.yul\":21446:21460   */\n      add\n        /* \"#utility.yul\":21439:21497   */\n      mstore\n        /* \"#utility.yul\":21531:21535   */\n      0x7374000000000000000000000000000000000000000000000000000000000000\n        /* \"#utility.yul\":21526:21528   */\n      0x20\n        /* \"#utility.yul\":21518:21524   */\n      dup3\n        /* \"#utility.yul\":21514:21529   */\n      add\n        /* \"#utility.yul\":21507:21536   */\n      mstore\n        /* \"#utility.yul\":21322:21543   */\n      pop\n      jump\t// out\n        /* \"#utility.yul\":21549:21915   */\n    tag_317:\n        /* \"#utility.yul\":21691:21694   */\n      0x00\n        /* \"#utility.yul\":21712:21779   */\n      tag_556\n        /* \"#utility.yul\":21776:21778   */\n      0x22\n        /* \"#utility.yul\":21771:21774   */\n      dup4\n        /* \"#utility.yul\":21712:21779   */\n      tag_284\n      jump\t// in\n    tag_556:\n        /* \"#utility.yul\":21705:21779   */\n      swap2\n      pop\n        /* \"#utility.yul\":21788:21881   */\n      tag_557\n        /* \"#utility.yul\":21877:21880   */\n      dup3\n        /* \"#utility.yul\":21788:21881   */\n      tag_316\n      jump\t// in\n    tag_557:\n        /* \"#utility.yul\":21906:21908   */\n      0x40\n        /* \"#utility.yul\":21901:21904   */\n      dup3\n        /* \"#utility.yul\":21897:21909   */\n      add\n        /* \"#utility.yul\":21890:21909   */\n      swap1\n      pop\n        /* \"#utility.yul\":21549:21915   */\n      swap2\n      swap1\n      pop\n      jump\t// out\n        /* \"#utility.yul\":21921:22340   */\n    tag_135:\n        /* \"#utility.yul\":22087:22091   */\n      0x00\n        /* \"#utility.yul\":22125:22127   */\n      0x20\n        /* \"#utility.yul\":22114:22123   */\n      dup3\n        /* \"#utility.yul\":22110:22128   */\n      add\n        /* \"#utility.yul\":22102:22128   */\n      swap1\n      pop\n        /* \"#utility.yul\":22174:22183   */\n      dup2\n        /* \"#utility.yul\":22168:22172   */\n      dup2\n        /* \"#utility.yul\":22164:22184   */\n      sub\n        /* \"#utility.yul\":22160:22161   */\n      0x00\n        /* \"#utility.yul\":22149:22158   */\n      dup4\n        /* \"#utility.yul\":22145:22162   */\n      add\n        /* \"#utility.yul\":22138:22185   */\n      mstore\n        /* \"#utility.yul\":22202:22333   */\n      tag_559\n        /* \"#utility.yul\":22328:22332   */\n      dup2\n        /* \"#utility.yul\":22202:22333   */\n      tag_317\n      jump\t// in\n    tag_559:\n        /* \"#utility.yul\":22194:22333   */\n      swap1\n      pop\n        /* \"#utility.yul\":21921:22340   */\n      swap2\n      swap1\n      pop\n      jump\t// out\n        /* \"#utility.yul\":22346:22513   */\n    tag_318:\n        /* \"#utility.yul\":22486:22505   */\n      0x415049206973206e6f7420616374697665000000000000000000000000000000\n        /* \"#utility.yul\":22482:22483   */\n      0x00\n        /* \"#utility.yul\":22474:22480   */\n      dup3\n        /* \"#utility.yul\":22470:22484   */\n      add\n        /* \"#utility.yul\":22463:22506   */\n      mstore\n        /* \"#utility.yul\":22346:22513   */\n      pop\n      jump\t// out\n        /* \"#utility.yul\":22519:22885   */\n    tag_319:\n        /* \"#utility.yul\":22661:22664   */\n      0x00\n        /* \"#utility.yul\":22682:22749   */\n      tag_562\n        /* \"#utility.yul\":22746:22748   */\n      0x11\n        /* \"#utility.yul\":22741:22744   */\n      dup4\n        /* \"#utility.yul\":22682:22749   */\n      tag_284\n      jump\t// in\n    tag_562:\n        /* \"#utility.yul\":22675:22749   */\n      swap2\n      pop\n        /* \"#utility.yul\":22758:22851   */\n      tag_563\n        /* \"#utility.yul\":22847:22850   */\n      dup3\n        /* \"#utility.yul\":22758:22851   */\n      tag_318\n      jump\t// in\n    tag_563:\n        /* \"#utility.yul\":22876:22878   */\n      0x20\n        /* \"#utility.yul\":22871:22874   */\n      dup3\n        /* \"#utility.yul\":22867:22879   */\n      add\n        /* \"#utility.yul\":22860:22879   */\n      swap1\n      pop\n        /* \"#utility.yul\":22519:22885   */\n      swap2\n      swap1\n      pop\n      jump\t// out\n        /* \"#utility.yul\":22891:23310   */\n    tag_138:\n        /* \"#utility.yul\":23057:23061   */\n      0x00\n        /* \"#utility.yul\":23095:23097   */\n      0x20\n        /* \"#utility.yul\":23084:23093   */\n      dup3\n        /* \"#utility.yul\":23080:23098   */\n      add\n        /* \"#utility.yul\":23072:23098   */\n      swap1\n      pop\n        /* \"#utility.yul\":23144:23153   */\n      dup2\n        /* \"#utility.yul\":23138:23142   */\n      dup2\n        /* \"#utility.yul\":23134:23154   */\n      sub\n        /* \"#utility.yul\":23130:23131   */\n      0x00\n        /* \"#utility.yul\":23119:23128   */\n      dup4\n        /* \"#utility.yul\":23115:23132   */\n      add\n        /* \"#utility.yul\":23108:23155   */\n      mstore\n        /* \"#utility.yul\":23172:23303   */\n      tag_565\n        /* \"#utility.yul\":23298:23302   */\n      dup2\n        /* \"#utility.yul\":23172:23303   */\n      tag_319\n      jump\t// in\n    tag_565:\n        /* \"#utility.yul\":23164:23303   */\n      swap1\n      pop\n        /* \"#utility.yul\":22891:23310   */\n      swap2\n      swap1\n      pop\n      jump\t// out\n        /* \"#utility.yul\":23316:23726   */\n    tag_140:\n        /* \"#utility.yul\":23356:23363   */\n      0x00\n        /* \"#utility.yul\":23379:23399   */\n      tag_567\n        /* \"#utility.yul\":23397:23398   */\n      dup3\n        /* \"#utility.yul\":23379:23399   */\n      tag_260\n      jump\t// in\n    tag_567:\n        /* \"#utility.yul\":23374:23399   */\n      swap2\n      pop\n        /* \"#utility.yul\":23413:23433   */\n      tag_568\n        /* \"#utility.yul\":23431:23432   */\n      dup4\n        /* \"#utility.yul\":23413:23433   */\n      tag_260\n      jump\t// in\n    tag_568:\n        /* \"#utility.yul\":23408:23433   */\n      swap3\n      pop\n        /* \"#utility.yul\":23468:23469   */\n      dup3\n        /* \"#utility.yul\":23465:23466   */\n      dup3\n        /* \"#utility.yul\":23461:23470   */\n      mul\n        /* \"#utility.yul\":23490:23520   */\n      tag_569\n        /* \"#utility.yul\":23508:23519   */\n      dup2\n        /* \"#utility.yul\":23490:23520   */\n      tag_260\n      jump\t// in\n    tag_569:\n        /* \"#utility.yul\":23479:23520   */\n      swap2\n      pop\n        /* \"#utility.yul\":23669:23670   */\n      dup3\n        /* \"#utility.yul\":23660:23667   */\n      dup3\n        /* \"#utility.yul\":23656:23671   */\n      div\n        /* \"#utility.yul\":23653:23654   */\n      dup5\n        /* \"#utility.yul\":23650:23672   */\n      eq\n        /* \"#utility.yul\":23630:23631   */\n      dup4\n        /* \"#utility.yul\":23623:23632   */\n      iszero\n        /* \"#utility.yul\":23603:23686   */\n      or\n        /* \"#utility.yul\":23580:23719   */\n      tag_570\n      jumpi\n        /* \"#utility.yul\":23699:23717   */\n      tag_571\n      tag_300\n      jump\t// in\n    tag_571:\n        /* \"#utility.yul\":23580:23719   */\n    tag_570:\n        /* \"#utility.yul\":23364:23726   */\n      pop\n        /* \"#utility.yul\":23316:23726   */\n      swap3\n      swap2\n      pop\n      pop\n      jump\t// out\n        /* \"#utility.yul\":23732:23923   */\n    tag_144:\n        /* \"#utility.yul\":23772:23775   */\n      0x00\n        /* \"#utility.yul\":23791:23811   */\n      tag_573\n        /* \"#utility.yul\":23809:23810   */\n      dup3\n        /* \"#utility.yul\":23791:23811   */\n      tag_260\n      jump\t// in\n    tag_573:\n        /* \"#utility.yul\":23786:23811   */\n      swap2\n      pop\n        /* \"#utility.yul\":23825:23845   */\n      tag_574\n        /* \"#utility.yul\":23843:23844   */\n      dup4\n        /* \"#utility.yul\":23825:23845   */\n      tag_260\n      jump\t// in\n    tag_574:\n        /* \"#utility.yul\":23820:23845   */\n      swap3\n      pop\n        /* \"#utility.yul\":23868:23869   */\n      dup3\n        /* \"#utility.yul\":23865:23866   */\n      dup3\n        /* \"#utility.yul\":23861:23870   */\n      add\n        /* \"#utility.yul\":23854:23870   */\n      swap1\n      pop\n        /* \"#utility.yul\":23889:23892   */\n      dup1\n        /* \"#utility.yul\":23886:23887   */\n      dup3\n        /* \"#utility.yul\":23883:23893   */\n      gt\n        /* \"#utility.yul\":23880:23916   */\n      iszero\n      tag_575\n      jumpi\n        /* \"#utility.yul\":23896:23914   */\n      tag_576\n      tag_300\n      jump\t// in\n    tag_576:\n        /* \"#utility.yul\":23880:23916   */\n    tag_575:\n        /* \"#utility.yul\":23732:23923   */\n      swap3\n      swap2\n      pop\n      pop\n      jump\t// out\n        /* \"#utility.yul\":23929:24072   */\n    tag_320:\n        /* \"#utility.yul\":23986:23991   */\n      0x00\n        /* \"#utility.yul\":24017:24023   */\n      dup2\n        /* \"#utility.yul\":24011:24024   */\n      mload\n        /* \"#utility.yul\":24002:24024   */\n      swap1\n      pop\n        /* \"#utility.yul\":24033:24066   */\n      tag_578\n        /* \"#utility.yul\":24060:24065   */\n      dup2\n        /* \"#utility.yul\":24033:24066   */\n      tag_262\n      jump\t// in\n    tag_578:\n        /* \"#utility.yul\":23929:24072   */\n      swap3\n      swap2\n      pop\n      pop\n      jump\t// out\n        /* \"#utility.yul\":24078:24429   */\n    tag_166:\n        /* \"#utility.yul\":24148:24154   */\n      0x00\n        /* \"#utility.yul\":24197:24199   */\n      0x20\n        /* \"#utility.yul\":24185:24194   */\n      dup3\n        /* \"#utility.yul\":24176:24183   */\n      dup5\n        /* \"#utility.yul\":24172:24195   */\n      sub\n        /* \"#utility.yul\":24168:24200   */\n      slt\n        /* \"#utility.yul\":24165:24284   */\n      iszero\n      tag_580\n      jumpi\n        /* \"#utility.yul\":24203:24282   */\n      tag_581\n      tag_253\n      jump\t// in\n    tag_581:\n        /* \"#utility.yul\":24165:24284   */\n    tag_580:\n        /* \"#utility.yul\":24323:24324   */\n      0x00\n        /* \"#utility.yul\":24348:24412   */\n      tag_582\n        /* \"#utility.yul\":24404:24411   */\n      dup5\n        /* \"#utility.yul\":24395:24401   */\n      dup3\n        /* \"#utility.yul\":24384:24393   */\n      dup6\n        /* \"#utility.yul\":24380:24402   */\n      add\n        /* \"#utility.yul\":24348:24412   */\n      tag_320\n      jump\t// in\n    tag_582:\n        /* \"#utility.yul\":24338:24412   */\n      swap2\n      pop\n        /* \"#utility.yul\":24294:24422   */\n      pop\n        /* \"#utility.yul\":24078:24429   */\n      swap3\n      swap2\n      pop\n      pop\n      jump\t// out\n        /* \"#utility.yul\":24435:24606   */\n    tag_321:\n        /* \"#utility.yul\":24575:24598   */\n      0x4e6f2072656d61696e696e672072657175657374730000000000000000000000\n        /* \"#utility.yul\":24571:24572   */\n      0x00\n        /* \"#utility.yul\":24563:24569   */\n      dup3\n        /* \"#utility.yul\":24559:24573   */\n      add\n        /* \"#utility.yul\":24552:24599   */\n      mstore\n        /* \"#utility.yul\":24435:24606   */\n      pop\n      jump\t// out\n        /* \"#utility.yul\":24612:24978   */\n    tag_322:\n        /* \"#utility.yul\":24754:24757   */\n      0x00\n        /* \"#utility.yul\":24775:24842   */\n      tag_585\n        /* \"#utility.yul\":24839:24841   */\n      0x15\n        /* \"#utility.yul\":24834:24837   */\n      dup4\n        /* \"#utility.yul\":24775:24842   */\n      tag_284\n      jump\t// in\n    tag_585:\n        /* \"#utility.yul\":24768:24842   */\n      swap2\n      pop\n        /* \"#utility.yul\":24851:24944   */\n      tag_586\n        /* \"#utility.yul\":24940:24943   */\n      dup3\n        /* \"#utility.yul\":24851:24944   */\n      tag_321\n      jump\t// in\n    tag_586:\n        /* \"#utility.yul\":24969:24971   */\n      0x20\n        /* \"#utility.yul\":24964:24967   */\n      dup3\n        /* \"#utility.yul\":24960:24972   */\n      add\n        /* \"#utility.yul\":24953:24972   */\n      swap1\n      pop\n        /* \"#utility.yul\":24612:24978   */\n      swap2\n      swap1\n      pop\n      jump\t// out\n        /* \"#utility.yul\":24984:25403   */\n    tag_174:\n        /* \"#utility.yul\":25150:25154   */\n      0x00\n        /* \"#utility.yul\":25188:25190   */\n      0x20\n        /* \"#utility.yul\":25177:25186   */\n      dup3\n        /* \"#utility.yul\":25173:25191   */\n      add\n        /* \"#utility.yul\":25165:25191   */\n      swap1\n      pop\n        /* \"#utility.yul\":25237:25246   */\n      dup2\n        /* \"#utility.yul\":25231:25235   */\n      dup2\n        /* \"#utility.yul\":25227:25247   */\n      sub\n        /* \"#utility.yul\":25223:25224   */\n      0x00\n        /* \"#utility.yul\":25212:25221   */\n      dup4\n        /* \"#utility.yul\":25208:25225   */\n      add\n        /* \"#utility.yul\":25201:25248   */\n      mstore\n        /* \"#utility.yul\":25265:25396   */\n      tag_588\n        /* \"#utility.yul\":25391:25395   */\n      dup2\n        /* \"#utility.yul\":25265:25396   */\n      tag_322\n      jump\t// in\n    tag_588:\n        /* \"#utility.yul\":25257:25396   */\n      swap1\n      pop\n        /* \"#utility.yul\":24984:25403   */\n      swap2\n      swap1\n      pop\n      jump\t// out\n        /* \"#utility.yul\":25409:25603   */\n    tag_176:\n        /* \"#utility.yul\":25449:25453   */\n      0x00\n        /* \"#utility.yul\":25469:25489   */\n      tag_590\n        /* \"#utility.yul\":25487:25488   */\n      dup3\n        /* \"#utility.yul\":25469:25489   */\n      tag_260\n      jump\t// in\n    tag_590:\n        /* \"#utility.yul\":25464:25489   */\n      swap2\n      pop\n        /* \"#utility.yul\":25503:25523   */\n      tag_591\n        /* \"#utility.yul\":25521:25522   */\n      dup4\n        /* \"#utility.yul\":25503:25523   */\n      tag_260\n      jump\t// in\n    tag_591:\n        /* \"#utility.yul\":25498:25523   */\n      swap3\n      pop\n        /* \"#utility.yul\":25547:25548   */\n      dup3\n        /* \"#utility.yul\":25544:25545   */\n      dup3\n        /* \"#utility.yul\":25540:25549   */\n      sub\n        /* \"#utility.yul\":25532:25549   */\n      swap1\n      pop\n        /* \"#utility.yul\":25571:25572   */\n      dup2\n        /* \"#utility.yul\":25565:25569   */\n      dup2\n        /* \"#utility.yul\":25562:25573   */\n      gt\n        /* \"#utility.yul\":25559:25596   */\n      iszero\n      tag_592\n      jumpi\n        /* \"#utility.yul\":25576:25594   */\n      tag_593\n      tag_300\n      jump\t// in\n    tag_593:\n        /* \"#utility.yul\":25559:25596   */\n    tag_592:\n        /* \"#utility.yul\":25409:25603   */\n      swap3\n      swap2\n      pop\n      pop\n      jump\t// out\n        /* \"#utility.yul\":25609:25782   */\n    tag_323:\n        /* \"#utility.yul\":25749:25774   */\n      0x4e6f206561726e696e677320746f207769746864726177000000000000000000\n        /* \"#utility.yul\":25745:25746   */\n      0x00\n        /* \"#utility.yul\":25737:25743   */\n      dup3\n        /* \"#utility.yul\":25733:25747   */\n      add\n        /* \"#utility.yul\":25726:25775   */\n      mstore\n        /* \"#utility.yul\":25609:25782   */\n      pop\n      jump\t// out\n        /* \"#utility.yul\":25788:26154   */\n    tag_324:\n        /* \"#utility.yul\":25930:25933   */\n      0x00\n        /* \"#utility.yul\":25951:26018   */\n      tag_596\n        /* \"#utility.yul\":26015:26017   */\n      0x17\n        /* \"#utility.yul\":26010:26013   */\n      dup4\n        /* \"#utility.yul\":25951:26018   */\n      tag_284\n      jump\t// in\n    tag_596:\n        /* \"#utility.yul\":25944:26018   */\n      swap2\n      pop\n        /* \"#utility.yul\":26027:26120   */\n      tag_597\n        /* \"#utility.yul\":26116:26119   */\n      dup3\n        /* \"#utility.yul\":26027:26120   */\n      tag_323\n      jump\t// in\n    tag_597:\n        /* \"#utility.yul\":26145:26147   */\n      0x20\n        /* \"#utility.yul\":26140:26143   */\n      dup3\n        /* \"#utility.yul\":26136:26148   */\n      add\n        /* \"#utility.yul\":26129:26148   */\n      swap1\n      pop\n        /* \"#utility.yul\":25788:26154   */\n      swap2\n      swap1\n      pop\n      jump\t// out\n        /* \"#utility.yul\":26160:26579   */\n    tag_200:\n        /* \"#utility.yul\":26326:26330   */\n      0x00\n        /* \"#utility.yul\":26364:26366   */\n      0x20\n        /* \"#utility.yul\":26353:26362   */\n      dup3\n        /* \"#utility.yul\":26349:26367   */\n      add\n        /* \"#utility.yul\":26341:26367   */\n      swap1\n      pop\n        /* \"#utility.yul\":26413:26422   */\n      dup2\n        /* \"#utility.yul\":26407:26411   */\n      dup2\n        /* \"#utility.yul\":26403:26423   */\n      sub\n        /* \"#utility.yul\":26399:26400   */\n      0x00\n        /* \"#utility.yul\":26388:26397   */\n      dup4\n        /* \"#utility.yul\":26384:26401   */\n      add\n        /* \"#utility.yul\":26377:26424   */\n      mstore\n        /* \"#utility.yul\":26441:26572   */\n      tag_599\n        /* \"#utility.yul\":26567:26571   */\n      dup2\n        /* \"#utility.yul\":26441:26572   */\n      tag_324\n      jump\t// in\n    tag_599:\n        /* \"#utility.yul\":26433:26572   */\n      swap1\n      pop\n        /* \"#utility.yul\":26160:26579   */\n      swap2\n      swap1\n      pop\n      jump\t// out\n        /* \"#utility.yul\":26585:27027   */\n    tag_215:\n        /* \"#utility.yul\":26734:26738   */\n      0x00\n        /* \"#utility.yul\":26772:26774   */\n      0x60\n        /* \"#utility.yul\":26761:26770   */\n      dup3\n        /* \"#utility.yul\":26757:26775   */\n      add\n        /* \"#utility.yul\":26749:26775   */\n      swap1\n      pop\n        /* \"#utility.yul\":26785:26856   */\n      tag_601\n        /* \"#utility.yul\":26853:26854   */\n      0x00\n        /* \"#utility.yul\":26842:26851   */\n      dup4\n        /* \"#utility.yul\":26838:26855   */\n      add\n        /* \"#utility.yul\":26829:26835   */\n      dup7\n        /* \"#utility.yul\":26785:26856   */\n      tag_282\n      jump\t// in\n    tag_601:\n        /* \"#utility.yul\":26866:26938   */\n      tag_602\n        /* \"#utility.yul\":26934:26936   */\n      0x20\n        /* \"#utility.yul\":26923:26932   */\n      dup4\n        /* \"#utility.yul\":26919:26937   */\n      add\n        /* \"#utility.yul\":26910:26916   */\n      dup6\n        /* \"#utility.yul\":26866:26938   */\n      tag_282\n      jump\t// in\n    tag_602:\n        /* \"#utility.yul\":26948:27020   */\n      tag_603\n        /* \"#utility.yul\":27016:27018   */\n      0x40\n        /* \"#utility.yul\":27005:27014   */\n      dup4\n        /* \"#utility.yul\":27001:27019   */\n      add\n        /* \"#utility.yul\":26992:26998   */\n      dup5\n        /* \"#utility.yul\":26948:27020   */\n      tag_261\n      jump\t// in\n    tag_603:\n        /* \"#utility.yul\":26585:27027   */\n      swap5\n      swap4\n      pop\n      pop\n      pop\n      pop\n      jump\t// out\n        /* \"#utility.yul\":27033:27214   */\n    tag_325:\n        /* \"#utility.yul\":27173:27206   */\n      0x5265656e7472616e637947756172643a207265656e7472616e742063616c6c00\n        /* \"#utility.yul\":27169:27170   */\n      0x00\n        /* \"#utility.yul\":27161:27167   */\n      dup3\n        /* \"#utility.yul\":27157:27171   */\n      add\n        /* \"#utility.yul\":27150:27207   */\n      mstore\n        /* \"#utility.yul\":27033:27214   */\n      pop\n      jump\t// out\n        /* \"#utility.yul\":27220:27586   */\n    tag_326:\n        /* \"#utility.yul\":27362:27365   */\n      0x00\n        /* \"#utility.yul\":27383:27450   */\n      tag_606\n        /* \"#utility.yul\":27447:27449   */\n      0x1f\n        /* \"#utility.yul\":27442:27445   */\n      dup4\n        /* \"#utility.yul\":27383:27450   */\n      tag_284\n      jump\t// in\n    tag_606:\n        /* \"#utility.yul\":27376:27450   */\n      swap2\n      pop\n        /* \"#utility.yul\":27459:27552   */\n      tag_607\n        /* \"#utility.yul\":27548:27551   */\n      dup3\n        /* \"#utility.yul\":27459:27552   */\n      tag_325\n      jump\t// in\n    tag_607:\n        /* \"#utility.yul\":27577:27579   */\n      0x20\n        /* \"#utility.yul\":27572:27575   */\n      dup3\n        /* \"#utility.yul\":27568:27580   */\n      add\n        /* \"#utility.yul\":27561:27580   */\n      swap1\n      pop\n        /* \"#utility.yul\":27220:27586   */\n      swap2\n      swap1\n      pop\n      jump\t// out\n        /* \"#utility.yul\":27592:28011   */\n    tag_235:\n        /* \"#utility.yul\":27758:27762   */\n      0x00\n        /* \"#utility.yul\":27796:27798   */\n      0x20\n        /* \"#utility.yul\":27785:27794   */\n      dup3\n        /* \"#utility.yul\":27781:27799   */\n      add\n        /* \"#utility.yul\":27773:27799   */\n      swap1\n      pop\n        /* \"#utility.yul\":27845:27854   */\n      dup2\n        /* \"#utility.yul\":27839:27843   */\n      dup2\n        /* \"#utility.yul\":27835:27855   */\n      sub\n        /* \"#utility.yul\":27831:27832   */\n      0x00\n        /* \"#utility.yul\":27820:27829   */\n      dup4\n        /* \"#utility.yul\":27816:27833   */\n      add\n        /* \"#utility.yul\":27809:27856   */\n      mstore\n        /* \"#utility.yul\":27873:28004   */\n      tag_609\n        /* \"#utility.yul\":27999:28003   */\n      dup2\n        /* \"#utility.yul\":27873:28004   */\n      tag_326\n      jump\t// in\n    tag_609:\n        /* \"#utility.yul\":27865:28004   */\n      swap1\n      pop\n        /* \"#utility.yul\":27592:28011   */\n      swap2\n      swap1\n      pop\n      jump\t// out\n        /* \"#utility.yul\":28017:28349   */\n    tag_239:\n        /* \"#utility.yul\":28138:28142   */\n      0x00\n        /* \"#utility.yul\":28176:28178   */\n      0x40\n        /* \"#utility.yul\":28165:28174   */\n      dup3\n        /* \"#utility.yul\":28161:28179   */\n      add\n        /* \"#utility.yul\":28153:28179   */\n      swap1\n      pop\n        /* \"#utility.yul\":28189:28260   */\n      tag_611\n        /* \"#utility.yul\":28257:28258   */\n      0x00\n        /* \"#utility.yul\":28246:28255   */\n      dup4\n        /* \"#utility.yul\":28242:28259   */\n      add\n        /* \"#utility.yul\":28233:28239   */\n      dup6\n        /* \"#utility.yul\":28189:28260   */\n      tag_282\n      jump\t// in\n    tag_611:\n        /* \"#utility.yul\":28270:28342   */\n      tag_612\n        /* \"#utility.yul\":28338:28340   */\n      0x20\n        /* \"#utility.yul\":28327:28336   */\n      dup4\n        /* \"#utility.yul\":28323:28341   */\n      add\n        /* \"#utility.yul\":28314:28320   */\n      dup5\n        /* \"#utility.yul\":28270:28342   */\n      tag_261\n      jump\t// in\n    tag_612:\n        /* \"#utility.yul\":28017:28349   */\n      swap4\n      swap3\n      pop\n      pop\n      pop\n      jump\t// out\n        /* \"#utility.yul\":28355:28687   */\n    tag_251:\n        /* \"#utility.yul\":28476:28480   */\n      0x00\n        /* \"#utility.yul\":28514:28516   */\n      0x40\n        /* \"#utility.yul\":28503:28512   */\n      dup3\n        /* \"#utility.yul\":28499:28517   */\n      add\n        /* \"#utility.yul\":28491:28517   */\n      swap1\n      pop\n        /* \"#utility.yul\":28527:28598   */\n      tag_614\n        /* \"#utility.yul\":28595:28596   */\n      0x00\n        /* \"#utility.yul\":28584:28593   */\n      dup4\n        /* \"#utility.yul\":28580:28597   */\n      add\n        /* \"#utility.yul\":28571:28577   */\n      dup6\n        /* \"#utility.yul\":28527:28598   */\n      tag_282\n      jump\t// in\n    tag_614:\n        /* \"#utility.yul\":28608:28680   */\n      tag_615\n        /* \"#utility.yul\":28676:28678   */\n      0x20\n        /* \"#utility.yul\":28665:28674   */\n      dup4\n        /* \"#utility.yul\":28661:28679   */\n      add\n        /* \"#utility.yul\":28652:28658   */\n      dup5\n        /* \"#utility.yul\":28608:28680   */\n      tag_267\n      jump\t// in\n    tag_615:\n        /* \"#utility.yul\":28355:28687   */\n      swap4\n      swap3\n      pop\n      pop\n      pop\n      jump\t// out\n\n    auxdata: 0xa2646970667358221220dbff78643e8436719283411da639dc30db1d2e1128b46f1f6d25a1772ac9ae2864736f6c634300081a0033\n}\n",
				"bytecode": {
					"linkReferences": {},
					"object": "60a060405234801561000f575f80fd5b50604051612ae6380380612ae683398181016040528101906100319190610333565b60015f819055505f73ffffffffffffffffffffffffffffffffffffffff168173ffffffffffffffffffffffffffffffffffffffff16036100a6576040517f08c379a000000000000000000000000000000000000000000000000000000000815260040161009d906103b8565b60405180910390fd5b8073ffffffffffffffffffffffffffffffffffffffff1660808173ffffffffffffffffffffffffffffffffffffffff16815250503360025f6101000a81548173ffffffffffffffffffffffffffffffffffffffff021916908373ffffffffffffffffffffffffffffffffffffffff16021790555061012c5f801b3361016460201b60201c565b5061015d7fa49807205ce4d355092ef5a8a18f56e8913cf4a201fbe287825b095693c217753361016460201b60201c565b50506103d6565b5f610175838361025960201b60201c565b61024f576001805f8581526020019081526020015f205f015f8473ffffffffffffffffffffffffffffffffffffffff1673ffffffffffffffffffffffffffffffffffffffff1681526020019081526020015f205f6101000a81548160ff0219169083151502179055506101ec6102bd60201b60201c565b73ffffffffffffffffffffffffffffffffffffffff168273ffffffffffffffffffffffffffffffffffffffff16847f2f8788117e7eff1d82e926ec794901d17c78024a50270940304540a733656f0d60405160405180910390a460019050610253565b5f90505b92915050565b5f60015f8481526020019081526020015f205f015f8373ffffffffffffffffffffffffffffffffffffffff1673ffffffffffffffffffffffffffffffffffffffff1681526020019081526020015f205f9054906101000a900460ff16905092915050565b5f33905090565b5f80fd5b5f73ffffffffffffffffffffffffffffffffffffffff82169050919050565b5f6102f1826102c8565b9050919050565b5f610302826102e7565b9050919050565b610312816102f8565b811461031c575f80fd5b50565b5f8151905061032d81610309565b92915050565b5f60208284031215610348576103476102c4565b5b5f6103558482850161031f565b91505092915050565b5f82825260208201905092915050565b7f496e76616c696420746f6b656e206164647265737300000000000000000000005f82015250565b5f6103a260158361035e565b91506103ad8261036e565b602082019050919050565b5f6020820190508181035f8301526103cf81610396565b9050919050565b6080516126dc61040a5f395f81816108fd01528181610b2a01528181610f210152818161125f015261132001526126dc5ff3fe608060405234801561000f575f80fd5b506004361061012a575f3560e01c806375b238fc116100ab578063a217fddf1161006f578063a217fddf1461033c578063af6e56891461035a578063b73c6ce914610390578063d547741f1461039a578063fc0c546a146103b65761012a565b806375b238fc146102985780638da5cb5b146102b65780638e04d8d8146102d457806391d14854146102f05780639c4d9c0c146103205761012a565b806329206bd1116100f257806329206bd1146101f85780632a222851146102145780632f2ff15d1461023057806336568abe1461024c57806347734892146102685761012a565b806301ffc9a71461012e578063099952c81461015e578063212350831461017c578063248a9ca31461019857806328ac7f2c146101c8575b5f80fd5b61014860048036038101906101439190611842565b6103d4565b6040516101559190611887565b60405180910390f35b61016661044d565b60405161017391906118b8565b60405180910390f35b610196600480360381019061019191906118fb565b610453565b005b6101b260048036038101906101ad9190611959565b6105c3565b6040516101bf9190611993565b60405180910390f35b6101e260048036038101906101dd9190611a06565b6105e0565b6040516101ef91906118b8565b60405180910390f35b610212600480360381019061020d9190611b6d565b6105f5565b005b61022e60048036038101906102299190611bed565b6107f8565b005b61024a60048036038101906102459190611c2b565b610a8a565b005b61026660048036038101906102619190611c2b565b610aac565b005b610282600480360381019061027d9190611a06565b610b27565b60405161028f91906118b8565b60405180910390f35b6102a0610bc7565b6040516102ad9190611993565b60405180910390f35b6102be610beb565b6040516102cb9190611c78565b60405180910390f35b6102ee60048036038101906102e991906118fb565b610c10565b005b61030a60048036038101906103059190611c2b565b610e05565b6040516103179190611887565b60405180910390f35b61033a600480360381019061033591906118fb565b610e69565b005b610344611096565b6040516103519190611993565b60405180910390f35b610374600480360381019061036f91906118fb565b61109c565b6040516103879796959493929190611cf1565b60405180910390f35b61039861118b565b005b6103b460048036038101906103af9190611c2b565b6112fc565b005b6103be61131e565b6040516103cb9190611dc0565b60405180910390f35b5f7f7965db0b000000000000000000000000000000000000000000000000000000007bffffffffffffffffffffffffffffffffffffffffffffffffffffffff1916827bffffffffffffffffffffffffffffffffffffffffffffffffffffffff19161480610446575061044582611342565b5b9050919050565b60035481565b6003548110610497576040517f08c379a000000000000000000000000000000000000000000000000000000000815260040161048e90611e23565b60405180910390fd5b4260065f3373ffffffffffffffffffffffffffffffffffffffff1673ffffffffffffffffffffffffffffffffffffffff1681526020019081526020015f206001015f8381526020019081526020015f205411610528576040517f08c379a000000000000000000000000000000000000000000000000000000000815260040161051f90611e8b565b60405180910390fd5b4260065f3373ffffffffffffffffffffffffffffffffffffffff1673ffffffffffffffffffffffffffffffffffffffff1681526020019081526020015f206001015f8381526020019081526020015f2081905550803373ffffffffffffffffffffffffffffffffffffffff167f06aa12c0ad65927b4a753d119c26e490d3c4a4e11cb631b43131a709dc1e591760405160405180910390a350565b5f60015f8381526020019081526020015f20600101549050919050565b6004602052805f5260405f205f915090505481565b5f845111610638576040517f08c379a000000000000000000000000000000000000000000000000000000000815260040161062f90611ef3565b60405180910390fd5b5f83118061064557505f82115b610684576040517f08c379a000000000000000000000000000000000000000000000000000000000815260040161067b90611f81565b60405180910390fd5b5f60035f81548092919061069790611fcc565b9190505590506040518060e001604052803373ffffffffffffffffffffffffffffffffffffffff1681526020018681526020018581526020018481526020018381526020015f81526020016001151581525060055f8381526020019081526020015f205f820151815f015f6101000a81548173ffffffffffffffffffffffffffffffffffffffff021916908373ffffffffffffffffffffffffffffffffffffffff16021790555060208201518160010190816107539190612204565b5060408201518160020155606082015181600301556080820151816004015560a0820151816005015560c0820151816006015f6101000a81548160ff0219169083151502179055509050503373ffffffffffffffffffffffffffffffffffffffff16817faeb4fdd5a376011a12e318bf03de0006c5c806196fb1d14f787be471267cb8dc8787876040516107e9939291906122d3565b60405180910390a35050505050565b600354821061083c576040517f08c379a000000000000000000000000000000000000000000000000000000000815260040161083390611e23565b60405180910390fd5b5f811161087e576040517f08c379a00000000000000000000000000000000000000000000000000000000081526004016108759061237f565b60405180910390fd5b5f60055f8481526020019081526020015f209050806006015f9054906101000a900460ff166108e2576040517f08c379a00000000000000000000000000000000000000000000000000000000081526004016108d9906123e7565b60405180910390fd5b5f8282600201546108f39190612405565b90506109423330837f000000000000000000000000000000000000000000000000000000000000000073ffffffffffffffffffffffffffffffffffffffff166113ab909392919063ffffffff16565b8260065f3373ffffffffffffffffffffffffffffffffffffffff1673ffffffffffffffffffffffffffffffffffffffff1681526020019081526020015f205f015f8681526020019081526020015f205f82825461099f9190612446565b925050819055508060045f845f015f9054906101000a900473ffffffffffffffffffffffffffffffffffffffff1673ffffffffffffffffffffffffffffffffffffffff1673ffffffffffffffffffffffffffffffffffffffff1681526020019081526020015f205f828254610a149190612446565b9250508190555082826005015f828254610a2e9190612446565b92505081905550833373ffffffffffffffffffffffffffffffffffffffff167f651496919c95942a8a70db2e93544280a0491b14565245385a8026dcb32e923b85604051610a7c91906118b8565b60405180910390a350505050565b610a93826105c3565b610a9c8161142d565b610aa68383611441565b50505050565b610ab461152a565b73ffffffffffffffffffffffffffffffffffffffff168173ffffffffffffffffffffffffffffffffffffffff1614610b18576040517f6697b23200000000000000000000000000000000000000000000000000000000815260040160405180910390fd5b610b228282611531565b505050565b5f7f000000000000000000000000000000000000000000000000000000000000000073ffffffffffffffffffffffffffffffffffffffff166370a08231836040518263ffffffff1660e01b8152600401610b819190611c78565b602060405180830381865afa158015610b9c573d5f803e3d5ffd5b505050506040513d601f19601f82011682018060405250810190610bc0919061248d565b9050919050565b7fa49807205ce4d355092ef5a8a18f56e8913cf4a201fbe287825b095693c2177581565b60025f9054906101000a900473ffffffffffffffffffffffffffffffffffffffff1681565b6003548110610c54576040517f08c379a0000000000000000000000000000000000000000000000000000000008152600401610c4b90611e23565b60405180910390fd5b5f60055f8381526020019081526020015f209050806006015f9054906101000a900460ff16610cb8576040517f08c379a0000000000000000000000000000000000000000000000000000000008152600401610caf906123e7565b60405180910390fd5b5f60065f3373ffffffffffffffffffffffffffffffffffffffff1673ffffffffffffffffffffffffffffffffffffffff1681526020019081526020015f205f015f8481526020019081526020015f205490505f8111610d4c576040517f08c379a0000000000000000000000000000000000000000000000000000000008152600401610d4390612502565b60405180910390fd5b600160065f3373ffffffffffffffffffffffffffffffffffffffff1673ffffffffffffffffffffffffffffffffffffffff1681526020019081526020015f205f015f8581526020019081526020015f205f828254610daa9190612520565b92505081905550823373ffffffffffffffffffffffffffffffffffffffff167fcca1381d7195cd2569f7fc5ea523be6bbec35a1421ab82b215b1651f7b22157e42604051610df891906118b8565b60405180910390a3505050565b5f60015f8481526020019081526020015f205f015f8373ffffffffffffffffffffffffffffffffffffffff1673ffffffffffffffffffffffffffffffffffffffff1681526020019081526020015f205f9054906101000a900460ff16905092915050565b6003548110610ead576040517f08c379a0000000000000000000000000000000000000000000000000000000008152600401610ea490611e23565b60405180910390fd5b5f60055f8381526020019081526020015f209050806006015f9054906101000a900460ff16610f11576040517f08c379a0000000000000000000000000000000000000000000000000000000008152600401610f08906123e7565b60405180910390fd5b5f81600301549050610f663330837f000000000000000000000000000000000000000000000000000000000000000073ffffffffffffffffffffffffffffffffffffffff166113ab909392919063ffffffff16565b816004015442610f769190612446565b60065f3373ffffffffffffffffffffffffffffffffffffffff1673ffffffffffffffffffffffffffffffffffffffff1681526020019081526020015f206001015f8581526020019081526020015f20819055508060045f845f015f9054906101000a900473ffffffffffffffffffffffffffffffffffffffff1673ffffffffffffffffffffffffffffffffffffffff1673ffffffffffffffffffffffffffffffffffffffff1681526020019081526020015f205f8282546110379190612446565b92505081905550823373ffffffffffffffffffffffffffffffffffffffff167f6d458fa94cc5b30d7877bed127c2029f98bc0cbc4634dc7789b6bc804fbdae03846004015460405161108991906118b8565b60405180910390a3505050565b5f801b81565b6005602052805f5260405f205f91509050805f015f9054906101000a900473ffffffffffffffffffffffffffffffffffffffff16908060010180546110e090612040565b80601f016020809104026020016040519081016040528092919081815260200182805461110c90612040565b80156111575780601f1061112e57610100808354040283529160200191611157565b820191905f5260205f20905b81548152906001019060200180831161113a57829003601f168201915b505050505090806002015490806003015490806004015490806005015490806006015f9054906101000a900460ff16905087565b61119361161b565b5f60045f3373ffffffffffffffffffffffffffffffffffffffff1673ffffffffffffffffffffffffffffffffffffffff1681526020019081526020015f205490505f8111611216576040517f08c379a000000000000000000000000000000000000000000000000000000000815260040161120d9061259d565b60405180910390fd5b5f60045f3373ffffffffffffffffffffffffffffffffffffffff1673ffffffffffffffffffffffffffffffffffffffff1681526020019081526020015f20819055506112a333827f000000000000000000000000000000000000000000000000000000000000000073ffffffffffffffffffffffffffffffffffffffff166116689092919063ffffffff16565b3373ffffffffffffffffffffffffffffffffffffffff167f6352c5382c4a4578e712449ca65e83cdb392d045dfcf1cad9615189db2da244b826040516112e991906118b8565b60405180910390a2506112fa6116e7565b565b611305826105c3565b61130e8161142d565b6113188383611531565b50505050565b7f000000000000000000000000000000000000000000000000000000000000000081565b5f7f01ffc9a7000000000000000000000000000000000000000000000000000000007bffffffffffffffffffffffffffffffffffffffffffffffffffffffff1916827bffffffffffffffffffffffffffffffffffffffffffffffffffffffff1916149050919050565b611427848573ffffffffffffffffffffffffffffffffffffffff166323b872dd8686866040516024016113e0939291906125bb565b604051602081830303815290604052915060e01b6020820180517bffffffffffffffffffffffffffffffffffffffffffffffffffffffff83818316178352505050506116f0565b50505050565b61143e8161143961152a565b61178b565b50565b5f61144c8383610e05565b611520576001805f8581526020019081526020015f205f015f8473ffffffffffffffffffffffffffffffffffffffff1673ffffffffffffffffffffffffffffffffffffffff1681526020019081526020015f205f6101000a81548160ff0219169083151502179055506114bd61152a565b73ffffffffffffffffffffffffffffffffffffffff168273ffffffffffffffffffffffffffffffffffffffff16847f2f8788117e7eff1d82e926ec794901d17c78024a50270940304540a733656f0d60405160405180910390a460019050611524565b5f90505b92915050565b5f33905090565b5f61153c8383610e05565b15611611575f60015f8581526020019081526020015f205f015f8473ffffffffffffffffffffffffffffffffffffffff1673ffffffffffffffffffffffffffffffffffffffff1681526020019081526020015f205f6101000a81548160ff0219169083151502179055506115ae61152a565b73ffffffffffffffffffffffffffffffffffffffff168273ffffffffffffffffffffffffffffffffffffffff16847ff6391f5c32d9c69d2a47ea670b442974b53935d1edc7fd64eb21e047a839171b60405160405180910390a460019050611615565b5f90505b92915050565b60025f540361165f576040517f08c379a00000000000000000000000000000000000000000000000000000000081526004016116569061263a565b60405180910390fd5b60025f81905550565b6116e2838473ffffffffffffffffffffffffffffffffffffffff1663a9059cbb858560405160240161169b929190612658565b604051602081830303815290604052915060e01b6020820180517bffffffffffffffffffffffffffffffffffffffffffffffffffffffff83818316178352505050506116f0565b505050565b60015f81905550565b5f8060205f8451602086015f885af18061170f576040513d5f823e3d81fd5b3d92505f519150505f8214611728576001811415611743565b5f8473ffffffffffffffffffffffffffffffffffffffff163b145b1561178557836040517f5274afe700000000000000000000000000000000000000000000000000000000815260040161177c9190611c78565b60405180910390fd5b50505050565b6117958282610e05565b6117d85780826040517fe2517d3f0000000000000000000000000000000000000000000000000000000081526004016117cf92919061267f565b60405180910390fd5b5050565b5f604051905090565b5f80fd5b5f80fd5b5f7fffffffff0000000000000000000000000000000000000000000000000000000082169050919050565b611821816117ed565b811461182b575f80fd5b50565b5f8135905061183c81611818565b92915050565b5f60208284031215611857576118566117e5565b5b5f6118648482850161182e565b91505092915050565b5f8115159050919050565b6118818161186d565b82525050565b5f60208201905061189a5f830184611878565b92915050565b5f819050919050565b6118b2816118a0565b82525050565b5f6020820190506118cb5f8301846118a9565b92915050565b6118da816118a0565b81146118e4575f80fd5b50565b5f813590506118f5816118d1565b92915050565b5f602082840312156119105761190f6117e5565b5b5f61191d848285016118e7565b91505092915050565b5f819050919050565b61193881611926565b8114611942575f80fd5b50565b5f813590506119538161192f565b92915050565b5f6020828403121561196e5761196d6117e5565b5b5f61197b84828501611945565b91505092915050565b61198d81611926565b82525050565b5f6020820190506119a65f830184611984565b92915050565b5f73ffffffffffffffffffffffffffffffffffffffff82169050919050565b5f6119d5826119ac565b9050919050565b6119e5816119cb565b81146119ef575f80fd5b50565b5f81359050611a00816119dc565b92915050565b5f60208284031215611a1b57611a1a6117e5565b5b5f611a28848285016119f2565b91505092915050565b5f80fd5b5f80fd5b5f601f19601f8301169050919050565b7f4e487b71000000000000000000000000000000000000000000000000000000005f52604160045260245ffd5b611a7f82611a39565b810181811067ffffffffffffffff82111715611a9e57611a9d611a49565b5b80604052505050565b5f611ab06117dc565b9050611abc8282611a76565b919050565b5f67ffffffffffffffff821115611adb57611ada611a49565b5b611ae482611a39565b9050602081019050919050565b828183375f83830152505050565b5f611b11611b0c84611ac1565b611aa7565b905082815260208101848484011115611b2d57611b2c611a35565b5b611b38848285611af1565b509392505050565b5f82601f830112611b5457611b53611a31565b5b8135611b64848260208601611aff565b91505092915050565b5f805f8060808587031215611b8557611b846117e5565b5b5f85013567ffffffffffffffff811115611ba257611ba16117e9565b5b611bae87828801611b40565b9450506020611bbf878288016118e7565b9350506040611bd0878288016118e7565b9250506060611be1878288016118e7565b91505092959194509250565b5f8060408385031215611c0357611c026117e5565b5b5f611c10858286016118e7565b9250506020611c21858286016118e7565b9150509250929050565b5f8060408385031215611c4157611c406117e5565b5b5f611c4e85828601611945565b9250506020611c5f858286016119f2565b9150509250929050565b611c72816119cb565b82525050565b5f602082019050611c8b5f830184611c69565b92915050565b5f81519050919050565b5f82825260208201905092915050565b8281835e5f83830152505050565b5f611cc382611c91565b611ccd8185611c9b565b9350611cdd818560208601611cab565b611ce681611a39565b840191505092915050565b5f60e082019050611d045f83018a611c69565b8181036020830152611d168189611cb9565b9050611d2560408301886118a9565b611d3260608301876118a9565b611d3f60808301866118a9565b611d4c60a08301856118a9565b611d5960c0830184611878565b98975050505050505050565b5f819050919050565b5f611d88611d83611d7e846119ac565b611d65565b6119ac565b9050919050565b5f611d9982611d6e565b9050919050565b5f611daa82611d8f565b9050919050565b611dba81611da0565b82525050565b5f602082019050611dd35f830184611db1565b92915050565b7f41504920646f6573206e6f7420657869737400000000000000000000000000005f82015250565b5f611e0d601283611c9b565b9150611e1882611dd9565b602082019050919050565b5f6020820190508181035f830152611e3a81611e01565b9050919050565b7f4e6f2061637469766520737562736372697074696f6e000000000000000000005f82015250565b5f611e75601683611c9b565b9150611e8082611e41565b602082019050919050565b5f6020820190508181035f830152611ea281611e69565b9050919050565b7f415049206e616d652063616e6e6f7420626520656d70747900000000000000005f82015250565b5f611edd601883611c9b565b9150611ee882611ea9565b602082019050919050565b5f6020820190508181035f830152611f0a81611ed1565b9050919050565b7f4174206c65617374206f6e652070726963696e67206f7074696f6e20726571755f8201527f6972656400000000000000000000000000000000000000000000000000000000602082015250565b5f611f6b602483611c9b565b9150611f7682611f11565b604082019050919050565b5f6020820190508181035f830152611f9881611f5f565b9050919050565b7f4e487b71000000000000000000000000000000000000000000000000000000005f52601160045260245ffd5b5f611fd6826118a0565b91507fffffffffffffffffffffffffffffffffffffffffffffffffffffffffffffffff820361200857612007611f9f565b5b600182019050919050565b7f4e487b71000000000000000000000000000000000000000000000000000000005f52602260045260245ffd5b5f600282049050600182168061205757607f821691505b60208210810361206a57612069612013565b5b50919050565b5f819050815f5260205f209050919050565b5f6020601f8301049050919050565b5f82821b905092915050565b5f600883026120cc7fffffffffffffffffffffffffffffffffffffffffffffffffffffffffffffffff82612091565b6120d68683612091565b95508019841693508086168417925050509392505050565b5f6121086121036120fe846118a0565b611d65565b6118a0565b9050919050565b5f819050919050565b612121836120ee565b61213561212d8261210f565b84845461209d565b825550505050565b5f90565b61214961213d565b612154818484612118565b505050565b5b818110156121775761216c5f82612141565b60018101905061215a565b5050565b601f8211156121bc5761218d81612070565b61219684612082565b810160208510156121a5578190505b6121b96121b185612082565b830182612159565b50505b505050565b5f82821c905092915050565b5f6121dc5f19846008026121c1565b1980831691505092915050565b5f6121f483836121cd565b9150826002028217905092915050565b61220d82611c91565b67ffffffffffffffff81111561222657612225611a49565b5b6122308254612040565b61223b82828561217b565b5f60209050601f83116001811461226c575f841561225a578287015190505b61226485826121e9565b8655506122cb565b601f19841661227a86612070565b5f5b828110156122a15784890151825560018201915060208501945060208101905061227c565b868310156122be57848901516122ba601f8916826121cd565b8355505b6001600288020188555050505b505050505050565b5f6060820190508181035f8301526122eb8186611cb9565b90506122fa60208301856118a9565b61230760408301846118a9565b949350505050565b7f4d757374207075726368617365206174206c65617374206f6e652072657175655f8201527f7374000000000000000000000000000000000000000000000000000000000000602082015250565b5f612369602283611c9b565b91506123748261230f565b604082019050919050565b5f6020820190508181035f8301526123968161235d565b9050919050565b7f415049206973206e6f74206163746976650000000000000000000000000000005f82015250565b5f6123d1601183611c9b565b91506123dc8261239d565b602082019050919050565b5f6020820190508181035f8301526123fe816123c5565b9050919050565b5f61240f826118a0565b915061241a836118a0565b9250828202612428816118a0565b9150828204841483151761243f5761243e611f9f565b5b5092915050565b5f612450826118a0565b915061245b836118a0565b925082820190508082111561247357612472611f9f565b5b92915050565b5f81519050612487816118d1565b92915050565b5f602082840312156124a2576124a16117e5565b5b5f6124af84828501612479565b91505092915050565b7f4e6f2072656d61696e696e6720726571756573747300000000000000000000005f82015250565b5f6124ec601583611c9b565b91506124f7826124b8565b602082019050919050565b5f6020820190508181035f830152612519816124e0565b9050919050565b5f61252a826118a0565b9150612535836118a0565b925082820390508181111561254d5761254c611f9f565b5b92915050565b7f4e6f206561726e696e677320746f2077697468647261770000000000000000005f82015250565b5f612587601783611c9b565b915061259282612553565b602082019050919050565b5f6020820190508181035f8301526125b48161257b565b9050919050565b5f6060820190506125ce5f830186611c69565b6125db6020830185611c69565b6125e860408301846118a9565b949350505050565b7f5265656e7472616e637947756172643a207265656e7472616e742063616c6c005f82015250565b5f612624601f83611c9b565b915061262f826125f0565b602082019050919050565b5f6020820190508181035f83015261265181612618565b9050919050565b5f60408201905061266b5f830185611c69565b61267860208301846118a9565b9392505050565b5f6040820190506126925f830185611c69565b61269f6020830184611984565b939250505056fea2646970667358221220dbff78643e8436719283411da639dc30db1d2e1128b46f1f6d25a1772ac9ae2864736f6c634300081a0033",
					"opcodes": "PUSH1 0xA0 PUSH1 0x40 MSTORE CALLVALUE DUP1 ISZERO PUSH2 0xF JUMPI PUSH0 DUP1 REVERT JUMPDEST POP PUSH1 0x40 MLOAD PUSH2 0x2AE6 CODESIZE SUB DUP1 PUSH2 0x2AE6 DUP4 CODECOPY DUP2 DUP2 ADD PUSH1 0x40 MSTORE DUP2 ADD SWAP1 PUSH2 0x31 SWAP2 SWAP1 PUSH2 0x333 JUMP JUMPDEST PUSH1 0x1 PUSH0 DUP2 SWAP1 SSTORE POP PUSH0 PUSH20 0xFFFFFFFFFFFFFFFFFFFFFFFFFFFFFFFFFFFFFFFF AND DUP2 PUSH20 0xFFFFFFFFFFFFFFFFFFFFFFFFFFFFFFFFFFFFFFFF AND SUB PUSH2 0xA6 JUMPI PUSH1 0x40 MLOAD PUSH32 0x8C379A000000000000000000000000000000000000000000000000000000000 DUP2 MSTORE PUSH1 0x4 ADD PUSH2 0x9D SWAP1 PUSH2 0x3B8 JUMP JUMPDEST PUSH1 0x40 MLOAD DUP1 SWAP2 SUB SWAP1 REVERT JUMPDEST DUP1 PUSH20 0xFFFFFFFFFFFFFFFFFFFFFFFFFFFFFFFFFFFFFFFF AND PUSH1 0x80 DUP2 PUSH20 0xFFFFFFFFFFFFFFFFFFFFFFFFFFFFFFFFFFFFFFFF AND DUP2 MSTORE POP POP CALLER PUSH1 0x2 PUSH0 PUSH2 0x100 EXP DUP2 SLOAD DUP2 PUSH20 0xFFFFFFFFFFFFFFFFFFFFFFFFFFFFFFFFFFFFFFFF MUL NOT AND SWAP1 DUP4 PUSH20 0xFFFFFFFFFFFFFFFFFFFFFFFFFFFFFFFFFFFFFFFF AND MUL OR SWAP1 SSTORE POP PUSH2 0x12C PUSH0 DUP1 SHL CALLER PUSH2 0x164 PUSH1 0x20 SHL PUSH1 0x20 SHR JUMP JUMPDEST POP PUSH2 0x15D PUSH32 0xA49807205CE4D355092EF5A8A18F56E8913CF4A201FBE287825B095693C21775 CALLER PUSH2 0x164 PUSH1 0x20 SHL PUSH1 0x20 SHR JUMP JUMPDEST POP POP PUSH2 0x3D6 JUMP JUMPDEST PUSH0 PUSH2 0x175 DUP4 DUP4 PUSH2 0x259 PUSH1 0x20 SHL PUSH1 0x20 SHR JUMP JUMPDEST PUSH2 0x24F JUMPI PUSH1 0x1 DUP1 PUSH0 DUP6 DUP2 MSTORE PUSH1 0x20 ADD SWAP1 DUP2 MSTORE PUSH1 0x20 ADD PUSH0 KECCAK256 PUSH0 ADD PUSH0 DUP5 PUSH20 0xFFFFFFFFFFFFFFFFFFFFFFFFFFFFFFFFFFFFFFFF AND PUSH20 0xFFFFFFFFFFFFFFFFFFFFFFFFFFFFFFFFFFFFFFFF AND DUP2 MSTORE PUSH1 0x20 ADD SWAP1 DUP2 MSTORE PUSH1 0x20 ADD PUSH0 KECCAK256 PUSH0 PUSH2 0x100 EXP DUP2 SLOAD DUP2 PUSH1 0xFF MUL NOT AND SWAP1 DUP4 ISZERO ISZERO MUL OR SWAP1 SSTORE POP PUSH2 0x1EC PUSH2 0x2BD PUSH1 0x20 SHL PUSH1 0x20 SHR JUMP JUMPDEST PUSH20 0xFFFFFFFFFFFFFFFFFFFFFFFFFFFFFFFFFFFFFFFF AND DUP3 PUSH20 0xFFFFFFFFFFFFFFFFFFFFFFFFFFFFFFFFFFFFFFFF AND DUP5 PUSH32 0x2F8788117E7EFF1D82E926EC794901D17C78024A50270940304540A733656F0D PUSH1 0x40 MLOAD PUSH1 0x40 MLOAD DUP1 SWAP2 SUB SWAP1 LOG4 PUSH1 0x1 SWAP1 POP PUSH2 0x253 JUMP JUMPDEST PUSH0 SWAP1 POP JUMPDEST SWAP3 SWAP2 POP POP JUMP JUMPDEST PUSH0 PUSH1 0x1 PUSH0 DUP5 DUP2 MSTORE PUSH1 0x20 ADD SWAP1 DUP2 MSTORE PUSH1 0x20 ADD PUSH0 KECCAK256 PUSH0 ADD PUSH0 DUP4 PUSH20 0xFFFFFFFFFFFFFFFFFFFFFFFFFFFFFFFFFFFFFFFF AND PUSH20 0xFFFFFFFFFFFFFFFFFFFFFFFFFFFFFFFFFFFFFFFF AND DUP2 MSTORE PUSH1 0x20 ADD SWAP1 DUP2 MSTORE PUSH1 0x20 ADD PUSH0 KECCAK256 PUSH0 SWAP1 SLOAD SWAP1 PUSH2 0x100 EXP SWAP1 DIV PUSH1 0xFF AND SWAP1 POP SWAP3 SWAP2 POP POP JUMP JUMPDEST PUSH0 CALLER SWAP1 POP SWAP1 JUMP JUMPDEST PUSH0 DUP1 REVERT JUMPDEST PUSH0 PUSH20 0xFFFFFFFFFFFFFFFFFFFFFFFFFFFFFFFFFFFFFFFF DUP3 AND SWAP1 POP SWAP2 SWAP1 POP JUMP JUMPDEST PUSH0 PUSH2 0x2F1 DUP3 PUSH2 0x2C8 JUMP JUMPDEST SWAP1 POP SWAP2 SWAP1 POP JUMP JUMPDEST PUSH0 PUSH2 0x302 DUP3 PUSH2 0x2E7 JUMP JUMPDEST SWAP1 POP SWAP2 SWAP1 POP JUMP JUMPDEST PUSH2 0x312 DUP2 PUSH2 0x2F8 JUMP JUMPDEST DUP2 EQ PUSH2 0x31C JUMPI PUSH0 DUP1 REVERT JUMPDEST POP JUMP JUMPDEST PUSH0 DUP2 MLOAD SWAP1 POP PUSH2 0x32D DUP2 PUSH2 0x309 JUMP JUMPDEST SWAP3 SWAP2 POP POP JUMP JUMPDEST PUSH0 PUSH1 0x20 DUP3 DUP5 SUB SLT ISZERO PUSH2 0x348 JUMPI PUSH2 0x347 PUSH2 0x2C4 JUMP JUMPDEST JUMPDEST PUSH0 PUSH2 0x355 DUP5 DUP3 DUP6 ADD PUSH2 0x31F JUMP JUMPDEST SWAP2 POP POP SWAP3 SWAP2 POP POP JUMP JUMPDEST PUSH0 DUP3 DUP3 MSTORE PUSH1 0x20 DUP3 ADD SWAP1 POP SWAP3 SWAP2 POP POP JUMP JUMPDEST PUSH32 0x496E76616C696420746F6B656E20616464726573730000000000000000000000 PUSH0 DUP3 ADD MSTORE POP JUMP JUMPDEST PUSH0 PUSH2 0x3A2 PUSH1 0x15 DUP4 PUSH2 0x35E JUMP JUMPDEST SWAP2 POP PUSH2 0x3AD DUP3 PUSH2 0x36E JUMP JUMPDEST PUSH1 0x20 DUP3 ADD SWAP1 POP SWAP2 SWAP1 POP JUMP JUMPDEST PUSH0 PUSH1 0x20 DUP3 ADD SWAP1 POP DUP2 DUP2 SUB PUSH0 DUP4 ADD MSTORE PUSH2 0x3CF DUP2 PUSH2 0x396 JUMP JUMPDEST SWAP1 POP SWAP2 SWAP1 POP JUMP JUMPDEST PUSH1 0x80 MLOAD PUSH2 0x26DC PUSH2 0x40A PUSH0 CODECOPY PUSH0 DUP2 DUP2 PUSH2 0x8FD ADD MSTORE DUP2 DUP2 PUSH2 0xB2A ADD MSTORE DUP2 DUP2 PUSH2 0xF21 ADD MSTORE DUP2 DUP2 PUSH2 0x125F ADD MSTORE PUSH2 0x1320 ADD MSTORE PUSH2 0x26DC PUSH0 RETURN INVALID PUSH1 0x80 PUSH1 0x40 MSTORE CALLVALUE DUP1 ISZERO PUSH2 0xF JUMPI PUSH0 DUP1 REVERT JUMPDEST POP PUSH1 0x4 CALLDATASIZE LT PUSH2 0x12A JUMPI PUSH0 CALLDATALOAD PUSH1 0xE0 SHR DUP1 PUSH4 0x75B238FC GT PUSH2 0xAB JUMPI DUP1 PUSH4 0xA217FDDF GT PUSH2 0x6F JUMPI DUP1 PUSH4 0xA217FDDF EQ PUSH2 0x33C JUMPI DUP1 PUSH4 0xAF6E5689 EQ PUSH2 0x35A JUMPI DUP1 PUSH4 0xB73C6CE9 EQ PUSH2 0x390 JUMPI DUP1 PUSH4 0xD547741F EQ PUSH2 0x39A JUMPI DUP1 PUSH4 0xFC0C546A EQ PUSH2 0x3B6 JUMPI PUSH2 0x12A JUMP JUMPDEST DUP1 PUSH4 0x75B238FC EQ PUSH2 0x298 JUMPI DUP1 PUSH4 0x8DA5CB5B EQ PUSH2 0x2B6 JUMPI DUP1 PUSH4 0x8E04D8D8 EQ PUSH2 0x2D4 JUMPI DUP1 PUSH4 0x91D14854 EQ PUSH2 0x2F0 JUMPI DUP1 PUSH4 0x9C4D9C0C EQ PUSH2 0x320 JUMPI PUSH2 0x12A JUMP JUMPDEST DUP1 PUSH4 0x29206BD1 GT PUSH2 0xF2 JUMPI DUP1 PUSH4 0x29206BD1 EQ PUSH2 0x1F8 JUMPI DUP1 PUSH4 0x2A222851 EQ PUSH2 0x214 JUMPI DUP1 PUSH4 0x2F2FF15D EQ PUSH2 0x230 JUMPI DUP1 PUSH4 0x36568ABE EQ PUSH2 0x24C JUMPI DUP1 PUSH4 0x47734892 EQ PUSH2 0x268 JUMPI PUSH2 0x12A JUMP JUMPDEST DUP1 PUSH4 0x1FFC9A7 EQ PUSH2 0x12E JUMPI DUP1 PUSH4 0x99952C8 EQ PUSH2 0x15E JUMPI DUP1 PUSH4 0x21235083 EQ PUSH2 0x17C JUMPI DUP1 PUSH4 0x248A9CA3 EQ PUSH2 0x198 JUMPI DUP1 PUSH4 0x28AC7F2C EQ PUSH2 0x1C8 JUMPI JUMPDEST PUSH0 DUP1 REVERT JUMPDEST PUSH2 0x148 PUSH1 0x4 DUP1 CALLDATASIZE SUB DUP2 ADD SWAP1 PUSH2 0x143 SWAP2 SWAP1 PUSH2 0x1842 JUMP JUMPDEST PUSH2 0x3D4 JUMP JUMPDEST PUSH1 0x40 MLOAD PUSH2 0x155 SWAP2 SWAP1 PUSH2 0x1887 JUMP JUMPDEST PUSH1 0x40 MLOAD DUP1 SWAP2 SUB SWAP1 RETURN JUMPDEST PUSH2 0x166 PUSH2 0x44D JUMP JUMPDEST PUSH1 0x40 MLOAD PUSH2 0x173 SWAP2 SWAP1 PUSH2 0x18B8 JUMP JUMPDEST PUSH1 0x40 MLOAD DUP1 SWAP2 SUB SWAP1 RETURN JUMPDEST PUSH2 0x196 PUSH1 0x4 DUP1 CALLDATASIZE SUB DUP2 ADD SWAP1 PUSH2 0x191 SWAP2 SWAP1 PUSH2 0x18FB JUMP JUMPDEST PUSH2 0x453 JUMP JUMPDEST STOP JUMPDEST PUSH2 0x1B2 PUSH1 0x4 DUP1 CALLDATASIZE SUB DUP2 ADD SWAP1 PUSH2 0x1AD SWAP2 SWAP1 PUSH2 0x1959 JUMP JUMPDEST PUSH2 0x5C3 JUMP JUMPDEST PUSH1 0x40 MLOAD PUSH2 0x1BF SWAP2 SWAP1 PUSH2 0x1993 JUMP JUMPDEST PUSH1 0x40 MLOAD DUP1 SWAP2 SUB SWAP1 RETURN JUMPDEST PUSH2 0x1E2 PUSH1 0x4 DUP1 CALLDATASIZE SUB DUP2 ADD SWAP1 PUSH2 0x1DD SWAP2 SWAP1 PUSH2 0x1A06 JUMP JUMPDEST PUSH2 0x5E0 JUMP JUMPDEST PUSH1 0x40 MLOAD PUSH2 0x1EF SWAP2 SWAP1 PUSH2 0x18B8 JUMP JUMPDEST PUSH1 0x40 MLOAD DUP1 SWAP2 SUB SWAP1 RETURN JUMPDEST PUSH2 0x212 PUSH1 0x4 DUP1 CALLDATASIZE SUB DUP2 ADD SWAP1 PUSH2 0x20D SWAP2 SWAP1 PUSH2 0x1B6D JUMP JUMPDEST PUSH2 0x5F5 JUMP JUMPDEST STOP JUMPDEST PUSH2 0x22E PUSH1 0x4 DUP1 CALLDATASIZE SUB DUP2 ADD SWAP1 PUSH2 0x229 SWAP2 SWAP1 PUSH2 0x1BED JUMP JUMPDEST PUSH2 0x7F8 JUMP JUMPDEST STOP JUMPDEST PUSH2 0x24A PUSH1 0x4 DUP1 CALLDATASIZE SUB DUP2 ADD SWAP1 PUSH2 0x245 SWAP2 SWAP1 PUSH2 0x1C2B JUMP JUMPDEST PUSH2 0xA8A JUMP JUMPDEST STOP JUMPDEST PUSH2 0x266 PUSH1 0x4 DUP1 CALLDATASIZE SUB DUP2 ADD SWAP1 PUSH2 0x261 SWAP2 SWAP1 PUSH2 0x1C2B JUMP JUMPDEST PUSH2 0xAAC JUMP JUMPDEST STOP JUMPDEST PUSH2 0x282 PUSH1 0x4 DUP1 CALLDATASIZE SUB DUP2 ADD SWAP1 PUSH2 0x27D SWAP2 SWAP1 PUSH2 0x1A06 JUMP JUMPDEST PUSH2 0xB27 JUMP JUMPDEST PUSH1 0x40 MLOAD PUSH2 0x28F SWAP2 SWAP1 PUSH2 0x18B8 JUMP JUMPDEST PUSH1 0x40 MLOAD DUP1 SWAP2 SUB SWAP1 RETURN JUMPDEST PUSH2 0x2A0 PUSH2 0xBC7 JUMP JUMPDEST PUSH1 0x40 MLOAD PUSH2 0x2AD SWAP2 SWAP1 PUSH2 0x1993 JUMP JUMPDEST PUSH1 0x40 MLOAD DUP1 SWAP2 SUB SWAP1 RETURN JUMPDEST PUSH2 0x2BE PUSH2 0xBEB JUMP JUMPDEST PUSH1 0x40 MLOAD PUSH2 0x2CB SWAP2 SWAP1 PUSH2 0x1C78 JUMP JUMPDEST PUSH1 0x40 MLOAD DUP1 SWAP2 SUB SWAP1 RETURN JUMPDEST PUSH2 0x2EE PUSH1 0x4 DUP1 CALLDATASIZE SUB DUP2 ADD SWAP1 PUSH2 0x2E9 SWAP2 SWAP1 PUSH2 0x18FB JUMP JUMPDEST PUSH2 0xC10 JUMP JUMPDEST STOP JUMPDEST PUSH2 0x30A PUSH1 0x4 DUP1 CALLDATASIZE SUB DUP2 ADD SWAP1 PUSH2 0x305 SWAP2 SWAP1 PUSH2 0x1C2B JUMP JUMPDEST PUSH2 0xE05 JUMP JUMPDEST PUSH1 0x40 MLOAD PUSH2 0x317 SWAP2 SWAP1 PUSH2 0x1887 JUMP JUMPDEST PUSH1 0x40 MLOAD DUP1 SWAP2 SUB SWAP1 RETURN JUMPDEST PUSH2 0x33A PUSH1 0x4 DUP1 CALLDATASIZE SUB DUP2 ADD SWAP1 PUSH2 0x335 SWAP2 SWAP1 PUSH2 0x18FB JUMP JUMPDEST PUSH2 0xE69 JUMP JUMPDEST STOP JUMPDEST PUSH2 0x344 PUSH2 0x1096 JUMP JUMPDEST PUSH1 0x40 MLOAD PUSH2 0x351 SWAP2 SWAP1 PUSH2 0x1993 JUMP JUMPDEST PUSH1 0x40 MLOAD DUP1 SWAP2 SUB SWAP1 RETURN JUMPDEST PUSH2 0x374 PUSH1 0x4 DUP1 CALLDATASIZE SUB DUP2 ADD SWAP1 PUSH2 0x36F SWAP2 SWAP1 PUSH2 0x18FB JUMP JUMPDEST PUSH2 0x109C JUMP JUMPDEST PUSH1 0x40 MLOAD PUSH2 0x387 SWAP8 SWAP7 SWAP6 SWAP5 SWAP4 SWAP3 SWAP2 SWAP1 PUSH2 0x1CF1 JUMP JUMPDEST PUSH1 0x40 MLOAD DUP1 SWAP2 SUB SWAP1 RETURN JUMPDEST PUSH2 0x398 PUSH2 0x118B JUMP JUMPDEST STOP JUMPDEST PUSH2 0x3B4 PUSH1 0x4 DUP1 CALLDATASIZE SUB DUP2 ADD SWAP1 PUSH2 0x3AF SWAP2 SWAP1 PUSH2 0x1C2B JUMP JUMPDEST PUSH2 0x12FC JUMP JUMPDEST STOP JUMPDEST PUSH2 0x3BE PUSH2 0x131E JUMP JUMPDEST PUSH1 0x40 MLOAD PUSH2 0x3CB SWAP2 SWAP1 PUSH2 0x1DC0 JUMP JUMPDEST PUSH1 0x40 MLOAD DUP1 SWAP2 SUB SWAP1 RETURN JUMPDEST PUSH0 PUSH32 0x7965DB0B00000000000000000000000000000000000000000000000000000000 PUSH28 0xFFFFFFFFFFFFFFFFFFFFFFFFFFFFFFFFFFFFFFFFFFFFFFFFFFFFFFFF NOT AND DUP3 PUSH28 0xFFFFFFFFFFFFFFFFFFFFFFFFFFFFFFFFFFFFFFFFFFFFFFFFFFFFFFFF NOT AND EQ DUP1 PUSH2 0x446 JUMPI POP PUSH2 0x445 DUP3 PUSH2 0x1342 JUMP JUMPDEST JUMPDEST SWAP1 POP SWAP2 SWAP1 POP JUMP JUMPDEST PUSH1 0x3 SLOAD DUP2 JUMP JUMPDEST PUSH1 0x3 SLOAD DUP2 LT PUSH2 0x497 JUMPI PUSH1 0x40 MLOAD PUSH32 0x8C379A000000000000000000000000000000000000000000000000000000000 DUP2 MSTORE PUSH1 0x4 ADD PUSH2 0x48E SWAP1 PUSH2 0x1E23 JUMP JUMPDEST PUSH1 0x40 MLOAD DUP1 SWAP2 SUB SWAP1 REVERT JUMPDEST TIMESTAMP PUSH1 0x6 PUSH0 CALLER PUSH20 0xFFFFFFFFFFFFFFFFFFFFFFFFFFFFFFFFFFFFFFFF AND PUSH20 0xFFFFFFFFFFFFFFFFFFFFFFFFFFFFFFFFFFFFFFFF AND DUP2 MSTORE PUSH1 0x20 ADD SWAP1 DUP2 MSTORE PUSH1 0x20 ADD PUSH0 KECCAK256 PUSH1 0x1 ADD PUSH0 DUP4 DUP2 MSTORE PUSH1 0x20 ADD SWAP1 DUP2 MSTORE PUSH1 0x20 ADD PUSH0 KECCAK256 SLOAD GT PUSH2 0x528 JUMPI PUSH1 0x40 MLOAD PUSH32 0x8C379A000000000000000000000000000000000000000000000000000000000 DUP2 MSTORE PUSH1 0x4 ADD PUSH2 0x51F SWAP1 PUSH2 0x1E8B JUMP JUMPDEST PUSH1 0x40 MLOAD DUP1 SWAP2 SUB SWAP1 REVERT JUMPDEST TIMESTAMP PUSH1 0x6 PUSH0 CALLER PUSH20 0xFFFFFFFFFFFFFFFFFFFFFFFFFFFFFFFFFFFFFFFF AND PUSH20 0xFFFFFFFFFFFFFFFFFFFFFFFFFFFFFFFFFFFFFFFF AND DUP2 MSTORE PUSH1 0x20 ADD SWAP1 DUP2 MSTORE PUSH1 0x20 ADD PUSH0 KECCAK256 PUSH1 0x1 ADD PUSH0 DUP4 DUP2 MSTORE PUSH1 0x20 ADD SWAP1 DUP2 MSTORE PUSH1 0x20 ADD PUSH0 KECCAK256 DUP2 SWAP1 SSTORE POP DUP1 CALLER PUSH20 0xFFFFFFFFFFFFFFFFFFFFFFFFFFFFFFFFFFFFFFFF AND PUSH32 0x6AA12C0AD65927B4A753D119C26E490D3C4A4E11CB631B43131A709DC1E5917 PUSH1 0x40 MLOAD PUSH1 0x40 MLOAD DUP1 SWAP2 SUB SWAP1 LOG3 POP JUMP JUMPDEST PUSH0 PUSH1 0x1 PUSH0 DUP4 DUP2 MSTORE PUSH1 0x20 ADD SWAP1 DUP2 MSTORE PUSH1 0x20 ADD PUSH0 KECCAK256 PUSH1 0x1 ADD SLOAD SWAP1 POP SWAP2 SWAP1 POP JUMP JUMPDEST PUSH1 0x4 PUSH1 0x20 MSTORE DUP1 PUSH0 MSTORE PUSH1 0x40 PUSH0 KECCAK256 PUSH0 SWAP2 POP SWAP1 POP SLOAD DUP2 JUMP JUMPDEST PUSH0 DUP5 MLOAD GT PUSH2 0x638 JUMPI PUSH1 0x40 MLOAD PUSH32 0x8C379A000000000000000000000000000000000000000000000000000000000 DUP2 MSTORE PUSH1 0x4 ADD PUSH2 0x62F SWAP1 PUSH2 0x1EF3 JUMP JUMPDEST PUSH1 0x40 MLOAD DUP1 SWAP2 SUB SWAP1 REVERT JUMPDEST PUSH0 DUP4 GT DUP1 PUSH2 0x645 JUMPI POP PUSH0 DUP3 GT JUMPDEST PUSH2 0x684 JUMPI PUSH1 0x40 MLOAD PUSH32 0x8C379A000000000000000000000000000000000000000000000000000000000 DUP2 MSTORE PUSH1 0x4 ADD PUSH2 0x67B SWAP1 PUSH2 0x1F81 JUMP JUMPDEST PUSH1 0x40 MLOAD DUP1 SWAP2 SUB SWAP1 REVERT JUMPDEST PUSH0 PUSH1 0x3 PUSH0 DUP2 SLOAD DUP1 SWAP3 SWAP2 SWAP1 PUSH2 0x697 SWAP1 PUSH2 0x1FCC JUMP JUMPDEST SWAP2 SWAP1 POP SSTORE SWAP1 POP PUSH1 0x40 MLOAD DUP1 PUSH1 0xE0 ADD PUSH1 0x40 MSTORE DUP1 CALLER PUSH20 0xFFFFFFFFFFFFFFFFFFFFFFFFFFFFFFFFFFFFFFFF AND DUP2 MSTORE PUSH1 0x20 ADD DUP7 DUP2 MSTORE PUSH1 0x20 ADD DUP6 DUP2 MSTORE PUSH1 0x20 ADD DUP5 DUP2 MSTORE PUSH1 0x20 ADD DUP4 DUP2 MSTORE PUSH1 0x20 ADD PUSH0 DUP2 MSTORE PUSH1 0x20 ADD PUSH1 0x1 ISZERO ISZERO DUP2 MSTORE POP PUSH1 0x5 PUSH0 DUP4 DUP2 MSTORE PUSH1 0x20 ADD SWAP1 DUP2 MSTORE PUSH1 0x20 ADD PUSH0 KECCAK256 PUSH0 DUP3 ADD MLOAD DUP2 PUSH0 ADD PUSH0 PUSH2 0x100 EXP DUP2 SLOAD DUP2 PUSH20 0xFFFFFFFFFFFFFFFFFFFFFFFFFFFFFFFFFFFFFFFF MUL NOT AND SWAP1 DUP4 PUSH20 0xFFFFFFFFFFFFFFFFFFFFFFFFFFFFFFFFFFFFFFFF AND MUL OR SWAP1 SSTORE POP PUSH1 0x20 DUP3 ADD MLOAD DUP2 PUSH1 0x1 ADD SWAP1 DUP2 PUSH2 0x753 SWAP2 SWAP1 PUSH2 0x2204 JUMP JUMPDEST POP PUSH1 0x40 DUP3 ADD MLOAD DUP2 PUSH1 0x2 ADD SSTORE PUSH1 0x60 DUP3 ADD MLOAD DUP2 PUSH1 0x3 ADD SSTORE PUSH1 0x80 DUP3 ADD MLOAD DUP2 PUSH1 0x4 ADD SSTORE PUSH1 0xA0 DUP3 ADD MLOAD DUP2 PUSH1 0x5 ADD SSTORE PUSH1 0xC0 DUP3 ADD MLOAD DUP2 PUSH1 0x6 ADD PUSH0 PUSH2 0x100 EXP DUP2 SLOAD DUP2 PUSH1 0xFF MUL NOT AND SWAP1 DUP4 ISZERO ISZERO MUL OR SWAP1 SSTORE POP SWAP1 POP POP CALLER PUSH20 0xFFFFFFFFFFFFFFFFFFFFFFFFFFFFFFFFFFFFFFFF AND DUP2 PUSH32 0xAEB4FDD5A376011A12E318BF03DE0006C5C806196FB1D14F787BE471267CB8DC DUP8 DUP8 DUP8 PUSH1 0x40 MLOAD PUSH2 0x7E9 SWAP4 SWAP3 SWAP2 SWAP1 PUSH2 0x22D3 JUMP JUMPDEST PUSH1 0x40 MLOAD DUP1 SWAP2 SUB SWAP1 LOG3 POP POP POP POP POP JUMP JUMPDEST PUSH1 0x3 SLOAD DUP3 LT PUSH2 0x83C JUMPI PUSH1 0x40 MLOAD PUSH32 0x8C379A000000000000000000000000000000000000000000000000000000000 DUP2 MSTORE PUSH1 0x4 ADD PUSH2 0x833 SWAP1 PUSH2 0x1E23 JUMP JUMPDEST PUSH1 0x40 MLOAD DUP1 SWAP2 SUB SWAP1 REVERT JUMPDEST PUSH0 DUP2 GT PUSH2 0x87E JUMPI PUSH1 0x40 MLOAD PUSH32 0x8C379A000000000000000000000000000000000000000000000000000000000 DUP2 MSTORE PUSH1 0x4 ADD PUSH2 0x875 SWAP1 PUSH2 0x237F JUMP JUMPDEST PUSH1 0x40 MLOAD DUP1 SWAP2 SUB SWAP1 REVERT JUMPDEST PUSH0 PUSH1 0x5 PUSH0 DUP5 DUP2 MSTORE PUSH1 0x20 ADD SWAP1 DUP2 MSTORE PUSH1 0x20 ADD PUSH0 KECCAK256 SWAP1 POP DUP1 PUSH1 0x6 ADD PUSH0 SWAP1 SLOAD SWAP1 PUSH2 0x100 EXP SWAP1 DIV PUSH1 0xFF AND PUSH2 0x8E2 JUMPI PUSH1 0x40 MLOAD PUSH32 0x8C379A000000000000000000000000000000000000000000000000000000000 DUP2 MSTORE PUSH1 0x4 ADD PUSH2 0x8D9 SWAP1 PUSH2 0x23E7 JUMP JUMPDEST PUSH1 0x40 MLOAD DUP1 SWAP2 SUB SWAP1 REVERT JUMPDEST PUSH0 DUP3 DUP3 PUSH1 0x2 ADD SLOAD PUSH2 0x8F3 SWAP2 SWAP1 PUSH2 0x2405 JUMP JUMPDEST SWAP1 POP PUSH2 0x942 CALLER ADDRESS DUP4 PUSH32 0x0 PUSH20 0xFFFFFFFFFFFFFFFFFFFFFFFFFFFFFFFFFFFFFFFF AND PUSH2 0x13AB SWAP1 SWAP4 SWAP3 SWAP2 SWAP1 PUSH4 0xFFFFFFFF AND JUMP JUMPDEST DUP3 PUSH1 0x6 PUSH0 CALLER PUSH20 0xFFFFFFFFFFFFFFFFFFFFFFFFFFFFFFFFFFFFFFFF AND PUSH20 0xFFFFFFFFFFFFFFFFFFFFFFFFFFFFFFFFFFFFFFFF AND DUP2 MSTORE PUSH1 0x20 ADD SWAP1 DUP2 MSTORE PUSH1 0x20 ADD PUSH0 KECCAK256 PUSH0 ADD PUSH0 DUP7 DUP2 MSTORE PUSH1 0x20 ADD SWAP1 DUP2 MSTORE PUSH1 0x20 ADD PUSH0 KECCAK256 PUSH0 DUP3 DUP3 SLOAD PUSH2 0x99F SWAP2 SWAP1 PUSH2 0x2446 JUMP JUMPDEST SWAP3 POP POP DUP2 SWAP1 SSTORE POP DUP1 PUSH1 0x4 PUSH0 DUP5 PUSH0 ADD PUSH0 SWAP1 SLOAD SWAP1 PUSH2 0x100 EXP SWAP1 DIV PUSH20 0xFFFFFFFFFFFFFFFFFFFFFFFFFFFFFFFFFFFFFFFF AND PUSH20 0xFFFFFFFFFFFFFFFFFFFFFFFFFFFFFFFFFFFFFFFF AND PUSH20 0xFFFFFFFFFFFFFFFFFFFFFFFFFFFFFFFFFFFFFFFF AND DUP2 MSTORE PUSH1 0x20 ADD SWAP1 DUP2 MSTORE PUSH1 0x20 ADD PUSH0 KECCAK256 PUSH0 DUP3 DUP3 SLOAD PUSH2 0xA14 SWAP2 SWAP1 PUSH2 0x2446 JUMP JUMPDEST SWAP3 POP POP DUP2 SWAP1 SSTORE POP DUP3 DUP3 PUSH1 0x5 ADD PUSH0 DUP3 DUP3 SLOAD PUSH2 0xA2E SWAP2 SWAP1 PUSH2 0x2446 JUMP JUMPDEST SWAP3 POP POP DUP2 SWAP1 SSTORE POP DUP4 CALLER PUSH20 0xFFFFFFFFFFFFFFFFFFFFFFFFFFFFFFFFFFFFFFFF AND PUSH32 0x651496919C95942A8A70DB2E93544280A0491B14565245385A8026DCB32E923B DUP6 PUSH1 0x40 MLOAD PUSH2 0xA7C SWAP2 SWAP1 PUSH2 0x18B8 JUMP JUMPDEST PUSH1 0x40 MLOAD DUP1 SWAP2 SUB SWAP1 LOG3 POP POP POP POP JUMP JUMPDEST PUSH2 0xA93 DUP3 PUSH2 0x5C3 JUMP JUMPDEST PUSH2 0xA9C DUP2 PUSH2 0x142D JUMP JUMPDEST PUSH2 0xAA6 DUP4 DUP4 PUSH2 0x1441 JUMP JUMPDEST POP POP POP POP JUMP JUMPDEST PUSH2 0xAB4 PUSH2 0x152A JUMP JUMPDEST PUSH20 0xFFFFFFFFFFFFFFFFFFFFFFFFFFFFFFFFFFFFFFFF AND DUP2 PUSH20 0xFFFFFFFFFFFFFFFFFFFFFFFFFFFFFFFFFFFFFFFF AND EQ PUSH2 0xB18 JUMPI PUSH1 0x40 MLOAD PUSH32 0x6697B23200000000000000000000000000000000000000000000000000000000 DUP2 MSTORE PUSH1 0x4 ADD PUSH1 0x40 MLOAD DUP1 SWAP2 SUB SWAP1 REVERT JUMPDEST PUSH2 0xB22 DUP3 DUP3 PUSH2 0x1531 JUMP JUMPDEST POP POP POP JUMP JUMPDEST PUSH0 PUSH32 0x0 PUSH20 0xFFFFFFFFFFFFFFFFFFFFFFFFFFFFFFFFFFFFFFFF AND PUSH4 0x70A08231 DUP4 PUSH1 0x40 MLOAD DUP3 PUSH4 0xFFFFFFFF AND PUSH1 0xE0 SHL DUP2 MSTORE PUSH1 0x4 ADD PUSH2 0xB81 SWAP2 SWAP1 PUSH2 0x1C78 JUMP JUMPDEST PUSH1 0x20 PUSH1 0x40 MLOAD DUP1 DUP4 SUB DUP2 DUP7 GAS STATICCALL ISZERO DUP1 ISZERO PUSH2 0xB9C JUMPI RETURNDATASIZE PUSH0 DUP1 RETURNDATACOPY RETURNDATASIZE PUSH0 REVERT JUMPDEST POP POP POP POP PUSH1 0x40 MLOAD RETURNDATASIZE PUSH1 0x1F NOT PUSH1 0x1F DUP3 ADD AND DUP3 ADD DUP1 PUSH1 0x40 MSTORE POP DUP2 ADD SWAP1 PUSH2 0xBC0 SWAP2 SWAP1 PUSH2 0x248D JUMP JUMPDEST SWAP1 POP SWAP2 SWAP1 POP JUMP JUMPDEST PUSH32 0xA49807205CE4D355092EF5A8A18F56E8913CF4A201FBE287825B095693C21775 DUP2 JUMP JUMPDEST PUSH1 0x2 PUSH0 SWAP1 SLOAD SWAP1 PUSH2 0x100 EXP SWAP1 DIV PUSH20 0xFFFFFFFFFFFFFFFFFFFFFFFFFFFFFFFFFFFFFFFF AND DUP2 JUMP JUMPDEST PUSH1 0x3 SLOAD DUP2 LT PUSH2 0xC54 JUMPI PUSH1 0x40 MLOAD PUSH32 0x8C379A000000000000000000000000000000000000000000000000000000000 DUP2 MSTORE PUSH1 0x4 ADD PUSH2 0xC4B SWAP1 PUSH2 0x1E23 JUMP JUMPDEST PUSH1 0x40 MLOAD DUP1 SWAP2 SUB SWAP1 REVERT JUMPDEST PUSH0 PUSH1 0x5 PUSH0 DUP4 DUP2 MSTORE PUSH1 0x20 ADD SWAP1 DUP2 MSTORE PUSH1 0x20 ADD PUSH0 KECCAK256 SWAP1 POP DUP1 PUSH1 0x6 ADD PUSH0 SWAP1 SLOAD SWAP1 PUSH2 0x100 EXP SWAP1 DIV PUSH1 0xFF AND PUSH2 0xCB8 JUMPI PUSH1 0x40 MLOAD PUSH32 0x8C379A000000000000000000000000000000000000000000000000000000000 DUP2 MSTORE PUSH1 0x4 ADD PUSH2 0xCAF SWAP1 PUSH2 0x23E7 JUMP JUMPDEST PUSH1 0x40 MLOAD DUP1 SWAP2 SUB SWAP1 REVERT JUMPDEST PUSH0 PUSH1 0x6 PUSH0 CALLER PUSH20 0xFFFFFFFFFFFFFFFFFFFFFFFFFFFFFFFFFFFFFFFF AND PUSH20 0xFFFFFFFFFFFFFFFFFFFFFFFFFFFFFFFFFFFFFFFF AND DUP2 MSTORE PUSH1 0x20 ADD SWAP1 DUP2 MSTORE PUSH1 0x20 ADD PUSH0 KECCAK256 PUSH0 ADD PUSH0 DUP5 DUP2 MSTORE PUSH1 0x20 ADD SWAP1 DUP2 MSTORE PUSH1 0x20 ADD PUSH0 KECCAK256 SLOAD SWAP1 POP PUSH0 DUP2 GT PUSH2 0xD4C JUMPI PUSH1 0x40 MLOAD PUSH32 0x8C379A000000000000000000000000000000000000000000000000000000000 DUP2 MSTORE PUSH1 0x4 ADD PUSH2 0xD43 SWAP1 PUSH2 0x2502 JUMP JUMPDEST PUSH1 0x40 MLOAD DUP1 SWAP2 SUB SWAP1 REVERT JUMPDEST PUSH1 0x1 PUSH1 0x6 PUSH0 CALLER PUSH20 0xFFFFFFFFFFFFFFFFFFFFFFFFFFFFFFFFFFFFFFFF AND PUSH20 0xFFFFFFFFFFFFFFFFFFFFFFFFFFFFFFFFFFFFFFFF AND DUP2 MSTORE PUSH1 0x20 ADD SWAP1 DUP2 MSTORE PUSH1 0x20 ADD PUSH0 KECCAK256 PUSH0 ADD PUSH0 DUP6 DUP2 MSTORE PUSH1 0x20 ADD SWAP1 DUP2 MSTORE PUSH1 0x20 ADD PUSH0 KECCAK256 PUSH0 DUP3 DUP3 SLOAD PUSH2 0xDAA SWAP2 SWAP1 PUSH2 0x2520 JUMP JUMPDEST SWAP3 POP POP DUP2 SWAP1 SSTORE POP DUP3 CALLER PUSH20 0xFFFFFFFFFFFFFFFFFFFFFFFFFFFFFFFFFFFFFFFF AND PUSH32 0xCCA1381D7195CD2569F7FC5EA523BE6BBEC35A1421AB82B215B1651F7B22157E TIMESTAMP PUSH1 0x40 MLOAD PUSH2 0xDF8 SWAP2 SWAP1 PUSH2 0x18B8 JUMP JUMPDEST PUSH1 0x40 MLOAD DUP1 SWAP2 SUB SWAP1 LOG3 POP POP POP JUMP JUMPDEST PUSH0 PUSH1 0x1 PUSH0 DUP5 DUP2 MSTORE PUSH1 0x20 ADD SWAP1 DUP2 MSTORE PUSH1 0x20 ADD PUSH0 KECCAK256 PUSH0 ADD PUSH0 DUP4 PUSH20 0xFFFFFFFFFFFFFFFFFFFFFFFFFFFFFFFFFFFFFFFF AND PUSH20 0xFFFFFFFFFFFFFFFFFFFFFFFFFFFFFFFFFFFFFFFF AND DUP2 MSTORE PUSH1 0x20 ADD SWAP1 DUP2 MSTORE PUSH1 0x20 ADD PUSH0 KECCAK256 PUSH0 SWAP1 SLOAD SWAP1 PUSH2 0x100 EXP SWAP1 DIV PUSH1 0xFF AND SWAP1 POP SWAP3 SWAP2 POP POP JUMP JUMPDEST PUSH1 0x3 SLOAD DUP2 LT PUSH2 0xEAD JUMPI PUSH1 0x40 MLOAD PUSH32 0x8C379A000000000000000000000000000000000000000000000000000000000 DUP2 MSTORE PUSH1 0x4 ADD PUSH2 0xEA4 SWAP1 PUSH2 0x1E23 JUMP JUMPDEST PUSH1 0x40 MLOAD DUP1 SWAP2 SUB SWAP1 REVERT JUMPDEST PUSH0 PUSH1 0x5 PUSH0 DUP4 DUP2 MSTORE PUSH1 0x20 ADD SWAP1 DUP2 MSTORE PUSH1 0x20 ADD PUSH0 KECCAK256 SWAP1 POP DUP1 PUSH1 0x6 ADD PUSH0 SWAP1 SLOAD SWAP1 PUSH2 0x100 EXP SWAP1 DIV PUSH1 0xFF AND PUSH2 0xF11 JUMPI PUSH1 0x40 MLOAD PUSH32 0x8C379A000000000000000000000000000000000000000000000000000000000 DUP2 MSTORE PUSH1 0x4 ADD PUSH2 0xF08 SWAP1 PUSH2 0x23E7 JUMP JUMPDEST PUSH1 0x40 MLOAD DUP1 SWAP2 SUB SWAP1 REVERT JUMPDEST PUSH0 DUP2 PUSH1 0x3 ADD SLOAD SWAP1 POP PUSH2 0xF66 CALLER ADDRESS DUP4 PUSH32 0x0 PUSH20 0xFFFFFFFFFFFFFFFFFFFFFFFFFFFFFFFFFFFFFFFF AND PUSH2 0x13AB SWAP1 SWAP4 SWAP3 SWAP2 SWAP1 PUSH4 0xFFFFFFFF AND JUMP JUMPDEST DUP2 PUSH1 0x4 ADD SLOAD TIMESTAMP PUSH2 0xF76 SWAP2 SWAP1 PUSH2 0x2446 JUMP JUMPDEST PUSH1 0x6 PUSH0 CALLER PUSH20 0xFFFFFFFFFFFFFFFFFFFFFFFFFFFFFFFFFFFFFFFF AND PUSH20 0xFFFFFFFFFFFFFFFFFFFFFFFFFFFFFFFFFFFFFFFF AND DUP2 MSTORE PUSH1 0x20 ADD SWAP1 DUP2 MSTORE PUSH1 0x20 ADD PUSH0 KECCAK256 PUSH1 0x1 ADD PUSH0 DUP6 DUP2 MSTORE PUSH1 0x20 ADD SWAP1 DUP2 MSTORE PUSH1 0x20 ADD PUSH0 KECCAK256 DUP2 SWAP1 SSTORE POP DUP1 PUSH1 0x4 PUSH0 DUP5 PUSH0 ADD PUSH0 SWAP1 SLOAD SWAP1 PUSH2 0x100 EXP SWAP1 DIV PUSH20 0xFFFFFFFFFFFFFFFFFFFFFFFFFFFFFFFFFFFFFFFF AND PUSH20 0xFFFFFFFFFFFFFFFFFFFFFFFFFFFFFFFFFFFFFFFF AND PUSH20 0xFFFFFFFFFFFFFFFFFFFFFFFFFFFFFFFFFFFFFFFF AND DUP2 MSTORE PUSH1 0x20 ADD SWAP1 DUP2 MSTORE PUSH1 0x20 ADD PUSH0 KECCAK256 PUSH0 DUP3 DUP3 SLOAD PUSH2 0x1037 SWAP2 SWAP1 PUSH2 0x2446 JUMP JUMPDEST SWAP3 POP POP DUP2 SWAP1 SSTORE POP DUP3 CALLER PUSH20 0xFFFFFFFFFFFFFFFFFFFFFFFFFFFFFFFFFFFFFFFF AND PUSH32 0x6D458FA94CC5B30D7877BED127C2029F98BC0CBC4634DC7789B6BC804FBDAE03 DUP5 PUSH1 0x4 ADD SLOAD PUSH1 0x40 MLOAD PUSH2 0x1089 SWAP2 SWAP1 PUSH2 0x18B8 JUMP JUMPDEST PUSH1 0x40 MLOAD DUP1 SWAP2 SUB SWAP1 LOG3 POP POP POP JUMP JUMPDEST PUSH0 DUP1 SHL DUP2 JUMP JUMPDEST PUSH1 0x5 PUSH1 0x20 MSTORE DUP1 PUSH0 MSTORE PUSH1 0x40 PUSH0 KECCAK256 PUSH0 SWAP2 POP SWAP1 POP DUP1 PUSH0 ADD PUSH0 SWAP1 SLOAD SWAP1 PUSH2 0x100 EXP SWAP1 DIV PUSH20 0xFFFFFFFFFFFFFFFFFFFFFFFFFFFFFFFFFFFFFFFF AND SWAP1 DUP1 PUSH1 0x1 ADD DUP1 SLOAD PUSH2 0x10E0 SWAP1 PUSH2 0x2040 JUMP JUMPDEST DUP1 PUSH1 0x1F ADD PUSH1 0x20 DUP1 SWAP2 DIV MUL PUSH1 0x20 ADD PUSH1 0x40 MLOAD SWAP1 DUP2 ADD PUSH1 0x40 MSTORE DUP1 SWAP3 SWAP2 SWAP1 DUP2 DUP2 MSTORE PUSH1 0x20 ADD DUP3 DUP1 SLOAD PUSH2 0x110C SWAP1 PUSH2 0x2040 JUMP JUMPDEST DUP1 ISZERO PUSH2 0x1157 JUMPI DUP1 PUSH1 0x1F LT PUSH2 0x112E JUMPI PUSH2 0x100 DUP1 DUP4 SLOAD DIV MUL DUP4 MSTORE SWAP2 PUSH1 0x20 ADD SWAP2 PUSH2 0x1157 JUMP JUMPDEST DUP3 ADD SWAP2 SWAP1 PUSH0 MSTORE PUSH1 0x20 PUSH0 KECCAK256 SWAP1 JUMPDEST DUP2 SLOAD DUP2 MSTORE SWAP1 PUSH1 0x1 ADD SWAP1 PUSH1 0x20 ADD DUP1 DUP4 GT PUSH2 0x113A JUMPI DUP3 SWAP1 SUB PUSH1 0x1F AND DUP3 ADD SWAP2 JUMPDEST POP POP POP POP POP SWAP1 DUP1 PUSH1 0x2 ADD SLOAD SWAP1 DUP1 PUSH1 0x3 ADD SLOAD SWAP1 DUP1 PUSH1 0x4 ADD SLOAD SWAP1 DUP1 PUSH1 0x5 ADD SLOAD SWAP1 DUP1 PUSH1 0x6 ADD PUSH0 SWAP1 SLOAD SWAP1 PUSH2 0x100 EXP SWAP1 DIV PUSH1 0xFF AND SWAP1 POP DUP8 JUMP JUMPDEST PUSH2 0x1193 PUSH2 0x161B JUMP JUMPDEST PUSH0 PUSH1 0x4 PUSH0 CALLER PUSH20 0xFFFFFFFFFFFFFFFFFFFFFFFFFFFFFFFFFFFFFFFF AND PUSH20 0xFFFFFFFFFFFFFFFFFFFFFFFFFFFFFFFFFFFFFFFF AND DUP2 MSTORE PUSH1 0x20 ADD SWAP1 DUP2 MSTORE PUSH1 0x20 ADD PUSH0 KECCAK256 SLOAD SWAP1 POP PUSH0 DUP2 GT PUSH2 0x1216 JUMPI PUSH1 0x40 MLOAD PUSH32 0x8C379A000000000000000000000000000000000000000000000000000000000 DUP2 MSTORE PUSH1 0x4 ADD PUSH2 0x120D SWAP1 PUSH2 0x259D JUMP JUMPDEST PUSH1 0x40 MLOAD DUP1 SWAP2 SUB SWAP1 REVERT JUMPDEST PUSH0 PUSH1 0x4 PUSH0 CALLER PUSH20 0xFFFFFFFFFFFFFFFFFFFFFFFFFFFFFFFFFFFFFFFF AND PUSH20 0xFFFFFFFFFFFFFFFFFFFFFFFFFFFFFFFFFFFFFFFF AND DUP2 MSTORE PUSH1 0x20 ADD SWAP1 DUP2 MSTORE PUSH1 0x20 ADD PUSH0 KECCAK256 DUP2 SWAP1 SSTORE POP PUSH2 0x12A3 CALLER DUP3 PUSH32 0x0 PUSH20 0xFFFFFFFFFFFFFFFFFFFFFFFFFFFFFFFFFFFFFFFF AND PUSH2 0x1668 SWAP1 SWAP3 SWAP2 SWAP1 PUSH4 0xFFFFFFFF AND JUMP JUMPDEST CALLER PUSH20 0xFFFFFFFFFFFFFFFFFFFFFFFFFFFFFFFFFFFFFFFF AND PUSH32 0x6352C5382C4A4578E712449CA65E83CDB392D045DFCF1CAD9615189DB2DA244B DUP3 PUSH1 0x40 MLOAD PUSH2 0x12E9 SWAP2 SWAP1 PUSH2 0x18B8 JUMP JUMPDEST PUSH1 0x40 MLOAD DUP1 SWAP2 SUB SWAP1 LOG2 POP PUSH2 0x12FA PUSH2 0x16E7 JUMP JUMPDEST JUMP JUMPDEST PUSH2 0x1305 DUP3 PUSH2 0x5C3 JUMP JUMPDEST PUSH2 0x130E DUP2 PUSH2 0x142D JUMP JUMPDEST PUSH2 0x1318 DUP4 DUP4 PUSH2 0x1531 JUMP JUMPDEST POP POP POP POP JUMP JUMPDEST PUSH32 0x0 DUP2 JUMP JUMPDEST PUSH0 PUSH32 0x1FFC9A700000000000000000000000000000000000000000000000000000000 PUSH28 0xFFFFFFFFFFFFFFFFFFFFFFFFFFFFFFFFFFFFFFFFFFFFFFFFFFFFFFFF NOT AND DUP3 PUSH28 0xFFFFFFFFFFFFFFFFFFFFFFFFFFFFFFFFFFFFFFFFFFFFFFFFFFFFFFFF NOT AND EQ SWAP1 POP SWAP2 SWAP1 POP JUMP JUMPDEST PUSH2 0x1427 DUP5 DUP6 PUSH20 0xFFFFFFFFFFFFFFFFFFFFFFFFFFFFFFFFFFFFFFFF AND PUSH4 0x23B872DD DUP7 DUP7 DUP7 PUSH1 0x40 MLOAD PUSH1 0x24 ADD PUSH2 0x13E0 SWAP4 SWAP3 SWAP2 SWAP1 PUSH2 0x25BB JUMP JUMPDEST PUSH1 0x40 MLOAD PUSH1 0x20 DUP2 DUP4 SUB SUB DUP2 MSTORE SWAP1 PUSH1 0x40 MSTORE SWAP2 POP PUSH1 0xE0 SHL PUSH1 0x20 DUP3 ADD DUP1 MLOAD PUSH28 0xFFFFFFFFFFFFFFFFFFFFFFFFFFFFFFFFFFFFFFFFFFFFFFFFFFFFFFFF DUP4 DUP2 DUP4 AND OR DUP4 MSTORE POP POP POP POP PUSH2 0x16F0 JUMP JUMPDEST POP POP POP POP JUMP JUMPDEST PUSH2 0x143E DUP2 PUSH2 0x1439 PUSH2 0x152A JUMP JUMPDEST PUSH2 0x178B JUMP JUMPDEST POP JUMP JUMPDEST PUSH0 PUSH2 0x144C DUP4 DUP4 PUSH2 0xE05 JUMP JUMPDEST PUSH2 0x1520 JUMPI PUSH1 0x1 DUP1 PUSH0 DUP6 DUP2 MSTORE PUSH1 0x20 ADD SWAP1 DUP2 MSTORE PUSH1 0x20 ADD PUSH0 KECCAK256 PUSH0 ADD PUSH0 DUP5 PUSH20 0xFFFFFFFFFFFFFFFFFFFFFFFFFFFFFFFFFFFFFFFF AND PUSH20 0xFFFFFFFFFFFFFFFFFFFFFFFFFFFFFFFFFFFFFFFF AND DUP2 MSTORE PUSH1 0x20 ADD SWAP1 DUP2 MSTORE PUSH1 0x20 ADD PUSH0 KECCAK256 PUSH0 PUSH2 0x100 EXP DUP2 SLOAD DUP2 PUSH1 0xFF MUL NOT AND SWAP1 DUP4 ISZERO ISZERO MUL OR SWAP1 SSTORE POP PUSH2 0x14BD PUSH2 0x152A JUMP JUMPDEST PUSH20 0xFFFFFFFFFFFFFFFFFFFFFFFFFFFFFFFFFFFFFFFF AND DUP3 PUSH20 0xFFFFFFFFFFFFFFFFFFFFFFFFFFFFFFFFFFFFFFFF AND DUP5 PUSH32 0x2F8788117E7EFF1D82E926EC794901D17C78024A50270940304540A733656F0D PUSH1 0x40 MLOAD PUSH1 0x40 MLOAD DUP1 SWAP2 SUB SWAP1 LOG4 PUSH1 0x1 SWAP1 POP PUSH2 0x1524 JUMP JUMPDEST PUSH0 SWAP1 POP JUMPDEST SWAP3 SWAP2 POP POP JUMP JUMPDEST PUSH0 CALLER SWAP1 POP SWAP1 JUMP JUMPDEST PUSH0 PUSH2 0x153C DUP4 DUP4 PUSH2 0xE05 JUMP JUMPDEST ISZERO PUSH2 0x1611 JUMPI PUSH0 PUSH1 0x1 PUSH0 DUP6 DUP2 MSTORE PUSH1 0x20 ADD SWAP1 DUP2 MSTORE PUSH1 0x20 ADD PUSH0 KECCAK256 PUSH0 ADD PUSH0 DUP5 PUSH20 0xFFFFFFFFFFFFFFFFFFFFFFFFFFFFFFFFFFFFFFFF AND PUSH20 0xFFFFFFFFFFFFFFFFFFFFFFFFFFFFFFFFFFFFFFFF AND DUP2 MSTORE PUSH1 0x20 ADD SWAP1 DUP2 MSTORE PUSH1 0x20 ADD PUSH0 KECCAK256 PUSH0 PUSH2 0x100 EXP DUP2 SLOAD DUP2 PUSH1 0xFF MUL NOT AND SWAP1 DUP4 ISZERO ISZERO MUL OR SWAP1 SSTORE POP PUSH2 0x15AE PUSH2 0x152A JUMP JUMPDEST PUSH20 0xFFFFFFFFFFFFFFFFFFFFFFFFFFFFFFFFFFFFFFFF AND DUP3 PUSH20 0xFFFFFFFFFFFFFFFFFFFFFFFFFFFFFFFFFFFFFFFF AND DUP5 PUSH32 0xF6391F5C32D9C69D2A47EA670B442974B53935D1EDC7FD64EB21E047A839171B PUSH1 0x40 MLOAD PUSH1 0x40 MLOAD DUP1 SWAP2 SUB SWAP1 LOG4 PUSH1 0x1 SWAP1 POP PUSH2 0x1615 JUMP JUMPDEST PUSH0 SWAP1 POP JUMPDEST SWAP3 SWAP2 POP POP JUMP JUMPDEST PUSH1 0x2 PUSH0 SLOAD SUB PUSH2 0x165F JUMPI PUSH1 0x40 MLOAD PUSH32 0x8C379A000000000000000000000000000000000000000000000000000000000 DUP2 MSTORE PUSH1 0x4 ADD PUSH2 0x1656 SWAP1 PUSH2 0x263A JUMP JUMPDEST PUSH1 0x40 MLOAD DUP1 SWAP2 SUB SWAP1 REVERT JUMPDEST PUSH1 0x2 PUSH0 DUP2 SWAP1 SSTORE POP JUMP JUMPDEST PUSH2 0x16E2 DUP4 DUP5 PUSH20 0xFFFFFFFFFFFFFFFFFFFFFFFFFFFFFFFFFFFFFFFF AND PUSH4 0xA9059CBB DUP6 DUP6 PUSH1 0x40 MLOAD PUSH1 0x24 ADD PUSH2 0x169B SWAP3 SWAP2 SWAP1 PUSH2 0x2658 JUMP JUMPDEST PUSH1 0x40 MLOAD PUSH1 0x20 DUP2 DUP4 SUB SUB DUP2 MSTORE SWAP1 PUSH1 0x40 MSTORE SWAP2 POP PUSH1 0xE0 SHL PUSH1 0x20 DUP3 ADD DUP1 MLOAD PUSH28 0xFFFFFFFFFFFFFFFFFFFFFFFFFFFFFFFFFFFFFFFFFFFFFFFFFFFFFFFF DUP4 DUP2 DUP4 AND OR DUP4 MSTORE POP POP POP POP PUSH2 0x16F0 JUMP JUMPDEST POP POP POP JUMP JUMPDEST PUSH1 0x1 PUSH0 DUP2 SWAP1 SSTORE POP JUMP JUMPDEST PUSH0 DUP1 PUSH1 0x20 PUSH0 DUP5 MLOAD PUSH1 0x20 DUP7 ADD PUSH0 DUP9 GAS CALL DUP1 PUSH2 0x170F JUMPI PUSH1 0x40 MLOAD RETURNDATASIZE PUSH0 DUP3 RETURNDATACOPY RETURNDATASIZE DUP2 REVERT JUMPDEST RETURNDATASIZE SWAP3 POP PUSH0 MLOAD SWAP2 POP POP PUSH0 DUP3 EQ PUSH2 0x1728 JUMPI PUSH1 0x1 DUP2 EQ ISZERO PUSH2 0x1743 JUMP JUMPDEST PUSH0 DUP5 PUSH20 0xFFFFFFFFFFFFFFFFFFFFFFFFFFFFFFFFFFFFFFFF AND EXTCODESIZE EQ JUMPDEST ISZERO PUSH2 0x1785 JUMPI DUP4 PUSH1 0x40 MLOAD PUSH32 0x5274AFE700000000000000000000000000000000000000000000000000000000 DUP2 MSTORE PUSH1 0x4 ADD PUSH2 0x177C SWAP2 SWAP1 PUSH2 0x1C78 JUMP JUMPDEST PUSH1 0x40 MLOAD DUP1 SWAP2 SUB SWAP1 REVERT JUMPDEST POP POP POP POP JUMP JUMPDEST PUSH2 0x1795 DUP3 DUP3 PUSH2 0xE05 JUMP JUMPDEST PUSH2 0x17D8 JUMPI DUP1 DUP3 PUSH1 0x40 MLOAD PUSH32 0xE2517D3F00000000000000000000000000000000000000000000000000000000 DUP2 MSTORE PUSH1 0x4 ADD PUSH2 0x17CF SWAP3 SWAP2 SWAP1 PUSH2 0x267F JUMP JUMPDEST PUSH1 0x40 MLOAD DUP1 SWAP2 SUB SWAP1 REVERT JUMPDEST POP POP JUMP JUMPDEST PUSH0 PUSH1 0x40 MLOAD SWAP1 POP SWAP1 JUMP JUMPDEST PUSH0 DUP1 REVERT JUMPDEST PUSH0 DUP1 REVERT JUMPDEST PUSH0 PUSH32 0xFFFFFFFF00000000000000000000000000000000000000000000000000000000 DUP3 AND SWAP1 POP SWAP2 SWAP1 POP JUMP JUMPDEST PUSH2 0x1821 DUP2 PUSH2 0x17ED JUMP JUMPDEST DUP2 EQ PUSH2 0x182B JUMPI PUSH0 DUP1 REVERT JUMPDEST POP JUMP JUMPDEST PUSH0 DUP2 CALLDATALOAD SWAP1 POP PUSH2 0x183C DUP2 PUSH2 0x1818 JUMP JUMPDEST SWAP3 SWAP2 POP POP JUMP JUMPDEST PUSH0 PUSH1 0x20 DUP3 DUP5 SUB SLT ISZERO PUSH2 0x1857 JUMPI PUSH2 0x1856 PUSH2 0x17E5 JUMP JUMPDEST JUMPDEST PUSH0 PUSH2 0x1864 DUP5 DUP3 DUP6 ADD PUSH2 0x182E JUMP JUMPDEST SWAP2 POP POP SWAP3 SWAP2 POP POP JUMP JUMPDEST PUSH0 DUP2 ISZERO ISZERO SWAP1 POP SWAP2 SWAP1 POP JUMP JUMPDEST PUSH2 0x1881 DUP2 PUSH2 0x186D JUMP JUMPDEST DUP3 MSTORE POP POP JUMP JUMPDEST PUSH0 PUSH1 0x20 DUP3 ADD SWAP1 POP PUSH2 0x189A PUSH0 DUP4 ADD DUP5 PUSH2 0x1878 JUMP JUMPDEST SWAP3 SWAP2 POP POP JUMP JUMPDEST PUSH0 DUP2 SWAP1 POP SWAP2 SWAP1 POP JUMP JUMPDEST PUSH2 0x18B2 DUP2 PUSH2 0x18A0 JUMP JUMPDEST DUP3 MSTORE POP POP JUMP JUMPDEST PUSH0 PUSH1 0x20 DUP3 ADD SWAP1 POP PUSH2 0x18CB PUSH0 DUP4 ADD DUP5 PUSH2 0x18A9 JUMP JUMPDEST SWAP3 SWAP2 POP POP JUMP JUMPDEST PUSH2 0x18DA DUP2 PUSH2 0x18A0 JUMP JUMPDEST DUP2 EQ PUSH2 0x18E4 JUMPI PUSH0 DUP1 REVERT JUMPDEST POP JUMP JUMPDEST PUSH0 DUP2 CALLDATALOAD SWAP1 POP PUSH2 0x18F5 DUP2 PUSH2 0x18D1 JUMP JUMPDEST SWAP3 SWAP2 POP POP JUMP JUMPDEST PUSH0 PUSH1 0x20 DUP3 DUP5 SUB SLT ISZERO PUSH2 0x1910 JUMPI PUSH2 0x190F PUSH2 0x17E5 JUMP JUMPDEST JUMPDEST PUSH0 PUSH2 0x191D DUP5 DUP3 DUP6 ADD PUSH2 0x18E7 JUMP JUMPDEST SWAP2 POP POP SWAP3 SWAP2 POP POP JUMP JUMPDEST PUSH0 DUP2 SWAP1 POP SWAP2 SWAP1 POP JUMP JUMPDEST PUSH2 0x1938 DUP2 PUSH2 0x1926 JUMP JUMPDEST DUP2 EQ PUSH2 0x1942 JUMPI PUSH0 DUP1 REVERT JUMPDEST POP JUMP JUMPDEST PUSH0 DUP2 CALLDATALOAD SWAP1 POP PUSH2 0x1953 DUP2 PUSH2 0x192F JUMP JUMPDEST SWAP3 SWAP2 POP POP JUMP JUMPDEST PUSH0 PUSH1 0x20 DUP3 DUP5 SUB SLT ISZERO PUSH2 0x196E JUMPI PUSH2 0x196D PUSH2 0x17E5 JUMP JUMPDEST JUMPDEST PUSH0 PUSH2 0x197B DUP5 DUP3 DUP6 ADD PUSH2 0x1945 JUMP JUMPDEST SWAP2 POP POP SWAP3 SWAP2 POP POP JUMP JUMPDEST PUSH2 0x198D DUP2 PUSH2 0x1926 JUMP JUMPDEST DUP3 MSTORE POP POP JUMP JUMPDEST PUSH0 PUSH1 0x20 DUP3 ADD SWAP1 POP PUSH2 0x19A6 PUSH0 DUP4 ADD DUP5 PUSH2 0x1984 JUMP JUMPDEST SWAP3 SWAP2 POP POP JUMP JUMPDEST PUSH0 PUSH20 0xFFFFFFFFFFFFFFFFFFFFFFFFFFFFFFFFFFFFFFFF DUP3 AND SWAP1 POP SWAP2 SWAP1 POP JUMP JUMPDEST PUSH0 PUSH2 0x19D5 DUP3 PUSH2 0x19AC JUMP JUMPDEST SWAP1 POP SWAP2 SWAP1 POP JUMP JUMPDEST PUSH2 0x19E5 DUP2 PUSH2 0x19CB JUMP JUMPDEST DUP2 EQ PUSH2 0x19EF JUMPI PUSH0 DUP1 REVERT JUMPDEST POP JUMP JUMPDEST PUSH0 DUP2 CALLDATALOAD SWAP1 POP PUSH2 0x1A00 DUP2 PUSH2 0x19DC JUMP JUMPDEST SWAP3 SWAP2 POP POP JUMP JUMPDEST PUSH0 PUSH1 0x20 DUP3 DUP5 SUB SLT ISZERO PUSH2 0x1A1B JUMPI PUSH2 0x1A1A PUSH2 0x17E5 JUMP JUMPDEST JUMPDEST PUSH0 PUSH2 0x1A28 DUP5 DUP3 DUP6 ADD PUSH2 0x19F2 JUMP JUMPDEST SWAP2 POP POP SWAP3 SWAP2 POP POP JUMP JUMPDEST PUSH0 DUP1 REVERT JUMPDEST PUSH0 DUP1 REVERT JUMPDEST PUSH0 PUSH1 0x1F NOT PUSH1 0x1F DUP4 ADD AND SWAP1 POP SWAP2 SWAP1 POP JUMP JUMPDEST PUSH32 0x4E487B7100000000000000000000000000000000000000000000000000000000 PUSH0 MSTORE PUSH1 0x41 PUSH1 0x4 MSTORE PUSH1 0x24 PUSH0 REVERT JUMPDEST PUSH2 0x1A7F DUP3 PUSH2 0x1A39 JUMP JUMPDEST DUP2 ADD DUP2 DUP2 LT PUSH8 0xFFFFFFFFFFFFFFFF DUP3 GT OR ISZERO PUSH2 0x1A9E JUMPI PUSH2 0x1A9D PUSH2 0x1A49 JUMP JUMPDEST JUMPDEST DUP1 PUSH1 0x40 MSTORE POP POP POP JUMP JUMPDEST PUSH0 PUSH2 0x1AB0 PUSH2 0x17DC JUMP JUMPDEST SWAP1 POP PUSH2 0x1ABC DUP3 DUP3 PUSH2 0x1A76 JUMP JUMPDEST SWAP2 SWAP1 POP JUMP JUMPDEST PUSH0 PUSH8 0xFFFFFFFFFFFFFFFF DUP3 GT ISZERO PUSH2 0x1ADB JUMPI PUSH2 0x1ADA PUSH2 0x1A49 JUMP JUMPDEST JUMPDEST PUSH2 0x1AE4 DUP3 PUSH2 0x1A39 JUMP JUMPDEST SWAP1 POP PUSH1 0x20 DUP2 ADD SWAP1 POP SWAP2 SWAP1 POP JUMP JUMPDEST DUP3 DUP2 DUP4 CALLDATACOPY PUSH0 DUP4 DUP4 ADD MSTORE POP POP POP JUMP JUMPDEST PUSH0 PUSH2 0x1B11 PUSH2 0x1B0C DUP5 PUSH2 0x1AC1 JUMP JUMPDEST PUSH2 0x1AA7 JUMP JUMPDEST SWAP1 POP DUP3 DUP2 MSTORE PUSH1 0x20 DUP2 ADD DUP5 DUP5 DUP5 ADD GT ISZERO PUSH2 0x1B2D JUMPI PUSH2 0x1B2C PUSH2 0x1A35 JUMP JUMPDEST JUMPDEST PUSH2 0x1B38 DUP5 DUP3 DUP6 PUSH2 0x1AF1 JUMP JUMPDEST POP SWAP4 SWAP3 POP POP POP JUMP JUMPDEST PUSH0 DUP3 PUSH1 0x1F DUP4 ADD SLT PUSH2 0x1B54 JUMPI PUSH2 0x1B53 PUSH2 0x1A31 JUMP JUMPDEST JUMPDEST DUP2 CALLDATALOAD PUSH2 0x1B64 DUP5 DUP3 PUSH1 0x20 DUP7 ADD PUSH2 0x1AFF JUMP JUMPDEST SWAP2 POP POP SWAP3 SWAP2 POP POP JUMP JUMPDEST PUSH0 DUP1 PUSH0 DUP1 PUSH1 0x80 DUP6 DUP8 SUB SLT ISZERO PUSH2 0x1B85 JUMPI PUSH2 0x1B84 PUSH2 0x17E5 JUMP JUMPDEST JUMPDEST PUSH0 DUP6 ADD CALLDATALOAD PUSH8 0xFFFFFFFFFFFFFFFF DUP2 GT ISZERO PUSH2 0x1BA2 JUMPI PUSH2 0x1BA1 PUSH2 0x17E9 JUMP JUMPDEST JUMPDEST PUSH2 0x1BAE DUP8 DUP3 DUP9 ADD PUSH2 0x1B40 JUMP JUMPDEST SWAP5 POP POP PUSH1 0x20 PUSH2 0x1BBF DUP8 DUP3 DUP9 ADD PUSH2 0x18E7 JUMP JUMPDEST SWAP4 POP POP PUSH1 0x40 PUSH2 0x1BD0 DUP8 DUP3 DUP9 ADD PUSH2 0x18E7 JUMP JUMPDEST SWAP3 POP POP PUSH1 0x60 PUSH2 0x1BE1 DUP8 DUP3 DUP9 ADD PUSH2 0x18E7 JUMP JUMPDEST SWAP2 POP POP SWAP3 SWAP6 SWAP2 SWAP5 POP SWAP3 POP JUMP JUMPDEST PUSH0 DUP1 PUSH1 0x40 DUP4 DUP6 SUB SLT ISZERO PUSH2 0x1C03 JUMPI PUSH2 0x1C02 PUSH2 0x17E5 JUMP JUMPDEST JUMPDEST PUSH0 PUSH2 0x1C10 DUP6 DUP3 DUP7 ADD PUSH2 0x18E7 JUMP JUMPDEST SWAP3 POP POP PUSH1 0x20 PUSH2 0x1C21 DUP6 DUP3 DUP7 ADD PUSH2 0x18E7 JUMP JUMPDEST SWAP2 POP POP SWAP3 POP SWAP3 SWAP1 POP JUMP JUMPDEST PUSH0 DUP1 PUSH1 0x40 DUP4 DUP6 SUB SLT ISZERO PUSH2 0x1C41 JUMPI PUSH2 0x1C40 PUSH2 0x17E5 JUMP JUMPDEST JUMPDEST PUSH0 PUSH2 0x1C4E DUP6 DUP3 DUP7 ADD PUSH2 0x1945 JUMP JUMPDEST SWAP3 POP POP PUSH1 0x20 PUSH2 0x1C5F DUP6 DUP3 DUP7 ADD PUSH2 0x19F2 JUMP JUMPDEST SWAP2 POP POP SWAP3 POP SWAP3 SWAP1 POP JUMP JUMPDEST PUSH2 0x1C72 DUP2 PUSH2 0x19CB JUMP JUMPDEST DUP3 MSTORE POP POP JUMP JUMPDEST PUSH0 PUSH1 0x20 DUP3 ADD SWAP1 POP PUSH2 0x1C8B PUSH0 DUP4 ADD DUP5 PUSH2 0x1C69 JUMP JUMPDEST SWAP3 SWAP2 POP POP JUMP JUMPDEST PUSH0 DUP2 MLOAD SWAP1 POP SWAP2 SWAP1 POP JUMP JUMPDEST PUSH0 DUP3 DUP3 MSTORE PUSH1 0x20 DUP3 ADD SWAP1 POP SWAP3 SWAP2 POP POP JUMP JUMPDEST DUP3 DUP2 DUP4 MCOPY PUSH0 DUP4 DUP4 ADD MSTORE POP POP POP JUMP JUMPDEST PUSH0 PUSH2 0x1CC3 DUP3 PUSH2 0x1C91 JUMP JUMPDEST PUSH2 0x1CCD DUP2 DUP6 PUSH2 0x1C9B JUMP JUMPDEST SWAP4 POP PUSH2 0x1CDD DUP2 DUP6 PUSH1 0x20 DUP7 ADD PUSH2 0x1CAB JUMP JUMPDEST PUSH2 0x1CE6 DUP2 PUSH2 0x1A39 JUMP JUMPDEST DUP5 ADD SWAP2 POP POP SWAP3 SWAP2 POP POP JUMP JUMPDEST PUSH0 PUSH1 0xE0 DUP3 ADD SWAP1 POP PUSH2 0x1D04 PUSH0 DUP4 ADD DUP11 PUSH2 0x1C69 JUMP JUMPDEST DUP2 DUP2 SUB PUSH1 0x20 DUP4 ADD MSTORE PUSH2 0x1D16 DUP2 DUP10 PUSH2 0x1CB9 JUMP JUMPDEST SWAP1 POP PUSH2 0x1D25 PUSH1 0x40 DUP4 ADD DUP9 PUSH2 0x18A9 JUMP JUMPDEST PUSH2 0x1D32 PUSH1 0x60 DUP4 ADD DUP8 PUSH2 0x18A9 JUMP JUMPDEST PUSH2 0x1D3F PUSH1 0x80 DUP4 ADD DUP7 PUSH2 0x18A9 JUMP JUMPDEST PUSH2 0x1D4C PUSH1 0xA0 DUP4 ADD DUP6 PUSH2 0x18A9 JUMP JUMPDEST PUSH2 0x1D59 PUSH1 0xC0 DUP4 ADD DUP5 PUSH2 0x1878 JUMP JUMPDEST SWAP9 SWAP8 POP POP POP POP POP POP POP POP JUMP JUMPDEST PUSH0 DUP2 SWAP1 POP SWAP2 SWAP1 POP JUMP JUMPDEST PUSH0 PUSH2 0x1D88 PUSH2 0x1D83 PUSH2 0x1D7E DUP5 PUSH2 0x19AC JUMP JUMPDEST PUSH2 0x1D65 JUMP JUMPDEST PUSH2 0x19AC JUMP JUMPDEST SWAP1 POP SWAP2 SWAP1 POP JUMP JUMPDEST PUSH0 PUSH2 0x1D99 DUP3 PUSH2 0x1D6E JUMP JUMPDEST SWAP1 POP SWAP2 SWAP1 POP JUMP JUMPDEST PUSH0 PUSH2 0x1DAA DUP3 PUSH2 0x1D8F JUMP JUMPDEST SWAP1 POP SWAP2 SWAP1 POP JUMP JUMPDEST PUSH2 0x1DBA DUP2 PUSH2 0x1DA0 JUMP JUMPDEST DUP3 MSTORE POP POP JUMP JUMPDEST PUSH0 PUSH1 0x20 DUP3 ADD SWAP1 POP PUSH2 0x1DD3 PUSH0 DUP4 ADD DUP5 PUSH2 0x1DB1 JUMP JUMPDEST SWAP3 SWAP2 POP POP JUMP JUMPDEST PUSH32 0x41504920646F6573206E6F742065786973740000000000000000000000000000 PUSH0 DUP3 ADD MSTORE POP JUMP JUMPDEST PUSH0 PUSH2 0x1E0D PUSH1 0x12 DUP4 PUSH2 0x1C9B JUMP JUMPDEST SWAP2 POP PUSH2 0x1E18 DUP3 PUSH2 0x1DD9 JUMP JUMPDEST PUSH1 0x20 DUP3 ADD SWAP1 POP SWAP2 SWAP1 POP JUMP JUMPDEST PUSH0 PUSH1 0x20 DUP3 ADD SWAP1 POP DUP2 DUP2 SUB PUSH0 DUP4 ADD MSTORE PUSH2 0x1E3A DUP2 PUSH2 0x1E01 JUMP JUMPDEST SWAP1 POP SWAP2 SWAP1 POP JUMP JUMPDEST PUSH32 0x4E6F2061637469766520737562736372697074696F6E00000000000000000000 PUSH0 DUP3 ADD MSTORE POP JUMP JUMPDEST PUSH0 PUSH2 0x1E75 PUSH1 0x16 DUP4 PUSH2 0x1C9B JUMP JUMPDEST SWAP2 POP PUSH2 0x1E80 DUP3 PUSH2 0x1E41 JUMP JUMPDEST PUSH1 0x20 DUP3 ADD SWAP1 POP SWAP2 SWAP1 POP JUMP JUMPDEST PUSH0 PUSH1 0x20 DUP3 ADD SWAP1 POP DUP2 DUP2 SUB PUSH0 DUP4 ADD MSTORE PUSH2 0x1EA2 DUP2 PUSH2 0x1E69 JUMP JUMPDEST SWAP1 POP SWAP2 SWAP1 POP JUMP JUMPDEST PUSH32 0x415049206E616D652063616E6E6F7420626520656D7074790000000000000000 PUSH0 DUP3 ADD MSTORE POP JUMP JUMPDEST PUSH0 PUSH2 0x1EDD PUSH1 0x18 DUP4 PUSH2 0x1C9B JUMP JUMPDEST SWAP2 POP PUSH2 0x1EE8 DUP3 PUSH2 0x1EA9 JUMP JUMPDEST PUSH1 0x20 DUP3 ADD SWAP1 POP SWAP2 SWAP1 POP JUMP JUMPDEST PUSH0 PUSH1 0x20 DUP3 ADD SWAP1 POP DUP2 DUP2 SUB PUSH0 DUP4 ADD MSTORE PUSH2 0x1F0A DUP2 PUSH2 0x1ED1 JUMP JUMPDEST SWAP1 POP SWAP2 SWAP1 POP JUMP JUMPDEST PUSH32 0x4174206C65617374206F6E652070726963696E67206F7074696F6E2072657175 PUSH0 DUP3 ADD MSTORE PUSH32 0x6972656400000000000000000000000000000000000000000000000000000000 PUSH1 0x20 DUP3 ADD MSTORE POP JUMP JUMPDEST PUSH0 PUSH2 0x1F6B PUSH1 0x24 DUP4 PUSH2 0x1C9B JUMP JUMPDEST SWAP2 POP PUSH2 0x1F76 DUP3 PUSH2 0x1F11 JUMP JUMPDEST PUSH1 0x40 DUP3 ADD SWAP1 POP SWAP2 SWAP1 POP JUMP JUMPDEST PUSH0 PUSH1 0x20 DUP3 ADD SWAP1 POP DUP2 DUP2 SUB PUSH0 DUP4 ADD MSTORE PUSH2 0x1F98 DUP2 PUSH2 0x1F5F JUMP JUMPDEST SWAP1 POP SWAP2 SWAP1 POP JUMP JUMPDEST PUSH32 0x4E487B7100000000000000000000000000000000000000000000000000000000 PUSH0 MSTORE PUSH1 0x11 PUSH1 0x4 MSTORE PUSH1 0x24 PUSH0 REVERT JUMPDEST PUSH0 PUSH2 0x1FD6 DUP3 PUSH2 0x18A0 JUMP JUMPDEST SWAP2 POP PUSH32 0xFFFFFFFFFFFFFFFFFFFFFFFFFFFFFFFFFFFFFFFFFFFFFFFFFFFFFFFFFFFFFFFF DUP3 SUB PUSH2 0x2008 JUMPI PUSH2 0x2007 PUSH2 0x1F9F JUMP JUMPDEST JUMPDEST PUSH1 0x1 DUP3 ADD SWAP1 POP SWAP2 SWAP1 POP JUMP JUMPDEST PUSH32 0x4E487B7100000000000000000000000000000000000000000000000000000000 PUSH0 MSTORE PUSH1 0x22 PUSH1 0x4 MSTORE PUSH1 0x24 PUSH0 REVERT JUMPDEST PUSH0 PUSH1 0x2 DUP3 DIV SWAP1 POP PUSH1 0x1 DUP3 AND DUP1 PUSH2 0x2057 JUMPI PUSH1 0x7F DUP3 AND SWAP2 POP JUMPDEST PUSH1 0x20 DUP3 LT DUP2 SUB PUSH2 0x206A JUMPI PUSH2 0x2069 PUSH2 0x2013 JUMP JUMPDEST JUMPDEST POP SWAP2 SWAP1 POP JUMP JUMPDEST PUSH0 DUP2 SWAP1 POP DUP2 PUSH0 MSTORE PUSH1 0x20 PUSH0 KECCAK256 SWAP1 POP SWAP2 SWAP1 POP JUMP JUMPDEST PUSH0 PUSH1 0x20 PUSH1 0x1F DUP4 ADD DIV SWAP1 POP SWAP2 SWAP1 POP JUMP JUMPDEST PUSH0 DUP3 DUP3 SHL SWAP1 POP SWAP3 SWAP2 POP POP JUMP JUMPDEST PUSH0 PUSH1 0x8 DUP4 MUL PUSH2 0x20CC PUSH32 0xFFFFFFFFFFFFFFFFFFFFFFFFFFFFFFFFFFFFFFFFFFFFFFFFFFFFFFFFFFFFFFFF DUP3 PUSH2 0x2091 JUMP JUMPDEST PUSH2 0x20D6 DUP7 DUP4 PUSH2 0x2091 JUMP JUMPDEST SWAP6 POP DUP1 NOT DUP5 AND SWAP4 POP DUP1 DUP7 AND DUP5 OR SWAP3 POP POP POP SWAP4 SWAP3 POP POP POP JUMP JUMPDEST PUSH0 PUSH2 0x2108 PUSH2 0x2103 PUSH2 0x20FE DUP5 PUSH2 0x18A0 JUMP JUMPDEST PUSH2 0x1D65 JUMP JUMPDEST PUSH2 0x18A0 JUMP JUMPDEST SWAP1 POP SWAP2 SWAP1 POP JUMP JUMPDEST PUSH0 DUP2 SWAP1 POP SWAP2 SWAP1 POP JUMP JUMPDEST PUSH2 0x2121 DUP4 PUSH2 0x20EE JUMP JUMPDEST PUSH2 0x2135 PUSH2 0x212D DUP3 PUSH2 0x210F JUMP JUMPDEST DUP5 DUP5 SLOAD PUSH2 0x209D JUMP JUMPDEST DUP3 SSTORE POP POP POP POP JUMP JUMPDEST PUSH0 SWAP1 JUMP JUMPDEST PUSH2 0x2149 PUSH2 0x213D JUMP JUMPDEST PUSH2 0x2154 DUP2 DUP5 DUP5 PUSH2 0x2118 JUMP JUMPDEST POP POP POP JUMP JUMPDEST JUMPDEST DUP2 DUP2 LT ISZERO PUSH2 0x2177 JUMPI PUSH2 0x216C PUSH0 DUP3 PUSH2 0x2141 JUMP JUMPDEST PUSH1 0x1 DUP2 ADD SWAP1 POP PUSH2 0x215A JUMP JUMPDEST POP POP JUMP JUMPDEST PUSH1 0x1F DUP3 GT ISZERO PUSH2 0x21BC JUMPI PUSH2 0x218D DUP2 PUSH2 0x2070 JUMP JUMPDEST PUSH2 0x2196 DUP5 PUSH2 0x2082 JUMP JUMPDEST DUP2 ADD PUSH1 0x20 DUP6 LT ISZERO PUSH2 0x21A5 JUMPI DUP2 SWAP1 POP JUMPDEST PUSH2 0x21B9 PUSH2 0x21B1 DUP6 PUSH2 0x2082 JUMP JUMPDEST DUP4 ADD DUP3 PUSH2 0x2159 JUMP JUMPDEST POP POP JUMPDEST POP POP POP JUMP JUMPDEST PUSH0 DUP3 DUP3 SHR SWAP1 POP SWAP3 SWAP2 POP POP JUMP JUMPDEST PUSH0 PUSH2 0x21DC PUSH0 NOT DUP5 PUSH1 0x8 MUL PUSH2 0x21C1 JUMP JUMPDEST NOT DUP1 DUP4 AND SWAP2 POP POP SWAP3 SWAP2 POP POP JUMP JUMPDEST PUSH0 PUSH2 0x21F4 DUP4 DUP4 PUSH2 0x21CD JUMP JUMPDEST SWAP2 POP DUP3 PUSH1 0x2 MUL DUP3 OR SWAP1 POP SWAP3 SWAP2 POP POP JUMP JUMPDEST PUSH2 0x220D DUP3 PUSH2 0x1C91 JUMP JUMPDEST PUSH8 0xFFFFFFFFFFFFFFFF DUP2 GT ISZERO PUSH2 0x2226 JUMPI PUSH2 0x2225 PUSH2 0x1A49 JUMP JUMPDEST JUMPDEST PUSH2 0x2230 DUP3 SLOAD PUSH2 0x2040 JUMP JUMPDEST PUSH2 0x223B DUP3 DUP3 DUP6 PUSH2 0x217B JUMP JUMPDEST PUSH0 PUSH1 0x20 SWAP1 POP PUSH1 0x1F DUP4 GT PUSH1 0x1 DUP2 EQ PUSH2 0x226C JUMPI PUSH0 DUP5 ISZERO PUSH2 0x225A JUMPI DUP3 DUP8 ADD MLOAD SWAP1 POP JUMPDEST PUSH2 0x2264 DUP6 DUP3 PUSH2 0x21E9 JUMP JUMPDEST DUP7 SSTORE POP PUSH2 0x22CB JUMP JUMPDEST PUSH1 0x1F NOT DUP5 AND PUSH2 0x227A DUP7 PUSH2 0x2070 JUMP JUMPDEST PUSH0 JUMPDEST DUP3 DUP2 LT ISZERO PUSH2 0x22A1 JUMPI DUP5 DUP10 ADD MLOAD DUP3 SSTORE PUSH1 0x1 DUP3 ADD SWAP2 POP PUSH1 0x20 DUP6 ADD SWAP5 POP PUSH1 0x20 DUP2 ADD SWAP1 POP PUSH2 0x227C JUMP JUMPDEST DUP7 DUP4 LT ISZERO PUSH2 0x22BE JUMPI DUP5 DUP10 ADD MLOAD PUSH2 0x22BA PUSH1 0x1F DUP10 AND DUP3 PUSH2 0x21CD JUMP JUMPDEST DUP4 SSTORE POP JUMPDEST PUSH1 0x1 PUSH1 0x2 DUP9 MUL ADD DUP9 SSTORE POP POP POP JUMPDEST POP POP POP POP POP POP JUMP JUMPDEST PUSH0 PUSH1 0x60 DUP3 ADD SWAP1 POP DUP2 DUP2 SUB PUSH0 DUP4 ADD MSTORE PUSH2 0x22EB DUP2 DUP7 PUSH2 0x1CB9 JUMP JUMPDEST SWAP1 POP PUSH2 0x22FA PUSH1 0x20 DUP4 ADD DUP6 PUSH2 0x18A9 JUMP JUMPDEST PUSH2 0x2307 PUSH1 0x40 DUP4 ADD DUP5 PUSH2 0x18A9 JUMP JUMPDEST SWAP5 SWAP4 POP POP POP POP JUMP JUMPDEST PUSH32 0x4D757374207075726368617365206174206C65617374206F6E65207265717565 PUSH0 DUP3 ADD MSTORE PUSH32 0x7374000000000000000000000000000000000000000000000000000000000000 PUSH1 0x20 DUP3 ADD MSTORE POP JUMP JUMPDEST PUSH0 PUSH2 0x2369 PUSH1 0x22 DUP4 PUSH2 0x1C9B JUMP JUMPDEST SWAP2 POP PUSH2 0x2374 DUP3 PUSH2 0x230F JUMP JUMPDEST PUSH1 0x40 DUP3 ADD SWAP1 POP SWAP2 SWAP1 POP JUMP JUMPDEST PUSH0 PUSH1 0x20 DUP3 ADD SWAP1 POP DUP2 DUP2 SUB PUSH0 DUP4 ADD MSTORE PUSH2 0x2396 DUP2 PUSH2 0x235D JUMP JUMPDEST SWAP1 POP SWAP2 SWAP1 POP JUMP JUMPDEST PUSH32 0x415049206973206E6F7420616374697665000000000000000000000000000000 PUSH0 DUP3 ADD MSTORE POP JUMP JUMPDEST PUSH0 PUSH2 0x23D1 PUSH1 0x11 DUP4 PUSH2 0x1C9B JUMP JUMPDEST SWAP2 POP PUSH2 0x23DC DUP3 PUSH2 0x239D JUMP JUMPDEST PUSH1 0x20 DUP3 ADD SWAP1 POP SWAP2 SWAP1 POP JUMP JUMPDEST PUSH0 PUSH1 0x20 DUP3 ADD SWAP1 POP DUP2 DUP2 SUB PUSH0 DUP4 ADD MSTORE PUSH2 0x23FE DUP2 PUSH2 0x23C5 JUMP JUMPDEST SWAP1 POP SWAP2 SWAP1 POP JUMP JUMPDEST PUSH0 PUSH2 0x240F DUP3 PUSH2 0x18A0 JUMP JUMPDEST SWAP2 POP PUSH2 0x241A DUP4 PUSH2 0x18A0 JUMP JUMPDEST SWAP3 POP DUP3 DUP3 MUL PUSH2 0x2428 DUP2 PUSH2 0x18A0 JUMP JUMPDEST SWAP2 POP DUP3 DUP3 DIV DUP5 EQ DUP4 ISZERO OR PUSH2 0x243F JUMPI PUSH2 0x243E PUSH2 0x1F9F JUMP JUMPDEST JUMPDEST POP SWAP3 SWAP2 POP POP JUMP JUMPDEST PUSH0 PUSH2 0x2450 DUP3 PUSH2 0x18A0 JUMP JUMPDEST SWAP2 POP PUSH2 0x245B DUP4 PUSH2 0x18A0 JUMP JUMPDEST SWAP3 POP DUP3 DUP3 ADD SWAP1 POP DUP1 DUP3 GT ISZERO PUSH2 0x2473 JUMPI PUSH2 0x2472 PUSH2 0x1F9F JUMP JUMPDEST JUMPDEST SWAP3 SWAP2 POP POP JUMP JUMPDEST PUSH0 DUP2 MLOAD SWAP1 POP PUSH2 0x2487 DUP2 PUSH2 0x18D1 JUMP JUMPDEST SWAP3 SWAP2 POP POP JUMP JUMPDEST PUSH0 PUSH1 0x20 DUP3 DUP5 SUB SLT ISZERO PUSH2 0x24A2 JUMPI PUSH2 0x24A1 PUSH2 0x17E5 JUMP JUMPDEST JUMPDEST PUSH0 PUSH2 0x24AF DUP5 DUP3 DUP6 ADD PUSH2 0x2479 JUMP JUMPDEST SWAP2 POP POP SWAP3 SWAP2 POP POP JUMP JUMPDEST PUSH32 0x4E6F2072656D61696E696E672072657175657374730000000000000000000000 PUSH0 DUP3 ADD MSTORE POP JUMP JUMPDEST PUSH0 PUSH2 0x24EC PUSH1 0x15 DUP4 PUSH2 0x1C9B JUMP JUMPDEST SWAP2 POP PUSH2 0x24F7 DUP3 PUSH2 0x24B8 JUMP JUMPDEST PUSH1 0x20 DUP3 ADD SWAP1 POP SWAP2 SWAP1 POP JUMP JUMPDEST PUSH0 PUSH1 0x20 DUP3 ADD SWAP1 POP DUP2 DUP2 SUB PUSH0 DUP4 ADD MSTORE PUSH2 0x2519 DUP2 PUSH2 0x24E0 JUMP JUMPDEST SWAP1 POP SWAP2 SWAP1 POP JUMP JUMPDEST PUSH0 PUSH2 0x252A DUP3 PUSH2 0x18A0 JUMP JUMPDEST SWAP2 POP PUSH2 0x2535 DUP4 PUSH2 0x18A0 JUMP JUMPDEST SWAP3 POP DUP3 DUP3 SUB SWAP1 POP DUP2 DUP2 GT ISZERO PUSH2 0x254D JUMPI PUSH2 0x254C PUSH2 0x1F9F JUMP JUMPDEST JUMPDEST SWAP3 SWAP2 POP POP JUMP JUMPDEST PUSH32 0x4E6F206561726E696E677320746F207769746864726177000000000000000000 PUSH0 DUP3 ADD MSTORE POP JUMP JUMPDEST PUSH0 PUSH2 0x2587 PUSH1 0x17 DUP4 PUSH2 0x1C9B JUMP JUMPDEST SWAP2 POP PUSH2 0x2592 DUP3 PUSH2 0x2553 JUMP JUMPDEST PUSH1 0x20 DUP3 ADD SWAP1 POP SWAP2 SWAP1 POP JUMP JUMPDEST PUSH0 PUSH1 0x20 DUP3 ADD SWAP1 POP DUP2 DUP2 SUB PUSH0 DUP4 ADD MSTORE PUSH2 0x25B4 DUP2 PUSH2 0x257B JUMP JUMPDEST SWAP1 POP SWAP2 SWAP1 POP JUMP JUMPDEST PUSH0 PUSH1 0x60 DUP3 ADD SWAP1 POP PUSH2 0x25CE PUSH0 DUP4 ADD DUP7 PUSH2 0x1C69 JUMP JUMPDEST PUSH2 0x25DB PUSH1 0x20 DUP4 ADD DUP6 PUSH2 0x1C69 JUMP JUMPDEST PUSH2 0x25E8 PUSH1 0x40 DUP4 ADD DUP5 PUSH2 0x18A9 JUMP JUMPDEST SWAP5 SWAP4 POP POP POP POP JUMP JUMPDEST PUSH32 0x5265656E7472616E637947756172643A207265656E7472616E742063616C6C00 PUSH0 DUP3 ADD MSTORE POP JUMP JUMPDEST PUSH0 PUSH2 0x2624 PUSH1 0x1F DUP4 PUSH2 0x1C9B JUMP JUMPDEST SWAP2 POP PUSH2 0x262F DUP3 PUSH2 0x25F0 JUMP JUMPDEST PUSH1 0x20 DUP3 ADD SWAP1 POP SWAP2 SWAP1 POP JUMP JUMPDEST PUSH0 PUSH1 0x20 DUP3 ADD SWAP1 POP DUP2 DUP2 SUB PUSH0 DUP4 ADD MSTORE PUSH2 0x2651 DUP2 PUSH2 0x2618 JUMP JUMPDEST SWAP1 POP SWAP2 SWAP1 POP JUMP JUMPDEST PUSH0 PUSH1 0x40 DUP3 ADD SWAP1 POP PUSH2 0x266B PUSH0 DUP4 ADD DUP6 PUSH2 0x1C69 JUMP JUMPDEST PUSH2 0x2678 PUSH1 0x20 DUP4 ADD DUP5 PUSH2 0x18A9 JUMP JUMPDEST SWAP4 SWAP3 POP POP POP JUMP JUMPDEST PUSH0 PUSH1 0x40 DUP3 ADD SWAP1 POP PUSH2 0x2692 PUSH0 DUP4 ADD DUP6 PUSH2 0x1C69 JUMP JUMPDEST PUSH2 0x269F PUSH1 0x20 DUP4 ADD DUP5 PUSH2 0x1984 JUMP JUMPDEST SWAP4 SWAP3 POP POP POP JUMP INVALID LOG2 PUSH5 0x6970667358 0x22 SLT KECCAK256 0xDB SELFDESTRUCT PUSH25 0x643E8436719283411DA639DC30DB1D2E1128B46F1F6D25A177 0x2A 0xC9 0xAE 0x28 PUSH5 0x736F6C6343 STOP ADDMOD BYTE STOP CALLER "
				},
				"gasEstimates": {
					"creation": {
						"codeDepositCost": "1989600",
						"executionCost": "infinite",
						"totalCost": "infinite"
					},
					"external": {
						"ADMIN_ROLE()": "348",
						"DEFAULT_ADMIN_ROLE()": "352",
						"apiIdCounter()": "2471",
						"apis(uint256)": "infinite",
						"approveAndPurchaseAPIAccess(uint256,uint256)": "infinite",
						"approveAndPurchaseSubscription(uint256)": "infinite",
						"cancelSubscription(uint256)": "28703",
						"getRoleAdmin(bytes32)": "infinite",
						"getUserBalance(address)": "infinite",
						"grantRole(bytes32,address)": "infinite",
						"hasRole(bytes32,address)": "3211",
						"owner()": "2553",
						"providerBalances(address)": "2914",
						"registerAPI(string,uint256,uint256,uint256)": "infinite",
						"renounceRole(bytes32,address)": "infinite",
						"revokeRole(bytes32,address)": "infinite",
						"supportsInterface(bytes4)": "741",
						"token()": "infinite",
						"useAPIAccess(uint256)": "infinite",
						"withdrawEarnings()": "infinite"
					}
				},
				"methodIdentifiers": {
					"ADMIN_ROLE()": "75b238fc",
					"DEFAULT_ADMIN_ROLE()": "a217fddf",
					"apiIdCounter()": "099952c8",
					"apis(uint256)": "af6e5689",
					"approveAndPurchaseAPIAccess(uint256,uint256)": "2a222851",
					"approveAndPurchaseSubscription(uint256)": "9c4d9c0c",
					"cancelSubscription(uint256)": "21235083",
					"getRoleAdmin(bytes32)": "248a9ca3",
					"getUserBalance(address)": "47734892",
					"grantRole(bytes32,address)": "2f2ff15d",
					"hasRole(bytes32,address)": "91d14854",
					"owner()": "8da5cb5b",
					"providerBalances(address)": "28ac7f2c",
					"registerAPI(string,uint256,uint256,uint256)": "29206bd1",
					"renounceRole(bytes32,address)": "36568abe",
					"revokeRole(bytes32,address)": "d547741f",
					"supportsInterface(bytes4)": "01ffc9a7",
					"token()": "fc0c546a",
					"useAPIAccess(uint256)": "8e04d8d8",
					"withdrawEarnings()": "b73c6ce9"
				}
			},
			"storageLayout": {
				"storage": [
					{
						"astId": 479,
						"contract": "final project/GeneralApiMarketplaceToken.sol:GeneralApiMarketplaceToken",
						"label": "_status",
						"offset": 0,
						"slot": "0",
						"type": "t_uint256"
					},
					{
						"astId": 26,
						"contract": "final project/GeneralApiMarketplaceToken.sol:GeneralApiMarketplaceToken",
						"label": "_roles",
						"offset": 0,
						"slot": "1",
						"type": "t_mapping(t_bytes32,t_struct(RoleData)21_storage)"
					},
					{
						"astId": 1106,
						"contract": "final project/GeneralApiMarketplaceToken.sol:GeneralApiMarketplaceToken",
						"label": "owner",
						"offset": 0,
						"slot": "2",
						"type": "t_address"
					},
					{
						"astId": 1113,
						"contract": "final project/GeneralApiMarketplaceToken.sol:GeneralApiMarketplaceToken",
						"label": "apiIdCounter",
						"offset": 0,
						"slot": "3",
						"type": "t_uint256"
					},
					{
						"astId": 1117,
						"contract": "final project/GeneralApiMarketplaceToken.sol:GeneralApiMarketplaceToken",
						"label": "providerBalances",
						"offset": 0,
						"slot": "4",
						"type": "t_mapping(t_address,t_uint256)"
					},
					{
						"astId": 1137,
						"contract": "final project/GeneralApiMarketplaceToken.sol:GeneralApiMarketplaceToken",
						"label": "apis",
						"offset": 0,
						"slot": "5",
						"type": "t_mapping(t_uint256,t_struct(API)1132_storage)"
					},
					{
						"astId": 1151,
						"contract": "final project/GeneralApiMarketplaceToken.sol:GeneralApiMarketplaceToken",
						"label": "userUsages",
						"offset": 0,
						"slot": "6",
						"type": "t_mapping(t_address,t_struct(UserUsage)1146_storage)"
					}
				],
				"types": {
					"t_address": {
						"encoding": "inplace",
						"label": "address",
						"numberOfBytes": "20"
					},
					"t_bool": {
						"encoding": "inplace",
						"label": "bool",
						"numberOfBytes": "1"
					},
					"t_bytes32": {
						"encoding": "inplace",
						"label": "bytes32",
						"numberOfBytes": "32"
					},
					"t_mapping(t_address,t_bool)": {
						"encoding": "mapping",
						"key": "t_address",
						"label": "mapping(address => bool)",
						"numberOfBytes": "32",
						"value": "t_bool"
					},
					"t_mapping(t_address,t_struct(UserUsage)1146_storage)": {
						"encoding": "mapping",
						"key": "t_address",
						"label": "mapping(address => struct GeneralApiMarketplaceToken.UserUsage)",
						"numberOfBytes": "32",
						"value": "t_struct(UserUsage)1146_storage"
					},
					"t_mapping(t_address,t_uint256)": {
						"encoding": "mapping",
						"key": "t_address",
						"label": "mapping(address => uint256)",
						"numberOfBytes": "32",
						"value": "t_uint256"
					},
					"t_mapping(t_bytes32,t_struct(RoleData)21_storage)": {
						"encoding": "mapping",
						"key": "t_bytes32",
						"label": "mapping(bytes32 => struct AccessControl.RoleData)",
						"numberOfBytes": "32",
						"value": "t_struct(RoleData)21_storage"
					},
					"t_mapping(t_uint256,t_struct(API)1132_storage)": {
						"encoding": "mapping",
						"key": "t_uint256",
						"label": "mapping(uint256 => struct GeneralApiMarketplaceToken.API)",
						"numberOfBytes": "32",
						"value": "t_struct(API)1132_storage"
					},
					"t_mapping(t_uint256,t_uint256)": {
						"encoding": "mapping",
						"key": "t_uint256",
						"label": "mapping(uint256 => uint256)",
						"numberOfBytes": "32",
						"value": "t_uint256"
					},
					"t_string_storage": {
						"encoding": "bytes",
						"label": "string",
						"numberOfBytes": "32"
					},
					"t_struct(API)1132_storage": {
						"encoding": "inplace",
						"label": "struct GeneralApiMarketplaceToken.API",
						"members": [
							{
								"astId": 1119,
								"contract": "final project/GeneralApiMarketplaceToken.sol:GeneralApiMarketplaceToken",
								"label": "provider",
								"offset": 0,
								"slot": "0",
								"type": "t_address"
							},
							{
								"astId": 1121,
								"contract": "final project/GeneralApiMarketplaceToken.sol:GeneralApiMarketplaceToken",
								"label": "name",
								"offset": 0,
								"slot": "1",
								"type": "t_string_storage"
							},
							{
								"astId": 1123,
								"contract": "final project/GeneralApiMarketplaceToken.sol:GeneralApiMarketplaceToken",
								"label": "pricePerRequest",
								"offset": 0,
								"slot": "2",
								"type": "t_uint256"
							},
							{
								"astId": 1125,
								"contract": "final project/GeneralApiMarketplaceToken.sol:GeneralApiMarketplaceToken",
								"label": "subscriptionPrice",
								"offset": 0,
								"slot": "3",
								"type": "t_uint256"
							},
							{
								"astId": 1127,
								"contract": "final project/GeneralApiMarketplaceToken.sol:GeneralApiMarketplaceToken",
								"label": "subscriptionDuration",
								"offset": 0,
								"slot": "4",
								"type": "t_uint256"
							},
							{
								"astId": 1129,
								"contract": "final project/GeneralApiMarketplaceToken.sol:GeneralApiMarketplaceToken",
								"label": "totalPurchases",
								"offset": 0,
								"slot": "5",
								"type": "t_uint256"
							},
							{
								"astId": 1131,
								"contract": "final project/GeneralApiMarketplaceToken.sol:GeneralApiMarketplaceToken",
								"label": "isActive",
								"offset": 0,
								"slot": "6",
								"type": "t_bool"
							}
						],
						"numberOfBytes": "224"
					},
					"t_struct(RoleData)21_storage": {
						"encoding": "inplace",
						"label": "struct AccessControl.RoleData",
						"members": [
							{
								"astId": 18,
								"contract": "final project/GeneralApiMarketplaceToken.sol:GeneralApiMarketplaceToken",
								"label": "hasRole",
								"offset": 0,
								"slot": "0",
								"type": "t_mapping(t_address,t_bool)"
							},
							{
								"astId": 20,
								"contract": "final project/GeneralApiMarketplaceToken.sol:GeneralApiMarketplaceToken",
								"label": "adminRole",
								"offset": 0,
								"slot": "1",
								"type": "t_bytes32"
							}
						],
						"numberOfBytes": "64"
					},
					"t_struct(UserUsage)1146_storage": {
						"encoding": "inplace",
						"label": "struct GeneralApiMarketplaceToken.UserUsage",
						"members": [
							{
								"astId": 1141,
								"contract": "final project/GeneralApiMarketplaceToken.sol:GeneralApiMarketplaceToken",
								"label": "remainingRequests",
								"offset": 0,
								"slot": "0",
								"type": "t_mapping(t_uint256,t_uint256)"
							},
							{
								"astId": 1145,
								"contract": "final project/GeneralApiMarketplaceToken.sol:GeneralApiMarketplaceToken",
								"label": "subscriptionExpiry",
								"offset": 0,
								"slot": "1",
								"type": "t_mapping(t_uint256,t_uint256)"
							}
						],
						"numberOfBytes": "64"
					},
					"t_uint256": {
						"encoding": "inplace",
						"label": "uint256",
						"numberOfBytes": "32"
					}
				}
			},
			"userdoc": {
				"kind": "user",
				"methods": {},
				"notice": "Created by Matt Lindborg UAT MS636 Week 7",
				"version": 1
			}
		}
	}
}