{
	"assignment contracts/W5 Auction.sol": {
		"Auction": {
			"abi": [
				{
					"inputs": [
						{
							"internalType": "address",
							"name": "_token",
							"type": "address"
						}
					],
					"stateMutability": "nonpayable",
					"type": "constructor"
				},
				{
					"anonymous": false,
					"inputs": [
						{
							"indexed": false,
							"internalType": "uint256",
							"name": "id",
							"type": "uint256"
						},
						{
							"indexed": true,
							"internalType": "address",
							"name": "seller",
							"type": "address"
						},
						{
							"indexed": false,
							"internalType": "uint256",
							"name": "minBid",
							"type": "uint256"
						},
						{
							"indexed": false,
							"internalType": "uint256",
							"name": "endTime",
							"type": "uint256"
						}
					],
					"name": "AuctionCreated",
					"type": "event"
				},
				{
					"anonymous": false,
					"inputs": [
						{
							"indexed": true,
							"internalType": "uint256",
							"name": "auctionId",
							"type": "uint256"
						},
						{
							"indexed": true,
							"internalType": "address",
							"name": "winner",
							"type": "address"
						},
						{
							"indexed": false,
							"internalType": "uint256",
							"name": "highestBid",
							"type": "uint256"
						}
					],
					"name": "AuctionFinalized",
					"type": "event"
				},
				{
					"anonymous": false,
					"inputs": [
						{
							"indexed": true,
							"internalType": "uint256",
							"name": "auctionId",
							"type": "uint256"
						},
						{
							"indexed": true,
							"internalType": "address",
							"name": "bidder",
							"type": "address"
						},
						{
							"indexed": false,
							"internalType": "uint256",
							"name": "bidAmount",
							"type": "uint256"
						}
					],
					"name": "BidPlaced",
					"type": "event"
				},
				{
					"inputs": [],
					"name": "auctionIdCounter",
					"outputs": [
						{
							"internalType": "uint256",
							"name": "",
							"type": "uint256"
						}
					],
					"stateMutability": "view",
					"type": "function"
				},
				{
					"inputs": [
						{
							"internalType": "uint256",
							"name": "",
							"type": "uint256"
						}
					],
					"name": "auctions",
					"outputs": [
						{
							"internalType": "uint256",
							"name": "id",
							"type": "uint256"
						},
						{
							"internalType": "address",
							"name": "seller",
							"type": "address"
						},
						{
							"internalType": "uint256",
							"name": "minBid",
							"type": "uint256"
						},
						{
							"internalType": "uint256",
							"name": "highestBid",
							"type": "uint256"
						},
						{
							"internalType": "address",
							"name": "highestBidder",
							"type": "address"
						},
						{
							"internalType": "bool",
							"name": "isActive",
							"type": "bool"
						},
						{
							"internalType": "uint256",
							"name": "endTime",
							"type": "uint256"
						}
					],
					"stateMutability": "view",
					"type": "function"
				},
				{
					"inputs": [
						{
							"internalType": "uint256",
							"name": "_minBid",
							"type": "uint256"
						},
						{
							"internalType": "uint256",
							"name": "_duration",
							"type": "uint256"
						}
					],
					"name": "createAuction",
					"outputs": [],
					"stateMutability": "nonpayable",
					"type": "function"
				},
				{
					"inputs": [
						{
							"internalType": "uint256",
							"name": "_auctionId",
							"type": "uint256"
						}
					],
					"name": "finalizeAuction",
					"outputs": [],
					"stateMutability": "nonpayable",
					"type": "function"
				},
				{
					"inputs": [
						{
							"internalType": "uint256",
							"name": "_auctionId",
							"type": "uint256"
						}
					],
					"name": "getAuctionDetails",
					"outputs": [
						{
							"components": [
								{
									"internalType": "uint256",
									"name": "id",
									"type": "uint256"
								},
								{
									"internalType": "address",
									"name": "seller",
									"type": "address"
								},
								{
									"internalType": "uint256",
									"name": "minBid",
									"type": "uint256"
								},
								{
									"internalType": "uint256",
									"name": "highestBid",
									"type": "uint256"
								},
								{
									"internalType": "address",
									"name": "highestBidder",
									"type": "address"
								},
								{
									"internalType": "bool",
									"name": "isActive",
									"type": "bool"
								},
								{
									"internalType": "uint256",
									"name": "endTime",
									"type": "uint256"
								}
							],
							"internalType": "struct Auction.AuctionItem",
							"name": "",
							"type": "tuple"
						}
					],
					"stateMutability": "view",
					"type": "function"
				},
				{
					"inputs": [
						{
							"internalType": "address",
							"name": "",
							"type": "address"
						}
					],
					"name": "pendingWithdrawals",
					"outputs": [
						{
							"internalType": "uint256",
							"name": "",
							"type": "uint256"
						}
					],
					"stateMutability": "view",
					"type": "function"
				},
				{
					"inputs": [
						{
							"internalType": "uint256",
							"name": "_auctionId",
							"type": "uint256"
						},
						{
							"internalType": "uint256",
							"name": "_bidAmount",
							"type": "uint256"
						}
					],
					"name": "placeBid",
					"outputs": [],
					"stateMutability": "nonpayable",
					"type": "function"
				},
				{
					"inputs": [
						{
							"internalType": "address",
							"name": "",
							"type": "address"
						}
					],
					"name": "sellerPendingWithdrawals",
					"outputs": [
						{
							"internalType": "uint256",
							"name": "",
							"type": "uint256"
						}
					],
					"stateMutability": "view",
					"type": "function"
				},
				{
					"inputs": [],
					"name": "token",
					"outputs": [
						{
							"internalType": "contract IERC20",
							"name": "",
							"type": "address"
						}
					],
					"stateMutability": "view",
					"type": "function"
				},
				{
					"inputs": [],
					"name": "withdrawSellerFunds",
					"outputs": [],
					"stateMutability": "nonpayable",
					"type": "function"
				}
			],
			"devdoc": {
				"kind": "dev",
				"methods": {},
				"version": 1
			},
			"evm": {
				"assembly": "    /* \"assignment contracts/W5 Auction.sol\":324:5668  contract Auction {... */\n  mstore(0x40, 0x80)\n    /* \"assignment contracts/W5 Auction.sol\":1376:1518  constructor(address _token) {... */\n  callvalue\n  dup1\n  iszero\n  tag_1\n  jumpi\n  0x00\n  dup1\n  revert\ntag_1:\n  pop\n  mload(0x40)\n  sub(codesize, bytecodeSize)\n  dup1\n  bytecodeSize\n  dup4\n  codecopy\n  dup2\n  dup2\n  add\n  0x40\n  mstore\n  dup2\n  add\n  swap1\n  tag_2\n  swap2\n  swap1\n  tag_3\n  jump\t// in\ntag_2:\n    /* \"assignment contracts/W5 Auction.sol\":1441:1442  0 */\n  0x00\n    /* \"assignment contracts/W5 Auction.sol\":1423:1443  _token != address(0) */\n  0xffffffffffffffffffffffffffffffffffffffff\n  and\n    /* \"assignment contracts/W5 Auction.sol\":1423:1429  _token */\n  dup2\n    /* \"assignment contracts/W5 Auction.sol\":1423:1443  _token != address(0) */\n  0xffffffffffffffffffffffffffffffffffffffff\n  and\n  sub\n    /* \"assignment contracts/W5 Auction.sol\":1415:1477  require(_token != address(0), \"Token address cannot be zero.\") */\n  tag_6\n  jumpi\n  mload(0x40)\n  0x08c379a000000000000000000000000000000000000000000000000000000000\n  dup2\n  mstore\n  0x04\n  add\n  tag_7\n  swap1\n  tag_8\n  jump\t// in\ntag_7:\n  mload(0x40)\n  dup1\n  swap2\n  sub\n  swap1\n  revert\ntag_6:\n    /* \"assignment contracts/W5 Auction.sol\":1503:1509  _token */\n  dup1\n    /* \"assignment contracts/W5 Auction.sol\":1488:1493  token */\n  0x00\n  dup1\n    /* \"assignment contracts/W5 Auction.sol\":1488:1510  token = IERC20(_token) */\n  0x0100\n  exp\n  dup2\n  sload\n  dup2\n  0xffffffffffffffffffffffffffffffffffffffff\n  mul\n  not\n  and\n  swap1\n  dup4\n  0xffffffffffffffffffffffffffffffffffffffff\n  and\n  mul\n  or\n  swap1\n  sstore\n  pop\n    /* \"assignment contracts/W5 Auction.sol\":1376:1518  constructor(address _token) {... */\n  pop\n    /* \"assignment contracts/W5 Auction.sol\":324:5668  contract Auction {... */\n  jump(tag_9)\n    /* \"#utility.yul\":88:205   */\ntag_11:\n    /* \"#utility.yul\":197:198   */\n  0x00\n    /* \"#utility.yul\":194:195   */\n  dup1\n    /* \"#utility.yul\":187:199   */\n  revert\n    /* \"#utility.yul\":334:460   */\ntag_13:\n    /* \"#utility.yul\":371:378   */\n  0x00\n    /* \"#utility.yul\":411:453   */\n  0xffffffffffffffffffffffffffffffffffffffff\n    /* \"#utility.yul\":404:409   */\n  dup3\n    /* \"#utility.yul\":400:454   */\n  and\n    /* \"#utility.yul\":389:454   */\n  swap1\n  pop\n    /* \"#utility.yul\":334:460   */\n  swap2\n  swap1\n  pop\n  jump\t// out\n    /* \"#utility.yul\":466:562   */\ntag_14:\n    /* \"#utility.yul\":503:510   */\n  0x00\n    /* \"#utility.yul\":532:556   */\n  tag_26\n    /* \"#utility.yul\":550:555   */\n  dup3\n    /* \"#utility.yul\":532:556   */\n  tag_13\n  jump\t// in\ntag_26:\n    /* \"#utility.yul\":521:556   */\n  swap1\n  pop\n    /* \"#utility.yul\":466:562   */\n  swap2\n  swap1\n  pop\n  jump\t// out\n    /* \"#utility.yul\":568:690   */\ntag_15:\n    /* \"#utility.yul\":641:665   */\n  tag_28\n    /* \"#utility.yul\":659:664   */\n  dup2\n    /* \"#utility.yul\":641:665   */\n  tag_14\n  jump\t// in\ntag_28:\n    /* \"#utility.yul\":634:639   */\n  dup2\n    /* \"#utility.yul\":631:666   */\n  eq\n    /* \"#utility.yul\":621:684   */\n  tag_29\n  jumpi\n    /* \"#utility.yul\":680:681   */\n  0x00\n    /* \"#utility.yul\":677:678   */\n  dup1\n    /* \"#utility.yul\":670:682   */\n  revert\n    /* \"#utility.yul\":621:684   */\ntag_29:\n    /* \"#utility.yul\":568:690   */\n  pop\n  jump\t// out\n    /* \"#utility.yul\":696:839   */\ntag_16:\n    /* \"#utility.yul\":753:758   */\n  0x00\n    /* \"#utility.yul\":784:790   */\n  dup2\n    /* \"#utility.yul\":778:791   */\n  mload\n    /* \"#utility.yul\":769:791   */\n  swap1\n  pop\n    /* \"#utility.yul\":800:833   */\n  tag_31\n    /* \"#utility.yul\":827:832   */\n  dup2\n    /* \"#utility.yul\":800:833   */\n  tag_15\n  jump\t// in\ntag_31:\n    /* \"#utility.yul\":696:839   */\n  swap3\n  swap2\n  pop\n  pop\n  jump\t// out\n    /* \"#utility.yul\":845:1196   */\ntag_3:\n    /* \"#utility.yul\":915:921   */\n  0x00\n    /* \"#utility.yul\":964:966   */\n  0x20\n    /* \"#utility.yul\":952:961   */\n  dup3\n    /* \"#utility.yul\":943:950   */\n  dup5\n    /* \"#utility.yul\":939:962   */\n  sub\n    /* \"#utility.yul\":935:967   */\n  slt\n    /* \"#utility.yul\":932:1051   */\n  iszero\n  tag_33\n  jumpi\n    /* \"#utility.yul\":970:1049   */\n  tag_34\n  tag_11\n  jump\t// in\ntag_34:\n    /* \"#utility.yul\":932:1051   */\ntag_33:\n    /* \"#utility.yul\":1090:1091   */\n  0x00\n    /* \"#utility.yul\":1115:1179   */\n  tag_35\n    /* \"#utility.yul\":1171:1178   */\n  dup5\n    /* \"#utility.yul\":1162:1168   */\n  dup3\n    /* \"#utility.yul\":1151:1160   */\n  dup6\n    /* \"#utility.yul\":1147:1169   */\n  add\n    /* \"#utility.yul\":1115:1179   */\n  tag_16\n  jump\t// in\ntag_35:\n    /* \"#utility.yul\":1105:1179   */\n  swap2\n  pop\n    /* \"#utility.yul\":1061:1189   */\n  pop\n    /* \"#utility.yul\":845:1196   */\n  swap3\n  swap2\n  pop\n  pop\n  jump\t// out\n    /* \"#utility.yul\":1202:1371   */\ntag_17:\n    /* \"#utility.yul\":1286:1297   */\n  0x00\n    /* \"#utility.yul\":1320:1326   */\n  dup3\n    /* \"#utility.yul\":1315:1318   */\n  dup3\n    /* \"#utility.yul\":1308:1327   */\n  mstore\n    /* \"#utility.yul\":1360:1364   */\n  0x20\n    /* \"#utility.yul\":1355:1358   */\n  dup3\n    /* \"#utility.yul\":1351:1365   */\n  add\n    /* \"#utility.yul\":1336:1365   */\n  swap1\n  pop\n    /* \"#utility.yul\":1202:1371   */\n  swap3\n  swap2\n  pop\n  pop\n  jump\t// out\n    /* \"#utility.yul\":1377:1556   */\ntag_18:\n    /* \"#utility.yul\":1517:1548   */\n  0x546f6b656e20616464726573732063616e6e6f74206265207a65726f2e000000\n    /* \"#utility.yul\":1513:1514   */\n  0x00\n    /* \"#utility.yul\":1505:1511   */\n  dup3\n    /* \"#utility.yul\":1501:1515   */\n  add\n    /* \"#utility.yul\":1494:1549   */\n  mstore\n    /* \"#utility.yul\":1377:1556   */\n  pop\n  jump\t// out\n    /* \"#utility.yul\":1562:1928   */\ntag_19:\n    /* \"#utility.yul\":1704:1707   */\n  0x00\n    /* \"#utility.yul\":1725:1792   */\n  tag_39\n    /* \"#utility.yul\":1789:1791   */\n  0x1d\n    /* \"#utility.yul\":1784:1787   */\n  dup4\n    /* \"#utility.yul\":1725:1792   */\n  tag_17\n  jump\t// in\ntag_39:\n    /* \"#utility.yul\":1718:1792   */\n  swap2\n  pop\n    /* \"#utility.yul\":1801:1894   */\n  tag_40\n    /* \"#utility.yul\":1890:1893   */\n  dup3\n    /* \"#utility.yul\":1801:1894   */\n  tag_18\n  jump\t// in\ntag_40:\n    /* \"#utility.yul\":1919:1921   */\n  0x20\n    /* \"#utility.yul\":1914:1917   */\n  dup3\n    /* \"#utility.yul\":1910:1922   */\n  add\n    /* \"#utility.yul\":1903:1922   */\n  swap1\n  pop\n    /* \"#utility.yul\":1562:1928   */\n  swap2\n  swap1\n  pop\n  jump\t// out\n    /* \"#utility.yul\":1934:2353   */\ntag_8:\n    /* \"#utility.yul\":2100:2104   */\n  0x00\n    /* \"#utility.yul\":2138:2140   */\n  0x20\n    /* \"#utility.yul\":2127:2136   */\n  dup3\n    /* \"#utility.yul\":2123:2141   */\n  add\n    /* \"#utility.yul\":2115:2141   */\n  swap1\n  pop\n    /* \"#utility.yul\":2187:2196   */\n  dup2\n    /* \"#utility.yul\":2181:2185   */\n  dup2\n    /* \"#utility.yul\":2177:2197   */\n  sub\n    /* \"#utility.yul\":2173:2174   */\n  0x00\n    /* \"#utility.yul\":2162:2171   */\n  dup4\n    /* \"#utility.yul\":2158:2175   */\n  add\n    /* \"#utility.yul\":2151:2198   */\n  mstore\n    /* \"#utility.yul\":2215:2346   */\n  tag_42\n    /* \"#utility.yul\":2341:2345   */\n  dup2\n    /* \"#utility.yul\":2215:2346   */\n  tag_19\n  jump\t// in\ntag_42:\n    /* \"#utility.yul\":2207:2346   */\n  swap1\n  pop\n    /* \"#utility.yul\":1934:2353   */\n  swap2\n  swap1\n  pop\n  jump\t// out\n    /* \"assignment contracts/W5 Auction.sol\":324:5668  contract Auction {... */\ntag_9:\n  dataSize(sub_0)\n  dup1\n  dataOffset(sub_0)\n  0x00\n  codecopy\n  0x00\n  return\nstop\n\nsub_0: assembly {\n        /* \"assignment contracts/W5 Auction.sol\":324:5668  contract Auction {... */\n      mstore(0x40, 0x80)\n      callvalue\n      dup1\n      iszero\n      tag_1\n      jumpi\n      0x00\n      dup1\n      revert\n    tag_1:\n      pop\n      jumpi(tag_2, lt(calldatasize, 0x04))\n      shr(0xe0, calldataload(0x00))\n      dup1\n      0xde0794ef\n      gt\n      tag_13\n      jumpi\n      dup1\n      0xde0794ef\n      eq\n      tag_8\n      jumpi\n      dup1\n      0xe8083863\n      eq\n      tag_9\n      jumpi\n      dup1\n      0xf20e5e35\n      eq\n      tag_10\n      jumpi\n      dup1\n      0xf3f43703\n      eq\n      tag_11\n      jumpi\n      dup1\n      0xfc0c546a\n      eq\n      tag_12\n      jumpi\n      jump(tag_2)\n    tag_13:\n      dup1\n      0x0121683f\n      eq\n      tag_3\n      jumpi\n      dup1\n      0x0cbb180c\n      eq\n      tag_4\n      jumpi\n      dup1\n      0x435fbd55\n      eq\n      tag_5\n      jumpi\n      dup1\n      0x571a26a0\n      eq\n      tag_6\n      jumpi\n      dup1\n      0x57c90de5\n      eq\n      tag_7\n      jumpi\n    tag_2:\n      0x00\n      dup1\n      revert\n        /* \"assignment contracts/W5 Auction.sol\":1557:2207  function createAuction(uint256 _minBid, uint256 _duration) external {... */\n    tag_3:\n      tag_14\n      0x04\n      dup1\n      calldatasize\n      sub\n      dup2\n      add\n      swap1\n      tag_15\n      swap2\n      swap1\n      tag_16\n      jump\t// in\n    tag_15:\n      tag_17\n      jump\t// in\n    tag_14:\n      stop\n        /* \"assignment contracts/W5 Auction.sol\":793:852  mapping(address => uint256) public sellerPendingWithdrawals */\n    tag_4:\n      tag_18\n      0x04\n      dup1\n      calldatasize\n      sub\n      dup2\n      add\n      swap1\n      tag_19\n      swap2\n      swap1\n      tag_20\n      jump\t// in\n    tag_19:\n      tag_21\n      jump\t// in\n    tag_18:\n      mload(0x40)\n      tag_22\n      swap2\n      swap1\n      tag_23\n      jump\t// in\n    tag_22:\n      mload(0x40)\n      dup1\n      swap2\n      sub\n      swap1\n      return\n        /* \"assignment contracts/W5 Auction.sol\":4796:5393  function withdrawSellerFunds() external {... */\n    tag_5:\n      tag_24\n      tag_25\n      jump\t// in\n    tag_24:\n      stop\n        /* \"assignment contracts/W5 Auction.sol\":887:916  AuctionItem[] public auctions */\n    tag_6:\n      tag_26\n      0x04\n      dup1\n      calldatasize\n      sub\n      dup2\n      add\n      swap1\n      tag_27\n      swap2\n      swap1\n      tag_28\n      jump\t// in\n    tag_27:\n      tag_29\n      jump\t// in\n    tag_26:\n      mload(0x40)\n      tag_30\n      swap8\n      swap7\n      swap6\n      swap5\n      swap4\n      swap3\n      swap2\n      swap1\n      tag_31\n      jump\t// in\n    tag_30:\n      mload(0x40)\n      dup1\n      swap2\n      sub\n      swap1\n      return\n        /* \"assignment contracts/W5 Auction.sol\":2258:3645  function placeBid(uint256 _auctionId, uint256 _bidAmount) external {... */\n    tag_7:\n      tag_32\n      0x04\n      dup1\n      calldatasize\n      sub\n      dup2\n      add\n      swap1\n      tag_33\n      swap2\n      swap1\n      tag_16\n      jump\t// in\n    tag_33:\n      tag_34\n      jump\t// in\n    tag_32:\n      stop\n        /* \"assignment contracts/W5 Auction.sol\":956:987  uint256 public auctionIdCounter */\n    tag_8:\n      tag_35\n      tag_36\n      jump\t// in\n    tag_35:\n      mload(0x40)\n      tag_37\n      swap2\n      swap1\n      tag_23\n      jump\t// in\n    tag_37:\n      mload(0x40)\n      dup1\n      swap2\n      sub\n      swap1\n      return\n        /* \"assignment contracts/W5 Auction.sol\":3727:4739  function finalizeAuction(uint256 _auctionId) external {... */\n    tag_9:\n      tag_38\n      0x04\n      dup1\n      calldatasize\n      sub\n      dup2\n      add\n      swap1\n      tag_39\n      swap2\n      swap1\n      tag_28\n      jump\t// in\n    tag_39:\n      tag_40\n      jump\t// in\n    tag_38:\n      stop\n        /* \"assignment contracts/W5 Auction.sol\":5454:5665  function getAuctionDetails(uint256 _auctionId) external view returns (AuctionItem memory) {... */\n    tag_10:\n      tag_41\n      0x04\n      dup1\n      calldatasize\n      sub\n      dup2\n      add\n      swap1\n      tag_42\n      swap2\n      swap1\n      tag_28\n      jump\t// in\n    tag_42:\n      tag_43\n      jump\t// in\n    tag_41:\n      mload(0x40)\n      tag_44\n      swap2\n      swap1\n      tag_45\n      jump\t// in\n    tag_44:\n      mload(0x40)\n      dup1\n      swap2\n      sub\n      swap1\n      return\n        /* \"assignment contracts/W5 Auction.sol\":697:750  mapping(address => uint256) public pendingWithdrawals */\n    tag_11:\n      tag_46\n      0x04\n      dup1\n      calldatasize\n      sub\n      dup2\n      add\n      swap1\n      tag_47\n      swap2\n      swap1\n      tag_20\n      jump\t// in\n    tag_47:\n      tag_48\n      jump\t// in\n    tag_46:\n      mload(0x40)\n      tag_49\n      swap2\n      swap1\n      tag_23\n      jump\t// in\n    tag_49:\n      mload(0x40)\n      dup1\n      swap2\n      sub\n      swap1\n      return\n        /* \"assignment contracts/W5 Auction.sol\":378:397  IERC20 public token */\n    tag_12:\n      tag_50\n      tag_51\n      jump\t// in\n    tag_50:\n      mload(0x40)\n      tag_52\n      swap2\n      swap1\n      tag_53\n      jump\t// in\n    tag_52:\n      mload(0x40)\n      dup1\n      swap2\n      sub\n      swap1\n      return\n        /* \"assignment contracts/W5 Auction.sol\":1557:2207  function createAuction(uint256 _minBid, uint256 _duration) external {... */\n    tag_17:\n        /* \"assignment contracts/W5 Auction.sol\":1654:1655  0 */\n      0x00\n        /* \"assignment contracts/W5 Auction.sol\":1644:1651  _minBid */\n      dup3\n        /* \"assignment contracts/W5 Auction.sol\":1644:1655  _minBid > 0 */\n      gt\n        /* \"assignment contracts/W5 Auction.sol\":1636:1698  require(_minBid > 0, \"Minimum bid must be greater than zero.\") */\n      tag_55\n      jumpi\n      mload(0x40)\n      0x08c379a000000000000000000000000000000000000000000000000000000000\n      dup2\n      mstore\n      0x04\n      add\n      tag_56\n      swap1\n      tag_57\n      jump\t// in\n    tag_56:\n      mload(0x40)\n      dup1\n      swap2\n      sub\n      swap1\n      revert\n    tag_55:\n        /* \"assignment contracts/W5 Auction.sol\":1729:1730  0 */\n      0x00\n        /* \"assignment contracts/W5 Auction.sol\":1717:1726  _duration */\n      dup2\n        /* \"assignment contracts/W5 Auction.sol\":1717:1730  _duration > 0 */\n      gt\n        /* \"assignment contracts/W5 Auction.sol\":1709:1770  require(_duration > 0, \"Duration must be greater than zero.\") */\n      tag_58\n      jumpi\n      mload(0x40)\n      0x08c379a000000000000000000000000000000000000000000000000000000000\n      dup2\n      mstore\n      0x04\n      add\n      tag_59\n      swap1\n      tag_60\n      jump\t// in\n    tag_59:\n      mload(0x40)\n      dup1\n      swap2\n      sub\n      swap1\n      revert\n    tag_58:\n        /* \"assignment contracts/W5 Auction.sol\":1783:1791  auctions */\n      0x03\n        /* \"assignment contracts/W5 Auction.sol\":1797:2067  AuctionItem({... */\n      mload(0x40)\n      dup1\n      0xe0\n      add\n      0x40\n      mstore\n      dup1\n        /* \"assignment contracts/W5 Auction.sol\":1828:1844  auctionIdCounter */\n      sload(0x04)\n        /* \"assignment contracts/W5 Auction.sol\":1797:2067  AuctionItem({... */\n      dup2\n      mstore\n      0x20\n      add\n        /* \"assignment contracts/W5 Auction.sol\":1867:1877  msg.sender */\n      caller\n        /* \"assignment contracts/W5 Auction.sol\":1797:2067  AuctionItem({... */\n      0xffffffffffffffffffffffffffffffffffffffff\n      and\n      dup2\n      mstore\n      0x20\n      add\n        /* \"assignment contracts/W5 Auction.sol\":1900:1907  _minBid */\n      dup5\n        /* \"assignment contracts/W5 Auction.sol\":1797:2067  AuctionItem({... */\n      dup2\n      mstore\n      0x20\n      add\n        /* \"assignment contracts/W5 Auction.sol\":1934:1935  0 */\n      0x00\n        /* \"assignment contracts/W5 Auction.sol\":1797:2067  AuctionItem({... */\n      dup2\n      mstore\n      0x20\n      add\n        /* \"assignment contracts/W5 Auction.sol\":1973:1974  0 */\n      0x00\n        /* \"assignment contracts/W5 Auction.sol\":1797:2067  AuctionItem({... */\n      0xffffffffffffffffffffffffffffffffffffffff\n      and\n      dup2\n      mstore\n      0x20\n      add\n        /* \"assignment contracts/W5 Auction.sol\":2000:2004  true */\n      0x01\n        /* \"assignment contracts/W5 Auction.sol\":1797:2067  AuctionItem({... */\n      iszero\n      iszero\n      dup2\n      mstore\n      0x20\n      add\n        /* \"assignment contracts/W5 Auction.sol\":2046:2055  _duration */\n      dup4\n        /* \"assignment contracts/W5 Auction.sol\":2028:2043  block.timestamp */\n      timestamp\n        /* \"assignment contracts/W5 Auction.sol\":2028:2055  block.timestamp + _duration */\n      tag_61\n      swap2\n      swap1\n      tag_62\n      jump\t// in\n    tag_61:\n        /* \"assignment contracts/W5 Auction.sol\":1797:2067  AuctionItem({... */\n      dup2\n      mstore\n      pop\n        /* \"assignment contracts/W5 Auction.sol\":1783:2068  auctions.push(AuctionItem({... */\n      swap1\n      dup1\n      0x01\n      dup2\n      sload\n      add\n      dup1\n      dup3\n      sstore\n      dup1\n      swap2\n      pop\n      pop\n      0x01\n      swap1\n      sub\n      swap1\n      0x00\n      mstore\n      keccak256(0x00, 0x20)\n      swap1\n      0x06\n      mul\n      add\n      0x00\n      swap1\n      swap2\n      swap1\n      swap2\n      swap1\n      swap2\n      pop\n      0x00\n      dup3\n      add\n      mload\n      dup2\n      0x00\n      add\n      sstore\n      0x20\n      dup3\n      add\n      mload\n      dup2\n      0x01\n      add\n      exp(0x0100, 0x00)\n      dup2\n      sload\n      dup2\n      0xffffffffffffffffffffffffffffffffffffffff\n      mul\n      not\n      and\n      swap1\n      dup4\n      0xffffffffffffffffffffffffffffffffffffffff\n      and\n      mul\n      or\n      swap1\n      sstore\n      pop\n      0x40\n      dup3\n      add\n      mload\n      dup2\n      0x02\n      add\n      sstore\n      0x60\n      dup3\n      add\n      mload\n      dup2\n      0x03\n      add\n      sstore\n      0x80\n      dup3\n      add\n      mload\n      dup2\n      0x04\n      add\n      exp(0x0100, 0x00)\n      dup2\n      sload\n      dup2\n      0xffffffffffffffffffffffffffffffffffffffff\n      mul\n      not\n      and\n      swap1\n      dup4\n      0xffffffffffffffffffffffffffffffffffffffff\n      and\n      mul\n      or\n      swap1\n      sstore\n      pop\n      0xa0\n      dup3\n      add\n      mload\n      dup2\n      0x04\n      add\n      exp(0x0100, 0x14)\n      dup2\n      sload\n      dup2\n      0xff\n      mul\n      not\n      and\n      swap1\n      dup4\n      iszero\n      iszero\n      mul\n      or\n      swap1\n      sstore\n      pop\n      0xc0\n      dup3\n      add\n      mload\n      dup2\n      0x05\n      add\n      sstore\n      pop\n      pop\n        /* \"assignment contracts/W5 Auction.sol\":2119:2129  msg.sender */\n      caller\n        /* \"assignment contracts/W5 Auction.sol\":2086:2168  AuctionCreated(auctionIdCounter, msg.sender, _minBid, block.timestamp + _duration) */\n      0xffffffffffffffffffffffffffffffffffffffff\n      and\n      0xc9050d42180a61cb0d9ebb8ad118b62fe6eab12cf12ff752c4a0cc7da9ddf627\n        /* \"assignment contracts/W5 Auction.sol\":2101:2117  auctionIdCounter */\n      sload(0x04)\n        /* \"assignment contracts/W5 Auction.sol\":2131:2138  _minBid */\n      dup5\n        /* \"assignment contracts/W5 Auction.sol\":2158:2167  _duration */\n      dup5\n        /* \"assignment contracts/W5 Auction.sol\":2140:2155  block.timestamp */\n      timestamp\n        /* \"assignment contracts/W5 Auction.sol\":2140:2167  block.timestamp + _duration */\n      tag_64\n      swap2\n      swap1\n      tag_62\n      jump\t// in\n    tag_64:\n        /* \"assignment contracts/W5 Auction.sol\":2086:2168  AuctionCreated(auctionIdCounter, msg.sender, _minBid, block.timestamp + _duration) */\n      mload(0x40)\n      tag_65\n      swap4\n      swap3\n      swap2\n      swap1\n      tag_66\n      jump\t// in\n    tag_65:\n      mload(0x40)\n      dup1\n      swap2\n      sub\n      swap1\n      log2\n        /* \"assignment contracts/W5 Auction.sol\":2181:2197  auctionIdCounter */\n      0x04\n      0x00\n        /* \"assignment contracts/W5 Auction.sol\":2181:2199  auctionIdCounter++ */\n      dup2\n      sload\n      dup1\n      swap3\n      swap2\n      swap1\n      tag_67\n      swap1\n      tag_68\n      jump\t// in\n    tag_67:\n      swap2\n      swap1\n      pop\n      sstore\n      pop\n        /* \"assignment contracts/W5 Auction.sol\":1557:2207  function createAuction(uint256 _minBid, uint256 _duration) external {... */\n      pop\n      pop\n      jump\t// out\n        /* \"assignment contracts/W5 Auction.sol\":793:852  mapping(address => uint256) public sellerPendingWithdrawals */\n    tag_21:\n      mstore(0x20, 0x02)\n      dup1\n      0x00\n      mstore\n      keccak256(0x00, 0x40)\n      0x00\n      swap2\n      pop\n      swap1\n      pop\n      sload\n      dup2\n      jump\t// out\n        /* \"assignment contracts/W5 Auction.sol\":4796:5393  function withdrawSellerFunds() external {... */\n    tag_25:\n        /* \"assignment contracts/W5 Auction.sol\":4847:4861  uint256 amount */\n      0x00\n        /* \"assignment contracts/W5 Auction.sol\":4864:4888  sellerPendingWithdrawals */\n      0x02\n        /* \"assignment contracts/W5 Auction.sol\":4864:4900  sellerPendingWithdrawals[msg.sender] */\n      0x00\n        /* \"assignment contracts/W5 Auction.sol\":4889:4899  msg.sender */\n      caller\n        /* \"assignment contracts/W5 Auction.sol\":4864:4900  sellerPendingWithdrawals[msg.sender] */\n      0xffffffffffffffffffffffffffffffffffffffff\n      and\n      0xffffffffffffffffffffffffffffffffffffffff\n      and\n      dup2\n      mstore\n      0x20\n      add\n      swap1\n      dup2\n      mstore\n      0x20\n      add\n      0x00\n      keccak256\n      sload\n        /* \"assignment contracts/W5 Auction.sol\":4847:4900  uint256 amount = sellerPendingWithdrawals[msg.sender] */\n      swap1\n      pop\n        /* \"assignment contracts/W5 Auction.sol\":4928:4929  0 */\n      0x00\n        /* \"assignment contracts/W5 Auction.sol\":4919:4925  amount */\n      dup2\n        /* \"assignment contracts/W5 Auction.sol\":4919:4929  amount > 0 */\n      gt\n        /* \"assignment contracts/W5 Auction.sol\":4911:4951  require(amount > 0, \"No pending funds.\") */\n      tag_70\n      jumpi\n      mload(0x40)\n      0x08c379a000000000000000000000000000000000000000000000000000000000\n      dup2\n      mstore\n      0x04\n      add\n      tag_71\n      swap1\n      tag_72\n      jump\t// in\n    tag_71:\n      mload(0x40)\n      dup1\n      swap2\n      sub\n      swap1\n      revert\n    tag_70:\n        /* \"assignment contracts/W5 Auction.sol\":5001:5002  0 */\n      0x00\n        /* \"assignment contracts/W5 Auction.sol\":4962:4986  sellerPendingWithdrawals */\n      0x02\n        /* \"assignment contracts/W5 Auction.sol\":4962:4998  sellerPendingWithdrawals[msg.sender] */\n      0x00\n        /* \"assignment contracts/W5 Auction.sol\":4987:4997  msg.sender */\n      caller\n        /* \"assignment contracts/W5 Auction.sol\":4962:4998  sellerPendingWithdrawals[msg.sender] */\n      0xffffffffffffffffffffffffffffffffffffffff\n      and\n      0xffffffffffffffffffffffffffffffffffffffff\n      and\n      dup2\n      mstore\n      0x20\n      add\n      swap1\n      dup2\n      mstore\n      0x20\n      add\n      0x00\n      keccak256\n        /* \"assignment contracts/W5 Auction.sol\":4962:5002  sellerPendingWithdrawals[msg.sender] = 0 */\n      dup2\n      swap1\n      sstore\n      pop\n        /* \"assignment contracts/W5 Auction.sol\":5102:5107  token */\n      0x00\n      dup1\n      sload\n      swap1\n      0x0100\n      exp\n      swap1\n      div\n      0xffffffffffffffffffffffffffffffffffffffff\n      and\n        /* \"assignment contracts/W5 Auction.sol\":5102:5116  token.transfer */\n      0xffffffffffffffffffffffffffffffffffffffff\n      and\n      0xa9059cbb\n        /* \"assignment contracts/W5 Auction.sol\":5117:5127  msg.sender */\n      caller\n        /* \"assignment contracts/W5 Auction.sol\":5129:5135  amount */\n      dup4\n        /* \"assignment contracts/W5 Auction.sol\":5102:5136  token.transfer(msg.sender, amount) */\n      mload(0x40)\n      dup4\n      0xffffffff\n      and\n      0xe0\n      shl\n      dup2\n      mstore\n      0x04\n      add\n      tag_73\n      swap3\n      swap2\n      swap1\n      tag_74\n      jump\t// in\n    tag_73:\n      0x20\n      mload(0x40)\n      dup1\n      dup4\n      sub\n      dup2\n      0x00\n      dup8\n      gas\n      call\n      swap3\n      pop\n      pop\n      pop\n      dup1\n      iszero\n      tag_75\n      jumpi\n      pop\n      mload(0x40)\n      returndatasize\n      not(0x1f)\n      0x1f\n      dup3\n      add\n      and\n      dup3\n      add\n      dup1\n      0x40\n      mstore\n      pop\n      dup2\n      add\n      swap1\n      tag_76\n      swap2\n      swap1\n      tag_77\n      jump\t// in\n    tag_76:\n      0x01\n    tag_75:\n        /* \"assignment contracts/W5 Auction.sol\":5098:5386  try token.transfer(msg.sender, amount) {... */\n      tag_78\n      jumpi\n        /* \"assignment contracts/W5 Auction.sol\":5327:5333  amount */\n      dup1\n        /* \"assignment contracts/W5 Auction.sol\":5288:5312  sellerPendingWithdrawals */\n      0x02\n        /* \"assignment contracts/W5 Auction.sol\":5288:5324  sellerPendingWithdrawals[msg.sender] */\n      0x00\n        /* \"assignment contracts/W5 Auction.sol\":5313:5323  msg.sender */\n      caller\n        /* \"assignment contracts/W5 Auction.sol\":5288:5324  sellerPendingWithdrawals[msg.sender] */\n      0xffffffffffffffffffffffffffffffffffffffff\n      and\n      0xffffffffffffffffffffffffffffffffffffffff\n      and\n      dup2\n      mstore\n      0x20\n      add\n      swap1\n      dup2\n      mstore\n      0x20\n      add\n      0x00\n      keccak256\n        /* \"assignment contracts/W5 Auction.sol\":5288:5333  sellerPendingWithdrawals[msg.sender] = amount */\n      dup2\n      swap1\n      sstore\n      pop\n        /* \"assignment contracts/W5 Auction.sol\":5348:5374  revert(\"Withdraw failed.\") */\n      mload(0x40)\n      0x08c379a000000000000000000000000000000000000000000000000000000000\n      dup2\n      mstore\n      0x04\n      add\n      tag_82\n      swap1\n      tag_83\n      jump\t// in\n    tag_82:\n      mload(0x40)\n      dup1\n      swap2\n      sub\n      swap1\n      revert\n        /* \"assignment contracts/W5 Auction.sol\":5098:5386  try token.transfer(msg.sender, amount) {... */\n    tag_78:\n      pop\n        /* \"assignment contracts/W5 Auction.sol\":4836:5393  {... */\n      pop\n        /* \"assignment contracts/W5 Auction.sol\":4796:5393  function withdrawSellerFunds() external {... */\n      jump\t// out\n        /* \"assignment contracts/W5 Auction.sol\":887:916  AuctionItem[] public auctions */\n    tag_29:\n      0x03\n      dup2\n      dup2\n      sload\n      dup2\n      lt\n      tag_85\n      jumpi\n      0x00\n      dup1\n      revert\n    tag_85:\n      swap1\n      0x00\n      mstore\n      keccak256(0x00, 0x20)\n      swap1\n      0x06\n      mul\n      add\n      0x00\n      swap2\n      pop\n      swap1\n      pop\n      dup1\n      0x00\n      add\n      sload\n      swap1\n      dup1\n      0x01\n      add\n      0x00\n      swap1\n      sload\n      swap1\n      0x0100\n      exp\n      swap1\n      div\n      0xffffffffffffffffffffffffffffffffffffffff\n      and\n      swap1\n      dup1\n      0x02\n      add\n      sload\n      swap1\n      dup1\n      0x03\n      add\n      sload\n      swap1\n      dup1\n      0x04\n      add\n      0x00\n      swap1\n      sload\n      swap1\n      0x0100\n      exp\n      swap1\n      div\n      0xffffffffffffffffffffffffffffffffffffffff\n      and\n      swap1\n      dup1\n      0x04\n      add\n      0x14\n      swap1\n      sload\n      swap1\n      0x0100\n      exp\n      swap1\n      div\n      0xff\n      and\n      swap1\n      dup1\n      0x05\n      add\n      sload\n      swap1\n      pop\n      dup8\n      jump\t// out\n        /* \"assignment contracts/W5 Auction.sol\":2258:3645  function placeBid(uint256 _auctionId, uint256 _bidAmount) external {... */\n    tag_34:\n        /* \"assignment contracts/W5 Auction.sol\":2357:2365  auctions */\n      0x03\n        /* \"assignment contracts/W5 Auction.sol\":2357:2372  auctions.length */\n      dup1\n      sload\n      swap1\n      pop\n        /* \"assignment contracts/W5 Auction.sol\":2344:2354  _auctionId */\n      dup3\n        /* \"assignment contracts/W5 Auction.sol\":2344:2372  _auctionId < auctions.length */\n      lt\n        /* \"assignment contracts/W5 Auction.sol\":2336:2400  require(_auctionId < auctions.length, \"Auction does not exist.\") */\n      tag_88\n      jumpi\n      mload(0x40)\n      0x08c379a000000000000000000000000000000000000000000000000000000000\n      dup2\n      mstore\n      0x04\n      add\n      tag_89\n      swap1\n      tag_90\n      jump\t// in\n    tag_89:\n      mload(0x40)\n      dup1\n      swap2\n      sub\n      swap1\n      revert\n    tag_88:\n        /* \"assignment contracts/W5 Auction.sol\":2411:2438  AuctionItem storage auction */\n      0x00\n        /* \"assignment contracts/W5 Auction.sol\":2441:2449  auctions */\n      0x03\n        /* \"assignment contracts/W5 Auction.sol\":2450:2460  _auctionId */\n      dup4\n        /* \"assignment contracts/W5 Auction.sol\":2441:2461  auctions[_auctionId] */\n      dup2\n      sload\n      dup2\n      lt\n      tag_91\n      jumpi\n      tag_92\n      tag_93\n      jump\t// in\n    tag_92:\n    tag_91:\n      swap1\n      0x00\n      mstore\n      keccak256(0x00, 0x20)\n      swap1\n      0x06\n      mul\n      add\n        /* \"assignment contracts/W5 Auction.sol\":2411:2461  AuctionItem storage auction = auctions[_auctionId] */\n      swap1\n      pop\n        /* \"assignment contracts/W5 Auction.sol\":2480:2487  auction */\n      dup1\n        /* \"assignment contracts/W5 Auction.sol\":2480:2496  auction.isActive */\n      0x04\n      add\n      0x14\n      swap1\n      sload\n      swap1\n      0x0100\n      exp\n      swap1\n      div\n      0xff\n      and\n        /* \"assignment contracts/W5 Auction.sol\":2472:2523  require(auction.isActive, \"Auction is not active.\") */\n      tag_95\n      jumpi\n      mload(0x40)\n      0x08c379a000000000000000000000000000000000000000000000000000000000\n      dup2\n      mstore\n      0x04\n      add\n      tag_96\n      swap1\n      tag_97\n      jump\t// in\n    tag_96:\n      mload(0x40)\n      dup1\n      swap2\n      sub\n      swap1\n      revert\n    tag_95:\n        /* \"assignment contracts/W5 Auction.sol\":2560:2567  auction */\n      dup1\n        /* \"assignment contracts/W5 Auction.sol\":2560:2575  auction.endTime */\n      0x05\n      add\n      sload\n        /* \"assignment contracts/W5 Auction.sol\":2542:2557  block.timestamp */\n      timestamp\n        /* \"assignment contracts/W5 Auction.sol\":2542:2575  block.timestamp < auction.endTime */\n      lt\n        /* \"assignment contracts/W5 Auction.sol\":2534:2598  require(block.timestamp < auction.endTime, \"Auction has ended.\") */\n      tag_98\n      jumpi\n      mload(0x40)\n      0x08c379a000000000000000000000000000000000000000000000000000000000\n      dup2\n      mstore\n      0x04\n      add\n      tag_99\n      swap1\n      tag_100\n      jump\t// in\n    tag_99:\n      mload(0x40)\n      dup1\n      swap2\n      sub\n      swap1\n      revert\n    tag_98:\n        /* \"assignment contracts/W5 Auction.sol\":2630:2637  auction */\n      dup1\n        /* \"assignment contracts/W5 Auction.sol\":2630:2648  auction.highestBid */\n      0x03\n      add\n      sload\n        /* \"assignment contracts/W5 Auction.sol\":2617:2627  _bidAmount */\n      dup3\n        /* \"assignment contracts/W5 Auction.sol\":2617:2648  _bidAmount > auction.highestBid */\n      gt\n        /* \"assignment contracts/W5 Auction.sol\":2609:2701  require(_bidAmount > auction.highestBid, \"Bid must be higher than the current highest bid.\") */\n      tag_101\n      jumpi\n      mload(0x40)\n      0x08c379a000000000000000000000000000000000000000000000000000000000\n      dup2\n      mstore\n      0x04\n      add\n      tag_102\n      swap1\n      tag_103\n      jump\t// in\n    tag_102:\n      mload(0x40)\n      dup1\n      swap2\n      sub\n      swap1\n      revert\n    tag_101:\n        /* \"assignment contracts/W5 Auction.sol\":2734:2741  auction */\n      dup1\n        /* \"assignment contracts/W5 Auction.sol\":2734:2748  auction.minBid */\n      0x02\n      add\n      sload\n        /* \"assignment contracts/W5 Auction.sol\":2720:2730  _bidAmount */\n      dup3\n        /* \"assignment contracts/W5 Auction.sol\":2720:2748  _bidAmount >= auction.minBid */\n      lt\n      iszero\n        /* \"assignment contracts/W5 Auction.sol\":2712:2790  require(_bidAmount >= auction.minBid, \"Bid must meet the minimum bid amount.\") */\n      tag_104\n      jumpi\n      mload(0x40)\n      0x08c379a000000000000000000000000000000000000000000000000000000000\n      dup2\n      mstore\n      0x04\n      add\n      tag_105\n      swap1\n      tag_106\n      jump\t// in\n    tag_105:\n      mload(0x40)\n      dup1\n      swap2\n      sub\n      swap1\n      revert\n    tag_104:\n        /* \"assignment contracts/W5 Auction.sol\":2846:2851  token */\n      0x00\n      dup1\n      sload\n      swap1\n      0x0100\n      exp\n      swap1\n      div\n      0xffffffffffffffffffffffffffffffffffffffff\n      and\n        /* \"assignment contracts/W5 Auction.sol\":2846:2864  token.transferFrom */\n      0xffffffffffffffffffffffffffffffffffffffff\n      and\n      0x23b872dd\n        /* \"assignment contracts/W5 Auction.sol\":2865:2875  msg.sender */\n      caller\n        /* \"assignment contracts/W5 Auction.sol\":2885:2889  this */\n      address\n        /* \"assignment contracts/W5 Auction.sol\":2892:2902  _bidAmount */\n      dup6\n        /* \"assignment contracts/W5 Auction.sol\":2846:2903  token.transferFrom(msg.sender, address(this), _bidAmount) */\n      mload(0x40)\n      dup5\n      0xffffffff\n      and\n      0xe0\n      shl\n      dup2\n      mstore\n      0x04\n      add\n      tag_107\n      swap4\n      swap3\n      swap2\n      swap1\n      tag_108\n      jump\t// in\n    tag_107:\n      0x20\n      mload(0x40)\n      dup1\n      dup4\n      sub\n      dup2\n      0x00\n      dup8\n      gas\n      call\n      swap3\n      pop\n      pop\n      pop\n      dup1\n      iszero\n      tag_109\n      jumpi\n      pop\n      mload(0x40)\n      returndatasize\n      not(0x1f)\n      0x1f\n      dup3\n      add\n      and\n      dup3\n      add\n      dup1\n      0x40\n      mstore\n      pop\n      dup2\n      add\n      swap1\n      tag_110\n      swap2\n      swap1\n      tag_77\n      jump\t// in\n    tag_110:\n      0x01\n    tag_109:\n        /* \"assignment contracts/W5 Auction.sol\":2842:3638  try token.transferFrom(msg.sender, address(this), _bidAmount) {... */\n      tag_111\n      jumpi\n        /* \"assignment contracts/W5 Auction.sol\":3594:3626  revert(\"Token transfer failed.\") */\n      mload(0x40)\n      0x08c379a000000000000000000000000000000000000000000000000000000000\n      dup2\n      mstore\n      0x04\n      add\n      tag_115\n      swap1\n      tag_116\n      jump\t// in\n    tag_115:\n      mload(0x40)\n      dup1\n      swap2\n      sub\n      swap1\n      revert\n        /* \"assignment contracts/W5 Auction.sol\":2842:3638  try token.transferFrom(msg.sender, address(this), _bidAmount) {... */\n    tag_111:\n      pop\n        /* \"assignment contracts/W5 Auction.sol\":2998:2999  0 */\n      0x00\n        /* \"assignment contracts/W5 Auction.sol\":2977:2984  auction */\n      dup2\n        /* \"assignment contracts/W5 Auction.sol\":2977:2995  auction.highestBid */\n      0x03\n      add\n      sload\n        /* \"assignment contracts/W5 Auction.sol\":2977:2999  auction.highestBid > 0 */\n      gt\n        /* \"assignment contracts/W5 Auction.sol\":2973:3362  if (auction.highestBid > 0) {... */\n      iszero\n      tag_118\n      jumpi\n        /* \"assignment contracts/W5 Auction.sol\":3024:3029  token */\n      0x00\n      dup1\n      sload\n      swap1\n      0x0100\n      exp\n      swap1\n      div\n      0xffffffffffffffffffffffffffffffffffffffff\n      and\n        /* \"assignment contracts/W5 Auction.sol\":3024:3038  token.transfer */\n      0xffffffffffffffffffffffffffffffffffffffff\n      and\n      0xa9059cbb\n        /* \"assignment contracts/W5 Auction.sol\":3039:3046  auction */\n      dup3\n        /* \"assignment contracts/W5 Auction.sol\":3039:3060  auction.highestBidder */\n      0x04\n      add\n      0x00\n      swap1\n      sload\n      swap1\n      0x0100\n      exp\n      swap1\n      div\n      0xffffffffffffffffffffffffffffffffffffffff\n      and\n        /* \"assignment contracts/W5 Auction.sol\":3062:3069  auction */\n      dup4\n        /* \"assignment contracts/W5 Auction.sol\":3062:3080  auction.highestBid */\n      0x03\n      add\n      sload\n        /* \"assignment contracts/W5 Auction.sol\":3024:3081  token.transfer(auction.highestBidder, auction.highestBid) */\n      mload(0x40)\n      dup4\n      0xffffffff\n      and\n      0xe0\n      shl\n      dup2\n      mstore\n      0x04\n      add\n      tag_119\n      swap3\n      swap2\n      swap1\n      tag_74\n      jump\t// in\n    tag_119:\n      0x20\n      mload(0x40)\n      dup1\n      dup4\n      sub\n      dup2\n      0x00\n      dup8\n      gas\n      call\n      swap3\n      pop\n      pop\n      pop\n      dup1\n      iszero\n      tag_120\n      jumpi\n      pop\n      mload(0x40)\n      returndatasize\n      not(0x1f)\n      0x1f\n      dup3\n      add\n      and\n      dup3\n      add\n      dup1\n      0x40\n      mstore\n      pop\n      dup2\n      add\n      swap1\n      tag_121\n      swap2\n      swap1\n      tag_77\n      jump\t// in\n    tag_121:\n      0x01\n    tag_120:\n        /* \"assignment contracts/W5 Auction.sol\":3020:3347  try token.transfer(auction.highestBidder, auction.highestBid) {... */\n      tag_122\n      jumpi\n        /* \"assignment contracts/W5 Auction.sol\":3309:3316  auction */\n      dup1\n        /* \"assignment contracts/W5 Auction.sol\":3309:3327  auction.highestBid */\n      0x03\n      add\n      sload\n        /* \"assignment contracts/W5 Auction.sol\":3264:3282  pendingWithdrawals */\n      0x01\n        /* \"assignment contracts/W5 Auction.sol\":3264:3305  pendingWithdrawals[auction.highestBidder] */\n      0x00\n        /* \"assignment contracts/W5 Auction.sol\":3283:3290  auction */\n      dup4\n        /* \"assignment contracts/W5 Auction.sol\":3283:3304  auction.highestBidder */\n      0x04\n      add\n      0x00\n      swap1\n      sload\n      swap1\n      0x0100\n      exp\n      swap1\n      div\n      0xffffffffffffffffffffffffffffffffffffffff\n      and\n        /* \"assignment contracts/W5 Auction.sol\":3264:3305  pendingWithdrawals[auction.highestBidder] */\n      0xffffffffffffffffffffffffffffffffffffffff\n      and\n      0xffffffffffffffffffffffffffffffffffffffff\n      and\n      dup2\n      mstore\n      0x20\n      add\n      swap1\n      dup2\n      mstore\n      0x20\n      add\n      0x00\n      keccak256\n      0x00\n        /* \"assignment contracts/W5 Auction.sol\":3264:3327  pendingWithdrawals[auction.highestBidder] += auction.highestBid */\n      dup3\n      dup3\n      sload\n      tag_126\n      swap2\n      swap1\n      tag_62\n      jump\t// in\n    tag_126:\n      swap3\n      pop\n      pop\n      dup2\n      swap1\n      sstore\n      pop\n        /* \"assignment contracts/W5 Auction.sol\":3020:3347  try token.transfer(auction.highestBidder, auction.highestBid) {... */\n      jump(tag_127)\n    tag_122:\n      pop\n    tag_127:\n        /* \"assignment contracts/W5 Auction.sol\":2973:3362  if (auction.highestBid > 0) {... */\n    tag_118:\n        /* \"assignment contracts/W5 Auction.sol\":3434:3444  _bidAmount */\n      dup2\n        /* \"assignment contracts/W5 Auction.sol\":3413:3420  auction */\n      dup2\n        /* \"assignment contracts/W5 Auction.sol\":3413:3431  auction.highestBid */\n      0x03\n      add\n        /* \"assignment contracts/W5 Auction.sol\":3413:3444  auction.highestBid = _bidAmount */\n      dup2\n      swap1\n      sstore\n      pop\n        /* \"assignment contracts/W5 Auction.sol\":3483:3493  msg.sender */\n      caller\n        /* \"assignment contracts/W5 Auction.sol\":3459:3466  auction */\n      dup2\n        /* \"assignment contracts/W5 Auction.sol\":3459:3480  auction.highestBidder */\n      0x04\n      add\n      0x00\n        /* \"assignment contracts/W5 Auction.sol\":3459:3493  auction.highestBidder = msg.sender */\n      0x0100\n      exp\n      dup2\n      sload\n      dup2\n      0xffffffffffffffffffffffffffffffffffffffff\n      mul\n      not\n      and\n      swap1\n      dup4\n      0xffffffffffffffffffffffffffffffffffffffff\n      and\n      mul\n      or\n      swap1\n      sstore\n      pop\n        /* \"assignment contracts/W5 Auction.sol\":3537:3547  msg.sender */\n      caller\n        /* \"assignment contracts/W5 Auction.sol\":3515:3560  BidPlaced(_auctionId, msg.sender, _bidAmount) */\n      0xffffffffffffffffffffffffffffffffffffffff\n      and\n        /* \"assignment contracts/W5 Auction.sol\":3525:3535  _auctionId */\n      dup4\n        /* \"assignment contracts/W5 Auction.sol\":3515:3560  BidPlaced(_auctionId, msg.sender, _bidAmount) */\n      0x0e54eff26401bf69b81b26f60bd85ef47f5d85275c1d268d84f68d6897431c47\n        /* \"assignment contracts/W5 Auction.sol\":3549:3559  _bidAmount */\n      dup5\n        /* \"assignment contracts/W5 Auction.sol\":3515:3560  BidPlaced(_auctionId, msg.sender, _bidAmount) */\n      mload(0x40)\n      tag_128\n      swap2\n      swap1\n      tag_23\n      jump\t// in\n    tag_128:\n      mload(0x40)\n      dup1\n      swap2\n      sub\n      swap1\n      log3\n        /* \"assignment contracts/W5 Auction.sol\":2325:3645  {... */\n      pop\n        /* \"assignment contracts/W5 Auction.sol\":2258:3645  function placeBid(uint256 _auctionId, uint256 _bidAmount) external {... */\n      pop\n      pop\n      jump\t// out\n        /* \"assignment contracts/W5 Auction.sol\":956:987  uint256 public auctionIdCounter */\n    tag_36:\n      sload(0x04)\n      dup2\n      jump\t// out\n        /* \"assignment contracts/W5 Auction.sol\":3727:4739  function finalizeAuction(uint256 _auctionId) external {... */\n    tag_40:\n        /* \"assignment contracts/W5 Auction.sol\":3813:3821  auctions */\n      0x03\n        /* \"assignment contracts/W5 Auction.sol\":3813:3828  auctions.length */\n      dup1\n      sload\n      swap1\n      pop\n        /* \"assignment contracts/W5 Auction.sol\":3800:3810  _auctionId */\n      dup2\n        /* \"assignment contracts/W5 Auction.sol\":3800:3828  _auctionId < auctions.length */\n      lt\n        /* \"assignment contracts/W5 Auction.sol\":3792:3856  require(_auctionId < auctions.length, \"Auction does not exist.\") */\n      tag_130\n      jumpi\n      mload(0x40)\n      0x08c379a000000000000000000000000000000000000000000000000000000000\n      dup2\n      mstore\n      0x04\n      add\n      tag_131\n      swap1\n      tag_90\n      jump\t// in\n    tag_131:\n      mload(0x40)\n      dup1\n      swap2\n      sub\n      swap1\n      revert\n    tag_130:\n        /* \"assignment contracts/W5 Auction.sol\":3867:3894  AuctionItem storage auction */\n      0x00\n        /* \"assignment contracts/W5 Auction.sol\":3897:3905  auctions */\n      0x03\n        /* \"assignment contracts/W5 Auction.sol\":3906:3916  _auctionId */\n      dup3\n        /* \"assignment contracts/W5 Auction.sol\":3897:3917  auctions[_auctionId] */\n      dup2\n      sload\n      dup2\n      lt\n      tag_132\n      jumpi\n      tag_133\n      tag_93\n      jump\t// in\n    tag_133:\n    tag_132:\n      swap1\n      0x00\n      mstore\n      keccak256(0x00, 0x20)\n      swap1\n      0x06\n      mul\n      add\n        /* \"assignment contracts/W5 Auction.sol\":3867:3917  AuctionItem storage auction = auctions[_auctionId] */\n      swap1\n      pop\n        /* \"assignment contracts/W5 Auction.sol\":3955:3962  auction */\n      dup1\n        /* \"assignment contracts/W5 Auction.sol\":3955:3970  auction.endTime */\n      0x05\n      add\n      sload\n        /* \"assignment contracts/W5 Auction.sol\":3936:3951  block.timestamp */\n      timestamp\n        /* \"assignment contracts/W5 Auction.sol\":3936:3970  block.timestamp >= auction.endTime */\n      lt\n      iszero\n        /* \"assignment contracts/W5 Auction.sol\":3928:3997  require(block.timestamp >= auction.endTime, \"Auction has not ended.\") */\n      tag_135\n      jumpi\n      mload(0x40)\n      0x08c379a000000000000000000000000000000000000000000000000000000000\n      dup2\n      mstore\n      0x04\n      add\n      tag_136\n      swap1\n      tag_137\n      jump\t// in\n    tag_136:\n      mload(0x40)\n      dup1\n      swap2\n      sub\n      swap1\n      revert\n    tag_135:\n        /* \"assignment contracts/W5 Auction.sol\":4016:4023  auction */\n      dup1\n        /* \"assignment contracts/W5 Auction.sol\":4016:4032  auction.isActive */\n      0x04\n      add\n      0x14\n      swap1\n      sload\n      swap1\n      0x0100\n      exp\n      swap1\n      div\n      0xff\n      and\n        /* \"assignment contracts/W5 Auction.sol\":4008:4059  require(auction.isActive, \"Auction is not active.\") */\n      tag_138\n      jumpi\n      mload(0x40)\n      0x08c379a000000000000000000000000000000000000000000000000000000000\n      dup2\n      mstore\n      0x04\n      add\n      tag_139\n      swap1\n      tag_97\n      jump\t// in\n    tag_139:\n      mload(0x40)\n      dup1\n      swap2\n      sub\n      swap1\n      revert\n    tag_138:\n        /* \"assignment contracts/W5 Auction.sol\":4091:4096  false */\n      0x00\n        /* \"assignment contracts/W5 Auction.sol\":4072:4079  auction */\n      dup2\n        /* \"assignment contracts/W5 Auction.sol\":4072:4088  auction.isActive */\n      0x04\n      add\n      0x14\n        /* \"assignment contracts/W5 Auction.sol\":4072:4096  auction.isActive = false */\n      0x0100\n      exp\n      dup2\n      sload\n      dup2\n      0xff\n      mul\n      not\n      and\n      swap1\n      dup4\n      iszero\n      iszero\n      mul\n      or\n      swap1\n      sstore\n      pop\n        /* \"assignment contracts/W5 Auction.sol\":4134:4135  0 */\n      0x00\n        /* \"assignment contracts/W5 Auction.sol\":4113:4120  auction */\n      dup2\n        /* \"assignment contracts/W5 Auction.sol\":4113:4131  auction.highestBid */\n      0x03\n      add\n      sload\n        /* \"assignment contracts/W5 Auction.sol\":4113:4135  auction.highestBid > 0 */\n      gt\n        /* \"assignment contracts/W5 Auction.sol\":4109:4732  if (auction.highestBid > 0) {... */\n      iszero\n      tag_140\n      jumpi\n        /* \"assignment contracts/W5 Auction.sol\":4205:4210  token */\n      0x00\n      dup1\n      sload\n      swap1\n      0x0100\n      exp\n      swap1\n      div\n      0xffffffffffffffffffffffffffffffffffffffff\n      and\n        /* \"assignment contracts/W5 Auction.sol\":4205:4219  token.transfer */\n      0xffffffffffffffffffffffffffffffffffffffff\n      and\n      0xa9059cbb\n        /* \"assignment contracts/W5 Auction.sol\":4220:4227  auction */\n      dup3\n        /* \"assignment contracts/W5 Auction.sol\":4220:4234  auction.seller */\n      0x01\n      add\n      0x00\n      swap1\n      sload\n      swap1\n      0x0100\n      exp\n      swap1\n      div\n      0xffffffffffffffffffffffffffffffffffffffff\n      and\n        /* \"assignment contracts/W5 Auction.sol\":4236:4243  auction */\n      dup4\n        /* \"assignment contracts/W5 Auction.sol\":4236:4254  auction.highestBid */\n      0x03\n      add\n      sload\n        /* \"assignment contracts/W5 Auction.sol\":4205:4255  token.transfer(auction.seller, auction.highestBid) */\n      mload(0x40)\n      dup4\n      0xffffffff\n      and\n      0xe0\n      shl\n      dup2\n      mstore\n      0x04\n      add\n      tag_141\n      swap3\n      swap2\n      swap1\n      tag_74\n      jump\t// in\n    tag_141:\n      0x20\n      mload(0x40)\n      dup1\n      dup4\n      sub\n      dup2\n      0x00\n      dup8\n      gas\n      call\n      swap3\n      pop\n      pop\n      pop\n      dup1\n      iszero\n      tag_142\n      jumpi\n      pop\n      mload(0x40)\n      returndatasize\n      not(0x1f)\n      0x1f\n      dup3\n      add\n      and\n      dup3\n      add\n      dup1\n      0x40\n      mstore\n      pop\n      dup2\n      add\n      swap1\n      tag_143\n      swap2\n      swap1\n      tag_77\n      jump\t// in\n    tag_143:\n      0x01\n    tag_142:\n        /* \"assignment contracts/W5 Auction.sol\":4201:4640  try token.transfer(auction.seller, auction.highestBid) {... */\n      tag_144\n      jumpi\n        /* \"assignment contracts/W5 Auction.sol\":4511:4518  auction */\n      dup1\n        /* \"assignment contracts/W5 Auction.sol\":4511:4529  auction.highestBid */\n      0x03\n      add\n      sload\n        /* \"assignment contracts/W5 Auction.sol\":4467:4491  sellerPendingWithdrawals */\n      0x02\n        /* \"assignment contracts/W5 Auction.sol\":4467:4507  sellerPendingWithdrawals[auction.seller] */\n      0x00\n        /* \"assignment contracts/W5 Auction.sol\":4492:4499  auction */\n      dup4\n        /* \"assignment contracts/W5 Auction.sol\":4492:4506  auction.seller */\n      0x01\n      add\n      0x00\n      swap1\n      sload\n      swap1\n      0x0100\n      exp\n      swap1\n      div\n      0xffffffffffffffffffffffffffffffffffffffff\n      and\n        /* \"assignment contracts/W5 Auction.sol\":4467:4507  sellerPendingWithdrawals[auction.seller] */\n      0xffffffffffffffffffffffffffffffffffffffff\n      and\n      0xffffffffffffffffffffffffffffffffffffffff\n      and\n      dup2\n      mstore\n      0x20\n      add\n      swap1\n      dup2\n      mstore\n      0x20\n      add\n      0x00\n      keccak256\n      0x00\n        /* \"assignment contracts/W5 Auction.sol\":4467:4529  sellerPendingWithdrawals[auction.seller] += auction.highestBid */\n      dup3\n      dup3\n      sload\n      tag_148\n      swap2\n      swap1\n      tag_62\n      jump\t// in\n    tag_148:\n      swap3\n      pop\n      pop\n      dup2\n      swap1\n      sstore\n      pop\n        /* \"assignment contracts/W5 Auction.sol\":4582:4589  auction */\n      dup1\n        /* \"assignment contracts/W5 Auction.sol\":4582:4603  auction.highestBidder */\n      0x04\n      add\n      0x00\n      swap1\n      sload\n      swap1\n      0x0100\n      exp\n      swap1\n      div\n      0xffffffffffffffffffffffffffffffffffffffff\n      and\n        /* \"assignment contracts/W5 Auction.sol\":4553:4624  AuctionFinalized(_auctionId, auction.highestBidder, auction.highestBid) */\n      0xffffffffffffffffffffffffffffffffffffffff\n      and\n        /* \"assignment contracts/W5 Auction.sol\":4570:4580  _auctionId */\n      dup3\n        /* \"assignment contracts/W5 Auction.sol\":4553:4624  AuctionFinalized(_auctionId, auction.highestBidder, auction.highestBid) */\n      0x4d9113a1377d665eaa1f9168a9c9080f2e488cb820b10149de3d6d2e0f2780c7\n        /* \"assignment contracts/W5 Auction.sol\":4605:4612  auction */\n      dup4\n        /* \"assignment contracts/W5 Auction.sol\":4605:4623  auction.highestBid */\n      0x03\n      add\n      sload\n        /* \"assignment contracts/W5 Auction.sol\":4553:4624  AuctionFinalized(_auctionId, auction.highestBidder, auction.highestBid) */\n      mload(0x40)\n      tag_149\n      swap2\n      swap1\n      tag_23\n      jump\t// in\n    tag_149:\n      mload(0x40)\n      dup1\n      swap2\n      sub\n      swap1\n      log3\n        /* \"assignment contracts/W5 Auction.sol\":4201:4640  try token.transfer(auction.seller, auction.highestBid) {... */\n      jump(tag_150)\n    tag_144:\n      pop\n        /* \"assignment contracts/W5 Auction.sol\":4309:4316  auction */\n      dup1\n        /* \"assignment contracts/W5 Auction.sol\":4309:4330  auction.highestBidder */\n      0x04\n      add\n      0x00\n      swap1\n      sload\n      swap1\n      0x0100\n      exp\n      swap1\n      div\n      0xffffffffffffffffffffffffffffffffffffffff\n      and\n        /* \"assignment contracts/W5 Auction.sol\":4280:4351  AuctionFinalized(_auctionId, auction.highestBidder, auction.highestBid) */\n      0xffffffffffffffffffffffffffffffffffffffff\n      and\n        /* \"assignment contracts/W5 Auction.sol\":4297:4307  _auctionId */\n      dup3\n        /* \"assignment contracts/W5 Auction.sol\":4280:4351  AuctionFinalized(_auctionId, auction.highestBidder, auction.highestBid) */\n      0x4d9113a1377d665eaa1f9168a9c9080f2e488cb820b10149de3d6d2e0f2780c7\n        /* \"assignment contracts/W5 Auction.sol\":4332:4339  auction */\n      dup4\n        /* \"assignment contracts/W5 Auction.sol\":4332:4350  auction.highestBid */\n      0x03\n      add\n      sload\n        /* \"assignment contracts/W5 Auction.sol\":4280:4351  AuctionFinalized(_auctionId, auction.highestBidder, auction.highestBid) */\n      mload(0x40)\n      tag_151\n      swap2\n      swap1\n      tag_23\n      jump\t// in\n    tag_151:\n      mload(0x40)\n      dup1\n      swap2\n      sub\n      swap1\n      log3\n        /* \"assignment contracts/W5 Auction.sol\":4201:4640  try token.transfer(auction.seller, auction.highestBid) {... */\n    tag_150:\n        /* \"assignment contracts/W5 Auction.sol\":4109:4732  if (auction.highestBid > 0) {... */\n      jump(tag_152)\n    tag_140:\n        /* \"assignment contracts/W5 Auction.sol\":4714:4715  0 */\n      0x00\n        /* \"assignment contracts/W5 Auction.sol\":4677:4720  AuctionFinalized(_auctionId, address(0), 0) */\n      0xffffffffffffffffffffffffffffffffffffffff\n      and\n        /* \"assignment contracts/W5 Auction.sol\":4694:4704  _auctionId */\n      dup3\n        /* \"assignment contracts/W5 Auction.sol\":4677:4720  AuctionFinalized(_auctionId, address(0), 0) */\n      0x4d9113a1377d665eaa1f9168a9c9080f2e488cb820b10149de3d6d2e0f2780c7\n        /* \"assignment contracts/W5 Auction.sol\":4718:4719  0 */\n      0x00\n        /* \"assignment contracts/W5 Auction.sol\":4677:4720  AuctionFinalized(_auctionId, address(0), 0) */\n      mload(0x40)\n      tag_153\n      swap2\n      swap1\n      tag_154\n      jump\t// in\n    tag_153:\n      mload(0x40)\n      dup1\n      swap2\n      sub\n      swap1\n      log3\n        /* \"assignment contracts/W5 Auction.sol\":4109:4732  if (auction.highestBid > 0) {... */\n    tag_152:\n        /* \"assignment contracts/W5 Auction.sol\":3781:4739  {... */\n      pop\n        /* \"assignment contracts/W5 Auction.sol\":3727:4739  function finalizeAuction(uint256 _auctionId) external {... */\n      pop\n      jump\t// out\n        /* \"assignment contracts/W5 Auction.sol\":5454:5665  function getAuctionDetails(uint256 _auctionId) external view returns (AuctionItem memory) {... */\n    tag_43:\n        /* \"assignment contracts/W5 Auction.sol\":5524:5542  AuctionItem memory */\n      tag_155\n      tag_156\n      jump\t// in\n    tag_155:\n        /* \"assignment contracts/W5 Auction.sol\":5576:5584  auctions */\n      0x03\n        /* \"assignment contracts/W5 Auction.sol\":5576:5591  auctions.length */\n      dup1\n      sload\n      swap1\n      pop\n        /* \"assignment contracts/W5 Auction.sol\":5563:5573  _auctionId */\n      dup3\n        /* \"assignment contracts/W5 Auction.sol\":5563:5591  _auctionId < auctions.length */\n      lt\n        /* \"assignment contracts/W5 Auction.sol\":5555:5619  require(_auctionId < auctions.length, \"Auction does not exist.\") */\n      tag_158\n      jumpi\n      mload(0x40)\n      0x08c379a000000000000000000000000000000000000000000000000000000000\n      dup2\n      mstore\n      0x04\n      add\n      tag_159\n      swap1\n      tag_90\n      jump\t// in\n    tag_159:\n      mload(0x40)\n      dup1\n      swap2\n      sub\n      swap1\n      revert\n    tag_158:\n        /* \"assignment contracts/W5 Auction.sol\":5637:5645  auctions */\n      0x03\n        /* \"assignment contracts/W5 Auction.sol\":5646:5656  _auctionId */\n      dup3\n        /* \"assignment contracts/W5 Auction.sol\":5637:5657  auctions[_auctionId] */\n      dup2\n      sload\n      dup2\n      lt\n      tag_160\n      jumpi\n      tag_161\n      tag_93\n      jump\t// in\n    tag_161:\n    tag_160:\n      swap1\n      0x00\n      mstore\n      keccak256(0x00, 0x20)\n      swap1\n      0x06\n      mul\n      add\n        /* \"assignment contracts/W5 Auction.sol\":5630:5657  return auctions[_auctionId] */\n      mload(0x40)\n      dup1\n      0xe0\n      add\n      0x40\n      mstore\n      swap1\n      dup2\n      0x00\n      dup3\n      add\n      sload\n      dup2\n      mstore\n      0x20\n      add\n      0x01\n      dup3\n      add\n      0x00\n      swap1\n      sload\n      swap1\n      0x0100\n      exp\n      swap1\n      div\n      0xffffffffffffffffffffffffffffffffffffffff\n      and\n      0xffffffffffffffffffffffffffffffffffffffff\n      and\n      0xffffffffffffffffffffffffffffffffffffffff\n      and\n      dup2\n      mstore\n      0x20\n      add\n      0x02\n      dup3\n      add\n      sload\n      dup2\n      mstore\n      0x20\n      add\n      0x03\n      dup3\n      add\n      sload\n      dup2\n      mstore\n      0x20\n      add\n      0x04\n      dup3\n      add\n      0x00\n      swap1\n      sload\n      swap1\n      0x0100\n      exp\n      swap1\n      div\n      0xffffffffffffffffffffffffffffffffffffffff\n      and\n      0xffffffffffffffffffffffffffffffffffffffff\n      and\n      0xffffffffffffffffffffffffffffffffffffffff\n      and\n      dup2\n      mstore\n      0x20\n      add\n      0x04\n      dup3\n      add\n      0x14\n      swap1\n      sload\n      swap1\n      0x0100\n      exp\n      swap1\n      div\n      0xff\n      and\n      iszero\n      iszero\n      iszero\n      iszero\n      dup2\n      mstore\n      0x20\n      add\n      0x05\n      dup3\n      add\n      sload\n      dup2\n      mstore\n      pop\n      pop\n      swap1\n      pop\n        /* \"assignment contracts/W5 Auction.sol\":5454:5665  function getAuctionDetails(uint256 _auctionId) external view returns (AuctionItem memory) {... */\n      swap2\n      swap1\n      pop\n      jump\t// out\n        /* \"assignment contracts/W5 Auction.sol\":697:750  mapping(address => uint256) public pendingWithdrawals */\n    tag_48:\n      mstore(0x20, 0x01)\n      dup1\n      0x00\n      mstore\n      keccak256(0x00, 0x40)\n      0x00\n      swap2\n      pop\n      swap1\n      pop\n      sload\n      dup2\n      jump\t// out\n        /* \"assignment contracts/W5 Auction.sol\":378:397  IERC20 public token */\n    tag_51:\n      0x00\n      dup1\n      sload\n      swap1\n      0x0100\n      exp\n      swap1\n      div\n      0xffffffffffffffffffffffffffffffffffffffff\n      and\n      dup2\n      jump\t// out\n    tag_156:\n      mload(0x40)\n      dup1\n      0xe0\n      add\n      0x40\n      mstore\n      dup1\n      0x00\n      dup2\n      mstore\n      0x20\n      add\n      and(0xffffffffffffffffffffffffffffffffffffffff, 0x00)\n      dup2\n      mstore\n      0x20\n      add\n      0x00\n      dup2\n      mstore\n      0x20\n      add\n      0x00\n      dup2\n      mstore\n      0x20\n      add\n      and(0xffffffffffffffffffffffffffffffffffffffff, 0x00)\n      dup2\n      mstore\n      0x20\n      add\n      iszero(iszero(0x00))\n      dup2\n      mstore\n      0x20\n      add\n      0x00\n      dup2\n      mstore\n      pop\n      swap1\n      jump\t// out\n        /* \"#utility.yul\":88:205   */\n    tag_164:\n        /* \"#utility.yul\":197:198   */\n      0x00\n        /* \"#utility.yul\":194:195   */\n      dup1\n        /* \"#utility.yul\":187:199   */\n      revert\n        /* \"#utility.yul\":334:411   */\n    tag_166:\n        /* \"#utility.yul\":371:378   */\n      0x00\n        /* \"#utility.yul\":400:405   */\n      dup2\n        /* \"#utility.yul\":389:405   */\n      swap1\n      pop\n        /* \"#utility.yul\":334:411   */\n      swap2\n      swap1\n      pop\n      jump\t// out\n        /* \"#utility.yul\":417:539   */\n    tag_167:\n        /* \"#utility.yul\":490:514   */\n      tag_221\n        /* \"#utility.yul\":508:513   */\n      dup2\n        /* \"#utility.yul\":490:514   */\n      tag_166\n      jump\t// in\n    tag_221:\n        /* \"#utility.yul\":483:488   */\n      dup2\n        /* \"#utility.yul\":480:515   */\n      eq\n        /* \"#utility.yul\":470:533   */\n      tag_222\n      jumpi\n        /* \"#utility.yul\":529:530   */\n      0x00\n        /* \"#utility.yul\":526:527   */\n      dup1\n        /* \"#utility.yul\":519:531   */\n      revert\n        /* \"#utility.yul\":470:533   */\n    tag_222:\n        /* \"#utility.yul\":417:539   */\n      pop\n      jump\t// out\n        /* \"#utility.yul\":545:684   */\n    tag_168:\n        /* \"#utility.yul\":591:596   */\n      0x00\n        /* \"#utility.yul\":629:635   */\n      dup2\n        /* \"#utility.yul\":616:636   */\n      calldataload\n        /* \"#utility.yul\":607:636   */\n      swap1\n      pop\n        /* \"#utility.yul\":645:678   */\n      tag_224\n        /* \"#utility.yul\":672:677   */\n      dup2\n        /* \"#utility.yul\":645:678   */\n      tag_167\n      jump\t// in\n    tag_224:\n        /* \"#utility.yul\":545:684   */\n      swap3\n      swap2\n      pop\n      pop\n      jump\t// out\n        /* \"#utility.yul\":690:1164   */\n    tag_16:\n        /* \"#utility.yul\":758:764   */\n      0x00\n        /* \"#utility.yul\":766:772   */\n      dup1\n        /* \"#utility.yul\":815:817   */\n      0x40\n        /* \"#utility.yul\":803:812   */\n      dup4\n        /* \"#utility.yul\":794:801   */\n      dup6\n        /* \"#utility.yul\":790:813   */\n      sub\n        /* \"#utility.yul\":786:818   */\n      slt\n        /* \"#utility.yul\":783:902   */\n      iszero\n      tag_226\n      jumpi\n        /* \"#utility.yul\":821:900   */\n      tag_227\n      tag_164\n      jump\t// in\n    tag_227:\n        /* \"#utility.yul\":783:902   */\n    tag_226:\n        /* \"#utility.yul\":941:942   */\n      0x00\n        /* \"#utility.yul\":966:1019   */\n      tag_228\n        /* \"#utility.yul\":1011:1018   */\n      dup6\n        /* \"#utility.yul\":1002:1008   */\n      dup3\n        /* \"#utility.yul\":991:1000   */\n      dup7\n        /* \"#utility.yul\":987:1009   */\n      add\n        /* \"#utility.yul\":966:1019   */\n      tag_168\n      jump\t// in\n    tag_228:\n        /* \"#utility.yul\":956:1019   */\n      swap3\n      pop\n        /* \"#utility.yul\":912:1029   */\n      pop\n        /* \"#utility.yul\":1068:1070   */\n      0x20\n        /* \"#utility.yul\":1094:1147   */\n      tag_229\n        /* \"#utility.yul\":1139:1146   */\n      dup6\n        /* \"#utility.yul\":1130:1136   */\n      dup3\n        /* \"#utility.yul\":1119:1128   */\n      dup7\n        /* \"#utility.yul\":1115:1137   */\n      add\n        /* \"#utility.yul\":1094:1147   */\n      tag_168\n      jump\t// in\n    tag_229:\n        /* \"#utility.yul\":1084:1147   */\n      swap2\n      pop\n        /* \"#utility.yul\":1039:1157   */\n      pop\n        /* \"#utility.yul\":690:1164   */\n      swap3\n      pop\n      swap3\n      swap1\n      pop\n      jump\t// out\n        /* \"#utility.yul\":1170:1296   */\n    tag_169:\n        /* \"#utility.yul\":1207:1214   */\n      0x00\n        /* \"#utility.yul\":1247:1289   */\n      0xffffffffffffffffffffffffffffffffffffffff\n        /* \"#utility.yul\":1240:1245   */\n      dup3\n        /* \"#utility.yul\":1236:1290   */\n      and\n        /* \"#utility.yul\":1225:1290   */\n      swap1\n      pop\n        /* \"#utility.yul\":1170:1296   */\n      swap2\n      swap1\n      pop\n      jump\t// out\n        /* \"#utility.yul\":1302:1398   */\n    tag_170:\n        /* \"#utility.yul\":1339:1346   */\n      0x00\n        /* \"#utility.yul\":1368:1392   */\n      tag_232\n        /* \"#utility.yul\":1386:1391   */\n      dup3\n        /* \"#utility.yul\":1368:1392   */\n      tag_169\n      jump\t// in\n    tag_232:\n        /* \"#utility.yul\":1357:1392   */\n      swap1\n      pop\n        /* \"#utility.yul\":1302:1398   */\n      swap2\n      swap1\n      pop\n      jump\t// out\n        /* \"#utility.yul\":1404:1526   */\n    tag_171:\n        /* \"#utility.yul\":1477:1501   */\n      tag_234\n        /* \"#utility.yul\":1495:1500   */\n      dup2\n        /* \"#utility.yul\":1477:1501   */\n      tag_170\n      jump\t// in\n    tag_234:\n        /* \"#utility.yul\":1470:1475   */\n      dup2\n        /* \"#utility.yul\":1467:1502   */\n      eq\n        /* \"#utility.yul\":1457:1520   */\n      tag_235\n      jumpi\n        /* \"#utility.yul\":1516:1517   */\n      0x00\n        /* \"#utility.yul\":1513:1514   */\n      dup1\n        /* \"#utility.yul\":1506:1518   */\n      revert\n        /* \"#utility.yul\":1457:1520   */\n    tag_235:\n        /* \"#utility.yul\":1404:1526   */\n      pop\n      jump\t// out\n        /* \"#utility.yul\":1532:1671   */\n    tag_172:\n        /* \"#utility.yul\":1578:1583   */\n      0x00\n        /* \"#utility.yul\":1616:1622   */\n      dup2\n        /* \"#utility.yul\":1603:1623   */\n      calldataload\n        /* \"#utility.yul\":1594:1623   */\n      swap1\n      pop\n        /* \"#utility.yul\":1632:1665   */\n      tag_237\n        /* \"#utility.yul\":1659:1664   */\n      dup2\n        /* \"#utility.yul\":1632:1665   */\n      tag_171\n      jump\t// in\n    tag_237:\n        /* \"#utility.yul\":1532:1671   */\n      swap3\n      swap2\n      pop\n      pop\n      jump\t// out\n        /* \"#utility.yul\":1677:2006   */\n    tag_20:\n        /* \"#utility.yul\":1736:1742   */\n      0x00\n        /* \"#utility.yul\":1785:1787   */\n      0x20\n        /* \"#utility.yul\":1773:1782   */\n      dup3\n        /* \"#utility.yul\":1764:1771   */\n      dup5\n        /* \"#utility.yul\":1760:1783   */\n      sub\n        /* \"#utility.yul\":1756:1788   */\n      slt\n        /* \"#utility.yul\":1753:1872   */\n      iszero\n      tag_239\n      jumpi\n        /* \"#utility.yul\":1791:1870   */\n      tag_240\n      tag_164\n      jump\t// in\n    tag_240:\n        /* \"#utility.yul\":1753:1872   */\n    tag_239:\n        /* \"#utility.yul\":1911:1912   */\n      0x00\n        /* \"#utility.yul\":1936:1989   */\n      tag_241\n        /* \"#utility.yul\":1981:1988   */\n      dup5\n        /* \"#utility.yul\":1972:1978   */\n      dup3\n        /* \"#utility.yul\":1961:1970   */\n      dup6\n        /* \"#utility.yul\":1957:1979   */\n      add\n        /* \"#utility.yul\":1936:1989   */\n      tag_172\n      jump\t// in\n    tag_241:\n        /* \"#utility.yul\":1926:1989   */\n      swap2\n      pop\n        /* \"#utility.yul\":1882:1999   */\n      pop\n        /* \"#utility.yul\":1677:2006   */\n      swap3\n      swap2\n      pop\n      pop\n      jump\t// out\n        /* \"#utility.yul\":2012:2130   */\n    tag_173:\n        /* \"#utility.yul\":2099:2123   */\n      tag_243\n        /* \"#utility.yul\":2117:2122   */\n      dup2\n        /* \"#utility.yul\":2099:2123   */\n      tag_166\n      jump\t// in\n    tag_243:\n        /* \"#utility.yul\":2094:2097   */\n      dup3\n        /* \"#utility.yul\":2087:2124   */\n      mstore\n        /* \"#utility.yul\":2012:2130   */\n      pop\n      pop\n      jump\t// out\n        /* \"#utility.yul\":2136:2358   */\n    tag_23:\n        /* \"#utility.yul\":2229:2233   */\n      0x00\n        /* \"#utility.yul\":2267:2269   */\n      0x20\n        /* \"#utility.yul\":2256:2265   */\n      dup3\n        /* \"#utility.yul\":2252:2270   */\n      add\n        /* \"#utility.yul\":2244:2270   */\n      swap1\n      pop\n        /* \"#utility.yul\":2280:2351   */\n      tag_245\n        /* \"#utility.yul\":2348:2349   */\n      0x00\n        /* \"#utility.yul\":2337:2346   */\n      dup4\n        /* \"#utility.yul\":2333:2350   */\n      add\n        /* \"#utility.yul\":2324:2330   */\n      dup5\n        /* \"#utility.yul\":2280:2351   */\n      tag_173\n      jump\t// in\n    tag_245:\n        /* \"#utility.yul\":2136:2358   */\n      swap3\n      swap2\n      pop\n      pop\n      jump\t// out\n        /* \"#utility.yul\":2364:2693   */\n    tag_28:\n        /* \"#utility.yul\":2423:2429   */\n      0x00\n        /* \"#utility.yul\":2472:2474   */\n      0x20\n        /* \"#utility.yul\":2460:2469   */\n      dup3\n        /* \"#utility.yul\":2451:2458   */\n      dup5\n        /* \"#utility.yul\":2447:2470   */\n      sub\n        /* \"#utility.yul\":2443:2475   */\n      slt\n        /* \"#utility.yul\":2440:2559   */\n      iszero\n      tag_247\n      jumpi\n        /* \"#utility.yul\":2478:2557   */\n      tag_248\n      tag_164\n      jump\t// in\n    tag_248:\n        /* \"#utility.yul\":2440:2559   */\n    tag_247:\n        /* \"#utility.yul\":2598:2599   */\n      0x00\n        /* \"#utility.yul\":2623:2676   */\n      tag_249\n        /* \"#utility.yul\":2668:2675   */\n      dup5\n        /* \"#utility.yul\":2659:2665   */\n      dup3\n        /* \"#utility.yul\":2648:2657   */\n      dup6\n        /* \"#utility.yul\":2644:2666   */\n      add\n        /* \"#utility.yul\":2623:2676   */\n      tag_168\n      jump\t// in\n    tag_249:\n        /* \"#utility.yul\":2613:2676   */\n      swap2\n      pop\n        /* \"#utility.yul\":2569:2686   */\n      pop\n        /* \"#utility.yul\":2364:2693   */\n      swap3\n      swap2\n      pop\n      pop\n      jump\t// out\n        /* \"#utility.yul\":2699:2817   */\n    tag_174:\n        /* \"#utility.yul\":2786:2810   */\n      tag_251\n        /* \"#utility.yul\":2804:2809   */\n      dup2\n        /* \"#utility.yul\":2786:2810   */\n      tag_170\n      jump\t// in\n    tag_251:\n        /* \"#utility.yul\":2781:2784   */\n      dup3\n        /* \"#utility.yul\":2774:2811   */\n      mstore\n        /* \"#utility.yul\":2699:2817   */\n      pop\n      pop\n      jump\t// out\n        /* \"#utility.yul\":2823:2913   */\n    tag_175:\n        /* \"#utility.yul\":2857:2864   */\n      0x00\n        /* \"#utility.yul\":2900:2905   */\n      dup2\n        /* \"#utility.yul\":2893:2906   */\n      iszero\n        /* \"#utility.yul\":2886:2907   */\n      iszero\n        /* \"#utility.yul\":2875:2907   */\n      swap1\n      pop\n        /* \"#utility.yul\":2823:2913   */\n      swap2\n      swap1\n      pop\n      jump\t// out\n        /* \"#utility.yul\":2919:3028   */\n    tag_176:\n        /* \"#utility.yul\":3000:3021   */\n      tag_254\n        /* \"#utility.yul\":3015:3020   */\n      dup2\n        /* \"#utility.yul\":3000:3021   */\n      tag_175\n      jump\t// in\n    tag_254:\n        /* \"#utility.yul\":2995:2998   */\n      dup3\n        /* \"#utility.yul\":2988:3022   */\n      mstore\n        /* \"#utility.yul\":2919:3028   */\n      pop\n      pop\n      jump\t// out\n        /* \"#utility.yul\":3034:3908   */\n    tag_31:\n        /* \"#utility.yul\":3289:3293   */\n      0x00\n        /* \"#utility.yul\":3327:3330   */\n      0xe0\n        /* \"#utility.yul\":3316:3325   */\n      dup3\n        /* \"#utility.yul\":3312:3331   */\n      add\n        /* \"#utility.yul\":3304:3331   */\n      swap1\n      pop\n        /* \"#utility.yul\":3341:3412   */\n      tag_256\n        /* \"#utility.yul\":3409:3410   */\n      0x00\n        /* \"#utility.yul\":3398:3407   */\n      dup4\n        /* \"#utility.yul\":3394:3411   */\n      add\n        /* \"#utility.yul\":3385:3391   */\n      dup11\n        /* \"#utility.yul\":3341:3412   */\n      tag_173\n      jump\t// in\n    tag_256:\n        /* \"#utility.yul\":3422:3494   */\n      tag_257\n        /* \"#utility.yul\":3490:3492   */\n      0x20\n        /* \"#utility.yul\":3479:3488   */\n      dup4\n        /* \"#utility.yul\":3475:3493   */\n      add\n        /* \"#utility.yul\":3466:3472   */\n      dup10\n        /* \"#utility.yul\":3422:3494   */\n      tag_174\n      jump\t// in\n    tag_257:\n        /* \"#utility.yul\":3504:3576   */\n      tag_258\n        /* \"#utility.yul\":3572:3574   */\n      0x40\n        /* \"#utility.yul\":3561:3570   */\n      dup4\n        /* \"#utility.yul\":3557:3575   */\n      add\n        /* \"#utility.yul\":3548:3554   */\n      dup9\n        /* \"#utility.yul\":3504:3576   */\n      tag_173\n      jump\t// in\n    tag_258:\n        /* \"#utility.yul\":3586:3658   */\n      tag_259\n        /* \"#utility.yul\":3654:3656   */\n      0x60\n        /* \"#utility.yul\":3643:3652   */\n      dup4\n        /* \"#utility.yul\":3639:3657   */\n      add\n        /* \"#utility.yul\":3630:3636   */\n      dup8\n        /* \"#utility.yul\":3586:3658   */\n      tag_173\n      jump\t// in\n    tag_259:\n        /* \"#utility.yul\":3668:3741   */\n      tag_260\n        /* \"#utility.yul\":3736:3739   */\n      0x80\n        /* \"#utility.yul\":3725:3734   */\n      dup4\n        /* \"#utility.yul\":3721:3740   */\n      add\n        /* \"#utility.yul\":3712:3718   */\n      dup7\n        /* \"#utility.yul\":3668:3741   */\n      tag_174\n      jump\t// in\n    tag_260:\n        /* \"#utility.yul\":3751:3818   */\n      tag_261\n        /* \"#utility.yul\":3813:3816   */\n      0xa0\n        /* \"#utility.yul\":3802:3811   */\n      dup4\n        /* \"#utility.yul\":3798:3817   */\n      add\n        /* \"#utility.yul\":3789:3795   */\n      dup6\n        /* \"#utility.yul\":3751:3818   */\n      tag_176\n      jump\t// in\n    tag_261:\n        /* \"#utility.yul\":3828:3901   */\n      tag_262\n        /* \"#utility.yul\":3896:3899   */\n      0xc0\n        /* \"#utility.yul\":3885:3894   */\n      dup4\n        /* \"#utility.yul\":3881:3900   */\n      add\n        /* \"#utility.yul\":3872:3878   */\n      dup5\n        /* \"#utility.yul\":3828:3901   */\n      tag_173\n      jump\t// in\n    tag_262:\n        /* \"#utility.yul\":3034:3908   */\n      swap9\n      swap8\n      pop\n      pop\n      pop\n      pop\n      pop\n      pop\n      pop\n      pop\n      jump\t// out\n        /* \"#utility.yul\":3914:4022   */\n    tag_177:\n        /* \"#utility.yul\":3991:4015   */\n      tag_264\n        /* \"#utility.yul\":4009:4014   */\n      dup2\n        /* \"#utility.yul\":3991:4015   */\n      tag_166\n      jump\t// in\n    tag_264:\n        /* \"#utility.yul\":3986:3989   */\n      dup3\n        /* \"#utility.yul\":3979:4016   */\n      mstore\n        /* \"#utility.yul\":3914:4022   */\n      pop\n      pop\n      jump\t// out\n        /* \"#utility.yul\":4028:4136   */\n    tag_178:\n        /* \"#utility.yul\":4105:4129   */\n      tag_266\n        /* \"#utility.yul\":4123:4128   */\n      dup2\n        /* \"#utility.yul\":4105:4129   */\n      tag_170\n      jump\t// in\n    tag_266:\n        /* \"#utility.yul\":4100:4103   */\n      dup3\n        /* \"#utility.yul\":4093:4130   */\n      mstore\n        /* \"#utility.yul\":4028:4136   */\n      pop\n      pop\n      jump\t// out\n        /* \"#utility.yul\":4142:4241   */\n    tag_179:\n        /* \"#utility.yul\":4213:4234   */\n      tag_268\n        /* \"#utility.yul\":4228:4233   */\n      dup2\n        /* \"#utility.yul\":4213:4234   */\n      tag_175\n      jump\t// in\n    tag_268:\n        /* \"#utility.yul\":4208:4211   */\n      dup3\n        /* \"#utility.yul\":4201:4235   */\n      mstore\n        /* \"#utility.yul\":4142:4241   */\n      pop\n      pop\n      jump\t// out\n        /* \"#utility.yul\":4311:5710   */\n    tag_180:\n        /* \"#utility.yul\":4462:4466   */\n      0xe0\n        /* \"#utility.yul\":4457:4460   */\n      dup3\n        /* \"#utility.yul\":4453:4467   */\n      add\n        /* \"#utility.yul\":4547:4551   */\n      0x00\n        /* \"#utility.yul\":4540:4545   */\n      dup3\n        /* \"#utility.yul\":4536:4552   */\n      add\n        /* \"#utility.yul\":4530:4553   */\n      mload\n        /* \"#utility.yul\":4566:4629   */\n      tag_270\n        /* \"#utility.yul\":4623:4627   */\n      0x00\n        /* \"#utility.yul\":4618:4621   */\n      dup6\n        /* \"#utility.yul\":4614:4628   */\n      add\n        /* \"#utility.yul\":4600:4612   */\n      dup3\n        /* \"#utility.yul\":4566:4629   */\n      tag_177\n      jump\t// in\n    tag_270:\n        /* \"#utility.yul\":4477:4639   */\n      pop\n        /* \"#utility.yul\":4723:4727   */\n      0x20\n        /* \"#utility.yul\":4716:4721   */\n      dup3\n        /* \"#utility.yul\":4712:4728   */\n      add\n        /* \"#utility.yul\":4706:4729   */\n      mload\n        /* \"#utility.yul\":4742:4805   */\n      tag_271\n        /* \"#utility.yul\":4799:4803   */\n      0x20\n        /* \"#utility.yul\":4794:4797   */\n      dup6\n        /* \"#utility.yul\":4790:4804   */\n      add\n        /* \"#utility.yul\":4776:4788   */\n      dup3\n        /* \"#utility.yul\":4742:4805   */\n      tag_178\n      jump\t// in\n    tag_271:\n        /* \"#utility.yul\":4649:4815   */\n      pop\n        /* \"#utility.yul\":4899:4903   */\n      0x40\n        /* \"#utility.yul\":4892:4897   */\n      dup3\n        /* \"#utility.yul\":4888:4904   */\n      add\n        /* \"#utility.yul\":4882:4905   */\n      mload\n        /* \"#utility.yul\":4918:4981   */\n      tag_272\n        /* \"#utility.yul\":4975:4979   */\n      0x40\n        /* \"#utility.yul\":4970:4973   */\n      dup6\n        /* \"#utility.yul\":4966:4980   */\n      add\n        /* \"#utility.yul\":4952:4964   */\n      dup3\n        /* \"#utility.yul\":4918:4981   */\n      tag_177\n      jump\t// in\n    tag_272:\n        /* \"#utility.yul\":4825:4991   */\n      pop\n        /* \"#utility.yul\":5079:5083   */\n      0x60\n        /* \"#utility.yul\":5072:5077   */\n      dup3\n        /* \"#utility.yul\":5068:5084   */\n      add\n        /* \"#utility.yul\":5062:5085   */\n      mload\n        /* \"#utility.yul\":5098:5161   */\n      tag_273\n        /* \"#utility.yul\":5155:5159   */\n      0x60\n        /* \"#utility.yul\":5150:5153   */\n      dup6\n        /* \"#utility.yul\":5146:5160   */\n      add\n        /* \"#utility.yul\":5132:5144   */\n      dup3\n        /* \"#utility.yul\":5098:5161   */\n      tag_177\n      jump\t// in\n    tag_273:\n        /* \"#utility.yul\":5001:5171   */\n      pop\n        /* \"#utility.yul\":5262:5266   */\n      0x80\n        /* \"#utility.yul\":5255:5260   */\n      dup3\n        /* \"#utility.yul\":5251:5267   */\n      add\n        /* \"#utility.yul\":5245:5268   */\n      mload\n        /* \"#utility.yul\":5281:5344   */\n      tag_274\n        /* \"#utility.yul\":5338:5342   */\n      0x80\n        /* \"#utility.yul\":5333:5336   */\n      dup6\n        /* \"#utility.yul\":5329:5343   */\n      add\n        /* \"#utility.yul\":5315:5327   */\n      dup3\n        /* \"#utility.yul\":5281:5344   */\n      tag_178\n      jump\t// in\n    tag_274:\n        /* \"#utility.yul\":5181:5354   */\n      pop\n        /* \"#utility.yul\":5440:5444   */\n      0xa0\n        /* \"#utility.yul\":5433:5438   */\n      dup3\n        /* \"#utility.yul\":5429:5445   */\n      add\n        /* \"#utility.yul\":5423:5446   */\n      mload\n        /* \"#utility.yul\":5459:5516   */\n      tag_275\n        /* \"#utility.yul\":5510:5514   */\n      0xa0\n        /* \"#utility.yul\":5505:5508   */\n      dup6\n        /* \"#utility.yul\":5501:5515   */\n      add\n        /* \"#utility.yul\":5487:5499   */\n      dup3\n        /* \"#utility.yul\":5459:5516   */\n      tag_179\n      jump\t// in\n    tag_275:\n        /* \"#utility.yul\":5364:5526   */\n      pop\n        /* \"#utility.yul\":5611:5615   */\n      0xc0\n        /* \"#utility.yul\":5604:5609   */\n      dup3\n        /* \"#utility.yul\":5600:5616   */\n      add\n        /* \"#utility.yul\":5594:5617   */\n      mload\n        /* \"#utility.yul\":5630:5693   */\n      tag_276\n        /* \"#utility.yul\":5687:5691   */\n      0xc0\n        /* \"#utility.yul\":5682:5685   */\n      dup6\n        /* \"#utility.yul\":5678:5692   */\n      add\n        /* \"#utility.yul\":5664:5676   */\n      dup3\n        /* \"#utility.yul\":5630:5693   */\n      tag_177\n      jump\t// in\n    tag_276:\n        /* \"#utility.yul\":5536:5703   */\n      pop\n        /* \"#utility.yul\":4431:5710   */\n      pop\n        /* \"#utility.yul\":4311:5710   */\n      pop\n      pop\n      jump\t// out\n        /* \"#utility.yul\":5716:6047   */\n    tag_45:\n        /* \"#utility.yul\":5863:5867   */\n      0x00\n        /* \"#utility.yul\":5901:5904   */\n      0xe0\n        /* \"#utility.yul\":5890:5899   */\n      dup3\n        /* \"#utility.yul\":5886:5905   */\n      add\n        /* \"#utility.yul\":5878:5905   */\n      swap1\n      pop\n        /* \"#utility.yul\":5915:6040   */\n      tag_278\n        /* \"#utility.yul\":6037:6038   */\n      0x00\n        /* \"#utility.yul\":6026:6035   */\n      dup4\n        /* \"#utility.yul\":6022:6039   */\n      add\n        /* \"#utility.yul\":6013:6019   */\n      dup5\n        /* \"#utility.yul\":5915:6040   */\n      tag_180\n      jump\t// in\n    tag_278:\n        /* \"#utility.yul\":5716:6047   */\n      swap3\n      swap2\n      pop\n      pop\n      jump\t// out\n        /* \"#utility.yul\":6053:6113   */\n    tag_181:\n        /* \"#utility.yul\":6081:6084   */\n      0x00\n        /* \"#utility.yul\":6102:6107   */\n      dup2\n        /* \"#utility.yul\":6095:6107   */\n      swap1\n      pop\n        /* \"#utility.yul\":6053:6113   */\n      swap2\n      swap1\n      pop\n      jump\t// out\n        /* \"#utility.yul\":6119:6261   */\n    tag_182:\n        /* \"#utility.yul\":6169:6178   */\n      0x00\n        /* \"#utility.yul\":6202:6255   */\n      tag_281\n        /* \"#utility.yul\":6220:6254   */\n      tag_282\n        /* \"#utility.yul\":6229:6253   */\n      tag_283\n        /* \"#utility.yul\":6247:6252   */\n      dup5\n        /* \"#utility.yul\":6229:6253   */\n      tag_169\n      jump\t// in\n    tag_283:\n        /* \"#utility.yul\":6220:6254   */\n      tag_181\n      jump\t// in\n    tag_282:\n        /* \"#utility.yul\":6202:6255   */\n      tag_169\n      jump\t// in\n    tag_281:\n        /* \"#utility.yul\":6189:6255   */\n      swap1\n      pop\n        /* \"#utility.yul\":6119:6261   */\n      swap2\n      swap1\n      pop\n      jump\t// out\n        /* \"#utility.yul\":6267:6393   */\n    tag_183:\n        /* \"#utility.yul\":6317:6326   */\n      0x00\n        /* \"#utility.yul\":6350:6387   */\n      tag_285\n        /* \"#utility.yul\":6381:6386   */\n      dup3\n        /* \"#utility.yul\":6350:6387   */\n      tag_182\n      jump\t// in\n    tag_285:\n        /* \"#utility.yul\":6337:6387   */\n      swap1\n      pop\n        /* \"#utility.yul\":6267:6393   */\n      swap2\n      swap1\n      pop\n      jump\t// out\n        /* \"#utility.yul\":6399:6538   */\n    tag_184:\n        /* \"#utility.yul\":6462:6471   */\n      0x00\n        /* \"#utility.yul\":6495:6532   */\n      tag_287\n        /* \"#utility.yul\":6526:6531   */\n      dup3\n        /* \"#utility.yul\":6495:6532   */\n      tag_183\n      jump\t// in\n    tag_287:\n        /* \"#utility.yul\":6482:6532   */\n      swap1\n      pop\n        /* \"#utility.yul\":6399:6538   */\n      swap2\n      swap1\n      pop\n      jump\t// out\n        /* \"#utility.yul\":6544:6701   */\n    tag_185:\n        /* \"#utility.yul\":6644:6694   */\n      tag_289\n        /* \"#utility.yul\":6688:6693   */\n      dup2\n        /* \"#utility.yul\":6644:6694   */\n      tag_184\n      jump\t// in\n    tag_289:\n        /* \"#utility.yul\":6639:6642   */\n      dup3\n        /* \"#utility.yul\":6632:6695   */\n      mstore\n        /* \"#utility.yul\":6544:6701   */\n      pop\n      pop\n      jump\t// out\n        /* \"#utility.yul\":6707:6955   */\n    tag_53:\n        /* \"#utility.yul\":6813:6817   */\n      0x00\n        /* \"#utility.yul\":6851:6853   */\n      0x20\n        /* \"#utility.yul\":6840:6849   */\n      dup3\n        /* \"#utility.yul\":6836:6854   */\n      add\n        /* \"#utility.yul\":6828:6854   */\n      swap1\n      pop\n        /* \"#utility.yul\":6864:6948   */\n      tag_291\n        /* \"#utility.yul\":6945:6946   */\n      0x00\n        /* \"#utility.yul\":6934:6943   */\n      dup4\n        /* \"#utility.yul\":6930:6947   */\n      add\n        /* \"#utility.yul\":6921:6927   */\n      dup5\n        /* \"#utility.yul\":6864:6948   */\n      tag_185\n      jump\t// in\n    tag_291:\n        /* \"#utility.yul\":6707:6955   */\n      swap3\n      swap2\n      pop\n      pop\n      jump\t// out\n        /* \"#utility.yul\":6961:7130   */\n    tag_186:\n        /* \"#utility.yul\":7045:7056   */\n      0x00\n        /* \"#utility.yul\":7079:7085   */\n      dup3\n        /* \"#utility.yul\":7074:7077   */\n      dup3\n        /* \"#utility.yul\":7067:7086   */\n      mstore\n        /* \"#utility.yul\":7119:7123   */\n      0x20\n        /* \"#utility.yul\":7114:7117   */\n      dup3\n        /* \"#utility.yul\":7110:7124   */\n      add\n        /* \"#utility.yul\":7095:7124   */\n      swap1\n      pop\n        /* \"#utility.yul\":6961:7130   */\n      swap3\n      swap2\n      pop\n      pop\n      jump\t// out\n        /* \"#utility.yul\":7136:7361   */\n    tag_187:\n        /* \"#utility.yul\":7276:7310   */\n      0x4d696e696d756d20626964206d7573742062652067726561746572207468616e\n        /* \"#utility.yul\":7272:7273   */\n      0x00\n        /* \"#utility.yul\":7264:7270   */\n      dup3\n        /* \"#utility.yul\":7260:7274   */\n      add\n        /* \"#utility.yul\":7253:7311   */\n      mstore\n        /* \"#utility.yul\":7345:7353   */\n      0x207a65726f2e0000000000000000000000000000000000000000000000000000\n        /* \"#utility.yul\":7340:7342   */\n      0x20\n        /* \"#utility.yul\":7332:7338   */\n      dup3\n        /* \"#utility.yul\":7328:7343   */\n      add\n        /* \"#utility.yul\":7321:7354   */\n      mstore\n        /* \"#utility.yul\":7136:7361   */\n      pop\n      jump\t// out\n        /* \"#utility.yul\":7367:7733   */\n    tag_188:\n        /* \"#utility.yul\":7509:7512   */\n      0x00\n        /* \"#utility.yul\":7530:7597   */\n      tag_295\n        /* \"#utility.yul\":7594:7596   */\n      0x26\n        /* \"#utility.yul\":7589:7592   */\n      dup4\n        /* \"#utility.yul\":7530:7597   */\n      tag_186\n      jump\t// in\n    tag_295:\n        /* \"#utility.yul\":7523:7597   */\n      swap2\n      pop\n        /* \"#utility.yul\":7606:7699   */\n      tag_296\n        /* \"#utility.yul\":7695:7698   */\n      dup3\n        /* \"#utility.yul\":7606:7699   */\n      tag_187\n      jump\t// in\n    tag_296:\n        /* \"#utility.yul\":7724:7726   */\n      0x40\n        /* \"#utility.yul\":7719:7722   */\n      dup3\n        /* \"#utility.yul\":7715:7727   */\n      add\n        /* \"#utility.yul\":7708:7727   */\n      swap1\n      pop\n        /* \"#utility.yul\":7367:7733   */\n      swap2\n      swap1\n      pop\n      jump\t// out\n        /* \"#utility.yul\":7739:8158   */\n    tag_57:\n        /* \"#utility.yul\":7905:7909   */\n      0x00\n        /* \"#utility.yul\":7943:7945   */\n      0x20\n        /* \"#utility.yul\":7932:7941   */\n      dup3\n        /* \"#utility.yul\":7928:7946   */\n      add\n        /* \"#utility.yul\":7920:7946   */\n      swap1\n      pop\n        /* \"#utility.yul\":7992:8001   */\n      dup2\n        /* \"#utility.yul\":7986:7990   */\n      dup2\n        /* \"#utility.yul\":7982:8002   */\n      sub\n        /* \"#utility.yul\":7978:7979   */\n      0x00\n        /* \"#utility.yul\":7967:7976   */\n      dup4\n        /* \"#utility.yul\":7963:7980   */\n      add\n        /* \"#utility.yul\":7956:8003   */\n      mstore\n        /* \"#utility.yul\":8020:8151   */\n      tag_298\n        /* \"#utility.yul\":8146:8150   */\n      dup2\n        /* \"#utility.yul\":8020:8151   */\n      tag_188\n      jump\t// in\n    tag_298:\n        /* \"#utility.yul\":8012:8151   */\n      swap1\n      pop\n        /* \"#utility.yul\":7739:8158   */\n      swap2\n      swap1\n      pop\n      jump\t// out\n        /* \"#utility.yul\":8164:8386   */\n    tag_189:\n        /* \"#utility.yul\":8304:8338   */\n      0x4475726174696f6e206d7573742062652067726561746572207468616e207a65\n        /* \"#utility.yul\":8300:8301   */\n      0x00\n        /* \"#utility.yul\":8292:8298   */\n      dup3\n        /* \"#utility.yul\":8288:8302   */\n      add\n        /* \"#utility.yul\":8281:8339   */\n      mstore\n        /* \"#utility.yul\":8373:8378   */\n      0x726f2e0000000000000000000000000000000000000000000000000000000000\n        /* \"#utility.yul\":8368:8370   */\n      0x20\n        /* \"#utility.yul\":8360:8366   */\n      dup3\n        /* \"#utility.yul\":8356:8371   */\n      add\n        /* \"#utility.yul\":8349:8379   */\n      mstore\n        /* \"#utility.yul\":8164:8386   */\n      pop\n      jump\t// out\n        /* \"#utility.yul\":8392:8758   */\n    tag_190:\n        /* \"#utility.yul\":8534:8537   */\n      0x00\n        /* \"#utility.yul\":8555:8622   */\n      tag_301\n        /* \"#utility.yul\":8619:8621   */\n      0x23\n        /* \"#utility.yul\":8614:8617   */\n      dup4\n        /* \"#utility.yul\":8555:8622   */\n      tag_186\n      jump\t// in\n    tag_301:\n        /* \"#utility.yul\":8548:8622   */\n      swap2\n      pop\n        /* \"#utility.yul\":8631:8724   */\n      tag_302\n        /* \"#utility.yul\":8720:8723   */\n      dup3\n        /* \"#utility.yul\":8631:8724   */\n      tag_189\n      jump\t// in\n    tag_302:\n        /* \"#utility.yul\":8749:8751   */\n      0x40\n        /* \"#utility.yul\":8744:8747   */\n      dup3\n        /* \"#utility.yul\":8740:8752   */\n      add\n        /* \"#utility.yul\":8733:8752   */\n      swap1\n      pop\n        /* \"#utility.yul\":8392:8758   */\n      swap2\n      swap1\n      pop\n      jump\t// out\n        /* \"#utility.yul\":8764:9183   */\n    tag_60:\n        /* \"#utility.yul\":8930:8934   */\n      0x00\n        /* \"#utility.yul\":8968:8970   */\n      0x20\n        /* \"#utility.yul\":8957:8966   */\n      dup3\n        /* \"#utility.yul\":8953:8971   */\n      add\n        /* \"#utility.yul\":8945:8971   */\n      swap1\n      pop\n        /* \"#utility.yul\":9017:9026   */\n      dup2\n        /* \"#utility.yul\":9011:9015   */\n      dup2\n        /* \"#utility.yul\":9007:9027   */\n      sub\n        /* \"#utility.yul\":9003:9004   */\n      0x00\n        /* \"#utility.yul\":8992:9001   */\n      dup4\n        /* \"#utility.yul\":8988:9005   */\n      add\n        /* \"#utility.yul\":8981:9028   */\n      mstore\n        /* \"#utility.yul\":9045:9176   */\n      tag_304\n        /* \"#utility.yul\":9171:9175   */\n      dup2\n        /* \"#utility.yul\":9045:9176   */\n      tag_190\n      jump\t// in\n    tag_304:\n        /* \"#utility.yul\":9037:9176   */\n      swap1\n      pop\n        /* \"#utility.yul\":8764:9183   */\n      swap2\n      swap1\n      pop\n      jump\t// out\n        /* \"#utility.yul\":9189:9369   */\n    tag_191:\n        /* \"#utility.yul\":9237:9314   */\n      0x4e487b7100000000000000000000000000000000000000000000000000000000\n        /* \"#utility.yul\":9234:9235   */\n      0x00\n        /* \"#utility.yul\":9227:9315   */\n      mstore\n        /* \"#utility.yul\":9334:9338   */\n      0x11\n        /* \"#utility.yul\":9331:9332   */\n      0x04\n        /* \"#utility.yul\":9324:9339   */\n      mstore\n        /* \"#utility.yul\":9358:9362   */\n      0x24\n        /* \"#utility.yul\":9355:9356   */\n      0x00\n        /* \"#utility.yul\":9348:9363   */\n      revert\n        /* \"#utility.yul\":9375:9566   */\n    tag_62:\n        /* \"#utility.yul\":9415:9418   */\n      0x00\n        /* \"#utility.yul\":9434:9454   */\n      tag_307\n        /* \"#utility.yul\":9452:9453   */\n      dup3\n        /* \"#utility.yul\":9434:9454   */\n      tag_166\n      jump\t// in\n    tag_307:\n        /* \"#utility.yul\":9429:9454   */\n      swap2\n      pop\n        /* \"#utility.yul\":9468:9488   */\n      tag_308\n        /* \"#utility.yul\":9486:9487   */\n      dup4\n        /* \"#utility.yul\":9468:9488   */\n      tag_166\n      jump\t// in\n    tag_308:\n        /* \"#utility.yul\":9463:9488   */\n      swap3\n      pop\n        /* \"#utility.yul\":9511:9512   */\n      dup3\n        /* \"#utility.yul\":9508:9509   */\n      dup3\n        /* \"#utility.yul\":9504:9513   */\n      add\n        /* \"#utility.yul\":9497:9513   */\n      swap1\n      pop\n        /* \"#utility.yul\":9532:9535   */\n      dup1\n        /* \"#utility.yul\":9529:9530   */\n      dup3\n        /* \"#utility.yul\":9526:9536   */\n      gt\n        /* \"#utility.yul\":9523:9559   */\n      iszero\n      tag_309\n      jumpi\n        /* \"#utility.yul\":9539:9557   */\n      tag_310\n      tag_191\n      jump\t// in\n    tag_310:\n        /* \"#utility.yul\":9523:9559   */\n    tag_309:\n        /* \"#utility.yul\":9375:9566   */\n      swap3\n      swap2\n      pop\n      pop\n      jump\t// out\n        /* \"#utility.yul\":9572:10014   */\n    tag_66:\n        /* \"#utility.yul\":9721:9725   */\n      0x00\n        /* \"#utility.yul\":9759:9761   */\n      0x60\n        /* \"#utility.yul\":9748:9757   */\n      dup3\n        /* \"#utility.yul\":9744:9762   */\n      add\n        /* \"#utility.yul\":9736:9762   */\n      swap1\n      pop\n        /* \"#utility.yul\":9772:9843   */\n      tag_312\n        /* \"#utility.yul\":9840:9841   */\n      0x00\n        /* \"#utility.yul\":9829:9838   */\n      dup4\n        /* \"#utility.yul\":9825:9842   */\n      add\n        /* \"#utility.yul\":9816:9822   */\n      dup7\n        /* \"#utility.yul\":9772:9843   */\n      tag_173\n      jump\t// in\n    tag_312:\n        /* \"#utility.yul\":9853:9925   */\n      tag_313\n        /* \"#utility.yul\":9921:9923   */\n      0x20\n        /* \"#utility.yul\":9910:9919   */\n      dup4\n        /* \"#utility.yul\":9906:9924   */\n      add\n        /* \"#utility.yul\":9897:9903   */\n      dup6\n        /* \"#utility.yul\":9853:9925   */\n      tag_173\n      jump\t// in\n    tag_313:\n        /* \"#utility.yul\":9935:10007   */\n      tag_314\n        /* \"#utility.yul\":10003:10005   */\n      0x40\n        /* \"#utility.yul\":9992:10001   */\n      dup4\n        /* \"#utility.yul\":9988:10006   */\n      add\n        /* \"#utility.yul\":9979:9985   */\n      dup5\n        /* \"#utility.yul\":9935:10007   */\n      tag_173\n      jump\t// in\n    tag_314:\n        /* \"#utility.yul\":9572:10014   */\n      swap5\n      swap4\n      pop\n      pop\n      pop\n      pop\n      jump\t// out\n        /* \"#utility.yul\":10020:10253   */\n    tag_68:\n        /* \"#utility.yul\":10059:10062   */\n      0x00\n        /* \"#utility.yul\":10082:10106   */\n      tag_316\n        /* \"#utility.yul\":10100:10105   */\n      dup3\n        /* \"#utility.yul\":10082:10106   */\n      tag_166\n      jump\t// in\n    tag_316:\n        /* \"#utility.yul\":10073:10106   */\n      swap2\n      pop\n        /* \"#utility.yul\":10128:10194   */\n      0xffffffffffffffffffffffffffffffffffffffffffffffffffffffffffffffff\n        /* \"#utility.yul\":10121:10126   */\n      dup3\n        /* \"#utility.yul\":10118:10195   */\n      sub\n        /* \"#utility.yul\":10115:10218   */\n      tag_317\n      jumpi\n        /* \"#utility.yul\":10198:10216   */\n      tag_318\n      tag_191\n      jump\t// in\n    tag_318:\n        /* \"#utility.yul\":10115:10218   */\n    tag_317:\n        /* \"#utility.yul\":10245:10246   */\n      0x01\n        /* \"#utility.yul\":10238:10243   */\n      dup3\n        /* \"#utility.yul\":10234:10247   */\n      add\n        /* \"#utility.yul\":10227:10247   */\n      swap1\n      pop\n        /* \"#utility.yul\":10020:10253   */\n      swap2\n      swap1\n      pop\n      jump\t// out\n        /* \"#utility.yul\":10259:10426   */\n    tag_192:\n        /* \"#utility.yul\":10399:10418   */\n      0x4e6f2070656e64696e672066756e64732e000000000000000000000000000000\n        /* \"#utility.yul\":10395:10396   */\n      0x00\n        /* \"#utility.yul\":10387:10393   */\n      dup3\n        /* \"#utility.yul\":10383:10397   */\n      add\n        /* \"#utility.yul\":10376:10419   */\n      mstore\n        /* \"#utility.yul\":10259:10426   */\n      pop\n      jump\t// out\n        /* \"#utility.yul\":10432:10798   */\n    tag_193:\n        /* \"#utility.yul\":10574:10577   */\n      0x00\n        /* \"#utility.yul\":10595:10662   */\n      tag_321\n        /* \"#utility.yul\":10659:10661   */\n      0x11\n        /* \"#utility.yul\":10654:10657   */\n      dup4\n        /* \"#utility.yul\":10595:10662   */\n      tag_186\n      jump\t// in\n    tag_321:\n        /* \"#utility.yul\":10588:10662   */\n      swap2\n      pop\n        /* \"#utility.yul\":10671:10764   */\n      tag_322\n        /* \"#utility.yul\":10760:10763   */\n      dup3\n        /* \"#utility.yul\":10671:10764   */\n      tag_192\n      jump\t// in\n    tag_322:\n        /* \"#utility.yul\":10789:10791   */\n      0x20\n        /* \"#utility.yul\":10784:10787   */\n      dup3\n        /* \"#utility.yul\":10780:10792   */\n      add\n        /* \"#utility.yul\":10773:10792   */\n      swap1\n      pop\n        /* \"#utility.yul\":10432:10798   */\n      swap2\n      swap1\n      pop\n      jump\t// out\n        /* \"#utility.yul\":10804:11223   */\n    tag_72:\n        /* \"#utility.yul\":10970:10974   */\n      0x00\n        /* \"#utility.yul\":11008:11010   */\n      0x20\n        /* \"#utility.yul\":10997:11006   */\n      dup3\n        /* \"#utility.yul\":10993:11011   */\n      add\n        /* \"#utility.yul\":10985:11011   */\n      swap1\n      pop\n        /* \"#utility.yul\":11057:11066   */\n      dup2\n        /* \"#utility.yul\":11051:11055   */\n      dup2\n        /* \"#utility.yul\":11047:11067   */\n      sub\n        /* \"#utility.yul\":11043:11044   */\n      0x00\n        /* \"#utility.yul\":11032:11041   */\n      dup4\n        /* \"#utility.yul\":11028:11045   */\n      add\n        /* \"#utility.yul\":11021:11068   */\n      mstore\n        /* \"#utility.yul\":11085:11216   */\n      tag_324\n        /* \"#utility.yul\":11211:11215   */\n      dup2\n        /* \"#utility.yul\":11085:11216   */\n      tag_193\n      jump\t// in\n    tag_324:\n        /* \"#utility.yul\":11077:11216   */\n      swap1\n      pop\n        /* \"#utility.yul\":10804:11223   */\n      swap2\n      swap1\n      pop\n      jump\t// out\n        /* \"#utility.yul\":11229:11561   */\n    tag_74:\n        /* \"#utility.yul\":11350:11354   */\n      0x00\n        /* \"#utility.yul\":11388:11390   */\n      0x40\n        /* \"#utility.yul\":11377:11386   */\n      dup3\n        /* \"#utility.yul\":11373:11391   */\n      add\n        /* \"#utility.yul\":11365:11391   */\n      swap1\n      pop\n        /* \"#utility.yul\":11401:11472   */\n      tag_326\n        /* \"#utility.yul\":11469:11470   */\n      0x00\n        /* \"#utility.yul\":11458:11467   */\n      dup4\n        /* \"#utility.yul\":11454:11471   */\n      add\n        /* \"#utility.yul\":11445:11451   */\n      dup6\n        /* \"#utility.yul\":11401:11472   */\n      tag_174\n      jump\t// in\n    tag_326:\n        /* \"#utility.yul\":11482:11554   */\n      tag_327\n        /* \"#utility.yul\":11550:11552   */\n      0x20\n        /* \"#utility.yul\":11539:11548   */\n      dup4\n        /* \"#utility.yul\":11535:11553   */\n      add\n        /* \"#utility.yul\":11526:11532   */\n      dup5\n        /* \"#utility.yul\":11482:11554   */\n      tag_173\n      jump\t// in\n    tag_327:\n        /* \"#utility.yul\":11229:11561   */\n      swap4\n      swap3\n      pop\n      pop\n      pop\n      jump\t// out\n        /* \"#utility.yul\":11567:11683   */\n    tag_194:\n        /* \"#utility.yul\":11637:11658   */\n      tag_329\n        /* \"#utility.yul\":11652:11657   */\n      dup2\n        /* \"#utility.yul\":11637:11658   */\n      tag_175\n      jump\t// in\n    tag_329:\n        /* \"#utility.yul\":11630:11635   */\n      dup2\n        /* \"#utility.yul\":11627:11659   */\n      eq\n        /* \"#utility.yul\":11617:11677   */\n      tag_330\n      jumpi\n        /* \"#utility.yul\":11673:11674   */\n      0x00\n        /* \"#utility.yul\":11670:11671   */\n      dup1\n        /* \"#utility.yul\":11663:11675   */\n      revert\n        /* \"#utility.yul\":11617:11677   */\n    tag_330:\n        /* \"#utility.yul\":11567:11683   */\n      pop\n      jump\t// out\n        /* \"#utility.yul\":11689:11826   */\n    tag_195:\n        /* \"#utility.yul\":11743:11748   */\n      0x00\n        /* \"#utility.yul\":11774:11780   */\n      dup2\n        /* \"#utility.yul\":11768:11781   */\n      mload\n        /* \"#utility.yul\":11759:11781   */\n      swap1\n      pop\n        /* \"#utility.yul\":11790:11820   */\n      tag_332\n        /* \"#utility.yul\":11814:11819   */\n      dup2\n        /* \"#utility.yul\":11790:11820   */\n      tag_194\n      jump\t// in\n    tag_332:\n        /* \"#utility.yul\":11689:11826   */\n      swap3\n      swap2\n      pop\n      pop\n      jump\t// out\n        /* \"#utility.yul\":11832:12177   */\n    tag_77:\n        /* \"#utility.yul\":11899:11905   */\n      0x00\n        /* \"#utility.yul\":11948:11950   */\n      0x20\n        /* \"#utility.yul\":11936:11945   */\n      dup3\n        /* \"#utility.yul\":11927:11934   */\n      dup5\n        /* \"#utility.yul\":11923:11946   */\n      sub\n        /* \"#utility.yul\":11919:11951   */\n      slt\n        /* \"#utility.yul\":11916:12035   */\n      iszero\n      tag_334\n      jumpi\n        /* \"#utility.yul\":11954:12033   */\n      tag_335\n      tag_164\n      jump\t// in\n    tag_335:\n        /* \"#utility.yul\":11916:12035   */\n    tag_334:\n        /* \"#utility.yul\":12074:12075   */\n      0x00\n        /* \"#utility.yul\":12099:12160   */\n      tag_336\n        /* \"#utility.yul\":12152:12159   */\n      dup5\n        /* \"#utility.yul\":12143:12149   */\n      dup3\n        /* \"#utility.yul\":12132:12141   */\n      dup6\n        /* \"#utility.yul\":12128:12150   */\n      add\n        /* \"#utility.yul\":12099:12160   */\n      tag_195\n      jump\t// in\n    tag_336:\n        /* \"#utility.yul\":12089:12160   */\n      swap2\n      pop\n        /* \"#utility.yul\":12045:12170   */\n      pop\n        /* \"#utility.yul\":11832:12177   */\n      swap3\n      swap2\n      pop\n      pop\n      jump\t// out\n        /* \"#utility.yul\":12183:12349   */\n    tag_196:\n        /* \"#utility.yul\":12323:12341   */\n      0x5769746864726177206661696c65642e00000000000000000000000000000000\n        /* \"#utility.yul\":12319:12320   */\n      0x00\n        /* \"#utility.yul\":12311:12317   */\n      dup3\n        /* \"#utility.yul\":12307:12321   */\n      add\n        /* \"#utility.yul\":12300:12342   */\n      mstore\n        /* \"#utility.yul\":12183:12349   */\n      pop\n      jump\t// out\n        /* \"#utility.yul\":12355:12721   */\n    tag_197:\n        /* \"#utility.yul\":12497:12500   */\n      0x00\n        /* \"#utility.yul\":12518:12585   */\n      tag_339\n        /* \"#utility.yul\":12582:12584   */\n      0x10\n        /* \"#utility.yul\":12577:12580   */\n      dup4\n        /* \"#utility.yul\":12518:12585   */\n      tag_186\n      jump\t// in\n    tag_339:\n        /* \"#utility.yul\":12511:12585   */\n      swap2\n      pop\n        /* \"#utility.yul\":12594:12687   */\n      tag_340\n        /* \"#utility.yul\":12683:12686   */\n      dup3\n        /* \"#utility.yul\":12594:12687   */\n      tag_196\n      jump\t// in\n    tag_340:\n        /* \"#utility.yul\":12712:12714   */\n      0x20\n        /* \"#utility.yul\":12707:12710   */\n      dup3\n        /* \"#utility.yul\":12703:12715   */\n      add\n        /* \"#utility.yul\":12696:12715   */\n      swap1\n      pop\n        /* \"#utility.yul\":12355:12721   */\n      swap2\n      swap1\n      pop\n      jump\t// out\n        /* \"#utility.yul\":12727:13146   */\n    tag_83:\n        /* \"#utility.yul\":12893:12897   */\n      0x00\n        /* \"#utility.yul\":12931:12933   */\n      0x20\n        /* \"#utility.yul\":12920:12929   */\n      dup3\n        /* \"#utility.yul\":12916:12934   */\n      add\n        /* \"#utility.yul\":12908:12934   */\n      swap1\n      pop\n        /* \"#utility.yul\":12980:12989   */\n      dup2\n        /* \"#utility.yul\":12974:12978   */\n      dup2\n        /* \"#utility.yul\":12970:12990   */\n      sub\n        /* \"#utility.yul\":12966:12967   */\n      0x00\n        /* \"#utility.yul\":12955:12964   */\n      dup4\n        /* \"#utility.yul\":12951:12968   */\n      add\n        /* \"#utility.yul\":12944:12991   */\n      mstore\n        /* \"#utility.yul\":13008:13139   */\n      tag_342\n        /* \"#utility.yul\":13134:13138   */\n      dup2\n        /* \"#utility.yul\":13008:13139   */\n      tag_197\n      jump\t// in\n    tag_342:\n        /* \"#utility.yul\":13000:13139   */\n      swap1\n      pop\n        /* \"#utility.yul\":12727:13146   */\n      swap2\n      swap1\n      pop\n      jump\t// out\n        /* \"#utility.yul\":13152:13325   */\n    tag_198:\n        /* \"#utility.yul\":13292:13317   */\n      0x41756374696f6e20646f6573206e6f742065786973742e000000000000000000\n        /* \"#utility.yul\":13288:13289   */\n      0x00\n        /* \"#utility.yul\":13280:13286   */\n      dup3\n        /* \"#utility.yul\":13276:13290   */\n      add\n        /* \"#utility.yul\":13269:13318   */\n      mstore\n        /* \"#utility.yul\":13152:13325   */\n      pop\n      jump\t// out\n        /* \"#utility.yul\":13331:13697   */\n    tag_199:\n        /* \"#utility.yul\":13473:13476   */\n      0x00\n        /* \"#utility.yul\":13494:13561   */\n      tag_345\n        /* \"#utility.yul\":13558:13560   */\n      0x17\n        /* \"#utility.yul\":13553:13556   */\n      dup4\n        /* \"#utility.yul\":13494:13561   */\n      tag_186\n      jump\t// in\n    tag_345:\n        /* \"#utility.yul\":13487:13561   */\n      swap2\n      pop\n        /* \"#utility.yul\":13570:13663   */\n      tag_346\n        /* \"#utility.yul\":13659:13662   */\n      dup3\n        /* \"#utility.yul\":13570:13663   */\n      tag_198\n      jump\t// in\n    tag_346:\n        /* \"#utility.yul\":13688:13690   */\n      0x20\n        /* \"#utility.yul\":13683:13686   */\n      dup3\n        /* \"#utility.yul\":13679:13691   */\n      add\n        /* \"#utility.yul\":13672:13691   */\n      swap1\n      pop\n        /* \"#utility.yul\":13331:13697   */\n      swap2\n      swap1\n      pop\n      jump\t// out\n        /* \"#utility.yul\":13703:14122   */\n    tag_90:\n        /* \"#utility.yul\":13869:13873   */\n      0x00\n        /* \"#utility.yul\":13907:13909   */\n      0x20\n        /* \"#utility.yul\":13896:13905   */\n      dup3\n        /* \"#utility.yul\":13892:13910   */\n      add\n        /* \"#utility.yul\":13884:13910   */\n      swap1\n      pop\n        /* \"#utility.yul\":13956:13965   */\n      dup2\n        /* \"#utility.yul\":13950:13954   */\n      dup2\n        /* \"#utility.yul\":13946:13966   */\n      sub\n        /* \"#utility.yul\":13942:13943   */\n      0x00\n        /* \"#utility.yul\":13931:13940   */\n      dup4\n        /* \"#utility.yul\":13927:13944   */\n      add\n        /* \"#utility.yul\":13920:13967   */\n      mstore\n        /* \"#utility.yul\":13984:14115   */\n      tag_348\n        /* \"#utility.yul\":14110:14114   */\n      dup2\n        /* \"#utility.yul\":13984:14115   */\n      tag_199\n      jump\t// in\n    tag_348:\n        /* \"#utility.yul\":13976:14115   */\n      swap1\n      pop\n        /* \"#utility.yul\":13703:14122   */\n      swap2\n      swap1\n      pop\n      jump\t// out\n        /* \"#utility.yul\":14128:14308   */\n    tag_93:\n        /* \"#utility.yul\":14176:14253   */\n      0x4e487b7100000000000000000000000000000000000000000000000000000000\n        /* \"#utility.yul\":14173:14174   */\n      0x00\n        /* \"#utility.yul\":14166:14254   */\n      mstore\n        /* \"#utility.yul\":14273:14277   */\n      0x32\n        /* \"#utility.yul\":14270:14271   */\n      0x04\n        /* \"#utility.yul\":14263:14278   */\n      mstore\n        /* \"#utility.yul\":14297:14301   */\n      0x24\n        /* \"#utility.yul\":14294:14295   */\n      0x00\n        /* \"#utility.yul\":14287:14302   */\n      revert\n        /* \"#utility.yul\":14314:14486   */\n    tag_200:\n        /* \"#utility.yul\":14454:14478   */\n      0x41756374696f6e206973206e6f74206163746976652e00000000000000000000\n        /* \"#utility.yul\":14450:14451   */\n      0x00\n        /* \"#utility.yul\":14442:14448   */\n      dup3\n        /* \"#utility.yul\":14438:14452   */\n      add\n        /* \"#utility.yul\":14431:14479   */\n      mstore\n        /* \"#utility.yul\":14314:14486   */\n      pop\n      jump\t// out\n        /* \"#utility.yul\":14492:14858   */\n    tag_201:\n        /* \"#utility.yul\":14634:14637   */\n      0x00\n        /* \"#utility.yul\":14655:14722   */\n      tag_352\n        /* \"#utility.yul\":14719:14721   */\n      0x16\n        /* \"#utility.yul\":14714:14717   */\n      dup4\n        /* \"#utility.yul\":14655:14722   */\n      tag_186\n      jump\t// in\n    tag_352:\n        /* \"#utility.yul\":14648:14722   */\n      swap2\n      pop\n        /* \"#utility.yul\":14731:14824   */\n      tag_353\n        /* \"#utility.yul\":14820:14823   */\n      dup3\n        /* \"#utility.yul\":14731:14824   */\n      tag_200\n      jump\t// in\n    tag_353:\n        /* \"#utility.yul\":14849:14851   */\n      0x20\n        /* \"#utility.yul\":14844:14847   */\n      dup3\n        /* \"#utility.yul\":14840:14852   */\n      add\n        /* \"#utility.yul\":14833:14852   */\n      swap1\n      pop\n        /* \"#utility.yul\":14492:14858   */\n      swap2\n      swap1\n      pop\n      jump\t// out\n        /* \"#utility.yul\":14864:15283   */\n    tag_97:\n        /* \"#utility.yul\":15030:15034   */\n      0x00\n        /* \"#utility.yul\":15068:15070   */\n      0x20\n        /* \"#utility.yul\":15057:15066   */\n      dup3\n        /* \"#utility.yul\":15053:15071   */\n      add\n        /* \"#utility.yul\":15045:15071   */\n      swap1\n      pop\n        /* \"#utility.yul\":15117:15126   */\n      dup2\n        /* \"#utility.yul\":15111:15115   */\n      dup2\n        /* \"#utility.yul\":15107:15127   */\n      sub\n        /* \"#utility.yul\":15103:15104   */\n      0x00\n        /* \"#utility.yul\":15092:15101   */\n      dup4\n        /* \"#utility.yul\":15088:15105   */\n      add\n        /* \"#utility.yul\":15081:15128   */\n      mstore\n        /* \"#utility.yul\":15145:15276   */\n      tag_355\n        /* \"#utility.yul\":15271:15275   */\n      dup2\n        /* \"#utility.yul\":15145:15276   */\n      tag_201\n      jump\t// in\n    tag_355:\n        /* \"#utility.yul\":15137:15276   */\n      swap1\n      pop\n        /* \"#utility.yul\":14864:15283   */\n      swap2\n      swap1\n      pop\n      jump\t// out\n        /* \"#utility.yul\":15289:15457   */\n    tag_202:\n        /* \"#utility.yul\":15429:15449   */\n      0x41756374696f6e2068617320656e6465642e0000000000000000000000000000\n        /* \"#utility.yul\":15425:15426   */\n      0x00\n        /* \"#utility.yul\":15417:15423   */\n      dup3\n        /* \"#utility.yul\":15413:15427   */\n      add\n        /* \"#utility.yul\":15406:15450   */\n      mstore\n        /* \"#utility.yul\":15289:15457   */\n      pop\n      jump\t// out\n        /* \"#utility.yul\":15463:15829   */\n    tag_203:\n        /* \"#utility.yul\":15605:15608   */\n      0x00\n        /* \"#utility.yul\":15626:15693   */\n      tag_358\n        /* \"#utility.yul\":15690:15692   */\n      0x12\n        /* \"#utility.yul\":15685:15688   */\n      dup4\n        /* \"#utility.yul\":15626:15693   */\n      tag_186\n      jump\t// in\n    tag_358:\n        /* \"#utility.yul\":15619:15693   */\n      swap2\n      pop\n        /* \"#utility.yul\":15702:15795   */\n      tag_359\n        /* \"#utility.yul\":15791:15794   */\n      dup3\n        /* \"#utility.yul\":15702:15795   */\n      tag_202\n      jump\t// in\n    tag_359:\n        /* \"#utility.yul\":15820:15822   */\n      0x20\n        /* \"#utility.yul\":15815:15818   */\n      dup3\n        /* \"#utility.yul\":15811:15823   */\n      add\n        /* \"#utility.yul\":15804:15823   */\n      swap1\n      pop\n        /* \"#utility.yul\":15463:15829   */\n      swap2\n      swap1\n      pop\n      jump\t// out\n        /* \"#utility.yul\":15835:16254   */\n    tag_100:\n        /* \"#utility.yul\":16001:16005   */\n      0x00\n        /* \"#utility.yul\":16039:16041   */\n      0x20\n        /* \"#utility.yul\":16028:16037   */\n      dup3\n        /* \"#utility.yul\":16024:16042   */\n      add\n        /* \"#utility.yul\":16016:16042   */\n      swap1\n      pop\n        /* \"#utility.yul\":16088:16097   */\n      dup2\n        /* \"#utility.yul\":16082:16086   */\n      dup2\n        /* \"#utility.yul\":16078:16098   */\n      sub\n        /* \"#utility.yul\":16074:16075   */\n      0x00\n        /* \"#utility.yul\":16063:16072   */\n      dup4\n        /* \"#utility.yul\":16059:16076   */\n      add\n        /* \"#utility.yul\":16052:16099   */\n      mstore\n        /* \"#utility.yul\":16116:16247   */\n      tag_361\n        /* \"#utility.yul\":16242:16246   */\n      dup2\n        /* \"#utility.yul\":16116:16247   */\n      tag_203\n      jump\t// in\n    tag_361:\n        /* \"#utility.yul\":16108:16247   */\n      swap1\n      pop\n        /* \"#utility.yul\":15835:16254   */\n      swap2\n      swap1\n      pop\n      jump\t// out\n        /* \"#utility.yul\":16260:16495   */\n    tag_204:\n        /* \"#utility.yul\":16400:16434   */\n      0x426964206d75737420626520686967686572207468616e207468652063757272\n        /* \"#utility.yul\":16396:16397   */\n      0x00\n        /* \"#utility.yul\":16388:16394   */\n      dup3\n        /* \"#utility.yul\":16384:16398   */\n      add\n        /* \"#utility.yul\":16377:16435   */\n      mstore\n        /* \"#utility.yul\":16469:16487   */\n      0x656e742068696768657374206269642e00000000000000000000000000000000\n        /* \"#utility.yul\":16464:16466   */\n      0x20\n        /* \"#utility.yul\":16456:16462   */\n      dup3\n        /* \"#utility.yul\":16452:16467   */\n      add\n        /* \"#utility.yul\":16445:16488   */\n      mstore\n        /* \"#utility.yul\":16260:16495   */\n      pop\n      jump\t// out\n        /* \"#utility.yul\":16501:16867   */\n    tag_205:\n        /* \"#utility.yul\":16643:16646   */\n      0x00\n        /* \"#utility.yul\":16664:16731   */\n      tag_364\n        /* \"#utility.yul\":16728:16730   */\n      0x30\n        /* \"#utility.yul\":16723:16726   */\n      dup4\n        /* \"#utility.yul\":16664:16731   */\n      tag_186\n      jump\t// in\n    tag_364:\n        /* \"#utility.yul\":16657:16731   */\n      swap2\n      pop\n        /* \"#utility.yul\":16740:16833   */\n      tag_365\n        /* \"#utility.yul\":16829:16832   */\n      dup3\n        /* \"#utility.yul\":16740:16833   */\n      tag_204\n      jump\t// in\n    tag_365:\n        /* \"#utility.yul\":16858:16860   */\n      0x40\n        /* \"#utility.yul\":16853:16856   */\n      dup3\n        /* \"#utility.yul\":16849:16861   */\n      add\n        /* \"#utility.yul\":16842:16861   */\n      swap1\n      pop\n        /* \"#utility.yul\":16501:16867   */\n      swap2\n      swap1\n      pop\n      jump\t// out\n        /* \"#utility.yul\":16873:17292   */\n    tag_103:\n        /* \"#utility.yul\":17039:17043   */\n      0x00\n        /* \"#utility.yul\":17077:17079   */\n      0x20\n        /* \"#utility.yul\":17066:17075   */\n      dup3\n        /* \"#utility.yul\":17062:17080   */\n      add\n        /* \"#utility.yul\":17054:17080   */\n      swap1\n      pop\n        /* \"#utility.yul\":17126:17135   */\n      dup2\n        /* \"#utility.yul\":17120:17124   */\n      dup2\n        /* \"#utility.yul\":17116:17136   */\n      sub\n        /* \"#utility.yul\":17112:17113   */\n      0x00\n        /* \"#utility.yul\":17101:17110   */\n      dup4\n        /* \"#utility.yul\":17097:17114   */\n      add\n        /* \"#utility.yul\":17090:17137   */\n      mstore\n        /* \"#utility.yul\":17154:17285   */\n      tag_367\n        /* \"#utility.yul\":17280:17284   */\n      dup2\n        /* \"#utility.yul\":17154:17285   */\n      tag_205\n      jump\t// in\n    tag_367:\n        /* \"#utility.yul\":17146:17285   */\n      swap1\n      pop\n        /* \"#utility.yul\":16873:17292   */\n      swap2\n      swap1\n      pop\n      jump\t// out\n        /* \"#utility.yul\":17298:17522   */\n    tag_206:\n        /* \"#utility.yul\":17438:17472   */\n      0x426964206d757374206d65657420746865206d696e696d756d2062696420616d\n        /* \"#utility.yul\":17434:17435   */\n      0x00\n        /* \"#utility.yul\":17426:17432   */\n      dup3\n        /* \"#utility.yul\":17422:17436   */\n      add\n        /* \"#utility.yul\":17415:17473   */\n      mstore\n        /* \"#utility.yul\":17507:17514   */\n      0x6f756e742e000000000000000000000000000000000000000000000000000000\n        /* \"#utility.yul\":17502:17504   */\n      0x20\n        /* \"#utility.yul\":17494:17500   */\n      dup3\n        /* \"#utility.yul\":17490:17505   */\n      add\n        /* \"#utility.yul\":17483:17515   */\n      mstore\n        /* \"#utility.yul\":17298:17522   */\n      pop\n      jump\t// out\n        /* \"#utility.yul\":17528:17894   */\n    tag_207:\n        /* \"#utility.yul\":17670:17673   */\n      0x00\n        /* \"#utility.yul\":17691:17758   */\n      tag_370\n        /* \"#utility.yul\":17755:17757   */\n      0x25\n        /* \"#utility.yul\":17750:17753   */\n      dup4\n        /* \"#utility.yul\":17691:17758   */\n      tag_186\n      jump\t// in\n    tag_370:\n        /* \"#utility.yul\":17684:17758   */\n      swap2\n      pop\n        /* \"#utility.yul\":17767:17860   */\n      tag_371\n        /* \"#utility.yul\":17856:17859   */\n      dup3\n        /* \"#utility.yul\":17767:17860   */\n      tag_206\n      jump\t// in\n    tag_371:\n        /* \"#utility.yul\":17885:17887   */\n      0x40\n        /* \"#utility.yul\":17880:17883   */\n      dup3\n        /* \"#utility.yul\":17876:17888   */\n      add\n        /* \"#utility.yul\":17869:17888   */\n      swap1\n      pop\n        /* \"#utility.yul\":17528:17894   */\n      swap2\n      swap1\n      pop\n      jump\t// out\n        /* \"#utility.yul\":17900:18319   */\n    tag_106:\n        /* \"#utility.yul\":18066:18070   */\n      0x00\n        /* \"#utility.yul\":18104:18106   */\n      0x20\n        /* \"#utility.yul\":18093:18102   */\n      dup3\n        /* \"#utility.yul\":18089:18107   */\n      add\n        /* \"#utility.yul\":18081:18107   */\n      swap1\n      pop\n        /* \"#utility.yul\":18153:18162   */\n      dup2\n        /* \"#utility.yul\":18147:18151   */\n      dup2\n        /* \"#utility.yul\":18143:18163   */\n      sub\n        /* \"#utility.yul\":18139:18140   */\n      0x00\n        /* \"#utility.yul\":18128:18137   */\n      dup4\n        /* \"#utility.yul\":18124:18141   */\n      add\n        /* \"#utility.yul\":18117:18164   */\n      mstore\n        /* \"#utility.yul\":18181:18312   */\n      tag_373\n        /* \"#utility.yul\":18307:18311   */\n      dup2\n        /* \"#utility.yul\":18181:18312   */\n      tag_207\n      jump\t// in\n    tag_373:\n        /* \"#utility.yul\":18173:18312   */\n      swap1\n      pop\n        /* \"#utility.yul\":17900:18319   */\n      swap2\n      swap1\n      pop\n      jump\t// out\n        /* \"#utility.yul\":18325:18767   */\n    tag_108:\n        /* \"#utility.yul\":18474:18478   */\n      0x00\n        /* \"#utility.yul\":18512:18514   */\n      0x60\n        /* \"#utility.yul\":18501:18510   */\n      dup3\n        /* \"#utility.yul\":18497:18515   */\n      add\n        /* \"#utility.yul\":18489:18515   */\n      swap1\n      pop\n        /* \"#utility.yul\":18525:18596   */\n      tag_375\n        /* \"#utility.yul\":18593:18594   */\n      0x00\n        /* \"#utility.yul\":18582:18591   */\n      dup4\n        /* \"#utility.yul\":18578:18595   */\n      add\n        /* \"#utility.yul\":18569:18575   */\n      dup7\n        /* \"#utility.yul\":18525:18596   */\n      tag_174\n      jump\t// in\n    tag_375:\n        /* \"#utility.yul\":18606:18678   */\n      tag_376\n        /* \"#utility.yul\":18674:18676   */\n      0x20\n        /* \"#utility.yul\":18663:18672   */\n      dup4\n        /* \"#utility.yul\":18659:18677   */\n      add\n        /* \"#utility.yul\":18650:18656   */\n      dup6\n        /* \"#utility.yul\":18606:18678   */\n      tag_174\n      jump\t// in\n    tag_376:\n        /* \"#utility.yul\":18688:18760   */\n      tag_377\n        /* \"#utility.yul\":18756:18758   */\n      0x40\n        /* \"#utility.yul\":18745:18754   */\n      dup4\n        /* \"#utility.yul\":18741:18759   */\n      add\n        /* \"#utility.yul\":18732:18738   */\n      dup5\n        /* \"#utility.yul\":18688:18760   */\n      tag_173\n      jump\t// in\n    tag_377:\n        /* \"#utility.yul\":18325:18767   */\n      swap5\n      swap4\n      pop\n      pop\n      pop\n      pop\n      jump\t// out\n        /* \"#utility.yul\":18773:18945   */\n    tag_208:\n        /* \"#utility.yul\":18913:18937   */\n      0x546f6b656e207472616e73666572206661696c65642e00000000000000000000\n        /* \"#utility.yul\":18909:18910   */\n      0x00\n        /* \"#utility.yul\":18901:18907   */\n      dup3\n        /* \"#utility.yul\":18897:18911   */\n      add\n        /* \"#utility.yul\":18890:18938   */\n      mstore\n        /* \"#utility.yul\":18773:18945   */\n      pop\n      jump\t// out\n        /* \"#utility.yul\":18951:19317   */\n    tag_209:\n        /* \"#utility.yul\":19093:19096   */\n      0x00\n        /* \"#utility.yul\":19114:19181   */\n      tag_380\n        /* \"#utility.yul\":19178:19180   */\n      0x16\n        /* \"#utility.yul\":19173:19176   */\n      dup4\n        /* \"#utility.yul\":19114:19181   */\n      tag_186\n      jump\t// in\n    tag_380:\n        /* \"#utility.yul\":19107:19181   */\n      swap2\n      pop\n        /* \"#utility.yul\":19190:19283   */\n      tag_381\n        /* \"#utility.yul\":19279:19282   */\n      dup3\n        /* \"#utility.yul\":19190:19283   */\n      tag_208\n      jump\t// in\n    tag_381:\n        /* \"#utility.yul\":19308:19310   */\n      0x20\n        /* \"#utility.yul\":19303:19306   */\n      dup3\n        /* \"#utility.yul\":19299:19311   */\n      add\n        /* \"#utility.yul\":19292:19311   */\n      swap1\n      pop\n        /* \"#utility.yul\":18951:19317   */\n      swap2\n      swap1\n      pop\n      jump\t// out\n        /* \"#utility.yul\":19323:19742   */\n    tag_116:\n        /* \"#utility.yul\":19489:19493   */\n      0x00\n        /* \"#utility.yul\":19527:19529   */\n      0x20\n        /* \"#utility.yul\":19516:19525   */\n      dup3\n        /* \"#utility.yul\":19512:19530   */\n      add\n        /* \"#utility.yul\":19504:19530   */\n      swap1\n      pop\n        /* \"#utility.yul\":19576:19585   */\n      dup2\n        /* \"#utility.yul\":19570:19574   */\n      dup2\n        /* \"#utility.yul\":19566:19586   */\n      sub\n        /* \"#utility.yul\":19562:19563   */\n      0x00\n        /* \"#utility.yul\":19551:19560   */\n      dup4\n        /* \"#utility.yul\":19547:19564   */\n      add\n        /* \"#utility.yul\":19540:19587   */\n      mstore\n        /* \"#utility.yul\":19604:19735   */\n      tag_383\n        /* \"#utility.yul\":19730:19734   */\n      dup2\n        /* \"#utility.yul\":19604:19735   */\n      tag_209\n      jump\t// in\n    tag_383:\n        /* \"#utility.yul\":19596:19735   */\n      swap1\n      pop\n        /* \"#utility.yul\":19323:19742   */\n      swap2\n      swap1\n      pop\n      jump\t// out\n        /* \"#utility.yul\":19748:19920   */\n    tag_210:\n        /* \"#utility.yul\":19888:19912   */\n      0x41756374696f6e20686173206e6f7420656e6465642e00000000000000000000\n        /* \"#utility.yul\":19884:19885   */\n      0x00\n        /* \"#utility.yul\":19876:19882   */\n      dup3\n        /* \"#utility.yul\":19872:19886   */\n      add\n        /* \"#utility.yul\":19865:19913   */\n      mstore\n        /* \"#utility.yul\":19748:19920   */\n      pop\n      jump\t// out\n        /* \"#utility.yul\":19926:20292   */\n    tag_211:\n        /* \"#utility.yul\":20068:20071   */\n      0x00\n        /* \"#utility.yul\":20089:20156   */\n      tag_386\n        /* \"#utility.yul\":20153:20155   */\n      0x16\n        /* \"#utility.yul\":20148:20151   */\n      dup4\n        /* \"#utility.yul\":20089:20156   */\n      tag_186\n      jump\t// in\n    tag_386:\n        /* \"#utility.yul\":20082:20156   */\n      swap2\n      pop\n        /* \"#utility.yul\":20165:20258   */\n      tag_387\n        /* \"#utility.yul\":20254:20257   */\n      dup3\n        /* \"#utility.yul\":20165:20258   */\n      tag_210\n      jump\t// in\n    tag_387:\n        /* \"#utility.yul\":20283:20285   */\n      0x20\n        /* \"#utility.yul\":20278:20281   */\n      dup3\n        /* \"#utility.yul\":20274:20286   */\n      add\n        /* \"#utility.yul\":20267:20286   */\n      swap1\n      pop\n        /* \"#utility.yul\":19926:20292   */\n      swap2\n      swap1\n      pop\n      jump\t// out\n        /* \"#utility.yul\":20298:20717   */\n    tag_137:\n        /* \"#utility.yul\":20464:20468   */\n      0x00\n        /* \"#utility.yul\":20502:20504   */\n      0x20\n        /* \"#utility.yul\":20491:20500   */\n      dup3\n        /* \"#utility.yul\":20487:20505   */\n      add\n        /* \"#utility.yul\":20479:20505   */\n      swap1\n      pop\n        /* \"#utility.yul\":20551:20560   */\n      dup2\n        /* \"#utility.yul\":20545:20549   */\n      dup2\n        /* \"#utility.yul\":20541:20561   */\n      sub\n        /* \"#utility.yul\":20537:20538   */\n      0x00\n        /* \"#utility.yul\":20526:20535   */\n      dup4\n        /* \"#utility.yul\":20522:20539   */\n      add\n        /* \"#utility.yul\":20515:20562   */\n      mstore\n        /* \"#utility.yul\":20579:20710   */\n      tag_389\n        /* \"#utility.yul\":20705:20709   */\n      dup2\n        /* \"#utility.yul\":20579:20710   */\n      tag_211\n      jump\t// in\n    tag_389:\n        /* \"#utility.yul\":20571:20710   */\n      swap1\n      pop\n        /* \"#utility.yul\":20298:20717   */\n      swap2\n      swap1\n      pop\n      jump\t// out\n        /* \"#utility.yul\":20723:20808   */\n    tag_212:\n        /* \"#utility.yul\":20768:20775   */\n      0x00\n        /* \"#utility.yul\":20797:20802   */\n      dup2\n        /* \"#utility.yul\":20786:20802   */\n      swap1\n      pop\n        /* \"#utility.yul\":20723:20808   */\n      swap2\n      swap1\n      pop\n      jump\t// out\n        /* \"#utility.yul\":20814:20972   */\n    tag_213:\n        /* \"#utility.yul\":20872:20881   */\n      0x00\n        /* \"#utility.yul\":20905:20966   */\n      tag_392\n        /* \"#utility.yul\":20923:20965   */\n      tag_393\n        /* \"#utility.yul\":20932:20964   */\n      tag_394\n        /* \"#utility.yul\":20958:20963   */\n      dup5\n        /* \"#utility.yul\":20932:20964   */\n      tag_212\n      jump\t// in\n    tag_394:\n        /* \"#utility.yul\":20923:20965   */\n      tag_181\n      jump\t// in\n    tag_393:\n        /* \"#utility.yul\":20905:20966   */\n      tag_166\n      jump\t// in\n    tag_392:\n        /* \"#utility.yul\":20892:20966   */\n      swap1\n      pop\n        /* \"#utility.yul\":20814:20972   */\n      swap2\n      swap1\n      pop\n      jump\t// out\n        /* \"#utility.yul\":20978:21125   */\n    tag_214:\n        /* \"#utility.yul\":21073:21118   */\n      tag_396\n        /* \"#utility.yul\":21112:21117   */\n      dup2\n        /* \"#utility.yul\":21073:21118   */\n      tag_213\n      jump\t// in\n    tag_396:\n        /* \"#utility.yul\":21068:21071   */\n      dup3\n        /* \"#utility.yul\":21061:21119   */\n      mstore\n        /* \"#utility.yul\":20978:21125   */\n      pop\n      pop\n      jump\t// out\n        /* \"#utility.yul\":21131:21369   */\n    tag_154:\n        /* \"#utility.yul\":21232:21236   */\n      0x00\n        /* \"#utility.yul\":21270:21272   */\n      0x20\n        /* \"#utility.yul\":21259:21268   */\n      dup3\n        /* \"#utility.yul\":21255:21273   */\n      add\n        /* \"#utility.yul\":21247:21273   */\n      swap1\n      pop\n        /* \"#utility.yul\":21283:21362   */\n      tag_398\n        /* \"#utility.yul\":21359:21360   */\n      0x00\n        /* \"#utility.yul\":21348:21357   */\n      dup4\n        /* \"#utility.yul\":21344:21361   */\n      add\n        /* \"#utility.yul\":21335:21341   */\n      dup5\n        /* \"#utility.yul\":21283:21362   */\n      tag_214\n      jump\t// in\n    tag_398:\n        /* \"#utility.yul\":21131:21369   */\n      swap3\n      swap2\n      pop\n      pop\n      jump\t// out\n\n    auxdata: 0xa26469706673582212200ff72881475c345b62ba408021de090c9aef6f2432171f816096a96ef33d422c64736f6c634300081a0033\n}\n",
				"bytecode": {
					"linkReferences": {},
					"object": "608060405234801561000f575f80fd5b50604051611d83380380611d8383398181016040528101906100319190610142565b5f73ffffffffffffffffffffffffffffffffffffffff168173ffffffffffffffffffffffffffffffffffffffff160361009f576040517f08c379a0000000000000000000000000000000000000000000000000000000008152600401610096906101c7565b60405180910390fd5b805f806101000a81548173ffffffffffffffffffffffffffffffffffffffff021916908373ffffffffffffffffffffffffffffffffffffffff160217905550506101e5565b5f80fd5b5f73ffffffffffffffffffffffffffffffffffffffff82169050919050565b5f610111826100e8565b9050919050565b61012181610107565b811461012b575f80fd5b50565b5f8151905061013c81610118565b92915050565b5f60208284031215610157576101566100e4565b5b5f6101648482850161012e565b91505092915050565b5f82825260208201905092915050565b7f546f6b656e20616464726573732063616e6e6f74206265207a65726f2e0000005f82015250565b5f6101b1601d8361016d565b91506101bc8261017d565b602082019050919050565b5f6020820190508181035f8301526101de816101a5565b9050919050565b611b91806101f25f395ff3fe608060405234801561000f575f80fd5b506004361061009c575f3560e01c8063de0794ef11610064578063de0794ef14610148578063e808386314610166578063f20e5e3514610182578063f3f43703146101b2578063fc0c546a146101e25761009c565b80630121683f146100a05780630cbb180c146100bc578063435fbd55146100ec578063571a26a0146100f657806357c90de51461012c575b5f80fd5b6100ba60048036038101906100b5919061113d565b610200565b005b6100d660048036038101906100d191906111d5565b610469565b6040516100e3919061120f565b60405180910390f35b6100f461047e565b005b610110600480360381019061010b9190611228565b61065d565b604051610123979695949392919061127c565b60405180910390f35b6101466004803603810190610141919061113d565b6106f5565b005b610150610b47565b60405161015d919061120f565b60405180910390f35b610180600480360381019061017b9190611228565b610b4d565b005b61019c60048036038101906101979190611228565b610efd565b6040516101a991906113a2565b60405180910390f35b6101cc60048036038101906101c791906111d5565b61106a565b6040516101d9919061120f565b60405180910390f35b6101ea61107f565b6040516101f79190611416565b60405180910390f35b5f8211610242576040517f08c379a0000000000000000000000000000000000000000000000000000000008152600401610239906114af565b60405180910390fd5b5f8111610284576040517f08c379a000000000000000000000000000000000000000000000000000000000815260040161027b9061153d565b60405180910390fd5b60036040518060e0016040528060045481526020013373ffffffffffffffffffffffffffffffffffffffff1681526020018481526020015f81526020015f73ffffffffffffffffffffffffffffffffffffffff16815260200160011515815260200183426102f29190611588565b815250908060018154018082558091505060019003905f5260205f2090600602015f909190919091505f820151815f01556020820151816001015f6101000a81548173ffffffffffffffffffffffffffffffffffffffff021916908373ffffffffffffffffffffffffffffffffffffffff16021790555060408201518160020155606082015181600301556080820151816004015f6101000a81548173ffffffffffffffffffffffffffffffffffffffff021916908373ffffffffffffffffffffffffffffffffffffffff16021790555060a08201518160040160146101000a81548160ff02191690831515021790555060c0820151816005015550503373ffffffffffffffffffffffffffffffffffffffff167fc9050d42180a61cb0d9ebb8ad118b62fe6eab12cf12ff752c4a0cc7da9ddf6276004548484426104379190611588565b604051610446939291906115bb565b60405180910390a260045f815480929190610460906115f0565b91905055505050565b6002602052805f5260405f205f915090505481565b5f60025f3373ffffffffffffffffffffffffffffffffffffffff1673ffffffffffffffffffffffffffffffffffffffff1681526020019081526020015f205490505f8111610501576040517f08c379a00000000000000000000000000000000000000000000000000000000081526004016104f890611681565b60405180910390fd5b5f60025f3373ffffffffffffffffffffffffffffffffffffffff1673ffffffffffffffffffffffffffffffffffffffff1681526020019081526020015f20819055505f8054906101000a900473ffffffffffffffffffffffffffffffffffffffff1673ffffffffffffffffffffffffffffffffffffffff1663a9059cbb33836040518363ffffffff1660e01b815260040161059d92919061169f565b6020604051808303815f875af19250505080156105d857506040513d601f19601f820116820180604052508101906105d591906116f0565b60015b610659578060025f3373ffffffffffffffffffffffffffffffffffffffff1673ffffffffffffffffffffffffffffffffffffffff1681526020019081526020015f20819055506040517f08c379a000000000000000000000000000000000000000000000000000000000815260040161065090611765565b60405180910390fd5b5050565b6003818154811061066c575f80fd5b905f5260205f2090600602015f91509050805f015490806001015f9054906101000a900473ffffffffffffffffffffffffffffffffffffffff1690806002015490806003015490806004015f9054906101000a900473ffffffffffffffffffffffffffffffffffffffff16908060040160149054906101000a900460ff16908060050154905087565b600380549050821061073c576040517f08c379a0000000000000000000000000000000000000000000000000000000008152600401610733906117cd565b60405180910390fd5b5f60038381548110610751576107506117eb565b5b905f5260205f20906006020190508060040160149054906101000a900460ff166107b0576040517f08c379a00000000000000000000000000000000000000000000000000000000081526004016107a790611862565b60405180910390fd5b806005015442106107f6576040517f08c379a00000000000000000000000000000000000000000000000000000000081526004016107ed906118ca565b60405180910390fd5b8060030154821161083c576040517f08c379a000000000000000000000000000000000000000000000000000000000815260040161083390611958565b60405180910390fd5b8060020154821015610883576040517f08c379a000000000000000000000000000000000000000000000000000000000815260040161087a906119e6565b60405180910390fd5b5f8054906101000a900473ffffffffffffffffffffffffffffffffffffffff1673ffffffffffffffffffffffffffffffffffffffff166323b872dd3330856040518463ffffffff1660e01b81526004016108df93929190611a04565b6020604051808303815f875af192505050801561091a57506040513d601f19601f8201168201806040525081019061091791906116f0565b60015b610959576040517f08c379a000000000000000000000000000000000000000000000000000000000815260040161095090611a83565b60405180910390fd5b505f81600301541115610aa8575f8054906101000a900473ffffffffffffffffffffffffffffffffffffffff1673ffffffffffffffffffffffffffffffffffffffff1663a9059cbb826004015f9054906101000a900473ffffffffffffffffffffffffffffffffffffffff1683600301546040518363ffffffff1660e01b81526004016109e792919061169f565b6020604051808303815f875af1925050508015610a2257506040513d601f19601f82011682018060405250810190610a1f91906116f0565b60015b610aa557806003015460015f836004015f9054906101000a900473ffffffffffffffffffffffffffffffffffffffff1673ffffffffffffffffffffffffffffffffffffffff1673ffffffffffffffffffffffffffffffffffffffff1681526020019081526020015f205f828254610a999190611588565b92505081905550610aa7565b505b5b81816003018190555033816004015f6101000a81548173ffffffffffffffffffffffffffffffffffffffff021916908373ffffffffffffffffffffffffffffffffffffffff1602179055503373ffffffffffffffffffffffffffffffffffffffff16837f0e54eff26401bf69b81b26f60bd85ef47f5d85275c1d268d84f68d6897431c4784604051610b3a919061120f565b60405180910390a3505050565b60045481565b6003805490508110610b94576040517f08c379a0000000000000000000000000000000000000000000000000000000008152600401610b8b906117cd565b60405180910390fd5b5f60038281548110610ba957610ba86117eb565b5b905f5260205f20906006020190508060050154421015610bfe576040517f08c379a0000000000000000000000000000000000000000000000000000000008152600401610bf590611aeb565b60405180910390fd5b8060040160149054906101000a900460ff16610c4f576040517f08c379a0000000000000000000000000000000000000000000000000000000008152600401610c4690611862565b60405180910390fd5b5f8160040160146101000a81548160ff0219169083151502179055505f81600301541115610ea9575f8054906101000a900473ffffffffffffffffffffffffffffffffffffffff1673ffffffffffffffffffffffffffffffffffffffff1663a9059cbb826001015f9054906101000a900473ffffffffffffffffffffffffffffffffffffffff1683600301546040518363ffffffff1660e01b8152600401610cf892919061169f565b6020604051808303815f875af1925050508015610d3357506040513d601f19601f82011682018060405250810190610d3091906116f0565b60015b610e2c57806003015460025f836001015f9054906101000a900473ffffffffffffffffffffffffffffffffffffffff1673ffffffffffffffffffffffffffffffffffffffff1673ffffffffffffffffffffffffffffffffffffffff1681526020019081526020015f205f828254610daa9190611588565b92505081905550806004015f9054906101000a900473ffffffffffffffffffffffffffffffffffffffff1673ffffffffffffffffffffffffffffffffffffffff16827f4d9113a1377d665eaa1f9168a9c9080f2e488cb820b10149de3d6d2e0f2780c78360030154604051610e1f919061120f565b60405180910390a3610ea4565b50806004015f9054906101000a900473ffffffffffffffffffffffffffffffffffffffff1673ffffffffffffffffffffffffffffffffffffffff16827f4d9113a1377d665eaa1f9168a9c9080f2e488cb820b10149de3d6d2e0f2780c78360030154604051610e9b919061120f565b60405180910390a35b610ef9565b5f73ffffffffffffffffffffffffffffffffffffffff16827f4d9113a1377d665eaa1f9168a9c9080f2e488cb820b10149de3d6d2e0f2780c75f604051610ef09190611b42565b60405180910390a35b5050565b610f056110a2565b6003805490508210610f4c576040517f08c379a0000000000000000000000000000000000000000000000000000000008152600401610f43906117cd565b60405180910390fd5b60038281548110610f6057610f5f6117eb565b5b905f5260205f2090600602016040518060e00160405290815f8201548152602001600182015f9054906101000a900473ffffffffffffffffffffffffffffffffffffffff1673ffffffffffffffffffffffffffffffffffffffff1673ffffffffffffffffffffffffffffffffffffffff1681526020016002820154815260200160038201548152602001600482015f9054906101000a900473ffffffffffffffffffffffffffffffffffffffff1673ffffffffffffffffffffffffffffffffffffffff1673ffffffffffffffffffffffffffffffffffffffff1681526020016004820160149054906101000a900460ff161515151581526020016005820154815250509050919050565b6001602052805f5260405f205f915090505481565b5f8054906101000a900473ffffffffffffffffffffffffffffffffffffffff1681565b6040518060e001604052805f81526020015f73ffffffffffffffffffffffffffffffffffffffff1681526020015f81526020015f81526020015f73ffffffffffffffffffffffffffffffffffffffff1681526020015f151581526020015f81525090565b5f80fd5b5f819050919050565b61111c8161110a565b8114611126575f80fd5b50565b5f8135905061113781611113565b92915050565b5f806040838503121561115357611152611106565b5b5f61116085828601611129565b925050602061117185828601611129565b9150509250929050565b5f73ffffffffffffffffffffffffffffffffffffffff82169050919050565b5f6111a48261117b565b9050919050565b6111b48161119a565b81146111be575f80fd5b50565b5f813590506111cf816111ab565b92915050565b5f602082840312156111ea576111e9611106565b5b5f6111f7848285016111c1565b91505092915050565b6112098161110a565b82525050565b5f6020820190506112225f830184611200565b92915050565b5f6020828403121561123d5761123c611106565b5b5f61124a84828501611129565b91505092915050565b61125c8161119a565b82525050565b5f8115159050919050565b61127681611262565b82525050565b5f60e08201905061128f5f83018a611200565b61129c6020830189611253565b6112a96040830188611200565b6112b66060830187611200565b6112c36080830186611253565b6112d060a083018561126d565b6112dd60c0830184611200565b98975050505050505050565b6112f28161110a565b82525050565b6113018161119a565b82525050565b61131081611262565b82525050565b60e082015f82015161132a5f8501826112e9565b50602082015161133d60208501826112f8565b50604082015161135060408501826112e9565b50606082015161136360608501826112e9565b50608082015161137660808501826112f8565b5060a082015161138960a0850182611307565b5060c082015161139c60c08501826112e9565b50505050565b5f60e0820190506113b55f830184611316565b92915050565b5f819050919050565b5f6113de6113d96113d48461117b565b6113bb565b61117b565b9050919050565b5f6113ef826113c4565b9050919050565b5f611400826113e5565b9050919050565b611410816113f6565b82525050565b5f6020820190506114295f830184611407565b92915050565b5f82825260208201905092915050565b7f4d696e696d756d20626964206d7573742062652067726561746572207468616e5f8201527f207a65726f2e0000000000000000000000000000000000000000000000000000602082015250565b5f61149960268361142f565b91506114a48261143f565b604082019050919050565b5f6020820190508181035f8301526114c68161148d565b9050919050565b7f4475726174696f6e206d7573742062652067726561746572207468616e207a655f8201527f726f2e0000000000000000000000000000000000000000000000000000000000602082015250565b5f61152760238361142f565b9150611532826114cd565b604082019050919050565b5f6020820190508181035f8301526115548161151b565b9050919050565b7f4e487b71000000000000000000000000000000000000000000000000000000005f52601160045260245ffd5b5f6115928261110a565b915061159d8361110a565b92508282019050808211156115b5576115b461155b565b5b92915050565b5f6060820190506115ce5f830186611200565b6115db6020830185611200565b6115e86040830184611200565b949350505050565b5f6115fa8261110a565b91507fffffffffffffffffffffffffffffffffffffffffffffffffffffffffffffffff820361162c5761162b61155b565b5b600182019050919050565b7f4e6f2070656e64696e672066756e64732e0000000000000000000000000000005f82015250565b5f61166b60118361142f565b915061167682611637565b602082019050919050565b5f6020820190508181035f8301526116988161165f565b9050919050565b5f6040820190506116b25f830185611253565b6116bf6020830184611200565b9392505050565b6116cf81611262565b81146116d9575f80fd5b50565b5f815190506116ea816116c6565b92915050565b5f6020828403121561170557611704611106565b5b5f611712848285016116dc565b91505092915050565b7f5769746864726177206661696c65642e000000000000000000000000000000005f82015250565b5f61174f60108361142f565b915061175a8261171b565b602082019050919050565b5f6020820190508181035f83015261177c81611743565b9050919050565b7f41756374696f6e20646f6573206e6f742065786973742e0000000000000000005f82015250565b5f6117b760178361142f565b91506117c282611783565b602082019050919050565b5f6020820190508181035f8301526117e4816117ab565b9050919050565b7f4e487b71000000000000000000000000000000000000000000000000000000005f52603260045260245ffd5b7f41756374696f6e206973206e6f74206163746976652e000000000000000000005f82015250565b5f61184c60168361142f565b915061185782611818565b602082019050919050565b5f6020820190508181035f83015261187981611840565b9050919050565b7f41756374696f6e2068617320656e6465642e00000000000000000000000000005f82015250565b5f6118b460128361142f565b91506118bf82611880565b602082019050919050565b5f6020820190508181035f8301526118e1816118a8565b9050919050565b7f426964206d75737420626520686967686572207468616e2074686520637572725f8201527f656e742068696768657374206269642e00000000000000000000000000000000602082015250565b5f61194260308361142f565b915061194d826118e8565b604082019050919050565b5f6020820190508181035f83015261196f81611936565b9050919050565b7f426964206d757374206d65657420746865206d696e696d756d2062696420616d5f8201527f6f756e742e000000000000000000000000000000000000000000000000000000602082015250565b5f6119d060258361142f565b91506119db82611976565b604082019050919050565b5f6020820190508181035f8301526119fd816119c4565b9050919050565b5f606082019050611a175f830186611253565b611a246020830185611253565b611a316040830184611200565b949350505050565b7f546f6b656e207472616e73666572206661696c65642e000000000000000000005f82015250565b5f611a6d60168361142f565b9150611a7882611a39565b602082019050919050565b5f6020820190508181035f830152611a9a81611a61565b9050919050565b7f41756374696f6e20686173206e6f7420656e6465642e000000000000000000005f82015250565b5f611ad560168361142f565b9150611ae082611aa1565b602082019050919050565b5f6020820190508181035f830152611b0281611ac9565b9050919050565b5f819050919050565b5f611b2c611b27611b2284611b09565b6113bb565b61110a565b9050919050565b611b3c81611b12565b82525050565b5f602082019050611b555f830184611b33565b9291505056fea26469706673582212200ff72881475c345b62ba408021de090c9aef6f2432171f816096a96ef33d422c64736f6c634300081a0033",
					"opcodes": "PUSH1 0x80 PUSH1 0x40 MSTORE CALLVALUE DUP1 ISZERO PUSH2 0xF JUMPI PUSH0 DUP1 REVERT JUMPDEST POP PUSH1 0x40 MLOAD PUSH2 0x1D83 CODESIZE SUB DUP1 PUSH2 0x1D83 DUP4 CODECOPY DUP2 DUP2 ADD PUSH1 0x40 MSTORE DUP2 ADD SWAP1 PUSH2 0x31 SWAP2 SWAP1 PUSH2 0x142 JUMP JUMPDEST PUSH0 PUSH20 0xFFFFFFFFFFFFFFFFFFFFFFFFFFFFFFFFFFFFFFFF AND DUP2 PUSH20 0xFFFFFFFFFFFFFFFFFFFFFFFFFFFFFFFFFFFFFFFF AND SUB PUSH2 0x9F JUMPI PUSH1 0x40 MLOAD PUSH32 0x8C379A000000000000000000000000000000000000000000000000000000000 DUP2 MSTORE PUSH1 0x4 ADD PUSH2 0x96 SWAP1 PUSH2 0x1C7 JUMP JUMPDEST PUSH1 0x40 MLOAD DUP1 SWAP2 SUB SWAP1 REVERT JUMPDEST DUP1 PUSH0 DUP1 PUSH2 0x100 EXP DUP2 SLOAD DUP2 PUSH20 0xFFFFFFFFFFFFFFFFFFFFFFFFFFFFFFFFFFFFFFFF MUL NOT AND SWAP1 DUP4 PUSH20 0xFFFFFFFFFFFFFFFFFFFFFFFFFFFFFFFFFFFFFFFF AND MUL OR SWAP1 SSTORE POP POP PUSH2 0x1E5 JUMP JUMPDEST PUSH0 DUP1 REVERT JUMPDEST PUSH0 PUSH20 0xFFFFFFFFFFFFFFFFFFFFFFFFFFFFFFFFFFFFFFFF DUP3 AND SWAP1 POP SWAP2 SWAP1 POP JUMP JUMPDEST PUSH0 PUSH2 0x111 DUP3 PUSH2 0xE8 JUMP JUMPDEST SWAP1 POP SWAP2 SWAP1 POP JUMP JUMPDEST PUSH2 0x121 DUP2 PUSH2 0x107 JUMP JUMPDEST DUP2 EQ PUSH2 0x12B JUMPI PUSH0 DUP1 REVERT JUMPDEST POP JUMP JUMPDEST PUSH0 DUP2 MLOAD SWAP1 POP PUSH2 0x13C DUP2 PUSH2 0x118 JUMP JUMPDEST SWAP3 SWAP2 POP POP JUMP JUMPDEST PUSH0 PUSH1 0x20 DUP3 DUP5 SUB SLT ISZERO PUSH2 0x157 JUMPI PUSH2 0x156 PUSH2 0xE4 JUMP JUMPDEST JUMPDEST PUSH0 PUSH2 0x164 DUP5 DUP3 DUP6 ADD PUSH2 0x12E JUMP JUMPDEST SWAP2 POP POP SWAP3 SWAP2 POP POP JUMP JUMPDEST PUSH0 DUP3 DUP3 MSTORE PUSH1 0x20 DUP3 ADD SWAP1 POP SWAP3 SWAP2 POP POP JUMP JUMPDEST PUSH32 0x546F6B656E20616464726573732063616E6E6F74206265207A65726F2E000000 PUSH0 DUP3 ADD MSTORE POP JUMP JUMPDEST PUSH0 PUSH2 0x1B1 PUSH1 0x1D DUP4 PUSH2 0x16D JUMP JUMPDEST SWAP2 POP PUSH2 0x1BC DUP3 PUSH2 0x17D JUMP JUMPDEST PUSH1 0x20 DUP3 ADD SWAP1 POP SWAP2 SWAP1 POP JUMP JUMPDEST PUSH0 PUSH1 0x20 DUP3 ADD SWAP1 POP DUP2 DUP2 SUB PUSH0 DUP4 ADD MSTORE PUSH2 0x1DE DUP2 PUSH2 0x1A5 JUMP JUMPDEST SWAP1 POP SWAP2 SWAP1 POP JUMP JUMPDEST PUSH2 0x1B91 DUP1 PUSH2 0x1F2 PUSH0 CODECOPY PUSH0 RETURN INVALID PUSH1 0x80 PUSH1 0x40 MSTORE CALLVALUE DUP1 ISZERO PUSH2 0xF JUMPI PUSH0 DUP1 REVERT JUMPDEST POP PUSH1 0x4 CALLDATASIZE LT PUSH2 0x9C JUMPI PUSH0 CALLDATALOAD PUSH1 0xE0 SHR DUP1 PUSH4 0xDE0794EF GT PUSH2 0x64 JUMPI DUP1 PUSH4 0xDE0794EF EQ PUSH2 0x148 JUMPI DUP1 PUSH4 0xE8083863 EQ PUSH2 0x166 JUMPI DUP1 PUSH4 0xF20E5E35 EQ PUSH2 0x182 JUMPI DUP1 PUSH4 0xF3F43703 EQ PUSH2 0x1B2 JUMPI DUP1 PUSH4 0xFC0C546A EQ PUSH2 0x1E2 JUMPI PUSH2 0x9C JUMP JUMPDEST DUP1 PUSH4 0x121683F EQ PUSH2 0xA0 JUMPI DUP1 PUSH4 0xCBB180C EQ PUSH2 0xBC JUMPI DUP1 PUSH4 0x435FBD55 EQ PUSH2 0xEC JUMPI DUP1 PUSH4 0x571A26A0 EQ PUSH2 0xF6 JUMPI DUP1 PUSH4 0x57C90DE5 EQ PUSH2 0x12C JUMPI JUMPDEST PUSH0 DUP1 REVERT JUMPDEST PUSH2 0xBA PUSH1 0x4 DUP1 CALLDATASIZE SUB DUP2 ADD SWAP1 PUSH2 0xB5 SWAP2 SWAP1 PUSH2 0x113D JUMP JUMPDEST PUSH2 0x200 JUMP JUMPDEST STOP JUMPDEST PUSH2 0xD6 PUSH1 0x4 DUP1 CALLDATASIZE SUB DUP2 ADD SWAP1 PUSH2 0xD1 SWAP2 SWAP1 PUSH2 0x11D5 JUMP JUMPDEST PUSH2 0x469 JUMP JUMPDEST PUSH1 0x40 MLOAD PUSH2 0xE3 SWAP2 SWAP1 PUSH2 0x120F JUMP JUMPDEST PUSH1 0x40 MLOAD DUP1 SWAP2 SUB SWAP1 RETURN JUMPDEST PUSH2 0xF4 PUSH2 0x47E JUMP JUMPDEST STOP JUMPDEST PUSH2 0x110 PUSH1 0x4 DUP1 CALLDATASIZE SUB DUP2 ADD SWAP1 PUSH2 0x10B SWAP2 SWAP1 PUSH2 0x1228 JUMP JUMPDEST PUSH2 0x65D JUMP JUMPDEST PUSH1 0x40 MLOAD PUSH2 0x123 SWAP8 SWAP7 SWAP6 SWAP5 SWAP4 SWAP3 SWAP2 SWAP1 PUSH2 0x127C JUMP JUMPDEST PUSH1 0x40 MLOAD DUP1 SWAP2 SUB SWAP1 RETURN JUMPDEST PUSH2 0x146 PUSH1 0x4 DUP1 CALLDATASIZE SUB DUP2 ADD SWAP1 PUSH2 0x141 SWAP2 SWAP1 PUSH2 0x113D JUMP JUMPDEST PUSH2 0x6F5 JUMP JUMPDEST STOP JUMPDEST PUSH2 0x150 PUSH2 0xB47 JUMP JUMPDEST PUSH1 0x40 MLOAD PUSH2 0x15D SWAP2 SWAP1 PUSH2 0x120F JUMP JUMPDEST PUSH1 0x40 MLOAD DUP1 SWAP2 SUB SWAP1 RETURN JUMPDEST PUSH2 0x180 PUSH1 0x4 DUP1 CALLDATASIZE SUB DUP2 ADD SWAP1 PUSH2 0x17B SWAP2 SWAP1 PUSH2 0x1228 JUMP JUMPDEST PUSH2 0xB4D JUMP JUMPDEST STOP JUMPDEST PUSH2 0x19C PUSH1 0x4 DUP1 CALLDATASIZE SUB DUP2 ADD SWAP1 PUSH2 0x197 SWAP2 SWAP1 PUSH2 0x1228 JUMP JUMPDEST PUSH2 0xEFD JUMP JUMPDEST PUSH1 0x40 MLOAD PUSH2 0x1A9 SWAP2 SWAP1 PUSH2 0x13A2 JUMP JUMPDEST PUSH1 0x40 MLOAD DUP1 SWAP2 SUB SWAP1 RETURN JUMPDEST PUSH2 0x1CC PUSH1 0x4 DUP1 CALLDATASIZE SUB DUP2 ADD SWAP1 PUSH2 0x1C7 SWAP2 SWAP1 PUSH2 0x11D5 JUMP JUMPDEST PUSH2 0x106A JUMP JUMPDEST PUSH1 0x40 MLOAD PUSH2 0x1D9 SWAP2 SWAP1 PUSH2 0x120F JUMP JUMPDEST PUSH1 0x40 MLOAD DUP1 SWAP2 SUB SWAP1 RETURN JUMPDEST PUSH2 0x1EA PUSH2 0x107F JUMP JUMPDEST PUSH1 0x40 MLOAD PUSH2 0x1F7 SWAP2 SWAP1 PUSH2 0x1416 JUMP JUMPDEST PUSH1 0x40 MLOAD DUP1 SWAP2 SUB SWAP1 RETURN JUMPDEST PUSH0 DUP3 GT PUSH2 0x242 JUMPI PUSH1 0x40 MLOAD PUSH32 0x8C379A000000000000000000000000000000000000000000000000000000000 DUP2 MSTORE PUSH1 0x4 ADD PUSH2 0x239 SWAP1 PUSH2 0x14AF JUMP JUMPDEST PUSH1 0x40 MLOAD DUP1 SWAP2 SUB SWAP1 REVERT JUMPDEST PUSH0 DUP2 GT PUSH2 0x284 JUMPI PUSH1 0x40 MLOAD PUSH32 0x8C379A000000000000000000000000000000000000000000000000000000000 DUP2 MSTORE PUSH1 0x4 ADD PUSH2 0x27B SWAP1 PUSH2 0x153D JUMP JUMPDEST PUSH1 0x40 MLOAD DUP1 SWAP2 SUB SWAP1 REVERT JUMPDEST PUSH1 0x3 PUSH1 0x40 MLOAD DUP1 PUSH1 0xE0 ADD PUSH1 0x40 MSTORE DUP1 PUSH1 0x4 SLOAD DUP2 MSTORE PUSH1 0x20 ADD CALLER PUSH20 0xFFFFFFFFFFFFFFFFFFFFFFFFFFFFFFFFFFFFFFFF AND DUP2 MSTORE PUSH1 0x20 ADD DUP5 DUP2 MSTORE PUSH1 0x20 ADD PUSH0 DUP2 MSTORE PUSH1 0x20 ADD PUSH0 PUSH20 0xFFFFFFFFFFFFFFFFFFFFFFFFFFFFFFFFFFFFFFFF AND DUP2 MSTORE PUSH1 0x20 ADD PUSH1 0x1 ISZERO ISZERO DUP2 MSTORE PUSH1 0x20 ADD DUP4 TIMESTAMP PUSH2 0x2F2 SWAP2 SWAP1 PUSH2 0x1588 JUMP JUMPDEST DUP2 MSTORE POP SWAP1 DUP1 PUSH1 0x1 DUP2 SLOAD ADD DUP1 DUP3 SSTORE DUP1 SWAP2 POP POP PUSH1 0x1 SWAP1 SUB SWAP1 PUSH0 MSTORE PUSH1 0x20 PUSH0 KECCAK256 SWAP1 PUSH1 0x6 MUL ADD PUSH0 SWAP1 SWAP2 SWAP1 SWAP2 SWAP1 SWAP2 POP PUSH0 DUP3 ADD MLOAD DUP2 PUSH0 ADD SSTORE PUSH1 0x20 DUP3 ADD MLOAD DUP2 PUSH1 0x1 ADD PUSH0 PUSH2 0x100 EXP DUP2 SLOAD DUP2 PUSH20 0xFFFFFFFFFFFFFFFFFFFFFFFFFFFFFFFFFFFFFFFF MUL NOT AND SWAP1 DUP4 PUSH20 0xFFFFFFFFFFFFFFFFFFFFFFFFFFFFFFFFFFFFFFFF AND MUL OR SWAP1 SSTORE POP PUSH1 0x40 DUP3 ADD MLOAD DUP2 PUSH1 0x2 ADD SSTORE PUSH1 0x60 DUP3 ADD MLOAD DUP2 PUSH1 0x3 ADD SSTORE PUSH1 0x80 DUP3 ADD MLOAD DUP2 PUSH1 0x4 ADD PUSH0 PUSH2 0x100 EXP DUP2 SLOAD DUP2 PUSH20 0xFFFFFFFFFFFFFFFFFFFFFFFFFFFFFFFFFFFFFFFF MUL NOT AND SWAP1 DUP4 PUSH20 0xFFFFFFFFFFFFFFFFFFFFFFFFFFFFFFFFFFFFFFFF AND MUL OR SWAP1 SSTORE POP PUSH1 0xA0 DUP3 ADD MLOAD DUP2 PUSH1 0x4 ADD PUSH1 0x14 PUSH2 0x100 EXP DUP2 SLOAD DUP2 PUSH1 0xFF MUL NOT AND SWAP1 DUP4 ISZERO ISZERO MUL OR SWAP1 SSTORE POP PUSH1 0xC0 DUP3 ADD MLOAD DUP2 PUSH1 0x5 ADD SSTORE POP POP CALLER PUSH20 0xFFFFFFFFFFFFFFFFFFFFFFFFFFFFFFFFFFFFFFFF AND PUSH32 0xC9050D42180A61CB0D9EBB8AD118B62FE6EAB12CF12FF752C4A0CC7DA9DDF627 PUSH1 0x4 SLOAD DUP5 DUP5 TIMESTAMP PUSH2 0x437 SWAP2 SWAP1 PUSH2 0x1588 JUMP JUMPDEST PUSH1 0x40 MLOAD PUSH2 0x446 SWAP4 SWAP3 SWAP2 SWAP1 PUSH2 0x15BB JUMP JUMPDEST PUSH1 0x40 MLOAD DUP1 SWAP2 SUB SWAP1 LOG2 PUSH1 0x4 PUSH0 DUP2 SLOAD DUP1 SWAP3 SWAP2 SWAP1 PUSH2 0x460 SWAP1 PUSH2 0x15F0 JUMP JUMPDEST SWAP2 SWAP1 POP SSTORE POP POP POP JUMP JUMPDEST PUSH1 0x2 PUSH1 0x20 MSTORE DUP1 PUSH0 MSTORE PUSH1 0x40 PUSH0 KECCAK256 PUSH0 SWAP2 POP SWAP1 POP SLOAD DUP2 JUMP JUMPDEST PUSH0 PUSH1 0x2 PUSH0 CALLER PUSH20 0xFFFFFFFFFFFFFFFFFFFFFFFFFFFFFFFFFFFFFFFF AND PUSH20 0xFFFFFFFFFFFFFFFFFFFFFFFFFFFFFFFFFFFFFFFF AND DUP2 MSTORE PUSH1 0x20 ADD SWAP1 DUP2 MSTORE PUSH1 0x20 ADD PUSH0 KECCAK256 SLOAD SWAP1 POP PUSH0 DUP2 GT PUSH2 0x501 JUMPI PUSH1 0x40 MLOAD PUSH32 0x8C379A000000000000000000000000000000000000000000000000000000000 DUP2 MSTORE PUSH1 0x4 ADD PUSH2 0x4F8 SWAP1 PUSH2 0x1681 JUMP JUMPDEST PUSH1 0x40 MLOAD DUP1 SWAP2 SUB SWAP1 REVERT JUMPDEST PUSH0 PUSH1 0x2 PUSH0 CALLER PUSH20 0xFFFFFFFFFFFFFFFFFFFFFFFFFFFFFFFFFFFFFFFF AND PUSH20 0xFFFFFFFFFFFFFFFFFFFFFFFFFFFFFFFFFFFFFFFF AND DUP2 MSTORE PUSH1 0x20 ADD SWAP1 DUP2 MSTORE PUSH1 0x20 ADD PUSH0 KECCAK256 DUP2 SWAP1 SSTORE POP PUSH0 DUP1 SLOAD SWAP1 PUSH2 0x100 EXP SWAP1 DIV PUSH20 0xFFFFFFFFFFFFFFFFFFFFFFFFFFFFFFFFFFFFFFFF AND PUSH20 0xFFFFFFFFFFFFFFFFFFFFFFFFFFFFFFFFFFFFFFFF AND PUSH4 0xA9059CBB CALLER DUP4 PUSH1 0x40 MLOAD DUP4 PUSH4 0xFFFFFFFF AND PUSH1 0xE0 SHL DUP2 MSTORE PUSH1 0x4 ADD PUSH2 0x59D SWAP3 SWAP2 SWAP1 PUSH2 0x169F JUMP JUMPDEST PUSH1 0x20 PUSH1 0x40 MLOAD DUP1 DUP4 SUB DUP2 PUSH0 DUP8 GAS CALL SWAP3 POP POP POP DUP1 ISZERO PUSH2 0x5D8 JUMPI POP PUSH1 0x40 MLOAD RETURNDATASIZE PUSH1 0x1F NOT PUSH1 0x1F DUP3 ADD AND DUP3 ADD DUP1 PUSH1 0x40 MSTORE POP DUP2 ADD SWAP1 PUSH2 0x5D5 SWAP2 SWAP1 PUSH2 0x16F0 JUMP JUMPDEST PUSH1 0x1 JUMPDEST PUSH2 0x659 JUMPI DUP1 PUSH1 0x2 PUSH0 CALLER PUSH20 0xFFFFFFFFFFFFFFFFFFFFFFFFFFFFFFFFFFFFFFFF AND PUSH20 0xFFFFFFFFFFFFFFFFFFFFFFFFFFFFFFFFFFFFFFFF AND DUP2 MSTORE PUSH1 0x20 ADD SWAP1 DUP2 MSTORE PUSH1 0x20 ADD PUSH0 KECCAK256 DUP2 SWAP1 SSTORE POP PUSH1 0x40 MLOAD PUSH32 0x8C379A000000000000000000000000000000000000000000000000000000000 DUP2 MSTORE PUSH1 0x4 ADD PUSH2 0x650 SWAP1 PUSH2 0x1765 JUMP JUMPDEST PUSH1 0x40 MLOAD DUP1 SWAP2 SUB SWAP1 REVERT JUMPDEST POP POP JUMP JUMPDEST PUSH1 0x3 DUP2 DUP2 SLOAD DUP2 LT PUSH2 0x66C JUMPI PUSH0 DUP1 REVERT JUMPDEST SWAP1 PUSH0 MSTORE PUSH1 0x20 PUSH0 KECCAK256 SWAP1 PUSH1 0x6 MUL ADD PUSH0 SWAP2 POP SWAP1 POP DUP1 PUSH0 ADD SLOAD SWAP1 DUP1 PUSH1 0x1 ADD PUSH0 SWAP1 SLOAD SWAP1 PUSH2 0x100 EXP SWAP1 DIV PUSH20 0xFFFFFFFFFFFFFFFFFFFFFFFFFFFFFFFFFFFFFFFF AND SWAP1 DUP1 PUSH1 0x2 ADD SLOAD SWAP1 DUP1 PUSH1 0x3 ADD SLOAD SWAP1 DUP1 PUSH1 0x4 ADD PUSH0 SWAP1 SLOAD SWAP1 PUSH2 0x100 EXP SWAP1 DIV PUSH20 0xFFFFFFFFFFFFFFFFFFFFFFFFFFFFFFFFFFFFFFFF AND SWAP1 DUP1 PUSH1 0x4 ADD PUSH1 0x14 SWAP1 SLOAD SWAP1 PUSH2 0x100 EXP SWAP1 DIV PUSH1 0xFF AND SWAP1 DUP1 PUSH1 0x5 ADD SLOAD SWAP1 POP DUP8 JUMP JUMPDEST PUSH1 0x3 DUP1 SLOAD SWAP1 POP DUP3 LT PUSH2 0x73C JUMPI PUSH1 0x40 MLOAD PUSH32 0x8C379A000000000000000000000000000000000000000000000000000000000 DUP2 MSTORE PUSH1 0x4 ADD PUSH2 0x733 SWAP1 PUSH2 0x17CD JUMP JUMPDEST PUSH1 0x40 MLOAD DUP1 SWAP2 SUB SWAP1 REVERT JUMPDEST PUSH0 PUSH1 0x3 DUP4 DUP2 SLOAD DUP2 LT PUSH2 0x751 JUMPI PUSH2 0x750 PUSH2 0x17EB JUMP JUMPDEST JUMPDEST SWAP1 PUSH0 MSTORE PUSH1 0x20 PUSH0 KECCAK256 SWAP1 PUSH1 0x6 MUL ADD SWAP1 POP DUP1 PUSH1 0x4 ADD PUSH1 0x14 SWAP1 SLOAD SWAP1 PUSH2 0x100 EXP SWAP1 DIV PUSH1 0xFF AND PUSH2 0x7B0 JUMPI PUSH1 0x40 MLOAD PUSH32 0x8C379A000000000000000000000000000000000000000000000000000000000 DUP2 MSTORE PUSH1 0x4 ADD PUSH2 0x7A7 SWAP1 PUSH2 0x1862 JUMP JUMPDEST PUSH1 0x40 MLOAD DUP1 SWAP2 SUB SWAP1 REVERT JUMPDEST DUP1 PUSH1 0x5 ADD SLOAD TIMESTAMP LT PUSH2 0x7F6 JUMPI PUSH1 0x40 MLOAD PUSH32 0x8C379A000000000000000000000000000000000000000000000000000000000 DUP2 MSTORE PUSH1 0x4 ADD PUSH2 0x7ED SWAP1 PUSH2 0x18CA JUMP JUMPDEST PUSH1 0x40 MLOAD DUP1 SWAP2 SUB SWAP1 REVERT JUMPDEST DUP1 PUSH1 0x3 ADD SLOAD DUP3 GT PUSH2 0x83C JUMPI PUSH1 0x40 MLOAD PUSH32 0x8C379A000000000000000000000000000000000000000000000000000000000 DUP2 MSTORE PUSH1 0x4 ADD PUSH2 0x833 SWAP1 PUSH2 0x1958 JUMP JUMPDEST PUSH1 0x40 MLOAD DUP1 SWAP2 SUB SWAP1 REVERT JUMPDEST DUP1 PUSH1 0x2 ADD SLOAD DUP3 LT ISZERO PUSH2 0x883 JUMPI PUSH1 0x40 MLOAD PUSH32 0x8C379A000000000000000000000000000000000000000000000000000000000 DUP2 MSTORE PUSH1 0x4 ADD PUSH2 0x87A SWAP1 PUSH2 0x19E6 JUMP JUMPDEST PUSH1 0x40 MLOAD DUP1 SWAP2 SUB SWAP1 REVERT JUMPDEST PUSH0 DUP1 SLOAD SWAP1 PUSH2 0x100 EXP SWAP1 DIV PUSH20 0xFFFFFFFFFFFFFFFFFFFFFFFFFFFFFFFFFFFFFFFF AND PUSH20 0xFFFFFFFFFFFFFFFFFFFFFFFFFFFFFFFFFFFFFFFF AND PUSH4 0x23B872DD CALLER ADDRESS DUP6 PUSH1 0x40 MLOAD DUP5 PUSH4 0xFFFFFFFF AND PUSH1 0xE0 SHL DUP2 MSTORE PUSH1 0x4 ADD PUSH2 0x8DF SWAP4 SWAP3 SWAP2 SWAP1 PUSH2 0x1A04 JUMP JUMPDEST PUSH1 0x20 PUSH1 0x40 MLOAD DUP1 DUP4 SUB DUP2 PUSH0 DUP8 GAS CALL SWAP3 POP POP POP DUP1 ISZERO PUSH2 0x91A JUMPI POP PUSH1 0x40 MLOAD RETURNDATASIZE PUSH1 0x1F NOT PUSH1 0x1F DUP3 ADD AND DUP3 ADD DUP1 PUSH1 0x40 MSTORE POP DUP2 ADD SWAP1 PUSH2 0x917 SWAP2 SWAP1 PUSH2 0x16F0 JUMP JUMPDEST PUSH1 0x1 JUMPDEST PUSH2 0x959 JUMPI PUSH1 0x40 MLOAD PUSH32 0x8C379A000000000000000000000000000000000000000000000000000000000 DUP2 MSTORE PUSH1 0x4 ADD PUSH2 0x950 SWAP1 PUSH2 0x1A83 JUMP JUMPDEST PUSH1 0x40 MLOAD DUP1 SWAP2 SUB SWAP1 REVERT JUMPDEST POP PUSH0 DUP2 PUSH1 0x3 ADD SLOAD GT ISZERO PUSH2 0xAA8 JUMPI PUSH0 DUP1 SLOAD SWAP1 PUSH2 0x100 EXP SWAP1 DIV PUSH20 0xFFFFFFFFFFFFFFFFFFFFFFFFFFFFFFFFFFFFFFFF AND PUSH20 0xFFFFFFFFFFFFFFFFFFFFFFFFFFFFFFFFFFFFFFFF AND PUSH4 0xA9059CBB DUP3 PUSH1 0x4 ADD PUSH0 SWAP1 SLOAD SWAP1 PUSH2 0x100 EXP SWAP1 DIV PUSH20 0xFFFFFFFFFFFFFFFFFFFFFFFFFFFFFFFFFFFFFFFF AND DUP4 PUSH1 0x3 ADD SLOAD PUSH1 0x40 MLOAD DUP4 PUSH4 0xFFFFFFFF AND PUSH1 0xE0 SHL DUP2 MSTORE PUSH1 0x4 ADD PUSH2 0x9E7 SWAP3 SWAP2 SWAP1 PUSH2 0x169F JUMP JUMPDEST PUSH1 0x20 PUSH1 0x40 MLOAD DUP1 DUP4 SUB DUP2 PUSH0 DUP8 GAS CALL SWAP3 POP POP POP DUP1 ISZERO PUSH2 0xA22 JUMPI POP PUSH1 0x40 MLOAD RETURNDATASIZE PUSH1 0x1F NOT PUSH1 0x1F DUP3 ADD AND DUP3 ADD DUP1 PUSH1 0x40 MSTORE POP DUP2 ADD SWAP1 PUSH2 0xA1F SWAP2 SWAP1 PUSH2 0x16F0 JUMP JUMPDEST PUSH1 0x1 JUMPDEST PUSH2 0xAA5 JUMPI DUP1 PUSH1 0x3 ADD SLOAD PUSH1 0x1 PUSH0 DUP4 PUSH1 0x4 ADD PUSH0 SWAP1 SLOAD SWAP1 PUSH2 0x100 EXP SWAP1 DIV PUSH20 0xFFFFFFFFFFFFFFFFFFFFFFFFFFFFFFFFFFFFFFFF AND PUSH20 0xFFFFFFFFFFFFFFFFFFFFFFFFFFFFFFFFFFFFFFFF AND PUSH20 0xFFFFFFFFFFFFFFFFFFFFFFFFFFFFFFFFFFFFFFFF AND DUP2 MSTORE PUSH1 0x20 ADD SWAP1 DUP2 MSTORE PUSH1 0x20 ADD PUSH0 KECCAK256 PUSH0 DUP3 DUP3 SLOAD PUSH2 0xA99 SWAP2 SWAP1 PUSH2 0x1588 JUMP JUMPDEST SWAP3 POP POP DUP2 SWAP1 SSTORE POP PUSH2 0xAA7 JUMP JUMPDEST POP JUMPDEST JUMPDEST DUP2 DUP2 PUSH1 0x3 ADD DUP2 SWAP1 SSTORE POP CALLER DUP2 PUSH1 0x4 ADD PUSH0 PUSH2 0x100 EXP DUP2 SLOAD DUP2 PUSH20 0xFFFFFFFFFFFFFFFFFFFFFFFFFFFFFFFFFFFFFFFF MUL NOT AND SWAP1 DUP4 PUSH20 0xFFFFFFFFFFFFFFFFFFFFFFFFFFFFFFFFFFFFFFFF AND MUL OR SWAP1 SSTORE POP CALLER PUSH20 0xFFFFFFFFFFFFFFFFFFFFFFFFFFFFFFFFFFFFFFFF AND DUP4 PUSH32 0xE54EFF26401BF69B81B26F60BD85EF47F5D85275C1D268D84F68D6897431C47 DUP5 PUSH1 0x40 MLOAD PUSH2 0xB3A SWAP2 SWAP1 PUSH2 0x120F JUMP JUMPDEST PUSH1 0x40 MLOAD DUP1 SWAP2 SUB SWAP1 LOG3 POP POP POP JUMP JUMPDEST PUSH1 0x4 SLOAD DUP2 JUMP JUMPDEST PUSH1 0x3 DUP1 SLOAD SWAP1 POP DUP2 LT PUSH2 0xB94 JUMPI PUSH1 0x40 MLOAD PUSH32 0x8C379A000000000000000000000000000000000000000000000000000000000 DUP2 MSTORE PUSH1 0x4 ADD PUSH2 0xB8B SWAP1 PUSH2 0x17CD JUMP JUMPDEST PUSH1 0x40 MLOAD DUP1 SWAP2 SUB SWAP1 REVERT JUMPDEST PUSH0 PUSH1 0x3 DUP3 DUP2 SLOAD DUP2 LT PUSH2 0xBA9 JUMPI PUSH2 0xBA8 PUSH2 0x17EB JUMP JUMPDEST JUMPDEST SWAP1 PUSH0 MSTORE PUSH1 0x20 PUSH0 KECCAK256 SWAP1 PUSH1 0x6 MUL ADD SWAP1 POP DUP1 PUSH1 0x5 ADD SLOAD TIMESTAMP LT ISZERO PUSH2 0xBFE JUMPI PUSH1 0x40 MLOAD PUSH32 0x8C379A000000000000000000000000000000000000000000000000000000000 DUP2 MSTORE PUSH1 0x4 ADD PUSH2 0xBF5 SWAP1 PUSH2 0x1AEB JUMP JUMPDEST PUSH1 0x40 MLOAD DUP1 SWAP2 SUB SWAP1 REVERT JUMPDEST DUP1 PUSH1 0x4 ADD PUSH1 0x14 SWAP1 SLOAD SWAP1 PUSH2 0x100 EXP SWAP1 DIV PUSH1 0xFF AND PUSH2 0xC4F JUMPI PUSH1 0x40 MLOAD PUSH32 0x8C379A000000000000000000000000000000000000000000000000000000000 DUP2 MSTORE PUSH1 0x4 ADD PUSH2 0xC46 SWAP1 PUSH2 0x1862 JUMP JUMPDEST PUSH1 0x40 MLOAD DUP1 SWAP2 SUB SWAP1 REVERT JUMPDEST PUSH0 DUP2 PUSH1 0x4 ADD PUSH1 0x14 PUSH2 0x100 EXP DUP2 SLOAD DUP2 PUSH1 0xFF MUL NOT AND SWAP1 DUP4 ISZERO ISZERO MUL OR SWAP1 SSTORE POP PUSH0 DUP2 PUSH1 0x3 ADD SLOAD GT ISZERO PUSH2 0xEA9 JUMPI PUSH0 DUP1 SLOAD SWAP1 PUSH2 0x100 EXP SWAP1 DIV PUSH20 0xFFFFFFFFFFFFFFFFFFFFFFFFFFFFFFFFFFFFFFFF AND PUSH20 0xFFFFFFFFFFFFFFFFFFFFFFFFFFFFFFFFFFFFFFFF AND PUSH4 0xA9059CBB DUP3 PUSH1 0x1 ADD PUSH0 SWAP1 SLOAD SWAP1 PUSH2 0x100 EXP SWAP1 DIV PUSH20 0xFFFFFFFFFFFFFFFFFFFFFFFFFFFFFFFFFFFFFFFF AND DUP4 PUSH1 0x3 ADD SLOAD PUSH1 0x40 MLOAD DUP4 PUSH4 0xFFFFFFFF AND PUSH1 0xE0 SHL DUP2 MSTORE PUSH1 0x4 ADD PUSH2 0xCF8 SWAP3 SWAP2 SWAP1 PUSH2 0x169F JUMP JUMPDEST PUSH1 0x20 PUSH1 0x40 MLOAD DUP1 DUP4 SUB DUP2 PUSH0 DUP8 GAS CALL SWAP3 POP POP POP DUP1 ISZERO PUSH2 0xD33 JUMPI POP PUSH1 0x40 MLOAD RETURNDATASIZE PUSH1 0x1F NOT PUSH1 0x1F DUP3 ADD AND DUP3 ADD DUP1 PUSH1 0x40 MSTORE POP DUP2 ADD SWAP1 PUSH2 0xD30 SWAP2 SWAP1 PUSH2 0x16F0 JUMP JUMPDEST PUSH1 0x1 JUMPDEST PUSH2 0xE2C JUMPI DUP1 PUSH1 0x3 ADD SLOAD PUSH1 0x2 PUSH0 DUP4 PUSH1 0x1 ADD PUSH0 SWAP1 SLOAD SWAP1 PUSH2 0x100 EXP SWAP1 DIV PUSH20 0xFFFFFFFFFFFFFFFFFFFFFFFFFFFFFFFFFFFFFFFF AND PUSH20 0xFFFFFFFFFFFFFFFFFFFFFFFFFFFFFFFFFFFFFFFF AND PUSH20 0xFFFFFFFFFFFFFFFFFFFFFFFFFFFFFFFFFFFFFFFF AND DUP2 MSTORE PUSH1 0x20 ADD SWAP1 DUP2 MSTORE PUSH1 0x20 ADD PUSH0 KECCAK256 PUSH0 DUP3 DUP3 SLOAD PUSH2 0xDAA SWAP2 SWAP1 PUSH2 0x1588 JUMP JUMPDEST SWAP3 POP POP DUP2 SWAP1 SSTORE POP DUP1 PUSH1 0x4 ADD PUSH0 SWAP1 SLOAD SWAP1 PUSH2 0x100 EXP SWAP1 DIV PUSH20 0xFFFFFFFFFFFFFFFFFFFFFFFFFFFFFFFFFFFFFFFF AND PUSH20 0xFFFFFFFFFFFFFFFFFFFFFFFFFFFFFFFFFFFFFFFF AND DUP3 PUSH32 0x4D9113A1377D665EAA1F9168A9C9080F2E488CB820B10149DE3D6D2E0F2780C7 DUP4 PUSH1 0x3 ADD SLOAD PUSH1 0x40 MLOAD PUSH2 0xE1F SWAP2 SWAP1 PUSH2 0x120F JUMP JUMPDEST PUSH1 0x40 MLOAD DUP1 SWAP2 SUB SWAP1 LOG3 PUSH2 0xEA4 JUMP JUMPDEST POP DUP1 PUSH1 0x4 ADD PUSH0 SWAP1 SLOAD SWAP1 PUSH2 0x100 EXP SWAP1 DIV PUSH20 0xFFFFFFFFFFFFFFFFFFFFFFFFFFFFFFFFFFFFFFFF AND PUSH20 0xFFFFFFFFFFFFFFFFFFFFFFFFFFFFFFFFFFFFFFFF AND DUP3 PUSH32 0x4D9113A1377D665EAA1F9168A9C9080F2E488CB820B10149DE3D6D2E0F2780C7 DUP4 PUSH1 0x3 ADD SLOAD PUSH1 0x40 MLOAD PUSH2 0xE9B SWAP2 SWAP1 PUSH2 0x120F JUMP JUMPDEST PUSH1 0x40 MLOAD DUP1 SWAP2 SUB SWAP1 LOG3 JUMPDEST PUSH2 0xEF9 JUMP JUMPDEST PUSH0 PUSH20 0xFFFFFFFFFFFFFFFFFFFFFFFFFFFFFFFFFFFFFFFF AND DUP3 PUSH32 0x4D9113A1377D665EAA1F9168A9C9080F2E488CB820B10149DE3D6D2E0F2780C7 PUSH0 PUSH1 0x40 MLOAD PUSH2 0xEF0 SWAP2 SWAP1 PUSH2 0x1B42 JUMP JUMPDEST PUSH1 0x40 MLOAD DUP1 SWAP2 SUB SWAP1 LOG3 JUMPDEST POP POP JUMP JUMPDEST PUSH2 0xF05 PUSH2 0x10A2 JUMP JUMPDEST PUSH1 0x3 DUP1 SLOAD SWAP1 POP DUP3 LT PUSH2 0xF4C JUMPI PUSH1 0x40 MLOAD PUSH32 0x8C379A000000000000000000000000000000000000000000000000000000000 DUP2 MSTORE PUSH1 0x4 ADD PUSH2 0xF43 SWAP1 PUSH2 0x17CD JUMP JUMPDEST PUSH1 0x40 MLOAD DUP1 SWAP2 SUB SWAP1 REVERT JUMPDEST PUSH1 0x3 DUP3 DUP2 SLOAD DUP2 LT PUSH2 0xF60 JUMPI PUSH2 0xF5F PUSH2 0x17EB JUMP JUMPDEST JUMPDEST SWAP1 PUSH0 MSTORE PUSH1 0x20 PUSH0 KECCAK256 SWAP1 PUSH1 0x6 MUL ADD PUSH1 0x40 MLOAD DUP1 PUSH1 0xE0 ADD PUSH1 0x40 MSTORE SWAP1 DUP2 PUSH0 DUP3 ADD SLOAD DUP2 MSTORE PUSH1 0x20 ADD PUSH1 0x1 DUP3 ADD PUSH0 SWAP1 SLOAD SWAP1 PUSH2 0x100 EXP SWAP1 DIV PUSH20 0xFFFFFFFFFFFFFFFFFFFFFFFFFFFFFFFFFFFFFFFF AND PUSH20 0xFFFFFFFFFFFFFFFFFFFFFFFFFFFFFFFFFFFFFFFF AND PUSH20 0xFFFFFFFFFFFFFFFFFFFFFFFFFFFFFFFFFFFFFFFF AND DUP2 MSTORE PUSH1 0x20 ADD PUSH1 0x2 DUP3 ADD SLOAD DUP2 MSTORE PUSH1 0x20 ADD PUSH1 0x3 DUP3 ADD SLOAD DUP2 MSTORE PUSH1 0x20 ADD PUSH1 0x4 DUP3 ADD PUSH0 SWAP1 SLOAD SWAP1 PUSH2 0x100 EXP SWAP1 DIV PUSH20 0xFFFFFFFFFFFFFFFFFFFFFFFFFFFFFFFFFFFFFFFF AND PUSH20 0xFFFFFFFFFFFFFFFFFFFFFFFFFFFFFFFFFFFFFFFF AND PUSH20 0xFFFFFFFFFFFFFFFFFFFFFFFFFFFFFFFFFFFFFFFF AND DUP2 MSTORE PUSH1 0x20 ADD PUSH1 0x4 DUP3 ADD PUSH1 0x14 SWAP1 SLOAD SWAP1 PUSH2 0x100 EXP SWAP1 DIV PUSH1 0xFF AND ISZERO ISZERO ISZERO ISZERO DUP2 MSTORE PUSH1 0x20 ADD PUSH1 0x5 DUP3 ADD SLOAD DUP2 MSTORE POP POP SWAP1 POP SWAP2 SWAP1 POP JUMP JUMPDEST PUSH1 0x1 PUSH1 0x20 MSTORE DUP1 PUSH0 MSTORE PUSH1 0x40 PUSH0 KECCAK256 PUSH0 SWAP2 POP SWAP1 POP SLOAD DUP2 JUMP JUMPDEST PUSH0 DUP1 SLOAD SWAP1 PUSH2 0x100 EXP SWAP1 DIV PUSH20 0xFFFFFFFFFFFFFFFFFFFFFFFFFFFFFFFFFFFFFFFF AND DUP2 JUMP JUMPDEST PUSH1 0x40 MLOAD DUP1 PUSH1 0xE0 ADD PUSH1 0x40 MSTORE DUP1 PUSH0 DUP2 MSTORE PUSH1 0x20 ADD PUSH0 PUSH20 0xFFFFFFFFFFFFFFFFFFFFFFFFFFFFFFFFFFFFFFFF AND DUP2 MSTORE PUSH1 0x20 ADD PUSH0 DUP2 MSTORE PUSH1 0x20 ADD PUSH0 DUP2 MSTORE PUSH1 0x20 ADD PUSH0 PUSH20 0xFFFFFFFFFFFFFFFFFFFFFFFFFFFFFFFFFFFFFFFF AND DUP2 MSTORE PUSH1 0x20 ADD PUSH0 ISZERO ISZERO DUP2 MSTORE PUSH1 0x20 ADD PUSH0 DUP2 MSTORE POP SWAP1 JUMP JUMPDEST PUSH0 DUP1 REVERT JUMPDEST PUSH0 DUP2 SWAP1 POP SWAP2 SWAP1 POP JUMP JUMPDEST PUSH2 0x111C DUP2 PUSH2 0x110A JUMP JUMPDEST DUP2 EQ PUSH2 0x1126 JUMPI PUSH0 DUP1 REVERT JUMPDEST POP JUMP JUMPDEST PUSH0 DUP2 CALLDATALOAD SWAP1 POP PUSH2 0x1137 DUP2 PUSH2 0x1113 JUMP JUMPDEST SWAP3 SWAP2 POP POP JUMP JUMPDEST PUSH0 DUP1 PUSH1 0x40 DUP4 DUP6 SUB SLT ISZERO PUSH2 0x1153 JUMPI PUSH2 0x1152 PUSH2 0x1106 JUMP JUMPDEST JUMPDEST PUSH0 PUSH2 0x1160 DUP6 DUP3 DUP7 ADD PUSH2 0x1129 JUMP JUMPDEST SWAP3 POP POP PUSH1 0x20 PUSH2 0x1171 DUP6 DUP3 DUP7 ADD PUSH2 0x1129 JUMP JUMPDEST SWAP2 POP POP SWAP3 POP SWAP3 SWAP1 POP JUMP JUMPDEST PUSH0 PUSH20 0xFFFFFFFFFFFFFFFFFFFFFFFFFFFFFFFFFFFFFFFF DUP3 AND SWAP1 POP SWAP2 SWAP1 POP JUMP JUMPDEST PUSH0 PUSH2 0x11A4 DUP3 PUSH2 0x117B JUMP JUMPDEST SWAP1 POP SWAP2 SWAP1 POP JUMP JUMPDEST PUSH2 0x11B4 DUP2 PUSH2 0x119A JUMP JUMPDEST DUP2 EQ PUSH2 0x11BE JUMPI PUSH0 DUP1 REVERT JUMPDEST POP JUMP JUMPDEST PUSH0 DUP2 CALLDATALOAD SWAP1 POP PUSH2 0x11CF DUP2 PUSH2 0x11AB JUMP JUMPDEST SWAP3 SWAP2 POP POP JUMP JUMPDEST PUSH0 PUSH1 0x20 DUP3 DUP5 SUB SLT ISZERO PUSH2 0x11EA JUMPI PUSH2 0x11E9 PUSH2 0x1106 JUMP JUMPDEST JUMPDEST PUSH0 PUSH2 0x11F7 DUP5 DUP3 DUP6 ADD PUSH2 0x11C1 JUMP JUMPDEST SWAP2 POP POP SWAP3 SWAP2 POP POP JUMP JUMPDEST PUSH2 0x1209 DUP2 PUSH2 0x110A JUMP JUMPDEST DUP3 MSTORE POP POP JUMP JUMPDEST PUSH0 PUSH1 0x20 DUP3 ADD SWAP1 POP PUSH2 0x1222 PUSH0 DUP4 ADD DUP5 PUSH2 0x1200 JUMP JUMPDEST SWAP3 SWAP2 POP POP JUMP JUMPDEST PUSH0 PUSH1 0x20 DUP3 DUP5 SUB SLT ISZERO PUSH2 0x123D JUMPI PUSH2 0x123C PUSH2 0x1106 JUMP JUMPDEST JUMPDEST PUSH0 PUSH2 0x124A DUP5 DUP3 DUP6 ADD PUSH2 0x1129 JUMP JUMPDEST SWAP2 POP POP SWAP3 SWAP2 POP POP JUMP JUMPDEST PUSH2 0x125C DUP2 PUSH2 0x119A JUMP JUMPDEST DUP3 MSTORE POP POP JUMP JUMPDEST PUSH0 DUP2 ISZERO ISZERO SWAP1 POP SWAP2 SWAP1 POP JUMP JUMPDEST PUSH2 0x1276 DUP2 PUSH2 0x1262 JUMP JUMPDEST DUP3 MSTORE POP POP JUMP JUMPDEST PUSH0 PUSH1 0xE0 DUP3 ADD SWAP1 POP PUSH2 0x128F PUSH0 DUP4 ADD DUP11 PUSH2 0x1200 JUMP JUMPDEST PUSH2 0x129C PUSH1 0x20 DUP4 ADD DUP10 PUSH2 0x1253 JUMP JUMPDEST PUSH2 0x12A9 PUSH1 0x40 DUP4 ADD DUP9 PUSH2 0x1200 JUMP JUMPDEST PUSH2 0x12B6 PUSH1 0x60 DUP4 ADD DUP8 PUSH2 0x1200 JUMP JUMPDEST PUSH2 0x12C3 PUSH1 0x80 DUP4 ADD DUP7 PUSH2 0x1253 JUMP JUMPDEST PUSH2 0x12D0 PUSH1 0xA0 DUP4 ADD DUP6 PUSH2 0x126D JUMP JUMPDEST PUSH2 0x12DD PUSH1 0xC0 DUP4 ADD DUP5 PUSH2 0x1200 JUMP JUMPDEST SWAP9 SWAP8 POP POP POP POP POP POP POP POP JUMP JUMPDEST PUSH2 0x12F2 DUP2 PUSH2 0x110A JUMP JUMPDEST DUP3 MSTORE POP POP JUMP JUMPDEST PUSH2 0x1301 DUP2 PUSH2 0x119A JUMP JUMPDEST DUP3 MSTORE POP POP JUMP JUMPDEST PUSH2 0x1310 DUP2 PUSH2 0x1262 JUMP JUMPDEST DUP3 MSTORE POP POP JUMP JUMPDEST PUSH1 0xE0 DUP3 ADD PUSH0 DUP3 ADD MLOAD PUSH2 0x132A PUSH0 DUP6 ADD DUP3 PUSH2 0x12E9 JUMP JUMPDEST POP PUSH1 0x20 DUP3 ADD MLOAD PUSH2 0x133D PUSH1 0x20 DUP6 ADD DUP3 PUSH2 0x12F8 JUMP JUMPDEST POP PUSH1 0x40 DUP3 ADD MLOAD PUSH2 0x1350 PUSH1 0x40 DUP6 ADD DUP3 PUSH2 0x12E9 JUMP JUMPDEST POP PUSH1 0x60 DUP3 ADD MLOAD PUSH2 0x1363 PUSH1 0x60 DUP6 ADD DUP3 PUSH2 0x12E9 JUMP JUMPDEST POP PUSH1 0x80 DUP3 ADD MLOAD PUSH2 0x1376 PUSH1 0x80 DUP6 ADD DUP3 PUSH2 0x12F8 JUMP JUMPDEST POP PUSH1 0xA0 DUP3 ADD MLOAD PUSH2 0x1389 PUSH1 0xA0 DUP6 ADD DUP3 PUSH2 0x1307 JUMP JUMPDEST POP PUSH1 0xC0 DUP3 ADD MLOAD PUSH2 0x139C PUSH1 0xC0 DUP6 ADD DUP3 PUSH2 0x12E9 JUMP JUMPDEST POP POP POP POP JUMP JUMPDEST PUSH0 PUSH1 0xE0 DUP3 ADD SWAP1 POP PUSH2 0x13B5 PUSH0 DUP4 ADD DUP5 PUSH2 0x1316 JUMP JUMPDEST SWAP3 SWAP2 POP POP JUMP JUMPDEST PUSH0 DUP2 SWAP1 POP SWAP2 SWAP1 POP JUMP JUMPDEST PUSH0 PUSH2 0x13DE PUSH2 0x13D9 PUSH2 0x13D4 DUP5 PUSH2 0x117B JUMP JUMPDEST PUSH2 0x13BB JUMP JUMPDEST PUSH2 0x117B JUMP JUMPDEST SWAP1 POP SWAP2 SWAP1 POP JUMP JUMPDEST PUSH0 PUSH2 0x13EF DUP3 PUSH2 0x13C4 JUMP JUMPDEST SWAP1 POP SWAP2 SWAP1 POP JUMP JUMPDEST PUSH0 PUSH2 0x1400 DUP3 PUSH2 0x13E5 JUMP JUMPDEST SWAP1 POP SWAP2 SWAP1 POP JUMP JUMPDEST PUSH2 0x1410 DUP2 PUSH2 0x13F6 JUMP JUMPDEST DUP3 MSTORE POP POP JUMP JUMPDEST PUSH0 PUSH1 0x20 DUP3 ADD SWAP1 POP PUSH2 0x1429 PUSH0 DUP4 ADD DUP5 PUSH2 0x1407 JUMP JUMPDEST SWAP3 SWAP2 POP POP JUMP JUMPDEST PUSH0 DUP3 DUP3 MSTORE PUSH1 0x20 DUP3 ADD SWAP1 POP SWAP3 SWAP2 POP POP JUMP JUMPDEST PUSH32 0x4D696E696D756D20626964206D7573742062652067726561746572207468616E PUSH0 DUP3 ADD MSTORE PUSH32 0x207A65726F2E0000000000000000000000000000000000000000000000000000 PUSH1 0x20 DUP3 ADD MSTORE POP JUMP JUMPDEST PUSH0 PUSH2 0x1499 PUSH1 0x26 DUP4 PUSH2 0x142F JUMP JUMPDEST SWAP2 POP PUSH2 0x14A4 DUP3 PUSH2 0x143F JUMP JUMPDEST PUSH1 0x40 DUP3 ADD SWAP1 POP SWAP2 SWAP1 POP JUMP JUMPDEST PUSH0 PUSH1 0x20 DUP3 ADD SWAP1 POP DUP2 DUP2 SUB PUSH0 DUP4 ADD MSTORE PUSH2 0x14C6 DUP2 PUSH2 0x148D JUMP JUMPDEST SWAP1 POP SWAP2 SWAP1 POP JUMP JUMPDEST PUSH32 0x4475726174696F6E206D7573742062652067726561746572207468616E207A65 PUSH0 DUP3 ADD MSTORE PUSH32 0x726F2E0000000000000000000000000000000000000000000000000000000000 PUSH1 0x20 DUP3 ADD MSTORE POP JUMP JUMPDEST PUSH0 PUSH2 0x1527 PUSH1 0x23 DUP4 PUSH2 0x142F JUMP JUMPDEST SWAP2 POP PUSH2 0x1532 DUP3 PUSH2 0x14CD JUMP JUMPDEST PUSH1 0x40 DUP3 ADD SWAP1 POP SWAP2 SWAP1 POP JUMP JUMPDEST PUSH0 PUSH1 0x20 DUP3 ADD SWAP1 POP DUP2 DUP2 SUB PUSH0 DUP4 ADD MSTORE PUSH2 0x1554 DUP2 PUSH2 0x151B JUMP JUMPDEST SWAP1 POP SWAP2 SWAP1 POP JUMP JUMPDEST PUSH32 0x4E487B7100000000000000000000000000000000000000000000000000000000 PUSH0 MSTORE PUSH1 0x11 PUSH1 0x4 MSTORE PUSH1 0x24 PUSH0 REVERT JUMPDEST PUSH0 PUSH2 0x1592 DUP3 PUSH2 0x110A JUMP JUMPDEST SWAP2 POP PUSH2 0x159D DUP4 PUSH2 0x110A JUMP JUMPDEST SWAP3 POP DUP3 DUP3 ADD SWAP1 POP DUP1 DUP3 GT ISZERO PUSH2 0x15B5 JUMPI PUSH2 0x15B4 PUSH2 0x155B JUMP JUMPDEST JUMPDEST SWAP3 SWAP2 POP POP JUMP JUMPDEST PUSH0 PUSH1 0x60 DUP3 ADD SWAP1 POP PUSH2 0x15CE PUSH0 DUP4 ADD DUP7 PUSH2 0x1200 JUMP JUMPDEST PUSH2 0x15DB PUSH1 0x20 DUP4 ADD DUP6 PUSH2 0x1200 JUMP JUMPDEST PUSH2 0x15E8 PUSH1 0x40 DUP4 ADD DUP5 PUSH2 0x1200 JUMP JUMPDEST SWAP5 SWAP4 POP POP POP POP JUMP JUMPDEST PUSH0 PUSH2 0x15FA DUP3 PUSH2 0x110A JUMP JUMPDEST SWAP2 POP PUSH32 0xFFFFFFFFFFFFFFFFFFFFFFFFFFFFFFFFFFFFFFFFFFFFFFFFFFFFFFFFFFFFFFFF DUP3 SUB PUSH2 0x162C JUMPI PUSH2 0x162B PUSH2 0x155B JUMP JUMPDEST JUMPDEST PUSH1 0x1 DUP3 ADD SWAP1 POP SWAP2 SWAP1 POP JUMP JUMPDEST PUSH32 0x4E6F2070656E64696E672066756E64732E000000000000000000000000000000 PUSH0 DUP3 ADD MSTORE POP JUMP JUMPDEST PUSH0 PUSH2 0x166B PUSH1 0x11 DUP4 PUSH2 0x142F JUMP JUMPDEST SWAP2 POP PUSH2 0x1676 DUP3 PUSH2 0x1637 JUMP JUMPDEST PUSH1 0x20 DUP3 ADD SWAP1 POP SWAP2 SWAP1 POP JUMP JUMPDEST PUSH0 PUSH1 0x20 DUP3 ADD SWAP1 POP DUP2 DUP2 SUB PUSH0 DUP4 ADD MSTORE PUSH2 0x1698 DUP2 PUSH2 0x165F JUMP JUMPDEST SWAP1 POP SWAP2 SWAP1 POP JUMP JUMPDEST PUSH0 PUSH1 0x40 DUP3 ADD SWAP1 POP PUSH2 0x16B2 PUSH0 DUP4 ADD DUP6 PUSH2 0x1253 JUMP JUMPDEST PUSH2 0x16BF PUSH1 0x20 DUP4 ADD DUP5 PUSH2 0x1200 JUMP JUMPDEST SWAP4 SWAP3 POP POP POP JUMP JUMPDEST PUSH2 0x16CF DUP2 PUSH2 0x1262 JUMP JUMPDEST DUP2 EQ PUSH2 0x16D9 JUMPI PUSH0 DUP1 REVERT JUMPDEST POP JUMP JUMPDEST PUSH0 DUP2 MLOAD SWAP1 POP PUSH2 0x16EA DUP2 PUSH2 0x16C6 JUMP JUMPDEST SWAP3 SWAP2 POP POP JUMP JUMPDEST PUSH0 PUSH1 0x20 DUP3 DUP5 SUB SLT ISZERO PUSH2 0x1705 JUMPI PUSH2 0x1704 PUSH2 0x1106 JUMP JUMPDEST JUMPDEST PUSH0 PUSH2 0x1712 DUP5 DUP3 DUP6 ADD PUSH2 0x16DC JUMP JUMPDEST SWAP2 POP POP SWAP3 SWAP2 POP POP JUMP JUMPDEST PUSH32 0x5769746864726177206661696C65642E00000000000000000000000000000000 PUSH0 DUP3 ADD MSTORE POP JUMP JUMPDEST PUSH0 PUSH2 0x174F PUSH1 0x10 DUP4 PUSH2 0x142F JUMP JUMPDEST SWAP2 POP PUSH2 0x175A DUP3 PUSH2 0x171B JUMP JUMPDEST PUSH1 0x20 DUP3 ADD SWAP1 POP SWAP2 SWAP1 POP JUMP JUMPDEST PUSH0 PUSH1 0x20 DUP3 ADD SWAP1 POP DUP2 DUP2 SUB PUSH0 DUP4 ADD MSTORE PUSH2 0x177C DUP2 PUSH2 0x1743 JUMP JUMPDEST SWAP1 POP SWAP2 SWAP1 POP JUMP JUMPDEST PUSH32 0x41756374696F6E20646F6573206E6F742065786973742E000000000000000000 PUSH0 DUP3 ADD MSTORE POP JUMP JUMPDEST PUSH0 PUSH2 0x17B7 PUSH1 0x17 DUP4 PUSH2 0x142F JUMP JUMPDEST SWAP2 POP PUSH2 0x17C2 DUP3 PUSH2 0x1783 JUMP JUMPDEST PUSH1 0x20 DUP3 ADD SWAP1 POP SWAP2 SWAP1 POP JUMP JUMPDEST PUSH0 PUSH1 0x20 DUP3 ADD SWAP1 POP DUP2 DUP2 SUB PUSH0 DUP4 ADD MSTORE PUSH2 0x17E4 DUP2 PUSH2 0x17AB JUMP JUMPDEST SWAP1 POP SWAP2 SWAP1 POP JUMP JUMPDEST PUSH32 0x4E487B7100000000000000000000000000000000000000000000000000000000 PUSH0 MSTORE PUSH1 0x32 PUSH1 0x4 MSTORE PUSH1 0x24 PUSH0 REVERT JUMPDEST PUSH32 0x41756374696F6E206973206E6F74206163746976652E00000000000000000000 PUSH0 DUP3 ADD MSTORE POP JUMP JUMPDEST PUSH0 PUSH2 0x184C PUSH1 0x16 DUP4 PUSH2 0x142F JUMP JUMPDEST SWAP2 POP PUSH2 0x1857 DUP3 PUSH2 0x1818 JUMP JUMPDEST PUSH1 0x20 DUP3 ADD SWAP1 POP SWAP2 SWAP1 POP JUMP JUMPDEST PUSH0 PUSH1 0x20 DUP3 ADD SWAP1 POP DUP2 DUP2 SUB PUSH0 DUP4 ADD MSTORE PUSH2 0x1879 DUP2 PUSH2 0x1840 JUMP JUMPDEST SWAP1 POP SWAP2 SWAP1 POP JUMP JUMPDEST PUSH32 0x41756374696F6E2068617320656E6465642E0000000000000000000000000000 PUSH0 DUP3 ADD MSTORE POP JUMP JUMPDEST PUSH0 PUSH2 0x18B4 PUSH1 0x12 DUP4 PUSH2 0x142F JUMP JUMPDEST SWAP2 POP PUSH2 0x18BF DUP3 PUSH2 0x1880 JUMP JUMPDEST PUSH1 0x20 DUP3 ADD SWAP1 POP SWAP2 SWAP1 POP JUMP JUMPDEST PUSH0 PUSH1 0x20 DUP3 ADD SWAP1 POP DUP2 DUP2 SUB PUSH0 DUP4 ADD MSTORE PUSH2 0x18E1 DUP2 PUSH2 0x18A8 JUMP JUMPDEST SWAP1 POP SWAP2 SWAP1 POP JUMP JUMPDEST PUSH32 0x426964206D75737420626520686967686572207468616E207468652063757272 PUSH0 DUP3 ADD MSTORE PUSH32 0x656E742068696768657374206269642E00000000000000000000000000000000 PUSH1 0x20 DUP3 ADD MSTORE POP JUMP JUMPDEST PUSH0 PUSH2 0x1942 PUSH1 0x30 DUP4 PUSH2 0x142F JUMP JUMPDEST SWAP2 POP PUSH2 0x194D DUP3 PUSH2 0x18E8 JUMP JUMPDEST PUSH1 0x40 DUP3 ADD SWAP1 POP SWAP2 SWAP1 POP JUMP JUMPDEST PUSH0 PUSH1 0x20 DUP3 ADD SWAP1 POP DUP2 DUP2 SUB PUSH0 DUP4 ADD MSTORE PUSH2 0x196F DUP2 PUSH2 0x1936 JUMP JUMPDEST SWAP1 POP SWAP2 SWAP1 POP JUMP JUMPDEST PUSH32 0x426964206D757374206D65657420746865206D696E696D756D2062696420616D PUSH0 DUP3 ADD MSTORE PUSH32 0x6F756E742E000000000000000000000000000000000000000000000000000000 PUSH1 0x20 DUP3 ADD MSTORE POP JUMP JUMPDEST PUSH0 PUSH2 0x19D0 PUSH1 0x25 DUP4 PUSH2 0x142F JUMP JUMPDEST SWAP2 POP PUSH2 0x19DB DUP3 PUSH2 0x1976 JUMP JUMPDEST PUSH1 0x40 DUP3 ADD SWAP1 POP SWAP2 SWAP1 POP JUMP JUMPDEST PUSH0 PUSH1 0x20 DUP3 ADD SWAP1 POP DUP2 DUP2 SUB PUSH0 DUP4 ADD MSTORE PUSH2 0x19FD DUP2 PUSH2 0x19C4 JUMP JUMPDEST SWAP1 POP SWAP2 SWAP1 POP JUMP JUMPDEST PUSH0 PUSH1 0x60 DUP3 ADD SWAP1 POP PUSH2 0x1A17 PUSH0 DUP4 ADD DUP7 PUSH2 0x1253 JUMP JUMPDEST PUSH2 0x1A24 PUSH1 0x20 DUP4 ADD DUP6 PUSH2 0x1253 JUMP JUMPDEST PUSH2 0x1A31 PUSH1 0x40 DUP4 ADD DUP5 PUSH2 0x1200 JUMP JUMPDEST SWAP5 SWAP4 POP POP POP POP JUMP JUMPDEST PUSH32 0x546F6B656E207472616E73666572206661696C65642E00000000000000000000 PUSH0 DUP3 ADD MSTORE POP JUMP JUMPDEST PUSH0 PUSH2 0x1A6D PUSH1 0x16 DUP4 PUSH2 0x142F JUMP JUMPDEST SWAP2 POP PUSH2 0x1A78 DUP3 PUSH2 0x1A39 JUMP JUMPDEST PUSH1 0x20 DUP3 ADD SWAP1 POP SWAP2 SWAP1 POP JUMP JUMPDEST PUSH0 PUSH1 0x20 DUP3 ADD SWAP1 POP DUP2 DUP2 SUB PUSH0 DUP4 ADD MSTORE PUSH2 0x1A9A DUP2 PUSH2 0x1A61 JUMP JUMPDEST SWAP1 POP SWAP2 SWAP1 POP JUMP JUMPDEST PUSH32 0x41756374696F6E20686173206E6F7420656E6465642E00000000000000000000 PUSH0 DUP3 ADD MSTORE POP JUMP JUMPDEST PUSH0 PUSH2 0x1AD5 PUSH1 0x16 DUP4 PUSH2 0x142F JUMP JUMPDEST SWAP2 POP PUSH2 0x1AE0 DUP3 PUSH2 0x1AA1 JUMP JUMPDEST PUSH1 0x20 DUP3 ADD SWAP1 POP SWAP2 SWAP1 POP JUMP JUMPDEST PUSH0 PUSH1 0x20 DUP3 ADD SWAP1 POP DUP2 DUP2 SUB PUSH0 DUP4 ADD MSTORE PUSH2 0x1B02 DUP2 PUSH2 0x1AC9 JUMP JUMPDEST SWAP1 POP SWAP2 SWAP1 POP JUMP JUMPDEST PUSH0 DUP2 SWAP1 POP SWAP2 SWAP1 POP JUMP JUMPDEST PUSH0 PUSH2 0x1B2C PUSH2 0x1B27 PUSH2 0x1B22 DUP5 PUSH2 0x1B09 JUMP JUMPDEST PUSH2 0x13BB JUMP JUMPDEST PUSH2 0x110A JUMP JUMPDEST SWAP1 POP SWAP2 SWAP1 POP JUMP JUMPDEST PUSH2 0x1B3C DUP2 PUSH2 0x1B12 JUMP JUMPDEST DUP3 MSTORE POP POP JUMP JUMPDEST PUSH0 PUSH1 0x20 DUP3 ADD SWAP1 POP PUSH2 0x1B55 PUSH0 DUP4 ADD DUP5 PUSH2 0x1B33 JUMP JUMPDEST SWAP3 SWAP2 POP POP JUMP INVALID LOG2 PUSH5 0x6970667358 0x22 SLT KECCAK256 0xF 0xF7 0x28 DUP2 SELFBALANCE TLOAD CALLVALUE JUMPDEST PUSH3 0xBA4080 0x21 0xDE MULMOD 0xC SWAP11 0xEF PUSH16 0x2432171F816096A96EF33D422C64736F PUSH13 0x634300081A0033000000000000 "
				},
				"gasEstimates": {
					"creation": {
						"codeDepositCost": "1411400",
						"executionCost": "infinite",
						"totalCost": "infinite"
					},
					"external": {
						"auctionIdCounter()": "2425",
						"auctions(uint256)": "infinite",
						"createAuction(uint256,uint256)": "infinite",
						"finalizeAuction(uint256)": "infinite",
						"getAuctionDetails(uint256)": "infinite",
						"pendingWithdrawals(address)": "2868",
						"placeBid(uint256,uint256)": "infinite",
						"sellerPendingWithdrawals(address)": "2825",
						"token()": "infinite",
						"withdrawSellerFunds()": "infinite"
					}
				},
				"methodIdentifiers": {
					"auctionIdCounter()": "de0794ef",
					"auctions(uint256)": "571a26a0",
					"createAuction(uint256,uint256)": "0121683f",
					"finalizeAuction(uint256)": "e8083863",
					"getAuctionDetails(uint256)": "f20e5e35",
					"pendingWithdrawals(address)": "f3f43703",
					"placeBid(uint256,uint256)": "57c90de5",
					"sellerPendingWithdrawals(address)": "0cbb180c",
					"token()": "fc0c546a",
					"withdrawSellerFunds()": "435fbd55"
				}
			},
			"storageLayout": {
				"storage": [
					{
						"astId": 84,
						"contract": "assignment contracts/W5 Auction.sol:Auction",
						"label": "token",
						"offset": 0,
						"slot": "0",
						"type": "t_contract(IERC20)77"
					},
					{
						"astId": 103,
						"contract": "assignment contracts/W5 Auction.sol:Auction",
						"label": "pendingWithdrawals",
						"offset": 0,
						"slot": "1",
						"type": "t_mapping(t_address,t_uint256)"
					},
					{
						"astId": 107,
						"contract": "assignment contracts/W5 Auction.sol:Auction",
						"label": "sellerPendingWithdrawals",
						"offset": 0,
						"slot": "2",
						"type": "t_mapping(t_address,t_uint256)"
					},
					{
						"astId": 111,
						"contract": "assignment contracts/W5 Auction.sol:Auction",
						"label": "auctions",
						"offset": 0,
						"slot": "3",
						"type": "t_array(t_struct(AuctionItem)99_storage)dyn_storage"
					},
					{
						"astId": 113,
						"contract": "assignment contracts/W5 Auction.sol:Auction",
						"label": "auctionIdCounter",
						"offset": 0,
						"slot": "4",
						"type": "t_uint256"
					}
				],
				"types": {
					"t_address": {
						"encoding": "inplace",
						"label": "address",
						"numberOfBytes": "20"
					},
					"t_array(t_struct(AuctionItem)99_storage)dyn_storage": {
						"base": "t_struct(AuctionItem)99_storage",
						"encoding": "dynamic_array",
						"label": "struct Auction.AuctionItem[]",
						"numberOfBytes": "32"
					},
					"t_bool": {
						"encoding": "inplace",
						"label": "bool",
						"numberOfBytes": "1"
					},
					"t_contract(IERC20)77": {
						"encoding": "inplace",
						"label": "contract IERC20",
						"numberOfBytes": "20"
					},
					"t_mapping(t_address,t_uint256)": {
						"encoding": "mapping",
						"key": "t_address",
						"label": "mapping(address => uint256)",
						"numberOfBytes": "32",
						"value": "t_uint256"
					},
					"t_struct(AuctionItem)99_storage": {
						"encoding": "inplace",
						"label": "struct Auction.AuctionItem",
						"members": [
							{
								"astId": 86,
								"contract": "assignment contracts/W5 Auction.sol:Auction",
								"label": "id",
								"offset": 0,
								"slot": "0",
								"type": "t_uint256"
							},
							{
								"astId": 88,
								"contract": "assignment contracts/W5 Auction.sol:Auction",
								"label": "seller",
								"offset": 0,
								"slot": "1",
								"type": "t_address"
							},
							{
								"astId": 90,
								"contract": "assignment contracts/W5 Auction.sol:Auction",
								"label": "minBid",
								"offset": 0,
								"slot": "2",
								"type": "t_uint256"
							},
							{
								"astId": 92,
								"contract": "assignment contracts/W5 Auction.sol:Auction",
								"label": "highestBid",
								"offset": 0,
								"slot": "3",
								"type": "t_uint256"
							},
							{
								"astId": 94,
								"contract": "assignment contracts/W5 Auction.sol:Auction",
								"label": "highestBidder",
								"offset": 0,
								"slot": "4",
								"type": "t_address"
							},
							{
								"astId": 96,
								"contract": "assignment contracts/W5 Auction.sol:Auction",
								"label": "isActive",
								"offset": 20,
								"slot": "4",
								"type": "t_bool"
							},
							{
								"astId": 98,
								"contract": "assignment contracts/W5 Auction.sol:Auction",
								"label": "endTime",
								"offset": 0,
								"slot": "5",
								"type": "t_uint256"
							}
						],
						"numberOfBytes": "192"
					},
					"t_uint256": {
						"encoding": "inplace",
						"label": "uint256",
						"numberOfBytes": "32"
					}
				}
			},
			"userdoc": {
				"kind": "user",
				"methods": {},
				"version": 1
			}
		}
	}
}