{
	"assignment contracts/W2 SafeLottery.sol": {
		"SafeLottery": {
			"abi": [
				{
					"inputs": [
						{
							"internalType": "contract IERC20",
							"name": "_token",
							"type": "address"
						},
						{
							"internalType": "uint256",
							"name": "_ticketPrice",
							"type": "uint256"
						}
					],
					"stateMutability": "nonpayable",
					"type": "constructor"
				},
				{
					"anonymous": false,
					"inputs": [
						{
							"indexed": false,
							"internalType": "address",
							"name": "winner",
							"type": "address"
						},
						{
							"indexed": false,
							"internalType": "uint256",
							"name": "amount",
							"type": "uint256"
						}
					],
					"name": "PayoutFailed",
					"type": "event"
				},
				{
					"anonymous": false,
					"inputs": [
						{
							"indexed": false,
							"internalType": "address",
							"name": "participant",
							"type": "address"
						}
					],
					"name": "TicketPurchased",
					"type": "event"
				},
				{
					"anonymous": false,
					"inputs": [
						{
							"indexed": false,
							"internalType": "address",
							"name": "winner",
							"type": "address"
						}
					],
					"name": "WinnerSelected",
					"type": "event"
				},
				{
					"inputs": [],
					"name": "buyTicket",
					"outputs": [],
					"stateMutability": "nonpayable",
					"type": "function"
				},
				{
					"inputs": [],
					"name": "generateRandomNumber",
					"outputs": [
						{
							"internalType": "uint256",
							"name": "",
							"type": "uint256"
						}
					],
					"stateMutability": "view",
					"type": "function"
				},
				{
					"inputs": [],
					"name": "getParticipants",
					"outputs": [
						{
							"internalType": "address[]",
							"name": "",
							"type": "address[]"
						}
					],
					"stateMutability": "view",
					"type": "function"
				},
				{
					"inputs": [],
					"name": "selectWinner",
					"outputs": [],
					"stateMutability": "nonpayable",
					"type": "function"
				},
				{
					"inputs": [],
					"name": "ticketPrice",
					"outputs": [
						{
							"internalType": "uint256",
							"name": "",
							"type": "uint256"
						}
					],
					"stateMutability": "view",
					"type": "function"
				},
				{
					"inputs": [],
					"name": "ticketPurchaseDeadline",
					"outputs": [
						{
							"internalType": "uint256",
							"name": "",
							"type": "uint256"
						}
					],
					"stateMutability": "view",
					"type": "function"
				},
				{
					"inputs": [],
					"name": "token",
					"outputs": [
						{
							"internalType": "contract IERC20",
							"name": "",
							"type": "address"
						}
					],
					"stateMutability": "view",
					"type": "function"
				}
			],
			"devdoc": {
				"kind": "dev",
				"methods": {},
				"version": 1
			},
			"evm": {
				"assembly": "    /* \"assignment contracts/W2 SafeLottery.sol\":339:3319  contract SafeLottery {... */\n  mstore(0x40, 0x80)\n    /* \"assignment contracts/W2 SafeLottery.sol\":814:1151  constructor(IERC20 _token, uint256 _ticketPrice) {... */\n  callvalue\n  dup1\n  iszero\n  tag_1\n  jumpi\n  0x00\n  dup1\n  revert\ntag_1:\n  pop\n  mload(0x40)\n  sub(codesize, bytecodeSize)\n  dup1\n  bytecodeSize\n  dup4\n  codecopy\n  dup2\n  dup2\n  add\n  0x40\n  mstore\n  dup2\n  add\n  swap1\n  tag_2\n  swap2\n  swap1\n  tag_3\n  jump\t// in\ntag_2:\n    /* \"assignment contracts/W2 SafeLottery.sol\":909:910  0 */\n  0x00\n    /* \"assignment contracts/W2 SafeLottery.sol\":882:911  address(_token) != address(0) */\n  0xffffffffffffffffffffffffffffffffffffffff\n  and\n    /* \"assignment contracts/W2 SafeLottery.sol\":890:896  _token */\n  dup3\n    /* \"assignment contracts/W2 SafeLottery.sol\":882:911  address(_token) != address(0) */\n  0xffffffffffffffffffffffffffffffffffffffff\n  and\n  sub\n    /* \"assignment contracts/W2 SafeLottery.sol\":874:944  require(address(_token) != address(0), \"Token address cannot be zero\") */\n  tag_6\n  jumpi\n  mload(0x40)\n  0x08c379a000000000000000000000000000000000000000000000000000000000\n  dup2\n  mstore\n  0x04\n  add\n  tag_7\n  swap1\n  tag_8\n  jump\t// in\ntag_7:\n  mload(0x40)\n  dup1\n  swap2\n  sub\n  swap1\n  revert\ntag_6:\n    /* \"assignment contracts/W2 SafeLottery.sol\":978:979  0 */\n  0x00\n    /* \"assignment contracts/W2 SafeLottery.sol\":963:975  _ticketPrice */\n  dup2\n    /* \"assignment contracts/W2 SafeLottery.sol\":963:979  _ticketPrice > 0 */\n  gt\n    /* \"assignment contracts/W2 SafeLottery.sol\":955:1022  require(_ticketPrice > 0, \"Ticket price must be greater than zero\") */\n  tag_9\n  jumpi\n  mload(0x40)\n  0x08c379a000000000000000000000000000000000000000000000000000000000\n  dup2\n  mstore\n  0x04\n  add\n  tag_10\n  swap1\n  tag_11\n  jump\t// in\ntag_10:\n  mload(0x40)\n  dup1\n  swap2\n  sub\n  swap1\n  revert\ntag_9:\n    /* \"assignment contracts/W2 SafeLottery.sol\":1043:1049  _token */\n  dup2\n    /* \"assignment contracts/W2 SafeLottery.sol\":1035:1040  token */\n  0x00\n  dup1\n    /* \"assignment contracts/W2 SafeLottery.sol\":1035:1049  token = _token */\n  0x0100\n  exp\n  dup2\n  sload\n  dup2\n  0xffffffffffffffffffffffffffffffffffffffff\n  mul\n  not\n  and\n  swap1\n  dup4\n  0xffffffffffffffffffffffffffffffffffffffff\n  and\n  mul\n  or\n  swap1\n  sstore\n  pop\n    /* \"assignment contracts/W2 SafeLottery.sol\":1074:1086  _ticketPrice */\n  dup1\n    /* \"assignment contracts/W2 SafeLottery.sol\":1060:1071  ticketPrice */\n  0x03\n    /* \"assignment contracts/W2 SafeLottery.sol\":1060:1086  ticketPrice = _ticketPrice */\n  dup2\n  swap1\n  sstore\n  pop\n    /* \"assignment contracts/W2 SafeLottery.sol\":1140:1143  120 */\n  0x78\n    /* \"assignment contracts/W2 SafeLottery.sol\":1122:1137  block.timestamp */\n  timestamp\n    /* \"assignment contracts/W2 SafeLottery.sol\":1122:1143  block.timestamp + 120 */\n  tag_12\n  swap2\n  swap1\n  tag_13\n  jump\t// in\ntag_12:\n    /* \"assignment contracts/W2 SafeLottery.sol\":1097:1119  ticketPurchaseDeadline */\n  0x04\n    /* \"assignment contracts/W2 SafeLottery.sol\":1097:1143  ticketPurchaseDeadline = block.timestamp + 120 */\n  dup2\n  swap1\n  sstore\n  pop\n    /* \"assignment contracts/W2 SafeLottery.sol\":814:1151  constructor(IERC20 _token, uint256 _ticketPrice) {... */\n  pop\n  pop\n    /* \"assignment contracts/W2 SafeLottery.sol\":339:3319  contract SafeLottery {... */\n  jump(tag_14)\n    /* \"#utility.yul\":88:205   */\ntag_16:\n    /* \"#utility.yul\":197:198   */\n  0x00\n    /* \"#utility.yul\":194:195   */\n  dup1\n    /* \"#utility.yul\":187:199   */\n  revert\n    /* \"#utility.yul\":334:460   */\ntag_18:\n    /* \"#utility.yul\":371:378   */\n  0x00\n    /* \"#utility.yul\":411:453   */\n  0xffffffffffffffffffffffffffffffffffffffff\n    /* \"#utility.yul\":404:409   */\n  dup3\n    /* \"#utility.yul\":400:454   */\n  and\n    /* \"#utility.yul\":389:454   */\n  swap1\n  pop\n    /* \"#utility.yul\":334:460   */\n  swap2\n  swap1\n  pop\n  jump\t// out\n    /* \"#utility.yul\":466:562   */\ntag_19:\n    /* \"#utility.yul\":503:510   */\n  0x00\n    /* \"#utility.yul\":532:556   */\n  tag_38\n    /* \"#utility.yul\":550:555   */\n  dup3\n    /* \"#utility.yul\":532:556   */\n  tag_18\n  jump\t// in\ntag_38:\n    /* \"#utility.yul\":521:556   */\n  swap1\n  pop\n    /* \"#utility.yul\":466:562   */\n  swap2\n  swap1\n  pop\n  jump\t// out\n    /* \"#utility.yul\":568:677   */\ntag_20:\n    /* \"#utility.yul\":618:625   */\n  0x00\n    /* \"#utility.yul\":647:671   */\n  tag_40\n    /* \"#utility.yul\":665:670   */\n  dup3\n    /* \"#utility.yul\":647:671   */\n  tag_19\n  jump\t// in\ntag_40:\n    /* \"#utility.yul\":636:671   */\n  swap1\n  pop\n    /* \"#utility.yul\":568:677   */\n  swap2\n  swap1\n  pop\n  jump\t// out\n    /* \"#utility.yul\":683:831   */\ntag_21:\n    /* \"#utility.yul\":769:806   */\n  tag_42\n    /* \"#utility.yul\":800:805   */\n  dup2\n    /* \"#utility.yul\":769:806   */\n  tag_20\n  jump\t// in\ntag_42:\n    /* \"#utility.yul\":762:767   */\n  dup2\n    /* \"#utility.yul\":759:807   */\n  eq\n    /* \"#utility.yul\":749:825   */\n  tag_43\n  jumpi\n    /* \"#utility.yul\":821:822   */\n  0x00\n    /* \"#utility.yul\":818:819   */\n  dup1\n    /* \"#utility.yul\":811:823   */\n  revert\n    /* \"#utility.yul\":749:825   */\ntag_43:\n    /* \"#utility.yul\":683:831   */\n  pop\n  jump\t// out\n    /* \"#utility.yul\":837:1006   */\ntag_22:\n    /* \"#utility.yul\":907:912   */\n  0x00\n    /* \"#utility.yul\":938:944   */\n  dup2\n    /* \"#utility.yul\":932:945   */\n  mload\n    /* \"#utility.yul\":923:945   */\n  swap1\n  pop\n    /* \"#utility.yul\":954:1000   */\n  tag_45\n    /* \"#utility.yul\":994:999   */\n  dup2\n    /* \"#utility.yul\":954:1000   */\n  tag_21\n  jump\t// in\ntag_45:\n    /* \"#utility.yul\":837:1006   */\n  swap3\n  swap2\n  pop\n  pop\n  jump\t// out\n    /* \"#utility.yul\":1012:1089   */\ntag_23:\n    /* \"#utility.yul\":1049:1056   */\n  0x00\n    /* \"#utility.yul\":1078:1083   */\n  dup2\n    /* \"#utility.yul\":1067:1083   */\n  swap1\n  pop\n    /* \"#utility.yul\":1012:1089   */\n  swap2\n  swap1\n  pop\n  jump\t// out\n    /* \"#utility.yul\":1095:1217   */\ntag_24:\n    /* \"#utility.yul\":1168:1192   */\n  tag_48\n    /* \"#utility.yul\":1186:1191   */\n  dup2\n    /* \"#utility.yul\":1168:1192   */\n  tag_23\n  jump\t// in\ntag_48:\n    /* \"#utility.yul\":1161:1166   */\n  dup2\n    /* \"#utility.yul\":1158:1193   */\n  eq\n    /* \"#utility.yul\":1148:1211   */\n  tag_49\n  jumpi\n    /* \"#utility.yul\":1207:1208   */\n  0x00\n    /* \"#utility.yul\":1204:1205   */\n  dup1\n    /* \"#utility.yul\":1197:1209   */\n  revert\n    /* \"#utility.yul\":1148:1211   */\ntag_49:\n    /* \"#utility.yul\":1095:1217   */\n  pop\n  jump\t// out\n    /* \"#utility.yul\":1223:1366   */\ntag_25:\n    /* \"#utility.yul\":1280:1285   */\n  0x00\n    /* \"#utility.yul\":1311:1317   */\n  dup2\n    /* \"#utility.yul\":1305:1318   */\n  mload\n    /* \"#utility.yul\":1296:1318   */\n  swap1\n  pop\n    /* \"#utility.yul\":1327:1360   */\n  tag_51\n    /* \"#utility.yul\":1354:1359   */\n  dup2\n    /* \"#utility.yul\":1327:1360   */\n  tag_24\n  jump\t// in\ntag_51:\n    /* \"#utility.yul\":1223:1366   */\n  swap3\n  swap2\n  pop\n  pop\n  jump\t// out\n    /* \"#utility.yul\":1372:1905   */\ntag_3:\n    /* \"#utility.yul\":1464:1470   */\n  0x00\n    /* \"#utility.yul\":1472:1478   */\n  dup1\n    /* \"#utility.yul\":1521:1523   */\n  0x40\n    /* \"#utility.yul\":1509:1518   */\n  dup4\n    /* \"#utility.yul\":1500:1507   */\n  dup6\n    /* \"#utility.yul\":1496:1519   */\n  sub\n    /* \"#utility.yul\":1492:1524   */\n  slt\n    /* \"#utility.yul\":1489:1608   */\n  iszero\n  tag_53\n  jumpi\n    /* \"#utility.yul\":1527:1606   */\n  tag_54\n  tag_16\n  jump\t// in\ntag_54:\n    /* \"#utility.yul\":1489:1608   */\ntag_53:\n    /* \"#utility.yul\":1647:1648   */\n  0x00\n    /* \"#utility.yul\":1672:1749   */\n  tag_55\n    /* \"#utility.yul\":1741:1748   */\n  dup6\n    /* \"#utility.yul\":1732:1738   */\n  dup3\n    /* \"#utility.yul\":1721:1730   */\n  dup7\n    /* \"#utility.yul\":1717:1739   */\n  add\n    /* \"#utility.yul\":1672:1749   */\n  tag_22\n  jump\t// in\ntag_55:\n    /* \"#utility.yul\":1662:1749   */\n  swap3\n  pop\n    /* \"#utility.yul\":1618:1759   */\n  pop\n    /* \"#utility.yul\":1798:1800   */\n  0x20\n    /* \"#utility.yul\":1824:1888   */\n  tag_56\n    /* \"#utility.yul\":1880:1887   */\n  dup6\n    /* \"#utility.yul\":1871:1877   */\n  dup3\n    /* \"#utility.yul\":1860:1869   */\n  dup7\n    /* \"#utility.yul\":1856:1878   */\n  add\n    /* \"#utility.yul\":1824:1888   */\n  tag_25\n  jump\t// in\ntag_56:\n    /* \"#utility.yul\":1814:1888   */\n  swap2\n  pop\n    /* \"#utility.yul\":1769:1898   */\n  pop\n    /* \"#utility.yul\":1372:1905   */\n  swap3\n  pop\n  swap3\n  swap1\n  pop\n  jump\t// out\n    /* \"#utility.yul\":1911:2080   */\ntag_26:\n    /* \"#utility.yul\":1995:2006   */\n  0x00\n    /* \"#utility.yul\":2029:2035   */\n  dup3\n    /* \"#utility.yul\":2024:2027   */\n  dup3\n    /* \"#utility.yul\":2017:2036   */\n  mstore\n    /* \"#utility.yul\":2069:2073   */\n  0x20\n    /* \"#utility.yul\":2064:2067   */\n  dup3\n    /* \"#utility.yul\":2060:2074   */\n  add\n    /* \"#utility.yul\":2045:2074   */\n  swap1\n  pop\n    /* \"#utility.yul\":1911:2080   */\n  swap3\n  swap2\n  pop\n  pop\n  jump\t// out\n    /* \"#utility.yul\":2086:2264   */\ntag_27:\n    /* \"#utility.yul\":2226:2256   */\n  0x546f6b656e20616464726573732063616e6e6f74206265207a65726f00000000\n    /* \"#utility.yul\":2222:2223   */\n  0x00\n    /* \"#utility.yul\":2214:2220   */\n  dup3\n    /* \"#utility.yul\":2210:2224   */\n  add\n    /* \"#utility.yul\":2203:2257   */\n  mstore\n    /* \"#utility.yul\":2086:2264   */\n  pop\n  jump\t// out\n    /* \"#utility.yul\":2270:2636   */\ntag_28:\n    /* \"#utility.yul\":2412:2415   */\n  0x00\n    /* \"#utility.yul\":2433:2500   */\n  tag_60\n    /* \"#utility.yul\":2497:2499   */\n  0x1c\n    /* \"#utility.yul\":2492:2495   */\n  dup4\n    /* \"#utility.yul\":2433:2500   */\n  tag_26\n  jump\t// in\ntag_60:\n    /* \"#utility.yul\":2426:2500   */\n  swap2\n  pop\n    /* \"#utility.yul\":2509:2602   */\n  tag_61\n    /* \"#utility.yul\":2598:2601   */\n  dup3\n    /* \"#utility.yul\":2509:2602   */\n  tag_27\n  jump\t// in\ntag_61:\n    /* \"#utility.yul\":2627:2629   */\n  0x20\n    /* \"#utility.yul\":2622:2625   */\n  dup3\n    /* \"#utility.yul\":2618:2630   */\n  add\n    /* \"#utility.yul\":2611:2630   */\n  swap1\n  pop\n    /* \"#utility.yul\":2270:2636   */\n  swap2\n  swap1\n  pop\n  jump\t// out\n    /* \"#utility.yul\":2642:3061   */\ntag_8:\n    /* \"#utility.yul\":2808:2812   */\n  0x00\n    /* \"#utility.yul\":2846:2848   */\n  0x20\n    /* \"#utility.yul\":2835:2844   */\n  dup3\n    /* \"#utility.yul\":2831:2849   */\n  add\n    /* \"#utility.yul\":2823:2849   */\n  swap1\n  pop\n    /* \"#utility.yul\":2895:2904   */\n  dup2\n    /* \"#utility.yul\":2889:2893   */\n  dup2\n    /* \"#utility.yul\":2885:2905   */\n  sub\n    /* \"#utility.yul\":2881:2882   */\n  0x00\n    /* \"#utility.yul\":2870:2879   */\n  dup4\n    /* \"#utility.yul\":2866:2883   */\n  add\n    /* \"#utility.yul\":2859:2906   */\n  mstore\n    /* \"#utility.yul\":2923:3054   */\n  tag_63\n    /* \"#utility.yul\":3049:3053   */\n  dup2\n    /* \"#utility.yul\":2923:3054   */\n  tag_28\n  jump\t// in\ntag_63:\n    /* \"#utility.yul\":2915:3054   */\n  swap1\n  pop\n    /* \"#utility.yul\":2642:3061   */\n  swap2\n  swap1\n  pop\n  jump\t// out\n    /* \"#utility.yul\":3067:3292   */\ntag_29:\n    /* \"#utility.yul\":3207:3241   */\n  0x5469636b6574207072696365206d757374206265206772656174657220746861\n    /* \"#utility.yul\":3203:3204   */\n  0x00\n    /* \"#utility.yul\":3195:3201   */\n  dup3\n    /* \"#utility.yul\":3191:3205   */\n  add\n    /* \"#utility.yul\":3184:3242   */\n  mstore\n    /* \"#utility.yul\":3276:3284   */\n  0x6e207a65726f0000000000000000000000000000000000000000000000000000\n    /* \"#utility.yul\":3271:3273   */\n  0x20\n    /* \"#utility.yul\":3263:3269   */\n  dup3\n    /* \"#utility.yul\":3259:3274   */\n  add\n    /* \"#utility.yul\":3252:3285   */\n  mstore\n    /* \"#utility.yul\":3067:3292   */\n  pop\n  jump\t// out\n    /* \"#utility.yul\":3298:3664   */\ntag_30:\n    /* \"#utility.yul\":3440:3443   */\n  0x00\n    /* \"#utility.yul\":3461:3528   */\n  tag_66\n    /* \"#utility.yul\":3525:3527   */\n  0x26\n    /* \"#utility.yul\":3520:3523   */\n  dup4\n    /* \"#utility.yul\":3461:3528   */\n  tag_26\n  jump\t// in\ntag_66:\n    /* \"#utility.yul\":3454:3528   */\n  swap2\n  pop\n    /* \"#utility.yul\":3537:3630   */\n  tag_67\n    /* \"#utility.yul\":3626:3629   */\n  dup3\n    /* \"#utility.yul\":3537:3630   */\n  tag_29\n  jump\t// in\ntag_67:\n    /* \"#utility.yul\":3655:3657   */\n  0x40\n    /* \"#utility.yul\":3650:3653   */\n  dup3\n    /* \"#utility.yul\":3646:3658   */\n  add\n    /* \"#utility.yul\":3639:3658   */\n  swap1\n  pop\n    /* \"#utility.yul\":3298:3664   */\n  swap2\n  swap1\n  pop\n  jump\t// out\n    /* \"#utility.yul\":3670:4089   */\ntag_11:\n    /* \"#utility.yul\":3836:3840   */\n  0x00\n    /* \"#utility.yul\":3874:3876   */\n  0x20\n    /* \"#utility.yul\":3863:3872   */\n  dup3\n    /* \"#utility.yul\":3859:3877   */\n  add\n    /* \"#utility.yul\":3851:3877   */\n  swap1\n  pop\n    /* \"#utility.yul\":3923:3932   */\n  dup2\n    /* \"#utility.yul\":3917:3921   */\n  dup2\n    /* \"#utility.yul\":3913:3933   */\n  sub\n    /* \"#utility.yul\":3909:3910   */\n  0x00\n    /* \"#utility.yul\":3898:3907   */\n  dup4\n    /* \"#utility.yul\":3894:3911   */\n  add\n    /* \"#utility.yul\":3887:3934   */\n  mstore\n    /* \"#utility.yul\":3951:4082   */\n  tag_69\n    /* \"#utility.yul\":4077:4081   */\n  dup2\n    /* \"#utility.yul\":3951:4082   */\n  tag_30\n  jump\t// in\ntag_69:\n    /* \"#utility.yul\":3943:4082   */\n  swap1\n  pop\n    /* \"#utility.yul\":3670:4089   */\n  swap2\n  swap1\n  pop\n  jump\t// out\n    /* \"#utility.yul\":4095:4275   */\ntag_31:\n    /* \"#utility.yul\":4143:4220   */\n  0x4e487b7100000000000000000000000000000000000000000000000000000000\n    /* \"#utility.yul\":4140:4141   */\n  0x00\n    /* \"#utility.yul\":4133:4221   */\n  mstore\n    /* \"#utility.yul\":4240:4244   */\n  0x11\n    /* \"#utility.yul\":4237:4238   */\n  0x04\n    /* \"#utility.yul\":4230:4245   */\n  mstore\n    /* \"#utility.yul\":4264:4268   */\n  0x24\n    /* \"#utility.yul\":4261:4262   */\n  0x00\n    /* \"#utility.yul\":4254:4269   */\n  revert\n    /* \"#utility.yul\":4281:4472   */\ntag_13:\n    /* \"#utility.yul\":4321:4324   */\n  0x00\n    /* \"#utility.yul\":4340:4360   */\n  tag_72\n    /* \"#utility.yul\":4358:4359   */\n  dup3\n    /* \"#utility.yul\":4340:4360   */\n  tag_23\n  jump\t// in\ntag_72:\n    /* \"#utility.yul\":4335:4360   */\n  swap2\n  pop\n    /* \"#utility.yul\":4374:4394   */\n  tag_73\n    /* \"#utility.yul\":4392:4393   */\n  dup4\n    /* \"#utility.yul\":4374:4394   */\n  tag_23\n  jump\t// in\ntag_73:\n    /* \"#utility.yul\":4369:4394   */\n  swap3\n  pop\n    /* \"#utility.yul\":4417:4418   */\n  dup3\n    /* \"#utility.yul\":4414:4415   */\n  dup3\n    /* \"#utility.yul\":4410:4419   */\n  add\n    /* \"#utility.yul\":4403:4419   */\n  swap1\n  pop\n    /* \"#utility.yul\":4438:4441   */\n  dup1\n    /* \"#utility.yul\":4435:4436   */\n  dup3\n    /* \"#utility.yul\":4432:4442   */\n  gt\n    /* \"#utility.yul\":4429:4465   */\n  iszero\n  tag_74\n  jumpi\n    /* \"#utility.yul\":4445:4463   */\n  tag_75\n  tag_31\n  jump\t// in\ntag_75:\n    /* \"#utility.yul\":4429:4465   */\ntag_74:\n    /* \"#utility.yul\":4281:4472   */\n  swap3\n  swap2\n  pop\n  pop\n  jump\t// out\n    /* \"assignment contracts/W2 SafeLottery.sol\":339:3319  contract SafeLottery {... */\ntag_14:\n  dataSize(sub_0)\n  dup1\n  dataOffset(sub_0)\n  0x00\n  codecopy\n  0x00\n  return\nstop\n\nsub_0: assembly {\n        /* \"assignment contracts/W2 SafeLottery.sol\":339:3319  contract SafeLottery {... */\n      mstore(0x40, 0x80)\n      callvalue\n      dup1\n      iszero\n      tag_1\n      jumpi\n      0x00\n      dup1\n      revert\n    tag_1:\n      pop\n      jumpi(tag_2, lt(calldatasize, 0x04))\n      shr(0xe0, calldataload(0x00))\n      dup1\n      0x70e36d46\n      gt\n      tag_10\n      jumpi\n      dup1\n      0x70e36d46\n      eq\n      tag_6\n      jumpi\n      dup1\n      0x773a1154\n      eq\n      tag_7\n      jumpi\n      dup1\n      0xedca914c\n      eq\n      tag_8\n      jumpi\n      dup1\n      0xfc0c546a\n      eq\n      tag_9\n      jumpi\n      jump(tag_2)\n    tag_10:\n      dup1\n      0x1209b1f6\n      eq\n      tag_3\n      jumpi\n      dup1\n      0x33a99e04\n      eq\n      tag_4\n      jumpi\n      dup1\n      0x5aa68ac0\n      eq\n      tag_5\n      jumpi\n    tag_2:\n      0x00\n      dup1\n      revert\n        /* \"assignment contracts/W2 SafeLottery.sol\":487:513  uint256 public ticketPrice */\n    tag_3:\n      tag_11\n      tag_12\n      jump\t// in\n    tag_11:\n      mload(0x40)\n      tag_13\n      swap2\n      swap1\n      tag_14\n      jump\t// in\n    tag_13:\n      mload(0x40)\n      dup1\n      swap2\n      sub\n      swap1\n      return\n        /* \"assignment contracts/W2 SafeLottery.sol\":2054:2884  function selectWinner() public {... */\n    tag_4:\n      tag_15\n      tag_16\n      jump\t// in\n    tag_15:\n      stop\n        /* \"assignment contracts/W2 SafeLottery.sol\":2933:3038  function getParticipants() public view returns (address[] memory) {... */\n    tag_5:\n      tag_17\n      tag_18\n      jump\t// in\n    tag_17:\n      mload(0x40)\n      tag_19\n      swap2\n      swap1\n      tag_20\n      jump\t// in\n    tag_19:\n      mload(0x40)\n      dup1\n      swap2\n      sub\n      swap1\n      return\n        /* \"assignment contracts/W2 SafeLottery.sol\":520:557  uint256 public ticketPurchaseDeadline */\n    tag_6:\n      tag_21\n      tag_22\n      jump\t// in\n    tag_21:\n      mload(0x40)\n      tag_23\n      swap2\n      swap1\n      tag_14\n      jump\t// in\n    tag_23:\n      mload(0x40)\n      dup1\n      swap2\n      sub\n      swap1\n      return\n        /* \"assignment contracts/W2 SafeLottery.sol\":3146:3315  function generateRandomNumber() public view returns(uint256) {... */\n    tag_7:\n      tag_24\n      tag_25\n      jump\t// in\n    tag_24:\n      mload(0x40)\n      tag_26\n      swap2\n      swap1\n      tag_14\n      jump\t// in\n    tag_26:\n      mload(0x40)\n      dup1\n      swap2\n      sub\n      swap1\n      return\n        /* \"assignment contracts/W2 SafeLottery.sol\":1185:1982  function buyTicket() public {... */\n    tag_8:\n      tag_27\n      tag_28\n      jump\t// in\n    tag_27:\n      stop\n        /* \"assignment contracts/W2 SafeLottery.sol\":393:412  IERC20 public token */\n    tag_9:\n      tag_29\n      tag_30\n      jump\t// in\n    tag_29:\n      mload(0x40)\n      tag_31\n      swap2\n      swap1\n      tag_32\n      jump\t// in\n    tag_31:\n      mload(0x40)\n      dup1\n      swap2\n      sub\n      swap1\n      return\n        /* \"assignment contracts/W2 SafeLottery.sol\":487:513  uint256 public ticketPrice */\n    tag_12:\n      sload(0x03)\n      dup2\n      jump\t// out\n        /* \"assignment contracts/W2 SafeLottery.sol\":2054:2884  function selectWinner() public {... */\n    tag_16:\n        /* \"assignment contracts/W2 SafeLottery.sol\":2122:2144  ticketPurchaseDeadline */\n      sload(0x04)\n        /* \"assignment contracts/W2 SafeLottery.sol\":2104:2119  block.timestamp */\n      timestamp\n        /* \"assignment contracts/W2 SafeLottery.sol\":2104:2144  block.timestamp > ticketPurchaseDeadline */\n      gt\n        /* \"assignment contracts/W2 SafeLottery.sol\":2096:2191  require(block.timestamp > ticketPurchaseDeadline, \"Cannot select a winner before the deadline\") */\n      tag_34\n      jumpi\n      mload(0x40)\n      0x08c379a000000000000000000000000000000000000000000000000000000000\n      dup2\n      mstore\n      0x04\n      add\n      tag_35\n      swap1\n      tag_36\n      jump\t// in\n    tag_35:\n      mload(0x40)\n      dup1\n      swap2\n      sub\n      swap1\n      revert\n    tag_34:\n        /* \"assignment contracts/W2 SafeLottery.sol\":2233:2234  0 */\n      0x00\n        /* \"assignment contracts/W2 SafeLottery.sol\":2210:2223  _participants */\n      0x01\n        /* \"assignment contracts/W2 SafeLottery.sol\":2210:2230  _participants.length */\n      dup1\n      sload\n      swap1\n      pop\n        /* \"assignment contracts/W2 SafeLottery.sol\":2210:2234  _participants.length > 0 */\n      gt\n        /* \"assignment contracts/W2 SafeLottery.sol\":2202:2269  require(_participants.length > 0, \"No participants in the lottery\") */\n      tag_37\n      jumpi\n      mload(0x40)\n      0x08c379a000000000000000000000000000000000000000000000000000000000\n      dup2\n      mstore\n      0x04\n      add\n      tag_38\n      swap1\n      tag_39\n      jump\t// in\n    tag_38:\n      mload(0x40)\n      dup1\n      swap2\n      sub\n      swap1\n      revert\n    tag_37:\n        /* \"assignment contracts/W2 SafeLottery.sol\":2307:2308  0 */\n      0x00\n        /* \"assignment contracts/W2 SafeLottery.sol\":2288:2309  _winner == address(0) */\n      0xffffffffffffffffffffffffffffffffffffffff\n      and\n        /* \"assignment contracts/W2 SafeLottery.sol\":2288:2295  _winner */\n      0x02\n      0x00\n      swap1\n      sload\n      swap1\n      0x0100\n      exp\n      swap1\n      div\n      0xffffffffffffffffffffffffffffffffffffffff\n      and\n        /* \"assignment contracts/W2 SafeLottery.sol\":2288:2309  _winner == address(0) */\n      0xffffffffffffffffffffffffffffffffffffffff\n      and\n      eq\n        /* \"assignment contracts/W2 SafeLottery.sol\":2280:2346  require(_winner == address(0), \"Winner has already been selected\") */\n      tag_40\n      jumpi\n      mload(0x40)\n      0x08c379a000000000000000000000000000000000000000000000000000000000\n      dup2\n      mstore\n      0x04\n      add\n      tag_41\n      swap1\n      tag_42\n      jump\t// in\n    tag_41:\n      mload(0x40)\n      dup1\n      swap2\n      sub\n      swap1\n      revert\n    tag_40:\n        /* \"assignment contracts/W2 SafeLottery.sol\":2416:2435  uint256 randomIndex */\n      0x00\n        /* \"assignment contracts/W2 SafeLottery.sol\":2463:2476  _participants */\n      0x01\n        /* \"assignment contracts/W2 SafeLottery.sol\":2463:2483  _participants.length */\n      dup1\n      sload\n      swap1\n      pop\n        /* \"assignment contracts/W2 SafeLottery.sol\":2438:2460  generateRandomNumber() */\n      tag_43\n        /* \"assignment contracts/W2 SafeLottery.sol\":2438:2458  generateRandomNumber */\n      tag_25\n        /* \"assignment contracts/W2 SafeLottery.sol\":2438:2460  generateRandomNumber() */\n      jump\t// in\n    tag_43:\n        /* \"assignment contracts/W2 SafeLottery.sol\":2438:2483  generateRandomNumber() % _participants.length */\n      tag_44\n      swap2\n      swap1\n      tag_45\n      jump\t// in\n    tag_44:\n        /* \"assignment contracts/W2 SafeLottery.sol\":2416:2483  uint256 randomIndex = generateRandomNumber() % _participants.length */\n      swap1\n      pop\n        /* \"assignment contracts/W2 SafeLottery.sol\":2504:2517  _participants */\n      0x01\n        /* \"assignment contracts/W2 SafeLottery.sol\":2518:2529  randomIndex */\n      dup2\n        /* \"assignment contracts/W2 SafeLottery.sol\":2504:2530  _participants[randomIndex] */\n      dup2\n      sload\n      dup2\n      lt\n      tag_46\n      jumpi\n      tag_47\n      tag_48\n      jump\t// in\n    tag_47:\n    tag_46:\n      swap1\n      0x00\n      mstore\n      keccak256(0x00, 0x20)\n      add\n      0x00\n      swap1\n      sload\n      swap1\n      0x0100\n      exp\n      swap1\n      div\n      0xffffffffffffffffffffffffffffffffffffffff\n      and\n        /* \"assignment contracts/W2 SafeLottery.sol\":2494:2501  _winner */\n      0x02\n      0x00\n        /* \"assignment contracts/W2 SafeLottery.sol\":2494:2530  _winner = _participants[randomIndex] */\n      0x0100\n      exp\n      dup2\n      sload\n      dup2\n      0xffffffffffffffffffffffffffffffffffffffff\n      mul\n      not\n      and\n      swap1\n      dup4\n      0xffffffffffffffffffffffffffffffffffffffff\n      and\n      mul\n      or\n      swap1\n      sstore\n      pop\n        /* \"assignment contracts/W2 SafeLottery.sol\":2546:2569  WinnerSelected(_winner) */\n      0x1d4c260f1824cd028e6c9e6e31c3a0b94f2513e7a641113ec759d382f9bdd5a1\n        /* \"assignment contracts/W2 SafeLottery.sol\":2561:2568  _winner */\n      0x02\n      0x00\n      swap1\n      sload\n      swap1\n      0x0100\n      exp\n      swap1\n      div\n      0xffffffffffffffffffffffffffffffffffffffff\n      and\n        /* \"assignment contracts/W2 SafeLottery.sol\":2546:2569  WinnerSelected(_winner) */\n      mload(0x40)\n      tag_50\n      swap2\n      swap1\n      tag_51\n      jump\t// in\n    tag_50:\n      mload(0x40)\n      dup1\n      swap2\n      sub\n      swap1\n      log1\n        /* \"assignment contracts/W2 SafeLottery.sol\":2664:2683  uint256 prizeAmount */\n      0x00\n        /* \"assignment contracts/W2 SafeLottery.sol\":2686:2691  token */\n      dup1\n      0x00\n      swap1\n      sload\n      swap1\n      0x0100\n      exp\n      swap1\n      div\n      0xffffffffffffffffffffffffffffffffffffffff\n      and\n        /* \"assignment contracts/W2 SafeLottery.sol\":2686:2701  token.balanceOf */\n      0xffffffffffffffffffffffffffffffffffffffff\n      and\n      0x70a08231\n        /* \"assignment contracts/W2 SafeLottery.sol\":2710:2714  this */\n      address\n        /* \"assignment contracts/W2 SafeLottery.sol\":2686:2716  token.balanceOf(address(this)) */\n      mload(0x40)\n      dup3\n      0xffffffff\n      and\n      0xe0\n      shl\n      dup2\n      mstore\n      0x04\n      add\n      tag_52\n      swap2\n      swap1\n      tag_51\n      jump\t// in\n    tag_52:\n      0x20\n      mload(0x40)\n      dup1\n      dup4\n      sub\n      dup2\n      dup7\n      gas\n      staticcall\n      iszero\n      dup1\n      iszero\n      tag_54\n      jumpi\n      returndatasize\n      0x00\n      dup1\n      returndatacopy\n      revert(0x00, returndatasize)\n    tag_54:\n      pop\n      pop\n      pop\n      pop\n      mload(0x40)\n      returndatasize\n      not(0x1f)\n      0x1f\n      dup3\n      add\n      and\n      dup3\n      add\n      dup1\n      0x40\n      mstore\n      pop\n      dup2\n      add\n      swap1\n      tag_55\n      swap2\n      swap1\n      tag_56\n      jump\t// in\n    tag_55:\n        /* \"assignment contracts/W2 SafeLottery.sol\":2664:2716  uint256 prizeAmount = token.balanceOf(address(this)) */\n      swap1\n      pop\n        /* \"assignment contracts/W2 SafeLottery.sol\":2731:2736  token */\n      0x00\n      dup1\n      sload\n      swap1\n      0x0100\n      exp\n      swap1\n      div\n      0xffffffffffffffffffffffffffffffffffffffff\n      and\n        /* \"assignment contracts/W2 SafeLottery.sol\":2731:2745  token.transfer */\n      0xffffffffffffffffffffffffffffffffffffffff\n      and\n      0xa9059cbb\n        /* \"assignment contracts/W2 SafeLottery.sol\":2746:2753  _winner */\n      0x02\n      0x00\n      swap1\n      sload\n      swap1\n      0x0100\n      exp\n      swap1\n      div\n      0xffffffffffffffffffffffffffffffffffffffff\n      and\n        /* \"assignment contracts/W2 SafeLottery.sol\":2755:2766  prizeAmount */\n      dup4\n        /* \"assignment contracts/W2 SafeLottery.sol\":2731:2767  token.transfer(_winner, prizeAmount) */\n      mload(0x40)\n      dup4\n      0xffffffff\n      and\n      0xe0\n      shl\n      dup2\n      mstore\n      0x04\n      add\n      tag_57\n      swap3\n      swap2\n      swap1\n      tag_58\n      jump\t// in\n    tag_57:\n      0x20\n      mload(0x40)\n      dup1\n      dup4\n      sub\n      dup2\n      0x00\n      dup8\n      gas\n      call\n      swap3\n      pop\n      pop\n      pop\n      dup1\n      iszero\n      tag_59\n      jumpi\n      pop\n      mload(0x40)\n      returndatasize\n      not(0x1f)\n      0x1f\n      dup3\n      add\n      and\n      dup3\n      add\n      dup1\n      0x40\n      mstore\n      pop\n      dup2\n      add\n      swap1\n      tag_60\n      swap2\n      swap1\n      tag_61\n      jump\t// in\n    tag_60:\n      0x01\n    tag_59:\n        /* \"assignment contracts/W2 SafeLottery.sol\":2727:2877  try token.transfer(_winner, prizeAmount) {... */\n      tag_62\n      jumpi\n        /* \"assignment contracts/W2 SafeLottery.sol\":2831:2865  PayoutFailed(_winner, prizeAmount) */\n      0xe3e92735f0a5e1ddad0b68fe8526d646a42b4833010773101b7a3aa7e5ec62f0\n        /* \"assignment contracts/W2 SafeLottery.sol\":2844:2851  _winner */\n      0x02\n      0x00\n      swap1\n      sload\n      swap1\n      0x0100\n      exp\n      swap1\n      div\n      0xffffffffffffffffffffffffffffffffffffffff\n      and\n        /* \"assignment contracts/W2 SafeLottery.sol\":2853:2864  prizeAmount */\n      dup3\n        /* \"assignment contracts/W2 SafeLottery.sol\":2831:2865  PayoutFailed(_winner, prizeAmount) */\n      mload(0x40)\n      tag_66\n      swap3\n      swap2\n      swap1\n      tag_58\n      jump\t// in\n    tag_66:\n      mload(0x40)\n      dup1\n      swap2\n      sub\n      swap1\n      log1\n        /* \"assignment contracts/W2 SafeLottery.sol\":2727:2877  try token.transfer(_winner, prizeAmount) {... */\n      jump(tag_67)\n    tag_62:\n      pop\n    tag_67:\n        /* \"assignment contracts/W2 SafeLottery.sol\":2085:2884  {... */\n      pop\n      pop\n        /* \"assignment contracts/W2 SafeLottery.sol\":2054:2884  function selectWinner() public {... */\n      jump\t// out\n        /* \"assignment contracts/W2 SafeLottery.sol\":2933:3038  function getParticipants() public view returns (address[] memory) {... */\n    tag_18:\n        /* \"assignment contracts/W2 SafeLottery.sol\":2981:2997  address[] memory */\n      0x60\n        /* \"assignment contracts/W2 SafeLottery.sol\":3017:3030  _participants */\n      0x01\n        /* \"assignment contracts/W2 SafeLottery.sol\":3010:3030  return _participants */\n      dup1\n      sload\n      dup1\n      0x20\n      mul\n      0x20\n      add\n      mload(0x40)\n      swap1\n      dup2\n      add\n      0x40\n      mstore\n      dup1\n      swap3\n      swap2\n      swap1\n      dup2\n      dup2\n      mstore\n      0x20\n      add\n      dup3\n      dup1\n      sload\n      dup1\n      iszero\n      tag_69\n      jumpi\n      0x20\n      mul\n      dup3\n      add\n      swap2\n      swap1\n      0x00\n      mstore\n      keccak256(0x00, 0x20)\n      swap1\n    tag_70:\n      dup2\n      0x00\n      swap1\n      sload\n      swap1\n      0x0100\n      exp\n      swap1\n      div\n      0xffffffffffffffffffffffffffffffffffffffff\n      and\n      0xffffffffffffffffffffffffffffffffffffffff\n      and\n      dup2\n      mstore\n      0x20\n      add\n      swap1\n      0x01\n      add\n      swap1\n      dup1\n      dup4\n      gt\n      tag_70\n      jumpi\n    tag_69:\n      pop\n      pop\n      pop\n      pop\n      pop\n      swap1\n      pop\n        /* \"assignment contracts/W2 SafeLottery.sol\":2933:3038  function getParticipants() public view returns (address[] memory) {... */\n      swap1\n      jump\t// out\n        /* \"assignment contracts/W2 SafeLottery.sol\":520:557  uint256 public ticketPurchaseDeadline */\n    tag_22:\n      sload(0x04)\n      dup2\n      jump\t// out\n        /* \"assignment contracts/W2 SafeLottery.sol\":3146:3315  function generateRandomNumber() public view returns(uint256) {... */\n    tag_25:\n        /* \"assignment contracts/W2 SafeLottery.sol\":3198:3205  uint256 */\n      0x00\n        /* \"assignment contracts/W2 SafeLottery.sol\":3260:3275  block.timestamp */\n      timestamp\n        /* \"assignment contracts/W2 SafeLottery.sol\":3277:3289  block.number */\n      number\n        /* \"assignment contracts/W2 SafeLottery.sol\":3299:3303  this */\n      address\n        /* \"assignment contracts/W2 SafeLottery.sol\":3243:3305  abi.encodePacked(block.timestamp, block.number, address(this)) */\n      add(0x20, mload(0x40))\n      tag_72\n      swap4\n      swap3\n      swap2\n      swap1\n      tag_73\n      jump\t// in\n    tag_72:\n      mload(0x40)\n      0x20\n      dup2\n      dup4\n      sub\n      sub\n      dup2\n      mstore\n      swap1\n      0x40\n      mstore\n        /* \"assignment contracts/W2 SafeLottery.sol\":3233:3306  keccak256(abi.encodePacked(block.timestamp, block.number, address(this))) */\n      dup1\n      mload\n      swap1\n      0x20\n      add\n      keccak256\n        /* \"assignment contracts/W2 SafeLottery.sol\":3225:3307  uint256(keccak256(abi.encodePacked(block.timestamp, block.number, address(this)))) */\n      0x00\n      shr\n        /* \"assignment contracts/W2 SafeLottery.sol\":3218:3307  return uint256(keccak256(abi.encodePacked(block.timestamp, block.number, address(this)))) */\n      swap1\n      pop\n        /* \"assignment contracts/W2 SafeLottery.sol\":3146:3315  function generateRandomNumber() public view returns(uint256) {... */\n      swap1\n      jump\t// out\n        /* \"assignment contracts/W2 SafeLottery.sol\":1185:1982  function buyTicket() public {... */\n    tag_28:\n        /* \"assignment contracts/W2 SafeLottery.sol\":1251:1273  ticketPurchaseDeadline */\n      sload(0x04)\n        /* \"assignment contracts/W2 SafeLottery.sol\":1232:1247  block.timestamp */\n      timestamp\n        /* \"assignment contracts/W2 SafeLottery.sol\":1232:1273  block.timestamp <= ticketPurchaseDeadline */\n      gt\n      iszero\n        /* \"assignment contracts/W2 SafeLottery.sol\":1224:1313  require(block.timestamp <= ticketPurchaseDeadline, \"Ticket purchase deadline has passed\") */\n      tag_75\n      jumpi\n      mload(0x40)\n      0x08c379a000000000000000000000000000000000000000000000000000000000\n      dup2\n      mstore\n      0x04\n      add\n      tag_76\n      swap1\n      tag_77\n      jump\t// in\n    tag_76:\n      mload(0x40)\n      dup1\n      swap2\n      sub\n      swap1\n      revert\n    tag_75:\n        /* \"assignment contracts/W2 SafeLottery.sol\":1358:1375  uint256 allowance */\n      0x00\n        /* \"assignment contracts/W2 SafeLottery.sol\":1378:1383  token */\n      dup1\n      0x00\n      swap1\n      sload\n      swap1\n      0x0100\n      exp\n      swap1\n      div\n      0xffffffffffffffffffffffffffffffffffffffff\n      and\n        /* \"assignment contracts/W2 SafeLottery.sol\":1378:1393  token.allowance */\n      0xffffffffffffffffffffffffffffffffffffffff\n      and\n      0xdd62ed3e\n        /* \"assignment contracts/W2 SafeLottery.sol\":1394:1404  msg.sender */\n      caller\n        /* \"assignment contracts/W2 SafeLottery.sol\":1414:1418  this */\n      address\n        /* \"assignment contracts/W2 SafeLottery.sol\":1378:1420  token.allowance(msg.sender, address(this)) */\n      mload(0x40)\n      dup4\n      0xffffffff\n      and\n      0xe0\n      shl\n      dup2\n      mstore\n      0x04\n      add\n      tag_78\n      swap3\n      swap2\n      swap1\n      tag_79\n      jump\t// in\n    tag_78:\n      0x20\n      mload(0x40)\n      dup1\n      dup4\n      sub\n      dup2\n      dup7\n      gas\n      staticcall\n      iszero\n      dup1\n      iszero\n      tag_81\n      jumpi\n      returndatasize\n      0x00\n      dup1\n      returndatacopy\n      revert(0x00, returndatasize)\n    tag_81:\n      pop\n      pop\n      pop\n      pop\n      mload(0x40)\n      returndatasize\n      not(0x1f)\n      0x1f\n      dup3\n      add\n      and\n      dup3\n      add\n      dup1\n      0x40\n      mstore\n      pop\n      dup2\n      add\n      swap1\n      tag_82\n      swap2\n      swap1\n      tag_56\n      jump\t// in\n    tag_82:\n        /* \"assignment contracts/W2 SafeLottery.sol\":1358:1420  uint256 allowance = token.allowance(msg.sender, address(this)) */\n      swap1\n      pop\n        /* \"assignment contracts/W2 SafeLottery.sol\":1452:1463  ticketPrice */\n      sload(0x03)\n        /* \"assignment contracts/W2 SafeLottery.sol\":1439:1448  allowance */\n      dup2\n        /* \"assignment contracts/W2 SafeLottery.sol\":1439:1463  allowance >= ticketPrice */\n      lt\n      iszero\n        /* \"assignment contracts/W2 SafeLottery.sol\":1431:1529  require(allowance >= ticketPrice, \"Insufficient allowance. Approve the contract to spend tokens.\") */\n      tag_83\n      jumpi\n      mload(0x40)\n      0x08c379a000000000000000000000000000000000000000000000000000000000\n      dup2\n      mstore\n      0x04\n      add\n      tag_84\n      swap1\n      tag_85\n      jump\t// in\n    tag_84:\n      mload(0x40)\n      dup1\n      swap2\n      sub\n      swap1\n      revert\n    tag_83:\n        /* \"assignment contracts/W2 SafeLottery.sol\":1585:1590  token */\n      0x00\n      dup1\n      sload\n      swap1\n      0x0100\n      exp\n      swap1\n      div\n      0xffffffffffffffffffffffffffffffffffffffff\n      and\n        /* \"assignment contracts/W2 SafeLottery.sol\":1585:1603  token.transferFrom */\n      0xffffffffffffffffffffffffffffffffffffffff\n      and\n      0x23b872dd\n        /* \"assignment contracts/W2 SafeLottery.sol\":1604:1614  msg.sender */\n      caller\n        /* \"assignment contracts/W2 SafeLottery.sol\":1624:1628  this */\n      address\n        /* \"assignment contracts/W2 SafeLottery.sol\":1631:1642  ticketPrice */\n      sload(0x03)\n        /* \"assignment contracts/W2 SafeLottery.sol\":1585:1643  token.transferFrom(msg.sender, address(this), ticketPrice) */\n      mload(0x40)\n      dup5\n      0xffffffff\n      and\n      0xe0\n      shl\n      dup2\n      mstore\n      0x04\n      add\n      tag_86\n      swap4\n      swap3\n      swap2\n      swap1\n      tag_87\n      jump\t// in\n    tag_86:\n      0x20\n      mload(0x40)\n      dup1\n      dup4\n      sub\n      dup2\n      0x00\n      dup8\n      gas\n      call\n      swap3\n      pop\n      pop\n      pop\n      dup1\n      iszero\n      tag_88\n      jumpi\n      pop\n      mload(0x40)\n      returndatasize\n      not(0x1f)\n      0x1f\n      dup3\n      add\n      and\n      dup3\n      add\n      dup1\n      0x40\n      mstore\n      pop\n      dup2\n      add\n      swap1\n      tag_89\n      swap2\n      swap1\n      tag_61\n      jump\t// in\n    tag_89:\n      0x01\n    tag_88:\n        /* \"assignment contracts/W2 SafeLottery.sol\":1581:1975  try token.transferFrom(msg.sender, address(this), ticketPrice) {... */\n      tag_90\n      jumpi\n        /* \"assignment contracts/W2 SafeLottery.sol\":1884:1963  revert(\"Token transfer failed. Ensure sufficient balance and proper approval.\") */\n      mload(0x40)\n      0x08c379a000000000000000000000000000000000000000000000000000000000\n      dup2\n      mstore\n      0x04\n      add\n      tag_94\n      swap1\n      tag_95\n      jump\t// in\n    tag_94:\n      mload(0x40)\n      dup1\n      swap2\n      sub\n      swap1\n      revert\n        /* \"assignment contracts/W2 SafeLottery.sol\":1581:1975  try token.transferFrom(msg.sender, address(this), ticketPrice) {... */\n    tag_90:\n      pop\n        /* \"assignment contracts/W2 SafeLottery.sol\":1723:1736  _participants */\n      0x01\n        /* \"assignment contracts/W2 SafeLottery.sol\":1742:1752  msg.sender */\n      caller\n        /* \"assignment contracts/W2 SafeLottery.sol\":1723:1753  _participants.push(msg.sender) */\n      swap1\n      dup1\n      0x01\n      dup2\n      sload\n      add\n      dup1\n      dup3\n      sstore\n      dup1\n      swap2\n      pop\n      pop\n      0x01\n      swap1\n      sub\n      swap1\n      0x00\n      mstore\n      keccak256(0x00, 0x20)\n      add\n      0x00\n      swap1\n      swap2\n      swap1\n      swap2\n      swap1\n      swap2\n      0x0100\n      exp\n      dup2\n      sload\n      dup2\n      0xffffffffffffffffffffffffffffffffffffffff\n      mul\n      not\n      and\n      swap1\n      dup4\n      0xffffffffffffffffffffffffffffffffffffffff\n      and\n      mul\n      or\n      swap1\n      sstore\n      pop\n        /* \"assignment contracts/W2 SafeLottery.sol\":1773:1800  TicketPurchased(msg.sender) */\n      0x23443ac3afaec974c2d4368824912f61a50fee541bcc94ec52414ba6a9b14aab\n        /* \"assignment contracts/W2 SafeLottery.sol\":1789:1799  msg.sender */\n      caller\n        /* \"assignment contracts/W2 SafeLottery.sol\":1773:1800  TicketPurchased(msg.sender) */\n      mload(0x40)\n      tag_98\n      swap2\n      swap1\n      tag_51\n      jump\t// in\n    tag_98:\n      mload(0x40)\n      dup1\n      swap2\n      sub\n      swap1\n      log1\n        /* \"assignment contracts/W2 SafeLottery.sol\":1213:1982  {... */\n      pop\n        /* \"assignment contracts/W2 SafeLottery.sol\":1185:1982  function buyTicket() public {... */\n      jump\t// out\n        /* \"assignment contracts/W2 SafeLottery.sol\":393:412  IERC20 public token */\n    tag_30:\n      0x00\n      dup1\n      sload\n      swap1\n      0x0100\n      exp\n      swap1\n      div\n      0xffffffffffffffffffffffffffffffffffffffff\n      and\n      dup2\n      jump\t// out\n        /* \"#utility.yul\":7:84   */\n    tag_99:\n        /* \"#utility.yul\":44:51   */\n      0x00\n        /* \"#utility.yul\":73:78   */\n      dup2\n        /* \"#utility.yul\":62:78   */\n      swap1\n      pop\n        /* \"#utility.yul\":7:84   */\n      swap2\n      swap1\n      pop\n      jump\t// out\n        /* \"#utility.yul\":90:208   */\n    tag_100:\n        /* \"#utility.yul\":177:201   */\n      tag_147\n        /* \"#utility.yul\":195:200   */\n      dup2\n        /* \"#utility.yul\":177:201   */\n      tag_99\n      jump\t// in\n    tag_147:\n        /* \"#utility.yul\":172:175   */\n      dup3\n        /* \"#utility.yul\":165:202   */\n      mstore\n        /* \"#utility.yul\":90:208   */\n      pop\n      pop\n      jump\t// out\n        /* \"#utility.yul\":214:436   */\n    tag_14:\n        /* \"#utility.yul\":307:311   */\n      0x00\n        /* \"#utility.yul\":345:347   */\n      0x20\n        /* \"#utility.yul\":334:343   */\n      dup3\n        /* \"#utility.yul\":330:348   */\n      add\n        /* \"#utility.yul\":322:348   */\n      swap1\n      pop\n        /* \"#utility.yul\":358:429   */\n      tag_149\n        /* \"#utility.yul\":426:427   */\n      0x00\n        /* \"#utility.yul\":415:424   */\n      dup4\n        /* \"#utility.yul\":411:428   */\n      add\n        /* \"#utility.yul\":402:408   */\n      dup5\n        /* \"#utility.yul\":358:429   */\n      tag_100\n      jump\t// in\n    tag_149:\n        /* \"#utility.yul\":214:436   */\n      swap3\n      swap2\n      pop\n      pop\n      jump\t// out\n        /* \"#utility.yul\":442:556   */\n    tag_101:\n        /* \"#utility.yul\":509:515   */\n      0x00\n        /* \"#utility.yul\":543:548   */\n      dup2\n        /* \"#utility.yul\":537:549   */\n      mload\n        /* \"#utility.yul\":527:549   */\n      swap1\n      pop\n        /* \"#utility.yul\":442:556   */\n      swap2\n      swap1\n      pop\n      jump\t// out\n        /* \"#utility.yul\":562:746   */\n    tag_102:\n        /* \"#utility.yul\":661:672   */\n      0x00\n        /* \"#utility.yul\":695:701   */\n      dup3\n        /* \"#utility.yul\":690:693   */\n      dup3\n        /* \"#utility.yul\":683:702   */\n      mstore\n        /* \"#utility.yul\":735:739   */\n      0x20\n        /* \"#utility.yul\":730:733   */\n      dup3\n        /* \"#utility.yul\":726:740   */\n      add\n        /* \"#utility.yul\":711:740   */\n      swap1\n      pop\n        /* \"#utility.yul\":562:746   */\n      swap3\n      swap2\n      pop\n      pop\n      jump\t// out\n        /* \"#utility.yul\":752:884   */\n    tag_103:\n        /* \"#utility.yul\":819:823   */\n      0x00\n        /* \"#utility.yul\":842:845   */\n      dup2\n        /* \"#utility.yul\":834:845   */\n      swap1\n      pop\n        /* \"#utility.yul\":872:876   */\n      0x20\n        /* \"#utility.yul\":867:870   */\n      dup3\n        /* \"#utility.yul\":863:877   */\n      add\n        /* \"#utility.yul\":855:877   */\n      swap1\n      pop\n        /* \"#utility.yul\":752:884   */\n      swap2\n      swap1\n      pop\n      jump\t// out\n        /* \"#utility.yul\":890:1016   */\n    tag_104:\n        /* \"#utility.yul\":927:934   */\n      0x00\n        /* \"#utility.yul\":967:1009   */\n      0xffffffffffffffffffffffffffffffffffffffff\n        /* \"#utility.yul\":960:965   */\n      dup3\n        /* \"#utility.yul\":956:1010   */\n      and\n        /* \"#utility.yul\":945:1010   */\n      swap1\n      pop\n        /* \"#utility.yul\":890:1016   */\n      swap2\n      swap1\n      pop\n      jump\t// out\n        /* \"#utility.yul\":1022:1118   */\n    tag_105:\n        /* \"#utility.yul\":1059:1066   */\n      0x00\n        /* \"#utility.yul\":1088:1112   */\n      tag_155\n        /* \"#utility.yul\":1106:1111   */\n      dup3\n        /* \"#utility.yul\":1088:1112   */\n      tag_104\n      jump\t// in\n    tag_155:\n        /* \"#utility.yul\":1077:1112   */\n      swap1\n      pop\n        /* \"#utility.yul\":1022:1118   */\n      swap2\n      swap1\n      pop\n      jump\t// out\n        /* \"#utility.yul\":1124:1232   */\n    tag_106:\n        /* \"#utility.yul\":1201:1225   */\n      tag_157\n        /* \"#utility.yul\":1219:1224   */\n      dup2\n        /* \"#utility.yul\":1201:1225   */\n      tag_105\n      jump\t// in\n    tag_157:\n        /* \"#utility.yul\":1196:1199   */\n      dup3\n        /* \"#utility.yul\":1189:1226   */\n      mstore\n        /* \"#utility.yul\":1124:1232   */\n      pop\n      pop\n      jump\t// out\n        /* \"#utility.yul\":1238:1417   */\n    tag_107:\n        /* \"#utility.yul\":1307:1317   */\n      0x00\n        /* \"#utility.yul\":1328:1374   */\n      tag_159\n        /* \"#utility.yul\":1370:1373   */\n      dup4\n        /* \"#utility.yul\":1362:1368   */\n      dup4\n        /* \"#utility.yul\":1328:1374   */\n      tag_106\n      jump\t// in\n    tag_159:\n        /* \"#utility.yul\":1406:1410   */\n      0x20\n        /* \"#utility.yul\":1401:1404   */\n      dup4\n        /* \"#utility.yul\":1397:1411   */\n      add\n        /* \"#utility.yul\":1383:1411   */\n      swap1\n      pop\n        /* \"#utility.yul\":1238:1417   */\n      swap3\n      swap2\n      pop\n      pop\n      jump\t// out\n        /* \"#utility.yul\":1423:1536   */\n    tag_108:\n        /* \"#utility.yul\":1493:1497   */\n      0x00\n        /* \"#utility.yul\":1525:1529   */\n      0x20\n        /* \"#utility.yul\":1520:1523   */\n      dup3\n        /* \"#utility.yul\":1516:1530   */\n      add\n        /* \"#utility.yul\":1508:1530   */\n      swap1\n      pop\n        /* \"#utility.yul\":1423:1536   */\n      swap2\n      swap1\n      pop\n      jump\t// out\n        /* \"#utility.yul\":1572:2304   */\n    tag_109:\n        /* \"#utility.yul\":1691:1694   */\n      0x00\n        /* \"#utility.yul\":1720:1774   */\n      tag_162\n        /* \"#utility.yul\":1768:1773   */\n      dup3\n        /* \"#utility.yul\":1720:1774   */\n      tag_101\n      jump\t// in\n    tag_162:\n        /* \"#utility.yul\":1790:1876   */\n      tag_163\n        /* \"#utility.yul\":1869:1875   */\n      dup2\n        /* \"#utility.yul\":1864:1867   */\n      dup6\n        /* \"#utility.yul\":1790:1876   */\n      tag_102\n      jump\t// in\n    tag_163:\n        /* \"#utility.yul\":1783:1876   */\n      swap4\n      pop\n        /* \"#utility.yul\":1900:1956   */\n      tag_164\n        /* \"#utility.yul\":1950:1955   */\n      dup4\n        /* \"#utility.yul\":1900:1956   */\n      tag_103\n      jump\t// in\n    tag_164:\n        /* \"#utility.yul\":1979:1986   */\n      dup1\n        /* \"#utility.yul\":2010:2011   */\n      0x00\n        /* \"#utility.yul\":1995:2279   */\n    tag_165:\n        /* \"#utility.yul\":2020:2026   */\n      dup4\n        /* \"#utility.yul\":2017:2018   */\n      dup2\n        /* \"#utility.yul\":2014:2027   */\n      lt\n        /* \"#utility.yul\":1995:2279   */\n      iszero\n      tag_167\n      jumpi\n        /* \"#utility.yul\":2096:2102   */\n      dup2\n        /* \"#utility.yul\":2090:2103   */\n      mload\n        /* \"#utility.yul\":2123:2186   */\n      tag_168\n        /* \"#utility.yul\":2182:2185   */\n      dup9\n        /* \"#utility.yul\":2167:2180   */\n      dup3\n        /* \"#utility.yul\":2123:2186   */\n      tag_107\n      jump\t// in\n    tag_168:\n        /* \"#utility.yul\":2116:2186   */\n      swap8\n      pop\n        /* \"#utility.yul\":2209:2269   */\n      tag_169\n        /* \"#utility.yul\":2262:2268   */\n      dup4\n        /* \"#utility.yul\":2209:2269   */\n      tag_108\n      jump\t// in\n    tag_169:\n        /* \"#utility.yul\":2199:2269   */\n      swap3\n      pop\n        /* \"#utility.yul\":2055:2279   */\n      pop\n        /* \"#utility.yul\":2042:2043   */\n      0x01\n        /* \"#utility.yul\":2039:2040   */\n      dup2\n        /* \"#utility.yul\":2035:2044   */\n      add\n        /* \"#utility.yul\":2030:2044   */\n      swap1\n      pop\n        /* \"#utility.yul\":1995:2279   */\n      jump(tag_165)\n    tag_167:\n        /* \"#utility.yul\":1999:2013   */\n      pop\n        /* \"#utility.yul\":2295:2298   */\n      dup6\n        /* \"#utility.yul\":2288:2298   */\n      swap4\n      pop\n        /* \"#utility.yul\":1696:2304   */\n      pop\n      pop\n      pop\n        /* \"#utility.yul\":1572:2304   */\n      swap3\n      swap2\n      pop\n      pop\n      jump\t// out\n        /* \"#utility.yul\":2310:2683   */\n    tag_20:\n        /* \"#utility.yul\":2453:2457   */\n      0x00\n        /* \"#utility.yul\":2491:2493   */\n      0x20\n        /* \"#utility.yul\":2480:2489   */\n      dup3\n        /* \"#utility.yul\":2476:2494   */\n      add\n        /* \"#utility.yul\":2468:2494   */\n      swap1\n      pop\n        /* \"#utility.yul\":2540:2549   */\n      dup2\n        /* \"#utility.yul\":2534:2538   */\n      dup2\n        /* \"#utility.yul\":2530:2550   */\n      sub\n        /* \"#utility.yul\":2526:2527   */\n      0x00\n        /* \"#utility.yul\":2515:2524   */\n      dup4\n        /* \"#utility.yul\":2511:2528   */\n      add\n        /* \"#utility.yul\":2504:2551   */\n      mstore\n        /* \"#utility.yul\":2568:2676   */\n      tag_171\n        /* \"#utility.yul\":2671:2675   */\n      dup2\n        /* \"#utility.yul\":2662:2668   */\n      dup5\n        /* \"#utility.yul\":2568:2676   */\n      tag_109\n      jump\t// in\n    tag_171:\n        /* \"#utility.yul\":2560:2676   */\n      swap1\n      pop\n        /* \"#utility.yul\":2310:2683   */\n      swap3\n      swap2\n      pop\n      pop\n      jump\t// out\n        /* \"#utility.yul\":2689:2749   */\n    tag_110:\n        /* \"#utility.yul\":2717:2720   */\n      0x00\n        /* \"#utility.yul\":2738:2743   */\n      dup2\n        /* \"#utility.yul\":2731:2743   */\n      swap1\n      pop\n        /* \"#utility.yul\":2689:2749   */\n      swap2\n      swap1\n      pop\n      jump\t// out\n        /* \"#utility.yul\":2755:2897   */\n    tag_111:\n        /* \"#utility.yul\":2805:2814   */\n      0x00\n        /* \"#utility.yul\":2838:2891   */\n      tag_174\n        /* \"#utility.yul\":2856:2890   */\n      tag_175\n        /* \"#utility.yul\":2865:2889   */\n      tag_176\n        /* \"#utility.yul\":2883:2888   */\n      dup5\n        /* \"#utility.yul\":2865:2889   */\n      tag_104\n      jump\t// in\n    tag_176:\n        /* \"#utility.yul\":2856:2890   */\n      tag_110\n      jump\t// in\n    tag_175:\n        /* \"#utility.yul\":2838:2891   */\n      tag_104\n      jump\t// in\n    tag_174:\n        /* \"#utility.yul\":2825:2891   */\n      swap1\n      pop\n        /* \"#utility.yul\":2755:2897   */\n      swap2\n      swap1\n      pop\n      jump\t// out\n        /* \"#utility.yul\":2903:3029   */\n    tag_112:\n        /* \"#utility.yul\":2953:2962   */\n      0x00\n        /* \"#utility.yul\":2986:3023   */\n      tag_178\n        /* \"#utility.yul\":3017:3022   */\n      dup3\n        /* \"#utility.yul\":2986:3023   */\n      tag_111\n      jump\t// in\n    tag_178:\n        /* \"#utility.yul\":2973:3023   */\n      swap1\n      pop\n        /* \"#utility.yul\":2903:3029   */\n      swap2\n      swap1\n      pop\n      jump\t// out\n        /* \"#utility.yul\":3035:3174   */\n    tag_113:\n        /* \"#utility.yul\":3098:3107   */\n      0x00\n        /* \"#utility.yul\":3131:3168   */\n      tag_180\n        /* \"#utility.yul\":3162:3167   */\n      dup3\n        /* \"#utility.yul\":3131:3168   */\n      tag_112\n      jump\t// in\n    tag_180:\n        /* \"#utility.yul\":3118:3168   */\n      swap1\n      pop\n        /* \"#utility.yul\":3035:3174   */\n      swap2\n      swap1\n      pop\n      jump\t// out\n        /* \"#utility.yul\":3180:3337   */\n    tag_114:\n        /* \"#utility.yul\":3280:3330   */\n      tag_182\n        /* \"#utility.yul\":3324:3329   */\n      dup2\n        /* \"#utility.yul\":3280:3330   */\n      tag_113\n      jump\t// in\n    tag_182:\n        /* \"#utility.yul\":3275:3278   */\n      dup3\n        /* \"#utility.yul\":3268:3331   */\n      mstore\n        /* \"#utility.yul\":3180:3337   */\n      pop\n      pop\n      jump\t// out\n        /* \"#utility.yul\":3343:3591   */\n    tag_32:\n        /* \"#utility.yul\":3449:3453   */\n      0x00\n        /* \"#utility.yul\":3487:3489   */\n      0x20\n        /* \"#utility.yul\":3476:3485   */\n      dup3\n        /* \"#utility.yul\":3472:3490   */\n      add\n        /* \"#utility.yul\":3464:3490   */\n      swap1\n      pop\n        /* \"#utility.yul\":3500:3584   */\n      tag_184\n        /* \"#utility.yul\":3581:3582   */\n      0x00\n        /* \"#utility.yul\":3570:3579   */\n      dup4\n        /* \"#utility.yul\":3566:3583   */\n      add\n        /* \"#utility.yul\":3557:3563   */\n      dup5\n        /* \"#utility.yul\":3500:3584   */\n      tag_114\n      jump\t// in\n    tag_184:\n        /* \"#utility.yul\":3343:3591   */\n      swap3\n      swap2\n      pop\n      pop\n      jump\t// out\n        /* \"#utility.yul\":3597:3766   */\n    tag_115:\n        /* \"#utility.yul\":3681:3692   */\n      0x00\n        /* \"#utility.yul\":3715:3721   */\n      dup3\n        /* \"#utility.yul\":3710:3713   */\n      dup3\n        /* \"#utility.yul\":3703:3722   */\n      mstore\n        /* \"#utility.yul\":3755:3759   */\n      0x20\n        /* \"#utility.yul\":3750:3753   */\n      dup3\n        /* \"#utility.yul\":3746:3760   */\n      add\n        /* \"#utility.yul\":3731:3760   */\n      swap1\n      pop\n        /* \"#utility.yul\":3597:3766   */\n      swap3\n      swap2\n      pop\n      pop\n      jump\t// out\n        /* \"#utility.yul\":3772:4001   */\n    tag_116:\n        /* \"#utility.yul\":3912:3946   */\n      0x43616e6e6f742073656c65637420612077696e6e6572206265666f7265207468\n        /* \"#utility.yul\":3908:3909   */\n      0x00\n        /* \"#utility.yul\":3900:3906   */\n      dup3\n        /* \"#utility.yul\":3896:3910   */\n      add\n        /* \"#utility.yul\":3889:3947   */\n      mstore\n        /* \"#utility.yul\":3981:3993   */\n      0x6520646561646c696e6500000000000000000000000000000000000000000000\n        /* \"#utility.yul\":3976:3978   */\n      0x20\n        /* \"#utility.yul\":3968:3974   */\n      dup3\n        /* \"#utility.yul\":3964:3979   */\n      add\n        /* \"#utility.yul\":3957:3994   */\n      mstore\n        /* \"#utility.yul\":3772:4001   */\n      pop\n      jump\t// out\n        /* \"#utility.yul\":4007:4373   */\n    tag_117:\n        /* \"#utility.yul\":4149:4152   */\n      0x00\n        /* \"#utility.yul\":4170:4237   */\n      tag_188\n        /* \"#utility.yul\":4234:4236   */\n      0x2a\n        /* \"#utility.yul\":4229:4232   */\n      dup4\n        /* \"#utility.yul\":4170:4237   */\n      tag_115\n      jump\t// in\n    tag_188:\n        /* \"#utility.yul\":4163:4237   */\n      swap2\n      pop\n        /* \"#utility.yul\":4246:4339   */\n      tag_189\n        /* \"#utility.yul\":4335:4338   */\n      dup3\n        /* \"#utility.yul\":4246:4339   */\n      tag_116\n      jump\t// in\n    tag_189:\n        /* \"#utility.yul\":4364:4366   */\n      0x40\n        /* \"#utility.yul\":4359:4362   */\n      dup3\n        /* \"#utility.yul\":4355:4367   */\n      add\n        /* \"#utility.yul\":4348:4367   */\n      swap1\n      pop\n        /* \"#utility.yul\":4007:4373   */\n      swap2\n      swap1\n      pop\n      jump\t// out\n        /* \"#utility.yul\":4379:4798   */\n    tag_36:\n        /* \"#utility.yul\":4545:4549   */\n      0x00\n        /* \"#utility.yul\":4583:4585   */\n      0x20\n        /* \"#utility.yul\":4572:4581   */\n      dup3\n        /* \"#utility.yul\":4568:4586   */\n      add\n        /* \"#utility.yul\":4560:4586   */\n      swap1\n      pop\n        /* \"#utility.yul\":4632:4641   */\n      dup2\n        /* \"#utility.yul\":4626:4630   */\n      dup2\n        /* \"#utility.yul\":4622:4642   */\n      sub\n        /* \"#utility.yul\":4618:4619   */\n      0x00\n        /* \"#utility.yul\":4607:4616   */\n      dup4\n        /* \"#utility.yul\":4603:4620   */\n      add\n        /* \"#utility.yul\":4596:4643   */\n      mstore\n        /* \"#utility.yul\":4660:4791   */\n      tag_191\n        /* \"#utility.yul\":4786:4790   */\n      dup2\n        /* \"#utility.yul\":4660:4791   */\n      tag_117\n      jump\t// in\n    tag_191:\n        /* \"#utility.yul\":4652:4791   */\n      swap1\n      pop\n        /* \"#utility.yul\":4379:4798   */\n      swap2\n      swap1\n      pop\n      jump\t// out\n        /* \"#utility.yul\":4804:4984   */\n    tag_118:\n        /* \"#utility.yul\":4944:4976   */\n      0x4e6f207061727469636970616e747320696e20746865206c6f74746572790000\n        /* \"#utility.yul\":4940:4941   */\n      0x00\n        /* \"#utility.yul\":4932:4938   */\n      dup3\n        /* \"#utility.yul\":4928:4942   */\n      add\n        /* \"#utility.yul\":4921:4977   */\n      mstore\n        /* \"#utility.yul\":4804:4984   */\n      pop\n      jump\t// out\n        /* \"#utility.yul\":4990:5356   */\n    tag_119:\n        /* \"#utility.yul\":5132:5135   */\n      0x00\n        /* \"#utility.yul\":5153:5220   */\n      tag_194\n        /* \"#utility.yul\":5217:5219   */\n      0x1e\n        /* \"#utility.yul\":5212:5215   */\n      dup4\n        /* \"#utility.yul\":5153:5220   */\n      tag_115\n      jump\t// in\n    tag_194:\n        /* \"#utility.yul\":5146:5220   */\n      swap2\n      pop\n        /* \"#utility.yul\":5229:5322   */\n      tag_195\n        /* \"#utility.yul\":5318:5321   */\n      dup3\n        /* \"#utility.yul\":5229:5322   */\n      tag_118\n      jump\t// in\n    tag_195:\n        /* \"#utility.yul\":5347:5349   */\n      0x20\n        /* \"#utility.yul\":5342:5345   */\n      dup3\n        /* \"#utility.yul\":5338:5350   */\n      add\n        /* \"#utility.yul\":5331:5350   */\n      swap1\n      pop\n        /* \"#utility.yul\":4990:5356   */\n      swap2\n      swap1\n      pop\n      jump\t// out\n        /* \"#utility.yul\":5362:5781   */\n    tag_39:\n        /* \"#utility.yul\":5528:5532   */\n      0x00\n        /* \"#utility.yul\":5566:5568   */\n      0x20\n        /* \"#utility.yul\":5555:5564   */\n      dup3\n        /* \"#utility.yul\":5551:5569   */\n      add\n        /* \"#utility.yul\":5543:5569   */\n      swap1\n      pop\n        /* \"#utility.yul\":5615:5624   */\n      dup2\n        /* \"#utility.yul\":5609:5613   */\n      dup2\n        /* \"#utility.yul\":5605:5625   */\n      sub\n        /* \"#utility.yul\":5601:5602   */\n      0x00\n        /* \"#utility.yul\":5590:5599   */\n      dup4\n        /* \"#utility.yul\":5586:5603   */\n      add\n        /* \"#utility.yul\":5579:5626   */\n      mstore\n        /* \"#utility.yul\":5643:5774   */\n      tag_197\n        /* \"#utility.yul\":5769:5773   */\n      dup2\n        /* \"#utility.yul\":5643:5774   */\n      tag_119\n      jump\t// in\n    tag_197:\n        /* \"#utility.yul\":5635:5774   */\n      swap1\n      pop\n        /* \"#utility.yul\":5362:5781   */\n      swap2\n      swap1\n      pop\n      jump\t// out\n        /* \"#utility.yul\":5787:5969   */\n    tag_120:\n        /* \"#utility.yul\":5927:5961   */\n      0x57696e6e65722068617320616c7265616479206265656e2073656c6563746564\n        /* \"#utility.yul\":5923:5924   */\n      0x00\n        /* \"#utility.yul\":5915:5921   */\n      dup3\n        /* \"#utility.yul\":5911:5925   */\n      add\n        /* \"#utility.yul\":5904:5962   */\n      mstore\n        /* \"#utility.yul\":5787:5969   */\n      pop\n      jump\t// out\n        /* \"#utility.yul\":5975:6341   */\n    tag_121:\n        /* \"#utility.yul\":6117:6120   */\n      0x00\n        /* \"#utility.yul\":6138:6205   */\n      tag_200\n        /* \"#utility.yul\":6202:6204   */\n      0x20\n        /* \"#utility.yul\":6197:6200   */\n      dup4\n        /* \"#utility.yul\":6138:6205   */\n      tag_115\n      jump\t// in\n    tag_200:\n        /* \"#utility.yul\":6131:6205   */\n      swap2\n      pop\n        /* \"#utility.yul\":6214:6307   */\n      tag_201\n        /* \"#utility.yul\":6303:6306   */\n      dup3\n        /* \"#utility.yul\":6214:6307   */\n      tag_120\n      jump\t// in\n    tag_201:\n        /* \"#utility.yul\":6332:6334   */\n      0x20\n        /* \"#utility.yul\":6327:6330   */\n      dup3\n        /* \"#utility.yul\":6323:6335   */\n      add\n        /* \"#utility.yul\":6316:6335   */\n      swap1\n      pop\n        /* \"#utility.yul\":5975:6341   */\n      swap2\n      swap1\n      pop\n      jump\t// out\n        /* \"#utility.yul\":6347:6766   */\n    tag_42:\n        /* \"#utility.yul\":6513:6517   */\n      0x00\n        /* \"#utility.yul\":6551:6553   */\n      0x20\n        /* \"#utility.yul\":6540:6549   */\n      dup3\n        /* \"#utility.yul\":6536:6554   */\n      add\n        /* \"#utility.yul\":6528:6554   */\n      swap1\n      pop\n        /* \"#utility.yul\":6600:6609   */\n      dup2\n        /* \"#utility.yul\":6594:6598   */\n      dup2\n        /* \"#utility.yul\":6590:6610   */\n      sub\n        /* \"#utility.yul\":6586:6587   */\n      0x00\n        /* \"#utility.yul\":6575:6584   */\n      dup4\n        /* \"#utility.yul\":6571:6588   */\n      add\n        /* \"#utility.yul\":6564:6611   */\n      mstore\n        /* \"#utility.yul\":6628:6759   */\n      tag_203\n        /* \"#utility.yul\":6754:6758   */\n      dup2\n        /* \"#utility.yul\":6628:6759   */\n      tag_121\n      jump\t// in\n    tag_203:\n        /* \"#utility.yul\":6620:6759   */\n      swap1\n      pop\n        /* \"#utility.yul\":6347:6766   */\n      swap2\n      swap1\n      pop\n      jump\t// out\n        /* \"#utility.yul\":6772:6952   */\n    tag_122:\n        /* \"#utility.yul\":6820:6897   */\n      0x4e487b7100000000000000000000000000000000000000000000000000000000\n        /* \"#utility.yul\":6817:6818   */\n      0x00\n        /* \"#utility.yul\":6810:6898   */\n      mstore\n        /* \"#utility.yul\":6917:6921   */\n      0x12\n        /* \"#utility.yul\":6914:6915   */\n      0x04\n        /* \"#utility.yul\":6907:6922   */\n      mstore\n        /* \"#utility.yul\":6941:6945   */\n      0x24\n        /* \"#utility.yul\":6938:6939   */\n      0x00\n        /* \"#utility.yul\":6931:6946   */\n      revert\n        /* \"#utility.yul\":6958:7134   */\n    tag_45:\n        /* \"#utility.yul\":6990:6991   */\n      0x00\n        /* \"#utility.yul\":7007:7027   */\n      tag_206\n        /* \"#utility.yul\":7025:7026   */\n      dup3\n        /* \"#utility.yul\":7007:7027   */\n      tag_99\n      jump\t// in\n    tag_206:\n        /* \"#utility.yul\":7002:7027   */\n      swap2\n      pop\n        /* \"#utility.yul\":7041:7061   */\n      tag_207\n        /* \"#utility.yul\":7059:7060   */\n      dup4\n        /* \"#utility.yul\":7041:7061   */\n      tag_99\n      jump\t// in\n    tag_207:\n        /* \"#utility.yul\":7036:7061   */\n      swap3\n      pop\n        /* \"#utility.yul\":7080:7081   */\n      dup3\n        /* \"#utility.yul\":7070:7105   */\n      tag_208\n      jumpi\n        /* \"#utility.yul\":7085:7103   */\n      tag_209\n      tag_122\n      jump\t// in\n    tag_209:\n        /* \"#utility.yul\":7070:7105   */\n    tag_208:\n        /* \"#utility.yul\":7126:7127   */\n      dup3\n        /* \"#utility.yul\":7123:7124   */\n      dup3\n        /* \"#utility.yul\":7119:7128   */\n      mod\n        /* \"#utility.yul\":7114:7128   */\n      swap1\n      pop\n        /* \"#utility.yul\":6958:7134   */\n      swap3\n      swap2\n      pop\n      pop\n      jump\t// out\n        /* \"#utility.yul\":7140:7320   */\n    tag_48:\n        /* \"#utility.yul\":7188:7265   */\n      0x4e487b7100000000000000000000000000000000000000000000000000000000\n        /* \"#utility.yul\":7185:7186   */\n      0x00\n        /* \"#utility.yul\":7178:7266   */\n      mstore\n        /* \"#utility.yul\":7285:7289   */\n      0x32\n        /* \"#utility.yul\":7282:7283   */\n      0x04\n        /* \"#utility.yul\":7275:7290   */\n      mstore\n        /* \"#utility.yul\":7309:7313   */\n      0x24\n        /* \"#utility.yul\":7306:7307   */\n      0x00\n        /* \"#utility.yul\":7299:7314   */\n      revert\n        /* \"#utility.yul\":7326:7444   */\n    tag_123:\n        /* \"#utility.yul\":7413:7437   */\n      tag_212\n        /* \"#utility.yul\":7431:7436   */\n      dup2\n        /* \"#utility.yul\":7413:7437   */\n      tag_105\n      jump\t// in\n    tag_212:\n        /* \"#utility.yul\":7408:7411   */\n      dup3\n        /* \"#utility.yul\":7401:7438   */\n      mstore\n        /* \"#utility.yul\":7326:7444   */\n      pop\n      pop\n      jump\t// out\n        /* \"#utility.yul\":7450:7672   */\n    tag_51:\n        /* \"#utility.yul\":7543:7547   */\n      0x00\n        /* \"#utility.yul\":7581:7583   */\n      0x20\n        /* \"#utility.yul\":7570:7579   */\n      dup3\n        /* \"#utility.yul\":7566:7584   */\n      add\n        /* \"#utility.yul\":7558:7584   */\n      swap1\n      pop\n        /* \"#utility.yul\":7594:7665   */\n      tag_214\n        /* \"#utility.yul\":7662:7663   */\n      0x00\n        /* \"#utility.yul\":7651:7660   */\n      dup4\n        /* \"#utility.yul\":7647:7664   */\n      add\n        /* \"#utility.yul\":7638:7644   */\n      dup5\n        /* \"#utility.yul\":7594:7665   */\n      tag_123\n      jump\t// in\n    tag_214:\n        /* \"#utility.yul\":7450:7672   */\n      swap3\n      swap2\n      pop\n      pop\n      jump\t// out\n        /* \"#utility.yul\":7759:7876   */\n    tag_125:\n        /* \"#utility.yul\":7868:7869   */\n      0x00\n        /* \"#utility.yul\":7865:7866   */\n      dup1\n        /* \"#utility.yul\":7858:7870   */\n      revert\n        /* \"#utility.yul\":8005:8127   */\n    tag_127:\n        /* \"#utility.yul\":8078:8102   */\n      tag_219\n        /* \"#utility.yul\":8096:8101   */\n      dup2\n        /* \"#utility.yul\":8078:8102   */\n      tag_99\n      jump\t// in\n    tag_219:\n        /* \"#utility.yul\":8071:8076   */\n      dup2\n        /* \"#utility.yul\":8068:8103   */\n      eq\n        /* \"#utility.yul\":8058:8121   */\n      tag_220\n      jumpi\n        /* \"#utility.yul\":8117:8118   */\n      0x00\n        /* \"#utility.yul\":8114:8115   */\n      dup1\n        /* \"#utility.yul\":8107:8119   */\n      revert\n        /* \"#utility.yul\":8058:8121   */\n    tag_220:\n        /* \"#utility.yul\":8005:8127   */\n      pop\n      jump\t// out\n        /* \"#utility.yul\":8133:8276   */\n    tag_128:\n        /* \"#utility.yul\":8190:8195   */\n      0x00\n        /* \"#utility.yul\":8221:8227   */\n      dup2\n        /* \"#utility.yul\":8215:8228   */\n      mload\n        /* \"#utility.yul\":8206:8228   */\n      swap1\n      pop\n        /* \"#utility.yul\":8237:8270   */\n      tag_222\n        /* \"#utility.yul\":8264:8269   */\n      dup2\n        /* \"#utility.yul\":8237:8270   */\n      tag_127\n      jump\t// in\n    tag_222:\n        /* \"#utility.yul\":8133:8276   */\n      swap3\n      swap2\n      pop\n      pop\n      jump\t// out\n        /* \"#utility.yul\":8282:8633   */\n    tag_56:\n        /* \"#utility.yul\":8352:8358   */\n      0x00\n        /* \"#utility.yul\":8401:8403   */\n      0x20\n        /* \"#utility.yul\":8389:8398   */\n      dup3\n        /* \"#utility.yul\":8380:8387   */\n      dup5\n        /* \"#utility.yul\":8376:8399   */\n      sub\n        /* \"#utility.yul\":8372:8404   */\n      slt\n        /* \"#utility.yul\":8369:8488   */\n      iszero\n      tag_224\n      jumpi\n        /* \"#utility.yul\":8407:8486   */\n      tag_225\n      tag_125\n      jump\t// in\n    tag_225:\n        /* \"#utility.yul\":8369:8488   */\n    tag_224:\n        /* \"#utility.yul\":8527:8528   */\n      0x00\n        /* \"#utility.yul\":8552:8616   */\n      tag_226\n        /* \"#utility.yul\":8608:8615   */\n      dup5\n        /* \"#utility.yul\":8599:8605   */\n      dup3\n        /* \"#utility.yul\":8588:8597   */\n      dup6\n        /* \"#utility.yul\":8584:8606   */\n      add\n        /* \"#utility.yul\":8552:8616   */\n      tag_128\n      jump\t// in\n    tag_226:\n        /* \"#utility.yul\":8542:8616   */\n      swap2\n      pop\n        /* \"#utility.yul\":8498:8626   */\n      pop\n        /* \"#utility.yul\":8282:8633   */\n      swap3\n      swap2\n      pop\n      pop\n      jump\t// out\n        /* \"#utility.yul\":8639:8971   */\n    tag_58:\n        /* \"#utility.yul\":8760:8764   */\n      0x00\n        /* \"#utility.yul\":8798:8800   */\n      0x40\n        /* \"#utility.yul\":8787:8796   */\n      dup3\n        /* \"#utility.yul\":8783:8801   */\n      add\n        /* \"#utility.yul\":8775:8801   */\n      swap1\n      pop\n        /* \"#utility.yul\":8811:8882   */\n      tag_228\n        /* \"#utility.yul\":8879:8880   */\n      0x00\n        /* \"#utility.yul\":8868:8877   */\n      dup4\n        /* \"#utility.yul\":8864:8881   */\n      add\n        /* \"#utility.yul\":8855:8861   */\n      dup6\n        /* \"#utility.yul\":8811:8882   */\n      tag_123\n      jump\t// in\n    tag_228:\n        /* \"#utility.yul\":8892:8964   */\n      tag_229\n        /* \"#utility.yul\":8960:8962   */\n      0x20\n        /* \"#utility.yul\":8949:8958   */\n      dup4\n        /* \"#utility.yul\":8945:8963   */\n      add\n        /* \"#utility.yul\":8936:8942   */\n      dup5\n        /* \"#utility.yul\":8892:8964   */\n      tag_100\n      jump\t// in\n    tag_229:\n        /* \"#utility.yul\":8639:8971   */\n      swap4\n      swap3\n      pop\n      pop\n      pop\n      jump\t// out\n        /* \"#utility.yul\":8977:9067   */\n    tag_129:\n        /* \"#utility.yul\":9011:9018   */\n      0x00\n        /* \"#utility.yul\":9054:9059   */\n      dup2\n        /* \"#utility.yul\":9047:9060   */\n      iszero\n        /* \"#utility.yul\":9040:9061   */\n      iszero\n        /* \"#utility.yul\":9029:9061   */\n      swap1\n      pop\n        /* \"#utility.yul\":8977:9067   */\n      swap2\n      swap1\n      pop\n      jump\t// out\n        /* \"#utility.yul\":9073:9189   */\n    tag_130:\n        /* \"#utility.yul\":9143:9164   */\n      tag_232\n        /* \"#utility.yul\":9158:9163   */\n      dup2\n        /* \"#utility.yul\":9143:9164   */\n      tag_129\n      jump\t// in\n    tag_232:\n        /* \"#utility.yul\":9136:9141   */\n      dup2\n        /* \"#utility.yul\":9133:9165   */\n      eq\n        /* \"#utility.yul\":9123:9183   */\n      tag_233\n      jumpi\n        /* \"#utility.yul\":9179:9180   */\n      0x00\n        /* \"#utility.yul\":9176:9177   */\n      dup1\n        /* \"#utility.yul\":9169:9181   */\n      revert\n        /* \"#utility.yul\":9123:9183   */\n    tag_233:\n        /* \"#utility.yul\":9073:9189   */\n      pop\n      jump\t// out\n        /* \"#utility.yul\":9195:9332   */\n    tag_131:\n        /* \"#utility.yul\":9249:9254   */\n      0x00\n        /* \"#utility.yul\":9280:9286   */\n      dup2\n        /* \"#utility.yul\":9274:9287   */\n      mload\n        /* \"#utility.yul\":9265:9287   */\n      swap1\n      pop\n        /* \"#utility.yul\":9296:9326   */\n      tag_235\n        /* \"#utility.yul\":9320:9325   */\n      dup2\n        /* \"#utility.yul\":9296:9326   */\n      tag_130\n      jump\t// in\n    tag_235:\n        /* \"#utility.yul\":9195:9332   */\n      swap3\n      swap2\n      pop\n      pop\n      jump\t// out\n        /* \"#utility.yul\":9338:9683   */\n    tag_61:\n        /* \"#utility.yul\":9405:9411   */\n      0x00\n        /* \"#utility.yul\":9454:9456   */\n      0x20\n        /* \"#utility.yul\":9442:9451   */\n      dup3\n        /* \"#utility.yul\":9433:9440   */\n      dup5\n        /* \"#utility.yul\":9429:9452   */\n      sub\n        /* \"#utility.yul\":9425:9457   */\n      slt\n        /* \"#utility.yul\":9422:9541   */\n      iszero\n      tag_237\n      jumpi\n        /* \"#utility.yul\":9460:9539   */\n      tag_238\n      tag_125\n      jump\t// in\n    tag_238:\n        /* \"#utility.yul\":9422:9541   */\n    tag_237:\n        /* \"#utility.yul\":9580:9581   */\n      0x00\n        /* \"#utility.yul\":9605:9666   */\n      tag_239\n        /* \"#utility.yul\":9658:9665   */\n      dup5\n        /* \"#utility.yul\":9649:9655   */\n      dup3\n        /* \"#utility.yul\":9638:9647   */\n      dup6\n        /* \"#utility.yul\":9634:9656   */\n      add\n        /* \"#utility.yul\":9605:9666   */\n      tag_131\n      jump\t// in\n    tag_239:\n        /* \"#utility.yul\":9595:9666   */\n      swap2\n      pop\n        /* \"#utility.yul\":9551:9676   */\n      pop\n        /* \"#utility.yul\":9338:9683   */\n      swap3\n      swap2\n      pop\n      pop\n      jump\t// out\n        /* \"#utility.yul\":9689:9768   */\n    tag_132:\n        /* \"#utility.yul\":9728:9735   */\n      0x00\n        /* \"#utility.yul\":9757:9762   */\n      dup2\n        /* \"#utility.yul\":9746:9762   */\n      swap1\n      pop\n        /* \"#utility.yul\":9689:9768   */\n      swap2\n      swap1\n      pop\n      jump\t// out\n        /* \"#utility.yul\":9774:9931   */\n    tag_133:\n        /* \"#utility.yul\":9879:9924   */\n      tag_242\n        /* \"#utility.yul\":9899:9923   */\n      tag_243\n        /* \"#utility.yul\":9917:9922   */\n      dup3\n        /* \"#utility.yul\":9899:9923   */\n      tag_99\n      jump\t// in\n    tag_243:\n        /* \"#utility.yul\":9879:9924   */\n      tag_132\n      jump\t// in\n    tag_242:\n        /* \"#utility.yul\":9874:9877   */\n      dup3\n        /* \"#utility.yul\":9867:9925   */\n      mstore\n        /* \"#utility.yul\":9774:9931   */\n      pop\n      pop\n      jump\t// out\n        /* \"#utility.yul\":9937:10031   */\n    tag_134:\n        /* \"#utility.yul\":9970:9978   */\n      0x00\n        /* \"#utility.yul\":10018:10023   */\n      dup2\n        /* \"#utility.yul\":10014:10016   */\n      0x60\n        /* \"#utility.yul\":10010:10024   */\n      shl\n        /* \"#utility.yul\":9989:10024   */\n      swap1\n      pop\n        /* \"#utility.yul\":9937:10031   */\n      swap2\n      swap1\n      pop\n      jump\t// out\n        /* \"#utility.yul\":10037:10131   */\n    tag_135:\n        /* \"#utility.yul\":10076:10083   */\n      0x00\n        /* \"#utility.yul\":10105:10125   */\n      tag_246\n        /* \"#utility.yul\":10119:10124   */\n      dup3\n        /* \"#utility.yul\":10105:10125   */\n      tag_134\n      jump\t// in\n    tag_246:\n        /* \"#utility.yul\":10094:10125   */\n      swap1\n      pop\n        /* \"#utility.yul\":10037:10131   */\n      swap2\n      swap1\n      pop\n      jump\t// out\n        /* \"#utility.yul\":10137:10237   */\n    tag_136:\n        /* \"#utility.yul\":10176:10183   */\n      0x00\n        /* \"#utility.yul\":10205:10231   */\n      tag_248\n        /* \"#utility.yul\":10225:10230   */\n      dup3\n        /* \"#utility.yul\":10205:10231   */\n      tag_135\n      jump\t// in\n    tag_248:\n        /* \"#utility.yul\":10194:10231   */\n      swap1\n      pop\n        /* \"#utility.yul\":10137:10237   */\n      swap2\n      swap1\n      pop\n      jump\t// out\n        /* \"#utility.yul\":10243:10400   */\n    tag_137:\n        /* \"#utility.yul\":10348:10393   */\n      tag_250\n        /* \"#utility.yul\":10368:10392   */\n      tag_251\n        /* \"#utility.yul\":10386:10391   */\n      dup3\n        /* \"#utility.yul\":10368:10392   */\n      tag_105\n      jump\t// in\n    tag_251:\n        /* \"#utility.yul\":10348:10393   */\n      tag_136\n      jump\t// in\n    tag_250:\n        /* \"#utility.yul\":10343:10346   */\n      dup3\n        /* \"#utility.yul\":10336:10394   */\n      mstore\n        /* \"#utility.yul\":10243:10400   */\n      pop\n      pop\n      jump\t// out\n        /* \"#utility.yul\":10406:10944   */\n    tag_73:\n        /* \"#utility.yul\":10574:10577   */\n      0x00\n        /* \"#utility.yul\":10589:10664   */\n      tag_253\n        /* \"#utility.yul\":10660:10663   */\n      dup3\n        /* \"#utility.yul\":10651:10657   */\n      dup7\n        /* \"#utility.yul\":10589:10664   */\n      tag_133\n      jump\t// in\n    tag_253:\n        /* \"#utility.yul\":10689:10691   */\n      0x20\n        /* \"#utility.yul\":10684:10687   */\n      dup3\n        /* \"#utility.yul\":10680:10692   */\n      add\n        /* \"#utility.yul\":10673:10692   */\n      swap2\n      pop\n        /* \"#utility.yul\":10702:10777   */\n      tag_254\n        /* \"#utility.yul\":10773:10776   */\n      dup3\n        /* \"#utility.yul\":10764:10770   */\n      dup6\n        /* \"#utility.yul\":10702:10777   */\n      tag_133\n      jump\t// in\n    tag_254:\n        /* \"#utility.yul\":10802:10804   */\n      0x20\n        /* \"#utility.yul\":10797:10800   */\n      dup3\n        /* \"#utility.yul\":10793:10805   */\n      add\n        /* \"#utility.yul\":10786:10805   */\n      swap2\n      pop\n        /* \"#utility.yul\":10815:10890   */\n      tag_255\n        /* \"#utility.yul\":10886:10889   */\n      dup3\n        /* \"#utility.yul\":10877:10883   */\n      dup5\n        /* \"#utility.yul\":10815:10890   */\n      tag_137\n      jump\t// in\n    tag_255:\n        /* \"#utility.yul\":10915:10917   */\n      0x14\n        /* \"#utility.yul\":10910:10913   */\n      dup3\n        /* \"#utility.yul\":10906:10918   */\n      add\n        /* \"#utility.yul\":10899:10918   */\n      swap2\n      pop\n        /* \"#utility.yul\":10935:10938   */\n      dup2\n        /* \"#utility.yul\":10928:10938   */\n      swap1\n      pop\n        /* \"#utility.yul\":10406:10944   */\n      swap5\n      swap4\n      pop\n      pop\n      pop\n      pop\n      jump\t// out\n        /* \"#utility.yul\":10950:11172   */\n    tag_138:\n        /* \"#utility.yul\":11090:11124   */\n      0x5469636b657420707572636861736520646561646c696e652068617320706173\n        /* \"#utility.yul\":11086:11087   */\n      0x00\n        /* \"#utility.yul\":11078:11084   */\n      dup3\n        /* \"#utility.yul\":11074:11088   */\n      add\n        /* \"#utility.yul\":11067:11125   */\n      mstore\n        /* \"#utility.yul\":11159:11164   */\n      0x7365640000000000000000000000000000000000000000000000000000000000\n        /* \"#utility.yul\":11154:11156   */\n      0x20\n        /* \"#utility.yul\":11146:11152   */\n      dup3\n        /* \"#utility.yul\":11142:11157   */\n      add\n        /* \"#utility.yul\":11135:11165   */\n      mstore\n        /* \"#utility.yul\":10950:11172   */\n      pop\n      jump\t// out\n        /* \"#utility.yul\":11178:11544   */\n    tag_139:\n        /* \"#utility.yul\":11320:11323   */\n      0x00\n        /* \"#utility.yul\":11341:11408   */\n      tag_258\n        /* \"#utility.yul\":11405:11407   */\n      0x23\n        /* \"#utility.yul\":11400:11403   */\n      dup4\n        /* \"#utility.yul\":11341:11408   */\n      tag_115\n      jump\t// in\n    tag_258:\n        /* \"#utility.yul\":11334:11408   */\n      swap2\n      pop\n        /* \"#utility.yul\":11417:11510   */\n      tag_259\n        /* \"#utility.yul\":11506:11509   */\n      dup3\n        /* \"#utility.yul\":11417:11510   */\n      tag_138\n      jump\t// in\n    tag_259:\n        /* \"#utility.yul\":11535:11537   */\n      0x40\n        /* \"#utility.yul\":11530:11533   */\n      dup3\n        /* \"#utility.yul\":11526:11538   */\n      add\n        /* \"#utility.yul\":11519:11538   */\n      swap1\n      pop\n        /* \"#utility.yul\":11178:11544   */\n      swap2\n      swap1\n      pop\n      jump\t// out\n        /* \"#utility.yul\":11550:11969   */\n    tag_77:\n        /* \"#utility.yul\":11716:11720   */\n      0x00\n        /* \"#utility.yul\":11754:11756   */\n      0x20\n        /* \"#utility.yul\":11743:11752   */\n      dup3\n        /* \"#utility.yul\":11739:11757   */\n      add\n        /* \"#utility.yul\":11731:11757   */\n      swap1\n      pop\n        /* \"#utility.yul\":11803:11812   */\n      dup2\n        /* \"#utility.yul\":11797:11801   */\n      dup2\n        /* \"#utility.yul\":11793:11813   */\n      sub\n        /* \"#utility.yul\":11789:11790   */\n      0x00\n        /* \"#utility.yul\":11778:11787   */\n      dup4\n        /* \"#utility.yul\":11774:11791   */\n      add\n        /* \"#utility.yul\":11767:11814   */\n      mstore\n        /* \"#utility.yul\":11831:11962   */\n      tag_261\n        /* \"#utility.yul\":11957:11961   */\n      dup2\n        /* \"#utility.yul\":11831:11962   */\n      tag_139\n      jump\t// in\n    tag_261:\n        /* \"#utility.yul\":11823:11962   */\n      swap1\n      pop\n        /* \"#utility.yul\":11550:11969   */\n      swap2\n      swap1\n      pop\n      jump\t// out\n        /* \"#utility.yul\":11975:12307   */\n    tag_79:\n        /* \"#utility.yul\":12096:12100   */\n      0x00\n        /* \"#utility.yul\":12134:12136   */\n      0x40\n        /* \"#utility.yul\":12123:12132   */\n      dup3\n        /* \"#utility.yul\":12119:12137   */\n      add\n        /* \"#utility.yul\":12111:12137   */\n      swap1\n      pop\n        /* \"#utility.yul\":12147:12218   */\n      tag_263\n        /* \"#utility.yul\":12215:12216   */\n      0x00\n        /* \"#utility.yul\":12204:12213   */\n      dup4\n        /* \"#utility.yul\":12200:12217   */\n      add\n        /* \"#utility.yul\":12191:12197   */\n      dup6\n        /* \"#utility.yul\":12147:12218   */\n      tag_123\n      jump\t// in\n    tag_263:\n        /* \"#utility.yul\":12228:12300   */\n      tag_264\n        /* \"#utility.yul\":12296:12298   */\n      0x20\n        /* \"#utility.yul\":12285:12294   */\n      dup4\n        /* \"#utility.yul\":12281:12299   */\n      add\n        /* \"#utility.yul\":12272:12278   */\n      dup5\n        /* \"#utility.yul\":12228:12300   */\n      tag_123\n      jump\t// in\n    tag_264:\n        /* \"#utility.yul\":11975:12307   */\n      swap4\n      swap3\n      pop\n      pop\n      pop\n      jump\t// out\n        /* \"#utility.yul\":12313:12561   */\n    tag_140:\n        /* \"#utility.yul\":12453:12487   */\n      0x496e73756666696369656e7420616c6c6f77616e63652e20417070726f766520\n        /* \"#utility.yul\":12449:12450   */\n      0x00\n        /* \"#utility.yul\":12441:12447   */\n      dup3\n        /* \"#utility.yul\":12437:12451   */\n      add\n        /* \"#utility.yul\":12430:12488   */\n      mstore\n        /* \"#utility.yul\":12522:12553   */\n      0x74686520636f6e747261637420746f207370656e6420746f6b656e732e000000\n        /* \"#utility.yul\":12517:12519   */\n      0x20\n        /* \"#utility.yul\":12509:12515   */\n      dup3\n        /* \"#utility.yul\":12505:12520   */\n      add\n        /* \"#utility.yul\":12498:12554   */\n      mstore\n        /* \"#utility.yul\":12313:12561   */\n      pop\n      jump\t// out\n        /* \"#utility.yul\":12567:12933   */\n    tag_141:\n        /* \"#utility.yul\":12709:12712   */\n      0x00\n        /* \"#utility.yul\":12730:12797   */\n      tag_267\n        /* \"#utility.yul\":12794:12796   */\n      0x3d\n        /* \"#utility.yul\":12789:12792   */\n      dup4\n        /* \"#utility.yul\":12730:12797   */\n      tag_115\n      jump\t// in\n    tag_267:\n        /* \"#utility.yul\":12723:12797   */\n      swap2\n      pop\n        /* \"#utility.yul\":12806:12899   */\n      tag_268\n        /* \"#utility.yul\":12895:12898   */\n      dup3\n        /* \"#utility.yul\":12806:12899   */\n      tag_140\n      jump\t// in\n    tag_268:\n        /* \"#utility.yul\":12924:12926   */\n      0x40\n        /* \"#utility.yul\":12919:12922   */\n      dup3\n        /* \"#utility.yul\":12915:12927   */\n      add\n        /* \"#utility.yul\":12908:12927   */\n      swap1\n      pop\n        /* \"#utility.yul\":12567:12933   */\n      swap2\n      swap1\n      pop\n      jump\t// out\n        /* \"#utility.yul\":12939:13358   */\n    tag_85:\n        /* \"#utility.yul\":13105:13109   */\n      0x00\n        /* \"#utility.yul\":13143:13145   */\n      0x20\n        /* \"#utility.yul\":13132:13141   */\n      dup3\n        /* \"#utility.yul\":13128:13146   */\n      add\n        /* \"#utility.yul\":13120:13146   */\n      swap1\n      pop\n        /* \"#utility.yul\":13192:13201   */\n      dup2\n        /* \"#utility.yul\":13186:13190   */\n      dup2\n        /* \"#utility.yul\":13182:13202   */\n      sub\n        /* \"#utility.yul\":13178:13179   */\n      0x00\n        /* \"#utility.yul\":13167:13176   */\n      dup4\n        /* \"#utility.yul\":13163:13180   */\n      add\n        /* \"#utility.yul\":13156:13203   */\n      mstore\n        /* \"#utility.yul\":13220:13351   */\n      tag_270\n        /* \"#utility.yul\":13346:13350   */\n      dup2\n        /* \"#utility.yul\":13220:13351   */\n      tag_141\n      jump\t// in\n    tag_270:\n        /* \"#utility.yul\":13212:13351   */\n      swap1\n      pop\n        /* \"#utility.yul\":12939:13358   */\n      swap2\n      swap1\n      pop\n      jump\t// out\n        /* \"#utility.yul\":13364:13806   */\n    tag_87:\n        /* \"#utility.yul\":13513:13517   */\n      0x00\n        /* \"#utility.yul\":13551:13553   */\n      0x60\n        /* \"#utility.yul\":13540:13549   */\n      dup3\n        /* \"#utility.yul\":13536:13554   */\n      add\n        /* \"#utility.yul\":13528:13554   */\n      swap1\n      pop\n        /* \"#utility.yul\":13564:13635   */\n      tag_272\n        /* \"#utility.yul\":13632:13633   */\n      0x00\n        /* \"#utility.yul\":13621:13630   */\n      dup4\n        /* \"#utility.yul\":13617:13634   */\n      add\n        /* \"#utility.yul\":13608:13614   */\n      dup7\n        /* \"#utility.yul\":13564:13635   */\n      tag_123\n      jump\t// in\n    tag_272:\n        /* \"#utility.yul\":13645:13717   */\n      tag_273\n        /* \"#utility.yul\":13713:13715   */\n      0x20\n        /* \"#utility.yul\":13702:13711   */\n      dup4\n        /* \"#utility.yul\":13698:13716   */\n      add\n        /* \"#utility.yul\":13689:13695   */\n      dup6\n        /* \"#utility.yul\":13645:13717   */\n      tag_123\n      jump\t// in\n    tag_273:\n        /* \"#utility.yul\":13727:13799   */\n      tag_274\n        /* \"#utility.yul\":13795:13797   */\n      0x40\n        /* \"#utility.yul\":13784:13793   */\n      dup4\n        /* \"#utility.yul\":13780:13798   */\n      add\n        /* \"#utility.yul\":13771:13777   */\n      dup5\n        /* \"#utility.yul\":13727:13799   */\n      tag_100\n      jump\t// in\n    tag_274:\n        /* \"#utility.yul\":13364:13806   */\n      swap5\n      swap4\n      pop\n      pop\n      pop\n      pop\n      jump\t// out\n        /* \"#utility.yul\":13812:14105   */\n    tag_142:\n        /* \"#utility.yul\":13952:13986   */\n      0x546f6b656e207472616e73666572206661696c65642e20456e73757265207375\n        /* \"#utility.yul\":13948:13949   */\n      0x00\n        /* \"#utility.yul\":13940:13946   */\n      dup3\n        /* \"#utility.yul\":13936:13950   */\n      add\n        /* \"#utility.yul\":13929:13987   */\n      mstore\n        /* \"#utility.yul\":14021:14055   */\n      0x6666696369656e742062616c616e636520616e642070726f7065722061707072\n        /* \"#utility.yul\":14016:14018   */\n      0x20\n        /* \"#utility.yul\":14008:14014   */\n      dup3\n        /* \"#utility.yul\":14004:14019   */\n      add\n        /* \"#utility.yul\":13997:14056   */\n      mstore\n        /* \"#utility.yul\":14090:14097   */\n      0x6f76616c2e000000000000000000000000000000000000000000000000000000\n        /* \"#utility.yul\":14085:14087   */\n      0x40\n        /* \"#utility.yul\":14077:14083   */\n      dup3\n        /* \"#utility.yul\":14073:14088   */\n      add\n        /* \"#utility.yul\":14066:14098   */\n      mstore\n        /* \"#utility.yul\":13812:14105   */\n      pop\n      jump\t// out\n        /* \"#utility.yul\":14111:14477   */\n    tag_143:\n        /* \"#utility.yul\":14253:14256   */\n      0x00\n        /* \"#utility.yul\":14274:14341   */\n      tag_277\n        /* \"#utility.yul\":14338:14340   */\n      0x45\n        /* \"#utility.yul\":14333:14336   */\n      dup4\n        /* \"#utility.yul\":14274:14341   */\n      tag_115\n      jump\t// in\n    tag_277:\n        /* \"#utility.yul\":14267:14341   */\n      swap2\n      pop\n        /* \"#utility.yul\":14350:14443   */\n      tag_278\n        /* \"#utility.yul\":14439:14442   */\n      dup3\n        /* \"#utility.yul\":14350:14443   */\n      tag_142\n      jump\t// in\n    tag_278:\n        /* \"#utility.yul\":14468:14470   */\n      0x60\n        /* \"#utility.yul\":14463:14466   */\n      dup3\n        /* \"#utility.yul\":14459:14471   */\n      add\n        /* \"#utility.yul\":14452:14471   */\n      swap1\n      pop\n        /* \"#utility.yul\":14111:14477   */\n      swap2\n      swap1\n      pop\n      jump\t// out\n        /* \"#utility.yul\":14483:14902   */\n    tag_95:\n        /* \"#utility.yul\":14649:14653   */\n      0x00\n        /* \"#utility.yul\":14687:14689   */\n      0x20\n        /* \"#utility.yul\":14676:14685   */\n      dup3\n        /* \"#utility.yul\":14672:14690   */\n      add\n        /* \"#utility.yul\":14664:14690   */\n      swap1\n      pop\n        /* \"#utility.yul\":14736:14745   */\n      dup2\n        /* \"#utility.yul\":14730:14734   */\n      dup2\n        /* \"#utility.yul\":14726:14746   */\n      sub\n        /* \"#utility.yul\":14722:14723   */\n      0x00\n        /* \"#utility.yul\":14711:14720   */\n      dup4\n        /* \"#utility.yul\":14707:14724   */\n      add\n        /* \"#utility.yul\":14700:14747   */\n      mstore\n        /* \"#utility.yul\":14764:14895   */\n      tag_280\n        /* \"#utility.yul\":14890:14894   */\n      dup2\n        /* \"#utility.yul\":14764:14895   */\n      tag_143\n      jump\t// in\n    tag_280:\n        /* \"#utility.yul\":14756:14895   */\n      swap1\n      pop\n        /* \"#utility.yul\":14483:14902   */\n      swap2\n      swap1\n      pop\n      jump\t// out\n\n    auxdata: 0xa26469706673582212202e25d0fde3f90eaff65a3e0f6d0df19d8adf3ad99db6eaa3affbc54107653e1164736f6c634300081a0033\n}\n",
				"bytecode": {
					"linkReferences": {},
					"object": "608060405234801561000f575f80fd5b506040516113b53803806113b5833981810160405281019061003191906101e3565b5f73ffffffffffffffffffffffffffffffffffffffff168273ffffffffffffffffffffffffffffffffffffffff160361009f576040517f08c379a00000000000000000000000000000000000000000000000000000000081526004016100969061027b565b60405180910390fd5b5f81116100e1576040517f08c379a00000000000000000000000000000000000000000000000000000000081526004016100d890610309565b60405180910390fd5b815f806101000a81548173ffffffffffffffffffffffffffffffffffffffff021916908373ffffffffffffffffffffffffffffffffffffffff160217905550806003819055506078426101349190610354565b6004819055505050610387565b5f80fd5b5f73ffffffffffffffffffffffffffffffffffffffff82169050919050565b5f61016e82610145565b9050919050565b5f61017f82610164565b9050919050565b61018f81610175565b8114610199575f80fd5b50565b5f815190506101aa81610186565b92915050565b5f819050919050565b6101c2816101b0565b81146101cc575f80fd5b50565b5f815190506101dd816101b9565b92915050565b5f80604083850312156101f9576101f8610141565b5b5f6102068582860161019c565b9250506020610217858286016101cf565b9150509250929050565b5f82825260208201905092915050565b7f546f6b656e20616464726573732063616e6e6f74206265207a65726f000000005f82015250565b5f610265601c83610221565b915061027082610231565b602082019050919050565b5f6020820190508181035f83015261029281610259565b9050919050565b7f5469636b6574207072696365206d7573742062652067726561746572207468615f8201527f6e207a65726f0000000000000000000000000000000000000000000000000000602082015250565b5f6102f3602683610221565b91506102fe82610299565b604082019050919050565b5f6020820190508181035f830152610320816102e7565b9050919050565b7f4e487b71000000000000000000000000000000000000000000000000000000005f52601160045260245ffd5b5f61035e826101b0565b9150610369836101b0565b925082820190508082111561038157610380610327565b5b92915050565b611021806103945f395ff3fe608060405234801561000f575f80fd5b506004361061007b575f3560e01c806370e36d461161005957806370e36d46146100c5578063773a1154146100e3578063edca914c14610101578063fc0c546a1461010b5761007b565b80631209b1f61461007f57806333a99e041461009d5780635aa68ac0146100a7575b5f80fd5b610087610129565b604051610094919061088a565b60405180910390f35b6100a561012f565b005b6100af6104f1565b6040516100bc919061098a565b60405180910390f35b6100cd61057c565b6040516100da919061088a565b60405180910390f35b6100eb610582565b6040516100f8919061088a565b60405180910390f35b6101096105b5565b005b61011361084f565b6040516101209190610a05565b60405180910390f35b60035481565b6004544211610173576040517f08c379a000000000000000000000000000000000000000000000000000000000815260040161016a90610a9e565b60405180910390fd5b5f600180549050116101ba576040517f08c379a00000000000000000000000000000000000000000000000000000000081526004016101b190610b06565b60405180910390fd5b5f73ffffffffffffffffffffffffffffffffffffffff1660025f9054906101000a900473ffffffffffffffffffffffffffffffffffffffff1673ffffffffffffffffffffffffffffffffffffffff1614610249576040517f08c379a000000000000000000000000000000000000000000000000000000000815260040161024090610b6e565b60405180910390fd5b5f600180549050610258610582565b6102629190610bb9565b90506001818154811061027857610277610be9565b5b905f5260205f20015f9054906101000a900473ffffffffffffffffffffffffffffffffffffffff1660025f6101000a81548173ffffffffffffffffffffffffffffffffffffffff021916908373ffffffffffffffffffffffffffffffffffffffff1602179055507f1d4c260f1824cd028e6c9e6e31c3a0b94f2513e7a641113ec759d382f9bdd5a160025f9054906101000a900473ffffffffffffffffffffffffffffffffffffffff1660405161032f9190610c25565b60405180910390a15f805f9054906101000a900473ffffffffffffffffffffffffffffffffffffffff1673ffffffffffffffffffffffffffffffffffffffff166370a08231306040518263ffffffff1660e01b81526004016103919190610c25565b602060405180830381865afa1580156103ac573d5f803e3d5ffd5b505050506040513d601f19601f820116820180604052508101906103d09190610c6c565b90505f8054906101000a900473ffffffffffffffffffffffffffffffffffffffff1673ffffffffffffffffffffffffffffffffffffffff1663a9059cbb60025f9054906101000a900473ffffffffffffffffffffffffffffffffffffffff16836040518363ffffffff1660e01b815260040161044d929190610c97565b6020604051808303815f875af192505050801561048857506040513d601f19601f820116820180604052508101906104859190610cf3565b60015b6104eb577fe3e92735f0a5e1ddad0b68fe8526d646a42b4833010773101b7a3aa7e5ec62f060025f9054906101000a900473ffffffffffffffffffffffffffffffffffffffff16826040516104de929190610c97565b60405180910390a16104ed565b505b5050565b6060600180548060200260200160405190810160405280929190818152602001828054801561057257602002820191905f5260205f20905b815f9054906101000a900473ffffffffffffffffffffffffffffffffffffffff1673ffffffffffffffffffffffffffffffffffffffff1681526020019060010190808311610529575b5050505050905090565b60045481565b5f42433060405160200161059893929190610d83565b604051602081830303815290604052805190602001205f1c905090565b6004544211156105fa576040517f08c379a00000000000000000000000000000000000000000000000000000000081526004016105f190610e2f565b60405180910390fd5b5f805f9054906101000a900473ffffffffffffffffffffffffffffffffffffffff1673ffffffffffffffffffffffffffffffffffffffff1663dd62ed3e33306040518363ffffffff1660e01b8152600401610656929190610e4d565b602060405180830381865afa158015610671573d5f803e3d5ffd5b505050506040513d601f19601f820116820180604052508101906106959190610c6c565b90506003548110156106dc576040517f08c379a00000000000000000000000000000000000000000000000000000000081526004016106d390610ee4565b60405180910390fd5b5f8054906101000a900473ffffffffffffffffffffffffffffffffffffffff1673ffffffffffffffffffffffffffffffffffffffff166323b872dd33306003546040518463ffffffff1660e01b815260040161073a93929190610f02565b6020604051808303815f875af192505050801561077557506040513d601f19601f820116820180604052508101906107729190610cf3565b60015b6107b4576040517f08c379a00000000000000000000000000000000000000000000000000000000081526004016107ab90610fcd565b60405180910390fd5b50600133908060018154018082558091505060019003905f5260205f20015f9091909190916101000a81548173ffffffffffffffffffffffffffffffffffffffff021916908373ffffffffffffffffffffffffffffffffffffffff1602179055507f23443ac3afaec974c2d4368824912f61a50fee541bcc94ec52414ba6a9b14aab336040516108449190610c25565b60405180910390a150565b5f8054906101000a900473ffffffffffffffffffffffffffffffffffffffff1681565b5f819050919050565b61088481610872565b82525050565b5f60208201905061089d5f83018461087b565b92915050565b5f81519050919050565b5f82825260208201905092915050565b5f819050602082019050919050565b5f73ffffffffffffffffffffffffffffffffffffffff82169050919050565b5f6108f5826108cc565b9050919050565b610905816108eb565b82525050565b5f61091683836108fc565b60208301905092915050565b5f602082019050919050565b5f610938826108a3565b61094281856108ad565b935061094d836108bd565b805f5b8381101561097d578151610964888261090b565b975061096f83610922565b925050600181019050610950565b5085935050505092915050565b5f6020820190508181035f8301526109a2818461092e565b905092915050565b5f819050919050565b5f6109cd6109c86109c3846108cc565b6109aa565b6108cc565b9050919050565b5f6109de826109b3565b9050919050565b5f6109ef826109d4565b9050919050565b6109ff816109e5565b82525050565b5f602082019050610a185f8301846109f6565b92915050565b5f82825260208201905092915050565b7f43616e6e6f742073656c65637420612077696e6e6572206265666f72652074685f8201527f6520646561646c696e6500000000000000000000000000000000000000000000602082015250565b5f610a88602a83610a1e565b9150610a9382610a2e565b604082019050919050565b5f6020820190508181035f830152610ab581610a7c565b9050919050565b7f4e6f207061727469636970616e747320696e20746865206c6f747465727900005f82015250565b5f610af0601e83610a1e565b9150610afb82610abc565b602082019050919050565b5f6020820190508181035f830152610b1d81610ae4565b9050919050565b7f57696e6e65722068617320616c7265616479206265656e2073656c65637465645f82015250565b5f610b58602083610a1e565b9150610b6382610b24565b602082019050919050565b5f6020820190508181035f830152610b8581610b4c565b9050919050565b7f4e487b71000000000000000000000000000000000000000000000000000000005f52601260045260245ffd5b5f610bc382610872565b9150610bce83610872565b925082610bde57610bdd610b8c565b5b828206905092915050565b7f4e487b71000000000000000000000000000000000000000000000000000000005f52603260045260245ffd5b610c1f816108eb565b82525050565b5f602082019050610c385f830184610c16565b92915050565b5f80fd5b610c4b81610872565b8114610c55575f80fd5b50565b5f81519050610c6681610c42565b92915050565b5f60208284031215610c8157610c80610c3e565b5b5f610c8e84828501610c58565b91505092915050565b5f604082019050610caa5f830185610c16565b610cb7602083018461087b565b9392505050565b5f8115159050919050565b610cd281610cbe565b8114610cdc575f80fd5b50565b5f81519050610ced81610cc9565b92915050565b5f60208284031215610d0857610d07610c3e565b5b5f610d1584828501610cdf565b91505092915050565b5f819050919050565b610d38610d3382610872565b610d1e565b82525050565b5f8160601b9050919050565b5f610d5482610d3e565b9050919050565b5f610d6582610d4a565b9050919050565b610d7d610d78826108eb565b610d5b565b82525050565b5f610d8e8286610d27565b602082019150610d9e8285610d27565b602082019150610dae8284610d6c565b601482019150819050949350505050565b7f5469636b657420707572636861736520646561646c696e6520686173207061735f8201527f7365640000000000000000000000000000000000000000000000000000000000602082015250565b5f610e19602383610a1e565b9150610e2482610dbf565b604082019050919050565b5f6020820190508181035f830152610e4681610e0d565b9050919050565b5f604082019050610e605f830185610c16565b610e6d6020830184610c16565b9392505050565b7f496e73756666696369656e7420616c6c6f77616e63652e20417070726f7665205f8201527f74686520636f6e747261637420746f207370656e6420746f6b656e732e000000602082015250565b5f610ece603d83610a1e565b9150610ed982610e74565b604082019050919050565b5f6020820190508181035f830152610efb81610ec2565b9050919050565b5f606082019050610f155f830186610c16565b610f226020830185610c16565b610f2f604083018461087b565b949350505050565b7f546f6b656e207472616e73666572206661696c65642e20456e737572652073755f8201527f6666696369656e742062616c616e636520616e642070726f706572206170707260208201527f6f76616c2e000000000000000000000000000000000000000000000000000000604082015250565b5f610fb7604583610a1e565b9150610fc282610f37565b606082019050919050565b5f6020820190508181035f830152610fe481610fab565b905091905056fea26469706673582212202e25d0fde3f90eaff65a3e0f6d0df19d8adf3ad99db6eaa3affbc54107653e1164736f6c634300081a0033",
					"opcodes": "PUSH1 0x80 PUSH1 0x40 MSTORE CALLVALUE DUP1 ISZERO PUSH2 0xF JUMPI PUSH0 DUP1 REVERT JUMPDEST POP PUSH1 0x40 MLOAD PUSH2 0x13B5 CODESIZE SUB DUP1 PUSH2 0x13B5 DUP4 CODECOPY DUP2 DUP2 ADD PUSH1 0x40 MSTORE DUP2 ADD SWAP1 PUSH2 0x31 SWAP2 SWAP1 PUSH2 0x1E3 JUMP JUMPDEST PUSH0 PUSH20 0xFFFFFFFFFFFFFFFFFFFFFFFFFFFFFFFFFFFFFFFF AND DUP3 PUSH20 0xFFFFFFFFFFFFFFFFFFFFFFFFFFFFFFFFFFFFFFFF AND SUB PUSH2 0x9F JUMPI PUSH1 0x40 MLOAD PUSH32 0x8C379A000000000000000000000000000000000000000000000000000000000 DUP2 MSTORE PUSH1 0x4 ADD PUSH2 0x96 SWAP1 PUSH2 0x27B JUMP JUMPDEST PUSH1 0x40 MLOAD DUP1 SWAP2 SUB SWAP1 REVERT JUMPDEST PUSH0 DUP2 GT PUSH2 0xE1 JUMPI PUSH1 0x40 MLOAD PUSH32 0x8C379A000000000000000000000000000000000000000000000000000000000 DUP2 MSTORE PUSH1 0x4 ADD PUSH2 0xD8 SWAP1 PUSH2 0x309 JUMP JUMPDEST PUSH1 0x40 MLOAD DUP1 SWAP2 SUB SWAP1 REVERT JUMPDEST DUP2 PUSH0 DUP1 PUSH2 0x100 EXP DUP2 SLOAD DUP2 PUSH20 0xFFFFFFFFFFFFFFFFFFFFFFFFFFFFFFFFFFFFFFFF MUL NOT AND SWAP1 DUP4 PUSH20 0xFFFFFFFFFFFFFFFFFFFFFFFFFFFFFFFFFFFFFFFF AND MUL OR SWAP1 SSTORE POP DUP1 PUSH1 0x3 DUP2 SWAP1 SSTORE POP PUSH1 0x78 TIMESTAMP PUSH2 0x134 SWAP2 SWAP1 PUSH2 0x354 JUMP JUMPDEST PUSH1 0x4 DUP2 SWAP1 SSTORE POP POP POP PUSH2 0x387 JUMP JUMPDEST PUSH0 DUP1 REVERT JUMPDEST PUSH0 PUSH20 0xFFFFFFFFFFFFFFFFFFFFFFFFFFFFFFFFFFFFFFFF DUP3 AND SWAP1 POP SWAP2 SWAP1 POP JUMP JUMPDEST PUSH0 PUSH2 0x16E DUP3 PUSH2 0x145 JUMP JUMPDEST SWAP1 POP SWAP2 SWAP1 POP JUMP JUMPDEST PUSH0 PUSH2 0x17F DUP3 PUSH2 0x164 JUMP JUMPDEST SWAP1 POP SWAP2 SWAP1 POP JUMP JUMPDEST PUSH2 0x18F DUP2 PUSH2 0x175 JUMP JUMPDEST DUP2 EQ PUSH2 0x199 JUMPI PUSH0 DUP1 REVERT JUMPDEST POP JUMP JUMPDEST PUSH0 DUP2 MLOAD SWAP1 POP PUSH2 0x1AA DUP2 PUSH2 0x186 JUMP JUMPDEST SWAP3 SWAP2 POP POP JUMP JUMPDEST PUSH0 DUP2 SWAP1 POP SWAP2 SWAP1 POP JUMP JUMPDEST PUSH2 0x1C2 DUP2 PUSH2 0x1B0 JUMP JUMPDEST DUP2 EQ PUSH2 0x1CC JUMPI PUSH0 DUP1 REVERT JUMPDEST POP JUMP JUMPDEST PUSH0 DUP2 MLOAD SWAP1 POP PUSH2 0x1DD DUP2 PUSH2 0x1B9 JUMP JUMPDEST SWAP3 SWAP2 POP POP JUMP JUMPDEST PUSH0 DUP1 PUSH1 0x40 DUP4 DUP6 SUB SLT ISZERO PUSH2 0x1F9 JUMPI PUSH2 0x1F8 PUSH2 0x141 JUMP JUMPDEST JUMPDEST PUSH0 PUSH2 0x206 DUP6 DUP3 DUP7 ADD PUSH2 0x19C JUMP JUMPDEST SWAP3 POP POP PUSH1 0x20 PUSH2 0x217 DUP6 DUP3 DUP7 ADD PUSH2 0x1CF JUMP JUMPDEST SWAP2 POP POP SWAP3 POP SWAP3 SWAP1 POP JUMP JUMPDEST PUSH0 DUP3 DUP3 MSTORE PUSH1 0x20 DUP3 ADD SWAP1 POP SWAP3 SWAP2 POP POP JUMP JUMPDEST PUSH32 0x546F6B656E20616464726573732063616E6E6F74206265207A65726F00000000 PUSH0 DUP3 ADD MSTORE POP JUMP JUMPDEST PUSH0 PUSH2 0x265 PUSH1 0x1C DUP4 PUSH2 0x221 JUMP JUMPDEST SWAP2 POP PUSH2 0x270 DUP3 PUSH2 0x231 JUMP JUMPDEST PUSH1 0x20 DUP3 ADD SWAP1 POP SWAP2 SWAP1 POP JUMP JUMPDEST PUSH0 PUSH1 0x20 DUP3 ADD SWAP1 POP DUP2 DUP2 SUB PUSH0 DUP4 ADD MSTORE PUSH2 0x292 DUP2 PUSH2 0x259 JUMP JUMPDEST SWAP1 POP SWAP2 SWAP1 POP JUMP JUMPDEST PUSH32 0x5469636B6574207072696365206D757374206265206772656174657220746861 PUSH0 DUP3 ADD MSTORE PUSH32 0x6E207A65726F0000000000000000000000000000000000000000000000000000 PUSH1 0x20 DUP3 ADD MSTORE POP JUMP JUMPDEST PUSH0 PUSH2 0x2F3 PUSH1 0x26 DUP4 PUSH2 0x221 JUMP JUMPDEST SWAP2 POP PUSH2 0x2FE DUP3 PUSH2 0x299 JUMP JUMPDEST PUSH1 0x40 DUP3 ADD SWAP1 POP SWAP2 SWAP1 POP JUMP JUMPDEST PUSH0 PUSH1 0x20 DUP3 ADD SWAP1 POP DUP2 DUP2 SUB PUSH0 DUP4 ADD MSTORE PUSH2 0x320 DUP2 PUSH2 0x2E7 JUMP JUMPDEST SWAP1 POP SWAP2 SWAP1 POP JUMP JUMPDEST PUSH32 0x4E487B7100000000000000000000000000000000000000000000000000000000 PUSH0 MSTORE PUSH1 0x11 PUSH1 0x4 MSTORE PUSH1 0x24 PUSH0 REVERT JUMPDEST PUSH0 PUSH2 0x35E DUP3 PUSH2 0x1B0 JUMP JUMPDEST SWAP2 POP PUSH2 0x369 DUP4 PUSH2 0x1B0 JUMP JUMPDEST SWAP3 POP DUP3 DUP3 ADD SWAP1 POP DUP1 DUP3 GT ISZERO PUSH2 0x381 JUMPI PUSH2 0x380 PUSH2 0x327 JUMP JUMPDEST JUMPDEST SWAP3 SWAP2 POP POP JUMP JUMPDEST PUSH2 0x1021 DUP1 PUSH2 0x394 PUSH0 CODECOPY PUSH0 RETURN INVALID PUSH1 0x80 PUSH1 0x40 MSTORE CALLVALUE DUP1 ISZERO PUSH2 0xF JUMPI PUSH0 DUP1 REVERT JUMPDEST POP PUSH1 0x4 CALLDATASIZE LT PUSH2 0x7B JUMPI PUSH0 CALLDATALOAD PUSH1 0xE0 SHR DUP1 PUSH4 0x70E36D46 GT PUSH2 0x59 JUMPI DUP1 PUSH4 0x70E36D46 EQ PUSH2 0xC5 JUMPI DUP1 PUSH4 0x773A1154 EQ PUSH2 0xE3 JUMPI DUP1 PUSH4 0xEDCA914C EQ PUSH2 0x101 JUMPI DUP1 PUSH4 0xFC0C546A EQ PUSH2 0x10B JUMPI PUSH2 0x7B JUMP JUMPDEST DUP1 PUSH4 0x1209B1F6 EQ PUSH2 0x7F JUMPI DUP1 PUSH4 0x33A99E04 EQ PUSH2 0x9D JUMPI DUP1 PUSH4 0x5AA68AC0 EQ PUSH2 0xA7 JUMPI JUMPDEST PUSH0 DUP1 REVERT JUMPDEST PUSH2 0x87 PUSH2 0x129 JUMP JUMPDEST PUSH1 0x40 MLOAD PUSH2 0x94 SWAP2 SWAP1 PUSH2 0x88A JUMP JUMPDEST PUSH1 0x40 MLOAD DUP1 SWAP2 SUB SWAP1 RETURN JUMPDEST PUSH2 0xA5 PUSH2 0x12F JUMP JUMPDEST STOP JUMPDEST PUSH2 0xAF PUSH2 0x4F1 JUMP JUMPDEST PUSH1 0x40 MLOAD PUSH2 0xBC SWAP2 SWAP1 PUSH2 0x98A JUMP JUMPDEST PUSH1 0x40 MLOAD DUP1 SWAP2 SUB SWAP1 RETURN JUMPDEST PUSH2 0xCD PUSH2 0x57C JUMP JUMPDEST PUSH1 0x40 MLOAD PUSH2 0xDA SWAP2 SWAP1 PUSH2 0x88A JUMP JUMPDEST PUSH1 0x40 MLOAD DUP1 SWAP2 SUB SWAP1 RETURN JUMPDEST PUSH2 0xEB PUSH2 0x582 JUMP JUMPDEST PUSH1 0x40 MLOAD PUSH2 0xF8 SWAP2 SWAP1 PUSH2 0x88A JUMP JUMPDEST PUSH1 0x40 MLOAD DUP1 SWAP2 SUB SWAP1 RETURN JUMPDEST PUSH2 0x109 PUSH2 0x5B5 JUMP JUMPDEST STOP JUMPDEST PUSH2 0x113 PUSH2 0x84F JUMP JUMPDEST PUSH1 0x40 MLOAD PUSH2 0x120 SWAP2 SWAP1 PUSH2 0xA05 JUMP JUMPDEST PUSH1 0x40 MLOAD DUP1 SWAP2 SUB SWAP1 RETURN JUMPDEST PUSH1 0x3 SLOAD DUP2 JUMP JUMPDEST PUSH1 0x4 SLOAD TIMESTAMP GT PUSH2 0x173 JUMPI PUSH1 0x40 MLOAD PUSH32 0x8C379A000000000000000000000000000000000000000000000000000000000 DUP2 MSTORE PUSH1 0x4 ADD PUSH2 0x16A SWAP1 PUSH2 0xA9E JUMP JUMPDEST PUSH1 0x40 MLOAD DUP1 SWAP2 SUB SWAP1 REVERT JUMPDEST PUSH0 PUSH1 0x1 DUP1 SLOAD SWAP1 POP GT PUSH2 0x1BA JUMPI PUSH1 0x40 MLOAD PUSH32 0x8C379A000000000000000000000000000000000000000000000000000000000 DUP2 MSTORE PUSH1 0x4 ADD PUSH2 0x1B1 SWAP1 PUSH2 0xB06 JUMP JUMPDEST PUSH1 0x40 MLOAD DUP1 SWAP2 SUB SWAP1 REVERT JUMPDEST PUSH0 PUSH20 0xFFFFFFFFFFFFFFFFFFFFFFFFFFFFFFFFFFFFFFFF AND PUSH1 0x2 PUSH0 SWAP1 SLOAD SWAP1 PUSH2 0x100 EXP SWAP1 DIV PUSH20 0xFFFFFFFFFFFFFFFFFFFFFFFFFFFFFFFFFFFFFFFF AND PUSH20 0xFFFFFFFFFFFFFFFFFFFFFFFFFFFFFFFFFFFFFFFF AND EQ PUSH2 0x249 JUMPI PUSH1 0x40 MLOAD PUSH32 0x8C379A000000000000000000000000000000000000000000000000000000000 DUP2 MSTORE PUSH1 0x4 ADD PUSH2 0x240 SWAP1 PUSH2 0xB6E JUMP JUMPDEST PUSH1 0x40 MLOAD DUP1 SWAP2 SUB SWAP1 REVERT JUMPDEST PUSH0 PUSH1 0x1 DUP1 SLOAD SWAP1 POP PUSH2 0x258 PUSH2 0x582 JUMP JUMPDEST PUSH2 0x262 SWAP2 SWAP1 PUSH2 0xBB9 JUMP JUMPDEST SWAP1 POP PUSH1 0x1 DUP2 DUP2 SLOAD DUP2 LT PUSH2 0x278 JUMPI PUSH2 0x277 PUSH2 0xBE9 JUMP JUMPDEST JUMPDEST SWAP1 PUSH0 MSTORE PUSH1 0x20 PUSH0 KECCAK256 ADD PUSH0 SWAP1 SLOAD SWAP1 PUSH2 0x100 EXP SWAP1 DIV PUSH20 0xFFFFFFFFFFFFFFFFFFFFFFFFFFFFFFFFFFFFFFFF AND PUSH1 0x2 PUSH0 PUSH2 0x100 EXP DUP2 SLOAD DUP2 PUSH20 0xFFFFFFFFFFFFFFFFFFFFFFFFFFFFFFFFFFFFFFFF MUL NOT AND SWAP1 DUP4 PUSH20 0xFFFFFFFFFFFFFFFFFFFFFFFFFFFFFFFFFFFFFFFF AND MUL OR SWAP1 SSTORE POP PUSH32 0x1D4C260F1824CD028E6C9E6E31C3A0B94F2513E7A641113EC759D382F9BDD5A1 PUSH1 0x2 PUSH0 SWAP1 SLOAD SWAP1 PUSH2 0x100 EXP SWAP1 DIV PUSH20 0xFFFFFFFFFFFFFFFFFFFFFFFFFFFFFFFFFFFFFFFF AND PUSH1 0x40 MLOAD PUSH2 0x32F SWAP2 SWAP1 PUSH2 0xC25 JUMP JUMPDEST PUSH1 0x40 MLOAD DUP1 SWAP2 SUB SWAP1 LOG1 PUSH0 DUP1 PUSH0 SWAP1 SLOAD SWAP1 PUSH2 0x100 EXP SWAP1 DIV PUSH20 0xFFFFFFFFFFFFFFFFFFFFFFFFFFFFFFFFFFFFFFFF AND PUSH20 0xFFFFFFFFFFFFFFFFFFFFFFFFFFFFFFFFFFFFFFFF AND PUSH4 0x70A08231 ADDRESS PUSH1 0x40 MLOAD DUP3 PUSH4 0xFFFFFFFF AND PUSH1 0xE0 SHL DUP2 MSTORE PUSH1 0x4 ADD PUSH2 0x391 SWAP2 SWAP1 PUSH2 0xC25 JUMP JUMPDEST PUSH1 0x20 PUSH1 0x40 MLOAD DUP1 DUP4 SUB DUP2 DUP7 GAS STATICCALL ISZERO DUP1 ISZERO PUSH2 0x3AC JUMPI RETURNDATASIZE PUSH0 DUP1 RETURNDATACOPY RETURNDATASIZE PUSH0 REVERT JUMPDEST POP POP POP POP PUSH1 0x40 MLOAD RETURNDATASIZE PUSH1 0x1F NOT PUSH1 0x1F DUP3 ADD AND DUP3 ADD DUP1 PUSH1 0x40 MSTORE POP DUP2 ADD SWAP1 PUSH2 0x3D0 SWAP2 SWAP1 PUSH2 0xC6C JUMP JUMPDEST SWAP1 POP PUSH0 DUP1 SLOAD SWAP1 PUSH2 0x100 EXP SWAP1 DIV PUSH20 0xFFFFFFFFFFFFFFFFFFFFFFFFFFFFFFFFFFFFFFFF AND PUSH20 0xFFFFFFFFFFFFFFFFFFFFFFFFFFFFFFFFFFFFFFFF AND PUSH4 0xA9059CBB PUSH1 0x2 PUSH0 SWAP1 SLOAD SWAP1 PUSH2 0x100 EXP SWAP1 DIV PUSH20 0xFFFFFFFFFFFFFFFFFFFFFFFFFFFFFFFFFFFFFFFF AND DUP4 PUSH1 0x40 MLOAD DUP4 PUSH4 0xFFFFFFFF AND PUSH1 0xE0 SHL DUP2 MSTORE PUSH1 0x4 ADD PUSH2 0x44D SWAP3 SWAP2 SWAP1 PUSH2 0xC97 JUMP JUMPDEST PUSH1 0x20 PUSH1 0x40 MLOAD DUP1 DUP4 SUB DUP2 PUSH0 DUP8 GAS CALL SWAP3 POP POP POP DUP1 ISZERO PUSH2 0x488 JUMPI POP PUSH1 0x40 MLOAD RETURNDATASIZE PUSH1 0x1F NOT PUSH1 0x1F DUP3 ADD AND DUP3 ADD DUP1 PUSH1 0x40 MSTORE POP DUP2 ADD SWAP1 PUSH2 0x485 SWAP2 SWAP1 PUSH2 0xCF3 JUMP JUMPDEST PUSH1 0x1 JUMPDEST PUSH2 0x4EB JUMPI PUSH32 0xE3E92735F0A5E1DDAD0B68FE8526D646A42B4833010773101B7A3AA7E5EC62F0 PUSH1 0x2 PUSH0 SWAP1 SLOAD SWAP1 PUSH2 0x100 EXP SWAP1 DIV PUSH20 0xFFFFFFFFFFFFFFFFFFFFFFFFFFFFFFFFFFFFFFFF AND DUP3 PUSH1 0x40 MLOAD PUSH2 0x4DE SWAP3 SWAP2 SWAP1 PUSH2 0xC97 JUMP JUMPDEST PUSH1 0x40 MLOAD DUP1 SWAP2 SUB SWAP1 LOG1 PUSH2 0x4ED JUMP JUMPDEST POP JUMPDEST POP POP JUMP JUMPDEST PUSH1 0x60 PUSH1 0x1 DUP1 SLOAD DUP1 PUSH1 0x20 MUL PUSH1 0x20 ADD PUSH1 0x40 MLOAD SWAP1 DUP2 ADD PUSH1 0x40 MSTORE DUP1 SWAP3 SWAP2 SWAP1 DUP2 DUP2 MSTORE PUSH1 0x20 ADD DUP3 DUP1 SLOAD DUP1 ISZERO PUSH2 0x572 JUMPI PUSH1 0x20 MUL DUP3 ADD SWAP2 SWAP1 PUSH0 MSTORE PUSH1 0x20 PUSH0 KECCAK256 SWAP1 JUMPDEST DUP2 PUSH0 SWAP1 SLOAD SWAP1 PUSH2 0x100 EXP SWAP1 DIV PUSH20 0xFFFFFFFFFFFFFFFFFFFFFFFFFFFFFFFFFFFFFFFF AND PUSH20 0xFFFFFFFFFFFFFFFFFFFFFFFFFFFFFFFFFFFFFFFF AND DUP2 MSTORE PUSH1 0x20 ADD SWAP1 PUSH1 0x1 ADD SWAP1 DUP1 DUP4 GT PUSH2 0x529 JUMPI JUMPDEST POP POP POP POP POP SWAP1 POP SWAP1 JUMP JUMPDEST PUSH1 0x4 SLOAD DUP2 JUMP JUMPDEST PUSH0 TIMESTAMP NUMBER ADDRESS PUSH1 0x40 MLOAD PUSH1 0x20 ADD PUSH2 0x598 SWAP4 SWAP3 SWAP2 SWAP1 PUSH2 0xD83 JUMP JUMPDEST PUSH1 0x40 MLOAD PUSH1 0x20 DUP2 DUP4 SUB SUB DUP2 MSTORE SWAP1 PUSH1 0x40 MSTORE DUP1 MLOAD SWAP1 PUSH1 0x20 ADD KECCAK256 PUSH0 SHR SWAP1 POP SWAP1 JUMP JUMPDEST PUSH1 0x4 SLOAD TIMESTAMP GT ISZERO PUSH2 0x5FA JUMPI PUSH1 0x40 MLOAD PUSH32 0x8C379A000000000000000000000000000000000000000000000000000000000 DUP2 MSTORE PUSH1 0x4 ADD PUSH2 0x5F1 SWAP1 PUSH2 0xE2F JUMP JUMPDEST PUSH1 0x40 MLOAD DUP1 SWAP2 SUB SWAP1 REVERT JUMPDEST PUSH0 DUP1 PUSH0 SWAP1 SLOAD SWAP1 PUSH2 0x100 EXP SWAP1 DIV PUSH20 0xFFFFFFFFFFFFFFFFFFFFFFFFFFFFFFFFFFFFFFFF AND PUSH20 0xFFFFFFFFFFFFFFFFFFFFFFFFFFFFFFFFFFFFFFFF AND PUSH4 0xDD62ED3E CALLER ADDRESS PUSH1 0x40 MLOAD DUP4 PUSH4 0xFFFFFFFF AND PUSH1 0xE0 SHL DUP2 MSTORE PUSH1 0x4 ADD PUSH2 0x656 SWAP3 SWAP2 SWAP1 PUSH2 0xE4D JUMP JUMPDEST PUSH1 0x20 PUSH1 0x40 MLOAD DUP1 DUP4 SUB DUP2 DUP7 GAS STATICCALL ISZERO DUP1 ISZERO PUSH2 0x671 JUMPI RETURNDATASIZE PUSH0 DUP1 RETURNDATACOPY RETURNDATASIZE PUSH0 REVERT JUMPDEST POP POP POP POP PUSH1 0x40 MLOAD RETURNDATASIZE PUSH1 0x1F NOT PUSH1 0x1F DUP3 ADD AND DUP3 ADD DUP1 PUSH1 0x40 MSTORE POP DUP2 ADD SWAP1 PUSH2 0x695 SWAP2 SWAP1 PUSH2 0xC6C JUMP JUMPDEST SWAP1 POP PUSH1 0x3 SLOAD DUP2 LT ISZERO PUSH2 0x6DC JUMPI PUSH1 0x40 MLOAD PUSH32 0x8C379A000000000000000000000000000000000000000000000000000000000 DUP2 MSTORE PUSH1 0x4 ADD PUSH2 0x6D3 SWAP1 PUSH2 0xEE4 JUMP JUMPDEST PUSH1 0x40 MLOAD DUP1 SWAP2 SUB SWAP1 REVERT JUMPDEST PUSH0 DUP1 SLOAD SWAP1 PUSH2 0x100 EXP SWAP1 DIV PUSH20 0xFFFFFFFFFFFFFFFFFFFFFFFFFFFFFFFFFFFFFFFF AND PUSH20 0xFFFFFFFFFFFFFFFFFFFFFFFFFFFFFFFFFFFFFFFF AND PUSH4 0x23B872DD CALLER ADDRESS PUSH1 0x3 SLOAD PUSH1 0x40 MLOAD DUP5 PUSH4 0xFFFFFFFF AND PUSH1 0xE0 SHL DUP2 MSTORE PUSH1 0x4 ADD PUSH2 0x73A SWAP4 SWAP3 SWAP2 SWAP1 PUSH2 0xF02 JUMP JUMPDEST PUSH1 0x20 PUSH1 0x40 MLOAD DUP1 DUP4 SUB DUP2 PUSH0 DUP8 GAS CALL SWAP3 POP POP POP DUP1 ISZERO PUSH2 0x775 JUMPI POP PUSH1 0x40 MLOAD RETURNDATASIZE PUSH1 0x1F NOT PUSH1 0x1F DUP3 ADD AND DUP3 ADD DUP1 PUSH1 0x40 MSTORE POP DUP2 ADD SWAP1 PUSH2 0x772 SWAP2 SWAP1 PUSH2 0xCF3 JUMP JUMPDEST PUSH1 0x1 JUMPDEST PUSH2 0x7B4 JUMPI PUSH1 0x40 MLOAD PUSH32 0x8C379A000000000000000000000000000000000000000000000000000000000 DUP2 MSTORE PUSH1 0x4 ADD PUSH2 0x7AB SWAP1 PUSH2 0xFCD JUMP JUMPDEST PUSH1 0x40 MLOAD DUP1 SWAP2 SUB SWAP1 REVERT JUMPDEST POP PUSH1 0x1 CALLER SWAP1 DUP1 PUSH1 0x1 DUP2 SLOAD ADD DUP1 DUP3 SSTORE DUP1 SWAP2 POP POP PUSH1 0x1 SWAP1 SUB SWAP1 PUSH0 MSTORE PUSH1 0x20 PUSH0 KECCAK256 ADD PUSH0 SWAP1 SWAP2 SWAP1 SWAP2 SWAP1 SWAP2 PUSH2 0x100 EXP DUP2 SLOAD DUP2 PUSH20 0xFFFFFFFFFFFFFFFFFFFFFFFFFFFFFFFFFFFFFFFF MUL NOT AND SWAP1 DUP4 PUSH20 0xFFFFFFFFFFFFFFFFFFFFFFFFFFFFFFFFFFFFFFFF AND MUL OR SWAP1 SSTORE POP PUSH32 0x23443AC3AFAEC974C2D4368824912F61A50FEE541BCC94EC52414BA6A9B14AAB CALLER PUSH1 0x40 MLOAD PUSH2 0x844 SWAP2 SWAP1 PUSH2 0xC25 JUMP JUMPDEST PUSH1 0x40 MLOAD DUP1 SWAP2 SUB SWAP1 LOG1 POP JUMP JUMPDEST PUSH0 DUP1 SLOAD SWAP1 PUSH2 0x100 EXP SWAP1 DIV PUSH20 0xFFFFFFFFFFFFFFFFFFFFFFFFFFFFFFFFFFFFFFFF AND DUP2 JUMP JUMPDEST PUSH0 DUP2 SWAP1 POP SWAP2 SWAP1 POP JUMP JUMPDEST PUSH2 0x884 DUP2 PUSH2 0x872 JUMP JUMPDEST DUP3 MSTORE POP POP JUMP JUMPDEST PUSH0 PUSH1 0x20 DUP3 ADD SWAP1 POP PUSH2 0x89D PUSH0 DUP4 ADD DUP5 PUSH2 0x87B JUMP JUMPDEST SWAP3 SWAP2 POP POP JUMP JUMPDEST PUSH0 DUP2 MLOAD SWAP1 POP SWAP2 SWAP1 POP JUMP JUMPDEST PUSH0 DUP3 DUP3 MSTORE PUSH1 0x20 DUP3 ADD SWAP1 POP SWAP3 SWAP2 POP POP JUMP JUMPDEST PUSH0 DUP2 SWAP1 POP PUSH1 0x20 DUP3 ADD SWAP1 POP SWAP2 SWAP1 POP JUMP JUMPDEST PUSH0 PUSH20 0xFFFFFFFFFFFFFFFFFFFFFFFFFFFFFFFFFFFFFFFF DUP3 AND SWAP1 POP SWAP2 SWAP1 POP JUMP JUMPDEST PUSH0 PUSH2 0x8F5 DUP3 PUSH2 0x8CC JUMP JUMPDEST SWAP1 POP SWAP2 SWAP1 POP JUMP JUMPDEST PUSH2 0x905 DUP2 PUSH2 0x8EB JUMP JUMPDEST DUP3 MSTORE POP POP JUMP JUMPDEST PUSH0 PUSH2 0x916 DUP4 DUP4 PUSH2 0x8FC JUMP JUMPDEST PUSH1 0x20 DUP4 ADD SWAP1 POP SWAP3 SWAP2 POP POP JUMP JUMPDEST PUSH0 PUSH1 0x20 DUP3 ADD SWAP1 POP SWAP2 SWAP1 POP JUMP JUMPDEST PUSH0 PUSH2 0x938 DUP3 PUSH2 0x8A3 JUMP JUMPDEST PUSH2 0x942 DUP2 DUP6 PUSH2 0x8AD JUMP JUMPDEST SWAP4 POP PUSH2 0x94D DUP4 PUSH2 0x8BD JUMP JUMPDEST DUP1 PUSH0 JUMPDEST DUP4 DUP2 LT ISZERO PUSH2 0x97D JUMPI DUP2 MLOAD PUSH2 0x964 DUP9 DUP3 PUSH2 0x90B JUMP JUMPDEST SWAP8 POP PUSH2 0x96F DUP4 PUSH2 0x922 JUMP JUMPDEST SWAP3 POP POP PUSH1 0x1 DUP2 ADD SWAP1 POP PUSH2 0x950 JUMP JUMPDEST POP DUP6 SWAP4 POP POP POP POP SWAP3 SWAP2 POP POP JUMP JUMPDEST PUSH0 PUSH1 0x20 DUP3 ADD SWAP1 POP DUP2 DUP2 SUB PUSH0 DUP4 ADD MSTORE PUSH2 0x9A2 DUP2 DUP5 PUSH2 0x92E JUMP JUMPDEST SWAP1 POP SWAP3 SWAP2 POP POP JUMP JUMPDEST PUSH0 DUP2 SWAP1 POP SWAP2 SWAP1 POP JUMP JUMPDEST PUSH0 PUSH2 0x9CD PUSH2 0x9C8 PUSH2 0x9C3 DUP5 PUSH2 0x8CC JUMP JUMPDEST PUSH2 0x9AA JUMP JUMPDEST PUSH2 0x8CC JUMP JUMPDEST SWAP1 POP SWAP2 SWAP1 POP JUMP JUMPDEST PUSH0 PUSH2 0x9DE DUP3 PUSH2 0x9B3 JUMP JUMPDEST SWAP1 POP SWAP2 SWAP1 POP JUMP JUMPDEST PUSH0 PUSH2 0x9EF DUP3 PUSH2 0x9D4 JUMP JUMPDEST SWAP1 POP SWAP2 SWAP1 POP JUMP JUMPDEST PUSH2 0x9FF DUP2 PUSH2 0x9E5 JUMP JUMPDEST DUP3 MSTORE POP POP JUMP JUMPDEST PUSH0 PUSH1 0x20 DUP3 ADD SWAP1 POP PUSH2 0xA18 PUSH0 DUP4 ADD DUP5 PUSH2 0x9F6 JUMP JUMPDEST SWAP3 SWAP2 POP POP JUMP JUMPDEST PUSH0 DUP3 DUP3 MSTORE PUSH1 0x20 DUP3 ADD SWAP1 POP SWAP3 SWAP2 POP POP JUMP JUMPDEST PUSH32 0x43616E6E6F742073656C65637420612077696E6E6572206265666F7265207468 PUSH0 DUP3 ADD MSTORE PUSH32 0x6520646561646C696E6500000000000000000000000000000000000000000000 PUSH1 0x20 DUP3 ADD MSTORE POP JUMP JUMPDEST PUSH0 PUSH2 0xA88 PUSH1 0x2A DUP4 PUSH2 0xA1E JUMP JUMPDEST SWAP2 POP PUSH2 0xA93 DUP3 PUSH2 0xA2E JUMP JUMPDEST PUSH1 0x40 DUP3 ADD SWAP1 POP SWAP2 SWAP1 POP JUMP JUMPDEST PUSH0 PUSH1 0x20 DUP3 ADD SWAP1 POP DUP2 DUP2 SUB PUSH0 DUP4 ADD MSTORE PUSH2 0xAB5 DUP2 PUSH2 0xA7C JUMP JUMPDEST SWAP1 POP SWAP2 SWAP1 POP JUMP JUMPDEST PUSH32 0x4E6F207061727469636970616E747320696E20746865206C6F74746572790000 PUSH0 DUP3 ADD MSTORE POP JUMP JUMPDEST PUSH0 PUSH2 0xAF0 PUSH1 0x1E DUP4 PUSH2 0xA1E JUMP JUMPDEST SWAP2 POP PUSH2 0xAFB DUP3 PUSH2 0xABC JUMP JUMPDEST PUSH1 0x20 DUP3 ADD SWAP1 POP SWAP2 SWAP1 POP JUMP JUMPDEST PUSH0 PUSH1 0x20 DUP3 ADD SWAP1 POP DUP2 DUP2 SUB PUSH0 DUP4 ADD MSTORE PUSH2 0xB1D DUP2 PUSH2 0xAE4 JUMP JUMPDEST SWAP1 POP SWAP2 SWAP1 POP JUMP JUMPDEST PUSH32 0x57696E6E65722068617320616C7265616479206265656E2073656C6563746564 PUSH0 DUP3 ADD MSTORE POP JUMP JUMPDEST PUSH0 PUSH2 0xB58 PUSH1 0x20 DUP4 PUSH2 0xA1E JUMP JUMPDEST SWAP2 POP PUSH2 0xB63 DUP3 PUSH2 0xB24 JUMP JUMPDEST PUSH1 0x20 DUP3 ADD SWAP1 POP SWAP2 SWAP1 POP JUMP JUMPDEST PUSH0 PUSH1 0x20 DUP3 ADD SWAP1 POP DUP2 DUP2 SUB PUSH0 DUP4 ADD MSTORE PUSH2 0xB85 DUP2 PUSH2 0xB4C JUMP JUMPDEST SWAP1 POP SWAP2 SWAP1 POP JUMP JUMPDEST PUSH32 0x4E487B7100000000000000000000000000000000000000000000000000000000 PUSH0 MSTORE PUSH1 0x12 PUSH1 0x4 MSTORE PUSH1 0x24 PUSH0 REVERT JUMPDEST PUSH0 PUSH2 0xBC3 DUP3 PUSH2 0x872 JUMP JUMPDEST SWAP2 POP PUSH2 0xBCE DUP4 PUSH2 0x872 JUMP JUMPDEST SWAP3 POP DUP3 PUSH2 0xBDE JUMPI PUSH2 0xBDD PUSH2 0xB8C JUMP JUMPDEST JUMPDEST DUP3 DUP3 MOD SWAP1 POP SWAP3 SWAP2 POP POP JUMP JUMPDEST PUSH32 0x4E487B7100000000000000000000000000000000000000000000000000000000 PUSH0 MSTORE PUSH1 0x32 PUSH1 0x4 MSTORE PUSH1 0x24 PUSH0 REVERT JUMPDEST PUSH2 0xC1F DUP2 PUSH2 0x8EB JUMP JUMPDEST DUP3 MSTORE POP POP JUMP JUMPDEST PUSH0 PUSH1 0x20 DUP3 ADD SWAP1 POP PUSH2 0xC38 PUSH0 DUP4 ADD DUP5 PUSH2 0xC16 JUMP JUMPDEST SWAP3 SWAP2 POP POP JUMP JUMPDEST PUSH0 DUP1 REVERT JUMPDEST PUSH2 0xC4B DUP2 PUSH2 0x872 JUMP JUMPDEST DUP2 EQ PUSH2 0xC55 JUMPI PUSH0 DUP1 REVERT JUMPDEST POP JUMP JUMPDEST PUSH0 DUP2 MLOAD SWAP1 POP PUSH2 0xC66 DUP2 PUSH2 0xC42 JUMP JUMPDEST SWAP3 SWAP2 POP POP JUMP JUMPDEST PUSH0 PUSH1 0x20 DUP3 DUP5 SUB SLT ISZERO PUSH2 0xC81 JUMPI PUSH2 0xC80 PUSH2 0xC3E JUMP JUMPDEST JUMPDEST PUSH0 PUSH2 0xC8E DUP5 DUP3 DUP6 ADD PUSH2 0xC58 JUMP JUMPDEST SWAP2 POP POP SWAP3 SWAP2 POP POP JUMP JUMPDEST PUSH0 PUSH1 0x40 DUP3 ADD SWAP1 POP PUSH2 0xCAA PUSH0 DUP4 ADD DUP6 PUSH2 0xC16 JUMP JUMPDEST PUSH2 0xCB7 PUSH1 0x20 DUP4 ADD DUP5 PUSH2 0x87B JUMP JUMPDEST SWAP4 SWAP3 POP POP POP JUMP JUMPDEST PUSH0 DUP2 ISZERO ISZERO SWAP1 POP SWAP2 SWAP1 POP JUMP JUMPDEST PUSH2 0xCD2 DUP2 PUSH2 0xCBE JUMP JUMPDEST DUP2 EQ PUSH2 0xCDC JUMPI PUSH0 DUP1 REVERT JUMPDEST POP JUMP JUMPDEST PUSH0 DUP2 MLOAD SWAP1 POP PUSH2 0xCED DUP2 PUSH2 0xCC9 JUMP JUMPDEST SWAP3 SWAP2 POP POP JUMP JUMPDEST PUSH0 PUSH1 0x20 DUP3 DUP5 SUB SLT ISZERO PUSH2 0xD08 JUMPI PUSH2 0xD07 PUSH2 0xC3E JUMP JUMPDEST JUMPDEST PUSH0 PUSH2 0xD15 DUP5 DUP3 DUP6 ADD PUSH2 0xCDF JUMP JUMPDEST SWAP2 POP POP SWAP3 SWAP2 POP POP JUMP JUMPDEST PUSH0 DUP2 SWAP1 POP SWAP2 SWAP1 POP JUMP JUMPDEST PUSH2 0xD38 PUSH2 0xD33 DUP3 PUSH2 0x872 JUMP JUMPDEST PUSH2 0xD1E JUMP JUMPDEST DUP3 MSTORE POP POP JUMP JUMPDEST PUSH0 DUP2 PUSH1 0x60 SHL SWAP1 POP SWAP2 SWAP1 POP JUMP JUMPDEST PUSH0 PUSH2 0xD54 DUP3 PUSH2 0xD3E JUMP JUMPDEST SWAP1 POP SWAP2 SWAP1 POP JUMP JUMPDEST PUSH0 PUSH2 0xD65 DUP3 PUSH2 0xD4A JUMP JUMPDEST SWAP1 POP SWAP2 SWAP1 POP JUMP JUMPDEST PUSH2 0xD7D PUSH2 0xD78 DUP3 PUSH2 0x8EB JUMP JUMPDEST PUSH2 0xD5B JUMP JUMPDEST DUP3 MSTORE POP POP JUMP JUMPDEST PUSH0 PUSH2 0xD8E DUP3 DUP7 PUSH2 0xD27 JUMP JUMPDEST PUSH1 0x20 DUP3 ADD SWAP2 POP PUSH2 0xD9E DUP3 DUP6 PUSH2 0xD27 JUMP JUMPDEST PUSH1 0x20 DUP3 ADD SWAP2 POP PUSH2 0xDAE DUP3 DUP5 PUSH2 0xD6C JUMP JUMPDEST PUSH1 0x14 DUP3 ADD SWAP2 POP DUP2 SWAP1 POP SWAP5 SWAP4 POP POP POP POP JUMP JUMPDEST PUSH32 0x5469636B657420707572636861736520646561646C696E652068617320706173 PUSH0 DUP3 ADD MSTORE PUSH32 0x7365640000000000000000000000000000000000000000000000000000000000 PUSH1 0x20 DUP3 ADD MSTORE POP JUMP JUMPDEST PUSH0 PUSH2 0xE19 PUSH1 0x23 DUP4 PUSH2 0xA1E JUMP JUMPDEST SWAP2 POP PUSH2 0xE24 DUP3 PUSH2 0xDBF JUMP JUMPDEST PUSH1 0x40 DUP3 ADD SWAP1 POP SWAP2 SWAP1 POP JUMP JUMPDEST PUSH0 PUSH1 0x20 DUP3 ADD SWAP1 POP DUP2 DUP2 SUB PUSH0 DUP4 ADD MSTORE PUSH2 0xE46 DUP2 PUSH2 0xE0D JUMP JUMPDEST SWAP1 POP SWAP2 SWAP1 POP JUMP JUMPDEST PUSH0 PUSH1 0x40 DUP3 ADD SWAP1 POP PUSH2 0xE60 PUSH0 DUP4 ADD DUP6 PUSH2 0xC16 JUMP JUMPDEST PUSH2 0xE6D PUSH1 0x20 DUP4 ADD DUP5 PUSH2 0xC16 JUMP JUMPDEST SWAP4 SWAP3 POP POP POP JUMP JUMPDEST PUSH32 0x496E73756666696369656E7420616C6C6F77616E63652E20417070726F766520 PUSH0 DUP3 ADD MSTORE PUSH32 0x74686520636F6E747261637420746F207370656E6420746F6B656E732E000000 PUSH1 0x20 DUP3 ADD MSTORE POP JUMP JUMPDEST PUSH0 PUSH2 0xECE PUSH1 0x3D DUP4 PUSH2 0xA1E JUMP JUMPDEST SWAP2 POP PUSH2 0xED9 DUP3 PUSH2 0xE74 JUMP JUMPDEST PUSH1 0x40 DUP3 ADD SWAP1 POP SWAP2 SWAP1 POP JUMP JUMPDEST PUSH0 PUSH1 0x20 DUP3 ADD SWAP1 POP DUP2 DUP2 SUB PUSH0 DUP4 ADD MSTORE PUSH2 0xEFB DUP2 PUSH2 0xEC2 JUMP JUMPDEST SWAP1 POP SWAP2 SWAP1 POP JUMP JUMPDEST PUSH0 PUSH1 0x60 DUP3 ADD SWAP1 POP PUSH2 0xF15 PUSH0 DUP4 ADD DUP7 PUSH2 0xC16 JUMP JUMPDEST PUSH2 0xF22 PUSH1 0x20 DUP4 ADD DUP6 PUSH2 0xC16 JUMP JUMPDEST PUSH2 0xF2F PUSH1 0x40 DUP4 ADD DUP5 PUSH2 0x87B JUMP JUMPDEST SWAP5 SWAP4 POP POP POP POP JUMP JUMPDEST PUSH32 0x546F6B656E207472616E73666572206661696C65642E20456E73757265207375 PUSH0 DUP3 ADD MSTORE PUSH32 0x6666696369656E742062616C616E636520616E642070726F7065722061707072 PUSH1 0x20 DUP3 ADD MSTORE PUSH32 0x6F76616C2E000000000000000000000000000000000000000000000000000000 PUSH1 0x40 DUP3 ADD MSTORE POP JUMP JUMPDEST PUSH0 PUSH2 0xFB7 PUSH1 0x45 DUP4 PUSH2 0xA1E JUMP JUMPDEST SWAP2 POP PUSH2 0xFC2 DUP3 PUSH2 0xF37 JUMP JUMPDEST PUSH1 0x60 DUP3 ADD SWAP1 POP SWAP2 SWAP1 POP JUMP JUMPDEST PUSH0 PUSH1 0x20 DUP3 ADD SWAP1 POP DUP2 DUP2 SUB PUSH0 DUP4 ADD MSTORE PUSH2 0xFE4 DUP2 PUSH2 0xFAB JUMP JUMPDEST SWAP1 POP SWAP2 SWAP1 POP JUMP INVALID LOG2 PUSH5 0x6970667358 0x22 SLT KECCAK256 0x2E 0x25 0xD0 REVERT 0xE3 0xF9 0xE 0xAF 0xF6 GAS RETURNDATACOPY 0xF PUSH14 0xDF19D8ADF3AD99DB6EAA3AFFBC5 COINBASE SMOD PUSH6 0x3E1164736F6C PUSH4 0x4300081A STOP CALLER "
				},
				"gasEstimates": {
					"creation": {
						"codeDepositCost": "825800",
						"executionCost": "infinite",
						"totalCost": "infinite"
					},
					"external": {
						"buyTicket()": "infinite",
						"generateRandomNumber()": "infinite",
						"getParticipants()": "infinite",
						"selectWinner()": "infinite",
						"ticketPrice()": "2426",
						"ticketPurchaseDeadline()": "2425",
						"token()": "infinite"
					}
				},
				"methodIdentifiers": {
					"buyTicket()": "edca914c",
					"generateRandomNumber()": "773a1154",
					"getParticipants()": "5aa68ac0",
					"selectWinner()": "33a99e04",
					"ticketPrice()": "1209b1f6",
					"ticketPurchaseDeadline()": "70e36d46",
					"token()": "fc0c546a"
				}
			},
			"storageLayout": {
				"storage": [
					{
						"astId": 84,
						"contract": "assignment contracts/W2 SafeLottery.sol:SafeLottery",
						"label": "token",
						"offset": 0,
						"slot": "0",
						"type": "t_contract(IERC20)77"
					},
					{
						"astId": 87,
						"contract": "assignment contracts/W2 SafeLottery.sol:SafeLottery",
						"label": "_participants",
						"offset": 0,
						"slot": "1",
						"type": "t_array(t_address)dyn_storage"
					},
					{
						"astId": 89,
						"contract": "assignment contracts/W2 SafeLottery.sol:SafeLottery",
						"label": "_winner",
						"offset": 0,
						"slot": "2",
						"type": "t_address"
					},
					{
						"astId": 91,
						"contract": "assignment contracts/W2 SafeLottery.sol:SafeLottery",
						"label": "ticketPrice",
						"offset": 0,
						"slot": "3",
						"type": "t_uint256"
					},
					{
						"astId": 93,
						"contract": "assignment contracts/W2 SafeLottery.sol:SafeLottery",
						"label": "ticketPurchaseDeadline",
						"offset": 0,
						"slot": "4",
						"type": "t_uint256"
					}
				],
				"types": {
					"t_address": {
						"encoding": "inplace",
						"label": "address",
						"numberOfBytes": "20"
					},
					"t_array(t_address)dyn_storage": {
						"base": "t_address",
						"encoding": "dynamic_array",
						"label": "address[]",
						"numberOfBytes": "32"
					},
					"t_contract(IERC20)77": {
						"encoding": "inplace",
						"label": "contract IERC20",
						"numberOfBytes": "20"
					},
					"t_uint256": {
						"encoding": "inplace",
						"label": "uint256",
						"numberOfBytes": "32"
					}
				}
			},
			"userdoc": {
				"kind": "user",
				"methods": {},
				"version": 1
			}
		}
	}
}