{
	"assignment contracts/W1 SafeTokenVesting.sol": {
		"SafeTokenVesting": {
			"abi": [
				{
					"inputs": [
						{
							"internalType": "contract IERC20",
							"name": "_token",
							"type": "address"
						},
						{
							"internalType": "address",
							"name": "_beneficiary",
							"type": "address"
						},
						{
							"internalType": "uint256",
							"name": "_totalTokens",
							"type": "uint256"
						},
						{
							"internalType": "uint256",
							"name": "_vestingDuration",
							"type": "uint256"
						}
					],
					"stateMutability": "nonpayable",
					"type": "constructor"
				},
				{
					"anonymous": false,
					"inputs": [
						{
							"indexed": false,
							"internalType": "address",
							"name": "beneficiary",
							"type": "address"
						},
						{
							"indexed": false,
							"internalType": "uint256",
							"name": "amount",
							"type": "uint256"
						}
					],
					"name": "TokensClaimed",
					"type": "event"
				},
				{
					"inputs": [],
					"name": "beneficiary",
					"outputs": [
						{
							"internalType": "address",
							"name": "",
							"type": "address"
						}
					],
					"stateMutability": "view",
					"type": "function"
				},
				{
					"inputs": [],
					"name": "claimTokens",
					"outputs": [],
					"stateMutability": "nonpayable",
					"type": "function"
				},
				{
					"inputs": [],
					"name": "fundContract",
					"outputs": [],
					"stateMutability": "nonpayable",
					"type": "function"
				},
				{
					"inputs": [],
					"name": "getContractBalance",
					"outputs": [
						{
							"internalType": "uint256",
							"name": "",
							"type": "uint256"
						}
					],
					"stateMutability": "view",
					"type": "function"
				},
				{
					"inputs": [],
					"name": "getVestedTokens",
					"outputs": [
						{
							"internalType": "uint256",
							"name": "",
							"type": "uint256"
						}
					],
					"stateMutability": "view",
					"type": "function"
				},
				{
					"inputs": [],
					"name": "releasedTokens",
					"outputs": [
						{
							"internalType": "uint256",
							"name": "",
							"type": "uint256"
						}
					],
					"stateMutability": "view",
					"type": "function"
				},
				{
					"inputs": [],
					"name": "startTime",
					"outputs": [
						{
							"internalType": "uint256",
							"name": "",
							"type": "uint256"
						}
					],
					"stateMutability": "view",
					"type": "function"
				},
				{
					"inputs": [],
					"name": "token",
					"outputs": [
						{
							"internalType": "contract IERC20",
							"name": "",
							"type": "address"
						}
					],
					"stateMutability": "view",
					"type": "function"
				},
				{
					"inputs": [],
					"name": "totalTokens",
					"outputs": [
						{
							"internalType": "uint256",
							"name": "",
							"type": "uint256"
						}
					],
					"stateMutability": "view",
					"type": "function"
				},
				{
					"inputs": [],
					"name": "vestingDuration",
					"outputs": [
						{
							"internalType": "uint256",
							"name": "",
							"type": "uint256"
						}
					],
					"stateMutability": "view",
					"type": "function"
				}
			],
			"devdoc": {
				"kind": "dev",
				"methods": {},
				"version": 1
			},
			"evm": {
				"assembly": "    /* \"assignment contracts/W1 SafeTokenVesting.sol\":2374:5137  contract SafeTokenVesting {... */\n  mstore(0x40, 0x80)\n    /* \"assignment contracts/W1 SafeTokenVesting.sol\":2731:3392  constructor(... */\n  callvalue\n  dup1\n  iszero\n  tag_1\n  jumpi\n  0x00\n  dup1\n  revert\ntag_1:\n  pop\n  mload(0x40)\n  sub(codesize, bytecodeSize)\n  dup1\n  bytecodeSize\n  dup4\n  codecopy\n  dup2\n  dup2\n  add\n  0x40\n  mstore\n  dup2\n  add\n  swap1\n  tag_2\n  swap2\n  swap1\n  tag_3\n  jump\t// in\ntag_2:\n    /* \"assignment contracts/W1 SafeTokenVesting.sol\":2917:2918  0 */\n  0x00\n    /* \"assignment contracts/W1 SafeTokenVesting.sol\":2890:2919  address(_token) != address(0) */\n  0xffffffffffffffffffffffffffffffffffffffff\n  and\n    /* \"assignment contracts/W1 SafeTokenVesting.sol\":2898:2904  _token */\n  dup5\n    /* \"assignment contracts/W1 SafeTokenVesting.sol\":2890:2919  address(_token) != address(0) */\n  0xffffffffffffffffffffffffffffffffffffffff\n  and\n  sub\n    /* \"assignment contracts/W1 SafeTokenVesting.sol\":2882:2952  require(address(_token) != address(0), \"Token address cannot be zero\") */\n  tag_6\n  jumpi\n  mload(0x40)\n  0x08c379a000000000000000000000000000000000000000000000000000000000\n  dup2\n  mstore\n  0x04\n  add\n  tag_7\n  swap1\n  tag_8\n  jump\t// in\ntag_7:\n  mload(0x40)\n  dup1\n  swap2\n  sub\n  swap1\n  revert\ntag_6:\n    /* \"assignment contracts/W1 SafeTokenVesting.sol\":2995:2996  0 */\n  0x00\n    /* \"assignment contracts/W1 SafeTokenVesting.sol\":2971:2997  _beneficiary != address(0) */\n  0xffffffffffffffffffffffffffffffffffffffff\n  and\n    /* \"assignment contracts/W1 SafeTokenVesting.sol\":2971:2983  _beneficiary */\n  dup4\n    /* \"assignment contracts/W1 SafeTokenVesting.sol\":2971:2997  _beneficiary != address(0) */\n  0xffffffffffffffffffffffffffffffffffffffff\n  and\n  sub\n    /* \"assignment contracts/W1 SafeTokenVesting.sol\":2963:3036  require(_beneficiary != address(0), \"Beneficiary cannot be zero address\") */\n  tag_9\n  jumpi\n  mload(0x40)\n  0x08c379a000000000000000000000000000000000000000000000000000000000\n  dup2\n  mstore\n  0x04\n  add\n  tag_10\n  swap1\n  tag_11\n  jump\t// in\ntag_10:\n  mload(0x40)\n  dup1\n  swap2\n  sub\n  swap1\n  revert\ntag_9:\n    /* \"assignment contracts/W1 SafeTokenVesting.sol\":3074:3075  0 */\n  0x00\n    /* \"assignment contracts/W1 SafeTokenVesting.sol\":3055:3071  _vestingDuration */\n  dup2\n    /* \"assignment contracts/W1 SafeTokenVesting.sol\":3055:3075  _vestingDuration > 0 */\n  gt\n    /* \"assignment contracts/W1 SafeTokenVesting.sol\":3047:3122  require(_vestingDuration > 0, \"Vesting duration must be greater than zero\") */\n  tag_12\n  jumpi\n  mload(0x40)\n  0x08c379a000000000000000000000000000000000000000000000000000000000\n  dup2\n  mstore\n  0x04\n  add\n  tag_13\n  swap1\n  tag_14\n  jump\t// in\ntag_13:\n  mload(0x40)\n  dup1\n  swap2\n  sub\n  swap1\n  revert\ntag_12:\n    /* \"assignment contracts/W1 SafeTokenVesting.sol\":3156:3157  0 */\n  0x00\n    /* \"assignment contracts/W1 SafeTokenVesting.sol\":3141:3153  _totalTokens */\n  dup3\n    /* \"assignment contracts/W1 SafeTokenVesting.sol\":3141:3157  _totalTokens > 0 */\n  gt\n    /* \"assignment contracts/W1 SafeTokenVesting.sol\":3133:3200  require(_totalTokens > 0, \"Total tokens must be greater than zero\") */\n  tag_15\n  jumpi\n  mload(0x40)\n  0x08c379a000000000000000000000000000000000000000000000000000000000\n  dup2\n  mstore\n  0x04\n  add\n  tag_16\n  swap1\n  tag_17\n  jump\t// in\ntag_16:\n  mload(0x40)\n  dup1\n  swap2\n  sub\n  swap1\n  revert\ntag_15:\n    /* \"assignment contracts/W1 SafeTokenVesting.sol\":3221:3227  _token */\n  dup4\n    /* \"assignment contracts/W1 SafeTokenVesting.sol\":3213:3218  token */\n  0x00\n  dup1\n    /* \"assignment contracts/W1 SafeTokenVesting.sol\":3213:3227  token = _token */\n  0x0100\n  exp\n  dup2\n  sload\n  dup2\n  0xffffffffffffffffffffffffffffffffffffffff\n  mul\n  not\n  and\n  swap1\n  dup4\n  0xffffffffffffffffffffffffffffffffffffffff\n  and\n  mul\n  or\n  swap1\n  sstore\n  pop\n    /* \"assignment contracts/W1 SafeTokenVesting.sol\":3252:3264  _beneficiary */\n  dup3\n    /* \"assignment contracts/W1 SafeTokenVesting.sol\":3238:3249  beneficiary */\n  0x01\n  0x00\n    /* \"assignment contracts/W1 SafeTokenVesting.sol\":3238:3264  beneficiary = _beneficiary */\n  0x0100\n  exp\n  dup2\n  sload\n  dup2\n  0xffffffffffffffffffffffffffffffffffffffff\n  mul\n  not\n  and\n  swap1\n  dup4\n  0xffffffffffffffffffffffffffffffffffffffff\n  and\n  mul\n  or\n  swap1\n  sstore\n  pop\n    /* \"assignment contracts/W1 SafeTokenVesting.sol\":3289:3301  _totalTokens */\n  dup2\n    /* \"assignment contracts/W1 SafeTokenVesting.sol\":3275:3286  totalTokens */\n  0x04\n    /* \"assignment contracts/W1 SafeTokenVesting.sol\":3275:3301  totalTokens = _totalTokens */\n  dup2\n  swap1\n  sstore\n  pop\n    /* \"assignment contracts/W1 SafeTokenVesting.sol\":3330:3346  _vestingDuration */\n  dup1\n    /* \"assignment contracts/W1 SafeTokenVesting.sol\":3312:3327  vestingDuration */\n  0x03\n    /* \"assignment contracts/W1 SafeTokenVesting.sol\":3312:3346  vestingDuration = _vestingDuration */\n  dup2\n  swap1\n  sstore\n  pop\n    /* \"assignment contracts/W1 SafeTokenVesting.sol\":3369:3384  block.timestamp */\n  timestamp\n    /* \"assignment contracts/W1 SafeTokenVesting.sol\":3357:3366  startTime */\n  0x02\n    /* \"assignment contracts/W1 SafeTokenVesting.sol\":3357:3384  startTime = block.timestamp */\n  dup2\n  swap1\n  sstore\n  pop\n    /* \"assignment contracts/W1 SafeTokenVesting.sol\":2731:3392  constructor(... */\n  pop\n  pop\n  pop\n  pop\n    /* \"assignment contracts/W1 SafeTokenVesting.sol\":2374:5137  contract SafeTokenVesting {... */\n  jump(tag_18)\n    /* \"#utility.yul\":88:205   */\ntag_20:\n    /* \"#utility.yul\":197:198   */\n  0x00\n    /* \"#utility.yul\":194:195   */\n  dup1\n    /* \"#utility.yul\":187:199   */\n  revert\n    /* \"#utility.yul\":334:460   */\ntag_22:\n    /* \"#utility.yul\":371:378   */\n  0x00\n    /* \"#utility.yul\":411:453   */\n  0xffffffffffffffffffffffffffffffffffffffff\n    /* \"#utility.yul\":404:409   */\n  dup3\n    /* \"#utility.yul\":400:454   */\n  and\n    /* \"#utility.yul\":389:454   */\n  swap1\n  pop\n    /* \"#utility.yul\":334:460   */\n  swap2\n  swap1\n  pop\n  jump\t// out\n    /* \"#utility.yul\":466:562   */\ntag_23:\n    /* \"#utility.yul\":503:510   */\n  0x00\n    /* \"#utility.yul\":532:556   */\n  tag_47\n    /* \"#utility.yul\":550:555   */\n  dup3\n    /* \"#utility.yul\":532:556   */\n  tag_22\n  jump\t// in\ntag_47:\n    /* \"#utility.yul\":521:556   */\n  swap1\n  pop\n    /* \"#utility.yul\":466:562   */\n  swap2\n  swap1\n  pop\n  jump\t// out\n    /* \"#utility.yul\":568:677   */\ntag_24:\n    /* \"#utility.yul\":618:625   */\n  0x00\n    /* \"#utility.yul\":647:671   */\n  tag_49\n    /* \"#utility.yul\":665:670   */\n  dup3\n    /* \"#utility.yul\":647:671   */\n  tag_23\n  jump\t// in\ntag_49:\n    /* \"#utility.yul\":636:671   */\n  swap1\n  pop\n    /* \"#utility.yul\":568:677   */\n  swap2\n  swap1\n  pop\n  jump\t// out\n    /* \"#utility.yul\":683:831   */\ntag_25:\n    /* \"#utility.yul\":769:806   */\n  tag_51\n    /* \"#utility.yul\":800:805   */\n  dup2\n    /* \"#utility.yul\":769:806   */\n  tag_24\n  jump\t// in\ntag_51:\n    /* \"#utility.yul\":762:767   */\n  dup2\n    /* \"#utility.yul\":759:807   */\n  eq\n    /* \"#utility.yul\":749:825   */\n  tag_52\n  jumpi\n    /* \"#utility.yul\":821:822   */\n  0x00\n    /* \"#utility.yul\":818:819   */\n  dup1\n    /* \"#utility.yul\":811:823   */\n  revert\n    /* \"#utility.yul\":749:825   */\ntag_52:\n    /* \"#utility.yul\":683:831   */\n  pop\n  jump\t// out\n    /* \"#utility.yul\":837:1006   */\ntag_26:\n    /* \"#utility.yul\":907:912   */\n  0x00\n    /* \"#utility.yul\":938:944   */\n  dup2\n    /* \"#utility.yul\":932:945   */\n  mload\n    /* \"#utility.yul\":923:945   */\n  swap1\n  pop\n    /* \"#utility.yul\":954:1000   */\n  tag_54\n    /* \"#utility.yul\":994:999   */\n  dup2\n    /* \"#utility.yul\":954:1000   */\n  tag_25\n  jump\t// in\ntag_54:\n    /* \"#utility.yul\":837:1006   */\n  swap3\n  swap2\n  pop\n  pop\n  jump\t// out\n    /* \"#utility.yul\":1012:1134   */\ntag_27:\n    /* \"#utility.yul\":1085:1109   */\n  tag_56\n    /* \"#utility.yul\":1103:1108   */\n  dup2\n    /* \"#utility.yul\":1085:1109   */\n  tag_23\n  jump\t// in\ntag_56:\n    /* \"#utility.yul\":1078:1083   */\n  dup2\n    /* \"#utility.yul\":1075:1110   */\n  eq\n    /* \"#utility.yul\":1065:1128   */\n  tag_57\n  jumpi\n    /* \"#utility.yul\":1124:1125   */\n  0x00\n    /* \"#utility.yul\":1121:1122   */\n  dup1\n    /* \"#utility.yul\":1114:1126   */\n  revert\n    /* \"#utility.yul\":1065:1128   */\ntag_57:\n    /* \"#utility.yul\":1012:1134   */\n  pop\n  jump\t// out\n    /* \"#utility.yul\":1140:1283   */\ntag_28:\n    /* \"#utility.yul\":1197:1202   */\n  0x00\n    /* \"#utility.yul\":1228:1234   */\n  dup2\n    /* \"#utility.yul\":1222:1235   */\n  mload\n    /* \"#utility.yul\":1213:1235   */\n  swap1\n  pop\n    /* \"#utility.yul\":1244:1277   */\n  tag_59\n    /* \"#utility.yul\":1271:1276   */\n  dup2\n    /* \"#utility.yul\":1244:1277   */\n  tag_27\n  jump\t// in\ntag_59:\n    /* \"#utility.yul\":1140:1283   */\n  swap3\n  swap2\n  pop\n  pop\n  jump\t// out\n    /* \"#utility.yul\":1289:1366   */\ntag_29:\n    /* \"#utility.yul\":1326:1333   */\n  0x00\n    /* \"#utility.yul\":1355:1360   */\n  dup2\n    /* \"#utility.yul\":1344:1360   */\n  swap1\n  pop\n    /* \"#utility.yul\":1289:1366   */\n  swap2\n  swap1\n  pop\n  jump\t// out\n    /* \"#utility.yul\":1372:1494   */\ntag_30:\n    /* \"#utility.yul\":1445:1469   */\n  tag_62\n    /* \"#utility.yul\":1463:1468   */\n  dup2\n    /* \"#utility.yul\":1445:1469   */\n  tag_29\n  jump\t// in\ntag_62:\n    /* \"#utility.yul\":1438:1443   */\n  dup2\n    /* \"#utility.yul\":1435:1470   */\n  eq\n    /* \"#utility.yul\":1425:1488   */\n  tag_63\n  jumpi\n    /* \"#utility.yul\":1484:1485   */\n  0x00\n    /* \"#utility.yul\":1481:1482   */\n  dup1\n    /* \"#utility.yul\":1474:1486   */\n  revert\n    /* \"#utility.yul\":1425:1488   */\ntag_63:\n    /* \"#utility.yul\":1372:1494   */\n  pop\n  jump\t// out\n    /* \"#utility.yul\":1500:1643   */\ntag_31:\n    /* \"#utility.yul\":1557:1562   */\n  0x00\n    /* \"#utility.yul\":1588:1594   */\n  dup2\n    /* \"#utility.yul\":1582:1595   */\n  mload\n    /* \"#utility.yul\":1573:1595   */\n  swap1\n  pop\n    /* \"#utility.yul\":1604:1637   */\n  tag_65\n    /* \"#utility.yul\":1631:1636   */\n  dup2\n    /* \"#utility.yul\":1604:1637   */\n  tag_30\n  jump\t// in\ntag_65:\n    /* \"#utility.yul\":1500:1643   */\n  swap3\n  swap2\n  pop\n  pop\n  jump\t// out\n    /* \"#utility.yul\":1649:2495   */\ntag_3:\n    /* \"#utility.yul\":1759:1765   */\n  0x00\n    /* \"#utility.yul\":1767:1773   */\n  dup1\n    /* \"#utility.yul\":1775:1781   */\n  0x00\n    /* \"#utility.yul\":1783:1789   */\n  dup1\n    /* \"#utility.yul\":1832:1835   */\n  0x80\n    /* \"#utility.yul\":1820:1829   */\n  dup6\n    /* \"#utility.yul\":1811:1818   */\n  dup8\n    /* \"#utility.yul\":1807:1830   */\n  sub\n    /* \"#utility.yul\":1803:1836   */\n  slt\n    /* \"#utility.yul\":1800:1920   */\n  iszero\n  tag_67\n  jumpi\n    /* \"#utility.yul\":1839:1918   */\n  tag_68\n  tag_20\n  jump\t// in\ntag_68:\n    /* \"#utility.yul\":1800:1920   */\ntag_67:\n    /* \"#utility.yul\":1959:1960   */\n  0x00\n    /* \"#utility.yul\":1984:2061   */\n  tag_69\n    /* \"#utility.yul\":2053:2060   */\n  dup8\n    /* \"#utility.yul\":2044:2050   */\n  dup3\n    /* \"#utility.yul\":2033:2042   */\n  dup9\n    /* \"#utility.yul\":2029:2051   */\n  add\n    /* \"#utility.yul\":1984:2061   */\n  tag_26\n  jump\t// in\ntag_69:\n    /* \"#utility.yul\":1974:2061   */\n  swap5\n  pop\n    /* \"#utility.yul\":1930:2071   */\n  pop\n    /* \"#utility.yul\":2110:2112   */\n  0x20\n    /* \"#utility.yul\":2136:2200   */\n  tag_70\n    /* \"#utility.yul\":2192:2199   */\n  dup8\n    /* \"#utility.yul\":2183:2189   */\n  dup3\n    /* \"#utility.yul\":2172:2181   */\n  dup9\n    /* \"#utility.yul\":2168:2190   */\n  add\n    /* \"#utility.yul\":2136:2200   */\n  tag_28\n  jump\t// in\ntag_70:\n    /* \"#utility.yul\":2126:2200   */\n  swap4\n  pop\n    /* \"#utility.yul\":2081:2210   */\n  pop\n    /* \"#utility.yul\":2249:2251   */\n  0x40\n    /* \"#utility.yul\":2275:2339   */\n  tag_71\n    /* \"#utility.yul\":2331:2338   */\n  dup8\n    /* \"#utility.yul\":2322:2328   */\n  dup3\n    /* \"#utility.yul\":2311:2320   */\n  dup9\n    /* \"#utility.yul\":2307:2329   */\n  add\n    /* \"#utility.yul\":2275:2339   */\n  tag_31\n  jump\t// in\ntag_71:\n    /* \"#utility.yul\":2265:2339   */\n  swap3\n  pop\n    /* \"#utility.yul\":2220:2349   */\n  pop\n    /* \"#utility.yul\":2388:2390   */\n  0x60\n    /* \"#utility.yul\":2414:2478   */\n  tag_72\n    /* \"#utility.yul\":2470:2477   */\n  dup8\n    /* \"#utility.yul\":2461:2467   */\n  dup3\n    /* \"#utility.yul\":2450:2459   */\n  dup9\n    /* \"#utility.yul\":2446:2468   */\n  add\n    /* \"#utility.yul\":2414:2478   */\n  tag_31\n  jump\t// in\ntag_72:\n    /* \"#utility.yul\":2404:2478   */\n  swap2\n  pop\n    /* \"#utility.yul\":2359:2488   */\n  pop\n    /* \"#utility.yul\":1649:2495   */\n  swap3\n  swap6\n  swap2\n  swap5\n  pop\n  swap3\n  pop\n  jump\t// out\n    /* \"#utility.yul\":2501:2670   */\ntag_32:\n    /* \"#utility.yul\":2585:2596   */\n  0x00\n    /* \"#utility.yul\":2619:2625   */\n  dup3\n    /* \"#utility.yul\":2614:2617   */\n  dup3\n    /* \"#utility.yul\":2607:2626   */\n  mstore\n    /* \"#utility.yul\":2659:2663   */\n  0x20\n    /* \"#utility.yul\":2654:2657   */\n  dup3\n    /* \"#utility.yul\":2650:2664   */\n  add\n    /* \"#utility.yul\":2635:2664   */\n  swap1\n  pop\n    /* \"#utility.yul\":2501:2670   */\n  swap3\n  swap2\n  pop\n  pop\n  jump\t// out\n    /* \"#utility.yul\":2676:2854   */\ntag_33:\n    /* \"#utility.yul\":2816:2846   */\n  0x546f6b656e20616464726573732063616e6e6f74206265207a65726f00000000\n    /* \"#utility.yul\":2812:2813   */\n  0x00\n    /* \"#utility.yul\":2804:2810   */\n  dup3\n    /* \"#utility.yul\":2800:2814   */\n  add\n    /* \"#utility.yul\":2793:2847   */\n  mstore\n    /* \"#utility.yul\":2676:2854   */\n  pop\n  jump\t// out\n    /* \"#utility.yul\":2860:3226   */\ntag_34:\n    /* \"#utility.yul\":3002:3005   */\n  0x00\n    /* \"#utility.yul\":3023:3090   */\n  tag_76\n    /* \"#utility.yul\":3087:3089   */\n  0x1c\n    /* \"#utility.yul\":3082:3085   */\n  dup4\n    /* \"#utility.yul\":3023:3090   */\n  tag_32\n  jump\t// in\ntag_76:\n    /* \"#utility.yul\":3016:3090   */\n  swap2\n  pop\n    /* \"#utility.yul\":3099:3192   */\n  tag_77\n    /* \"#utility.yul\":3188:3191   */\n  dup3\n    /* \"#utility.yul\":3099:3192   */\n  tag_33\n  jump\t// in\ntag_77:\n    /* \"#utility.yul\":3217:3219   */\n  0x20\n    /* \"#utility.yul\":3212:3215   */\n  dup3\n    /* \"#utility.yul\":3208:3220   */\n  add\n    /* \"#utility.yul\":3201:3220   */\n  swap1\n  pop\n    /* \"#utility.yul\":2860:3226   */\n  swap2\n  swap1\n  pop\n  jump\t// out\n    /* \"#utility.yul\":3232:3651   */\ntag_8:\n    /* \"#utility.yul\":3398:3402   */\n  0x00\n    /* \"#utility.yul\":3436:3438   */\n  0x20\n    /* \"#utility.yul\":3425:3434   */\n  dup3\n    /* \"#utility.yul\":3421:3439   */\n  add\n    /* \"#utility.yul\":3413:3439   */\n  swap1\n  pop\n    /* \"#utility.yul\":3485:3494   */\n  dup2\n    /* \"#utility.yul\":3479:3483   */\n  dup2\n    /* \"#utility.yul\":3475:3495   */\n  sub\n    /* \"#utility.yul\":3471:3472   */\n  0x00\n    /* \"#utility.yul\":3460:3469   */\n  dup4\n    /* \"#utility.yul\":3456:3473   */\n  add\n    /* \"#utility.yul\":3449:3496   */\n  mstore\n    /* \"#utility.yul\":3513:3644   */\n  tag_79\n    /* \"#utility.yul\":3639:3643   */\n  dup2\n    /* \"#utility.yul\":3513:3644   */\n  tag_34\n  jump\t// in\ntag_79:\n    /* \"#utility.yul\":3505:3644   */\n  swap1\n  pop\n    /* \"#utility.yul\":3232:3651   */\n  swap2\n  swap1\n  pop\n  jump\t// out\n    /* \"#utility.yul\":3657:3878   */\ntag_35:\n    /* \"#utility.yul\":3797:3831   */\n  0x42656e65666963696172792063616e6e6f74206265207a65726f206164647265\n    /* \"#utility.yul\":3793:3794   */\n  0x00\n    /* \"#utility.yul\":3785:3791   */\n  dup3\n    /* \"#utility.yul\":3781:3795   */\n  add\n    /* \"#utility.yul\":3774:3832   */\n  mstore\n    /* \"#utility.yul\":3866:3870   */\n  0x7373000000000000000000000000000000000000000000000000000000000000\n    /* \"#utility.yul\":3861:3863   */\n  0x20\n    /* \"#utility.yul\":3853:3859   */\n  dup3\n    /* \"#utility.yul\":3849:3864   */\n  add\n    /* \"#utility.yul\":3842:3871   */\n  mstore\n    /* \"#utility.yul\":3657:3878   */\n  pop\n  jump\t// out\n    /* \"#utility.yul\":3884:4250   */\ntag_36:\n    /* \"#utility.yul\":4026:4029   */\n  0x00\n    /* \"#utility.yul\":4047:4114   */\n  tag_82\n    /* \"#utility.yul\":4111:4113   */\n  0x22\n    /* \"#utility.yul\":4106:4109   */\n  dup4\n    /* \"#utility.yul\":4047:4114   */\n  tag_32\n  jump\t// in\ntag_82:\n    /* \"#utility.yul\":4040:4114   */\n  swap2\n  pop\n    /* \"#utility.yul\":4123:4216   */\n  tag_83\n    /* \"#utility.yul\":4212:4215   */\n  dup3\n    /* \"#utility.yul\":4123:4216   */\n  tag_35\n  jump\t// in\ntag_83:\n    /* \"#utility.yul\":4241:4243   */\n  0x40\n    /* \"#utility.yul\":4236:4239   */\n  dup3\n    /* \"#utility.yul\":4232:4244   */\n  add\n    /* \"#utility.yul\":4225:4244   */\n  swap1\n  pop\n    /* \"#utility.yul\":3884:4250   */\n  swap2\n  swap1\n  pop\n  jump\t// out\n    /* \"#utility.yul\":4256:4675   */\ntag_11:\n    /* \"#utility.yul\":4422:4426   */\n  0x00\n    /* \"#utility.yul\":4460:4462   */\n  0x20\n    /* \"#utility.yul\":4449:4458   */\n  dup3\n    /* \"#utility.yul\":4445:4463   */\n  add\n    /* \"#utility.yul\":4437:4463   */\n  swap1\n  pop\n    /* \"#utility.yul\":4509:4518   */\n  dup2\n    /* \"#utility.yul\":4503:4507   */\n  dup2\n    /* \"#utility.yul\":4499:4519   */\n  sub\n    /* \"#utility.yul\":4495:4496   */\n  0x00\n    /* \"#utility.yul\":4484:4493   */\n  dup4\n    /* \"#utility.yul\":4480:4497   */\n  add\n    /* \"#utility.yul\":4473:4520   */\n  mstore\n    /* \"#utility.yul\":4537:4668   */\n  tag_85\n    /* \"#utility.yul\":4663:4667   */\n  dup2\n    /* \"#utility.yul\":4537:4668   */\n  tag_36\n  jump\t// in\ntag_85:\n    /* \"#utility.yul\":4529:4668   */\n  swap1\n  pop\n    /* \"#utility.yul\":4256:4675   */\n  swap2\n  swap1\n  pop\n  jump\t// out\n    /* \"#utility.yul\":4681:4910   */\ntag_37:\n    /* \"#utility.yul\":4821:4855   */\n  0x56657374696e67206475726174696f6e206d7573742062652067726561746572\n    /* \"#utility.yul\":4817:4818   */\n  0x00\n    /* \"#utility.yul\":4809:4815   */\n  dup3\n    /* \"#utility.yul\":4805:4819   */\n  add\n    /* \"#utility.yul\":4798:4856   */\n  mstore\n    /* \"#utility.yul\":4890:4902   */\n  0x207468616e207a65726f00000000000000000000000000000000000000000000\n    /* \"#utility.yul\":4885:4887   */\n  0x20\n    /* \"#utility.yul\":4877:4883   */\n  dup3\n    /* \"#utility.yul\":4873:4888   */\n  add\n    /* \"#utility.yul\":4866:4903   */\n  mstore\n    /* \"#utility.yul\":4681:4910   */\n  pop\n  jump\t// out\n    /* \"#utility.yul\":4916:5282   */\ntag_38:\n    /* \"#utility.yul\":5058:5061   */\n  0x00\n    /* \"#utility.yul\":5079:5146   */\n  tag_88\n    /* \"#utility.yul\":5143:5145   */\n  0x2a\n    /* \"#utility.yul\":5138:5141   */\n  dup4\n    /* \"#utility.yul\":5079:5146   */\n  tag_32\n  jump\t// in\ntag_88:\n    /* \"#utility.yul\":5072:5146   */\n  swap2\n  pop\n    /* \"#utility.yul\":5155:5248   */\n  tag_89\n    /* \"#utility.yul\":5244:5247   */\n  dup3\n    /* \"#utility.yul\":5155:5248   */\n  tag_37\n  jump\t// in\ntag_89:\n    /* \"#utility.yul\":5273:5275   */\n  0x40\n    /* \"#utility.yul\":5268:5271   */\n  dup3\n    /* \"#utility.yul\":5264:5276   */\n  add\n    /* \"#utility.yul\":5257:5276   */\n  swap1\n  pop\n    /* \"#utility.yul\":4916:5282   */\n  swap2\n  swap1\n  pop\n  jump\t// out\n    /* \"#utility.yul\":5288:5707   */\ntag_14:\n    /* \"#utility.yul\":5454:5458   */\n  0x00\n    /* \"#utility.yul\":5492:5494   */\n  0x20\n    /* \"#utility.yul\":5481:5490   */\n  dup3\n    /* \"#utility.yul\":5477:5495   */\n  add\n    /* \"#utility.yul\":5469:5495   */\n  swap1\n  pop\n    /* \"#utility.yul\":5541:5550   */\n  dup2\n    /* \"#utility.yul\":5535:5539   */\n  dup2\n    /* \"#utility.yul\":5531:5551   */\n  sub\n    /* \"#utility.yul\":5527:5528   */\n  0x00\n    /* \"#utility.yul\":5516:5525   */\n  dup4\n    /* \"#utility.yul\":5512:5529   */\n  add\n    /* \"#utility.yul\":5505:5552   */\n  mstore\n    /* \"#utility.yul\":5569:5700   */\n  tag_91\n    /* \"#utility.yul\":5695:5699   */\n  dup2\n    /* \"#utility.yul\":5569:5700   */\n  tag_38\n  jump\t// in\ntag_91:\n    /* \"#utility.yul\":5561:5700   */\n  swap1\n  pop\n    /* \"#utility.yul\":5288:5707   */\n  swap2\n  swap1\n  pop\n  jump\t// out\n    /* \"#utility.yul\":5713:5938   */\ntag_39:\n    /* \"#utility.yul\":5853:5887   */\n  0x546f74616c20746f6b656e73206d757374206265206772656174657220746861\n    /* \"#utility.yul\":5849:5850   */\n  0x00\n    /* \"#utility.yul\":5841:5847   */\n  dup3\n    /* \"#utility.yul\":5837:5851   */\n  add\n    /* \"#utility.yul\":5830:5888   */\n  mstore\n    /* \"#utility.yul\":5922:5930   */\n  0x6e207a65726f0000000000000000000000000000000000000000000000000000\n    /* \"#utility.yul\":5917:5919   */\n  0x20\n    /* \"#utility.yul\":5909:5915   */\n  dup3\n    /* \"#utility.yul\":5905:5920   */\n  add\n    /* \"#utility.yul\":5898:5931   */\n  mstore\n    /* \"#utility.yul\":5713:5938   */\n  pop\n  jump\t// out\n    /* \"#utility.yul\":5944:6310   */\ntag_40:\n    /* \"#utility.yul\":6086:6089   */\n  0x00\n    /* \"#utility.yul\":6107:6174   */\n  tag_94\n    /* \"#utility.yul\":6171:6173   */\n  0x26\n    /* \"#utility.yul\":6166:6169   */\n  dup4\n    /* \"#utility.yul\":6107:6174   */\n  tag_32\n  jump\t// in\ntag_94:\n    /* \"#utility.yul\":6100:6174   */\n  swap2\n  pop\n    /* \"#utility.yul\":6183:6276   */\n  tag_95\n    /* \"#utility.yul\":6272:6275   */\n  dup3\n    /* \"#utility.yul\":6183:6276   */\n  tag_39\n  jump\t// in\ntag_95:\n    /* \"#utility.yul\":6301:6303   */\n  0x40\n    /* \"#utility.yul\":6296:6299   */\n  dup3\n    /* \"#utility.yul\":6292:6304   */\n  add\n    /* \"#utility.yul\":6285:6304   */\n  swap1\n  pop\n    /* \"#utility.yul\":5944:6310   */\n  swap2\n  swap1\n  pop\n  jump\t// out\n    /* \"#utility.yul\":6316:6735   */\ntag_17:\n    /* \"#utility.yul\":6482:6486   */\n  0x00\n    /* \"#utility.yul\":6520:6522   */\n  0x20\n    /* \"#utility.yul\":6509:6518   */\n  dup3\n    /* \"#utility.yul\":6505:6523   */\n  add\n    /* \"#utility.yul\":6497:6523   */\n  swap1\n  pop\n    /* \"#utility.yul\":6569:6578   */\n  dup2\n    /* \"#utility.yul\":6563:6567   */\n  dup2\n    /* \"#utility.yul\":6559:6579   */\n  sub\n    /* \"#utility.yul\":6555:6556   */\n  0x00\n    /* \"#utility.yul\":6544:6553   */\n  dup4\n    /* \"#utility.yul\":6540:6557   */\n  add\n    /* \"#utility.yul\":6533:6580   */\n  mstore\n    /* \"#utility.yul\":6597:6728   */\n  tag_97\n    /* \"#utility.yul\":6723:6727   */\n  dup2\n    /* \"#utility.yul\":6597:6728   */\n  tag_40\n  jump\t// in\ntag_97:\n    /* \"#utility.yul\":6589:6728   */\n  swap1\n  pop\n    /* \"#utility.yul\":6316:6735   */\n  swap2\n  swap1\n  pop\n  jump\t// out\n    /* \"assignment contracts/W1 SafeTokenVesting.sol\":2374:5137  contract SafeTokenVesting {... */\ntag_18:\n  dataSize(sub_0)\n  dup1\n  dataOffset(sub_0)\n  0x00\n  codecopy\n  0x00\n  return\nstop\n\nsub_0: assembly {\n        /* \"assignment contracts/W1 SafeTokenVesting.sol\":2374:5137  contract SafeTokenVesting {... */\n      mstore(0x40, 0x80)\n      callvalue\n      dup1\n      iszero\n      tag_1\n      jumpi\n      0x00\n      dup1\n      revert\n    tag_1:\n      pop\n      jumpi(tag_2, lt(calldatasize, 0x04))\n      shr(0xe0, calldataload(0x00))\n      dup1\n      0x78e97925\n      gt\n      tag_13\n      jumpi\n      dup1\n      0x78e97925\n      eq\n      tag_8\n      jumpi\n      dup1\n      0x7e1c0c09\n      eq\n      tag_9\n      jumpi\n      dup1\n      0xbd097e21\n      eq\n      tag_10\n      jumpi\n      dup1\n      0xbef39963\n      eq\n      tag_11\n      jumpi\n      dup1\n      0xfc0c546a\n      eq\n      tag_12\n      jumpi\n      jump(tag_2)\n    tag_13:\n      dup1\n      0x1514617e\n      eq\n      tag_3\n      jumpi\n      dup1\n      0x38af3eed\n      eq\n      tag_4\n      jumpi\n      dup1\n      0x48c54b9d\n      eq\n      tag_5\n      jumpi\n      dup1\n      0x5330a6a2\n      eq\n      tag_6\n      jumpi\n      dup1\n      0x6f9fb98a\n      eq\n      tag_7\n      jumpi\n    tag_2:\n      0x00\n      dup1\n      revert\n        /* \"assignment contracts/W1 SafeTokenVesting.sol\":2523:2553  uint256 public vestingDuration */\n    tag_3:\n      tag_14\n      tag_15\n      jump\t// in\n    tag_14:\n      mload(0x40)\n      tag_16\n      swap2\n      swap1\n      tag_17\n      jump\t// in\n    tag_16:\n      mload(0x40)\n      dup1\n      swap2\n      sub\n      swap1\n      return\n        /* \"assignment contracts/W1 SafeTokenVesting.sol\":2459:2485  address public beneficiary */\n    tag_4:\n      tag_18\n      tag_19\n      jump\t// in\n    tag_18:\n      mload(0x40)\n      tag_20\n      swap2\n      swap1\n      tag_21\n      jump\t// in\n    tag_20:\n      mload(0x40)\n      dup1\n      swap2\n      sub\n      swap1\n      return\n        /* \"assignment contracts/W1 SafeTokenVesting.sol\":3751:4474  function claimTokens() external {... */\n    tag_5:\n      tag_22\n      tag_23\n      jump\t// in\n    tag_22:\n      stop\n        /* \"assignment contracts/W1 SafeTokenVesting.sol\":4536:4964  function getVestedTokens() public view returns (uint256) {... */\n    tag_6:\n      tag_24\n      tag_25\n      jump\t// in\n    tag_24:\n      mload(0x40)\n      tag_26\n      swap2\n      swap1\n      tag_17\n      jump\t// in\n    tag_26:\n      mload(0x40)\n      dup1\n      swap2\n      sub\n      swap1\n      return\n        /* \"assignment contracts/W1 SafeTokenVesting.sol\":5016:5134  function getContractBalance() external view returns (uint256) {... */\n    tag_7:\n      tag_27\n      tag_28\n      jump\t// in\n    tag_27:\n      mload(0x40)\n      tag_29\n      swap2\n      swap1\n      tag_17\n      jump\t// in\n    tag_29:\n      mload(0x40)\n      dup1\n      swap2\n      sub\n      swap1\n      return\n        /* \"assignment contracts/W1 SafeTokenVesting.sol\":2492:2516  uint256 public startTime */\n    tag_8:\n      tag_30\n      tag_31\n      jump\t// in\n    tag_30:\n      mload(0x40)\n      tag_32\n      swap2\n      swap1\n      tag_17\n      jump\t// in\n    tag_32:\n      mload(0x40)\n      dup1\n      swap2\n      sub\n      swap1\n      return\n        /* \"assignment contracts/W1 SafeTokenVesting.sol\":2560:2586  uint256 public totalTokens */\n    tag_9:\n      tag_33\n      tag_34\n      jump\t// in\n    tag_33:\n      mload(0x40)\n      tag_35\n      swap2\n      swap1\n      tag_17\n      jump\t// in\n    tag_35:\n      mload(0x40)\n      dup1\n      swap2\n      sub\n      swap1\n      return\n        /* \"assignment contracts/W1 SafeTokenVesting.sol\":3400:3699  function fundContract() public {... */\n    tag_10:\n      tag_36\n      tag_37\n      jump\t// in\n    tag_36:\n      stop\n        /* \"assignment contracts/W1 SafeTokenVesting.sol\":2593:2622  uint256 public releasedTokens */\n    tag_11:\n      tag_38\n      tag_39\n      jump\t// in\n    tag_38:\n      mload(0x40)\n      tag_40\n      swap2\n      swap1\n      tag_17\n      jump\t// in\n    tag_40:\n      mload(0x40)\n      dup1\n      swap2\n      sub\n      swap1\n      return\n        /* \"assignment contracts/W1 SafeTokenVesting.sol\":2433:2452  IERC20 public token */\n    tag_12:\n      tag_41\n      tag_42\n      jump\t// in\n    tag_41:\n      mload(0x40)\n      tag_43\n      swap2\n      swap1\n      tag_44\n      jump\t// in\n    tag_43:\n      mload(0x40)\n      dup1\n      swap2\n      sub\n      swap1\n      return\n        /* \"assignment contracts/W1 SafeTokenVesting.sol\":2523:2553  uint256 public vestingDuration */\n    tag_15:\n      sload(0x03)\n      dup2\n      jump\t// out\n        /* \"assignment contracts/W1 SafeTokenVesting.sol\":2459:2485  address public beneficiary */\n    tag_19:\n      0x01\n      0x00\n      swap1\n      sload\n      swap1\n      0x0100\n      exp\n      swap1\n      div\n      0xffffffffffffffffffffffffffffffffffffffff\n      and\n      dup2\n      jump\t// out\n        /* \"assignment contracts/W1 SafeTokenVesting.sol\":3751:4474  function claimTokens() external {... */\n    tag_23:\n        /* \"assignment contracts/W1 SafeTokenVesting.sol\":3816:3827  beneficiary */\n      0x01\n      0x00\n      swap1\n      sload\n      swap1\n      0x0100\n      exp\n      swap1\n      div\n      0xffffffffffffffffffffffffffffffffffffffff\n      and\n        /* \"assignment contracts/W1 SafeTokenVesting.sol\":3802:3827  msg.sender == beneficiary */\n      0xffffffffffffffffffffffffffffffffffffffff\n      and\n        /* \"assignment contracts/W1 SafeTokenVesting.sol\":3802:3812  msg.sender */\n      caller\n        /* \"assignment contracts/W1 SafeTokenVesting.sol\":3802:3827  msg.sender == beneficiary */\n      0xffffffffffffffffffffffffffffffffffffffff\n      and\n      eq\n        /* \"assignment contracts/W1 SafeTokenVesting.sol\":3794:3869  require(msg.sender == beneficiary, \"Only the beneficiary can claim tokens\") */\n      tag_46\n      jumpi\n      mload(0x40)\n      0x08c379a000000000000000000000000000000000000000000000000000000000\n      dup2\n      mstore\n      0x04\n      add\n      tag_47\n      swap1\n      tag_48\n      jump\t// in\n    tag_47:\n      mload(0x40)\n      dup1\n      swap2\n      sub\n      swap1\n      revert\n    tag_46:\n        /* \"assignment contracts/W1 SafeTokenVesting.sol\":3882:3902  uint256 vestedTokens */\n      0x00\n        /* \"assignment contracts/W1 SafeTokenVesting.sol\":3905:3922  getVestedTokens() */\n      tag_49\n        /* \"assignment contracts/W1 SafeTokenVesting.sol\":3905:3920  getVestedTokens */\n      tag_25\n        /* \"assignment contracts/W1 SafeTokenVesting.sol\":3905:3922  getVestedTokens() */\n      jump\t// in\n    tag_49:\n        /* \"assignment contracts/W1 SafeTokenVesting.sol\":3882:3922  uint256 vestedTokens = getVestedTokens() */\n      swap1\n      pop\n        /* \"assignment contracts/W1 SafeTokenVesting.sol\":3933:3956  uint256 claimableTokens */\n      0x00\n        /* \"assignment contracts/W1 SafeTokenVesting.sol\":3974:3988  releasedTokens */\n      sload(0x05)\n        /* \"assignment contracts/W1 SafeTokenVesting.sol\":3959:3971  vestedTokens */\n      dup3\n        /* \"assignment contracts/W1 SafeTokenVesting.sol\":3959:3988  vestedTokens - releasedTokens */\n      tag_50\n      swap2\n      swap1\n      tag_51\n      jump\t// in\n    tag_50:\n        /* \"assignment contracts/W1 SafeTokenVesting.sol\":3933:3988  uint256 claimableTokens = vestedTokens - releasedTokens */\n      swap1\n      pop\n        /* \"assignment contracts/W1 SafeTokenVesting.sol\":4027:4028  0 */\n      0x00\n        /* \"assignment contracts/W1 SafeTokenVesting.sol\":4009:4024  claimableTokens */\n      dup2\n        /* \"assignment contracts/W1 SafeTokenVesting.sol\":4009:4028  claimableTokens > 0 */\n      gt\n        /* \"assignment contracts/W1 SafeTokenVesting.sol\":4001:4061  require(claimableTokens > 0, \"No tokens available to claim\") */\n      tag_52\n      jumpi\n      mload(0x40)\n      0x08c379a000000000000000000000000000000000000000000000000000000000\n      dup2\n      mstore\n      0x04\n      add\n      tag_53\n      swap1\n      tag_54\n      jump\t// in\n    tag_53:\n      mload(0x40)\n      dup1\n      swap2\n      sub\n      swap1\n      revert\n    tag_52:\n        /* \"assignment contracts/W1 SafeTokenVesting.sol\":4092:4107  claimableTokens */\n      dup1\n        /* \"assignment contracts/W1 SafeTokenVesting.sol\":4074:4088  releasedTokens */\n      0x05\n      0x00\n        /* \"assignment contracts/W1 SafeTokenVesting.sol\":4074:4107  releasedTokens += claimableTokens */\n      dup3\n      dup3\n      sload\n      tag_55\n      swap2\n      swap1\n      tag_56\n      jump\t// in\n    tag_55:\n      swap3\n      pop\n      pop\n      dup2\n      swap1\n      sstore\n      pop\n        /* \"assignment contracts/W1 SafeTokenVesting.sol\":4182:4187  token */\n      0x00\n      dup1\n      sload\n      swap1\n      0x0100\n      exp\n      swap1\n      div\n      0xffffffffffffffffffffffffffffffffffffffff\n      and\n        /* \"assignment contracts/W1 SafeTokenVesting.sol\":4182:4196  token.transfer */\n      0xffffffffffffffffffffffffffffffffffffffff\n      and\n      0xa9059cbb\n        /* \"assignment contracts/W1 SafeTokenVesting.sol\":4197:4208  beneficiary */\n      0x01\n      0x00\n      swap1\n      sload\n      swap1\n      0x0100\n      exp\n      swap1\n      div\n      0xffffffffffffffffffffffffffffffffffffffff\n      and\n        /* \"assignment contracts/W1 SafeTokenVesting.sol\":4210:4225  claimableTokens */\n      dup4\n        /* \"assignment contracts/W1 SafeTokenVesting.sol\":4182:4226  token.transfer(beneficiary, claimableTokens) */\n      mload(0x40)\n      dup4\n      0xffffffff\n      and\n      0xe0\n      shl\n      dup2\n      mstore\n      0x04\n      add\n      tag_57\n      swap3\n      swap2\n      swap1\n      tag_58\n      jump\t// in\n    tag_57:\n      0x20\n      mload(0x40)\n      dup1\n      dup4\n      sub\n      dup2\n      0x00\n      dup8\n      gas\n      call\n      swap3\n      pop\n      pop\n      pop\n      dup1\n      iszero\n      tag_59\n      jumpi\n      pop\n      mload(0x40)\n      returndatasize\n      not(0x1f)\n      0x1f\n      dup3\n      add\n      and\n      dup3\n      add\n      dup1\n      0x40\n      mstore\n      pop\n      dup2\n      add\n      swap1\n      tag_60\n      swap2\n      swap1\n      tag_61\n      jump\t// in\n    tag_60:\n      0x01\n    tag_59:\n        /* \"assignment contracts/W1 SafeTokenVesting.sol\":4178:4467  try token.transfer(beneficiary, claimableTokens) {... */\n      tag_62\n      jumpi\n        /* \"assignment contracts/W1 SafeTokenVesting.sol\":4394:4409  claimableTokens */\n      dup1\n        /* \"assignment contracts/W1 SafeTokenVesting.sol\":4376:4390  releasedTokens */\n      0x05\n      0x00\n        /* \"assignment contracts/W1 SafeTokenVesting.sol\":4376:4409  releasedTokens -= claimableTokens */\n      dup3\n      dup3\n      sload\n      tag_66\n      swap2\n      swap1\n      tag_51\n      jump\t// in\n    tag_66:\n      swap3\n      pop\n      pop\n      dup2\n      swap1\n      sstore\n      pop\n        /* \"assignment contracts/W1 SafeTokenVesting.sol\":4424:4455  revert(\"Token transfer failed\") */\n      mload(0x40)\n      0x08c379a000000000000000000000000000000000000000000000000000000000\n      dup2\n      mstore\n      0x04\n      add\n      tag_67\n      swap1\n      tag_68\n      jump\t// in\n    tag_67:\n      mload(0x40)\n      dup1\n      swap2\n      sub\n      swap1\n      revert\n        /* \"assignment contracts/W1 SafeTokenVesting.sol\":4178:4467  try token.transfer(beneficiary, claimableTokens) {... */\n    tag_62:\n      pop\n        /* \"assignment contracts/W1 SafeTokenVesting.sol\":4247:4290  TokensClaimed(beneficiary, claimableTokens) */\n      0x896e034966eaaf1adc54acc0f257056febbd300c9e47182cf761982cf1f5e430\n        /* \"assignment contracts/W1 SafeTokenVesting.sol\":4261:4272  beneficiary */\n      0x01\n      0x00\n      swap1\n      sload\n      swap1\n      0x0100\n      exp\n      swap1\n      div\n      0xffffffffffffffffffffffffffffffffffffffff\n      and\n        /* \"assignment contracts/W1 SafeTokenVesting.sol\":4274:4289  claimableTokens */\n      dup3\n        /* \"assignment contracts/W1 SafeTokenVesting.sol\":4247:4290  TokensClaimed(beneficiary, claimableTokens) */\n      mload(0x40)\n      tag_70\n      swap3\n      swap2\n      swap1\n      tag_58\n      jump\t// in\n    tag_70:\n      mload(0x40)\n      dup1\n      swap2\n      sub\n      swap1\n      log1\n        /* \"assignment contracts/W1 SafeTokenVesting.sol\":3783:4474  {... */\n      pop\n      pop\n        /* \"assignment contracts/W1 SafeTokenVesting.sol\":3751:4474  function claimTokens() external {... */\n      jump\t// out\n        /* \"assignment contracts/W1 SafeTokenVesting.sol\":4536:4964  function getVestedTokens() public view returns (uint256) {... */\n    tag_25:\n        /* \"assignment contracts/W1 SafeTokenVesting.sol\":4584:4591  uint256 */\n      0x00\n        /* \"assignment contracts/W1 SafeTokenVesting.sol\":4626:4635  startTime */\n      sload(0x02)\n        /* \"assignment contracts/W1 SafeTokenVesting.sol\":4608:4623  block.timestamp */\n      timestamp\n        /* \"assignment contracts/W1 SafeTokenVesting.sol\":4608:4635  block.timestamp < startTime */\n      lt\n        /* \"assignment contracts/W1 SafeTokenVesting.sol\":4604:4702  if (block.timestamp < startTime) {... */\n      iszero\n      tag_72\n      jumpi\n        /* \"assignment contracts/W1 SafeTokenVesting.sol\":4659:4660  0 */\n      0x00\n        /* \"assignment contracts/W1 SafeTokenVesting.sol\":4652:4660  return 0 */\n      swap1\n      pop\n      jump(tag_71)\n        /* \"assignment contracts/W1 SafeTokenVesting.sol\":4604:4702  if (block.timestamp < startTime) {... */\n    tag_72:\n        /* \"assignment contracts/W1 SafeTokenVesting.sol\":4714:4733  uint256 elapsedTime */\n      0x00\n        /* \"assignment contracts/W1 SafeTokenVesting.sol\":4754:4763  startTime */\n      sload(0x02)\n        /* \"assignment contracts/W1 SafeTokenVesting.sol\":4736:4751  block.timestamp */\n      timestamp\n        /* \"assignment contracts/W1 SafeTokenVesting.sol\":4736:4763  block.timestamp - startTime */\n      tag_73\n      swap2\n      swap1\n      tag_51\n      jump\t// in\n    tag_73:\n        /* \"assignment contracts/W1 SafeTokenVesting.sol\":4714:4763  uint256 elapsedTime = block.timestamp - startTime */\n      swap1\n      pop\n        /* \"assignment contracts/W1 SafeTokenVesting.sol\":4792:4807  vestingDuration */\n      sload(0x03)\n        /* \"assignment contracts/W1 SafeTokenVesting.sol\":4778:4789  elapsedTime */\n      dup2\n        /* \"assignment contracts/W1 SafeTokenVesting.sol\":4778:4807  elapsedTime > vestingDuration */\n      gt\n        /* \"assignment contracts/W1 SafeTokenVesting.sol\":4774:4892  if (elapsedTime > vestingDuration) {... */\n      iszero\n      tag_74\n      jumpi\n        /* \"assignment contracts/W1 SafeTokenVesting.sol\":4838:4853  vestingDuration */\n      sload(0x03)\n        /* \"assignment contracts/W1 SafeTokenVesting.sol\":4824:4853  elapsedTime = vestingDuration */\n      swap1\n      pop\n        /* \"assignment contracts/W1 SafeTokenVesting.sol\":4774:4892  if (elapsedTime > vestingDuration) {... */\n    tag_74:\n        /* \"assignment contracts/W1 SafeTokenVesting.sol\":4941:4956  vestingDuration */\n      sload(0x03)\n        /* \"assignment contracts/W1 SafeTokenVesting.sol\":4926:4937  elapsedTime */\n      dup2\n        /* \"assignment contracts/W1 SafeTokenVesting.sol\":4912:4923  totalTokens */\n      sload(0x04)\n        /* \"assignment contracts/W1 SafeTokenVesting.sol\":4912:4937  totalTokens * elapsedTime */\n      tag_75\n      swap2\n      swap1\n      tag_76\n      jump\t// in\n    tag_75:\n        /* \"assignment contracts/W1 SafeTokenVesting.sol\":4911:4956  (totalTokens * elapsedTime) / vestingDuration */\n      tag_77\n      swap2\n      swap1\n      tag_78\n      jump\t// in\n    tag_77:\n        /* \"assignment contracts/W1 SafeTokenVesting.sol\":4904:4956  return (totalTokens * elapsedTime) / vestingDuration */\n      swap2\n      pop\n      pop\n        /* \"assignment contracts/W1 SafeTokenVesting.sol\":4536:4964  function getVestedTokens() public view returns (uint256) {... */\n    tag_71:\n      swap1\n      jump\t// out\n        /* \"assignment contracts/W1 SafeTokenVesting.sol\":5016:5134  function getContractBalance() external view returns (uint256) {... */\n    tag_28:\n        /* \"assignment contracts/W1 SafeTokenVesting.sol\":5069:5076  uint256 */\n      0x00\n        /* \"assignment contracts/W1 SafeTokenVesting.sol\":5096:5101  token */\n      dup1\n      0x00\n      swap1\n      sload\n      swap1\n      0x0100\n      exp\n      swap1\n      div\n      0xffffffffffffffffffffffffffffffffffffffff\n      and\n        /* \"assignment contracts/W1 SafeTokenVesting.sol\":5096:5111  token.balanceOf */\n      0xffffffffffffffffffffffffffffffffffffffff\n      and\n      0x70a08231\n        /* \"assignment contracts/W1 SafeTokenVesting.sol\":5120:5124  this */\n      address\n        /* \"assignment contracts/W1 SafeTokenVesting.sol\":5096:5126  token.balanceOf(address(this)) */\n      mload(0x40)\n      dup3\n      0xffffffff\n      and\n      0xe0\n      shl\n      dup2\n      mstore\n      0x04\n      add\n      tag_80\n      swap2\n      swap1\n      tag_21\n      jump\t// in\n    tag_80:\n      0x20\n      mload(0x40)\n      dup1\n      dup4\n      sub\n      dup2\n      dup7\n      gas\n      staticcall\n      iszero\n      dup1\n      iszero\n      tag_82\n      jumpi\n      returndatasize\n      0x00\n      dup1\n      returndatacopy\n      revert(0x00, returndatasize)\n    tag_82:\n      pop\n      pop\n      pop\n      pop\n      mload(0x40)\n      returndatasize\n      not(0x1f)\n      0x1f\n      dup3\n      add\n      and\n      dup3\n      add\n      dup1\n      0x40\n      mstore\n      pop\n      dup2\n      add\n      swap1\n      tag_83\n      swap2\n      swap1\n      tag_84\n      jump\t// in\n    tag_83:\n        /* \"assignment contracts/W1 SafeTokenVesting.sol\":5089:5126  return token.balanceOf(address(this)) */\n      swap1\n      pop\n        /* \"assignment contracts/W1 SafeTokenVesting.sol\":5016:5134  function getContractBalance() external view returns (uint256) {... */\n      swap1\n      jump\t// out\n        /* \"assignment contracts/W1 SafeTokenVesting.sol\":2492:2516  uint256 public startTime */\n    tag_31:\n      sload(0x02)\n      dup2\n      jump\t// out\n        /* \"assignment contracts/W1 SafeTokenVesting.sol\":2560:2586  uint256 public totalTokens */\n    tag_34:\n      sload(0x04)\n      dup2\n      jump\t// out\n        /* \"assignment contracts/W1 SafeTokenVesting.sol\":3400:3699  function fundContract() public {... */\n    tag_37:\n        /* \"assignment contracts/W1 SafeTokenVesting.sol\":3502:3507  token */\n      0x00\n      dup1\n      sload\n      swap1\n      0x0100\n      exp\n      swap1\n      div\n      0xffffffffffffffffffffffffffffffffffffffff\n      and\n        /* \"assignment contracts/W1 SafeTokenVesting.sol\":3502:3520  token.transferFrom */\n      0xffffffffffffffffffffffffffffffffffffffff\n      and\n      0x23b872dd\n        /* \"assignment contracts/W1 SafeTokenVesting.sol\":3521:3531  msg.sender */\n      caller\n        /* \"assignment contracts/W1 SafeTokenVesting.sol\":3541:3545  this */\n      address\n        /* \"assignment contracts/W1 SafeTokenVesting.sol\":3548:3559  totalTokens */\n      sload(0x04)\n        /* \"assignment contracts/W1 SafeTokenVesting.sol\":3502:3560  token.transferFrom(msg.sender, address(this), totalTokens) */\n      mload(0x40)\n      dup5\n      0xffffffff\n      and\n      0xe0\n      shl\n      dup2\n      mstore\n      0x04\n      add\n      tag_86\n      swap4\n      swap3\n      swap2\n      swap1\n      tag_87\n      jump\t// in\n    tag_86:\n      0x20\n      mload(0x40)\n      dup1\n      dup4\n      sub\n      dup2\n      0x00\n      dup8\n      gas\n      call\n      swap3\n      pop\n      pop\n      pop\n      dup1\n      iszero\n      tag_88\n      jumpi\n      pop\n      mload(0x40)\n      returndatasize\n      not(0x1f)\n      0x1f\n      dup3\n      add\n      and\n      dup3\n      add\n      dup1\n      0x40\n      mstore\n      pop\n      dup2\n      add\n      swap1\n      tag_89\n      swap2\n      swap1\n      tag_61\n      jump\t// in\n    tag_89:\n      0x01\n    tag_88:\n        /* \"assignment contracts/W1 SafeTokenVesting.sol\":3498:3692  try token.transferFrom(msg.sender, address(this), totalTokens) {... */\n      tag_90\n      jumpi\n        /* \"assignment contracts/W1 SafeTokenVesting.sol\":3631:3680  revert(\"Failed to fund the contract with tokens\") */\n      mload(0x40)\n      0x08c379a000000000000000000000000000000000000000000000000000000000\n      dup2\n      mstore\n      0x04\n      add\n      tag_94\n      swap1\n      tag_95\n      jump\t// in\n    tag_94:\n      mload(0x40)\n      dup1\n      swap2\n      sub\n      swap1\n      revert\n        /* \"assignment contracts/W1 SafeTokenVesting.sol\":3498:3692  try token.transferFrom(msg.sender, address(this), totalTokens) {... */\n    tag_90:\n      pop\n        /* \"assignment contracts/W1 SafeTokenVesting.sol\":3400:3699  function fundContract() public {... */\n      jump\t// out\n        /* \"assignment contracts/W1 SafeTokenVesting.sol\":2593:2622  uint256 public releasedTokens */\n    tag_39:\n      sload(0x05)\n      dup2\n      jump\t// out\n        /* \"assignment contracts/W1 SafeTokenVesting.sol\":2433:2452  IERC20 public token */\n    tag_42:\n      0x00\n      dup1\n      sload\n      swap1\n      0x0100\n      exp\n      swap1\n      div\n      0xffffffffffffffffffffffffffffffffffffffff\n      and\n      dup2\n      jump\t// out\n        /* \"#utility.yul\":7:84   */\n    tag_97:\n        /* \"#utility.yul\":44:51   */\n      0x00\n        /* \"#utility.yul\":73:78   */\n      dup2\n        /* \"#utility.yul\":62:78   */\n      swap1\n      pop\n        /* \"#utility.yul\":7:84   */\n      swap2\n      swap1\n      pop\n      jump\t// out\n        /* \"#utility.yul\":90:208   */\n    tag_98:\n        /* \"#utility.yul\":177:201   */\n      tag_129\n        /* \"#utility.yul\":195:200   */\n      dup2\n        /* \"#utility.yul\":177:201   */\n      tag_97\n      jump\t// in\n    tag_129:\n        /* \"#utility.yul\":172:175   */\n      dup3\n        /* \"#utility.yul\":165:202   */\n      mstore\n        /* \"#utility.yul\":90:208   */\n      pop\n      pop\n      jump\t// out\n        /* \"#utility.yul\":214:436   */\n    tag_17:\n        /* \"#utility.yul\":307:311   */\n      0x00\n        /* \"#utility.yul\":345:347   */\n      0x20\n        /* \"#utility.yul\":334:343   */\n      dup3\n        /* \"#utility.yul\":330:348   */\n      add\n        /* \"#utility.yul\":322:348   */\n      swap1\n      pop\n        /* \"#utility.yul\":358:429   */\n      tag_131\n        /* \"#utility.yul\":426:427   */\n      0x00\n        /* \"#utility.yul\":415:424   */\n      dup4\n        /* \"#utility.yul\":411:428   */\n      add\n        /* \"#utility.yul\":402:408   */\n      dup5\n        /* \"#utility.yul\":358:429   */\n      tag_98\n      jump\t// in\n    tag_131:\n        /* \"#utility.yul\":214:436   */\n      swap3\n      swap2\n      pop\n      pop\n      jump\t// out\n        /* \"#utility.yul\":442:568   */\n    tag_99:\n        /* \"#utility.yul\":479:486   */\n      0x00\n        /* \"#utility.yul\":519:561   */\n      0xffffffffffffffffffffffffffffffffffffffff\n        /* \"#utility.yul\":512:517   */\n      dup3\n        /* \"#utility.yul\":508:562   */\n      and\n        /* \"#utility.yul\":497:562   */\n      swap1\n      pop\n        /* \"#utility.yul\":442:568   */\n      swap2\n      swap1\n      pop\n      jump\t// out\n        /* \"#utility.yul\":574:670   */\n    tag_100:\n        /* \"#utility.yul\":611:618   */\n      0x00\n        /* \"#utility.yul\":640:664   */\n      tag_134\n        /* \"#utility.yul\":658:663   */\n      dup3\n        /* \"#utility.yul\":640:664   */\n      tag_99\n      jump\t// in\n    tag_134:\n        /* \"#utility.yul\":629:664   */\n      swap1\n      pop\n        /* \"#utility.yul\":574:670   */\n      swap2\n      swap1\n      pop\n      jump\t// out\n        /* \"#utility.yul\":676:794   */\n    tag_101:\n        /* \"#utility.yul\":763:787   */\n      tag_136\n        /* \"#utility.yul\":781:786   */\n      dup2\n        /* \"#utility.yul\":763:787   */\n      tag_100\n      jump\t// in\n    tag_136:\n        /* \"#utility.yul\":758:761   */\n      dup3\n        /* \"#utility.yul\":751:788   */\n      mstore\n        /* \"#utility.yul\":676:794   */\n      pop\n      pop\n      jump\t// out\n        /* \"#utility.yul\":800:1022   */\n    tag_21:\n        /* \"#utility.yul\":893:897   */\n      0x00\n        /* \"#utility.yul\":931:933   */\n      0x20\n        /* \"#utility.yul\":920:929   */\n      dup3\n        /* \"#utility.yul\":916:934   */\n      add\n        /* \"#utility.yul\":908:934   */\n      swap1\n      pop\n        /* \"#utility.yul\":944:1015   */\n      tag_138\n        /* \"#utility.yul\":1012:1013   */\n      0x00\n        /* \"#utility.yul\":1001:1010   */\n      dup4\n        /* \"#utility.yul\":997:1014   */\n      add\n        /* \"#utility.yul\":988:994   */\n      dup5\n        /* \"#utility.yul\":944:1015   */\n      tag_101\n      jump\t// in\n    tag_138:\n        /* \"#utility.yul\":800:1022   */\n      swap3\n      swap2\n      pop\n      pop\n      jump\t// out\n        /* \"#utility.yul\":1028:1088   */\n    tag_102:\n        /* \"#utility.yul\":1056:1059   */\n      0x00\n        /* \"#utility.yul\":1077:1082   */\n      dup2\n        /* \"#utility.yul\":1070:1082   */\n      swap1\n      pop\n        /* \"#utility.yul\":1028:1088   */\n      swap2\n      swap1\n      pop\n      jump\t// out\n        /* \"#utility.yul\":1094:1236   */\n    tag_103:\n        /* \"#utility.yul\":1144:1153   */\n      0x00\n        /* \"#utility.yul\":1177:1230   */\n      tag_141\n        /* \"#utility.yul\":1195:1229   */\n      tag_142\n        /* \"#utility.yul\":1204:1228   */\n      tag_143\n        /* \"#utility.yul\":1222:1227   */\n      dup5\n        /* \"#utility.yul\":1204:1228   */\n      tag_99\n      jump\t// in\n    tag_143:\n        /* \"#utility.yul\":1195:1229   */\n      tag_102\n      jump\t// in\n    tag_142:\n        /* \"#utility.yul\":1177:1230   */\n      tag_99\n      jump\t// in\n    tag_141:\n        /* \"#utility.yul\":1164:1230   */\n      swap1\n      pop\n        /* \"#utility.yul\":1094:1236   */\n      swap2\n      swap1\n      pop\n      jump\t// out\n        /* \"#utility.yul\":1242:1368   */\n    tag_104:\n        /* \"#utility.yul\":1292:1301   */\n      0x00\n        /* \"#utility.yul\":1325:1362   */\n      tag_145\n        /* \"#utility.yul\":1356:1361   */\n      dup3\n        /* \"#utility.yul\":1325:1362   */\n      tag_103\n      jump\t// in\n    tag_145:\n        /* \"#utility.yul\":1312:1362   */\n      swap1\n      pop\n        /* \"#utility.yul\":1242:1368   */\n      swap2\n      swap1\n      pop\n      jump\t// out\n        /* \"#utility.yul\":1374:1513   */\n    tag_105:\n        /* \"#utility.yul\":1437:1446   */\n      0x00\n        /* \"#utility.yul\":1470:1507   */\n      tag_147\n        /* \"#utility.yul\":1501:1506   */\n      dup3\n        /* \"#utility.yul\":1470:1507   */\n      tag_104\n      jump\t// in\n    tag_147:\n        /* \"#utility.yul\":1457:1507   */\n      swap1\n      pop\n        /* \"#utility.yul\":1374:1513   */\n      swap2\n      swap1\n      pop\n      jump\t// out\n        /* \"#utility.yul\":1519:1676   */\n    tag_106:\n        /* \"#utility.yul\":1619:1669   */\n      tag_149\n        /* \"#utility.yul\":1663:1668   */\n      dup2\n        /* \"#utility.yul\":1619:1669   */\n      tag_105\n      jump\t// in\n    tag_149:\n        /* \"#utility.yul\":1614:1617   */\n      dup3\n        /* \"#utility.yul\":1607:1670   */\n      mstore\n        /* \"#utility.yul\":1519:1676   */\n      pop\n      pop\n      jump\t// out\n        /* \"#utility.yul\":1682:1930   */\n    tag_44:\n        /* \"#utility.yul\":1788:1792   */\n      0x00\n        /* \"#utility.yul\":1826:1828   */\n      0x20\n        /* \"#utility.yul\":1815:1824   */\n      dup3\n        /* \"#utility.yul\":1811:1829   */\n      add\n        /* \"#utility.yul\":1803:1829   */\n      swap1\n      pop\n        /* \"#utility.yul\":1839:1923   */\n      tag_151\n        /* \"#utility.yul\":1920:1921   */\n      0x00\n        /* \"#utility.yul\":1909:1918   */\n      dup4\n        /* \"#utility.yul\":1905:1922   */\n      add\n        /* \"#utility.yul\":1896:1902   */\n      dup5\n        /* \"#utility.yul\":1839:1923   */\n      tag_106\n      jump\t// in\n    tag_151:\n        /* \"#utility.yul\":1682:1930   */\n      swap3\n      swap2\n      pop\n      pop\n      jump\t// out\n        /* \"#utility.yul\":1936:2105   */\n    tag_107:\n        /* \"#utility.yul\":2020:2031   */\n      0x00\n        /* \"#utility.yul\":2054:2060   */\n      dup3\n        /* \"#utility.yul\":2049:2052   */\n      dup3\n        /* \"#utility.yul\":2042:2061   */\n      mstore\n        /* \"#utility.yul\":2094:2098   */\n      0x20\n        /* \"#utility.yul\":2089:2092   */\n      dup3\n        /* \"#utility.yul\":2085:2099   */\n      add\n        /* \"#utility.yul\":2070:2099   */\n      swap1\n      pop\n        /* \"#utility.yul\":1936:2105   */\n      swap3\n      swap2\n      pop\n      pop\n      jump\t// out\n        /* \"#utility.yul\":2111:2335   */\n    tag_108:\n        /* \"#utility.yul\":2251:2285   */\n      0x4f6e6c79207468652062656e65666963696172792063616e20636c61696d2074\n        /* \"#utility.yul\":2247:2248   */\n      0x00\n        /* \"#utility.yul\":2239:2245   */\n      dup3\n        /* \"#utility.yul\":2235:2249   */\n      add\n        /* \"#utility.yul\":2228:2286   */\n      mstore\n        /* \"#utility.yul\":2320:2327   */\n      0x6f6b656e73000000000000000000000000000000000000000000000000000000\n        /* \"#utility.yul\":2315:2317   */\n      0x20\n        /* \"#utility.yul\":2307:2313   */\n      dup3\n        /* \"#utility.yul\":2303:2318   */\n      add\n        /* \"#utility.yul\":2296:2328   */\n      mstore\n        /* \"#utility.yul\":2111:2335   */\n      pop\n      jump\t// out\n        /* \"#utility.yul\":2341:2707   */\n    tag_109:\n        /* \"#utility.yul\":2483:2486   */\n      0x00\n        /* \"#utility.yul\":2504:2571   */\n      tag_155\n        /* \"#utility.yul\":2568:2570   */\n      0x25\n        /* \"#utility.yul\":2563:2566   */\n      dup4\n        /* \"#utility.yul\":2504:2571   */\n      tag_107\n      jump\t// in\n    tag_155:\n        /* \"#utility.yul\":2497:2571   */\n      swap2\n      pop\n        /* \"#utility.yul\":2580:2673   */\n      tag_156\n        /* \"#utility.yul\":2669:2672   */\n      dup3\n        /* \"#utility.yul\":2580:2673   */\n      tag_108\n      jump\t// in\n    tag_156:\n        /* \"#utility.yul\":2698:2700   */\n      0x40\n        /* \"#utility.yul\":2693:2696   */\n      dup3\n        /* \"#utility.yul\":2689:2701   */\n      add\n        /* \"#utility.yul\":2682:2701   */\n      swap1\n      pop\n        /* \"#utility.yul\":2341:2707   */\n      swap2\n      swap1\n      pop\n      jump\t// out\n        /* \"#utility.yul\":2713:3132   */\n    tag_48:\n        /* \"#utility.yul\":2879:2883   */\n      0x00\n        /* \"#utility.yul\":2917:2919   */\n      0x20\n        /* \"#utility.yul\":2906:2915   */\n      dup3\n        /* \"#utility.yul\":2902:2920   */\n      add\n        /* \"#utility.yul\":2894:2920   */\n      swap1\n      pop\n        /* \"#utility.yul\":2966:2975   */\n      dup2\n        /* \"#utility.yul\":2960:2964   */\n      dup2\n        /* \"#utility.yul\":2956:2976   */\n      sub\n        /* \"#utility.yul\":2952:2953   */\n      0x00\n        /* \"#utility.yul\":2941:2950   */\n      dup4\n        /* \"#utility.yul\":2937:2954   */\n      add\n        /* \"#utility.yul\":2930:2977   */\n      mstore\n        /* \"#utility.yul\":2994:3125   */\n      tag_158\n        /* \"#utility.yul\":3120:3124   */\n      dup2\n        /* \"#utility.yul\":2994:3125   */\n      tag_109\n      jump\t// in\n    tag_158:\n        /* \"#utility.yul\":2986:3125   */\n      swap1\n      pop\n        /* \"#utility.yul\":2713:3132   */\n      swap2\n      swap1\n      pop\n      jump\t// out\n        /* \"#utility.yul\":3138:3318   */\n    tag_110:\n        /* \"#utility.yul\":3186:3263   */\n      0x4e487b7100000000000000000000000000000000000000000000000000000000\n        /* \"#utility.yul\":3183:3184   */\n      0x00\n        /* \"#utility.yul\":3176:3264   */\n      mstore\n        /* \"#utility.yul\":3283:3287   */\n      0x11\n        /* \"#utility.yul\":3280:3281   */\n      0x04\n        /* \"#utility.yul\":3273:3288   */\n      mstore\n        /* \"#utility.yul\":3307:3311   */\n      0x24\n        /* \"#utility.yul\":3304:3305   */\n      0x00\n        /* \"#utility.yul\":3297:3312   */\n      revert\n        /* \"#utility.yul\":3324:3518   */\n    tag_51:\n        /* \"#utility.yul\":3364:3368   */\n      0x00\n        /* \"#utility.yul\":3384:3404   */\n      tag_161\n        /* \"#utility.yul\":3402:3403   */\n      dup3\n        /* \"#utility.yul\":3384:3404   */\n      tag_97\n      jump\t// in\n    tag_161:\n        /* \"#utility.yul\":3379:3404   */\n      swap2\n      pop\n        /* \"#utility.yul\":3418:3438   */\n      tag_162\n        /* \"#utility.yul\":3436:3437   */\n      dup4\n        /* \"#utility.yul\":3418:3438   */\n      tag_97\n      jump\t// in\n    tag_162:\n        /* \"#utility.yul\":3413:3438   */\n      swap3\n      pop\n        /* \"#utility.yul\":3462:3463   */\n      dup3\n        /* \"#utility.yul\":3459:3460   */\n      dup3\n        /* \"#utility.yul\":3455:3464   */\n      sub\n        /* \"#utility.yul\":3447:3464   */\n      swap1\n      pop\n        /* \"#utility.yul\":3486:3487   */\n      dup2\n        /* \"#utility.yul\":3480:3484   */\n      dup2\n        /* \"#utility.yul\":3477:3488   */\n      gt\n        /* \"#utility.yul\":3474:3511   */\n      iszero\n      tag_163\n      jumpi\n        /* \"#utility.yul\":3491:3509   */\n      tag_164\n      tag_110\n      jump\t// in\n    tag_164:\n        /* \"#utility.yul\":3474:3511   */\n    tag_163:\n        /* \"#utility.yul\":3324:3518   */\n      swap3\n      swap2\n      pop\n      pop\n      jump\t// out\n        /* \"#utility.yul\":3524:3702   */\n    tag_111:\n        /* \"#utility.yul\":3664:3694   */\n      0x4e6f20746f6b656e7320617661696c61626c6520746f20636c61696d00000000\n        /* \"#utility.yul\":3660:3661   */\n      0x00\n        /* \"#utility.yul\":3652:3658   */\n      dup3\n        /* \"#utility.yul\":3648:3662   */\n      add\n        /* \"#utility.yul\":3641:3695   */\n      mstore\n        /* \"#utility.yul\":3524:3702   */\n      pop\n      jump\t// out\n        /* \"#utility.yul\":3708:4074   */\n    tag_112:\n        /* \"#utility.yul\":3850:3853   */\n      0x00\n        /* \"#utility.yul\":3871:3938   */\n      tag_167\n        /* \"#utility.yul\":3935:3937   */\n      0x1c\n        /* \"#utility.yul\":3930:3933   */\n      dup4\n        /* \"#utility.yul\":3871:3938   */\n      tag_107\n      jump\t// in\n    tag_167:\n        /* \"#utility.yul\":3864:3938   */\n      swap2\n      pop\n        /* \"#utility.yul\":3947:4040   */\n      tag_168\n        /* \"#utility.yul\":4036:4039   */\n      dup3\n        /* \"#utility.yul\":3947:4040   */\n      tag_111\n      jump\t// in\n    tag_168:\n        /* \"#utility.yul\":4065:4067   */\n      0x20\n        /* \"#utility.yul\":4060:4063   */\n      dup3\n        /* \"#utility.yul\":4056:4068   */\n      add\n        /* \"#utility.yul\":4049:4068   */\n      swap1\n      pop\n        /* \"#utility.yul\":3708:4074   */\n      swap2\n      swap1\n      pop\n      jump\t// out\n        /* \"#utility.yul\":4080:4499   */\n    tag_54:\n        /* \"#utility.yul\":4246:4250   */\n      0x00\n        /* \"#utility.yul\":4284:4286   */\n      0x20\n        /* \"#utility.yul\":4273:4282   */\n      dup3\n        /* \"#utility.yul\":4269:4287   */\n      add\n        /* \"#utility.yul\":4261:4287   */\n      swap1\n      pop\n        /* \"#utility.yul\":4333:4342   */\n      dup2\n        /* \"#utility.yul\":4327:4331   */\n      dup2\n        /* \"#utility.yul\":4323:4343   */\n      sub\n        /* \"#utility.yul\":4319:4320   */\n      0x00\n        /* \"#utility.yul\":4308:4317   */\n      dup4\n        /* \"#utility.yul\":4304:4321   */\n      add\n        /* \"#utility.yul\":4297:4344   */\n      mstore\n        /* \"#utility.yul\":4361:4492   */\n      tag_170\n        /* \"#utility.yul\":4487:4491   */\n      dup2\n        /* \"#utility.yul\":4361:4492   */\n      tag_112\n      jump\t// in\n    tag_170:\n        /* \"#utility.yul\":4353:4492   */\n      swap1\n      pop\n        /* \"#utility.yul\":4080:4499   */\n      swap2\n      swap1\n      pop\n      jump\t// out\n        /* \"#utility.yul\":4505:4696   */\n    tag_56:\n        /* \"#utility.yul\":4545:4548   */\n      0x00\n        /* \"#utility.yul\":4564:4584   */\n      tag_172\n        /* \"#utility.yul\":4582:4583   */\n      dup3\n        /* \"#utility.yul\":4564:4584   */\n      tag_97\n      jump\t// in\n    tag_172:\n        /* \"#utility.yul\":4559:4584   */\n      swap2\n      pop\n        /* \"#utility.yul\":4598:4618   */\n      tag_173\n        /* \"#utility.yul\":4616:4617   */\n      dup4\n        /* \"#utility.yul\":4598:4618   */\n      tag_97\n      jump\t// in\n    tag_173:\n        /* \"#utility.yul\":4593:4618   */\n      swap3\n      pop\n        /* \"#utility.yul\":4641:4642   */\n      dup3\n        /* \"#utility.yul\":4638:4639   */\n      dup3\n        /* \"#utility.yul\":4634:4643   */\n      add\n        /* \"#utility.yul\":4627:4643   */\n      swap1\n      pop\n        /* \"#utility.yul\":4662:4665   */\n      dup1\n        /* \"#utility.yul\":4659:4660   */\n      dup3\n        /* \"#utility.yul\":4656:4666   */\n      gt\n        /* \"#utility.yul\":4653:4689   */\n      iszero\n      tag_174\n      jumpi\n        /* \"#utility.yul\":4669:4687   */\n      tag_175\n      tag_110\n      jump\t// in\n    tag_175:\n        /* \"#utility.yul\":4653:4689   */\n    tag_174:\n        /* \"#utility.yul\":4505:4696   */\n      swap3\n      swap2\n      pop\n      pop\n      jump\t// out\n        /* \"#utility.yul\":4702:5034   */\n    tag_58:\n        /* \"#utility.yul\":4823:4827   */\n      0x00\n        /* \"#utility.yul\":4861:4863   */\n      0x40\n        /* \"#utility.yul\":4850:4859   */\n      dup3\n        /* \"#utility.yul\":4846:4864   */\n      add\n        /* \"#utility.yul\":4838:4864   */\n      swap1\n      pop\n        /* \"#utility.yul\":4874:4945   */\n      tag_177\n        /* \"#utility.yul\":4942:4943   */\n      0x00\n        /* \"#utility.yul\":4931:4940   */\n      dup4\n        /* \"#utility.yul\":4927:4944   */\n      add\n        /* \"#utility.yul\":4918:4924   */\n      dup6\n        /* \"#utility.yul\":4874:4945   */\n      tag_101\n      jump\t// in\n    tag_177:\n        /* \"#utility.yul\":4955:5027   */\n      tag_178\n        /* \"#utility.yul\":5023:5025   */\n      0x20\n        /* \"#utility.yul\":5012:5021   */\n      dup4\n        /* \"#utility.yul\":5008:5026   */\n      add\n        /* \"#utility.yul\":4999:5005   */\n      dup5\n        /* \"#utility.yul\":4955:5027   */\n      tag_98\n      jump\t// in\n    tag_178:\n        /* \"#utility.yul\":4702:5034   */\n      swap4\n      swap3\n      pop\n      pop\n      pop\n      jump\t// out\n        /* \"#utility.yul\":5121:5238   */\n    tag_114:\n        /* \"#utility.yul\":5230:5231   */\n      0x00\n        /* \"#utility.yul\":5227:5228   */\n      dup1\n        /* \"#utility.yul\":5220:5232   */\n      revert\n        /* \"#utility.yul\":5367:5457   */\n    tag_116:\n        /* \"#utility.yul\":5401:5408   */\n      0x00\n        /* \"#utility.yul\":5444:5449   */\n      dup2\n        /* \"#utility.yul\":5437:5450   */\n      iszero\n        /* \"#utility.yul\":5430:5451   */\n      iszero\n        /* \"#utility.yul\":5419:5451   */\n      swap1\n      pop\n        /* \"#utility.yul\":5367:5457   */\n      swap2\n      swap1\n      pop\n      jump\t// out\n        /* \"#utility.yul\":5463:5579   */\n    tag_117:\n        /* \"#utility.yul\":5533:5554   */\n      tag_184\n        /* \"#utility.yul\":5548:5553   */\n      dup2\n        /* \"#utility.yul\":5533:5554   */\n      tag_116\n      jump\t// in\n    tag_184:\n        /* \"#utility.yul\":5526:5531   */\n      dup2\n        /* \"#utility.yul\":5523:5555   */\n      eq\n        /* \"#utility.yul\":5513:5573   */\n      tag_185\n      jumpi\n        /* \"#utility.yul\":5569:5570   */\n      0x00\n        /* \"#utility.yul\":5566:5567   */\n      dup1\n        /* \"#utility.yul\":5559:5571   */\n      revert\n        /* \"#utility.yul\":5513:5573   */\n    tag_185:\n        /* \"#utility.yul\":5463:5579   */\n      pop\n      jump\t// out\n        /* \"#utility.yul\":5585:5722   */\n    tag_118:\n        /* \"#utility.yul\":5639:5644   */\n      0x00\n        /* \"#utility.yul\":5670:5676   */\n      dup2\n        /* \"#utility.yul\":5664:5677   */\n      mload\n        /* \"#utility.yul\":5655:5677   */\n      swap1\n      pop\n        /* \"#utility.yul\":5686:5716   */\n      tag_187\n        /* \"#utility.yul\":5710:5715   */\n      dup2\n        /* \"#utility.yul\":5686:5716   */\n      tag_117\n      jump\t// in\n    tag_187:\n        /* \"#utility.yul\":5585:5722   */\n      swap3\n      swap2\n      pop\n      pop\n      jump\t// out\n        /* \"#utility.yul\":5728:6073   */\n    tag_61:\n        /* \"#utility.yul\":5795:5801   */\n      0x00\n        /* \"#utility.yul\":5844:5846   */\n      0x20\n        /* \"#utility.yul\":5832:5841   */\n      dup3\n        /* \"#utility.yul\":5823:5830   */\n      dup5\n        /* \"#utility.yul\":5819:5842   */\n      sub\n        /* \"#utility.yul\":5815:5847   */\n      slt\n        /* \"#utility.yul\":5812:5931   */\n      iszero\n      tag_189\n      jumpi\n        /* \"#utility.yul\":5850:5929   */\n      tag_190\n      tag_114\n      jump\t// in\n    tag_190:\n        /* \"#utility.yul\":5812:5931   */\n    tag_189:\n        /* \"#utility.yul\":5970:5971   */\n      0x00\n        /* \"#utility.yul\":5995:6056   */\n      tag_191\n        /* \"#utility.yul\":6048:6055   */\n      dup5\n        /* \"#utility.yul\":6039:6045   */\n      dup3\n        /* \"#utility.yul\":6028:6037   */\n      dup6\n        /* \"#utility.yul\":6024:6046   */\n      add\n        /* \"#utility.yul\":5995:6056   */\n      tag_118\n      jump\t// in\n    tag_191:\n        /* \"#utility.yul\":5985:6056   */\n      swap2\n      pop\n        /* \"#utility.yul\":5941:6066   */\n      pop\n        /* \"#utility.yul\":5728:6073   */\n      swap3\n      swap2\n      pop\n      pop\n      jump\t// out\n        /* \"#utility.yul\":6079:6250   */\n    tag_119:\n        /* \"#utility.yul\":6219:6242   */\n      0x546f6b656e207472616e73666572206661696c65640000000000000000000000\n        /* \"#utility.yul\":6215:6216   */\n      0x00\n        /* \"#utility.yul\":6207:6213   */\n      dup3\n        /* \"#utility.yul\":6203:6217   */\n      add\n        /* \"#utility.yul\":6196:6243   */\n      mstore\n        /* \"#utility.yul\":6079:6250   */\n      pop\n      jump\t// out\n        /* \"#utility.yul\":6256:6622   */\n    tag_120:\n        /* \"#utility.yul\":6398:6401   */\n      0x00\n        /* \"#utility.yul\":6419:6486   */\n      tag_194\n        /* \"#utility.yul\":6483:6485   */\n      0x15\n        /* \"#utility.yul\":6478:6481   */\n      dup4\n        /* \"#utility.yul\":6419:6486   */\n      tag_107\n      jump\t// in\n    tag_194:\n        /* \"#utility.yul\":6412:6486   */\n      swap2\n      pop\n        /* \"#utility.yul\":6495:6588   */\n      tag_195\n        /* \"#utility.yul\":6584:6587   */\n      dup3\n        /* \"#utility.yul\":6495:6588   */\n      tag_119\n      jump\t// in\n    tag_195:\n        /* \"#utility.yul\":6613:6615   */\n      0x20\n        /* \"#utility.yul\":6608:6611   */\n      dup3\n        /* \"#utility.yul\":6604:6616   */\n      add\n        /* \"#utility.yul\":6597:6616   */\n      swap1\n      pop\n        /* \"#utility.yul\":6256:6622   */\n      swap2\n      swap1\n      pop\n      jump\t// out\n        /* \"#utility.yul\":6628:7047   */\n    tag_68:\n        /* \"#utility.yul\":6794:6798   */\n      0x00\n        /* \"#utility.yul\":6832:6834   */\n      0x20\n        /* \"#utility.yul\":6821:6830   */\n      dup3\n        /* \"#utility.yul\":6817:6835   */\n      add\n        /* \"#utility.yul\":6809:6835   */\n      swap1\n      pop\n        /* \"#utility.yul\":6881:6890   */\n      dup2\n        /* \"#utility.yul\":6875:6879   */\n      dup2\n        /* \"#utility.yul\":6871:6891   */\n      sub\n        /* \"#utility.yul\":6867:6868   */\n      0x00\n        /* \"#utility.yul\":6856:6865   */\n      dup4\n        /* \"#utility.yul\":6852:6869   */\n      add\n        /* \"#utility.yul\":6845:6892   */\n      mstore\n        /* \"#utility.yul\":6909:7040   */\n      tag_197\n        /* \"#utility.yul\":7035:7039   */\n      dup2\n        /* \"#utility.yul\":6909:7040   */\n      tag_120\n      jump\t// in\n    tag_197:\n        /* \"#utility.yul\":6901:7040   */\n      swap1\n      pop\n        /* \"#utility.yul\":6628:7047   */\n      swap2\n      swap1\n      pop\n      jump\t// out\n        /* \"#utility.yul\":7053:7463   */\n    tag_76:\n        /* \"#utility.yul\":7093:7100   */\n      0x00\n        /* \"#utility.yul\":7116:7136   */\n      tag_199\n        /* \"#utility.yul\":7134:7135   */\n      dup3\n        /* \"#utility.yul\":7116:7136   */\n      tag_97\n      jump\t// in\n    tag_199:\n        /* \"#utility.yul\":7111:7136   */\n      swap2\n      pop\n        /* \"#utility.yul\":7150:7170   */\n      tag_200\n        /* \"#utility.yul\":7168:7169   */\n      dup4\n        /* \"#utility.yul\":7150:7170   */\n      tag_97\n      jump\t// in\n    tag_200:\n        /* \"#utility.yul\":7145:7170   */\n      swap3\n      pop\n        /* \"#utility.yul\":7205:7206   */\n      dup3\n        /* \"#utility.yul\":7202:7203   */\n      dup3\n        /* \"#utility.yul\":7198:7207   */\n      mul\n        /* \"#utility.yul\":7227:7257   */\n      tag_201\n        /* \"#utility.yul\":7245:7256   */\n      dup2\n        /* \"#utility.yul\":7227:7257   */\n      tag_97\n      jump\t// in\n    tag_201:\n        /* \"#utility.yul\":7216:7257   */\n      swap2\n      pop\n        /* \"#utility.yul\":7406:7407   */\n      dup3\n        /* \"#utility.yul\":7397:7404   */\n      dup3\n        /* \"#utility.yul\":7393:7408   */\n      div\n        /* \"#utility.yul\":7390:7391   */\n      dup5\n        /* \"#utility.yul\":7387:7409   */\n      eq\n        /* \"#utility.yul\":7367:7368   */\n      dup4\n        /* \"#utility.yul\":7360:7369   */\n      iszero\n        /* \"#utility.yul\":7340:7423   */\n      or\n        /* \"#utility.yul\":7317:7456   */\n      tag_202\n      jumpi\n        /* \"#utility.yul\":7436:7454   */\n      tag_203\n      tag_110\n      jump\t// in\n    tag_203:\n        /* \"#utility.yul\":7317:7456   */\n    tag_202:\n        /* \"#utility.yul\":7101:7463   */\n      pop\n        /* \"#utility.yul\":7053:7463   */\n      swap3\n      swap2\n      pop\n      pop\n      jump\t// out\n        /* \"#utility.yul\":7469:7649   */\n    tag_121:\n        /* \"#utility.yul\":7517:7594   */\n      0x4e487b7100000000000000000000000000000000000000000000000000000000\n        /* \"#utility.yul\":7514:7515   */\n      0x00\n        /* \"#utility.yul\":7507:7595   */\n      mstore\n        /* \"#utility.yul\":7614:7618   */\n      0x12\n        /* \"#utility.yul\":7611:7612   */\n      0x04\n        /* \"#utility.yul\":7604:7619   */\n      mstore\n        /* \"#utility.yul\":7638:7642   */\n      0x24\n        /* \"#utility.yul\":7635:7636   */\n      0x00\n        /* \"#utility.yul\":7628:7643   */\n      revert\n        /* \"#utility.yul\":7655:7840   */\n    tag_78:\n        /* \"#utility.yul\":7695:7696   */\n      0x00\n        /* \"#utility.yul\":7712:7732   */\n      tag_206\n        /* \"#utility.yul\":7730:7731   */\n      dup3\n        /* \"#utility.yul\":7712:7732   */\n      tag_97\n      jump\t// in\n    tag_206:\n        /* \"#utility.yul\":7707:7732   */\n      swap2\n      pop\n        /* \"#utility.yul\":7746:7766   */\n      tag_207\n        /* \"#utility.yul\":7764:7765   */\n      dup4\n        /* \"#utility.yul\":7746:7766   */\n      tag_97\n      jump\t// in\n    tag_207:\n        /* \"#utility.yul\":7741:7766   */\n      swap3\n      pop\n        /* \"#utility.yul\":7785:7786   */\n      dup3\n        /* \"#utility.yul\":7775:7810   */\n      tag_208\n      jumpi\n        /* \"#utility.yul\":7790:7808   */\n      tag_209\n      tag_121\n      jump\t// in\n    tag_209:\n        /* \"#utility.yul\":7775:7810   */\n    tag_208:\n        /* \"#utility.yul\":7832:7833   */\n      dup3\n        /* \"#utility.yul\":7829:7830   */\n      dup3\n        /* \"#utility.yul\":7825:7834   */\n      div\n        /* \"#utility.yul\":7820:7834   */\n      swap1\n      pop\n        /* \"#utility.yul\":7655:7840   */\n      swap3\n      swap2\n      pop\n      pop\n      jump\t// out\n        /* \"#utility.yul\":7846:7968   */\n    tag_122:\n        /* \"#utility.yul\":7919:7943   */\n      tag_211\n        /* \"#utility.yul\":7937:7942   */\n      dup2\n        /* \"#utility.yul\":7919:7943   */\n      tag_97\n      jump\t// in\n    tag_211:\n        /* \"#utility.yul\":7912:7917   */\n      dup2\n        /* \"#utility.yul\":7909:7944   */\n      eq\n        /* \"#utility.yul\":7899:7962   */\n      tag_212\n      jumpi\n        /* \"#utility.yul\":7958:7959   */\n      0x00\n        /* \"#utility.yul\":7955:7956   */\n      dup1\n        /* \"#utility.yul\":7948:7960   */\n      revert\n        /* \"#utility.yul\":7899:7962   */\n    tag_212:\n        /* \"#utility.yul\":7846:7968   */\n      pop\n      jump\t// out\n        /* \"#utility.yul\":7974:8117   */\n    tag_123:\n        /* \"#utility.yul\":8031:8036   */\n      0x00\n        /* \"#utility.yul\":8062:8068   */\n      dup2\n        /* \"#utility.yul\":8056:8069   */\n      mload\n        /* \"#utility.yul\":8047:8069   */\n      swap1\n      pop\n        /* \"#utility.yul\":8078:8111   */\n      tag_214\n        /* \"#utility.yul\":8105:8110   */\n      dup2\n        /* \"#utility.yul\":8078:8111   */\n      tag_122\n      jump\t// in\n    tag_214:\n        /* \"#utility.yul\":7974:8117   */\n      swap3\n      swap2\n      pop\n      pop\n      jump\t// out\n        /* \"#utility.yul\":8123:8474   */\n    tag_84:\n        /* \"#utility.yul\":8193:8199   */\n      0x00\n        /* \"#utility.yul\":8242:8244   */\n      0x20\n        /* \"#utility.yul\":8230:8239   */\n      dup3\n        /* \"#utility.yul\":8221:8228   */\n      dup5\n        /* \"#utility.yul\":8217:8240   */\n      sub\n        /* \"#utility.yul\":8213:8245   */\n      slt\n        /* \"#utility.yul\":8210:8329   */\n      iszero\n      tag_216\n      jumpi\n        /* \"#utility.yul\":8248:8327   */\n      tag_217\n      tag_114\n      jump\t// in\n    tag_217:\n        /* \"#utility.yul\":8210:8329   */\n    tag_216:\n        /* \"#utility.yul\":8368:8369   */\n      0x00\n        /* \"#utility.yul\":8393:8457   */\n      tag_218\n        /* \"#utility.yul\":8449:8456   */\n      dup5\n        /* \"#utility.yul\":8440:8446   */\n      dup3\n        /* \"#utility.yul\":8429:8438   */\n      dup6\n        /* \"#utility.yul\":8425:8447   */\n      add\n        /* \"#utility.yul\":8393:8457   */\n      tag_123\n      jump\t// in\n    tag_218:\n        /* \"#utility.yul\":8383:8457   */\n      swap2\n      pop\n        /* \"#utility.yul\":8339:8467   */\n      pop\n        /* \"#utility.yul\":8123:8474   */\n      swap3\n      swap2\n      pop\n      pop\n      jump\t// out\n        /* \"#utility.yul\":8480:8922   */\n    tag_87:\n        /* \"#utility.yul\":8629:8633   */\n      0x00\n        /* \"#utility.yul\":8667:8669   */\n      0x60\n        /* \"#utility.yul\":8656:8665   */\n      dup3\n        /* \"#utility.yul\":8652:8670   */\n      add\n        /* \"#utility.yul\":8644:8670   */\n      swap1\n      pop\n        /* \"#utility.yul\":8680:8751   */\n      tag_220\n        /* \"#utility.yul\":8748:8749   */\n      0x00\n        /* \"#utility.yul\":8737:8746   */\n      dup4\n        /* \"#utility.yul\":8733:8750   */\n      add\n        /* \"#utility.yul\":8724:8730   */\n      dup7\n        /* \"#utility.yul\":8680:8751   */\n      tag_101\n      jump\t// in\n    tag_220:\n        /* \"#utility.yul\":8761:8833   */\n      tag_221\n        /* \"#utility.yul\":8829:8831   */\n      0x20\n        /* \"#utility.yul\":8818:8827   */\n      dup4\n        /* \"#utility.yul\":8814:8832   */\n      add\n        /* \"#utility.yul\":8805:8811   */\n      dup6\n        /* \"#utility.yul\":8761:8833   */\n      tag_101\n      jump\t// in\n    tag_221:\n        /* \"#utility.yul\":8843:8915   */\n      tag_222\n        /* \"#utility.yul\":8911:8913   */\n      0x40\n        /* \"#utility.yul\":8900:8909   */\n      dup4\n        /* \"#utility.yul\":8896:8914   */\n      add\n        /* \"#utility.yul\":8887:8893   */\n      dup5\n        /* \"#utility.yul\":8843:8915   */\n      tag_98\n      jump\t// in\n    tag_222:\n        /* \"#utility.yul\":8480:8922   */\n      swap5\n      swap4\n      pop\n      pop\n      pop\n      pop\n      jump\t// out\n        /* \"#utility.yul\":8928:9154   */\n    tag_124:\n        /* \"#utility.yul\":9068:9102   */\n      0x4661696c656420746f2066756e642074686520636f6e74726163742077697468\n        /* \"#utility.yul\":9064:9065   */\n      0x00\n        /* \"#utility.yul\":9056:9062   */\n      dup3\n        /* \"#utility.yul\":9052:9066   */\n      add\n        /* \"#utility.yul\":9045:9103   */\n      mstore\n        /* \"#utility.yul\":9137:9146   */\n      0x20746f6b656e7300000000000000000000000000000000000000000000000000\n        /* \"#utility.yul\":9132:9134   */\n      0x20\n        /* \"#utility.yul\":9124:9130   */\n      dup3\n        /* \"#utility.yul\":9120:9135   */\n      add\n        /* \"#utility.yul\":9113:9147   */\n      mstore\n        /* \"#utility.yul\":8928:9154   */\n      pop\n      jump\t// out\n        /* \"#utility.yul\":9160:9526   */\n    tag_125:\n        /* \"#utility.yul\":9302:9305   */\n      0x00\n        /* \"#utility.yul\":9323:9390   */\n      tag_225\n        /* \"#utility.yul\":9387:9389   */\n      0x27\n        /* \"#utility.yul\":9382:9385   */\n      dup4\n        /* \"#utility.yul\":9323:9390   */\n      tag_107\n      jump\t// in\n    tag_225:\n        /* \"#utility.yul\":9316:9390   */\n      swap2\n      pop\n        /* \"#utility.yul\":9399:9492   */\n      tag_226\n        /* \"#utility.yul\":9488:9491   */\n      dup3\n        /* \"#utility.yul\":9399:9492   */\n      tag_124\n      jump\t// in\n    tag_226:\n        /* \"#utility.yul\":9517:9519   */\n      0x40\n        /* \"#utility.yul\":9512:9515   */\n      dup3\n        /* \"#utility.yul\":9508:9520   */\n      add\n        /* \"#utility.yul\":9501:9520   */\n      swap1\n      pop\n        /* \"#utility.yul\":9160:9526   */\n      swap2\n      swap1\n      pop\n      jump\t// out\n        /* \"#utility.yul\":9532:9951   */\n    tag_95:\n        /* \"#utility.yul\":9698:9702   */\n      0x00\n        /* \"#utility.yul\":9736:9738   */\n      0x20\n        /* \"#utility.yul\":9725:9734   */\n      dup3\n        /* \"#utility.yul\":9721:9739   */\n      add\n        /* \"#utility.yul\":9713:9739   */\n      swap1\n      pop\n        /* \"#utility.yul\":9785:9794   */\n      dup2\n        /* \"#utility.yul\":9779:9783   */\n      dup2\n        /* \"#utility.yul\":9775:9795   */\n      sub\n        /* \"#utility.yul\":9771:9772   */\n      0x00\n        /* \"#utility.yul\":9760:9769   */\n      dup4\n        /* \"#utility.yul\":9756:9773   */\n      add\n        /* \"#utility.yul\":9749:9796   */\n      mstore\n        /* \"#utility.yul\":9813:9944   */\n      tag_228\n        /* \"#utility.yul\":9939:9943   */\n      dup2\n        /* \"#utility.yul\":9813:9944   */\n      tag_125\n      jump\t// in\n    tag_228:\n        /* \"#utility.yul\":9805:9944   */\n      swap1\n      pop\n        /* \"#utility.yul\":9532:9951   */\n      swap2\n      swap1\n      pop\n      jump\t// out\n\n    auxdata: 0xa26469706673582212205862995a9b3c3dd8f263dad42f7d62e3b44e34816735c828315dce694a781e7164736f6c634300081a0033\n}\n",
				"bytecode": {
					"linkReferences": {},
					"object": "608060405234801561000f575f80fd5b50604051611146380380611146833981810160405281019061003191906102fa565b5f73ffffffffffffffffffffffffffffffffffffffff168473ffffffffffffffffffffffffffffffffffffffff160361009f576040517f08c379a0000000000000000000000000000000000000000000000000000000008152600401610096906103b8565b60405180910390fd5b5f73ffffffffffffffffffffffffffffffffffffffff168373ffffffffffffffffffffffffffffffffffffffff160361010d576040517f08c379a000000000000000000000000000000000000000000000000000000000815260040161010490610446565b60405180910390fd5b5f811161014f576040517f08c379a0000000000000000000000000000000000000000000000000000000008152600401610146906104d4565b60405180910390fd5b5f8211610191576040517f08c379a000000000000000000000000000000000000000000000000000000000815260040161018890610562565b60405180910390fd5b835f806101000a81548173ffffffffffffffffffffffffffffffffffffffff021916908373ffffffffffffffffffffffffffffffffffffffff1602179055508260015f6101000a81548173ffffffffffffffffffffffffffffffffffffffff021916908373ffffffffffffffffffffffffffffffffffffffff16021790555081600481905550806003819055504260028190555050505050610580565b5f80fd5b5f73ffffffffffffffffffffffffffffffffffffffff82169050919050565b5f61025b82610232565b9050919050565b5f61026c82610251565b9050919050565b61027c81610262565b8114610286575f80fd5b50565b5f8151905061029781610273565b92915050565b6102a681610251565b81146102b0575f80fd5b50565b5f815190506102c18161029d565b92915050565b5f819050919050565b6102d9816102c7565b81146102e3575f80fd5b50565b5f815190506102f4816102d0565b92915050565b5f805f80608085870312156103125761031161022e565b5b5f61031f87828801610289565b9450506020610330878288016102b3565b9350506040610341878288016102e6565b9250506060610352878288016102e6565b91505092959194509250565b5f82825260208201905092915050565b7f546f6b656e20616464726573732063616e6e6f74206265207a65726f000000005f82015250565b5f6103a2601c8361035e565b91506103ad8261036e565b602082019050919050565b5f6020820190508181035f8301526103cf81610396565b9050919050565b7f42656e65666963696172792063616e6e6f74206265207a65726f2061646472655f8201527f7373000000000000000000000000000000000000000000000000000000000000602082015250565b5f61043060228361035e565b915061043b826103d6565b604082019050919050565b5f6020820190508181035f83015261045d81610424565b9050919050565b7f56657374696e67206475726174696f6e206d75737420626520677265617465725f8201527f207468616e207a65726f00000000000000000000000000000000000000000000602082015250565b5f6104be602a8361035e565b91506104c982610464565b604082019050919050565b5f6020820190508181035f8301526104eb816104b2565b9050919050565b7f546f74616c20746f6b656e73206d7573742062652067726561746572207468615f8201527f6e207a65726f0000000000000000000000000000000000000000000000000000602082015250565b5f61054c60268361035e565b9150610557826104f2565b604082019050919050565b5f6020820190508181035f83015261057981610540565b9050919050565b610bb98061058d5f395ff3fe608060405234801561000f575f80fd5b506004361061009c575f3560e01c806378e979251161006457806378e97925146101225780637e1c0c0914610140578063bd097e211461015e578063bef3996314610168578063fc0c546a146101865761009c565b80631514617e146100a057806338af3eed146100be57806348c54b9d146100dc5780635330a6a2146100e65780636f9fb98a14610104575b5f80fd5b6100a86101a4565b6040516100b5919061065c565b60405180910390f35b6100c66101aa565b6040516100d391906106b4565b60405180910390f35b6100e46101cf565b005b6100ee610440565b6040516100fb919061065c565b60405180910390f35b61010c610496565b604051610119919061065c565b60405180910390f35b61012a610534565b604051610137919061065c565b60405180910390f35b61014861053a565b604051610155919061065c565b60405180910390f35b610166610540565b005b61017061061b565b60405161017d919061065c565b60405180910390f35b61018e610621565b60405161019b9190610728565b60405180910390f35b60035481565b60015f9054906101000a900473ffffffffffffffffffffffffffffffffffffffff1681565b60015f9054906101000a900473ffffffffffffffffffffffffffffffffffffffff1673ffffffffffffffffffffffffffffffffffffffff163373ffffffffffffffffffffffffffffffffffffffff161461025e576040517f08c379a0000000000000000000000000000000000000000000000000000000008152600401610255906107c1565b60405180910390fd5b5f610267610440565b90505f60055482610278919061080c565b90505f81116102bc576040517f08c379a00000000000000000000000000000000000000000000000000000000081526004016102b390610889565b60405180910390fd5b8060055f8282546102cd91906108a7565b925050819055505f8054906101000a900473ffffffffffffffffffffffffffffffffffffffff1673ffffffffffffffffffffffffffffffffffffffff1663a9059cbb60015f9054906101000a900473ffffffffffffffffffffffffffffffffffffffff16836040518363ffffffff1660e01b815260040161034f9291906108da565b6020604051808303815f875af192505050801561038a57506040513d601f19601f82011682018060405250810190610387919061093a565b60015b6103e1578060055f82825461039f919061080c565b925050819055506040517f08c379a00000000000000000000000000000000000000000000000000000000081526004016103d8906109af565b60405180910390fd5b507f896e034966eaaf1adc54acc0f257056febbd300c9e47182cf761982cf1f5e43060015f9054906101000a900473ffffffffffffffffffffffffffffffffffffffff16826040516104349291906108da565b60405180910390a15050565b5f600254421015610453575f9050610493565b5f60025442610462919061080c565b90506003548111156104745760035490505b6003548160045461048591906109cd565b61048f9190610a3b565b9150505b90565b5f805f9054906101000a900473ffffffffffffffffffffffffffffffffffffffff1673ffffffffffffffffffffffffffffffffffffffff166370a08231306040518263ffffffff1660e01b81526004016104f091906106b4565b602060405180830381865afa15801561050b573d5f803e3d5ffd5b505050506040513d601f19601f8201168201806040525081019061052f9190610a95565b905090565b60025481565b60045481565b5f8054906101000a900473ffffffffffffffffffffffffffffffffffffffff1673ffffffffffffffffffffffffffffffffffffffff166323b872dd33306004546040518463ffffffff1660e01b815260040161059e93929190610ac0565b6020604051808303815f875af19250505080156105d957506040513d601f19601f820116820180604052508101906105d6919061093a565b60015b610618576040517f08c379a000000000000000000000000000000000000000000000000000000000815260040161060f90610b65565b60405180910390fd5b50565b60055481565b5f8054906101000a900473ffffffffffffffffffffffffffffffffffffffff1681565b5f819050919050565b61065681610644565b82525050565b5f60208201905061066f5f83018461064d565b92915050565b5f73ffffffffffffffffffffffffffffffffffffffff82169050919050565b5f61069e82610675565b9050919050565b6106ae81610694565b82525050565b5f6020820190506106c75f8301846106a5565b92915050565b5f819050919050565b5f6106f06106eb6106e684610675565b6106cd565b610675565b9050919050565b5f610701826106d6565b9050919050565b5f610712826106f7565b9050919050565b61072281610708565b82525050565b5f60208201905061073b5f830184610719565b92915050565b5f82825260208201905092915050565b7f4f6e6c79207468652062656e65666963696172792063616e20636c61696d20745f8201527f6f6b656e73000000000000000000000000000000000000000000000000000000602082015250565b5f6107ab602583610741565b91506107b682610751565b604082019050919050565b5f6020820190508181035f8301526107d88161079f565b9050919050565b7f4e487b71000000000000000000000000000000000000000000000000000000005f52601160045260245ffd5b5f61081682610644565b915061082183610644565b9250828203905081811115610839576108386107df565b5b92915050565b7f4e6f20746f6b656e7320617661696c61626c6520746f20636c61696d000000005f82015250565b5f610873601c83610741565b915061087e8261083f565b602082019050919050565b5f6020820190508181035f8301526108a081610867565b9050919050565b5f6108b182610644565b91506108bc83610644565b92508282019050808211156108d4576108d36107df565b5b92915050565b5f6040820190506108ed5f8301856106a5565b6108fa602083018461064d565b9392505050565b5f80fd5b5f8115159050919050565b61091981610905565b8114610923575f80fd5b50565b5f8151905061093481610910565b92915050565b5f6020828403121561094f5761094e610901565b5b5f61095c84828501610926565b91505092915050565b7f546f6b656e207472616e73666572206661696c656400000000000000000000005f82015250565b5f610999601583610741565b91506109a482610965565b602082019050919050565b5f6020820190508181035f8301526109c68161098d565b9050919050565b5f6109d782610644565b91506109e283610644565b92508282026109f081610644565b91508282048414831517610a0757610a066107df565b5b5092915050565b7f4e487b71000000000000000000000000000000000000000000000000000000005f52601260045260245ffd5b5f610a4582610644565b9150610a5083610644565b925082610a6057610a5f610a0e565b5b828204905092915050565b610a7481610644565b8114610a7e575f80fd5b50565b5f81519050610a8f81610a6b565b92915050565b5f60208284031215610aaa57610aa9610901565b5b5f610ab784828501610a81565b91505092915050565b5f606082019050610ad35f8301866106a5565b610ae060208301856106a5565b610aed604083018461064d565b949350505050565b7f4661696c656420746f2066756e642074686520636f6e747261637420776974685f8201527f20746f6b656e7300000000000000000000000000000000000000000000000000602082015250565b5f610b4f602783610741565b9150610b5a82610af5565b604082019050919050565b5f6020820190508181035f830152610b7c81610b43565b905091905056fea26469706673582212205862995a9b3c3dd8f263dad42f7d62e3b44e34816735c828315dce694a781e7164736f6c634300081a0033",
					"opcodes": "PUSH1 0x80 PUSH1 0x40 MSTORE CALLVALUE DUP1 ISZERO PUSH2 0xF JUMPI PUSH0 DUP1 REVERT JUMPDEST POP PUSH1 0x40 MLOAD PUSH2 0x1146 CODESIZE SUB DUP1 PUSH2 0x1146 DUP4 CODECOPY DUP2 DUP2 ADD PUSH1 0x40 MSTORE DUP2 ADD SWAP1 PUSH2 0x31 SWAP2 SWAP1 PUSH2 0x2FA JUMP JUMPDEST PUSH0 PUSH20 0xFFFFFFFFFFFFFFFFFFFFFFFFFFFFFFFFFFFFFFFF AND DUP5 PUSH20 0xFFFFFFFFFFFFFFFFFFFFFFFFFFFFFFFFFFFFFFFF AND SUB PUSH2 0x9F JUMPI PUSH1 0x40 MLOAD PUSH32 0x8C379A000000000000000000000000000000000000000000000000000000000 DUP2 MSTORE PUSH1 0x4 ADD PUSH2 0x96 SWAP1 PUSH2 0x3B8 JUMP JUMPDEST PUSH1 0x40 MLOAD DUP1 SWAP2 SUB SWAP1 REVERT JUMPDEST PUSH0 PUSH20 0xFFFFFFFFFFFFFFFFFFFFFFFFFFFFFFFFFFFFFFFF AND DUP4 PUSH20 0xFFFFFFFFFFFFFFFFFFFFFFFFFFFFFFFFFFFFFFFF AND SUB PUSH2 0x10D JUMPI PUSH1 0x40 MLOAD PUSH32 0x8C379A000000000000000000000000000000000000000000000000000000000 DUP2 MSTORE PUSH1 0x4 ADD PUSH2 0x104 SWAP1 PUSH2 0x446 JUMP JUMPDEST PUSH1 0x40 MLOAD DUP1 SWAP2 SUB SWAP1 REVERT JUMPDEST PUSH0 DUP2 GT PUSH2 0x14F JUMPI PUSH1 0x40 MLOAD PUSH32 0x8C379A000000000000000000000000000000000000000000000000000000000 DUP2 MSTORE PUSH1 0x4 ADD PUSH2 0x146 SWAP1 PUSH2 0x4D4 JUMP JUMPDEST PUSH1 0x40 MLOAD DUP1 SWAP2 SUB SWAP1 REVERT JUMPDEST PUSH0 DUP3 GT PUSH2 0x191 JUMPI PUSH1 0x40 MLOAD PUSH32 0x8C379A000000000000000000000000000000000000000000000000000000000 DUP2 MSTORE PUSH1 0x4 ADD PUSH2 0x188 SWAP1 PUSH2 0x562 JUMP JUMPDEST PUSH1 0x40 MLOAD DUP1 SWAP2 SUB SWAP1 REVERT JUMPDEST DUP4 PUSH0 DUP1 PUSH2 0x100 EXP DUP2 SLOAD DUP2 PUSH20 0xFFFFFFFFFFFFFFFFFFFFFFFFFFFFFFFFFFFFFFFF MUL NOT AND SWAP1 DUP4 PUSH20 0xFFFFFFFFFFFFFFFFFFFFFFFFFFFFFFFFFFFFFFFF AND MUL OR SWAP1 SSTORE POP DUP3 PUSH1 0x1 PUSH0 PUSH2 0x100 EXP DUP2 SLOAD DUP2 PUSH20 0xFFFFFFFFFFFFFFFFFFFFFFFFFFFFFFFFFFFFFFFF MUL NOT AND SWAP1 DUP4 PUSH20 0xFFFFFFFFFFFFFFFFFFFFFFFFFFFFFFFFFFFFFFFF AND MUL OR SWAP1 SSTORE POP DUP2 PUSH1 0x4 DUP2 SWAP1 SSTORE POP DUP1 PUSH1 0x3 DUP2 SWAP1 SSTORE POP TIMESTAMP PUSH1 0x2 DUP2 SWAP1 SSTORE POP POP POP POP POP PUSH2 0x580 JUMP JUMPDEST PUSH0 DUP1 REVERT JUMPDEST PUSH0 PUSH20 0xFFFFFFFFFFFFFFFFFFFFFFFFFFFFFFFFFFFFFFFF DUP3 AND SWAP1 POP SWAP2 SWAP1 POP JUMP JUMPDEST PUSH0 PUSH2 0x25B DUP3 PUSH2 0x232 JUMP JUMPDEST SWAP1 POP SWAP2 SWAP1 POP JUMP JUMPDEST PUSH0 PUSH2 0x26C DUP3 PUSH2 0x251 JUMP JUMPDEST SWAP1 POP SWAP2 SWAP1 POP JUMP JUMPDEST PUSH2 0x27C DUP2 PUSH2 0x262 JUMP JUMPDEST DUP2 EQ PUSH2 0x286 JUMPI PUSH0 DUP1 REVERT JUMPDEST POP JUMP JUMPDEST PUSH0 DUP2 MLOAD SWAP1 POP PUSH2 0x297 DUP2 PUSH2 0x273 JUMP JUMPDEST SWAP3 SWAP2 POP POP JUMP JUMPDEST PUSH2 0x2A6 DUP2 PUSH2 0x251 JUMP JUMPDEST DUP2 EQ PUSH2 0x2B0 JUMPI PUSH0 DUP1 REVERT JUMPDEST POP JUMP JUMPDEST PUSH0 DUP2 MLOAD SWAP1 POP PUSH2 0x2C1 DUP2 PUSH2 0x29D JUMP JUMPDEST SWAP3 SWAP2 POP POP JUMP JUMPDEST PUSH0 DUP2 SWAP1 POP SWAP2 SWAP1 POP JUMP JUMPDEST PUSH2 0x2D9 DUP2 PUSH2 0x2C7 JUMP JUMPDEST DUP2 EQ PUSH2 0x2E3 JUMPI PUSH0 DUP1 REVERT JUMPDEST POP JUMP JUMPDEST PUSH0 DUP2 MLOAD SWAP1 POP PUSH2 0x2F4 DUP2 PUSH2 0x2D0 JUMP JUMPDEST SWAP3 SWAP2 POP POP JUMP JUMPDEST PUSH0 DUP1 PUSH0 DUP1 PUSH1 0x80 DUP6 DUP8 SUB SLT ISZERO PUSH2 0x312 JUMPI PUSH2 0x311 PUSH2 0x22E JUMP JUMPDEST JUMPDEST PUSH0 PUSH2 0x31F DUP8 DUP3 DUP9 ADD PUSH2 0x289 JUMP JUMPDEST SWAP5 POP POP PUSH1 0x20 PUSH2 0x330 DUP8 DUP3 DUP9 ADD PUSH2 0x2B3 JUMP JUMPDEST SWAP4 POP POP PUSH1 0x40 PUSH2 0x341 DUP8 DUP3 DUP9 ADD PUSH2 0x2E6 JUMP JUMPDEST SWAP3 POP POP PUSH1 0x60 PUSH2 0x352 DUP8 DUP3 DUP9 ADD PUSH2 0x2E6 JUMP JUMPDEST SWAP2 POP POP SWAP3 SWAP6 SWAP2 SWAP5 POP SWAP3 POP JUMP JUMPDEST PUSH0 DUP3 DUP3 MSTORE PUSH1 0x20 DUP3 ADD SWAP1 POP SWAP3 SWAP2 POP POP JUMP JUMPDEST PUSH32 0x546F6B656E20616464726573732063616E6E6F74206265207A65726F00000000 PUSH0 DUP3 ADD MSTORE POP JUMP JUMPDEST PUSH0 PUSH2 0x3A2 PUSH1 0x1C DUP4 PUSH2 0x35E JUMP JUMPDEST SWAP2 POP PUSH2 0x3AD DUP3 PUSH2 0x36E JUMP JUMPDEST PUSH1 0x20 DUP3 ADD SWAP1 POP SWAP2 SWAP1 POP JUMP JUMPDEST PUSH0 PUSH1 0x20 DUP3 ADD SWAP1 POP DUP2 DUP2 SUB PUSH0 DUP4 ADD MSTORE PUSH2 0x3CF DUP2 PUSH2 0x396 JUMP JUMPDEST SWAP1 POP SWAP2 SWAP1 POP JUMP JUMPDEST PUSH32 0x42656E65666963696172792063616E6E6F74206265207A65726F206164647265 PUSH0 DUP3 ADD MSTORE PUSH32 0x7373000000000000000000000000000000000000000000000000000000000000 PUSH1 0x20 DUP3 ADD MSTORE POP JUMP JUMPDEST PUSH0 PUSH2 0x430 PUSH1 0x22 DUP4 PUSH2 0x35E JUMP JUMPDEST SWAP2 POP PUSH2 0x43B DUP3 PUSH2 0x3D6 JUMP JUMPDEST PUSH1 0x40 DUP3 ADD SWAP1 POP SWAP2 SWAP1 POP JUMP JUMPDEST PUSH0 PUSH1 0x20 DUP3 ADD SWAP1 POP DUP2 DUP2 SUB PUSH0 DUP4 ADD MSTORE PUSH2 0x45D DUP2 PUSH2 0x424 JUMP JUMPDEST SWAP1 POP SWAP2 SWAP1 POP JUMP JUMPDEST PUSH32 0x56657374696E67206475726174696F6E206D7573742062652067726561746572 PUSH0 DUP3 ADD MSTORE PUSH32 0x207468616E207A65726F00000000000000000000000000000000000000000000 PUSH1 0x20 DUP3 ADD MSTORE POP JUMP JUMPDEST PUSH0 PUSH2 0x4BE PUSH1 0x2A DUP4 PUSH2 0x35E JUMP JUMPDEST SWAP2 POP PUSH2 0x4C9 DUP3 PUSH2 0x464 JUMP JUMPDEST PUSH1 0x40 DUP3 ADD SWAP1 POP SWAP2 SWAP1 POP JUMP JUMPDEST PUSH0 PUSH1 0x20 DUP3 ADD SWAP1 POP DUP2 DUP2 SUB PUSH0 DUP4 ADD MSTORE PUSH2 0x4EB DUP2 PUSH2 0x4B2 JUMP JUMPDEST SWAP1 POP SWAP2 SWAP1 POP JUMP JUMPDEST PUSH32 0x546F74616C20746F6B656E73206D757374206265206772656174657220746861 PUSH0 DUP3 ADD MSTORE PUSH32 0x6E207A65726F0000000000000000000000000000000000000000000000000000 PUSH1 0x20 DUP3 ADD MSTORE POP JUMP JUMPDEST PUSH0 PUSH2 0x54C PUSH1 0x26 DUP4 PUSH2 0x35E JUMP JUMPDEST SWAP2 POP PUSH2 0x557 DUP3 PUSH2 0x4F2 JUMP JUMPDEST PUSH1 0x40 DUP3 ADD SWAP1 POP SWAP2 SWAP1 POP JUMP JUMPDEST PUSH0 PUSH1 0x20 DUP3 ADD SWAP1 POP DUP2 DUP2 SUB PUSH0 DUP4 ADD MSTORE PUSH2 0x579 DUP2 PUSH2 0x540 JUMP JUMPDEST SWAP1 POP SWAP2 SWAP1 POP JUMP JUMPDEST PUSH2 0xBB9 DUP1 PUSH2 0x58D PUSH0 CODECOPY PUSH0 RETURN INVALID PUSH1 0x80 PUSH1 0x40 MSTORE CALLVALUE DUP1 ISZERO PUSH2 0xF JUMPI PUSH0 DUP1 REVERT JUMPDEST POP PUSH1 0x4 CALLDATASIZE LT PUSH2 0x9C JUMPI PUSH0 CALLDATALOAD PUSH1 0xE0 SHR DUP1 PUSH4 0x78E97925 GT PUSH2 0x64 JUMPI DUP1 PUSH4 0x78E97925 EQ PUSH2 0x122 JUMPI DUP1 PUSH4 0x7E1C0C09 EQ PUSH2 0x140 JUMPI DUP1 PUSH4 0xBD097E21 EQ PUSH2 0x15E JUMPI DUP1 PUSH4 0xBEF39963 EQ PUSH2 0x168 JUMPI DUP1 PUSH4 0xFC0C546A EQ PUSH2 0x186 JUMPI PUSH2 0x9C JUMP JUMPDEST DUP1 PUSH4 0x1514617E EQ PUSH2 0xA0 JUMPI DUP1 PUSH4 0x38AF3EED EQ PUSH2 0xBE JUMPI DUP1 PUSH4 0x48C54B9D EQ PUSH2 0xDC JUMPI DUP1 PUSH4 0x5330A6A2 EQ PUSH2 0xE6 JUMPI DUP1 PUSH4 0x6F9FB98A EQ PUSH2 0x104 JUMPI JUMPDEST PUSH0 DUP1 REVERT JUMPDEST PUSH2 0xA8 PUSH2 0x1A4 JUMP JUMPDEST PUSH1 0x40 MLOAD PUSH2 0xB5 SWAP2 SWAP1 PUSH2 0x65C JUMP JUMPDEST PUSH1 0x40 MLOAD DUP1 SWAP2 SUB SWAP1 RETURN JUMPDEST PUSH2 0xC6 PUSH2 0x1AA JUMP JUMPDEST PUSH1 0x40 MLOAD PUSH2 0xD3 SWAP2 SWAP1 PUSH2 0x6B4 JUMP JUMPDEST PUSH1 0x40 MLOAD DUP1 SWAP2 SUB SWAP1 RETURN JUMPDEST PUSH2 0xE4 PUSH2 0x1CF JUMP JUMPDEST STOP JUMPDEST PUSH2 0xEE PUSH2 0x440 JUMP JUMPDEST PUSH1 0x40 MLOAD PUSH2 0xFB SWAP2 SWAP1 PUSH2 0x65C JUMP JUMPDEST PUSH1 0x40 MLOAD DUP1 SWAP2 SUB SWAP1 RETURN JUMPDEST PUSH2 0x10C PUSH2 0x496 JUMP JUMPDEST PUSH1 0x40 MLOAD PUSH2 0x119 SWAP2 SWAP1 PUSH2 0x65C JUMP JUMPDEST PUSH1 0x40 MLOAD DUP1 SWAP2 SUB SWAP1 RETURN JUMPDEST PUSH2 0x12A PUSH2 0x534 JUMP JUMPDEST PUSH1 0x40 MLOAD PUSH2 0x137 SWAP2 SWAP1 PUSH2 0x65C JUMP JUMPDEST PUSH1 0x40 MLOAD DUP1 SWAP2 SUB SWAP1 RETURN JUMPDEST PUSH2 0x148 PUSH2 0x53A JUMP JUMPDEST PUSH1 0x40 MLOAD PUSH2 0x155 SWAP2 SWAP1 PUSH2 0x65C JUMP JUMPDEST PUSH1 0x40 MLOAD DUP1 SWAP2 SUB SWAP1 RETURN JUMPDEST PUSH2 0x166 PUSH2 0x540 JUMP JUMPDEST STOP JUMPDEST PUSH2 0x170 PUSH2 0x61B JUMP JUMPDEST PUSH1 0x40 MLOAD PUSH2 0x17D SWAP2 SWAP1 PUSH2 0x65C JUMP JUMPDEST PUSH1 0x40 MLOAD DUP1 SWAP2 SUB SWAP1 RETURN JUMPDEST PUSH2 0x18E PUSH2 0x621 JUMP JUMPDEST PUSH1 0x40 MLOAD PUSH2 0x19B SWAP2 SWAP1 PUSH2 0x728 JUMP JUMPDEST PUSH1 0x40 MLOAD DUP1 SWAP2 SUB SWAP1 RETURN JUMPDEST PUSH1 0x3 SLOAD DUP2 JUMP JUMPDEST PUSH1 0x1 PUSH0 SWAP1 SLOAD SWAP1 PUSH2 0x100 EXP SWAP1 DIV PUSH20 0xFFFFFFFFFFFFFFFFFFFFFFFFFFFFFFFFFFFFFFFF AND DUP2 JUMP JUMPDEST PUSH1 0x1 PUSH0 SWAP1 SLOAD SWAP1 PUSH2 0x100 EXP SWAP1 DIV PUSH20 0xFFFFFFFFFFFFFFFFFFFFFFFFFFFFFFFFFFFFFFFF AND PUSH20 0xFFFFFFFFFFFFFFFFFFFFFFFFFFFFFFFFFFFFFFFF AND CALLER PUSH20 0xFFFFFFFFFFFFFFFFFFFFFFFFFFFFFFFFFFFFFFFF AND EQ PUSH2 0x25E JUMPI PUSH1 0x40 MLOAD PUSH32 0x8C379A000000000000000000000000000000000000000000000000000000000 DUP2 MSTORE PUSH1 0x4 ADD PUSH2 0x255 SWAP1 PUSH2 0x7C1 JUMP JUMPDEST PUSH1 0x40 MLOAD DUP1 SWAP2 SUB SWAP1 REVERT JUMPDEST PUSH0 PUSH2 0x267 PUSH2 0x440 JUMP JUMPDEST SWAP1 POP PUSH0 PUSH1 0x5 SLOAD DUP3 PUSH2 0x278 SWAP2 SWAP1 PUSH2 0x80C JUMP JUMPDEST SWAP1 POP PUSH0 DUP2 GT PUSH2 0x2BC JUMPI PUSH1 0x40 MLOAD PUSH32 0x8C379A000000000000000000000000000000000000000000000000000000000 DUP2 MSTORE PUSH1 0x4 ADD PUSH2 0x2B3 SWAP1 PUSH2 0x889 JUMP JUMPDEST PUSH1 0x40 MLOAD DUP1 SWAP2 SUB SWAP1 REVERT JUMPDEST DUP1 PUSH1 0x5 PUSH0 DUP3 DUP3 SLOAD PUSH2 0x2CD SWAP2 SWAP1 PUSH2 0x8A7 JUMP JUMPDEST SWAP3 POP POP DUP2 SWAP1 SSTORE POP PUSH0 DUP1 SLOAD SWAP1 PUSH2 0x100 EXP SWAP1 DIV PUSH20 0xFFFFFFFFFFFFFFFFFFFFFFFFFFFFFFFFFFFFFFFF AND PUSH20 0xFFFFFFFFFFFFFFFFFFFFFFFFFFFFFFFFFFFFFFFF AND PUSH4 0xA9059CBB PUSH1 0x1 PUSH0 SWAP1 SLOAD SWAP1 PUSH2 0x100 EXP SWAP1 DIV PUSH20 0xFFFFFFFFFFFFFFFFFFFFFFFFFFFFFFFFFFFFFFFF AND DUP4 PUSH1 0x40 MLOAD DUP4 PUSH4 0xFFFFFFFF AND PUSH1 0xE0 SHL DUP2 MSTORE PUSH1 0x4 ADD PUSH2 0x34F SWAP3 SWAP2 SWAP1 PUSH2 0x8DA JUMP JUMPDEST PUSH1 0x20 PUSH1 0x40 MLOAD DUP1 DUP4 SUB DUP2 PUSH0 DUP8 GAS CALL SWAP3 POP POP POP DUP1 ISZERO PUSH2 0x38A JUMPI POP PUSH1 0x40 MLOAD RETURNDATASIZE PUSH1 0x1F NOT PUSH1 0x1F DUP3 ADD AND DUP3 ADD DUP1 PUSH1 0x40 MSTORE POP DUP2 ADD SWAP1 PUSH2 0x387 SWAP2 SWAP1 PUSH2 0x93A JUMP JUMPDEST PUSH1 0x1 JUMPDEST PUSH2 0x3E1 JUMPI DUP1 PUSH1 0x5 PUSH0 DUP3 DUP3 SLOAD PUSH2 0x39F SWAP2 SWAP1 PUSH2 0x80C JUMP JUMPDEST SWAP3 POP POP DUP2 SWAP1 SSTORE POP PUSH1 0x40 MLOAD PUSH32 0x8C379A000000000000000000000000000000000000000000000000000000000 DUP2 MSTORE PUSH1 0x4 ADD PUSH2 0x3D8 SWAP1 PUSH2 0x9AF JUMP JUMPDEST PUSH1 0x40 MLOAD DUP1 SWAP2 SUB SWAP1 REVERT JUMPDEST POP PUSH32 0x896E034966EAAF1ADC54ACC0F257056FEBBD300C9E47182CF761982CF1F5E430 PUSH1 0x1 PUSH0 SWAP1 SLOAD SWAP1 PUSH2 0x100 EXP SWAP1 DIV PUSH20 0xFFFFFFFFFFFFFFFFFFFFFFFFFFFFFFFFFFFFFFFF AND DUP3 PUSH1 0x40 MLOAD PUSH2 0x434 SWAP3 SWAP2 SWAP1 PUSH2 0x8DA JUMP JUMPDEST PUSH1 0x40 MLOAD DUP1 SWAP2 SUB SWAP1 LOG1 POP POP JUMP JUMPDEST PUSH0 PUSH1 0x2 SLOAD TIMESTAMP LT ISZERO PUSH2 0x453 JUMPI PUSH0 SWAP1 POP PUSH2 0x493 JUMP JUMPDEST PUSH0 PUSH1 0x2 SLOAD TIMESTAMP PUSH2 0x462 SWAP2 SWAP1 PUSH2 0x80C JUMP JUMPDEST SWAP1 POP PUSH1 0x3 SLOAD DUP2 GT ISZERO PUSH2 0x474 JUMPI PUSH1 0x3 SLOAD SWAP1 POP JUMPDEST PUSH1 0x3 SLOAD DUP2 PUSH1 0x4 SLOAD PUSH2 0x485 SWAP2 SWAP1 PUSH2 0x9CD JUMP JUMPDEST PUSH2 0x48F SWAP2 SWAP1 PUSH2 0xA3B JUMP JUMPDEST SWAP2 POP POP JUMPDEST SWAP1 JUMP JUMPDEST PUSH0 DUP1 PUSH0 SWAP1 SLOAD SWAP1 PUSH2 0x100 EXP SWAP1 DIV PUSH20 0xFFFFFFFFFFFFFFFFFFFFFFFFFFFFFFFFFFFFFFFF AND PUSH20 0xFFFFFFFFFFFFFFFFFFFFFFFFFFFFFFFFFFFFFFFF AND PUSH4 0x70A08231 ADDRESS PUSH1 0x40 MLOAD DUP3 PUSH4 0xFFFFFFFF AND PUSH1 0xE0 SHL DUP2 MSTORE PUSH1 0x4 ADD PUSH2 0x4F0 SWAP2 SWAP1 PUSH2 0x6B4 JUMP JUMPDEST PUSH1 0x20 PUSH1 0x40 MLOAD DUP1 DUP4 SUB DUP2 DUP7 GAS STATICCALL ISZERO DUP1 ISZERO PUSH2 0x50B JUMPI RETURNDATASIZE PUSH0 DUP1 RETURNDATACOPY RETURNDATASIZE PUSH0 REVERT JUMPDEST POP POP POP POP PUSH1 0x40 MLOAD RETURNDATASIZE PUSH1 0x1F NOT PUSH1 0x1F DUP3 ADD AND DUP3 ADD DUP1 PUSH1 0x40 MSTORE POP DUP2 ADD SWAP1 PUSH2 0x52F SWAP2 SWAP1 PUSH2 0xA95 JUMP JUMPDEST SWAP1 POP SWAP1 JUMP JUMPDEST PUSH1 0x2 SLOAD DUP2 JUMP JUMPDEST PUSH1 0x4 SLOAD DUP2 JUMP JUMPDEST PUSH0 DUP1 SLOAD SWAP1 PUSH2 0x100 EXP SWAP1 DIV PUSH20 0xFFFFFFFFFFFFFFFFFFFFFFFFFFFFFFFFFFFFFFFF AND PUSH20 0xFFFFFFFFFFFFFFFFFFFFFFFFFFFFFFFFFFFFFFFF AND PUSH4 0x23B872DD CALLER ADDRESS PUSH1 0x4 SLOAD PUSH1 0x40 MLOAD DUP5 PUSH4 0xFFFFFFFF AND PUSH1 0xE0 SHL DUP2 MSTORE PUSH1 0x4 ADD PUSH2 0x59E SWAP4 SWAP3 SWAP2 SWAP1 PUSH2 0xAC0 JUMP JUMPDEST PUSH1 0x20 PUSH1 0x40 MLOAD DUP1 DUP4 SUB DUP2 PUSH0 DUP8 GAS CALL SWAP3 POP POP POP DUP1 ISZERO PUSH2 0x5D9 JUMPI POP PUSH1 0x40 MLOAD RETURNDATASIZE PUSH1 0x1F NOT PUSH1 0x1F DUP3 ADD AND DUP3 ADD DUP1 PUSH1 0x40 MSTORE POP DUP2 ADD SWAP1 PUSH2 0x5D6 SWAP2 SWAP1 PUSH2 0x93A JUMP JUMPDEST PUSH1 0x1 JUMPDEST PUSH2 0x618 JUMPI PUSH1 0x40 MLOAD PUSH32 0x8C379A000000000000000000000000000000000000000000000000000000000 DUP2 MSTORE PUSH1 0x4 ADD PUSH2 0x60F SWAP1 PUSH2 0xB65 JUMP JUMPDEST PUSH1 0x40 MLOAD DUP1 SWAP2 SUB SWAP1 REVERT JUMPDEST POP JUMP JUMPDEST PUSH1 0x5 SLOAD DUP2 JUMP JUMPDEST PUSH0 DUP1 SLOAD SWAP1 PUSH2 0x100 EXP SWAP1 DIV PUSH20 0xFFFFFFFFFFFFFFFFFFFFFFFFFFFFFFFFFFFFFFFF AND DUP2 JUMP JUMPDEST PUSH0 DUP2 SWAP1 POP SWAP2 SWAP1 POP JUMP JUMPDEST PUSH2 0x656 DUP2 PUSH2 0x644 JUMP JUMPDEST DUP3 MSTORE POP POP JUMP JUMPDEST PUSH0 PUSH1 0x20 DUP3 ADD SWAP1 POP PUSH2 0x66F PUSH0 DUP4 ADD DUP5 PUSH2 0x64D JUMP JUMPDEST SWAP3 SWAP2 POP POP JUMP JUMPDEST PUSH0 PUSH20 0xFFFFFFFFFFFFFFFFFFFFFFFFFFFFFFFFFFFFFFFF DUP3 AND SWAP1 POP SWAP2 SWAP1 POP JUMP JUMPDEST PUSH0 PUSH2 0x69E DUP3 PUSH2 0x675 JUMP JUMPDEST SWAP1 POP SWAP2 SWAP1 POP JUMP JUMPDEST PUSH2 0x6AE DUP2 PUSH2 0x694 JUMP JUMPDEST DUP3 MSTORE POP POP JUMP JUMPDEST PUSH0 PUSH1 0x20 DUP3 ADD SWAP1 POP PUSH2 0x6C7 PUSH0 DUP4 ADD DUP5 PUSH2 0x6A5 JUMP JUMPDEST SWAP3 SWAP2 POP POP JUMP JUMPDEST PUSH0 DUP2 SWAP1 POP SWAP2 SWAP1 POP JUMP JUMPDEST PUSH0 PUSH2 0x6F0 PUSH2 0x6EB PUSH2 0x6E6 DUP5 PUSH2 0x675 JUMP JUMPDEST PUSH2 0x6CD JUMP JUMPDEST PUSH2 0x675 JUMP JUMPDEST SWAP1 POP SWAP2 SWAP1 POP JUMP JUMPDEST PUSH0 PUSH2 0x701 DUP3 PUSH2 0x6D6 JUMP JUMPDEST SWAP1 POP SWAP2 SWAP1 POP JUMP JUMPDEST PUSH0 PUSH2 0x712 DUP3 PUSH2 0x6F7 JUMP JUMPDEST SWAP1 POP SWAP2 SWAP1 POP JUMP JUMPDEST PUSH2 0x722 DUP2 PUSH2 0x708 JUMP JUMPDEST DUP3 MSTORE POP POP JUMP JUMPDEST PUSH0 PUSH1 0x20 DUP3 ADD SWAP1 POP PUSH2 0x73B PUSH0 DUP4 ADD DUP5 PUSH2 0x719 JUMP JUMPDEST SWAP3 SWAP2 POP POP JUMP JUMPDEST PUSH0 DUP3 DUP3 MSTORE PUSH1 0x20 DUP3 ADD SWAP1 POP SWAP3 SWAP2 POP POP JUMP JUMPDEST PUSH32 0x4F6E6C79207468652062656E65666963696172792063616E20636C61696D2074 PUSH0 DUP3 ADD MSTORE PUSH32 0x6F6B656E73000000000000000000000000000000000000000000000000000000 PUSH1 0x20 DUP3 ADD MSTORE POP JUMP JUMPDEST PUSH0 PUSH2 0x7AB PUSH1 0x25 DUP4 PUSH2 0x741 JUMP JUMPDEST SWAP2 POP PUSH2 0x7B6 DUP3 PUSH2 0x751 JUMP JUMPDEST PUSH1 0x40 DUP3 ADD SWAP1 POP SWAP2 SWAP1 POP JUMP JUMPDEST PUSH0 PUSH1 0x20 DUP3 ADD SWAP1 POP DUP2 DUP2 SUB PUSH0 DUP4 ADD MSTORE PUSH2 0x7D8 DUP2 PUSH2 0x79F JUMP JUMPDEST SWAP1 POP SWAP2 SWAP1 POP JUMP JUMPDEST PUSH32 0x4E487B7100000000000000000000000000000000000000000000000000000000 PUSH0 MSTORE PUSH1 0x11 PUSH1 0x4 MSTORE PUSH1 0x24 PUSH0 REVERT JUMPDEST PUSH0 PUSH2 0x816 DUP3 PUSH2 0x644 JUMP JUMPDEST SWAP2 POP PUSH2 0x821 DUP4 PUSH2 0x644 JUMP JUMPDEST SWAP3 POP DUP3 DUP3 SUB SWAP1 POP DUP2 DUP2 GT ISZERO PUSH2 0x839 JUMPI PUSH2 0x838 PUSH2 0x7DF JUMP JUMPDEST JUMPDEST SWAP3 SWAP2 POP POP JUMP JUMPDEST PUSH32 0x4E6F20746F6B656E7320617661696C61626C6520746F20636C61696D00000000 PUSH0 DUP3 ADD MSTORE POP JUMP JUMPDEST PUSH0 PUSH2 0x873 PUSH1 0x1C DUP4 PUSH2 0x741 JUMP JUMPDEST SWAP2 POP PUSH2 0x87E DUP3 PUSH2 0x83F JUMP JUMPDEST PUSH1 0x20 DUP3 ADD SWAP1 POP SWAP2 SWAP1 POP JUMP JUMPDEST PUSH0 PUSH1 0x20 DUP3 ADD SWAP1 POP DUP2 DUP2 SUB PUSH0 DUP4 ADD MSTORE PUSH2 0x8A0 DUP2 PUSH2 0x867 JUMP JUMPDEST SWAP1 POP SWAP2 SWAP1 POP JUMP JUMPDEST PUSH0 PUSH2 0x8B1 DUP3 PUSH2 0x644 JUMP JUMPDEST SWAP2 POP PUSH2 0x8BC DUP4 PUSH2 0x644 JUMP JUMPDEST SWAP3 POP DUP3 DUP3 ADD SWAP1 POP DUP1 DUP3 GT ISZERO PUSH2 0x8D4 JUMPI PUSH2 0x8D3 PUSH2 0x7DF JUMP JUMPDEST JUMPDEST SWAP3 SWAP2 POP POP JUMP JUMPDEST PUSH0 PUSH1 0x40 DUP3 ADD SWAP1 POP PUSH2 0x8ED PUSH0 DUP4 ADD DUP6 PUSH2 0x6A5 JUMP JUMPDEST PUSH2 0x8FA PUSH1 0x20 DUP4 ADD DUP5 PUSH2 0x64D JUMP JUMPDEST SWAP4 SWAP3 POP POP POP JUMP JUMPDEST PUSH0 DUP1 REVERT JUMPDEST PUSH0 DUP2 ISZERO ISZERO SWAP1 POP SWAP2 SWAP1 POP JUMP JUMPDEST PUSH2 0x919 DUP2 PUSH2 0x905 JUMP JUMPDEST DUP2 EQ PUSH2 0x923 JUMPI PUSH0 DUP1 REVERT JUMPDEST POP JUMP JUMPDEST PUSH0 DUP2 MLOAD SWAP1 POP PUSH2 0x934 DUP2 PUSH2 0x910 JUMP JUMPDEST SWAP3 SWAP2 POP POP JUMP JUMPDEST PUSH0 PUSH1 0x20 DUP3 DUP5 SUB SLT ISZERO PUSH2 0x94F JUMPI PUSH2 0x94E PUSH2 0x901 JUMP JUMPDEST JUMPDEST PUSH0 PUSH2 0x95C DUP5 DUP3 DUP6 ADD PUSH2 0x926 JUMP JUMPDEST SWAP2 POP POP SWAP3 SWAP2 POP POP JUMP JUMPDEST PUSH32 0x546F6B656E207472616E73666572206661696C65640000000000000000000000 PUSH0 DUP3 ADD MSTORE POP JUMP JUMPDEST PUSH0 PUSH2 0x999 PUSH1 0x15 DUP4 PUSH2 0x741 JUMP JUMPDEST SWAP2 POP PUSH2 0x9A4 DUP3 PUSH2 0x965 JUMP JUMPDEST PUSH1 0x20 DUP3 ADD SWAP1 POP SWAP2 SWAP1 POP JUMP JUMPDEST PUSH0 PUSH1 0x20 DUP3 ADD SWAP1 POP DUP2 DUP2 SUB PUSH0 DUP4 ADD MSTORE PUSH2 0x9C6 DUP2 PUSH2 0x98D JUMP JUMPDEST SWAP1 POP SWAP2 SWAP1 POP JUMP JUMPDEST PUSH0 PUSH2 0x9D7 DUP3 PUSH2 0x644 JUMP JUMPDEST SWAP2 POP PUSH2 0x9E2 DUP4 PUSH2 0x644 JUMP JUMPDEST SWAP3 POP DUP3 DUP3 MUL PUSH2 0x9F0 DUP2 PUSH2 0x644 JUMP JUMPDEST SWAP2 POP DUP3 DUP3 DIV DUP5 EQ DUP4 ISZERO OR PUSH2 0xA07 JUMPI PUSH2 0xA06 PUSH2 0x7DF JUMP JUMPDEST JUMPDEST POP SWAP3 SWAP2 POP POP JUMP JUMPDEST PUSH32 0x4E487B7100000000000000000000000000000000000000000000000000000000 PUSH0 MSTORE PUSH1 0x12 PUSH1 0x4 MSTORE PUSH1 0x24 PUSH0 REVERT JUMPDEST PUSH0 PUSH2 0xA45 DUP3 PUSH2 0x644 JUMP JUMPDEST SWAP2 POP PUSH2 0xA50 DUP4 PUSH2 0x644 JUMP JUMPDEST SWAP3 POP DUP3 PUSH2 0xA60 JUMPI PUSH2 0xA5F PUSH2 0xA0E JUMP JUMPDEST JUMPDEST DUP3 DUP3 DIV SWAP1 POP SWAP3 SWAP2 POP POP JUMP JUMPDEST PUSH2 0xA74 DUP2 PUSH2 0x644 JUMP JUMPDEST DUP2 EQ PUSH2 0xA7E JUMPI PUSH0 DUP1 REVERT JUMPDEST POP JUMP JUMPDEST PUSH0 DUP2 MLOAD SWAP1 POP PUSH2 0xA8F DUP2 PUSH2 0xA6B JUMP JUMPDEST SWAP3 SWAP2 POP POP JUMP JUMPDEST PUSH0 PUSH1 0x20 DUP3 DUP5 SUB SLT ISZERO PUSH2 0xAAA JUMPI PUSH2 0xAA9 PUSH2 0x901 JUMP JUMPDEST JUMPDEST PUSH0 PUSH2 0xAB7 DUP5 DUP3 DUP6 ADD PUSH2 0xA81 JUMP JUMPDEST SWAP2 POP POP SWAP3 SWAP2 POP POP JUMP JUMPDEST PUSH0 PUSH1 0x60 DUP3 ADD SWAP1 POP PUSH2 0xAD3 PUSH0 DUP4 ADD DUP7 PUSH2 0x6A5 JUMP JUMPDEST PUSH2 0xAE0 PUSH1 0x20 DUP4 ADD DUP6 PUSH2 0x6A5 JUMP JUMPDEST PUSH2 0xAED PUSH1 0x40 DUP4 ADD DUP5 PUSH2 0x64D JUMP JUMPDEST SWAP5 SWAP4 POP POP POP POP JUMP JUMPDEST PUSH32 0x4661696C656420746F2066756E642074686520636F6E74726163742077697468 PUSH0 DUP3 ADD MSTORE PUSH32 0x20746F6B656E7300000000000000000000000000000000000000000000000000 PUSH1 0x20 DUP3 ADD MSTORE POP JUMP JUMPDEST PUSH0 PUSH2 0xB4F PUSH1 0x27 DUP4 PUSH2 0x741 JUMP JUMPDEST SWAP2 POP PUSH2 0xB5A DUP3 PUSH2 0xAF5 JUMP JUMPDEST PUSH1 0x40 DUP3 ADD SWAP1 POP SWAP2 SWAP1 POP JUMP JUMPDEST PUSH0 PUSH1 0x20 DUP3 ADD SWAP1 POP DUP2 DUP2 SUB PUSH0 DUP4 ADD MSTORE PUSH2 0xB7C DUP2 PUSH2 0xB43 JUMP JUMPDEST SWAP1 POP SWAP2 SWAP1 POP JUMP INVALID LOG2 PUSH5 0x6970667358 0x22 SLT KECCAK256 PC PUSH3 0x995A9B EXTCODECOPY RETURNDATASIZE 0xD8 CALLCODE PUSH4 0xDAD42F7D PUSH3 0xE3B44E CALLVALUE DUP2 PUSH8 0x35C828315DCE694A PUSH25 0x1E7164736F6C634300081A0033000000000000000000000000 "
				},
				"gasEstimates": {
					"creation": {
						"codeDepositCost": "600200",
						"executionCost": "infinite",
						"totalCost": "infinite"
					},
					"external": {
						"beneficiary()": "2531",
						"claimTokens()": "infinite",
						"fundContract()": "infinite",
						"getContractBalance()": "infinite",
						"getVestedTokens()": "infinite",
						"releasedTokens()": "2491",
						"startTime()": "2425",
						"token()": "infinite",
						"totalTokens()": "2447",
						"vestingDuration()": "2426"
					}
				},
				"methodIdentifiers": {
					"beneficiary()": "38af3eed",
					"claimTokens()": "48c54b9d",
					"fundContract()": "bd097e21",
					"getContractBalance()": "6f9fb98a",
					"getVestedTokens()": "5330a6a2",
					"releasedTokens()": "bef39963",
					"startTime()": "78e97925",
					"token()": "fc0c546a",
					"totalTokens()": "7e1c0c09",
					"vestingDuration()": "1514617e"
				}
			},
			"storageLayout": {
				"storage": [
					{
						"astId": 312,
						"contract": "assignment contracts/W1 SafeTokenVesting.sol:SafeTokenVesting",
						"label": "token",
						"offset": 0,
						"slot": "0",
						"type": "t_contract(IERC20)77"
					},
					{
						"astId": 314,
						"contract": "assignment contracts/W1 SafeTokenVesting.sol:SafeTokenVesting",
						"label": "beneficiary",
						"offset": 0,
						"slot": "1",
						"type": "t_address"
					},
					{
						"astId": 316,
						"contract": "assignment contracts/W1 SafeTokenVesting.sol:SafeTokenVesting",
						"label": "startTime",
						"offset": 0,
						"slot": "2",
						"type": "t_uint256"
					},
					{
						"astId": 318,
						"contract": "assignment contracts/W1 SafeTokenVesting.sol:SafeTokenVesting",
						"label": "vestingDuration",
						"offset": 0,
						"slot": "3",
						"type": "t_uint256"
					},
					{
						"astId": 320,
						"contract": "assignment contracts/W1 SafeTokenVesting.sol:SafeTokenVesting",
						"label": "totalTokens",
						"offset": 0,
						"slot": "4",
						"type": "t_uint256"
					},
					{
						"astId": 322,
						"contract": "assignment contracts/W1 SafeTokenVesting.sol:SafeTokenVesting",
						"label": "releasedTokens",
						"offset": 0,
						"slot": "5",
						"type": "t_uint256"
					}
				],
				"types": {
					"t_address": {
						"encoding": "inplace",
						"label": "address",
						"numberOfBytes": "20"
					},
					"t_contract(IERC20)77": {
						"encoding": "inplace",
						"label": "contract IERC20",
						"numberOfBytes": "20"
					},
					"t_uint256": {
						"encoding": "inplace",
						"label": "uint256",
						"numberOfBytes": "32"
					}
				}
			},
			"userdoc": {
				"kind": "user",
				"methods": {},
				"notice": "Token vesting contract",
				"version": 1
			}
		}
	}
}