{
	"contracts/Marketplace.sol": {
		"Marketplace": {
			"abi": [
				{
					"inputs": [],
					"stateMutability": "nonpayable",
					"type": "constructor"
				},
				{
					"inputs": [
						{
							"internalType": "uint256",
							"name": "_itemId",
							"type": "uint256"
						}
					],
					"name": "getItemDetails",
					"outputs": [
						{
							"components": [
								{
									"internalType": "uint256",
									"name": "id",
									"type": "uint256"
								},
								{
									"internalType": "address",
									"name": "seller",
									"type": "address"
								},
								{
									"internalType": "uint256",
									"name": "price",
									"type": "uint256"
								},
								{
									"internalType": "bool",
									"name": "isSold",
									"type": "bool"
								},
								{
									"internalType": "address",
									"name": "buyer",
									"type": "address"
								}
							],
							"internalType": "struct Marketplace.Item",
							"name": "",
							"type": "tuple"
						}
					],
					"stateMutability": "view",
					"type": "function"
				},
				{
					"inputs": [
						{
							"internalType": "uint256",
							"name": "",
							"type": "uint256"
						}
					],
					"name": "items",
					"outputs": [
						{
							"internalType": "uint256",
							"name": "id",
							"type": "uint256"
						},
						{
							"internalType": "address",
							"name": "seller",
							"type": "address"
						},
						{
							"internalType": "uint256",
							"name": "price",
							"type": "uint256"
						},
						{
							"internalType": "bool",
							"name": "isSold",
							"type": "bool"
						},
						{
							"internalType": "address",
							"name": "buyer",
							"type": "address"
						}
					],
					"stateMutability": "view",
					"type": "function"
				},
				{
					"inputs": [
						{
							"internalType": "uint256",
							"name": "_price",
							"type": "uint256"
						}
					],
					"name": "listItem",
					"outputs": [],
					"stateMutability": "nonpayable",
					"type": "function"
				},
				{
					"inputs": [
						{
							"internalType": "uint256",
							"name": "_itemId",
							"type": "uint256"
						}
					],
					"name": "purchaseItem",
					"outputs": [],
					"stateMutability": "nonpayable",
					"type": "function"
				},
				{
					"inputs": [
						{
							"internalType": "uint256",
							"name": "_itemId",
							"type": "uint256"
						}
					],
					"name": "refund",
					"outputs": [],
					"stateMutability": "nonpayable",
					"type": "function"
				},
				{
					"inputs": [],
					"name": "token",
					"outputs": [
						{
							"internalType": "contract IERC20",
							"name": "",
							"type": "address"
						}
					],
					"stateMutability": "view",
					"type": "function"
				}
			],
			"devdoc": {
				"kind": "dev",
				"methods": {},
				"version": 1
			},
			"evm": {
				"assembly": "    /* \"contracts/Marketplace.sol\":311:892  contract Marketplace {... */\n  mstore(0x40, 0x80)\n    /* \"contracts/Marketplace.sol\":591:615  constructor() {... */\n  callvalue\n  dup1\n  iszero\n  tag_1\n  jumpi\n  0x00\n  dup1\n  revert\ntag_1:\n  pop\n    /* \"contracts/Marketplace.sol\":311:892  contract Marketplace {... */\n  dataSize(sub_0)\n  dup1\n  dataOffset(sub_0)\n  0x00\n  codecopy\n  0x00\n  return\nstop\n\nsub_0: assembly {\n        /* \"contracts/Marketplace.sol\":311:892  contract Marketplace {... */\n      mstore(0x40, 0x80)\n      callvalue\n      dup1\n      iszero\n      tag_1\n      jumpi\n      0x00\n      dup1\n      revert\n    tag_1:\n      pop\n      jumpi(tag_2, lt(calldatasize, 0x04))\n      shr(0xe0, calldataload(0x00))\n      dup1\n      0x278ecde1\n      eq\n      tag_3\n      jumpi\n      dup1\n      0x2ce38190\n      eq\n      tag_4\n      jumpi\n      dup1\n      0x73004ca0\n      eq\n      tag_5\n      jumpi\n      dup1\n      0xbfb231d2\n      eq\n      tag_6\n      jumpi\n      dup1\n      0xd38ea5bf\n      eq\n      tag_7\n      jumpi\n      dup1\n      0xfc0c546a\n      eq\n      tag_8\n      jumpi\n    tag_2:\n      0x00\n      dup1\n      revert\n        /* \"contracts/Marketplace.sol\":746:796  function refund(uint256 _itemId) public {... */\n    tag_3:\n      tag_9\n      0x04\n      dup1\n      calldatasize\n      sub\n      dup2\n      add\n      swap1\n      tag_10\n      swap2\n      swap1\n      tag_11\n      jump\t// in\n    tag_10:\n      tag_12\n      jump\t// in\n    tag_9:\n      stop\n        /* \"contracts/Marketplace.sol\":623:674  function listItem(uint256 _price) public {... */\n    tag_4:\n      tag_13\n      0x04\n      dup1\n      calldatasize\n      sub\n      dup2\n      add\n      swap1\n      tag_14\n      swap2\n      swap1\n      tag_11\n      jump\t// in\n    tag_14:\n      tag_15\n      jump\t// in\n    tag_13:\n      stop\n        /* \"contracts/Marketplace.sol\":804:889  function getItemDetails(uint256 _itemId) public view returns (Item memory) {... */\n    tag_5:\n      tag_16\n      0x04\n      dup1\n      calldatasize\n      sub\n      dup2\n      add\n      swap1\n      tag_17\n      swap2\n      swap1\n      tag_11\n      jump\t// in\n    tag_17:\n      tag_18\n      jump\t// in\n    tag_16:\n      mload(0x40)\n      tag_19\n      swap2\n      swap1\n      tag_20\n      jump\t// in\n    tag_19:\n      mload(0x40)\n      dup1\n      swap2\n      sub\n      swap1\n      return\n        /* \"contracts/Marketplace.sol\":535:554  Item[] public items */\n    tag_6:\n      tag_21\n      0x04\n      dup1\n      calldatasize\n      sub\n      dup2\n      add\n      swap1\n      tag_22\n      swap2\n      swap1\n      tag_11\n      jump\t// in\n    tag_22:\n      tag_23\n      jump\t// in\n    tag_21:\n      mload(0x40)\n      tag_24\n      swap6\n      swap5\n      swap4\n      swap3\n      swap2\n      swap1\n      tag_25\n      jump\t// in\n    tag_24:\n      mload(0x40)\n      dup1\n      swap2\n      sub\n      swap1\n      return\n        /* \"contracts/Marketplace.sol\":682:738  function purchaseItem(uint256 _itemId) public {... */\n    tag_7:\n      tag_26\n      0x04\n      dup1\n      calldatasize\n      sub\n      dup2\n      add\n      swap1\n      tag_27\n      swap2\n      swap1\n      tag_11\n      jump\t// in\n    tag_27:\n      tag_28\n      jump\t// in\n    tag_26:\n      stop\n        /* \"contracts/Marketplace.sol\":365:384  IERC20 public token */\n    tag_8:\n      tag_29\n      tag_30\n      jump\t// in\n    tag_29:\n      mload(0x40)\n      tag_31\n      swap2\n      swap1\n      tag_32\n      jump\t// in\n    tag_31:\n      mload(0x40)\n      dup1\n      swap2\n      sub\n      swap1\n      return\n        /* \"contracts/Marketplace.sol\":746:796  function refund(uint256 _itemId) public {... */\n    tag_12:\n      pop\n      jump\t// out\n        /* \"contracts/Marketplace.sol\":623:674  function listItem(uint256 _price) public {... */\n    tag_15:\n      pop\n      jump\t// out\n        /* \"contracts/Marketplace.sol\":804:889  function getItemDetails(uint256 _itemId) public view returns (Item memory) {... */\n    tag_18:\n        /* \"contracts/Marketplace.sol\":866:877  Item memory */\n      tag_35\n      tag_36\n      jump\t// in\n    tag_35:\n        /* \"contracts/Marketplace.sol\":804:889  function getItemDetails(uint256 _itemId) public view returns (Item memory) {... */\n      swap2\n      swap1\n      pop\n      jump\t// out\n        /* \"contracts/Marketplace.sol\":535:554  Item[] public items */\n    tag_23:\n      0x01\n      dup2\n      dup2\n      sload\n      dup2\n      lt\n      tag_38\n      jumpi\n      0x00\n      dup1\n      revert\n    tag_38:\n      swap1\n      0x00\n      mstore\n      keccak256(0x00, 0x20)\n      swap1\n      0x04\n      mul\n      add\n      0x00\n      swap2\n      pop\n      swap1\n      pop\n      dup1\n      0x00\n      add\n      sload\n      swap1\n      dup1\n      0x01\n      add\n      0x00\n      swap1\n      sload\n      swap1\n      0x0100\n      exp\n      swap1\n      div\n      0xffffffffffffffffffffffffffffffffffffffff\n      and\n      swap1\n      dup1\n      0x02\n      add\n      sload\n      swap1\n      dup1\n      0x03\n      add\n      0x00\n      swap1\n      sload\n      swap1\n      0x0100\n      exp\n      swap1\n      div\n      0xff\n      and\n      swap1\n      dup1\n      0x03\n      add\n      0x01\n      swap1\n      sload\n      swap1\n      0x0100\n      exp\n      swap1\n      div\n      0xffffffffffffffffffffffffffffffffffffffff\n      and\n      swap1\n      pop\n      dup6\n      jump\t// out\n        /* \"contracts/Marketplace.sol\":682:738  function purchaseItem(uint256 _itemId) public {... */\n    tag_28:\n      pop\n      jump\t// out\n        /* \"contracts/Marketplace.sol\":365:384  IERC20 public token */\n    tag_30:\n      0x00\n      dup1\n      sload\n      swap1\n      0x0100\n      exp\n      swap1\n      div\n      0xffffffffffffffffffffffffffffffffffffffff\n      and\n      dup2\n      jump\t// out\n    tag_36:\n      mload(0x40)\n      dup1\n      0xa0\n      add\n      0x40\n      mstore\n      dup1\n      0x00\n      dup2\n      mstore\n      0x20\n      add\n      and(0xffffffffffffffffffffffffffffffffffffffff, 0x00)\n      dup2\n      mstore\n      0x20\n      add\n      0x00\n      dup2\n      mstore\n      0x20\n      add\n      iszero(iszero(0x00))\n      dup2\n      mstore\n      0x20\n      add\n      and(0xffffffffffffffffffffffffffffffffffffffff, 0x00)\n      dup2\n      mstore\n      pop\n      swap1\n      jump\t// out\n        /* \"#utility.yul\":88:205   */\n    tag_42:\n        /* \"#utility.yul\":197:198   */\n      0x00\n        /* \"#utility.yul\":194:195   */\n      dup1\n        /* \"#utility.yul\":187:199   */\n      revert\n        /* \"#utility.yul\":334:411   */\n    tag_44:\n        /* \"#utility.yul\":371:378   */\n      0x00\n        /* \"#utility.yul\":400:405   */\n      dup2\n        /* \"#utility.yul\":389:405   */\n      swap1\n      pop\n        /* \"#utility.yul\":334:411   */\n      swap2\n      swap1\n      pop\n      jump\t// out\n        /* \"#utility.yul\":417:539   */\n    tag_45:\n        /* \"#utility.yul\":490:514   */\n      tag_68\n        /* \"#utility.yul\":508:513   */\n      dup2\n        /* \"#utility.yul\":490:514   */\n      tag_44\n      jump\t// in\n    tag_68:\n        /* \"#utility.yul\":483:488   */\n      dup2\n        /* \"#utility.yul\":480:515   */\n      eq\n        /* \"#utility.yul\":470:533   */\n      tag_69\n      jumpi\n        /* \"#utility.yul\":529:530   */\n      0x00\n        /* \"#utility.yul\":526:527   */\n      dup1\n        /* \"#utility.yul\":519:531   */\n      revert\n        /* \"#utility.yul\":470:533   */\n    tag_69:\n        /* \"#utility.yul\":417:539   */\n      pop\n      jump\t// out\n        /* \"#utility.yul\":545:684   */\n    tag_46:\n        /* \"#utility.yul\":591:596   */\n      0x00\n        /* \"#utility.yul\":629:635   */\n      dup2\n        /* \"#utility.yul\":616:636   */\n      calldataload\n        /* \"#utility.yul\":607:636   */\n      swap1\n      pop\n        /* \"#utility.yul\":645:678   */\n      tag_71\n        /* \"#utility.yul\":672:677   */\n      dup2\n        /* \"#utility.yul\":645:678   */\n      tag_45\n      jump\t// in\n    tag_71:\n        /* \"#utility.yul\":545:684   */\n      swap3\n      swap2\n      pop\n      pop\n      jump\t// out\n        /* \"#utility.yul\":690:1019   */\n    tag_11:\n        /* \"#utility.yul\":749:755   */\n      0x00\n        /* \"#utility.yul\":798:800   */\n      0x20\n        /* \"#utility.yul\":786:795   */\n      dup3\n        /* \"#utility.yul\":777:784   */\n      dup5\n        /* \"#utility.yul\":773:796   */\n      sub\n        /* \"#utility.yul\":769:801   */\n      slt\n        /* \"#utility.yul\":766:885   */\n      iszero\n      tag_73\n      jumpi\n        /* \"#utility.yul\":804:883   */\n      tag_74\n      tag_42\n      jump\t// in\n    tag_74:\n        /* \"#utility.yul\":766:885   */\n    tag_73:\n        /* \"#utility.yul\":924:925   */\n      0x00\n        /* \"#utility.yul\":949:1002   */\n      tag_75\n        /* \"#utility.yul\":994:1001   */\n      dup5\n        /* \"#utility.yul\":985:991   */\n      dup3\n        /* \"#utility.yul\":974:983   */\n      dup6\n        /* \"#utility.yul\":970:992   */\n      add\n        /* \"#utility.yul\":949:1002   */\n      tag_46\n      jump\t// in\n    tag_75:\n        /* \"#utility.yul\":939:1002   */\n      swap2\n      pop\n        /* \"#utility.yul\":895:1012   */\n      pop\n        /* \"#utility.yul\":690:1019   */\n      swap3\n      swap2\n      pop\n      pop\n      jump\t// out\n        /* \"#utility.yul\":1025:1133   */\n    tag_47:\n        /* \"#utility.yul\":1102:1126   */\n      tag_77\n        /* \"#utility.yul\":1120:1125   */\n      dup2\n        /* \"#utility.yul\":1102:1126   */\n      tag_44\n      jump\t// in\n    tag_77:\n        /* \"#utility.yul\":1097:1100   */\n      dup3\n        /* \"#utility.yul\":1090:1127   */\n      mstore\n        /* \"#utility.yul\":1025:1133   */\n      pop\n      pop\n      jump\t// out\n        /* \"#utility.yul\":1139:1265   */\n    tag_48:\n        /* \"#utility.yul\":1176:1183   */\n      0x00\n        /* \"#utility.yul\":1216:1258   */\n      0xffffffffffffffffffffffffffffffffffffffff\n        /* \"#utility.yul\":1209:1214   */\n      dup3\n        /* \"#utility.yul\":1205:1259   */\n      and\n        /* \"#utility.yul\":1194:1259   */\n      swap1\n      pop\n        /* \"#utility.yul\":1139:1265   */\n      swap2\n      swap1\n      pop\n      jump\t// out\n        /* \"#utility.yul\":1271:1367   */\n    tag_49:\n        /* \"#utility.yul\":1308:1315   */\n      0x00\n        /* \"#utility.yul\":1337:1361   */\n      tag_80\n        /* \"#utility.yul\":1355:1360   */\n      dup3\n        /* \"#utility.yul\":1337:1361   */\n      tag_48\n      jump\t// in\n    tag_80:\n        /* \"#utility.yul\":1326:1361   */\n      swap1\n      pop\n        /* \"#utility.yul\":1271:1367   */\n      swap2\n      swap1\n      pop\n      jump\t// out\n        /* \"#utility.yul\":1373:1481   */\n    tag_50:\n        /* \"#utility.yul\":1450:1474   */\n      tag_82\n        /* \"#utility.yul\":1468:1473   */\n      dup2\n        /* \"#utility.yul\":1450:1474   */\n      tag_49\n      jump\t// in\n    tag_82:\n        /* \"#utility.yul\":1445:1448   */\n      dup3\n        /* \"#utility.yul\":1438:1475   */\n      mstore\n        /* \"#utility.yul\":1373:1481   */\n      pop\n      pop\n      jump\t// out\n        /* \"#utility.yul\":1487:1577   */\n    tag_51:\n        /* \"#utility.yul\":1521:1528   */\n      0x00\n        /* \"#utility.yul\":1564:1569   */\n      dup2\n        /* \"#utility.yul\":1557:1570   */\n      iszero\n        /* \"#utility.yul\":1550:1571   */\n      iszero\n        /* \"#utility.yul\":1539:1571   */\n      swap1\n      pop\n        /* \"#utility.yul\":1487:1577   */\n      swap2\n      swap1\n      pop\n      jump\t// out\n        /* \"#utility.yul\":1583:1682   */\n    tag_52:\n        /* \"#utility.yul\":1654:1675   */\n      tag_85\n        /* \"#utility.yul\":1669:1674   */\n      dup2\n        /* \"#utility.yul\":1654:1675   */\n      tag_51\n      jump\t// in\n    tag_85:\n        /* \"#utility.yul\":1649:1652   */\n      dup3\n        /* \"#utility.yul\":1642:1676   */\n      mstore\n        /* \"#utility.yul\":1583:1682   */\n      pop\n      pop\n      jump\t// out\n        /* \"#utility.yul\":1746:2763   */\n    tag_53:\n        /* \"#utility.yul\":1883:1887   */\n      0xa0\n        /* \"#utility.yul\":1878:1881   */\n      dup3\n        /* \"#utility.yul\":1874:1888   */\n      add\n        /* \"#utility.yul\":1968:1972   */\n      0x00\n        /* \"#utility.yul\":1961:1966   */\n      dup3\n        /* \"#utility.yul\":1957:1973   */\n      add\n        /* \"#utility.yul\":1951:1974   */\n      mload\n        /* \"#utility.yul\":1987:2050   */\n      tag_87\n        /* \"#utility.yul\":2044:2048   */\n      0x00\n        /* \"#utility.yul\":2039:2042   */\n      dup6\n        /* \"#utility.yul\":2035:2049   */\n      add\n        /* \"#utility.yul\":2021:2033   */\n      dup3\n        /* \"#utility.yul\":1987:2050   */\n      tag_47\n      jump\t// in\n    tag_87:\n        /* \"#utility.yul\":1898:2060   */\n      pop\n        /* \"#utility.yul\":2144:2148   */\n      0x20\n        /* \"#utility.yul\":2137:2142   */\n      dup3\n        /* \"#utility.yul\":2133:2149   */\n      add\n        /* \"#utility.yul\":2127:2150   */\n      mload\n        /* \"#utility.yul\":2163:2226   */\n      tag_88\n        /* \"#utility.yul\":2220:2224   */\n      0x20\n        /* \"#utility.yul\":2215:2218   */\n      dup6\n        /* \"#utility.yul\":2211:2225   */\n      add\n        /* \"#utility.yul\":2197:2209   */\n      dup3\n        /* \"#utility.yul\":2163:2226   */\n      tag_50\n      jump\t// in\n    tag_88:\n        /* \"#utility.yul\":2070:2236   */\n      pop\n        /* \"#utility.yul\":2319:2323   */\n      0x40\n        /* \"#utility.yul\":2312:2317   */\n      dup3\n        /* \"#utility.yul\":2308:2324   */\n      add\n        /* \"#utility.yul\":2302:2325   */\n      mload\n        /* \"#utility.yul\":2338:2401   */\n      tag_89\n        /* \"#utility.yul\":2395:2399   */\n      0x40\n        /* \"#utility.yul\":2390:2393   */\n      dup6\n        /* \"#utility.yul\":2386:2400   */\n      add\n        /* \"#utility.yul\":2372:2384   */\n      dup3\n        /* \"#utility.yul\":2338:2401   */\n      tag_47\n      jump\t// in\n    tag_89:\n        /* \"#utility.yul\":2246:2411   */\n      pop\n        /* \"#utility.yul\":2495:2499   */\n      0x60\n        /* \"#utility.yul\":2488:2493   */\n      dup3\n        /* \"#utility.yul\":2484:2500   */\n      add\n        /* \"#utility.yul\":2478:2501   */\n      mload\n        /* \"#utility.yul\":2514:2571   */\n      tag_90\n        /* \"#utility.yul\":2565:2569   */\n      0x60\n        /* \"#utility.yul\":2560:2563   */\n      dup6\n        /* \"#utility.yul\":2556:2570   */\n      add\n        /* \"#utility.yul\":2542:2554   */\n      dup3\n        /* \"#utility.yul\":2514:2571   */\n      tag_52\n      jump\t// in\n    tag_90:\n        /* \"#utility.yul\":2421:2581   */\n      pop\n        /* \"#utility.yul\":2664:2668   */\n      0x80\n        /* \"#utility.yul\":2657:2662   */\n      dup3\n        /* \"#utility.yul\":2653:2669   */\n      add\n        /* \"#utility.yul\":2647:2670   */\n      mload\n        /* \"#utility.yul\":2683:2746   */\n      tag_91\n        /* \"#utility.yul\":2740:2744   */\n      0x80\n        /* \"#utility.yul\":2735:2738   */\n      dup6\n        /* \"#utility.yul\":2731:2745   */\n      add\n        /* \"#utility.yul\":2717:2729   */\n      dup3\n        /* \"#utility.yul\":2683:2746   */\n      tag_50\n      jump\t// in\n    tag_91:\n        /* \"#utility.yul\":2591:2756   */\n      pop\n        /* \"#utility.yul\":1852:2763   */\n      pop\n        /* \"#utility.yul\":1746:2763   */\n      pop\n      pop\n      jump\t// out\n        /* \"#utility.yul\":2769:3072   */\n    tag_20:\n        /* \"#utility.yul\":2902:2906   */\n      0x00\n        /* \"#utility.yul\":2940:2943   */\n      0xa0\n        /* \"#utility.yul\":2929:2938   */\n      dup3\n        /* \"#utility.yul\":2925:2944   */\n      add\n        /* \"#utility.yul\":2917:2944   */\n      swap1\n      pop\n        /* \"#utility.yul\":2954:3065   */\n      tag_93\n        /* \"#utility.yul\":3062:3063   */\n      0x00\n        /* \"#utility.yul\":3051:3060   */\n      dup4\n        /* \"#utility.yul\":3047:3064   */\n      add\n        /* \"#utility.yul\":3038:3044   */\n      dup5\n        /* \"#utility.yul\":2954:3065   */\n      tag_53\n      jump\t// in\n    tag_93:\n        /* \"#utility.yul\":2769:3072   */\n      swap3\n      swap2\n      pop\n      pop\n      jump\t// out\n        /* \"#utility.yul\":3078:3196   */\n    tag_54:\n        /* \"#utility.yul\":3165:3189   */\n      tag_95\n        /* \"#utility.yul\":3183:3188   */\n      dup2\n        /* \"#utility.yul\":3165:3189   */\n      tag_44\n      jump\t// in\n    tag_95:\n        /* \"#utility.yul\":3160:3163   */\n      dup3\n        /* \"#utility.yul\":3153:3190   */\n      mstore\n        /* \"#utility.yul\":3078:3196   */\n      pop\n      pop\n      jump\t// out\n        /* \"#utility.yul\":3202:3320   */\n    tag_55:\n        /* \"#utility.yul\":3289:3313   */\n      tag_97\n        /* \"#utility.yul\":3307:3312   */\n      dup2\n        /* \"#utility.yul\":3289:3313   */\n      tag_49\n      jump\t// in\n    tag_97:\n        /* \"#utility.yul\":3284:3287   */\n      dup3\n        /* \"#utility.yul\":3277:3314   */\n      mstore\n        /* \"#utility.yul\":3202:3320   */\n      pop\n      pop\n      jump\t// out\n        /* \"#utility.yul\":3326:3435   */\n    tag_56:\n        /* \"#utility.yul\":3407:3428   */\n      tag_99\n        /* \"#utility.yul\":3422:3427   */\n      dup2\n        /* \"#utility.yul\":3407:3428   */\n      tag_51\n      jump\t// in\n    tag_99:\n        /* \"#utility.yul\":3402:3405   */\n      dup3\n        /* \"#utility.yul\":3395:3429   */\n      mstore\n        /* \"#utility.yul\":3326:3435   */\n      pop\n      pop\n      jump\t// out\n        /* \"#utility.yul\":3441:4093   */\n    tag_25:\n        /* \"#utility.yul\":3640:3644   */\n      0x00\n        /* \"#utility.yul\":3678:3681   */\n      0xa0\n        /* \"#utility.yul\":3667:3676   */\n      dup3\n        /* \"#utility.yul\":3663:3682   */\n      add\n        /* \"#utility.yul\":3655:3682   */\n      swap1\n      pop\n        /* \"#utility.yul\":3692:3763   */\n      tag_101\n        /* \"#utility.yul\":3760:3761   */\n      0x00\n        /* \"#utility.yul\":3749:3758   */\n      dup4\n        /* \"#utility.yul\":3745:3762   */\n      add\n        /* \"#utility.yul\":3736:3742   */\n      dup9\n        /* \"#utility.yul\":3692:3763   */\n      tag_54\n      jump\t// in\n    tag_101:\n        /* \"#utility.yul\":3773:3845   */\n      tag_102\n        /* \"#utility.yul\":3841:3843   */\n      0x20\n        /* \"#utility.yul\":3830:3839   */\n      dup4\n        /* \"#utility.yul\":3826:3844   */\n      add\n        /* \"#utility.yul\":3817:3823   */\n      dup8\n        /* \"#utility.yul\":3773:3845   */\n      tag_55\n      jump\t// in\n    tag_102:\n        /* \"#utility.yul\":3855:3927   */\n      tag_103\n        /* \"#utility.yul\":3923:3925   */\n      0x40\n        /* \"#utility.yul\":3912:3921   */\n      dup4\n        /* \"#utility.yul\":3908:3926   */\n      add\n        /* \"#utility.yul\":3899:3905   */\n      dup7\n        /* \"#utility.yul\":3855:3927   */\n      tag_54\n      jump\t// in\n    tag_103:\n        /* \"#utility.yul\":3937:4003   */\n      tag_104\n        /* \"#utility.yul\":3999:4001   */\n      0x60\n        /* \"#utility.yul\":3988:3997   */\n      dup4\n        /* \"#utility.yul\":3984:4002   */\n      add\n        /* \"#utility.yul\":3975:3981   */\n      dup6\n        /* \"#utility.yul\":3937:4003   */\n      tag_56\n      jump\t// in\n    tag_104:\n        /* \"#utility.yul\":4013:4086   */\n      tag_105\n        /* \"#utility.yul\":4081:4084   */\n      0x80\n        /* \"#utility.yul\":4070:4079   */\n      dup4\n        /* \"#utility.yul\":4066:4085   */\n      add\n        /* \"#utility.yul\":4057:4063   */\n      dup5\n        /* \"#utility.yul\":4013:4086   */\n      tag_55\n      jump\t// in\n    tag_105:\n        /* \"#utility.yul\":3441:4093   */\n      swap7\n      swap6\n      pop\n      pop\n      pop\n      pop\n      pop\n      pop\n      jump\t// out\n        /* \"#utility.yul\":4099:4159   */\n    tag_57:\n        /* \"#utility.yul\":4127:4130   */\n      0x00\n        /* \"#utility.yul\":4148:4153   */\n      dup2\n        /* \"#utility.yul\":4141:4153   */\n      swap1\n      pop\n        /* \"#utility.yul\":4099:4159   */\n      swap2\n      swap1\n      pop\n      jump\t// out\n        /* \"#utility.yul\":4165:4307   */\n    tag_58:\n        /* \"#utility.yul\":4215:4224   */\n      0x00\n        /* \"#utility.yul\":4248:4301   */\n      tag_108\n        /* \"#utility.yul\":4266:4300   */\n      tag_109\n        /* \"#utility.yul\":4275:4299   */\n      tag_110\n        /* \"#utility.yul\":4293:4298   */\n      dup5\n        /* \"#utility.yul\":4275:4299   */\n      tag_48\n      jump\t// in\n    tag_110:\n        /* \"#utility.yul\":4266:4300   */\n      tag_57\n      jump\t// in\n    tag_109:\n        /* \"#utility.yul\":4248:4301   */\n      tag_48\n      jump\t// in\n    tag_108:\n        /* \"#utility.yul\":4235:4301   */\n      swap1\n      pop\n        /* \"#utility.yul\":4165:4307   */\n      swap2\n      swap1\n      pop\n      jump\t// out\n        /* \"#utility.yul\":4313:4439   */\n    tag_59:\n        /* \"#utility.yul\":4363:4372   */\n      0x00\n        /* \"#utility.yul\":4396:4433   */\n      tag_112\n        /* \"#utility.yul\":4427:4432   */\n      dup3\n        /* \"#utility.yul\":4396:4433   */\n      tag_58\n      jump\t// in\n    tag_112:\n        /* \"#utility.yul\":4383:4433   */\n      swap1\n      pop\n        /* \"#utility.yul\":4313:4439   */\n      swap2\n      swap1\n      pop\n      jump\t// out\n        /* \"#utility.yul\":4445:4584   */\n    tag_60:\n        /* \"#utility.yul\":4508:4517   */\n      0x00\n        /* \"#utility.yul\":4541:4578   */\n      tag_114\n        /* \"#utility.yul\":4572:4577   */\n      dup3\n        /* \"#utility.yul\":4541:4578   */\n      tag_59\n      jump\t// in\n    tag_114:\n        /* \"#utility.yul\":4528:4578   */\n      swap1\n      pop\n        /* \"#utility.yul\":4445:4584   */\n      swap2\n      swap1\n      pop\n      jump\t// out\n        /* \"#utility.yul\":4590:4747   */\n    tag_61:\n        /* \"#utility.yul\":4690:4740   */\n      tag_116\n        /* \"#utility.yul\":4734:4739   */\n      dup2\n        /* \"#utility.yul\":4690:4740   */\n      tag_60\n      jump\t// in\n    tag_116:\n        /* \"#utility.yul\":4685:4688   */\n      dup3\n        /* \"#utility.yul\":4678:4741   */\n      mstore\n        /* \"#utility.yul\":4590:4747   */\n      pop\n      pop\n      jump\t// out\n        /* \"#utility.yul\":4753:5001   */\n    tag_32:\n        /* \"#utility.yul\":4859:4863   */\n      0x00\n        /* \"#utility.yul\":4897:4899   */\n      0x20\n        /* \"#utility.yul\":4886:4895   */\n      dup3\n        /* \"#utility.yul\":4882:4900   */\n      add\n        /* \"#utility.yul\":4874:4900   */\n      swap1\n      pop\n        /* \"#utility.yul\":4910:4994   */\n      tag_118\n        /* \"#utility.yul\":4991:4992   */\n      0x00\n        /* \"#utility.yul\":4980:4989   */\n      dup4\n        /* \"#utility.yul\":4976:4993   */\n      add\n        /* \"#utility.yul\":4967:4973   */\n      dup5\n        /* \"#utility.yul\":4910:4994   */\n      tag_61\n      jump\t// in\n    tag_118:\n        /* \"#utility.yul\":4753:5001   */\n      swap3\n      swap2\n      pop\n      pop\n      jump\t// out\n\n    auxdata: 0xa264697066735822122070e29afacdf0099dc0ebab695e63798da03aa2afaa7e686926728f6cf48d715264736f6c634300081a0033\n}\n",
				"bytecode": {
					"linkReferences": {},
					"object": "6080604052348015600e575f80fd5b506104c88061001c5f395ff3fe608060405234801561000f575f80fd5b5060043610610060575f3560e01c8063278ecde1146100645780632ce381901461008057806373004ca01461009c578063bfb231d2146100cc578063d38ea5bf14610100578063fc0c546a1461011c575b5f80fd5b61007e6004803603810190610079919061028e565b61013a565b005b61009a6004803603810190610095919061028e565b61013d565b005b6100b660048036038101906100b1919061028e565b610140565b6040516100c39190610387565b60405180910390f35b6100e660048036038101906100e1919061028e565b61014d565b6040516100f79594939291906103cd565b60405180910390f35b61011a6004803603810190610115919061028e565b6101d9565b005b6101246101dc565b6040516101319190610479565b60405180910390f35b50565b50565b6101486101ff565b919050565b6001818154811061015c575f80fd5b905f5260205f2090600402015f91509050805f015490806001015f9054906101000a900473ffffffffffffffffffffffffffffffffffffffff1690806002015490806003015f9054906101000a900460ff16908060030160019054906101000a900473ffffffffffffffffffffffffffffffffffffffff16905085565b50565b5f8054906101000a900473ffffffffffffffffffffffffffffffffffffffff1681565b6040518060a001604052805f81526020015f73ffffffffffffffffffffffffffffffffffffffff1681526020015f81526020015f151581526020015f73ffffffffffffffffffffffffffffffffffffffff1681525090565b5f80fd5b5f819050919050565b61026d8161025b565b8114610277575f80fd5b50565b5f8135905061028881610264565b92915050565b5f602082840312156102a3576102a2610257565b5b5f6102b08482850161027a565b91505092915050565b6102c28161025b565b82525050565b5f73ffffffffffffffffffffffffffffffffffffffff82169050919050565b5f6102f1826102c8565b9050919050565b610301816102e7565b82525050565b5f8115159050919050565b61031b81610307565b82525050565b60a082015f8201516103355f8501826102b9565b50602082015161034860208501826102f8565b50604082015161035b60408501826102b9565b50606082015161036e6060850182610312565b50608082015161038160808501826102f8565b50505050565b5f60a08201905061039a5f830184610321565b92915050565b6103a98161025b565b82525050565b6103b8816102e7565b82525050565b6103c781610307565b82525050565b5f60a0820190506103e05f8301886103a0565b6103ed60208301876103af565b6103fa60408301866103a0565b61040760608301856103be565b61041460808301846103af565b9695505050505050565b5f819050919050565b5f61044161043c610437846102c8565b61041e565b6102c8565b9050919050565b5f61045282610427565b9050919050565b5f61046382610448565b9050919050565b61047381610459565b82525050565b5f60208201905061048c5f83018461046a565b9291505056fea264697066735822122070e29afacdf0099dc0ebab695e63798da03aa2afaa7e686926728f6cf48d715264736f6c634300081a0033",
					"opcodes": "PUSH1 0x80 PUSH1 0x40 MSTORE CALLVALUE DUP1 ISZERO PUSH1 0xE JUMPI PUSH0 DUP1 REVERT JUMPDEST POP PUSH2 0x4C8 DUP1 PUSH2 0x1C PUSH0 CODECOPY PUSH0 RETURN INVALID PUSH1 0x80 PUSH1 0x40 MSTORE CALLVALUE DUP1 ISZERO PUSH2 0xF JUMPI PUSH0 DUP1 REVERT JUMPDEST POP PUSH1 0x4 CALLDATASIZE LT PUSH2 0x60 JUMPI PUSH0 CALLDATALOAD PUSH1 0xE0 SHR DUP1 PUSH4 0x278ECDE1 EQ PUSH2 0x64 JUMPI DUP1 PUSH4 0x2CE38190 EQ PUSH2 0x80 JUMPI DUP1 PUSH4 0x73004CA0 EQ PUSH2 0x9C JUMPI DUP1 PUSH4 0xBFB231D2 EQ PUSH2 0xCC JUMPI DUP1 PUSH4 0xD38EA5BF EQ PUSH2 0x100 JUMPI DUP1 PUSH4 0xFC0C546A EQ PUSH2 0x11C JUMPI JUMPDEST PUSH0 DUP1 REVERT JUMPDEST PUSH2 0x7E PUSH1 0x4 DUP1 CALLDATASIZE SUB DUP2 ADD SWAP1 PUSH2 0x79 SWAP2 SWAP1 PUSH2 0x28E JUMP JUMPDEST PUSH2 0x13A JUMP JUMPDEST STOP JUMPDEST PUSH2 0x9A PUSH1 0x4 DUP1 CALLDATASIZE SUB DUP2 ADD SWAP1 PUSH2 0x95 SWAP2 SWAP1 PUSH2 0x28E JUMP JUMPDEST PUSH2 0x13D JUMP JUMPDEST STOP JUMPDEST PUSH2 0xB6 PUSH1 0x4 DUP1 CALLDATASIZE SUB DUP2 ADD SWAP1 PUSH2 0xB1 SWAP2 SWAP1 PUSH2 0x28E JUMP JUMPDEST PUSH2 0x140 JUMP JUMPDEST PUSH1 0x40 MLOAD PUSH2 0xC3 SWAP2 SWAP1 PUSH2 0x387 JUMP JUMPDEST PUSH1 0x40 MLOAD DUP1 SWAP2 SUB SWAP1 RETURN JUMPDEST PUSH2 0xE6 PUSH1 0x4 DUP1 CALLDATASIZE SUB DUP2 ADD SWAP1 PUSH2 0xE1 SWAP2 SWAP1 PUSH2 0x28E JUMP JUMPDEST PUSH2 0x14D JUMP JUMPDEST PUSH1 0x40 MLOAD PUSH2 0xF7 SWAP6 SWAP5 SWAP4 SWAP3 SWAP2 SWAP1 PUSH2 0x3CD JUMP JUMPDEST PUSH1 0x40 MLOAD DUP1 SWAP2 SUB SWAP1 RETURN JUMPDEST PUSH2 0x11A PUSH1 0x4 DUP1 CALLDATASIZE SUB DUP2 ADD SWAP1 PUSH2 0x115 SWAP2 SWAP1 PUSH2 0x28E JUMP JUMPDEST PUSH2 0x1D9 JUMP JUMPDEST STOP JUMPDEST PUSH2 0x124 PUSH2 0x1DC JUMP JUMPDEST PUSH1 0x40 MLOAD PUSH2 0x131 SWAP2 SWAP1 PUSH2 0x479 JUMP JUMPDEST PUSH1 0x40 MLOAD DUP1 SWAP2 SUB SWAP1 RETURN JUMPDEST POP JUMP JUMPDEST POP JUMP JUMPDEST PUSH2 0x148 PUSH2 0x1FF JUMP JUMPDEST SWAP2 SWAP1 POP JUMP JUMPDEST PUSH1 0x1 DUP2 DUP2 SLOAD DUP2 LT PUSH2 0x15C JUMPI PUSH0 DUP1 REVERT JUMPDEST SWAP1 PUSH0 MSTORE PUSH1 0x20 PUSH0 KECCAK256 SWAP1 PUSH1 0x4 MUL ADD PUSH0 SWAP2 POP SWAP1 POP DUP1 PUSH0 ADD SLOAD SWAP1 DUP1 PUSH1 0x1 ADD PUSH0 SWAP1 SLOAD SWAP1 PUSH2 0x100 EXP SWAP1 DIV PUSH20 0xFFFFFFFFFFFFFFFFFFFFFFFFFFFFFFFFFFFFFFFF AND SWAP1 DUP1 PUSH1 0x2 ADD SLOAD SWAP1 DUP1 PUSH1 0x3 ADD PUSH0 SWAP1 SLOAD SWAP1 PUSH2 0x100 EXP SWAP1 DIV PUSH1 0xFF AND SWAP1 DUP1 PUSH1 0x3 ADD PUSH1 0x1 SWAP1 SLOAD SWAP1 PUSH2 0x100 EXP SWAP1 DIV PUSH20 0xFFFFFFFFFFFFFFFFFFFFFFFFFFFFFFFFFFFFFFFF AND SWAP1 POP DUP6 JUMP JUMPDEST POP JUMP JUMPDEST PUSH0 DUP1 SLOAD SWAP1 PUSH2 0x100 EXP SWAP1 DIV PUSH20 0xFFFFFFFFFFFFFFFFFFFFFFFFFFFFFFFFFFFFFFFF AND DUP2 JUMP JUMPDEST PUSH1 0x40 MLOAD DUP1 PUSH1 0xA0 ADD PUSH1 0x40 MSTORE DUP1 PUSH0 DUP2 MSTORE PUSH1 0x20 ADD PUSH0 PUSH20 0xFFFFFFFFFFFFFFFFFFFFFFFFFFFFFFFFFFFFFFFF AND DUP2 MSTORE PUSH1 0x20 ADD PUSH0 DUP2 MSTORE PUSH1 0x20 ADD PUSH0 ISZERO ISZERO DUP2 MSTORE PUSH1 0x20 ADD PUSH0 PUSH20 0xFFFFFFFFFFFFFFFFFFFFFFFFFFFFFFFFFFFFFFFF AND DUP2 MSTORE POP SWAP1 JUMP JUMPDEST PUSH0 DUP1 REVERT JUMPDEST PUSH0 DUP2 SWAP1 POP SWAP2 SWAP1 POP JUMP JUMPDEST PUSH2 0x26D DUP2 PUSH2 0x25B JUMP JUMPDEST DUP2 EQ PUSH2 0x277 JUMPI PUSH0 DUP1 REVERT JUMPDEST POP JUMP JUMPDEST PUSH0 DUP2 CALLDATALOAD SWAP1 POP PUSH2 0x288 DUP2 PUSH2 0x264 JUMP JUMPDEST SWAP3 SWAP2 POP POP JUMP JUMPDEST PUSH0 PUSH1 0x20 DUP3 DUP5 SUB SLT ISZERO PUSH2 0x2A3 JUMPI PUSH2 0x2A2 PUSH2 0x257 JUMP JUMPDEST JUMPDEST PUSH0 PUSH2 0x2B0 DUP5 DUP3 DUP6 ADD PUSH2 0x27A JUMP JUMPDEST SWAP2 POP POP SWAP3 SWAP2 POP POP JUMP JUMPDEST PUSH2 0x2C2 DUP2 PUSH2 0x25B JUMP JUMPDEST DUP3 MSTORE POP POP JUMP JUMPDEST PUSH0 PUSH20 0xFFFFFFFFFFFFFFFFFFFFFFFFFFFFFFFFFFFFFFFF DUP3 AND SWAP1 POP SWAP2 SWAP1 POP JUMP JUMPDEST PUSH0 PUSH2 0x2F1 DUP3 PUSH2 0x2C8 JUMP JUMPDEST SWAP1 POP SWAP2 SWAP1 POP JUMP JUMPDEST PUSH2 0x301 DUP2 PUSH2 0x2E7 JUMP JUMPDEST DUP3 MSTORE POP POP JUMP JUMPDEST PUSH0 DUP2 ISZERO ISZERO SWAP1 POP SWAP2 SWAP1 POP JUMP JUMPDEST PUSH2 0x31B DUP2 PUSH2 0x307 JUMP JUMPDEST DUP3 MSTORE POP POP JUMP JUMPDEST PUSH1 0xA0 DUP3 ADD PUSH0 DUP3 ADD MLOAD PUSH2 0x335 PUSH0 DUP6 ADD DUP3 PUSH2 0x2B9 JUMP JUMPDEST POP PUSH1 0x20 DUP3 ADD MLOAD PUSH2 0x348 PUSH1 0x20 DUP6 ADD DUP3 PUSH2 0x2F8 JUMP JUMPDEST POP PUSH1 0x40 DUP3 ADD MLOAD PUSH2 0x35B PUSH1 0x40 DUP6 ADD DUP3 PUSH2 0x2B9 JUMP JUMPDEST POP PUSH1 0x60 DUP3 ADD MLOAD PUSH2 0x36E PUSH1 0x60 DUP6 ADD DUP3 PUSH2 0x312 JUMP JUMPDEST POP PUSH1 0x80 DUP3 ADD MLOAD PUSH2 0x381 PUSH1 0x80 DUP6 ADD DUP3 PUSH2 0x2F8 JUMP JUMPDEST POP POP POP POP JUMP JUMPDEST PUSH0 PUSH1 0xA0 DUP3 ADD SWAP1 POP PUSH2 0x39A PUSH0 DUP4 ADD DUP5 PUSH2 0x321 JUMP JUMPDEST SWAP3 SWAP2 POP POP JUMP JUMPDEST PUSH2 0x3A9 DUP2 PUSH2 0x25B JUMP JUMPDEST DUP3 MSTORE POP POP JUMP JUMPDEST PUSH2 0x3B8 DUP2 PUSH2 0x2E7 JUMP JUMPDEST DUP3 MSTORE POP POP JUMP JUMPDEST PUSH2 0x3C7 DUP2 PUSH2 0x307 JUMP JUMPDEST DUP3 MSTORE POP POP JUMP JUMPDEST PUSH0 PUSH1 0xA0 DUP3 ADD SWAP1 POP PUSH2 0x3E0 PUSH0 DUP4 ADD DUP9 PUSH2 0x3A0 JUMP JUMPDEST PUSH2 0x3ED PUSH1 0x20 DUP4 ADD DUP8 PUSH2 0x3AF JUMP JUMPDEST PUSH2 0x3FA PUSH1 0x40 DUP4 ADD DUP7 PUSH2 0x3A0 JUMP JUMPDEST PUSH2 0x407 PUSH1 0x60 DUP4 ADD DUP6 PUSH2 0x3BE JUMP JUMPDEST PUSH2 0x414 PUSH1 0x80 DUP4 ADD DUP5 PUSH2 0x3AF JUMP JUMPDEST SWAP7 SWAP6 POP POP POP POP POP POP JUMP JUMPDEST PUSH0 DUP2 SWAP1 POP SWAP2 SWAP1 POP JUMP JUMPDEST PUSH0 PUSH2 0x441 PUSH2 0x43C PUSH2 0x437 DUP5 PUSH2 0x2C8 JUMP JUMPDEST PUSH2 0x41E JUMP JUMPDEST PUSH2 0x2C8 JUMP JUMPDEST SWAP1 POP SWAP2 SWAP1 POP JUMP JUMPDEST PUSH0 PUSH2 0x452 DUP3 PUSH2 0x427 JUMP JUMPDEST SWAP1 POP SWAP2 SWAP1 POP JUMP JUMPDEST PUSH0 PUSH2 0x463 DUP3 PUSH2 0x448 JUMP JUMPDEST SWAP1 POP SWAP2 SWAP1 POP JUMP JUMPDEST PUSH2 0x473 DUP2 PUSH2 0x459 JUMP JUMPDEST DUP3 MSTORE POP POP JUMP JUMPDEST PUSH0 PUSH1 0x20 DUP3 ADD SWAP1 POP PUSH2 0x48C PUSH0 DUP4 ADD DUP5 PUSH2 0x46A JUMP JUMPDEST SWAP3 SWAP2 POP POP JUMP INVALID LOG2 PUSH5 0x6970667358 0x22 SLT KECCAK256 PUSH17 0xE29AFACDF0099DC0EBAB695E63798DA03A LOG2 0xAF 0xAA PUSH31 0x686926728F6CF48D715264736F6C634300081A003300000000000000000000 "
				},
				"gasEstimates": {
					"creation": {
						"codeDepositCost": "244800",
						"executionCost": "285",
						"totalCost": "245085"
					},
					"external": {
						"getItemDetails(uint256)": "infinite",
						"items(uint256)": "infinite",
						"listItem(uint256)": "401",
						"purchaseItem(uint256)": "467",
						"refund(uint256)": "379",
						"token()": "infinite"
					}
				},
				"methodIdentifiers": {
					"getItemDetails(uint256)": "73004ca0",
					"items(uint256)": "bfb231d2",
					"listItem(uint256)": "2ce38190",
					"purchaseItem(uint256)": "d38ea5bf",
					"refund(uint256)": "278ecde1",
					"token()": "fc0c546a"
				}
			},
			"storageLayout": {
				"storage": [
					{
						"astId": 84,
						"contract": "contracts/Marketplace.sol:Marketplace",
						"label": "token",
						"offset": 0,
						"slot": "0",
						"type": "t_contract(IERC20)77"
					},
					{
						"astId": 99,
						"contract": "contracts/Marketplace.sol:Marketplace",
						"label": "items",
						"offset": 0,
						"slot": "1",
						"type": "t_array(t_struct(Item)95_storage)dyn_storage"
					},
					{
						"astId": 101,
						"contract": "contracts/Marketplace.sol:Marketplace",
						"label": "itemIdCounter",
						"offset": 0,
						"slot": "2",
						"type": "t_uint256"
					}
				],
				"types": {
					"t_address": {
						"encoding": "inplace",
						"label": "address",
						"numberOfBytes": "20"
					},
					"t_array(t_struct(Item)95_storage)dyn_storage": {
						"base": "t_struct(Item)95_storage",
						"encoding": "dynamic_array",
						"label": "struct Marketplace.Item[]",
						"numberOfBytes": "32"
					},
					"t_bool": {
						"encoding": "inplace",
						"label": "bool",
						"numberOfBytes": "1"
					},
					"t_contract(IERC20)77": {
						"encoding": "inplace",
						"label": "contract IERC20",
						"numberOfBytes": "20"
					},
					"t_struct(Item)95_storage": {
						"encoding": "inplace",
						"label": "struct Marketplace.Item",
						"members": [
							{
								"astId": 86,
								"contract": "contracts/Marketplace.sol:Marketplace",
								"label": "id",
								"offset": 0,
								"slot": "0",
								"type": "t_uint256"
							},
							{
								"astId": 88,
								"contract": "contracts/Marketplace.sol:Marketplace",
								"label": "seller",
								"offset": 0,
								"slot": "1",
								"type": "t_address"
							},
							{
								"astId": 90,
								"contract": "contracts/Marketplace.sol:Marketplace",
								"label": "price",
								"offset": 0,
								"slot": "2",
								"type": "t_uint256"
							},
							{
								"astId": 92,
								"contract": "contracts/Marketplace.sol:Marketplace",
								"label": "isSold",
								"offset": 0,
								"slot": "3",
								"type": "t_bool"
							},
							{
								"astId": 94,
								"contract": "contracts/Marketplace.sol:Marketplace",
								"label": "buyer",
								"offset": 1,
								"slot": "3",
								"type": "t_address"
							}
						],
						"numberOfBytes": "128"
					},
					"t_uint256": {
						"encoding": "inplace",
						"label": "uint256",
						"numberOfBytes": "32"
					}
				}
			},
			"userdoc": {
				"kind": "user",
				"methods": {},
				"version": 1
			}
		}
	}
}