{
	"assignment contracts/W5 Auction.sol": {
		"Auction": {
			"abi": [
				{
					"inputs": [
						{
							"internalType": "address",
							"name": "_token",
							"type": "address"
						}
					],
					"stateMutability": "nonpayable",
					"type": "constructor"
				},
				{
					"anonymous": false,
					"inputs": [
						{
							"indexed": false,
							"internalType": "uint256",
							"name": "id",
							"type": "uint256"
						},
						{
							"indexed": true,
							"internalType": "address",
							"name": "seller",
							"type": "address"
						},
						{
							"indexed": false,
							"internalType": "uint256",
							"name": "minBid",
							"type": "uint256"
						},
						{
							"indexed": false,
							"internalType": "uint256",
							"name": "endTime",
							"type": "uint256"
						}
					],
					"name": "AuctionCreated",
					"type": "event"
				},
				{
					"anonymous": false,
					"inputs": [
						{
							"indexed": true,
							"internalType": "uint256",
							"name": "auctionId",
							"type": "uint256"
						},
						{
							"indexed": true,
							"internalType": "address",
							"name": "winner",
							"type": "address"
						},
						{
							"indexed": false,
							"internalType": "uint256",
							"name": "highestBid",
							"type": "uint256"
						}
					],
					"name": "AuctionFinalized",
					"type": "event"
				},
				{
					"anonymous": false,
					"inputs": [
						{
							"indexed": true,
							"internalType": "uint256",
							"name": "auctionId",
							"type": "uint256"
						},
						{
							"indexed": true,
							"internalType": "address",
							"name": "bidder",
							"type": "address"
						},
						{
							"indexed": false,
							"internalType": "uint256",
							"name": "bidAmount",
							"type": "uint256"
						}
					],
					"name": "BidPlaced",
					"type": "event"
				},
				{
					"inputs": [],
					"name": "auctionIdCounter",
					"outputs": [
						{
							"internalType": "uint256",
							"name": "",
							"type": "uint256"
						}
					],
					"stateMutability": "view",
					"type": "function"
				},
				{
					"inputs": [
						{
							"internalType": "uint256",
							"name": "",
							"type": "uint256"
						}
					],
					"name": "auctions",
					"outputs": [
						{
							"internalType": "uint256",
							"name": "id",
							"type": "uint256"
						},
						{
							"internalType": "address",
							"name": "seller",
							"type": "address"
						},
						{
							"internalType": "uint256",
							"name": "minBid",
							"type": "uint256"
						},
						{
							"internalType": "uint256",
							"name": "highestBid",
							"type": "uint256"
						},
						{
							"internalType": "address",
							"name": "highestBidder",
							"type": "address"
						},
						{
							"internalType": "bool",
							"name": "isActive",
							"type": "bool"
						},
						{
							"internalType": "uint256",
							"name": "endTime",
							"type": "uint256"
						}
					],
					"stateMutability": "view",
					"type": "function"
				},
				{
					"inputs": [
						{
							"internalType": "uint256",
							"name": "_minBid",
							"type": "uint256"
						},
						{
							"internalType": "uint256",
							"name": "_duration",
							"type": "uint256"
						}
					],
					"name": "createAuction",
					"outputs": [],
					"stateMutability": "nonpayable",
					"type": "function"
				},
				{
					"inputs": [
						{
							"internalType": "uint256",
							"name": "_auctionId",
							"type": "uint256"
						}
					],
					"name": "finalizeAuction",
					"outputs": [],
					"stateMutability": "nonpayable",
					"type": "function"
				},
				{
					"inputs": [
						{
							"internalType": "uint256",
							"name": "_auctionId",
							"type": "uint256"
						}
					],
					"name": "getAuctionDetails",
					"outputs": [
						{
							"internalType": "uint256",
							"name": "id",
							"type": "uint256"
						},
						{
							"internalType": "address",
							"name": "seller",
							"type": "address"
						},
						{
							"internalType": "uint256",
							"name": "minBid",
							"type": "uint256"
						},
						{
							"internalType": "uint256",
							"name": "highestBid",
							"type": "uint256"
						},
						{
							"internalType": "address",
							"name": "highestBidder",
							"type": "address"
						},
						{
							"internalType": "bool",
							"name": "isActive",
							"type": "bool"
						},
						{
							"internalType": "uint256",
							"name": "endTime",
							"type": "uint256"
						}
					],
					"stateMutability": "view",
					"type": "function"
				},
				{
					"inputs": [
						{
							"internalType": "address",
							"name": "",
							"type": "address"
						}
					],
					"name": "pendingWithdrawals",
					"outputs": [
						{
							"internalType": "uint256",
							"name": "",
							"type": "uint256"
						}
					],
					"stateMutability": "view",
					"type": "function"
				},
				{
					"inputs": [
						{
							"internalType": "uint256",
							"name": "_auctionId",
							"type": "uint256"
						},
						{
							"internalType": "uint256",
							"name": "_bidAmount",
							"type": "uint256"
						}
					],
					"name": "placeBid",
					"outputs": [],
					"stateMutability": "nonpayable",
					"type": "function"
				},
				{
					"inputs": [
						{
							"internalType": "address",
							"name": "",
							"type": "address"
						}
					],
					"name": "sellerPendingWithdrawals",
					"outputs": [
						{
							"internalType": "uint256",
							"name": "",
							"type": "uint256"
						}
					],
					"stateMutability": "view",
					"type": "function"
				},
				{
					"inputs": [],
					"name": "token",
					"outputs": [
						{
							"internalType": "contract IERC20",
							"name": "",
							"type": "address"
						}
					],
					"stateMutability": "view",
					"type": "function"
				},
				{
					"inputs": [],
					"name": "withdrawSellerFunds",
					"outputs": [],
					"stateMutability": "nonpayable",
					"type": "function"
				}
			],
			"devdoc": {
				"kind": "dev",
				"methods": {},
				"version": 1
			},
			"evm": {
				"assembly": "    /* \"assignment contracts/W5 Auction.sol\":324:6209  contract Auction {... */\n  mstore(0x40, 0x80)\n    /* \"assignment contracts/W5 Auction.sol\":1456:1598  constructor(address _token) {... */\n  callvalue\n  dup1\n  iszero\n  tag_1\n  jumpi\n  0x00\n  dup1\n  revert\ntag_1:\n  pop\n  mload(0x40)\n  sub(codesize, bytecodeSize)\n  dup1\n  bytecodeSize\n  dup4\n  codecopy\n  dup2\n  dup2\n  add\n  0x40\n  mstore\n  dup2\n  add\n  swap1\n  tag_2\n  swap2\n  swap1\n  tag_3\n  jump\t// in\ntag_2:\n    /* \"assignment contracts/W5 Auction.sol\":1521:1522  0 */\n  0x00\n    /* \"assignment contracts/W5 Auction.sol\":1503:1523  _token != address(0) */\n  0xffffffffffffffffffffffffffffffffffffffff\n  and\n    /* \"assignment contracts/W5 Auction.sol\":1503:1509  _token */\n  dup2\n    /* \"assignment contracts/W5 Auction.sol\":1503:1523  _token != address(0) */\n  0xffffffffffffffffffffffffffffffffffffffff\n  and\n  sub\n    /* \"assignment contracts/W5 Auction.sol\":1495:1557  require(_token != address(0), \"Token address cannot be zero.\") */\n  tag_6\n  jumpi\n  mload(0x40)\n  0x08c379a000000000000000000000000000000000000000000000000000000000\n  dup2\n  mstore\n  0x04\n  add\n  tag_7\n  swap1\n  tag_8\n  jump\t// in\ntag_7:\n  mload(0x40)\n  dup1\n  swap2\n  sub\n  swap1\n  revert\ntag_6:\n    /* \"assignment contracts/W5 Auction.sol\":1583:1589  _token */\n  dup1\n    /* \"assignment contracts/W5 Auction.sol\":1568:1573  token */\n  0x00\n  dup1\n    /* \"assignment contracts/W5 Auction.sol\":1568:1590  token = IERC20(_token) */\n  0x0100\n  exp\n  dup2\n  sload\n  dup2\n  0xffffffffffffffffffffffffffffffffffffffff\n  mul\n  not\n  and\n  swap1\n  dup4\n  0xffffffffffffffffffffffffffffffffffffffff\n  and\n  mul\n  or\n  swap1\n  sstore\n  pop\n    /* \"assignment contracts/W5 Auction.sol\":1456:1598  constructor(address _token) {... */\n  pop\n    /* \"assignment contracts/W5 Auction.sol\":324:6209  contract Auction {... */\n  jump(tag_9)\n    /* \"#utility.yul\":88:205   */\ntag_11:\n    /* \"#utility.yul\":197:198   */\n  0x00\n    /* \"#utility.yul\":194:195   */\n  dup1\n    /* \"#utility.yul\":187:199   */\n  revert\n    /* \"#utility.yul\":334:460   */\ntag_13:\n    /* \"#utility.yul\":371:378   */\n  0x00\n    /* \"#utility.yul\":411:453   */\n  0xffffffffffffffffffffffffffffffffffffffff\n    /* \"#utility.yul\":404:409   */\n  dup3\n    /* \"#utility.yul\":400:454   */\n  and\n    /* \"#utility.yul\":389:454   */\n  swap1\n  pop\n    /* \"#utility.yul\":334:460   */\n  swap2\n  swap1\n  pop\n  jump\t// out\n    /* \"#utility.yul\":466:562   */\ntag_14:\n    /* \"#utility.yul\":503:510   */\n  0x00\n    /* \"#utility.yul\":532:556   */\n  tag_26\n    /* \"#utility.yul\":550:555   */\n  dup3\n    /* \"#utility.yul\":532:556   */\n  tag_13\n  jump\t// in\ntag_26:\n    /* \"#utility.yul\":521:556   */\n  swap1\n  pop\n    /* \"#utility.yul\":466:562   */\n  swap2\n  swap1\n  pop\n  jump\t// out\n    /* \"#utility.yul\":568:690   */\ntag_15:\n    /* \"#utility.yul\":641:665   */\n  tag_28\n    /* \"#utility.yul\":659:664   */\n  dup2\n    /* \"#utility.yul\":641:665   */\n  tag_14\n  jump\t// in\ntag_28:\n    /* \"#utility.yul\":634:639   */\n  dup2\n    /* \"#utility.yul\":631:666   */\n  eq\n    /* \"#utility.yul\":621:684   */\n  tag_29\n  jumpi\n    /* \"#utility.yul\":680:681   */\n  0x00\n    /* \"#utility.yul\":677:678   */\n  dup1\n    /* \"#utility.yul\":670:682   */\n  revert\n    /* \"#utility.yul\":621:684   */\ntag_29:\n    /* \"#utility.yul\":568:690   */\n  pop\n  jump\t// out\n    /* \"#utility.yul\":696:839   */\ntag_16:\n    /* \"#utility.yul\":753:758   */\n  0x00\n    /* \"#utility.yul\":784:790   */\n  dup2\n    /* \"#utility.yul\":778:791   */\n  mload\n    /* \"#utility.yul\":769:791   */\n  swap1\n  pop\n    /* \"#utility.yul\":800:833   */\n  tag_31\n    /* \"#utility.yul\":827:832   */\n  dup2\n    /* \"#utility.yul\":800:833   */\n  tag_15\n  jump\t// in\ntag_31:\n    /* \"#utility.yul\":696:839   */\n  swap3\n  swap2\n  pop\n  pop\n  jump\t// out\n    /* \"#utility.yul\":845:1196   */\ntag_3:\n    /* \"#utility.yul\":915:921   */\n  0x00\n    /* \"#utility.yul\":964:966   */\n  0x20\n    /* \"#utility.yul\":952:961   */\n  dup3\n    /* \"#utility.yul\":943:950   */\n  dup5\n    /* \"#utility.yul\":939:962   */\n  sub\n    /* \"#utility.yul\":935:967   */\n  slt\n    /* \"#utility.yul\":932:1051   */\n  iszero\n  tag_33\n  jumpi\n    /* \"#utility.yul\":970:1049   */\n  tag_34\n  tag_11\n  jump\t// in\ntag_34:\n    /* \"#utility.yul\":932:1051   */\ntag_33:\n    /* \"#utility.yul\":1090:1091   */\n  0x00\n    /* \"#utility.yul\":1115:1179   */\n  tag_35\n    /* \"#utility.yul\":1171:1178   */\n  dup5\n    /* \"#utility.yul\":1162:1168   */\n  dup3\n    /* \"#utility.yul\":1151:1160   */\n  dup6\n    /* \"#utility.yul\":1147:1169   */\n  add\n    /* \"#utility.yul\":1115:1179   */\n  tag_16\n  jump\t// in\ntag_35:\n    /* \"#utility.yul\":1105:1179   */\n  swap2\n  pop\n    /* \"#utility.yul\":1061:1189   */\n  pop\n    /* \"#utility.yul\":845:1196   */\n  swap3\n  swap2\n  pop\n  pop\n  jump\t// out\n    /* \"#utility.yul\":1202:1371   */\ntag_17:\n    /* \"#utility.yul\":1286:1297   */\n  0x00\n    /* \"#utility.yul\":1320:1326   */\n  dup3\n    /* \"#utility.yul\":1315:1318   */\n  dup3\n    /* \"#utility.yul\":1308:1327   */\n  mstore\n    /* \"#utility.yul\":1360:1364   */\n  0x20\n    /* \"#utility.yul\":1355:1358   */\n  dup3\n    /* \"#utility.yul\":1351:1365   */\n  add\n    /* \"#utility.yul\":1336:1365   */\n  swap1\n  pop\n    /* \"#utility.yul\":1202:1371   */\n  swap3\n  swap2\n  pop\n  pop\n  jump\t// out\n    /* \"#utility.yul\":1377:1556   */\ntag_18:\n    /* \"#utility.yul\":1517:1548   */\n  0x546f6b656e20616464726573732063616e6e6f74206265207a65726f2e000000\n    /* \"#utility.yul\":1513:1514   */\n  0x00\n    /* \"#utility.yul\":1505:1511   */\n  dup3\n    /* \"#utility.yul\":1501:1515   */\n  add\n    /* \"#utility.yul\":1494:1549   */\n  mstore\n    /* \"#utility.yul\":1377:1556   */\n  pop\n  jump\t// out\n    /* \"#utility.yul\":1562:1928   */\ntag_19:\n    /* \"#utility.yul\":1704:1707   */\n  0x00\n    /* \"#utility.yul\":1725:1792   */\n  tag_39\n    /* \"#utility.yul\":1789:1791   */\n  0x1d\n    /* \"#utility.yul\":1784:1787   */\n  dup4\n    /* \"#utility.yul\":1725:1792   */\n  tag_17\n  jump\t// in\ntag_39:\n    /* \"#utility.yul\":1718:1792   */\n  swap2\n  pop\n    /* \"#utility.yul\":1801:1894   */\n  tag_40\n    /* \"#utility.yul\":1890:1893   */\n  dup3\n    /* \"#utility.yul\":1801:1894   */\n  tag_18\n  jump\t// in\ntag_40:\n    /* \"#utility.yul\":1919:1921   */\n  0x20\n    /* \"#utility.yul\":1914:1917   */\n  dup3\n    /* \"#utility.yul\":1910:1922   */\n  add\n    /* \"#utility.yul\":1903:1922   */\n  swap1\n  pop\n    /* \"#utility.yul\":1562:1928   */\n  swap2\n  swap1\n  pop\n  jump\t// out\n    /* \"#utility.yul\":1934:2353   */\ntag_8:\n    /* \"#utility.yul\":2100:2104   */\n  0x00\n    /* \"#utility.yul\":2138:2140   */\n  0x20\n    /* \"#utility.yul\":2127:2136   */\n  dup3\n    /* \"#utility.yul\":2123:2141   */\n  add\n    /* \"#utility.yul\":2115:2141   */\n  swap1\n  pop\n    /* \"#utility.yul\":2187:2196   */\n  dup2\n    /* \"#utility.yul\":2181:2185   */\n  dup2\n    /* \"#utility.yul\":2177:2197   */\n  sub\n    /* \"#utility.yul\":2173:2174   */\n  0x00\n    /* \"#utility.yul\":2162:2171   */\n  dup4\n    /* \"#utility.yul\":2158:2175   */\n  add\n    /* \"#utility.yul\":2151:2198   */\n  mstore\n    /* \"#utility.yul\":2215:2346   */\n  tag_42\n    /* \"#utility.yul\":2341:2345   */\n  dup2\n    /* \"#utility.yul\":2215:2346   */\n  tag_19\n  jump\t// in\ntag_42:\n    /* \"#utility.yul\":2207:2346   */\n  swap1\n  pop\n    /* \"#utility.yul\":1934:2353   */\n  swap2\n  swap1\n  pop\n  jump\t// out\n    /* \"assignment contracts/W5 Auction.sol\":324:6209  contract Auction {... */\ntag_9:\n  dataSize(sub_0)\n  dup1\n  dataOffset(sub_0)\n  0x00\n  codecopy\n  0x00\n  return\nstop\n\nsub_0: assembly {\n        /* \"assignment contracts/W5 Auction.sol\":324:6209  contract Auction {... */\n      mstore(0x40, 0x80)\n      callvalue\n      dup1\n      iszero\n      tag_1\n      jumpi\n      0x00\n      dup1\n      revert\n    tag_1:\n      pop\n      jumpi(tag_2, lt(calldatasize, 0x04))\n      shr(0xe0, calldataload(0x00))\n      dup1\n      0xde0794ef\n      gt\n      tag_13\n      jumpi\n      dup1\n      0xde0794ef\n      eq\n      tag_8\n      jumpi\n      dup1\n      0xe8083863\n      eq\n      tag_9\n      jumpi\n      dup1\n      0xf20e5e35\n      eq\n      tag_10\n      jumpi\n      dup1\n      0xf3f43703\n      eq\n      tag_11\n      jumpi\n      dup1\n      0xfc0c546a\n      eq\n      tag_12\n      jumpi\n      jump(tag_2)\n    tag_13:\n      dup1\n      0x0121683f\n      eq\n      tag_3\n      jumpi\n      dup1\n      0x0cbb180c\n      eq\n      tag_4\n      jumpi\n      dup1\n      0x435fbd55\n      eq\n      tag_5\n      jumpi\n      dup1\n      0x571a26a0\n      eq\n      tag_6\n      jumpi\n      dup1\n      0x57c90de5\n      eq\n      tag_7\n      jumpi\n    tag_2:\n      0x00\n      dup1\n      revert\n        /* \"assignment contracts/W5 Auction.sol\":1636:2286  function createAuction(uint256 _minBid, uint256 _duration) external {... */\n    tag_3:\n      tag_14\n      0x04\n      dup1\n      calldatasize\n      sub\n      dup2\n      add\n      swap1\n      tag_15\n      swap2\n      swap1\n      tag_16\n      jump\t// in\n    tag_15:\n      tag_17\n      jump\t// in\n    tag_14:\n      stop\n        /* \"assignment contracts/W5 Auction.sol\":793:852  mapping(address => uint256) public sellerPendingWithdrawals */\n    tag_4:\n      tag_18\n      0x04\n      dup1\n      calldatasize\n      sub\n      dup2\n      add\n      swap1\n      tag_19\n      swap2\n      swap1\n      tag_20\n      jump\t// in\n    tag_19:\n      tag_21\n      jump\t// in\n    tag_18:\n      mload(0x40)\n      tag_22\n      swap2\n      swap1\n      tag_23\n      jump\t// in\n    tag_22:\n      mload(0x40)\n      dup1\n      swap2\n      sub\n      swap1\n      return\n        /* \"assignment contracts/W5 Auction.sol\":4832:5429  function withdrawSellerFunds() external {... */\n    tag_5:\n      tag_24\n      tag_25\n      jump\t// in\n    tag_24:\n      stop\n        /* \"assignment contracts/W5 Auction.sol\":887:916  AuctionItem[] public auctions */\n    tag_6:\n      tag_26\n      0x04\n      dup1\n      calldatasize\n      sub\n      dup2\n      add\n      swap1\n      tag_27\n      swap2\n      swap1\n      tag_28\n      jump\t// in\n    tag_27:\n      tag_29\n      jump\t// in\n    tag_26:\n      mload(0x40)\n      tag_30\n      swap8\n      swap7\n      swap6\n      swap5\n      swap4\n      swap3\n      swap2\n      swap1\n      tag_31\n      jump\t// in\n    tag_30:\n      mload(0x40)\n      dup1\n      swap2\n      sub\n      swap1\n      return\n        /* \"assignment contracts/W5 Auction.sol\":2336:3681  function placeBid(uint256 _auctionId, uint256 _bidAmount) external {... */\n    tag_7:\n      tag_32\n      0x04\n      dup1\n      calldatasize\n      sub\n      dup2\n      add\n      swap1\n      tag_33\n      swap2\n      swap1\n      tag_16\n      jump\t// in\n    tag_33:\n      tag_34\n      jump\t// in\n    tag_32:\n      stop\n        /* \"assignment contracts/W5 Auction.sol\":956:987  uint256 public auctionIdCounter */\n    tag_8:\n      tag_35\n      tag_36\n      jump\t// in\n    tag_35:\n      mload(0x40)\n      tag_37\n      swap2\n      swap1\n      tag_23\n      jump\t// in\n    tag_37:\n      mload(0x40)\n      dup1\n      swap2\n      sub\n      swap1\n      return\n        /* \"assignment contracts/W5 Auction.sol\":3763:4775  function finalizeAuction(uint256 _auctionId) external {... */\n    tag_9:\n      tag_38\n      0x04\n      dup1\n      calldatasize\n      sub\n      dup2\n      add\n      swap1\n      tag_39\n      swap2\n      swap1\n      tag_28\n      jump\t// in\n    tag_39:\n      tag_40\n      jump\t// in\n    tag_38:\n      stop\n        /* \"assignment contracts/W5 Auction.sol\":5490:6206  function getAuctionDetails(uint256 _auctionId)... */\n    tag_10:\n      tag_41\n      0x04\n      dup1\n      calldatasize\n      sub\n      dup2\n      add\n      swap1\n      tag_42\n      swap2\n      swap1\n      tag_28\n      jump\t// in\n    tag_42:\n      tag_43\n      jump\t// in\n    tag_41:\n      mload(0x40)\n      tag_44\n      swap8\n      swap7\n      swap6\n      swap5\n      swap4\n      swap3\n      swap2\n      swap1\n      tag_31\n      jump\t// in\n    tag_44:\n      mload(0x40)\n      dup1\n      swap2\n      sub\n      swap1\n      return\n        /* \"assignment contracts/W5 Auction.sol\":697:750  mapping(address => uint256) public pendingWithdrawals */\n    tag_11:\n      tag_45\n      0x04\n      dup1\n      calldatasize\n      sub\n      dup2\n      add\n      swap1\n      tag_46\n      swap2\n      swap1\n      tag_20\n      jump\t// in\n    tag_46:\n      tag_47\n      jump\t// in\n    tag_45:\n      mload(0x40)\n      tag_48\n      swap2\n      swap1\n      tag_23\n      jump\t// in\n    tag_48:\n      mload(0x40)\n      dup1\n      swap2\n      sub\n      swap1\n      return\n        /* \"assignment contracts/W5 Auction.sol\":378:397  IERC20 public token */\n    tag_12:\n      tag_49\n      tag_50\n      jump\t// in\n    tag_49:\n      mload(0x40)\n      tag_51\n      swap2\n      swap1\n      tag_52\n      jump\t// in\n    tag_51:\n      mload(0x40)\n      dup1\n      swap2\n      sub\n      swap1\n      return\n        /* \"assignment contracts/W5 Auction.sol\":1636:2286  function createAuction(uint256 _minBid, uint256 _duration) external {... */\n    tag_17:\n        /* \"assignment contracts/W5 Auction.sol\":1733:1734  0 */\n      0x00\n        /* \"assignment contracts/W5 Auction.sol\":1723:1730  _minBid */\n      dup3\n        /* \"assignment contracts/W5 Auction.sol\":1723:1734  _minBid > 0 */\n      gt\n        /* \"assignment contracts/W5 Auction.sol\":1715:1777  require(_minBid > 0, \"Minimum bid must be greater than zero.\") */\n      tag_54\n      jumpi\n      mload(0x40)\n      0x08c379a000000000000000000000000000000000000000000000000000000000\n      dup2\n      mstore\n      0x04\n      add\n      tag_55\n      swap1\n      tag_56\n      jump\t// in\n    tag_55:\n      mload(0x40)\n      dup1\n      swap2\n      sub\n      swap1\n      revert\n    tag_54:\n        /* \"assignment contracts/W5 Auction.sol\":1808:1809  0 */\n      0x00\n        /* \"assignment contracts/W5 Auction.sol\":1796:1805  _duration */\n      dup2\n        /* \"assignment contracts/W5 Auction.sol\":1796:1809  _duration > 0 */\n      gt\n        /* \"assignment contracts/W5 Auction.sol\":1788:1849  require(_duration > 0, \"Duration must be greater than zero.\") */\n      tag_57\n      jumpi\n      mload(0x40)\n      0x08c379a000000000000000000000000000000000000000000000000000000000\n      dup2\n      mstore\n      0x04\n      add\n      tag_58\n      swap1\n      tag_59\n      jump\t// in\n    tag_58:\n      mload(0x40)\n      dup1\n      swap2\n      sub\n      swap1\n      revert\n    tag_57:\n        /* \"assignment contracts/W5 Auction.sol\":1862:1870  auctions */\n      0x03\n        /* \"assignment contracts/W5 Auction.sol\":1876:2146  AuctionItem({... */\n      mload(0x40)\n      dup1\n      0xe0\n      add\n      0x40\n      mstore\n      dup1\n        /* \"assignment contracts/W5 Auction.sol\":1907:1923  auctionIdCounter */\n      sload(0x04)\n        /* \"assignment contracts/W5 Auction.sol\":1876:2146  AuctionItem({... */\n      dup2\n      mstore\n      0x20\n      add\n        /* \"assignment contracts/W5 Auction.sol\":1946:1956  msg.sender */\n      caller\n        /* \"assignment contracts/W5 Auction.sol\":1876:2146  AuctionItem({... */\n      0xffffffffffffffffffffffffffffffffffffffff\n      and\n      dup2\n      mstore\n      0x20\n      add\n        /* \"assignment contracts/W5 Auction.sol\":1979:1986  _minBid */\n      dup5\n        /* \"assignment contracts/W5 Auction.sol\":1876:2146  AuctionItem({... */\n      dup2\n      mstore\n      0x20\n      add\n        /* \"assignment contracts/W5 Auction.sol\":2013:2014  0 */\n      0x00\n        /* \"assignment contracts/W5 Auction.sol\":1876:2146  AuctionItem({... */\n      dup2\n      mstore\n      0x20\n      add\n        /* \"assignment contracts/W5 Auction.sol\":2052:2053  0 */\n      0x00\n        /* \"assignment contracts/W5 Auction.sol\":1876:2146  AuctionItem({... */\n      0xffffffffffffffffffffffffffffffffffffffff\n      and\n      dup2\n      mstore\n      0x20\n      add\n        /* \"assignment contracts/W5 Auction.sol\":2079:2083  true */\n      0x01\n        /* \"assignment contracts/W5 Auction.sol\":1876:2146  AuctionItem({... */\n      iszero\n      iszero\n      dup2\n      mstore\n      0x20\n      add\n        /* \"assignment contracts/W5 Auction.sol\":2125:2134  _duration */\n      dup4\n        /* \"assignment contracts/W5 Auction.sol\":2107:2122  block.timestamp */\n      timestamp\n        /* \"assignment contracts/W5 Auction.sol\":2107:2134  block.timestamp + _duration */\n      tag_60\n      swap2\n      swap1\n      tag_61\n      jump\t// in\n    tag_60:\n        /* \"assignment contracts/W5 Auction.sol\":1876:2146  AuctionItem({... */\n      dup2\n      mstore\n      pop\n        /* \"assignment contracts/W5 Auction.sol\":1862:2147  auctions.push(AuctionItem({... */\n      swap1\n      dup1\n      0x01\n      dup2\n      sload\n      add\n      dup1\n      dup3\n      sstore\n      dup1\n      swap2\n      pop\n      pop\n      0x01\n      swap1\n      sub\n      swap1\n      0x00\n      mstore\n      keccak256(0x00, 0x20)\n      swap1\n      0x06\n      mul\n      add\n      0x00\n      swap1\n      swap2\n      swap1\n      swap2\n      swap1\n      swap2\n      pop\n      0x00\n      dup3\n      add\n      mload\n      dup2\n      0x00\n      add\n      sstore\n      0x20\n      dup3\n      add\n      mload\n      dup2\n      0x01\n      add\n      exp(0x0100, 0x00)\n      dup2\n      sload\n      dup2\n      0xffffffffffffffffffffffffffffffffffffffff\n      mul\n      not\n      and\n      swap1\n      dup4\n      0xffffffffffffffffffffffffffffffffffffffff\n      and\n      mul\n      or\n      swap1\n      sstore\n      pop\n      0x40\n      dup3\n      add\n      mload\n      dup2\n      0x02\n      add\n      sstore\n      0x60\n      dup3\n      add\n      mload\n      dup2\n      0x03\n      add\n      sstore\n      0x80\n      dup3\n      add\n      mload\n      dup2\n      0x04\n      add\n      exp(0x0100, 0x00)\n      dup2\n      sload\n      dup2\n      0xffffffffffffffffffffffffffffffffffffffff\n      mul\n      not\n      and\n      swap1\n      dup4\n      0xffffffffffffffffffffffffffffffffffffffff\n      and\n      mul\n      or\n      swap1\n      sstore\n      pop\n      0xa0\n      dup3\n      add\n      mload\n      dup2\n      0x04\n      add\n      exp(0x0100, 0x14)\n      dup2\n      sload\n      dup2\n      0xff\n      mul\n      not\n      and\n      swap1\n      dup4\n      iszero\n      iszero\n      mul\n      or\n      swap1\n      sstore\n      pop\n      0xc0\n      dup3\n      add\n      mload\n      dup2\n      0x05\n      add\n      sstore\n      pop\n      pop\n        /* \"assignment contracts/W5 Auction.sol\":2198:2208  msg.sender */\n      caller\n        /* \"assignment contracts/W5 Auction.sol\":2165:2247  AuctionCreated(auctionIdCounter, msg.sender, _minBid, block.timestamp + _duration) */\n      0xffffffffffffffffffffffffffffffffffffffff\n      and\n      0xc9050d42180a61cb0d9ebb8ad118b62fe6eab12cf12ff752c4a0cc7da9ddf627\n        /* \"assignment contracts/W5 Auction.sol\":2180:2196  auctionIdCounter */\n      sload(0x04)\n        /* \"assignment contracts/W5 Auction.sol\":2210:2217  _minBid */\n      dup5\n        /* \"assignment contracts/W5 Auction.sol\":2237:2246  _duration */\n      dup5\n        /* \"assignment contracts/W5 Auction.sol\":2219:2234  block.timestamp */\n      timestamp\n        /* \"assignment contracts/W5 Auction.sol\":2219:2246  block.timestamp + _duration */\n      tag_63\n      swap2\n      swap1\n      tag_61\n      jump\t// in\n    tag_63:\n        /* \"assignment contracts/W5 Auction.sol\":2165:2247  AuctionCreated(auctionIdCounter, msg.sender, _minBid, block.timestamp + _duration) */\n      mload(0x40)\n      tag_64\n      swap4\n      swap3\n      swap2\n      swap1\n      tag_65\n      jump\t// in\n    tag_64:\n      mload(0x40)\n      dup1\n      swap2\n      sub\n      swap1\n      log2\n        /* \"assignment contracts/W5 Auction.sol\":2260:2276  auctionIdCounter */\n      0x04\n      0x00\n        /* \"assignment contracts/W5 Auction.sol\":2260:2278  auctionIdCounter++ */\n      dup2\n      sload\n      dup1\n      swap3\n      swap2\n      swap1\n      tag_66\n      swap1\n      tag_67\n      jump\t// in\n    tag_66:\n      swap2\n      swap1\n      pop\n      sstore\n      pop\n        /* \"assignment contracts/W5 Auction.sol\":1636:2286  function createAuction(uint256 _minBid, uint256 _duration) external {... */\n      pop\n      pop\n      jump\t// out\n        /* \"assignment contracts/W5 Auction.sol\":793:852  mapping(address => uint256) public sellerPendingWithdrawals */\n    tag_21:\n      mstore(0x20, 0x02)\n      dup1\n      0x00\n      mstore\n      keccak256(0x00, 0x40)\n      0x00\n      swap2\n      pop\n      swap1\n      pop\n      sload\n      dup2\n      jump\t// out\n        /* \"assignment contracts/W5 Auction.sol\":4832:5429  function withdrawSellerFunds() external {... */\n    tag_25:\n        /* \"assignment contracts/W5 Auction.sol\":4883:4897  uint256 amount */\n      0x00\n        /* \"assignment contracts/W5 Auction.sol\":4900:4924  sellerPendingWithdrawals */\n      0x02\n        /* \"assignment contracts/W5 Auction.sol\":4900:4936  sellerPendingWithdrawals[msg.sender] */\n      0x00\n        /* \"assignment contracts/W5 Auction.sol\":4925:4935  msg.sender */\n      caller\n        /* \"assignment contracts/W5 Auction.sol\":4900:4936  sellerPendingWithdrawals[msg.sender] */\n      0xffffffffffffffffffffffffffffffffffffffff\n      and\n      0xffffffffffffffffffffffffffffffffffffffff\n      and\n      dup2\n      mstore\n      0x20\n      add\n      swap1\n      dup2\n      mstore\n      0x20\n      add\n      0x00\n      keccak256\n      sload\n        /* \"assignment contracts/W5 Auction.sol\":4883:4936  uint256 amount = sellerPendingWithdrawals[msg.sender] */\n      swap1\n      pop\n        /* \"assignment contracts/W5 Auction.sol\":4964:4965  0 */\n      0x00\n        /* \"assignment contracts/W5 Auction.sol\":4955:4961  amount */\n      dup2\n        /* \"assignment contracts/W5 Auction.sol\":4955:4965  amount > 0 */\n      gt\n        /* \"assignment contracts/W5 Auction.sol\":4947:4987  require(amount > 0, \"No pending funds.\") */\n      tag_69\n      jumpi\n      mload(0x40)\n      0x08c379a000000000000000000000000000000000000000000000000000000000\n      dup2\n      mstore\n      0x04\n      add\n      tag_70\n      swap1\n      tag_71\n      jump\t// in\n    tag_70:\n      mload(0x40)\n      dup1\n      swap2\n      sub\n      swap1\n      revert\n    tag_69:\n        /* \"assignment contracts/W5 Auction.sol\":5037:5038  0 */\n      0x00\n        /* \"assignment contracts/W5 Auction.sol\":4998:5022  sellerPendingWithdrawals */\n      0x02\n        /* \"assignment contracts/W5 Auction.sol\":4998:5034  sellerPendingWithdrawals[msg.sender] */\n      0x00\n        /* \"assignment contracts/W5 Auction.sol\":5023:5033  msg.sender */\n      caller\n        /* \"assignment contracts/W5 Auction.sol\":4998:5034  sellerPendingWithdrawals[msg.sender] */\n      0xffffffffffffffffffffffffffffffffffffffff\n      and\n      0xffffffffffffffffffffffffffffffffffffffff\n      and\n      dup2\n      mstore\n      0x20\n      add\n      swap1\n      dup2\n      mstore\n      0x20\n      add\n      0x00\n      keccak256\n        /* \"assignment contracts/W5 Auction.sol\":4998:5038  sellerPendingWithdrawals[msg.sender] = 0 */\n      dup2\n      swap1\n      sstore\n      pop\n        /* \"assignment contracts/W5 Auction.sol\":5138:5143  token */\n      0x00\n      dup1\n      sload\n      swap1\n      0x0100\n      exp\n      swap1\n      div\n      0xffffffffffffffffffffffffffffffffffffffff\n      and\n        /* \"assignment contracts/W5 Auction.sol\":5138:5152  token.transfer */\n      0xffffffffffffffffffffffffffffffffffffffff\n      and\n      0xa9059cbb\n        /* \"assignment contracts/W5 Auction.sol\":5153:5163  msg.sender */\n      caller\n        /* \"assignment contracts/W5 Auction.sol\":5165:5171  amount */\n      dup4\n        /* \"assignment contracts/W5 Auction.sol\":5138:5172  token.transfer(msg.sender, amount) */\n      mload(0x40)\n      dup4\n      0xffffffff\n      and\n      0xe0\n      shl\n      dup2\n      mstore\n      0x04\n      add\n      tag_72\n      swap3\n      swap2\n      swap1\n      tag_73\n      jump\t// in\n    tag_72:\n      0x20\n      mload(0x40)\n      dup1\n      dup4\n      sub\n      dup2\n      0x00\n      dup8\n      gas\n      call\n      swap3\n      pop\n      pop\n      pop\n      dup1\n      iszero\n      tag_74\n      jumpi\n      pop\n      mload(0x40)\n      returndatasize\n      not(0x1f)\n      0x1f\n      dup3\n      add\n      and\n      dup3\n      add\n      dup1\n      0x40\n      mstore\n      pop\n      dup2\n      add\n      swap1\n      tag_75\n      swap2\n      swap1\n      tag_76\n      jump\t// in\n    tag_75:\n      0x01\n    tag_74:\n        /* \"assignment contracts/W5 Auction.sol\":5134:5422  try token.transfer(msg.sender, amount) {... */\n      tag_77\n      jumpi\n        /* \"assignment contracts/W5 Auction.sol\":5363:5369  amount */\n      dup1\n        /* \"assignment contracts/W5 Auction.sol\":5324:5348  sellerPendingWithdrawals */\n      0x02\n        /* \"assignment contracts/W5 Auction.sol\":5324:5360  sellerPendingWithdrawals[msg.sender] */\n      0x00\n        /* \"assignment contracts/W5 Auction.sol\":5349:5359  msg.sender */\n      caller\n        /* \"assignment contracts/W5 Auction.sol\":5324:5360  sellerPendingWithdrawals[msg.sender] */\n      0xffffffffffffffffffffffffffffffffffffffff\n      and\n      0xffffffffffffffffffffffffffffffffffffffff\n      and\n      dup2\n      mstore\n      0x20\n      add\n      swap1\n      dup2\n      mstore\n      0x20\n      add\n      0x00\n      keccak256\n        /* \"assignment contracts/W5 Auction.sol\":5324:5369  sellerPendingWithdrawals[msg.sender] = amount */\n      dup2\n      swap1\n      sstore\n      pop\n        /* \"assignment contracts/W5 Auction.sol\":5384:5410  revert(\"Withdraw failed.\") */\n      mload(0x40)\n      0x08c379a000000000000000000000000000000000000000000000000000000000\n      dup2\n      mstore\n      0x04\n      add\n      tag_81\n      swap1\n      tag_82\n      jump\t// in\n    tag_81:\n      mload(0x40)\n      dup1\n      swap2\n      sub\n      swap1\n      revert\n        /* \"assignment contracts/W5 Auction.sol\":5134:5422  try token.transfer(msg.sender, amount) {... */\n    tag_77:\n      pop\n        /* \"assignment contracts/W5 Auction.sol\":4872:5429  {... */\n      pop\n        /* \"assignment contracts/W5 Auction.sol\":4832:5429  function withdrawSellerFunds() external {... */\n      jump\t// out\n        /* \"assignment contracts/W5 Auction.sol\":887:916  AuctionItem[] public auctions */\n    tag_29:\n      0x03\n      dup2\n      dup2\n      sload\n      dup2\n      lt\n      tag_84\n      jumpi\n      0x00\n      dup1\n      revert\n    tag_84:\n      swap1\n      0x00\n      mstore\n      keccak256(0x00, 0x20)\n      swap1\n      0x06\n      mul\n      add\n      0x00\n      swap2\n      pop\n      swap1\n      pop\n      dup1\n      0x00\n      add\n      sload\n      swap1\n      dup1\n      0x01\n      add\n      0x00\n      swap1\n      sload\n      swap1\n      0x0100\n      exp\n      swap1\n      div\n      0xffffffffffffffffffffffffffffffffffffffff\n      and\n      swap1\n      dup1\n      0x02\n      add\n      sload\n      swap1\n      dup1\n      0x03\n      add\n      sload\n      swap1\n      dup1\n      0x04\n      add\n      0x00\n      swap1\n      sload\n      swap1\n      0x0100\n      exp\n      swap1\n      div\n      0xffffffffffffffffffffffffffffffffffffffff\n      and\n      swap1\n      dup1\n      0x04\n      add\n      0x14\n      swap1\n      sload\n      swap1\n      0x0100\n      exp\n      swap1\n      div\n      0xff\n      and\n      swap1\n      dup1\n      0x05\n      add\n      sload\n      swap1\n      pop\n      dup8\n      jump\t// out\n        /* \"assignment contracts/W5 Auction.sol\":2336:3681  function placeBid(uint256 _auctionId, uint256 _bidAmount) external {... */\n    tag_34:\n        /* \"assignment contracts/W5 Auction.sol\":2435:2443  auctions */\n      0x03\n        /* \"assignment contracts/W5 Auction.sol\":2435:2450  auctions.length */\n      dup1\n      sload\n      swap1\n      pop\n        /* \"assignment contracts/W5 Auction.sol\":2422:2432  _auctionId */\n      dup3\n        /* \"assignment contracts/W5 Auction.sol\":2422:2450  _auctionId < auctions.length */\n      lt\n        /* \"assignment contracts/W5 Auction.sol\":2414:2478  require(_auctionId < auctions.length, \"Auction does not exist.\") */\n      tag_87\n      jumpi\n      mload(0x40)\n      0x08c379a000000000000000000000000000000000000000000000000000000000\n      dup2\n      mstore\n      0x04\n      add\n      tag_88\n      swap1\n      tag_89\n      jump\t// in\n    tag_88:\n      mload(0x40)\n      dup1\n      swap2\n      sub\n      swap1\n      revert\n    tag_87:\n        /* \"assignment contracts/W5 Auction.sol\":2489:2516  AuctionItem storage auction */\n      0x00\n        /* \"assignment contracts/W5 Auction.sol\":2519:2527  auctions */\n      0x03\n        /* \"assignment contracts/W5 Auction.sol\":2528:2538  _auctionId */\n      dup4\n        /* \"assignment contracts/W5 Auction.sol\":2519:2539  auctions[_auctionId] */\n      dup2\n      sload\n      dup2\n      lt\n      tag_90\n      jumpi\n      tag_91\n      tag_92\n      jump\t// in\n    tag_91:\n    tag_90:\n      swap1\n      0x00\n      mstore\n      keccak256(0x00, 0x20)\n      swap1\n      0x06\n      mul\n      add\n        /* \"assignment contracts/W5 Auction.sol\":2489:2539  AuctionItem storage auction = auctions[_auctionId] */\n      swap1\n      pop\n        /* \"assignment contracts/W5 Auction.sol\":2558:2565  auction */\n      dup1\n        /* \"assignment contracts/W5 Auction.sol\":2558:2574  auction.isActive */\n      0x04\n      add\n      0x14\n      swap1\n      sload\n      swap1\n      0x0100\n      exp\n      swap1\n      div\n      0xff\n      and\n        /* \"assignment contracts/W5 Auction.sol\":2550:2601  require(auction.isActive, \"Auction is not active.\") */\n      tag_94\n      jumpi\n      mload(0x40)\n      0x08c379a000000000000000000000000000000000000000000000000000000000\n      dup2\n      mstore\n      0x04\n      add\n      tag_95\n      swap1\n      tag_96\n      jump\t// in\n    tag_95:\n      mload(0x40)\n      dup1\n      swap2\n      sub\n      swap1\n      revert\n    tag_94:\n        /* \"assignment contracts/W5 Auction.sol\":2638:2645  auction */\n      dup1\n        /* \"assignment contracts/W5 Auction.sol\":2638:2653  auction.endTime */\n      0x05\n      add\n      sload\n        /* \"assignment contracts/W5 Auction.sol\":2620:2635  block.timestamp */\n      timestamp\n        /* \"assignment contracts/W5 Auction.sol\":2620:2653  block.timestamp < auction.endTime */\n      lt\n        /* \"assignment contracts/W5 Auction.sol\":2612:2676  require(block.timestamp < auction.endTime, \"Auction has ended.\") */\n      tag_97\n      jumpi\n      mload(0x40)\n      0x08c379a000000000000000000000000000000000000000000000000000000000\n      dup2\n      mstore\n      0x04\n      add\n      tag_98\n      swap1\n      tag_99\n      jump\t// in\n    tag_98:\n      mload(0x40)\n      dup1\n      swap2\n      sub\n      swap1\n      revert\n    tag_97:\n        /* \"assignment contracts/W5 Auction.sol\":2708:2715  auction */\n      dup1\n        /* \"assignment contracts/W5 Auction.sol\":2708:2726  auction.highestBid */\n      0x03\n      add\n      sload\n        /* \"assignment contracts/W5 Auction.sol\":2695:2705  _bidAmount */\n      dup3\n        /* \"assignment contracts/W5 Auction.sol\":2695:2726  _bidAmount > auction.highestBid */\n      gt\n        /* \"assignment contracts/W5 Auction.sol\":2687:2779  require(_bidAmount > auction.highestBid, \"Bid must be higher than the current highest bid.\") */\n      tag_100\n      jumpi\n      mload(0x40)\n      0x08c379a000000000000000000000000000000000000000000000000000000000\n      dup2\n      mstore\n      0x04\n      add\n      tag_101\n      swap1\n      tag_102\n      jump\t// in\n    tag_101:\n      mload(0x40)\n      dup1\n      swap2\n      sub\n      swap1\n      revert\n    tag_100:\n        /* \"assignment contracts/W5 Auction.sol\":2812:2819  auction */\n      dup1\n        /* \"assignment contracts/W5 Auction.sol\":2812:2826  auction.minBid */\n      0x02\n      add\n      sload\n        /* \"assignment contracts/W5 Auction.sol\":2798:2808  _bidAmount */\n      dup3\n        /* \"assignment contracts/W5 Auction.sol\":2798:2826  _bidAmount >= auction.minBid */\n      lt\n      iszero\n        /* \"assignment contracts/W5 Auction.sol\":2790:2868  require(_bidAmount >= auction.minBid, \"Bid must meet the minimum bid amount.\") */\n      tag_103\n      jumpi\n      mload(0x40)\n      0x08c379a000000000000000000000000000000000000000000000000000000000\n      dup2\n      mstore\n      0x04\n      add\n      tag_104\n      swap1\n      tag_105\n      jump\t// in\n    tag_104:\n      mload(0x40)\n      dup1\n      swap2\n      sub\n      swap1\n      revert\n    tag_103:\n        /* \"assignment contracts/W5 Auction.sol\":2924:2929  token */\n      0x00\n      dup1\n      sload\n      swap1\n      0x0100\n      exp\n      swap1\n      div\n      0xffffffffffffffffffffffffffffffffffffffff\n      and\n        /* \"assignment contracts/W5 Auction.sol\":2924:2942  token.transferFrom */\n      0xffffffffffffffffffffffffffffffffffffffff\n      and\n      0x23b872dd\n        /* \"assignment contracts/W5 Auction.sol\":2943:2953  msg.sender */\n      caller\n        /* \"assignment contracts/W5 Auction.sol\":2963:2967  this */\n      address\n        /* \"assignment contracts/W5 Auction.sol\":2970:2980  _bidAmount */\n      dup6\n        /* \"assignment contracts/W5 Auction.sol\":2924:2981  token.transferFrom(msg.sender, address(this), _bidAmount) */\n      mload(0x40)\n      dup5\n      0xffffffff\n      and\n      0xe0\n      shl\n      dup2\n      mstore\n      0x04\n      add\n      tag_106\n      swap4\n      swap3\n      swap2\n      swap1\n      tag_107\n      jump\t// in\n    tag_106:\n      0x20\n      mload(0x40)\n      dup1\n      dup4\n      sub\n      dup2\n      0x00\n      dup8\n      gas\n      call\n      swap3\n      pop\n      pop\n      pop\n      dup1\n      iszero\n      tag_108\n      jumpi\n      pop\n      mload(0x40)\n      returndatasize\n      not(0x1f)\n      0x1f\n      dup3\n      add\n      and\n      dup3\n      add\n      dup1\n      0x40\n      mstore\n      pop\n      dup2\n      add\n      swap1\n      tag_109\n      swap2\n      swap1\n      tag_76\n      jump\t// in\n    tag_109:\n      0x01\n    tag_108:\n        /* \"assignment contracts/W5 Auction.sol\":2920:3674  try token.transferFrom(msg.sender, address(this), _bidAmount) {... */\n      tag_110\n      jumpi\n        /* \"assignment contracts/W5 Auction.sol\":3630:3662  revert(\"Token transfer failed.\") */\n      mload(0x40)\n      0x08c379a000000000000000000000000000000000000000000000000000000000\n      dup2\n      mstore\n      0x04\n      add\n      tag_114\n      swap1\n      tag_115\n      jump\t// in\n    tag_114:\n      mload(0x40)\n      dup1\n      swap2\n      sub\n      swap1\n      revert\n        /* \"assignment contracts/W5 Auction.sol\":2920:3674  try token.transferFrom(msg.sender, address(this), _bidAmount) {... */\n    tag_110:\n      pop\n        /* \"assignment contracts/W5 Auction.sol\":3076:3077  0 */\n      0x00\n        /* \"assignment contracts/W5 Auction.sol\":3055:3062  auction */\n      dup2\n        /* \"assignment contracts/W5 Auction.sol\":3055:3073  auction.highestBid */\n      0x03\n      add\n      sload\n        /* \"assignment contracts/W5 Auction.sol\":3055:3077  auction.highestBid > 0 */\n      gt\n        /* \"assignment contracts/W5 Auction.sol\":3051:3398  if (auction.highestBid > 0) {... */\n      iszero\n      tag_117\n      jumpi\n        /* \"assignment contracts/W5 Auction.sol\":3102:3107  token */\n      0x00\n      dup1\n      sload\n      swap1\n      0x0100\n      exp\n      swap1\n      div\n      0xffffffffffffffffffffffffffffffffffffffff\n      and\n        /* \"assignment contracts/W5 Auction.sol\":3102:3116  token.transfer */\n      0xffffffffffffffffffffffffffffffffffffffff\n      and\n      0xa9059cbb\n        /* \"assignment contracts/W5 Auction.sol\":3117:3124  auction */\n      dup3\n        /* \"assignment contracts/W5 Auction.sol\":3117:3138  auction.highestBidder */\n      0x04\n      add\n      0x00\n      swap1\n      sload\n      swap1\n      0x0100\n      exp\n      swap1\n      div\n      0xffffffffffffffffffffffffffffffffffffffff\n      and\n        /* \"assignment contracts/W5 Auction.sol\":3140:3147  auction */\n      dup4\n        /* \"assignment contracts/W5 Auction.sol\":3140:3158  auction.highestBid */\n      0x03\n      add\n      sload\n        /* \"assignment contracts/W5 Auction.sol\":3102:3159  token.transfer(auction.highestBidder, auction.highestBid) */\n      mload(0x40)\n      dup4\n      0xffffffff\n      and\n      0xe0\n      shl\n      dup2\n      mstore\n      0x04\n      add\n      tag_118\n      swap3\n      swap2\n      swap1\n      tag_73\n      jump\t// in\n    tag_118:\n      0x20\n      mload(0x40)\n      dup1\n      dup4\n      sub\n      dup2\n      0x00\n      dup8\n      gas\n      call\n      swap3\n      pop\n      pop\n      pop\n      dup1\n      iszero\n      tag_119\n      jumpi\n      pop\n      mload(0x40)\n      returndatasize\n      not(0x1f)\n      0x1f\n      dup3\n      add\n      and\n      dup3\n      add\n      dup1\n      0x40\n      mstore\n      pop\n      dup2\n      add\n      swap1\n      tag_120\n      swap2\n      swap1\n      tag_76\n      jump\t// in\n    tag_120:\n      0x01\n    tag_119:\n        /* \"assignment contracts/W5 Auction.sol\":3098:3383  try token.transfer(auction.highestBidder, auction.highestBid) {... */\n      tag_121\n      jumpi\n        /* \"assignment contracts/W5 Auction.sol\":3345:3352  auction */\n      dup1\n        /* \"assignment contracts/W5 Auction.sol\":3345:3363  auction.highestBid */\n      0x03\n      add\n      sload\n        /* \"assignment contracts/W5 Auction.sol\":3300:3318  pendingWithdrawals */\n      0x01\n        /* \"assignment contracts/W5 Auction.sol\":3300:3341  pendingWithdrawals[auction.highestBidder] */\n      0x00\n        /* \"assignment contracts/W5 Auction.sol\":3319:3326  auction */\n      dup4\n        /* \"assignment contracts/W5 Auction.sol\":3319:3340  auction.highestBidder */\n      0x04\n      add\n      0x00\n      swap1\n      sload\n      swap1\n      0x0100\n      exp\n      swap1\n      div\n      0xffffffffffffffffffffffffffffffffffffffff\n      and\n        /* \"assignment contracts/W5 Auction.sol\":3300:3341  pendingWithdrawals[auction.highestBidder] */\n      0xffffffffffffffffffffffffffffffffffffffff\n      and\n      0xffffffffffffffffffffffffffffffffffffffff\n      and\n      dup2\n      mstore\n      0x20\n      add\n      swap1\n      dup2\n      mstore\n      0x20\n      add\n      0x00\n      keccak256\n      0x00\n        /* \"assignment contracts/W5 Auction.sol\":3300:3363  pendingWithdrawals[auction.highestBidder] += auction.highestBid */\n      dup3\n      dup3\n      sload\n      tag_125\n      swap2\n      swap1\n      tag_61\n      jump\t// in\n    tag_125:\n      swap3\n      pop\n      pop\n      dup2\n      swap1\n      sstore\n      pop\n        /* \"assignment contracts/W5 Auction.sol\":3098:3383  try token.transfer(auction.highestBidder, auction.highestBid) {... */\n      jump(tag_126)\n    tag_121:\n      pop\n    tag_126:\n        /* \"assignment contracts/W5 Auction.sol\":3051:3398  if (auction.highestBid > 0) {... */\n    tag_117:\n        /* \"assignment contracts/W5 Auction.sol\":3470:3480  _bidAmount */\n      dup2\n        /* \"assignment contracts/W5 Auction.sol\":3449:3456  auction */\n      dup2\n        /* \"assignment contracts/W5 Auction.sol\":3449:3467  auction.highestBid */\n      0x03\n      add\n        /* \"assignment contracts/W5 Auction.sol\":3449:3480  auction.highestBid = _bidAmount */\n      dup2\n      swap1\n      sstore\n      pop\n        /* \"assignment contracts/W5 Auction.sol\":3519:3529  msg.sender */\n      caller\n        /* \"assignment contracts/W5 Auction.sol\":3495:3502  auction */\n      dup2\n        /* \"assignment contracts/W5 Auction.sol\":3495:3516  auction.highestBidder */\n      0x04\n      add\n      0x00\n        /* \"assignment contracts/W5 Auction.sol\":3495:3529  auction.highestBidder = msg.sender */\n      0x0100\n      exp\n      dup2\n      sload\n      dup2\n      0xffffffffffffffffffffffffffffffffffffffff\n      mul\n      not\n      and\n      swap1\n      dup4\n      0xffffffffffffffffffffffffffffffffffffffff\n      and\n      mul\n      or\n      swap1\n      sstore\n      pop\n        /* \"assignment contracts/W5 Auction.sol\":3573:3583  msg.sender */\n      caller\n        /* \"assignment contracts/W5 Auction.sol\":3551:3596  BidPlaced(_auctionId, msg.sender, _bidAmount) */\n      0xffffffffffffffffffffffffffffffffffffffff\n      and\n        /* \"assignment contracts/W5 Auction.sol\":3561:3571  _auctionId */\n      dup4\n        /* \"assignment contracts/W5 Auction.sol\":3551:3596  BidPlaced(_auctionId, msg.sender, _bidAmount) */\n      0x0e54eff26401bf69b81b26f60bd85ef47f5d85275c1d268d84f68d6897431c47\n        /* \"assignment contracts/W5 Auction.sol\":3585:3595  _bidAmount */\n      dup5\n        /* \"assignment contracts/W5 Auction.sol\":3551:3596  BidPlaced(_auctionId, msg.sender, _bidAmount) */\n      mload(0x40)\n      tag_127\n      swap2\n      swap1\n      tag_23\n      jump\t// in\n    tag_127:\n      mload(0x40)\n      dup1\n      swap2\n      sub\n      swap1\n      log3\n        /* \"assignment contracts/W5 Auction.sol\":2403:3681  {... */\n      pop\n        /* \"assignment contracts/W5 Auction.sol\":2336:3681  function placeBid(uint256 _auctionId, uint256 _bidAmount) external {... */\n      pop\n      pop\n      jump\t// out\n        /* \"assignment contracts/W5 Auction.sol\":956:987  uint256 public auctionIdCounter */\n    tag_36:\n      sload(0x04)\n      dup2\n      jump\t// out\n        /* \"assignment contracts/W5 Auction.sol\":3763:4775  function finalizeAuction(uint256 _auctionId) external {... */\n    tag_40:\n        /* \"assignment contracts/W5 Auction.sol\":3849:3857  auctions */\n      0x03\n        /* \"assignment contracts/W5 Auction.sol\":3849:3864  auctions.length */\n      dup1\n      sload\n      swap1\n      pop\n        /* \"assignment contracts/W5 Auction.sol\":3836:3846  _auctionId */\n      dup2\n        /* \"assignment contracts/W5 Auction.sol\":3836:3864  _auctionId < auctions.length */\n      lt\n        /* \"assignment contracts/W5 Auction.sol\":3828:3892  require(_auctionId < auctions.length, \"Auction does not exist.\") */\n      tag_129\n      jumpi\n      mload(0x40)\n      0x08c379a000000000000000000000000000000000000000000000000000000000\n      dup2\n      mstore\n      0x04\n      add\n      tag_130\n      swap1\n      tag_89\n      jump\t// in\n    tag_130:\n      mload(0x40)\n      dup1\n      swap2\n      sub\n      swap1\n      revert\n    tag_129:\n        /* \"assignment contracts/W5 Auction.sol\":3903:3930  AuctionItem storage auction */\n      0x00\n        /* \"assignment contracts/W5 Auction.sol\":3933:3941  auctions */\n      0x03\n        /* \"assignment contracts/W5 Auction.sol\":3942:3952  _auctionId */\n      dup3\n        /* \"assignment contracts/W5 Auction.sol\":3933:3953  auctions[_auctionId] */\n      dup2\n      sload\n      dup2\n      lt\n      tag_131\n      jumpi\n      tag_132\n      tag_92\n      jump\t// in\n    tag_132:\n    tag_131:\n      swap1\n      0x00\n      mstore\n      keccak256(0x00, 0x20)\n      swap1\n      0x06\n      mul\n      add\n        /* \"assignment contracts/W5 Auction.sol\":3903:3953  AuctionItem storage auction = auctions[_auctionId] */\n      swap1\n      pop\n        /* \"assignment contracts/W5 Auction.sol\":3991:3998  auction */\n      dup1\n        /* \"assignment contracts/W5 Auction.sol\":3991:4006  auction.endTime */\n      0x05\n      add\n      sload\n        /* \"assignment contracts/W5 Auction.sol\":3972:3987  block.timestamp */\n      timestamp\n        /* \"assignment contracts/W5 Auction.sol\":3972:4006  block.timestamp >= auction.endTime */\n      lt\n      iszero\n        /* \"assignment contracts/W5 Auction.sol\":3964:4033  require(block.timestamp >= auction.endTime, \"Auction has not ended.\") */\n      tag_134\n      jumpi\n      mload(0x40)\n      0x08c379a000000000000000000000000000000000000000000000000000000000\n      dup2\n      mstore\n      0x04\n      add\n      tag_135\n      swap1\n      tag_136\n      jump\t// in\n    tag_135:\n      mload(0x40)\n      dup1\n      swap2\n      sub\n      swap1\n      revert\n    tag_134:\n        /* \"assignment contracts/W5 Auction.sol\":4052:4059  auction */\n      dup1\n        /* \"assignment contracts/W5 Auction.sol\":4052:4068  auction.isActive */\n      0x04\n      add\n      0x14\n      swap1\n      sload\n      swap1\n      0x0100\n      exp\n      swap1\n      div\n      0xff\n      and\n        /* \"assignment contracts/W5 Auction.sol\":4044:4095  require(auction.isActive, \"Auction is not active.\") */\n      tag_137\n      jumpi\n      mload(0x40)\n      0x08c379a000000000000000000000000000000000000000000000000000000000\n      dup2\n      mstore\n      0x04\n      add\n      tag_138\n      swap1\n      tag_96\n      jump\t// in\n    tag_138:\n      mload(0x40)\n      dup1\n      swap2\n      sub\n      swap1\n      revert\n    tag_137:\n        /* \"assignment contracts/W5 Auction.sol\":4127:4132  false */\n      0x00\n        /* \"assignment contracts/W5 Auction.sol\":4108:4115  auction */\n      dup2\n        /* \"assignment contracts/W5 Auction.sol\":4108:4124  auction.isActive */\n      0x04\n      add\n      0x14\n        /* \"assignment contracts/W5 Auction.sol\":4108:4132  auction.isActive = false */\n      0x0100\n      exp\n      dup2\n      sload\n      dup2\n      0xff\n      mul\n      not\n      and\n      swap1\n      dup4\n      iszero\n      iszero\n      mul\n      or\n      swap1\n      sstore\n      pop\n        /* \"assignment contracts/W5 Auction.sol\":4170:4171  0 */\n      0x00\n        /* \"assignment contracts/W5 Auction.sol\":4149:4156  auction */\n      dup2\n        /* \"assignment contracts/W5 Auction.sol\":4149:4167  auction.highestBid */\n      0x03\n      add\n      sload\n        /* \"assignment contracts/W5 Auction.sol\":4149:4171  auction.highestBid > 0 */\n      gt\n        /* \"assignment contracts/W5 Auction.sol\":4145:4768  if (auction.highestBid > 0) {... */\n      iszero\n      tag_139\n      jumpi\n        /* \"assignment contracts/W5 Auction.sol\":4241:4246  token */\n      0x00\n      dup1\n      sload\n      swap1\n      0x0100\n      exp\n      swap1\n      div\n      0xffffffffffffffffffffffffffffffffffffffff\n      and\n        /* \"assignment contracts/W5 Auction.sol\":4241:4255  token.transfer */\n      0xffffffffffffffffffffffffffffffffffffffff\n      and\n      0xa9059cbb\n        /* \"assignment contracts/W5 Auction.sol\":4256:4263  auction */\n      dup3\n        /* \"assignment contracts/W5 Auction.sol\":4256:4270  auction.seller */\n      0x01\n      add\n      0x00\n      swap1\n      sload\n      swap1\n      0x0100\n      exp\n      swap1\n      div\n      0xffffffffffffffffffffffffffffffffffffffff\n      and\n        /* \"assignment contracts/W5 Auction.sol\":4272:4279  auction */\n      dup4\n        /* \"assignment contracts/W5 Auction.sol\":4272:4290  auction.highestBid */\n      0x03\n      add\n      sload\n        /* \"assignment contracts/W5 Auction.sol\":4241:4291  token.transfer(auction.seller, auction.highestBid) */\n      mload(0x40)\n      dup4\n      0xffffffff\n      and\n      0xe0\n      shl\n      dup2\n      mstore\n      0x04\n      add\n      tag_140\n      swap3\n      swap2\n      swap1\n      tag_73\n      jump\t// in\n    tag_140:\n      0x20\n      mload(0x40)\n      dup1\n      dup4\n      sub\n      dup2\n      0x00\n      dup8\n      gas\n      call\n      swap3\n      pop\n      pop\n      pop\n      dup1\n      iszero\n      tag_141\n      jumpi\n      pop\n      mload(0x40)\n      returndatasize\n      not(0x1f)\n      0x1f\n      dup3\n      add\n      and\n      dup3\n      add\n      dup1\n      0x40\n      mstore\n      pop\n      dup2\n      add\n      swap1\n      tag_142\n      swap2\n      swap1\n      tag_76\n      jump\t// in\n    tag_142:\n      0x01\n    tag_141:\n        /* \"assignment contracts/W5 Auction.sol\":4237:4676  try token.transfer(auction.seller, auction.highestBid) {... */\n      tag_143\n      jumpi\n        /* \"assignment contracts/W5 Auction.sol\":4547:4554  auction */\n      dup1\n        /* \"assignment contracts/W5 Auction.sol\":4547:4565  auction.highestBid */\n      0x03\n      add\n      sload\n        /* \"assignment contracts/W5 Auction.sol\":4503:4527  sellerPendingWithdrawals */\n      0x02\n        /* \"assignment contracts/W5 Auction.sol\":4503:4543  sellerPendingWithdrawals[auction.seller] */\n      0x00\n        /* \"assignment contracts/W5 Auction.sol\":4528:4535  auction */\n      dup4\n        /* \"assignment contracts/W5 Auction.sol\":4528:4542  auction.seller */\n      0x01\n      add\n      0x00\n      swap1\n      sload\n      swap1\n      0x0100\n      exp\n      swap1\n      div\n      0xffffffffffffffffffffffffffffffffffffffff\n      and\n        /* \"assignment contracts/W5 Auction.sol\":4503:4543  sellerPendingWithdrawals[auction.seller] */\n      0xffffffffffffffffffffffffffffffffffffffff\n      and\n      0xffffffffffffffffffffffffffffffffffffffff\n      and\n      dup2\n      mstore\n      0x20\n      add\n      swap1\n      dup2\n      mstore\n      0x20\n      add\n      0x00\n      keccak256\n      0x00\n        /* \"assignment contracts/W5 Auction.sol\":4503:4565  sellerPendingWithdrawals[auction.seller] += auction.highestBid */\n      dup3\n      dup3\n      sload\n      tag_147\n      swap2\n      swap1\n      tag_61\n      jump\t// in\n    tag_147:\n      swap3\n      pop\n      pop\n      dup2\n      swap1\n      sstore\n      pop\n        /* \"assignment contracts/W5 Auction.sol\":4618:4625  auction */\n      dup1\n        /* \"assignment contracts/W5 Auction.sol\":4618:4639  auction.highestBidder */\n      0x04\n      add\n      0x00\n      swap1\n      sload\n      swap1\n      0x0100\n      exp\n      swap1\n      div\n      0xffffffffffffffffffffffffffffffffffffffff\n      and\n        /* \"assignment contracts/W5 Auction.sol\":4589:4660  AuctionFinalized(_auctionId, auction.highestBidder, auction.highestBid) */\n      0xffffffffffffffffffffffffffffffffffffffff\n      and\n        /* \"assignment contracts/W5 Auction.sol\":4606:4616  _auctionId */\n      dup3\n        /* \"assignment contracts/W5 Auction.sol\":4589:4660  AuctionFinalized(_auctionId, auction.highestBidder, auction.highestBid) */\n      0x4d9113a1377d665eaa1f9168a9c9080f2e488cb820b10149de3d6d2e0f2780c7\n        /* \"assignment contracts/W5 Auction.sol\":4641:4648  auction */\n      dup4\n        /* \"assignment contracts/W5 Auction.sol\":4641:4659  auction.highestBid */\n      0x03\n      add\n      sload\n        /* \"assignment contracts/W5 Auction.sol\":4589:4660  AuctionFinalized(_auctionId, auction.highestBidder, auction.highestBid) */\n      mload(0x40)\n      tag_148\n      swap2\n      swap1\n      tag_23\n      jump\t// in\n    tag_148:\n      mload(0x40)\n      dup1\n      swap2\n      sub\n      swap1\n      log3\n        /* \"assignment contracts/W5 Auction.sol\":4237:4676  try token.transfer(auction.seller, auction.highestBid) {... */\n      jump(tag_149)\n    tag_143:\n      pop\n        /* \"assignment contracts/W5 Auction.sol\":4345:4352  auction */\n      dup1\n        /* \"assignment contracts/W5 Auction.sol\":4345:4366  auction.highestBidder */\n      0x04\n      add\n      0x00\n      swap1\n      sload\n      swap1\n      0x0100\n      exp\n      swap1\n      div\n      0xffffffffffffffffffffffffffffffffffffffff\n      and\n        /* \"assignment contracts/W5 Auction.sol\":4316:4387  AuctionFinalized(_auctionId, auction.highestBidder, auction.highestBid) */\n      0xffffffffffffffffffffffffffffffffffffffff\n      and\n        /* \"assignment contracts/W5 Auction.sol\":4333:4343  _auctionId */\n      dup3\n        /* \"assignment contracts/W5 Auction.sol\":4316:4387  AuctionFinalized(_auctionId, auction.highestBidder, auction.highestBid) */\n      0x4d9113a1377d665eaa1f9168a9c9080f2e488cb820b10149de3d6d2e0f2780c7\n        /* \"assignment contracts/W5 Auction.sol\":4368:4375  auction */\n      dup4\n        /* \"assignment contracts/W5 Auction.sol\":4368:4386  auction.highestBid */\n      0x03\n      add\n      sload\n        /* \"assignment contracts/W5 Auction.sol\":4316:4387  AuctionFinalized(_auctionId, auction.highestBidder, auction.highestBid) */\n      mload(0x40)\n      tag_150\n      swap2\n      swap1\n      tag_23\n      jump\t// in\n    tag_150:\n      mload(0x40)\n      dup1\n      swap2\n      sub\n      swap1\n      log3\n        /* \"assignment contracts/W5 Auction.sol\":4237:4676  try token.transfer(auction.seller, auction.highestBid) {... */\n    tag_149:\n        /* \"assignment contracts/W5 Auction.sol\":4145:4768  if (auction.highestBid > 0) {... */\n      jump(tag_151)\n    tag_139:\n        /* \"assignment contracts/W5 Auction.sol\":4750:4751  0 */\n      0x00\n        /* \"assignment contracts/W5 Auction.sol\":4713:4756  AuctionFinalized(_auctionId, address(0), 0) */\n      0xffffffffffffffffffffffffffffffffffffffff\n      and\n        /* \"assignment contracts/W5 Auction.sol\":4730:4740  _auctionId */\n      dup3\n        /* \"assignment contracts/W5 Auction.sol\":4713:4756  AuctionFinalized(_auctionId, address(0), 0) */\n      0x4d9113a1377d665eaa1f9168a9c9080f2e488cb820b10149de3d6d2e0f2780c7\n        /* \"assignment contracts/W5 Auction.sol\":4754:4755  0 */\n      0x00\n        /* \"assignment contracts/W5 Auction.sol\":4713:4756  AuctionFinalized(_auctionId, address(0), 0) */\n      mload(0x40)\n      tag_152\n      swap2\n      swap1\n      tag_153\n      jump\t// in\n    tag_152:\n      mload(0x40)\n      dup1\n      swap2\n      sub\n      swap1\n      log3\n        /* \"assignment contracts/W5 Auction.sol\":4145:4768  if (auction.highestBid > 0) {... */\n    tag_151:\n        /* \"assignment contracts/W5 Auction.sol\":3817:4775  {... */\n      pop\n        /* \"assignment contracts/W5 Auction.sol\":3763:4775  function finalizeAuction(uint256 _auctionId) external {... */\n      pop\n      jump\t// out\n        /* \"assignment contracts/W5 Auction.sol\":5490:6206  function getAuctionDetails(uint256 _auctionId)... */\n    tag_43:\n        /* \"assignment contracts/W5 Auction.sol\":5601:5611  uint256 id */\n      0x00\n        /* \"assignment contracts/W5 Auction.sol\":5626:5640  address seller */\n      dup1\n        /* \"assignment contracts/W5 Auction.sol\":5655:5669  uint256 minBid */\n      0x00\n        /* \"assignment contracts/W5 Auction.sol\":5684:5702  uint256 highestBid */\n      dup1\n        /* \"assignment contracts/W5 Auction.sol\":5717:5738  address highestBidder */\n      0x00\n        /* \"assignment contracts/W5 Auction.sol\":5753:5766  bool isActive */\n      dup1\n        /* \"assignment contracts/W5 Auction.sol\":5781:5796  uint256 endTime */\n      0x00\n        /* \"assignment contracts/W5 Auction.sol\":5845:5853  auctions */\n      0x03\n        /* \"assignment contracts/W5 Auction.sol\":5845:5860  auctions.length */\n      dup1\n      sload\n      swap1\n      pop\n        /* \"assignment contracts/W5 Auction.sol\":5832:5842  _auctionId */\n      dup9\n        /* \"assignment contracts/W5 Auction.sol\":5832:5860  _auctionId < auctions.length */\n      lt\n        /* \"assignment contracts/W5 Auction.sol\":5824:5888  require(_auctionId < auctions.length, \"Auction does not exist.\") */\n      tag_155\n      jumpi\n      mload(0x40)\n      0x08c379a000000000000000000000000000000000000000000000000000000000\n      dup2\n      mstore\n      0x04\n      add\n      tag_156\n      swap1\n      tag_89\n      jump\t// in\n    tag_156:\n      mload(0x40)\n      dup1\n      swap2\n      sub\n      swap1\n      revert\n    tag_155:\n        /* \"assignment contracts/W5 Auction.sol\":5905:5931  AuctionItem memory auction */\n      0x00\n        /* \"assignment contracts/W5 Auction.sol\":5934:5942  auctions */\n      0x03\n        /* \"assignment contracts/W5 Auction.sol\":5943:5953  _auctionId */\n      dup10\n        /* \"assignment contracts/W5 Auction.sol\":5934:5954  auctions[_auctionId] */\n      dup2\n      sload\n      dup2\n      lt\n      tag_157\n      jumpi\n      tag_158\n      tag_92\n      jump\t// in\n    tag_158:\n    tag_157:\n      swap1\n      0x00\n      mstore\n      keccak256(0x00, 0x20)\n      swap1\n      0x06\n      mul\n      add\n        /* \"assignment contracts/W5 Auction.sol\":5905:5954  AuctionItem memory auction = auctions[_auctionId] */\n      mload(0x40)\n      dup1\n      0xe0\n      add\n      0x40\n      mstore\n      swap1\n      dup2\n      0x00\n      dup3\n      add\n      sload\n      dup2\n      mstore\n      0x20\n      add\n      0x01\n      dup3\n      add\n      0x00\n      swap1\n      sload\n      swap1\n      0x0100\n      exp\n      swap1\n      div\n      0xffffffffffffffffffffffffffffffffffffffff\n      and\n      0xffffffffffffffffffffffffffffffffffffffff\n      and\n      0xffffffffffffffffffffffffffffffffffffffff\n      and\n      dup2\n      mstore\n      0x20\n      add\n      0x02\n      dup3\n      add\n      sload\n      dup2\n      mstore\n      0x20\n      add\n      0x03\n      dup3\n      add\n      sload\n      dup2\n      mstore\n      0x20\n      add\n      0x04\n      dup3\n      add\n      0x00\n      swap1\n      sload\n      swap1\n      0x0100\n      exp\n      swap1\n      div\n      0xffffffffffffffffffffffffffffffffffffffff\n      and\n      0xffffffffffffffffffffffffffffffffffffffff\n      and\n      0xffffffffffffffffffffffffffffffffffffffff\n      and\n      dup2\n      mstore\n      0x20\n      add\n      0x04\n      dup3\n      add\n      0x14\n      swap1\n      sload\n      swap1\n      0x0100\n      exp\n      swap1\n      div\n      0xff\n      and\n      iszero\n      iszero\n      iszero\n      iszero\n      dup2\n      mstore\n      0x20\n      add\n      0x05\n      dup3\n      add\n      sload\n      dup2\n      mstore\n      pop\n      pop\n      swap1\n      pop\n        /* \"assignment contracts/W5 Auction.sol\":5989:5996  auction */\n      dup1\n        /* \"assignment contracts/W5 Auction.sol\":5989:5999  auction.id */\n      0x00\n      add\n      mload\n        /* \"assignment contracts/W5 Auction.sol\":6014:6021  auction */\n      dup2\n        /* \"assignment contracts/W5 Auction.sol\":6014:6028  auction.seller */\n      0x20\n      add\n      mload\n        /* \"assignment contracts/W5 Auction.sol\":6043:6050  auction */\n      dup3\n        /* \"assignment contracts/W5 Auction.sol\":6043:6057  auction.minBid */\n      0x40\n      add\n      mload\n        /* \"assignment contracts/W5 Auction.sol\":6072:6079  auction */\n      dup4\n        /* \"assignment contracts/W5 Auction.sol\":6072:6090  auction.highestBid */\n      0x60\n      add\n      mload\n        /* \"assignment contracts/W5 Auction.sol\":6105:6112  auction */\n      dup5\n        /* \"assignment contracts/W5 Auction.sol\":6105:6126  auction.highestBidder */\n      0x80\n      add\n      mload\n        /* \"assignment contracts/W5 Auction.sol\":6141:6148  auction */\n      dup6\n        /* \"assignment contracts/W5 Auction.sol\":6141:6157  auction.isActive */\n      0xa0\n      add\n      mload\n        /* \"assignment contracts/W5 Auction.sol\":6172:6179  auction */\n      dup7\n        /* \"assignment contracts/W5 Auction.sol\":6172:6187  auction.endTime */\n      0xc0\n      add\n      mload\n        /* \"assignment contracts/W5 Auction.sol\":5967:6198  return (... */\n      swap8\n      pop\n      swap8\n      pop\n      swap8\n      pop\n      swap8\n      pop\n      swap8\n      pop\n      swap8\n      pop\n      swap8\n      pop\n      pop\n        /* \"assignment contracts/W5 Auction.sol\":5490:6206  function getAuctionDetails(uint256 _auctionId)... */\n      swap2\n      swap4\n      swap6\n      swap8\n      swap1\n      swap3\n      swap5\n      swap7\n      pop\n      jump\t// out\n        /* \"assignment contracts/W5 Auction.sol\":697:750  mapping(address => uint256) public pendingWithdrawals */\n    tag_47:\n      mstore(0x20, 0x01)\n      dup1\n      0x00\n      mstore\n      keccak256(0x00, 0x40)\n      0x00\n      swap2\n      pop\n      swap1\n      pop\n      sload\n      dup2\n      jump\t// out\n        /* \"assignment contracts/W5 Auction.sol\":378:397  IERC20 public token */\n    tag_50:\n      0x00\n      dup1\n      sload\n      swap1\n      0x0100\n      exp\n      swap1\n      div\n      0xffffffffffffffffffffffffffffffffffffffff\n      and\n      dup2\n      jump\t// out\n        /* \"#utility.yul\":88:205   */\n    tag_161:\n        /* \"#utility.yul\":197:198   */\n      0x00\n        /* \"#utility.yul\":194:195   */\n      dup1\n        /* \"#utility.yul\":187:199   */\n      revert\n        /* \"#utility.yul\":334:411   */\n    tag_163:\n        /* \"#utility.yul\":371:378   */\n      0x00\n        /* \"#utility.yul\":400:405   */\n      dup2\n        /* \"#utility.yul\":389:405   */\n      swap1\n      pop\n        /* \"#utility.yul\":334:411   */\n      swap2\n      swap1\n      pop\n      jump\t// out\n        /* \"#utility.yul\":417:539   */\n    tag_164:\n        /* \"#utility.yul\":490:514   */\n      tag_214\n        /* \"#utility.yul\":508:513   */\n      dup2\n        /* \"#utility.yul\":490:514   */\n      tag_163\n      jump\t// in\n    tag_214:\n        /* \"#utility.yul\":483:488   */\n      dup2\n        /* \"#utility.yul\":480:515   */\n      eq\n        /* \"#utility.yul\":470:533   */\n      tag_215\n      jumpi\n        /* \"#utility.yul\":529:530   */\n      0x00\n        /* \"#utility.yul\":526:527   */\n      dup1\n        /* \"#utility.yul\":519:531   */\n      revert\n        /* \"#utility.yul\":470:533   */\n    tag_215:\n        /* \"#utility.yul\":417:539   */\n      pop\n      jump\t// out\n        /* \"#utility.yul\":545:684   */\n    tag_165:\n        /* \"#utility.yul\":591:596   */\n      0x00\n        /* \"#utility.yul\":629:635   */\n      dup2\n        /* \"#utility.yul\":616:636   */\n      calldataload\n        /* \"#utility.yul\":607:636   */\n      swap1\n      pop\n        /* \"#utility.yul\":645:678   */\n      tag_217\n        /* \"#utility.yul\":672:677   */\n      dup2\n        /* \"#utility.yul\":645:678   */\n      tag_164\n      jump\t// in\n    tag_217:\n        /* \"#utility.yul\":545:684   */\n      swap3\n      swap2\n      pop\n      pop\n      jump\t// out\n        /* \"#utility.yul\":690:1164   */\n    tag_16:\n        /* \"#utility.yul\":758:764   */\n      0x00\n        /* \"#utility.yul\":766:772   */\n      dup1\n        /* \"#utility.yul\":815:817   */\n      0x40\n        /* \"#utility.yul\":803:812   */\n      dup4\n        /* \"#utility.yul\":794:801   */\n      dup6\n        /* \"#utility.yul\":790:813   */\n      sub\n        /* \"#utility.yul\":786:818   */\n      slt\n        /* \"#utility.yul\":783:902   */\n      iszero\n      tag_219\n      jumpi\n        /* \"#utility.yul\":821:900   */\n      tag_220\n      tag_161\n      jump\t// in\n    tag_220:\n        /* \"#utility.yul\":783:902   */\n    tag_219:\n        /* \"#utility.yul\":941:942   */\n      0x00\n        /* \"#utility.yul\":966:1019   */\n      tag_221\n        /* \"#utility.yul\":1011:1018   */\n      dup6\n        /* \"#utility.yul\":1002:1008   */\n      dup3\n        /* \"#utility.yul\":991:1000   */\n      dup7\n        /* \"#utility.yul\":987:1009   */\n      add\n        /* \"#utility.yul\":966:1019   */\n      tag_165\n      jump\t// in\n    tag_221:\n        /* \"#utility.yul\":956:1019   */\n      swap3\n      pop\n        /* \"#utility.yul\":912:1029   */\n      pop\n        /* \"#utility.yul\":1068:1070   */\n      0x20\n        /* \"#utility.yul\":1094:1147   */\n      tag_222\n        /* \"#utility.yul\":1139:1146   */\n      dup6\n        /* \"#utility.yul\":1130:1136   */\n      dup3\n        /* \"#utility.yul\":1119:1128   */\n      dup7\n        /* \"#utility.yul\":1115:1137   */\n      add\n        /* \"#utility.yul\":1094:1147   */\n      tag_165\n      jump\t// in\n    tag_222:\n        /* \"#utility.yul\":1084:1147   */\n      swap2\n      pop\n        /* \"#utility.yul\":1039:1157   */\n      pop\n        /* \"#utility.yul\":690:1164   */\n      swap3\n      pop\n      swap3\n      swap1\n      pop\n      jump\t// out\n        /* \"#utility.yul\":1170:1296   */\n    tag_166:\n        /* \"#utility.yul\":1207:1214   */\n      0x00\n        /* \"#utility.yul\":1247:1289   */\n      0xffffffffffffffffffffffffffffffffffffffff\n        /* \"#utility.yul\":1240:1245   */\n      dup3\n        /* \"#utility.yul\":1236:1290   */\n      and\n        /* \"#utility.yul\":1225:1290   */\n      swap1\n      pop\n        /* \"#utility.yul\":1170:1296   */\n      swap2\n      swap1\n      pop\n      jump\t// out\n        /* \"#utility.yul\":1302:1398   */\n    tag_167:\n        /* \"#utility.yul\":1339:1346   */\n      0x00\n        /* \"#utility.yul\":1368:1392   */\n      tag_225\n        /* \"#utility.yul\":1386:1391   */\n      dup3\n        /* \"#utility.yul\":1368:1392   */\n      tag_166\n      jump\t// in\n    tag_225:\n        /* \"#utility.yul\":1357:1392   */\n      swap1\n      pop\n        /* \"#utility.yul\":1302:1398   */\n      swap2\n      swap1\n      pop\n      jump\t// out\n        /* \"#utility.yul\":1404:1526   */\n    tag_168:\n        /* \"#utility.yul\":1477:1501   */\n      tag_227\n        /* \"#utility.yul\":1495:1500   */\n      dup2\n        /* \"#utility.yul\":1477:1501   */\n      tag_167\n      jump\t// in\n    tag_227:\n        /* \"#utility.yul\":1470:1475   */\n      dup2\n        /* \"#utility.yul\":1467:1502   */\n      eq\n        /* \"#utility.yul\":1457:1520   */\n      tag_228\n      jumpi\n        /* \"#utility.yul\":1516:1517   */\n      0x00\n        /* \"#utility.yul\":1513:1514   */\n      dup1\n        /* \"#utility.yul\":1506:1518   */\n      revert\n        /* \"#utility.yul\":1457:1520   */\n    tag_228:\n        /* \"#utility.yul\":1404:1526   */\n      pop\n      jump\t// out\n        /* \"#utility.yul\":1532:1671   */\n    tag_169:\n        /* \"#utility.yul\":1578:1583   */\n      0x00\n        /* \"#utility.yul\":1616:1622   */\n      dup2\n        /* \"#utility.yul\":1603:1623   */\n      calldataload\n        /* \"#utility.yul\":1594:1623   */\n      swap1\n      pop\n        /* \"#utility.yul\":1632:1665   */\n      tag_230\n        /* \"#utility.yul\":1659:1664   */\n      dup2\n        /* \"#utility.yul\":1632:1665   */\n      tag_168\n      jump\t// in\n    tag_230:\n        /* \"#utility.yul\":1532:1671   */\n      swap3\n      swap2\n      pop\n      pop\n      jump\t// out\n        /* \"#utility.yul\":1677:2006   */\n    tag_20:\n        /* \"#utility.yul\":1736:1742   */\n      0x00\n        /* \"#utility.yul\":1785:1787   */\n      0x20\n        /* \"#utility.yul\":1773:1782   */\n      dup3\n        /* \"#utility.yul\":1764:1771   */\n      dup5\n        /* \"#utility.yul\":1760:1783   */\n      sub\n        /* \"#utility.yul\":1756:1788   */\n      slt\n        /* \"#utility.yul\":1753:1872   */\n      iszero\n      tag_232\n      jumpi\n        /* \"#utility.yul\":1791:1870   */\n      tag_233\n      tag_161\n      jump\t// in\n    tag_233:\n        /* \"#utility.yul\":1753:1872   */\n    tag_232:\n        /* \"#utility.yul\":1911:1912   */\n      0x00\n        /* \"#utility.yul\":1936:1989   */\n      tag_234\n        /* \"#utility.yul\":1981:1988   */\n      dup5\n        /* \"#utility.yul\":1972:1978   */\n      dup3\n        /* \"#utility.yul\":1961:1970   */\n      dup6\n        /* \"#utility.yul\":1957:1979   */\n      add\n        /* \"#utility.yul\":1936:1989   */\n      tag_169\n      jump\t// in\n    tag_234:\n        /* \"#utility.yul\":1926:1989   */\n      swap2\n      pop\n        /* \"#utility.yul\":1882:1999   */\n      pop\n        /* \"#utility.yul\":1677:2006   */\n      swap3\n      swap2\n      pop\n      pop\n      jump\t// out\n        /* \"#utility.yul\":2012:2130   */\n    tag_170:\n        /* \"#utility.yul\":2099:2123   */\n      tag_236\n        /* \"#utility.yul\":2117:2122   */\n      dup2\n        /* \"#utility.yul\":2099:2123   */\n      tag_163\n      jump\t// in\n    tag_236:\n        /* \"#utility.yul\":2094:2097   */\n      dup3\n        /* \"#utility.yul\":2087:2124   */\n      mstore\n        /* \"#utility.yul\":2012:2130   */\n      pop\n      pop\n      jump\t// out\n        /* \"#utility.yul\":2136:2358   */\n    tag_23:\n        /* \"#utility.yul\":2229:2233   */\n      0x00\n        /* \"#utility.yul\":2267:2269   */\n      0x20\n        /* \"#utility.yul\":2256:2265   */\n      dup3\n        /* \"#utility.yul\":2252:2270   */\n      add\n        /* \"#utility.yul\":2244:2270   */\n      swap1\n      pop\n        /* \"#utility.yul\":2280:2351   */\n      tag_238\n        /* \"#utility.yul\":2348:2349   */\n      0x00\n        /* \"#utility.yul\":2337:2346   */\n      dup4\n        /* \"#utility.yul\":2333:2350   */\n      add\n        /* \"#utility.yul\":2324:2330   */\n      dup5\n        /* \"#utility.yul\":2280:2351   */\n      tag_170\n      jump\t// in\n    tag_238:\n        /* \"#utility.yul\":2136:2358   */\n      swap3\n      swap2\n      pop\n      pop\n      jump\t// out\n        /* \"#utility.yul\":2364:2693   */\n    tag_28:\n        /* \"#utility.yul\":2423:2429   */\n      0x00\n        /* \"#utility.yul\":2472:2474   */\n      0x20\n        /* \"#utility.yul\":2460:2469   */\n      dup3\n        /* \"#utility.yul\":2451:2458   */\n      dup5\n        /* \"#utility.yul\":2447:2470   */\n      sub\n        /* \"#utility.yul\":2443:2475   */\n      slt\n        /* \"#utility.yul\":2440:2559   */\n      iszero\n      tag_240\n      jumpi\n        /* \"#utility.yul\":2478:2557   */\n      tag_241\n      tag_161\n      jump\t// in\n    tag_241:\n        /* \"#utility.yul\":2440:2559   */\n    tag_240:\n        /* \"#utility.yul\":2598:2599   */\n      0x00\n        /* \"#utility.yul\":2623:2676   */\n      tag_242\n        /* \"#utility.yul\":2668:2675   */\n      dup5\n        /* \"#utility.yul\":2659:2665   */\n      dup3\n        /* \"#utility.yul\":2648:2657   */\n      dup6\n        /* \"#utility.yul\":2644:2666   */\n      add\n        /* \"#utility.yul\":2623:2676   */\n      tag_165\n      jump\t// in\n    tag_242:\n        /* \"#utility.yul\":2613:2676   */\n      swap2\n      pop\n        /* \"#utility.yul\":2569:2686   */\n      pop\n        /* \"#utility.yul\":2364:2693   */\n      swap3\n      swap2\n      pop\n      pop\n      jump\t// out\n        /* \"#utility.yul\":2699:2817   */\n    tag_171:\n        /* \"#utility.yul\":2786:2810   */\n      tag_244\n        /* \"#utility.yul\":2804:2809   */\n      dup2\n        /* \"#utility.yul\":2786:2810   */\n      tag_167\n      jump\t// in\n    tag_244:\n        /* \"#utility.yul\":2781:2784   */\n      dup3\n        /* \"#utility.yul\":2774:2811   */\n      mstore\n        /* \"#utility.yul\":2699:2817   */\n      pop\n      pop\n      jump\t// out\n        /* \"#utility.yul\":2823:2913   */\n    tag_172:\n        /* \"#utility.yul\":2857:2864   */\n      0x00\n        /* \"#utility.yul\":2900:2905   */\n      dup2\n        /* \"#utility.yul\":2893:2906   */\n      iszero\n        /* \"#utility.yul\":2886:2907   */\n      iszero\n        /* \"#utility.yul\":2875:2907   */\n      swap1\n      pop\n        /* \"#utility.yul\":2823:2913   */\n      swap2\n      swap1\n      pop\n      jump\t// out\n        /* \"#utility.yul\":2919:3028   */\n    tag_173:\n        /* \"#utility.yul\":3000:3021   */\n      tag_247\n        /* \"#utility.yul\":3015:3020   */\n      dup2\n        /* \"#utility.yul\":3000:3021   */\n      tag_172\n      jump\t// in\n    tag_247:\n        /* \"#utility.yul\":2995:2998   */\n      dup3\n        /* \"#utility.yul\":2988:3022   */\n      mstore\n        /* \"#utility.yul\":2919:3028   */\n      pop\n      pop\n      jump\t// out\n        /* \"#utility.yul\":3034:3908   */\n    tag_31:\n        /* \"#utility.yul\":3289:3293   */\n      0x00\n        /* \"#utility.yul\":3327:3330   */\n      0xe0\n        /* \"#utility.yul\":3316:3325   */\n      dup3\n        /* \"#utility.yul\":3312:3331   */\n      add\n        /* \"#utility.yul\":3304:3331   */\n      swap1\n      pop\n        /* \"#utility.yul\":3341:3412   */\n      tag_249\n        /* \"#utility.yul\":3409:3410   */\n      0x00\n        /* \"#utility.yul\":3398:3407   */\n      dup4\n        /* \"#utility.yul\":3394:3411   */\n      add\n        /* \"#utility.yul\":3385:3391   */\n      dup11\n        /* \"#utility.yul\":3341:3412   */\n      tag_170\n      jump\t// in\n    tag_249:\n        /* \"#utility.yul\":3422:3494   */\n      tag_250\n        /* \"#utility.yul\":3490:3492   */\n      0x20\n        /* \"#utility.yul\":3479:3488   */\n      dup4\n        /* \"#utility.yul\":3475:3493   */\n      add\n        /* \"#utility.yul\":3466:3472   */\n      dup10\n        /* \"#utility.yul\":3422:3494   */\n      tag_171\n      jump\t// in\n    tag_250:\n        /* \"#utility.yul\":3504:3576   */\n      tag_251\n        /* \"#utility.yul\":3572:3574   */\n      0x40\n        /* \"#utility.yul\":3561:3570   */\n      dup4\n        /* \"#utility.yul\":3557:3575   */\n      add\n        /* \"#utility.yul\":3548:3554   */\n      dup9\n        /* \"#utility.yul\":3504:3576   */\n      tag_170\n      jump\t// in\n    tag_251:\n        /* \"#utility.yul\":3586:3658   */\n      tag_252\n        /* \"#utility.yul\":3654:3656   */\n      0x60\n        /* \"#utility.yul\":3643:3652   */\n      dup4\n        /* \"#utility.yul\":3639:3657   */\n      add\n        /* \"#utility.yul\":3630:3636   */\n      dup8\n        /* \"#utility.yul\":3586:3658   */\n      tag_170\n      jump\t// in\n    tag_252:\n        /* \"#utility.yul\":3668:3741   */\n      tag_253\n        /* \"#utility.yul\":3736:3739   */\n      0x80\n        /* \"#utility.yul\":3725:3734   */\n      dup4\n        /* \"#utility.yul\":3721:3740   */\n      add\n        /* \"#utility.yul\":3712:3718   */\n      dup7\n        /* \"#utility.yul\":3668:3741   */\n      tag_171\n      jump\t// in\n    tag_253:\n        /* \"#utility.yul\":3751:3818   */\n      tag_254\n        /* \"#utility.yul\":3813:3816   */\n      0xa0\n        /* \"#utility.yul\":3802:3811   */\n      dup4\n        /* \"#utility.yul\":3798:3817   */\n      add\n        /* \"#utility.yul\":3789:3795   */\n      dup6\n        /* \"#utility.yul\":3751:3818   */\n      tag_173\n      jump\t// in\n    tag_254:\n        /* \"#utility.yul\":3828:3901   */\n      tag_255\n        /* \"#utility.yul\":3896:3899   */\n      0xc0\n        /* \"#utility.yul\":3885:3894   */\n      dup4\n        /* \"#utility.yul\":3881:3900   */\n      add\n        /* \"#utility.yul\":3872:3878   */\n      dup5\n        /* \"#utility.yul\":3828:3901   */\n      tag_170\n      jump\t// in\n    tag_255:\n        /* \"#utility.yul\":3034:3908   */\n      swap9\n      swap8\n      pop\n      pop\n      pop\n      pop\n      pop\n      pop\n      pop\n      pop\n      jump\t// out\n        /* \"#utility.yul\":3914:3974   */\n    tag_174:\n        /* \"#utility.yul\":3942:3945   */\n      0x00\n        /* \"#utility.yul\":3963:3968   */\n      dup2\n        /* \"#utility.yul\":3956:3968   */\n      swap1\n      pop\n        /* \"#utility.yul\":3914:3974   */\n      swap2\n      swap1\n      pop\n      jump\t// out\n        /* \"#utility.yul\":3980:4122   */\n    tag_175:\n        /* \"#utility.yul\":4030:4039   */\n      0x00\n        /* \"#utility.yul\":4063:4116   */\n      tag_258\n        /* \"#utility.yul\":4081:4115   */\n      tag_259\n        /* \"#utility.yul\":4090:4114   */\n      tag_260\n        /* \"#utility.yul\":4108:4113   */\n      dup5\n        /* \"#utility.yul\":4090:4114   */\n      tag_166\n      jump\t// in\n    tag_260:\n        /* \"#utility.yul\":4081:4115   */\n      tag_174\n      jump\t// in\n    tag_259:\n        /* \"#utility.yul\":4063:4116   */\n      tag_166\n      jump\t// in\n    tag_258:\n        /* \"#utility.yul\":4050:4116   */\n      swap1\n      pop\n        /* \"#utility.yul\":3980:4122   */\n      swap2\n      swap1\n      pop\n      jump\t// out\n        /* \"#utility.yul\":4128:4254   */\n    tag_176:\n        /* \"#utility.yul\":4178:4187   */\n      0x00\n        /* \"#utility.yul\":4211:4248   */\n      tag_262\n        /* \"#utility.yul\":4242:4247   */\n      dup3\n        /* \"#utility.yul\":4211:4248   */\n      tag_175\n      jump\t// in\n    tag_262:\n        /* \"#utility.yul\":4198:4248   */\n      swap1\n      pop\n        /* \"#utility.yul\":4128:4254   */\n      swap2\n      swap1\n      pop\n      jump\t// out\n        /* \"#utility.yul\":4260:4399   */\n    tag_177:\n        /* \"#utility.yul\":4323:4332   */\n      0x00\n        /* \"#utility.yul\":4356:4393   */\n      tag_264\n        /* \"#utility.yul\":4387:4392   */\n      dup3\n        /* \"#utility.yul\":4356:4393   */\n      tag_176\n      jump\t// in\n    tag_264:\n        /* \"#utility.yul\":4343:4393   */\n      swap1\n      pop\n        /* \"#utility.yul\":4260:4399   */\n      swap2\n      swap1\n      pop\n      jump\t// out\n        /* \"#utility.yul\":4405:4562   */\n    tag_178:\n        /* \"#utility.yul\":4505:4555   */\n      tag_266\n        /* \"#utility.yul\":4549:4554   */\n      dup2\n        /* \"#utility.yul\":4505:4555   */\n      tag_177\n      jump\t// in\n    tag_266:\n        /* \"#utility.yul\":4500:4503   */\n      dup3\n        /* \"#utility.yul\":4493:4556   */\n      mstore\n        /* \"#utility.yul\":4405:4562   */\n      pop\n      pop\n      jump\t// out\n        /* \"#utility.yul\":4568:4816   */\n    tag_52:\n        /* \"#utility.yul\":4674:4678   */\n      0x00\n        /* \"#utility.yul\":4712:4714   */\n      0x20\n        /* \"#utility.yul\":4701:4710   */\n      dup3\n        /* \"#utility.yul\":4697:4715   */\n      add\n        /* \"#utility.yul\":4689:4715   */\n      swap1\n      pop\n        /* \"#utility.yul\":4725:4809   */\n      tag_268\n        /* \"#utility.yul\":4806:4807   */\n      0x00\n        /* \"#utility.yul\":4795:4804   */\n      dup4\n        /* \"#utility.yul\":4791:4808   */\n      add\n        /* \"#utility.yul\":4782:4788   */\n      dup5\n        /* \"#utility.yul\":4725:4809   */\n      tag_178\n      jump\t// in\n    tag_268:\n        /* \"#utility.yul\":4568:4816   */\n      swap3\n      swap2\n      pop\n      pop\n      jump\t// out\n        /* \"#utility.yul\":4822:4991   */\n    tag_179:\n        /* \"#utility.yul\":4906:4917   */\n      0x00\n        /* \"#utility.yul\":4940:4946   */\n      dup3\n        /* \"#utility.yul\":4935:4938   */\n      dup3\n        /* \"#utility.yul\":4928:4947   */\n      mstore\n        /* \"#utility.yul\":4980:4984   */\n      0x20\n        /* \"#utility.yul\":4975:4978   */\n      dup3\n        /* \"#utility.yul\":4971:4985   */\n      add\n        /* \"#utility.yul\":4956:4985   */\n      swap1\n      pop\n        /* \"#utility.yul\":4822:4991   */\n      swap3\n      swap2\n      pop\n      pop\n      jump\t// out\n        /* \"#utility.yul\":4997:5222   */\n    tag_180:\n        /* \"#utility.yul\":5137:5171   */\n      0x4d696e696d756d20626964206d7573742062652067726561746572207468616e\n        /* \"#utility.yul\":5133:5134   */\n      0x00\n        /* \"#utility.yul\":5125:5131   */\n      dup3\n        /* \"#utility.yul\":5121:5135   */\n      add\n        /* \"#utility.yul\":5114:5172   */\n      mstore\n        /* \"#utility.yul\":5206:5214   */\n      0x207a65726f2e0000000000000000000000000000000000000000000000000000\n        /* \"#utility.yul\":5201:5203   */\n      0x20\n        /* \"#utility.yul\":5193:5199   */\n      dup3\n        /* \"#utility.yul\":5189:5204   */\n      add\n        /* \"#utility.yul\":5182:5215   */\n      mstore\n        /* \"#utility.yul\":4997:5222   */\n      pop\n      jump\t// out\n        /* \"#utility.yul\":5228:5594   */\n    tag_181:\n        /* \"#utility.yul\":5370:5373   */\n      0x00\n        /* \"#utility.yul\":5391:5458   */\n      tag_272\n        /* \"#utility.yul\":5455:5457   */\n      0x26\n        /* \"#utility.yul\":5450:5453   */\n      dup4\n        /* \"#utility.yul\":5391:5458   */\n      tag_179\n      jump\t// in\n    tag_272:\n        /* \"#utility.yul\":5384:5458   */\n      swap2\n      pop\n        /* \"#utility.yul\":5467:5560   */\n      tag_273\n        /* \"#utility.yul\":5556:5559   */\n      dup3\n        /* \"#utility.yul\":5467:5560   */\n      tag_180\n      jump\t// in\n    tag_273:\n        /* \"#utility.yul\":5585:5587   */\n      0x40\n        /* \"#utility.yul\":5580:5583   */\n      dup3\n        /* \"#utility.yul\":5576:5588   */\n      add\n        /* \"#utility.yul\":5569:5588   */\n      swap1\n      pop\n        /* \"#utility.yul\":5228:5594   */\n      swap2\n      swap1\n      pop\n      jump\t// out\n        /* \"#utility.yul\":5600:6019   */\n    tag_56:\n        /* \"#utility.yul\":5766:5770   */\n      0x00\n        /* \"#utility.yul\":5804:5806   */\n      0x20\n        /* \"#utility.yul\":5793:5802   */\n      dup3\n        /* \"#utility.yul\":5789:5807   */\n      add\n        /* \"#utility.yul\":5781:5807   */\n      swap1\n      pop\n        /* \"#utility.yul\":5853:5862   */\n      dup2\n        /* \"#utility.yul\":5847:5851   */\n      dup2\n        /* \"#utility.yul\":5843:5863   */\n      sub\n        /* \"#utility.yul\":5839:5840   */\n      0x00\n        /* \"#utility.yul\":5828:5837   */\n      dup4\n        /* \"#utility.yul\":5824:5841   */\n      add\n        /* \"#utility.yul\":5817:5864   */\n      mstore\n        /* \"#utility.yul\":5881:6012   */\n      tag_275\n        /* \"#utility.yul\":6007:6011   */\n      dup2\n        /* \"#utility.yul\":5881:6012   */\n      tag_181\n      jump\t// in\n    tag_275:\n        /* \"#utility.yul\":5873:6012   */\n      swap1\n      pop\n        /* \"#utility.yul\":5600:6019   */\n      swap2\n      swap1\n      pop\n      jump\t// out\n        /* \"#utility.yul\":6025:6247   */\n    tag_182:\n        /* \"#utility.yul\":6165:6199   */\n      0x4475726174696f6e206d7573742062652067726561746572207468616e207a65\n        /* \"#utility.yul\":6161:6162   */\n      0x00\n        /* \"#utility.yul\":6153:6159   */\n      dup3\n        /* \"#utility.yul\":6149:6163   */\n      add\n        /* \"#utility.yul\":6142:6200   */\n      mstore\n        /* \"#utility.yul\":6234:6239   */\n      0x726f2e0000000000000000000000000000000000000000000000000000000000\n        /* \"#utility.yul\":6229:6231   */\n      0x20\n        /* \"#utility.yul\":6221:6227   */\n      dup3\n        /* \"#utility.yul\":6217:6232   */\n      add\n        /* \"#utility.yul\":6210:6240   */\n      mstore\n        /* \"#utility.yul\":6025:6247   */\n      pop\n      jump\t// out\n        /* \"#utility.yul\":6253:6619   */\n    tag_183:\n        /* \"#utility.yul\":6395:6398   */\n      0x00\n        /* \"#utility.yul\":6416:6483   */\n      tag_278\n        /* \"#utility.yul\":6480:6482   */\n      0x23\n        /* \"#utility.yul\":6475:6478   */\n      dup4\n        /* \"#utility.yul\":6416:6483   */\n      tag_179\n      jump\t// in\n    tag_278:\n        /* \"#utility.yul\":6409:6483   */\n      swap2\n      pop\n        /* \"#utility.yul\":6492:6585   */\n      tag_279\n        /* \"#utility.yul\":6581:6584   */\n      dup3\n        /* \"#utility.yul\":6492:6585   */\n      tag_182\n      jump\t// in\n    tag_279:\n        /* \"#utility.yul\":6610:6612   */\n      0x40\n        /* \"#utility.yul\":6605:6608   */\n      dup3\n        /* \"#utility.yul\":6601:6613   */\n      add\n        /* \"#utility.yul\":6594:6613   */\n      swap1\n      pop\n        /* \"#utility.yul\":6253:6619   */\n      swap2\n      swap1\n      pop\n      jump\t// out\n        /* \"#utility.yul\":6625:7044   */\n    tag_59:\n        /* \"#utility.yul\":6791:6795   */\n      0x00\n        /* \"#utility.yul\":6829:6831   */\n      0x20\n        /* \"#utility.yul\":6818:6827   */\n      dup3\n        /* \"#utility.yul\":6814:6832   */\n      add\n        /* \"#utility.yul\":6806:6832   */\n      swap1\n      pop\n        /* \"#utility.yul\":6878:6887   */\n      dup2\n        /* \"#utility.yul\":6872:6876   */\n      dup2\n        /* \"#utility.yul\":6868:6888   */\n      sub\n        /* \"#utility.yul\":6864:6865   */\n      0x00\n        /* \"#utility.yul\":6853:6862   */\n      dup4\n        /* \"#utility.yul\":6849:6866   */\n      add\n        /* \"#utility.yul\":6842:6889   */\n      mstore\n        /* \"#utility.yul\":6906:7037   */\n      tag_281\n        /* \"#utility.yul\":7032:7036   */\n      dup2\n        /* \"#utility.yul\":6906:7037   */\n      tag_183\n      jump\t// in\n    tag_281:\n        /* \"#utility.yul\":6898:7037   */\n      swap1\n      pop\n        /* \"#utility.yul\":6625:7044   */\n      swap2\n      swap1\n      pop\n      jump\t// out\n        /* \"#utility.yul\":7050:7230   */\n    tag_184:\n        /* \"#utility.yul\":7098:7175   */\n      0x4e487b7100000000000000000000000000000000000000000000000000000000\n        /* \"#utility.yul\":7095:7096   */\n      0x00\n        /* \"#utility.yul\":7088:7176   */\n      mstore\n        /* \"#utility.yul\":7195:7199   */\n      0x11\n        /* \"#utility.yul\":7192:7193   */\n      0x04\n        /* \"#utility.yul\":7185:7200   */\n      mstore\n        /* \"#utility.yul\":7219:7223   */\n      0x24\n        /* \"#utility.yul\":7216:7217   */\n      0x00\n        /* \"#utility.yul\":7209:7224   */\n      revert\n        /* \"#utility.yul\":7236:7427   */\n    tag_61:\n        /* \"#utility.yul\":7276:7279   */\n      0x00\n        /* \"#utility.yul\":7295:7315   */\n      tag_284\n        /* \"#utility.yul\":7313:7314   */\n      dup3\n        /* \"#utility.yul\":7295:7315   */\n      tag_163\n      jump\t// in\n    tag_284:\n        /* \"#utility.yul\":7290:7315   */\n      swap2\n      pop\n        /* \"#utility.yul\":7329:7349   */\n      tag_285\n        /* \"#utility.yul\":7347:7348   */\n      dup4\n        /* \"#utility.yul\":7329:7349   */\n      tag_163\n      jump\t// in\n    tag_285:\n        /* \"#utility.yul\":7324:7349   */\n      swap3\n      pop\n        /* \"#utility.yul\":7372:7373   */\n      dup3\n        /* \"#utility.yul\":7369:7370   */\n      dup3\n        /* \"#utility.yul\":7365:7374   */\n      add\n        /* \"#utility.yul\":7358:7374   */\n      swap1\n      pop\n        /* \"#utility.yul\":7393:7396   */\n      dup1\n        /* \"#utility.yul\":7390:7391   */\n      dup3\n        /* \"#utility.yul\":7387:7397   */\n      gt\n        /* \"#utility.yul\":7384:7420   */\n      iszero\n      tag_286\n      jumpi\n        /* \"#utility.yul\":7400:7418   */\n      tag_287\n      tag_184\n      jump\t// in\n    tag_287:\n        /* \"#utility.yul\":7384:7420   */\n    tag_286:\n        /* \"#utility.yul\":7236:7427   */\n      swap3\n      swap2\n      pop\n      pop\n      jump\t// out\n        /* \"#utility.yul\":7433:7875   */\n    tag_65:\n        /* \"#utility.yul\":7582:7586   */\n      0x00\n        /* \"#utility.yul\":7620:7622   */\n      0x60\n        /* \"#utility.yul\":7609:7618   */\n      dup3\n        /* \"#utility.yul\":7605:7623   */\n      add\n        /* \"#utility.yul\":7597:7623   */\n      swap1\n      pop\n        /* \"#utility.yul\":7633:7704   */\n      tag_289\n        /* \"#utility.yul\":7701:7702   */\n      0x00\n        /* \"#utility.yul\":7690:7699   */\n      dup4\n        /* \"#utility.yul\":7686:7703   */\n      add\n        /* \"#utility.yul\":7677:7683   */\n      dup7\n        /* \"#utility.yul\":7633:7704   */\n      tag_170\n      jump\t// in\n    tag_289:\n        /* \"#utility.yul\":7714:7786   */\n      tag_290\n        /* \"#utility.yul\":7782:7784   */\n      0x20\n        /* \"#utility.yul\":7771:7780   */\n      dup4\n        /* \"#utility.yul\":7767:7785   */\n      add\n        /* \"#utility.yul\":7758:7764   */\n      dup6\n        /* \"#utility.yul\":7714:7786   */\n      tag_170\n      jump\t// in\n    tag_290:\n        /* \"#utility.yul\":7796:7868   */\n      tag_291\n        /* \"#utility.yul\":7864:7866   */\n      0x40\n        /* \"#utility.yul\":7853:7862   */\n      dup4\n        /* \"#utility.yul\":7849:7867   */\n      add\n        /* \"#utility.yul\":7840:7846   */\n      dup5\n        /* \"#utility.yul\":7796:7868   */\n      tag_170\n      jump\t// in\n    tag_291:\n        /* \"#utility.yul\":7433:7875   */\n      swap5\n      swap4\n      pop\n      pop\n      pop\n      pop\n      jump\t// out\n        /* \"#utility.yul\":7881:8114   */\n    tag_67:\n        /* \"#utility.yul\":7920:7923   */\n      0x00\n        /* \"#utility.yul\":7943:7967   */\n      tag_293\n        /* \"#utility.yul\":7961:7966   */\n      dup3\n        /* \"#utility.yul\":7943:7967   */\n      tag_163\n      jump\t// in\n    tag_293:\n        /* \"#utility.yul\":7934:7967   */\n      swap2\n      pop\n        /* \"#utility.yul\":7989:8055   */\n      0xffffffffffffffffffffffffffffffffffffffffffffffffffffffffffffffff\n        /* \"#utility.yul\":7982:7987   */\n      dup3\n        /* \"#utility.yul\":7979:8056   */\n      sub\n        /* \"#utility.yul\":7976:8079   */\n      tag_294\n      jumpi\n        /* \"#utility.yul\":8059:8077   */\n      tag_295\n      tag_184\n      jump\t// in\n    tag_295:\n        /* \"#utility.yul\":7976:8079   */\n    tag_294:\n        /* \"#utility.yul\":8106:8107   */\n      0x01\n        /* \"#utility.yul\":8099:8104   */\n      dup3\n        /* \"#utility.yul\":8095:8108   */\n      add\n        /* \"#utility.yul\":8088:8108   */\n      swap1\n      pop\n        /* \"#utility.yul\":7881:8114   */\n      swap2\n      swap1\n      pop\n      jump\t// out\n        /* \"#utility.yul\":8120:8287   */\n    tag_185:\n        /* \"#utility.yul\":8260:8279   */\n      0x4e6f2070656e64696e672066756e64732e000000000000000000000000000000\n        /* \"#utility.yul\":8256:8257   */\n      0x00\n        /* \"#utility.yul\":8248:8254   */\n      dup3\n        /* \"#utility.yul\":8244:8258   */\n      add\n        /* \"#utility.yul\":8237:8280   */\n      mstore\n        /* \"#utility.yul\":8120:8287   */\n      pop\n      jump\t// out\n        /* \"#utility.yul\":8293:8659   */\n    tag_186:\n        /* \"#utility.yul\":8435:8438   */\n      0x00\n        /* \"#utility.yul\":8456:8523   */\n      tag_298\n        /* \"#utility.yul\":8520:8522   */\n      0x11\n        /* \"#utility.yul\":8515:8518   */\n      dup4\n        /* \"#utility.yul\":8456:8523   */\n      tag_179\n      jump\t// in\n    tag_298:\n        /* \"#utility.yul\":8449:8523   */\n      swap2\n      pop\n        /* \"#utility.yul\":8532:8625   */\n      tag_299\n        /* \"#utility.yul\":8621:8624   */\n      dup3\n        /* \"#utility.yul\":8532:8625   */\n      tag_185\n      jump\t// in\n    tag_299:\n        /* \"#utility.yul\":8650:8652   */\n      0x20\n        /* \"#utility.yul\":8645:8648   */\n      dup3\n        /* \"#utility.yul\":8641:8653   */\n      add\n        /* \"#utility.yul\":8634:8653   */\n      swap1\n      pop\n        /* \"#utility.yul\":8293:8659   */\n      swap2\n      swap1\n      pop\n      jump\t// out\n        /* \"#utility.yul\":8665:9084   */\n    tag_71:\n        /* \"#utility.yul\":8831:8835   */\n      0x00\n        /* \"#utility.yul\":8869:8871   */\n      0x20\n        /* \"#utility.yul\":8858:8867   */\n      dup3\n        /* \"#utility.yul\":8854:8872   */\n      add\n        /* \"#utility.yul\":8846:8872   */\n      swap1\n      pop\n        /* \"#utility.yul\":8918:8927   */\n      dup2\n        /* \"#utility.yul\":8912:8916   */\n      dup2\n        /* \"#utility.yul\":8908:8928   */\n      sub\n        /* \"#utility.yul\":8904:8905   */\n      0x00\n        /* \"#utility.yul\":8893:8902   */\n      dup4\n        /* \"#utility.yul\":8889:8906   */\n      add\n        /* \"#utility.yul\":8882:8929   */\n      mstore\n        /* \"#utility.yul\":8946:9077   */\n      tag_301\n        /* \"#utility.yul\":9072:9076   */\n      dup2\n        /* \"#utility.yul\":8946:9077   */\n      tag_186\n      jump\t// in\n    tag_301:\n        /* \"#utility.yul\":8938:9077   */\n      swap1\n      pop\n        /* \"#utility.yul\":8665:9084   */\n      swap2\n      swap1\n      pop\n      jump\t// out\n        /* \"#utility.yul\":9090:9422   */\n    tag_73:\n        /* \"#utility.yul\":9211:9215   */\n      0x00\n        /* \"#utility.yul\":9249:9251   */\n      0x40\n        /* \"#utility.yul\":9238:9247   */\n      dup3\n        /* \"#utility.yul\":9234:9252   */\n      add\n        /* \"#utility.yul\":9226:9252   */\n      swap1\n      pop\n        /* \"#utility.yul\":9262:9333   */\n      tag_303\n        /* \"#utility.yul\":9330:9331   */\n      0x00\n        /* \"#utility.yul\":9319:9328   */\n      dup4\n        /* \"#utility.yul\":9315:9332   */\n      add\n        /* \"#utility.yul\":9306:9312   */\n      dup6\n        /* \"#utility.yul\":9262:9333   */\n      tag_171\n      jump\t// in\n    tag_303:\n        /* \"#utility.yul\":9343:9415   */\n      tag_304\n        /* \"#utility.yul\":9411:9413   */\n      0x20\n        /* \"#utility.yul\":9400:9409   */\n      dup4\n        /* \"#utility.yul\":9396:9414   */\n      add\n        /* \"#utility.yul\":9387:9393   */\n      dup5\n        /* \"#utility.yul\":9343:9415   */\n      tag_170\n      jump\t// in\n    tag_304:\n        /* \"#utility.yul\":9090:9422   */\n      swap4\n      swap3\n      pop\n      pop\n      pop\n      jump\t// out\n        /* \"#utility.yul\":9428:9544   */\n    tag_187:\n        /* \"#utility.yul\":9498:9519   */\n      tag_306\n        /* \"#utility.yul\":9513:9518   */\n      dup2\n        /* \"#utility.yul\":9498:9519   */\n      tag_172\n      jump\t// in\n    tag_306:\n        /* \"#utility.yul\":9491:9496   */\n      dup2\n        /* \"#utility.yul\":9488:9520   */\n      eq\n        /* \"#utility.yul\":9478:9538   */\n      tag_307\n      jumpi\n        /* \"#utility.yul\":9534:9535   */\n      0x00\n        /* \"#utility.yul\":9531:9532   */\n      dup1\n        /* \"#utility.yul\":9524:9536   */\n      revert\n        /* \"#utility.yul\":9478:9538   */\n    tag_307:\n        /* \"#utility.yul\":9428:9544   */\n      pop\n      jump\t// out\n        /* \"#utility.yul\":9550:9687   */\n    tag_188:\n        /* \"#utility.yul\":9604:9609   */\n      0x00\n        /* \"#utility.yul\":9635:9641   */\n      dup2\n        /* \"#utility.yul\":9629:9642   */\n      mload\n        /* \"#utility.yul\":9620:9642   */\n      swap1\n      pop\n        /* \"#utility.yul\":9651:9681   */\n      tag_309\n        /* \"#utility.yul\":9675:9680   */\n      dup2\n        /* \"#utility.yul\":9651:9681   */\n      tag_187\n      jump\t// in\n    tag_309:\n        /* \"#utility.yul\":9550:9687   */\n      swap3\n      swap2\n      pop\n      pop\n      jump\t// out\n        /* \"#utility.yul\":9693:10038   */\n    tag_76:\n        /* \"#utility.yul\":9760:9766   */\n      0x00\n        /* \"#utility.yul\":9809:9811   */\n      0x20\n        /* \"#utility.yul\":9797:9806   */\n      dup3\n        /* \"#utility.yul\":9788:9795   */\n      dup5\n        /* \"#utility.yul\":9784:9807   */\n      sub\n        /* \"#utility.yul\":9780:9812   */\n      slt\n        /* \"#utility.yul\":9777:9896   */\n      iszero\n      tag_311\n      jumpi\n        /* \"#utility.yul\":9815:9894   */\n      tag_312\n      tag_161\n      jump\t// in\n    tag_312:\n        /* \"#utility.yul\":9777:9896   */\n    tag_311:\n        /* \"#utility.yul\":9935:9936   */\n      0x00\n        /* \"#utility.yul\":9960:10021   */\n      tag_313\n        /* \"#utility.yul\":10013:10020   */\n      dup5\n        /* \"#utility.yul\":10004:10010   */\n      dup3\n        /* \"#utility.yul\":9993:10002   */\n      dup6\n        /* \"#utility.yul\":9989:10011   */\n      add\n        /* \"#utility.yul\":9960:10021   */\n      tag_188\n      jump\t// in\n    tag_313:\n        /* \"#utility.yul\":9950:10021   */\n      swap2\n      pop\n        /* \"#utility.yul\":9906:10031   */\n      pop\n        /* \"#utility.yul\":9693:10038   */\n      swap3\n      swap2\n      pop\n      pop\n      jump\t// out\n        /* \"#utility.yul\":10044:10210   */\n    tag_189:\n        /* \"#utility.yul\":10184:10202   */\n      0x5769746864726177206661696c65642e00000000000000000000000000000000\n        /* \"#utility.yul\":10180:10181   */\n      0x00\n        /* \"#utility.yul\":10172:10178   */\n      dup3\n        /* \"#utility.yul\":10168:10182   */\n      add\n        /* \"#utility.yul\":10161:10203   */\n      mstore\n        /* \"#utility.yul\":10044:10210   */\n      pop\n      jump\t// out\n        /* \"#utility.yul\":10216:10582   */\n    tag_190:\n        /* \"#utility.yul\":10358:10361   */\n      0x00\n        /* \"#utility.yul\":10379:10446   */\n      tag_316\n        /* \"#utility.yul\":10443:10445   */\n      0x10\n        /* \"#utility.yul\":10438:10441   */\n      dup4\n        /* \"#utility.yul\":10379:10446   */\n      tag_179\n      jump\t// in\n    tag_316:\n        /* \"#utility.yul\":10372:10446   */\n      swap2\n      pop\n        /* \"#utility.yul\":10455:10548   */\n      tag_317\n        /* \"#utility.yul\":10544:10547   */\n      dup3\n        /* \"#utility.yul\":10455:10548   */\n      tag_189\n      jump\t// in\n    tag_317:\n        /* \"#utility.yul\":10573:10575   */\n      0x20\n        /* \"#utility.yul\":10568:10571   */\n      dup3\n        /* \"#utility.yul\":10564:10576   */\n      add\n        /* \"#utility.yul\":10557:10576   */\n      swap1\n      pop\n        /* \"#utility.yul\":10216:10582   */\n      swap2\n      swap1\n      pop\n      jump\t// out\n        /* \"#utility.yul\":10588:11007   */\n    tag_82:\n        /* \"#utility.yul\":10754:10758   */\n      0x00\n        /* \"#utility.yul\":10792:10794   */\n      0x20\n        /* \"#utility.yul\":10781:10790   */\n      dup3\n        /* \"#utility.yul\":10777:10795   */\n      add\n        /* \"#utility.yul\":10769:10795   */\n      swap1\n      pop\n        /* \"#utility.yul\":10841:10850   */\n      dup2\n        /* \"#utility.yul\":10835:10839   */\n      dup2\n        /* \"#utility.yul\":10831:10851   */\n      sub\n        /* \"#utility.yul\":10827:10828   */\n      0x00\n        /* \"#utility.yul\":10816:10825   */\n      dup4\n        /* \"#utility.yul\":10812:10829   */\n      add\n        /* \"#utility.yul\":10805:10852   */\n      mstore\n        /* \"#utility.yul\":10869:11000   */\n      tag_319\n        /* \"#utility.yul\":10995:10999   */\n      dup2\n        /* \"#utility.yul\":10869:11000   */\n      tag_190\n      jump\t// in\n    tag_319:\n        /* \"#utility.yul\":10861:11000   */\n      swap1\n      pop\n        /* \"#utility.yul\":10588:11007   */\n      swap2\n      swap1\n      pop\n      jump\t// out\n        /* \"#utility.yul\":11013:11186   */\n    tag_191:\n        /* \"#utility.yul\":11153:11178   */\n      0x41756374696f6e20646f6573206e6f742065786973742e000000000000000000\n        /* \"#utility.yul\":11149:11150   */\n      0x00\n        /* \"#utility.yul\":11141:11147   */\n      dup3\n        /* \"#utility.yul\":11137:11151   */\n      add\n        /* \"#utility.yul\":11130:11179   */\n      mstore\n        /* \"#utility.yul\":11013:11186   */\n      pop\n      jump\t// out\n        /* \"#utility.yul\":11192:11558   */\n    tag_192:\n        /* \"#utility.yul\":11334:11337   */\n      0x00\n        /* \"#utility.yul\":11355:11422   */\n      tag_322\n        /* \"#utility.yul\":11419:11421   */\n      0x17\n        /* \"#utility.yul\":11414:11417   */\n      dup4\n        /* \"#utility.yul\":11355:11422   */\n      tag_179\n      jump\t// in\n    tag_322:\n        /* \"#utility.yul\":11348:11422   */\n      swap2\n      pop\n        /* \"#utility.yul\":11431:11524   */\n      tag_323\n        /* \"#utility.yul\":11520:11523   */\n      dup3\n        /* \"#utility.yul\":11431:11524   */\n      tag_191\n      jump\t// in\n    tag_323:\n        /* \"#utility.yul\":11549:11551   */\n      0x20\n        /* \"#utility.yul\":11544:11547   */\n      dup3\n        /* \"#utility.yul\":11540:11552   */\n      add\n        /* \"#utility.yul\":11533:11552   */\n      swap1\n      pop\n        /* \"#utility.yul\":11192:11558   */\n      swap2\n      swap1\n      pop\n      jump\t// out\n        /* \"#utility.yul\":11564:11983   */\n    tag_89:\n        /* \"#utility.yul\":11730:11734   */\n      0x00\n        /* \"#utility.yul\":11768:11770   */\n      0x20\n        /* \"#utility.yul\":11757:11766   */\n      dup3\n        /* \"#utility.yul\":11753:11771   */\n      add\n        /* \"#utility.yul\":11745:11771   */\n      swap1\n      pop\n        /* \"#utility.yul\":11817:11826   */\n      dup2\n        /* \"#utility.yul\":11811:11815   */\n      dup2\n        /* \"#utility.yul\":11807:11827   */\n      sub\n        /* \"#utility.yul\":11803:11804   */\n      0x00\n        /* \"#utility.yul\":11792:11801   */\n      dup4\n        /* \"#utility.yul\":11788:11805   */\n      add\n        /* \"#utility.yul\":11781:11828   */\n      mstore\n        /* \"#utility.yul\":11845:11976   */\n      tag_325\n        /* \"#utility.yul\":11971:11975   */\n      dup2\n        /* \"#utility.yul\":11845:11976   */\n      tag_192\n      jump\t// in\n    tag_325:\n        /* \"#utility.yul\":11837:11976   */\n      swap1\n      pop\n        /* \"#utility.yul\":11564:11983   */\n      swap2\n      swap1\n      pop\n      jump\t// out\n        /* \"#utility.yul\":11989:12169   */\n    tag_92:\n        /* \"#utility.yul\":12037:12114   */\n      0x4e487b7100000000000000000000000000000000000000000000000000000000\n        /* \"#utility.yul\":12034:12035   */\n      0x00\n        /* \"#utility.yul\":12027:12115   */\n      mstore\n        /* \"#utility.yul\":12134:12138   */\n      0x32\n        /* \"#utility.yul\":12131:12132   */\n      0x04\n        /* \"#utility.yul\":12124:12139   */\n      mstore\n        /* \"#utility.yul\":12158:12162   */\n      0x24\n        /* \"#utility.yul\":12155:12156   */\n      0x00\n        /* \"#utility.yul\":12148:12163   */\n      revert\n        /* \"#utility.yul\":12175:12347   */\n    tag_193:\n        /* \"#utility.yul\":12315:12339   */\n      0x41756374696f6e206973206e6f74206163746976652e00000000000000000000\n        /* \"#utility.yul\":12311:12312   */\n      0x00\n        /* \"#utility.yul\":12303:12309   */\n      dup3\n        /* \"#utility.yul\":12299:12313   */\n      add\n        /* \"#utility.yul\":12292:12340   */\n      mstore\n        /* \"#utility.yul\":12175:12347   */\n      pop\n      jump\t// out\n        /* \"#utility.yul\":12353:12719   */\n    tag_194:\n        /* \"#utility.yul\":12495:12498   */\n      0x00\n        /* \"#utility.yul\":12516:12583   */\n      tag_329\n        /* \"#utility.yul\":12580:12582   */\n      0x16\n        /* \"#utility.yul\":12575:12578   */\n      dup4\n        /* \"#utility.yul\":12516:12583   */\n      tag_179\n      jump\t// in\n    tag_329:\n        /* \"#utility.yul\":12509:12583   */\n      swap2\n      pop\n        /* \"#utility.yul\":12592:12685   */\n      tag_330\n        /* \"#utility.yul\":12681:12684   */\n      dup3\n        /* \"#utility.yul\":12592:12685   */\n      tag_193\n      jump\t// in\n    tag_330:\n        /* \"#utility.yul\":12710:12712   */\n      0x20\n        /* \"#utility.yul\":12705:12708   */\n      dup3\n        /* \"#utility.yul\":12701:12713   */\n      add\n        /* \"#utility.yul\":12694:12713   */\n      swap1\n      pop\n        /* \"#utility.yul\":12353:12719   */\n      swap2\n      swap1\n      pop\n      jump\t// out\n        /* \"#utility.yul\":12725:13144   */\n    tag_96:\n        /* \"#utility.yul\":12891:12895   */\n      0x00\n        /* \"#utility.yul\":12929:12931   */\n      0x20\n        /* \"#utility.yul\":12918:12927   */\n      dup3\n        /* \"#utility.yul\":12914:12932   */\n      add\n        /* \"#utility.yul\":12906:12932   */\n      swap1\n      pop\n        /* \"#utility.yul\":12978:12987   */\n      dup2\n        /* \"#utility.yul\":12972:12976   */\n      dup2\n        /* \"#utility.yul\":12968:12988   */\n      sub\n        /* \"#utility.yul\":12964:12965   */\n      0x00\n        /* \"#utility.yul\":12953:12962   */\n      dup4\n        /* \"#utility.yul\":12949:12966   */\n      add\n        /* \"#utility.yul\":12942:12989   */\n      mstore\n        /* \"#utility.yul\":13006:13137   */\n      tag_332\n        /* \"#utility.yul\":13132:13136   */\n      dup2\n        /* \"#utility.yul\":13006:13137   */\n      tag_194\n      jump\t// in\n    tag_332:\n        /* \"#utility.yul\":12998:13137   */\n      swap1\n      pop\n        /* \"#utility.yul\":12725:13144   */\n      swap2\n      swap1\n      pop\n      jump\t// out\n        /* \"#utility.yul\":13150:13318   */\n    tag_195:\n        /* \"#utility.yul\":13290:13310   */\n      0x41756374696f6e2068617320656e6465642e0000000000000000000000000000\n        /* \"#utility.yul\":13286:13287   */\n      0x00\n        /* \"#utility.yul\":13278:13284   */\n      dup3\n        /* \"#utility.yul\":13274:13288   */\n      add\n        /* \"#utility.yul\":13267:13311   */\n      mstore\n        /* \"#utility.yul\":13150:13318   */\n      pop\n      jump\t// out\n        /* \"#utility.yul\":13324:13690   */\n    tag_196:\n        /* \"#utility.yul\":13466:13469   */\n      0x00\n        /* \"#utility.yul\":13487:13554   */\n      tag_335\n        /* \"#utility.yul\":13551:13553   */\n      0x12\n        /* \"#utility.yul\":13546:13549   */\n      dup4\n        /* \"#utility.yul\":13487:13554   */\n      tag_179\n      jump\t// in\n    tag_335:\n        /* \"#utility.yul\":13480:13554   */\n      swap2\n      pop\n        /* \"#utility.yul\":13563:13656   */\n      tag_336\n        /* \"#utility.yul\":13652:13655   */\n      dup3\n        /* \"#utility.yul\":13563:13656   */\n      tag_195\n      jump\t// in\n    tag_336:\n        /* \"#utility.yul\":13681:13683   */\n      0x20\n        /* \"#utility.yul\":13676:13679   */\n      dup3\n        /* \"#utility.yul\":13672:13684   */\n      add\n        /* \"#utility.yul\":13665:13684   */\n      swap1\n      pop\n        /* \"#utility.yul\":13324:13690   */\n      swap2\n      swap1\n      pop\n      jump\t// out\n        /* \"#utility.yul\":13696:14115   */\n    tag_99:\n        /* \"#utility.yul\":13862:13866   */\n      0x00\n        /* \"#utility.yul\":13900:13902   */\n      0x20\n        /* \"#utility.yul\":13889:13898   */\n      dup3\n        /* \"#utility.yul\":13885:13903   */\n      add\n        /* \"#utility.yul\":13877:13903   */\n      swap1\n      pop\n        /* \"#utility.yul\":13949:13958   */\n      dup2\n        /* \"#utility.yul\":13943:13947   */\n      dup2\n        /* \"#utility.yul\":13939:13959   */\n      sub\n        /* \"#utility.yul\":13935:13936   */\n      0x00\n        /* \"#utility.yul\":13924:13933   */\n      dup4\n        /* \"#utility.yul\":13920:13937   */\n      add\n        /* \"#utility.yul\":13913:13960   */\n      mstore\n        /* \"#utility.yul\":13977:14108   */\n      tag_338\n        /* \"#utility.yul\":14103:14107   */\n      dup2\n        /* \"#utility.yul\":13977:14108   */\n      tag_196\n      jump\t// in\n    tag_338:\n        /* \"#utility.yul\":13969:14108   */\n      swap1\n      pop\n        /* \"#utility.yul\":13696:14115   */\n      swap2\n      swap1\n      pop\n      jump\t// out\n        /* \"#utility.yul\":14121:14356   */\n    tag_197:\n        /* \"#utility.yul\":14261:14295   */\n      0x426964206d75737420626520686967686572207468616e207468652063757272\n        /* \"#utility.yul\":14257:14258   */\n      0x00\n        /* \"#utility.yul\":14249:14255   */\n      dup3\n        /* \"#utility.yul\":14245:14259   */\n      add\n        /* \"#utility.yul\":14238:14296   */\n      mstore\n        /* \"#utility.yul\":14330:14348   */\n      0x656e742068696768657374206269642e00000000000000000000000000000000\n        /* \"#utility.yul\":14325:14327   */\n      0x20\n        /* \"#utility.yul\":14317:14323   */\n      dup3\n        /* \"#utility.yul\":14313:14328   */\n      add\n        /* \"#utility.yul\":14306:14349   */\n      mstore\n        /* \"#utility.yul\":14121:14356   */\n      pop\n      jump\t// out\n        /* \"#utility.yul\":14362:14728   */\n    tag_198:\n        /* \"#utility.yul\":14504:14507   */\n      0x00\n        /* \"#utility.yul\":14525:14592   */\n      tag_341\n        /* \"#utility.yul\":14589:14591   */\n      0x30\n        /* \"#utility.yul\":14584:14587   */\n      dup4\n        /* \"#utility.yul\":14525:14592   */\n      tag_179\n      jump\t// in\n    tag_341:\n        /* \"#utility.yul\":14518:14592   */\n      swap2\n      pop\n        /* \"#utility.yul\":14601:14694   */\n      tag_342\n        /* \"#utility.yul\":14690:14693   */\n      dup3\n        /* \"#utility.yul\":14601:14694   */\n      tag_197\n      jump\t// in\n    tag_342:\n        /* \"#utility.yul\":14719:14721   */\n      0x40\n        /* \"#utility.yul\":14714:14717   */\n      dup3\n        /* \"#utility.yul\":14710:14722   */\n      add\n        /* \"#utility.yul\":14703:14722   */\n      swap1\n      pop\n        /* \"#utility.yul\":14362:14728   */\n      swap2\n      swap1\n      pop\n      jump\t// out\n        /* \"#utility.yul\":14734:15153   */\n    tag_102:\n        /* \"#utility.yul\":14900:14904   */\n      0x00\n        /* \"#utility.yul\":14938:14940   */\n      0x20\n        /* \"#utility.yul\":14927:14936   */\n      dup3\n        /* \"#utility.yul\":14923:14941   */\n      add\n        /* \"#utility.yul\":14915:14941   */\n      swap1\n      pop\n        /* \"#utility.yul\":14987:14996   */\n      dup2\n        /* \"#utility.yul\":14981:14985   */\n      dup2\n        /* \"#utility.yul\":14977:14997   */\n      sub\n        /* \"#utility.yul\":14973:14974   */\n      0x00\n        /* \"#utility.yul\":14962:14971   */\n      dup4\n        /* \"#utility.yul\":14958:14975   */\n      add\n        /* \"#utility.yul\":14951:14998   */\n      mstore\n        /* \"#utility.yul\":15015:15146   */\n      tag_344\n        /* \"#utility.yul\":15141:15145   */\n      dup2\n        /* \"#utility.yul\":15015:15146   */\n      tag_198\n      jump\t// in\n    tag_344:\n        /* \"#utility.yul\":15007:15146   */\n      swap1\n      pop\n        /* \"#utility.yul\":14734:15153   */\n      swap2\n      swap1\n      pop\n      jump\t// out\n        /* \"#utility.yul\":15159:15383   */\n    tag_199:\n        /* \"#utility.yul\":15299:15333   */\n      0x426964206d757374206d65657420746865206d696e696d756d2062696420616d\n        /* \"#utility.yul\":15295:15296   */\n      0x00\n        /* \"#utility.yul\":15287:15293   */\n      dup3\n        /* \"#utility.yul\":15283:15297   */\n      add\n        /* \"#utility.yul\":15276:15334   */\n      mstore\n        /* \"#utility.yul\":15368:15375   */\n      0x6f756e742e000000000000000000000000000000000000000000000000000000\n        /* \"#utility.yul\":15363:15365   */\n      0x20\n        /* \"#utility.yul\":15355:15361   */\n      dup3\n        /* \"#utility.yul\":15351:15366   */\n      add\n        /* \"#utility.yul\":15344:15376   */\n      mstore\n        /* \"#utility.yul\":15159:15383   */\n      pop\n      jump\t// out\n        /* \"#utility.yul\":15389:15755   */\n    tag_200:\n        /* \"#utility.yul\":15531:15534   */\n      0x00\n        /* \"#utility.yul\":15552:15619   */\n      tag_347\n        /* \"#utility.yul\":15616:15618   */\n      0x25\n        /* \"#utility.yul\":15611:15614   */\n      dup4\n        /* \"#utility.yul\":15552:15619   */\n      tag_179\n      jump\t// in\n    tag_347:\n        /* \"#utility.yul\":15545:15619   */\n      swap2\n      pop\n        /* \"#utility.yul\":15628:15721   */\n      tag_348\n        /* \"#utility.yul\":15717:15720   */\n      dup3\n        /* \"#utility.yul\":15628:15721   */\n      tag_199\n      jump\t// in\n    tag_348:\n        /* \"#utility.yul\":15746:15748   */\n      0x40\n        /* \"#utility.yul\":15741:15744   */\n      dup3\n        /* \"#utility.yul\":15737:15749   */\n      add\n        /* \"#utility.yul\":15730:15749   */\n      swap1\n      pop\n        /* \"#utility.yul\":15389:15755   */\n      swap2\n      swap1\n      pop\n      jump\t// out\n        /* \"#utility.yul\":15761:16180   */\n    tag_105:\n        /* \"#utility.yul\":15927:15931   */\n      0x00\n        /* \"#utility.yul\":15965:15967   */\n      0x20\n        /* \"#utility.yul\":15954:15963   */\n      dup3\n        /* \"#utility.yul\":15950:15968   */\n      add\n        /* \"#utility.yul\":15942:15968   */\n      swap1\n      pop\n        /* \"#utility.yul\":16014:16023   */\n      dup2\n        /* \"#utility.yul\":16008:16012   */\n      dup2\n        /* \"#utility.yul\":16004:16024   */\n      sub\n        /* \"#utility.yul\":16000:16001   */\n      0x00\n        /* \"#utility.yul\":15989:15998   */\n      dup4\n        /* \"#utility.yul\":15985:16002   */\n      add\n        /* \"#utility.yul\":15978:16025   */\n      mstore\n        /* \"#utility.yul\":16042:16173   */\n      tag_350\n        /* \"#utility.yul\":16168:16172   */\n      dup2\n        /* \"#utility.yul\":16042:16173   */\n      tag_200\n      jump\t// in\n    tag_350:\n        /* \"#utility.yul\":16034:16173   */\n      swap1\n      pop\n        /* \"#utility.yul\":15761:16180   */\n      swap2\n      swap1\n      pop\n      jump\t// out\n        /* \"#utility.yul\":16186:16628   */\n    tag_107:\n        /* \"#utility.yul\":16335:16339   */\n      0x00\n        /* \"#utility.yul\":16373:16375   */\n      0x60\n        /* \"#utility.yul\":16362:16371   */\n      dup3\n        /* \"#utility.yul\":16358:16376   */\n      add\n        /* \"#utility.yul\":16350:16376   */\n      swap1\n      pop\n        /* \"#utility.yul\":16386:16457   */\n      tag_352\n        /* \"#utility.yul\":16454:16455   */\n      0x00\n        /* \"#utility.yul\":16443:16452   */\n      dup4\n        /* \"#utility.yul\":16439:16456   */\n      add\n        /* \"#utility.yul\":16430:16436   */\n      dup7\n        /* \"#utility.yul\":16386:16457   */\n      tag_171\n      jump\t// in\n    tag_352:\n        /* \"#utility.yul\":16467:16539   */\n      tag_353\n        /* \"#utility.yul\":16535:16537   */\n      0x20\n        /* \"#utility.yul\":16524:16533   */\n      dup4\n        /* \"#utility.yul\":16520:16538   */\n      add\n        /* \"#utility.yul\":16511:16517   */\n      dup6\n        /* \"#utility.yul\":16467:16539   */\n      tag_171\n      jump\t// in\n    tag_353:\n        /* \"#utility.yul\":16549:16621   */\n      tag_354\n        /* \"#utility.yul\":16617:16619   */\n      0x40\n        /* \"#utility.yul\":16606:16615   */\n      dup4\n        /* \"#utility.yul\":16602:16620   */\n      add\n        /* \"#utility.yul\":16593:16599   */\n      dup5\n        /* \"#utility.yul\":16549:16621   */\n      tag_170\n      jump\t// in\n    tag_354:\n        /* \"#utility.yul\":16186:16628   */\n      swap5\n      swap4\n      pop\n      pop\n      pop\n      pop\n      jump\t// out\n        /* \"#utility.yul\":16634:16806   */\n    tag_201:\n        /* \"#utility.yul\":16774:16798   */\n      0x546f6b656e207472616e73666572206661696c65642e00000000000000000000\n        /* \"#utility.yul\":16770:16771   */\n      0x00\n        /* \"#utility.yul\":16762:16768   */\n      dup3\n        /* \"#utility.yul\":16758:16772   */\n      add\n        /* \"#utility.yul\":16751:16799   */\n      mstore\n        /* \"#utility.yul\":16634:16806   */\n      pop\n      jump\t// out\n        /* \"#utility.yul\":16812:17178   */\n    tag_202:\n        /* \"#utility.yul\":16954:16957   */\n      0x00\n        /* \"#utility.yul\":16975:17042   */\n      tag_357\n        /* \"#utility.yul\":17039:17041   */\n      0x16\n        /* \"#utility.yul\":17034:17037   */\n      dup4\n        /* \"#utility.yul\":16975:17042   */\n      tag_179\n      jump\t// in\n    tag_357:\n        /* \"#utility.yul\":16968:17042   */\n      swap2\n      pop\n        /* \"#utility.yul\":17051:17144   */\n      tag_358\n        /* \"#utility.yul\":17140:17143   */\n      dup3\n        /* \"#utility.yul\":17051:17144   */\n      tag_201\n      jump\t// in\n    tag_358:\n        /* \"#utility.yul\":17169:17171   */\n      0x20\n        /* \"#utility.yul\":17164:17167   */\n      dup3\n        /* \"#utility.yul\":17160:17172   */\n      add\n        /* \"#utility.yul\":17153:17172   */\n      swap1\n      pop\n        /* \"#utility.yul\":16812:17178   */\n      swap2\n      swap1\n      pop\n      jump\t// out\n        /* \"#utility.yul\":17184:17603   */\n    tag_115:\n        /* \"#utility.yul\":17350:17354   */\n      0x00\n        /* \"#utility.yul\":17388:17390   */\n      0x20\n        /* \"#utility.yul\":17377:17386   */\n      dup3\n        /* \"#utility.yul\":17373:17391   */\n      add\n        /* \"#utility.yul\":17365:17391   */\n      swap1\n      pop\n        /* \"#utility.yul\":17437:17446   */\n      dup2\n        /* \"#utility.yul\":17431:17435   */\n      dup2\n        /* \"#utility.yul\":17427:17447   */\n      sub\n        /* \"#utility.yul\":17423:17424   */\n      0x00\n        /* \"#utility.yul\":17412:17421   */\n      dup4\n        /* \"#utility.yul\":17408:17425   */\n      add\n        /* \"#utility.yul\":17401:17448   */\n      mstore\n        /* \"#utility.yul\":17465:17596   */\n      tag_360\n        /* \"#utility.yul\":17591:17595   */\n      dup2\n        /* \"#utility.yul\":17465:17596   */\n      tag_202\n      jump\t// in\n    tag_360:\n        /* \"#utility.yul\":17457:17596   */\n      swap1\n      pop\n        /* \"#utility.yul\":17184:17603   */\n      swap2\n      swap1\n      pop\n      jump\t// out\n        /* \"#utility.yul\":17609:17781   */\n    tag_203:\n        /* \"#utility.yul\":17749:17773   */\n      0x41756374696f6e20686173206e6f7420656e6465642e00000000000000000000\n        /* \"#utility.yul\":17745:17746   */\n      0x00\n        /* \"#utility.yul\":17737:17743   */\n      dup3\n        /* \"#utility.yul\":17733:17747   */\n      add\n        /* \"#utility.yul\":17726:17774   */\n      mstore\n        /* \"#utility.yul\":17609:17781   */\n      pop\n      jump\t// out\n        /* \"#utility.yul\":17787:18153   */\n    tag_204:\n        /* \"#utility.yul\":17929:17932   */\n      0x00\n        /* \"#utility.yul\":17950:18017   */\n      tag_363\n        /* \"#utility.yul\":18014:18016   */\n      0x16\n        /* \"#utility.yul\":18009:18012   */\n      dup4\n        /* \"#utility.yul\":17950:18017   */\n      tag_179\n      jump\t// in\n    tag_363:\n        /* \"#utility.yul\":17943:18017   */\n      swap2\n      pop\n        /* \"#utility.yul\":18026:18119   */\n      tag_364\n        /* \"#utility.yul\":18115:18118   */\n      dup3\n        /* \"#utility.yul\":18026:18119   */\n      tag_203\n      jump\t// in\n    tag_364:\n        /* \"#utility.yul\":18144:18146   */\n      0x20\n        /* \"#utility.yul\":18139:18142   */\n      dup3\n        /* \"#utility.yul\":18135:18147   */\n      add\n        /* \"#utility.yul\":18128:18147   */\n      swap1\n      pop\n        /* \"#utility.yul\":17787:18153   */\n      swap2\n      swap1\n      pop\n      jump\t// out\n        /* \"#utility.yul\":18159:18578   */\n    tag_136:\n        /* \"#utility.yul\":18325:18329   */\n      0x00\n        /* \"#utility.yul\":18363:18365   */\n      0x20\n        /* \"#utility.yul\":18352:18361   */\n      dup3\n        /* \"#utility.yul\":18348:18366   */\n      add\n        /* \"#utility.yul\":18340:18366   */\n      swap1\n      pop\n        /* \"#utility.yul\":18412:18421   */\n      dup2\n        /* \"#utility.yul\":18406:18410   */\n      dup2\n        /* \"#utility.yul\":18402:18422   */\n      sub\n        /* \"#utility.yul\":18398:18399   */\n      0x00\n        /* \"#utility.yul\":18387:18396   */\n      dup4\n        /* \"#utility.yul\":18383:18400   */\n      add\n        /* \"#utility.yul\":18376:18423   */\n      mstore\n        /* \"#utility.yul\":18440:18571   */\n      tag_366\n        /* \"#utility.yul\":18566:18570   */\n      dup2\n        /* \"#utility.yul\":18440:18571   */\n      tag_204\n      jump\t// in\n    tag_366:\n        /* \"#utility.yul\":18432:18571   */\n      swap1\n      pop\n        /* \"#utility.yul\":18159:18578   */\n      swap2\n      swap1\n      pop\n      jump\t// out\n        /* \"#utility.yul\":18584:18669   */\n    tag_205:\n        /* \"#utility.yul\":18629:18636   */\n      0x00\n        /* \"#utility.yul\":18658:18663   */\n      dup2\n        /* \"#utility.yul\":18647:18663   */\n      swap1\n      pop\n        /* \"#utility.yul\":18584:18669   */\n      swap2\n      swap1\n      pop\n      jump\t// out\n        /* \"#utility.yul\":18675:18833   */\n    tag_206:\n        /* \"#utility.yul\":18733:18742   */\n      0x00\n        /* \"#utility.yul\":18766:18827   */\n      tag_369\n        /* \"#utility.yul\":18784:18826   */\n      tag_370\n        /* \"#utility.yul\":18793:18825   */\n      tag_371\n        /* \"#utility.yul\":18819:18824   */\n      dup5\n        /* \"#utility.yul\":18793:18825   */\n      tag_205\n      jump\t// in\n    tag_371:\n        /* \"#utility.yul\":18784:18826   */\n      tag_174\n      jump\t// in\n    tag_370:\n        /* \"#utility.yul\":18766:18827   */\n      tag_163\n      jump\t// in\n    tag_369:\n        /* \"#utility.yul\":18753:18827   */\n      swap1\n      pop\n        /* \"#utility.yul\":18675:18833   */\n      swap2\n      swap1\n      pop\n      jump\t// out\n        /* \"#utility.yul\":18839:18986   */\n    tag_207:\n        /* \"#utility.yul\":18934:18979   */\n      tag_373\n        /* \"#utility.yul\":18973:18978   */\n      dup2\n        /* \"#utility.yul\":18934:18979   */\n      tag_206\n      jump\t// in\n    tag_373:\n        /* \"#utility.yul\":18929:18932   */\n      dup3\n        /* \"#utility.yul\":18922:18980   */\n      mstore\n        /* \"#utility.yul\":18839:18986   */\n      pop\n      pop\n      jump\t// out\n        /* \"#utility.yul\":18992:19230   */\n    tag_153:\n        /* \"#utility.yul\":19093:19097   */\n      0x00\n        /* \"#utility.yul\":19131:19133   */\n      0x20\n        /* \"#utility.yul\":19120:19129   */\n      dup3\n        /* \"#utility.yul\":19116:19134   */\n      add\n        /* \"#utility.yul\":19108:19134   */\n      swap1\n      pop\n        /* \"#utility.yul\":19144:19223   */\n      tag_375\n        /* \"#utility.yul\":19220:19221   */\n      0x00\n        /* \"#utility.yul\":19209:19218   */\n      dup4\n        /* \"#utility.yul\":19205:19222   */\n      add\n        /* \"#utility.yul\":19196:19202   */\n      dup5\n        /* \"#utility.yul\":19144:19223   */\n      tag_207\n      jump\t// in\n    tag_375:\n        /* \"#utility.yul\":18992:19230   */\n      swap3\n      swap2\n      pop\n      pop\n      jump\t// out\n\n    auxdata: 0xa2646970667358221220dae911b9ae49ee25f4146aa247359db82b081e4105eef9200baa9c734f1ea21164736f6c634300081a0033\n}\n",
				"bytecode": {
					"linkReferences": {},
					"object": "608060405234801561000f575f80fd5b50604051611c8a380380611c8a83398181016040528101906100319190610142565b5f73ffffffffffffffffffffffffffffffffffffffff168173ffffffffffffffffffffffffffffffffffffffff160361009f576040517f08c379a0000000000000000000000000000000000000000000000000000000008152600401610096906101c7565b60405180910390fd5b805f806101000a81548173ffffffffffffffffffffffffffffffffffffffff021916908373ffffffffffffffffffffffffffffffffffffffff160217905550506101e5565b5f80fd5b5f73ffffffffffffffffffffffffffffffffffffffff82169050919050565b5f610111826100e8565b9050919050565b61012181610107565b811461012b575f80fd5b50565b5f8151905061013c81610118565b92915050565b5f60208284031215610157576101566100e4565b5b5f6101648482850161012e565b91505092915050565b5f82825260208201905092915050565b7f546f6b656e20616464726573732063616e6e6f74206265207a65726f2e0000005f82015250565b5f6101b1601d8361016d565b91506101bc8261017d565b602082019050919050565b5f6020820190508181035f8301526101de816101a5565b9050919050565b611a98806101f25f395ff3fe608060405234801561000f575f80fd5b506004361061009c575f3560e01c8063de0794ef11610064578063de0794ef14610148578063e808386314610166578063f20e5e3514610182578063f3f43703146101b8578063fc0c546a146101e85761009c565b80630121683f146100a05780630cbb180c146100bc578063435fbd55146100ec578063571a26a0146100f657806357c90de51461012c575b5f80fd5b6100ba60048036038101906100b59190611116565b610206565b005b6100d660048036038101906100d191906111ae565b61046f565b6040516100e391906111e8565b60405180910390f35b6100f4610484565b005b610110600480360381019061010b9190611201565b610663565b6040516101239796959493929190611255565b60405180910390f35b61014660048036038101906101419190611116565b6106fb565b005b610150610b4d565b60405161015d91906111e8565b60405180910390f35b610180600480360381019061017b9190611201565b610b53565b005b61019c60048036038101906101979190611201565b610f03565b6040516101af9796959493929190611255565b60405180910390f35b6101d260048036038101906101cd91906111ae565b6110a7565b6040516101df91906111e8565b60405180910390f35b6101f06110bc565b6040516101fd919061131d565b60405180910390f35b5f8211610248576040517f08c379a000000000000000000000000000000000000000000000000000000000815260040161023f906113b6565b60405180910390fd5b5f811161028a576040517f08c379a000000000000000000000000000000000000000000000000000000000815260040161028190611444565b60405180910390fd5b60036040518060e0016040528060045481526020013373ffffffffffffffffffffffffffffffffffffffff1681526020018481526020015f81526020015f73ffffffffffffffffffffffffffffffffffffffff16815260200160011515815260200183426102f8919061148f565b815250908060018154018082558091505060019003905f5260205f2090600602015f909190919091505f820151815f01556020820151816001015f6101000a81548173ffffffffffffffffffffffffffffffffffffffff021916908373ffffffffffffffffffffffffffffffffffffffff16021790555060408201518160020155606082015181600301556080820151816004015f6101000a81548173ffffffffffffffffffffffffffffffffffffffff021916908373ffffffffffffffffffffffffffffffffffffffff16021790555060a08201518160040160146101000a81548160ff02191690831515021790555060c0820151816005015550503373ffffffffffffffffffffffffffffffffffffffff167fc9050d42180a61cb0d9ebb8ad118b62fe6eab12cf12ff752c4a0cc7da9ddf62760045484844261043d919061148f565b60405161044c939291906114c2565b60405180910390a260045f815480929190610466906114f7565b91905055505050565b6002602052805f5260405f205f915090505481565b5f60025f3373ffffffffffffffffffffffffffffffffffffffff1673ffffffffffffffffffffffffffffffffffffffff1681526020019081526020015f205490505f8111610507576040517f08c379a00000000000000000000000000000000000000000000000000000000081526004016104fe90611588565b60405180910390fd5b5f60025f3373ffffffffffffffffffffffffffffffffffffffff1673ffffffffffffffffffffffffffffffffffffffff1681526020019081526020015f20819055505f8054906101000a900473ffffffffffffffffffffffffffffffffffffffff1673ffffffffffffffffffffffffffffffffffffffff1663a9059cbb33836040518363ffffffff1660e01b81526004016105a39291906115a6565b6020604051808303815f875af19250505080156105de57506040513d601f19601f820116820180604052508101906105db91906115f7565b60015b61065f578060025f3373ffffffffffffffffffffffffffffffffffffffff1673ffffffffffffffffffffffffffffffffffffffff1681526020019081526020015f20819055506040517f08c379a00000000000000000000000000000000000000000000000000000000081526004016106569061166c565b60405180910390fd5b5050565b60038181548110610672575f80fd5b905f5260205f2090600602015f91509050805f015490806001015f9054906101000a900473ffffffffffffffffffffffffffffffffffffffff1690806002015490806003015490806004015f9054906101000a900473ffffffffffffffffffffffffffffffffffffffff16908060040160149054906101000a900460ff16908060050154905087565b6003805490508210610742576040517f08c379a0000000000000000000000000000000000000000000000000000000008152600401610739906116d4565b60405180910390fd5b5f60038381548110610757576107566116f2565b5b905f5260205f20906006020190508060040160149054906101000a900460ff166107b6576040517f08c379a00000000000000000000000000000000000000000000000000000000081526004016107ad90611769565b60405180910390fd5b806005015442106107fc576040517f08c379a00000000000000000000000000000000000000000000000000000000081526004016107f3906117d1565b60405180910390fd5b80600301548211610842576040517f08c379a00000000000000000000000000000000000000000000000000000000081526004016108399061185f565b60405180910390fd5b8060020154821015610889576040517f08c379a0000000000000000000000000000000000000000000000000000000008152600401610880906118ed565b60405180910390fd5b5f8054906101000a900473ffffffffffffffffffffffffffffffffffffffff1673ffffffffffffffffffffffffffffffffffffffff166323b872dd3330856040518463ffffffff1660e01b81526004016108e59392919061190b565b6020604051808303815f875af192505050801561092057506040513d601f19601f8201168201806040525081019061091d91906115f7565b60015b61095f576040517f08c379a00000000000000000000000000000000000000000000000000000000081526004016109569061198a565b60405180910390fd5b505f81600301541115610aae575f8054906101000a900473ffffffffffffffffffffffffffffffffffffffff1673ffffffffffffffffffffffffffffffffffffffff1663a9059cbb826004015f9054906101000a900473ffffffffffffffffffffffffffffffffffffffff1683600301546040518363ffffffff1660e01b81526004016109ed9291906115a6565b6020604051808303815f875af1925050508015610a2857506040513d601f19601f82011682018060405250810190610a2591906115f7565b60015b610aab57806003015460015f836004015f9054906101000a900473ffffffffffffffffffffffffffffffffffffffff1673ffffffffffffffffffffffffffffffffffffffff1673ffffffffffffffffffffffffffffffffffffffff1681526020019081526020015f205f828254610a9f919061148f565b92505081905550610aad565b505b5b81816003018190555033816004015f6101000a81548173ffffffffffffffffffffffffffffffffffffffff021916908373ffffffffffffffffffffffffffffffffffffffff1602179055503373ffffffffffffffffffffffffffffffffffffffff16837f0e54eff26401bf69b81b26f60bd85ef47f5d85275c1d268d84f68d6897431c4784604051610b4091906111e8565b60405180910390a3505050565b60045481565b6003805490508110610b9a576040517f08c379a0000000000000000000000000000000000000000000000000000000008152600401610b91906116d4565b60405180910390fd5b5f60038281548110610baf57610bae6116f2565b5b905f5260205f20906006020190508060050154421015610c04576040517f08c379a0000000000000000000000000000000000000000000000000000000008152600401610bfb906119f2565b60405180910390fd5b8060040160149054906101000a900460ff16610c55576040517f08c379a0000000000000000000000000000000000000000000000000000000008152600401610c4c90611769565b60405180910390fd5b5f8160040160146101000a81548160ff0219169083151502179055505f81600301541115610eaf575f8054906101000a900473ffffffffffffffffffffffffffffffffffffffff1673ffffffffffffffffffffffffffffffffffffffff1663a9059cbb826001015f9054906101000a900473ffffffffffffffffffffffffffffffffffffffff1683600301546040518363ffffffff1660e01b8152600401610cfe9291906115a6565b6020604051808303815f875af1925050508015610d3957506040513d601f19601f82011682018060405250810190610d3691906115f7565b60015b610e3257806003015460025f836001015f9054906101000a900473ffffffffffffffffffffffffffffffffffffffff1673ffffffffffffffffffffffffffffffffffffffff1673ffffffffffffffffffffffffffffffffffffffff1681526020019081526020015f205f828254610db0919061148f565b92505081905550806004015f9054906101000a900473ffffffffffffffffffffffffffffffffffffffff1673ffffffffffffffffffffffffffffffffffffffff16827f4d9113a1377d665eaa1f9168a9c9080f2e488cb820b10149de3d6d2e0f2780c78360030154604051610e2591906111e8565b60405180910390a3610eaa565b50806004015f9054906101000a900473ffffffffffffffffffffffffffffffffffffffff1673ffffffffffffffffffffffffffffffffffffffff16827f4d9113a1377d665eaa1f9168a9c9080f2e488cb820b10149de3d6d2e0f2780c78360030154604051610ea191906111e8565b60405180910390a35b610eff565b5f73ffffffffffffffffffffffffffffffffffffffff16827f4d9113a1377d665eaa1f9168a9c9080f2e488cb820b10149de3d6d2e0f2780c75f604051610ef69190611a49565b60405180910390a35b5050565b5f805f805f805f6003805490508810610f51576040517f08c379a0000000000000000000000000000000000000000000000000000000008152600401610f48906116d4565b60405180910390fd5b5f60038981548110610f6657610f656116f2565b5b905f5260205f2090600602016040518060e00160405290815f8201548152602001600182015f9054906101000a900473ffffffffffffffffffffffffffffffffffffffff1673ffffffffffffffffffffffffffffffffffffffff1673ffffffffffffffffffffffffffffffffffffffff1681526020016002820154815260200160038201548152602001600482015f9054906101000a900473ffffffffffffffffffffffffffffffffffffffff1673ffffffffffffffffffffffffffffffffffffffff1673ffffffffffffffffffffffffffffffffffffffff1681526020016004820160149054906101000a900460ff161515151581526020016005820154815250509050805f015181602001518260400151836060015184608001518560a001518660c00151975097509750975097509750975050919395979092949650565b6001602052805f5260405f205f915090505481565b5f8054906101000a900473ffffffffffffffffffffffffffffffffffffffff1681565b5f80fd5b5f819050919050565b6110f5816110e3565b81146110ff575f80fd5b50565b5f81359050611110816110ec565b92915050565b5f806040838503121561112c5761112b6110df565b5b5f61113985828601611102565b925050602061114a85828601611102565b9150509250929050565b5f73ffffffffffffffffffffffffffffffffffffffff82169050919050565b5f61117d82611154565b9050919050565b61118d81611173565b8114611197575f80fd5b50565b5f813590506111a881611184565b92915050565b5f602082840312156111c3576111c26110df565b5b5f6111d08482850161119a565b91505092915050565b6111e2816110e3565b82525050565b5f6020820190506111fb5f8301846111d9565b92915050565b5f60208284031215611216576112156110df565b5b5f61122384828501611102565b91505092915050565b61123581611173565b82525050565b5f8115159050919050565b61124f8161123b565b82525050565b5f60e0820190506112685f83018a6111d9565b611275602083018961122c565b61128260408301886111d9565b61128f60608301876111d9565b61129c608083018661122c565b6112a960a0830185611246565b6112b660c08301846111d9565b98975050505050505050565b5f819050919050565b5f6112e56112e06112db84611154565b6112c2565b611154565b9050919050565b5f6112f6826112cb565b9050919050565b5f611307826112ec565b9050919050565b611317816112fd565b82525050565b5f6020820190506113305f83018461130e565b92915050565b5f82825260208201905092915050565b7f4d696e696d756d20626964206d7573742062652067726561746572207468616e5f8201527f207a65726f2e0000000000000000000000000000000000000000000000000000602082015250565b5f6113a0602683611336565b91506113ab82611346565b604082019050919050565b5f6020820190508181035f8301526113cd81611394565b9050919050565b7f4475726174696f6e206d7573742062652067726561746572207468616e207a655f8201527f726f2e0000000000000000000000000000000000000000000000000000000000602082015250565b5f61142e602383611336565b9150611439826113d4565b604082019050919050565b5f6020820190508181035f83015261145b81611422565b9050919050565b7f4e487b71000000000000000000000000000000000000000000000000000000005f52601160045260245ffd5b5f611499826110e3565b91506114a4836110e3565b92508282019050808211156114bc576114bb611462565b5b92915050565b5f6060820190506114d55f8301866111d9565b6114e260208301856111d9565b6114ef60408301846111d9565b949350505050565b5f611501826110e3565b91507fffffffffffffffffffffffffffffffffffffffffffffffffffffffffffffffff820361153357611532611462565b5b600182019050919050565b7f4e6f2070656e64696e672066756e64732e0000000000000000000000000000005f82015250565b5f611572601183611336565b915061157d8261153e565b602082019050919050565b5f6020820190508181035f83015261159f81611566565b9050919050565b5f6040820190506115b95f83018561122c565b6115c660208301846111d9565b9392505050565b6115d68161123b565b81146115e0575f80fd5b50565b5f815190506115f1816115cd565b92915050565b5f6020828403121561160c5761160b6110df565b5b5f611619848285016115e3565b91505092915050565b7f5769746864726177206661696c65642e000000000000000000000000000000005f82015250565b5f611656601083611336565b915061166182611622565b602082019050919050565b5f6020820190508181035f8301526116838161164a565b9050919050565b7f41756374696f6e20646f6573206e6f742065786973742e0000000000000000005f82015250565b5f6116be601783611336565b91506116c98261168a565b602082019050919050565b5f6020820190508181035f8301526116eb816116b2565b9050919050565b7f4e487b71000000000000000000000000000000000000000000000000000000005f52603260045260245ffd5b7f41756374696f6e206973206e6f74206163746976652e000000000000000000005f82015250565b5f611753601683611336565b915061175e8261171f565b602082019050919050565b5f6020820190508181035f83015261178081611747565b9050919050565b7f41756374696f6e2068617320656e6465642e00000000000000000000000000005f82015250565b5f6117bb601283611336565b91506117c682611787565b602082019050919050565b5f6020820190508181035f8301526117e8816117af565b9050919050565b7f426964206d75737420626520686967686572207468616e2074686520637572725f8201527f656e742068696768657374206269642e00000000000000000000000000000000602082015250565b5f611849603083611336565b9150611854826117ef565b604082019050919050565b5f6020820190508181035f8301526118768161183d565b9050919050565b7f426964206d757374206d65657420746865206d696e696d756d2062696420616d5f8201527f6f756e742e000000000000000000000000000000000000000000000000000000602082015250565b5f6118d7602583611336565b91506118e28261187d565b604082019050919050565b5f6020820190508181035f830152611904816118cb565b9050919050565b5f60608201905061191e5f83018661122c565b61192b602083018561122c565b61193860408301846111d9565b949350505050565b7f546f6b656e207472616e73666572206661696c65642e000000000000000000005f82015250565b5f611974601683611336565b915061197f82611940565b602082019050919050565b5f6020820190508181035f8301526119a181611968565b9050919050565b7f41756374696f6e20686173206e6f7420656e6465642e000000000000000000005f82015250565b5f6119dc601683611336565b91506119e7826119a8565b602082019050919050565b5f6020820190508181035f830152611a09816119d0565b9050919050565b5f819050919050565b5f611a33611a2e611a2984611a10565b6112c2565b6110e3565b9050919050565b611a4381611a19565b82525050565b5f602082019050611a5c5f830184611a3a565b9291505056fea2646970667358221220dae911b9ae49ee25f4146aa247359db82b081e4105eef9200baa9c734f1ea21164736f6c634300081a0033",
					"opcodes": "PUSH1 0x80 PUSH1 0x40 MSTORE CALLVALUE DUP1 ISZERO PUSH2 0xF JUMPI PUSH0 DUP1 REVERT JUMPDEST POP PUSH1 0x40 MLOAD PUSH2 0x1C8A CODESIZE SUB DUP1 PUSH2 0x1C8A DUP4 CODECOPY DUP2 DUP2 ADD PUSH1 0x40 MSTORE DUP2 ADD SWAP1 PUSH2 0x31 SWAP2 SWAP1 PUSH2 0x142 JUMP JUMPDEST PUSH0 PUSH20 0xFFFFFFFFFFFFFFFFFFFFFFFFFFFFFFFFFFFFFFFF AND DUP2 PUSH20 0xFFFFFFFFFFFFFFFFFFFFFFFFFFFFFFFFFFFFFFFF AND SUB PUSH2 0x9F JUMPI PUSH1 0x40 MLOAD PUSH32 0x8C379A000000000000000000000000000000000000000000000000000000000 DUP2 MSTORE PUSH1 0x4 ADD PUSH2 0x96 SWAP1 PUSH2 0x1C7 JUMP JUMPDEST PUSH1 0x40 MLOAD DUP1 SWAP2 SUB SWAP1 REVERT JUMPDEST DUP1 PUSH0 DUP1 PUSH2 0x100 EXP DUP2 SLOAD DUP2 PUSH20 0xFFFFFFFFFFFFFFFFFFFFFFFFFFFFFFFFFFFFFFFF MUL NOT AND SWAP1 DUP4 PUSH20 0xFFFFFFFFFFFFFFFFFFFFFFFFFFFFFFFFFFFFFFFF AND MUL OR SWAP1 SSTORE POP POP PUSH2 0x1E5 JUMP JUMPDEST PUSH0 DUP1 REVERT JUMPDEST PUSH0 PUSH20 0xFFFFFFFFFFFFFFFFFFFFFFFFFFFFFFFFFFFFFFFF DUP3 AND SWAP1 POP SWAP2 SWAP1 POP JUMP JUMPDEST PUSH0 PUSH2 0x111 DUP3 PUSH2 0xE8 JUMP JUMPDEST SWAP1 POP SWAP2 SWAP1 POP JUMP JUMPDEST PUSH2 0x121 DUP2 PUSH2 0x107 JUMP JUMPDEST DUP2 EQ PUSH2 0x12B JUMPI PUSH0 DUP1 REVERT JUMPDEST POP JUMP JUMPDEST PUSH0 DUP2 MLOAD SWAP1 POP PUSH2 0x13C DUP2 PUSH2 0x118 JUMP JUMPDEST SWAP3 SWAP2 POP POP JUMP JUMPDEST PUSH0 PUSH1 0x20 DUP3 DUP5 SUB SLT ISZERO PUSH2 0x157 JUMPI PUSH2 0x156 PUSH2 0xE4 JUMP JUMPDEST JUMPDEST PUSH0 PUSH2 0x164 DUP5 DUP3 DUP6 ADD PUSH2 0x12E JUMP JUMPDEST SWAP2 POP POP SWAP3 SWAP2 POP POP JUMP JUMPDEST PUSH0 DUP3 DUP3 MSTORE PUSH1 0x20 DUP3 ADD SWAP1 POP SWAP3 SWAP2 POP POP JUMP JUMPDEST PUSH32 0x546F6B656E20616464726573732063616E6E6F74206265207A65726F2E000000 PUSH0 DUP3 ADD MSTORE POP JUMP JUMPDEST PUSH0 PUSH2 0x1B1 PUSH1 0x1D DUP4 PUSH2 0x16D JUMP JUMPDEST SWAP2 POP PUSH2 0x1BC DUP3 PUSH2 0x17D JUMP JUMPDEST PUSH1 0x20 DUP3 ADD SWAP1 POP SWAP2 SWAP1 POP JUMP JUMPDEST PUSH0 PUSH1 0x20 DUP3 ADD SWAP1 POP DUP2 DUP2 SUB PUSH0 DUP4 ADD MSTORE PUSH2 0x1DE DUP2 PUSH2 0x1A5 JUMP JUMPDEST SWAP1 POP SWAP2 SWAP1 POP JUMP JUMPDEST PUSH2 0x1A98 DUP1 PUSH2 0x1F2 PUSH0 CODECOPY PUSH0 RETURN INVALID PUSH1 0x80 PUSH1 0x40 MSTORE CALLVALUE DUP1 ISZERO PUSH2 0xF JUMPI PUSH0 DUP1 REVERT JUMPDEST POP PUSH1 0x4 CALLDATASIZE LT PUSH2 0x9C JUMPI PUSH0 CALLDATALOAD PUSH1 0xE0 SHR DUP1 PUSH4 0xDE0794EF GT PUSH2 0x64 JUMPI DUP1 PUSH4 0xDE0794EF EQ PUSH2 0x148 JUMPI DUP1 PUSH4 0xE8083863 EQ PUSH2 0x166 JUMPI DUP1 PUSH4 0xF20E5E35 EQ PUSH2 0x182 JUMPI DUP1 PUSH4 0xF3F43703 EQ PUSH2 0x1B8 JUMPI DUP1 PUSH4 0xFC0C546A EQ PUSH2 0x1E8 JUMPI PUSH2 0x9C JUMP JUMPDEST DUP1 PUSH4 0x121683F EQ PUSH2 0xA0 JUMPI DUP1 PUSH4 0xCBB180C EQ PUSH2 0xBC JUMPI DUP1 PUSH4 0x435FBD55 EQ PUSH2 0xEC JUMPI DUP1 PUSH4 0x571A26A0 EQ PUSH2 0xF6 JUMPI DUP1 PUSH4 0x57C90DE5 EQ PUSH2 0x12C JUMPI JUMPDEST PUSH0 DUP1 REVERT JUMPDEST PUSH2 0xBA PUSH1 0x4 DUP1 CALLDATASIZE SUB DUP2 ADD SWAP1 PUSH2 0xB5 SWAP2 SWAP1 PUSH2 0x1116 JUMP JUMPDEST PUSH2 0x206 JUMP JUMPDEST STOP JUMPDEST PUSH2 0xD6 PUSH1 0x4 DUP1 CALLDATASIZE SUB DUP2 ADD SWAP1 PUSH2 0xD1 SWAP2 SWAP1 PUSH2 0x11AE JUMP JUMPDEST PUSH2 0x46F JUMP JUMPDEST PUSH1 0x40 MLOAD PUSH2 0xE3 SWAP2 SWAP1 PUSH2 0x11E8 JUMP JUMPDEST PUSH1 0x40 MLOAD DUP1 SWAP2 SUB SWAP1 RETURN JUMPDEST PUSH2 0xF4 PUSH2 0x484 JUMP JUMPDEST STOP JUMPDEST PUSH2 0x110 PUSH1 0x4 DUP1 CALLDATASIZE SUB DUP2 ADD SWAP1 PUSH2 0x10B SWAP2 SWAP1 PUSH2 0x1201 JUMP JUMPDEST PUSH2 0x663 JUMP JUMPDEST PUSH1 0x40 MLOAD PUSH2 0x123 SWAP8 SWAP7 SWAP6 SWAP5 SWAP4 SWAP3 SWAP2 SWAP1 PUSH2 0x1255 JUMP JUMPDEST PUSH1 0x40 MLOAD DUP1 SWAP2 SUB SWAP1 RETURN JUMPDEST PUSH2 0x146 PUSH1 0x4 DUP1 CALLDATASIZE SUB DUP2 ADD SWAP1 PUSH2 0x141 SWAP2 SWAP1 PUSH2 0x1116 JUMP JUMPDEST PUSH2 0x6FB JUMP JUMPDEST STOP JUMPDEST PUSH2 0x150 PUSH2 0xB4D JUMP JUMPDEST PUSH1 0x40 MLOAD PUSH2 0x15D SWAP2 SWAP1 PUSH2 0x11E8 JUMP JUMPDEST PUSH1 0x40 MLOAD DUP1 SWAP2 SUB SWAP1 RETURN JUMPDEST PUSH2 0x180 PUSH1 0x4 DUP1 CALLDATASIZE SUB DUP2 ADD SWAP1 PUSH2 0x17B SWAP2 SWAP1 PUSH2 0x1201 JUMP JUMPDEST PUSH2 0xB53 JUMP JUMPDEST STOP JUMPDEST PUSH2 0x19C PUSH1 0x4 DUP1 CALLDATASIZE SUB DUP2 ADD SWAP1 PUSH2 0x197 SWAP2 SWAP1 PUSH2 0x1201 JUMP JUMPDEST PUSH2 0xF03 JUMP JUMPDEST PUSH1 0x40 MLOAD PUSH2 0x1AF SWAP8 SWAP7 SWAP6 SWAP5 SWAP4 SWAP3 SWAP2 SWAP1 PUSH2 0x1255 JUMP JUMPDEST PUSH1 0x40 MLOAD DUP1 SWAP2 SUB SWAP1 RETURN JUMPDEST PUSH2 0x1D2 PUSH1 0x4 DUP1 CALLDATASIZE SUB DUP2 ADD SWAP1 PUSH2 0x1CD SWAP2 SWAP1 PUSH2 0x11AE JUMP JUMPDEST PUSH2 0x10A7 JUMP JUMPDEST PUSH1 0x40 MLOAD PUSH2 0x1DF SWAP2 SWAP1 PUSH2 0x11E8 JUMP JUMPDEST PUSH1 0x40 MLOAD DUP1 SWAP2 SUB SWAP1 RETURN JUMPDEST PUSH2 0x1F0 PUSH2 0x10BC JUMP JUMPDEST PUSH1 0x40 MLOAD PUSH2 0x1FD SWAP2 SWAP1 PUSH2 0x131D JUMP JUMPDEST PUSH1 0x40 MLOAD DUP1 SWAP2 SUB SWAP1 RETURN JUMPDEST PUSH0 DUP3 GT PUSH2 0x248 JUMPI PUSH1 0x40 MLOAD PUSH32 0x8C379A000000000000000000000000000000000000000000000000000000000 DUP2 MSTORE PUSH1 0x4 ADD PUSH2 0x23F SWAP1 PUSH2 0x13B6 JUMP JUMPDEST PUSH1 0x40 MLOAD DUP1 SWAP2 SUB SWAP1 REVERT JUMPDEST PUSH0 DUP2 GT PUSH2 0x28A JUMPI PUSH1 0x40 MLOAD PUSH32 0x8C379A000000000000000000000000000000000000000000000000000000000 DUP2 MSTORE PUSH1 0x4 ADD PUSH2 0x281 SWAP1 PUSH2 0x1444 JUMP JUMPDEST PUSH1 0x40 MLOAD DUP1 SWAP2 SUB SWAP1 REVERT JUMPDEST PUSH1 0x3 PUSH1 0x40 MLOAD DUP1 PUSH1 0xE0 ADD PUSH1 0x40 MSTORE DUP1 PUSH1 0x4 SLOAD DUP2 MSTORE PUSH1 0x20 ADD CALLER PUSH20 0xFFFFFFFFFFFFFFFFFFFFFFFFFFFFFFFFFFFFFFFF AND DUP2 MSTORE PUSH1 0x20 ADD DUP5 DUP2 MSTORE PUSH1 0x20 ADD PUSH0 DUP2 MSTORE PUSH1 0x20 ADD PUSH0 PUSH20 0xFFFFFFFFFFFFFFFFFFFFFFFFFFFFFFFFFFFFFFFF AND DUP2 MSTORE PUSH1 0x20 ADD PUSH1 0x1 ISZERO ISZERO DUP2 MSTORE PUSH1 0x20 ADD DUP4 TIMESTAMP PUSH2 0x2F8 SWAP2 SWAP1 PUSH2 0x148F JUMP JUMPDEST DUP2 MSTORE POP SWAP1 DUP1 PUSH1 0x1 DUP2 SLOAD ADD DUP1 DUP3 SSTORE DUP1 SWAP2 POP POP PUSH1 0x1 SWAP1 SUB SWAP1 PUSH0 MSTORE PUSH1 0x20 PUSH0 KECCAK256 SWAP1 PUSH1 0x6 MUL ADD PUSH0 SWAP1 SWAP2 SWAP1 SWAP2 SWAP1 SWAP2 POP PUSH0 DUP3 ADD MLOAD DUP2 PUSH0 ADD SSTORE PUSH1 0x20 DUP3 ADD MLOAD DUP2 PUSH1 0x1 ADD PUSH0 PUSH2 0x100 EXP DUP2 SLOAD DUP2 PUSH20 0xFFFFFFFFFFFFFFFFFFFFFFFFFFFFFFFFFFFFFFFF MUL NOT AND SWAP1 DUP4 PUSH20 0xFFFFFFFFFFFFFFFFFFFFFFFFFFFFFFFFFFFFFFFF AND MUL OR SWAP1 SSTORE POP PUSH1 0x40 DUP3 ADD MLOAD DUP2 PUSH1 0x2 ADD SSTORE PUSH1 0x60 DUP3 ADD MLOAD DUP2 PUSH1 0x3 ADD SSTORE PUSH1 0x80 DUP3 ADD MLOAD DUP2 PUSH1 0x4 ADD PUSH0 PUSH2 0x100 EXP DUP2 SLOAD DUP2 PUSH20 0xFFFFFFFFFFFFFFFFFFFFFFFFFFFFFFFFFFFFFFFF MUL NOT AND SWAP1 DUP4 PUSH20 0xFFFFFFFFFFFFFFFFFFFFFFFFFFFFFFFFFFFFFFFF AND MUL OR SWAP1 SSTORE POP PUSH1 0xA0 DUP3 ADD MLOAD DUP2 PUSH1 0x4 ADD PUSH1 0x14 PUSH2 0x100 EXP DUP2 SLOAD DUP2 PUSH1 0xFF MUL NOT AND SWAP1 DUP4 ISZERO ISZERO MUL OR SWAP1 SSTORE POP PUSH1 0xC0 DUP3 ADD MLOAD DUP2 PUSH1 0x5 ADD SSTORE POP POP CALLER PUSH20 0xFFFFFFFFFFFFFFFFFFFFFFFFFFFFFFFFFFFFFFFF AND PUSH32 0xC9050D42180A61CB0D9EBB8AD118B62FE6EAB12CF12FF752C4A0CC7DA9DDF627 PUSH1 0x4 SLOAD DUP5 DUP5 TIMESTAMP PUSH2 0x43D SWAP2 SWAP1 PUSH2 0x148F JUMP JUMPDEST PUSH1 0x40 MLOAD PUSH2 0x44C SWAP4 SWAP3 SWAP2 SWAP1 PUSH2 0x14C2 JUMP JUMPDEST PUSH1 0x40 MLOAD DUP1 SWAP2 SUB SWAP1 LOG2 PUSH1 0x4 PUSH0 DUP2 SLOAD DUP1 SWAP3 SWAP2 SWAP1 PUSH2 0x466 SWAP1 PUSH2 0x14F7 JUMP JUMPDEST SWAP2 SWAP1 POP SSTORE POP POP POP JUMP JUMPDEST PUSH1 0x2 PUSH1 0x20 MSTORE DUP1 PUSH0 MSTORE PUSH1 0x40 PUSH0 KECCAK256 PUSH0 SWAP2 POP SWAP1 POP SLOAD DUP2 JUMP JUMPDEST PUSH0 PUSH1 0x2 PUSH0 CALLER PUSH20 0xFFFFFFFFFFFFFFFFFFFFFFFFFFFFFFFFFFFFFFFF AND PUSH20 0xFFFFFFFFFFFFFFFFFFFFFFFFFFFFFFFFFFFFFFFF AND DUP2 MSTORE PUSH1 0x20 ADD SWAP1 DUP2 MSTORE PUSH1 0x20 ADD PUSH0 KECCAK256 SLOAD SWAP1 POP PUSH0 DUP2 GT PUSH2 0x507 JUMPI PUSH1 0x40 MLOAD PUSH32 0x8C379A000000000000000000000000000000000000000000000000000000000 DUP2 MSTORE PUSH1 0x4 ADD PUSH2 0x4FE SWAP1 PUSH2 0x1588 JUMP JUMPDEST PUSH1 0x40 MLOAD DUP1 SWAP2 SUB SWAP1 REVERT JUMPDEST PUSH0 PUSH1 0x2 PUSH0 CALLER PUSH20 0xFFFFFFFFFFFFFFFFFFFFFFFFFFFFFFFFFFFFFFFF AND PUSH20 0xFFFFFFFFFFFFFFFFFFFFFFFFFFFFFFFFFFFFFFFF AND DUP2 MSTORE PUSH1 0x20 ADD SWAP1 DUP2 MSTORE PUSH1 0x20 ADD PUSH0 KECCAK256 DUP2 SWAP1 SSTORE POP PUSH0 DUP1 SLOAD SWAP1 PUSH2 0x100 EXP SWAP1 DIV PUSH20 0xFFFFFFFFFFFFFFFFFFFFFFFFFFFFFFFFFFFFFFFF AND PUSH20 0xFFFFFFFFFFFFFFFFFFFFFFFFFFFFFFFFFFFFFFFF AND PUSH4 0xA9059CBB CALLER DUP4 PUSH1 0x40 MLOAD DUP4 PUSH4 0xFFFFFFFF AND PUSH1 0xE0 SHL DUP2 MSTORE PUSH1 0x4 ADD PUSH2 0x5A3 SWAP3 SWAP2 SWAP1 PUSH2 0x15A6 JUMP JUMPDEST PUSH1 0x20 PUSH1 0x40 MLOAD DUP1 DUP4 SUB DUP2 PUSH0 DUP8 GAS CALL SWAP3 POP POP POP DUP1 ISZERO PUSH2 0x5DE JUMPI POP PUSH1 0x40 MLOAD RETURNDATASIZE PUSH1 0x1F NOT PUSH1 0x1F DUP3 ADD AND DUP3 ADD DUP1 PUSH1 0x40 MSTORE POP DUP2 ADD SWAP1 PUSH2 0x5DB SWAP2 SWAP1 PUSH2 0x15F7 JUMP JUMPDEST PUSH1 0x1 JUMPDEST PUSH2 0x65F JUMPI DUP1 PUSH1 0x2 PUSH0 CALLER PUSH20 0xFFFFFFFFFFFFFFFFFFFFFFFFFFFFFFFFFFFFFFFF AND PUSH20 0xFFFFFFFFFFFFFFFFFFFFFFFFFFFFFFFFFFFFFFFF AND DUP2 MSTORE PUSH1 0x20 ADD SWAP1 DUP2 MSTORE PUSH1 0x20 ADD PUSH0 KECCAK256 DUP2 SWAP1 SSTORE POP PUSH1 0x40 MLOAD PUSH32 0x8C379A000000000000000000000000000000000000000000000000000000000 DUP2 MSTORE PUSH1 0x4 ADD PUSH2 0x656 SWAP1 PUSH2 0x166C JUMP JUMPDEST PUSH1 0x40 MLOAD DUP1 SWAP2 SUB SWAP1 REVERT JUMPDEST POP POP JUMP JUMPDEST PUSH1 0x3 DUP2 DUP2 SLOAD DUP2 LT PUSH2 0x672 JUMPI PUSH0 DUP1 REVERT JUMPDEST SWAP1 PUSH0 MSTORE PUSH1 0x20 PUSH0 KECCAK256 SWAP1 PUSH1 0x6 MUL ADD PUSH0 SWAP2 POP SWAP1 POP DUP1 PUSH0 ADD SLOAD SWAP1 DUP1 PUSH1 0x1 ADD PUSH0 SWAP1 SLOAD SWAP1 PUSH2 0x100 EXP SWAP1 DIV PUSH20 0xFFFFFFFFFFFFFFFFFFFFFFFFFFFFFFFFFFFFFFFF AND SWAP1 DUP1 PUSH1 0x2 ADD SLOAD SWAP1 DUP1 PUSH1 0x3 ADD SLOAD SWAP1 DUP1 PUSH1 0x4 ADD PUSH0 SWAP1 SLOAD SWAP1 PUSH2 0x100 EXP SWAP1 DIV PUSH20 0xFFFFFFFFFFFFFFFFFFFFFFFFFFFFFFFFFFFFFFFF AND SWAP1 DUP1 PUSH1 0x4 ADD PUSH1 0x14 SWAP1 SLOAD SWAP1 PUSH2 0x100 EXP SWAP1 DIV PUSH1 0xFF AND SWAP1 DUP1 PUSH1 0x5 ADD SLOAD SWAP1 POP DUP8 JUMP JUMPDEST PUSH1 0x3 DUP1 SLOAD SWAP1 POP DUP3 LT PUSH2 0x742 JUMPI PUSH1 0x40 MLOAD PUSH32 0x8C379A000000000000000000000000000000000000000000000000000000000 DUP2 MSTORE PUSH1 0x4 ADD PUSH2 0x739 SWAP1 PUSH2 0x16D4 JUMP JUMPDEST PUSH1 0x40 MLOAD DUP1 SWAP2 SUB SWAP1 REVERT JUMPDEST PUSH0 PUSH1 0x3 DUP4 DUP2 SLOAD DUP2 LT PUSH2 0x757 JUMPI PUSH2 0x756 PUSH2 0x16F2 JUMP JUMPDEST JUMPDEST SWAP1 PUSH0 MSTORE PUSH1 0x20 PUSH0 KECCAK256 SWAP1 PUSH1 0x6 MUL ADD SWAP1 POP DUP1 PUSH1 0x4 ADD PUSH1 0x14 SWAP1 SLOAD SWAP1 PUSH2 0x100 EXP SWAP1 DIV PUSH1 0xFF AND PUSH2 0x7B6 JUMPI PUSH1 0x40 MLOAD PUSH32 0x8C379A000000000000000000000000000000000000000000000000000000000 DUP2 MSTORE PUSH1 0x4 ADD PUSH2 0x7AD SWAP1 PUSH2 0x1769 JUMP JUMPDEST PUSH1 0x40 MLOAD DUP1 SWAP2 SUB SWAP1 REVERT JUMPDEST DUP1 PUSH1 0x5 ADD SLOAD TIMESTAMP LT PUSH2 0x7FC JUMPI PUSH1 0x40 MLOAD PUSH32 0x8C379A000000000000000000000000000000000000000000000000000000000 DUP2 MSTORE PUSH1 0x4 ADD PUSH2 0x7F3 SWAP1 PUSH2 0x17D1 JUMP JUMPDEST PUSH1 0x40 MLOAD DUP1 SWAP2 SUB SWAP1 REVERT JUMPDEST DUP1 PUSH1 0x3 ADD SLOAD DUP3 GT PUSH2 0x842 JUMPI PUSH1 0x40 MLOAD PUSH32 0x8C379A000000000000000000000000000000000000000000000000000000000 DUP2 MSTORE PUSH1 0x4 ADD PUSH2 0x839 SWAP1 PUSH2 0x185F JUMP JUMPDEST PUSH1 0x40 MLOAD DUP1 SWAP2 SUB SWAP1 REVERT JUMPDEST DUP1 PUSH1 0x2 ADD SLOAD DUP3 LT ISZERO PUSH2 0x889 JUMPI PUSH1 0x40 MLOAD PUSH32 0x8C379A000000000000000000000000000000000000000000000000000000000 DUP2 MSTORE PUSH1 0x4 ADD PUSH2 0x880 SWAP1 PUSH2 0x18ED JUMP JUMPDEST PUSH1 0x40 MLOAD DUP1 SWAP2 SUB SWAP1 REVERT JUMPDEST PUSH0 DUP1 SLOAD SWAP1 PUSH2 0x100 EXP SWAP1 DIV PUSH20 0xFFFFFFFFFFFFFFFFFFFFFFFFFFFFFFFFFFFFFFFF AND PUSH20 0xFFFFFFFFFFFFFFFFFFFFFFFFFFFFFFFFFFFFFFFF AND PUSH4 0x23B872DD CALLER ADDRESS DUP6 PUSH1 0x40 MLOAD DUP5 PUSH4 0xFFFFFFFF AND PUSH1 0xE0 SHL DUP2 MSTORE PUSH1 0x4 ADD PUSH2 0x8E5 SWAP4 SWAP3 SWAP2 SWAP1 PUSH2 0x190B JUMP JUMPDEST PUSH1 0x20 PUSH1 0x40 MLOAD DUP1 DUP4 SUB DUP2 PUSH0 DUP8 GAS CALL SWAP3 POP POP POP DUP1 ISZERO PUSH2 0x920 JUMPI POP PUSH1 0x40 MLOAD RETURNDATASIZE PUSH1 0x1F NOT PUSH1 0x1F DUP3 ADD AND DUP3 ADD DUP1 PUSH1 0x40 MSTORE POP DUP2 ADD SWAP1 PUSH2 0x91D SWAP2 SWAP1 PUSH2 0x15F7 JUMP JUMPDEST PUSH1 0x1 JUMPDEST PUSH2 0x95F JUMPI PUSH1 0x40 MLOAD PUSH32 0x8C379A000000000000000000000000000000000000000000000000000000000 DUP2 MSTORE PUSH1 0x4 ADD PUSH2 0x956 SWAP1 PUSH2 0x198A JUMP JUMPDEST PUSH1 0x40 MLOAD DUP1 SWAP2 SUB SWAP1 REVERT JUMPDEST POP PUSH0 DUP2 PUSH1 0x3 ADD SLOAD GT ISZERO PUSH2 0xAAE JUMPI PUSH0 DUP1 SLOAD SWAP1 PUSH2 0x100 EXP SWAP1 DIV PUSH20 0xFFFFFFFFFFFFFFFFFFFFFFFFFFFFFFFFFFFFFFFF AND PUSH20 0xFFFFFFFFFFFFFFFFFFFFFFFFFFFFFFFFFFFFFFFF AND PUSH4 0xA9059CBB DUP3 PUSH1 0x4 ADD PUSH0 SWAP1 SLOAD SWAP1 PUSH2 0x100 EXP SWAP1 DIV PUSH20 0xFFFFFFFFFFFFFFFFFFFFFFFFFFFFFFFFFFFFFFFF AND DUP4 PUSH1 0x3 ADD SLOAD PUSH1 0x40 MLOAD DUP4 PUSH4 0xFFFFFFFF AND PUSH1 0xE0 SHL DUP2 MSTORE PUSH1 0x4 ADD PUSH2 0x9ED SWAP3 SWAP2 SWAP1 PUSH2 0x15A6 JUMP JUMPDEST PUSH1 0x20 PUSH1 0x40 MLOAD DUP1 DUP4 SUB DUP2 PUSH0 DUP8 GAS CALL SWAP3 POP POP POP DUP1 ISZERO PUSH2 0xA28 JUMPI POP PUSH1 0x40 MLOAD RETURNDATASIZE PUSH1 0x1F NOT PUSH1 0x1F DUP3 ADD AND DUP3 ADD DUP1 PUSH1 0x40 MSTORE POP DUP2 ADD SWAP1 PUSH2 0xA25 SWAP2 SWAP1 PUSH2 0x15F7 JUMP JUMPDEST PUSH1 0x1 JUMPDEST PUSH2 0xAAB JUMPI DUP1 PUSH1 0x3 ADD SLOAD PUSH1 0x1 PUSH0 DUP4 PUSH1 0x4 ADD PUSH0 SWAP1 SLOAD SWAP1 PUSH2 0x100 EXP SWAP1 DIV PUSH20 0xFFFFFFFFFFFFFFFFFFFFFFFFFFFFFFFFFFFFFFFF AND PUSH20 0xFFFFFFFFFFFFFFFFFFFFFFFFFFFFFFFFFFFFFFFF AND PUSH20 0xFFFFFFFFFFFFFFFFFFFFFFFFFFFFFFFFFFFFFFFF AND DUP2 MSTORE PUSH1 0x20 ADD SWAP1 DUP2 MSTORE PUSH1 0x20 ADD PUSH0 KECCAK256 PUSH0 DUP3 DUP3 SLOAD PUSH2 0xA9F SWAP2 SWAP1 PUSH2 0x148F JUMP JUMPDEST SWAP3 POP POP DUP2 SWAP1 SSTORE POP PUSH2 0xAAD JUMP JUMPDEST POP JUMPDEST JUMPDEST DUP2 DUP2 PUSH1 0x3 ADD DUP2 SWAP1 SSTORE POP CALLER DUP2 PUSH1 0x4 ADD PUSH0 PUSH2 0x100 EXP DUP2 SLOAD DUP2 PUSH20 0xFFFFFFFFFFFFFFFFFFFFFFFFFFFFFFFFFFFFFFFF MUL NOT AND SWAP1 DUP4 PUSH20 0xFFFFFFFFFFFFFFFFFFFFFFFFFFFFFFFFFFFFFFFF AND MUL OR SWAP1 SSTORE POP CALLER PUSH20 0xFFFFFFFFFFFFFFFFFFFFFFFFFFFFFFFFFFFFFFFF AND DUP4 PUSH32 0xE54EFF26401BF69B81B26F60BD85EF47F5D85275C1D268D84F68D6897431C47 DUP5 PUSH1 0x40 MLOAD PUSH2 0xB40 SWAP2 SWAP1 PUSH2 0x11E8 JUMP JUMPDEST PUSH1 0x40 MLOAD DUP1 SWAP2 SUB SWAP1 LOG3 POP POP POP JUMP JUMPDEST PUSH1 0x4 SLOAD DUP2 JUMP JUMPDEST PUSH1 0x3 DUP1 SLOAD SWAP1 POP DUP2 LT PUSH2 0xB9A JUMPI PUSH1 0x40 MLOAD PUSH32 0x8C379A000000000000000000000000000000000000000000000000000000000 DUP2 MSTORE PUSH1 0x4 ADD PUSH2 0xB91 SWAP1 PUSH2 0x16D4 JUMP JUMPDEST PUSH1 0x40 MLOAD DUP1 SWAP2 SUB SWAP1 REVERT JUMPDEST PUSH0 PUSH1 0x3 DUP3 DUP2 SLOAD DUP2 LT PUSH2 0xBAF JUMPI PUSH2 0xBAE PUSH2 0x16F2 JUMP JUMPDEST JUMPDEST SWAP1 PUSH0 MSTORE PUSH1 0x20 PUSH0 KECCAK256 SWAP1 PUSH1 0x6 MUL ADD SWAP1 POP DUP1 PUSH1 0x5 ADD SLOAD TIMESTAMP LT ISZERO PUSH2 0xC04 JUMPI PUSH1 0x40 MLOAD PUSH32 0x8C379A000000000000000000000000000000000000000000000000000000000 DUP2 MSTORE PUSH1 0x4 ADD PUSH2 0xBFB SWAP1 PUSH2 0x19F2 JUMP JUMPDEST PUSH1 0x40 MLOAD DUP1 SWAP2 SUB SWAP1 REVERT JUMPDEST DUP1 PUSH1 0x4 ADD PUSH1 0x14 SWAP1 SLOAD SWAP1 PUSH2 0x100 EXP SWAP1 DIV PUSH1 0xFF AND PUSH2 0xC55 JUMPI PUSH1 0x40 MLOAD PUSH32 0x8C379A000000000000000000000000000000000000000000000000000000000 DUP2 MSTORE PUSH1 0x4 ADD PUSH2 0xC4C SWAP1 PUSH2 0x1769 JUMP JUMPDEST PUSH1 0x40 MLOAD DUP1 SWAP2 SUB SWAP1 REVERT JUMPDEST PUSH0 DUP2 PUSH1 0x4 ADD PUSH1 0x14 PUSH2 0x100 EXP DUP2 SLOAD DUP2 PUSH1 0xFF MUL NOT AND SWAP1 DUP4 ISZERO ISZERO MUL OR SWAP1 SSTORE POP PUSH0 DUP2 PUSH1 0x3 ADD SLOAD GT ISZERO PUSH2 0xEAF JUMPI PUSH0 DUP1 SLOAD SWAP1 PUSH2 0x100 EXP SWAP1 DIV PUSH20 0xFFFFFFFFFFFFFFFFFFFFFFFFFFFFFFFFFFFFFFFF AND PUSH20 0xFFFFFFFFFFFFFFFFFFFFFFFFFFFFFFFFFFFFFFFF AND PUSH4 0xA9059CBB DUP3 PUSH1 0x1 ADD PUSH0 SWAP1 SLOAD SWAP1 PUSH2 0x100 EXP SWAP1 DIV PUSH20 0xFFFFFFFFFFFFFFFFFFFFFFFFFFFFFFFFFFFFFFFF AND DUP4 PUSH1 0x3 ADD SLOAD PUSH1 0x40 MLOAD DUP4 PUSH4 0xFFFFFFFF AND PUSH1 0xE0 SHL DUP2 MSTORE PUSH1 0x4 ADD PUSH2 0xCFE SWAP3 SWAP2 SWAP1 PUSH2 0x15A6 JUMP JUMPDEST PUSH1 0x20 PUSH1 0x40 MLOAD DUP1 DUP4 SUB DUP2 PUSH0 DUP8 GAS CALL SWAP3 POP POP POP DUP1 ISZERO PUSH2 0xD39 JUMPI POP PUSH1 0x40 MLOAD RETURNDATASIZE PUSH1 0x1F NOT PUSH1 0x1F DUP3 ADD AND DUP3 ADD DUP1 PUSH1 0x40 MSTORE POP DUP2 ADD SWAP1 PUSH2 0xD36 SWAP2 SWAP1 PUSH2 0x15F7 JUMP JUMPDEST PUSH1 0x1 JUMPDEST PUSH2 0xE32 JUMPI DUP1 PUSH1 0x3 ADD SLOAD PUSH1 0x2 PUSH0 DUP4 PUSH1 0x1 ADD PUSH0 SWAP1 SLOAD SWAP1 PUSH2 0x100 EXP SWAP1 DIV PUSH20 0xFFFFFFFFFFFFFFFFFFFFFFFFFFFFFFFFFFFFFFFF AND PUSH20 0xFFFFFFFFFFFFFFFFFFFFFFFFFFFFFFFFFFFFFFFF AND PUSH20 0xFFFFFFFFFFFFFFFFFFFFFFFFFFFFFFFFFFFFFFFF AND DUP2 MSTORE PUSH1 0x20 ADD SWAP1 DUP2 MSTORE PUSH1 0x20 ADD PUSH0 KECCAK256 PUSH0 DUP3 DUP3 SLOAD PUSH2 0xDB0 SWAP2 SWAP1 PUSH2 0x148F JUMP JUMPDEST SWAP3 POP POP DUP2 SWAP1 SSTORE POP DUP1 PUSH1 0x4 ADD PUSH0 SWAP1 SLOAD SWAP1 PUSH2 0x100 EXP SWAP1 DIV PUSH20 0xFFFFFFFFFFFFFFFFFFFFFFFFFFFFFFFFFFFFFFFF AND PUSH20 0xFFFFFFFFFFFFFFFFFFFFFFFFFFFFFFFFFFFFFFFF AND DUP3 PUSH32 0x4D9113A1377D665EAA1F9168A9C9080F2E488CB820B10149DE3D6D2E0F2780C7 DUP4 PUSH1 0x3 ADD SLOAD PUSH1 0x40 MLOAD PUSH2 0xE25 SWAP2 SWAP1 PUSH2 0x11E8 JUMP JUMPDEST PUSH1 0x40 MLOAD DUP1 SWAP2 SUB SWAP1 LOG3 PUSH2 0xEAA JUMP JUMPDEST POP DUP1 PUSH1 0x4 ADD PUSH0 SWAP1 SLOAD SWAP1 PUSH2 0x100 EXP SWAP1 DIV PUSH20 0xFFFFFFFFFFFFFFFFFFFFFFFFFFFFFFFFFFFFFFFF AND PUSH20 0xFFFFFFFFFFFFFFFFFFFFFFFFFFFFFFFFFFFFFFFF AND DUP3 PUSH32 0x4D9113A1377D665EAA1F9168A9C9080F2E488CB820B10149DE3D6D2E0F2780C7 DUP4 PUSH1 0x3 ADD SLOAD PUSH1 0x40 MLOAD PUSH2 0xEA1 SWAP2 SWAP1 PUSH2 0x11E8 JUMP JUMPDEST PUSH1 0x40 MLOAD DUP1 SWAP2 SUB SWAP1 LOG3 JUMPDEST PUSH2 0xEFF JUMP JUMPDEST PUSH0 PUSH20 0xFFFFFFFFFFFFFFFFFFFFFFFFFFFFFFFFFFFFFFFF AND DUP3 PUSH32 0x4D9113A1377D665EAA1F9168A9C9080F2E488CB820B10149DE3D6D2E0F2780C7 PUSH0 PUSH1 0x40 MLOAD PUSH2 0xEF6 SWAP2 SWAP1 PUSH2 0x1A49 JUMP JUMPDEST PUSH1 0x40 MLOAD DUP1 SWAP2 SUB SWAP1 LOG3 JUMPDEST POP POP JUMP JUMPDEST PUSH0 DUP1 PUSH0 DUP1 PUSH0 DUP1 PUSH0 PUSH1 0x3 DUP1 SLOAD SWAP1 POP DUP9 LT PUSH2 0xF51 JUMPI PUSH1 0x40 MLOAD PUSH32 0x8C379A000000000000000000000000000000000000000000000000000000000 DUP2 MSTORE PUSH1 0x4 ADD PUSH2 0xF48 SWAP1 PUSH2 0x16D4 JUMP JUMPDEST PUSH1 0x40 MLOAD DUP1 SWAP2 SUB SWAP1 REVERT JUMPDEST PUSH0 PUSH1 0x3 DUP10 DUP2 SLOAD DUP2 LT PUSH2 0xF66 JUMPI PUSH2 0xF65 PUSH2 0x16F2 JUMP JUMPDEST JUMPDEST SWAP1 PUSH0 MSTORE PUSH1 0x20 PUSH0 KECCAK256 SWAP1 PUSH1 0x6 MUL ADD PUSH1 0x40 MLOAD DUP1 PUSH1 0xE0 ADD PUSH1 0x40 MSTORE SWAP1 DUP2 PUSH0 DUP3 ADD SLOAD DUP2 MSTORE PUSH1 0x20 ADD PUSH1 0x1 DUP3 ADD PUSH0 SWAP1 SLOAD SWAP1 PUSH2 0x100 EXP SWAP1 DIV PUSH20 0xFFFFFFFFFFFFFFFFFFFFFFFFFFFFFFFFFFFFFFFF AND PUSH20 0xFFFFFFFFFFFFFFFFFFFFFFFFFFFFFFFFFFFFFFFF AND PUSH20 0xFFFFFFFFFFFFFFFFFFFFFFFFFFFFFFFFFFFFFFFF AND DUP2 MSTORE PUSH1 0x20 ADD PUSH1 0x2 DUP3 ADD SLOAD DUP2 MSTORE PUSH1 0x20 ADD PUSH1 0x3 DUP3 ADD SLOAD DUP2 MSTORE PUSH1 0x20 ADD PUSH1 0x4 DUP3 ADD PUSH0 SWAP1 SLOAD SWAP1 PUSH2 0x100 EXP SWAP1 DIV PUSH20 0xFFFFFFFFFFFFFFFFFFFFFFFFFFFFFFFFFFFFFFFF AND PUSH20 0xFFFFFFFFFFFFFFFFFFFFFFFFFFFFFFFFFFFFFFFF AND PUSH20 0xFFFFFFFFFFFFFFFFFFFFFFFFFFFFFFFFFFFFFFFF AND DUP2 MSTORE PUSH1 0x20 ADD PUSH1 0x4 DUP3 ADD PUSH1 0x14 SWAP1 SLOAD SWAP1 PUSH2 0x100 EXP SWAP1 DIV PUSH1 0xFF AND ISZERO ISZERO ISZERO ISZERO DUP2 MSTORE PUSH1 0x20 ADD PUSH1 0x5 DUP3 ADD SLOAD DUP2 MSTORE POP POP SWAP1 POP DUP1 PUSH0 ADD MLOAD DUP2 PUSH1 0x20 ADD MLOAD DUP3 PUSH1 0x40 ADD MLOAD DUP4 PUSH1 0x60 ADD MLOAD DUP5 PUSH1 0x80 ADD MLOAD DUP6 PUSH1 0xA0 ADD MLOAD DUP7 PUSH1 0xC0 ADD MLOAD SWAP8 POP SWAP8 POP SWAP8 POP SWAP8 POP SWAP8 POP SWAP8 POP SWAP8 POP POP SWAP2 SWAP4 SWAP6 SWAP8 SWAP1 SWAP3 SWAP5 SWAP7 POP JUMP JUMPDEST PUSH1 0x1 PUSH1 0x20 MSTORE DUP1 PUSH0 MSTORE PUSH1 0x40 PUSH0 KECCAK256 PUSH0 SWAP2 POP SWAP1 POP SLOAD DUP2 JUMP JUMPDEST PUSH0 DUP1 SLOAD SWAP1 PUSH2 0x100 EXP SWAP1 DIV PUSH20 0xFFFFFFFFFFFFFFFFFFFFFFFFFFFFFFFFFFFFFFFF AND DUP2 JUMP JUMPDEST PUSH0 DUP1 REVERT JUMPDEST PUSH0 DUP2 SWAP1 POP SWAP2 SWAP1 POP JUMP JUMPDEST PUSH2 0x10F5 DUP2 PUSH2 0x10E3 JUMP JUMPDEST DUP2 EQ PUSH2 0x10FF JUMPI PUSH0 DUP1 REVERT JUMPDEST POP JUMP JUMPDEST PUSH0 DUP2 CALLDATALOAD SWAP1 POP PUSH2 0x1110 DUP2 PUSH2 0x10EC JUMP JUMPDEST SWAP3 SWAP2 POP POP JUMP JUMPDEST PUSH0 DUP1 PUSH1 0x40 DUP4 DUP6 SUB SLT ISZERO PUSH2 0x112C JUMPI PUSH2 0x112B PUSH2 0x10DF JUMP JUMPDEST JUMPDEST PUSH0 PUSH2 0x1139 DUP6 DUP3 DUP7 ADD PUSH2 0x1102 JUMP JUMPDEST SWAP3 POP POP PUSH1 0x20 PUSH2 0x114A DUP6 DUP3 DUP7 ADD PUSH2 0x1102 JUMP JUMPDEST SWAP2 POP POP SWAP3 POP SWAP3 SWAP1 POP JUMP JUMPDEST PUSH0 PUSH20 0xFFFFFFFFFFFFFFFFFFFFFFFFFFFFFFFFFFFFFFFF DUP3 AND SWAP1 POP SWAP2 SWAP1 POP JUMP JUMPDEST PUSH0 PUSH2 0x117D DUP3 PUSH2 0x1154 JUMP JUMPDEST SWAP1 POP SWAP2 SWAP1 POP JUMP JUMPDEST PUSH2 0x118D DUP2 PUSH2 0x1173 JUMP JUMPDEST DUP2 EQ PUSH2 0x1197 JUMPI PUSH0 DUP1 REVERT JUMPDEST POP JUMP JUMPDEST PUSH0 DUP2 CALLDATALOAD SWAP1 POP PUSH2 0x11A8 DUP2 PUSH2 0x1184 JUMP JUMPDEST SWAP3 SWAP2 POP POP JUMP JUMPDEST PUSH0 PUSH1 0x20 DUP3 DUP5 SUB SLT ISZERO PUSH2 0x11C3 JUMPI PUSH2 0x11C2 PUSH2 0x10DF JUMP JUMPDEST JUMPDEST PUSH0 PUSH2 0x11D0 DUP5 DUP3 DUP6 ADD PUSH2 0x119A JUMP JUMPDEST SWAP2 POP POP SWAP3 SWAP2 POP POP JUMP JUMPDEST PUSH2 0x11E2 DUP2 PUSH2 0x10E3 JUMP JUMPDEST DUP3 MSTORE POP POP JUMP JUMPDEST PUSH0 PUSH1 0x20 DUP3 ADD SWAP1 POP PUSH2 0x11FB PUSH0 DUP4 ADD DUP5 PUSH2 0x11D9 JUMP JUMPDEST SWAP3 SWAP2 POP POP JUMP JUMPDEST PUSH0 PUSH1 0x20 DUP3 DUP5 SUB SLT ISZERO PUSH2 0x1216 JUMPI PUSH2 0x1215 PUSH2 0x10DF JUMP JUMPDEST JUMPDEST PUSH0 PUSH2 0x1223 DUP5 DUP3 DUP6 ADD PUSH2 0x1102 JUMP JUMPDEST SWAP2 POP POP SWAP3 SWAP2 POP POP JUMP JUMPDEST PUSH2 0x1235 DUP2 PUSH2 0x1173 JUMP JUMPDEST DUP3 MSTORE POP POP JUMP JUMPDEST PUSH0 DUP2 ISZERO ISZERO SWAP1 POP SWAP2 SWAP1 POP JUMP JUMPDEST PUSH2 0x124F DUP2 PUSH2 0x123B JUMP JUMPDEST DUP3 MSTORE POP POP JUMP JUMPDEST PUSH0 PUSH1 0xE0 DUP3 ADD SWAP1 POP PUSH2 0x1268 PUSH0 DUP4 ADD DUP11 PUSH2 0x11D9 JUMP JUMPDEST PUSH2 0x1275 PUSH1 0x20 DUP4 ADD DUP10 PUSH2 0x122C JUMP JUMPDEST PUSH2 0x1282 PUSH1 0x40 DUP4 ADD DUP9 PUSH2 0x11D9 JUMP JUMPDEST PUSH2 0x128F PUSH1 0x60 DUP4 ADD DUP8 PUSH2 0x11D9 JUMP JUMPDEST PUSH2 0x129C PUSH1 0x80 DUP4 ADD DUP7 PUSH2 0x122C JUMP JUMPDEST PUSH2 0x12A9 PUSH1 0xA0 DUP4 ADD DUP6 PUSH2 0x1246 JUMP JUMPDEST PUSH2 0x12B6 PUSH1 0xC0 DUP4 ADD DUP5 PUSH2 0x11D9 JUMP JUMPDEST SWAP9 SWAP8 POP POP POP POP POP POP POP POP JUMP JUMPDEST PUSH0 DUP2 SWAP1 POP SWAP2 SWAP1 POP JUMP JUMPDEST PUSH0 PUSH2 0x12E5 PUSH2 0x12E0 PUSH2 0x12DB DUP5 PUSH2 0x1154 JUMP JUMPDEST PUSH2 0x12C2 JUMP JUMPDEST PUSH2 0x1154 JUMP JUMPDEST SWAP1 POP SWAP2 SWAP1 POP JUMP JUMPDEST PUSH0 PUSH2 0x12F6 DUP3 PUSH2 0x12CB JUMP JUMPDEST SWAP1 POP SWAP2 SWAP1 POP JUMP JUMPDEST PUSH0 PUSH2 0x1307 DUP3 PUSH2 0x12EC JUMP JUMPDEST SWAP1 POP SWAP2 SWAP1 POP JUMP JUMPDEST PUSH2 0x1317 DUP2 PUSH2 0x12FD JUMP JUMPDEST DUP3 MSTORE POP POP JUMP JUMPDEST PUSH0 PUSH1 0x20 DUP3 ADD SWAP1 POP PUSH2 0x1330 PUSH0 DUP4 ADD DUP5 PUSH2 0x130E JUMP JUMPDEST SWAP3 SWAP2 POP POP JUMP JUMPDEST PUSH0 DUP3 DUP3 MSTORE PUSH1 0x20 DUP3 ADD SWAP1 POP SWAP3 SWAP2 POP POP JUMP JUMPDEST PUSH32 0x4D696E696D756D20626964206D7573742062652067726561746572207468616E PUSH0 DUP3 ADD MSTORE PUSH32 0x207A65726F2E0000000000000000000000000000000000000000000000000000 PUSH1 0x20 DUP3 ADD MSTORE POP JUMP JUMPDEST PUSH0 PUSH2 0x13A0 PUSH1 0x26 DUP4 PUSH2 0x1336 JUMP JUMPDEST SWAP2 POP PUSH2 0x13AB DUP3 PUSH2 0x1346 JUMP JUMPDEST PUSH1 0x40 DUP3 ADD SWAP1 POP SWAP2 SWAP1 POP JUMP JUMPDEST PUSH0 PUSH1 0x20 DUP3 ADD SWAP1 POP DUP2 DUP2 SUB PUSH0 DUP4 ADD MSTORE PUSH2 0x13CD DUP2 PUSH2 0x1394 JUMP JUMPDEST SWAP1 POP SWAP2 SWAP1 POP JUMP JUMPDEST PUSH32 0x4475726174696F6E206D7573742062652067726561746572207468616E207A65 PUSH0 DUP3 ADD MSTORE PUSH32 0x726F2E0000000000000000000000000000000000000000000000000000000000 PUSH1 0x20 DUP3 ADD MSTORE POP JUMP JUMPDEST PUSH0 PUSH2 0x142E PUSH1 0x23 DUP4 PUSH2 0x1336 JUMP JUMPDEST SWAP2 POP PUSH2 0x1439 DUP3 PUSH2 0x13D4 JUMP JUMPDEST PUSH1 0x40 DUP3 ADD SWAP1 POP SWAP2 SWAP1 POP JUMP JUMPDEST PUSH0 PUSH1 0x20 DUP3 ADD SWAP1 POP DUP2 DUP2 SUB PUSH0 DUP4 ADD MSTORE PUSH2 0x145B DUP2 PUSH2 0x1422 JUMP JUMPDEST SWAP1 POP SWAP2 SWAP1 POP JUMP JUMPDEST PUSH32 0x4E487B7100000000000000000000000000000000000000000000000000000000 PUSH0 MSTORE PUSH1 0x11 PUSH1 0x4 MSTORE PUSH1 0x24 PUSH0 REVERT JUMPDEST PUSH0 PUSH2 0x1499 DUP3 PUSH2 0x10E3 JUMP JUMPDEST SWAP2 POP PUSH2 0x14A4 DUP4 PUSH2 0x10E3 JUMP JUMPDEST SWAP3 POP DUP3 DUP3 ADD SWAP1 POP DUP1 DUP3 GT ISZERO PUSH2 0x14BC JUMPI PUSH2 0x14BB PUSH2 0x1462 JUMP JUMPDEST JUMPDEST SWAP3 SWAP2 POP POP JUMP JUMPDEST PUSH0 PUSH1 0x60 DUP3 ADD SWAP1 POP PUSH2 0x14D5 PUSH0 DUP4 ADD DUP7 PUSH2 0x11D9 JUMP JUMPDEST PUSH2 0x14E2 PUSH1 0x20 DUP4 ADD DUP6 PUSH2 0x11D9 JUMP JUMPDEST PUSH2 0x14EF PUSH1 0x40 DUP4 ADD DUP5 PUSH2 0x11D9 JUMP JUMPDEST SWAP5 SWAP4 POP POP POP POP JUMP JUMPDEST PUSH0 PUSH2 0x1501 DUP3 PUSH2 0x10E3 JUMP JUMPDEST SWAP2 POP PUSH32 0xFFFFFFFFFFFFFFFFFFFFFFFFFFFFFFFFFFFFFFFFFFFFFFFFFFFFFFFFFFFFFFFF DUP3 SUB PUSH2 0x1533 JUMPI PUSH2 0x1532 PUSH2 0x1462 JUMP JUMPDEST JUMPDEST PUSH1 0x1 DUP3 ADD SWAP1 POP SWAP2 SWAP1 POP JUMP JUMPDEST PUSH32 0x4E6F2070656E64696E672066756E64732E000000000000000000000000000000 PUSH0 DUP3 ADD MSTORE POP JUMP JUMPDEST PUSH0 PUSH2 0x1572 PUSH1 0x11 DUP4 PUSH2 0x1336 JUMP JUMPDEST SWAP2 POP PUSH2 0x157D DUP3 PUSH2 0x153E JUMP JUMPDEST PUSH1 0x20 DUP3 ADD SWAP1 POP SWAP2 SWAP1 POP JUMP JUMPDEST PUSH0 PUSH1 0x20 DUP3 ADD SWAP1 POP DUP2 DUP2 SUB PUSH0 DUP4 ADD MSTORE PUSH2 0x159F DUP2 PUSH2 0x1566 JUMP JUMPDEST SWAP1 POP SWAP2 SWAP1 POP JUMP JUMPDEST PUSH0 PUSH1 0x40 DUP3 ADD SWAP1 POP PUSH2 0x15B9 PUSH0 DUP4 ADD DUP6 PUSH2 0x122C JUMP JUMPDEST PUSH2 0x15C6 PUSH1 0x20 DUP4 ADD DUP5 PUSH2 0x11D9 JUMP JUMPDEST SWAP4 SWAP3 POP POP POP JUMP JUMPDEST PUSH2 0x15D6 DUP2 PUSH2 0x123B JUMP JUMPDEST DUP2 EQ PUSH2 0x15E0 JUMPI PUSH0 DUP1 REVERT JUMPDEST POP JUMP JUMPDEST PUSH0 DUP2 MLOAD SWAP1 POP PUSH2 0x15F1 DUP2 PUSH2 0x15CD JUMP JUMPDEST SWAP3 SWAP2 POP POP JUMP JUMPDEST PUSH0 PUSH1 0x20 DUP3 DUP5 SUB SLT ISZERO PUSH2 0x160C JUMPI PUSH2 0x160B PUSH2 0x10DF JUMP JUMPDEST JUMPDEST PUSH0 PUSH2 0x1619 DUP5 DUP3 DUP6 ADD PUSH2 0x15E3 JUMP JUMPDEST SWAP2 POP POP SWAP3 SWAP2 POP POP JUMP JUMPDEST PUSH32 0x5769746864726177206661696C65642E00000000000000000000000000000000 PUSH0 DUP3 ADD MSTORE POP JUMP JUMPDEST PUSH0 PUSH2 0x1656 PUSH1 0x10 DUP4 PUSH2 0x1336 JUMP JUMPDEST SWAP2 POP PUSH2 0x1661 DUP3 PUSH2 0x1622 JUMP JUMPDEST PUSH1 0x20 DUP3 ADD SWAP1 POP SWAP2 SWAP1 POP JUMP JUMPDEST PUSH0 PUSH1 0x20 DUP3 ADD SWAP1 POP DUP2 DUP2 SUB PUSH0 DUP4 ADD MSTORE PUSH2 0x1683 DUP2 PUSH2 0x164A JUMP JUMPDEST SWAP1 POP SWAP2 SWAP1 POP JUMP JUMPDEST PUSH32 0x41756374696F6E20646F6573206E6F742065786973742E000000000000000000 PUSH0 DUP3 ADD MSTORE POP JUMP JUMPDEST PUSH0 PUSH2 0x16BE PUSH1 0x17 DUP4 PUSH2 0x1336 JUMP JUMPDEST SWAP2 POP PUSH2 0x16C9 DUP3 PUSH2 0x168A JUMP JUMPDEST PUSH1 0x20 DUP3 ADD SWAP1 POP SWAP2 SWAP1 POP JUMP JUMPDEST PUSH0 PUSH1 0x20 DUP3 ADD SWAP1 POP DUP2 DUP2 SUB PUSH0 DUP4 ADD MSTORE PUSH2 0x16EB DUP2 PUSH2 0x16B2 JUMP JUMPDEST SWAP1 POP SWAP2 SWAP1 POP JUMP JUMPDEST PUSH32 0x4E487B7100000000000000000000000000000000000000000000000000000000 PUSH0 MSTORE PUSH1 0x32 PUSH1 0x4 MSTORE PUSH1 0x24 PUSH0 REVERT JUMPDEST PUSH32 0x41756374696F6E206973206E6F74206163746976652E00000000000000000000 PUSH0 DUP3 ADD MSTORE POP JUMP JUMPDEST PUSH0 PUSH2 0x1753 PUSH1 0x16 DUP4 PUSH2 0x1336 JUMP JUMPDEST SWAP2 POP PUSH2 0x175E DUP3 PUSH2 0x171F JUMP JUMPDEST PUSH1 0x20 DUP3 ADD SWAP1 POP SWAP2 SWAP1 POP JUMP JUMPDEST PUSH0 PUSH1 0x20 DUP3 ADD SWAP1 POP DUP2 DUP2 SUB PUSH0 DUP4 ADD MSTORE PUSH2 0x1780 DUP2 PUSH2 0x1747 JUMP JUMPDEST SWAP1 POP SWAP2 SWAP1 POP JUMP JUMPDEST PUSH32 0x41756374696F6E2068617320656E6465642E0000000000000000000000000000 PUSH0 DUP3 ADD MSTORE POP JUMP JUMPDEST PUSH0 PUSH2 0x17BB PUSH1 0x12 DUP4 PUSH2 0x1336 JUMP JUMPDEST SWAP2 POP PUSH2 0x17C6 DUP3 PUSH2 0x1787 JUMP JUMPDEST PUSH1 0x20 DUP3 ADD SWAP1 POP SWAP2 SWAP1 POP JUMP JUMPDEST PUSH0 PUSH1 0x20 DUP3 ADD SWAP1 POP DUP2 DUP2 SUB PUSH0 DUP4 ADD MSTORE PUSH2 0x17E8 DUP2 PUSH2 0x17AF JUMP JUMPDEST SWAP1 POP SWAP2 SWAP1 POP JUMP JUMPDEST PUSH32 0x426964206D75737420626520686967686572207468616E207468652063757272 PUSH0 DUP3 ADD MSTORE PUSH32 0x656E742068696768657374206269642E00000000000000000000000000000000 PUSH1 0x20 DUP3 ADD MSTORE POP JUMP JUMPDEST PUSH0 PUSH2 0x1849 PUSH1 0x30 DUP4 PUSH2 0x1336 JUMP JUMPDEST SWAP2 POP PUSH2 0x1854 DUP3 PUSH2 0x17EF JUMP JUMPDEST PUSH1 0x40 DUP3 ADD SWAP1 POP SWAP2 SWAP1 POP JUMP JUMPDEST PUSH0 PUSH1 0x20 DUP3 ADD SWAP1 POP DUP2 DUP2 SUB PUSH0 DUP4 ADD MSTORE PUSH2 0x1876 DUP2 PUSH2 0x183D JUMP JUMPDEST SWAP1 POP SWAP2 SWAP1 POP JUMP JUMPDEST PUSH32 0x426964206D757374206D65657420746865206D696E696D756D2062696420616D PUSH0 DUP3 ADD MSTORE PUSH32 0x6F756E742E000000000000000000000000000000000000000000000000000000 PUSH1 0x20 DUP3 ADD MSTORE POP JUMP JUMPDEST PUSH0 PUSH2 0x18D7 PUSH1 0x25 DUP4 PUSH2 0x1336 JUMP JUMPDEST SWAP2 POP PUSH2 0x18E2 DUP3 PUSH2 0x187D JUMP JUMPDEST PUSH1 0x40 DUP3 ADD SWAP1 POP SWAP2 SWAP1 POP JUMP JUMPDEST PUSH0 PUSH1 0x20 DUP3 ADD SWAP1 POP DUP2 DUP2 SUB PUSH0 DUP4 ADD MSTORE PUSH2 0x1904 DUP2 PUSH2 0x18CB JUMP JUMPDEST SWAP1 POP SWAP2 SWAP1 POP JUMP JUMPDEST PUSH0 PUSH1 0x60 DUP3 ADD SWAP1 POP PUSH2 0x191E PUSH0 DUP4 ADD DUP7 PUSH2 0x122C JUMP JUMPDEST PUSH2 0x192B PUSH1 0x20 DUP4 ADD DUP6 PUSH2 0x122C JUMP JUMPDEST PUSH2 0x1938 PUSH1 0x40 DUP4 ADD DUP5 PUSH2 0x11D9 JUMP JUMPDEST SWAP5 SWAP4 POP POP POP POP JUMP JUMPDEST PUSH32 0x546F6B656E207472616E73666572206661696C65642E00000000000000000000 PUSH0 DUP3 ADD MSTORE POP JUMP JUMPDEST PUSH0 PUSH2 0x1974 PUSH1 0x16 DUP4 PUSH2 0x1336 JUMP JUMPDEST SWAP2 POP PUSH2 0x197F DUP3 PUSH2 0x1940 JUMP JUMPDEST PUSH1 0x20 DUP3 ADD SWAP1 POP SWAP2 SWAP1 POP JUMP JUMPDEST PUSH0 PUSH1 0x20 DUP3 ADD SWAP1 POP DUP2 DUP2 SUB PUSH0 DUP4 ADD MSTORE PUSH2 0x19A1 DUP2 PUSH2 0x1968 JUMP JUMPDEST SWAP1 POP SWAP2 SWAP1 POP JUMP JUMPDEST PUSH32 0x41756374696F6E20686173206E6F7420656E6465642E00000000000000000000 PUSH0 DUP3 ADD MSTORE POP JUMP JUMPDEST PUSH0 PUSH2 0x19DC PUSH1 0x16 DUP4 PUSH2 0x1336 JUMP JUMPDEST SWAP2 POP PUSH2 0x19E7 DUP3 PUSH2 0x19A8 JUMP JUMPDEST PUSH1 0x20 DUP3 ADD SWAP1 POP SWAP2 SWAP1 POP JUMP JUMPDEST PUSH0 PUSH1 0x20 DUP3 ADD SWAP1 POP DUP2 DUP2 SUB PUSH0 DUP4 ADD MSTORE PUSH2 0x1A09 DUP2 PUSH2 0x19D0 JUMP JUMPDEST SWAP1 POP SWAP2 SWAP1 POP JUMP JUMPDEST PUSH0 DUP2 SWAP1 POP SWAP2 SWAP1 POP JUMP JUMPDEST PUSH0 PUSH2 0x1A33 PUSH2 0x1A2E PUSH2 0x1A29 DUP5 PUSH2 0x1A10 JUMP JUMPDEST PUSH2 0x12C2 JUMP JUMPDEST PUSH2 0x10E3 JUMP JUMPDEST SWAP1 POP SWAP2 SWAP1 POP JUMP JUMPDEST PUSH2 0x1A43 DUP2 PUSH2 0x1A19 JUMP JUMPDEST DUP3 MSTORE POP POP JUMP JUMPDEST PUSH0 PUSH1 0x20 DUP3 ADD SWAP1 POP PUSH2 0x1A5C PUSH0 DUP4 ADD DUP5 PUSH2 0x1A3A JUMP JUMPDEST SWAP3 SWAP2 POP POP JUMP INVALID LOG2 PUSH5 0x6970667358 0x22 SLT KECCAK256 0xDA 0xE9 GT 0xB9 0xAE BLOBHASH 0xEE 0x25 DELEGATECALL EQ PUSH11 0xA247359DB82B081E4105EE 0xF9 KECCAK256 SIGNEXTEND 0xAA SWAP13 PUSH20 0x4F1EA21164736F6C634300081A00330000000000 "
				},
				"gasEstimates": {
					"creation": {
						"codeDepositCost": "1361600",
						"executionCost": "infinite",
						"totalCost": "infinite"
					},
					"external": {
						"auctionIdCounter()": "2425",
						"auctions(uint256)": "infinite",
						"createAuction(uint256,uint256)": "infinite",
						"finalizeAuction(uint256)": "infinite",
						"getAuctionDetails(uint256)": "infinite",
						"pendingWithdrawals(address)": "2868",
						"placeBid(uint256,uint256)": "infinite",
						"sellerPendingWithdrawals(address)": "2825",
						"token()": "infinite",
						"withdrawSellerFunds()": "infinite"
					}
				},
				"methodIdentifiers": {
					"auctionIdCounter()": "de0794ef",
					"auctions(uint256)": "571a26a0",
					"createAuction(uint256,uint256)": "0121683f",
					"finalizeAuction(uint256)": "e8083863",
					"getAuctionDetails(uint256)": "f20e5e35",
					"pendingWithdrawals(address)": "f3f43703",
					"placeBid(uint256,uint256)": "57c90de5",
					"sellerPendingWithdrawals(address)": "0cbb180c",
					"token()": "fc0c546a",
					"withdrawSellerFunds()": "435fbd55"
				}
			},
			"storageLayout": {
				"storage": [
					{
						"astId": 84,
						"contract": "assignment contracts/W5 Auction.sol:Auction",
						"label": "token",
						"offset": 0,
						"slot": "0",
						"type": "t_contract(IERC20)77"
					},
					{
						"astId": 103,
						"contract": "assignment contracts/W5 Auction.sol:Auction",
						"label": "pendingWithdrawals",
						"offset": 0,
						"slot": "1",
						"type": "t_mapping(t_address,t_uint256)"
					},
					{
						"astId": 107,
						"contract": "assignment contracts/W5 Auction.sol:Auction",
						"label": "sellerPendingWithdrawals",
						"offset": 0,
						"slot": "2",
						"type": "t_mapping(t_address,t_uint256)"
					},
					{
						"astId": 111,
						"contract": "assignment contracts/W5 Auction.sol:Auction",
						"label": "auctions",
						"offset": 0,
						"slot": "3",
						"type": "t_array(t_struct(AuctionItem)99_storage)dyn_storage"
					},
					{
						"astId": 113,
						"contract": "assignment contracts/W5 Auction.sol:Auction",
						"label": "auctionIdCounter",
						"offset": 0,
						"slot": "4",
						"type": "t_uint256"
					}
				],
				"types": {
					"t_address": {
						"encoding": "inplace",
						"label": "address",
						"numberOfBytes": "20"
					},
					"t_array(t_struct(AuctionItem)99_storage)dyn_storage": {
						"base": "t_struct(AuctionItem)99_storage",
						"encoding": "dynamic_array",
						"label": "struct Auction.AuctionItem[]",
						"numberOfBytes": "32"
					},
					"t_bool": {
						"encoding": "inplace",
						"label": "bool",
						"numberOfBytes": "1"
					},
					"t_contract(IERC20)77": {
						"encoding": "inplace",
						"label": "contract IERC20",
						"numberOfBytes": "20"
					},
					"t_mapping(t_address,t_uint256)": {
						"encoding": "mapping",
						"key": "t_address",
						"label": "mapping(address => uint256)",
						"numberOfBytes": "32",
						"value": "t_uint256"
					},
					"t_struct(AuctionItem)99_storage": {
						"encoding": "inplace",
						"label": "struct Auction.AuctionItem",
						"members": [
							{
								"astId": 86,
								"contract": "assignment contracts/W5 Auction.sol:Auction",
								"label": "id",
								"offset": 0,
								"slot": "0",
								"type": "t_uint256"
							},
							{
								"astId": 88,
								"contract": "assignment contracts/W5 Auction.sol:Auction",
								"label": "seller",
								"offset": 0,
								"slot": "1",
								"type": "t_address"
							},
							{
								"astId": 90,
								"contract": "assignment contracts/W5 Auction.sol:Auction",
								"label": "minBid",
								"offset": 0,
								"slot": "2",
								"type": "t_uint256"
							},
							{
								"astId": 92,
								"contract": "assignment contracts/W5 Auction.sol:Auction",
								"label": "highestBid",
								"offset": 0,
								"slot": "3",
								"type": "t_uint256"
							},
							{
								"astId": 94,
								"contract": "assignment contracts/W5 Auction.sol:Auction",
								"label": "highestBidder",
								"offset": 0,
								"slot": "4",
								"type": "t_address"
							},
							{
								"astId": 96,
								"contract": "assignment contracts/W5 Auction.sol:Auction",
								"label": "isActive",
								"offset": 20,
								"slot": "4",
								"type": "t_bool"
							},
							{
								"astId": 98,
								"contract": "assignment contracts/W5 Auction.sol:Auction",
								"label": "endTime",
								"offset": 0,
								"slot": "5",
								"type": "t_uint256"
							}
						],
						"numberOfBytes": "192"
					},
					"t_uint256": {
						"encoding": "inplace",
						"label": "uint256",
						"numberOfBytes": "32"
					}
				}
			},
			"userdoc": {
				"kind": "user",
				"methods": {},
				"version": 1
			}
		}
	}
}