{
	"assignment contracts/W1 SafeTokenVesting.sol": {
		"SafeTokenVesting": {
			"abi": [
				{
					"inputs": [
						{
							"internalType": "contract IERC20",
							"name": "_token",
							"type": "address"
						},
						{
							"internalType": "address",
							"name": "_beneficiary",
							"type": "address"
						},
						{
							"internalType": "uint256",
							"name": "_totalTokens",
							"type": "uint256"
						},
						{
							"internalType": "uint256",
							"name": "_vestingDuration",
							"type": "uint256"
						}
					],
					"stateMutability": "nonpayable",
					"type": "constructor"
				},
				{
					"anonymous": false,
					"inputs": [
						{
							"indexed": false,
							"internalType": "address",
							"name": "beneficiary",
							"type": "address"
						},
						{
							"indexed": false,
							"internalType": "uint256",
							"name": "amount",
							"type": "uint256"
						}
					],
					"name": "TokensClaimed",
					"type": "event"
				},
				{
					"inputs": [],
					"name": "beneficiary",
					"outputs": [
						{
							"internalType": "address",
							"name": "",
							"type": "address"
						}
					],
					"stateMutability": "view",
					"type": "function"
				},
				{
					"inputs": [],
					"name": "claimTokens",
					"outputs": [],
					"stateMutability": "nonpayable",
					"type": "function"
				},
				{
					"inputs": [],
					"name": "getContractBalance",
					"outputs": [
						{
							"internalType": "uint256",
							"name": "",
							"type": "uint256"
						}
					],
					"stateMutability": "view",
					"type": "function"
				},
				{
					"inputs": [],
					"name": "getVestedTokens",
					"outputs": [
						{
							"internalType": "uint256",
							"name": "",
							"type": "uint256"
						}
					],
					"stateMutability": "view",
					"type": "function"
				},
				{
					"inputs": [],
					"name": "releasedTokens",
					"outputs": [
						{
							"internalType": "uint256",
							"name": "",
							"type": "uint256"
						}
					],
					"stateMutability": "view",
					"type": "function"
				},
				{
					"inputs": [],
					"name": "startTime",
					"outputs": [
						{
							"internalType": "uint256",
							"name": "",
							"type": "uint256"
						}
					],
					"stateMutability": "view",
					"type": "function"
				},
				{
					"inputs": [],
					"name": "token",
					"outputs": [
						{
							"internalType": "contract IERC20",
							"name": "",
							"type": "address"
						}
					],
					"stateMutability": "view",
					"type": "function"
				},
				{
					"inputs": [],
					"name": "totalTokens",
					"outputs": [
						{
							"internalType": "uint256",
							"name": "",
							"type": "uint256"
						}
					],
					"stateMutability": "view",
					"type": "function"
				},
				{
					"inputs": [],
					"name": "vestingDuration",
					"outputs": [
						{
							"internalType": "uint256",
							"name": "",
							"type": "uint256"
						}
					],
					"stateMutability": "view",
					"type": "function"
				}
			],
			"devdoc": {
				"kind": "dev",
				"methods": {},
				"version": 1
			},
			"evm": {
				"assembly": "    /* \"assignment contracts/W1 SafeTokenVesting.sol\":336:2867  contract SafeTokenVesting {... */\n  mstore(0x40, 0x80)\n    /* \"assignment contracts/W1 SafeTokenVesting.sol\":768:1429  constructor(... */\n  callvalue\n  dup1\n  iszero\n  tag_1\n  jumpi\n  0x00\n  dup1\n  revert\ntag_1:\n  pop\n  mload(0x40)\n  sub(codesize, bytecodeSize)\n  dup1\n  bytecodeSize\n  dup4\n  codecopy\n  dup2\n  dup2\n  add\n  0x40\n  mstore\n  dup2\n  add\n  swap1\n  tag_2\n  swap2\n  swap1\n  tag_3\n  jump\t// in\ntag_2:\n    /* \"assignment contracts/W1 SafeTokenVesting.sol\":954:955  0 */\n  0x00\n    /* \"assignment contracts/W1 SafeTokenVesting.sol\":927:956  address(_token) != address(0) */\n  0xffffffffffffffffffffffffffffffffffffffff\n  and\n    /* \"assignment contracts/W1 SafeTokenVesting.sol\":935:941  _token */\n  dup5\n    /* \"assignment contracts/W1 SafeTokenVesting.sol\":927:956  address(_token) != address(0) */\n  0xffffffffffffffffffffffffffffffffffffffff\n  and\n  sub\n    /* \"assignment contracts/W1 SafeTokenVesting.sol\":919:989  require(address(_token) != address(0), \"Token address cannot be zero\") */\n  tag_6\n  jumpi\n  mload(0x40)\n  0x08c379a000000000000000000000000000000000000000000000000000000000\n  dup2\n  mstore\n  0x04\n  add\n  tag_7\n  swap1\n  tag_8\n  jump\t// in\ntag_7:\n  mload(0x40)\n  dup1\n  swap2\n  sub\n  swap1\n  revert\ntag_6:\n    /* \"assignment contracts/W1 SafeTokenVesting.sol\":1032:1033  0 */\n  0x00\n    /* \"assignment contracts/W1 SafeTokenVesting.sol\":1008:1034  _beneficiary != address(0) */\n  0xffffffffffffffffffffffffffffffffffffffff\n  and\n    /* \"assignment contracts/W1 SafeTokenVesting.sol\":1008:1020  _beneficiary */\n  dup4\n    /* \"assignment contracts/W1 SafeTokenVesting.sol\":1008:1034  _beneficiary != address(0) */\n  0xffffffffffffffffffffffffffffffffffffffff\n  and\n  sub\n    /* \"assignment contracts/W1 SafeTokenVesting.sol\":1000:1073  require(_beneficiary != address(0), \"Beneficiary cannot be zero address\") */\n  tag_9\n  jumpi\n  mload(0x40)\n  0x08c379a000000000000000000000000000000000000000000000000000000000\n  dup2\n  mstore\n  0x04\n  add\n  tag_10\n  swap1\n  tag_11\n  jump\t// in\ntag_10:\n  mload(0x40)\n  dup1\n  swap2\n  sub\n  swap1\n  revert\ntag_9:\n    /* \"assignment contracts/W1 SafeTokenVesting.sol\":1111:1112  0 */\n  0x00\n    /* \"assignment contracts/W1 SafeTokenVesting.sol\":1092:1108  _vestingDuration */\n  dup2\n    /* \"assignment contracts/W1 SafeTokenVesting.sol\":1092:1112  _vestingDuration > 0 */\n  gt\n    /* \"assignment contracts/W1 SafeTokenVesting.sol\":1084:1159  require(_vestingDuration > 0, \"Vesting duration must be greater than zero\") */\n  tag_12\n  jumpi\n  mload(0x40)\n  0x08c379a000000000000000000000000000000000000000000000000000000000\n  dup2\n  mstore\n  0x04\n  add\n  tag_13\n  swap1\n  tag_14\n  jump\t// in\ntag_13:\n  mload(0x40)\n  dup1\n  swap2\n  sub\n  swap1\n  revert\ntag_12:\n    /* \"assignment contracts/W1 SafeTokenVesting.sol\":1193:1194  0 */\n  0x00\n    /* \"assignment contracts/W1 SafeTokenVesting.sol\":1178:1190  _totalTokens */\n  dup3\n    /* \"assignment contracts/W1 SafeTokenVesting.sol\":1178:1194  _totalTokens > 0 */\n  gt\n    /* \"assignment contracts/W1 SafeTokenVesting.sol\":1170:1237  require(_totalTokens > 0, \"Total tokens must be greater than zero\") */\n  tag_15\n  jumpi\n  mload(0x40)\n  0x08c379a000000000000000000000000000000000000000000000000000000000\n  dup2\n  mstore\n  0x04\n  add\n  tag_16\n  swap1\n  tag_17\n  jump\t// in\ntag_16:\n  mload(0x40)\n  dup1\n  swap2\n  sub\n  swap1\n  revert\ntag_15:\n    /* \"assignment contracts/W1 SafeTokenVesting.sol\":1258:1264  _token */\n  dup4\n    /* \"assignment contracts/W1 SafeTokenVesting.sol\":1250:1255  token */\n  0x00\n  dup1\n    /* \"assignment contracts/W1 SafeTokenVesting.sol\":1250:1264  token = _token */\n  0x0100\n  exp\n  dup2\n  sload\n  dup2\n  0xffffffffffffffffffffffffffffffffffffffff\n  mul\n  not\n  and\n  swap1\n  dup4\n  0xffffffffffffffffffffffffffffffffffffffff\n  and\n  mul\n  or\n  swap1\n  sstore\n  pop\n    /* \"assignment contracts/W1 SafeTokenVesting.sol\":1289:1301  _beneficiary */\n  dup3\n    /* \"assignment contracts/W1 SafeTokenVesting.sol\":1275:1286  beneficiary */\n  0x01\n  0x00\n    /* \"assignment contracts/W1 SafeTokenVesting.sol\":1275:1301  beneficiary = _beneficiary */\n  0x0100\n  exp\n  dup2\n  sload\n  dup2\n  0xffffffffffffffffffffffffffffffffffffffff\n  mul\n  not\n  and\n  swap1\n  dup4\n  0xffffffffffffffffffffffffffffffffffffffff\n  and\n  mul\n  or\n  swap1\n  sstore\n  pop\n    /* \"assignment contracts/W1 SafeTokenVesting.sol\":1326:1338  _totalTokens */\n  dup2\n    /* \"assignment contracts/W1 SafeTokenVesting.sol\":1312:1323  totalTokens */\n  0x04\n    /* \"assignment contracts/W1 SafeTokenVesting.sol\":1312:1338  totalTokens = _totalTokens */\n  dup2\n  swap1\n  sstore\n  pop\n    /* \"assignment contracts/W1 SafeTokenVesting.sol\":1367:1383  _vestingDuration */\n  dup1\n    /* \"assignment contracts/W1 SafeTokenVesting.sol\":1349:1364  vestingDuration */\n  0x03\n    /* \"assignment contracts/W1 SafeTokenVesting.sol\":1349:1383  vestingDuration = _vestingDuration */\n  dup2\n  swap1\n  sstore\n  pop\n    /* \"assignment contracts/W1 SafeTokenVesting.sol\":1406:1421  block.timestamp */\n  timestamp\n    /* \"assignment contracts/W1 SafeTokenVesting.sol\":1394:1403  startTime */\n  0x02\n    /* \"assignment contracts/W1 SafeTokenVesting.sol\":1394:1421  startTime = block.timestamp */\n  dup2\n  swap1\n  sstore\n  pop\n    /* \"assignment contracts/W1 SafeTokenVesting.sol\":768:1429  constructor(... */\n  pop\n  pop\n  pop\n  pop\n    /* \"assignment contracts/W1 SafeTokenVesting.sol\":336:2867  contract SafeTokenVesting {... */\n  jump(tag_18)\n    /* \"#utility.yul\":88:205   */\ntag_20:\n    /* \"#utility.yul\":197:198   */\n  0x00\n    /* \"#utility.yul\":194:195   */\n  dup1\n    /* \"#utility.yul\":187:199   */\n  revert\n    /* \"#utility.yul\":334:460   */\ntag_22:\n    /* \"#utility.yul\":371:378   */\n  0x00\n    /* \"#utility.yul\":411:453   */\n  0xffffffffffffffffffffffffffffffffffffffff\n    /* \"#utility.yul\":404:409   */\n  dup3\n    /* \"#utility.yul\":400:454   */\n  and\n    /* \"#utility.yul\":389:454   */\n  swap1\n  pop\n    /* \"#utility.yul\":334:460   */\n  swap2\n  swap1\n  pop\n  jump\t// out\n    /* \"#utility.yul\":466:562   */\ntag_23:\n    /* \"#utility.yul\":503:510   */\n  0x00\n    /* \"#utility.yul\":532:556   */\n  tag_47\n    /* \"#utility.yul\":550:555   */\n  dup3\n    /* \"#utility.yul\":532:556   */\n  tag_22\n  jump\t// in\ntag_47:\n    /* \"#utility.yul\":521:556   */\n  swap1\n  pop\n    /* \"#utility.yul\":466:562   */\n  swap2\n  swap1\n  pop\n  jump\t// out\n    /* \"#utility.yul\":568:677   */\ntag_24:\n    /* \"#utility.yul\":618:625   */\n  0x00\n    /* \"#utility.yul\":647:671   */\n  tag_49\n    /* \"#utility.yul\":665:670   */\n  dup3\n    /* \"#utility.yul\":647:671   */\n  tag_23\n  jump\t// in\ntag_49:\n    /* \"#utility.yul\":636:671   */\n  swap1\n  pop\n    /* \"#utility.yul\":568:677   */\n  swap2\n  swap1\n  pop\n  jump\t// out\n    /* \"#utility.yul\":683:831   */\ntag_25:\n    /* \"#utility.yul\":769:806   */\n  tag_51\n    /* \"#utility.yul\":800:805   */\n  dup2\n    /* \"#utility.yul\":769:806   */\n  tag_24\n  jump\t// in\ntag_51:\n    /* \"#utility.yul\":762:767   */\n  dup2\n    /* \"#utility.yul\":759:807   */\n  eq\n    /* \"#utility.yul\":749:825   */\n  tag_52\n  jumpi\n    /* \"#utility.yul\":821:822   */\n  0x00\n    /* \"#utility.yul\":818:819   */\n  dup1\n    /* \"#utility.yul\":811:823   */\n  revert\n    /* \"#utility.yul\":749:825   */\ntag_52:\n    /* \"#utility.yul\":683:831   */\n  pop\n  jump\t// out\n    /* \"#utility.yul\":837:1006   */\ntag_26:\n    /* \"#utility.yul\":907:912   */\n  0x00\n    /* \"#utility.yul\":938:944   */\n  dup2\n    /* \"#utility.yul\":932:945   */\n  mload\n    /* \"#utility.yul\":923:945   */\n  swap1\n  pop\n    /* \"#utility.yul\":954:1000   */\n  tag_54\n    /* \"#utility.yul\":994:999   */\n  dup2\n    /* \"#utility.yul\":954:1000   */\n  tag_25\n  jump\t// in\ntag_54:\n    /* \"#utility.yul\":837:1006   */\n  swap3\n  swap2\n  pop\n  pop\n  jump\t// out\n    /* \"#utility.yul\":1012:1134   */\ntag_27:\n    /* \"#utility.yul\":1085:1109   */\n  tag_56\n    /* \"#utility.yul\":1103:1108   */\n  dup2\n    /* \"#utility.yul\":1085:1109   */\n  tag_23\n  jump\t// in\ntag_56:\n    /* \"#utility.yul\":1078:1083   */\n  dup2\n    /* \"#utility.yul\":1075:1110   */\n  eq\n    /* \"#utility.yul\":1065:1128   */\n  tag_57\n  jumpi\n    /* \"#utility.yul\":1124:1125   */\n  0x00\n    /* \"#utility.yul\":1121:1122   */\n  dup1\n    /* \"#utility.yul\":1114:1126   */\n  revert\n    /* \"#utility.yul\":1065:1128   */\ntag_57:\n    /* \"#utility.yul\":1012:1134   */\n  pop\n  jump\t// out\n    /* \"#utility.yul\":1140:1283   */\ntag_28:\n    /* \"#utility.yul\":1197:1202   */\n  0x00\n    /* \"#utility.yul\":1228:1234   */\n  dup2\n    /* \"#utility.yul\":1222:1235   */\n  mload\n    /* \"#utility.yul\":1213:1235   */\n  swap1\n  pop\n    /* \"#utility.yul\":1244:1277   */\n  tag_59\n    /* \"#utility.yul\":1271:1276   */\n  dup2\n    /* \"#utility.yul\":1244:1277   */\n  tag_27\n  jump\t// in\ntag_59:\n    /* \"#utility.yul\":1140:1283   */\n  swap3\n  swap2\n  pop\n  pop\n  jump\t// out\n    /* \"#utility.yul\":1289:1366   */\ntag_29:\n    /* \"#utility.yul\":1326:1333   */\n  0x00\n    /* \"#utility.yul\":1355:1360   */\n  dup2\n    /* \"#utility.yul\":1344:1360   */\n  swap1\n  pop\n    /* \"#utility.yul\":1289:1366   */\n  swap2\n  swap1\n  pop\n  jump\t// out\n    /* \"#utility.yul\":1372:1494   */\ntag_30:\n    /* \"#utility.yul\":1445:1469   */\n  tag_62\n    /* \"#utility.yul\":1463:1468   */\n  dup2\n    /* \"#utility.yul\":1445:1469   */\n  tag_29\n  jump\t// in\ntag_62:\n    /* \"#utility.yul\":1438:1443   */\n  dup2\n    /* \"#utility.yul\":1435:1470   */\n  eq\n    /* \"#utility.yul\":1425:1488   */\n  tag_63\n  jumpi\n    /* \"#utility.yul\":1484:1485   */\n  0x00\n    /* \"#utility.yul\":1481:1482   */\n  dup1\n    /* \"#utility.yul\":1474:1486   */\n  revert\n    /* \"#utility.yul\":1425:1488   */\ntag_63:\n    /* \"#utility.yul\":1372:1494   */\n  pop\n  jump\t// out\n    /* \"#utility.yul\":1500:1643   */\ntag_31:\n    /* \"#utility.yul\":1557:1562   */\n  0x00\n    /* \"#utility.yul\":1588:1594   */\n  dup2\n    /* \"#utility.yul\":1582:1595   */\n  mload\n    /* \"#utility.yul\":1573:1595   */\n  swap1\n  pop\n    /* \"#utility.yul\":1604:1637   */\n  tag_65\n    /* \"#utility.yul\":1631:1636   */\n  dup2\n    /* \"#utility.yul\":1604:1637   */\n  tag_30\n  jump\t// in\ntag_65:\n    /* \"#utility.yul\":1500:1643   */\n  swap3\n  swap2\n  pop\n  pop\n  jump\t// out\n    /* \"#utility.yul\":1649:2495   */\ntag_3:\n    /* \"#utility.yul\":1759:1765   */\n  0x00\n    /* \"#utility.yul\":1767:1773   */\n  dup1\n    /* \"#utility.yul\":1775:1781   */\n  0x00\n    /* \"#utility.yul\":1783:1789   */\n  dup1\n    /* \"#utility.yul\":1832:1835   */\n  0x80\n    /* \"#utility.yul\":1820:1829   */\n  dup6\n    /* \"#utility.yul\":1811:1818   */\n  dup8\n    /* \"#utility.yul\":1807:1830   */\n  sub\n    /* \"#utility.yul\":1803:1836   */\n  slt\n    /* \"#utility.yul\":1800:1920   */\n  iszero\n  tag_67\n  jumpi\n    /* \"#utility.yul\":1839:1918   */\n  tag_68\n  tag_20\n  jump\t// in\ntag_68:\n    /* \"#utility.yul\":1800:1920   */\ntag_67:\n    /* \"#utility.yul\":1959:1960   */\n  0x00\n    /* \"#utility.yul\":1984:2061   */\n  tag_69\n    /* \"#utility.yul\":2053:2060   */\n  dup8\n    /* \"#utility.yul\":2044:2050   */\n  dup3\n    /* \"#utility.yul\":2033:2042   */\n  dup9\n    /* \"#utility.yul\":2029:2051   */\n  add\n    /* \"#utility.yul\":1984:2061   */\n  tag_26\n  jump\t// in\ntag_69:\n    /* \"#utility.yul\":1974:2061   */\n  swap5\n  pop\n    /* \"#utility.yul\":1930:2071   */\n  pop\n    /* \"#utility.yul\":2110:2112   */\n  0x20\n    /* \"#utility.yul\":2136:2200   */\n  tag_70\n    /* \"#utility.yul\":2192:2199   */\n  dup8\n    /* \"#utility.yul\":2183:2189   */\n  dup3\n    /* \"#utility.yul\":2172:2181   */\n  dup9\n    /* \"#utility.yul\":2168:2190   */\n  add\n    /* \"#utility.yul\":2136:2200   */\n  tag_28\n  jump\t// in\ntag_70:\n    /* \"#utility.yul\":2126:2200   */\n  swap4\n  pop\n    /* \"#utility.yul\":2081:2210   */\n  pop\n    /* \"#utility.yul\":2249:2251   */\n  0x40\n    /* \"#utility.yul\":2275:2339   */\n  tag_71\n    /* \"#utility.yul\":2331:2338   */\n  dup8\n    /* \"#utility.yul\":2322:2328   */\n  dup3\n    /* \"#utility.yul\":2311:2320   */\n  dup9\n    /* \"#utility.yul\":2307:2329   */\n  add\n    /* \"#utility.yul\":2275:2339   */\n  tag_31\n  jump\t// in\ntag_71:\n    /* \"#utility.yul\":2265:2339   */\n  swap3\n  pop\n    /* \"#utility.yul\":2220:2349   */\n  pop\n    /* \"#utility.yul\":2388:2390   */\n  0x60\n    /* \"#utility.yul\":2414:2478   */\n  tag_72\n    /* \"#utility.yul\":2470:2477   */\n  dup8\n    /* \"#utility.yul\":2461:2467   */\n  dup3\n    /* \"#utility.yul\":2450:2459   */\n  dup9\n    /* \"#utility.yul\":2446:2468   */\n  add\n    /* \"#utility.yul\":2414:2478   */\n  tag_31\n  jump\t// in\ntag_72:\n    /* \"#utility.yul\":2404:2478   */\n  swap2\n  pop\n    /* \"#utility.yul\":2359:2488   */\n  pop\n    /* \"#utility.yul\":1649:2495   */\n  swap3\n  swap6\n  swap2\n  swap5\n  pop\n  swap3\n  pop\n  jump\t// out\n    /* \"#utility.yul\":2501:2670   */\ntag_32:\n    /* \"#utility.yul\":2585:2596   */\n  0x00\n    /* \"#utility.yul\":2619:2625   */\n  dup3\n    /* \"#utility.yul\":2614:2617   */\n  dup3\n    /* \"#utility.yul\":2607:2626   */\n  mstore\n    /* \"#utility.yul\":2659:2663   */\n  0x20\n    /* \"#utility.yul\":2654:2657   */\n  dup3\n    /* \"#utility.yul\":2650:2664   */\n  add\n    /* \"#utility.yul\":2635:2664   */\n  swap1\n  pop\n    /* \"#utility.yul\":2501:2670   */\n  swap3\n  swap2\n  pop\n  pop\n  jump\t// out\n    /* \"#utility.yul\":2676:2854   */\ntag_33:\n    /* \"#utility.yul\":2816:2846   */\n  0x546f6b656e20616464726573732063616e6e6f74206265207a65726f00000000\n    /* \"#utility.yul\":2812:2813   */\n  0x00\n    /* \"#utility.yul\":2804:2810   */\n  dup3\n    /* \"#utility.yul\":2800:2814   */\n  add\n    /* \"#utility.yul\":2793:2847   */\n  mstore\n    /* \"#utility.yul\":2676:2854   */\n  pop\n  jump\t// out\n    /* \"#utility.yul\":2860:3226   */\ntag_34:\n    /* \"#utility.yul\":3002:3005   */\n  0x00\n    /* \"#utility.yul\":3023:3090   */\n  tag_76\n    /* \"#utility.yul\":3087:3089   */\n  0x1c\n    /* \"#utility.yul\":3082:3085   */\n  dup4\n    /* \"#utility.yul\":3023:3090   */\n  tag_32\n  jump\t// in\ntag_76:\n    /* \"#utility.yul\":3016:3090   */\n  swap2\n  pop\n    /* \"#utility.yul\":3099:3192   */\n  tag_77\n    /* \"#utility.yul\":3188:3191   */\n  dup3\n    /* \"#utility.yul\":3099:3192   */\n  tag_33\n  jump\t// in\ntag_77:\n    /* \"#utility.yul\":3217:3219   */\n  0x20\n    /* \"#utility.yul\":3212:3215   */\n  dup3\n    /* \"#utility.yul\":3208:3220   */\n  add\n    /* \"#utility.yul\":3201:3220   */\n  swap1\n  pop\n    /* \"#utility.yul\":2860:3226   */\n  swap2\n  swap1\n  pop\n  jump\t// out\n    /* \"#utility.yul\":3232:3651   */\ntag_8:\n    /* \"#utility.yul\":3398:3402   */\n  0x00\n    /* \"#utility.yul\":3436:3438   */\n  0x20\n    /* \"#utility.yul\":3425:3434   */\n  dup3\n    /* \"#utility.yul\":3421:3439   */\n  add\n    /* \"#utility.yul\":3413:3439   */\n  swap1\n  pop\n    /* \"#utility.yul\":3485:3494   */\n  dup2\n    /* \"#utility.yul\":3479:3483   */\n  dup2\n    /* \"#utility.yul\":3475:3495   */\n  sub\n    /* \"#utility.yul\":3471:3472   */\n  0x00\n    /* \"#utility.yul\":3460:3469   */\n  dup4\n    /* \"#utility.yul\":3456:3473   */\n  add\n    /* \"#utility.yul\":3449:3496   */\n  mstore\n    /* \"#utility.yul\":3513:3644   */\n  tag_79\n    /* \"#utility.yul\":3639:3643   */\n  dup2\n    /* \"#utility.yul\":3513:3644   */\n  tag_34\n  jump\t// in\ntag_79:\n    /* \"#utility.yul\":3505:3644   */\n  swap1\n  pop\n    /* \"#utility.yul\":3232:3651   */\n  swap2\n  swap1\n  pop\n  jump\t// out\n    /* \"#utility.yul\":3657:3878   */\ntag_35:\n    /* \"#utility.yul\":3797:3831   */\n  0x42656e65666963696172792063616e6e6f74206265207a65726f206164647265\n    /* \"#utility.yul\":3793:3794   */\n  0x00\n    /* \"#utility.yul\":3785:3791   */\n  dup3\n    /* \"#utility.yul\":3781:3795   */\n  add\n    /* \"#utility.yul\":3774:3832   */\n  mstore\n    /* \"#utility.yul\":3866:3870   */\n  0x7373000000000000000000000000000000000000000000000000000000000000\n    /* \"#utility.yul\":3861:3863   */\n  0x20\n    /* \"#utility.yul\":3853:3859   */\n  dup3\n    /* \"#utility.yul\":3849:3864   */\n  add\n    /* \"#utility.yul\":3842:3871   */\n  mstore\n    /* \"#utility.yul\":3657:3878   */\n  pop\n  jump\t// out\n    /* \"#utility.yul\":3884:4250   */\ntag_36:\n    /* \"#utility.yul\":4026:4029   */\n  0x00\n    /* \"#utility.yul\":4047:4114   */\n  tag_82\n    /* \"#utility.yul\":4111:4113   */\n  0x22\n    /* \"#utility.yul\":4106:4109   */\n  dup4\n    /* \"#utility.yul\":4047:4114   */\n  tag_32\n  jump\t// in\ntag_82:\n    /* \"#utility.yul\":4040:4114   */\n  swap2\n  pop\n    /* \"#utility.yul\":4123:4216   */\n  tag_83\n    /* \"#utility.yul\":4212:4215   */\n  dup3\n    /* \"#utility.yul\":4123:4216   */\n  tag_35\n  jump\t// in\ntag_83:\n    /* \"#utility.yul\":4241:4243   */\n  0x40\n    /* \"#utility.yul\":4236:4239   */\n  dup3\n    /* \"#utility.yul\":4232:4244   */\n  add\n    /* \"#utility.yul\":4225:4244   */\n  swap1\n  pop\n    /* \"#utility.yul\":3884:4250   */\n  swap2\n  swap1\n  pop\n  jump\t// out\n    /* \"#utility.yul\":4256:4675   */\ntag_11:\n    /* \"#utility.yul\":4422:4426   */\n  0x00\n    /* \"#utility.yul\":4460:4462   */\n  0x20\n    /* \"#utility.yul\":4449:4458   */\n  dup3\n    /* \"#utility.yul\":4445:4463   */\n  add\n    /* \"#utility.yul\":4437:4463   */\n  swap1\n  pop\n    /* \"#utility.yul\":4509:4518   */\n  dup2\n    /* \"#utility.yul\":4503:4507   */\n  dup2\n    /* \"#utility.yul\":4499:4519   */\n  sub\n    /* \"#utility.yul\":4495:4496   */\n  0x00\n    /* \"#utility.yul\":4484:4493   */\n  dup4\n    /* \"#utility.yul\":4480:4497   */\n  add\n    /* \"#utility.yul\":4473:4520   */\n  mstore\n    /* \"#utility.yul\":4537:4668   */\n  tag_85\n    /* \"#utility.yul\":4663:4667   */\n  dup2\n    /* \"#utility.yul\":4537:4668   */\n  tag_36\n  jump\t// in\ntag_85:\n    /* \"#utility.yul\":4529:4668   */\n  swap1\n  pop\n    /* \"#utility.yul\":4256:4675   */\n  swap2\n  swap1\n  pop\n  jump\t// out\n    /* \"#utility.yul\":4681:4910   */\ntag_37:\n    /* \"#utility.yul\":4821:4855   */\n  0x56657374696e67206475726174696f6e206d7573742062652067726561746572\n    /* \"#utility.yul\":4817:4818   */\n  0x00\n    /* \"#utility.yul\":4809:4815   */\n  dup3\n    /* \"#utility.yul\":4805:4819   */\n  add\n    /* \"#utility.yul\":4798:4856   */\n  mstore\n    /* \"#utility.yul\":4890:4902   */\n  0x207468616e207a65726f00000000000000000000000000000000000000000000\n    /* \"#utility.yul\":4885:4887   */\n  0x20\n    /* \"#utility.yul\":4877:4883   */\n  dup3\n    /* \"#utility.yul\":4873:4888   */\n  add\n    /* \"#utility.yul\":4866:4903   */\n  mstore\n    /* \"#utility.yul\":4681:4910   */\n  pop\n  jump\t// out\n    /* \"#utility.yul\":4916:5282   */\ntag_38:\n    /* \"#utility.yul\":5058:5061   */\n  0x00\n    /* \"#utility.yul\":5079:5146   */\n  tag_88\n    /* \"#utility.yul\":5143:5145   */\n  0x2a\n    /* \"#utility.yul\":5138:5141   */\n  dup4\n    /* \"#utility.yul\":5079:5146   */\n  tag_32\n  jump\t// in\ntag_88:\n    /* \"#utility.yul\":5072:5146   */\n  swap2\n  pop\n    /* \"#utility.yul\":5155:5248   */\n  tag_89\n    /* \"#utility.yul\":5244:5247   */\n  dup3\n    /* \"#utility.yul\":5155:5248   */\n  tag_37\n  jump\t// in\ntag_89:\n    /* \"#utility.yul\":5273:5275   */\n  0x40\n    /* \"#utility.yul\":5268:5271   */\n  dup3\n    /* \"#utility.yul\":5264:5276   */\n  add\n    /* \"#utility.yul\":5257:5276   */\n  swap1\n  pop\n    /* \"#utility.yul\":4916:5282   */\n  swap2\n  swap1\n  pop\n  jump\t// out\n    /* \"#utility.yul\":5288:5707   */\ntag_14:\n    /* \"#utility.yul\":5454:5458   */\n  0x00\n    /* \"#utility.yul\":5492:5494   */\n  0x20\n    /* \"#utility.yul\":5481:5490   */\n  dup3\n    /* \"#utility.yul\":5477:5495   */\n  add\n    /* \"#utility.yul\":5469:5495   */\n  swap1\n  pop\n    /* \"#utility.yul\":5541:5550   */\n  dup2\n    /* \"#utility.yul\":5535:5539   */\n  dup2\n    /* \"#utility.yul\":5531:5551   */\n  sub\n    /* \"#utility.yul\":5527:5528   */\n  0x00\n    /* \"#utility.yul\":5516:5525   */\n  dup4\n    /* \"#utility.yul\":5512:5529   */\n  add\n    /* \"#utility.yul\":5505:5552   */\n  mstore\n    /* \"#utility.yul\":5569:5700   */\n  tag_91\n    /* \"#utility.yul\":5695:5699   */\n  dup2\n    /* \"#utility.yul\":5569:5700   */\n  tag_38\n  jump\t// in\ntag_91:\n    /* \"#utility.yul\":5561:5700   */\n  swap1\n  pop\n    /* \"#utility.yul\":5288:5707   */\n  swap2\n  swap1\n  pop\n  jump\t// out\n    /* \"#utility.yul\":5713:5938   */\ntag_39:\n    /* \"#utility.yul\":5853:5887   */\n  0x546f74616c20746f6b656e73206d757374206265206772656174657220746861\n    /* \"#utility.yul\":5849:5850   */\n  0x00\n    /* \"#utility.yul\":5841:5847   */\n  dup3\n    /* \"#utility.yul\":5837:5851   */\n  add\n    /* \"#utility.yul\":5830:5888   */\n  mstore\n    /* \"#utility.yul\":5922:5930   */\n  0x6e207a65726f0000000000000000000000000000000000000000000000000000\n    /* \"#utility.yul\":5917:5919   */\n  0x20\n    /* \"#utility.yul\":5909:5915   */\n  dup3\n    /* \"#utility.yul\":5905:5920   */\n  add\n    /* \"#utility.yul\":5898:5931   */\n  mstore\n    /* \"#utility.yul\":5713:5938   */\n  pop\n  jump\t// out\n    /* \"#utility.yul\":5944:6310   */\ntag_40:\n    /* \"#utility.yul\":6086:6089   */\n  0x00\n    /* \"#utility.yul\":6107:6174   */\n  tag_94\n    /* \"#utility.yul\":6171:6173   */\n  0x26\n    /* \"#utility.yul\":6166:6169   */\n  dup4\n    /* \"#utility.yul\":6107:6174   */\n  tag_32\n  jump\t// in\ntag_94:\n    /* \"#utility.yul\":6100:6174   */\n  swap2\n  pop\n    /* \"#utility.yul\":6183:6276   */\n  tag_95\n    /* \"#utility.yul\":6272:6275   */\n  dup3\n    /* \"#utility.yul\":6183:6276   */\n  tag_39\n  jump\t// in\ntag_95:\n    /* \"#utility.yul\":6301:6303   */\n  0x40\n    /* \"#utility.yul\":6296:6299   */\n  dup3\n    /* \"#utility.yul\":6292:6304   */\n  add\n    /* \"#utility.yul\":6285:6304   */\n  swap1\n  pop\n    /* \"#utility.yul\":5944:6310   */\n  swap2\n  swap1\n  pop\n  jump\t// out\n    /* \"#utility.yul\":6316:6735   */\ntag_17:\n    /* \"#utility.yul\":6482:6486   */\n  0x00\n    /* \"#utility.yul\":6520:6522   */\n  0x20\n    /* \"#utility.yul\":6509:6518   */\n  dup3\n    /* \"#utility.yul\":6505:6523   */\n  add\n    /* \"#utility.yul\":6497:6523   */\n  swap1\n  pop\n    /* \"#utility.yul\":6569:6578   */\n  dup2\n    /* \"#utility.yul\":6563:6567   */\n  dup2\n    /* \"#utility.yul\":6559:6579   */\n  sub\n    /* \"#utility.yul\":6555:6556   */\n  0x00\n    /* \"#utility.yul\":6544:6553   */\n  dup4\n    /* \"#utility.yul\":6540:6557   */\n  add\n    /* \"#utility.yul\":6533:6580   */\n  mstore\n    /* \"#utility.yul\":6597:6728   */\n  tag_97\n    /* \"#utility.yul\":6723:6727   */\n  dup2\n    /* \"#utility.yul\":6597:6728   */\n  tag_40\n  jump\t// in\ntag_97:\n    /* \"#utility.yul\":6589:6728   */\n  swap1\n  pop\n    /* \"#utility.yul\":6316:6735   */\n  swap2\n  swap1\n  pop\n  jump\t// out\n    /* \"assignment contracts/W1 SafeTokenVesting.sol\":336:2867  contract SafeTokenVesting {... */\ntag_18:\n  dataSize(sub_0)\n  dup1\n  dataOffset(sub_0)\n  0x00\n  codecopy\n  0x00\n  return\nstop\n\nsub_0: assembly {\n        /* \"assignment contracts/W1 SafeTokenVesting.sol\":336:2867  contract SafeTokenVesting {... */\n      mstore(0x40, 0x80)\n      callvalue\n      dup1\n      iszero\n      tag_1\n      jumpi\n      0x00\n      dup1\n      revert\n    tag_1:\n      pop\n      jumpi(tag_2, lt(calldatasize, 0x04))\n      shr(0xe0, calldataload(0x00))\n      dup1\n      0x6f9fb98a\n      gt\n      tag_12\n      jumpi\n      dup1\n      0x6f9fb98a\n      eq\n      tag_7\n      jumpi\n      dup1\n      0x78e97925\n      eq\n      tag_8\n      jumpi\n      dup1\n      0x7e1c0c09\n      eq\n      tag_9\n      jumpi\n      dup1\n      0xbef39963\n      eq\n      tag_10\n      jumpi\n      dup1\n      0xfc0c546a\n      eq\n      tag_11\n      jumpi\n      jump(tag_2)\n    tag_12:\n      dup1\n      0x1514617e\n      eq\n      tag_3\n      jumpi\n      dup1\n      0x38af3eed\n      eq\n      tag_4\n      jumpi\n      dup1\n      0x48c54b9d\n      eq\n      tag_5\n      jumpi\n      dup1\n      0x5330a6a2\n      eq\n      tag_6\n      jumpi\n    tag_2:\n      0x00\n      dup1\n      revert\n        /* \"assignment contracts/W1 SafeTokenVesting.sol\":485:515  uint256 public vestingDuration */\n    tag_3:\n      tag_13\n      tag_14\n      jump\t// in\n    tag_13:\n      mload(0x40)\n      tag_15\n      swap2\n      swap1\n      tag_16\n      jump\t// in\n    tag_15:\n      mload(0x40)\n      dup1\n      swap2\n      sub\n      swap1\n      return\n        /* \"assignment contracts/W1 SafeTokenVesting.sol\":421:447  address public beneficiary */\n    tag_4:\n      tag_17\n      tag_18\n      jump\t// in\n    tag_17:\n      mload(0x40)\n      tag_19\n      swap2\n      swap1\n      tag_20\n      jump\t// in\n    tag_19:\n      mload(0x40)\n      dup1\n      swap2\n      sub\n      swap1\n      return\n        /* \"assignment contracts/W1 SafeTokenVesting.sol\":1481:2204  function claimTokens() external {... */\n    tag_5:\n      tag_21\n      tag_22\n      jump\t// in\n    tag_21:\n      stop\n        /* \"assignment contracts/W1 SafeTokenVesting.sol\":2266:2694  function getVestedTokens() public view returns (uint256) {... */\n    tag_6:\n      tag_23\n      tag_24\n      jump\t// in\n    tag_23:\n      mload(0x40)\n      tag_25\n      swap2\n      swap1\n      tag_16\n      jump\t// in\n    tag_25:\n      mload(0x40)\n      dup1\n      swap2\n      sub\n      swap1\n      return\n        /* \"assignment contracts/W1 SafeTokenVesting.sol\":2746:2864  function getContractBalance() external view returns (uint256) {... */\n    tag_7:\n      tag_26\n      tag_27\n      jump\t// in\n    tag_26:\n      mload(0x40)\n      tag_28\n      swap2\n      swap1\n      tag_16\n      jump\t// in\n    tag_28:\n      mload(0x40)\n      dup1\n      swap2\n      sub\n      swap1\n      return\n        /* \"assignment contracts/W1 SafeTokenVesting.sol\":454:478  uint256 public startTime */\n    tag_8:\n      tag_29\n      tag_30\n      jump\t// in\n    tag_29:\n      mload(0x40)\n      tag_31\n      swap2\n      swap1\n      tag_16\n      jump\t// in\n    tag_31:\n      mload(0x40)\n      dup1\n      swap2\n      sub\n      swap1\n      return\n        /* \"assignment contracts/W1 SafeTokenVesting.sol\":522:548  uint256 public totalTokens */\n    tag_9:\n      tag_32\n      tag_33\n      jump\t// in\n    tag_32:\n      mload(0x40)\n      tag_34\n      swap2\n      swap1\n      tag_16\n      jump\t// in\n    tag_34:\n      mload(0x40)\n      dup1\n      swap2\n      sub\n      swap1\n      return\n        /* \"assignment contracts/W1 SafeTokenVesting.sol\":555:584  uint256 public releasedTokens */\n    tag_10:\n      tag_35\n      tag_36\n      jump\t// in\n    tag_35:\n      mload(0x40)\n      tag_37\n      swap2\n      swap1\n      tag_16\n      jump\t// in\n    tag_37:\n      mload(0x40)\n      dup1\n      swap2\n      sub\n      swap1\n      return\n        /* \"assignment contracts/W1 SafeTokenVesting.sol\":395:414  IERC20 public token */\n    tag_11:\n      tag_38\n      tag_39\n      jump\t// in\n    tag_38:\n      mload(0x40)\n      tag_40\n      swap2\n      swap1\n      tag_41\n      jump\t// in\n    tag_40:\n      mload(0x40)\n      dup1\n      swap2\n      sub\n      swap1\n      return\n        /* \"assignment contracts/W1 SafeTokenVesting.sol\":485:515  uint256 public vestingDuration */\n    tag_14:\n      sload(0x03)\n      dup2\n      jump\t// out\n        /* \"assignment contracts/W1 SafeTokenVesting.sol\":421:447  address public beneficiary */\n    tag_18:\n      0x01\n      0x00\n      swap1\n      sload\n      swap1\n      0x0100\n      exp\n      swap1\n      div\n      0xffffffffffffffffffffffffffffffffffffffff\n      and\n      dup2\n      jump\t// out\n        /* \"assignment contracts/W1 SafeTokenVesting.sol\":1481:2204  function claimTokens() external {... */\n    tag_22:\n        /* \"assignment contracts/W1 SafeTokenVesting.sol\":1546:1557  beneficiary */\n      0x01\n      0x00\n      swap1\n      sload\n      swap1\n      0x0100\n      exp\n      swap1\n      div\n      0xffffffffffffffffffffffffffffffffffffffff\n      and\n        /* \"assignment contracts/W1 SafeTokenVesting.sol\":1532:1557  msg.sender == beneficiary */\n      0xffffffffffffffffffffffffffffffffffffffff\n      and\n        /* \"assignment contracts/W1 SafeTokenVesting.sol\":1532:1542  msg.sender */\n      caller\n        /* \"assignment contracts/W1 SafeTokenVesting.sol\":1532:1557  msg.sender == beneficiary */\n      0xffffffffffffffffffffffffffffffffffffffff\n      and\n      eq\n        /* \"assignment contracts/W1 SafeTokenVesting.sol\":1524:1599  require(msg.sender == beneficiary, \"Only the beneficiary can claim tokens\") */\n      tag_43\n      jumpi\n      mload(0x40)\n      0x08c379a000000000000000000000000000000000000000000000000000000000\n      dup2\n      mstore\n      0x04\n      add\n      tag_44\n      swap1\n      tag_45\n      jump\t// in\n    tag_44:\n      mload(0x40)\n      dup1\n      swap2\n      sub\n      swap1\n      revert\n    tag_43:\n        /* \"assignment contracts/W1 SafeTokenVesting.sol\":1612:1632  uint256 vestedTokens */\n      0x00\n        /* \"assignment contracts/W1 SafeTokenVesting.sol\":1635:1652  getVestedTokens() */\n      tag_46\n        /* \"assignment contracts/W1 SafeTokenVesting.sol\":1635:1650  getVestedTokens */\n      tag_24\n        /* \"assignment contracts/W1 SafeTokenVesting.sol\":1635:1652  getVestedTokens() */\n      jump\t// in\n    tag_46:\n        /* \"assignment contracts/W1 SafeTokenVesting.sol\":1612:1652  uint256 vestedTokens = getVestedTokens() */\n      swap1\n      pop\n        /* \"assignment contracts/W1 SafeTokenVesting.sol\":1663:1686  uint256 claimableTokens */\n      0x00\n        /* \"assignment contracts/W1 SafeTokenVesting.sol\":1704:1718  releasedTokens */\n      sload(0x05)\n        /* \"assignment contracts/W1 SafeTokenVesting.sol\":1689:1701  vestedTokens */\n      dup3\n        /* \"assignment contracts/W1 SafeTokenVesting.sol\":1689:1718  vestedTokens - releasedTokens */\n      tag_47\n      swap2\n      swap1\n      tag_48\n      jump\t// in\n    tag_47:\n        /* \"assignment contracts/W1 SafeTokenVesting.sol\":1663:1718  uint256 claimableTokens = vestedTokens - releasedTokens */\n      swap1\n      pop\n        /* \"assignment contracts/W1 SafeTokenVesting.sol\":1757:1758  0 */\n      0x00\n        /* \"assignment contracts/W1 SafeTokenVesting.sol\":1739:1754  claimableTokens */\n      dup2\n        /* \"assignment contracts/W1 SafeTokenVesting.sol\":1739:1758  claimableTokens > 0 */\n      gt\n        /* \"assignment contracts/W1 SafeTokenVesting.sol\":1731:1791  require(claimableTokens > 0, \"No tokens available to claim\") */\n      tag_49\n      jumpi\n      mload(0x40)\n      0x08c379a000000000000000000000000000000000000000000000000000000000\n      dup2\n      mstore\n      0x04\n      add\n      tag_50\n      swap1\n      tag_51\n      jump\t// in\n    tag_50:\n      mload(0x40)\n      dup1\n      swap2\n      sub\n      swap1\n      revert\n    tag_49:\n        /* \"assignment contracts/W1 SafeTokenVesting.sol\":1822:1837  claimableTokens */\n      dup1\n        /* \"assignment contracts/W1 SafeTokenVesting.sol\":1804:1818  releasedTokens */\n      0x05\n      0x00\n        /* \"assignment contracts/W1 SafeTokenVesting.sol\":1804:1837  releasedTokens += claimableTokens */\n      dup3\n      dup3\n      sload\n      tag_52\n      swap2\n      swap1\n      tag_53\n      jump\t// in\n    tag_52:\n      swap3\n      pop\n      pop\n      dup2\n      swap1\n      sstore\n      pop\n        /* \"assignment contracts/W1 SafeTokenVesting.sol\":1912:1917  token */\n      0x00\n      dup1\n      sload\n      swap1\n      0x0100\n      exp\n      swap1\n      div\n      0xffffffffffffffffffffffffffffffffffffffff\n      and\n        /* \"assignment contracts/W1 SafeTokenVesting.sol\":1912:1926  token.transfer */\n      0xffffffffffffffffffffffffffffffffffffffff\n      and\n      0xa9059cbb\n        /* \"assignment contracts/W1 SafeTokenVesting.sol\":1927:1938  beneficiary */\n      0x01\n      0x00\n      swap1\n      sload\n      swap1\n      0x0100\n      exp\n      swap1\n      div\n      0xffffffffffffffffffffffffffffffffffffffff\n      and\n        /* \"assignment contracts/W1 SafeTokenVesting.sol\":1940:1955  claimableTokens */\n      dup4\n        /* \"assignment contracts/W1 SafeTokenVesting.sol\":1912:1956  token.transfer(beneficiary, claimableTokens) */\n      mload(0x40)\n      dup4\n      0xffffffff\n      and\n      0xe0\n      shl\n      dup2\n      mstore\n      0x04\n      add\n      tag_54\n      swap3\n      swap2\n      swap1\n      tag_55\n      jump\t// in\n    tag_54:\n      0x20\n      mload(0x40)\n      dup1\n      dup4\n      sub\n      dup2\n      0x00\n      dup8\n      gas\n      call\n      swap3\n      pop\n      pop\n      pop\n      dup1\n      iszero\n      tag_56\n      jumpi\n      pop\n      mload(0x40)\n      returndatasize\n      not(0x1f)\n      0x1f\n      dup3\n      add\n      and\n      dup3\n      add\n      dup1\n      0x40\n      mstore\n      pop\n      dup2\n      add\n      swap1\n      tag_57\n      swap2\n      swap1\n      tag_58\n      jump\t// in\n    tag_57:\n      0x01\n    tag_56:\n        /* \"assignment contracts/W1 SafeTokenVesting.sol\":1908:2197  try token.transfer(beneficiary, claimableTokens) {... */\n      tag_59\n      jumpi\n        /* \"assignment contracts/W1 SafeTokenVesting.sol\":2124:2139  claimableTokens */\n      dup1\n        /* \"assignment contracts/W1 SafeTokenVesting.sol\":2106:2120  releasedTokens */\n      0x05\n      0x00\n        /* \"assignment contracts/W1 SafeTokenVesting.sol\":2106:2139  releasedTokens -= claimableTokens */\n      dup3\n      dup3\n      sload\n      tag_63\n      swap2\n      swap1\n      tag_48\n      jump\t// in\n    tag_63:\n      swap3\n      pop\n      pop\n      dup2\n      swap1\n      sstore\n      pop\n        /* \"assignment contracts/W1 SafeTokenVesting.sol\":2154:2185  revert(\"Token transfer failed\") */\n      mload(0x40)\n      0x08c379a000000000000000000000000000000000000000000000000000000000\n      dup2\n      mstore\n      0x04\n      add\n      tag_64\n      swap1\n      tag_65\n      jump\t// in\n    tag_64:\n      mload(0x40)\n      dup1\n      swap2\n      sub\n      swap1\n      revert\n        /* \"assignment contracts/W1 SafeTokenVesting.sol\":1908:2197  try token.transfer(beneficiary, claimableTokens) {... */\n    tag_59:\n      pop\n        /* \"assignment contracts/W1 SafeTokenVesting.sol\":1977:2020  TokensClaimed(beneficiary, claimableTokens) */\n      0x896e034966eaaf1adc54acc0f257056febbd300c9e47182cf761982cf1f5e430\n        /* \"assignment contracts/W1 SafeTokenVesting.sol\":1991:2002  beneficiary */\n      0x01\n      0x00\n      swap1\n      sload\n      swap1\n      0x0100\n      exp\n      swap1\n      div\n      0xffffffffffffffffffffffffffffffffffffffff\n      and\n        /* \"assignment contracts/W1 SafeTokenVesting.sol\":2004:2019  claimableTokens */\n      dup3\n        /* \"assignment contracts/W1 SafeTokenVesting.sol\":1977:2020  TokensClaimed(beneficiary, claimableTokens) */\n      mload(0x40)\n      tag_67\n      swap3\n      swap2\n      swap1\n      tag_55\n      jump\t// in\n    tag_67:\n      mload(0x40)\n      dup1\n      swap2\n      sub\n      swap1\n      log1\n        /* \"assignment contracts/W1 SafeTokenVesting.sol\":1513:2204  {... */\n      pop\n      pop\n        /* \"assignment contracts/W1 SafeTokenVesting.sol\":1481:2204  function claimTokens() external {... */\n      jump\t// out\n        /* \"assignment contracts/W1 SafeTokenVesting.sol\":2266:2694  function getVestedTokens() public view returns (uint256) {... */\n    tag_24:\n        /* \"assignment contracts/W1 SafeTokenVesting.sol\":2314:2321  uint256 */\n      0x00\n        /* \"assignment contracts/W1 SafeTokenVesting.sol\":2356:2365  startTime */\n      sload(0x02)\n        /* \"assignment contracts/W1 SafeTokenVesting.sol\":2338:2353  block.timestamp */\n      timestamp\n        /* \"assignment contracts/W1 SafeTokenVesting.sol\":2338:2365  block.timestamp < startTime */\n      lt\n        /* \"assignment contracts/W1 SafeTokenVesting.sol\":2334:2432  if (block.timestamp < startTime) {... */\n      iszero\n      tag_69\n      jumpi\n        /* \"assignment contracts/W1 SafeTokenVesting.sol\":2389:2390  0 */\n      0x00\n        /* \"assignment contracts/W1 SafeTokenVesting.sol\":2382:2390  return 0 */\n      swap1\n      pop\n      jump(tag_68)\n        /* \"assignment contracts/W1 SafeTokenVesting.sol\":2334:2432  if (block.timestamp < startTime) {... */\n    tag_69:\n        /* \"assignment contracts/W1 SafeTokenVesting.sol\":2444:2463  uint256 elapsedTime */\n      0x00\n        /* \"assignment contracts/W1 SafeTokenVesting.sol\":2484:2493  startTime */\n      sload(0x02)\n        /* \"assignment contracts/W1 SafeTokenVesting.sol\":2466:2481  block.timestamp */\n      timestamp\n        /* \"assignment contracts/W1 SafeTokenVesting.sol\":2466:2493  block.timestamp - startTime */\n      tag_70\n      swap2\n      swap1\n      tag_48\n      jump\t// in\n    tag_70:\n        /* \"assignment contracts/W1 SafeTokenVesting.sol\":2444:2493  uint256 elapsedTime = block.timestamp - startTime */\n      swap1\n      pop\n        /* \"assignment contracts/W1 SafeTokenVesting.sol\":2522:2537  vestingDuration */\n      sload(0x03)\n        /* \"assignment contracts/W1 SafeTokenVesting.sol\":2508:2519  elapsedTime */\n      dup2\n        /* \"assignment contracts/W1 SafeTokenVesting.sol\":2508:2537  elapsedTime > vestingDuration */\n      gt\n        /* \"assignment contracts/W1 SafeTokenVesting.sol\":2504:2622  if (elapsedTime > vestingDuration) {... */\n      iszero\n      tag_71\n      jumpi\n        /* \"assignment contracts/W1 SafeTokenVesting.sol\":2568:2583  vestingDuration */\n      sload(0x03)\n        /* \"assignment contracts/W1 SafeTokenVesting.sol\":2554:2583  elapsedTime = vestingDuration */\n      swap1\n      pop\n        /* \"assignment contracts/W1 SafeTokenVesting.sol\":2504:2622  if (elapsedTime > vestingDuration) {... */\n    tag_71:\n        /* \"assignment contracts/W1 SafeTokenVesting.sol\":2671:2686  vestingDuration */\n      sload(0x03)\n        /* \"assignment contracts/W1 SafeTokenVesting.sol\":2656:2667  elapsedTime */\n      dup2\n        /* \"assignment contracts/W1 SafeTokenVesting.sol\":2642:2653  totalTokens */\n      sload(0x04)\n        /* \"assignment contracts/W1 SafeTokenVesting.sol\":2642:2667  totalTokens * elapsedTime */\n      tag_72\n      swap2\n      swap1\n      tag_73\n      jump\t// in\n    tag_72:\n        /* \"assignment contracts/W1 SafeTokenVesting.sol\":2641:2686  (totalTokens * elapsedTime) / vestingDuration */\n      tag_74\n      swap2\n      swap1\n      tag_75\n      jump\t// in\n    tag_74:\n        /* \"assignment contracts/W1 SafeTokenVesting.sol\":2634:2686  return (totalTokens * elapsedTime) / vestingDuration */\n      swap2\n      pop\n      pop\n        /* \"assignment contracts/W1 SafeTokenVesting.sol\":2266:2694  function getVestedTokens() public view returns (uint256) {... */\n    tag_68:\n      swap1\n      jump\t// out\n        /* \"assignment contracts/W1 SafeTokenVesting.sol\":2746:2864  function getContractBalance() external view returns (uint256) {... */\n    tag_27:\n        /* \"assignment contracts/W1 SafeTokenVesting.sol\":2799:2806  uint256 */\n      0x00\n        /* \"assignment contracts/W1 SafeTokenVesting.sol\":2826:2831  token */\n      dup1\n      0x00\n      swap1\n      sload\n      swap1\n      0x0100\n      exp\n      swap1\n      div\n      0xffffffffffffffffffffffffffffffffffffffff\n      and\n        /* \"assignment contracts/W1 SafeTokenVesting.sol\":2826:2841  token.balanceOf */\n      0xffffffffffffffffffffffffffffffffffffffff\n      and\n      0x70a08231\n        /* \"assignment contracts/W1 SafeTokenVesting.sol\":2850:2854  this */\n      address\n        /* \"assignment contracts/W1 SafeTokenVesting.sol\":2826:2856  token.balanceOf(address(this)) */\n      mload(0x40)\n      dup3\n      0xffffffff\n      and\n      0xe0\n      shl\n      dup2\n      mstore\n      0x04\n      add\n      tag_77\n      swap2\n      swap1\n      tag_20\n      jump\t// in\n    tag_77:\n      0x20\n      mload(0x40)\n      dup1\n      dup4\n      sub\n      dup2\n      dup7\n      gas\n      staticcall\n      iszero\n      dup1\n      iszero\n      tag_79\n      jumpi\n      returndatasize\n      0x00\n      dup1\n      returndatacopy\n      revert(0x00, returndatasize)\n    tag_79:\n      pop\n      pop\n      pop\n      pop\n      mload(0x40)\n      returndatasize\n      not(0x1f)\n      0x1f\n      dup3\n      add\n      and\n      dup3\n      add\n      dup1\n      0x40\n      mstore\n      pop\n      dup2\n      add\n      swap1\n      tag_80\n      swap2\n      swap1\n      tag_81\n      jump\t// in\n    tag_80:\n        /* \"assignment contracts/W1 SafeTokenVesting.sol\":2819:2856  return token.balanceOf(address(this)) */\n      swap1\n      pop\n        /* \"assignment contracts/W1 SafeTokenVesting.sol\":2746:2864  function getContractBalance() external view returns (uint256) {... */\n      swap1\n      jump\t// out\n        /* \"assignment contracts/W1 SafeTokenVesting.sol\":454:478  uint256 public startTime */\n    tag_30:\n      sload(0x02)\n      dup2\n      jump\t// out\n        /* \"assignment contracts/W1 SafeTokenVesting.sol\":522:548  uint256 public totalTokens */\n    tag_33:\n      sload(0x04)\n      dup2\n      jump\t// out\n        /* \"assignment contracts/W1 SafeTokenVesting.sol\":555:584  uint256 public releasedTokens */\n    tag_36:\n      sload(0x05)\n      dup2\n      jump\t// out\n        /* \"assignment contracts/W1 SafeTokenVesting.sol\":395:414  IERC20 public token */\n    tag_39:\n      0x00\n      dup1\n      sload\n      swap1\n      0x0100\n      exp\n      swap1\n      div\n      0xffffffffffffffffffffffffffffffffffffffff\n      and\n      dup2\n      jump\t// out\n        /* \"#utility.yul\":7:84   */\n    tag_82:\n        /* \"#utility.yul\":44:51   */\n      0x00\n        /* \"#utility.yul\":73:78   */\n      dup2\n        /* \"#utility.yul\":62:78   */\n      swap1\n      pop\n        /* \"#utility.yul\":7:84   */\n      swap2\n      swap1\n      pop\n      jump\t// out\n        /* \"#utility.yul\":90:208   */\n    tag_83:\n        /* \"#utility.yul\":177:201   */\n      tag_112\n        /* \"#utility.yul\":195:200   */\n      dup2\n        /* \"#utility.yul\":177:201   */\n      tag_82\n      jump\t// in\n    tag_112:\n        /* \"#utility.yul\":172:175   */\n      dup3\n        /* \"#utility.yul\":165:202   */\n      mstore\n        /* \"#utility.yul\":90:208   */\n      pop\n      pop\n      jump\t// out\n        /* \"#utility.yul\":214:436   */\n    tag_16:\n        /* \"#utility.yul\":307:311   */\n      0x00\n        /* \"#utility.yul\":345:347   */\n      0x20\n        /* \"#utility.yul\":334:343   */\n      dup3\n        /* \"#utility.yul\":330:348   */\n      add\n        /* \"#utility.yul\":322:348   */\n      swap1\n      pop\n        /* \"#utility.yul\":358:429   */\n      tag_114\n        /* \"#utility.yul\":426:427   */\n      0x00\n        /* \"#utility.yul\":415:424   */\n      dup4\n        /* \"#utility.yul\":411:428   */\n      add\n        /* \"#utility.yul\":402:408   */\n      dup5\n        /* \"#utility.yul\":358:429   */\n      tag_83\n      jump\t// in\n    tag_114:\n        /* \"#utility.yul\":214:436   */\n      swap3\n      swap2\n      pop\n      pop\n      jump\t// out\n        /* \"#utility.yul\":442:568   */\n    tag_84:\n        /* \"#utility.yul\":479:486   */\n      0x00\n        /* \"#utility.yul\":519:561   */\n      0xffffffffffffffffffffffffffffffffffffffff\n        /* \"#utility.yul\":512:517   */\n      dup3\n        /* \"#utility.yul\":508:562   */\n      and\n        /* \"#utility.yul\":497:562   */\n      swap1\n      pop\n        /* \"#utility.yul\":442:568   */\n      swap2\n      swap1\n      pop\n      jump\t// out\n        /* \"#utility.yul\":574:670   */\n    tag_85:\n        /* \"#utility.yul\":611:618   */\n      0x00\n        /* \"#utility.yul\":640:664   */\n      tag_117\n        /* \"#utility.yul\":658:663   */\n      dup3\n        /* \"#utility.yul\":640:664   */\n      tag_84\n      jump\t// in\n    tag_117:\n        /* \"#utility.yul\":629:664   */\n      swap1\n      pop\n        /* \"#utility.yul\":574:670   */\n      swap2\n      swap1\n      pop\n      jump\t// out\n        /* \"#utility.yul\":676:794   */\n    tag_86:\n        /* \"#utility.yul\":763:787   */\n      tag_119\n        /* \"#utility.yul\":781:786   */\n      dup2\n        /* \"#utility.yul\":763:787   */\n      tag_85\n      jump\t// in\n    tag_119:\n        /* \"#utility.yul\":758:761   */\n      dup3\n        /* \"#utility.yul\":751:788   */\n      mstore\n        /* \"#utility.yul\":676:794   */\n      pop\n      pop\n      jump\t// out\n        /* \"#utility.yul\":800:1022   */\n    tag_20:\n        /* \"#utility.yul\":893:897   */\n      0x00\n        /* \"#utility.yul\":931:933   */\n      0x20\n        /* \"#utility.yul\":920:929   */\n      dup3\n        /* \"#utility.yul\":916:934   */\n      add\n        /* \"#utility.yul\":908:934   */\n      swap1\n      pop\n        /* \"#utility.yul\":944:1015   */\n      tag_121\n        /* \"#utility.yul\":1012:1013   */\n      0x00\n        /* \"#utility.yul\":1001:1010   */\n      dup4\n        /* \"#utility.yul\":997:1014   */\n      add\n        /* \"#utility.yul\":988:994   */\n      dup5\n        /* \"#utility.yul\":944:1015   */\n      tag_86\n      jump\t// in\n    tag_121:\n        /* \"#utility.yul\":800:1022   */\n      swap3\n      swap2\n      pop\n      pop\n      jump\t// out\n        /* \"#utility.yul\":1028:1088   */\n    tag_87:\n        /* \"#utility.yul\":1056:1059   */\n      0x00\n        /* \"#utility.yul\":1077:1082   */\n      dup2\n        /* \"#utility.yul\":1070:1082   */\n      swap1\n      pop\n        /* \"#utility.yul\":1028:1088   */\n      swap2\n      swap1\n      pop\n      jump\t// out\n        /* \"#utility.yul\":1094:1236   */\n    tag_88:\n        /* \"#utility.yul\":1144:1153   */\n      0x00\n        /* \"#utility.yul\":1177:1230   */\n      tag_124\n        /* \"#utility.yul\":1195:1229   */\n      tag_125\n        /* \"#utility.yul\":1204:1228   */\n      tag_126\n        /* \"#utility.yul\":1222:1227   */\n      dup5\n        /* \"#utility.yul\":1204:1228   */\n      tag_84\n      jump\t// in\n    tag_126:\n        /* \"#utility.yul\":1195:1229   */\n      tag_87\n      jump\t// in\n    tag_125:\n        /* \"#utility.yul\":1177:1230   */\n      tag_84\n      jump\t// in\n    tag_124:\n        /* \"#utility.yul\":1164:1230   */\n      swap1\n      pop\n        /* \"#utility.yul\":1094:1236   */\n      swap2\n      swap1\n      pop\n      jump\t// out\n        /* \"#utility.yul\":1242:1368   */\n    tag_89:\n        /* \"#utility.yul\":1292:1301   */\n      0x00\n        /* \"#utility.yul\":1325:1362   */\n      tag_128\n        /* \"#utility.yul\":1356:1361   */\n      dup3\n        /* \"#utility.yul\":1325:1362   */\n      tag_88\n      jump\t// in\n    tag_128:\n        /* \"#utility.yul\":1312:1362   */\n      swap1\n      pop\n        /* \"#utility.yul\":1242:1368   */\n      swap2\n      swap1\n      pop\n      jump\t// out\n        /* \"#utility.yul\":1374:1513   */\n    tag_90:\n        /* \"#utility.yul\":1437:1446   */\n      0x00\n        /* \"#utility.yul\":1470:1507   */\n      tag_130\n        /* \"#utility.yul\":1501:1506   */\n      dup3\n        /* \"#utility.yul\":1470:1507   */\n      tag_89\n      jump\t// in\n    tag_130:\n        /* \"#utility.yul\":1457:1507   */\n      swap1\n      pop\n        /* \"#utility.yul\":1374:1513   */\n      swap2\n      swap1\n      pop\n      jump\t// out\n        /* \"#utility.yul\":1519:1676   */\n    tag_91:\n        /* \"#utility.yul\":1619:1669   */\n      tag_132\n        /* \"#utility.yul\":1663:1668   */\n      dup2\n        /* \"#utility.yul\":1619:1669   */\n      tag_90\n      jump\t// in\n    tag_132:\n        /* \"#utility.yul\":1614:1617   */\n      dup3\n        /* \"#utility.yul\":1607:1670   */\n      mstore\n        /* \"#utility.yul\":1519:1676   */\n      pop\n      pop\n      jump\t// out\n        /* \"#utility.yul\":1682:1930   */\n    tag_41:\n        /* \"#utility.yul\":1788:1792   */\n      0x00\n        /* \"#utility.yul\":1826:1828   */\n      0x20\n        /* \"#utility.yul\":1815:1824   */\n      dup3\n        /* \"#utility.yul\":1811:1829   */\n      add\n        /* \"#utility.yul\":1803:1829   */\n      swap1\n      pop\n        /* \"#utility.yul\":1839:1923   */\n      tag_134\n        /* \"#utility.yul\":1920:1921   */\n      0x00\n        /* \"#utility.yul\":1909:1918   */\n      dup4\n        /* \"#utility.yul\":1905:1922   */\n      add\n        /* \"#utility.yul\":1896:1902   */\n      dup5\n        /* \"#utility.yul\":1839:1923   */\n      tag_91\n      jump\t// in\n    tag_134:\n        /* \"#utility.yul\":1682:1930   */\n      swap3\n      swap2\n      pop\n      pop\n      jump\t// out\n        /* \"#utility.yul\":1936:2105   */\n    tag_92:\n        /* \"#utility.yul\":2020:2031   */\n      0x00\n        /* \"#utility.yul\":2054:2060   */\n      dup3\n        /* \"#utility.yul\":2049:2052   */\n      dup3\n        /* \"#utility.yul\":2042:2061   */\n      mstore\n        /* \"#utility.yul\":2094:2098   */\n      0x20\n        /* \"#utility.yul\":2089:2092   */\n      dup3\n        /* \"#utility.yul\":2085:2099   */\n      add\n        /* \"#utility.yul\":2070:2099   */\n      swap1\n      pop\n        /* \"#utility.yul\":1936:2105   */\n      swap3\n      swap2\n      pop\n      pop\n      jump\t// out\n        /* \"#utility.yul\":2111:2335   */\n    tag_93:\n        /* \"#utility.yul\":2251:2285   */\n      0x4f6e6c79207468652062656e65666963696172792063616e20636c61696d2074\n        /* \"#utility.yul\":2247:2248   */\n      0x00\n        /* \"#utility.yul\":2239:2245   */\n      dup3\n        /* \"#utility.yul\":2235:2249   */\n      add\n        /* \"#utility.yul\":2228:2286   */\n      mstore\n        /* \"#utility.yul\":2320:2327   */\n      0x6f6b656e73000000000000000000000000000000000000000000000000000000\n        /* \"#utility.yul\":2315:2317   */\n      0x20\n        /* \"#utility.yul\":2307:2313   */\n      dup3\n        /* \"#utility.yul\":2303:2318   */\n      add\n        /* \"#utility.yul\":2296:2328   */\n      mstore\n        /* \"#utility.yul\":2111:2335   */\n      pop\n      jump\t// out\n        /* \"#utility.yul\":2341:2707   */\n    tag_94:\n        /* \"#utility.yul\":2483:2486   */\n      0x00\n        /* \"#utility.yul\":2504:2571   */\n      tag_138\n        /* \"#utility.yul\":2568:2570   */\n      0x25\n        /* \"#utility.yul\":2563:2566   */\n      dup4\n        /* \"#utility.yul\":2504:2571   */\n      tag_92\n      jump\t// in\n    tag_138:\n        /* \"#utility.yul\":2497:2571   */\n      swap2\n      pop\n        /* \"#utility.yul\":2580:2673   */\n      tag_139\n        /* \"#utility.yul\":2669:2672   */\n      dup3\n        /* \"#utility.yul\":2580:2673   */\n      tag_93\n      jump\t// in\n    tag_139:\n        /* \"#utility.yul\":2698:2700   */\n      0x40\n        /* \"#utility.yul\":2693:2696   */\n      dup3\n        /* \"#utility.yul\":2689:2701   */\n      add\n        /* \"#utility.yul\":2682:2701   */\n      swap1\n      pop\n        /* \"#utility.yul\":2341:2707   */\n      swap2\n      swap1\n      pop\n      jump\t// out\n        /* \"#utility.yul\":2713:3132   */\n    tag_45:\n        /* \"#utility.yul\":2879:2883   */\n      0x00\n        /* \"#utility.yul\":2917:2919   */\n      0x20\n        /* \"#utility.yul\":2906:2915   */\n      dup3\n        /* \"#utility.yul\":2902:2920   */\n      add\n        /* \"#utility.yul\":2894:2920   */\n      swap1\n      pop\n        /* \"#utility.yul\":2966:2975   */\n      dup2\n        /* \"#utility.yul\":2960:2964   */\n      dup2\n        /* \"#utility.yul\":2956:2976   */\n      sub\n        /* \"#utility.yul\":2952:2953   */\n      0x00\n        /* \"#utility.yul\":2941:2950   */\n      dup4\n        /* \"#utility.yul\":2937:2954   */\n      add\n        /* \"#utility.yul\":2930:2977   */\n      mstore\n        /* \"#utility.yul\":2994:3125   */\n      tag_141\n        /* \"#utility.yul\":3120:3124   */\n      dup2\n        /* \"#utility.yul\":2994:3125   */\n      tag_94\n      jump\t// in\n    tag_141:\n        /* \"#utility.yul\":2986:3125   */\n      swap1\n      pop\n        /* \"#utility.yul\":2713:3132   */\n      swap2\n      swap1\n      pop\n      jump\t// out\n        /* \"#utility.yul\":3138:3318   */\n    tag_95:\n        /* \"#utility.yul\":3186:3263   */\n      0x4e487b7100000000000000000000000000000000000000000000000000000000\n        /* \"#utility.yul\":3183:3184   */\n      0x00\n        /* \"#utility.yul\":3176:3264   */\n      mstore\n        /* \"#utility.yul\":3283:3287   */\n      0x11\n        /* \"#utility.yul\":3280:3281   */\n      0x04\n        /* \"#utility.yul\":3273:3288   */\n      mstore\n        /* \"#utility.yul\":3307:3311   */\n      0x24\n        /* \"#utility.yul\":3304:3305   */\n      0x00\n        /* \"#utility.yul\":3297:3312   */\n      revert\n        /* \"#utility.yul\":3324:3518   */\n    tag_48:\n        /* \"#utility.yul\":3364:3368   */\n      0x00\n        /* \"#utility.yul\":3384:3404   */\n      tag_144\n        /* \"#utility.yul\":3402:3403   */\n      dup3\n        /* \"#utility.yul\":3384:3404   */\n      tag_82\n      jump\t// in\n    tag_144:\n        /* \"#utility.yul\":3379:3404   */\n      swap2\n      pop\n        /* \"#utility.yul\":3418:3438   */\n      tag_145\n        /* \"#utility.yul\":3436:3437   */\n      dup4\n        /* \"#utility.yul\":3418:3438   */\n      tag_82\n      jump\t// in\n    tag_145:\n        /* \"#utility.yul\":3413:3438   */\n      swap3\n      pop\n        /* \"#utility.yul\":3462:3463   */\n      dup3\n        /* \"#utility.yul\":3459:3460   */\n      dup3\n        /* \"#utility.yul\":3455:3464   */\n      sub\n        /* \"#utility.yul\":3447:3464   */\n      swap1\n      pop\n        /* \"#utility.yul\":3486:3487   */\n      dup2\n        /* \"#utility.yul\":3480:3484   */\n      dup2\n        /* \"#utility.yul\":3477:3488   */\n      gt\n        /* \"#utility.yul\":3474:3511   */\n      iszero\n      tag_146\n      jumpi\n        /* \"#utility.yul\":3491:3509   */\n      tag_147\n      tag_95\n      jump\t// in\n    tag_147:\n        /* \"#utility.yul\":3474:3511   */\n    tag_146:\n        /* \"#utility.yul\":3324:3518   */\n      swap3\n      swap2\n      pop\n      pop\n      jump\t// out\n        /* \"#utility.yul\":3524:3702   */\n    tag_96:\n        /* \"#utility.yul\":3664:3694   */\n      0x4e6f20746f6b656e7320617661696c61626c6520746f20636c61696d00000000\n        /* \"#utility.yul\":3660:3661   */\n      0x00\n        /* \"#utility.yul\":3652:3658   */\n      dup3\n        /* \"#utility.yul\":3648:3662   */\n      add\n        /* \"#utility.yul\":3641:3695   */\n      mstore\n        /* \"#utility.yul\":3524:3702   */\n      pop\n      jump\t// out\n        /* \"#utility.yul\":3708:4074   */\n    tag_97:\n        /* \"#utility.yul\":3850:3853   */\n      0x00\n        /* \"#utility.yul\":3871:3938   */\n      tag_150\n        /* \"#utility.yul\":3935:3937   */\n      0x1c\n        /* \"#utility.yul\":3930:3933   */\n      dup4\n        /* \"#utility.yul\":3871:3938   */\n      tag_92\n      jump\t// in\n    tag_150:\n        /* \"#utility.yul\":3864:3938   */\n      swap2\n      pop\n        /* \"#utility.yul\":3947:4040   */\n      tag_151\n        /* \"#utility.yul\":4036:4039   */\n      dup3\n        /* \"#utility.yul\":3947:4040   */\n      tag_96\n      jump\t// in\n    tag_151:\n        /* \"#utility.yul\":4065:4067   */\n      0x20\n        /* \"#utility.yul\":4060:4063   */\n      dup3\n        /* \"#utility.yul\":4056:4068   */\n      add\n        /* \"#utility.yul\":4049:4068   */\n      swap1\n      pop\n        /* \"#utility.yul\":3708:4074   */\n      swap2\n      swap1\n      pop\n      jump\t// out\n        /* \"#utility.yul\":4080:4499   */\n    tag_51:\n        /* \"#utility.yul\":4246:4250   */\n      0x00\n        /* \"#utility.yul\":4284:4286   */\n      0x20\n        /* \"#utility.yul\":4273:4282   */\n      dup3\n        /* \"#utility.yul\":4269:4287   */\n      add\n        /* \"#utility.yul\":4261:4287   */\n      swap1\n      pop\n        /* \"#utility.yul\":4333:4342   */\n      dup2\n        /* \"#utility.yul\":4327:4331   */\n      dup2\n        /* \"#utility.yul\":4323:4343   */\n      sub\n        /* \"#utility.yul\":4319:4320   */\n      0x00\n        /* \"#utility.yul\":4308:4317   */\n      dup4\n        /* \"#utility.yul\":4304:4321   */\n      add\n        /* \"#utility.yul\":4297:4344   */\n      mstore\n        /* \"#utility.yul\":4361:4492   */\n      tag_153\n        /* \"#utility.yul\":4487:4491   */\n      dup2\n        /* \"#utility.yul\":4361:4492   */\n      tag_97\n      jump\t// in\n    tag_153:\n        /* \"#utility.yul\":4353:4492   */\n      swap1\n      pop\n        /* \"#utility.yul\":4080:4499   */\n      swap2\n      swap1\n      pop\n      jump\t// out\n        /* \"#utility.yul\":4505:4696   */\n    tag_53:\n        /* \"#utility.yul\":4545:4548   */\n      0x00\n        /* \"#utility.yul\":4564:4584   */\n      tag_155\n        /* \"#utility.yul\":4582:4583   */\n      dup3\n        /* \"#utility.yul\":4564:4584   */\n      tag_82\n      jump\t// in\n    tag_155:\n        /* \"#utility.yul\":4559:4584   */\n      swap2\n      pop\n        /* \"#utility.yul\":4598:4618   */\n      tag_156\n        /* \"#utility.yul\":4616:4617   */\n      dup4\n        /* \"#utility.yul\":4598:4618   */\n      tag_82\n      jump\t// in\n    tag_156:\n        /* \"#utility.yul\":4593:4618   */\n      swap3\n      pop\n        /* \"#utility.yul\":4641:4642   */\n      dup3\n        /* \"#utility.yul\":4638:4639   */\n      dup3\n        /* \"#utility.yul\":4634:4643   */\n      add\n        /* \"#utility.yul\":4627:4643   */\n      swap1\n      pop\n        /* \"#utility.yul\":4662:4665   */\n      dup1\n        /* \"#utility.yul\":4659:4660   */\n      dup3\n        /* \"#utility.yul\":4656:4666   */\n      gt\n        /* \"#utility.yul\":4653:4689   */\n      iszero\n      tag_157\n      jumpi\n        /* \"#utility.yul\":4669:4687   */\n      tag_158\n      tag_95\n      jump\t// in\n    tag_158:\n        /* \"#utility.yul\":4653:4689   */\n    tag_157:\n        /* \"#utility.yul\":4505:4696   */\n      swap3\n      swap2\n      pop\n      pop\n      jump\t// out\n        /* \"#utility.yul\":4702:5034   */\n    tag_55:\n        /* \"#utility.yul\":4823:4827   */\n      0x00\n        /* \"#utility.yul\":4861:4863   */\n      0x40\n        /* \"#utility.yul\":4850:4859   */\n      dup3\n        /* \"#utility.yul\":4846:4864   */\n      add\n        /* \"#utility.yul\":4838:4864   */\n      swap1\n      pop\n        /* \"#utility.yul\":4874:4945   */\n      tag_160\n        /* \"#utility.yul\":4942:4943   */\n      0x00\n        /* \"#utility.yul\":4931:4940   */\n      dup4\n        /* \"#utility.yul\":4927:4944   */\n      add\n        /* \"#utility.yul\":4918:4924   */\n      dup6\n        /* \"#utility.yul\":4874:4945   */\n      tag_86\n      jump\t// in\n    tag_160:\n        /* \"#utility.yul\":4955:5027   */\n      tag_161\n        /* \"#utility.yul\":5023:5025   */\n      0x20\n        /* \"#utility.yul\":5012:5021   */\n      dup4\n        /* \"#utility.yul\":5008:5026   */\n      add\n        /* \"#utility.yul\":4999:5005   */\n      dup5\n        /* \"#utility.yul\":4955:5027   */\n      tag_83\n      jump\t// in\n    tag_161:\n        /* \"#utility.yul\":4702:5034   */\n      swap4\n      swap3\n      pop\n      pop\n      pop\n      jump\t// out\n        /* \"#utility.yul\":5121:5238   */\n    tag_99:\n        /* \"#utility.yul\":5230:5231   */\n      0x00\n        /* \"#utility.yul\":5227:5228   */\n      dup1\n        /* \"#utility.yul\":5220:5232   */\n      revert\n        /* \"#utility.yul\":5367:5457   */\n    tag_101:\n        /* \"#utility.yul\":5401:5408   */\n      0x00\n        /* \"#utility.yul\":5444:5449   */\n      dup2\n        /* \"#utility.yul\":5437:5450   */\n      iszero\n        /* \"#utility.yul\":5430:5451   */\n      iszero\n        /* \"#utility.yul\":5419:5451   */\n      swap1\n      pop\n        /* \"#utility.yul\":5367:5457   */\n      swap2\n      swap1\n      pop\n      jump\t// out\n        /* \"#utility.yul\":5463:5579   */\n    tag_102:\n        /* \"#utility.yul\":5533:5554   */\n      tag_167\n        /* \"#utility.yul\":5548:5553   */\n      dup2\n        /* \"#utility.yul\":5533:5554   */\n      tag_101\n      jump\t// in\n    tag_167:\n        /* \"#utility.yul\":5526:5531   */\n      dup2\n        /* \"#utility.yul\":5523:5555   */\n      eq\n        /* \"#utility.yul\":5513:5573   */\n      tag_168\n      jumpi\n        /* \"#utility.yul\":5569:5570   */\n      0x00\n        /* \"#utility.yul\":5566:5567   */\n      dup1\n        /* \"#utility.yul\":5559:5571   */\n      revert\n        /* \"#utility.yul\":5513:5573   */\n    tag_168:\n        /* \"#utility.yul\":5463:5579   */\n      pop\n      jump\t// out\n        /* \"#utility.yul\":5585:5722   */\n    tag_103:\n        /* \"#utility.yul\":5639:5644   */\n      0x00\n        /* \"#utility.yul\":5670:5676   */\n      dup2\n        /* \"#utility.yul\":5664:5677   */\n      mload\n        /* \"#utility.yul\":5655:5677   */\n      swap1\n      pop\n        /* \"#utility.yul\":5686:5716   */\n      tag_170\n        /* \"#utility.yul\":5710:5715   */\n      dup2\n        /* \"#utility.yul\":5686:5716   */\n      tag_102\n      jump\t// in\n    tag_170:\n        /* \"#utility.yul\":5585:5722   */\n      swap3\n      swap2\n      pop\n      pop\n      jump\t// out\n        /* \"#utility.yul\":5728:6073   */\n    tag_58:\n        /* \"#utility.yul\":5795:5801   */\n      0x00\n        /* \"#utility.yul\":5844:5846   */\n      0x20\n        /* \"#utility.yul\":5832:5841   */\n      dup3\n        /* \"#utility.yul\":5823:5830   */\n      dup5\n        /* \"#utility.yul\":5819:5842   */\n      sub\n        /* \"#utility.yul\":5815:5847   */\n      slt\n        /* \"#utility.yul\":5812:5931   */\n      iszero\n      tag_172\n      jumpi\n        /* \"#utility.yul\":5850:5929   */\n      tag_173\n      tag_99\n      jump\t// in\n    tag_173:\n        /* \"#utility.yul\":5812:5931   */\n    tag_172:\n        /* \"#utility.yul\":5970:5971   */\n      0x00\n        /* \"#utility.yul\":5995:6056   */\n      tag_174\n        /* \"#utility.yul\":6048:6055   */\n      dup5\n        /* \"#utility.yul\":6039:6045   */\n      dup3\n        /* \"#utility.yul\":6028:6037   */\n      dup6\n        /* \"#utility.yul\":6024:6046   */\n      add\n        /* \"#utility.yul\":5995:6056   */\n      tag_103\n      jump\t// in\n    tag_174:\n        /* \"#utility.yul\":5985:6056   */\n      swap2\n      pop\n        /* \"#utility.yul\":5941:6066   */\n      pop\n        /* \"#utility.yul\":5728:6073   */\n      swap3\n      swap2\n      pop\n      pop\n      jump\t// out\n        /* \"#utility.yul\":6079:6250   */\n    tag_104:\n        /* \"#utility.yul\":6219:6242   */\n      0x546f6b656e207472616e73666572206661696c65640000000000000000000000\n        /* \"#utility.yul\":6215:6216   */\n      0x00\n        /* \"#utility.yul\":6207:6213   */\n      dup3\n        /* \"#utility.yul\":6203:6217   */\n      add\n        /* \"#utility.yul\":6196:6243   */\n      mstore\n        /* \"#utility.yul\":6079:6250   */\n      pop\n      jump\t// out\n        /* \"#utility.yul\":6256:6622   */\n    tag_105:\n        /* \"#utility.yul\":6398:6401   */\n      0x00\n        /* \"#utility.yul\":6419:6486   */\n      tag_177\n        /* \"#utility.yul\":6483:6485   */\n      0x15\n        /* \"#utility.yul\":6478:6481   */\n      dup4\n        /* \"#utility.yul\":6419:6486   */\n      tag_92\n      jump\t// in\n    tag_177:\n        /* \"#utility.yul\":6412:6486   */\n      swap2\n      pop\n        /* \"#utility.yul\":6495:6588   */\n      tag_178\n        /* \"#utility.yul\":6584:6587   */\n      dup3\n        /* \"#utility.yul\":6495:6588   */\n      tag_104\n      jump\t// in\n    tag_178:\n        /* \"#utility.yul\":6613:6615   */\n      0x20\n        /* \"#utility.yul\":6608:6611   */\n      dup3\n        /* \"#utility.yul\":6604:6616   */\n      add\n        /* \"#utility.yul\":6597:6616   */\n      swap1\n      pop\n        /* \"#utility.yul\":6256:6622   */\n      swap2\n      swap1\n      pop\n      jump\t// out\n        /* \"#utility.yul\":6628:7047   */\n    tag_65:\n        /* \"#utility.yul\":6794:6798   */\n      0x00\n        /* \"#utility.yul\":6832:6834   */\n      0x20\n        /* \"#utility.yul\":6821:6830   */\n      dup3\n        /* \"#utility.yul\":6817:6835   */\n      add\n        /* \"#utility.yul\":6809:6835   */\n      swap1\n      pop\n        /* \"#utility.yul\":6881:6890   */\n      dup2\n        /* \"#utility.yul\":6875:6879   */\n      dup2\n        /* \"#utility.yul\":6871:6891   */\n      sub\n        /* \"#utility.yul\":6867:6868   */\n      0x00\n        /* \"#utility.yul\":6856:6865   */\n      dup4\n        /* \"#utility.yul\":6852:6869   */\n      add\n        /* \"#utility.yul\":6845:6892   */\n      mstore\n        /* \"#utility.yul\":6909:7040   */\n      tag_180\n        /* \"#utility.yul\":7035:7039   */\n      dup2\n        /* \"#utility.yul\":6909:7040   */\n      tag_105\n      jump\t// in\n    tag_180:\n        /* \"#utility.yul\":6901:7040   */\n      swap1\n      pop\n        /* \"#utility.yul\":6628:7047   */\n      swap2\n      swap1\n      pop\n      jump\t// out\n        /* \"#utility.yul\":7053:7463   */\n    tag_73:\n        /* \"#utility.yul\":7093:7100   */\n      0x00\n        /* \"#utility.yul\":7116:7136   */\n      tag_182\n        /* \"#utility.yul\":7134:7135   */\n      dup3\n        /* \"#utility.yul\":7116:7136   */\n      tag_82\n      jump\t// in\n    tag_182:\n        /* \"#utility.yul\":7111:7136   */\n      swap2\n      pop\n        /* \"#utility.yul\":7150:7170   */\n      tag_183\n        /* \"#utility.yul\":7168:7169   */\n      dup4\n        /* \"#utility.yul\":7150:7170   */\n      tag_82\n      jump\t// in\n    tag_183:\n        /* \"#utility.yul\":7145:7170   */\n      swap3\n      pop\n        /* \"#utility.yul\":7205:7206   */\n      dup3\n        /* \"#utility.yul\":7202:7203   */\n      dup3\n        /* \"#utility.yul\":7198:7207   */\n      mul\n        /* \"#utility.yul\":7227:7257   */\n      tag_184\n        /* \"#utility.yul\":7245:7256   */\n      dup2\n        /* \"#utility.yul\":7227:7257   */\n      tag_82\n      jump\t// in\n    tag_184:\n        /* \"#utility.yul\":7216:7257   */\n      swap2\n      pop\n        /* \"#utility.yul\":7406:7407   */\n      dup3\n        /* \"#utility.yul\":7397:7404   */\n      dup3\n        /* \"#utility.yul\":7393:7408   */\n      div\n        /* \"#utility.yul\":7390:7391   */\n      dup5\n        /* \"#utility.yul\":7387:7409   */\n      eq\n        /* \"#utility.yul\":7367:7368   */\n      dup4\n        /* \"#utility.yul\":7360:7369   */\n      iszero\n        /* \"#utility.yul\":7340:7423   */\n      or\n        /* \"#utility.yul\":7317:7456   */\n      tag_185\n      jumpi\n        /* \"#utility.yul\":7436:7454   */\n      tag_186\n      tag_95\n      jump\t// in\n    tag_186:\n        /* \"#utility.yul\":7317:7456   */\n    tag_185:\n        /* \"#utility.yul\":7101:7463   */\n      pop\n        /* \"#utility.yul\":7053:7463   */\n      swap3\n      swap2\n      pop\n      pop\n      jump\t// out\n        /* \"#utility.yul\":7469:7649   */\n    tag_106:\n        /* \"#utility.yul\":7517:7594   */\n      0x4e487b7100000000000000000000000000000000000000000000000000000000\n        /* \"#utility.yul\":7514:7515   */\n      0x00\n        /* \"#utility.yul\":7507:7595   */\n      mstore\n        /* \"#utility.yul\":7614:7618   */\n      0x12\n        /* \"#utility.yul\":7611:7612   */\n      0x04\n        /* \"#utility.yul\":7604:7619   */\n      mstore\n        /* \"#utility.yul\":7638:7642   */\n      0x24\n        /* \"#utility.yul\":7635:7636   */\n      0x00\n        /* \"#utility.yul\":7628:7643   */\n      revert\n        /* \"#utility.yul\":7655:7840   */\n    tag_75:\n        /* \"#utility.yul\":7695:7696   */\n      0x00\n        /* \"#utility.yul\":7712:7732   */\n      tag_189\n        /* \"#utility.yul\":7730:7731   */\n      dup3\n        /* \"#utility.yul\":7712:7732   */\n      tag_82\n      jump\t// in\n    tag_189:\n        /* \"#utility.yul\":7707:7732   */\n      swap2\n      pop\n        /* \"#utility.yul\":7746:7766   */\n      tag_190\n        /* \"#utility.yul\":7764:7765   */\n      dup4\n        /* \"#utility.yul\":7746:7766   */\n      tag_82\n      jump\t// in\n    tag_190:\n        /* \"#utility.yul\":7741:7766   */\n      swap3\n      pop\n        /* \"#utility.yul\":7785:7786   */\n      dup3\n        /* \"#utility.yul\":7775:7810   */\n      tag_191\n      jumpi\n        /* \"#utility.yul\":7790:7808   */\n      tag_192\n      tag_106\n      jump\t// in\n    tag_192:\n        /* \"#utility.yul\":7775:7810   */\n    tag_191:\n        /* \"#utility.yul\":7832:7833   */\n      dup3\n        /* \"#utility.yul\":7829:7830   */\n      dup3\n        /* \"#utility.yul\":7825:7834   */\n      div\n        /* \"#utility.yul\":7820:7834   */\n      swap1\n      pop\n        /* \"#utility.yul\":7655:7840   */\n      swap3\n      swap2\n      pop\n      pop\n      jump\t// out\n        /* \"#utility.yul\":7846:7968   */\n    tag_107:\n        /* \"#utility.yul\":7919:7943   */\n      tag_194\n        /* \"#utility.yul\":7937:7942   */\n      dup2\n        /* \"#utility.yul\":7919:7943   */\n      tag_82\n      jump\t// in\n    tag_194:\n        /* \"#utility.yul\":7912:7917   */\n      dup2\n        /* \"#utility.yul\":7909:7944   */\n      eq\n        /* \"#utility.yul\":7899:7962   */\n      tag_195\n      jumpi\n        /* \"#utility.yul\":7958:7959   */\n      0x00\n        /* \"#utility.yul\":7955:7956   */\n      dup1\n        /* \"#utility.yul\":7948:7960   */\n      revert\n        /* \"#utility.yul\":7899:7962   */\n    tag_195:\n        /* \"#utility.yul\":7846:7968   */\n      pop\n      jump\t// out\n        /* \"#utility.yul\":7974:8117   */\n    tag_108:\n        /* \"#utility.yul\":8031:8036   */\n      0x00\n        /* \"#utility.yul\":8062:8068   */\n      dup2\n        /* \"#utility.yul\":8056:8069   */\n      mload\n        /* \"#utility.yul\":8047:8069   */\n      swap1\n      pop\n        /* \"#utility.yul\":8078:8111   */\n      tag_197\n        /* \"#utility.yul\":8105:8110   */\n      dup2\n        /* \"#utility.yul\":8078:8111   */\n      tag_107\n      jump\t// in\n    tag_197:\n        /* \"#utility.yul\":7974:8117   */\n      swap3\n      swap2\n      pop\n      pop\n      jump\t// out\n        /* \"#utility.yul\":8123:8474   */\n    tag_81:\n        /* \"#utility.yul\":8193:8199   */\n      0x00\n        /* \"#utility.yul\":8242:8244   */\n      0x20\n        /* \"#utility.yul\":8230:8239   */\n      dup3\n        /* \"#utility.yul\":8221:8228   */\n      dup5\n        /* \"#utility.yul\":8217:8240   */\n      sub\n        /* \"#utility.yul\":8213:8245   */\n      slt\n        /* \"#utility.yul\":8210:8329   */\n      iszero\n      tag_199\n      jumpi\n        /* \"#utility.yul\":8248:8327   */\n      tag_200\n      tag_99\n      jump\t// in\n    tag_200:\n        /* \"#utility.yul\":8210:8329   */\n    tag_199:\n        /* \"#utility.yul\":8368:8369   */\n      0x00\n        /* \"#utility.yul\":8393:8457   */\n      tag_201\n        /* \"#utility.yul\":8449:8456   */\n      dup5\n        /* \"#utility.yul\":8440:8446   */\n      dup3\n        /* \"#utility.yul\":8429:8438   */\n      dup6\n        /* \"#utility.yul\":8425:8447   */\n      add\n        /* \"#utility.yul\":8393:8457   */\n      tag_108\n      jump\t// in\n    tag_201:\n        /* \"#utility.yul\":8383:8457   */\n      swap2\n      pop\n        /* \"#utility.yul\":8339:8467   */\n      pop\n        /* \"#utility.yul\":8123:8474   */\n      swap3\n      swap2\n      pop\n      pop\n      jump\t// out\n\n    auxdata: 0xa2646970667358221220fc86efc7a843fdd3abf358a6119b92b27ff07261a262aed786194e8d6d70157964736f6c634300081a0033\n}\n",
				"bytecode": {
					"linkReferences": {},
					"object": "608060405234801561000f575f80fd5b50604051610f93380380610f93833981810160405281019061003191906102fa565b5f73ffffffffffffffffffffffffffffffffffffffff168473ffffffffffffffffffffffffffffffffffffffff160361009f576040517f08c379a0000000000000000000000000000000000000000000000000000000008152600401610096906103b8565b60405180910390fd5b5f73ffffffffffffffffffffffffffffffffffffffff168373ffffffffffffffffffffffffffffffffffffffff160361010d576040517f08c379a000000000000000000000000000000000000000000000000000000000815260040161010490610446565b60405180910390fd5b5f811161014f576040517f08c379a0000000000000000000000000000000000000000000000000000000008152600401610146906104d4565b60405180910390fd5b5f8211610191576040517f08c379a000000000000000000000000000000000000000000000000000000000815260040161018890610562565b60405180910390fd5b835f806101000a81548173ffffffffffffffffffffffffffffffffffffffff021916908373ffffffffffffffffffffffffffffffffffffffff1602179055508260015f6101000a81548173ffffffffffffffffffffffffffffffffffffffff021916908373ffffffffffffffffffffffffffffffffffffffff16021790555081600481905550806003819055504260028190555050505050610580565b5f80fd5b5f73ffffffffffffffffffffffffffffffffffffffff82169050919050565b5f61025b82610232565b9050919050565b5f61026c82610251565b9050919050565b61027c81610262565b8114610286575f80fd5b50565b5f8151905061029781610273565b92915050565b6102a681610251565b81146102b0575f80fd5b50565b5f815190506102c18161029d565b92915050565b5f819050919050565b6102d9816102c7565b81146102e3575f80fd5b50565b5f815190506102f4816102d0565b92915050565b5f805f80608085870312156103125761031161022e565b5b5f61031f87828801610289565b9450506020610330878288016102b3565b9350506040610341878288016102e6565b9250506060610352878288016102e6565b91505092959194509250565b5f82825260208201905092915050565b7f546f6b656e20616464726573732063616e6e6f74206265207a65726f000000005f82015250565b5f6103a2601c8361035e565b91506103ad8261036e565b602082019050919050565b5f6020820190508181035f8301526103cf81610396565b9050919050565b7f42656e65666963696172792063616e6e6f74206265207a65726f2061646472655f8201527f7373000000000000000000000000000000000000000000000000000000000000602082015250565b5f61043060228361035e565b915061043b826103d6565b604082019050919050565b5f6020820190508181035f83015261045d81610424565b9050919050565b7f56657374696e67206475726174696f6e206d75737420626520677265617465725f8201527f207468616e207a65726f00000000000000000000000000000000000000000000602082015250565b5f6104be602a8361035e565b91506104c982610464565b604082019050919050565b5f6020820190508181035f8301526104eb816104b2565b9050919050565b7f546f74616c20746f6b656e73206d7573742062652067726561746572207468615f8201527f6e207a65726f0000000000000000000000000000000000000000000000000000602082015250565b5f61054c60268361035e565b9150610557826104f2565b604082019050919050565b5f6020820190508181035f83015261057981610540565b9050919050565b610a068061058d5f395ff3fe608060405234801561000f575f80fd5b5060043610610091575f3560e01c80636f9fb98a116100645780636f9fb98a146100f957806378e97925146101175780637e1c0c0914610135578063bef3996314610153578063fc0c546a1461017157610091565b80631514617e1461009557806338af3eed146100b357806348c54b9d146100d15780635330a6a2146100db575b5f80fd5b61009d61018f565b6040516100aa919061056c565b60405180910390f35b6100bb610195565b6040516100c891906105c4565b60405180910390f35b6100d96101ba565b005b6100e361042b565b6040516100f0919061056c565b60405180910390f35b610101610481565b60405161010e919061056c565b60405180910390f35b61011f61051f565b60405161012c919061056c565b60405180910390f35b61013d610525565b60405161014a919061056c565b60405180910390f35b61015b61052b565b604051610168919061056c565b60405180910390f35b610179610531565b6040516101869190610638565b60405180910390f35b60035481565b60015f9054906101000a900473ffffffffffffffffffffffffffffffffffffffff1681565b60015f9054906101000a900473ffffffffffffffffffffffffffffffffffffffff1673ffffffffffffffffffffffffffffffffffffffff163373ffffffffffffffffffffffffffffffffffffffff1614610249576040517f08c379a0000000000000000000000000000000000000000000000000000000008152600401610240906106d1565b60405180910390fd5b5f61025261042b565b90505f60055482610263919061071c565b90505f81116102a7576040517f08c379a000000000000000000000000000000000000000000000000000000000815260040161029e90610799565b60405180910390fd5b8060055f8282546102b891906107b7565b925050819055505f8054906101000a900473ffffffffffffffffffffffffffffffffffffffff1673ffffffffffffffffffffffffffffffffffffffff1663a9059cbb60015f9054906101000a900473ffffffffffffffffffffffffffffffffffffffff16836040518363ffffffff1660e01b815260040161033a9291906107ea565b6020604051808303815f875af192505050801561037557506040513d601f19601f82011682018060405250810190610372919061084a565b60015b6103cc578060055f82825461038a919061071c565b925050819055506040517f08c379a00000000000000000000000000000000000000000000000000000000081526004016103c3906108bf565b60405180910390fd5b507f896e034966eaaf1adc54acc0f257056febbd300c9e47182cf761982cf1f5e43060015f9054906101000a900473ffffffffffffffffffffffffffffffffffffffff168260405161041f9291906107ea565b60405180910390a15050565b5f60025442101561043e575f905061047e565b5f6002544261044d919061071c565b905060035481111561045f5760035490505b6003548160045461047091906108dd565b61047a919061094b565b9150505b90565b5f805f9054906101000a900473ffffffffffffffffffffffffffffffffffffffff1673ffffffffffffffffffffffffffffffffffffffff166370a08231306040518263ffffffff1660e01b81526004016104db91906105c4565b602060405180830381865afa1580156104f6573d5f803e3d5ffd5b505050506040513d601f19601f8201168201806040525081019061051a91906109a5565b905090565b60025481565b60045481565b60055481565b5f8054906101000a900473ffffffffffffffffffffffffffffffffffffffff1681565b5f819050919050565b61056681610554565b82525050565b5f60208201905061057f5f83018461055d565b92915050565b5f73ffffffffffffffffffffffffffffffffffffffff82169050919050565b5f6105ae82610585565b9050919050565b6105be816105a4565b82525050565b5f6020820190506105d75f8301846105b5565b92915050565b5f819050919050565b5f6106006105fb6105f684610585565b6105dd565b610585565b9050919050565b5f610611826105e6565b9050919050565b5f61062282610607565b9050919050565b61063281610618565b82525050565b5f60208201905061064b5f830184610629565b92915050565b5f82825260208201905092915050565b7f4f6e6c79207468652062656e65666963696172792063616e20636c61696d20745f8201527f6f6b656e73000000000000000000000000000000000000000000000000000000602082015250565b5f6106bb602583610651565b91506106c682610661565b604082019050919050565b5f6020820190508181035f8301526106e8816106af565b9050919050565b7f4e487b71000000000000000000000000000000000000000000000000000000005f52601160045260245ffd5b5f61072682610554565b915061073183610554565b9250828203905081811115610749576107486106ef565b5b92915050565b7f4e6f20746f6b656e7320617661696c61626c6520746f20636c61696d000000005f82015250565b5f610783601c83610651565b915061078e8261074f565b602082019050919050565b5f6020820190508181035f8301526107b081610777565b9050919050565b5f6107c182610554565b91506107cc83610554565b92508282019050808211156107e4576107e36106ef565b5b92915050565b5f6040820190506107fd5f8301856105b5565b61080a602083018461055d565b9392505050565b5f80fd5b5f8115159050919050565b61082981610815565b8114610833575f80fd5b50565b5f8151905061084481610820565b92915050565b5f6020828403121561085f5761085e610811565b5b5f61086c84828501610836565b91505092915050565b7f546f6b656e207472616e73666572206661696c656400000000000000000000005f82015250565b5f6108a9601583610651565b91506108b482610875565b602082019050919050565b5f6020820190508181035f8301526108d68161089d565b9050919050565b5f6108e782610554565b91506108f283610554565b925082820261090081610554565b91508282048414831517610917576109166106ef565b5b5092915050565b7f4e487b71000000000000000000000000000000000000000000000000000000005f52601260045260245ffd5b5f61095582610554565b915061096083610554565b9250826109705761096f61091e565b5b828204905092915050565b61098481610554565b811461098e575f80fd5b50565b5f8151905061099f8161097b565b92915050565b5f602082840312156109ba576109b9610811565b5b5f6109c784828501610991565b9150509291505056fea2646970667358221220fc86efc7a843fdd3abf358a6119b92b27ff07261a262aed786194e8d6d70157964736f6c634300081a0033",
					"opcodes": "PUSH1 0x80 PUSH1 0x40 MSTORE CALLVALUE DUP1 ISZERO PUSH2 0xF JUMPI PUSH0 DUP1 REVERT JUMPDEST POP PUSH1 0x40 MLOAD PUSH2 0xF93 CODESIZE SUB DUP1 PUSH2 0xF93 DUP4 CODECOPY DUP2 DUP2 ADD PUSH1 0x40 MSTORE DUP2 ADD SWAP1 PUSH2 0x31 SWAP2 SWAP1 PUSH2 0x2FA JUMP JUMPDEST PUSH0 PUSH20 0xFFFFFFFFFFFFFFFFFFFFFFFFFFFFFFFFFFFFFFFF AND DUP5 PUSH20 0xFFFFFFFFFFFFFFFFFFFFFFFFFFFFFFFFFFFFFFFF AND SUB PUSH2 0x9F JUMPI PUSH1 0x40 MLOAD PUSH32 0x8C379A000000000000000000000000000000000000000000000000000000000 DUP2 MSTORE PUSH1 0x4 ADD PUSH2 0x96 SWAP1 PUSH2 0x3B8 JUMP JUMPDEST PUSH1 0x40 MLOAD DUP1 SWAP2 SUB SWAP1 REVERT JUMPDEST PUSH0 PUSH20 0xFFFFFFFFFFFFFFFFFFFFFFFFFFFFFFFFFFFFFFFF AND DUP4 PUSH20 0xFFFFFFFFFFFFFFFFFFFFFFFFFFFFFFFFFFFFFFFF AND SUB PUSH2 0x10D JUMPI PUSH1 0x40 MLOAD PUSH32 0x8C379A000000000000000000000000000000000000000000000000000000000 DUP2 MSTORE PUSH1 0x4 ADD PUSH2 0x104 SWAP1 PUSH2 0x446 JUMP JUMPDEST PUSH1 0x40 MLOAD DUP1 SWAP2 SUB SWAP1 REVERT JUMPDEST PUSH0 DUP2 GT PUSH2 0x14F JUMPI PUSH1 0x40 MLOAD PUSH32 0x8C379A000000000000000000000000000000000000000000000000000000000 DUP2 MSTORE PUSH1 0x4 ADD PUSH2 0x146 SWAP1 PUSH2 0x4D4 JUMP JUMPDEST PUSH1 0x40 MLOAD DUP1 SWAP2 SUB SWAP1 REVERT JUMPDEST PUSH0 DUP3 GT PUSH2 0x191 JUMPI PUSH1 0x40 MLOAD PUSH32 0x8C379A000000000000000000000000000000000000000000000000000000000 DUP2 MSTORE PUSH1 0x4 ADD PUSH2 0x188 SWAP1 PUSH2 0x562 JUMP JUMPDEST PUSH1 0x40 MLOAD DUP1 SWAP2 SUB SWAP1 REVERT JUMPDEST DUP4 PUSH0 DUP1 PUSH2 0x100 EXP DUP2 SLOAD DUP2 PUSH20 0xFFFFFFFFFFFFFFFFFFFFFFFFFFFFFFFFFFFFFFFF MUL NOT AND SWAP1 DUP4 PUSH20 0xFFFFFFFFFFFFFFFFFFFFFFFFFFFFFFFFFFFFFFFF AND MUL OR SWAP1 SSTORE POP DUP3 PUSH1 0x1 PUSH0 PUSH2 0x100 EXP DUP2 SLOAD DUP2 PUSH20 0xFFFFFFFFFFFFFFFFFFFFFFFFFFFFFFFFFFFFFFFF MUL NOT AND SWAP1 DUP4 PUSH20 0xFFFFFFFFFFFFFFFFFFFFFFFFFFFFFFFFFFFFFFFF AND MUL OR SWAP1 SSTORE POP DUP2 PUSH1 0x4 DUP2 SWAP1 SSTORE POP DUP1 PUSH1 0x3 DUP2 SWAP1 SSTORE POP TIMESTAMP PUSH1 0x2 DUP2 SWAP1 SSTORE POP POP POP POP POP PUSH2 0x580 JUMP JUMPDEST PUSH0 DUP1 REVERT JUMPDEST PUSH0 PUSH20 0xFFFFFFFFFFFFFFFFFFFFFFFFFFFFFFFFFFFFFFFF DUP3 AND SWAP1 POP SWAP2 SWAP1 POP JUMP JUMPDEST PUSH0 PUSH2 0x25B DUP3 PUSH2 0x232 JUMP JUMPDEST SWAP1 POP SWAP2 SWAP1 POP JUMP JUMPDEST PUSH0 PUSH2 0x26C DUP3 PUSH2 0x251 JUMP JUMPDEST SWAP1 POP SWAP2 SWAP1 POP JUMP JUMPDEST PUSH2 0x27C DUP2 PUSH2 0x262 JUMP JUMPDEST DUP2 EQ PUSH2 0x286 JUMPI PUSH0 DUP1 REVERT JUMPDEST POP JUMP JUMPDEST PUSH0 DUP2 MLOAD SWAP1 POP PUSH2 0x297 DUP2 PUSH2 0x273 JUMP JUMPDEST SWAP3 SWAP2 POP POP JUMP JUMPDEST PUSH2 0x2A6 DUP2 PUSH2 0x251 JUMP JUMPDEST DUP2 EQ PUSH2 0x2B0 JUMPI PUSH0 DUP1 REVERT JUMPDEST POP JUMP JUMPDEST PUSH0 DUP2 MLOAD SWAP1 POP PUSH2 0x2C1 DUP2 PUSH2 0x29D JUMP JUMPDEST SWAP3 SWAP2 POP POP JUMP JUMPDEST PUSH0 DUP2 SWAP1 POP SWAP2 SWAP1 POP JUMP JUMPDEST PUSH2 0x2D9 DUP2 PUSH2 0x2C7 JUMP JUMPDEST DUP2 EQ PUSH2 0x2E3 JUMPI PUSH0 DUP1 REVERT JUMPDEST POP JUMP JUMPDEST PUSH0 DUP2 MLOAD SWAP1 POP PUSH2 0x2F4 DUP2 PUSH2 0x2D0 JUMP JUMPDEST SWAP3 SWAP2 POP POP JUMP JUMPDEST PUSH0 DUP1 PUSH0 DUP1 PUSH1 0x80 DUP6 DUP8 SUB SLT ISZERO PUSH2 0x312 JUMPI PUSH2 0x311 PUSH2 0x22E JUMP JUMPDEST JUMPDEST PUSH0 PUSH2 0x31F DUP8 DUP3 DUP9 ADD PUSH2 0x289 JUMP JUMPDEST SWAP5 POP POP PUSH1 0x20 PUSH2 0x330 DUP8 DUP3 DUP9 ADD PUSH2 0x2B3 JUMP JUMPDEST SWAP4 POP POP PUSH1 0x40 PUSH2 0x341 DUP8 DUP3 DUP9 ADD PUSH2 0x2E6 JUMP JUMPDEST SWAP3 POP POP PUSH1 0x60 PUSH2 0x352 DUP8 DUP3 DUP9 ADD PUSH2 0x2E6 JUMP JUMPDEST SWAP2 POP POP SWAP3 SWAP6 SWAP2 SWAP5 POP SWAP3 POP JUMP JUMPDEST PUSH0 DUP3 DUP3 MSTORE PUSH1 0x20 DUP3 ADD SWAP1 POP SWAP3 SWAP2 POP POP JUMP JUMPDEST PUSH32 0x546F6B656E20616464726573732063616E6E6F74206265207A65726F00000000 PUSH0 DUP3 ADD MSTORE POP JUMP JUMPDEST PUSH0 PUSH2 0x3A2 PUSH1 0x1C DUP4 PUSH2 0x35E JUMP JUMPDEST SWAP2 POP PUSH2 0x3AD DUP3 PUSH2 0x36E JUMP JUMPDEST PUSH1 0x20 DUP3 ADD SWAP1 POP SWAP2 SWAP1 POP JUMP JUMPDEST PUSH0 PUSH1 0x20 DUP3 ADD SWAP1 POP DUP2 DUP2 SUB PUSH0 DUP4 ADD MSTORE PUSH2 0x3CF DUP2 PUSH2 0x396 JUMP JUMPDEST SWAP1 POP SWAP2 SWAP1 POP JUMP JUMPDEST PUSH32 0x42656E65666963696172792063616E6E6F74206265207A65726F206164647265 PUSH0 DUP3 ADD MSTORE PUSH32 0x7373000000000000000000000000000000000000000000000000000000000000 PUSH1 0x20 DUP3 ADD MSTORE POP JUMP JUMPDEST PUSH0 PUSH2 0x430 PUSH1 0x22 DUP4 PUSH2 0x35E JUMP JUMPDEST SWAP2 POP PUSH2 0x43B DUP3 PUSH2 0x3D6 JUMP JUMPDEST PUSH1 0x40 DUP3 ADD SWAP1 POP SWAP2 SWAP1 POP JUMP JUMPDEST PUSH0 PUSH1 0x20 DUP3 ADD SWAP1 POP DUP2 DUP2 SUB PUSH0 DUP4 ADD MSTORE PUSH2 0x45D DUP2 PUSH2 0x424 JUMP JUMPDEST SWAP1 POP SWAP2 SWAP1 POP JUMP JUMPDEST PUSH32 0x56657374696E67206475726174696F6E206D7573742062652067726561746572 PUSH0 DUP3 ADD MSTORE PUSH32 0x207468616E207A65726F00000000000000000000000000000000000000000000 PUSH1 0x20 DUP3 ADD MSTORE POP JUMP JUMPDEST PUSH0 PUSH2 0x4BE PUSH1 0x2A DUP4 PUSH2 0x35E JUMP JUMPDEST SWAP2 POP PUSH2 0x4C9 DUP3 PUSH2 0x464 JUMP JUMPDEST PUSH1 0x40 DUP3 ADD SWAP1 POP SWAP2 SWAP1 POP JUMP JUMPDEST PUSH0 PUSH1 0x20 DUP3 ADD SWAP1 POP DUP2 DUP2 SUB PUSH0 DUP4 ADD MSTORE PUSH2 0x4EB DUP2 PUSH2 0x4B2 JUMP JUMPDEST SWAP1 POP SWAP2 SWAP1 POP JUMP JUMPDEST PUSH32 0x546F74616C20746F6B656E73206D757374206265206772656174657220746861 PUSH0 DUP3 ADD MSTORE PUSH32 0x6E207A65726F0000000000000000000000000000000000000000000000000000 PUSH1 0x20 DUP3 ADD MSTORE POP JUMP JUMPDEST PUSH0 PUSH2 0x54C PUSH1 0x26 DUP4 PUSH2 0x35E JUMP JUMPDEST SWAP2 POP PUSH2 0x557 DUP3 PUSH2 0x4F2 JUMP JUMPDEST PUSH1 0x40 DUP3 ADD SWAP1 POP SWAP2 SWAP1 POP JUMP JUMPDEST PUSH0 PUSH1 0x20 DUP3 ADD SWAP1 POP DUP2 DUP2 SUB PUSH0 DUP4 ADD MSTORE PUSH2 0x579 DUP2 PUSH2 0x540 JUMP JUMPDEST SWAP1 POP SWAP2 SWAP1 POP JUMP JUMPDEST PUSH2 0xA06 DUP1 PUSH2 0x58D PUSH0 CODECOPY PUSH0 RETURN INVALID PUSH1 0x80 PUSH1 0x40 MSTORE CALLVALUE DUP1 ISZERO PUSH2 0xF JUMPI PUSH0 DUP1 REVERT JUMPDEST POP PUSH1 0x4 CALLDATASIZE LT PUSH2 0x91 JUMPI PUSH0 CALLDATALOAD PUSH1 0xE0 SHR DUP1 PUSH4 0x6F9FB98A GT PUSH2 0x64 JUMPI DUP1 PUSH4 0x6F9FB98A EQ PUSH2 0xF9 JUMPI DUP1 PUSH4 0x78E97925 EQ PUSH2 0x117 JUMPI DUP1 PUSH4 0x7E1C0C09 EQ PUSH2 0x135 JUMPI DUP1 PUSH4 0xBEF39963 EQ PUSH2 0x153 JUMPI DUP1 PUSH4 0xFC0C546A EQ PUSH2 0x171 JUMPI PUSH2 0x91 JUMP JUMPDEST DUP1 PUSH4 0x1514617E EQ PUSH2 0x95 JUMPI DUP1 PUSH4 0x38AF3EED EQ PUSH2 0xB3 JUMPI DUP1 PUSH4 0x48C54B9D EQ PUSH2 0xD1 JUMPI DUP1 PUSH4 0x5330A6A2 EQ PUSH2 0xDB JUMPI JUMPDEST PUSH0 DUP1 REVERT JUMPDEST PUSH2 0x9D PUSH2 0x18F JUMP JUMPDEST PUSH1 0x40 MLOAD PUSH2 0xAA SWAP2 SWAP1 PUSH2 0x56C JUMP JUMPDEST PUSH1 0x40 MLOAD DUP1 SWAP2 SUB SWAP1 RETURN JUMPDEST PUSH2 0xBB PUSH2 0x195 JUMP JUMPDEST PUSH1 0x40 MLOAD PUSH2 0xC8 SWAP2 SWAP1 PUSH2 0x5C4 JUMP JUMPDEST PUSH1 0x40 MLOAD DUP1 SWAP2 SUB SWAP1 RETURN JUMPDEST PUSH2 0xD9 PUSH2 0x1BA JUMP JUMPDEST STOP JUMPDEST PUSH2 0xE3 PUSH2 0x42B JUMP JUMPDEST PUSH1 0x40 MLOAD PUSH2 0xF0 SWAP2 SWAP1 PUSH2 0x56C JUMP JUMPDEST PUSH1 0x40 MLOAD DUP1 SWAP2 SUB SWAP1 RETURN JUMPDEST PUSH2 0x101 PUSH2 0x481 JUMP JUMPDEST PUSH1 0x40 MLOAD PUSH2 0x10E SWAP2 SWAP1 PUSH2 0x56C JUMP JUMPDEST PUSH1 0x40 MLOAD DUP1 SWAP2 SUB SWAP1 RETURN JUMPDEST PUSH2 0x11F PUSH2 0x51F JUMP JUMPDEST PUSH1 0x40 MLOAD PUSH2 0x12C SWAP2 SWAP1 PUSH2 0x56C JUMP JUMPDEST PUSH1 0x40 MLOAD DUP1 SWAP2 SUB SWAP1 RETURN JUMPDEST PUSH2 0x13D PUSH2 0x525 JUMP JUMPDEST PUSH1 0x40 MLOAD PUSH2 0x14A SWAP2 SWAP1 PUSH2 0x56C JUMP JUMPDEST PUSH1 0x40 MLOAD DUP1 SWAP2 SUB SWAP1 RETURN JUMPDEST PUSH2 0x15B PUSH2 0x52B JUMP JUMPDEST PUSH1 0x40 MLOAD PUSH2 0x168 SWAP2 SWAP1 PUSH2 0x56C JUMP JUMPDEST PUSH1 0x40 MLOAD DUP1 SWAP2 SUB SWAP1 RETURN JUMPDEST PUSH2 0x179 PUSH2 0x531 JUMP JUMPDEST PUSH1 0x40 MLOAD PUSH2 0x186 SWAP2 SWAP1 PUSH2 0x638 JUMP JUMPDEST PUSH1 0x40 MLOAD DUP1 SWAP2 SUB SWAP1 RETURN JUMPDEST PUSH1 0x3 SLOAD DUP2 JUMP JUMPDEST PUSH1 0x1 PUSH0 SWAP1 SLOAD SWAP1 PUSH2 0x100 EXP SWAP1 DIV PUSH20 0xFFFFFFFFFFFFFFFFFFFFFFFFFFFFFFFFFFFFFFFF AND DUP2 JUMP JUMPDEST PUSH1 0x1 PUSH0 SWAP1 SLOAD SWAP1 PUSH2 0x100 EXP SWAP1 DIV PUSH20 0xFFFFFFFFFFFFFFFFFFFFFFFFFFFFFFFFFFFFFFFF AND PUSH20 0xFFFFFFFFFFFFFFFFFFFFFFFFFFFFFFFFFFFFFFFF AND CALLER PUSH20 0xFFFFFFFFFFFFFFFFFFFFFFFFFFFFFFFFFFFFFFFF AND EQ PUSH2 0x249 JUMPI PUSH1 0x40 MLOAD PUSH32 0x8C379A000000000000000000000000000000000000000000000000000000000 DUP2 MSTORE PUSH1 0x4 ADD PUSH2 0x240 SWAP1 PUSH2 0x6D1 JUMP JUMPDEST PUSH1 0x40 MLOAD DUP1 SWAP2 SUB SWAP1 REVERT JUMPDEST PUSH0 PUSH2 0x252 PUSH2 0x42B JUMP JUMPDEST SWAP1 POP PUSH0 PUSH1 0x5 SLOAD DUP3 PUSH2 0x263 SWAP2 SWAP1 PUSH2 0x71C JUMP JUMPDEST SWAP1 POP PUSH0 DUP2 GT PUSH2 0x2A7 JUMPI PUSH1 0x40 MLOAD PUSH32 0x8C379A000000000000000000000000000000000000000000000000000000000 DUP2 MSTORE PUSH1 0x4 ADD PUSH2 0x29E SWAP1 PUSH2 0x799 JUMP JUMPDEST PUSH1 0x40 MLOAD DUP1 SWAP2 SUB SWAP1 REVERT JUMPDEST DUP1 PUSH1 0x5 PUSH0 DUP3 DUP3 SLOAD PUSH2 0x2B8 SWAP2 SWAP1 PUSH2 0x7B7 JUMP JUMPDEST SWAP3 POP POP DUP2 SWAP1 SSTORE POP PUSH0 DUP1 SLOAD SWAP1 PUSH2 0x100 EXP SWAP1 DIV PUSH20 0xFFFFFFFFFFFFFFFFFFFFFFFFFFFFFFFFFFFFFFFF AND PUSH20 0xFFFFFFFFFFFFFFFFFFFFFFFFFFFFFFFFFFFFFFFF AND PUSH4 0xA9059CBB PUSH1 0x1 PUSH0 SWAP1 SLOAD SWAP1 PUSH2 0x100 EXP SWAP1 DIV PUSH20 0xFFFFFFFFFFFFFFFFFFFFFFFFFFFFFFFFFFFFFFFF AND DUP4 PUSH1 0x40 MLOAD DUP4 PUSH4 0xFFFFFFFF AND PUSH1 0xE0 SHL DUP2 MSTORE PUSH1 0x4 ADD PUSH2 0x33A SWAP3 SWAP2 SWAP1 PUSH2 0x7EA JUMP JUMPDEST PUSH1 0x20 PUSH1 0x40 MLOAD DUP1 DUP4 SUB DUP2 PUSH0 DUP8 GAS CALL SWAP3 POP POP POP DUP1 ISZERO PUSH2 0x375 JUMPI POP PUSH1 0x40 MLOAD RETURNDATASIZE PUSH1 0x1F NOT PUSH1 0x1F DUP3 ADD AND DUP3 ADD DUP1 PUSH1 0x40 MSTORE POP DUP2 ADD SWAP1 PUSH2 0x372 SWAP2 SWAP1 PUSH2 0x84A JUMP JUMPDEST PUSH1 0x1 JUMPDEST PUSH2 0x3CC JUMPI DUP1 PUSH1 0x5 PUSH0 DUP3 DUP3 SLOAD PUSH2 0x38A SWAP2 SWAP1 PUSH2 0x71C JUMP JUMPDEST SWAP3 POP POP DUP2 SWAP1 SSTORE POP PUSH1 0x40 MLOAD PUSH32 0x8C379A000000000000000000000000000000000000000000000000000000000 DUP2 MSTORE PUSH1 0x4 ADD PUSH2 0x3C3 SWAP1 PUSH2 0x8BF JUMP JUMPDEST PUSH1 0x40 MLOAD DUP1 SWAP2 SUB SWAP1 REVERT JUMPDEST POP PUSH32 0x896E034966EAAF1ADC54ACC0F257056FEBBD300C9E47182CF761982CF1F5E430 PUSH1 0x1 PUSH0 SWAP1 SLOAD SWAP1 PUSH2 0x100 EXP SWAP1 DIV PUSH20 0xFFFFFFFFFFFFFFFFFFFFFFFFFFFFFFFFFFFFFFFF AND DUP3 PUSH1 0x40 MLOAD PUSH2 0x41F SWAP3 SWAP2 SWAP1 PUSH2 0x7EA JUMP JUMPDEST PUSH1 0x40 MLOAD DUP1 SWAP2 SUB SWAP1 LOG1 POP POP JUMP JUMPDEST PUSH0 PUSH1 0x2 SLOAD TIMESTAMP LT ISZERO PUSH2 0x43E JUMPI PUSH0 SWAP1 POP PUSH2 0x47E JUMP JUMPDEST PUSH0 PUSH1 0x2 SLOAD TIMESTAMP PUSH2 0x44D SWAP2 SWAP1 PUSH2 0x71C JUMP JUMPDEST SWAP1 POP PUSH1 0x3 SLOAD DUP2 GT ISZERO PUSH2 0x45F JUMPI PUSH1 0x3 SLOAD SWAP1 POP JUMPDEST PUSH1 0x3 SLOAD DUP2 PUSH1 0x4 SLOAD PUSH2 0x470 SWAP2 SWAP1 PUSH2 0x8DD JUMP JUMPDEST PUSH2 0x47A SWAP2 SWAP1 PUSH2 0x94B JUMP JUMPDEST SWAP2 POP POP JUMPDEST SWAP1 JUMP JUMPDEST PUSH0 DUP1 PUSH0 SWAP1 SLOAD SWAP1 PUSH2 0x100 EXP SWAP1 DIV PUSH20 0xFFFFFFFFFFFFFFFFFFFFFFFFFFFFFFFFFFFFFFFF AND PUSH20 0xFFFFFFFFFFFFFFFFFFFFFFFFFFFFFFFFFFFFFFFF AND PUSH4 0x70A08231 ADDRESS PUSH1 0x40 MLOAD DUP3 PUSH4 0xFFFFFFFF AND PUSH1 0xE0 SHL DUP2 MSTORE PUSH1 0x4 ADD PUSH2 0x4DB SWAP2 SWAP1 PUSH2 0x5C4 JUMP JUMPDEST PUSH1 0x20 PUSH1 0x40 MLOAD DUP1 DUP4 SUB DUP2 DUP7 GAS STATICCALL ISZERO DUP1 ISZERO PUSH2 0x4F6 JUMPI RETURNDATASIZE PUSH0 DUP1 RETURNDATACOPY RETURNDATASIZE PUSH0 REVERT JUMPDEST POP POP POP POP PUSH1 0x40 MLOAD RETURNDATASIZE PUSH1 0x1F NOT PUSH1 0x1F DUP3 ADD AND DUP3 ADD DUP1 PUSH1 0x40 MSTORE POP DUP2 ADD SWAP1 PUSH2 0x51A SWAP2 SWAP1 PUSH2 0x9A5 JUMP JUMPDEST SWAP1 POP SWAP1 JUMP JUMPDEST PUSH1 0x2 SLOAD DUP2 JUMP JUMPDEST PUSH1 0x4 SLOAD DUP2 JUMP JUMPDEST PUSH1 0x5 SLOAD DUP2 JUMP JUMPDEST PUSH0 DUP1 SLOAD SWAP1 PUSH2 0x100 EXP SWAP1 DIV PUSH20 0xFFFFFFFFFFFFFFFFFFFFFFFFFFFFFFFFFFFFFFFF AND DUP2 JUMP JUMPDEST PUSH0 DUP2 SWAP1 POP SWAP2 SWAP1 POP JUMP JUMPDEST PUSH2 0x566 DUP2 PUSH2 0x554 JUMP JUMPDEST DUP3 MSTORE POP POP JUMP JUMPDEST PUSH0 PUSH1 0x20 DUP3 ADD SWAP1 POP PUSH2 0x57F PUSH0 DUP4 ADD DUP5 PUSH2 0x55D JUMP JUMPDEST SWAP3 SWAP2 POP POP JUMP JUMPDEST PUSH0 PUSH20 0xFFFFFFFFFFFFFFFFFFFFFFFFFFFFFFFFFFFFFFFF DUP3 AND SWAP1 POP SWAP2 SWAP1 POP JUMP JUMPDEST PUSH0 PUSH2 0x5AE DUP3 PUSH2 0x585 JUMP JUMPDEST SWAP1 POP SWAP2 SWAP1 POP JUMP JUMPDEST PUSH2 0x5BE DUP2 PUSH2 0x5A4 JUMP JUMPDEST DUP3 MSTORE POP POP JUMP JUMPDEST PUSH0 PUSH1 0x20 DUP3 ADD SWAP1 POP PUSH2 0x5D7 PUSH0 DUP4 ADD DUP5 PUSH2 0x5B5 JUMP JUMPDEST SWAP3 SWAP2 POP POP JUMP JUMPDEST PUSH0 DUP2 SWAP1 POP SWAP2 SWAP1 POP JUMP JUMPDEST PUSH0 PUSH2 0x600 PUSH2 0x5FB PUSH2 0x5F6 DUP5 PUSH2 0x585 JUMP JUMPDEST PUSH2 0x5DD JUMP JUMPDEST PUSH2 0x585 JUMP JUMPDEST SWAP1 POP SWAP2 SWAP1 POP JUMP JUMPDEST PUSH0 PUSH2 0x611 DUP3 PUSH2 0x5E6 JUMP JUMPDEST SWAP1 POP SWAP2 SWAP1 POP JUMP JUMPDEST PUSH0 PUSH2 0x622 DUP3 PUSH2 0x607 JUMP JUMPDEST SWAP1 POP SWAP2 SWAP1 POP JUMP JUMPDEST PUSH2 0x632 DUP2 PUSH2 0x618 JUMP JUMPDEST DUP3 MSTORE POP POP JUMP JUMPDEST PUSH0 PUSH1 0x20 DUP3 ADD SWAP1 POP PUSH2 0x64B PUSH0 DUP4 ADD DUP5 PUSH2 0x629 JUMP JUMPDEST SWAP3 SWAP2 POP POP JUMP JUMPDEST PUSH0 DUP3 DUP3 MSTORE PUSH1 0x20 DUP3 ADD SWAP1 POP SWAP3 SWAP2 POP POP JUMP JUMPDEST PUSH32 0x4F6E6C79207468652062656E65666963696172792063616E20636C61696D2074 PUSH0 DUP3 ADD MSTORE PUSH32 0x6F6B656E73000000000000000000000000000000000000000000000000000000 PUSH1 0x20 DUP3 ADD MSTORE POP JUMP JUMPDEST PUSH0 PUSH2 0x6BB PUSH1 0x25 DUP4 PUSH2 0x651 JUMP JUMPDEST SWAP2 POP PUSH2 0x6C6 DUP3 PUSH2 0x661 JUMP JUMPDEST PUSH1 0x40 DUP3 ADD SWAP1 POP SWAP2 SWAP1 POP JUMP JUMPDEST PUSH0 PUSH1 0x20 DUP3 ADD SWAP1 POP DUP2 DUP2 SUB PUSH0 DUP4 ADD MSTORE PUSH2 0x6E8 DUP2 PUSH2 0x6AF JUMP JUMPDEST SWAP1 POP SWAP2 SWAP1 POP JUMP JUMPDEST PUSH32 0x4E487B7100000000000000000000000000000000000000000000000000000000 PUSH0 MSTORE PUSH1 0x11 PUSH1 0x4 MSTORE PUSH1 0x24 PUSH0 REVERT JUMPDEST PUSH0 PUSH2 0x726 DUP3 PUSH2 0x554 JUMP JUMPDEST SWAP2 POP PUSH2 0x731 DUP4 PUSH2 0x554 JUMP JUMPDEST SWAP3 POP DUP3 DUP3 SUB SWAP1 POP DUP2 DUP2 GT ISZERO PUSH2 0x749 JUMPI PUSH2 0x748 PUSH2 0x6EF JUMP JUMPDEST JUMPDEST SWAP3 SWAP2 POP POP JUMP JUMPDEST PUSH32 0x4E6F20746F6B656E7320617661696C61626C6520746F20636C61696D00000000 PUSH0 DUP3 ADD MSTORE POP JUMP JUMPDEST PUSH0 PUSH2 0x783 PUSH1 0x1C DUP4 PUSH2 0x651 JUMP JUMPDEST SWAP2 POP PUSH2 0x78E DUP3 PUSH2 0x74F JUMP JUMPDEST PUSH1 0x20 DUP3 ADD SWAP1 POP SWAP2 SWAP1 POP JUMP JUMPDEST PUSH0 PUSH1 0x20 DUP3 ADD SWAP1 POP DUP2 DUP2 SUB PUSH0 DUP4 ADD MSTORE PUSH2 0x7B0 DUP2 PUSH2 0x777 JUMP JUMPDEST SWAP1 POP SWAP2 SWAP1 POP JUMP JUMPDEST PUSH0 PUSH2 0x7C1 DUP3 PUSH2 0x554 JUMP JUMPDEST SWAP2 POP PUSH2 0x7CC DUP4 PUSH2 0x554 JUMP JUMPDEST SWAP3 POP DUP3 DUP3 ADD SWAP1 POP DUP1 DUP3 GT ISZERO PUSH2 0x7E4 JUMPI PUSH2 0x7E3 PUSH2 0x6EF JUMP JUMPDEST JUMPDEST SWAP3 SWAP2 POP POP JUMP JUMPDEST PUSH0 PUSH1 0x40 DUP3 ADD SWAP1 POP PUSH2 0x7FD PUSH0 DUP4 ADD DUP6 PUSH2 0x5B5 JUMP JUMPDEST PUSH2 0x80A PUSH1 0x20 DUP4 ADD DUP5 PUSH2 0x55D JUMP JUMPDEST SWAP4 SWAP3 POP POP POP JUMP JUMPDEST PUSH0 DUP1 REVERT JUMPDEST PUSH0 DUP2 ISZERO ISZERO SWAP1 POP SWAP2 SWAP1 POP JUMP JUMPDEST PUSH2 0x829 DUP2 PUSH2 0x815 JUMP JUMPDEST DUP2 EQ PUSH2 0x833 JUMPI PUSH0 DUP1 REVERT JUMPDEST POP JUMP JUMPDEST PUSH0 DUP2 MLOAD SWAP1 POP PUSH2 0x844 DUP2 PUSH2 0x820 JUMP JUMPDEST SWAP3 SWAP2 POP POP JUMP JUMPDEST PUSH0 PUSH1 0x20 DUP3 DUP5 SUB SLT ISZERO PUSH2 0x85F JUMPI PUSH2 0x85E PUSH2 0x811 JUMP JUMPDEST JUMPDEST PUSH0 PUSH2 0x86C DUP5 DUP3 DUP6 ADD PUSH2 0x836 JUMP JUMPDEST SWAP2 POP POP SWAP3 SWAP2 POP POP JUMP JUMPDEST PUSH32 0x546F6B656E207472616E73666572206661696C65640000000000000000000000 PUSH0 DUP3 ADD MSTORE POP JUMP JUMPDEST PUSH0 PUSH2 0x8A9 PUSH1 0x15 DUP4 PUSH2 0x651 JUMP JUMPDEST SWAP2 POP PUSH2 0x8B4 DUP3 PUSH2 0x875 JUMP JUMPDEST PUSH1 0x20 DUP3 ADD SWAP1 POP SWAP2 SWAP1 POP JUMP JUMPDEST PUSH0 PUSH1 0x20 DUP3 ADD SWAP1 POP DUP2 DUP2 SUB PUSH0 DUP4 ADD MSTORE PUSH2 0x8D6 DUP2 PUSH2 0x89D JUMP JUMPDEST SWAP1 POP SWAP2 SWAP1 POP JUMP JUMPDEST PUSH0 PUSH2 0x8E7 DUP3 PUSH2 0x554 JUMP JUMPDEST SWAP2 POP PUSH2 0x8F2 DUP4 PUSH2 0x554 JUMP JUMPDEST SWAP3 POP DUP3 DUP3 MUL PUSH2 0x900 DUP2 PUSH2 0x554 JUMP JUMPDEST SWAP2 POP DUP3 DUP3 DIV DUP5 EQ DUP4 ISZERO OR PUSH2 0x917 JUMPI PUSH2 0x916 PUSH2 0x6EF JUMP JUMPDEST JUMPDEST POP SWAP3 SWAP2 POP POP JUMP JUMPDEST PUSH32 0x4E487B7100000000000000000000000000000000000000000000000000000000 PUSH0 MSTORE PUSH1 0x12 PUSH1 0x4 MSTORE PUSH1 0x24 PUSH0 REVERT JUMPDEST PUSH0 PUSH2 0x955 DUP3 PUSH2 0x554 JUMP JUMPDEST SWAP2 POP PUSH2 0x960 DUP4 PUSH2 0x554 JUMP JUMPDEST SWAP3 POP DUP3 PUSH2 0x970 JUMPI PUSH2 0x96F PUSH2 0x91E JUMP JUMPDEST JUMPDEST DUP3 DUP3 DIV SWAP1 POP SWAP3 SWAP2 POP POP JUMP JUMPDEST PUSH2 0x984 DUP2 PUSH2 0x554 JUMP JUMPDEST DUP2 EQ PUSH2 0x98E JUMPI PUSH0 DUP1 REVERT JUMPDEST POP JUMP JUMPDEST PUSH0 DUP2 MLOAD SWAP1 POP PUSH2 0x99F DUP2 PUSH2 0x97B JUMP JUMPDEST SWAP3 SWAP2 POP POP JUMP JUMPDEST PUSH0 PUSH1 0x20 DUP3 DUP5 SUB SLT ISZERO PUSH2 0x9BA JUMPI PUSH2 0x9B9 PUSH2 0x811 JUMP JUMPDEST JUMPDEST PUSH0 PUSH2 0x9C7 DUP5 DUP3 DUP6 ADD PUSH2 0x991 JUMP JUMPDEST SWAP2 POP POP SWAP3 SWAP2 POP POP JUMP INVALID LOG2 PUSH5 0x6970667358 0x22 SLT KECCAK256 0xFC DUP7 0xEF 0xC7 0xA8 NUMBER REVERT 0xD3 0xAB RETURN PC 0xA6 GT SWAP12 SWAP3 0xB2 PUSH32 0xF07261A262AED786194E8D6D70157964736F6C634300081A0033000000000000 "
				},
				"gasEstimates": {
					"creation": {
						"codeDepositCost": "513200",
						"executionCost": "infinite",
						"totalCost": "infinite"
					},
					"external": {
						"beneficiary()": "2531",
						"claimTokens()": "infinite",
						"getContractBalance()": "infinite",
						"getVestedTokens()": "infinite",
						"releasedTokens()": "2491",
						"startTime()": "2447",
						"token()": "infinite",
						"totalTokens()": "2469",
						"vestingDuration()": "2426"
					}
				},
				"methodIdentifiers": {
					"beneficiary()": "38af3eed",
					"claimTokens()": "48c54b9d",
					"getContractBalance()": "6f9fb98a",
					"getVestedTokens()": "5330a6a2",
					"releasedTokens()": "bef39963",
					"startTime()": "78e97925",
					"token()": "fc0c546a",
					"totalTokens()": "7e1c0c09",
					"vestingDuration()": "1514617e"
				}
			},
			"storageLayout": {
				"storage": [
					{
						"astId": 83,
						"contract": "assignment contracts/W1 SafeTokenVesting.sol:SafeTokenVesting",
						"label": "token",
						"offset": 0,
						"slot": "0",
						"type": "t_contract(IERC20)77"
					},
					{
						"astId": 85,
						"contract": "assignment contracts/W1 SafeTokenVesting.sol:SafeTokenVesting",
						"label": "beneficiary",
						"offset": 0,
						"slot": "1",
						"type": "t_address"
					},
					{
						"astId": 87,
						"contract": "assignment contracts/W1 SafeTokenVesting.sol:SafeTokenVesting",
						"label": "startTime",
						"offset": 0,
						"slot": "2",
						"type": "t_uint256"
					},
					{
						"astId": 89,
						"contract": "assignment contracts/W1 SafeTokenVesting.sol:SafeTokenVesting",
						"label": "vestingDuration",
						"offset": 0,
						"slot": "3",
						"type": "t_uint256"
					},
					{
						"astId": 91,
						"contract": "assignment contracts/W1 SafeTokenVesting.sol:SafeTokenVesting",
						"label": "totalTokens",
						"offset": 0,
						"slot": "4",
						"type": "t_uint256"
					},
					{
						"astId": 93,
						"contract": "assignment contracts/W1 SafeTokenVesting.sol:SafeTokenVesting",
						"label": "releasedTokens",
						"offset": 0,
						"slot": "5",
						"type": "t_uint256"
					}
				],
				"types": {
					"t_address": {
						"encoding": "inplace",
						"label": "address",
						"numberOfBytes": "20"
					},
					"t_contract(IERC20)77": {
						"encoding": "inplace",
						"label": "contract IERC20",
						"numberOfBytes": "20"
					},
					"t_uint256": {
						"encoding": "inplace",
						"label": "uint256",
						"numberOfBytes": "32"
					}
				}
			},
			"userdoc": {
				"kind": "user",
				"methods": {},
				"version": 1
			}
		}
	}
}