{
	"assignment contracts/SafeTokenVesting.sol": {
		"SafeTokenVesting": {
			"abi": [
				{
					"inputs": [
						{
							"internalType": "contract IERC20",
							"name": "_token",
							"type": "address"
						},
						{
							"internalType": "address",
							"name": "_beneficiary",
							"type": "address"
						},
						{
							"internalType": "uint256",
							"name": "_totalTokens",
							"type": "uint256"
						},
						{
							"internalType": "uint256",
							"name": "_vestingDuration",
							"type": "uint256"
						}
					],
					"stateMutability": "nonpayable",
					"type": "constructor"
				},
				{
					"anonymous": false,
					"inputs": [
						{
							"indexed": false,
							"internalType": "address",
							"name": "beneficiary",
							"type": "address"
						},
						{
							"indexed": false,
							"internalType": "uint256",
							"name": "amount",
							"type": "uint256"
						}
					],
					"name": "TokensClaimed",
					"type": "event"
				},
				{
					"inputs": [],
					"name": "claimTokens",
					"outputs": [],
					"stateMutability": "nonpayable",
					"type": "function"
				},
				{
					"inputs": [],
					"name": "getVestedTokens",
					"outputs": [
						{
							"internalType": "uint256",
							"name": "",
							"type": "uint256"
						}
					],
					"stateMutability": "view",
					"type": "function"
				}
			],
			"devdoc": {
				"kind": "dev",
				"methods": {},
				"version": 1
			},
			"evm": {
				"assembly": "    /* \"assignment contracts/SafeTokenVesting.sol\":324:2681  contract SafeTokenVesting {... */\n  mstore(0x40, 0x80)\n    /* \"assignment contracts/SafeTokenVesting.sol\":609:1277  constructor(... */\n  callvalue\n  dup1\n  iszero\n  tag_1\n  jumpi\n  0x00\n  dup1\n  revert\ntag_1:\n  pop\n  mload(0x40)\n  sub(codesize, bytecodeSize)\n  dup1\n  bytecodeSize\n  dup4\n  codecopy\n  dup2\n  dup2\n  add\n  0x40\n  mstore\n  dup2\n  add\n  swap1\n  tag_2\n  swap2\n  swap1\n  tag_3\n  jump\t// in\ntag_2:\n    /* \"assignment contracts/SafeTokenVesting.sol\":794:795  0 */\n  0x00\n    /* \"assignment contracts/SafeTokenVesting.sol\":767:796  address(_token) != address(0) */\n  0xffffffffffffffffffffffffffffffffffffffff\n  and\n    /* \"assignment contracts/SafeTokenVesting.sol\":775:781  _token */\n  dup5\n    /* \"assignment contracts/SafeTokenVesting.sol\":767:796  address(_token) != address(0) */\n  0xffffffffffffffffffffffffffffffffffffffff\n  and\n  sub\n    /* \"assignment contracts/SafeTokenVesting.sol\":759:829  require(address(_token) != address(0), \"Token address cannot be zero\") */\n  tag_6\n  jumpi\n  mload(0x40)\n  0x08c379a000000000000000000000000000000000000000000000000000000000\n  dup2\n  mstore\n  0x04\n  add\n  tag_7\n  swap1\n  tag_8\n  jump\t// in\ntag_7:\n  mload(0x40)\n  dup1\n  swap2\n  sub\n  swap1\n  revert\ntag_6:\n    /* \"assignment contracts/SafeTokenVesting.sol\":873:874  0 */\n  0x00\n    /* \"assignment contracts/SafeTokenVesting.sol\":849:875  _beneficiary != address(0) */\n  0xffffffffffffffffffffffffffffffffffffffff\n  and\n    /* \"assignment contracts/SafeTokenVesting.sol\":849:861  _beneficiary */\n  dup4\n    /* \"assignment contracts/SafeTokenVesting.sol\":849:875  _beneficiary != address(0) */\n  0xffffffffffffffffffffffffffffffffffffffff\n  and\n  sub\n    /* \"assignment contracts/SafeTokenVesting.sol\":841:914  require(_beneficiary != address(0), \"Beneficiary cannot be zero address\") */\n  tag_9\n  jumpi\n  mload(0x40)\n  0x08c379a000000000000000000000000000000000000000000000000000000000\n  dup2\n  mstore\n  0x04\n  add\n  tag_10\n  swap1\n  tag_11\n  jump\t// in\ntag_10:\n  mload(0x40)\n  dup1\n  swap2\n  sub\n  swap1\n  revert\ntag_9:\n    /* \"assignment contracts/SafeTokenVesting.sol\":953:954  0 */\n  0x00\n    /* \"assignment contracts/SafeTokenVesting.sol\":934:950  _vestingDuration */\n  dup2\n    /* \"assignment contracts/SafeTokenVesting.sol\":934:954  _vestingDuration > 0 */\n  gt\n    /* \"assignment contracts/SafeTokenVesting.sol\":926:1001  require(_vestingDuration > 0, \"Vesting duration must be greater than zero\") */\n  tag_12\n  jumpi\n  mload(0x40)\n  0x08c379a000000000000000000000000000000000000000000000000000000000\n  dup2\n  mstore\n  0x04\n  add\n  tag_13\n  swap1\n  tag_14\n  jump\t// in\ntag_13:\n  mload(0x40)\n  dup1\n  swap2\n  sub\n  swap1\n  revert\ntag_12:\n    /* \"assignment contracts/SafeTokenVesting.sol\":1036:1037  0 */\n  0x00\n    /* \"assignment contracts/SafeTokenVesting.sol\":1021:1033  _totalTokens */\n  dup3\n    /* \"assignment contracts/SafeTokenVesting.sol\":1021:1037  _totalTokens > 0 */\n  gt\n    /* \"assignment contracts/SafeTokenVesting.sol\":1013:1080  require(_totalTokens > 0, \"Total tokens must be greater than zero\") */\n  tag_15\n  jumpi\n  mload(0x40)\n  0x08c379a000000000000000000000000000000000000000000000000000000000\n  dup2\n  mstore\n  0x04\n  add\n  tag_16\n  swap1\n  tag_17\n  jump\t// in\ntag_16:\n  mload(0x40)\n  dup1\n  swap2\n  sub\n  swap1\n  revert\ntag_15:\n    /* \"assignment contracts/SafeTokenVesting.sol\":1102:1108  _token */\n  dup4\n    /* \"assignment contracts/SafeTokenVesting.sol\":1094:1099  token */\n  0x00\n  dup1\n    /* \"assignment contracts/SafeTokenVesting.sol\":1094:1108  token = _token */\n  0x0100\n  exp\n  dup2\n  sload\n  dup2\n  0xffffffffffffffffffffffffffffffffffffffff\n  mul\n  not\n  and\n  swap1\n  dup4\n  0xffffffffffffffffffffffffffffffffffffffff\n  and\n  mul\n  or\n  swap1\n  sstore\n  pop\n    /* \"assignment contracts/SafeTokenVesting.sol\":1134:1146  _beneficiary */\n  dup3\n    /* \"assignment contracts/SafeTokenVesting.sol\":1120:1131  beneficiary */\n  0x01\n  0x00\n    /* \"assignment contracts/SafeTokenVesting.sol\":1120:1146  beneficiary = _beneficiary */\n  0x0100\n  exp\n  dup2\n  sload\n  dup2\n  0xffffffffffffffffffffffffffffffffffffffff\n  mul\n  not\n  and\n  swap1\n  dup4\n  0xffffffffffffffffffffffffffffffffffffffff\n  and\n  mul\n  or\n  swap1\n  sstore\n  pop\n    /* \"assignment contracts/SafeTokenVesting.sol\":1172:1184  _totalTokens */\n  dup2\n    /* \"assignment contracts/SafeTokenVesting.sol\":1158:1169  totalTokens */\n  0x04\n    /* \"assignment contracts/SafeTokenVesting.sol\":1158:1184  totalTokens = _totalTokens */\n  dup2\n  swap1\n  sstore\n  pop\n    /* \"assignment contracts/SafeTokenVesting.sol\":1214:1230  _vestingDuration */\n  dup1\n    /* \"assignment contracts/SafeTokenVesting.sol\":1196:1211  vestingDuration */\n  0x03\n    /* \"assignment contracts/SafeTokenVesting.sol\":1196:1230  vestingDuration = _vestingDuration */\n  dup2\n  swap1\n  sstore\n  pop\n    /* \"assignment contracts/SafeTokenVesting.sol\":1254:1269  block.timestamp */\n  timestamp\n    /* \"assignment contracts/SafeTokenVesting.sol\":1242:1251  startTime */\n  0x02\n    /* \"assignment contracts/SafeTokenVesting.sol\":1242:1269  startTime = block.timestamp */\n  dup2\n  swap1\n  sstore\n  pop\n    /* \"assignment contracts/SafeTokenVesting.sol\":609:1277  constructor(... */\n  pop\n  pop\n  pop\n  pop\n    /* \"assignment contracts/SafeTokenVesting.sol\":324:2681  contract SafeTokenVesting {... */\n  jump(tag_18)\n    /* \"#utility.yul\":88:205   */\ntag_20:\n    /* \"#utility.yul\":197:198   */\n  0x00\n    /* \"#utility.yul\":194:195   */\n  dup1\n    /* \"#utility.yul\":187:199   */\n  revert\n    /* \"#utility.yul\":334:460   */\ntag_22:\n    /* \"#utility.yul\":371:378   */\n  0x00\n    /* \"#utility.yul\":411:453   */\n  0xffffffffffffffffffffffffffffffffffffffff\n    /* \"#utility.yul\":404:409   */\n  dup3\n    /* \"#utility.yul\":400:454   */\n  and\n    /* \"#utility.yul\":389:454   */\n  swap1\n  pop\n    /* \"#utility.yul\":334:460   */\n  swap2\n  swap1\n  pop\n  jump\t// out\n    /* \"#utility.yul\":466:562   */\ntag_23:\n    /* \"#utility.yul\":503:510   */\n  0x00\n    /* \"#utility.yul\":532:556   */\n  tag_47\n    /* \"#utility.yul\":550:555   */\n  dup3\n    /* \"#utility.yul\":532:556   */\n  tag_22\n  jump\t// in\ntag_47:\n    /* \"#utility.yul\":521:556   */\n  swap1\n  pop\n    /* \"#utility.yul\":466:562   */\n  swap2\n  swap1\n  pop\n  jump\t// out\n    /* \"#utility.yul\":568:677   */\ntag_24:\n    /* \"#utility.yul\":618:625   */\n  0x00\n    /* \"#utility.yul\":647:671   */\n  tag_49\n    /* \"#utility.yul\":665:670   */\n  dup3\n    /* \"#utility.yul\":647:671   */\n  tag_23\n  jump\t// in\ntag_49:\n    /* \"#utility.yul\":636:671   */\n  swap1\n  pop\n    /* \"#utility.yul\":568:677   */\n  swap2\n  swap1\n  pop\n  jump\t// out\n    /* \"#utility.yul\":683:831   */\ntag_25:\n    /* \"#utility.yul\":769:806   */\n  tag_51\n    /* \"#utility.yul\":800:805   */\n  dup2\n    /* \"#utility.yul\":769:806   */\n  tag_24\n  jump\t// in\ntag_51:\n    /* \"#utility.yul\":762:767   */\n  dup2\n    /* \"#utility.yul\":759:807   */\n  eq\n    /* \"#utility.yul\":749:825   */\n  tag_52\n  jumpi\n    /* \"#utility.yul\":821:822   */\n  0x00\n    /* \"#utility.yul\":818:819   */\n  dup1\n    /* \"#utility.yul\":811:823   */\n  revert\n    /* \"#utility.yul\":749:825   */\ntag_52:\n    /* \"#utility.yul\":683:831   */\n  pop\n  jump\t// out\n    /* \"#utility.yul\":837:1006   */\ntag_26:\n    /* \"#utility.yul\":907:912   */\n  0x00\n    /* \"#utility.yul\":938:944   */\n  dup2\n    /* \"#utility.yul\":932:945   */\n  mload\n    /* \"#utility.yul\":923:945   */\n  swap1\n  pop\n    /* \"#utility.yul\":954:1000   */\n  tag_54\n    /* \"#utility.yul\":994:999   */\n  dup2\n    /* \"#utility.yul\":954:1000   */\n  tag_25\n  jump\t// in\ntag_54:\n    /* \"#utility.yul\":837:1006   */\n  swap3\n  swap2\n  pop\n  pop\n  jump\t// out\n    /* \"#utility.yul\":1012:1134   */\ntag_27:\n    /* \"#utility.yul\":1085:1109   */\n  tag_56\n    /* \"#utility.yul\":1103:1108   */\n  dup2\n    /* \"#utility.yul\":1085:1109   */\n  tag_23\n  jump\t// in\ntag_56:\n    /* \"#utility.yul\":1078:1083   */\n  dup2\n    /* \"#utility.yul\":1075:1110   */\n  eq\n    /* \"#utility.yul\":1065:1128   */\n  tag_57\n  jumpi\n    /* \"#utility.yul\":1124:1125   */\n  0x00\n    /* \"#utility.yul\":1121:1122   */\n  dup1\n    /* \"#utility.yul\":1114:1126   */\n  revert\n    /* \"#utility.yul\":1065:1128   */\ntag_57:\n    /* \"#utility.yul\":1012:1134   */\n  pop\n  jump\t// out\n    /* \"#utility.yul\":1140:1283   */\ntag_28:\n    /* \"#utility.yul\":1197:1202   */\n  0x00\n    /* \"#utility.yul\":1228:1234   */\n  dup2\n    /* \"#utility.yul\":1222:1235   */\n  mload\n    /* \"#utility.yul\":1213:1235   */\n  swap1\n  pop\n    /* \"#utility.yul\":1244:1277   */\n  tag_59\n    /* \"#utility.yul\":1271:1276   */\n  dup2\n    /* \"#utility.yul\":1244:1277   */\n  tag_27\n  jump\t// in\ntag_59:\n    /* \"#utility.yul\":1140:1283   */\n  swap3\n  swap2\n  pop\n  pop\n  jump\t// out\n    /* \"#utility.yul\":1289:1366   */\ntag_29:\n    /* \"#utility.yul\":1326:1333   */\n  0x00\n    /* \"#utility.yul\":1355:1360   */\n  dup2\n    /* \"#utility.yul\":1344:1360   */\n  swap1\n  pop\n    /* \"#utility.yul\":1289:1366   */\n  swap2\n  swap1\n  pop\n  jump\t// out\n    /* \"#utility.yul\":1372:1494   */\ntag_30:\n    /* \"#utility.yul\":1445:1469   */\n  tag_62\n    /* \"#utility.yul\":1463:1468   */\n  dup2\n    /* \"#utility.yul\":1445:1469   */\n  tag_29\n  jump\t// in\ntag_62:\n    /* \"#utility.yul\":1438:1443   */\n  dup2\n    /* \"#utility.yul\":1435:1470   */\n  eq\n    /* \"#utility.yul\":1425:1488   */\n  tag_63\n  jumpi\n    /* \"#utility.yul\":1484:1485   */\n  0x00\n    /* \"#utility.yul\":1481:1482   */\n  dup1\n    /* \"#utility.yul\":1474:1486   */\n  revert\n    /* \"#utility.yul\":1425:1488   */\ntag_63:\n    /* \"#utility.yul\":1372:1494   */\n  pop\n  jump\t// out\n    /* \"#utility.yul\":1500:1643   */\ntag_31:\n    /* \"#utility.yul\":1557:1562   */\n  0x00\n    /* \"#utility.yul\":1588:1594   */\n  dup2\n    /* \"#utility.yul\":1582:1595   */\n  mload\n    /* \"#utility.yul\":1573:1595   */\n  swap1\n  pop\n    /* \"#utility.yul\":1604:1637   */\n  tag_65\n    /* \"#utility.yul\":1631:1636   */\n  dup2\n    /* \"#utility.yul\":1604:1637   */\n  tag_30\n  jump\t// in\ntag_65:\n    /* \"#utility.yul\":1500:1643   */\n  swap3\n  swap2\n  pop\n  pop\n  jump\t// out\n    /* \"#utility.yul\":1649:2495   */\ntag_3:\n    /* \"#utility.yul\":1759:1765   */\n  0x00\n    /* \"#utility.yul\":1767:1773   */\n  dup1\n    /* \"#utility.yul\":1775:1781   */\n  0x00\n    /* \"#utility.yul\":1783:1789   */\n  dup1\n    /* \"#utility.yul\":1832:1835   */\n  0x80\n    /* \"#utility.yul\":1820:1829   */\n  dup6\n    /* \"#utility.yul\":1811:1818   */\n  dup8\n    /* \"#utility.yul\":1807:1830   */\n  sub\n    /* \"#utility.yul\":1803:1836   */\n  slt\n    /* \"#utility.yul\":1800:1920   */\n  iszero\n  tag_67\n  jumpi\n    /* \"#utility.yul\":1839:1918   */\n  tag_68\n  tag_20\n  jump\t// in\ntag_68:\n    /* \"#utility.yul\":1800:1920   */\ntag_67:\n    /* \"#utility.yul\":1959:1960   */\n  0x00\n    /* \"#utility.yul\":1984:2061   */\n  tag_69\n    /* \"#utility.yul\":2053:2060   */\n  dup8\n    /* \"#utility.yul\":2044:2050   */\n  dup3\n    /* \"#utility.yul\":2033:2042   */\n  dup9\n    /* \"#utility.yul\":2029:2051   */\n  add\n    /* \"#utility.yul\":1984:2061   */\n  tag_26\n  jump\t// in\ntag_69:\n    /* \"#utility.yul\":1974:2061   */\n  swap5\n  pop\n    /* \"#utility.yul\":1930:2071   */\n  pop\n    /* \"#utility.yul\":2110:2112   */\n  0x20\n    /* \"#utility.yul\":2136:2200   */\n  tag_70\n    /* \"#utility.yul\":2192:2199   */\n  dup8\n    /* \"#utility.yul\":2183:2189   */\n  dup3\n    /* \"#utility.yul\":2172:2181   */\n  dup9\n    /* \"#utility.yul\":2168:2190   */\n  add\n    /* \"#utility.yul\":2136:2200   */\n  tag_28\n  jump\t// in\ntag_70:\n    /* \"#utility.yul\":2126:2200   */\n  swap4\n  pop\n    /* \"#utility.yul\":2081:2210   */\n  pop\n    /* \"#utility.yul\":2249:2251   */\n  0x40\n    /* \"#utility.yul\":2275:2339   */\n  tag_71\n    /* \"#utility.yul\":2331:2338   */\n  dup8\n    /* \"#utility.yul\":2322:2328   */\n  dup3\n    /* \"#utility.yul\":2311:2320   */\n  dup9\n    /* \"#utility.yul\":2307:2329   */\n  add\n    /* \"#utility.yul\":2275:2339   */\n  tag_31\n  jump\t// in\ntag_71:\n    /* \"#utility.yul\":2265:2339   */\n  swap3\n  pop\n    /* \"#utility.yul\":2220:2349   */\n  pop\n    /* \"#utility.yul\":2388:2390   */\n  0x60\n    /* \"#utility.yul\":2414:2478   */\n  tag_72\n    /* \"#utility.yul\":2470:2477   */\n  dup8\n    /* \"#utility.yul\":2461:2467   */\n  dup3\n    /* \"#utility.yul\":2450:2459   */\n  dup9\n    /* \"#utility.yul\":2446:2468   */\n  add\n    /* \"#utility.yul\":2414:2478   */\n  tag_31\n  jump\t// in\ntag_72:\n    /* \"#utility.yul\":2404:2478   */\n  swap2\n  pop\n    /* \"#utility.yul\":2359:2488   */\n  pop\n    /* \"#utility.yul\":1649:2495   */\n  swap3\n  swap6\n  swap2\n  swap5\n  pop\n  swap3\n  pop\n  jump\t// out\n    /* \"#utility.yul\":2501:2670   */\ntag_32:\n    /* \"#utility.yul\":2585:2596   */\n  0x00\n    /* \"#utility.yul\":2619:2625   */\n  dup3\n    /* \"#utility.yul\":2614:2617   */\n  dup3\n    /* \"#utility.yul\":2607:2626   */\n  mstore\n    /* \"#utility.yul\":2659:2663   */\n  0x20\n    /* \"#utility.yul\":2654:2657   */\n  dup3\n    /* \"#utility.yul\":2650:2664   */\n  add\n    /* \"#utility.yul\":2635:2664   */\n  swap1\n  pop\n    /* \"#utility.yul\":2501:2670   */\n  swap3\n  swap2\n  pop\n  pop\n  jump\t// out\n    /* \"#utility.yul\":2676:2854   */\ntag_33:\n    /* \"#utility.yul\":2816:2846   */\n  0x546f6b656e20616464726573732063616e6e6f74206265207a65726f00000000\n    /* \"#utility.yul\":2812:2813   */\n  0x00\n    /* \"#utility.yul\":2804:2810   */\n  dup3\n    /* \"#utility.yul\":2800:2814   */\n  add\n    /* \"#utility.yul\":2793:2847   */\n  mstore\n    /* \"#utility.yul\":2676:2854   */\n  pop\n  jump\t// out\n    /* \"#utility.yul\":2860:3226   */\ntag_34:\n    /* \"#utility.yul\":3002:3005   */\n  0x00\n    /* \"#utility.yul\":3023:3090   */\n  tag_76\n    /* \"#utility.yul\":3087:3089   */\n  0x1c\n    /* \"#utility.yul\":3082:3085   */\n  dup4\n    /* \"#utility.yul\":3023:3090   */\n  tag_32\n  jump\t// in\ntag_76:\n    /* \"#utility.yul\":3016:3090   */\n  swap2\n  pop\n    /* \"#utility.yul\":3099:3192   */\n  tag_77\n    /* \"#utility.yul\":3188:3191   */\n  dup3\n    /* \"#utility.yul\":3099:3192   */\n  tag_33\n  jump\t// in\ntag_77:\n    /* \"#utility.yul\":3217:3219   */\n  0x20\n    /* \"#utility.yul\":3212:3215   */\n  dup3\n    /* \"#utility.yul\":3208:3220   */\n  add\n    /* \"#utility.yul\":3201:3220   */\n  swap1\n  pop\n    /* \"#utility.yul\":2860:3226   */\n  swap2\n  swap1\n  pop\n  jump\t// out\n    /* \"#utility.yul\":3232:3651   */\ntag_8:\n    /* \"#utility.yul\":3398:3402   */\n  0x00\n    /* \"#utility.yul\":3436:3438   */\n  0x20\n    /* \"#utility.yul\":3425:3434   */\n  dup3\n    /* \"#utility.yul\":3421:3439   */\n  add\n    /* \"#utility.yul\":3413:3439   */\n  swap1\n  pop\n    /* \"#utility.yul\":3485:3494   */\n  dup2\n    /* \"#utility.yul\":3479:3483   */\n  dup2\n    /* \"#utility.yul\":3475:3495   */\n  sub\n    /* \"#utility.yul\":3471:3472   */\n  0x00\n    /* \"#utility.yul\":3460:3469   */\n  dup4\n    /* \"#utility.yul\":3456:3473   */\n  add\n    /* \"#utility.yul\":3449:3496   */\n  mstore\n    /* \"#utility.yul\":3513:3644   */\n  tag_79\n    /* \"#utility.yul\":3639:3643   */\n  dup2\n    /* \"#utility.yul\":3513:3644   */\n  tag_34\n  jump\t// in\ntag_79:\n    /* \"#utility.yul\":3505:3644   */\n  swap1\n  pop\n    /* \"#utility.yul\":3232:3651   */\n  swap2\n  swap1\n  pop\n  jump\t// out\n    /* \"#utility.yul\":3657:3878   */\ntag_35:\n    /* \"#utility.yul\":3797:3831   */\n  0x42656e65666963696172792063616e6e6f74206265207a65726f206164647265\n    /* \"#utility.yul\":3793:3794   */\n  0x00\n    /* \"#utility.yul\":3785:3791   */\n  dup3\n    /* \"#utility.yul\":3781:3795   */\n  add\n    /* \"#utility.yul\":3774:3832   */\n  mstore\n    /* \"#utility.yul\":3866:3870   */\n  0x7373000000000000000000000000000000000000000000000000000000000000\n    /* \"#utility.yul\":3861:3863   */\n  0x20\n    /* \"#utility.yul\":3853:3859   */\n  dup3\n    /* \"#utility.yul\":3849:3864   */\n  add\n    /* \"#utility.yul\":3842:3871   */\n  mstore\n    /* \"#utility.yul\":3657:3878   */\n  pop\n  jump\t// out\n    /* \"#utility.yul\":3884:4250   */\ntag_36:\n    /* \"#utility.yul\":4026:4029   */\n  0x00\n    /* \"#utility.yul\":4047:4114   */\n  tag_82\n    /* \"#utility.yul\":4111:4113   */\n  0x22\n    /* \"#utility.yul\":4106:4109   */\n  dup4\n    /* \"#utility.yul\":4047:4114   */\n  tag_32\n  jump\t// in\ntag_82:\n    /* \"#utility.yul\":4040:4114   */\n  swap2\n  pop\n    /* \"#utility.yul\":4123:4216   */\n  tag_83\n    /* \"#utility.yul\":4212:4215   */\n  dup3\n    /* \"#utility.yul\":4123:4216   */\n  tag_35\n  jump\t// in\ntag_83:\n    /* \"#utility.yul\":4241:4243   */\n  0x40\n    /* \"#utility.yul\":4236:4239   */\n  dup3\n    /* \"#utility.yul\":4232:4244   */\n  add\n    /* \"#utility.yul\":4225:4244   */\n  swap1\n  pop\n    /* \"#utility.yul\":3884:4250   */\n  swap2\n  swap1\n  pop\n  jump\t// out\n    /* \"#utility.yul\":4256:4675   */\ntag_11:\n    /* \"#utility.yul\":4422:4426   */\n  0x00\n    /* \"#utility.yul\":4460:4462   */\n  0x20\n    /* \"#utility.yul\":4449:4458   */\n  dup3\n    /* \"#utility.yul\":4445:4463   */\n  add\n    /* \"#utility.yul\":4437:4463   */\n  swap1\n  pop\n    /* \"#utility.yul\":4509:4518   */\n  dup2\n    /* \"#utility.yul\":4503:4507   */\n  dup2\n    /* \"#utility.yul\":4499:4519   */\n  sub\n    /* \"#utility.yul\":4495:4496   */\n  0x00\n    /* \"#utility.yul\":4484:4493   */\n  dup4\n    /* \"#utility.yul\":4480:4497   */\n  add\n    /* \"#utility.yul\":4473:4520   */\n  mstore\n    /* \"#utility.yul\":4537:4668   */\n  tag_85\n    /* \"#utility.yul\":4663:4667   */\n  dup2\n    /* \"#utility.yul\":4537:4668   */\n  tag_36\n  jump\t// in\ntag_85:\n    /* \"#utility.yul\":4529:4668   */\n  swap1\n  pop\n    /* \"#utility.yul\":4256:4675   */\n  swap2\n  swap1\n  pop\n  jump\t// out\n    /* \"#utility.yul\":4681:4910   */\ntag_37:\n    /* \"#utility.yul\":4821:4855   */\n  0x56657374696e67206475726174696f6e206d7573742062652067726561746572\n    /* \"#utility.yul\":4817:4818   */\n  0x00\n    /* \"#utility.yul\":4809:4815   */\n  dup3\n    /* \"#utility.yul\":4805:4819   */\n  add\n    /* \"#utility.yul\":4798:4856   */\n  mstore\n    /* \"#utility.yul\":4890:4902   */\n  0x207468616e207a65726f00000000000000000000000000000000000000000000\n    /* \"#utility.yul\":4885:4887   */\n  0x20\n    /* \"#utility.yul\":4877:4883   */\n  dup3\n    /* \"#utility.yul\":4873:4888   */\n  add\n    /* \"#utility.yul\":4866:4903   */\n  mstore\n    /* \"#utility.yul\":4681:4910   */\n  pop\n  jump\t// out\n    /* \"#utility.yul\":4916:5282   */\ntag_38:\n    /* \"#utility.yul\":5058:5061   */\n  0x00\n    /* \"#utility.yul\":5079:5146   */\n  tag_88\n    /* \"#utility.yul\":5143:5145   */\n  0x2a\n    /* \"#utility.yul\":5138:5141   */\n  dup4\n    /* \"#utility.yul\":5079:5146   */\n  tag_32\n  jump\t// in\ntag_88:\n    /* \"#utility.yul\":5072:5146   */\n  swap2\n  pop\n    /* \"#utility.yul\":5155:5248   */\n  tag_89\n    /* \"#utility.yul\":5244:5247   */\n  dup3\n    /* \"#utility.yul\":5155:5248   */\n  tag_37\n  jump\t// in\ntag_89:\n    /* \"#utility.yul\":5273:5275   */\n  0x40\n    /* \"#utility.yul\":5268:5271   */\n  dup3\n    /* \"#utility.yul\":5264:5276   */\n  add\n    /* \"#utility.yul\":5257:5276   */\n  swap1\n  pop\n    /* \"#utility.yul\":4916:5282   */\n  swap2\n  swap1\n  pop\n  jump\t// out\n    /* \"#utility.yul\":5288:5707   */\ntag_14:\n    /* \"#utility.yul\":5454:5458   */\n  0x00\n    /* \"#utility.yul\":5492:5494   */\n  0x20\n    /* \"#utility.yul\":5481:5490   */\n  dup3\n    /* \"#utility.yul\":5477:5495   */\n  add\n    /* \"#utility.yul\":5469:5495   */\n  swap1\n  pop\n    /* \"#utility.yul\":5541:5550   */\n  dup2\n    /* \"#utility.yul\":5535:5539   */\n  dup2\n    /* \"#utility.yul\":5531:5551   */\n  sub\n    /* \"#utility.yul\":5527:5528   */\n  0x00\n    /* \"#utility.yul\":5516:5525   */\n  dup4\n    /* \"#utility.yul\":5512:5529   */\n  add\n    /* \"#utility.yul\":5505:5552   */\n  mstore\n    /* \"#utility.yul\":5569:5700   */\n  tag_91\n    /* \"#utility.yul\":5695:5699   */\n  dup2\n    /* \"#utility.yul\":5569:5700   */\n  tag_38\n  jump\t// in\ntag_91:\n    /* \"#utility.yul\":5561:5700   */\n  swap1\n  pop\n    /* \"#utility.yul\":5288:5707   */\n  swap2\n  swap1\n  pop\n  jump\t// out\n    /* \"#utility.yul\":5713:5938   */\ntag_39:\n    /* \"#utility.yul\":5853:5887   */\n  0x546f74616c20746f6b656e73206d757374206265206772656174657220746861\n    /* \"#utility.yul\":5849:5850   */\n  0x00\n    /* \"#utility.yul\":5841:5847   */\n  dup3\n    /* \"#utility.yul\":5837:5851   */\n  add\n    /* \"#utility.yul\":5830:5888   */\n  mstore\n    /* \"#utility.yul\":5922:5930   */\n  0x6e207a65726f0000000000000000000000000000000000000000000000000000\n    /* \"#utility.yul\":5917:5919   */\n  0x20\n    /* \"#utility.yul\":5909:5915   */\n  dup3\n    /* \"#utility.yul\":5905:5920   */\n  add\n    /* \"#utility.yul\":5898:5931   */\n  mstore\n    /* \"#utility.yul\":5713:5938   */\n  pop\n  jump\t// out\n    /* \"#utility.yul\":5944:6310   */\ntag_40:\n    /* \"#utility.yul\":6086:6089   */\n  0x00\n    /* \"#utility.yul\":6107:6174   */\n  tag_94\n    /* \"#utility.yul\":6171:6173   */\n  0x26\n    /* \"#utility.yul\":6166:6169   */\n  dup4\n    /* \"#utility.yul\":6107:6174   */\n  tag_32\n  jump\t// in\ntag_94:\n    /* \"#utility.yul\":6100:6174   */\n  swap2\n  pop\n    /* \"#utility.yul\":6183:6276   */\n  tag_95\n    /* \"#utility.yul\":6272:6275   */\n  dup3\n    /* \"#utility.yul\":6183:6276   */\n  tag_39\n  jump\t// in\ntag_95:\n    /* \"#utility.yul\":6301:6303   */\n  0x40\n    /* \"#utility.yul\":6296:6299   */\n  dup3\n    /* \"#utility.yul\":6292:6304   */\n  add\n    /* \"#utility.yul\":6285:6304   */\n  swap1\n  pop\n    /* \"#utility.yul\":5944:6310   */\n  swap2\n  swap1\n  pop\n  jump\t// out\n    /* \"#utility.yul\":6316:6735   */\ntag_17:\n    /* \"#utility.yul\":6482:6486   */\n  0x00\n    /* \"#utility.yul\":6520:6522   */\n  0x20\n    /* \"#utility.yul\":6509:6518   */\n  dup3\n    /* \"#utility.yul\":6505:6523   */\n  add\n    /* \"#utility.yul\":6497:6523   */\n  swap1\n  pop\n    /* \"#utility.yul\":6569:6578   */\n  dup2\n    /* \"#utility.yul\":6563:6567   */\n  dup2\n    /* \"#utility.yul\":6559:6579   */\n  sub\n    /* \"#utility.yul\":6555:6556   */\n  0x00\n    /* \"#utility.yul\":6544:6553   */\n  dup4\n    /* \"#utility.yul\":6540:6557   */\n  add\n    /* \"#utility.yul\":6533:6580   */\n  mstore\n    /* \"#utility.yul\":6597:6728   */\n  tag_97\n    /* \"#utility.yul\":6723:6727   */\n  dup2\n    /* \"#utility.yul\":6597:6728   */\n  tag_40\n  jump\t// in\ntag_97:\n    /* \"#utility.yul\":6589:6728   */\n  swap1\n  pop\n    /* \"#utility.yul\":6316:6735   */\n  swap2\n  swap1\n  pop\n  jump\t// out\n    /* \"assignment contracts/SafeTokenVesting.sol\":324:2681  contract SafeTokenVesting {... */\ntag_18:\n  dataSize(sub_0)\n  dup1\n  dataOffset(sub_0)\n  0x00\n  codecopy\n  0x00\n  return\nstop\n\nsub_0: assembly {\n        /* \"assignment contracts/SafeTokenVesting.sol\":324:2681  contract SafeTokenVesting {... */\n      mstore(0x40, 0x80)\n      callvalue\n      dup1\n      iszero\n      tag_1\n      jumpi\n      0x00\n      dup1\n      revert\n    tag_1:\n      pop\n      jumpi(tag_2, lt(calldatasize, 0x04))\n      shr(0xe0, calldataload(0x00))\n      dup1\n      0x48c54b9d\n      eq\n      tag_3\n      jumpi\n      dup1\n      0x5330a6a2\n      eq\n      tag_4\n      jumpi\n    tag_2:\n      0x00\n      dup1\n      revert\n        /* \"assignment contracts/SafeTokenVesting.sol\":1472:2154  function claimTokens() external {... */\n    tag_3:\n      tag_5\n      tag_6\n      jump\t// in\n    tag_5:\n      stop\n        /* \"assignment contracts/SafeTokenVesting.sol\":2247:2671  function getVestedTokens() public view returns (uint256) {... */\n    tag_4:\n      tag_7\n      tag_8\n      jump\t// in\n    tag_7:\n      mload(0x40)\n      tag_9\n      swap2\n      swap1\n      tag_10\n      jump\t// in\n    tag_9:\n      mload(0x40)\n      dup1\n      swap2\n      sub\n      swap1\n      return\n        /* \"assignment contracts/SafeTokenVesting.sol\":1472:2154  function claimTokens() external {... */\n    tag_6:\n        /* \"assignment contracts/SafeTokenVesting.sol\":1537:1548  beneficiary */\n      0x01\n      0x00\n      swap1\n      sload\n      swap1\n      0x0100\n      exp\n      swap1\n      div\n      0xffffffffffffffffffffffffffffffffffffffff\n      and\n        /* \"assignment contracts/SafeTokenVesting.sol\":1523:1548  msg.sender == beneficiary */\n      0xffffffffffffffffffffffffffffffffffffffff\n      and\n        /* \"assignment contracts/SafeTokenVesting.sol\":1523:1533  msg.sender */\n      caller\n        /* \"assignment contracts/SafeTokenVesting.sol\":1523:1548  msg.sender == beneficiary */\n      0xffffffffffffffffffffffffffffffffffffffff\n      and\n      eq\n        /* \"assignment contracts/SafeTokenVesting.sol\":1515:1590  require(msg.sender == beneficiary, \"Only the beneficiary can claim tokens\") */\n      tag_12\n      jumpi\n      mload(0x40)\n      0x08c379a000000000000000000000000000000000000000000000000000000000\n      dup2\n      mstore\n      0x04\n      add\n      tag_13\n      swap1\n      tag_14\n      jump\t// in\n    tag_13:\n      mload(0x40)\n      dup1\n      swap2\n      sub\n      swap1\n      revert\n    tag_12:\n        /* \"assignment contracts/SafeTokenVesting.sol\":1603:1623  uint256 vestedTokens */\n      0x00\n        /* \"assignment contracts/SafeTokenVesting.sol\":1626:1643  getVestedTokens() */\n      tag_15\n        /* \"assignment contracts/SafeTokenVesting.sol\":1626:1641  getVestedTokens */\n      tag_8\n        /* \"assignment contracts/SafeTokenVesting.sol\":1626:1643  getVestedTokens() */\n      jump\t// in\n    tag_15:\n        /* \"assignment contracts/SafeTokenVesting.sol\":1603:1643  uint256 vestedTokens = getVestedTokens() */\n      swap1\n      pop\n        /* \"assignment contracts/SafeTokenVesting.sol\":1654:1677  uint256 claimableTokens */\n      0x00\n        /* \"assignment contracts/SafeTokenVesting.sol\":1695:1709  releasedTokens */\n      sload(0x05)\n        /* \"assignment contracts/SafeTokenVesting.sol\":1680:1692  vestedTokens */\n      dup3\n        /* \"assignment contracts/SafeTokenVesting.sol\":1680:1709  vestedTokens - releasedTokens */\n      tag_16\n      swap2\n      swap1\n      tag_17\n      jump\t// in\n    tag_16:\n        /* \"assignment contracts/SafeTokenVesting.sol\":1654:1709  uint256 claimableTokens = vestedTokens - releasedTokens */\n      swap1\n      pop\n        /* \"assignment contracts/SafeTokenVesting.sol\":1748:1749  0 */\n      0x00\n        /* \"assignment contracts/SafeTokenVesting.sol\":1730:1745  claimableTokens */\n      dup2\n        /* \"assignment contracts/SafeTokenVesting.sol\":1730:1749  claimableTokens > 0 */\n      gt\n        /* \"assignment contracts/SafeTokenVesting.sol\":1722:1782  require(claimableTokens > 0, \"No tokens available to claim\") */\n      tag_18\n      jumpi\n      mload(0x40)\n      0x08c379a000000000000000000000000000000000000000000000000000000000\n      dup2\n      mstore\n      0x04\n      add\n      tag_19\n      swap1\n      tag_20\n      jump\t// in\n    tag_19:\n      mload(0x40)\n      dup1\n      swap2\n      sub\n      swap1\n      revert\n    tag_18:\n        /* \"assignment contracts/SafeTokenVesting.sol\":1813:1828  claimableTokens */\n      dup1\n        /* \"assignment contracts/SafeTokenVesting.sol\":1795:1809  releasedTokens */\n      0x05\n      0x00\n        /* \"assignment contracts/SafeTokenVesting.sol\":1795:1828  releasedTokens += claimableTokens */\n      dup3\n      dup3\n      sload\n      tag_21\n      swap2\n      swap1\n      tag_22\n      jump\t// in\n    tag_21:\n      swap3\n      pop\n      pop\n      dup2\n      swap1\n      sstore\n      pop\n        /* \"assignment contracts/SafeTokenVesting.sol\":1845:1850  token */\n      0x00\n      dup1\n      sload\n      swap1\n      0x0100\n      exp\n      swap1\n      div\n      0xffffffffffffffffffffffffffffffffffffffff\n      and\n        /* \"assignment contracts/SafeTokenVesting.sol\":1845:1859  token.transfer */\n      0xffffffffffffffffffffffffffffffffffffffff\n      and\n      0xa9059cbb\n        /* \"assignment contracts/SafeTokenVesting.sol\":1860:1871  beneficiary */\n      0x01\n      0x00\n      swap1\n      sload\n      swap1\n      0x0100\n      exp\n      swap1\n      div\n      0xffffffffffffffffffffffffffffffffffffffff\n      and\n        /* \"assignment contracts/SafeTokenVesting.sol\":1873:1888  claimableTokens */\n      dup4\n        /* \"assignment contracts/SafeTokenVesting.sol\":1845:1889  token.transfer(beneficiary, claimableTokens) */\n      mload(0x40)\n      dup4\n      0xffffffff\n      and\n      0xe0\n      shl\n      dup2\n      mstore\n      0x04\n      add\n      tag_23\n      swap3\n      swap2\n      swap1\n      tag_24\n      jump\t// in\n    tag_23:\n      0x20\n      mload(0x40)\n      dup1\n      dup4\n      sub\n      dup2\n      0x00\n      dup8\n      gas\n      call\n      swap3\n      pop\n      pop\n      pop\n      dup1\n      iszero\n      tag_25\n      jumpi\n      pop\n      mload(0x40)\n      returndatasize\n      not(0x1f)\n      0x1f\n      dup3\n      add\n      and\n      dup3\n      add\n      dup1\n      0x40\n      mstore\n      pop\n      dup2\n      add\n      swap1\n      tag_26\n      swap2\n      swap1\n      tag_27\n      jump\t// in\n    tag_26:\n      0x01\n    tag_25:\n        /* \"assignment contracts/SafeTokenVesting.sol\":1841:2147  try token.transfer(beneficiary, claimableTokens) {... */\n      tag_28\n      jumpi\n        /* \"assignment contracts/SafeTokenVesting.sol\":2074:2089  claimableTokens */\n      dup1\n        /* \"assignment contracts/SafeTokenVesting.sol\":2056:2070  releasedTokens */\n      0x05\n      0x00\n        /* \"assignment contracts/SafeTokenVesting.sol\":2056:2089  releasedTokens -= claimableTokens */\n      dup3\n      dup3\n      sload\n      tag_32\n      swap2\n      swap1\n      tag_17\n      jump\t// in\n    tag_32:\n      swap3\n      pop\n      pop\n      dup2\n      swap1\n      sstore\n      pop\n        /* \"assignment contracts/SafeTokenVesting.sol\":2104:2135  revert(\"Token transfer failed\") */\n      mload(0x40)\n      0x08c379a000000000000000000000000000000000000000000000000000000000\n      dup2\n      mstore\n      0x04\n      add\n      tag_33\n      swap1\n      tag_34\n      jump\t// in\n    tag_33:\n      mload(0x40)\n      dup1\n      swap2\n      sub\n      swap1\n      revert\n        /* \"assignment contracts/SafeTokenVesting.sol\":1841:2147  try token.transfer(beneficiary, claimableTokens) {... */\n    tag_28:\n      pop\n        /* \"assignment contracts/SafeTokenVesting.sol\":1910:1953  TokensClaimed(beneficiary, claimableTokens) */\n      0x896e034966eaaf1adc54acc0f257056febbd300c9e47182cf761982cf1f5e430\n        /* \"assignment contracts/SafeTokenVesting.sol\":1924:1935  beneficiary */\n      0x01\n      0x00\n      swap1\n      sload\n      swap1\n      0x0100\n      exp\n      swap1\n      div\n      0xffffffffffffffffffffffffffffffffffffffff\n      and\n        /* \"assignment contracts/SafeTokenVesting.sol\":1937:1952  claimableTokens */\n      dup3\n        /* \"assignment contracts/SafeTokenVesting.sol\":1910:1953  TokensClaimed(beneficiary, claimableTokens) */\n      mload(0x40)\n      tag_36\n      swap3\n      swap2\n      swap1\n      tag_24\n      jump\t// in\n    tag_36:\n      mload(0x40)\n      dup1\n      swap2\n      sub\n      swap1\n      log1\n        /* \"assignment contracts/SafeTokenVesting.sol\":1504:2154  {... */\n      pop\n      pop\n        /* \"assignment contracts/SafeTokenVesting.sol\":1472:2154  function claimTokens() external {... */\n      jump\t// out\n        /* \"assignment contracts/SafeTokenVesting.sol\":2247:2671  function getVestedTokens() public view returns (uint256) {... */\n    tag_8:\n        /* \"assignment contracts/SafeTokenVesting.sol\":2295:2302  uint256 */\n      0x00\n        /* \"assignment contracts/SafeTokenVesting.sol\":2337:2346  startTime */\n      sload(0x02)\n        /* \"assignment contracts/SafeTokenVesting.sol\":2319:2334  block.timestamp */\n      timestamp\n        /* \"assignment contracts/SafeTokenVesting.sol\":2319:2346  block.timestamp < startTime */\n      lt\n        /* \"assignment contracts/SafeTokenVesting.sol\":2315:2409  if (block.timestamp < startTime) {... */\n      iszero\n      tag_38\n      jumpi\n        /* \"assignment contracts/SafeTokenVesting.sol\":2370:2371  0 */\n      0x00\n        /* \"assignment contracts/SafeTokenVesting.sol\":2363:2371  return 0 */\n      swap1\n      pop\n      jump(tag_37)\n        /* \"assignment contracts/SafeTokenVesting.sol\":2315:2409  if (block.timestamp < startTime) {... */\n    tag_38:\n        /* \"assignment contracts/SafeTokenVesting.sol\":2421:2440  uint256 elapsedTime */\n      0x00\n        /* \"assignment contracts/SafeTokenVesting.sol\":2461:2470  startTime */\n      sload(0x02)\n        /* \"assignment contracts/SafeTokenVesting.sol\":2443:2458  block.timestamp */\n      timestamp\n        /* \"assignment contracts/SafeTokenVesting.sol\":2443:2470  block.timestamp - startTime */\n      tag_39\n      swap2\n      swap1\n      tag_17\n      jump\t// in\n    tag_39:\n        /* \"assignment contracts/SafeTokenVesting.sol\":2421:2470  uint256 elapsedTime = block.timestamp - startTime */\n      swap1\n      pop\n        /* \"assignment contracts/SafeTokenVesting.sol\":2499:2514  vestingDuration */\n      sload(0x03)\n        /* \"assignment contracts/SafeTokenVesting.sol\":2485:2496  elapsedTime */\n      dup2\n        /* \"assignment contracts/SafeTokenVesting.sol\":2485:2514  elapsedTime > vestingDuration */\n      gt\n        /* \"assignment contracts/SafeTokenVesting.sol\":2481:2599  if (elapsedTime > vestingDuration) {... */\n      iszero\n      tag_40\n      jumpi\n        /* \"assignment contracts/SafeTokenVesting.sol\":2545:2560  vestingDuration */\n      sload(0x03)\n        /* \"assignment contracts/SafeTokenVesting.sol\":2531:2560  elapsedTime = vestingDuration */\n      swap1\n      pop\n        /* \"assignment contracts/SafeTokenVesting.sol\":2481:2599  if (elapsedTime > vestingDuration) {... */\n    tag_40:\n        /* \"assignment contracts/SafeTokenVesting.sol\":2648:2663  vestingDuration */\n      sload(0x03)\n        /* \"assignment contracts/SafeTokenVesting.sol\":2633:2644  elapsedTime */\n      dup2\n        /* \"assignment contracts/SafeTokenVesting.sol\":2619:2630  totalTokens */\n      sload(0x04)\n        /* \"assignment contracts/SafeTokenVesting.sol\":2619:2644  totalTokens * elapsedTime */\n      tag_41\n      swap2\n      swap1\n      tag_42\n      jump\t// in\n    tag_41:\n        /* \"assignment contracts/SafeTokenVesting.sol\":2618:2663  (totalTokens * elapsedTime) / vestingDuration */\n      tag_43\n      swap2\n      swap1\n      tag_44\n      jump\t// in\n    tag_43:\n        /* \"assignment contracts/SafeTokenVesting.sol\":2611:2663  return (totalTokens * elapsedTime) / vestingDuration */\n      swap2\n      pop\n      pop\n        /* \"assignment contracts/SafeTokenVesting.sol\":2247:2671  function getVestedTokens() public view returns (uint256) {... */\n    tag_37:\n      swap1\n      jump\t// out\n        /* \"#utility.yul\":7:84   */\n    tag_45:\n        /* \"#utility.yul\":44:51   */\n      0x00\n        /* \"#utility.yul\":73:78   */\n      dup2\n        /* \"#utility.yul\":62:78   */\n      swap1\n      pop\n        /* \"#utility.yul\":7:84   */\n      swap2\n      swap1\n      pop\n      jump\t// out\n        /* \"#utility.yul\":90:208   */\n    tag_46:\n        /* \"#utility.yul\":177:201   */\n      tag_68\n        /* \"#utility.yul\":195:200   */\n      dup2\n        /* \"#utility.yul\":177:201   */\n      tag_45\n      jump\t// in\n    tag_68:\n        /* \"#utility.yul\":172:175   */\n      dup3\n        /* \"#utility.yul\":165:202   */\n      mstore\n        /* \"#utility.yul\":90:208   */\n      pop\n      pop\n      jump\t// out\n        /* \"#utility.yul\":214:436   */\n    tag_10:\n        /* \"#utility.yul\":307:311   */\n      0x00\n        /* \"#utility.yul\":345:347   */\n      0x20\n        /* \"#utility.yul\":334:343   */\n      dup3\n        /* \"#utility.yul\":330:348   */\n      add\n        /* \"#utility.yul\":322:348   */\n      swap1\n      pop\n        /* \"#utility.yul\":358:429   */\n      tag_70\n        /* \"#utility.yul\":426:427   */\n      0x00\n        /* \"#utility.yul\":415:424   */\n      dup4\n        /* \"#utility.yul\":411:428   */\n      add\n        /* \"#utility.yul\":402:408   */\n      dup5\n        /* \"#utility.yul\":358:429   */\n      tag_46\n      jump\t// in\n    tag_70:\n        /* \"#utility.yul\":214:436   */\n      swap3\n      swap2\n      pop\n      pop\n      jump\t// out\n        /* \"#utility.yul\":442:611   */\n    tag_47:\n        /* \"#utility.yul\":526:537   */\n      0x00\n        /* \"#utility.yul\":560:566   */\n      dup3\n        /* \"#utility.yul\":555:558   */\n      dup3\n        /* \"#utility.yul\":548:567   */\n      mstore\n        /* \"#utility.yul\":600:604   */\n      0x20\n        /* \"#utility.yul\":595:598   */\n      dup3\n        /* \"#utility.yul\":591:605   */\n      add\n        /* \"#utility.yul\":576:605   */\n      swap1\n      pop\n        /* \"#utility.yul\":442:611   */\n      swap3\n      swap2\n      pop\n      pop\n      jump\t// out\n        /* \"#utility.yul\":617:841   */\n    tag_48:\n        /* \"#utility.yul\":757:791   */\n      0x4f6e6c79207468652062656e65666963696172792063616e20636c61696d2074\n        /* \"#utility.yul\":753:754   */\n      0x00\n        /* \"#utility.yul\":745:751   */\n      dup3\n        /* \"#utility.yul\":741:755   */\n      add\n        /* \"#utility.yul\":734:792   */\n      mstore\n        /* \"#utility.yul\":826:833   */\n      0x6f6b656e73000000000000000000000000000000000000000000000000000000\n        /* \"#utility.yul\":821:823   */\n      0x20\n        /* \"#utility.yul\":813:819   */\n      dup3\n        /* \"#utility.yul\":809:824   */\n      add\n        /* \"#utility.yul\":802:834   */\n      mstore\n        /* \"#utility.yul\":617:841   */\n      pop\n      jump\t// out\n        /* \"#utility.yul\":847:1213   */\n    tag_49:\n        /* \"#utility.yul\":989:992   */\n      0x00\n        /* \"#utility.yul\":1010:1077   */\n      tag_74\n        /* \"#utility.yul\":1074:1076   */\n      0x25\n        /* \"#utility.yul\":1069:1072   */\n      dup4\n        /* \"#utility.yul\":1010:1077   */\n      tag_47\n      jump\t// in\n    tag_74:\n        /* \"#utility.yul\":1003:1077   */\n      swap2\n      pop\n        /* \"#utility.yul\":1086:1179   */\n      tag_75\n        /* \"#utility.yul\":1175:1178   */\n      dup3\n        /* \"#utility.yul\":1086:1179   */\n      tag_48\n      jump\t// in\n    tag_75:\n        /* \"#utility.yul\":1204:1206   */\n      0x40\n        /* \"#utility.yul\":1199:1202   */\n      dup3\n        /* \"#utility.yul\":1195:1207   */\n      add\n        /* \"#utility.yul\":1188:1207   */\n      swap1\n      pop\n        /* \"#utility.yul\":847:1213   */\n      swap2\n      swap1\n      pop\n      jump\t// out\n        /* \"#utility.yul\":1219:1638   */\n    tag_14:\n        /* \"#utility.yul\":1385:1389   */\n      0x00\n        /* \"#utility.yul\":1423:1425   */\n      0x20\n        /* \"#utility.yul\":1412:1421   */\n      dup3\n        /* \"#utility.yul\":1408:1426   */\n      add\n        /* \"#utility.yul\":1400:1426   */\n      swap1\n      pop\n        /* \"#utility.yul\":1472:1481   */\n      dup2\n        /* \"#utility.yul\":1466:1470   */\n      dup2\n        /* \"#utility.yul\":1462:1482   */\n      sub\n        /* \"#utility.yul\":1458:1459   */\n      0x00\n        /* \"#utility.yul\":1447:1456   */\n      dup4\n        /* \"#utility.yul\":1443:1460   */\n      add\n        /* \"#utility.yul\":1436:1483   */\n      mstore\n        /* \"#utility.yul\":1500:1631   */\n      tag_77\n        /* \"#utility.yul\":1626:1630   */\n      dup2\n        /* \"#utility.yul\":1500:1631   */\n      tag_49\n      jump\t// in\n    tag_77:\n        /* \"#utility.yul\":1492:1631   */\n      swap1\n      pop\n        /* \"#utility.yul\":1219:1638   */\n      swap2\n      swap1\n      pop\n      jump\t// out\n        /* \"#utility.yul\":1644:1824   */\n    tag_50:\n        /* \"#utility.yul\":1692:1769   */\n      0x4e487b7100000000000000000000000000000000000000000000000000000000\n        /* \"#utility.yul\":1689:1690   */\n      0x00\n        /* \"#utility.yul\":1682:1770   */\n      mstore\n        /* \"#utility.yul\":1789:1793   */\n      0x11\n        /* \"#utility.yul\":1786:1787   */\n      0x04\n        /* \"#utility.yul\":1779:1794   */\n      mstore\n        /* \"#utility.yul\":1813:1817   */\n      0x24\n        /* \"#utility.yul\":1810:1811   */\n      0x00\n        /* \"#utility.yul\":1803:1818   */\n      revert\n        /* \"#utility.yul\":1830:2024   */\n    tag_17:\n        /* \"#utility.yul\":1870:1874   */\n      0x00\n        /* \"#utility.yul\":1890:1910   */\n      tag_80\n        /* \"#utility.yul\":1908:1909   */\n      dup3\n        /* \"#utility.yul\":1890:1910   */\n      tag_45\n      jump\t// in\n    tag_80:\n        /* \"#utility.yul\":1885:1910   */\n      swap2\n      pop\n        /* \"#utility.yul\":1924:1944   */\n      tag_81\n        /* \"#utility.yul\":1942:1943   */\n      dup4\n        /* \"#utility.yul\":1924:1944   */\n      tag_45\n      jump\t// in\n    tag_81:\n        /* \"#utility.yul\":1919:1944   */\n      swap3\n      pop\n        /* \"#utility.yul\":1968:1969   */\n      dup3\n        /* \"#utility.yul\":1965:1966   */\n      dup3\n        /* \"#utility.yul\":1961:1970   */\n      sub\n        /* \"#utility.yul\":1953:1970   */\n      swap1\n      pop\n        /* \"#utility.yul\":1992:1993   */\n      dup2\n        /* \"#utility.yul\":1986:1990   */\n      dup2\n        /* \"#utility.yul\":1983:1994   */\n      gt\n        /* \"#utility.yul\":1980:2017   */\n      iszero\n      tag_82\n      jumpi\n        /* \"#utility.yul\":1997:2015   */\n      tag_83\n      tag_50\n      jump\t// in\n    tag_83:\n        /* \"#utility.yul\":1980:2017   */\n    tag_82:\n        /* \"#utility.yul\":1830:2024   */\n      swap3\n      swap2\n      pop\n      pop\n      jump\t// out\n        /* \"#utility.yul\":2030:2208   */\n    tag_51:\n        /* \"#utility.yul\":2170:2200   */\n      0x4e6f20746f6b656e7320617661696c61626c6520746f20636c61696d00000000\n        /* \"#utility.yul\":2166:2167   */\n      0x00\n        /* \"#utility.yul\":2158:2164   */\n      dup3\n        /* \"#utility.yul\":2154:2168   */\n      add\n        /* \"#utility.yul\":2147:2201   */\n      mstore\n        /* \"#utility.yul\":2030:2208   */\n      pop\n      jump\t// out\n        /* \"#utility.yul\":2214:2580   */\n    tag_52:\n        /* \"#utility.yul\":2356:2359   */\n      0x00\n        /* \"#utility.yul\":2377:2444   */\n      tag_86\n        /* \"#utility.yul\":2441:2443   */\n      0x1c\n        /* \"#utility.yul\":2436:2439   */\n      dup4\n        /* \"#utility.yul\":2377:2444   */\n      tag_47\n      jump\t// in\n    tag_86:\n        /* \"#utility.yul\":2370:2444   */\n      swap2\n      pop\n        /* \"#utility.yul\":2453:2546   */\n      tag_87\n        /* \"#utility.yul\":2542:2545   */\n      dup3\n        /* \"#utility.yul\":2453:2546   */\n      tag_51\n      jump\t// in\n    tag_87:\n        /* \"#utility.yul\":2571:2573   */\n      0x20\n        /* \"#utility.yul\":2566:2569   */\n      dup3\n        /* \"#utility.yul\":2562:2574   */\n      add\n        /* \"#utility.yul\":2555:2574   */\n      swap1\n      pop\n        /* \"#utility.yul\":2214:2580   */\n      swap2\n      swap1\n      pop\n      jump\t// out\n        /* \"#utility.yul\":2586:3005   */\n    tag_20:\n        /* \"#utility.yul\":2752:2756   */\n      0x00\n        /* \"#utility.yul\":2790:2792   */\n      0x20\n        /* \"#utility.yul\":2779:2788   */\n      dup3\n        /* \"#utility.yul\":2775:2793   */\n      add\n        /* \"#utility.yul\":2767:2793   */\n      swap1\n      pop\n        /* \"#utility.yul\":2839:2848   */\n      dup2\n        /* \"#utility.yul\":2833:2837   */\n      dup2\n        /* \"#utility.yul\":2829:2849   */\n      sub\n        /* \"#utility.yul\":2825:2826   */\n      0x00\n        /* \"#utility.yul\":2814:2823   */\n      dup4\n        /* \"#utility.yul\":2810:2827   */\n      add\n        /* \"#utility.yul\":2803:2850   */\n      mstore\n        /* \"#utility.yul\":2867:2998   */\n      tag_89\n        /* \"#utility.yul\":2993:2997   */\n      dup2\n        /* \"#utility.yul\":2867:2998   */\n      tag_52\n      jump\t// in\n    tag_89:\n        /* \"#utility.yul\":2859:2998   */\n      swap1\n      pop\n        /* \"#utility.yul\":2586:3005   */\n      swap2\n      swap1\n      pop\n      jump\t// out\n        /* \"#utility.yul\":3011:3202   */\n    tag_22:\n        /* \"#utility.yul\":3051:3054   */\n      0x00\n        /* \"#utility.yul\":3070:3090   */\n      tag_91\n        /* \"#utility.yul\":3088:3089   */\n      dup3\n        /* \"#utility.yul\":3070:3090   */\n      tag_45\n      jump\t// in\n    tag_91:\n        /* \"#utility.yul\":3065:3090   */\n      swap2\n      pop\n        /* \"#utility.yul\":3104:3124   */\n      tag_92\n        /* \"#utility.yul\":3122:3123   */\n      dup4\n        /* \"#utility.yul\":3104:3124   */\n      tag_45\n      jump\t// in\n    tag_92:\n        /* \"#utility.yul\":3099:3124   */\n      swap3\n      pop\n        /* \"#utility.yul\":3147:3148   */\n      dup3\n        /* \"#utility.yul\":3144:3145   */\n      dup3\n        /* \"#utility.yul\":3140:3149   */\n      add\n        /* \"#utility.yul\":3133:3149   */\n      swap1\n      pop\n        /* \"#utility.yul\":3168:3171   */\n      dup1\n        /* \"#utility.yul\":3165:3166   */\n      dup3\n        /* \"#utility.yul\":3162:3172   */\n      gt\n        /* \"#utility.yul\":3159:3195   */\n      iszero\n      tag_93\n      jumpi\n        /* \"#utility.yul\":3175:3193   */\n      tag_94\n      tag_50\n      jump\t// in\n    tag_94:\n        /* \"#utility.yul\":3159:3195   */\n    tag_93:\n        /* \"#utility.yul\":3011:3202   */\n      swap3\n      swap2\n      pop\n      pop\n      jump\t// out\n        /* \"#utility.yul\":3208:3334   */\n    tag_53:\n        /* \"#utility.yul\":3245:3252   */\n      0x00\n        /* \"#utility.yul\":3285:3327   */\n      0xffffffffffffffffffffffffffffffffffffffff\n        /* \"#utility.yul\":3278:3283   */\n      dup3\n        /* \"#utility.yul\":3274:3328   */\n      and\n        /* \"#utility.yul\":3263:3328   */\n      swap1\n      pop\n        /* \"#utility.yul\":3208:3334   */\n      swap2\n      swap1\n      pop\n      jump\t// out\n        /* \"#utility.yul\":3340:3436   */\n    tag_54:\n        /* \"#utility.yul\":3377:3384   */\n      0x00\n        /* \"#utility.yul\":3406:3430   */\n      tag_97\n        /* \"#utility.yul\":3424:3429   */\n      dup3\n        /* \"#utility.yul\":3406:3430   */\n      tag_53\n      jump\t// in\n    tag_97:\n        /* \"#utility.yul\":3395:3430   */\n      swap1\n      pop\n        /* \"#utility.yul\":3340:3436   */\n      swap2\n      swap1\n      pop\n      jump\t// out\n        /* \"#utility.yul\":3442:3560   */\n    tag_55:\n        /* \"#utility.yul\":3529:3553   */\n      tag_99\n        /* \"#utility.yul\":3547:3552   */\n      dup2\n        /* \"#utility.yul\":3529:3553   */\n      tag_54\n      jump\t// in\n    tag_99:\n        /* \"#utility.yul\":3524:3527   */\n      dup3\n        /* \"#utility.yul\":3517:3554   */\n      mstore\n        /* \"#utility.yul\":3442:3560   */\n      pop\n      pop\n      jump\t// out\n        /* \"#utility.yul\":3566:3898   */\n    tag_24:\n        /* \"#utility.yul\":3687:3691   */\n      0x00\n        /* \"#utility.yul\":3725:3727   */\n      0x40\n        /* \"#utility.yul\":3714:3723   */\n      dup3\n        /* \"#utility.yul\":3710:3728   */\n      add\n        /* \"#utility.yul\":3702:3728   */\n      swap1\n      pop\n        /* \"#utility.yul\":3738:3809   */\n      tag_101\n        /* \"#utility.yul\":3806:3807   */\n      0x00\n        /* \"#utility.yul\":3795:3804   */\n      dup4\n        /* \"#utility.yul\":3791:3808   */\n      add\n        /* \"#utility.yul\":3782:3788   */\n      dup6\n        /* \"#utility.yul\":3738:3809   */\n      tag_55\n      jump\t// in\n    tag_101:\n        /* \"#utility.yul\":3819:3891   */\n      tag_102\n        /* \"#utility.yul\":3887:3889   */\n      0x20\n        /* \"#utility.yul\":3876:3885   */\n      dup4\n        /* \"#utility.yul\":3872:3890   */\n      add\n        /* \"#utility.yul\":3863:3869   */\n      dup5\n        /* \"#utility.yul\":3819:3891   */\n      tag_46\n      jump\t// in\n    tag_102:\n        /* \"#utility.yul\":3566:3898   */\n      swap4\n      swap3\n      pop\n      pop\n      pop\n      jump\t// out\n        /* \"#utility.yul\":3985:4102   */\n    tag_57:\n        /* \"#utility.yul\":4094:4095   */\n      0x00\n        /* \"#utility.yul\":4091:4092   */\n      dup1\n        /* \"#utility.yul\":4084:4096   */\n      revert\n        /* \"#utility.yul\":4231:4321   */\n    tag_59:\n        /* \"#utility.yul\":4265:4272   */\n      0x00\n        /* \"#utility.yul\":4308:4313   */\n      dup2\n        /* \"#utility.yul\":4301:4314   */\n      iszero\n        /* \"#utility.yul\":4294:4315   */\n      iszero\n        /* \"#utility.yul\":4283:4315   */\n      swap1\n      pop\n        /* \"#utility.yul\":4231:4321   */\n      swap2\n      swap1\n      pop\n      jump\t// out\n        /* \"#utility.yul\":4327:4443   */\n    tag_60:\n        /* \"#utility.yul\":4397:4418   */\n      tag_108\n        /* \"#utility.yul\":4412:4417   */\n      dup2\n        /* \"#utility.yul\":4397:4418   */\n      tag_59\n      jump\t// in\n    tag_108:\n        /* \"#utility.yul\":4390:4395   */\n      dup2\n        /* \"#utility.yul\":4387:4419   */\n      eq\n        /* \"#utility.yul\":4377:4437   */\n      tag_109\n      jumpi\n        /* \"#utility.yul\":4433:4434   */\n      0x00\n        /* \"#utility.yul\":4430:4431   */\n      dup1\n        /* \"#utility.yul\":4423:4435   */\n      revert\n        /* \"#utility.yul\":4377:4437   */\n    tag_109:\n        /* \"#utility.yul\":4327:4443   */\n      pop\n      jump\t// out\n        /* \"#utility.yul\":4449:4586   */\n    tag_61:\n        /* \"#utility.yul\":4503:4508   */\n      0x00\n        /* \"#utility.yul\":4534:4540   */\n      dup2\n        /* \"#utility.yul\":4528:4541   */\n      mload\n        /* \"#utility.yul\":4519:4541   */\n      swap1\n      pop\n        /* \"#utility.yul\":4550:4580   */\n      tag_111\n        /* \"#utility.yul\":4574:4579   */\n      dup2\n        /* \"#utility.yul\":4550:4580   */\n      tag_60\n      jump\t// in\n    tag_111:\n        /* \"#utility.yul\":4449:4586   */\n      swap3\n      swap2\n      pop\n      pop\n      jump\t// out\n        /* \"#utility.yul\":4592:4937   */\n    tag_27:\n        /* \"#utility.yul\":4659:4665   */\n      0x00\n        /* \"#utility.yul\":4708:4710   */\n      0x20\n        /* \"#utility.yul\":4696:4705   */\n      dup3\n        /* \"#utility.yul\":4687:4694   */\n      dup5\n        /* \"#utility.yul\":4683:4706   */\n      sub\n        /* \"#utility.yul\":4679:4711   */\n      slt\n        /* \"#utility.yul\":4676:4795   */\n      iszero\n      tag_113\n      jumpi\n        /* \"#utility.yul\":4714:4793   */\n      tag_114\n      tag_57\n      jump\t// in\n    tag_114:\n        /* \"#utility.yul\":4676:4795   */\n    tag_113:\n        /* \"#utility.yul\":4834:4835   */\n      0x00\n        /* \"#utility.yul\":4859:4920   */\n      tag_115\n        /* \"#utility.yul\":4912:4919   */\n      dup5\n        /* \"#utility.yul\":4903:4909   */\n      dup3\n        /* \"#utility.yul\":4892:4901   */\n      dup6\n        /* \"#utility.yul\":4888:4910   */\n      add\n        /* \"#utility.yul\":4859:4920   */\n      tag_61\n      jump\t// in\n    tag_115:\n        /* \"#utility.yul\":4849:4920   */\n      swap2\n      pop\n        /* \"#utility.yul\":4805:4930   */\n      pop\n        /* \"#utility.yul\":4592:4937   */\n      swap3\n      swap2\n      pop\n      pop\n      jump\t// out\n        /* \"#utility.yul\":4943:5114   */\n    tag_62:\n        /* \"#utility.yul\":5083:5106   */\n      0x546f6b656e207472616e73666572206661696c65640000000000000000000000\n        /* \"#utility.yul\":5079:5080   */\n      0x00\n        /* \"#utility.yul\":5071:5077   */\n      dup3\n        /* \"#utility.yul\":5067:5081   */\n      add\n        /* \"#utility.yul\":5060:5107   */\n      mstore\n        /* \"#utility.yul\":4943:5114   */\n      pop\n      jump\t// out\n        /* \"#utility.yul\":5120:5486   */\n    tag_63:\n        /* \"#utility.yul\":5262:5265   */\n      0x00\n        /* \"#utility.yul\":5283:5350   */\n      tag_118\n        /* \"#utility.yul\":5347:5349   */\n      0x15\n        /* \"#utility.yul\":5342:5345   */\n      dup4\n        /* \"#utility.yul\":5283:5350   */\n      tag_47\n      jump\t// in\n    tag_118:\n        /* \"#utility.yul\":5276:5350   */\n      swap2\n      pop\n        /* \"#utility.yul\":5359:5452   */\n      tag_119\n        /* \"#utility.yul\":5448:5451   */\n      dup3\n        /* \"#utility.yul\":5359:5452   */\n      tag_62\n      jump\t// in\n    tag_119:\n        /* \"#utility.yul\":5477:5479   */\n      0x20\n        /* \"#utility.yul\":5472:5475   */\n      dup3\n        /* \"#utility.yul\":5468:5480   */\n      add\n        /* \"#utility.yul\":5461:5480   */\n      swap1\n      pop\n        /* \"#utility.yul\":5120:5486   */\n      swap2\n      swap1\n      pop\n      jump\t// out\n        /* \"#utility.yul\":5492:5911   */\n    tag_34:\n        /* \"#utility.yul\":5658:5662   */\n      0x00\n        /* \"#utility.yul\":5696:5698   */\n      0x20\n        /* \"#utility.yul\":5685:5694   */\n      dup3\n        /* \"#utility.yul\":5681:5699   */\n      add\n        /* \"#utility.yul\":5673:5699   */\n      swap1\n      pop\n        /* \"#utility.yul\":5745:5754   */\n      dup2\n        /* \"#utility.yul\":5739:5743   */\n      dup2\n        /* \"#utility.yul\":5735:5755   */\n      sub\n        /* \"#utility.yul\":5731:5732   */\n      0x00\n        /* \"#utility.yul\":5720:5729   */\n      dup4\n        /* \"#utility.yul\":5716:5733   */\n      add\n        /* \"#utility.yul\":5709:5756   */\n      mstore\n        /* \"#utility.yul\":5773:5904   */\n      tag_121\n        /* \"#utility.yul\":5899:5903   */\n      dup2\n        /* \"#utility.yul\":5773:5904   */\n      tag_63\n      jump\t// in\n    tag_121:\n        /* \"#utility.yul\":5765:5904   */\n      swap1\n      pop\n        /* \"#utility.yul\":5492:5911   */\n      swap2\n      swap1\n      pop\n      jump\t// out\n        /* \"#utility.yul\":5917:6327   */\n    tag_42:\n        /* \"#utility.yul\":5957:5964   */\n      0x00\n        /* \"#utility.yul\":5980:6000   */\n      tag_123\n        /* \"#utility.yul\":5998:5999   */\n      dup3\n        /* \"#utility.yul\":5980:6000   */\n      tag_45\n      jump\t// in\n    tag_123:\n        /* \"#utility.yul\":5975:6000   */\n      swap2\n      pop\n        /* \"#utility.yul\":6014:6034   */\n      tag_124\n        /* \"#utility.yul\":6032:6033   */\n      dup4\n        /* \"#utility.yul\":6014:6034   */\n      tag_45\n      jump\t// in\n    tag_124:\n        /* \"#utility.yul\":6009:6034   */\n      swap3\n      pop\n        /* \"#utility.yul\":6069:6070   */\n      dup3\n        /* \"#utility.yul\":6066:6067   */\n      dup3\n        /* \"#utility.yul\":6062:6071   */\n      mul\n        /* \"#utility.yul\":6091:6121   */\n      tag_125\n        /* \"#utility.yul\":6109:6120   */\n      dup2\n        /* \"#utility.yul\":6091:6121   */\n      tag_45\n      jump\t// in\n    tag_125:\n        /* \"#utility.yul\":6080:6121   */\n      swap2\n      pop\n        /* \"#utility.yul\":6270:6271   */\n      dup3\n        /* \"#utility.yul\":6261:6268   */\n      dup3\n        /* \"#utility.yul\":6257:6272   */\n      div\n        /* \"#utility.yul\":6254:6255   */\n      dup5\n        /* \"#utility.yul\":6251:6273   */\n      eq\n        /* \"#utility.yul\":6231:6232   */\n      dup4\n        /* \"#utility.yul\":6224:6233   */\n      iszero\n        /* \"#utility.yul\":6204:6287   */\n      or\n        /* \"#utility.yul\":6181:6320   */\n      tag_126\n      jumpi\n        /* \"#utility.yul\":6300:6318   */\n      tag_127\n      tag_50\n      jump\t// in\n    tag_127:\n        /* \"#utility.yul\":6181:6320   */\n    tag_126:\n        /* \"#utility.yul\":5965:6327   */\n      pop\n        /* \"#utility.yul\":5917:6327   */\n      swap3\n      swap2\n      pop\n      pop\n      jump\t// out\n        /* \"#utility.yul\":6333:6513   */\n    tag_64:\n        /* \"#utility.yul\":6381:6458   */\n      0x4e487b7100000000000000000000000000000000000000000000000000000000\n        /* \"#utility.yul\":6378:6379   */\n      0x00\n        /* \"#utility.yul\":6371:6459   */\n      mstore\n        /* \"#utility.yul\":6478:6482   */\n      0x12\n        /* \"#utility.yul\":6475:6476   */\n      0x04\n        /* \"#utility.yul\":6468:6483   */\n      mstore\n        /* \"#utility.yul\":6502:6506   */\n      0x24\n        /* \"#utility.yul\":6499:6500   */\n      0x00\n        /* \"#utility.yul\":6492:6507   */\n      revert\n        /* \"#utility.yul\":6519:6704   */\n    tag_44:\n        /* \"#utility.yul\":6559:6560   */\n      0x00\n        /* \"#utility.yul\":6576:6596   */\n      tag_130\n        /* \"#utility.yul\":6594:6595   */\n      dup3\n        /* \"#utility.yul\":6576:6596   */\n      tag_45\n      jump\t// in\n    tag_130:\n        /* \"#utility.yul\":6571:6596   */\n      swap2\n      pop\n        /* \"#utility.yul\":6610:6630   */\n      tag_131\n        /* \"#utility.yul\":6628:6629   */\n      dup4\n        /* \"#utility.yul\":6610:6630   */\n      tag_45\n      jump\t// in\n    tag_131:\n        /* \"#utility.yul\":6605:6630   */\n      swap3\n      pop\n        /* \"#utility.yul\":6649:6650   */\n      dup3\n        /* \"#utility.yul\":6639:6674   */\n      tag_132\n      jumpi\n        /* \"#utility.yul\":6654:6672   */\n      tag_133\n      tag_64\n      jump\t// in\n    tag_133:\n        /* \"#utility.yul\":6639:6674   */\n    tag_132:\n        /* \"#utility.yul\":6696:6697   */\n      dup3\n        /* \"#utility.yul\":6693:6694   */\n      dup3\n        /* \"#utility.yul\":6689:6698   */\n      div\n        /* \"#utility.yul\":6684:6698   */\n      swap1\n      pop\n        /* \"#utility.yul\":6519:6704   */\n      swap3\n      swap2\n      pop\n      pop\n      jump\t// out\n\n    auxdata: 0xa26469706673582212204ba74d97cc552fdc4972b073c9b2452e99da1b4f5dac97bd9a0c715cb54ad6da64736f6c634300081a0033\n}\n",
				"bytecode": {
					"linkReferences": {},
					"object": "608060405234801561000f575f80fd5b50604051610c84380380610c84833981810160405281019061003191906102fa565b5f73ffffffffffffffffffffffffffffffffffffffff168473ffffffffffffffffffffffffffffffffffffffff160361009f576040517f08c379a0000000000000000000000000000000000000000000000000000000008152600401610096906103b8565b60405180910390fd5b5f73ffffffffffffffffffffffffffffffffffffffff168373ffffffffffffffffffffffffffffffffffffffff160361010d576040517f08c379a000000000000000000000000000000000000000000000000000000000815260040161010490610446565b60405180910390fd5b5f811161014f576040517f08c379a0000000000000000000000000000000000000000000000000000000008152600401610146906104d4565b60405180910390fd5b5f8211610191576040517f08c379a000000000000000000000000000000000000000000000000000000000815260040161018890610562565b60405180910390fd5b835f806101000a81548173ffffffffffffffffffffffffffffffffffffffff021916908373ffffffffffffffffffffffffffffffffffffffff1602179055508260015f6101000a81548173ffffffffffffffffffffffffffffffffffffffff021916908373ffffffffffffffffffffffffffffffffffffffff16021790555081600481905550806003819055504260028190555050505050610580565b5f80fd5b5f73ffffffffffffffffffffffffffffffffffffffff82169050919050565b5f61025b82610232565b9050919050565b5f61026c82610251565b9050919050565b61027c81610262565b8114610286575f80fd5b50565b5f8151905061029781610273565b92915050565b6102a681610251565b81146102b0575f80fd5b50565b5f815190506102c18161029d565b92915050565b5f819050919050565b6102d9816102c7565b81146102e3575f80fd5b50565b5f815190506102f4816102d0565b92915050565b5f805f80608085870312156103125761031161022e565b5b5f61031f87828801610289565b9450506020610330878288016102b3565b9350506040610341878288016102e6565b9250506060610352878288016102e6565b91505092959194509250565b5f82825260208201905092915050565b7f546f6b656e20616464726573732063616e6e6f74206265207a65726f000000005f82015250565b5f6103a2601c8361035e565b91506103ad8261036e565b602082019050919050565b5f6020820190508181035f8301526103cf81610396565b9050919050565b7f42656e65666963696172792063616e6e6f74206265207a65726f2061646472655f8201527f7373000000000000000000000000000000000000000000000000000000000000602082015250565b5f61043060228361035e565b915061043b826103d6565b604082019050919050565b5f6020820190508181035f83015261045d81610424565b9050919050565b7f56657374696e67206475726174696f6e206d75737420626520677265617465725f8201527f207468616e207a65726f00000000000000000000000000000000000000000000602082015250565b5f6104be602a8361035e565b91506104c982610464565b604082019050919050565b5f6020820190508181035f8301526104eb816104b2565b9050919050565b7f546f74616c20746f6b656e73206d7573742062652067726561746572207468615f8201527f6e207a65726f0000000000000000000000000000000000000000000000000000602082015250565b5f61054c60268361035e565b9150610557826104f2565b604082019050919050565b5f6020820190508181035f83015261057981610540565b9050919050565b6106f78061058d5f395ff3fe608060405234801561000f575f80fd5b5060043610610034575f3560e01c806348c54b9d146100385780635330a6a214610042575b5f80fd5b610040610060565b005b61004a6102d1565b604051610057919061033f565b60405180910390f35b60015f9054906101000a900473ffffffffffffffffffffffffffffffffffffffff1673ffffffffffffffffffffffffffffffffffffffff163373ffffffffffffffffffffffffffffffffffffffff16146100ef576040517f08c379a00000000000000000000000000000000000000000000000000000000081526004016100e6906103d8565b60405180910390fd5b5f6100f86102d1565b90505f600554826101099190610423565b90505f811161014d576040517f08c379a0000000000000000000000000000000000000000000000000000000008152600401610144906104a0565b60405180910390fd5b8060055f82825461015e91906104be565b925050819055505f8054906101000a900473ffffffffffffffffffffffffffffffffffffffff1673ffffffffffffffffffffffffffffffffffffffff1663a9059cbb60015f9054906101000a900473ffffffffffffffffffffffffffffffffffffffff16836040518363ffffffff1660e01b81526004016101e0929190610530565b6020604051808303815f875af192505050801561021b57506040513d601f19601f820116820180604052508101906102189190610590565b60015b610272578060055f8282546102309190610423565b925050819055506040517f08c379a000000000000000000000000000000000000000000000000000000000815260040161026990610605565b60405180910390fd5b507f896e034966eaaf1adc54acc0f257056febbd300c9e47182cf761982cf1f5e43060015f9054906101000a900473ffffffffffffffffffffffffffffffffffffffff16826040516102c5929190610530565b60405180910390a15050565b5f6002544210156102e4575f9050610324565b5f600254426102f39190610423565b90506003548111156103055760035490505b600354816004546103169190610623565b6103209190610691565b9150505b90565b5f819050919050565b61033981610327565b82525050565b5f6020820190506103525f830184610330565b92915050565b5f82825260208201905092915050565b7f4f6e6c79207468652062656e65666963696172792063616e20636c61696d20745f8201527f6f6b656e73000000000000000000000000000000000000000000000000000000602082015250565b5f6103c2602583610358565b91506103cd82610368565b604082019050919050565b5f6020820190508181035f8301526103ef816103b6565b9050919050565b7f4e487b71000000000000000000000000000000000000000000000000000000005f52601160045260245ffd5b5f61042d82610327565b915061043883610327565b92508282039050818111156104505761044f6103f6565b5b92915050565b7f4e6f20746f6b656e7320617661696c61626c6520746f20636c61696d000000005f82015250565b5f61048a601c83610358565b915061049582610456565b602082019050919050565b5f6020820190508181035f8301526104b78161047e565b9050919050565b5f6104c882610327565b91506104d383610327565b92508282019050808211156104eb576104ea6103f6565b5b92915050565b5f73ffffffffffffffffffffffffffffffffffffffff82169050919050565b5f61051a826104f1565b9050919050565b61052a81610510565b82525050565b5f6040820190506105435f830185610521565b6105506020830184610330565b9392505050565b5f80fd5b5f8115159050919050565b61056f8161055b565b8114610579575f80fd5b50565b5f8151905061058a81610566565b92915050565b5f602082840312156105a5576105a4610557565b5b5f6105b28482850161057c565b91505092915050565b7f546f6b656e207472616e73666572206661696c656400000000000000000000005f82015250565b5f6105ef601583610358565b91506105fa826105bb565b602082019050919050565b5f6020820190508181035f83015261061c816105e3565b9050919050565b5f61062d82610327565b915061063883610327565b925082820261064681610327565b9150828204841483151761065d5761065c6103f6565b5b5092915050565b7f4e487b71000000000000000000000000000000000000000000000000000000005f52601260045260245ffd5b5f61069b82610327565b91506106a683610327565b9250826106b6576106b5610664565b5b82820490509291505056fea26469706673582212204ba74d97cc552fdc4972b073c9b2452e99da1b4f5dac97bd9a0c715cb54ad6da64736f6c634300081a0033",
					"opcodes": "PUSH1 0x80 PUSH1 0x40 MSTORE CALLVALUE DUP1 ISZERO PUSH2 0xF JUMPI PUSH0 DUP1 REVERT JUMPDEST POP PUSH1 0x40 MLOAD PUSH2 0xC84 CODESIZE SUB DUP1 PUSH2 0xC84 DUP4 CODECOPY DUP2 DUP2 ADD PUSH1 0x40 MSTORE DUP2 ADD SWAP1 PUSH2 0x31 SWAP2 SWAP1 PUSH2 0x2FA JUMP JUMPDEST PUSH0 PUSH20 0xFFFFFFFFFFFFFFFFFFFFFFFFFFFFFFFFFFFFFFFF AND DUP5 PUSH20 0xFFFFFFFFFFFFFFFFFFFFFFFFFFFFFFFFFFFFFFFF AND SUB PUSH2 0x9F JUMPI PUSH1 0x40 MLOAD PUSH32 0x8C379A000000000000000000000000000000000000000000000000000000000 DUP2 MSTORE PUSH1 0x4 ADD PUSH2 0x96 SWAP1 PUSH2 0x3B8 JUMP JUMPDEST PUSH1 0x40 MLOAD DUP1 SWAP2 SUB SWAP1 REVERT JUMPDEST PUSH0 PUSH20 0xFFFFFFFFFFFFFFFFFFFFFFFFFFFFFFFFFFFFFFFF AND DUP4 PUSH20 0xFFFFFFFFFFFFFFFFFFFFFFFFFFFFFFFFFFFFFFFF AND SUB PUSH2 0x10D JUMPI PUSH1 0x40 MLOAD PUSH32 0x8C379A000000000000000000000000000000000000000000000000000000000 DUP2 MSTORE PUSH1 0x4 ADD PUSH2 0x104 SWAP1 PUSH2 0x446 JUMP JUMPDEST PUSH1 0x40 MLOAD DUP1 SWAP2 SUB SWAP1 REVERT JUMPDEST PUSH0 DUP2 GT PUSH2 0x14F JUMPI PUSH1 0x40 MLOAD PUSH32 0x8C379A000000000000000000000000000000000000000000000000000000000 DUP2 MSTORE PUSH1 0x4 ADD PUSH2 0x146 SWAP1 PUSH2 0x4D4 JUMP JUMPDEST PUSH1 0x40 MLOAD DUP1 SWAP2 SUB SWAP1 REVERT JUMPDEST PUSH0 DUP3 GT PUSH2 0x191 JUMPI PUSH1 0x40 MLOAD PUSH32 0x8C379A000000000000000000000000000000000000000000000000000000000 DUP2 MSTORE PUSH1 0x4 ADD PUSH2 0x188 SWAP1 PUSH2 0x562 JUMP JUMPDEST PUSH1 0x40 MLOAD DUP1 SWAP2 SUB SWAP1 REVERT JUMPDEST DUP4 PUSH0 DUP1 PUSH2 0x100 EXP DUP2 SLOAD DUP2 PUSH20 0xFFFFFFFFFFFFFFFFFFFFFFFFFFFFFFFFFFFFFFFF MUL NOT AND SWAP1 DUP4 PUSH20 0xFFFFFFFFFFFFFFFFFFFFFFFFFFFFFFFFFFFFFFFF AND MUL OR SWAP1 SSTORE POP DUP3 PUSH1 0x1 PUSH0 PUSH2 0x100 EXP DUP2 SLOAD DUP2 PUSH20 0xFFFFFFFFFFFFFFFFFFFFFFFFFFFFFFFFFFFFFFFF MUL NOT AND SWAP1 DUP4 PUSH20 0xFFFFFFFFFFFFFFFFFFFFFFFFFFFFFFFFFFFFFFFF AND MUL OR SWAP1 SSTORE POP DUP2 PUSH1 0x4 DUP2 SWAP1 SSTORE POP DUP1 PUSH1 0x3 DUP2 SWAP1 SSTORE POP TIMESTAMP PUSH1 0x2 DUP2 SWAP1 SSTORE POP POP POP POP POP PUSH2 0x580 JUMP JUMPDEST PUSH0 DUP1 REVERT JUMPDEST PUSH0 PUSH20 0xFFFFFFFFFFFFFFFFFFFFFFFFFFFFFFFFFFFFFFFF DUP3 AND SWAP1 POP SWAP2 SWAP1 POP JUMP JUMPDEST PUSH0 PUSH2 0x25B DUP3 PUSH2 0x232 JUMP JUMPDEST SWAP1 POP SWAP2 SWAP1 POP JUMP JUMPDEST PUSH0 PUSH2 0x26C DUP3 PUSH2 0x251 JUMP JUMPDEST SWAP1 POP SWAP2 SWAP1 POP JUMP JUMPDEST PUSH2 0x27C DUP2 PUSH2 0x262 JUMP JUMPDEST DUP2 EQ PUSH2 0x286 JUMPI PUSH0 DUP1 REVERT JUMPDEST POP JUMP JUMPDEST PUSH0 DUP2 MLOAD SWAP1 POP PUSH2 0x297 DUP2 PUSH2 0x273 JUMP JUMPDEST SWAP3 SWAP2 POP POP JUMP JUMPDEST PUSH2 0x2A6 DUP2 PUSH2 0x251 JUMP JUMPDEST DUP2 EQ PUSH2 0x2B0 JUMPI PUSH0 DUP1 REVERT JUMPDEST POP JUMP JUMPDEST PUSH0 DUP2 MLOAD SWAP1 POP PUSH2 0x2C1 DUP2 PUSH2 0x29D JUMP JUMPDEST SWAP3 SWAP2 POP POP JUMP JUMPDEST PUSH0 DUP2 SWAP1 POP SWAP2 SWAP1 POP JUMP JUMPDEST PUSH2 0x2D9 DUP2 PUSH2 0x2C7 JUMP JUMPDEST DUP2 EQ PUSH2 0x2E3 JUMPI PUSH0 DUP1 REVERT JUMPDEST POP JUMP JUMPDEST PUSH0 DUP2 MLOAD SWAP1 POP PUSH2 0x2F4 DUP2 PUSH2 0x2D0 JUMP JUMPDEST SWAP3 SWAP2 POP POP JUMP JUMPDEST PUSH0 DUP1 PUSH0 DUP1 PUSH1 0x80 DUP6 DUP8 SUB SLT ISZERO PUSH2 0x312 JUMPI PUSH2 0x311 PUSH2 0x22E JUMP JUMPDEST JUMPDEST PUSH0 PUSH2 0x31F DUP8 DUP3 DUP9 ADD PUSH2 0x289 JUMP JUMPDEST SWAP5 POP POP PUSH1 0x20 PUSH2 0x330 DUP8 DUP3 DUP9 ADD PUSH2 0x2B3 JUMP JUMPDEST SWAP4 POP POP PUSH1 0x40 PUSH2 0x341 DUP8 DUP3 DUP9 ADD PUSH2 0x2E6 JUMP JUMPDEST SWAP3 POP POP PUSH1 0x60 PUSH2 0x352 DUP8 DUP3 DUP9 ADD PUSH2 0x2E6 JUMP JUMPDEST SWAP2 POP POP SWAP3 SWAP6 SWAP2 SWAP5 POP SWAP3 POP JUMP JUMPDEST PUSH0 DUP3 DUP3 MSTORE PUSH1 0x20 DUP3 ADD SWAP1 POP SWAP3 SWAP2 POP POP JUMP JUMPDEST PUSH32 0x546F6B656E20616464726573732063616E6E6F74206265207A65726F00000000 PUSH0 DUP3 ADD MSTORE POP JUMP JUMPDEST PUSH0 PUSH2 0x3A2 PUSH1 0x1C DUP4 PUSH2 0x35E JUMP JUMPDEST SWAP2 POP PUSH2 0x3AD DUP3 PUSH2 0x36E JUMP JUMPDEST PUSH1 0x20 DUP3 ADD SWAP1 POP SWAP2 SWAP1 POP JUMP JUMPDEST PUSH0 PUSH1 0x20 DUP3 ADD SWAP1 POP DUP2 DUP2 SUB PUSH0 DUP4 ADD MSTORE PUSH2 0x3CF DUP2 PUSH2 0x396 JUMP JUMPDEST SWAP1 POP SWAP2 SWAP1 POP JUMP JUMPDEST PUSH32 0x42656E65666963696172792063616E6E6F74206265207A65726F206164647265 PUSH0 DUP3 ADD MSTORE PUSH32 0x7373000000000000000000000000000000000000000000000000000000000000 PUSH1 0x20 DUP3 ADD MSTORE POP JUMP JUMPDEST PUSH0 PUSH2 0x430 PUSH1 0x22 DUP4 PUSH2 0x35E JUMP JUMPDEST SWAP2 POP PUSH2 0x43B DUP3 PUSH2 0x3D6 JUMP JUMPDEST PUSH1 0x40 DUP3 ADD SWAP1 POP SWAP2 SWAP1 POP JUMP JUMPDEST PUSH0 PUSH1 0x20 DUP3 ADD SWAP1 POP DUP2 DUP2 SUB PUSH0 DUP4 ADD MSTORE PUSH2 0x45D DUP2 PUSH2 0x424 JUMP JUMPDEST SWAP1 POP SWAP2 SWAP1 POP JUMP JUMPDEST PUSH32 0x56657374696E67206475726174696F6E206D7573742062652067726561746572 PUSH0 DUP3 ADD MSTORE PUSH32 0x207468616E207A65726F00000000000000000000000000000000000000000000 PUSH1 0x20 DUP3 ADD MSTORE POP JUMP JUMPDEST PUSH0 PUSH2 0x4BE PUSH1 0x2A DUP4 PUSH2 0x35E JUMP JUMPDEST SWAP2 POP PUSH2 0x4C9 DUP3 PUSH2 0x464 JUMP JUMPDEST PUSH1 0x40 DUP3 ADD SWAP1 POP SWAP2 SWAP1 POP JUMP JUMPDEST PUSH0 PUSH1 0x20 DUP3 ADD SWAP1 POP DUP2 DUP2 SUB PUSH0 DUP4 ADD MSTORE PUSH2 0x4EB DUP2 PUSH2 0x4B2 JUMP JUMPDEST SWAP1 POP SWAP2 SWAP1 POP JUMP JUMPDEST PUSH32 0x546F74616C20746F6B656E73206D757374206265206772656174657220746861 PUSH0 DUP3 ADD MSTORE PUSH32 0x6E207A65726F0000000000000000000000000000000000000000000000000000 PUSH1 0x20 DUP3 ADD MSTORE POP JUMP JUMPDEST PUSH0 PUSH2 0x54C PUSH1 0x26 DUP4 PUSH2 0x35E JUMP JUMPDEST SWAP2 POP PUSH2 0x557 DUP3 PUSH2 0x4F2 JUMP JUMPDEST PUSH1 0x40 DUP3 ADD SWAP1 POP SWAP2 SWAP1 POP JUMP JUMPDEST PUSH0 PUSH1 0x20 DUP3 ADD SWAP1 POP DUP2 DUP2 SUB PUSH0 DUP4 ADD MSTORE PUSH2 0x579 DUP2 PUSH2 0x540 JUMP JUMPDEST SWAP1 POP SWAP2 SWAP1 POP JUMP JUMPDEST PUSH2 0x6F7 DUP1 PUSH2 0x58D PUSH0 CODECOPY PUSH0 RETURN INVALID PUSH1 0x80 PUSH1 0x40 MSTORE CALLVALUE DUP1 ISZERO PUSH2 0xF JUMPI PUSH0 DUP1 REVERT JUMPDEST POP PUSH1 0x4 CALLDATASIZE LT PUSH2 0x34 JUMPI PUSH0 CALLDATALOAD PUSH1 0xE0 SHR DUP1 PUSH4 0x48C54B9D EQ PUSH2 0x38 JUMPI DUP1 PUSH4 0x5330A6A2 EQ PUSH2 0x42 JUMPI JUMPDEST PUSH0 DUP1 REVERT JUMPDEST PUSH2 0x40 PUSH2 0x60 JUMP JUMPDEST STOP JUMPDEST PUSH2 0x4A PUSH2 0x2D1 JUMP JUMPDEST PUSH1 0x40 MLOAD PUSH2 0x57 SWAP2 SWAP1 PUSH2 0x33F JUMP JUMPDEST PUSH1 0x40 MLOAD DUP1 SWAP2 SUB SWAP1 RETURN JUMPDEST PUSH1 0x1 PUSH0 SWAP1 SLOAD SWAP1 PUSH2 0x100 EXP SWAP1 DIV PUSH20 0xFFFFFFFFFFFFFFFFFFFFFFFFFFFFFFFFFFFFFFFF AND PUSH20 0xFFFFFFFFFFFFFFFFFFFFFFFFFFFFFFFFFFFFFFFF AND CALLER PUSH20 0xFFFFFFFFFFFFFFFFFFFFFFFFFFFFFFFFFFFFFFFF AND EQ PUSH2 0xEF JUMPI PUSH1 0x40 MLOAD PUSH32 0x8C379A000000000000000000000000000000000000000000000000000000000 DUP2 MSTORE PUSH1 0x4 ADD PUSH2 0xE6 SWAP1 PUSH2 0x3D8 JUMP JUMPDEST PUSH1 0x40 MLOAD DUP1 SWAP2 SUB SWAP1 REVERT JUMPDEST PUSH0 PUSH2 0xF8 PUSH2 0x2D1 JUMP JUMPDEST SWAP1 POP PUSH0 PUSH1 0x5 SLOAD DUP3 PUSH2 0x109 SWAP2 SWAP1 PUSH2 0x423 JUMP JUMPDEST SWAP1 POP PUSH0 DUP2 GT PUSH2 0x14D JUMPI PUSH1 0x40 MLOAD PUSH32 0x8C379A000000000000000000000000000000000000000000000000000000000 DUP2 MSTORE PUSH1 0x4 ADD PUSH2 0x144 SWAP1 PUSH2 0x4A0 JUMP JUMPDEST PUSH1 0x40 MLOAD DUP1 SWAP2 SUB SWAP1 REVERT JUMPDEST DUP1 PUSH1 0x5 PUSH0 DUP3 DUP3 SLOAD PUSH2 0x15E SWAP2 SWAP1 PUSH2 0x4BE JUMP JUMPDEST SWAP3 POP POP DUP2 SWAP1 SSTORE POP PUSH0 DUP1 SLOAD SWAP1 PUSH2 0x100 EXP SWAP1 DIV PUSH20 0xFFFFFFFFFFFFFFFFFFFFFFFFFFFFFFFFFFFFFFFF AND PUSH20 0xFFFFFFFFFFFFFFFFFFFFFFFFFFFFFFFFFFFFFFFF AND PUSH4 0xA9059CBB PUSH1 0x1 PUSH0 SWAP1 SLOAD SWAP1 PUSH2 0x100 EXP SWAP1 DIV PUSH20 0xFFFFFFFFFFFFFFFFFFFFFFFFFFFFFFFFFFFFFFFF AND DUP4 PUSH1 0x40 MLOAD DUP4 PUSH4 0xFFFFFFFF AND PUSH1 0xE0 SHL DUP2 MSTORE PUSH1 0x4 ADD PUSH2 0x1E0 SWAP3 SWAP2 SWAP1 PUSH2 0x530 JUMP JUMPDEST PUSH1 0x20 PUSH1 0x40 MLOAD DUP1 DUP4 SUB DUP2 PUSH0 DUP8 GAS CALL SWAP3 POP POP POP DUP1 ISZERO PUSH2 0x21B JUMPI POP PUSH1 0x40 MLOAD RETURNDATASIZE PUSH1 0x1F NOT PUSH1 0x1F DUP3 ADD AND DUP3 ADD DUP1 PUSH1 0x40 MSTORE POP DUP2 ADD SWAP1 PUSH2 0x218 SWAP2 SWAP1 PUSH2 0x590 JUMP JUMPDEST PUSH1 0x1 JUMPDEST PUSH2 0x272 JUMPI DUP1 PUSH1 0x5 PUSH0 DUP3 DUP3 SLOAD PUSH2 0x230 SWAP2 SWAP1 PUSH2 0x423 JUMP JUMPDEST SWAP3 POP POP DUP2 SWAP1 SSTORE POP PUSH1 0x40 MLOAD PUSH32 0x8C379A000000000000000000000000000000000000000000000000000000000 DUP2 MSTORE PUSH1 0x4 ADD PUSH2 0x269 SWAP1 PUSH2 0x605 JUMP JUMPDEST PUSH1 0x40 MLOAD DUP1 SWAP2 SUB SWAP1 REVERT JUMPDEST POP PUSH32 0x896E034966EAAF1ADC54ACC0F257056FEBBD300C9E47182CF761982CF1F5E430 PUSH1 0x1 PUSH0 SWAP1 SLOAD SWAP1 PUSH2 0x100 EXP SWAP1 DIV PUSH20 0xFFFFFFFFFFFFFFFFFFFFFFFFFFFFFFFFFFFFFFFF AND DUP3 PUSH1 0x40 MLOAD PUSH2 0x2C5 SWAP3 SWAP2 SWAP1 PUSH2 0x530 JUMP JUMPDEST PUSH1 0x40 MLOAD DUP1 SWAP2 SUB SWAP1 LOG1 POP POP JUMP JUMPDEST PUSH0 PUSH1 0x2 SLOAD TIMESTAMP LT ISZERO PUSH2 0x2E4 JUMPI PUSH0 SWAP1 POP PUSH2 0x324 JUMP JUMPDEST PUSH0 PUSH1 0x2 SLOAD TIMESTAMP PUSH2 0x2F3 SWAP2 SWAP1 PUSH2 0x423 JUMP JUMPDEST SWAP1 POP PUSH1 0x3 SLOAD DUP2 GT ISZERO PUSH2 0x305 JUMPI PUSH1 0x3 SLOAD SWAP1 POP JUMPDEST PUSH1 0x3 SLOAD DUP2 PUSH1 0x4 SLOAD PUSH2 0x316 SWAP2 SWAP1 PUSH2 0x623 JUMP JUMPDEST PUSH2 0x320 SWAP2 SWAP1 PUSH2 0x691 JUMP JUMPDEST SWAP2 POP POP JUMPDEST SWAP1 JUMP JUMPDEST PUSH0 DUP2 SWAP1 POP SWAP2 SWAP1 POP JUMP JUMPDEST PUSH2 0x339 DUP2 PUSH2 0x327 JUMP JUMPDEST DUP3 MSTORE POP POP JUMP JUMPDEST PUSH0 PUSH1 0x20 DUP3 ADD SWAP1 POP PUSH2 0x352 PUSH0 DUP4 ADD DUP5 PUSH2 0x330 JUMP JUMPDEST SWAP3 SWAP2 POP POP JUMP JUMPDEST PUSH0 DUP3 DUP3 MSTORE PUSH1 0x20 DUP3 ADD SWAP1 POP SWAP3 SWAP2 POP POP JUMP JUMPDEST PUSH32 0x4F6E6C79207468652062656E65666963696172792063616E20636C61696D2074 PUSH0 DUP3 ADD MSTORE PUSH32 0x6F6B656E73000000000000000000000000000000000000000000000000000000 PUSH1 0x20 DUP3 ADD MSTORE POP JUMP JUMPDEST PUSH0 PUSH2 0x3C2 PUSH1 0x25 DUP4 PUSH2 0x358 JUMP JUMPDEST SWAP2 POP PUSH2 0x3CD DUP3 PUSH2 0x368 JUMP JUMPDEST PUSH1 0x40 DUP3 ADD SWAP1 POP SWAP2 SWAP1 POP JUMP JUMPDEST PUSH0 PUSH1 0x20 DUP3 ADD SWAP1 POP DUP2 DUP2 SUB PUSH0 DUP4 ADD MSTORE PUSH2 0x3EF DUP2 PUSH2 0x3B6 JUMP JUMPDEST SWAP1 POP SWAP2 SWAP1 POP JUMP JUMPDEST PUSH32 0x4E487B7100000000000000000000000000000000000000000000000000000000 PUSH0 MSTORE PUSH1 0x11 PUSH1 0x4 MSTORE PUSH1 0x24 PUSH0 REVERT JUMPDEST PUSH0 PUSH2 0x42D DUP3 PUSH2 0x327 JUMP JUMPDEST SWAP2 POP PUSH2 0x438 DUP4 PUSH2 0x327 JUMP JUMPDEST SWAP3 POP DUP3 DUP3 SUB SWAP1 POP DUP2 DUP2 GT ISZERO PUSH2 0x450 JUMPI PUSH2 0x44F PUSH2 0x3F6 JUMP JUMPDEST JUMPDEST SWAP3 SWAP2 POP POP JUMP JUMPDEST PUSH32 0x4E6F20746F6B656E7320617661696C61626C6520746F20636C61696D00000000 PUSH0 DUP3 ADD MSTORE POP JUMP JUMPDEST PUSH0 PUSH2 0x48A PUSH1 0x1C DUP4 PUSH2 0x358 JUMP JUMPDEST SWAP2 POP PUSH2 0x495 DUP3 PUSH2 0x456 JUMP JUMPDEST PUSH1 0x20 DUP3 ADD SWAP1 POP SWAP2 SWAP1 POP JUMP JUMPDEST PUSH0 PUSH1 0x20 DUP3 ADD SWAP1 POP DUP2 DUP2 SUB PUSH0 DUP4 ADD MSTORE PUSH2 0x4B7 DUP2 PUSH2 0x47E JUMP JUMPDEST SWAP1 POP SWAP2 SWAP1 POP JUMP JUMPDEST PUSH0 PUSH2 0x4C8 DUP3 PUSH2 0x327 JUMP JUMPDEST SWAP2 POP PUSH2 0x4D3 DUP4 PUSH2 0x327 JUMP JUMPDEST SWAP3 POP DUP3 DUP3 ADD SWAP1 POP DUP1 DUP3 GT ISZERO PUSH2 0x4EB JUMPI PUSH2 0x4EA PUSH2 0x3F6 JUMP JUMPDEST JUMPDEST SWAP3 SWAP2 POP POP JUMP JUMPDEST PUSH0 PUSH20 0xFFFFFFFFFFFFFFFFFFFFFFFFFFFFFFFFFFFFFFFF DUP3 AND SWAP1 POP SWAP2 SWAP1 POP JUMP JUMPDEST PUSH0 PUSH2 0x51A DUP3 PUSH2 0x4F1 JUMP JUMPDEST SWAP1 POP SWAP2 SWAP1 POP JUMP JUMPDEST PUSH2 0x52A DUP2 PUSH2 0x510 JUMP JUMPDEST DUP3 MSTORE POP POP JUMP JUMPDEST PUSH0 PUSH1 0x40 DUP3 ADD SWAP1 POP PUSH2 0x543 PUSH0 DUP4 ADD DUP6 PUSH2 0x521 JUMP JUMPDEST PUSH2 0x550 PUSH1 0x20 DUP4 ADD DUP5 PUSH2 0x330 JUMP JUMPDEST SWAP4 SWAP3 POP POP POP JUMP JUMPDEST PUSH0 DUP1 REVERT JUMPDEST PUSH0 DUP2 ISZERO ISZERO SWAP1 POP SWAP2 SWAP1 POP JUMP JUMPDEST PUSH2 0x56F DUP2 PUSH2 0x55B JUMP JUMPDEST DUP2 EQ PUSH2 0x579 JUMPI PUSH0 DUP1 REVERT JUMPDEST POP JUMP JUMPDEST PUSH0 DUP2 MLOAD SWAP1 POP PUSH2 0x58A DUP2 PUSH2 0x566 JUMP JUMPDEST SWAP3 SWAP2 POP POP JUMP JUMPDEST PUSH0 PUSH1 0x20 DUP3 DUP5 SUB SLT ISZERO PUSH2 0x5A5 JUMPI PUSH2 0x5A4 PUSH2 0x557 JUMP JUMPDEST JUMPDEST PUSH0 PUSH2 0x5B2 DUP5 DUP3 DUP6 ADD PUSH2 0x57C JUMP JUMPDEST SWAP2 POP POP SWAP3 SWAP2 POP POP JUMP JUMPDEST PUSH32 0x546F6B656E207472616E73666572206661696C65640000000000000000000000 PUSH0 DUP3 ADD MSTORE POP JUMP JUMPDEST PUSH0 PUSH2 0x5EF PUSH1 0x15 DUP4 PUSH2 0x358 JUMP JUMPDEST SWAP2 POP PUSH2 0x5FA DUP3 PUSH2 0x5BB JUMP JUMPDEST PUSH1 0x20 DUP3 ADD SWAP1 POP SWAP2 SWAP1 POP JUMP JUMPDEST PUSH0 PUSH1 0x20 DUP3 ADD SWAP1 POP DUP2 DUP2 SUB PUSH0 DUP4 ADD MSTORE PUSH2 0x61C DUP2 PUSH2 0x5E3 JUMP JUMPDEST SWAP1 POP SWAP2 SWAP1 POP JUMP JUMPDEST PUSH0 PUSH2 0x62D DUP3 PUSH2 0x327 JUMP JUMPDEST SWAP2 POP PUSH2 0x638 DUP4 PUSH2 0x327 JUMP JUMPDEST SWAP3 POP DUP3 DUP3 MUL PUSH2 0x646 DUP2 PUSH2 0x327 JUMP JUMPDEST SWAP2 POP DUP3 DUP3 DIV DUP5 EQ DUP4 ISZERO OR PUSH2 0x65D JUMPI PUSH2 0x65C PUSH2 0x3F6 JUMP JUMPDEST JUMPDEST POP SWAP3 SWAP2 POP POP JUMP JUMPDEST PUSH32 0x4E487B7100000000000000000000000000000000000000000000000000000000 PUSH0 MSTORE PUSH1 0x12 PUSH1 0x4 MSTORE PUSH1 0x24 PUSH0 REVERT JUMPDEST PUSH0 PUSH2 0x69B DUP3 PUSH2 0x327 JUMP JUMPDEST SWAP2 POP PUSH2 0x6A6 DUP4 PUSH2 0x327 JUMP JUMPDEST SWAP3 POP DUP3 PUSH2 0x6B6 JUMPI PUSH2 0x6B5 PUSH2 0x664 JUMP JUMPDEST JUMPDEST DUP3 DUP3 DIV SWAP1 POP SWAP3 SWAP2 POP POP JUMP INVALID LOG2 PUSH5 0x6970667358 0x22 SLT KECCAK256 0x4B 0xA7 0x4D SWAP8 0xCC SSTORE 0x2F 0xDC BLOBHASH PUSH19 0xB073C9B2452E99DA1B4F5DAC97BD9A0C715CB5 BLOBBASEFEE 0xD6 0xDA PUSH5 0x736F6C6343 STOP ADDMOD BYTE STOP CALLER "
				},
				"gasEstimates": {
					"creation": {
						"codeDepositCost": "356600",
						"executionCost": "infinite",
						"totalCost": "infinite"
					},
					"external": {
						"claimTokens()": "infinite",
						"getVestedTokens()": "infinite"
					}
				},
				"methodIdentifiers": {
					"claimTokens()": "48c54b9d",
					"getVestedTokens()": "5330a6a2"
				}
			},
			"storageLayout": {
				"storage": [
					{
						"astId": 84,
						"contract": "assignment contracts/SafeTokenVesting.sol:SafeTokenVesting",
						"label": "token",
						"offset": 0,
						"slot": "0",
						"type": "t_contract(IERC20)77"
					},
					{
						"astId": 86,
						"contract": "assignment contracts/SafeTokenVesting.sol:SafeTokenVesting",
						"label": "beneficiary",
						"offset": 0,
						"slot": "1",
						"type": "t_address"
					},
					{
						"astId": 88,
						"contract": "assignment contracts/SafeTokenVesting.sol:SafeTokenVesting",
						"label": "startTime",
						"offset": 0,
						"slot": "2",
						"type": "t_uint256"
					},
					{
						"astId": 90,
						"contract": "assignment contracts/SafeTokenVesting.sol:SafeTokenVesting",
						"label": "vestingDuration",
						"offset": 0,
						"slot": "3",
						"type": "t_uint256"
					},
					{
						"astId": 92,
						"contract": "assignment contracts/SafeTokenVesting.sol:SafeTokenVesting",
						"label": "totalTokens",
						"offset": 0,
						"slot": "4",
						"type": "t_uint256"
					},
					{
						"astId": 94,
						"contract": "assignment contracts/SafeTokenVesting.sol:SafeTokenVesting",
						"label": "releasedTokens",
						"offset": 0,
						"slot": "5",
						"type": "t_uint256"
					}
				],
				"types": {
					"t_address": {
						"encoding": "inplace",
						"label": "address",
						"numberOfBytes": "20"
					},
					"t_contract(IERC20)77": {
						"encoding": "inplace",
						"label": "contract IERC20",
						"numberOfBytes": "20"
					},
					"t_uint256": {
						"encoding": "inplace",
						"label": "uint256",
						"numberOfBytes": "32"
					}
				}
			},
			"userdoc": {
				"kind": "user",
				"methods": {},
				"version": 1
			}
		}
	}
}