{
	"assignment contracts/W5 Auction.sol": {
		"Auction": {
			"abi": [
				{
					"inputs": [
						{
							"internalType": "address",
							"name": "_token",
							"type": "address"
						}
					],
					"stateMutability": "nonpayable",
					"type": "constructor"
				},
				{
					"anonymous": false,
					"inputs": [
						{
							"indexed": false,
							"internalType": "uint256",
							"name": "id",
							"type": "uint256"
						},
						{
							"indexed": true,
							"internalType": "address",
							"name": "seller",
							"type": "address"
						},
						{
							"indexed": false,
							"internalType": "uint256",
							"name": "minBid",
							"type": "uint256"
						},
						{
							"indexed": false,
							"internalType": "uint256",
							"name": "endTime",
							"type": "uint256"
						}
					],
					"name": "AuctionCreated",
					"type": "event"
				},
				{
					"anonymous": false,
					"inputs": [
						{
							"indexed": true,
							"internalType": "uint256",
							"name": "auctionId",
							"type": "uint256"
						},
						{
							"indexed": true,
							"internalType": "address",
							"name": "winner",
							"type": "address"
						},
						{
							"indexed": false,
							"internalType": "uint256",
							"name": "highestBid",
							"type": "uint256"
						}
					],
					"name": "AuctionFinalized",
					"type": "event"
				},
				{
					"anonymous": false,
					"inputs": [
						{
							"indexed": true,
							"internalType": "uint256",
							"name": "auctionId",
							"type": "uint256"
						},
						{
							"indexed": true,
							"internalType": "address",
							"name": "bidder",
							"type": "address"
						},
						{
							"indexed": false,
							"internalType": "uint256",
							"name": "bidAmount",
							"type": "uint256"
						}
					],
					"name": "BidPlaced",
					"type": "event"
				},
				{
					"anonymous": false,
					"inputs": [
						{
							"indexed": true,
							"internalType": "address",
							"name": "seller",
							"type": "address"
						},
						{
							"indexed": false,
							"internalType": "uint256",
							"name": "amount",
							"type": "uint256"
						}
					],
					"name": "Withdrawal",
					"type": "event"
				},
				{
					"inputs": [],
					"name": "auctionIdCounter",
					"outputs": [
						{
							"internalType": "uint256",
							"name": "",
							"type": "uint256"
						}
					],
					"stateMutability": "view",
					"type": "function"
				},
				{
					"inputs": [
						{
							"internalType": "uint256",
							"name": "",
							"type": "uint256"
						}
					],
					"name": "auctions",
					"outputs": [
						{
							"internalType": "uint256",
							"name": "id",
							"type": "uint256"
						},
						{
							"internalType": "address",
							"name": "seller",
							"type": "address"
						},
						{
							"internalType": "uint256",
							"name": "minBid",
							"type": "uint256"
						},
						{
							"internalType": "uint256",
							"name": "highestBid",
							"type": "uint256"
						},
						{
							"internalType": "address",
							"name": "highestBidder",
							"type": "address"
						},
						{
							"internalType": "bool",
							"name": "isActive",
							"type": "bool"
						},
						{
							"internalType": "uint256",
							"name": "endTime",
							"type": "uint256"
						}
					],
					"stateMutability": "view",
					"type": "function"
				},
				{
					"inputs": [
						{
							"internalType": "uint256",
							"name": "_minBid",
							"type": "uint256"
						},
						{
							"internalType": "uint256",
							"name": "_duration",
							"type": "uint256"
						}
					],
					"name": "createAuction",
					"outputs": [],
					"stateMutability": "nonpayable",
					"type": "function"
				},
				{
					"inputs": [
						{
							"internalType": "uint256",
							"name": "_auctionId",
							"type": "uint256"
						}
					],
					"name": "finalizeAuction",
					"outputs": [],
					"stateMutability": "nonpayable",
					"type": "function"
				},
				{
					"inputs": [
						{
							"internalType": "uint256",
							"name": "_auctionId",
							"type": "uint256"
						}
					],
					"name": "getAuctionDetails",
					"outputs": [
						{
							"internalType": "uint256",
							"name": "id",
							"type": "uint256"
						},
						{
							"internalType": "address",
							"name": "seller",
							"type": "address"
						},
						{
							"internalType": "uint256",
							"name": "minBid",
							"type": "uint256"
						},
						{
							"internalType": "uint256",
							"name": "highestBid",
							"type": "uint256"
						},
						{
							"internalType": "address",
							"name": "highestBidder",
							"type": "address"
						},
						{
							"internalType": "bool",
							"name": "isActive",
							"type": "bool"
						},
						{
							"internalType": "uint256",
							"name": "endTime",
							"type": "uint256"
						}
					],
					"stateMutability": "view",
					"type": "function"
				},
				{
					"inputs": [
						{
							"internalType": "address",
							"name": "",
							"type": "address"
						}
					],
					"name": "pendingWithdrawals",
					"outputs": [
						{
							"internalType": "uint256",
							"name": "",
							"type": "uint256"
						}
					],
					"stateMutability": "view",
					"type": "function"
				},
				{
					"inputs": [
						{
							"internalType": "uint256",
							"name": "_auctionId",
							"type": "uint256"
						},
						{
							"internalType": "uint256",
							"name": "_bidAmount",
							"type": "uint256"
						}
					],
					"name": "placeBid",
					"outputs": [],
					"stateMutability": "nonpayable",
					"type": "function"
				},
				{
					"inputs": [],
					"name": "token",
					"outputs": [
						{
							"internalType": "contract IERC20",
							"name": "",
							"type": "address"
						}
					],
					"stateMutability": "view",
					"type": "function"
				},
				{
					"inputs": [],
					"name": "withdrawFunds",
					"outputs": [],
					"stateMutability": "nonpayable",
					"type": "function"
				}
			],
			"devdoc": {
				"kind": "dev",
				"methods": {},
				"version": 1
			},
			"evm": {
				"assembly": "    /* \"assignment contracts/W5 Auction.sol\":324:6140  contract Auction {... */\n  mstore(0x40, 0x80)\n    /* \"assignment contracts/W5 Auction.sol\":1417:1559  constructor(address _token) {... */\n  callvalue\n  dup1\n  iszero\n  tag_1\n  jumpi\n  0x00\n  dup1\n  revert\ntag_1:\n  pop\n  mload(0x40)\n  sub(codesize, bytecodeSize)\n  dup1\n  bytecodeSize\n  dup4\n  codecopy\n  dup2\n  dup2\n  add\n  0x40\n  mstore\n  dup2\n  add\n  swap1\n  tag_2\n  swap2\n  swap1\n  tag_3\n  jump\t// in\ntag_2:\n    /* \"assignment contracts/W5 Auction.sol\":1482:1483  0 */\n  0x00\n    /* \"assignment contracts/W5 Auction.sol\":1464:1484  _token != address(0) */\n  0xffffffffffffffffffffffffffffffffffffffff\n  and\n    /* \"assignment contracts/W5 Auction.sol\":1464:1470  _token */\n  dup2\n    /* \"assignment contracts/W5 Auction.sol\":1464:1484  _token != address(0) */\n  0xffffffffffffffffffffffffffffffffffffffff\n  and\n  sub\n    /* \"assignment contracts/W5 Auction.sol\":1456:1518  require(_token != address(0), \"Token address cannot be zero.\") */\n  tag_6\n  jumpi\n  mload(0x40)\n  0x08c379a000000000000000000000000000000000000000000000000000000000\n  dup2\n  mstore\n  0x04\n  add\n  tag_7\n  swap1\n  tag_8\n  jump\t// in\ntag_7:\n  mload(0x40)\n  dup1\n  swap2\n  sub\n  swap1\n  revert\ntag_6:\n    /* \"assignment contracts/W5 Auction.sol\":1544:1550  _token */\n  dup1\n    /* \"assignment contracts/W5 Auction.sol\":1529:1534  token */\n  0x00\n  dup1\n    /* \"assignment contracts/W5 Auction.sol\":1529:1551  token = IERC20(_token) */\n  0x0100\n  exp\n  dup2\n  sload\n  dup2\n  0xffffffffffffffffffffffffffffffffffffffff\n  mul\n  not\n  and\n  swap1\n  dup4\n  0xffffffffffffffffffffffffffffffffffffffff\n  and\n  mul\n  or\n  swap1\n  sstore\n  pop\n    /* \"assignment contracts/W5 Auction.sol\":1417:1559  constructor(address _token) {... */\n  pop\n    /* \"assignment contracts/W5 Auction.sol\":324:6140  contract Auction {... */\n  jump(tag_9)\n    /* \"#utility.yul\":88:205   */\ntag_11:\n    /* \"#utility.yul\":197:198   */\n  0x00\n    /* \"#utility.yul\":194:195   */\n  dup1\n    /* \"#utility.yul\":187:199   */\n  revert\n    /* \"#utility.yul\":334:460   */\ntag_13:\n    /* \"#utility.yul\":371:378   */\n  0x00\n    /* \"#utility.yul\":411:453   */\n  0xffffffffffffffffffffffffffffffffffffffff\n    /* \"#utility.yul\":404:409   */\n  dup3\n    /* \"#utility.yul\":400:454   */\n  and\n    /* \"#utility.yul\":389:454   */\n  swap1\n  pop\n    /* \"#utility.yul\":334:460   */\n  swap2\n  swap1\n  pop\n  jump\t// out\n    /* \"#utility.yul\":466:562   */\ntag_14:\n    /* \"#utility.yul\":503:510   */\n  0x00\n    /* \"#utility.yul\":532:556   */\n  tag_26\n    /* \"#utility.yul\":550:555   */\n  dup3\n    /* \"#utility.yul\":532:556   */\n  tag_13\n  jump\t// in\ntag_26:\n    /* \"#utility.yul\":521:556   */\n  swap1\n  pop\n    /* \"#utility.yul\":466:562   */\n  swap2\n  swap1\n  pop\n  jump\t// out\n    /* \"#utility.yul\":568:690   */\ntag_15:\n    /* \"#utility.yul\":641:665   */\n  tag_28\n    /* \"#utility.yul\":659:664   */\n  dup2\n    /* \"#utility.yul\":641:665   */\n  tag_14\n  jump\t// in\ntag_28:\n    /* \"#utility.yul\":634:639   */\n  dup2\n    /* \"#utility.yul\":631:666   */\n  eq\n    /* \"#utility.yul\":621:684   */\n  tag_29\n  jumpi\n    /* \"#utility.yul\":680:681   */\n  0x00\n    /* \"#utility.yul\":677:678   */\n  dup1\n    /* \"#utility.yul\":670:682   */\n  revert\n    /* \"#utility.yul\":621:684   */\ntag_29:\n    /* \"#utility.yul\":568:690   */\n  pop\n  jump\t// out\n    /* \"#utility.yul\":696:839   */\ntag_16:\n    /* \"#utility.yul\":753:758   */\n  0x00\n    /* \"#utility.yul\":784:790   */\n  dup2\n    /* \"#utility.yul\":778:791   */\n  mload\n    /* \"#utility.yul\":769:791   */\n  swap1\n  pop\n    /* \"#utility.yul\":800:833   */\n  tag_31\n    /* \"#utility.yul\":827:832   */\n  dup2\n    /* \"#utility.yul\":800:833   */\n  tag_15\n  jump\t// in\ntag_31:\n    /* \"#utility.yul\":696:839   */\n  swap3\n  swap2\n  pop\n  pop\n  jump\t// out\n    /* \"#utility.yul\":845:1196   */\ntag_3:\n    /* \"#utility.yul\":915:921   */\n  0x00\n    /* \"#utility.yul\":964:966   */\n  0x20\n    /* \"#utility.yul\":952:961   */\n  dup3\n    /* \"#utility.yul\":943:950   */\n  dup5\n    /* \"#utility.yul\":939:962   */\n  sub\n    /* \"#utility.yul\":935:967   */\n  slt\n    /* \"#utility.yul\":932:1051   */\n  iszero\n  tag_33\n  jumpi\n    /* \"#utility.yul\":970:1049   */\n  tag_34\n  tag_11\n  jump\t// in\ntag_34:\n    /* \"#utility.yul\":932:1051   */\ntag_33:\n    /* \"#utility.yul\":1090:1091   */\n  0x00\n    /* \"#utility.yul\":1115:1179   */\n  tag_35\n    /* \"#utility.yul\":1171:1178   */\n  dup5\n    /* \"#utility.yul\":1162:1168   */\n  dup3\n    /* \"#utility.yul\":1151:1160   */\n  dup6\n    /* \"#utility.yul\":1147:1169   */\n  add\n    /* \"#utility.yul\":1115:1179   */\n  tag_16\n  jump\t// in\ntag_35:\n    /* \"#utility.yul\":1105:1179   */\n  swap2\n  pop\n    /* \"#utility.yul\":1061:1189   */\n  pop\n    /* \"#utility.yul\":845:1196   */\n  swap3\n  swap2\n  pop\n  pop\n  jump\t// out\n    /* \"#utility.yul\":1202:1371   */\ntag_17:\n    /* \"#utility.yul\":1286:1297   */\n  0x00\n    /* \"#utility.yul\":1320:1326   */\n  dup3\n    /* \"#utility.yul\":1315:1318   */\n  dup3\n    /* \"#utility.yul\":1308:1327   */\n  mstore\n    /* \"#utility.yul\":1360:1364   */\n  0x20\n    /* \"#utility.yul\":1355:1358   */\n  dup3\n    /* \"#utility.yul\":1351:1365   */\n  add\n    /* \"#utility.yul\":1336:1365   */\n  swap1\n  pop\n    /* \"#utility.yul\":1202:1371   */\n  swap3\n  swap2\n  pop\n  pop\n  jump\t// out\n    /* \"#utility.yul\":1377:1556   */\ntag_18:\n    /* \"#utility.yul\":1517:1548   */\n  0x546f6b656e20616464726573732063616e6e6f74206265207a65726f2e000000\n    /* \"#utility.yul\":1513:1514   */\n  0x00\n    /* \"#utility.yul\":1505:1511   */\n  dup3\n    /* \"#utility.yul\":1501:1515   */\n  add\n    /* \"#utility.yul\":1494:1549   */\n  mstore\n    /* \"#utility.yul\":1377:1556   */\n  pop\n  jump\t// out\n    /* \"#utility.yul\":1562:1928   */\ntag_19:\n    /* \"#utility.yul\":1704:1707   */\n  0x00\n    /* \"#utility.yul\":1725:1792   */\n  tag_39\n    /* \"#utility.yul\":1789:1791   */\n  0x1d\n    /* \"#utility.yul\":1784:1787   */\n  dup4\n    /* \"#utility.yul\":1725:1792   */\n  tag_17\n  jump\t// in\ntag_39:\n    /* \"#utility.yul\":1718:1792   */\n  swap2\n  pop\n    /* \"#utility.yul\":1801:1894   */\n  tag_40\n    /* \"#utility.yul\":1890:1893   */\n  dup3\n    /* \"#utility.yul\":1801:1894   */\n  tag_18\n  jump\t// in\ntag_40:\n    /* \"#utility.yul\":1919:1921   */\n  0x20\n    /* \"#utility.yul\":1914:1917   */\n  dup3\n    /* \"#utility.yul\":1910:1922   */\n  add\n    /* \"#utility.yul\":1903:1922   */\n  swap1\n  pop\n    /* \"#utility.yul\":1562:1928   */\n  swap2\n  swap1\n  pop\n  jump\t// out\n    /* \"#utility.yul\":1934:2353   */\ntag_8:\n    /* \"#utility.yul\":2100:2104   */\n  0x00\n    /* \"#utility.yul\":2138:2140   */\n  0x20\n    /* \"#utility.yul\":2127:2136   */\n  dup3\n    /* \"#utility.yul\":2123:2141   */\n  add\n    /* \"#utility.yul\":2115:2141   */\n  swap1\n  pop\n    /* \"#utility.yul\":2187:2196   */\n  dup2\n    /* \"#utility.yul\":2181:2185   */\n  dup2\n    /* \"#utility.yul\":2177:2197   */\n  sub\n    /* \"#utility.yul\":2173:2174   */\n  0x00\n    /* \"#utility.yul\":2162:2171   */\n  dup4\n    /* \"#utility.yul\":2158:2175   */\n  add\n    /* \"#utility.yul\":2151:2198   */\n  mstore\n    /* \"#utility.yul\":2215:2346   */\n  tag_42\n    /* \"#utility.yul\":2341:2345   */\n  dup2\n    /* \"#utility.yul\":2215:2346   */\n  tag_19\n  jump\t// in\ntag_42:\n    /* \"#utility.yul\":2207:2346   */\n  swap1\n  pop\n    /* \"#utility.yul\":1934:2353   */\n  swap2\n  swap1\n  pop\n  jump\t// out\n    /* \"assignment contracts/W5 Auction.sol\":324:6140  contract Auction {... */\ntag_9:\n  dataSize(sub_0)\n  dup1\n  dataOffset(sub_0)\n  0x00\n  codecopy\n  0x00\n  return\nstop\n\nsub_0: assembly {\n        /* \"assignment contracts/W5 Auction.sol\":324:6140  contract Auction {... */\n      mstore(0x40, 0x80)\n      callvalue\n      dup1\n      iszero\n      tag_1\n      jumpi\n      0x00\n      dup1\n      revert\n    tag_1:\n      pop\n      jumpi(tag_2, lt(calldatasize, 0x04))\n      shr(0xe0, calldataload(0x00))\n      dup1\n      0xde0794ef\n      gt\n      tag_12\n      jumpi\n      dup1\n      0xde0794ef\n      eq\n      tag_7\n      jumpi\n      dup1\n      0xe8083863\n      eq\n      tag_8\n      jumpi\n      dup1\n      0xf20e5e35\n      eq\n      tag_9\n      jumpi\n      dup1\n      0xf3f43703\n      eq\n      tag_10\n      jumpi\n      dup1\n      0xfc0c546a\n      eq\n      tag_11\n      jumpi\n      jump(tag_2)\n    tag_12:\n      dup1\n      0x0121683f\n      eq\n      tag_3\n      jumpi\n      dup1\n      0x24600fc3\n      eq\n      tag_4\n      jumpi\n      dup1\n      0x571a26a0\n      eq\n      tag_5\n      jumpi\n      dup1\n      0x57c90de5\n      eq\n      tag_6\n      jumpi\n    tag_2:\n      0x00\n      dup1\n      revert\n        /* \"assignment contracts/W5 Auction.sol\":1597:2245  function createAuction(uint256 _minBid, uint256 _duration) external {... */\n    tag_3:\n      tag_13\n      0x04\n      dup1\n      calldatasize\n      sub\n      dup2\n      add\n      swap1\n      tag_14\n      swap2\n      swap1\n      tag_15\n      jump\t// in\n    tag_14:\n      tag_16\n      jump\t// in\n    tag_13:\n      stop\n        /* \"assignment contracts/W5 Auction.sol\":4840:5360  function withdrawFunds() external {... */\n    tag_4:\n      tag_17\n      tag_18\n      jump\t// in\n    tag_17:\n      stop\n        /* \"assignment contracts/W5 Auction.sol\":785:814  AuctionItem[] public auctions */\n    tag_5:\n      tag_19\n      0x04\n      dup1\n      calldatasize\n      sub\n      dup2\n      add\n      swap1\n      tag_20\n      swap2\n      swap1\n      tag_21\n      jump\t// in\n    tag_20:\n      tag_22\n      jump\t// in\n    tag_19:\n      mload(0x40)\n      tag_23\n      swap8\n      swap7\n      swap6\n      swap5\n      swap4\n      swap3\n      swap2\n      swap1\n      tag_24\n      jump\t// in\n    tag_23:\n      mload(0x40)\n      dup1\n      swap2\n      sub\n      swap1\n      return\n        /* \"assignment contracts/W5 Auction.sol\":2295:3639  function placeBid(uint256 _auctionId, uint256 _bidAmount) external {... */\n    tag_6:\n      tag_25\n      0x04\n      dup1\n      calldatasize\n      sub\n      dup2\n      add\n      swap1\n      tag_26\n      swap2\n      swap1\n      tag_15\n      jump\t// in\n    tag_26:\n      tag_27\n      jump\t// in\n    tag_25:\n      stop\n        /* \"assignment contracts/W5 Auction.sol\":854:885  uint256 public auctionIdCounter */\n    tag_7:\n      tag_28\n      tag_29\n      jump\t// in\n    tag_28:\n      mload(0x40)\n      tag_30\n      swap2\n      swap1\n      tag_31\n      jump\t// in\n    tag_30:\n      mload(0x40)\n      dup1\n      swap2\n      sub\n      swap1\n      return\n        /* \"assignment contracts/W5 Auction.sol\":3727:4800  function finalizeAuction(uint256 _auctionId) external {... */\n    tag_8:\n      tag_32\n      0x04\n      dup1\n      calldatasize\n      sub\n      dup2\n      add\n      swap1\n      tag_33\n      swap2\n      swap1\n      tag_21\n      jump\t// in\n    tag_33:\n      tag_34\n      jump\t// in\n    tag_32:\n      stop\n        /* \"assignment contracts/W5 Auction.sol\":5421:6137  function getAuctionDetails(uint256 _auctionId)... */\n    tag_9:\n      tag_35\n      0x04\n      dup1\n      calldatasize\n      sub\n      dup2\n      add\n      swap1\n      tag_36\n      swap2\n      swap1\n      tag_21\n      jump\t// in\n    tag_36:\n      tag_37\n      jump\t// in\n    tag_35:\n      mload(0x40)\n      tag_38\n      swap8\n      swap7\n      swap6\n      swap5\n      swap4\n      swap3\n      swap2\n      swap1\n      tag_24\n      jump\t// in\n    tag_38:\n      mload(0x40)\n      dup1\n      swap2\n      sub\n      swap1\n      return\n        /* \"assignment contracts/W5 Auction.sol\":697:750  mapping(address => uint256) public pendingWithdrawals */\n    tag_10:\n      tag_39\n      0x04\n      dup1\n      calldatasize\n      sub\n      dup2\n      add\n      swap1\n      tag_40\n      swap2\n      swap1\n      tag_41\n      jump\t// in\n    tag_40:\n      tag_42\n      jump\t// in\n    tag_39:\n      mload(0x40)\n      tag_43\n      swap2\n      swap1\n      tag_31\n      jump\t// in\n    tag_43:\n      mload(0x40)\n      dup1\n      swap2\n      sub\n      swap1\n      return\n        /* \"assignment contracts/W5 Auction.sol\":378:397  IERC20 public token */\n    tag_11:\n      tag_44\n      tag_45\n      jump\t// in\n    tag_44:\n      mload(0x40)\n      tag_46\n      swap2\n      swap1\n      tag_47\n      jump\t// in\n    tag_46:\n      mload(0x40)\n      dup1\n      swap2\n      sub\n      swap1\n      return\n        /* \"assignment contracts/W5 Auction.sol\":1597:2245  function createAuction(uint256 _minBid, uint256 _duration) external {... */\n    tag_16:\n        /* \"assignment contracts/W5 Auction.sol\":1694:1695  0 */\n      0x00\n        /* \"assignment contracts/W5 Auction.sol\":1684:1691  _minBid */\n      dup3\n        /* \"assignment contracts/W5 Auction.sol\":1684:1695  _minBid > 0 */\n      gt\n        /* \"assignment contracts/W5 Auction.sol\":1676:1738  require(_minBid > 0, \"Minimum bid must be greater than zero.\") */\n      tag_49\n      jumpi\n      mload(0x40)\n      0x08c379a000000000000000000000000000000000000000000000000000000000\n      dup2\n      mstore\n      0x04\n      add\n      tag_50\n      swap1\n      tag_51\n      jump\t// in\n    tag_50:\n      mload(0x40)\n      dup1\n      swap2\n      sub\n      swap1\n      revert\n    tag_49:\n        /* \"assignment contracts/W5 Auction.sol\":1769:1770  0 */\n      0x00\n        /* \"assignment contracts/W5 Auction.sol\":1757:1766  _duration */\n      dup2\n        /* \"assignment contracts/W5 Auction.sol\":1757:1770  _duration > 0 */\n      gt\n        /* \"assignment contracts/W5 Auction.sol\":1749:1810  require(_duration > 0, \"Duration must be greater than zero.\") */\n      tag_52\n      jumpi\n      mload(0x40)\n      0x08c379a000000000000000000000000000000000000000000000000000000000\n      dup2\n      mstore\n      0x04\n      add\n      tag_53\n      swap1\n      tag_54\n      jump\t// in\n    tag_53:\n      mload(0x40)\n      dup1\n      swap2\n      sub\n      swap1\n      revert\n    tag_52:\n        /* \"assignment contracts/W5 Auction.sol\":1823:1831  auctions */\n      0x02\n        /* \"assignment contracts/W5 Auction.sol\":1837:2107  AuctionItem({... */\n      mload(0x40)\n      dup1\n      0xe0\n      add\n      0x40\n      mstore\n      dup1\n        /* \"assignment contracts/W5 Auction.sol\":1868:1884  auctionIdCounter */\n      sload(0x03)\n        /* \"assignment contracts/W5 Auction.sol\":1837:2107  AuctionItem({... */\n      dup2\n      mstore\n      0x20\n      add\n        /* \"assignment contracts/W5 Auction.sol\":1907:1917  msg.sender */\n      caller\n        /* \"assignment contracts/W5 Auction.sol\":1837:2107  AuctionItem({... */\n      0xffffffffffffffffffffffffffffffffffffffff\n      and\n      dup2\n      mstore\n      0x20\n      add\n        /* \"assignment contracts/W5 Auction.sol\":1940:1947  _minBid */\n      dup5\n        /* \"assignment contracts/W5 Auction.sol\":1837:2107  AuctionItem({... */\n      dup2\n      mstore\n      0x20\n      add\n        /* \"assignment contracts/W5 Auction.sol\":1974:1975  0 */\n      0x00\n        /* \"assignment contracts/W5 Auction.sol\":1837:2107  AuctionItem({... */\n      dup2\n      mstore\n      0x20\n      add\n        /* \"assignment contracts/W5 Auction.sol\":2013:2014  0 */\n      0x00\n        /* \"assignment contracts/W5 Auction.sol\":1837:2107  AuctionItem({... */\n      0xffffffffffffffffffffffffffffffffffffffff\n      and\n      dup2\n      mstore\n      0x20\n      add\n        /* \"assignment contracts/W5 Auction.sol\":2040:2044  true */\n      0x01\n        /* \"assignment contracts/W5 Auction.sol\":1837:2107  AuctionItem({... */\n      iszero\n      iszero\n      dup2\n      mstore\n      0x20\n      add\n        /* \"assignment contracts/W5 Auction.sol\":2086:2095  _duration */\n      dup4\n        /* \"assignment contracts/W5 Auction.sol\":2068:2083  block.timestamp */\n      timestamp\n        /* \"assignment contracts/W5 Auction.sol\":2068:2095  block.timestamp + _duration */\n      tag_55\n      swap2\n      swap1\n      tag_56\n      jump\t// in\n    tag_55:\n        /* \"assignment contracts/W5 Auction.sol\":1837:2107  AuctionItem({... */\n      dup2\n      mstore\n      pop\n        /* \"assignment contracts/W5 Auction.sol\":1823:2108  auctions.push(AuctionItem({... */\n      swap1\n      dup1\n      0x01\n      dup2\n      sload\n      add\n      dup1\n      dup3\n      sstore\n      dup1\n      swap2\n      pop\n      pop\n      0x01\n      swap1\n      sub\n      swap1\n      0x00\n      mstore\n      keccak256(0x00, 0x20)\n      swap1\n      0x06\n      mul\n      add\n      0x00\n      swap1\n      swap2\n      swap1\n      swap2\n      swap1\n      swap2\n      pop\n      0x00\n      dup3\n      add\n      mload\n      dup2\n      0x00\n      add\n      sstore\n      0x20\n      dup3\n      add\n      mload\n      dup2\n      0x01\n      add\n      exp(0x0100, 0x00)\n      dup2\n      sload\n      dup2\n      0xffffffffffffffffffffffffffffffffffffffff\n      mul\n      not\n      and\n      swap1\n      dup4\n      0xffffffffffffffffffffffffffffffffffffffff\n      and\n      mul\n      or\n      swap1\n      sstore\n      pop\n      0x40\n      dup3\n      add\n      mload\n      dup2\n      0x02\n      add\n      sstore\n      0x60\n      dup3\n      add\n      mload\n      dup2\n      0x03\n      add\n      sstore\n      0x80\n      dup3\n      add\n      mload\n      dup2\n      0x04\n      add\n      exp(0x0100, 0x00)\n      dup2\n      sload\n      dup2\n      0xffffffffffffffffffffffffffffffffffffffff\n      mul\n      not\n      and\n      swap1\n      dup4\n      0xffffffffffffffffffffffffffffffffffffffff\n      and\n      mul\n      or\n      swap1\n      sstore\n      pop\n      0xa0\n      dup3\n      add\n      mload\n      dup2\n      0x04\n      add\n      exp(0x0100, 0x14)\n      dup2\n      sload\n      dup2\n      0xff\n      mul\n      not\n      and\n      swap1\n      dup4\n      iszero\n      iszero\n      mul\n      or\n      swap1\n      sstore\n      pop\n      0xc0\n      dup3\n      add\n      mload\n      dup2\n      0x05\n      add\n      sstore\n      pop\n      pop\n        /* \"assignment contracts/W5 Auction.sol\":2159:2169  msg.sender */\n      caller\n        /* \"assignment contracts/W5 Auction.sol\":2126:2208  AuctionCreated(auctionIdCounter, msg.sender, _minBid, block.timestamp + _duration) */\n      0xffffffffffffffffffffffffffffffffffffffff\n      and\n      0xc9050d42180a61cb0d9ebb8ad118b62fe6eab12cf12ff752c4a0cc7da9ddf627\n        /* \"assignment contracts/W5 Auction.sol\":2141:2157  auctionIdCounter */\n      sload(0x03)\n        /* \"assignment contracts/W5 Auction.sol\":2171:2178  _minBid */\n      dup5\n        /* \"assignment contracts/W5 Auction.sol\":2198:2207  _duration */\n      dup5\n        /* \"assignment contracts/W5 Auction.sol\":2180:2195  block.timestamp */\n      timestamp\n        /* \"assignment contracts/W5 Auction.sol\":2180:2207  block.timestamp + _duration */\n      tag_58\n      swap2\n      swap1\n      tag_56\n      jump\t// in\n    tag_58:\n        /* \"assignment contracts/W5 Auction.sol\":2126:2208  AuctionCreated(auctionIdCounter, msg.sender, _minBid, block.timestamp + _duration) */\n      mload(0x40)\n      tag_59\n      swap4\n      swap3\n      swap2\n      swap1\n      tag_60\n      jump\t// in\n    tag_59:\n      mload(0x40)\n      dup1\n      swap2\n      sub\n      swap1\n      log2\n        /* \"assignment contracts/W5 Auction.sol\":2219:2235  auctionIdCounter */\n      0x03\n      0x00\n        /* \"assignment contracts/W5 Auction.sol\":2219:2237  auctionIdCounter++ */\n      dup2\n      sload\n      dup1\n      swap3\n      swap2\n      swap1\n      tag_61\n      swap1\n      tag_62\n      jump\t// in\n    tag_61:\n      swap2\n      swap1\n      pop\n      sstore\n      pop\n        /* \"assignment contracts/W5 Auction.sol\":1597:2245  function createAuction(uint256 _minBid, uint256 _duration) external {... */\n      pop\n      pop\n      jump\t// out\n        /* \"assignment contracts/W5 Auction.sol\":4840:5360  function withdrawFunds() external {... */\n    tag_18:\n        /* \"assignment contracts/W5 Auction.sol\":4885:4899  uint256 amount */\n      0x00\n        /* \"assignment contracts/W5 Auction.sol\":4902:4920  pendingWithdrawals */\n      0x01\n        /* \"assignment contracts/W5 Auction.sol\":4902:4932  pendingWithdrawals[msg.sender] */\n      0x00\n        /* \"assignment contracts/W5 Auction.sol\":4921:4931  msg.sender */\n      caller\n        /* \"assignment contracts/W5 Auction.sol\":4902:4932  pendingWithdrawals[msg.sender] */\n      0xffffffffffffffffffffffffffffffffffffffff\n      and\n      0xffffffffffffffffffffffffffffffffffffffff\n      and\n      dup2\n      mstore\n      0x20\n      add\n      swap1\n      dup2\n      mstore\n      0x20\n      add\n      0x00\n      keccak256\n      sload\n        /* \"assignment contracts/W5 Auction.sol\":4885:4932  uint256 amount = pendingWithdrawals[msg.sender] */\n      swap1\n      pop\n        /* \"assignment contracts/W5 Auction.sol\":4960:4961  0 */\n      0x00\n        /* \"assignment contracts/W5 Auction.sol\":4951:4957  amount */\n      dup2\n        /* \"assignment contracts/W5 Auction.sol\":4951:4961  amount > 0 */\n      gt\n        /* \"assignment contracts/W5 Auction.sol\":4943:4987  require(amount > 0, \"No funds to withdraw.\") */\n      tag_64\n      jumpi\n      mload(0x40)\n      0x08c379a000000000000000000000000000000000000000000000000000000000\n      dup2\n      mstore\n      0x04\n      add\n      tag_65\n      swap1\n      tag_66\n      jump\t// in\n    tag_65:\n      mload(0x40)\n      dup1\n      swap2\n      sub\n      swap1\n      revert\n    tag_64:\n        /* \"assignment contracts/W5 Auction.sol\":5031:5032  0 */\n      0x00\n        /* \"assignment contracts/W5 Auction.sol\":4998:5016  pendingWithdrawals */\n      0x01\n        /* \"assignment contracts/W5 Auction.sol\":4998:5028  pendingWithdrawals[msg.sender] */\n      0x00\n        /* \"assignment contracts/W5 Auction.sol\":5017:5027  msg.sender */\n      caller\n        /* \"assignment contracts/W5 Auction.sol\":4998:5028  pendingWithdrawals[msg.sender] */\n      0xffffffffffffffffffffffffffffffffffffffff\n      and\n      0xffffffffffffffffffffffffffffffffffffffff\n      and\n      dup2\n      mstore\n      0x20\n      add\n      swap1\n      dup2\n      mstore\n      0x20\n      add\n      0x00\n      keccak256\n        /* \"assignment contracts/W5 Auction.sol\":4998:5032  pendingWithdrawals[msg.sender] = 0 */\n      dup2\n      swap1\n      sstore\n      pop\n        /* \"assignment contracts/W5 Auction.sol\":5078:5083  token */\n      0x00\n      dup1\n      sload\n      swap1\n      0x0100\n      exp\n      swap1\n      div\n      0xffffffffffffffffffffffffffffffffffffffff\n      and\n        /* \"assignment contracts/W5 Auction.sol\":5078:5092  token.transfer */\n      0xffffffffffffffffffffffffffffffffffffffff\n      and\n      0xa9059cbb\n        /* \"assignment contracts/W5 Auction.sol\":5093:5103  msg.sender */\n      caller\n        /* \"assignment contracts/W5 Auction.sol\":5105:5111  amount */\n      dup4\n        /* \"assignment contracts/W5 Auction.sol\":5078:5112  token.transfer(msg.sender, amount) */\n      mload(0x40)\n      dup4\n      0xffffffff\n      and\n      0xe0\n      shl\n      dup2\n      mstore\n      0x04\n      add\n      tag_67\n      swap3\n      swap2\n      swap1\n      tag_68\n      jump\t// in\n    tag_67:\n      0x20\n      mload(0x40)\n      dup1\n      dup4\n      sub\n      dup2\n      0x00\n      dup8\n      gas\n      call\n      swap3\n      pop\n      pop\n      pop\n      dup1\n      iszero\n      tag_69\n      jumpi\n      pop\n      mload(0x40)\n      returndatasize\n      not(0x1f)\n      0x1f\n      dup3\n      add\n      and\n      dup3\n      add\n      dup1\n      0x40\n      mstore\n      pop\n      dup2\n      add\n      swap1\n      tag_70\n      swap2\n      swap1\n      tag_71\n      jump\t// in\n    tag_70:\n      0x01\n    tag_69:\n        /* \"assignment contracts/W5 Auction.sol\":5074:5353  try token.transfer(msg.sender, amount) {... */\n      tag_72\n      jumpi\n        /* \"assignment contracts/W5 Auction.sol\":5292:5298  amount */\n      dup1\n        /* \"assignment contracts/W5 Auction.sol\":5259:5277  pendingWithdrawals */\n      0x01\n        /* \"assignment contracts/W5 Auction.sol\":5259:5289  pendingWithdrawals[msg.sender] */\n      0x00\n        /* \"assignment contracts/W5 Auction.sol\":5278:5288  msg.sender */\n      caller\n        /* \"assignment contracts/W5 Auction.sol\":5259:5289  pendingWithdrawals[msg.sender] */\n      0xffffffffffffffffffffffffffffffffffffffff\n      and\n      0xffffffffffffffffffffffffffffffffffffffff\n      and\n      dup2\n      mstore\n      0x20\n      add\n      swap1\n      dup2\n      mstore\n      0x20\n      add\n      0x00\n      keccak256\n        /* \"assignment contracts/W5 Auction.sol\":5259:5298  pendingWithdrawals[msg.sender] = amount */\n      dup2\n      swap1\n      sstore\n      pop\n        /* \"assignment contracts/W5 Auction.sol\":5313:5341  revert(\"Withdrawal failed.\") */\n      mload(0x40)\n      0x08c379a000000000000000000000000000000000000000000000000000000000\n      dup2\n      mstore\n      0x04\n      add\n      tag_76\n      swap1\n      tag_77\n      jump\t// in\n    tag_76:\n      mload(0x40)\n      dup1\n      swap2\n      sub\n      swap1\n      revert\n        /* \"assignment contracts/W5 Auction.sol\":5074:5353  try token.transfer(msg.sender, amount) {... */\n    tag_72:\n      pop\n        /* \"assignment contracts/W5 Auction.sol\":5144:5154  msg.sender */\n      caller\n        /* \"assignment contracts/W5 Auction.sol\":5133:5163  Withdrawal(msg.sender, amount) */\n      0xffffffffffffffffffffffffffffffffffffffff\n      and\n      0x7fcf532c15f0a6db0bd6d0e038bea71d30d808c7d98cb3bf7268a95bf5081b65\n        /* \"assignment contracts/W5 Auction.sol\":5156:5162  amount */\n      dup3\n        /* \"assignment contracts/W5 Auction.sol\":5133:5163  Withdrawal(msg.sender, amount) */\n      mload(0x40)\n      tag_79\n      swap2\n      swap1\n      tag_31\n      jump\t// in\n    tag_79:\n      mload(0x40)\n      dup1\n      swap2\n      sub\n      swap1\n      log2\n        /* \"assignment contracts/W5 Auction.sol\":4874:5360  {... */\n      pop\n        /* \"assignment contracts/W5 Auction.sol\":4840:5360  function withdrawFunds() external {... */\n      jump\t// out\n        /* \"assignment contracts/W5 Auction.sol\":785:814  AuctionItem[] public auctions */\n    tag_22:\n      0x02\n      dup2\n      dup2\n      sload\n      dup2\n      lt\n      tag_80\n      jumpi\n      0x00\n      dup1\n      revert\n    tag_80:\n      swap1\n      0x00\n      mstore\n      keccak256(0x00, 0x20)\n      swap1\n      0x06\n      mul\n      add\n      0x00\n      swap2\n      pop\n      swap1\n      pop\n      dup1\n      0x00\n      add\n      sload\n      swap1\n      dup1\n      0x01\n      add\n      0x00\n      swap1\n      sload\n      swap1\n      0x0100\n      exp\n      swap1\n      div\n      0xffffffffffffffffffffffffffffffffffffffff\n      and\n      swap1\n      dup1\n      0x02\n      add\n      sload\n      swap1\n      dup1\n      0x03\n      add\n      sload\n      swap1\n      dup1\n      0x04\n      add\n      0x00\n      swap1\n      sload\n      swap1\n      0x0100\n      exp\n      swap1\n      div\n      0xffffffffffffffffffffffffffffffffffffffff\n      and\n      swap1\n      dup1\n      0x04\n      add\n      0x14\n      swap1\n      sload\n      swap1\n      0x0100\n      exp\n      swap1\n      div\n      0xff\n      and\n      swap1\n      dup1\n      0x05\n      add\n      sload\n      swap1\n      pop\n      dup8\n      jump\t// out\n        /* \"assignment contracts/W5 Auction.sol\":2295:3639  function placeBid(uint256 _auctionId, uint256 _bidAmount) external {... */\n    tag_27:\n        /* \"assignment contracts/W5 Auction.sol\":2394:2402  auctions */\n      0x02\n        /* \"assignment contracts/W5 Auction.sol\":2394:2409  auctions.length */\n      dup1\n      sload\n      swap1\n      pop\n        /* \"assignment contracts/W5 Auction.sol\":2381:2391  _auctionId */\n      dup3\n        /* \"assignment contracts/W5 Auction.sol\":2381:2409  _auctionId < auctions.length */\n      lt\n        /* \"assignment contracts/W5 Auction.sol\":2373:2437  require(_auctionId < auctions.length, \"Auction does not exist.\") */\n      tag_83\n      jumpi\n      mload(0x40)\n      0x08c379a000000000000000000000000000000000000000000000000000000000\n      dup2\n      mstore\n      0x04\n      add\n      tag_84\n      swap1\n      tag_85\n      jump\t// in\n    tag_84:\n      mload(0x40)\n      dup1\n      swap2\n      sub\n      swap1\n      revert\n    tag_83:\n        /* \"assignment contracts/W5 Auction.sol\":2448:2475  AuctionItem storage auction */\n      0x00\n        /* \"assignment contracts/W5 Auction.sol\":2478:2486  auctions */\n      0x02\n        /* \"assignment contracts/W5 Auction.sol\":2487:2497  _auctionId */\n      dup4\n        /* \"assignment contracts/W5 Auction.sol\":2478:2498  auctions[_auctionId] */\n      dup2\n      sload\n      dup2\n      lt\n      tag_86\n      jumpi\n      tag_87\n      tag_88\n      jump\t// in\n    tag_87:\n    tag_86:\n      swap1\n      0x00\n      mstore\n      keccak256(0x00, 0x20)\n      swap1\n      0x06\n      mul\n      add\n        /* \"assignment contracts/W5 Auction.sol\":2448:2498  AuctionItem storage auction = auctions[_auctionId] */\n      swap1\n      pop\n        /* \"assignment contracts/W5 Auction.sol\":2517:2524  auction */\n      dup1\n        /* \"assignment contracts/W5 Auction.sol\":2517:2533  auction.isActive */\n      0x04\n      add\n      0x14\n      swap1\n      sload\n      swap1\n      0x0100\n      exp\n      swap1\n      div\n      0xff\n      and\n        /* \"assignment contracts/W5 Auction.sol\":2509:2560  require(auction.isActive, \"Auction is not active.\") */\n      tag_90\n      jumpi\n      mload(0x40)\n      0x08c379a000000000000000000000000000000000000000000000000000000000\n      dup2\n      mstore\n      0x04\n      add\n      tag_91\n      swap1\n      tag_92\n      jump\t// in\n    tag_91:\n      mload(0x40)\n      dup1\n      swap2\n      sub\n      swap1\n      revert\n    tag_90:\n        /* \"assignment contracts/W5 Auction.sol\":2597:2604  auction */\n      dup1\n        /* \"assignment contracts/W5 Auction.sol\":2597:2612  auction.endTime */\n      0x05\n      add\n      sload\n        /* \"assignment contracts/W5 Auction.sol\":2579:2594  block.timestamp */\n      timestamp\n        /* \"assignment contracts/W5 Auction.sol\":2579:2612  block.timestamp < auction.endTime */\n      lt\n        /* \"assignment contracts/W5 Auction.sol\":2571:2635  require(block.timestamp < auction.endTime, \"Auction has ended.\") */\n      tag_93\n      jumpi\n      mload(0x40)\n      0x08c379a000000000000000000000000000000000000000000000000000000000\n      dup2\n      mstore\n      0x04\n      add\n      tag_94\n      swap1\n      tag_95\n      jump\t// in\n    tag_94:\n      mload(0x40)\n      dup1\n      swap2\n      sub\n      swap1\n      revert\n    tag_93:\n        /* \"assignment contracts/W5 Auction.sol\":2667:2674  auction */\n      dup1\n        /* \"assignment contracts/W5 Auction.sol\":2667:2685  auction.highestBid */\n      0x03\n      add\n      sload\n        /* \"assignment contracts/W5 Auction.sol\":2654:2664  _bidAmount */\n      dup3\n        /* \"assignment contracts/W5 Auction.sol\":2654:2685  _bidAmount > auction.highestBid */\n      gt\n        /* \"assignment contracts/W5 Auction.sol\":2646:2738  require(_bidAmount > auction.highestBid, \"Bid must be higher than the current highest bid.\") */\n      tag_96\n      jumpi\n      mload(0x40)\n      0x08c379a000000000000000000000000000000000000000000000000000000000\n      dup2\n      mstore\n      0x04\n      add\n      tag_97\n      swap1\n      tag_98\n      jump\t// in\n    tag_97:\n      mload(0x40)\n      dup1\n      swap2\n      sub\n      swap1\n      revert\n    tag_96:\n        /* \"assignment contracts/W5 Auction.sol\":2771:2778  auction */\n      dup1\n        /* \"assignment contracts/W5 Auction.sol\":2771:2785  auction.minBid */\n      0x02\n      add\n      sload\n        /* \"assignment contracts/W5 Auction.sol\":2757:2767  _bidAmount */\n      dup3\n        /* \"assignment contracts/W5 Auction.sol\":2757:2785  _bidAmount >= auction.minBid */\n      lt\n      iszero\n        /* \"assignment contracts/W5 Auction.sol\":2749:2827  require(_bidAmount >= auction.minBid, \"Bid must meet the minimum bid amount.\") */\n      tag_99\n      jumpi\n      mload(0x40)\n      0x08c379a000000000000000000000000000000000000000000000000000000000\n      dup2\n      mstore\n      0x04\n      add\n      tag_100\n      swap1\n      tag_101\n      jump\t// in\n    tag_100:\n      mload(0x40)\n      dup1\n      swap2\n      sub\n      swap1\n      revert\n    tag_99:\n        /* \"assignment contracts/W5 Auction.sol\":2900:2905  token */\n      0x00\n      dup1\n      sload\n      swap1\n      0x0100\n      exp\n      swap1\n      div\n      0xffffffffffffffffffffffffffffffffffffffff\n      and\n        /* \"assignment contracts/W5 Auction.sol\":2900:2918  token.transferFrom */\n      0xffffffffffffffffffffffffffffffffffffffff\n      and\n      0x23b872dd\n        /* \"assignment contracts/W5 Auction.sol\":2919:2929  msg.sender */\n      caller\n        /* \"assignment contracts/W5 Auction.sol\":2939:2943  this */\n      address\n        /* \"assignment contracts/W5 Auction.sol\":2946:2956  _bidAmount */\n      dup6\n        /* \"assignment contracts/W5 Auction.sol\":2900:2957  token.transferFrom(msg.sender, address(this), _bidAmount) */\n      mload(0x40)\n      dup5\n      0xffffffff\n      and\n      0xe0\n      shl\n      dup2\n      mstore\n      0x04\n      add\n      tag_102\n      swap4\n      swap3\n      swap2\n      swap1\n      tag_103\n      jump\t// in\n    tag_102:\n      0x20\n      mload(0x40)\n      dup1\n      dup4\n      sub\n      dup2\n      0x00\n      dup8\n      gas\n      call\n      swap3\n      pop\n      pop\n      pop\n      dup1\n      iszero\n      tag_104\n      jumpi\n      pop\n      mload(0x40)\n      returndatasize\n      not(0x1f)\n      0x1f\n      dup3\n      add\n      and\n      dup3\n      add\n      dup1\n      0x40\n      mstore\n      pop\n      dup2\n      add\n      swap1\n      tag_105\n      swap2\n      swap1\n      tag_71\n      jump\t// in\n    tag_105:\n      0x01\n    tag_104:\n        /* \"assignment contracts/W5 Auction.sol\":2896:3632  try token.transferFrom(msg.sender, address(this), _bidAmount) {... */\n      tag_106\n      jumpi\n        /* \"assignment contracts/W5 Auction.sol\":3590:3620  revert(\"Bid transfer failed.\") */\n      mload(0x40)\n      0x08c379a000000000000000000000000000000000000000000000000000000000\n      dup2\n      mstore\n      0x04\n      add\n      tag_110\n      swap1\n      tag_111\n      jump\t// in\n    tag_110:\n      mload(0x40)\n      dup1\n      swap2\n      sub\n      swap1\n      revert\n        /* \"assignment contracts/W5 Auction.sol\":2896:3632  try token.transferFrom(msg.sender, address(this), _bidAmount) {... */\n    tag_106:\n      pop\n        /* \"assignment contracts/W5 Auction.sol\":3049:3050  0 */\n      0x00\n        /* \"assignment contracts/W5 Auction.sol\":3028:3035  auction */\n      dup2\n        /* \"assignment contracts/W5 Auction.sol\":3028:3046  auction.highestBid */\n      0x03\n      add\n      sload\n        /* \"assignment contracts/W5 Auction.sol\":3028:3050  auction.highestBid > 0 */\n      gt\n        /* \"assignment contracts/W5 Auction.sol\":3024:3354  if (auction.highestBid > 0) {... */\n      iszero\n      tag_113\n      jumpi\n        /* \"assignment contracts/W5 Auction.sol\":3075:3080  token */\n      0x00\n      dup1\n      sload\n      swap1\n      0x0100\n      exp\n      swap1\n      div\n      0xffffffffffffffffffffffffffffffffffffffff\n      and\n        /* \"assignment contracts/W5 Auction.sol\":3075:3089  token.transfer */\n      0xffffffffffffffffffffffffffffffffffffffff\n      and\n      0xa9059cbb\n        /* \"assignment contracts/W5 Auction.sol\":3090:3097  auction */\n      dup3\n        /* \"assignment contracts/W5 Auction.sol\":3090:3111  auction.highestBidder */\n      0x04\n      add\n      0x00\n      swap1\n      sload\n      swap1\n      0x0100\n      exp\n      swap1\n      div\n      0xffffffffffffffffffffffffffffffffffffffff\n      and\n        /* \"assignment contracts/W5 Auction.sol\":3113:3120  auction */\n      dup4\n        /* \"assignment contracts/W5 Auction.sol\":3113:3131  auction.highestBid */\n      0x03\n      add\n      sload\n        /* \"assignment contracts/W5 Auction.sol\":3075:3132  token.transfer(auction.highestBidder, auction.highestBid) */\n      mload(0x40)\n      dup4\n      0xffffffff\n      and\n      0xe0\n      shl\n      dup2\n      mstore\n      0x04\n      add\n      tag_114\n      swap3\n      swap2\n      swap1\n      tag_68\n      jump\t// in\n    tag_114:\n      0x20\n      mload(0x40)\n      dup1\n      dup4\n      sub\n      dup2\n      0x00\n      dup8\n      gas\n      call\n      swap3\n      pop\n      pop\n      pop\n      dup1\n      iszero\n      tag_115\n      jumpi\n      pop\n      mload(0x40)\n      returndatasize\n      not(0x1f)\n      0x1f\n      dup3\n      add\n      and\n      dup3\n      add\n      dup1\n      0x40\n      mstore\n      pop\n      dup2\n      add\n      swap1\n      tag_116\n      swap2\n      swap1\n      tag_71\n      jump\t// in\n    tag_116:\n      0x01\n    tag_115:\n        /* \"assignment contracts/W5 Auction.sol\":3071:3339  try token.transfer(auction.highestBidder, auction.highestBid) {... */\n      tag_117\n      jumpi\n        /* \"assignment contracts/W5 Auction.sol\":3301:3308  auction */\n      dup1\n        /* \"assignment contracts/W5 Auction.sol\":3301:3319  auction.highestBid */\n      0x03\n      add\n      sload\n        /* \"assignment contracts/W5 Auction.sol\":3256:3274  pendingWithdrawals */\n      0x01\n        /* \"assignment contracts/W5 Auction.sol\":3256:3297  pendingWithdrawals[auction.highestBidder] */\n      0x00\n        /* \"assignment contracts/W5 Auction.sol\":3275:3282  auction */\n      dup4\n        /* \"assignment contracts/W5 Auction.sol\":3275:3296  auction.highestBidder */\n      0x04\n      add\n      0x00\n      swap1\n      sload\n      swap1\n      0x0100\n      exp\n      swap1\n      div\n      0xffffffffffffffffffffffffffffffffffffffff\n      and\n        /* \"assignment contracts/W5 Auction.sol\":3256:3297  pendingWithdrawals[auction.highestBidder] */\n      0xffffffffffffffffffffffffffffffffffffffff\n      and\n      0xffffffffffffffffffffffffffffffffffffffff\n      and\n      dup2\n      mstore\n      0x20\n      add\n      swap1\n      dup2\n      mstore\n      0x20\n      add\n      0x00\n      keccak256\n      0x00\n        /* \"assignment contracts/W5 Auction.sol\":3256:3319  pendingWithdrawals[auction.highestBidder] += auction.highestBid */\n      dup3\n      dup3\n      sload\n      tag_121\n      swap2\n      swap1\n      tag_56\n      jump\t// in\n    tag_121:\n      swap3\n      pop\n      pop\n      dup2\n      swap1\n      sstore\n      pop\n        /* \"assignment contracts/W5 Auction.sol\":3071:3339  try token.transfer(auction.highestBidder, auction.highestBid) {... */\n      jump(tag_122)\n    tag_117:\n      pop\n    tag_122:\n        /* \"assignment contracts/W5 Auction.sol\":3024:3354  if (auction.highestBid > 0) {... */\n    tag_113:\n        /* \"assignment contracts/W5 Auction.sol\":3430:3440  _bidAmount */\n      dup2\n        /* \"assignment contracts/W5 Auction.sol\":3409:3416  auction */\n      dup2\n        /* \"assignment contracts/W5 Auction.sol\":3409:3427  auction.highestBid */\n      0x03\n      add\n        /* \"assignment contracts/W5 Auction.sol\":3409:3440  auction.highestBid = _bidAmount */\n      dup2\n      swap1\n      sstore\n      pop\n        /* \"assignment contracts/W5 Auction.sol\":3479:3489  msg.sender */\n      caller\n        /* \"assignment contracts/W5 Auction.sol\":3455:3462  auction */\n      dup2\n        /* \"assignment contracts/W5 Auction.sol\":3455:3476  auction.highestBidder */\n      0x04\n      add\n      0x00\n        /* \"assignment contracts/W5 Auction.sol\":3455:3489  auction.highestBidder = msg.sender */\n      0x0100\n      exp\n      dup2\n      sload\n      dup2\n      0xffffffffffffffffffffffffffffffffffffffff\n      mul\n      not\n      and\n      swap1\n      dup4\n      0xffffffffffffffffffffffffffffffffffffffff\n      and\n      mul\n      or\n      swap1\n      sstore\n      pop\n        /* \"assignment contracts/W5 Auction.sol\":3533:3543  msg.sender */\n      caller\n        /* \"assignment contracts/W5 Auction.sol\":3511:3556  BidPlaced(_auctionId, msg.sender, _bidAmount) */\n      0xffffffffffffffffffffffffffffffffffffffff\n      and\n        /* \"assignment contracts/W5 Auction.sol\":3521:3531  _auctionId */\n      dup4\n        /* \"assignment contracts/W5 Auction.sol\":3511:3556  BidPlaced(_auctionId, msg.sender, _bidAmount) */\n      0x0e54eff26401bf69b81b26f60bd85ef47f5d85275c1d268d84f68d6897431c47\n        /* \"assignment contracts/W5 Auction.sol\":3545:3555  _bidAmount */\n      dup5\n        /* \"assignment contracts/W5 Auction.sol\":3511:3556  BidPlaced(_auctionId, msg.sender, _bidAmount) */\n      mload(0x40)\n      tag_123\n      swap2\n      swap1\n      tag_31\n      jump\t// in\n    tag_123:\n      mload(0x40)\n      dup1\n      swap2\n      sub\n      swap1\n      log3\n        /* \"assignment contracts/W5 Auction.sol\":2362:3639  {... */\n      pop\n        /* \"assignment contracts/W5 Auction.sol\":2295:3639  function placeBid(uint256 _auctionId, uint256 _bidAmount) external {... */\n      pop\n      pop\n      jump\t// out\n        /* \"assignment contracts/W5 Auction.sol\":854:885  uint256 public auctionIdCounter */\n    tag_29:\n      sload(0x03)\n      dup2\n      jump\t// out\n        /* \"assignment contracts/W5 Auction.sol\":3727:4800  function finalizeAuction(uint256 _auctionId) external {... */\n    tag_34:\n        /* \"assignment contracts/W5 Auction.sol\":3813:3821  auctions */\n      0x02\n        /* \"assignment contracts/W5 Auction.sol\":3813:3828  auctions.length */\n      dup1\n      sload\n      swap1\n      pop\n        /* \"assignment contracts/W5 Auction.sol\":3800:3810  _auctionId */\n      dup2\n        /* \"assignment contracts/W5 Auction.sol\":3800:3828  _auctionId < auctions.length */\n      lt\n        /* \"assignment contracts/W5 Auction.sol\":3792:3856  require(_auctionId < auctions.length, \"Auction does not exist.\") */\n      tag_125\n      jumpi\n      mload(0x40)\n      0x08c379a000000000000000000000000000000000000000000000000000000000\n      dup2\n      mstore\n      0x04\n      add\n      tag_126\n      swap1\n      tag_85\n      jump\t// in\n    tag_126:\n      mload(0x40)\n      dup1\n      swap2\n      sub\n      swap1\n      revert\n    tag_125:\n        /* \"assignment contracts/W5 Auction.sol\":3867:3894  AuctionItem storage auction */\n      0x00\n        /* \"assignment contracts/W5 Auction.sol\":3897:3905  auctions */\n      0x02\n        /* \"assignment contracts/W5 Auction.sol\":3906:3916  _auctionId */\n      dup3\n        /* \"assignment contracts/W5 Auction.sol\":3897:3917  auctions[_auctionId] */\n      dup2\n      sload\n      dup2\n      lt\n      tag_127\n      jumpi\n      tag_128\n      tag_88\n      jump\t// in\n    tag_128:\n    tag_127:\n      swap1\n      0x00\n      mstore\n      keccak256(0x00, 0x20)\n      swap1\n      0x06\n      mul\n      add\n        /* \"assignment contracts/W5 Auction.sol\":3867:3917  AuctionItem storage auction = auctions[_auctionId] */\n      swap1\n      pop\n        /* \"assignment contracts/W5 Auction.sol\":3955:3962  auction */\n      dup1\n        /* \"assignment contracts/W5 Auction.sol\":3955:3970  auction.endTime */\n      0x05\n      add\n      sload\n        /* \"assignment contracts/W5 Auction.sol\":3936:3951  block.timestamp */\n      timestamp\n        /* \"assignment contracts/W5 Auction.sol\":3936:3970  block.timestamp >= auction.endTime */\n      lt\n      iszero\n        /* \"assignment contracts/W5 Auction.sol\":3928:3997  require(block.timestamp >= auction.endTime, \"Auction has not ended.\") */\n      tag_130\n      jumpi\n      mload(0x40)\n      0x08c379a000000000000000000000000000000000000000000000000000000000\n      dup2\n      mstore\n      0x04\n      add\n      tag_131\n      swap1\n      tag_132\n      jump\t// in\n    tag_131:\n      mload(0x40)\n      dup1\n      swap2\n      sub\n      swap1\n      revert\n    tag_130:\n        /* \"assignment contracts/W5 Auction.sol\":4016:4023  auction */\n      dup1\n        /* \"assignment contracts/W5 Auction.sol\":4016:4032  auction.isActive */\n      0x04\n      add\n      0x14\n      swap1\n      sload\n      swap1\n      0x0100\n      exp\n      swap1\n      div\n      0xff\n      and\n        /* \"assignment contracts/W5 Auction.sol\":4008:4059  require(auction.isActive, \"Auction is not active.\") */\n      tag_133\n      jumpi\n      mload(0x40)\n      0x08c379a000000000000000000000000000000000000000000000000000000000\n      dup2\n      mstore\n      0x04\n      add\n      tag_134\n      swap1\n      tag_92\n      jump\t// in\n    tag_134:\n      mload(0x40)\n      dup1\n      swap2\n      sub\n      swap1\n      revert\n    tag_133:\n        /* \"assignment contracts/W5 Auction.sol\":4091:4096  false */\n      0x00\n        /* \"assignment contracts/W5 Auction.sol\":4072:4079  auction */\n      dup2\n        /* \"assignment contracts/W5 Auction.sol\":4072:4088  auction.isActive */\n      0x04\n      add\n      0x14\n        /* \"assignment contracts/W5 Auction.sol\":4072:4096  auction.isActive = false */\n      0x0100\n      exp\n      dup2\n      sload\n      dup2\n      0xff\n      mul\n      not\n      and\n      swap1\n      dup4\n      iszero\n      iszero\n      mul\n      or\n      swap1\n      sstore\n      pop\n        /* \"assignment contracts/W5 Auction.sol\":4134:4135  0 */\n      0x00\n        /* \"assignment contracts/W5 Auction.sol\":4113:4120  auction */\n      dup2\n        /* \"assignment contracts/W5 Auction.sol\":4113:4131  auction.highestBid */\n      0x03\n      add\n      sload\n        /* \"assignment contracts/W5 Auction.sol\":4113:4135  auction.highestBid > 0 */\n      gt\n        /* \"assignment contracts/W5 Auction.sol\":4109:4793  if (auction.highestBid > 0) {... */\n      iszero\n      tag_135\n      jumpi\n        /* \"assignment contracts/W5 Auction.sol\":4207:4212  token */\n      0x00\n      dup1\n      sload\n      swap1\n      0x0100\n      exp\n      swap1\n      div\n      0xffffffffffffffffffffffffffffffffffffffff\n      and\n        /* \"assignment contracts/W5 Auction.sol\":4207:4221  token.transfer */\n      0xffffffffffffffffffffffffffffffffffffffff\n      and\n      0xa9059cbb\n        /* \"assignment contracts/W5 Auction.sol\":4222:4229  auction */\n      dup3\n        /* \"assignment contracts/W5 Auction.sol\":4222:4236  auction.seller */\n      0x01\n      add\n      0x00\n      swap1\n      sload\n      swap1\n      0x0100\n      exp\n      swap1\n      div\n      0xffffffffffffffffffffffffffffffffffffffff\n      and\n        /* \"assignment contracts/W5 Auction.sol\":4238:4245  auction */\n      dup4\n        /* \"assignment contracts/W5 Auction.sol\":4238:4256  auction.highestBid */\n      0x03\n      add\n      sload\n        /* \"assignment contracts/W5 Auction.sol\":4207:4257  token.transfer(auction.seller, auction.highestBid) */\n      mload(0x40)\n      dup4\n      0xffffffff\n      and\n      0xe0\n      shl\n      dup2\n      mstore\n      0x04\n      add\n      tag_136\n      swap3\n      swap2\n      swap1\n      tag_68\n      jump\t// in\n    tag_136:\n      0x20\n      mload(0x40)\n      dup1\n      dup4\n      sub\n      dup2\n      0x00\n      dup8\n      gas\n      call\n      swap3\n      pop\n      pop\n      pop\n      dup1\n      iszero\n      tag_137\n      jumpi\n      pop\n      mload(0x40)\n      returndatasize\n      not(0x1f)\n      0x1f\n      dup3\n      add\n      and\n      dup3\n      add\n      dup1\n      0x40\n      mstore\n      pop\n      dup2\n      add\n      swap1\n      tag_138\n      swap2\n      swap1\n      tag_71\n      jump\t// in\n    tag_138:\n      0x01\n    tag_137:\n        /* \"assignment contracts/W5 Auction.sol\":4203:4636  try token.transfer(auction.seller, auction.highestBid) {... */\n      tag_139\n      jumpi\n        /* \"assignment contracts/W5 Auction.sol\":4507:4514  auction */\n      dup1\n        /* \"assignment contracts/W5 Auction.sol\":4507:4525  auction.highestBid */\n      0x03\n      add\n      sload\n        /* \"assignment contracts/W5 Auction.sol\":4469:4487  pendingWithdrawals */\n      0x01\n        /* \"assignment contracts/W5 Auction.sol\":4469:4503  pendingWithdrawals[auction.seller] */\n      0x00\n        /* \"assignment contracts/W5 Auction.sol\":4488:4495  auction */\n      dup4\n        /* \"assignment contracts/W5 Auction.sol\":4488:4502  auction.seller */\n      0x01\n      add\n      0x00\n      swap1\n      sload\n      swap1\n      0x0100\n      exp\n      swap1\n      div\n      0xffffffffffffffffffffffffffffffffffffffff\n      and\n        /* \"assignment contracts/W5 Auction.sol\":4469:4503  pendingWithdrawals[auction.seller] */\n      0xffffffffffffffffffffffffffffffffffffffff\n      and\n      0xffffffffffffffffffffffffffffffffffffffff\n      and\n      dup2\n      mstore\n      0x20\n      add\n      swap1\n      dup2\n      mstore\n      0x20\n      add\n      0x00\n      keccak256\n      0x00\n        /* \"assignment contracts/W5 Auction.sol\":4469:4525  pendingWithdrawals[auction.seller] += auction.highestBid */\n      dup3\n      dup3\n      sload\n      tag_143\n      swap2\n      swap1\n      tag_56\n      jump\t// in\n    tag_143:\n      swap3\n      pop\n      pop\n      dup2\n      swap1\n      sstore\n      pop\n        /* \"assignment contracts/W5 Auction.sol\":4578:4585  auction */\n      dup1\n        /* \"assignment contracts/W5 Auction.sol\":4578:4599  auction.highestBidder */\n      0x04\n      add\n      0x00\n      swap1\n      sload\n      swap1\n      0x0100\n      exp\n      swap1\n      div\n      0xffffffffffffffffffffffffffffffffffffffff\n      and\n        /* \"assignment contracts/W5 Auction.sol\":4549:4620  AuctionFinalized(_auctionId, auction.highestBidder, auction.highestBid) */\n      0xffffffffffffffffffffffffffffffffffffffff\n      and\n        /* \"assignment contracts/W5 Auction.sol\":4566:4576  _auctionId */\n      dup3\n        /* \"assignment contracts/W5 Auction.sol\":4549:4620  AuctionFinalized(_auctionId, auction.highestBidder, auction.highestBid) */\n      0x4d9113a1377d665eaa1f9168a9c9080f2e488cb820b10149de3d6d2e0f2780c7\n        /* \"assignment contracts/W5 Auction.sol\":4601:4608  auction */\n      dup4\n        /* \"assignment contracts/W5 Auction.sol\":4601:4619  auction.highestBid */\n      0x03\n      add\n      sload\n        /* \"assignment contracts/W5 Auction.sol\":4549:4620  AuctionFinalized(_auctionId, auction.highestBidder, auction.highestBid) */\n      mload(0x40)\n      tag_144\n      swap2\n      swap1\n      tag_31\n      jump\t// in\n    tag_144:\n      mload(0x40)\n      dup1\n      swap2\n      sub\n      swap1\n      log3\n        /* \"assignment contracts/W5 Auction.sol\":4203:4636  try token.transfer(auction.seller, auction.highestBid) {... */\n      jump(tag_145)\n    tag_139:\n      pop\n        /* \"assignment contracts/W5 Auction.sol\":4311:4318  auction */\n      dup1\n        /* \"assignment contracts/W5 Auction.sol\":4311:4332  auction.highestBidder */\n      0x04\n      add\n      0x00\n      swap1\n      sload\n      swap1\n      0x0100\n      exp\n      swap1\n      div\n      0xffffffffffffffffffffffffffffffffffffffff\n      and\n        /* \"assignment contracts/W5 Auction.sol\":4282:4353  AuctionFinalized(_auctionId, auction.highestBidder, auction.highestBid) */\n      0xffffffffffffffffffffffffffffffffffffffff\n      and\n        /* \"assignment contracts/W5 Auction.sol\":4299:4309  _auctionId */\n      dup3\n        /* \"assignment contracts/W5 Auction.sol\":4282:4353  AuctionFinalized(_auctionId, auction.highestBidder, auction.highestBid) */\n      0x4d9113a1377d665eaa1f9168a9c9080f2e488cb820b10149de3d6d2e0f2780c7\n        /* \"assignment contracts/W5 Auction.sol\":4334:4341  auction */\n      dup4\n        /* \"assignment contracts/W5 Auction.sol\":4334:4352  auction.highestBid */\n      0x03\n      add\n      sload\n        /* \"assignment contracts/W5 Auction.sol\":4282:4353  AuctionFinalized(_auctionId, auction.highestBidder, auction.highestBid) */\n      mload(0x40)\n      tag_146\n      swap2\n      swap1\n      tag_31\n      jump\t// in\n    tag_146:\n      mload(0x40)\n      dup1\n      swap2\n      sub\n      swap1\n      log3\n        /* \"assignment contracts/W5 Auction.sol\":4203:4636  try token.transfer(auction.seller, auction.highestBid) {... */\n    tag_145:\n        /* \"assignment contracts/W5 Auction.sol\":4109:4793  if (auction.highestBid > 0) {... */\n      jump(tag_147)\n    tag_135:\n        /* \"assignment contracts/W5 Auction.sol\":4775:4776  0 */\n      0x00\n        /* \"assignment contracts/W5 Auction.sol\":4738:4781  AuctionFinalized(_auctionId, address(0), 0) */\n      0xffffffffffffffffffffffffffffffffffffffff\n      and\n        /* \"assignment contracts/W5 Auction.sol\":4755:4765  _auctionId */\n      dup3\n        /* \"assignment contracts/W5 Auction.sol\":4738:4781  AuctionFinalized(_auctionId, address(0), 0) */\n      0x4d9113a1377d665eaa1f9168a9c9080f2e488cb820b10149de3d6d2e0f2780c7\n        /* \"assignment contracts/W5 Auction.sol\":4779:4780  0 */\n      0x00\n        /* \"assignment contracts/W5 Auction.sol\":4738:4781  AuctionFinalized(_auctionId, address(0), 0) */\n      mload(0x40)\n      tag_148\n      swap2\n      swap1\n      tag_149\n      jump\t// in\n    tag_148:\n      mload(0x40)\n      dup1\n      swap2\n      sub\n      swap1\n      log3\n        /* \"assignment contracts/W5 Auction.sol\":4109:4793  if (auction.highestBid > 0) {... */\n    tag_147:\n        /* \"assignment contracts/W5 Auction.sol\":3781:4800  {... */\n      pop\n        /* \"assignment contracts/W5 Auction.sol\":3727:4800  function finalizeAuction(uint256 _auctionId) external {... */\n      pop\n      jump\t// out\n        /* \"assignment contracts/W5 Auction.sol\":5421:6137  function getAuctionDetails(uint256 _auctionId)... */\n    tag_37:\n        /* \"assignment contracts/W5 Auction.sol\":5532:5542  uint256 id */\n      0x00\n        /* \"assignment contracts/W5 Auction.sol\":5557:5571  address seller */\n      dup1\n        /* \"assignment contracts/W5 Auction.sol\":5586:5600  uint256 minBid */\n      0x00\n        /* \"assignment contracts/W5 Auction.sol\":5615:5633  uint256 highestBid */\n      dup1\n        /* \"assignment contracts/W5 Auction.sol\":5648:5669  address highestBidder */\n      0x00\n        /* \"assignment contracts/W5 Auction.sol\":5684:5697  bool isActive */\n      dup1\n        /* \"assignment contracts/W5 Auction.sol\":5712:5727  uint256 endTime */\n      0x00\n        /* \"assignment contracts/W5 Auction.sol\":5776:5784  auctions */\n      0x02\n        /* \"assignment contracts/W5 Auction.sol\":5776:5791  auctions.length */\n      dup1\n      sload\n      swap1\n      pop\n        /* \"assignment contracts/W5 Auction.sol\":5763:5773  _auctionId */\n      dup9\n        /* \"assignment contracts/W5 Auction.sol\":5763:5791  _auctionId < auctions.length */\n      lt\n        /* \"assignment contracts/W5 Auction.sol\":5755:5819  require(_auctionId < auctions.length, \"Auction does not exist.\") */\n      tag_151\n      jumpi\n      mload(0x40)\n      0x08c379a000000000000000000000000000000000000000000000000000000000\n      dup2\n      mstore\n      0x04\n      add\n      tag_152\n      swap1\n      tag_85\n      jump\t// in\n    tag_152:\n      mload(0x40)\n      dup1\n      swap2\n      sub\n      swap1\n      revert\n    tag_151:\n        /* \"assignment contracts/W5 Auction.sol\":5836:5862  AuctionItem memory auction */\n      0x00\n        /* \"assignment contracts/W5 Auction.sol\":5865:5873  auctions */\n      0x02\n        /* \"assignment contracts/W5 Auction.sol\":5874:5884  _auctionId */\n      dup10\n        /* \"assignment contracts/W5 Auction.sol\":5865:5885  auctions[_auctionId] */\n      dup2\n      sload\n      dup2\n      lt\n      tag_153\n      jumpi\n      tag_154\n      tag_88\n      jump\t// in\n    tag_154:\n    tag_153:\n      swap1\n      0x00\n      mstore\n      keccak256(0x00, 0x20)\n      swap1\n      0x06\n      mul\n      add\n        /* \"assignment contracts/W5 Auction.sol\":5836:5885  AuctionItem memory auction = auctions[_auctionId] */\n      mload(0x40)\n      dup1\n      0xe0\n      add\n      0x40\n      mstore\n      swap1\n      dup2\n      0x00\n      dup3\n      add\n      sload\n      dup2\n      mstore\n      0x20\n      add\n      0x01\n      dup3\n      add\n      0x00\n      swap1\n      sload\n      swap1\n      0x0100\n      exp\n      swap1\n      div\n      0xffffffffffffffffffffffffffffffffffffffff\n      and\n      0xffffffffffffffffffffffffffffffffffffffff\n      and\n      0xffffffffffffffffffffffffffffffffffffffff\n      and\n      dup2\n      mstore\n      0x20\n      add\n      0x02\n      dup3\n      add\n      sload\n      dup2\n      mstore\n      0x20\n      add\n      0x03\n      dup3\n      add\n      sload\n      dup2\n      mstore\n      0x20\n      add\n      0x04\n      dup3\n      add\n      0x00\n      swap1\n      sload\n      swap1\n      0x0100\n      exp\n      swap1\n      div\n      0xffffffffffffffffffffffffffffffffffffffff\n      and\n      0xffffffffffffffffffffffffffffffffffffffff\n      and\n      0xffffffffffffffffffffffffffffffffffffffff\n      and\n      dup2\n      mstore\n      0x20\n      add\n      0x04\n      dup3\n      add\n      0x14\n      swap1\n      sload\n      swap1\n      0x0100\n      exp\n      swap1\n      div\n      0xff\n      and\n      iszero\n      iszero\n      iszero\n      iszero\n      dup2\n      mstore\n      0x20\n      add\n      0x05\n      dup3\n      add\n      sload\n      dup2\n      mstore\n      pop\n      pop\n      swap1\n      pop\n        /* \"assignment contracts/W5 Auction.sol\":5920:5927  auction */\n      dup1\n        /* \"assignment contracts/W5 Auction.sol\":5920:5930  auction.id */\n      0x00\n      add\n      mload\n        /* \"assignment contracts/W5 Auction.sol\":5945:5952  auction */\n      dup2\n        /* \"assignment contracts/W5 Auction.sol\":5945:5959  auction.seller */\n      0x20\n      add\n      mload\n        /* \"assignment contracts/W5 Auction.sol\":5974:5981  auction */\n      dup3\n        /* \"assignment contracts/W5 Auction.sol\":5974:5988  auction.minBid */\n      0x40\n      add\n      mload\n        /* \"assignment contracts/W5 Auction.sol\":6003:6010  auction */\n      dup4\n        /* \"assignment contracts/W5 Auction.sol\":6003:6021  auction.highestBid */\n      0x60\n      add\n      mload\n        /* \"assignment contracts/W5 Auction.sol\":6036:6043  auction */\n      dup5\n        /* \"assignment contracts/W5 Auction.sol\":6036:6057  auction.highestBidder */\n      0x80\n      add\n      mload\n        /* \"assignment contracts/W5 Auction.sol\":6072:6079  auction */\n      dup6\n        /* \"assignment contracts/W5 Auction.sol\":6072:6088  auction.isActive */\n      0xa0\n      add\n      mload\n        /* \"assignment contracts/W5 Auction.sol\":6103:6110  auction */\n      dup7\n        /* \"assignment contracts/W5 Auction.sol\":6103:6118  auction.endTime */\n      0xc0\n      add\n      mload\n        /* \"assignment contracts/W5 Auction.sol\":5898:6129  return (... */\n      swap8\n      pop\n      swap8\n      pop\n      swap8\n      pop\n      swap8\n      pop\n      swap8\n      pop\n      swap8\n      pop\n      swap8\n      pop\n      pop\n        /* \"assignment contracts/W5 Auction.sol\":5421:6137  function getAuctionDetails(uint256 _auctionId)... */\n      swap2\n      swap4\n      swap6\n      swap8\n      swap1\n      swap3\n      swap5\n      swap7\n      pop\n      jump\t// out\n        /* \"assignment contracts/W5 Auction.sol\":697:750  mapping(address => uint256) public pendingWithdrawals */\n    tag_42:\n      mstore(0x20, 0x01)\n      dup1\n      0x00\n      mstore\n      keccak256(0x00, 0x40)\n      0x00\n      swap2\n      pop\n      swap1\n      pop\n      sload\n      dup2\n      jump\t// out\n        /* \"assignment contracts/W5 Auction.sol\":378:397  IERC20 public token */\n    tag_45:\n      0x00\n      dup1\n      sload\n      swap1\n      0x0100\n      exp\n      swap1\n      div\n      0xffffffffffffffffffffffffffffffffffffffff\n      and\n      dup2\n      jump\t// out\n        /* \"#utility.yul\":88:205   */\n    tag_157:\n        /* \"#utility.yul\":197:198   */\n      0x00\n        /* \"#utility.yul\":194:195   */\n      dup1\n        /* \"#utility.yul\":187:199   */\n      revert\n        /* \"#utility.yul\":334:411   */\n    tag_159:\n        /* \"#utility.yul\":371:378   */\n      0x00\n        /* \"#utility.yul\":400:405   */\n      dup2\n        /* \"#utility.yul\":389:405   */\n      swap1\n      pop\n        /* \"#utility.yul\":334:411   */\n      swap2\n      swap1\n      pop\n      jump\t// out\n        /* \"#utility.yul\":417:539   */\n    tag_160:\n        /* \"#utility.yul\":490:514   */\n      tag_210\n        /* \"#utility.yul\":508:513   */\n      dup2\n        /* \"#utility.yul\":490:514   */\n      tag_159\n      jump\t// in\n    tag_210:\n        /* \"#utility.yul\":483:488   */\n      dup2\n        /* \"#utility.yul\":480:515   */\n      eq\n        /* \"#utility.yul\":470:533   */\n      tag_211\n      jumpi\n        /* \"#utility.yul\":529:530   */\n      0x00\n        /* \"#utility.yul\":526:527   */\n      dup1\n        /* \"#utility.yul\":519:531   */\n      revert\n        /* \"#utility.yul\":470:533   */\n    tag_211:\n        /* \"#utility.yul\":417:539   */\n      pop\n      jump\t// out\n        /* \"#utility.yul\":545:684   */\n    tag_161:\n        /* \"#utility.yul\":591:596   */\n      0x00\n        /* \"#utility.yul\":629:635   */\n      dup2\n        /* \"#utility.yul\":616:636   */\n      calldataload\n        /* \"#utility.yul\":607:636   */\n      swap1\n      pop\n        /* \"#utility.yul\":645:678   */\n      tag_213\n        /* \"#utility.yul\":672:677   */\n      dup2\n        /* \"#utility.yul\":645:678   */\n      tag_160\n      jump\t// in\n    tag_213:\n        /* \"#utility.yul\":545:684   */\n      swap3\n      swap2\n      pop\n      pop\n      jump\t// out\n        /* \"#utility.yul\":690:1164   */\n    tag_15:\n        /* \"#utility.yul\":758:764   */\n      0x00\n        /* \"#utility.yul\":766:772   */\n      dup1\n        /* \"#utility.yul\":815:817   */\n      0x40\n        /* \"#utility.yul\":803:812   */\n      dup4\n        /* \"#utility.yul\":794:801   */\n      dup6\n        /* \"#utility.yul\":790:813   */\n      sub\n        /* \"#utility.yul\":786:818   */\n      slt\n        /* \"#utility.yul\":783:902   */\n      iszero\n      tag_215\n      jumpi\n        /* \"#utility.yul\":821:900   */\n      tag_216\n      tag_157\n      jump\t// in\n    tag_216:\n        /* \"#utility.yul\":783:902   */\n    tag_215:\n        /* \"#utility.yul\":941:942   */\n      0x00\n        /* \"#utility.yul\":966:1019   */\n      tag_217\n        /* \"#utility.yul\":1011:1018   */\n      dup6\n        /* \"#utility.yul\":1002:1008   */\n      dup3\n        /* \"#utility.yul\":991:1000   */\n      dup7\n        /* \"#utility.yul\":987:1009   */\n      add\n        /* \"#utility.yul\":966:1019   */\n      tag_161\n      jump\t// in\n    tag_217:\n        /* \"#utility.yul\":956:1019   */\n      swap3\n      pop\n        /* \"#utility.yul\":912:1029   */\n      pop\n        /* \"#utility.yul\":1068:1070   */\n      0x20\n        /* \"#utility.yul\":1094:1147   */\n      tag_218\n        /* \"#utility.yul\":1139:1146   */\n      dup6\n        /* \"#utility.yul\":1130:1136   */\n      dup3\n        /* \"#utility.yul\":1119:1128   */\n      dup7\n        /* \"#utility.yul\":1115:1137   */\n      add\n        /* \"#utility.yul\":1094:1147   */\n      tag_161\n      jump\t// in\n    tag_218:\n        /* \"#utility.yul\":1084:1147   */\n      swap2\n      pop\n        /* \"#utility.yul\":1039:1157   */\n      pop\n        /* \"#utility.yul\":690:1164   */\n      swap3\n      pop\n      swap3\n      swap1\n      pop\n      jump\t// out\n        /* \"#utility.yul\":1170:1499   */\n    tag_21:\n        /* \"#utility.yul\":1229:1235   */\n      0x00\n        /* \"#utility.yul\":1278:1280   */\n      0x20\n        /* \"#utility.yul\":1266:1275   */\n      dup3\n        /* \"#utility.yul\":1257:1264   */\n      dup5\n        /* \"#utility.yul\":1253:1276   */\n      sub\n        /* \"#utility.yul\":1249:1281   */\n      slt\n        /* \"#utility.yul\":1246:1365   */\n      iszero\n      tag_220\n      jumpi\n        /* \"#utility.yul\":1284:1363   */\n      tag_221\n      tag_157\n      jump\t// in\n    tag_221:\n        /* \"#utility.yul\":1246:1365   */\n    tag_220:\n        /* \"#utility.yul\":1404:1405   */\n      0x00\n        /* \"#utility.yul\":1429:1482   */\n      tag_222\n        /* \"#utility.yul\":1474:1481   */\n      dup5\n        /* \"#utility.yul\":1465:1471   */\n      dup3\n        /* \"#utility.yul\":1454:1463   */\n      dup6\n        /* \"#utility.yul\":1450:1472   */\n      add\n        /* \"#utility.yul\":1429:1482   */\n      tag_161\n      jump\t// in\n    tag_222:\n        /* \"#utility.yul\":1419:1482   */\n      swap2\n      pop\n        /* \"#utility.yul\":1375:1492   */\n      pop\n        /* \"#utility.yul\":1170:1499   */\n      swap3\n      swap2\n      pop\n      pop\n      jump\t// out\n        /* \"#utility.yul\":1505:1623   */\n    tag_162:\n        /* \"#utility.yul\":1592:1616   */\n      tag_224\n        /* \"#utility.yul\":1610:1615   */\n      dup2\n        /* \"#utility.yul\":1592:1616   */\n      tag_159\n      jump\t// in\n    tag_224:\n        /* \"#utility.yul\":1587:1590   */\n      dup3\n        /* \"#utility.yul\":1580:1617   */\n      mstore\n        /* \"#utility.yul\":1505:1623   */\n      pop\n      pop\n      jump\t// out\n        /* \"#utility.yul\":1629:1755   */\n    tag_163:\n        /* \"#utility.yul\":1666:1673   */\n      0x00\n        /* \"#utility.yul\":1706:1748   */\n      0xffffffffffffffffffffffffffffffffffffffff\n        /* \"#utility.yul\":1699:1704   */\n      dup3\n        /* \"#utility.yul\":1695:1749   */\n      and\n        /* \"#utility.yul\":1684:1749   */\n      swap1\n      pop\n        /* \"#utility.yul\":1629:1755   */\n      swap2\n      swap1\n      pop\n      jump\t// out\n        /* \"#utility.yul\":1761:1857   */\n    tag_164:\n        /* \"#utility.yul\":1798:1805   */\n      0x00\n        /* \"#utility.yul\":1827:1851   */\n      tag_227\n        /* \"#utility.yul\":1845:1850   */\n      dup3\n        /* \"#utility.yul\":1827:1851   */\n      tag_163\n      jump\t// in\n    tag_227:\n        /* \"#utility.yul\":1816:1851   */\n      swap1\n      pop\n        /* \"#utility.yul\":1761:1857   */\n      swap2\n      swap1\n      pop\n      jump\t// out\n        /* \"#utility.yul\":1863:1981   */\n    tag_165:\n        /* \"#utility.yul\":1950:1974   */\n      tag_229\n        /* \"#utility.yul\":1968:1973   */\n      dup2\n        /* \"#utility.yul\":1950:1974   */\n      tag_164\n      jump\t// in\n    tag_229:\n        /* \"#utility.yul\":1945:1948   */\n      dup3\n        /* \"#utility.yul\":1938:1975   */\n      mstore\n        /* \"#utility.yul\":1863:1981   */\n      pop\n      pop\n      jump\t// out\n        /* \"#utility.yul\":1987:2077   */\n    tag_166:\n        /* \"#utility.yul\":2021:2028   */\n      0x00\n        /* \"#utility.yul\":2064:2069   */\n      dup2\n        /* \"#utility.yul\":2057:2070   */\n      iszero\n        /* \"#utility.yul\":2050:2071   */\n      iszero\n        /* \"#utility.yul\":2039:2071   */\n      swap1\n      pop\n        /* \"#utility.yul\":1987:2077   */\n      swap2\n      swap1\n      pop\n      jump\t// out\n        /* \"#utility.yul\":2083:2192   */\n    tag_167:\n        /* \"#utility.yul\":2164:2185   */\n      tag_232\n        /* \"#utility.yul\":2179:2184   */\n      dup2\n        /* \"#utility.yul\":2164:2185   */\n      tag_166\n      jump\t// in\n    tag_232:\n        /* \"#utility.yul\":2159:2162   */\n      dup3\n        /* \"#utility.yul\":2152:2186   */\n      mstore\n        /* \"#utility.yul\":2083:2192   */\n      pop\n      pop\n      jump\t// out\n        /* \"#utility.yul\":2198:3072   */\n    tag_24:\n        /* \"#utility.yul\":2453:2457   */\n      0x00\n        /* \"#utility.yul\":2491:2494   */\n      0xe0\n        /* \"#utility.yul\":2480:2489   */\n      dup3\n        /* \"#utility.yul\":2476:2495   */\n      add\n        /* \"#utility.yul\":2468:2495   */\n      swap1\n      pop\n        /* \"#utility.yul\":2505:2576   */\n      tag_234\n        /* \"#utility.yul\":2573:2574   */\n      0x00\n        /* \"#utility.yul\":2562:2571   */\n      dup4\n        /* \"#utility.yul\":2558:2575   */\n      add\n        /* \"#utility.yul\":2549:2555   */\n      dup11\n        /* \"#utility.yul\":2505:2576   */\n      tag_162\n      jump\t// in\n    tag_234:\n        /* \"#utility.yul\":2586:2658   */\n      tag_235\n        /* \"#utility.yul\":2654:2656   */\n      0x20\n        /* \"#utility.yul\":2643:2652   */\n      dup4\n        /* \"#utility.yul\":2639:2657   */\n      add\n        /* \"#utility.yul\":2630:2636   */\n      dup10\n        /* \"#utility.yul\":2586:2658   */\n      tag_165\n      jump\t// in\n    tag_235:\n        /* \"#utility.yul\":2668:2740   */\n      tag_236\n        /* \"#utility.yul\":2736:2738   */\n      0x40\n        /* \"#utility.yul\":2725:2734   */\n      dup4\n        /* \"#utility.yul\":2721:2739   */\n      add\n        /* \"#utility.yul\":2712:2718   */\n      dup9\n        /* \"#utility.yul\":2668:2740   */\n      tag_162\n      jump\t// in\n    tag_236:\n        /* \"#utility.yul\":2750:2822   */\n      tag_237\n        /* \"#utility.yul\":2818:2820   */\n      0x60\n        /* \"#utility.yul\":2807:2816   */\n      dup4\n        /* \"#utility.yul\":2803:2821   */\n      add\n        /* \"#utility.yul\":2794:2800   */\n      dup8\n        /* \"#utility.yul\":2750:2822   */\n      tag_162\n      jump\t// in\n    tag_237:\n        /* \"#utility.yul\":2832:2905   */\n      tag_238\n        /* \"#utility.yul\":2900:2903   */\n      0x80\n        /* \"#utility.yul\":2889:2898   */\n      dup4\n        /* \"#utility.yul\":2885:2904   */\n      add\n        /* \"#utility.yul\":2876:2882   */\n      dup7\n        /* \"#utility.yul\":2832:2905   */\n      tag_165\n      jump\t// in\n    tag_238:\n        /* \"#utility.yul\":2915:2982   */\n      tag_239\n        /* \"#utility.yul\":2977:2980   */\n      0xa0\n        /* \"#utility.yul\":2966:2975   */\n      dup4\n        /* \"#utility.yul\":2962:2981   */\n      add\n        /* \"#utility.yul\":2953:2959   */\n      dup6\n        /* \"#utility.yul\":2915:2982   */\n      tag_167\n      jump\t// in\n    tag_239:\n        /* \"#utility.yul\":2992:3065   */\n      tag_240\n        /* \"#utility.yul\":3060:3063   */\n      0xc0\n        /* \"#utility.yul\":3049:3058   */\n      dup4\n        /* \"#utility.yul\":3045:3064   */\n      add\n        /* \"#utility.yul\":3036:3042   */\n      dup5\n        /* \"#utility.yul\":2992:3065   */\n      tag_162\n      jump\t// in\n    tag_240:\n        /* \"#utility.yul\":2198:3072   */\n      swap9\n      swap8\n      pop\n      pop\n      pop\n      pop\n      pop\n      pop\n      pop\n      pop\n      jump\t// out\n        /* \"#utility.yul\":3078:3300   */\n    tag_31:\n        /* \"#utility.yul\":3171:3175   */\n      0x00\n        /* \"#utility.yul\":3209:3211   */\n      0x20\n        /* \"#utility.yul\":3198:3207   */\n      dup3\n        /* \"#utility.yul\":3194:3212   */\n      add\n        /* \"#utility.yul\":3186:3212   */\n      swap1\n      pop\n        /* \"#utility.yul\":3222:3293   */\n      tag_242\n        /* \"#utility.yul\":3290:3291   */\n      0x00\n        /* \"#utility.yul\":3279:3288   */\n      dup4\n        /* \"#utility.yul\":3275:3292   */\n      add\n        /* \"#utility.yul\":3266:3272   */\n      dup5\n        /* \"#utility.yul\":3222:3293   */\n      tag_162\n      jump\t// in\n    tag_242:\n        /* \"#utility.yul\":3078:3300   */\n      swap3\n      swap2\n      pop\n      pop\n      jump\t// out\n        /* \"#utility.yul\":3306:3428   */\n    tag_168:\n        /* \"#utility.yul\":3379:3403   */\n      tag_244\n        /* \"#utility.yul\":3397:3402   */\n      dup2\n        /* \"#utility.yul\":3379:3403   */\n      tag_164\n      jump\t// in\n    tag_244:\n        /* \"#utility.yul\":3372:3377   */\n      dup2\n        /* \"#utility.yul\":3369:3404   */\n      eq\n        /* \"#utility.yul\":3359:3422   */\n      tag_245\n      jumpi\n        /* \"#utility.yul\":3418:3419   */\n      0x00\n        /* \"#utility.yul\":3415:3416   */\n      dup1\n        /* \"#utility.yul\":3408:3420   */\n      revert\n        /* \"#utility.yul\":3359:3422   */\n    tag_245:\n        /* \"#utility.yul\":3306:3428   */\n      pop\n      jump\t// out\n        /* \"#utility.yul\":3434:3573   */\n    tag_169:\n        /* \"#utility.yul\":3480:3485   */\n      0x00\n        /* \"#utility.yul\":3518:3524   */\n      dup2\n        /* \"#utility.yul\":3505:3525   */\n      calldataload\n        /* \"#utility.yul\":3496:3525   */\n      swap1\n      pop\n        /* \"#utility.yul\":3534:3567   */\n      tag_247\n        /* \"#utility.yul\":3561:3566   */\n      dup2\n        /* \"#utility.yul\":3534:3567   */\n      tag_168\n      jump\t// in\n    tag_247:\n        /* \"#utility.yul\":3434:3573   */\n      swap3\n      swap2\n      pop\n      pop\n      jump\t// out\n        /* \"#utility.yul\":3579:3908   */\n    tag_41:\n        /* \"#utility.yul\":3638:3644   */\n      0x00\n        /* \"#utility.yul\":3687:3689   */\n      0x20\n        /* \"#utility.yul\":3675:3684   */\n      dup3\n        /* \"#utility.yul\":3666:3673   */\n      dup5\n        /* \"#utility.yul\":3662:3685   */\n      sub\n        /* \"#utility.yul\":3658:3690   */\n      slt\n        /* \"#utility.yul\":3655:3774   */\n      iszero\n      tag_249\n      jumpi\n        /* \"#utility.yul\":3693:3772   */\n      tag_250\n      tag_157\n      jump\t// in\n    tag_250:\n        /* \"#utility.yul\":3655:3774   */\n    tag_249:\n        /* \"#utility.yul\":3813:3814   */\n      0x00\n        /* \"#utility.yul\":3838:3891   */\n      tag_251\n        /* \"#utility.yul\":3883:3890   */\n      dup5\n        /* \"#utility.yul\":3874:3880   */\n      dup3\n        /* \"#utility.yul\":3863:3872   */\n      dup6\n        /* \"#utility.yul\":3859:3881   */\n      add\n        /* \"#utility.yul\":3838:3891   */\n      tag_169\n      jump\t// in\n    tag_251:\n        /* \"#utility.yul\":3828:3891   */\n      swap2\n      pop\n        /* \"#utility.yul\":3784:3901   */\n      pop\n        /* \"#utility.yul\":3579:3908   */\n      swap3\n      swap2\n      pop\n      pop\n      jump\t// out\n        /* \"#utility.yul\":3914:3974   */\n    tag_170:\n        /* \"#utility.yul\":3942:3945   */\n      0x00\n        /* \"#utility.yul\":3963:3968   */\n      dup2\n        /* \"#utility.yul\":3956:3968   */\n      swap1\n      pop\n        /* \"#utility.yul\":3914:3974   */\n      swap2\n      swap1\n      pop\n      jump\t// out\n        /* \"#utility.yul\":3980:4122   */\n    tag_171:\n        /* \"#utility.yul\":4030:4039   */\n      0x00\n        /* \"#utility.yul\":4063:4116   */\n      tag_254\n        /* \"#utility.yul\":4081:4115   */\n      tag_255\n        /* \"#utility.yul\":4090:4114   */\n      tag_256\n        /* \"#utility.yul\":4108:4113   */\n      dup5\n        /* \"#utility.yul\":4090:4114   */\n      tag_163\n      jump\t// in\n    tag_256:\n        /* \"#utility.yul\":4081:4115   */\n      tag_170\n      jump\t// in\n    tag_255:\n        /* \"#utility.yul\":4063:4116   */\n      tag_163\n      jump\t// in\n    tag_254:\n        /* \"#utility.yul\":4050:4116   */\n      swap1\n      pop\n        /* \"#utility.yul\":3980:4122   */\n      swap2\n      swap1\n      pop\n      jump\t// out\n        /* \"#utility.yul\":4128:4254   */\n    tag_172:\n        /* \"#utility.yul\":4178:4187   */\n      0x00\n        /* \"#utility.yul\":4211:4248   */\n      tag_258\n        /* \"#utility.yul\":4242:4247   */\n      dup3\n        /* \"#utility.yul\":4211:4248   */\n      tag_171\n      jump\t// in\n    tag_258:\n        /* \"#utility.yul\":4198:4248   */\n      swap1\n      pop\n        /* \"#utility.yul\":4128:4254   */\n      swap2\n      swap1\n      pop\n      jump\t// out\n        /* \"#utility.yul\":4260:4399   */\n    tag_173:\n        /* \"#utility.yul\":4323:4332   */\n      0x00\n        /* \"#utility.yul\":4356:4393   */\n      tag_260\n        /* \"#utility.yul\":4387:4392   */\n      dup3\n        /* \"#utility.yul\":4356:4393   */\n      tag_172\n      jump\t// in\n    tag_260:\n        /* \"#utility.yul\":4343:4393   */\n      swap1\n      pop\n        /* \"#utility.yul\":4260:4399   */\n      swap2\n      swap1\n      pop\n      jump\t// out\n        /* \"#utility.yul\":4405:4562   */\n    tag_174:\n        /* \"#utility.yul\":4505:4555   */\n      tag_262\n        /* \"#utility.yul\":4549:4554   */\n      dup2\n        /* \"#utility.yul\":4505:4555   */\n      tag_173\n      jump\t// in\n    tag_262:\n        /* \"#utility.yul\":4500:4503   */\n      dup3\n        /* \"#utility.yul\":4493:4556   */\n      mstore\n        /* \"#utility.yul\":4405:4562   */\n      pop\n      pop\n      jump\t// out\n        /* \"#utility.yul\":4568:4816   */\n    tag_47:\n        /* \"#utility.yul\":4674:4678   */\n      0x00\n        /* \"#utility.yul\":4712:4714   */\n      0x20\n        /* \"#utility.yul\":4701:4710   */\n      dup3\n        /* \"#utility.yul\":4697:4715   */\n      add\n        /* \"#utility.yul\":4689:4715   */\n      swap1\n      pop\n        /* \"#utility.yul\":4725:4809   */\n      tag_264\n        /* \"#utility.yul\":4806:4807   */\n      0x00\n        /* \"#utility.yul\":4795:4804   */\n      dup4\n        /* \"#utility.yul\":4791:4808   */\n      add\n        /* \"#utility.yul\":4782:4788   */\n      dup5\n        /* \"#utility.yul\":4725:4809   */\n      tag_174\n      jump\t// in\n    tag_264:\n        /* \"#utility.yul\":4568:4816   */\n      swap3\n      swap2\n      pop\n      pop\n      jump\t// out\n        /* \"#utility.yul\":4822:4991   */\n    tag_175:\n        /* \"#utility.yul\":4906:4917   */\n      0x00\n        /* \"#utility.yul\":4940:4946   */\n      dup3\n        /* \"#utility.yul\":4935:4938   */\n      dup3\n        /* \"#utility.yul\":4928:4947   */\n      mstore\n        /* \"#utility.yul\":4980:4984   */\n      0x20\n        /* \"#utility.yul\":4975:4978   */\n      dup3\n        /* \"#utility.yul\":4971:4985   */\n      add\n        /* \"#utility.yul\":4956:4985   */\n      swap1\n      pop\n        /* \"#utility.yul\":4822:4991   */\n      swap3\n      swap2\n      pop\n      pop\n      jump\t// out\n        /* \"#utility.yul\":4997:5222   */\n    tag_176:\n        /* \"#utility.yul\":5137:5171   */\n      0x4d696e696d756d20626964206d7573742062652067726561746572207468616e\n        /* \"#utility.yul\":5133:5134   */\n      0x00\n        /* \"#utility.yul\":5125:5131   */\n      dup3\n        /* \"#utility.yul\":5121:5135   */\n      add\n        /* \"#utility.yul\":5114:5172   */\n      mstore\n        /* \"#utility.yul\":5206:5214   */\n      0x207a65726f2e0000000000000000000000000000000000000000000000000000\n        /* \"#utility.yul\":5201:5203   */\n      0x20\n        /* \"#utility.yul\":5193:5199   */\n      dup3\n        /* \"#utility.yul\":5189:5204   */\n      add\n        /* \"#utility.yul\":5182:5215   */\n      mstore\n        /* \"#utility.yul\":4997:5222   */\n      pop\n      jump\t// out\n        /* \"#utility.yul\":5228:5594   */\n    tag_177:\n        /* \"#utility.yul\":5370:5373   */\n      0x00\n        /* \"#utility.yul\":5391:5458   */\n      tag_268\n        /* \"#utility.yul\":5455:5457   */\n      0x26\n        /* \"#utility.yul\":5450:5453   */\n      dup4\n        /* \"#utility.yul\":5391:5458   */\n      tag_175\n      jump\t// in\n    tag_268:\n        /* \"#utility.yul\":5384:5458   */\n      swap2\n      pop\n        /* \"#utility.yul\":5467:5560   */\n      tag_269\n        /* \"#utility.yul\":5556:5559   */\n      dup3\n        /* \"#utility.yul\":5467:5560   */\n      tag_176\n      jump\t// in\n    tag_269:\n        /* \"#utility.yul\":5585:5587   */\n      0x40\n        /* \"#utility.yul\":5580:5583   */\n      dup3\n        /* \"#utility.yul\":5576:5588   */\n      add\n        /* \"#utility.yul\":5569:5588   */\n      swap1\n      pop\n        /* \"#utility.yul\":5228:5594   */\n      swap2\n      swap1\n      pop\n      jump\t// out\n        /* \"#utility.yul\":5600:6019   */\n    tag_51:\n        /* \"#utility.yul\":5766:5770   */\n      0x00\n        /* \"#utility.yul\":5804:5806   */\n      0x20\n        /* \"#utility.yul\":5793:5802   */\n      dup3\n        /* \"#utility.yul\":5789:5807   */\n      add\n        /* \"#utility.yul\":5781:5807   */\n      swap1\n      pop\n        /* \"#utility.yul\":5853:5862   */\n      dup2\n        /* \"#utility.yul\":5847:5851   */\n      dup2\n        /* \"#utility.yul\":5843:5863   */\n      sub\n        /* \"#utility.yul\":5839:5840   */\n      0x00\n        /* \"#utility.yul\":5828:5837   */\n      dup4\n        /* \"#utility.yul\":5824:5841   */\n      add\n        /* \"#utility.yul\":5817:5864   */\n      mstore\n        /* \"#utility.yul\":5881:6012   */\n      tag_271\n        /* \"#utility.yul\":6007:6011   */\n      dup2\n        /* \"#utility.yul\":5881:6012   */\n      tag_177\n      jump\t// in\n    tag_271:\n        /* \"#utility.yul\":5873:6012   */\n      swap1\n      pop\n        /* \"#utility.yul\":5600:6019   */\n      swap2\n      swap1\n      pop\n      jump\t// out\n        /* \"#utility.yul\":6025:6247   */\n    tag_178:\n        /* \"#utility.yul\":6165:6199   */\n      0x4475726174696f6e206d7573742062652067726561746572207468616e207a65\n        /* \"#utility.yul\":6161:6162   */\n      0x00\n        /* \"#utility.yul\":6153:6159   */\n      dup3\n        /* \"#utility.yul\":6149:6163   */\n      add\n        /* \"#utility.yul\":6142:6200   */\n      mstore\n        /* \"#utility.yul\":6234:6239   */\n      0x726f2e0000000000000000000000000000000000000000000000000000000000\n        /* \"#utility.yul\":6229:6231   */\n      0x20\n        /* \"#utility.yul\":6221:6227   */\n      dup3\n        /* \"#utility.yul\":6217:6232   */\n      add\n        /* \"#utility.yul\":6210:6240   */\n      mstore\n        /* \"#utility.yul\":6025:6247   */\n      pop\n      jump\t// out\n        /* \"#utility.yul\":6253:6619   */\n    tag_179:\n        /* \"#utility.yul\":6395:6398   */\n      0x00\n        /* \"#utility.yul\":6416:6483   */\n      tag_274\n        /* \"#utility.yul\":6480:6482   */\n      0x23\n        /* \"#utility.yul\":6475:6478   */\n      dup4\n        /* \"#utility.yul\":6416:6483   */\n      tag_175\n      jump\t// in\n    tag_274:\n        /* \"#utility.yul\":6409:6483   */\n      swap2\n      pop\n        /* \"#utility.yul\":6492:6585   */\n      tag_275\n        /* \"#utility.yul\":6581:6584   */\n      dup3\n        /* \"#utility.yul\":6492:6585   */\n      tag_178\n      jump\t// in\n    tag_275:\n        /* \"#utility.yul\":6610:6612   */\n      0x40\n        /* \"#utility.yul\":6605:6608   */\n      dup3\n        /* \"#utility.yul\":6601:6613   */\n      add\n        /* \"#utility.yul\":6594:6613   */\n      swap1\n      pop\n        /* \"#utility.yul\":6253:6619   */\n      swap2\n      swap1\n      pop\n      jump\t// out\n        /* \"#utility.yul\":6625:7044   */\n    tag_54:\n        /* \"#utility.yul\":6791:6795   */\n      0x00\n        /* \"#utility.yul\":6829:6831   */\n      0x20\n        /* \"#utility.yul\":6818:6827   */\n      dup3\n        /* \"#utility.yul\":6814:6832   */\n      add\n        /* \"#utility.yul\":6806:6832   */\n      swap1\n      pop\n        /* \"#utility.yul\":6878:6887   */\n      dup2\n        /* \"#utility.yul\":6872:6876   */\n      dup2\n        /* \"#utility.yul\":6868:6888   */\n      sub\n        /* \"#utility.yul\":6864:6865   */\n      0x00\n        /* \"#utility.yul\":6853:6862   */\n      dup4\n        /* \"#utility.yul\":6849:6866   */\n      add\n        /* \"#utility.yul\":6842:6889   */\n      mstore\n        /* \"#utility.yul\":6906:7037   */\n      tag_277\n        /* \"#utility.yul\":7032:7036   */\n      dup2\n        /* \"#utility.yul\":6906:7037   */\n      tag_179\n      jump\t// in\n    tag_277:\n        /* \"#utility.yul\":6898:7037   */\n      swap1\n      pop\n        /* \"#utility.yul\":6625:7044   */\n      swap2\n      swap1\n      pop\n      jump\t// out\n        /* \"#utility.yul\":7050:7230   */\n    tag_180:\n        /* \"#utility.yul\":7098:7175   */\n      0x4e487b7100000000000000000000000000000000000000000000000000000000\n        /* \"#utility.yul\":7095:7096   */\n      0x00\n        /* \"#utility.yul\":7088:7176   */\n      mstore\n        /* \"#utility.yul\":7195:7199   */\n      0x11\n        /* \"#utility.yul\":7192:7193   */\n      0x04\n        /* \"#utility.yul\":7185:7200   */\n      mstore\n        /* \"#utility.yul\":7219:7223   */\n      0x24\n        /* \"#utility.yul\":7216:7217   */\n      0x00\n        /* \"#utility.yul\":7209:7224   */\n      revert\n        /* \"#utility.yul\":7236:7427   */\n    tag_56:\n        /* \"#utility.yul\":7276:7279   */\n      0x00\n        /* \"#utility.yul\":7295:7315   */\n      tag_280\n        /* \"#utility.yul\":7313:7314   */\n      dup3\n        /* \"#utility.yul\":7295:7315   */\n      tag_159\n      jump\t// in\n    tag_280:\n        /* \"#utility.yul\":7290:7315   */\n      swap2\n      pop\n        /* \"#utility.yul\":7329:7349   */\n      tag_281\n        /* \"#utility.yul\":7347:7348   */\n      dup4\n        /* \"#utility.yul\":7329:7349   */\n      tag_159\n      jump\t// in\n    tag_281:\n        /* \"#utility.yul\":7324:7349   */\n      swap3\n      pop\n        /* \"#utility.yul\":7372:7373   */\n      dup3\n        /* \"#utility.yul\":7369:7370   */\n      dup3\n        /* \"#utility.yul\":7365:7374   */\n      add\n        /* \"#utility.yul\":7358:7374   */\n      swap1\n      pop\n        /* \"#utility.yul\":7393:7396   */\n      dup1\n        /* \"#utility.yul\":7390:7391   */\n      dup3\n        /* \"#utility.yul\":7387:7397   */\n      gt\n        /* \"#utility.yul\":7384:7420   */\n      iszero\n      tag_282\n      jumpi\n        /* \"#utility.yul\":7400:7418   */\n      tag_283\n      tag_180\n      jump\t// in\n    tag_283:\n        /* \"#utility.yul\":7384:7420   */\n    tag_282:\n        /* \"#utility.yul\":7236:7427   */\n      swap3\n      swap2\n      pop\n      pop\n      jump\t// out\n        /* \"#utility.yul\":7433:7875   */\n    tag_60:\n        /* \"#utility.yul\":7582:7586   */\n      0x00\n        /* \"#utility.yul\":7620:7622   */\n      0x60\n        /* \"#utility.yul\":7609:7618   */\n      dup3\n        /* \"#utility.yul\":7605:7623   */\n      add\n        /* \"#utility.yul\":7597:7623   */\n      swap1\n      pop\n        /* \"#utility.yul\":7633:7704   */\n      tag_285\n        /* \"#utility.yul\":7701:7702   */\n      0x00\n        /* \"#utility.yul\":7690:7699   */\n      dup4\n        /* \"#utility.yul\":7686:7703   */\n      add\n        /* \"#utility.yul\":7677:7683   */\n      dup7\n        /* \"#utility.yul\":7633:7704   */\n      tag_162\n      jump\t// in\n    tag_285:\n        /* \"#utility.yul\":7714:7786   */\n      tag_286\n        /* \"#utility.yul\":7782:7784   */\n      0x20\n        /* \"#utility.yul\":7771:7780   */\n      dup4\n        /* \"#utility.yul\":7767:7785   */\n      add\n        /* \"#utility.yul\":7758:7764   */\n      dup6\n        /* \"#utility.yul\":7714:7786   */\n      tag_162\n      jump\t// in\n    tag_286:\n        /* \"#utility.yul\":7796:7868   */\n      tag_287\n        /* \"#utility.yul\":7864:7866   */\n      0x40\n        /* \"#utility.yul\":7853:7862   */\n      dup4\n        /* \"#utility.yul\":7849:7867   */\n      add\n        /* \"#utility.yul\":7840:7846   */\n      dup5\n        /* \"#utility.yul\":7796:7868   */\n      tag_162\n      jump\t// in\n    tag_287:\n        /* \"#utility.yul\":7433:7875   */\n      swap5\n      swap4\n      pop\n      pop\n      pop\n      pop\n      jump\t// out\n        /* \"#utility.yul\":7881:8114   */\n    tag_62:\n        /* \"#utility.yul\":7920:7923   */\n      0x00\n        /* \"#utility.yul\":7943:7967   */\n      tag_289\n        /* \"#utility.yul\":7961:7966   */\n      dup3\n        /* \"#utility.yul\":7943:7967   */\n      tag_159\n      jump\t// in\n    tag_289:\n        /* \"#utility.yul\":7934:7967   */\n      swap2\n      pop\n        /* \"#utility.yul\":7989:8055   */\n      0xffffffffffffffffffffffffffffffffffffffffffffffffffffffffffffffff\n        /* \"#utility.yul\":7982:7987   */\n      dup3\n        /* \"#utility.yul\":7979:8056   */\n      sub\n        /* \"#utility.yul\":7976:8079   */\n      tag_290\n      jumpi\n        /* \"#utility.yul\":8059:8077   */\n      tag_291\n      tag_180\n      jump\t// in\n    tag_291:\n        /* \"#utility.yul\":7976:8079   */\n    tag_290:\n        /* \"#utility.yul\":8106:8107   */\n      0x01\n        /* \"#utility.yul\":8099:8104   */\n      dup3\n        /* \"#utility.yul\":8095:8108   */\n      add\n        /* \"#utility.yul\":8088:8108   */\n      swap1\n      pop\n        /* \"#utility.yul\":7881:8114   */\n      swap2\n      swap1\n      pop\n      jump\t// out\n        /* \"#utility.yul\":8120:8291   */\n    tag_181:\n        /* \"#utility.yul\":8260:8283   */\n      0x4e6f2066756e647320746f2077697468647261772e0000000000000000000000\n        /* \"#utility.yul\":8256:8257   */\n      0x00\n        /* \"#utility.yul\":8248:8254   */\n      dup3\n        /* \"#utility.yul\":8244:8258   */\n      add\n        /* \"#utility.yul\":8237:8284   */\n      mstore\n        /* \"#utility.yul\":8120:8291   */\n      pop\n      jump\t// out\n        /* \"#utility.yul\":8297:8663   */\n    tag_182:\n        /* \"#utility.yul\":8439:8442   */\n      0x00\n        /* \"#utility.yul\":8460:8527   */\n      tag_294\n        /* \"#utility.yul\":8524:8526   */\n      0x15\n        /* \"#utility.yul\":8519:8522   */\n      dup4\n        /* \"#utility.yul\":8460:8527   */\n      tag_175\n      jump\t// in\n    tag_294:\n        /* \"#utility.yul\":8453:8527   */\n      swap2\n      pop\n        /* \"#utility.yul\":8536:8629   */\n      tag_295\n        /* \"#utility.yul\":8625:8628   */\n      dup3\n        /* \"#utility.yul\":8536:8629   */\n      tag_181\n      jump\t// in\n    tag_295:\n        /* \"#utility.yul\":8654:8656   */\n      0x20\n        /* \"#utility.yul\":8649:8652   */\n      dup3\n        /* \"#utility.yul\":8645:8657   */\n      add\n        /* \"#utility.yul\":8638:8657   */\n      swap1\n      pop\n        /* \"#utility.yul\":8297:8663   */\n      swap2\n      swap1\n      pop\n      jump\t// out\n        /* \"#utility.yul\":8669:9088   */\n    tag_66:\n        /* \"#utility.yul\":8835:8839   */\n      0x00\n        /* \"#utility.yul\":8873:8875   */\n      0x20\n        /* \"#utility.yul\":8862:8871   */\n      dup3\n        /* \"#utility.yul\":8858:8876   */\n      add\n        /* \"#utility.yul\":8850:8876   */\n      swap1\n      pop\n        /* \"#utility.yul\":8922:8931   */\n      dup2\n        /* \"#utility.yul\":8916:8920   */\n      dup2\n        /* \"#utility.yul\":8912:8932   */\n      sub\n        /* \"#utility.yul\":8908:8909   */\n      0x00\n        /* \"#utility.yul\":8897:8906   */\n      dup4\n        /* \"#utility.yul\":8893:8910   */\n      add\n        /* \"#utility.yul\":8886:8933   */\n      mstore\n        /* \"#utility.yul\":8950:9081   */\n      tag_297\n        /* \"#utility.yul\":9076:9080   */\n      dup2\n        /* \"#utility.yul\":8950:9081   */\n      tag_182\n      jump\t// in\n    tag_297:\n        /* \"#utility.yul\":8942:9081   */\n      swap1\n      pop\n        /* \"#utility.yul\":8669:9088   */\n      swap2\n      swap1\n      pop\n      jump\t// out\n        /* \"#utility.yul\":9094:9426   */\n    tag_68:\n        /* \"#utility.yul\":9215:9219   */\n      0x00\n        /* \"#utility.yul\":9253:9255   */\n      0x40\n        /* \"#utility.yul\":9242:9251   */\n      dup3\n        /* \"#utility.yul\":9238:9256   */\n      add\n        /* \"#utility.yul\":9230:9256   */\n      swap1\n      pop\n        /* \"#utility.yul\":9266:9337   */\n      tag_299\n        /* \"#utility.yul\":9334:9335   */\n      0x00\n        /* \"#utility.yul\":9323:9332   */\n      dup4\n        /* \"#utility.yul\":9319:9336   */\n      add\n        /* \"#utility.yul\":9310:9316   */\n      dup6\n        /* \"#utility.yul\":9266:9337   */\n      tag_165\n      jump\t// in\n    tag_299:\n        /* \"#utility.yul\":9347:9419   */\n      tag_300\n        /* \"#utility.yul\":9415:9417   */\n      0x20\n        /* \"#utility.yul\":9404:9413   */\n      dup4\n        /* \"#utility.yul\":9400:9418   */\n      add\n        /* \"#utility.yul\":9391:9397   */\n      dup5\n        /* \"#utility.yul\":9347:9419   */\n      tag_162\n      jump\t// in\n    tag_300:\n        /* \"#utility.yul\":9094:9426   */\n      swap4\n      swap3\n      pop\n      pop\n      pop\n      jump\t// out\n        /* \"#utility.yul\":9432:9548   */\n    tag_183:\n        /* \"#utility.yul\":9502:9523   */\n      tag_302\n        /* \"#utility.yul\":9517:9522   */\n      dup2\n        /* \"#utility.yul\":9502:9523   */\n      tag_166\n      jump\t// in\n    tag_302:\n        /* \"#utility.yul\":9495:9500   */\n      dup2\n        /* \"#utility.yul\":9492:9524   */\n      eq\n        /* \"#utility.yul\":9482:9542   */\n      tag_303\n      jumpi\n        /* \"#utility.yul\":9538:9539   */\n      0x00\n        /* \"#utility.yul\":9535:9536   */\n      dup1\n        /* \"#utility.yul\":9528:9540   */\n      revert\n        /* \"#utility.yul\":9482:9542   */\n    tag_303:\n        /* \"#utility.yul\":9432:9548   */\n      pop\n      jump\t// out\n        /* \"#utility.yul\":9554:9691   */\n    tag_184:\n        /* \"#utility.yul\":9608:9613   */\n      0x00\n        /* \"#utility.yul\":9639:9645   */\n      dup2\n        /* \"#utility.yul\":9633:9646   */\n      mload\n        /* \"#utility.yul\":9624:9646   */\n      swap1\n      pop\n        /* \"#utility.yul\":9655:9685   */\n      tag_305\n        /* \"#utility.yul\":9679:9684   */\n      dup2\n        /* \"#utility.yul\":9655:9685   */\n      tag_183\n      jump\t// in\n    tag_305:\n        /* \"#utility.yul\":9554:9691   */\n      swap3\n      swap2\n      pop\n      pop\n      jump\t// out\n        /* \"#utility.yul\":9697:10042   */\n    tag_71:\n        /* \"#utility.yul\":9764:9770   */\n      0x00\n        /* \"#utility.yul\":9813:9815   */\n      0x20\n        /* \"#utility.yul\":9801:9810   */\n      dup3\n        /* \"#utility.yul\":9792:9799   */\n      dup5\n        /* \"#utility.yul\":9788:9811   */\n      sub\n        /* \"#utility.yul\":9784:9816   */\n      slt\n        /* \"#utility.yul\":9781:9900   */\n      iszero\n      tag_307\n      jumpi\n        /* \"#utility.yul\":9819:9898   */\n      tag_308\n      tag_157\n      jump\t// in\n    tag_308:\n        /* \"#utility.yul\":9781:9900   */\n    tag_307:\n        /* \"#utility.yul\":9939:9940   */\n      0x00\n        /* \"#utility.yul\":9964:10025   */\n      tag_309\n        /* \"#utility.yul\":10017:10024   */\n      dup5\n        /* \"#utility.yul\":10008:10014   */\n      dup3\n        /* \"#utility.yul\":9997:10006   */\n      dup6\n        /* \"#utility.yul\":9993:10015   */\n      add\n        /* \"#utility.yul\":9964:10025   */\n      tag_184\n      jump\t// in\n    tag_309:\n        /* \"#utility.yul\":9954:10025   */\n      swap2\n      pop\n        /* \"#utility.yul\":9910:10035   */\n      pop\n        /* \"#utility.yul\":9697:10042   */\n      swap3\n      swap2\n      pop\n      pop\n      jump\t// out\n        /* \"#utility.yul\":10048:10216   */\n    tag_185:\n        /* \"#utility.yul\":10188:10208   */\n      0x5769746864726177616c206661696c65642e0000000000000000000000000000\n        /* \"#utility.yul\":10184:10185   */\n      0x00\n        /* \"#utility.yul\":10176:10182   */\n      dup3\n        /* \"#utility.yul\":10172:10186   */\n      add\n        /* \"#utility.yul\":10165:10209   */\n      mstore\n        /* \"#utility.yul\":10048:10216   */\n      pop\n      jump\t// out\n        /* \"#utility.yul\":10222:10588   */\n    tag_186:\n        /* \"#utility.yul\":10364:10367   */\n      0x00\n        /* \"#utility.yul\":10385:10452   */\n      tag_312\n        /* \"#utility.yul\":10449:10451   */\n      0x12\n        /* \"#utility.yul\":10444:10447   */\n      dup4\n        /* \"#utility.yul\":10385:10452   */\n      tag_175\n      jump\t// in\n    tag_312:\n        /* \"#utility.yul\":10378:10452   */\n      swap2\n      pop\n        /* \"#utility.yul\":10461:10554   */\n      tag_313\n        /* \"#utility.yul\":10550:10553   */\n      dup3\n        /* \"#utility.yul\":10461:10554   */\n      tag_185\n      jump\t// in\n    tag_313:\n        /* \"#utility.yul\":10579:10581   */\n      0x20\n        /* \"#utility.yul\":10574:10577   */\n      dup3\n        /* \"#utility.yul\":10570:10582   */\n      add\n        /* \"#utility.yul\":10563:10582   */\n      swap1\n      pop\n        /* \"#utility.yul\":10222:10588   */\n      swap2\n      swap1\n      pop\n      jump\t// out\n        /* \"#utility.yul\":10594:11013   */\n    tag_77:\n        /* \"#utility.yul\":10760:10764   */\n      0x00\n        /* \"#utility.yul\":10798:10800   */\n      0x20\n        /* \"#utility.yul\":10787:10796   */\n      dup3\n        /* \"#utility.yul\":10783:10801   */\n      add\n        /* \"#utility.yul\":10775:10801   */\n      swap1\n      pop\n        /* \"#utility.yul\":10847:10856   */\n      dup2\n        /* \"#utility.yul\":10841:10845   */\n      dup2\n        /* \"#utility.yul\":10837:10857   */\n      sub\n        /* \"#utility.yul\":10833:10834   */\n      0x00\n        /* \"#utility.yul\":10822:10831   */\n      dup4\n        /* \"#utility.yul\":10818:10835   */\n      add\n        /* \"#utility.yul\":10811:10858   */\n      mstore\n        /* \"#utility.yul\":10875:11006   */\n      tag_315\n        /* \"#utility.yul\":11001:11005   */\n      dup2\n        /* \"#utility.yul\":10875:11006   */\n      tag_186\n      jump\t// in\n    tag_315:\n        /* \"#utility.yul\":10867:11006   */\n      swap1\n      pop\n        /* \"#utility.yul\":10594:11013   */\n      swap2\n      swap1\n      pop\n      jump\t// out\n        /* \"#utility.yul\":11019:11192   */\n    tag_187:\n        /* \"#utility.yul\":11159:11184   */\n      0x41756374696f6e20646f6573206e6f742065786973742e000000000000000000\n        /* \"#utility.yul\":11155:11156   */\n      0x00\n        /* \"#utility.yul\":11147:11153   */\n      dup3\n        /* \"#utility.yul\":11143:11157   */\n      add\n        /* \"#utility.yul\":11136:11185   */\n      mstore\n        /* \"#utility.yul\":11019:11192   */\n      pop\n      jump\t// out\n        /* \"#utility.yul\":11198:11564   */\n    tag_188:\n        /* \"#utility.yul\":11340:11343   */\n      0x00\n        /* \"#utility.yul\":11361:11428   */\n      tag_318\n        /* \"#utility.yul\":11425:11427   */\n      0x17\n        /* \"#utility.yul\":11420:11423   */\n      dup4\n        /* \"#utility.yul\":11361:11428   */\n      tag_175\n      jump\t// in\n    tag_318:\n        /* \"#utility.yul\":11354:11428   */\n      swap2\n      pop\n        /* \"#utility.yul\":11437:11530   */\n      tag_319\n        /* \"#utility.yul\":11526:11529   */\n      dup3\n        /* \"#utility.yul\":11437:11530   */\n      tag_187\n      jump\t// in\n    tag_319:\n        /* \"#utility.yul\":11555:11557   */\n      0x20\n        /* \"#utility.yul\":11550:11553   */\n      dup3\n        /* \"#utility.yul\":11546:11558   */\n      add\n        /* \"#utility.yul\":11539:11558   */\n      swap1\n      pop\n        /* \"#utility.yul\":11198:11564   */\n      swap2\n      swap1\n      pop\n      jump\t// out\n        /* \"#utility.yul\":11570:11989   */\n    tag_85:\n        /* \"#utility.yul\":11736:11740   */\n      0x00\n        /* \"#utility.yul\":11774:11776   */\n      0x20\n        /* \"#utility.yul\":11763:11772   */\n      dup3\n        /* \"#utility.yul\":11759:11777   */\n      add\n        /* \"#utility.yul\":11751:11777   */\n      swap1\n      pop\n        /* \"#utility.yul\":11823:11832   */\n      dup2\n        /* \"#utility.yul\":11817:11821   */\n      dup2\n        /* \"#utility.yul\":11813:11833   */\n      sub\n        /* \"#utility.yul\":11809:11810   */\n      0x00\n        /* \"#utility.yul\":11798:11807   */\n      dup4\n        /* \"#utility.yul\":11794:11811   */\n      add\n        /* \"#utility.yul\":11787:11834   */\n      mstore\n        /* \"#utility.yul\":11851:11982   */\n      tag_321\n        /* \"#utility.yul\":11977:11981   */\n      dup2\n        /* \"#utility.yul\":11851:11982   */\n      tag_188\n      jump\t// in\n    tag_321:\n        /* \"#utility.yul\":11843:11982   */\n      swap1\n      pop\n        /* \"#utility.yul\":11570:11989   */\n      swap2\n      swap1\n      pop\n      jump\t// out\n        /* \"#utility.yul\":11995:12175   */\n    tag_88:\n        /* \"#utility.yul\":12043:12120   */\n      0x4e487b7100000000000000000000000000000000000000000000000000000000\n        /* \"#utility.yul\":12040:12041   */\n      0x00\n        /* \"#utility.yul\":12033:12121   */\n      mstore\n        /* \"#utility.yul\":12140:12144   */\n      0x32\n        /* \"#utility.yul\":12137:12138   */\n      0x04\n        /* \"#utility.yul\":12130:12145   */\n      mstore\n        /* \"#utility.yul\":12164:12168   */\n      0x24\n        /* \"#utility.yul\":12161:12162   */\n      0x00\n        /* \"#utility.yul\":12154:12169   */\n      revert\n        /* \"#utility.yul\":12181:12353   */\n    tag_189:\n        /* \"#utility.yul\":12321:12345   */\n      0x41756374696f6e206973206e6f74206163746976652e00000000000000000000\n        /* \"#utility.yul\":12317:12318   */\n      0x00\n        /* \"#utility.yul\":12309:12315   */\n      dup3\n        /* \"#utility.yul\":12305:12319   */\n      add\n        /* \"#utility.yul\":12298:12346   */\n      mstore\n        /* \"#utility.yul\":12181:12353   */\n      pop\n      jump\t// out\n        /* \"#utility.yul\":12359:12725   */\n    tag_190:\n        /* \"#utility.yul\":12501:12504   */\n      0x00\n        /* \"#utility.yul\":12522:12589   */\n      tag_325\n        /* \"#utility.yul\":12586:12588   */\n      0x16\n        /* \"#utility.yul\":12581:12584   */\n      dup4\n        /* \"#utility.yul\":12522:12589   */\n      tag_175\n      jump\t// in\n    tag_325:\n        /* \"#utility.yul\":12515:12589   */\n      swap2\n      pop\n        /* \"#utility.yul\":12598:12691   */\n      tag_326\n        /* \"#utility.yul\":12687:12690   */\n      dup3\n        /* \"#utility.yul\":12598:12691   */\n      tag_189\n      jump\t// in\n    tag_326:\n        /* \"#utility.yul\":12716:12718   */\n      0x20\n        /* \"#utility.yul\":12711:12714   */\n      dup3\n        /* \"#utility.yul\":12707:12719   */\n      add\n        /* \"#utility.yul\":12700:12719   */\n      swap1\n      pop\n        /* \"#utility.yul\":12359:12725   */\n      swap2\n      swap1\n      pop\n      jump\t// out\n        /* \"#utility.yul\":12731:13150   */\n    tag_92:\n        /* \"#utility.yul\":12897:12901   */\n      0x00\n        /* \"#utility.yul\":12935:12937   */\n      0x20\n        /* \"#utility.yul\":12924:12933   */\n      dup3\n        /* \"#utility.yul\":12920:12938   */\n      add\n        /* \"#utility.yul\":12912:12938   */\n      swap1\n      pop\n        /* \"#utility.yul\":12984:12993   */\n      dup2\n        /* \"#utility.yul\":12978:12982   */\n      dup2\n        /* \"#utility.yul\":12974:12994   */\n      sub\n        /* \"#utility.yul\":12970:12971   */\n      0x00\n        /* \"#utility.yul\":12959:12968   */\n      dup4\n        /* \"#utility.yul\":12955:12972   */\n      add\n        /* \"#utility.yul\":12948:12995   */\n      mstore\n        /* \"#utility.yul\":13012:13143   */\n      tag_328\n        /* \"#utility.yul\":13138:13142   */\n      dup2\n        /* \"#utility.yul\":13012:13143   */\n      tag_190\n      jump\t// in\n    tag_328:\n        /* \"#utility.yul\":13004:13143   */\n      swap1\n      pop\n        /* \"#utility.yul\":12731:13150   */\n      swap2\n      swap1\n      pop\n      jump\t// out\n        /* \"#utility.yul\":13156:13324   */\n    tag_191:\n        /* \"#utility.yul\":13296:13316   */\n      0x41756374696f6e2068617320656e6465642e0000000000000000000000000000\n        /* \"#utility.yul\":13292:13293   */\n      0x00\n        /* \"#utility.yul\":13284:13290   */\n      dup3\n        /* \"#utility.yul\":13280:13294   */\n      add\n        /* \"#utility.yul\":13273:13317   */\n      mstore\n        /* \"#utility.yul\":13156:13324   */\n      pop\n      jump\t// out\n        /* \"#utility.yul\":13330:13696   */\n    tag_192:\n        /* \"#utility.yul\":13472:13475   */\n      0x00\n        /* \"#utility.yul\":13493:13560   */\n      tag_331\n        /* \"#utility.yul\":13557:13559   */\n      0x12\n        /* \"#utility.yul\":13552:13555   */\n      dup4\n        /* \"#utility.yul\":13493:13560   */\n      tag_175\n      jump\t// in\n    tag_331:\n        /* \"#utility.yul\":13486:13560   */\n      swap2\n      pop\n        /* \"#utility.yul\":13569:13662   */\n      tag_332\n        /* \"#utility.yul\":13658:13661   */\n      dup3\n        /* \"#utility.yul\":13569:13662   */\n      tag_191\n      jump\t// in\n    tag_332:\n        /* \"#utility.yul\":13687:13689   */\n      0x20\n        /* \"#utility.yul\":13682:13685   */\n      dup3\n        /* \"#utility.yul\":13678:13690   */\n      add\n        /* \"#utility.yul\":13671:13690   */\n      swap1\n      pop\n        /* \"#utility.yul\":13330:13696   */\n      swap2\n      swap1\n      pop\n      jump\t// out\n        /* \"#utility.yul\":13702:14121   */\n    tag_95:\n        /* \"#utility.yul\":13868:13872   */\n      0x00\n        /* \"#utility.yul\":13906:13908   */\n      0x20\n        /* \"#utility.yul\":13895:13904   */\n      dup3\n        /* \"#utility.yul\":13891:13909   */\n      add\n        /* \"#utility.yul\":13883:13909   */\n      swap1\n      pop\n        /* \"#utility.yul\":13955:13964   */\n      dup2\n        /* \"#utility.yul\":13949:13953   */\n      dup2\n        /* \"#utility.yul\":13945:13965   */\n      sub\n        /* \"#utility.yul\":13941:13942   */\n      0x00\n        /* \"#utility.yul\":13930:13939   */\n      dup4\n        /* \"#utility.yul\":13926:13943   */\n      add\n        /* \"#utility.yul\":13919:13966   */\n      mstore\n        /* \"#utility.yul\":13983:14114   */\n      tag_334\n        /* \"#utility.yul\":14109:14113   */\n      dup2\n        /* \"#utility.yul\":13983:14114   */\n      tag_192\n      jump\t// in\n    tag_334:\n        /* \"#utility.yul\":13975:14114   */\n      swap1\n      pop\n        /* \"#utility.yul\":13702:14121   */\n      swap2\n      swap1\n      pop\n      jump\t// out\n        /* \"#utility.yul\":14127:14362   */\n    tag_193:\n        /* \"#utility.yul\":14267:14301   */\n      0x426964206d75737420626520686967686572207468616e207468652063757272\n        /* \"#utility.yul\":14263:14264   */\n      0x00\n        /* \"#utility.yul\":14255:14261   */\n      dup3\n        /* \"#utility.yul\":14251:14265   */\n      add\n        /* \"#utility.yul\":14244:14302   */\n      mstore\n        /* \"#utility.yul\":14336:14354   */\n      0x656e742068696768657374206269642e00000000000000000000000000000000\n        /* \"#utility.yul\":14331:14333   */\n      0x20\n        /* \"#utility.yul\":14323:14329   */\n      dup3\n        /* \"#utility.yul\":14319:14334   */\n      add\n        /* \"#utility.yul\":14312:14355   */\n      mstore\n        /* \"#utility.yul\":14127:14362   */\n      pop\n      jump\t// out\n        /* \"#utility.yul\":14368:14734   */\n    tag_194:\n        /* \"#utility.yul\":14510:14513   */\n      0x00\n        /* \"#utility.yul\":14531:14598   */\n      tag_337\n        /* \"#utility.yul\":14595:14597   */\n      0x30\n        /* \"#utility.yul\":14590:14593   */\n      dup4\n        /* \"#utility.yul\":14531:14598   */\n      tag_175\n      jump\t// in\n    tag_337:\n        /* \"#utility.yul\":14524:14598   */\n      swap2\n      pop\n        /* \"#utility.yul\":14607:14700   */\n      tag_338\n        /* \"#utility.yul\":14696:14699   */\n      dup3\n        /* \"#utility.yul\":14607:14700   */\n      tag_193\n      jump\t// in\n    tag_338:\n        /* \"#utility.yul\":14725:14727   */\n      0x40\n        /* \"#utility.yul\":14720:14723   */\n      dup3\n        /* \"#utility.yul\":14716:14728   */\n      add\n        /* \"#utility.yul\":14709:14728   */\n      swap1\n      pop\n        /* \"#utility.yul\":14368:14734   */\n      swap2\n      swap1\n      pop\n      jump\t// out\n        /* \"#utility.yul\":14740:15159   */\n    tag_98:\n        /* \"#utility.yul\":14906:14910   */\n      0x00\n        /* \"#utility.yul\":14944:14946   */\n      0x20\n        /* \"#utility.yul\":14933:14942   */\n      dup3\n        /* \"#utility.yul\":14929:14947   */\n      add\n        /* \"#utility.yul\":14921:14947   */\n      swap1\n      pop\n        /* \"#utility.yul\":14993:15002   */\n      dup2\n        /* \"#utility.yul\":14987:14991   */\n      dup2\n        /* \"#utility.yul\":14983:15003   */\n      sub\n        /* \"#utility.yul\":14979:14980   */\n      0x00\n        /* \"#utility.yul\":14968:14977   */\n      dup4\n        /* \"#utility.yul\":14964:14981   */\n      add\n        /* \"#utility.yul\":14957:15004   */\n      mstore\n        /* \"#utility.yul\":15021:15152   */\n      tag_340\n        /* \"#utility.yul\":15147:15151   */\n      dup2\n        /* \"#utility.yul\":15021:15152   */\n      tag_194\n      jump\t// in\n    tag_340:\n        /* \"#utility.yul\":15013:15152   */\n      swap1\n      pop\n        /* \"#utility.yul\":14740:15159   */\n      swap2\n      swap1\n      pop\n      jump\t// out\n        /* \"#utility.yul\":15165:15389   */\n    tag_195:\n        /* \"#utility.yul\":15305:15339   */\n      0x426964206d757374206d65657420746865206d696e696d756d2062696420616d\n        /* \"#utility.yul\":15301:15302   */\n      0x00\n        /* \"#utility.yul\":15293:15299   */\n      dup3\n        /* \"#utility.yul\":15289:15303   */\n      add\n        /* \"#utility.yul\":15282:15340   */\n      mstore\n        /* \"#utility.yul\":15374:15381   */\n      0x6f756e742e000000000000000000000000000000000000000000000000000000\n        /* \"#utility.yul\":15369:15371   */\n      0x20\n        /* \"#utility.yul\":15361:15367   */\n      dup3\n        /* \"#utility.yul\":15357:15372   */\n      add\n        /* \"#utility.yul\":15350:15382   */\n      mstore\n        /* \"#utility.yul\":15165:15389   */\n      pop\n      jump\t// out\n        /* \"#utility.yul\":15395:15761   */\n    tag_196:\n        /* \"#utility.yul\":15537:15540   */\n      0x00\n        /* \"#utility.yul\":15558:15625   */\n      tag_343\n        /* \"#utility.yul\":15622:15624   */\n      0x25\n        /* \"#utility.yul\":15617:15620   */\n      dup4\n        /* \"#utility.yul\":15558:15625   */\n      tag_175\n      jump\t// in\n    tag_343:\n        /* \"#utility.yul\":15551:15625   */\n      swap2\n      pop\n        /* \"#utility.yul\":15634:15727   */\n      tag_344\n        /* \"#utility.yul\":15723:15726   */\n      dup3\n        /* \"#utility.yul\":15634:15727   */\n      tag_195\n      jump\t// in\n    tag_344:\n        /* \"#utility.yul\":15752:15754   */\n      0x40\n        /* \"#utility.yul\":15747:15750   */\n      dup3\n        /* \"#utility.yul\":15743:15755   */\n      add\n        /* \"#utility.yul\":15736:15755   */\n      swap1\n      pop\n        /* \"#utility.yul\":15395:15761   */\n      swap2\n      swap1\n      pop\n      jump\t// out\n        /* \"#utility.yul\":15767:16186   */\n    tag_101:\n        /* \"#utility.yul\":15933:15937   */\n      0x00\n        /* \"#utility.yul\":15971:15973   */\n      0x20\n        /* \"#utility.yul\":15960:15969   */\n      dup3\n        /* \"#utility.yul\":15956:15974   */\n      add\n        /* \"#utility.yul\":15948:15974   */\n      swap1\n      pop\n        /* \"#utility.yul\":16020:16029   */\n      dup2\n        /* \"#utility.yul\":16014:16018   */\n      dup2\n        /* \"#utility.yul\":16010:16030   */\n      sub\n        /* \"#utility.yul\":16006:16007   */\n      0x00\n        /* \"#utility.yul\":15995:16004   */\n      dup4\n        /* \"#utility.yul\":15991:16008   */\n      add\n        /* \"#utility.yul\":15984:16031   */\n      mstore\n        /* \"#utility.yul\":16048:16179   */\n      tag_346\n        /* \"#utility.yul\":16174:16178   */\n      dup2\n        /* \"#utility.yul\":16048:16179   */\n      tag_196\n      jump\t// in\n    tag_346:\n        /* \"#utility.yul\":16040:16179   */\n      swap1\n      pop\n        /* \"#utility.yul\":15767:16186   */\n      swap2\n      swap1\n      pop\n      jump\t// out\n        /* \"#utility.yul\":16192:16634   */\n    tag_103:\n        /* \"#utility.yul\":16341:16345   */\n      0x00\n        /* \"#utility.yul\":16379:16381   */\n      0x60\n        /* \"#utility.yul\":16368:16377   */\n      dup3\n        /* \"#utility.yul\":16364:16382   */\n      add\n        /* \"#utility.yul\":16356:16382   */\n      swap1\n      pop\n        /* \"#utility.yul\":16392:16463   */\n      tag_348\n        /* \"#utility.yul\":16460:16461   */\n      0x00\n        /* \"#utility.yul\":16449:16458   */\n      dup4\n        /* \"#utility.yul\":16445:16462   */\n      add\n        /* \"#utility.yul\":16436:16442   */\n      dup7\n        /* \"#utility.yul\":16392:16463   */\n      tag_165\n      jump\t// in\n    tag_348:\n        /* \"#utility.yul\":16473:16545   */\n      tag_349\n        /* \"#utility.yul\":16541:16543   */\n      0x20\n        /* \"#utility.yul\":16530:16539   */\n      dup4\n        /* \"#utility.yul\":16526:16544   */\n      add\n        /* \"#utility.yul\":16517:16523   */\n      dup6\n        /* \"#utility.yul\":16473:16545   */\n      tag_165\n      jump\t// in\n    tag_349:\n        /* \"#utility.yul\":16555:16627   */\n      tag_350\n        /* \"#utility.yul\":16623:16625   */\n      0x40\n        /* \"#utility.yul\":16612:16621   */\n      dup4\n        /* \"#utility.yul\":16608:16626   */\n      add\n        /* \"#utility.yul\":16599:16605   */\n      dup5\n        /* \"#utility.yul\":16555:16627   */\n      tag_162\n      jump\t// in\n    tag_350:\n        /* \"#utility.yul\":16192:16634   */\n      swap5\n      swap4\n      pop\n      pop\n      pop\n      pop\n      jump\t// out\n        /* \"#utility.yul\":16640:16810   */\n    tag_197:\n        /* \"#utility.yul\":16780:16802   */\n      0x426964207472616e73666572206661696c65642e000000000000000000000000\n        /* \"#utility.yul\":16776:16777   */\n      0x00\n        /* \"#utility.yul\":16768:16774   */\n      dup3\n        /* \"#utility.yul\":16764:16778   */\n      add\n        /* \"#utility.yul\":16757:16803   */\n      mstore\n        /* \"#utility.yul\":16640:16810   */\n      pop\n      jump\t// out\n        /* \"#utility.yul\":16816:17182   */\n    tag_198:\n        /* \"#utility.yul\":16958:16961   */\n      0x00\n        /* \"#utility.yul\":16979:17046   */\n      tag_353\n        /* \"#utility.yul\":17043:17045   */\n      0x14\n        /* \"#utility.yul\":17038:17041   */\n      dup4\n        /* \"#utility.yul\":16979:17046   */\n      tag_175\n      jump\t// in\n    tag_353:\n        /* \"#utility.yul\":16972:17046   */\n      swap2\n      pop\n        /* \"#utility.yul\":17055:17148   */\n      tag_354\n        /* \"#utility.yul\":17144:17147   */\n      dup3\n        /* \"#utility.yul\":17055:17148   */\n      tag_197\n      jump\t// in\n    tag_354:\n        /* \"#utility.yul\":17173:17175   */\n      0x20\n        /* \"#utility.yul\":17168:17171   */\n      dup3\n        /* \"#utility.yul\":17164:17176   */\n      add\n        /* \"#utility.yul\":17157:17176   */\n      swap1\n      pop\n        /* \"#utility.yul\":16816:17182   */\n      swap2\n      swap1\n      pop\n      jump\t// out\n        /* \"#utility.yul\":17188:17607   */\n    tag_111:\n        /* \"#utility.yul\":17354:17358   */\n      0x00\n        /* \"#utility.yul\":17392:17394   */\n      0x20\n        /* \"#utility.yul\":17381:17390   */\n      dup3\n        /* \"#utility.yul\":17377:17395   */\n      add\n        /* \"#utility.yul\":17369:17395   */\n      swap1\n      pop\n        /* \"#utility.yul\":17441:17450   */\n      dup2\n        /* \"#utility.yul\":17435:17439   */\n      dup2\n        /* \"#utility.yul\":17431:17451   */\n      sub\n        /* \"#utility.yul\":17427:17428   */\n      0x00\n        /* \"#utility.yul\":17416:17425   */\n      dup4\n        /* \"#utility.yul\":17412:17429   */\n      add\n        /* \"#utility.yul\":17405:17452   */\n      mstore\n        /* \"#utility.yul\":17469:17600   */\n      tag_356\n        /* \"#utility.yul\":17595:17599   */\n      dup2\n        /* \"#utility.yul\":17469:17600   */\n      tag_198\n      jump\t// in\n    tag_356:\n        /* \"#utility.yul\":17461:17600   */\n      swap1\n      pop\n        /* \"#utility.yul\":17188:17607   */\n      swap2\n      swap1\n      pop\n      jump\t// out\n        /* \"#utility.yul\":17613:17785   */\n    tag_199:\n        /* \"#utility.yul\":17753:17777   */\n      0x41756374696f6e20686173206e6f7420656e6465642e00000000000000000000\n        /* \"#utility.yul\":17749:17750   */\n      0x00\n        /* \"#utility.yul\":17741:17747   */\n      dup3\n        /* \"#utility.yul\":17737:17751   */\n      add\n        /* \"#utility.yul\":17730:17778   */\n      mstore\n        /* \"#utility.yul\":17613:17785   */\n      pop\n      jump\t// out\n        /* \"#utility.yul\":17791:18157   */\n    tag_200:\n        /* \"#utility.yul\":17933:17936   */\n      0x00\n        /* \"#utility.yul\":17954:18021   */\n      tag_359\n        /* \"#utility.yul\":18018:18020   */\n      0x16\n        /* \"#utility.yul\":18013:18016   */\n      dup4\n        /* \"#utility.yul\":17954:18021   */\n      tag_175\n      jump\t// in\n    tag_359:\n        /* \"#utility.yul\":17947:18021   */\n      swap2\n      pop\n        /* \"#utility.yul\":18030:18123   */\n      tag_360\n        /* \"#utility.yul\":18119:18122   */\n      dup3\n        /* \"#utility.yul\":18030:18123   */\n      tag_199\n      jump\t// in\n    tag_360:\n        /* \"#utility.yul\":18148:18150   */\n      0x20\n        /* \"#utility.yul\":18143:18146   */\n      dup3\n        /* \"#utility.yul\":18139:18151   */\n      add\n        /* \"#utility.yul\":18132:18151   */\n      swap1\n      pop\n        /* \"#utility.yul\":17791:18157   */\n      swap2\n      swap1\n      pop\n      jump\t// out\n        /* \"#utility.yul\":18163:18582   */\n    tag_132:\n        /* \"#utility.yul\":18329:18333   */\n      0x00\n        /* \"#utility.yul\":18367:18369   */\n      0x20\n        /* \"#utility.yul\":18356:18365   */\n      dup3\n        /* \"#utility.yul\":18352:18370   */\n      add\n        /* \"#utility.yul\":18344:18370   */\n      swap1\n      pop\n        /* \"#utility.yul\":18416:18425   */\n      dup2\n        /* \"#utility.yul\":18410:18414   */\n      dup2\n        /* \"#utility.yul\":18406:18426   */\n      sub\n        /* \"#utility.yul\":18402:18403   */\n      0x00\n        /* \"#utility.yul\":18391:18400   */\n      dup4\n        /* \"#utility.yul\":18387:18404   */\n      add\n        /* \"#utility.yul\":18380:18427   */\n      mstore\n        /* \"#utility.yul\":18444:18575   */\n      tag_362\n        /* \"#utility.yul\":18570:18574   */\n      dup2\n        /* \"#utility.yul\":18444:18575   */\n      tag_200\n      jump\t// in\n    tag_362:\n        /* \"#utility.yul\":18436:18575   */\n      swap1\n      pop\n        /* \"#utility.yul\":18163:18582   */\n      swap2\n      swap1\n      pop\n      jump\t// out\n        /* \"#utility.yul\":18588:18673   */\n    tag_201:\n        /* \"#utility.yul\":18633:18640   */\n      0x00\n        /* \"#utility.yul\":18662:18667   */\n      dup2\n        /* \"#utility.yul\":18651:18667   */\n      swap1\n      pop\n        /* \"#utility.yul\":18588:18673   */\n      swap2\n      swap1\n      pop\n      jump\t// out\n        /* \"#utility.yul\":18679:18837   */\n    tag_202:\n        /* \"#utility.yul\":18737:18746   */\n      0x00\n        /* \"#utility.yul\":18770:18831   */\n      tag_365\n        /* \"#utility.yul\":18788:18830   */\n      tag_366\n        /* \"#utility.yul\":18797:18829   */\n      tag_367\n        /* \"#utility.yul\":18823:18828   */\n      dup5\n        /* \"#utility.yul\":18797:18829   */\n      tag_201\n      jump\t// in\n    tag_367:\n        /* \"#utility.yul\":18788:18830   */\n      tag_170\n      jump\t// in\n    tag_366:\n        /* \"#utility.yul\":18770:18831   */\n      tag_159\n      jump\t// in\n    tag_365:\n        /* \"#utility.yul\":18757:18831   */\n      swap1\n      pop\n        /* \"#utility.yul\":18679:18837   */\n      swap2\n      swap1\n      pop\n      jump\t// out\n        /* \"#utility.yul\":18843:18990   */\n    tag_203:\n        /* \"#utility.yul\":18938:18983   */\n      tag_369\n        /* \"#utility.yul\":18977:18982   */\n      dup2\n        /* \"#utility.yul\":18938:18983   */\n      tag_202\n      jump\t// in\n    tag_369:\n        /* \"#utility.yul\":18933:18936   */\n      dup3\n        /* \"#utility.yul\":18926:18984   */\n      mstore\n        /* \"#utility.yul\":18843:18990   */\n      pop\n      pop\n      jump\t// out\n        /* \"#utility.yul\":18996:19234   */\n    tag_149:\n        /* \"#utility.yul\":19097:19101   */\n      0x00\n        /* \"#utility.yul\":19135:19137   */\n      0x20\n        /* \"#utility.yul\":19124:19133   */\n      dup3\n        /* \"#utility.yul\":19120:19138   */\n      add\n        /* \"#utility.yul\":19112:19138   */\n      swap1\n      pop\n        /* \"#utility.yul\":19148:19227   */\n      tag_371\n        /* \"#utility.yul\":19224:19225   */\n      0x00\n        /* \"#utility.yul\":19213:19222   */\n      dup4\n        /* \"#utility.yul\":19209:19226   */\n      add\n        /* \"#utility.yul\":19200:19206   */\n      dup5\n        /* \"#utility.yul\":19148:19227   */\n      tag_203\n      jump\t// in\n    tag_371:\n        /* \"#utility.yul\":18996:19234   */\n      swap3\n      swap2\n      pop\n      pop\n      jump\t// out\n\n    auxdata: 0xa2646970667358221220dac4de28e775ceebfc980d4b178e75c8df1e608e16871f63cdc33264a7168af964736f6c634300081a0033\n}\n",
				"bytecode": {
					"linkReferences": {},
					"object": "608060405234801561000f575f80fd5b50604051611c88380380611c8883398181016040528101906100319190610142565b5f73ffffffffffffffffffffffffffffffffffffffff168173ffffffffffffffffffffffffffffffffffffffff160361009f576040517f08c379a0000000000000000000000000000000000000000000000000000000008152600401610096906101c7565b60405180910390fd5b805f806101000a81548173ffffffffffffffffffffffffffffffffffffffff021916908373ffffffffffffffffffffffffffffffffffffffff160217905550506101e5565b5f80fd5b5f73ffffffffffffffffffffffffffffffffffffffff82169050919050565b5f610111826100e8565b9050919050565b61012181610107565b811461012b575f80fd5b50565b5f8151905061013c81610118565b92915050565b5f60208284031215610157576101566100e4565b5b5f6101648482850161012e565b91505092915050565b5f82825260208201905092915050565b7f546f6b656e20616464726573732063616e6e6f74206265207a65726f2e0000005f82015250565b5f6101b1601d8361016d565b91506101bc8261017d565b602082019050919050565b5f6020820190508181035f8301526101de816101a5565b9050919050565b611a96806101f25f395ff3fe608060405234801561000f575f80fd5b5060043610610091575f3560e01c8063de0794ef11610064578063de0794ef1461010d578063e80838631461012b578063f20e5e3514610147578063f3f437031461017d578063fc0c546a146101ad57610091565b80630121683f1461009557806324600fc3146100b1578063571a26a0146100bb57806357c90de5146100f1575b5f80fd5b6100af60048036038101906100aa9190611114565b6101cb565b005b6100b9610434565b005b6100d560048036038101906100d09190611152565b610661565b6040516100e897969594939291906111e5565b60405180910390f35b61010b60048036038101906101069190611114565b6106f9565b005b610115610b4b565b6040516101229190611252565b60405180910390f35b61014560048036038101906101409190611152565b610b51565b005b610161600480360381019061015c9190611152565b610f01565b60405161017497969594939291906111e5565b60405180910390f35b61019760048036038101906101929190611295565b6110a5565b6040516101a49190611252565b60405180910390f35b6101b56110ba565b6040516101c2919061131b565b60405180910390f35b5f821161020d576040517f08c379a0000000000000000000000000000000000000000000000000000000008152600401610204906113b4565b60405180910390fd5b5f811161024f576040517f08c379a000000000000000000000000000000000000000000000000000000000815260040161024690611442565b60405180910390fd5b60026040518060e0016040528060035481526020013373ffffffffffffffffffffffffffffffffffffffff1681526020018481526020015f81526020015f73ffffffffffffffffffffffffffffffffffffffff16815260200160011515815260200183426102bd919061148d565b815250908060018154018082558091505060019003905f5260205f2090600602015f909190919091505f820151815f01556020820151816001015f6101000a81548173ffffffffffffffffffffffffffffffffffffffff021916908373ffffffffffffffffffffffffffffffffffffffff16021790555060408201518160020155606082015181600301556080820151816004015f6101000a81548173ffffffffffffffffffffffffffffffffffffffff021916908373ffffffffffffffffffffffffffffffffffffffff16021790555060a08201518160040160146101000a81548160ff02191690831515021790555060c0820151816005015550503373ffffffffffffffffffffffffffffffffffffffff167fc9050d42180a61cb0d9ebb8ad118b62fe6eab12cf12ff752c4a0cc7da9ddf627600354848442610402919061148d565b604051610411939291906114c0565b60405180910390a260035f81548092919061042b906114f5565b91905055505050565b5f60015f3373ffffffffffffffffffffffffffffffffffffffff1673ffffffffffffffffffffffffffffffffffffffff1681526020019081526020015f205490505f81116104b7576040517f08c379a00000000000000000000000000000000000000000000000000000000081526004016104ae90611586565b60405180910390fd5b5f60015f3373ffffffffffffffffffffffffffffffffffffffff1673ffffffffffffffffffffffffffffffffffffffff1681526020019081526020015f20819055505f8054906101000a900473ffffffffffffffffffffffffffffffffffffffff1673ffffffffffffffffffffffffffffffffffffffff1663a9059cbb33836040518363ffffffff1660e01b81526004016105539291906115a4565b6020604051808303815f875af192505050801561058e57506040513d601f19601f8201168201806040525081019061058b91906115f5565b60015b61060f578060015f3373ffffffffffffffffffffffffffffffffffffffff1673ffffffffffffffffffffffffffffffffffffffff1681526020019081526020015f20819055506040517f08c379a00000000000000000000000000000000000000000000000000000000081526004016106069061166a565b60405180910390fd5b503373ffffffffffffffffffffffffffffffffffffffff167f7fcf532c15f0a6db0bd6d0e038bea71d30d808c7d98cb3bf7268a95bf5081b65826040516106569190611252565b60405180910390a250565b60028181548110610670575f80fd5b905f5260205f2090600602015f91509050805f015490806001015f9054906101000a900473ffffffffffffffffffffffffffffffffffffffff1690806002015490806003015490806004015f9054906101000a900473ffffffffffffffffffffffffffffffffffffffff16908060040160149054906101000a900460ff16908060050154905087565b6002805490508210610740576040517f08c379a0000000000000000000000000000000000000000000000000000000008152600401610737906116d2565b60405180910390fd5b5f60028381548110610755576107546116f0565b5b905f5260205f20906006020190508060040160149054906101000a900460ff166107b4576040517f08c379a00000000000000000000000000000000000000000000000000000000081526004016107ab90611767565b60405180910390fd5b806005015442106107fa576040517f08c379a00000000000000000000000000000000000000000000000000000000081526004016107f1906117cf565b60405180910390fd5b80600301548211610840576040517f08c379a00000000000000000000000000000000000000000000000000000000081526004016108379061185d565b60405180910390fd5b8060020154821015610887576040517f08c379a000000000000000000000000000000000000000000000000000000000815260040161087e906118eb565b60405180910390fd5b5f8054906101000a900473ffffffffffffffffffffffffffffffffffffffff1673ffffffffffffffffffffffffffffffffffffffff166323b872dd3330856040518463ffffffff1660e01b81526004016108e393929190611909565b6020604051808303815f875af192505050801561091e57506040513d601f19601f8201168201806040525081019061091b91906115f5565b60015b61095d576040517f08c379a000000000000000000000000000000000000000000000000000000000815260040161095490611988565b60405180910390fd5b505f81600301541115610aac575f8054906101000a900473ffffffffffffffffffffffffffffffffffffffff1673ffffffffffffffffffffffffffffffffffffffff1663a9059cbb826004015f9054906101000a900473ffffffffffffffffffffffffffffffffffffffff1683600301546040518363ffffffff1660e01b81526004016109eb9291906115a4565b6020604051808303815f875af1925050508015610a2657506040513d601f19601f82011682018060405250810190610a2391906115f5565b60015b610aa957806003015460015f836004015f9054906101000a900473ffffffffffffffffffffffffffffffffffffffff1673ffffffffffffffffffffffffffffffffffffffff1673ffffffffffffffffffffffffffffffffffffffff1681526020019081526020015f205f828254610a9d919061148d565b92505081905550610aab565b505b5b81816003018190555033816004015f6101000a81548173ffffffffffffffffffffffffffffffffffffffff021916908373ffffffffffffffffffffffffffffffffffffffff1602179055503373ffffffffffffffffffffffffffffffffffffffff16837f0e54eff26401bf69b81b26f60bd85ef47f5d85275c1d268d84f68d6897431c4784604051610b3e9190611252565b60405180910390a3505050565b60035481565b6002805490508110610b98576040517f08c379a0000000000000000000000000000000000000000000000000000000008152600401610b8f906116d2565b60405180910390fd5b5f60028281548110610bad57610bac6116f0565b5b905f5260205f20906006020190508060050154421015610c02576040517f08c379a0000000000000000000000000000000000000000000000000000000008152600401610bf9906119f0565b60405180910390fd5b8060040160149054906101000a900460ff16610c53576040517f08c379a0000000000000000000000000000000000000000000000000000000008152600401610c4a90611767565b60405180910390fd5b5f8160040160146101000a81548160ff0219169083151502179055505f81600301541115610ead575f8054906101000a900473ffffffffffffffffffffffffffffffffffffffff1673ffffffffffffffffffffffffffffffffffffffff1663a9059cbb826001015f9054906101000a900473ffffffffffffffffffffffffffffffffffffffff1683600301546040518363ffffffff1660e01b8152600401610cfc9291906115a4565b6020604051808303815f875af1925050508015610d3757506040513d601f19601f82011682018060405250810190610d3491906115f5565b60015b610e3057806003015460015f836001015f9054906101000a900473ffffffffffffffffffffffffffffffffffffffff1673ffffffffffffffffffffffffffffffffffffffff1673ffffffffffffffffffffffffffffffffffffffff1681526020019081526020015f205f828254610dae919061148d565b92505081905550806004015f9054906101000a900473ffffffffffffffffffffffffffffffffffffffff1673ffffffffffffffffffffffffffffffffffffffff16827f4d9113a1377d665eaa1f9168a9c9080f2e488cb820b10149de3d6d2e0f2780c78360030154604051610e239190611252565b60405180910390a3610ea8565b50806004015f9054906101000a900473ffffffffffffffffffffffffffffffffffffffff1673ffffffffffffffffffffffffffffffffffffffff16827f4d9113a1377d665eaa1f9168a9c9080f2e488cb820b10149de3d6d2e0f2780c78360030154604051610e9f9190611252565b60405180910390a35b610efd565b5f73ffffffffffffffffffffffffffffffffffffffff16827f4d9113a1377d665eaa1f9168a9c9080f2e488cb820b10149de3d6d2e0f2780c75f604051610ef49190611a47565b60405180910390a35b5050565b5f805f805f805f6002805490508810610f4f576040517f08c379a0000000000000000000000000000000000000000000000000000000008152600401610f46906116d2565b60405180910390fd5b5f60028981548110610f6457610f636116f0565b5b905f5260205f2090600602016040518060e00160405290815f8201548152602001600182015f9054906101000a900473ffffffffffffffffffffffffffffffffffffffff1673ffffffffffffffffffffffffffffffffffffffff1673ffffffffffffffffffffffffffffffffffffffff1681526020016002820154815260200160038201548152602001600482015f9054906101000a900473ffffffffffffffffffffffffffffffffffffffff1673ffffffffffffffffffffffffffffffffffffffff1673ffffffffffffffffffffffffffffffffffffffff1681526020016004820160149054906101000a900460ff161515151581526020016005820154815250509050805f015181602001518260400151836060015184608001518560a001518660c00151975097509750975097509750975050919395979092949650565b6001602052805f5260405f205f915090505481565b5f8054906101000a900473ffffffffffffffffffffffffffffffffffffffff1681565b5f80fd5b5f819050919050565b6110f3816110e1565b81146110fd575f80fd5b50565b5f8135905061110e816110ea565b92915050565b5f806040838503121561112a576111296110dd565b5b5f61113785828601611100565b925050602061114885828601611100565b9150509250929050565b5f60208284031215611167576111666110dd565b5b5f61117484828501611100565b91505092915050565b611186816110e1565b82525050565b5f73ffffffffffffffffffffffffffffffffffffffff82169050919050565b5f6111b58261118c565b9050919050565b6111c5816111ab565b82525050565b5f8115159050919050565b6111df816111cb565b82525050565b5f60e0820190506111f85f83018a61117d565b61120560208301896111bc565b611212604083018861117d565b61121f606083018761117d565b61122c60808301866111bc565b61123960a08301856111d6565b61124660c083018461117d565b98975050505050505050565b5f6020820190506112655f83018461117d565b92915050565b611274816111ab565b811461127e575f80fd5b50565b5f8135905061128f8161126b565b92915050565b5f602082840312156112aa576112a96110dd565b5b5f6112b784828501611281565b91505092915050565b5f819050919050565b5f6112e36112de6112d98461118c565b6112c0565b61118c565b9050919050565b5f6112f4826112c9565b9050919050565b5f611305826112ea565b9050919050565b611315816112fb565b82525050565b5f60208201905061132e5f83018461130c565b92915050565b5f82825260208201905092915050565b7f4d696e696d756d20626964206d7573742062652067726561746572207468616e5f8201527f207a65726f2e0000000000000000000000000000000000000000000000000000602082015250565b5f61139e602683611334565b91506113a982611344565b604082019050919050565b5f6020820190508181035f8301526113cb81611392565b9050919050565b7f4475726174696f6e206d7573742062652067726561746572207468616e207a655f8201527f726f2e0000000000000000000000000000000000000000000000000000000000602082015250565b5f61142c602383611334565b9150611437826113d2565b604082019050919050565b5f6020820190508181035f83015261145981611420565b9050919050565b7f4e487b71000000000000000000000000000000000000000000000000000000005f52601160045260245ffd5b5f611497826110e1565b91506114a2836110e1565b92508282019050808211156114ba576114b9611460565b5b92915050565b5f6060820190506114d35f83018661117d565b6114e0602083018561117d565b6114ed604083018461117d565b949350505050565b5f6114ff826110e1565b91507fffffffffffffffffffffffffffffffffffffffffffffffffffffffffffffffff820361153157611530611460565b5b600182019050919050565b7f4e6f2066756e647320746f2077697468647261772e00000000000000000000005f82015250565b5f611570601583611334565b915061157b8261153c565b602082019050919050565b5f6020820190508181035f83015261159d81611564565b9050919050565b5f6040820190506115b75f8301856111bc565b6115c4602083018461117d565b9392505050565b6115d4816111cb565b81146115de575f80fd5b50565b5f815190506115ef816115cb565b92915050565b5f6020828403121561160a576116096110dd565b5b5f611617848285016115e1565b91505092915050565b7f5769746864726177616c206661696c65642e00000000000000000000000000005f82015250565b5f611654601283611334565b915061165f82611620565b602082019050919050565b5f6020820190508181035f83015261168181611648565b9050919050565b7f41756374696f6e20646f6573206e6f742065786973742e0000000000000000005f82015250565b5f6116bc601783611334565b91506116c782611688565b602082019050919050565b5f6020820190508181035f8301526116e9816116b0565b9050919050565b7f4e487b71000000000000000000000000000000000000000000000000000000005f52603260045260245ffd5b7f41756374696f6e206973206e6f74206163746976652e000000000000000000005f82015250565b5f611751601683611334565b915061175c8261171d565b602082019050919050565b5f6020820190508181035f83015261177e81611745565b9050919050565b7f41756374696f6e2068617320656e6465642e00000000000000000000000000005f82015250565b5f6117b9601283611334565b91506117c482611785565b602082019050919050565b5f6020820190508181035f8301526117e6816117ad565b9050919050565b7f426964206d75737420626520686967686572207468616e2074686520637572725f8201527f656e742068696768657374206269642e00000000000000000000000000000000602082015250565b5f611847603083611334565b9150611852826117ed565b604082019050919050565b5f6020820190508181035f8301526118748161183b565b9050919050565b7f426964206d757374206d65657420746865206d696e696d756d2062696420616d5f8201527f6f756e742e000000000000000000000000000000000000000000000000000000602082015250565b5f6118d5602583611334565b91506118e08261187b565b604082019050919050565b5f6020820190508181035f830152611902816118c9565b9050919050565b5f60608201905061191c5f8301866111bc565b61192960208301856111bc565b611936604083018461117d565b949350505050565b7f426964207472616e73666572206661696c65642e0000000000000000000000005f82015250565b5f611972601483611334565b915061197d8261193e565b602082019050919050565b5f6020820190508181035f83015261199f81611966565b9050919050565b7f41756374696f6e20686173206e6f7420656e6465642e000000000000000000005f82015250565b5f6119da601683611334565b91506119e5826119a6565b602082019050919050565b5f6020820190508181035f830152611a07816119ce565b9050919050565b5f819050919050565b5f611a31611a2c611a2784611a0e565b6112c0565b6110e1565b9050919050565b611a4181611a17565b82525050565b5f602082019050611a5a5f830184611a38565b9291505056fea2646970667358221220dac4de28e775ceebfc980d4b178e75c8df1e608e16871f63cdc33264a7168af964736f6c634300081a0033",
					"opcodes": "PUSH1 0x80 PUSH1 0x40 MSTORE CALLVALUE DUP1 ISZERO PUSH2 0xF JUMPI PUSH0 DUP1 REVERT JUMPDEST POP PUSH1 0x40 MLOAD PUSH2 0x1C88 CODESIZE SUB DUP1 PUSH2 0x1C88 DUP4 CODECOPY DUP2 DUP2 ADD PUSH1 0x40 MSTORE DUP2 ADD SWAP1 PUSH2 0x31 SWAP2 SWAP1 PUSH2 0x142 JUMP JUMPDEST PUSH0 PUSH20 0xFFFFFFFFFFFFFFFFFFFFFFFFFFFFFFFFFFFFFFFF AND DUP2 PUSH20 0xFFFFFFFFFFFFFFFFFFFFFFFFFFFFFFFFFFFFFFFF AND SUB PUSH2 0x9F JUMPI PUSH1 0x40 MLOAD PUSH32 0x8C379A000000000000000000000000000000000000000000000000000000000 DUP2 MSTORE PUSH1 0x4 ADD PUSH2 0x96 SWAP1 PUSH2 0x1C7 JUMP JUMPDEST PUSH1 0x40 MLOAD DUP1 SWAP2 SUB SWAP1 REVERT JUMPDEST DUP1 PUSH0 DUP1 PUSH2 0x100 EXP DUP2 SLOAD DUP2 PUSH20 0xFFFFFFFFFFFFFFFFFFFFFFFFFFFFFFFFFFFFFFFF MUL NOT AND SWAP1 DUP4 PUSH20 0xFFFFFFFFFFFFFFFFFFFFFFFFFFFFFFFFFFFFFFFF AND MUL OR SWAP1 SSTORE POP POP PUSH2 0x1E5 JUMP JUMPDEST PUSH0 DUP1 REVERT JUMPDEST PUSH0 PUSH20 0xFFFFFFFFFFFFFFFFFFFFFFFFFFFFFFFFFFFFFFFF DUP3 AND SWAP1 POP SWAP2 SWAP1 POP JUMP JUMPDEST PUSH0 PUSH2 0x111 DUP3 PUSH2 0xE8 JUMP JUMPDEST SWAP1 POP SWAP2 SWAP1 POP JUMP JUMPDEST PUSH2 0x121 DUP2 PUSH2 0x107 JUMP JUMPDEST DUP2 EQ PUSH2 0x12B JUMPI PUSH0 DUP1 REVERT JUMPDEST POP JUMP JUMPDEST PUSH0 DUP2 MLOAD SWAP1 POP PUSH2 0x13C DUP2 PUSH2 0x118 JUMP JUMPDEST SWAP3 SWAP2 POP POP JUMP JUMPDEST PUSH0 PUSH1 0x20 DUP3 DUP5 SUB SLT ISZERO PUSH2 0x157 JUMPI PUSH2 0x156 PUSH2 0xE4 JUMP JUMPDEST JUMPDEST PUSH0 PUSH2 0x164 DUP5 DUP3 DUP6 ADD PUSH2 0x12E JUMP JUMPDEST SWAP2 POP POP SWAP3 SWAP2 POP POP JUMP JUMPDEST PUSH0 DUP3 DUP3 MSTORE PUSH1 0x20 DUP3 ADD SWAP1 POP SWAP3 SWAP2 POP POP JUMP JUMPDEST PUSH32 0x546F6B656E20616464726573732063616E6E6F74206265207A65726F2E000000 PUSH0 DUP3 ADD MSTORE POP JUMP JUMPDEST PUSH0 PUSH2 0x1B1 PUSH1 0x1D DUP4 PUSH2 0x16D JUMP JUMPDEST SWAP2 POP PUSH2 0x1BC DUP3 PUSH2 0x17D JUMP JUMPDEST PUSH1 0x20 DUP3 ADD SWAP1 POP SWAP2 SWAP1 POP JUMP JUMPDEST PUSH0 PUSH1 0x20 DUP3 ADD SWAP1 POP DUP2 DUP2 SUB PUSH0 DUP4 ADD MSTORE PUSH2 0x1DE DUP2 PUSH2 0x1A5 JUMP JUMPDEST SWAP1 POP SWAP2 SWAP1 POP JUMP JUMPDEST PUSH2 0x1A96 DUP1 PUSH2 0x1F2 PUSH0 CODECOPY PUSH0 RETURN INVALID PUSH1 0x80 PUSH1 0x40 MSTORE CALLVALUE DUP1 ISZERO PUSH2 0xF JUMPI PUSH0 DUP1 REVERT JUMPDEST POP PUSH1 0x4 CALLDATASIZE LT PUSH2 0x91 JUMPI PUSH0 CALLDATALOAD PUSH1 0xE0 SHR DUP1 PUSH4 0xDE0794EF GT PUSH2 0x64 JUMPI DUP1 PUSH4 0xDE0794EF EQ PUSH2 0x10D JUMPI DUP1 PUSH4 0xE8083863 EQ PUSH2 0x12B JUMPI DUP1 PUSH4 0xF20E5E35 EQ PUSH2 0x147 JUMPI DUP1 PUSH4 0xF3F43703 EQ PUSH2 0x17D JUMPI DUP1 PUSH4 0xFC0C546A EQ PUSH2 0x1AD JUMPI PUSH2 0x91 JUMP JUMPDEST DUP1 PUSH4 0x121683F EQ PUSH2 0x95 JUMPI DUP1 PUSH4 0x24600FC3 EQ PUSH2 0xB1 JUMPI DUP1 PUSH4 0x571A26A0 EQ PUSH2 0xBB JUMPI DUP1 PUSH4 0x57C90DE5 EQ PUSH2 0xF1 JUMPI JUMPDEST PUSH0 DUP1 REVERT JUMPDEST PUSH2 0xAF PUSH1 0x4 DUP1 CALLDATASIZE SUB DUP2 ADD SWAP1 PUSH2 0xAA SWAP2 SWAP1 PUSH2 0x1114 JUMP JUMPDEST PUSH2 0x1CB JUMP JUMPDEST STOP JUMPDEST PUSH2 0xB9 PUSH2 0x434 JUMP JUMPDEST STOP JUMPDEST PUSH2 0xD5 PUSH1 0x4 DUP1 CALLDATASIZE SUB DUP2 ADD SWAP1 PUSH2 0xD0 SWAP2 SWAP1 PUSH2 0x1152 JUMP JUMPDEST PUSH2 0x661 JUMP JUMPDEST PUSH1 0x40 MLOAD PUSH2 0xE8 SWAP8 SWAP7 SWAP6 SWAP5 SWAP4 SWAP3 SWAP2 SWAP1 PUSH2 0x11E5 JUMP JUMPDEST PUSH1 0x40 MLOAD DUP1 SWAP2 SUB SWAP1 RETURN JUMPDEST PUSH2 0x10B PUSH1 0x4 DUP1 CALLDATASIZE SUB DUP2 ADD SWAP1 PUSH2 0x106 SWAP2 SWAP1 PUSH2 0x1114 JUMP JUMPDEST PUSH2 0x6F9 JUMP JUMPDEST STOP JUMPDEST PUSH2 0x115 PUSH2 0xB4B JUMP JUMPDEST PUSH1 0x40 MLOAD PUSH2 0x122 SWAP2 SWAP1 PUSH2 0x1252 JUMP JUMPDEST PUSH1 0x40 MLOAD DUP1 SWAP2 SUB SWAP1 RETURN JUMPDEST PUSH2 0x145 PUSH1 0x4 DUP1 CALLDATASIZE SUB DUP2 ADD SWAP1 PUSH2 0x140 SWAP2 SWAP1 PUSH2 0x1152 JUMP JUMPDEST PUSH2 0xB51 JUMP JUMPDEST STOP JUMPDEST PUSH2 0x161 PUSH1 0x4 DUP1 CALLDATASIZE SUB DUP2 ADD SWAP1 PUSH2 0x15C SWAP2 SWAP1 PUSH2 0x1152 JUMP JUMPDEST PUSH2 0xF01 JUMP JUMPDEST PUSH1 0x40 MLOAD PUSH2 0x174 SWAP8 SWAP7 SWAP6 SWAP5 SWAP4 SWAP3 SWAP2 SWAP1 PUSH2 0x11E5 JUMP JUMPDEST PUSH1 0x40 MLOAD DUP1 SWAP2 SUB SWAP1 RETURN JUMPDEST PUSH2 0x197 PUSH1 0x4 DUP1 CALLDATASIZE SUB DUP2 ADD SWAP1 PUSH2 0x192 SWAP2 SWAP1 PUSH2 0x1295 JUMP JUMPDEST PUSH2 0x10A5 JUMP JUMPDEST PUSH1 0x40 MLOAD PUSH2 0x1A4 SWAP2 SWAP1 PUSH2 0x1252 JUMP JUMPDEST PUSH1 0x40 MLOAD DUP1 SWAP2 SUB SWAP1 RETURN JUMPDEST PUSH2 0x1B5 PUSH2 0x10BA JUMP JUMPDEST PUSH1 0x40 MLOAD PUSH2 0x1C2 SWAP2 SWAP1 PUSH2 0x131B JUMP JUMPDEST PUSH1 0x40 MLOAD DUP1 SWAP2 SUB SWAP1 RETURN JUMPDEST PUSH0 DUP3 GT PUSH2 0x20D JUMPI PUSH1 0x40 MLOAD PUSH32 0x8C379A000000000000000000000000000000000000000000000000000000000 DUP2 MSTORE PUSH1 0x4 ADD PUSH2 0x204 SWAP1 PUSH2 0x13B4 JUMP JUMPDEST PUSH1 0x40 MLOAD DUP1 SWAP2 SUB SWAP1 REVERT JUMPDEST PUSH0 DUP2 GT PUSH2 0x24F JUMPI PUSH1 0x40 MLOAD PUSH32 0x8C379A000000000000000000000000000000000000000000000000000000000 DUP2 MSTORE PUSH1 0x4 ADD PUSH2 0x246 SWAP1 PUSH2 0x1442 JUMP JUMPDEST PUSH1 0x40 MLOAD DUP1 SWAP2 SUB SWAP1 REVERT JUMPDEST PUSH1 0x2 PUSH1 0x40 MLOAD DUP1 PUSH1 0xE0 ADD PUSH1 0x40 MSTORE DUP1 PUSH1 0x3 SLOAD DUP2 MSTORE PUSH1 0x20 ADD CALLER PUSH20 0xFFFFFFFFFFFFFFFFFFFFFFFFFFFFFFFFFFFFFFFF AND DUP2 MSTORE PUSH1 0x20 ADD DUP5 DUP2 MSTORE PUSH1 0x20 ADD PUSH0 DUP2 MSTORE PUSH1 0x20 ADD PUSH0 PUSH20 0xFFFFFFFFFFFFFFFFFFFFFFFFFFFFFFFFFFFFFFFF AND DUP2 MSTORE PUSH1 0x20 ADD PUSH1 0x1 ISZERO ISZERO DUP2 MSTORE PUSH1 0x20 ADD DUP4 TIMESTAMP PUSH2 0x2BD SWAP2 SWAP1 PUSH2 0x148D JUMP JUMPDEST DUP2 MSTORE POP SWAP1 DUP1 PUSH1 0x1 DUP2 SLOAD ADD DUP1 DUP3 SSTORE DUP1 SWAP2 POP POP PUSH1 0x1 SWAP1 SUB SWAP1 PUSH0 MSTORE PUSH1 0x20 PUSH0 KECCAK256 SWAP1 PUSH1 0x6 MUL ADD PUSH0 SWAP1 SWAP2 SWAP1 SWAP2 SWAP1 SWAP2 POP PUSH0 DUP3 ADD MLOAD DUP2 PUSH0 ADD SSTORE PUSH1 0x20 DUP3 ADD MLOAD DUP2 PUSH1 0x1 ADD PUSH0 PUSH2 0x100 EXP DUP2 SLOAD DUP2 PUSH20 0xFFFFFFFFFFFFFFFFFFFFFFFFFFFFFFFFFFFFFFFF MUL NOT AND SWAP1 DUP4 PUSH20 0xFFFFFFFFFFFFFFFFFFFFFFFFFFFFFFFFFFFFFFFF AND MUL OR SWAP1 SSTORE POP PUSH1 0x40 DUP3 ADD MLOAD DUP2 PUSH1 0x2 ADD SSTORE PUSH1 0x60 DUP3 ADD MLOAD DUP2 PUSH1 0x3 ADD SSTORE PUSH1 0x80 DUP3 ADD MLOAD DUP2 PUSH1 0x4 ADD PUSH0 PUSH2 0x100 EXP DUP2 SLOAD DUP2 PUSH20 0xFFFFFFFFFFFFFFFFFFFFFFFFFFFFFFFFFFFFFFFF MUL NOT AND SWAP1 DUP4 PUSH20 0xFFFFFFFFFFFFFFFFFFFFFFFFFFFFFFFFFFFFFFFF AND MUL OR SWAP1 SSTORE POP PUSH1 0xA0 DUP3 ADD MLOAD DUP2 PUSH1 0x4 ADD PUSH1 0x14 PUSH2 0x100 EXP DUP2 SLOAD DUP2 PUSH1 0xFF MUL NOT AND SWAP1 DUP4 ISZERO ISZERO MUL OR SWAP1 SSTORE POP PUSH1 0xC0 DUP3 ADD MLOAD DUP2 PUSH1 0x5 ADD SSTORE POP POP CALLER PUSH20 0xFFFFFFFFFFFFFFFFFFFFFFFFFFFFFFFFFFFFFFFF AND PUSH32 0xC9050D42180A61CB0D9EBB8AD118B62FE6EAB12CF12FF752C4A0CC7DA9DDF627 PUSH1 0x3 SLOAD DUP5 DUP5 TIMESTAMP PUSH2 0x402 SWAP2 SWAP1 PUSH2 0x148D JUMP JUMPDEST PUSH1 0x40 MLOAD PUSH2 0x411 SWAP4 SWAP3 SWAP2 SWAP1 PUSH2 0x14C0 JUMP JUMPDEST PUSH1 0x40 MLOAD DUP1 SWAP2 SUB SWAP1 LOG2 PUSH1 0x3 PUSH0 DUP2 SLOAD DUP1 SWAP3 SWAP2 SWAP1 PUSH2 0x42B SWAP1 PUSH2 0x14F5 JUMP JUMPDEST SWAP2 SWAP1 POP SSTORE POP POP POP JUMP JUMPDEST PUSH0 PUSH1 0x1 PUSH0 CALLER PUSH20 0xFFFFFFFFFFFFFFFFFFFFFFFFFFFFFFFFFFFFFFFF AND PUSH20 0xFFFFFFFFFFFFFFFFFFFFFFFFFFFFFFFFFFFFFFFF AND DUP2 MSTORE PUSH1 0x20 ADD SWAP1 DUP2 MSTORE PUSH1 0x20 ADD PUSH0 KECCAK256 SLOAD SWAP1 POP PUSH0 DUP2 GT PUSH2 0x4B7 JUMPI PUSH1 0x40 MLOAD PUSH32 0x8C379A000000000000000000000000000000000000000000000000000000000 DUP2 MSTORE PUSH1 0x4 ADD PUSH2 0x4AE SWAP1 PUSH2 0x1586 JUMP JUMPDEST PUSH1 0x40 MLOAD DUP1 SWAP2 SUB SWAP1 REVERT JUMPDEST PUSH0 PUSH1 0x1 PUSH0 CALLER PUSH20 0xFFFFFFFFFFFFFFFFFFFFFFFFFFFFFFFFFFFFFFFF AND PUSH20 0xFFFFFFFFFFFFFFFFFFFFFFFFFFFFFFFFFFFFFFFF AND DUP2 MSTORE PUSH1 0x20 ADD SWAP1 DUP2 MSTORE PUSH1 0x20 ADD PUSH0 KECCAK256 DUP2 SWAP1 SSTORE POP PUSH0 DUP1 SLOAD SWAP1 PUSH2 0x100 EXP SWAP1 DIV PUSH20 0xFFFFFFFFFFFFFFFFFFFFFFFFFFFFFFFFFFFFFFFF AND PUSH20 0xFFFFFFFFFFFFFFFFFFFFFFFFFFFFFFFFFFFFFFFF AND PUSH4 0xA9059CBB CALLER DUP4 PUSH1 0x40 MLOAD DUP4 PUSH4 0xFFFFFFFF AND PUSH1 0xE0 SHL DUP2 MSTORE PUSH1 0x4 ADD PUSH2 0x553 SWAP3 SWAP2 SWAP1 PUSH2 0x15A4 JUMP JUMPDEST PUSH1 0x20 PUSH1 0x40 MLOAD DUP1 DUP4 SUB DUP2 PUSH0 DUP8 GAS CALL SWAP3 POP POP POP DUP1 ISZERO PUSH2 0x58E JUMPI POP PUSH1 0x40 MLOAD RETURNDATASIZE PUSH1 0x1F NOT PUSH1 0x1F DUP3 ADD AND DUP3 ADD DUP1 PUSH1 0x40 MSTORE POP DUP2 ADD SWAP1 PUSH2 0x58B SWAP2 SWAP1 PUSH2 0x15F5 JUMP JUMPDEST PUSH1 0x1 JUMPDEST PUSH2 0x60F JUMPI DUP1 PUSH1 0x1 PUSH0 CALLER PUSH20 0xFFFFFFFFFFFFFFFFFFFFFFFFFFFFFFFFFFFFFFFF AND PUSH20 0xFFFFFFFFFFFFFFFFFFFFFFFFFFFFFFFFFFFFFFFF AND DUP2 MSTORE PUSH1 0x20 ADD SWAP1 DUP2 MSTORE PUSH1 0x20 ADD PUSH0 KECCAK256 DUP2 SWAP1 SSTORE POP PUSH1 0x40 MLOAD PUSH32 0x8C379A000000000000000000000000000000000000000000000000000000000 DUP2 MSTORE PUSH1 0x4 ADD PUSH2 0x606 SWAP1 PUSH2 0x166A JUMP JUMPDEST PUSH1 0x40 MLOAD DUP1 SWAP2 SUB SWAP1 REVERT JUMPDEST POP CALLER PUSH20 0xFFFFFFFFFFFFFFFFFFFFFFFFFFFFFFFFFFFFFFFF AND PUSH32 0x7FCF532C15F0A6DB0BD6D0E038BEA71D30D808C7D98CB3BF7268A95BF5081B65 DUP3 PUSH1 0x40 MLOAD PUSH2 0x656 SWAP2 SWAP1 PUSH2 0x1252 JUMP JUMPDEST PUSH1 0x40 MLOAD DUP1 SWAP2 SUB SWAP1 LOG2 POP JUMP JUMPDEST PUSH1 0x2 DUP2 DUP2 SLOAD DUP2 LT PUSH2 0x670 JUMPI PUSH0 DUP1 REVERT JUMPDEST SWAP1 PUSH0 MSTORE PUSH1 0x20 PUSH0 KECCAK256 SWAP1 PUSH1 0x6 MUL ADD PUSH0 SWAP2 POP SWAP1 POP DUP1 PUSH0 ADD SLOAD SWAP1 DUP1 PUSH1 0x1 ADD PUSH0 SWAP1 SLOAD SWAP1 PUSH2 0x100 EXP SWAP1 DIV PUSH20 0xFFFFFFFFFFFFFFFFFFFFFFFFFFFFFFFFFFFFFFFF AND SWAP1 DUP1 PUSH1 0x2 ADD SLOAD SWAP1 DUP1 PUSH1 0x3 ADD SLOAD SWAP1 DUP1 PUSH1 0x4 ADD PUSH0 SWAP1 SLOAD SWAP1 PUSH2 0x100 EXP SWAP1 DIV PUSH20 0xFFFFFFFFFFFFFFFFFFFFFFFFFFFFFFFFFFFFFFFF AND SWAP1 DUP1 PUSH1 0x4 ADD PUSH1 0x14 SWAP1 SLOAD SWAP1 PUSH2 0x100 EXP SWAP1 DIV PUSH1 0xFF AND SWAP1 DUP1 PUSH1 0x5 ADD SLOAD SWAP1 POP DUP8 JUMP JUMPDEST PUSH1 0x2 DUP1 SLOAD SWAP1 POP DUP3 LT PUSH2 0x740 JUMPI PUSH1 0x40 MLOAD PUSH32 0x8C379A000000000000000000000000000000000000000000000000000000000 DUP2 MSTORE PUSH1 0x4 ADD PUSH2 0x737 SWAP1 PUSH2 0x16D2 JUMP JUMPDEST PUSH1 0x40 MLOAD DUP1 SWAP2 SUB SWAP1 REVERT JUMPDEST PUSH0 PUSH1 0x2 DUP4 DUP2 SLOAD DUP2 LT PUSH2 0x755 JUMPI PUSH2 0x754 PUSH2 0x16F0 JUMP JUMPDEST JUMPDEST SWAP1 PUSH0 MSTORE PUSH1 0x20 PUSH0 KECCAK256 SWAP1 PUSH1 0x6 MUL ADD SWAP1 POP DUP1 PUSH1 0x4 ADD PUSH1 0x14 SWAP1 SLOAD SWAP1 PUSH2 0x100 EXP SWAP1 DIV PUSH1 0xFF AND PUSH2 0x7B4 JUMPI PUSH1 0x40 MLOAD PUSH32 0x8C379A000000000000000000000000000000000000000000000000000000000 DUP2 MSTORE PUSH1 0x4 ADD PUSH2 0x7AB SWAP1 PUSH2 0x1767 JUMP JUMPDEST PUSH1 0x40 MLOAD DUP1 SWAP2 SUB SWAP1 REVERT JUMPDEST DUP1 PUSH1 0x5 ADD SLOAD TIMESTAMP LT PUSH2 0x7FA JUMPI PUSH1 0x40 MLOAD PUSH32 0x8C379A000000000000000000000000000000000000000000000000000000000 DUP2 MSTORE PUSH1 0x4 ADD PUSH2 0x7F1 SWAP1 PUSH2 0x17CF JUMP JUMPDEST PUSH1 0x40 MLOAD DUP1 SWAP2 SUB SWAP1 REVERT JUMPDEST DUP1 PUSH1 0x3 ADD SLOAD DUP3 GT PUSH2 0x840 JUMPI PUSH1 0x40 MLOAD PUSH32 0x8C379A000000000000000000000000000000000000000000000000000000000 DUP2 MSTORE PUSH1 0x4 ADD PUSH2 0x837 SWAP1 PUSH2 0x185D JUMP JUMPDEST PUSH1 0x40 MLOAD DUP1 SWAP2 SUB SWAP1 REVERT JUMPDEST DUP1 PUSH1 0x2 ADD SLOAD DUP3 LT ISZERO PUSH2 0x887 JUMPI PUSH1 0x40 MLOAD PUSH32 0x8C379A000000000000000000000000000000000000000000000000000000000 DUP2 MSTORE PUSH1 0x4 ADD PUSH2 0x87E SWAP1 PUSH2 0x18EB JUMP JUMPDEST PUSH1 0x40 MLOAD DUP1 SWAP2 SUB SWAP1 REVERT JUMPDEST PUSH0 DUP1 SLOAD SWAP1 PUSH2 0x100 EXP SWAP1 DIV PUSH20 0xFFFFFFFFFFFFFFFFFFFFFFFFFFFFFFFFFFFFFFFF AND PUSH20 0xFFFFFFFFFFFFFFFFFFFFFFFFFFFFFFFFFFFFFFFF AND PUSH4 0x23B872DD CALLER ADDRESS DUP6 PUSH1 0x40 MLOAD DUP5 PUSH4 0xFFFFFFFF AND PUSH1 0xE0 SHL DUP2 MSTORE PUSH1 0x4 ADD PUSH2 0x8E3 SWAP4 SWAP3 SWAP2 SWAP1 PUSH2 0x1909 JUMP JUMPDEST PUSH1 0x20 PUSH1 0x40 MLOAD DUP1 DUP4 SUB DUP2 PUSH0 DUP8 GAS CALL SWAP3 POP POP POP DUP1 ISZERO PUSH2 0x91E JUMPI POP PUSH1 0x40 MLOAD RETURNDATASIZE PUSH1 0x1F NOT PUSH1 0x1F DUP3 ADD AND DUP3 ADD DUP1 PUSH1 0x40 MSTORE POP DUP2 ADD SWAP1 PUSH2 0x91B SWAP2 SWAP1 PUSH2 0x15F5 JUMP JUMPDEST PUSH1 0x1 JUMPDEST PUSH2 0x95D JUMPI PUSH1 0x40 MLOAD PUSH32 0x8C379A000000000000000000000000000000000000000000000000000000000 DUP2 MSTORE PUSH1 0x4 ADD PUSH2 0x954 SWAP1 PUSH2 0x1988 JUMP JUMPDEST PUSH1 0x40 MLOAD DUP1 SWAP2 SUB SWAP1 REVERT JUMPDEST POP PUSH0 DUP2 PUSH1 0x3 ADD SLOAD GT ISZERO PUSH2 0xAAC JUMPI PUSH0 DUP1 SLOAD SWAP1 PUSH2 0x100 EXP SWAP1 DIV PUSH20 0xFFFFFFFFFFFFFFFFFFFFFFFFFFFFFFFFFFFFFFFF AND PUSH20 0xFFFFFFFFFFFFFFFFFFFFFFFFFFFFFFFFFFFFFFFF AND PUSH4 0xA9059CBB DUP3 PUSH1 0x4 ADD PUSH0 SWAP1 SLOAD SWAP1 PUSH2 0x100 EXP SWAP1 DIV PUSH20 0xFFFFFFFFFFFFFFFFFFFFFFFFFFFFFFFFFFFFFFFF AND DUP4 PUSH1 0x3 ADD SLOAD PUSH1 0x40 MLOAD DUP4 PUSH4 0xFFFFFFFF AND PUSH1 0xE0 SHL DUP2 MSTORE PUSH1 0x4 ADD PUSH2 0x9EB SWAP3 SWAP2 SWAP1 PUSH2 0x15A4 JUMP JUMPDEST PUSH1 0x20 PUSH1 0x40 MLOAD DUP1 DUP4 SUB DUP2 PUSH0 DUP8 GAS CALL SWAP3 POP POP POP DUP1 ISZERO PUSH2 0xA26 JUMPI POP PUSH1 0x40 MLOAD RETURNDATASIZE PUSH1 0x1F NOT PUSH1 0x1F DUP3 ADD AND DUP3 ADD DUP1 PUSH1 0x40 MSTORE POP DUP2 ADD SWAP1 PUSH2 0xA23 SWAP2 SWAP1 PUSH2 0x15F5 JUMP JUMPDEST PUSH1 0x1 JUMPDEST PUSH2 0xAA9 JUMPI DUP1 PUSH1 0x3 ADD SLOAD PUSH1 0x1 PUSH0 DUP4 PUSH1 0x4 ADD PUSH0 SWAP1 SLOAD SWAP1 PUSH2 0x100 EXP SWAP1 DIV PUSH20 0xFFFFFFFFFFFFFFFFFFFFFFFFFFFFFFFFFFFFFFFF AND PUSH20 0xFFFFFFFFFFFFFFFFFFFFFFFFFFFFFFFFFFFFFFFF AND PUSH20 0xFFFFFFFFFFFFFFFFFFFFFFFFFFFFFFFFFFFFFFFF AND DUP2 MSTORE PUSH1 0x20 ADD SWAP1 DUP2 MSTORE PUSH1 0x20 ADD PUSH0 KECCAK256 PUSH0 DUP3 DUP3 SLOAD PUSH2 0xA9D SWAP2 SWAP1 PUSH2 0x148D JUMP JUMPDEST SWAP3 POP POP DUP2 SWAP1 SSTORE POP PUSH2 0xAAB JUMP JUMPDEST POP JUMPDEST JUMPDEST DUP2 DUP2 PUSH1 0x3 ADD DUP2 SWAP1 SSTORE POP CALLER DUP2 PUSH1 0x4 ADD PUSH0 PUSH2 0x100 EXP DUP2 SLOAD DUP2 PUSH20 0xFFFFFFFFFFFFFFFFFFFFFFFFFFFFFFFFFFFFFFFF MUL NOT AND SWAP1 DUP4 PUSH20 0xFFFFFFFFFFFFFFFFFFFFFFFFFFFFFFFFFFFFFFFF AND MUL OR SWAP1 SSTORE POP CALLER PUSH20 0xFFFFFFFFFFFFFFFFFFFFFFFFFFFFFFFFFFFFFFFF AND DUP4 PUSH32 0xE54EFF26401BF69B81B26F60BD85EF47F5D85275C1D268D84F68D6897431C47 DUP5 PUSH1 0x40 MLOAD PUSH2 0xB3E SWAP2 SWAP1 PUSH2 0x1252 JUMP JUMPDEST PUSH1 0x40 MLOAD DUP1 SWAP2 SUB SWAP1 LOG3 POP POP POP JUMP JUMPDEST PUSH1 0x3 SLOAD DUP2 JUMP JUMPDEST PUSH1 0x2 DUP1 SLOAD SWAP1 POP DUP2 LT PUSH2 0xB98 JUMPI PUSH1 0x40 MLOAD PUSH32 0x8C379A000000000000000000000000000000000000000000000000000000000 DUP2 MSTORE PUSH1 0x4 ADD PUSH2 0xB8F SWAP1 PUSH2 0x16D2 JUMP JUMPDEST PUSH1 0x40 MLOAD DUP1 SWAP2 SUB SWAP1 REVERT JUMPDEST PUSH0 PUSH1 0x2 DUP3 DUP2 SLOAD DUP2 LT PUSH2 0xBAD JUMPI PUSH2 0xBAC PUSH2 0x16F0 JUMP JUMPDEST JUMPDEST SWAP1 PUSH0 MSTORE PUSH1 0x20 PUSH0 KECCAK256 SWAP1 PUSH1 0x6 MUL ADD SWAP1 POP DUP1 PUSH1 0x5 ADD SLOAD TIMESTAMP LT ISZERO PUSH2 0xC02 JUMPI PUSH1 0x40 MLOAD PUSH32 0x8C379A000000000000000000000000000000000000000000000000000000000 DUP2 MSTORE PUSH1 0x4 ADD PUSH2 0xBF9 SWAP1 PUSH2 0x19F0 JUMP JUMPDEST PUSH1 0x40 MLOAD DUP1 SWAP2 SUB SWAP1 REVERT JUMPDEST DUP1 PUSH1 0x4 ADD PUSH1 0x14 SWAP1 SLOAD SWAP1 PUSH2 0x100 EXP SWAP1 DIV PUSH1 0xFF AND PUSH2 0xC53 JUMPI PUSH1 0x40 MLOAD PUSH32 0x8C379A000000000000000000000000000000000000000000000000000000000 DUP2 MSTORE PUSH1 0x4 ADD PUSH2 0xC4A SWAP1 PUSH2 0x1767 JUMP JUMPDEST PUSH1 0x40 MLOAD DUP1 SWAP2 SUB SWAP1 REVERT JUMPDEST PUSH0 DUP2 PUSH1 0x4 ADD PUSH1 0x14 PUSH2 0x100 EXP DUP2 SLOAD DUP2 PUSH1 0xFF MUL NOT AND SWAP1 DUP4 ISZERO ISZERO MUL OR SWAP1 SSTORE POP PUSH0 DUP2 PUSH1 0x3 ADD SLOAD GT ISZERO PUSH2 0xEAD JUMPI PUSH0 DUP1 SLOAD SWAP1 PUSH2 0x100 EXP SWAP1 DIV PUSH20 0xFFFFFFFFFFFFFFFFFFFFFFFFFFFFFFFFFFFFFFFF AND PUSH20 0xFFFFFFFFFFFFFFFFFFFFFFFFFFFFFFFFFFFFFFFF AND PUSH4 0xA9059CBB DUP3 PUSH1 0x1 ADD PUSH0 SWAP1 SLOAD SWAP1 PUSH2 0x100 EXP SWAP1 DIV PUSH20 0xFFFFFFFFFFFFFFFFFFFFFFFFFFFFFFFFFFFFFFFF AND DUP4 PUSH1 0x3 ADD SLOAD PUSH1 0x40 MLOAD DUP4 PUSH4 0xFFFFFFFF AND PUSH1 0xE0 SHL DUP2 MSTORE PUSH1 0x4 ADD PUSH2 0xCFC SWAP3 SWAP2 SWAP1 PUSH2 0x15A4 JUMP JUMPDEST PUSH1 0x20 PUSH1 0x40 MLOAD DUP1 DUP4 SUB DUP2 PUSH0 DUP8 GAS CALL SWAP3 POP POP POP DUP1 ISZERO PUSH2 0xD37 JUMPI POP PUSH1 0x40 MLOAD RETURNDATASIZE PUSH1 0x1F NOT PUSH1 0x1F DUP3 ADD AND DUP3 ADD DUP1 PUSH1 0x40 MSTORE POP DUP2 ADD SWAP1 PUSH2 0xD34 SWAP2 SWAP1 PUSH2 0x15F5 JUMP JUMPDEST PUSH1 0x1 JUMPDEST PUSH2 0xE30 JUMPI DUP1 PUSH1 0x3 ADD SLOAD PUSH1 0x1 PUSH0 DUP4 PUSH1 0x1 ADD PUSH0 SWAP1 SLOAD SWAP1 PUSH2 0x100 EXP SWAP1 DIV PUSH20 0xFFFFFFFFFFFFFFFFFFFFFFFFFFFFFFFFFFFFFFFF AND PUSH20 0xFFFFFFFFFFFFFFFFFFFFFFFFFFFFFFFFFFFFFFFF AND PUSH20 0xFFFFFFFFFFFFFFFFFFFFFFFFFFFFFFFFFFFFFFFF AND DUP2 MSTORE PUSH1 0x20 ADD SWAP1 DUP2 MSTORE PUSH1 0x20 ADD PUSH0 KECCAK256 PUSH0 DUP3 DUP3 SLOAD PUSH2 0xDAE SWAP2 SWAP1 PUSH2 0x148D JUMP JUMPDEST SWAP3 POP POP DUP2 SWAP1 SSTORE POP DUP1 PUSH1 0x4 ADD PUSH0 SWAP1 SLOAD SWAP1 PUSH2 0x100 EXP SWAP1 DIV PUSH20 0xFFFFFFFFFFFFFFFFFFFFFFFFFFFFFFFFFFFFFFFF AND PUSH20 0xFFFFFFFFFFFFFFFFFFFFFFFFFFFFFFFFFFFFFFFF AND DUP3 PUSH32 0x4D9113A1377D665EAA1F9168A9C9080F2E488CB820B10149DE3D6D2E0F2780C7 DUP4 PUSH1 0x3 ADD SLOAD PUSH1 0x40 MLOAD PUSH2 0xE23 SWAP2 SWAP1 PUSH2 0x1252 JUMP JUMPDEST PUSH1 0x40 MLOAD DUP1 SWAP2 SUB SWAP1 LOG3 PUSH2 0xEA8 JUMP JUMPDEST POP DUP1 PUSH1 0x4 ADD PUSH0 SWAP1 SLOAD SWAP1 PUSH2 0x100 EXP SWAP1 DIV PUSH20 0xFFFFFFFFFFFFFFFFFFFFFFFFFFFFFFFFFFFFFFFF AND PUSH20 0xFFFFFFFFFFFFFFFFFFFFFFFFFFFFFFFFFFFFFFFF AND DUP3 PUSH32 0x4D9113A1377D665EAA1F9168A9C9080F2E488CB820B10149DE3D6D2E0F2780C7 DUP4 PUSH1 0x3 ADD SLOAD PUSH1 0x40 MLOAD PUSH2 0xE9F SWAP2 SWAP1 PUSH2 0x1252 JUMP JUMPDEST PUSH1 0x40 MLOAD DUP1 SWAP2 SUB SWAP1 LOG3 JUMPDEST PUSH2 0xEFD JUMP JUMPDEST PUSH0 PUSH20 0xFFFFFFFFFFFFFFFFFFFFFFFFFFFFFFFFFFFFFFFF AND DUP3 PUSH32 0x4D9113A1377D665EAA1F9168A9C9080F2E488CB820B10149DE3D6D2E0F2780C7 PUSH0 PUSH1 0x40 MLOAD PUSH2 0xEF4 SWAP2 SWAP1 PUSH2 0x1A47 JUMP JUMPDEST PUSH1 0x40 MLOAD DUP1 SWAP2 SUB SWAP1 LOG3 JUMPDEST POP POP JUMP JUMPDEST PUSH0 DUP1 PUSH0 DUP1 PUSH0 DUP1 PUSH0 PUSH1 0x2 DUP1 SLOAD SWAP1 POP DUP9 LT PUSH2 0xF4F JUMPI PUSH1 0x40 MLOAD PUSH32 0x8C379A000000000000000000000000000000000000000000000000000000000 DUP2 MSTORE PUSH1 0x4 ADD PUSH2 0xF46 SWAP1 PUSH2 0x16D2 JUMP JUMPDEST PUSH1 0x40 MLOAD DUP1 SWAP2 SUB SWAP1 REVERT JUMPDEST PUSH0 PUSH1 0x2 DUP10 DUP2 SLOAD DUP2 LT PUSH2 0xF64 JUMPI PUSH2 0xF63 PUSH2 0x16F0 JUMP JUMPDEST JUMPDEST SWAP1 PUSH0 MSTORE PUSH1 0x20 PUSH0 KECCAK256 SWAP1 PUSH1 0x6 MUL ADD PUSH1 0x40 MLOAD DUP1 PUSH1 0xE0 ADD PUSH1 0x40 MSTORE SWAP1 DUP2 PUSH0 DUP3 ADD SLOAD DUP2 MSTORE PUSH1 0x20 ADD PUSH1 0x1 DUP3 ADD PUSH0 SWAP1 SLOAD SWAP1 PUSH2 0x100 EXP SWAP1 DIV PUSH20 0xFFFFFFFFFFFFFFFFFFFFFFFFFFFFFFFFFFFFFFFF AND PUSH20 0xFFFFFFFFFFFFFFFFFFFFFFFFFFFFFFFFFFFFFFFF AND PUSH20 0xFFFFFFFFFFFFFFFFFFFFFFFFFFFFFFFFFFFFFFFF AND DUP2 MSTORE PUSH1 0x20 ADD PUSH1 0x2 DUP3 ADD SLOAD DUP2 MSTORE PUSH1 0x20 ADD PUSH1 0x3 DUP3 ADD SLOAD DUP2 MSTORE PUSH1 0x20 ADD PUSH1 0x4 DUP3 ADD PUSH0 SWAP1 SLOAD SWAP1 PUSH2 0x100 EXP SWAP1 DIV PUSH20 0xFFFFFFFFFFFFFFFFFFFFFFFFFFFFFFFFFFFFFFFF AND PUSH20 0xFFFFFFFFFFFFFFFFFFFFFFFFFFFFFFFFFFFFFFFF AND PUSH20 0xFFFFFFFFFFFFFFFFFFFFFFFFFFFFFFFFFFFFFFFF AND DUP2 MSTORE PUSH1 0x20 ADD PUSH1 0x4 DUP3 ADD PUSH1 0x14 SWAP1 SLOAD SWAP1 PUSH2 0x100 EXP SWAP1 DIV PUSH1 0xFF AND ISZERO ISZERO ISZERO ISZERO DUP2 MSTORE PUSH1 0x20 ADD PUSH1 0x5 DUP3 ADD SLOAD DUP2 MSTORE POP POP SWAP1 POP DUP1 PUSH0 ADD MLOAD DUP2 PUSH1 0x20 ADD MLOAD DUP3 PUSH1 0x40 ADD MLOAD DUP4 PUSH1 0x60 ADD MLOAD DUP5 PUSH1 0x80 ADD MLOAD DUP6 PUSH1 0xA0 ADD MLOAD DUP7 PUSH1 0xC0 ADD MLOAD SWAP8 POP SWAP8 POP SWAP8 POP SWAP8 POP SWAP8 POP SWAP8 POP SWAP8 POP POP SWAP2 SWAP4 SWAP6 SWAP8 SWAP1 SWAP3 SWAP5 SWAP7 POP JUMP JUMPDEST PUSH1 0x1 PUSH1 0x20 MSTORE DUP1 PUSH0 MSTORE PUSH1 0x40 PUSH0 KECCAK256 PUSH0 SWAP2 POP SWAP1 POP SLOAD DUP2 JUMP JUMPDEST PUSH0 DUP1 SLOAD SWAP1 PUSH2 0x100 EXP SWAP1 DIV PUSH20 0xFFFFFFFFFFFFFFFFFFFFFFFFFFFFFFFFFFFFFFFF AND DUP2 JUMP JUMPDEST PUSH0 DUP1 REVERT JUMPDEST PUSH0 DUP2 SWAP1 POP SWAP2 SWAP1 POP JUMP JUMPDEST PUSH2 0x10F3 DUP2 PUSH2 0x10E1 JUMP JUMPDEST DUP2 EQ PUSH2 0x10FD JUMPI PUSH0 DUP1 REVERT JUMPDEST POP JUMP JUMPDEST PUSH0 DUP2 CALLDATALOAD SWAP1 POP PUSH2 0x110E DUP2 PUSH2 0x10EA JUMP JUMPDEST SWAP3 SWAP2 POP POP JUMP JUMPDEST PUSH0 DUP1 PUSH1 0x40 DUP4 DUP6 SUB SLT ISZERO PUSH2 0x112A JUMPI PUSH2 0x1129 PUSH2 0x10DD JUMP JUMPDEST JUMPDEST PUSH0 PUSH2 0x1137 DUP6 DUP3 DUP7 ADD PUSH2 0x1100 JUMP JUMPDEST SWAP3 POP POP PUSH1 0x20 PUSH2 0x1148 DUP6 DUP3 DUP7 ADD PUSH2 0x1100 JUMP JUMPDEST SWAP2 POP POP SWAP3 POP SWAP3 SWAP1 POP JUMP JUMPDEST PUSH0 PUSH1 0x20 DUP3 DUP5 SUB SLT ISZERO PUSH2 0x1167 JUMPI PUSH2 0x1166 PUSH2 0x10DD JUMP JUMPDEST JUMPDEST PUSH0 PUSH2 0x1174 DUP5 DUP3 DUP6 ADD PUSH2 0x1100 JUMP JUMPDEST SWAP2 POP POP SWAP3 SWAP2 POP POP JUMP JUMPDEST PUSH2 0x1186 DUP2 PUSH2 0x10E1 JUMP JUMPDEST DUP3 MSTORE POP POP JUMP JUMPDEST PUSH0 PUSH20 0xFFFFFFFFFFFFFFFFFFFFFFFFFFFFFFFFFFFFFFFF DUP3 AND SWAP1 POP SWAP2 SWAP1 POP JUMP JUMPDEST PUSH0 PUSH2 0x11B5 DUP3 PUSH2 0x118C JUMP JUMPDEST SWAP1 POP SWAP2 SWAP1 POP JUMP JUMPDEST PUSH2 0x11C5 DUP2 PUSH2 0x11AB JUMP JUMPDEST DUP3 MSTORE POP POP JUMP JUMPDEST PUSH0 DUP2 ISZERO ISZERO SWAP1 POP SWAP2 SWAP1 POP JUMP JUMPDEST PUSH2 0x11DF DUP2 PUSH2 0x11CB JUMP JUMPDEST DUP3 MSTORE POP POP JUMP JUMPDEST PUSH0 PUSH1 0xE0 DUP3 ADD SWAP1 POP PUSH2 0x11F8 PUSH0 DUP4 ADD DUP11 PUSH2 0x117D JUMP JUMPDEST PUSH2 0x1205 PUSH1 0x20 DUP4 ADD DUP10 PUSH2 0x11BC JUMP JUMPDEST PUSH2 0x1212 PUSH1 0x40 DUP4 ADD DUP9 PUSH2 0x117D JUMP JUMPDEST PUSH2 0x121F PUSH1 0x60 DUP4 ADD DUP8 PUSH2 0x117D JUMP JUMPDEST PUSH2 0x122C PUSH1 0x80 DUP4 ADD DUP7 PUSH2 0x11BC JUMP JUMPDEST PUSH2 0x1239 PUSH1 0xA0 DUP4 ADD DUP6 PUSH2 0x11D6 JUMP JUMPDEST PUSH2 0x1246 PUSH1 0xC0 DUP4 ADD DUP5 PUSH2 0x117D JUMP JUMPDEST SWAP9 SWAP8 POP POP POP POP POP POP POP POP JUMP JUMPDEST PUSH0 PUSH1 0x20 DUP3 ADD SWAP1 POP PUSH2 0x1265 PUSH0 DUP4 ADD DUP5 PUSH2 0x117D JUMP JUMPDEST SWAP3 SWAP2 POP POP JUMP JUMPDEST PUSH2 0x1274 DUP2 PUSH2 0x11AB JUMP JUMPDEST DUP2 EQ PUSH2 0x127E JUMPI PUSH0 DUP1 REVERT JUMPDEST POP JUMP JUMPDEST PUSH0 DUP2 CALLDATALOAD SWAP1 POP PUSH2 0x128F DUP2 PUSH2 0x126B JUMP JUMPDEST SWAP3 SWAP2 POP POP JUMP JUMPDEST PUSH0 PUSH1 0x20 DUP3 DUP5 SUB SLT ISZERO PUSH2 0x12AA JUMPI PUSH2 0x12A9 PUSH2 0x10DD JUMP JUMPDEST JUMPDEST PUSH0 PUSH2 0x12B7 DUP5 DUP3 DUP6 ADD PUSH2 0x1281 JUMP JUMPDEST SWAP2 POP POP SWAP3 SWAP2 POP POP JUMP JUMPDEST PUSH0 DUP2 SWAP1 POP SWAP2 SWAP1 POP JUMP JUMPDEST PUSH0 PUSH2 0x12E3 PUSH2 0x12DE PUSH2 0x12D9 DUP5 PUSH2 0x118C JUMP JUMPDEST PUSH2 0x12C0 JUMP JUMPDEST PUSH2 0x118C JUMP JUMPDEST SWAP1 POP SWAP2 SWAP1 POP JUMP JUMPDEST PUSH0 PUSH2 0x12F4 DUP3 PUSH2 0x12C9 JUMP JUMPDEST SWAP1 POP SWAP2 SWAP1 POP JUMP JUMPDEST PUSH0 PUSH2 0x1305 DUP3 PUSH2 0x12EA JUMP JUMPDEST SWAP1 POP SWAP2 SWAP1 POP JUMP JUMPDEST PUSH2 0x1315 DUP2 PUSH2 0x12FB JUMP JUMPDEST DUP3 MSTORE POP POP JUMP JUMPDEST PUSH0 PUSH1 0x20 DUP3 ADD SWAP1 POP PUSH2 0x132E PUSH0 DUP4 ADD DUP5 PUSH2 0x130C JUMP JUMPDEST SWAP3 SWAP2 POP POP JUMP JUMPDEST PUSH0 DUP3 DUP3 MSTORE PUSH1 0x20 DUP3 ADD SWAP1 POP SWAP3 SWAP2 POP POP JUMP JUMPDEST PUSH32 0x4D696E696D756D20626964206D7573742062652067726561746572207468616E PUSH0 DUP3 ADD MSTORE PUSH32 0x207A65726F2E0000000000000000000000000000000000000000000000000000 PUSH1 0x20 DUP3 ADD MSTORE POP JUMP JUMPDEST PUSH0 PUSH2 0x139E PUSH1 0x26 DUP4 PUSH2 0x1334 JUMP JUMPDEST SWAP2 POP PUSH2 0x13A9 DUP3 PUSH2 0x1344 JUMP JUMPDEST PUSH1 0x40 DUP3 ADD SWAP1 POP SWAP2 SWAP1 POP JUMP JUMPDEST PUSH0 PUSH1 0x20 DUP3 ADD SWAP1 POP DUP2 DUP2 SUB PUSH0 DUP4 ADD MSTORE PUSH2 0x13CB DUP2 PUSH2 0x1392 JUMP JUMPDEST SWAP1 POP SWAP2 SWAP1 POP JUMP JUMPDEST PUSH32 0x4475726174696F6E206D7573742062652067726561746572207468616E207A65 PUSH0 DUP3 ADD MSTORE PUSH32 0x726F2E0000000000000000000000000000000000000000000000000000000000 PUSH1 0x20 DUP3 ADD MSTORE POP JUMP JUMPDEST PUSH0 PUSH2 0x142C PUSH1 0x23 DUP4 PUSH2 0x1334 JUMP JUMPDEST SWAP2 POP PUSH2 0x1437 DUP3 PUSH2 0x13D2 JUMP JUMPDEST PUSH1 0x40 DUP3 ADD SWAP1 POP SWAP2 SWAP1 POP JUMP JUMPDEST PUSH0 PUSH1 0x20 DUP3 ADD SWAP1 POP DUP2 DUP2 SUB PUSH0 DUP4 ADD MSTORE PUSH2 0x1459 DUP2 PUSH2 0x1420 JUMP JUMPDEST SWAP1 POP SWAP2 SWAP1 POP JUMP JUMPDEST PUSH32 0x4E487B7100000000000000000000000000000000000000000000000000000000 PUSH0 MSTORE PUSH1 0x11 PUSH1 0x4 MSTORE PUSH1 0x24 PUSH0 REVERT JUMPDEST PUSH0 PUSH2 0x1497 DUP3 PUSH2 0x10E1 JUMP JUMPDEST SWAP2 POP PUSH2 0x14A2 DUP4 PUSH2 0x10E1 JUMP JUMPDEST SWAP3 POP DUP3 DUP3 ADD SWAP1 POP DUP1 DUP3 GT ISZERO PUSH2 0x14BA JUMPI PUSH2 0x14B9 PUSH2 0x1460 JUMP JUMPDEST JUMPDEST SWAP3 SWAP2 POP POP JUMP JUMPDEST PUSH0 PUSH1 0x60 DUP3 ADD SWAP1 POP PUSH2 0x14D3 PUSH0 DUP4 ADD DUP7 PUSH2 0x117D JUMP JUMPDEST PUSH2 0x14E0 PUSH1 0x20 DUP4 ADD DUP6 PUSH2 0x117D JUMP JUMPDEST PUSH2 0x14ED PUSH1 0x40 DUP4 ADD DUP5 PUSH2 0x117D JUMP JUMPDEST SWAP5 SWAP4 POP POP POP POP JUMP JUMPDEST PUSH0 PUSH2 0x14FF DUP3 PUSH2 0x10E1 JUMP JUMPDEST SWAP2 POP PUSH32 0xFFFFFFFFFFFFFFFFFFFFFFFFFFFFFFFFFFFFFFFFFFFFFFFFFFFFFFFFFFFFFFFF DUP3 SUB PUSH2 0x1531 JUMPI PUSH2 0x1530 PUSH2 0x1460 JUMP JUMPDEST JUMPDEST PUSH1 0x1 DUP3 ADD SWAP1 POP SWAP2 SWAP1 POP JUMP JUMPDEST PUSH32 0x4E6F2066756E647320746F2077697468647261772E0000000000000000000000 PUSH0 DUP3 ADD MSTORE POP JUMP JUMPDEST PUSH0 PUSH2 0x1570 PUSH1 0x15 DUP4 PUSH2 0x1334 JUMP JUMPDEST SWAP2 POP PUSH2 0x157B DUP3 PUSH2 0x153C JUMP JUMPDEST PUSH1 0x20 DUP3 ADD SWAP1 POP SWAP2 SWAP1 POP JUMP JUMPDEST PUSH0 PUSH1 0x20 DUP3 ADD SWAP1 POP DUP2 DUP2 SUB PUSH0 DUP4 ADD MSTORE PUSH2 0x159D DUP2 PUSH2 0x1564 JUMP JUMPDEST SWAP1 POP SWAP2 SWAP1 POP JUMP JUMPDEST PUSH0 PUSH1 0x40 DUP3 ADD SWAP1 POP PUSH2 0x15B7 PUSH0 DUP4 ADD DUP6 PUSH2 0x11BC JUMP JUMPDEST PUSH2 0x15C4 PUSH1 0x20 DUP4 ADD DUP5 PUSH2 0x117D JUMP JUMPDEST SWAP4 SWAP3 POP POP POP JUMP JUMPDEST PUSH2 0x15D4 DUP2 PUSH2 0x11CB JUMP JUMPDEST DUP2 EQ PUSH2 0x15DE JUMPI PUSH0 DUP1 REVERT JUMPDEST POP JUMP JUMPDEST PUSH0 DUP2 MLOAD SWAP1 POP PUSH2 0x15EF DUP2 PUSH2 0x15CB JUMP JUMPDEST SWAP3 SWAP2 POP POP JUMP JUMPDEST PUSH0 PUSH1 0x20 DUP3 DUP5 SUB SLT ISZERO PUSH2 0x160A JUMPI PUSH2 0x1609 PUSH2 0x10DD JUMP JUMPDEST JUMPDEST PUSH0 PUSH2 0x1617 DUP5 DUP3 DUP6 ADD PUSH2 0x15E1 JUMP JUMPDEST SWAP2 POP POP SWAP3 SWAP2 POP POP JUMP JUMPDEST PUSH32 0x5769746864726177616C206661696C65642E0000000000000000000000000000 PUSH0 DUP3 ADD MSTORE POP JUMP JUMPDEST PUSH0 PUSH2 0x1654 PUSH1 0x12 DUP4 PUSH2 0x1334 JUMP JUMPDEST SWAP2 POP PUSH2 0x165F DUP3 PUSH2 0x1620 JUMP JUMPDEST PUSH1 0x20 DUP3 ADD SWAP1 POP SWAP2 SWAP1 POP JUMP JUMPDEST PUSH0 PUSH1 0x20 DUP3 ADD SWAP1 POP DUP2 DUP2 SUB PUSH0 DUP4 ADD MSTORE PUSH2 0x1681 DUP2 PUSH2 0x1648 JUMP JUMPDEST SWAP1 POP SWAP2 SWAP1 POP JUMP JUMPDEST PUSH32 0x41756374696F6E20646F6573206E6F742065786973742E000000000000000000 PUSH0 DUP3 ADD MSTORE POP JUMP JUMPDEST PUSH0 PUSH2 0x16BC PUSH1 0x17 DUP4 PUSH2 0x1334 JUMP JUMPDEST SWAP2 POP PUSH2 0x16C7 DUP3 PUSH2 0x1688 JUMP JUMPDEST PUSH1 0x20 DUP3 ADD SWAP1 POP SWAP2 SWAP1 POP JUMP JUMPDEST PUSH0 PUSH1 0x20 DUP3 ADD SWAP1 POP DUP2 DUP2 SUB PUSH0 DUP4 ADD MSTORE PUSH2 0x16E9 DUP2 PUSH2 0x16B0 JUMP JUMPDEST SWAP1 POP SWAP2 SWAP1 POP JUMP JUMPDEST PUSH32 0x4E487B7100000000000000000000000000000000000000000000000000000000 PUSH0 MSTORE PUSH1 0x32 PUSH1 0x4 MSTORE PUSH1 0x24 PUSH0 REVERT JUMPDEST PUSH32 0x41756374696F6E206973206E6F74206163746976652E00000000000000000000 PUSH0 DUP3 ADD MSTORE POP JUMP JUMPDEST PUSH0 PUSH2 0x1751 PUSH1 0x16 DUP4 PUSH2 0x1334 JUMP JUMPDEST SWAP2 POP PUSH2 0x175C DUP3 PUSH2 0x171D JUMP JUMPDEST PUSH1 0x20 DUP3 ADD SWAP1 POP SWAP2 SWAP1 POP JUMP JUMPDEST PUSH0 PUSH1 0x20 DUP3 ADD SWAP1 POP DUP2 DUP2 SUB PUSH0 DUP4 ADD MSTORE PUSH2 0x177E DUP2 PUSH2 0x1745 JUMP JUMPDEST SWAP1 POP SWAP2 SWAP1 POP JUMP JUMPDEST PUSH32 0x41756374696F6E2068617320656E6465642E0000000000000000000000000000 PUSH0 DUP3 ADD MSTORE POP JUMP JUMPDEST PUSH0 PUSH2 0x17B9 PUSH1 0x12 DUP4 PUSH2 0x1334 JUMP JUMPDEST SWAP2 POP PUSH2 0x17C4 DUP3 PUSH2 0x1785 JUMP JUMPDEST PUSH1 0x20 DUP3 ADD SWAP1 POP SWAP2 SWAP1 POP JUMP JUMPDEST PUSH0 PUSH1 0x20 DUP3 ADD SWAP1 POP DUP2 DUP2 SUB PUSH0 DUP4 ADD MSTORE PUSH2 0x17E6 DUP2 PUSH2 0x17AD JUMP JUMPDEST SWAP1 POP SWAP2 SWAP1 POP JUMP JUMPDEST PUSH32 0x426964206D75737420626520686967686572207468616E207468652063757272 PUSH0 DUP3 ADD MSTORE PUSH32 0x656E742068696768657374206269642E00000000000000000000000000000000 PUSH1 0x20 DUP3 ADD MSTORE POP JUMP JUMPDEST PUSH0 PUSH2 0x1847 PUSH1 0x30 DUP4 PUSH2 0x1334 JUMP JUMPDEST SWAP2 POP PUSH2 0x1852 DUP3 PUSH2 0x17ED JUMP JUMPDEST PUSH1 0x40 DUP3 ADD SWAP1 POP SWAP2 SWAP1 POP JUMP JUMPDEST PUSH0 PUSH1 0x20 DUP3 ADD SWAP1 POP DUP2 DUP2 SUB PUSH0 DUP4 ADD MSTORE PUSH2 0x1874 DUP2 PUSH2 0x183B JUMP JUMPDEST SWAP1 POP SWAP2 SWAP1 POP JUMP JUMPDEST PUSH32 0x426964206D757374206D65657420746865206D696E696D756D2062696420616D PUSH0 DUP3 ADD MSTORE PUSH32 0x6F756E742E000000000000000000000000000000000000000000000000000000 PUSH1 0x20 DUP3 ADD MSTORE POP JUMP JUMPDEST PUSH0 PUSH2 0x18D5 PUSH1 0x25 DUP4 PUSH2 0x1334 JUMP JUMPDEST SWAP2 POP PUSH2 0x18E0 DUP3 PUSH2 0x187B JUMP JUMPDEST PUSH1 0x40 DUP3 ADD SWAP1 POP SWAP2 SWAP1 POP JUMP JUMPDEST PUSH0 PUSH1 0x20 DUP3 ADD SWAP1 POP DUP2 DUP2 SUB PUSH0 DUP4 ADD MSTORE PUSH2 0x1902 DUP2 PUSH2 0x18C9 JUMP JUMPDEST SWAP1 POP SWAP2 SWAP1 POP JUMP JUMPDEST PUSH0 PUSH1 0x60 DUP3 ADD SWAP1 POP PUSH2 0x191C PUSH0 DUP4 ADD DUP7 PUSH2 0x11BC JUMP JUMPDEST PUSH2 0x1929 PUSH1 0x20 DUP4 ADD DUP6 PUSH2 0x11BC JUMP JUMPDEST PUSH2 0x1936 PUSH1 0x40 DUP4 ADD DUP5 PUSH2 0x117D JUMP JUMPDEST SWAP5 SWAP4 POP POP POP POP JUMP JUMPDEST PUSH32 0x426964207472616E73666572206661696C65642E000000000000000000000000 PUSH0 DUP3 ADD MSTORE POP JUMP JUMPDEST PUSH0 PUSH2 0x1972 PUSH1 0x14 DUP4 PUSH2 0x1334 JUMP JUMPDEST SWAP2 POP PUSH2 0x197D DUP3 PUSH2 0x193E JUMP JUMPDEST PUSH1 0x20 DUP3 ADD SWAP1 POP SWAP2 SWAP1 POP JUMP JUMPDEST PUSH0 PUSH1 0x20 DUP3 ADD SWAP1 POP DUP2 DUP2 SUB PUSH0 DUP4 ADD MSTORE PUSH2 0x199F DUP2 PUSH2 0x1966 JUMP JUMPDEST SWAP1 POP SWAP2 SWAP1 POP JUMP JUMPDEST PUSH32 0x41756374696F6E20686173206E6F7420656E6465642E00000000000000000000 PUSH0 DUP3 ADD MSTORE POP JUMP JUMPDEST PUSH0 PUSH2 0x19DA PUSH1 0x16 DUP4 PUSH2 0x1334 JUMP JUMPDEST SWAP2 POP PUSH2 0x19E5 DUP3 PUSH2 0x19A6 JUMP JUMPDEST PUSH1 0x20 DUP3 ADD SWAP1 POP SWAP2 SWAP1 POP JUMP JUMPDEST PUSH0 PUSH1 0x20 DUP3 ADD SWAP1 POP DUP2 DUP2 SUB PUSH0 DUP4 ADD MSTORE PUSH2 0x1A07 DUP2 PUSH2 0x19CE JUMP JUMPDEST SWAP1 POP SWAP2 SWAP1 POP JUMP JUMPDEST PUSH0 DUP2 SWAP1 POP SWAP2 SWAP1 POP JUMP JUMPDEST PUSH0 PUSH2 0x1A31 PUSH2 0x1A2C PUSH2 0x1A27 DUP5 PUSH2 0x1A0E JUMP JUMPDEST PUSH2 0x12C0 JUMP JUMPDEST PUSH2 0x10E1 JUMP JUMPDEST SWAP1 POP SWAP2 SWAP1 POP JUMP JUMPDEST PUSH2 0x1A41 DUP2 PUSH2 0x1A17 JUMP JUMPDEST DUP3 MSTORE POP POP JUMP JUMPDEST PUSH0 PUSH1 0x20 DUP3 ADD SWAP1 POP PUSH2 0x1A5A PUSH0 DUP4 ADD DUP5 PUSH2 0x1A38 JUMP JUMPDEST SWAP3 SWAP2 POP POP JUMP INVALID LOG2 PUSH5 0x6970667358 0x22 SLT KECCAK256 0xDA 0xC4 0xDE 0x28 0xE7 PUSH22 0xCEEBFC980D4B178E75C8DF1E608E16871F63CDC33264 0xA7 AND DUP11 0xF9 PUSH5 0x736F6C6343 STOP ADDMOD BYTE STOP CALLER "
				},
				"gasEstimates": {
					"creation": {
						"codeDepositCost": "1361200",
						"executionCost": "infinite",
						"totalCost": "infinite"
					},
					"external": {
						"auctionIdCounter()": "2425",
						"auctions(uint256)": "infinite",
						"createAuction(uint256,uint256)": "infinite",
						"finalizeAuction(uint256)": "infinite",
						"getAuctionDetails(uint256)": "infinite",
						"pendingWithdrawals(address)": "2868",
						"placeBid(uint256,uint256)": "infinite",
						"token()": "infinite",
						"withdrawFunds()": "infinite"
					}
				},
				"methodIdentifiers": {
					"auctionIdCounter()": "de0794ef",
					"auctions(uint256)": "571a26a0",
					"createAuction(uint256,uint256)": "0121683f",
					"finalizeAuction(uint256)": "e8083863",
					"getAuctionDetails(uint256)": "f20e5e35",
					"pendingWithdrawals(address)": "f3f43703",
					"placeBid(uint256,uint256)": "57c90de5",
					"token()": "fc0c546a",
					"withdrawFunds()": "24600fc3"
				}
			},
			"storageLayout": {
				"storage": [
					{
						"astId": 84,
						"contract": "assignment contracts/W5 Auction.sol:Auction",
						"label": "token",
						"offset": 0,
						"slot": "0",
						"type": "t_contract(IERC20)77"
					},
					{
						"astId": 103,
						"contract": "assignment contracts/W5 Auction.sol:Auction",
						"label": "pendingWithdrawals",
						"offset": 0,
						"slot": "1",
						"type": "t_mapping(t_address,t_uint256)"
					},
					{
						"astId": 107,
						"contract": "assignment contracts/W5 Auction.sol:Auction",
						"label": "auctions",
						"offset": 0,
						"slot": "2",
						"type": "t_array(t_struct(AuctionItem)99_storage)dyn_storage"
					},
					{
						"astId": 109,
						"contract": "assignment contracts/W5 Auction.sol:Auction",
						"label": "auctionIdCounter",
						"offset": 0,
						"slot": "3",
						"type": "t_uint256"
					}
				],
				"types": {
					"t_address": {
						"encoding": "inplace",
						"label": "address",
						"numberOfBytes": "20"
					},
					"t_array(t_struct(AuctionItem)99_storage)dyn_storage": {
						"base": "t_struct(AuctionItem)99_storage",
						"encoding": "dynamic_array",
						"label": "struct Auction.AuctionItem[]",
						"numberOfBytes": "32"
					},
					"t_bool": {
						"encoding": "inplace",
						"label": "bool",
						"numberOfBytes": "1"
					},
					"t_contract(IERC20)77": {
						"encoding": "inplace",
						"label": "contract IERC20",
						"numberOfBytes": "20"
					},
					"t_mapping(t_address,t_uint256)": {
						"encoding": "mapping",
						"key": "t_address",
						"label": "mapping(address => uint256)",
						"numberOfBytes": "32",
						"value": "t_uint256"
					},
					"t_struct(AuctionItem)99_storage": {
						"encoding": "inplace",
						"label": "struct Auction.AuctionItem",
						"members": [
							{
								"astId": 86,
								"contract": "assignment contracts/W5 Auction.sol:Auction",
								"label": "id",
								"offset": 0,
								"slot": "0",
								"type": "t_uint256"
							},
							{
								"astId": 88,
								"contract": "assignment contracts/W5 Auction.sol:Auction",
								"label": "seller",
								"offset": 0,
								"slot": "1",
								"type": "t_address"
							},
							{
								"astId": 90,
								"contract": "assignment contracts/W5 Auction.sol:Auction",
								"label": "minBid",
								"offset": 0,
								"slot": "2",
								"type": "t_uint256"
							},
							{
								"astId": 92,
								"contract": "assignment contracts/W5 Auction.sol:Auction",
								"label": "highestBid",
								"offset": 0,
								"slot": "3",
								"type": "t_uint256"
							},
							{
								"astId": 94,
								"contract": "assignment contracts/W5 Auction.sol:Auction",
								"label": "highestBidder",
								"offset": 0,
								"slot": "4",
								"type": "t_address"
							},
							{
								"astId": 96,
								"contract": "assignment contracts/W5 Auction.sol:Auction",
								"label": "isActive",
								"offset": 20,
								"slot": "4",
								"type": "t_bool"
							},
							{
								"astId": 98,
								"contract": "assignment contracts/W5 Auction.sol:Auction",
								"label": "endTime",
								"offset": 0,
								"slot": "5",
								"type": "t_uint256"
							}
						],
						"numberOfBytes": "192"
					},
					"t_uint256": {
						"encoding": "inplace",
						"label": "uint256",
						"numberOfBytes": "32"
					}
				}
			},
			"userdoc": {
				"kind": "user",
				"methods": {},
				"version": 1
			}
		}
	}
}