{
	"lecture contracts/cryptokid.sol": {
		"CryptoKid": {
			"abi": [
				{
					"inputs": [],
					"stateMutability": "nonpayable",
					"type": "constructor"
				},
				{
					"inputs": [],
					"name": "OnlyOwner",
					"type": "error"
				},
				{
					"inputs": [],
					"name": "ValidAddress",
					"type": "error"
				},
				{
					"anonymous": false,
					"inputs": [
						{
							"indexed": false,
							"internalType": "address",
							"name": "sender",
							"type": "address"
						},
						{
							"indexed": false,
							"internalType": "uint256",
							"name": "amount",
							"type": "uint256"
						},
						{
							"indexed": false,
							"internalType": "uint256",
							"name": "time",
							"type": "uint256"
						}
					],
					"name": "Deposit",
					"type": "event"
				},
				{
					"anonymous": false,
					"inputs": [
						{
							"indexed": false,
							"internalType": "address",
							"name": "receiver",
							"type": "address"
						},
						{
							"indexed": false,
							"internalType": "uint256",
							"name": "amount",
							"type": "uint256"
						},
						{
							"indexed": false,
							"internalType": "uint256",
							"name": "time",
							"type": "uint256"
						}
					],
					"name": "Withdrawal",
					"type": "event"
				},
				{
					"inputs": [
						{
							"internalType": "address payable",
							"name": "_walletAddress",
							"type": "address"
						},
						{
							"internalType": "string",
							"name": "_firstName",
							"type": "string"
						},
						{
							"internalType": "string",
							"name": "_lastName",
							"type": "string"
						}
					],
					"name": "addKid",
					"outputs": [],
					"stateMutability": "nonpayable",
					"type": "function"
				},
				{
					"inputs": [
						{
							"internalType": "address",
							"name": "_walletAddress",
							"type": "address"
						}
					],
					"name": "availableToWithdraw",
					"outputs": [
						{
							"internalType": "bool",
							"name": "",
							"type": "bool"
						}
					],
					"stateMutability": "view",
					"type": "function"
				},
				{
					"inputs": [],
					"name": "balance",
					"outputs": [
						{
							"internalType": "uint256",
							"name": "",
							"type": "uint256"
						}
					],
					"stateMutability": "view",
					"type": "function"
				},
				{
					"inputs": [
						{
							"internalType": "address",
							"name": "_walletAddress",
							"type": "address"
						}
					],
					"name": "deposit",
					"outputs": [],
					"stateMutability": "payable",
					"type": "function"
				},
				{
					"inputs": [
						{
							"internalType": "address",
							"name": "_walletAddress",
							"type": "address"
						}
					],
					"name": "getIndex",
					"outputs": [
						{
							"internalType": "uint256",
							"name": "",
							"type": "uint256"
						}
					],
					"stateMutability": "view",
					"type": "function"
				},
				{
					"inputs": [
						{
							"internalType": "uint256",
							"name": "",
							"type": "uint256"
						}
					],
					"name": "kids",
					"outputs": [
						{
							"internalType": "address payable",
							"name": "walletAddress",
							"type": "address"
						},
						{
							"internalType": "string",
							"name": "firstName",
							"type": "string"
						},
						{
							"internalType": "string",
							"name": "lastName",
							"type": "string"
						},
						{
							"internalType": "uint256",
							"name": "releaseDate",
							"type": "uint256"
						},
						{
							"internalType": "uint256",
							"name": "amount",
							"type": "uint256"
						},
						{
							"internalType": "bool",
							"name": "withdrawn",
							"type": "bool"
						}
					],
					"stateMutability": "view",
					"type": "function"
				},
				{
					"inputs": [],
					"name": "owner",
					"outputs": [
						{
							"internalType": "address",
							"name": "",
							"type": "address"
						}
					],
					"stateMutability": "view",
					"type": "function"
				},
				{
					"inputs": [
						{
							"internalType": "address payable",
							"name": "_walletAddress",
							"type": "address"
						}
					],
					"name": "withdraw",
					"outputs": [],
					"stateMutability": "payable",
					"type": "function"
				}
			],
			"devdoc": {
				"kind": "dev",
				"methods": {},
				"version": 1
			},
			"evm": {
				"assembly": "    /* \"lecture contracts/cryptokid.sol\":62:3764  contract CryptoKid {... */\n  mstore(0x40, 0x80)\n    /* \"lecture contracts/cryptokid.sol\":513:564  constructor() {... */\n  callvalue\n  dup1\n  iszero\n  tag_1\n  jumpi\n  0x00\n  dup1\n  revert\ntag_1:\n  pop\n    /* \"lecture contracts/cryptokid.sol\":546:556  msg.sender */\n  caller\n    /* \"lecture contracts/cryptokid.sol\":538:543  owner */\n  0x00\n  dup1\n    /* \"lecture contracts/cryptokid.sol\":538:556  owner = msg.sender */\n  0x0100\n  exp\n  dup2\n  sload\n  dup2\n  0xffffffffffffffffffffffffffffffffffffffff\n  mul\n  not\n  and\n  swap1\n  dup4\n  0xffffffffffffffffffffffffffffffffffffffff\n  and\n  mul\n  or\n  swap1\n  sstore\n  pop\n    /* \"lecture contracts/cryptokid.sol\":62:3764  contract CryptoKid {... */\n  dataSize(sub_0)\n  dup1\n  dataOffset(sub_0)\n  0x00\n  codecopy\n  0x00\n  return\nstop\n\nsub_0: assembly {\n        /* \"lecture contracts/cryptokid.sol\":62:3764  contract CryptoKid {... */\n      mstore(0x40, 0x80)\n      jumpi(tag_1, lt(calldatasize, 0x04))\n      shr(0xe0, calldataload(0x00))\n      dup1\n      0xa25db8ce\n      gt\n      tag_10\n      jumpi\n      dup1\n      0xa25db8ce\n      eq\n      tag_6\n      jumpi\n      dup1\n      0xb31610db\n      eq\n      tag_7\n      jumpi\n      dup1\n      0xb69ef8a8\n      eq\n      tag_8\n      jumpi\n      dup1\n      0xf340fa01\n      eq\n      tag_9\n      jumpi\n      jump(tag_1)\n    tag_10:\n      dup1\n      0x51cff8d9\n      eq\n      tag_2\n      jumpi\n      dup1\n      0x55da12ce\n      eq\n      tag_3\n      jumpi\n      dup1\n      0x7285fd3a\n      eq\n      tag_4\n      jumpi\n      dup1\n      0x8da5cb5b\n      eq\n      tag_5\n      jumpi\n    tag_1:\n      0x00\n      dup1\n      revert\n        /* \"lecture contracts/cryptokid.sol\":3134:3761  function withdraw(address payable _walletAddress) public payable validAddress(_walletAddress) {... */\n    tag_2:\n      tag_11\n      0x04\n      dup1\n      calldatasize\n      sub\n      dup2\n      add\n      swap1\n      tag_12\n      swap2\n      swap1\n      tag_13\n      jump\t// in\n    tag_12:\n      tag_14\n      jump\t// in\n    tag_11:\n      stop\n        /* \"lecture contracts/cryptokid.sol\":865:1883  function addKid(address payable _walletAddress, string memory _firstName, string memory _lastName) public onlyOwner validAddress(_walletAddress) {... */\n    tag_3:\n      callvalue\n      dup1\n      iszero\n      tag_15\n      jumpi\n      0x00\n      dup1\n      revert\n    tag_15:\n      pop\n      tag_16\n      0x04\n      dup1\n      calldatasize\n      sub\n      dup2\n      add\n      swap1\n      tag_17\n      swap2\n      swap1\n      tag_18\n      jump\t// in\n    tag_17:\n      tag_19\n      jump\t// in\n    tag_16:\n      stop\n        /* \"lecture contracts/cryptokid.sol\":487:504  Kid[] public kids */\n    tag_4:\n      callvalue\n      dup1\n      iszero\n      tag_20\n      jumpi\n      0x00\n      dup1\n      revert\n    tag_20:\n      pop\n      tag_21\n      0x04\n      dup1\n      calldatasize\n      sub\n      dup2\n      add\n      swap1\n      tag_22\n      swap2\n      swap1\n      tag_23\n      jump\t// in\n    tag_22:\n      tag_24\n      jump\t// in\n    tag_21:\n      mload(0x40)\n      tag_25\n      swap7\n      swap6\n      swap5\n      swap4\n      swap3\n      swap2\n      swap1\n      tag_26\n      jump\t// in\n    tag_25:\n      mload(0x40)\n      dup1\n      swap2\n      sub\n      swap1\n      return\n        /* \"lecture contracts/cryptokid.sol\":88:108  address public owner */\n    tag_5:\n      callvalue\n      dup1\n      iszero\n      tag_27\n      jumpi\n      0x00\n      dup1\n      revert\n    tag_27:\n      pop\n      tag_28\n      tag_29\n      jump\t// in\n    tag_28:\n      mload(0x40)\n      tag_30\n      swap2\n      swap1\n      tag_31\n      jump\t// in\n    tag_30:\n      mload(0x40)\n      dup1\n      swap2\n      sub\n      swap1\n      return\n        /* \"lecture contracts/cryptokid.sol\":2850:3126  function availableToWithdraw(address _walletAddress) view public returns (bool) {... */\n    tag_6:\n      callvalue\n      dup1\n      iszero\n      tag_32\n      jumpi\n      0x00\n      dup1\n      revert\n    tag_32:\n      pop\n      tag_33\n      0x04\n      dup1\n      calldatasize\n      sub\n      dup2\n      add\n      swap1\n      tag_34\n      swap2\n      swap1\n      tag_35\n      jump\t// in\n    tag_34:\n      tag_36\n      jump\t// in\n    tag_33:\n      mload(0x40)\n      tag_37\n      swap2\n      swap1\n      tag_38\n      jump\t// in\n    tag_37:\n      mload(0x40)\n      dup1\n      swap2\n      sub\n      swap1\n      return\n        /* \"lecture contracts/cryptokid.sol\":1891:2147  function getIndex(address _walletAddress) public view returns (uint) {... */\n    tag_7:\n      callvalue\n      dup1\n      iszero\n      tag_39\n      jumpi\n      0x00\n      dup1\n      revert\n    tag_39:\n      pop\n      tag_40\n      0x04\n      dup1\n      calldatasize\n      sub\n      dup2\n      add\n      swap1\n      tag_41\n      swap2\n      swap1\n      tag_35\n      jump\t// in\n    tag_41:\n      tag_42\n      jump\t// in\n    tag_40:\n      mload(0x40)\n      tag_43\n      swap2\n      swap1\n      tag_44\n      jump\t// in\n    tag_43:\n      mload(0x40)\n      dup1\n      swap2\n      sub\n      swap1\n      return\n        /* \"lecture contracts/cryptokid.sol\":2619:2842  function balance() public view returns(uint) {... */\n    tag_8:\n      callvalue\n      dup1\n      iszero\n      tag_45\n      jumpi\n      0x00\n      dup1\n      revert\n    tag_45:\n      pop\n      tag_46\n      tag_47\n      jump\t// in\n    tag_46:\n      mload(0x40)\n      tag_48\n      swap2\n      swap1\n      tag_44\n      jump\t// in\n    tag_48:\n      mload(0x40)\n      dup1\n      swap2\n      sub\n      swap1\n      return\n        /* \"lecture contracts/cryptokid.sol\":2155:2611  function deposit(address _walletAddress) payable public validAddress(_walletAddress) {... */\n    tag_9:\n      tag_49\n      0x04\n      dup1\n      calldatasize\n      sub\n      dup2\n      add\n      swap1\n      tag_50\n      swap2\n      swap1\n      tag_35\n      jump\t// in\n    tag_50:\n      tag_51\n      jump\t// in\n    tag_49:\n      stop\n        /* \"lecture contracts/cryptokid.sol\":3134:3761  function withdraw(address payable _walletAddress) public payable validAddress(_walletAddress) {... */\n    tag_14:\n        /* \"lecture contracts/cryptokid.sol\":3212:3226  _walletAddress */\n      dup1\n        /* \"lecture contracts/cryptokid.sol\":786:787  0 */\n      0x00\n        /* \"lecture contracts/cryptokid.sol\":760:788  _walletAddress == address(0) */\n      0xffffffffffffffffffffffffffffffffffffffff\n      and\n        /* \"lecture contracts/cryptokid.sol\":760:774  _walletAddress */\n      dup2\n        /* \"lecture contracts/cryptokid.sol\":760:788  _walletAddress == address(0) */\n      0xffffffffffffffffffffffffffffffffffffffff\n      and\n      sub\n        /* \"lecture contracts/cryptokid.sol\":757:838  if(_walletAddress == address(0)) {... */\n      tag_53\n      jumpi\n        /* \"lecture contracts/cryptokid.sol\":812:826  ValidAddress() */\n      mload(0x40)\n      0x6623c80d00000000000000000000000000000000000000000000000000000000\n      dup2\n      mstore\n      0x04\n      add\n      mload(0x40)\n      dup1\n      swap2\n      sub\n      swap1\n      revert\n        /* \"lecture contracts/cryptokid.sol\":757:838  if(_walletAddress == address(0)) {... */\n    tag_53:\n        /* \"lecture contracts/cryptokid.sol\":3239:3245  uint i */\n      0x00\n        /* \"lecture contracts/cryptokid.sol\":3248:3272  getIndex(_walletAddress) */\n      tag_55\n        /* \"lecture contracts/cryptokid.sol\":3257:3271  _walletAddress */\n      dup4\n        /* \"lecture contracts/cryptokid.sol\":3248:3256  getIndex */\n      tag_42\n        /* \"lecture contracts/cryptokid.sol\":3248:3272  getIndex(_walletAddress) */\n      jump\t// in\n    tag_55:\n        /* \"lecture contracts/cryptokid.sol\":3239:3272  uint i = getIndex(_walletAddress) */\n      swap1\n      pop\n        /* \"lecture contracts/cryptokid.sol\":3308:3309  0 */\n      0x00\n        /* \"lecture contracts/cryptokid.sol\":3291:3295  kids */\n      0x01\n        /* \"lecture contracts/cryptokid.sol\":3296:3297  i */\n      dup3\n        /* \"lecture contracts/cryptokid.sol\":3291:3298  kids[i] */\n      dup2\n      sload\n      dup2\n      lt\n      tag_56\n      jumpi\n      tag_57\n      tag_58\n      jump\t// in\n    tag_57:\n    tag_56:\n      swap1\n      0x00\n      mstore\n      keccak256(0x00, 0x20)\n      swap1\n      0x06\n      mul\n      add\n        /* \"lecture contracts/cryptokid.sol\":3291:3305  kids[i].amount */\n      0x04\n      add\n      sload\n        /* \"lecture contracts/cryptokid.sol\":3291:3309  kids[i].amount > 0 */\n      gt\n        /* \"lecture contracts/cryptokid.sol\":3283:3334  require(kids[i].amount > 0, \"Insufficient balance\") */\n      tag_60\n      jumpi\n      mload(0x40)\n      0x08c379a000000000000000000000000000000000000000000000000000000000\n      dup2\n      mstore\n      0x04\n      add\n      tag_61\n      swap1\n      tag_62\n      jump\t// in\n    tag_61:\n      mload(0x40)\n      dup1\n      swap2\n      sub\n      swap1\n      revert\n    tag_60:\n        /* \"lecture contracts/cryptokid.sol\":3367:3371  kids */\n      0x01\n        /* \"lecture contracts/cryptokid.sol\":3372:3373  i */\n      dup2\n        /* \"lecture contracts/cryptokid.sol\":3367:3374  kids[i] */\n      dup2\n      sload\n      dup2\n      lt\n      tag_63\n      jumpi\n      tag_64\n      tag_58\n      jump\t// in\n    tag_64:\n    tag_63:\n      swap1\n      0x00\n      mstore\n      keccak256(0x00, 0x20)\n      swap1\n      0x06\n      mul\n      add\n        /* \"lecture contracts/cryptokid.sol\":3367:3388  kids[i].walletAddress */\n      0x00\n      add\n      0x00\n      swap1\n      sload\n      swap1\n      0x0100\n      exp\n      swap1\n      div\n      0xffffffffffffffffffffffffffffffffffffffff\n      and\n        /* \"lecture contracts/cryptokid.sol\":3353:3388  msg.sender == kids[i].walletAddress */\n      0xffffffffffffffffffffffffffffffffffffffff\n      and\n        /* \"lecture contracts/cryptokid.sol\":3353:3363  msg.sender */\n      caller\n        /* \"lecture contracts/cryptokid.sol\":3353:3388  msg.sender == kids[i].walletAddress */\n      0xffffffffffffffffffffffffffffffffffffffff\n      and\n      eq\n        /* \"lecture contracts/cryptokid.sol\":3345:3418  require(msg.sender == kids[i].walletAddress, \"Only owner of the account\") */\n      tag_66\n      jumpi\n      mload(0x40)\n      0x08c379a000000000000000000000000000000000000000000000000000000000\n      dup2\n      mstore\n      0x04\n      add\n      tag_67\n      swap1\n      tag_68\n      jump\t// in\n    tag_67:\n      mload(0x40)\n      dup1\n      swap2\n      sub\n      swap1\n      revert\n    tag_66:\n        /* \"lecture contracts/cryptokid.sol\":3455:3459  kids */\n      0x01\n        /* \"lecture contracts/cryptokid.sol\":3460:3461  i */\n      dup2\n        /* \"lecture contracts/cryptokid.sol\":3455:3462  kids[i] */\n      dup2\n      sload\n      dup2\n      lt\n      tag_69\n      jumpi\n      tag_70\n      tag_58\n      jump\t// in\n    tag_70:\n    tag_69:\n      swap1\n      0x00\n      mstore\n      keccak256(0x00, 0x20)\n      swap1\n      0x06\n      mul\n      add\n        /* \"lecture contracts/cryptokid.sol\":3455:3474  kids[i].releaseDate */\n      0x03\n      add\n      sload\n        /* \"lecture contracts/cryptokid.sol\":3437:3452  block.timestamp */\n      timestamp\n        /* \"lecture contracts/cryptokid.sol\":3437:3474  block.timestamp > kids[i].releaseDate */\n      gt\n        /* \"lecture contracts/cryptokid.sol\":3429:3504  require(block.timestamp > kids[i].releaseDate, \"Wait for the release time\") */\n      tag_72\n      jumpi\n      mload(0x40)\n      0x08c379a000000000000000000000000000000000000000000000000000000000\n      dup2\n      mstore\n      0x04\n      add\n      tag_73\n      swap1\n      tag_74\n      jump\t// in\n    tag_73:\n      mload(0x40)\n      dup1\n      swap2\n      sub\n      swap1\n      revert\n    tag_72:\n        /* \"lecture contracts/cryptokid.sol\":3524:3528  kids */\n      0x01\n        /* \"lecture contracts/cryptokid.sol\":3529:3530  i */\n      dup2\n        /* \"lecture contracts/cryptokid.sol\":3524:3531  kids[i] */\n      dup2\n      sload\n      dup2\n      lt\n      tag_75\n      jumpi\n      tag_76\n      tag_58\n      jump\t// in\n    tag_76:\n    tag_75:\n      swap1\n      0x00\n      mstore\n      keccak256(0x00, 0x20)\n      swap1\n      0x06\n      mul\n      add\n        /* \"lecture contracts/cryptokid.sol\":3524:3541  kids[i].withdrawn */\n      0x05\n      add\n      0x00\n      swap1\n      sload\n      swap1\n      0x0100\n      exp\n      swap1\n      div\n      0xff\n      and\n        /* \"lecture contracts/cryptokid.sol\":3523:3541  !kids[i].withdrawn */\n      iszero\n        /* \"lecture contracts/cryptokid.sol\":3515:3569  require(!kids[i].withdrawn, \"Funds already withdrawn\") */\n      tag_78\n      jumpi\n      mload(0x40)\n      0x08c379a000000000000000000000000000000000000000000000000000000000\n      dup2\n      mstore\n      0x04\n      add\n      tag_79\n      swap1\n      tag_80\n      jump\t// in\n    tag_79:\n      mload(0x40)\n      dup1\n      swap2\n      sub\n      swap1\n      revert\n    tag_78:\n        /* \"lecture contracts/cryptokid.sol\":3597:3598  0 */\n      0x00\n        /* \"lecture contracts/cryptokid.sol\":3580:3584  kids */\n      0x01\n        /* \"lecture contracts/cryptokid.sol\":3585:3586  i */\n      dup3\n        /* \"lecture contracts/cryptokid.sol\":3580:3587  kids[i] */\n      dup2\n      sload\n      dup2\n      lt\n      tag_81\n      jumpi\n      tag_82\n      tag_58\n      jump\t// in\n    tag_82:\n    tag_81:\n      swap1\n      0x00\n      mstore\n      keccak256(0x00, 0x20)\n      swap1\n      0x06\n      mul\n      add\n        /* \"lecture contracts/cryptokid.sol\":3580:3594  kids[i].amount */\n      0x04\n      add\n        /* \"lecture contracts/cryptokid.sol\":3580:3598  kids[i].amount = 0 */\n      dup2\n      swap1\n      sstore\n      pop\n        /* \"lecture contracts/cryptokid.sol\":3609:3623  _walletAddress */\n      dup3\n        /* \"lecture contracts/cryptokid.sol\":3609:3632  _walletAddress.transfer */\n      0xffffffffffffffffffffffffffffffffffffffff\n      and\n        /* \"lecture contracts/cryptokid.sol\":3609:3648  _walletAddress.transfer(kids[i].amount) */\n      0x08fc\n        /* \"lecture contracts/cryptokid.sol\":3633:3637  kids */\n      0x01\n        /* \"lecture contracts/cryptokid.sol\":3638:3639  i */\n      dup4\n        /* \"lecture contracts/cryptokid.sol\":3633:3640  kids[i] */\n      dup2\n      sload\n      dup2\n      lt\n      tag_84\n      jumpi\n      tag_85\n      tag_58\n      jump\t// in\n    tag_85:\n    tag_84:\n      swap1\n      0x00\n      mstore\n      keccak256(0x00, 0x20)\n      swap1\n      0x06\n      mul\n      add\n        /* \"lecture contracts/cryptokid.sol\":3633:3647  kids[i].amount */\n      0x04\n      add\n      sload\n        /* \"lecture contracts/cryptokid.sol\":3609:3648  _walletAddress.transfer(kids[i].amount) */\n      swap1\n      dup2\n      iszero\n      mul\n      swap1\n      mload(0x40)\n      0x00\n      mload(0x40)\n      dup1\n      dup4\n      sub\n      dup2\n      dup6\n      dup9\n      dup9\n      call\n      swap4\n      pop\n      pop\n      pop\n      pop\n      iszero\n      dup1\n      iszero\n      tag_88\n      jumpi\n      returndatasize\n      0x00\n      dup1\n      returndatacopy\n      revert(0x00, returndatasize)\n    tag_88:\n      pop\n        /* \"lecture contracts/cryptokid.sol\":3664:3718  Withdrawal(_walletAddress, msg.value, block.timestamp) */\n      0xdf273cb619d95419a9cd0ec88123a0538c85064229baa6363788f743fff90deb\n        /* \"lecture contracts/cryptokid.sol\":3675:3689  _walletAddress */\n      dup4\n        /* \"lecture contracts/cryptokid.sol\":3691:3700  msg.value */\n      callvalue\n        /* \"lecture contracts/cryptokid.sol\":3702:3717  block.timestamp */\n      timestamp\n        /* \"lecture contracts/cryptokid.sol\":3664:3718  Withdrawal(_walletAddress, msg.value, block.timestamp) */\n      mload(0x40)\n      tag_89\n      swap4\n      swap3\n      swap2\n      swap1\n      tag_90\n      jump\t// in\n    tag_89:\n      mload(0x40)\n      dup1\n      swap2\n      sub\n      swap1\n      log1\n        /* \"lecture contracts/cryptokid.sol\":3749:3753  true */\n      0x01\n        /* \"lecture contracts/cryptokid.sol\":3729:3733  kids */\n      dup1\n        /* \"lecture contracts/cryptokid.sol\":3734:3735  i */\n      dup3\n        /* \"lecture contracts/cryptokid.sol\":3729:3736  kids[i] */\n      dup2\n      sload\n      dup2\n      lt\n      tag_91\n      jumpi\n      tag_92\n      tag_58\n      jump\t// in\n    tag_92:\n    tag_91:\n      swap1\n      0x00\n      mstore\n      keccak256(0x00, 0x20)\n      swap1\n      0x06\n      mul\n      add\n        /* \"lecture contracts/cryptokid.sol\":3729:3746  kids[i].withdrawn */\n      0x05\n      add\n      0x00\n        /* \"lecture contracts/cryptokid.sol\":3729:3753  kids[i].withdrawn = true */\n      0x0100\n      exp\n      dup2\n      sload\n      dup2\n      0xff\n      mul\n      not\n      and\n      swap1\n      dup4\n      iszero\n      iszero\n      mul\n      or\n      swap1\n      sstore\n      pop\n        /* \"lecture contracts/cryptokid.sol\":3228:3761  {... */\n      pop\n        /* \"lecture contracts/cryptokid.sol\":3134:3761  function withdraw(address payable _walletAddress) public payable validAddress(_walletAddress) {... */\n      pop\n      pop\n      jump\t// out\n        /* \"lecture contracts/cryptokid.sol\":865:1883  function addKid(address payable _walletAddress, string memory _firstName, string memory _lastName) public onlyOwner validAddress(_walletAddress) {... */\n    tag_19:\n        /* \"lecture contracts/cryptokid.sol\":621:626  owner */\n      0x00\n      dup1\n      sload\n      swap1\n      0x0100\n      exp\n      swap1\n      div\n      0xffffffffffffffffffffffffffffffffffffffff\n      and\n        /* \"lecture contracts/cryptokid.sol\":607:626  msg.sender != owner */\n      0xffffffffffffffffffffffffffffffffffffffff\n      and\n        /* \"lecture contracts/cryptokid.sol\":607:617  msg.sender */\n      caller\n        /* \"lecture contracts/cryptokid.sol\":607:626  msg.sender != owner */\n      0xffffffffffffffffffffffffffffffffffffffff\n      and\n      eq\n        /* \"lecture contracts/cryptokid.sol\":604:673  if(msg.sender != owner) {... */\n      tag_95\n      jumpi\n        /* \"lecture contracts/cryptokid.sol\":650:661  OnlyOwner() */\n      mload(0x40)\n      0x5fc483c500000000000000000000000000000000000000000000000000000000\n      dup2\n      mstore\n      0x04\n      add\n      mload(0x40)\n      dup1\n      swap2\n      sub\n      swap1\n      revert\n        /* \"lecture contracts/cryptokid.sol\":604:673  if(msg.sender != owner) {... */\n    tag_95:\n        /* \"lecture contracts/cryptokid.sol\":994:1008  _walletAddress */\n      dup3\n        /* \"lecture contracts/cryptokid.sol\":786:787  0 */\n      0x00\n        /* \"lecture contracts/cryptokid.sol\":760:788  _walletAddress == address(0) */\n      0xffffffffffffffffffffffffffffffffffffffff\n      and\n        /* \"lecture contracts/cryptokid.sol\":760:774  _walletAddress */\n      dup2\n        /* \"lecture contracts/cryptokid.sol\":760:788  _walletAddress == address(0) */\n      0xffffffffffffffffffffffffffffffffffffffff\n      and\n      sub\n        /* \"lecture contracts/cryptokid.sol\":757:838  if(_walletAddress == address(0)) {... */\n      tag_97\n      jumpi\n        /* \"lecture contracts/cryptokid.sol\":812:826  ValidAddress() */\n      mload(0x40)\n      0x6623c80d00000000000000000000000000000000000000000000000000000000\n      dup2\n      mstore\n      0x04\n      add\n      mload(0x40)\n      dup1\n      swap2\n      sub\n      swap1\n      revert\n        /* \"lecture contracts/cryptokid.sol\":757:838  if(_walletAddress == address(0)) {... */\n    tag_97:\n        /* \"lecture contracts/cryptokid.sol\":1047:1052  owner */\n      0x00\n      dup1\n      sload\n      swap1\n      0x0100\n      exp\n      swap1\n      div\n      0xffffffffffffffffffffffffffffffffffffffff\n      and\n        /* \"lecture contracts/cryptokid.sol\":1029:1052  _walletAddress != owner */\n      0xffffffffffffffffffffffffffffffffffffffff\n      and\n        /* \"lecture contracts/cryptokid.sol\":1029:1043  _walletAddress */\n      dup5\n        /* \"lecture contracts/cryptokid.sol\":1029:1052  _walletAddress != owner */\n      0xffffffffffffffffffffffffffffffffffffffff\n      and\n      sub\n        /* \"lecture contracts/cryptokid.sol\":1021:1077  require(_walletAddress != owner, \"Owner can't be a kid\") */\n      tag_99\n      jumpi\n      mload(0x40)\n      0x08c379a000000000000000000000000000000000000000000000000000000000\n      dup2\n      mstore\n      0x04\n      add\n      tag_100\n      swap1\n      tag_101\n      jump\t// in\n    tag_100:\n      mload(0x40)\n      dup1\n      swap2\n      sub\n      swap1\n      revert\n    tag_99:\n        /* \"lecture contracts/cryptokid.sol\":1102:1108  uint i */\n      0x00\n        /* \"lecture contracts/cryptokid.sol\":1098:1234  for(uint i; i < kids.length; i++) {... */\n    tag_102:\n        /* \"lecture contracts/cryptokid.sol\":1114:1118  kids */\n      0x01\n        /* \"lecture contracts/cryptokid.sol\":1114:1125  kids.length */\n      dup1\n      sload\n      swap1\n      pop\n        /* \"lecture contracts/cryptokid.sol\":1110:1111  i */\n      dup2\n        /* \"lecture contracts/cryptokid.sol\":1110:1125  i < kids.length */\n      lt\n        /* \"lecture contracts/cryptokid.sol\":1098:1234  for(uint i; i < kids.length; i++) {... */\n      iszero\n      tag_103\n      jumpi\n        /* \"lecture contracts/cryptokid.sol\":1180:1194  _walletAddress */\n      dup5\n        /* \"lecture contracts/cryptokid.sol\":1155:1194  kids[i].walletAddress != _walletAddress */\n      0xffffffffffffffffffffffffffffffffffffffff\n      and\n        /* \"lecture contracts/cryptokid.sol\":1155:1159  kids */\n      0x01\n        /* \"lecture contracts/cryptokid.sol\":1160:1161  i */\n      dup3\n        /* \"lecture contracts/cryptokid.sol\":1155:1162  kids[i] */\n      dup2\n      sload\n      dup2\n      lt\n      tag_105\n      jumpi\n      tag_106\n      tag_58\n      jump\t// in\n    tag_106:\n    tag_105:\n      swap1\n      0x00\n      mstore\n      keccak256(0x00, 0x20)\n      swap1\n      0x06\n      mul\n      add\n        /* \"lecture contracts/cryptokid.sol\":1155:1176  kids[i].walletAddress */\n      0x00\n      add\n      0x00\n      swap1\n      sload\n      swap1\n      0x0100\n      exp\n      swap1\n      div\n      0xffffffffffffffffffffffffffffffffffffffff\n      and\n        /* \"lecture contracts/cryptokid.sol\":1155:1194  kids[i].walletAddress != _walletAddress */\n      0xffffffffffffffffffffffffffffffffffffffff\n      and\n      sub\n        /* \"lecture contracts/cryptokid.sol\":1147:1222  require(kids[i].walletAddress != _walletAddress, \"Address is already used\") */\n      tag_108\n      jumpi\n      mload(0x40)\n      0x08c379a000000000000000000000000000000000000000000000000000000000\n      dup2\n      mstore\n      0x04\n      add\n      tag_109\n      swap1\n      tag_110\n      jump\t// in\n    tag_109:\n      mload(0x40)\n      dup1\n      swap2\n      sub\n      swap1\n      revert\n    tag_108:\n        /* \"lecture contracts/cryptokid.sol\":1127:1130  i++ */\n      dup1\n      dup1\n      0x01\n      add\n      swap2\n      pop\n      pop\n        /* \"lecture contracts/cryptokid.sol\":1098:1234  for(uint i; i < kids.length; i++) {... */\n      jump(tag_102)\n    tag_103:\n      pop\n        /* \"lecture contracts/cryptokid.sol\":1246:1267  bytes32 firstNameHash */\n      0x00\n        /* \"lecture contracts/cryptokid.sol\":1297:1307  _firstName */\n      dup4\n        /* \"lecture contracts/cryptokid.sol\":1280:1308  abi.encodePacked(_firstName) */\n      add(0x20, mload(0x40))\n      tag_111\n      swap2\n      swap1\n      tag_112\n      jump\t// in\n    tag_111:\n      mload(0x40)\n      0x20\n      dup2\n      dup4\n      sub\n      sub\n      dup2\n      mstore\n      swap1\n      0x40\n      mstore\n        /* \"lecture contracts/cryptokid.sol\":1270:1309  keccak256(abi.encodePacked(_firstName)) */\n      dup1\n      mload\n      swap1\n      0x20\n      add\n      keccak256\n        /* \"lecture contracts/cryptokid.sol\":1246:1309  bytes32 firstNameHash = keccak256(abi.encodePacked(_firstName)) */\n      swap1\n      pop\n        /* \"lecture contracts/cryptokid.sol\":1320:1340  bytes32 lastNameHash */\n      0x00\n        /* \"lecture contracts/cryptokid.sol\":1370:1379  _lastName */\n      dup4\n        /* \"lecture contracts/cryptokid.sol\":1353:1380  abi.encodePacked(_lastName) */\n      add(0x20, mload(0x40))\n      tag_113\n      swap2\n      swap1\n      tag_112\n      jump\t// in\n    tag_113:\n      mload(0x40)\n      0x20\n      dup2\n      dup4\n      sub\n      sub\n      dup2\n      mstore\n      swap1\n      0x40\n      mstore\n        /* \"lecture contracts/cryptokid.sol\":1343:1381  keccak256(abi.encodePacked(_lastName)) */\n      dup1\n      mload\n      swap1\n      0x20\n      add\n      keccak256\n        /* \"lecture contracts/cryptokid.sol\":1320:1381  bytes32 lastNameHash = keccak256(abi.encodePacked(_lastName)) */\n      swap1\n      pop\n        /* \"lecture contracts/cryptokid.sol\":1394:1417  bytes32 emptyStringHash */\n      0x00\n        /* \"lecture contracts/cryptokid.sol\":1430:1450  abi.encodePacked(\"\") */\n      add(0x20, mload(0x40))\n      tag_114\n      swap1\n      tag_115\n      jump\t// in\n    tag_114:\n      mload(0x40)\n      0x20\n      dup2\n      dup4\n      sub\n      sub\n      dup2\n      mstore\n      swap1\n      0x40\n      mstore\n        /* \"lecture contracts/cryptokid.sol\":1420:1451  keccak256(abi.encodePacked(\"\")) */\n      dup1\n      mload\n      swap1\n      0x20\n      add\n      keccak256\n        /* \"lecture contracts/cryptokid.sol\":1394:1451  bytes32 emptyStringHash = keccak256(abi.encodePacked(\"\")) */\n      swap1\n      pop\n        /* \"lecture contracts/cryptokid.sol\":1489:1504  emptyStringHash */\n      dup1\n        /* \"lecture contracts/cryptokid.sol\":1472:1485  firstNameHash */\n      dup4\n        /* \"lecture contracts/cryptokid.sol\":1472:1504  firstNameHash != emptyStringHash */\n      sub\n        /* \"lecture contracts/cryptokid.sol\":1464:1535  require(firstNameHash != emptyStringHash, \"First Name cannot be empty\") */\n      tag_116\n      jumpi\n      mload(0x40)\n      0x08c379a000000000000000000000000000000000000000000000000000000000\n      dup2\n      mstore\n      0x04\n      add\n      tag_117\n      swap1\n      tag_118\n      jump\t// in\n    tag_117:\n      mload(0x40)\n      dup1\n      swap2\n      sub\n      swap1\n      revert\n    tag_116:\n        /* \"lecture contracts/cryptokid.sol\":1570:1585  emptyStringHash */\n      dup1\n        /* \"lecture contracts/cryptokid.sol\":1554:1566  lastNameHash */\n      dup3\n        /* \"lecture contracts/cryptokid.sol\":1554:1585  lastNameHash != emptyStringHash */\n      sub\n        /* \"lecture contracts/cryptokid.sol\":1546:1615  require(lastNameHash != emptyStringHash, \"Last Name cannot be empty\") */\n      tag_119\n      jumpi\n      mload(0x40)\n      0x08c379a000000000000000000000000000000000000000000000000000000000\n      dup2\n      mstore\n      0x04\n      add\n      tag_120\n      swap1\n      tag_121\n      jump\t// in\n    tag_120:\n      mload(0x40)\n      dup1\n      swap2\n      sub\n      swap1\n      revert\n    tag_119:\n        /* \"lecture contracts/cryptokid.sol\":1628:1642  Kid memory kid */\n      tag_122\n      tag_123\n      jump\t// in\n    tag_122:\n        /* \"lecture contracts/cryptokid.sol\":1673:1687  _walletAddress */\n      dup8\n        /* \"lecture contracts/cryptokid.sol\":1653:1656  kid */\n      dup2\n        /* \"lecture contracts/cryptokid.sol\":1653:1670  kid.walletAddress */\n      0x00\n      add\n        /* \"lecture contracts/cryptokid.sol\":1653:1687  kid.walletAddress = _walletAddress */\n      swap1\n      0xffffffffffffffffffffffffffffffffffffffff\n      and\n      swap1\n      dup2\n      0xffffffffffffffffffffffffffffffffffffffff\n      and\n      dup2\n      mstore\n      pop\n      pop\n        /* \"lecture contracts/cryptokid.sol\":1714:1724  _firstName */\n      dup7\n        /* \"lecture contracts/cryptokid.sol\":1698:1701  kid */\n      dup2\n        /* \"lecture contracts/cryptokid.sol\":1698:1711  kid.firstName */\n      0x20\n      add\n        /* \"lecture contracts/cryptokid.sol\":1698:1724  kid.firstName = _firstName */\n      dup2\n      swap1\n      mstore\n      pop\n        /* \"lecture contracts/cryptokid.sol\":1750:1759  _lastName */\n      dup6\n        /* \"lecture contracts/cryptokid.sol\":1735:1738  kid */\n      dup2\n        /* \"lecture contracts/cryptokid.sol\":1735:1747  kid.lastName */\n      0x40\n      add\n        /* \"lecture contracts/cryptokid.sol\":1735:1759  kid.lastName = _lastName */\n      dup2\n      swap1\n      mstore\n      pop\n        /* \"lecture contracts/cryptokid.sol\":1807:1826  16 * (356 * 1 days) */\n      0x1d556000\n        /* \"lecture contracts/cryptokid.sol\":1788:1803  block.timestamp */\n      timestamp\n        /* \"lecture contracts/cryptokid.sol\":1788:1827  block.timestamp + (16 * (356 * 1 days)) */\n      tag_124\n      swap2\n      swap1\n      tag_125\n      jump\t// in\n    tag_124:\n        /* \"lecture contracts/cryptokid.sol\":1770:1773  kid */\n      dup2\n        /* \"lecture contracts/cryptokid.sol\":1770:1785  kid.releaseDate */\n      0x60\n      add\n        /* \"lecture contracts/cryptokid.sol\":1770:1827  kid.releaseDate = block.timestamp + (16 * (356 * 1 days)) */\n      dup2\n      dup2\n      mstore\n      pop\n      pop\n        /* \"lecture contracts/cryptokid.sol\":1861:1865  kids */\n      0x01\n        /* \"lecture contracts/cryptokid.sol\":1871:1874  kid */\n      dup2\n        /* \"lecture contracts/cryptokid.sol\":1861:1875  kids.push(kid) */\n      swap1\n      dup1\n      0x01\n      dup2\n      sload\n      add\n      dup1\n      dup3\n      sstore\n      dup1\n      swap2\n      pop\n      pop\n      0x01\n      swap1\n      sub\n      swap1\n      0x00\n      mstore\n      keccak256(0x00, 0x20)\n      swap1\n      0x06\n      mul\n      add\n      0x00\n      swap1\n      swap2\n      swap1\n      swap2\n      swap1\n      swap2\n      pop\n      0x00\n      dup3\n      add\n      mload\n      dup2\n      0x00\n      add\n      exp(0x0100, 0x00)\n      dup2\n      sload\n      dup2\n      0xffffffffffffffffffffffffffffffffffffffff\n      mul\n      not\n      and\n      swap1\n      dup4\n      0xffffffffffffffffffffffffffffffffffffffff\n      and\n      mul\n      or\n      swap1\n      sstore\n      pop\n      0x20\n      dup3\n      add\n      mload\n      dup2\n      0x01\n      add\n      swap1\n      dup2\n      tag_127\n      swap2\n      swap1\n      tag_128\n      jump\t// in\n    tag_127:\n      pop\n      0x40\n      dup3\n      add\n      mload\n      dup2\n      0x02\n      add\n      swap1\n      dup2\n      tag_129\n      swap2\n      swap1\n      tag_128\n      jump\t// in\n    tag_129:\n      pop\n      0x60\n      dup3\n      add\n      mload\n      dup2\n      0x03\n      add\n      sstore\n      0x80\n      dup3\n      add\n      mload\n      dup2\n      0x04\n      add\n      sstore\n      0xa0\n      dup3\n      add\n      mload\n      dup2\n      0x05\n      add\n      exp(0x0100, 0x00)\n      dup2\n      sload\n      dup2\n      0xff\n      mul\n      not\n      and\n      swap1\n      dup4\n      iszero\n      iszero\n      mul\n      or\n      swap1\n      sstore\n      pop\n      pop\n      pop\n        /* \"lecture contracts/cryptokid.sol\":1010:1883  {... */\n      pop\n      pop\n      pop\n      pop\n        /* \"lecture contracts/cryptokid.sol\":683:684  _ */\n      pop\n        /* \"lecture contracts/cryptokid.sol\":865:1883  function addKid(address payable _walletAddress, string memory _firstName, string memory _lastName) public onlyOwner validAddress(_walletAddress) {... */\n      pop\n      pop\n      pop\n      jump\t// out\n        /* \"lecture contracts/cryptokid.sol\":487:504  Kid[] public kids */\n    tag_24:\n      0x01\n      dup2\n      dup2\n      sload\n      dup2\n      lt\n      tag_130\n      jumpi\n      0x00\n      dup1\n      revert\n    tag_130:\n      swap1\n      0x00\n      mstore\n      keccak256(0x00, 0x20)\n      swap1\n      0x06\n      mul\n      add\n      0x00\n      swap2\n      pop\n      swap1\n      pop\n      dup1\n      0x00\n      add\n      0x00\n      swap1\n      sload\n      swap1\n      0x0100\n      exp\n      swap1\n      div\n      0xffffffffffffffffffffffffffffffffffffffff\n      and\n      swap1\n      dup1\n      0x01\n      add\n      dup1\n      sload\n      tag_132\n      swap1\n      tag_133\n      jump\t// in\n    tag_132:\n      dup1\n      0x1f\n      add\n      0x20\n      dup1\n      swap2\n      div\n      mul\n      0x20\n      add\n      mload(0x40)\n      swap1\n      dup2\n      add\n      0x40\n      mstore\n      dup1\n      swap3\n      swap2\n      swap1\n      dup2\n      dup2\n      mstore\n      0x20\n      add\n      dup3\n      dup1\n      sload\n      tag_134\n      swap1\n      tag_133\n      jump\t// in\n    tag_134:\n      dup1\n      iszero\n      tag_135\n      jumpi\n      dup1\n      0x1f\n      lt\n      tag_136\n      jumpi\n      0x0100\n      dup1\n      dup4\n      sload\n      div\n      mul\n      dup4\n      mstore\n      swap2\n      0x20\n      add\n      swap2\n      jump(tag_135)\n    tag_136:\n      dup3\n      add\n      swap2\n      swap1\n      0x00\n      mstore\n      keccak256(0x00, 0x20)\n      swap1\n    tag_137:\n      dup2\n      sload\n      dup2\n      mstore\n      swap1\n      0x01\n      add\n      swap1\n      0x20\n      add\n      dup1\n      dup4\n      gt\n      tag_137\n      jumpi\n      dup3\n      swap1\n      sub\n      0x1f\n      and\n      dup3\n      add\n      swap2\n    tag_135:\n      pop\n      pop\n      pop\n      pop\n      pop\n      swap1\n      dup1\n      0x02\n      add\n      dup1\n      sload\n      tag_138\n      swap1\n      tag_133\n      jump\t// in\n    tag_138:\n      dup1\n      0x1f\n      add\n      0x20\n      dup1\n      swap2\n      div\n      mul\n      0x20\n      add\n      mload(0x40)\n      swap1\n      dup2\n      add\n      0x40\n      mstore\n      dup1\n      swap3\n      swap2\n      swap1\n      dup2\n      dup2\n      mstore\n      0x20\n      add\n      dup3\n      dup1\n      sload\n      tag_139\n      swap1\n      tag_133\n      jump\t// in\n    tag_139:\n      dup1\n      iszero\n      tag_140\n      jumpi\n      dup1\n      0x1f\n      lt\n      tag_141\n      jumpi\n      0x0100\n      dup1\n      dup4\n      sload\n      div\n      mul\n      dup4\n      mstore\n      swap2\n      0x20\n      add\n      swap2\n      jump(tag_140)\n    tag_141:\n      dup3\n      add\n      swap2\n      swap1\n      0x00\n      mstore\n      keccak256(0x00, 0x20)\n      swap1\n    tag_142:\n      dup2\n      sload\n      dup2\n      mstore\n      swap1\n      0x01\n      add\n      swap1\n      0x20\n      add\n      dup1\n      dup4\n      gt\n      tag_142\n      jumpi\n      dup3\n      swap1\n      sub\n      0x1f\n      and\n      dup3\n      add\n      swap2\n    tag_140:\n      pop\n      pop\n      pop\n      pop\n      pop\n      swap1\n      dup1\n      0x03\n      add\n      sload\n      swap1\n      dup1\n      0x04\n      add\n      sload\n      swap1\n      dup1\n      0x05\n      add\n      0x00\n      swap1\n      sload\n      swap1\n      0x0100\n      exp\n      swap1\n      div\n      0xff\n      and\n      swap1\n      pop\n      dup7\n      jump\t// out\n        /* \"lecture contracts/cryptokid.sol\":88:108  address public owner */\n    tag_29:\n      0x00\n      dup1\n      sload\n      swap1\n      0x0100\n      exp\n      swap1\n      div\n      0xffffffffffffffffffffffffffffffffffffffff\n      and\n      dup2\n      jump\t// out\n        /* \"lecture contracts/cryptokid.sol\":2850:3126  function availableToWithdraw(address _walletAddress) view public returns (bool) {... */\n    tag_36:\n        /* \"lecture contracts/cryptokid.sol\":2924:2928  bool */\n      0x00\n        /* \"lecture contracts/cryptokid.sol\":2941:2947  uint i */\n      dup1\n        /* \"lecture contracts/cryptokid.sol\":2950:2974  getIndex(_walletAddress) */\n      tag_144\n        /* \"lecture contracts/cryptokid.sol\":2959:2973  _walletAddress */\n      dup4\n        /* \"lecture contracts/cryptokid.sol\":2950:2958  getIndex */\n      tag_42\n        /* \"lecture contracts/cryptokid.sol\":2950:2974  getIndex(_walletAddress) */\n      jump\t// in\n    tag_144:\n        /* \"lecture contracts/cryptokid.sol\":2941:2974  uint i = getIndex(_walletAddress) */\n      swap1\n      pop\n        /* \"lecture contracts/cryptokid.sol\":3006:3010  kids */\n      0x01\n        /* \"lecture contracts/cryptokid.sol\":3011:3012  i */\n      dup2\n        /* \"lecture contracts/cryptokid.sol\":3006:3013  kids[i] */\n      dup2\n      sload\n      dup2\n      lt\n      tag_145\n      jumpi\n      tag_146\n      tag_58\n      jump\t// in\n    tag_146:\n    tag_145:\n      swap1\n      0x00\n      mstore\n      keccak256(0x00, 0x20)\n      swap1\n      0x06\n      mul\n      add\n        /* \"lecture contracts/cryptokid.sol\":3006:3025  kids[i].releaseDate */\n      0x03\n      add\n      sload\n        /* \"lecture contracts/cryptokid.sol\":2988:3003  block.timestamp */\n      timestamp\n        /* \"lecture contracts/cryptokid.sol\":2988:3025  block.timestamp > kids[i].releaseDate */\n      gt\n        /* \"lecture contracts/cryptokid.sol\":2985:3119  if(block.timestamp > kids[i].releaseDate) {... */\n      iszero\n      tag_148\n      jumpi\n        /* \"lecture contracts/cryptokid.sol\":3049:3053  true */\n      0x01\n        /* \"lecture contracts/cryptokid.sol\":3042:3053  return true */\n      swap2\n      pop\n      pop\n      jump(tag_143)\n        /* \"lecture contracts/cryptokid.sol\":2985:3119  if(block.timestamp > kids[i].releaseDate) {... */\n    tag_148:\n        /* \"lecture contracts/cryptokid.sol\":3102:3107  false */\n      0x00\n        /* \"lecture contracts/cryptokid.sol\":3095:3107  return false */\n      swap2\n      pop\n      pop\n        /* \"lecture contracts/cryptokid.sol\":2850:3126  function availableToWithdraw(address _walletAddress) view public returns (bool) {... */\n    tag_143:\n      swap2\n      swap1\n      pop\n      jump\t// out\n        /* \"lecture contracts/cryptokid.sol\":1891:2147  function getIndex(address _walletAddress) public view returns (uint) {... */\n    tag_42:\n        /* \"lecture contracts/cryptokid.sol\":1954:1958  uint */\n      0x00\n        /* \"lecture contracts/cryptokid.sol\":1976:1982  uint i */\n      dup1\n        /* \"lecture contracts/cryptokid.sol\":1971:2119  for (uint i; i < kids.length; i++) {... */\n    tag_151:\n        /* \"lecture contracts/cryptokid.sol\":1988:1992  kids */\n      0x01\n        /* \"lecture contracts/cryptokid.sol\":1988:1999  kids.length */\n      dup1\n      sload\n      swap1\n      pop\n        /* \"lecture contracts/cryptokid.sol\":1984:1985  i */\n      dup2\n        /* \"lecture contracts/cryptokid.sol\":1984:1999  i < kids.length */\n      lt\n        /* \"lecture contracts/cryptokid.sol\":1971:2119  for (uint i; i < kids.length; i++) {... */\n      iszero\n      tag_152\n      jumpi\n        /* \"lecture contracts/cryptokid.sol\":2049:2063  _walletAddress */\n      dup3\n        /* \"lecture contracts/cryptokid.sol\":2024:2063  kids[i].walletAddress == _walletAddress */\n      0xffffffffffffffffffffffffffffffffffffffff\n      and\n        /* \"lecture contracts/cryptokid.sol\":2024:2028  kids */\n      0x01\n        /* \"lecture contracts/cryptokid.sol\":2029:2030  i */\n      dup3\n        /* \"lecture contracts/cryptokid.sol\":2024:2031  kids[i] */\n      dup2\n      sload\n      dup2\n      lt\n      tag_154\n      jumpi\n      tag_155\n      tag_58\n      jump\t// in\n    tag_155:\n    tag_154:\n      swap1\n      0x00\n      mstore\n      keccak256(0x00, 0x20)\n      swap1\n      0x06\n      mul\n      add\n        /* \"lecture contracts/cryptokid.sol\":2024:2045  kids[i].walletAddress */\n      0x00\n      add\n      0x00\n      swap1\n      sload\n      swap1\n      0x0100\n      exp\n      swap1\n      div\n      0xffffffffffffffffffffffffffffffffffffffff\n      and\n        /* \"lecture contracts/cryptokid.sol\":2024:2063  kids[i].walletAddress == _walletAddress */\n      0xffffffffffffffffffffffffffffffffffffffff\n      and\n      sub\n        /* \"lecture contracts/cryptokid.sol\":2021:2108  if(kids[i].walletAddress == _walletAddress) {... */\n      tag_157\n      jumpi\n        /* \"lecture contracts/cryptokid.sol\":2091:2092  i */\n      dup1\n        /* \"lecture contracts/cryptokid.sol\":2084:2092  return i */\n      swap2\n      pop\n      pop\n      jump(tag_150)\n        /* \"lecture contracts/cryptokid.sol\":2021:2108  if(kids[i].walletAddress == _walletAddress) {... */\n    tag_157:\n        /* \"lecture contracts/cryptokid.sol\":2001:2004  i++ */\n      dup1\n      dup1\n      0x01\n      add\n      swap2\n      pop\n      pop\n        /* \"lecture contracts/cryptokid.sol\":1971:2119  for (uint i; i < kids.length; i++) {... */\n      jump(tag_151)\n    tag_152:\n      pop\n        /* \"lecture contracts/cryptokid.sol\":2136:2139  409 */\n      0x0199\n        /* \"lecture contracts/cryptokid.sol\":2129:2139  return 409 */\n      swap1\n      pop\n        /* \"lecture contracts/cryptokid.sol\":1891:2147  function getIndex(address _walletAddress) public view returns (uint) {... */\n    tag_150:\n      swap2\n      swap1\n      pop\n      jump\t// out\n        /* \"lecture contracts/cryptokid.sol\":2619:2842  function balance() public view returns(uint) {... */\n    tag_47:\n        /* \"lecture contracts/cryptokid.sol\":2658:2662  uint */\n      0x00\n        /* \"lecture contracts/cryptokid.sol\":2675:2681  uint i */\n      dup1\n        /* \"lecture contracts/cryptokid.sol\":2684:2704  getIndex(msg.sender) */\n      tag_159\n        /* \"lecture contracts/cryptokid.sol\":2693:2703  msg.sender */\n      caller\n        /* \"lecture contracts/cryptokid.sol\":2684:2692  getIndex */\n      tag_42\n        /* \"lecture contracts/cryptokid.sol\":2684:2704  getIndex(msg.sender) */\n      jump\t// in\n    tag_159:\n        /* \"lecture contracts/cryptokid.sol\":2675:2704  uint i = getIndex(msg.sender) */\n      swap1\n      pop\n        /* \"lecture contracts/cryptokid.sol\":2732:2736  kids */\n      0x01\n        /* \"lecture contracts/cryptokid.sol\":2737:2738  i */\n      dup2\n        /* \"lecture contracts/cryptokid.sol\":2732:2739  kids[i] */\n      dup2\n      sload\n      dup2\n      lt\n      tag_160\n      jumpi\n      tag_161\n      tag_58\n      jump\t// in\n    tag_161:\n    tag_160:\n      swap1\n      0x00\n      mstore\n      keccak256(0x00, 0x20)\n      swap1\n      0x06\n      mul\n      add\n        /* \"lecture contracts/cryptokid.sol\":2732:2753  kids[i].walletAddress */\n      0x00\n      add\n      0x00\n      swap1\n      sload\n      swap1\n      0x0100\n      exp\n      swap1\n      div\n      0xffffffffffffffffffffffffffffffffffffffff\n      and\n        /* \"lecture contracts/cryptokid.sol\":2718:2753  msg.sender != kids[i].walletAddress */\n      0xffffffffffffffffffffffffffffffffffffffff\n      and\n        /* \"lecture contracts/cryptokid.sol\":2718:2728  msg.sender */\n      caller\n        /* \"lecture contracts/cryptokid.sol\":2718:2753  msg.sender != kids[i].walletAddress */\n      0xffffffffffffffffffffffffffffffffffffffff\n      and\n      eq\n        /* \"lecture contracts/cryptokid.sol\":2715:2803  if(msg.sender != kids[i].walletAddress) {... */\n      tag_163\n      jumpi\n        /* \"lecture contracts/cryptokid.sol\":2777:2791  ValidAddress() */\n      mload(0x40)\n      0x6623c80d00000000000000000000000000000000000000000000000000000000\n      dup2\n      mstore\n      0x04\n      add\n      mload(0x40)\n      dup1\n      swap2\n      sub\n      swap1\n      revert\n        /* \"lecture contracts/cryptokid.sol\":2715:2803  if(msg.sender != kids[i].walletAddress) {... */\n    tag_163:\n        /* \"lecture contracts/cryptokid.sol\":2820:2824  kids */\n      0x01\n        /* \"lecture contracts/cryptokid.sol\":2825:2826  i */\n      dup2\n        /* \"lecture contracts/cryptokid.sol\":2820:2827  kids[i] */\n      dup2\n      sload\n      dup2\n      lt\n      tag_164\n      jumpi\n      tag_165\n      tag_58\n      jump\t// in\n    tag_165:\n    tag_164:\n      swap1\n      0x00\n      mstore\n      keccak256(0x00, 0x20)\n      swap1\n      0x06\n      mul\n      add\n        /* \"lecture contracts/cryptokid.sol\":2820:2834  kids[i].amount */\n      0x04\n      add\n      sload\n        /* \"lecture contracts/cryptokid.sol\":2813:2834  return kids[i].amount */\n      swap2\n      pop\n      pop\n        /* \"lecture contracts/cryptokid.sol\":2619:2842  function balance() public view returns(uint) {... */\n      swap1\n      jump\t// out\n        /* \"lecture contracts/cryptokid.sol\":2155:2611  function deposit(address _walletAddress) payable public validAddress(_walletAddress) {... */\n    tag_51:\n        /* \"lecture contracts/cryptokid.sol\":2224:2238  _walletAddress */\n      dup1\n        /* \"lecture contracts/cryptokid.sol\":786:787  0 */\n      0x00\n        /* \"lecture contracts/cryptokid.sol\":760:788  _walletAddress == address(0) */\n      0xffffffffffffffffffffffffffffffffffffffff\n      and\n        /* \"lecture contracts/cryptokid.sol\":760:774  _walletAddress */\n      dup2\n        /* \"lecture contracts/cryptokid.sol\":760:788  _walletAddress == address(0) */\n      0xffffffffffffffffffffffffffffffffffffffff\n      and\n      sub\n        /* \"lecture contracts/cryptokid.sol\":757:838  if(_walletAddress == address(0)) {... */\n      tag_168\n      jumpi\n        /* \"lecture contracts/cryptokid.sol\":812:826  ValidAddress() */\n      mload(0x40)\n      0x6623c80d00000000000000000000000000000000000000000000000000000000\n      dup2\n      mstore\n      0x04\n      add\n      mload(0x40)\n      dup1\n      swap2\n      sub\n      swap1\n      revert\n        /* \"lecture contracts/cryptokid.sol\":757:838  if(_walletAddress == address(0)) {... */\n    tag_168:\n        /* \"lecture contracts/cryptokid.sol\":2277:2282  owner */\n      0x00\n      dup1\n      sload\n      swap1\n      0x0100\n      exp\n      swap1\n      div\n      0xffffffffffffffffffffffffffffffffffffffff\n      and\n        /* \"lecture contracts/cryptokid.sol\":2259:2282  _walletAddress != owner */\n      0xffffffffffffffffffffffffffffffffffffffff\n      and\n        /* \"lecture contracts/cryptokid.sol\":2259:2273  _walletAddress */\n      dup3\n        /* \"lecture contracts/cryptokid.sol\":2259:2282  _walletAddress != owner */\n      0xffffffffffffffffffffffffffffffffffffffff\n      and\n      sub\n        /* \"lecture contracts/cryptokid.sol\":2251:2310  require(_walletAddress != owner, \"Owner cannot be a child\") */\n      tag_170\n      jumpi\n      mload(0x40)\n      0x08c379a000000000000000000000000000000000000000000000000000000000\n      dup2\n      mstore\n      0x04\n      add\n      tag_171\n      swap1\n      tag_172\n      jump\t// in\n    tag_171:\n      mload(0x40)\n      dup1\n      swap2\n      sub\n      swap1\n      revert\n    tag_170:\n        /* \"lecture contracts/cryptokid.sol\":2341:2342  0 */\n      0x00\n        /* \"lecture contracts/cryptokid.sol\":2329:2338  msg.value */\n      callvalue\n        /* \"lecture contracts/cryptokid.sol\":2329:2342  msg.value > 0 */\n      gt\n        /* \"lecture contracts/cryptokid.sol\":2321:2367  require(msg.value > 0, \"Insufficient balance\") */\n      tag_173\n      jumpi\n      mload(0x40)\n      0x08c379a000000000000000000000000000000000000000000000000000000000\n      dup2\n      mstore\n      0x04\n      add\n      tag_174\n      swap1\n      tag_62\n      jump\t// in\n    tag_174:\n      mload(0x40)\n      dup1\n      swap2\n      sub\n      swap1\n      revert\n    tag_173:\n        /* \"lecture contracts/cryptokid.sol\":2378:2384  uint i */\n      0x00\n        /* \"lecture contracts/cryptokid.sol\":2387:2411  getIndex(_walletAddress) */\n      tag_175\n        /* \"lecture contracts/cryptokid.sol\":2396:2410  _walletAddress */\n      dup4\n        /* \"lecture contracts/cryptokid.sol\":2387:2395  getIndex */\n      tag_42\n        /* \"lecture contracts/cryptokid.sol\":2387:2411  getIndex(_walletAddress) */\n      jump\t// in\n    tag_175:\n        /* \"lecture contracts/cryptokid.sol\":2378:2411  uint i = getIndex(_walletAddress) */\n      swap1\n      pop\n        /* \"lecture contracts/cryptokid.sol\":2455:2469  _walletAddress */\n      dup3\n        /* \"lecture contracts/cryptokid.sol\":2430:2469  kids[i].walletAddress == _walletAddress */\n      0xffffffffffffffffffffffffffffffffffffffff\n      and\n        /* \"lecture contracts/cryptokid.sol\":2430:2434  kids */\n      0x01\n        /* \"lecture contracts/cryptokid.sol\":2435:2436  i */\n      dup3\n        /* \"lecture contracts/cryptokid.sol\":2430:2437  kids[i] */\n      dup2\n      sload\n      dup2\n      lt\n      tag_176\n      jumpi\n      tag_177\n      tag_58\n      jump\t// in\n    tag_177:\n    tag_176:\n      swap1\n      0x00\n      mstore\n      keccak256(0x00, 0x20)\n      swap1\n      0x06\n      mul\n      add\n        /* \"lecture contracts/cryptokid.sol\":2430:2451  kids[i].walletAddress */\n      0x00\n      add\n      0x00\n      swap1\n      sload\n      swap1\n      0x0100\n      exp\n      swap1\n      div\n      0xffffffffffffffffffffffffffffffffffffffff\n      and\n        /* \"lecture contracts/cryptokid.sol\":2430:2469  kids[i].walletAddress == _walletAddress */\n      0xffffffffffffffffffffffffffffffffffffffff\n      and\n      eq\n        /* \"lecture contracts/cryptokid.sol\":2422:2502  require(kids[i].walletAddress == _walletAddress, \"Address is not in kids array\") */\n      tag_179\n      jumpi\n      mload(0x40)\n      0x08c379a000000000000000000000000000000000000000000000000000000000\n      dup2\n      mstore\n      0x04\n      add\n      tag_180\n      swap1\n      tag_181\n      jump\t// in\n    tag_180:\n      mload(0x40)\n      dup1\n      swap2\n      sub\n      swap1\n      revert\n    tag_179:\n        /* \"lecture contracts/cryptokid.sol\":2531:2540  msg.value */\n      callvalue\n        /* \"lecture contracts/cryptokid.sol\":2513:2517  kids */\n      0x01\n        /* \"lecture contracts/cryptokid.sol\":2518:2519  i */\n      dup3\n        /* \"lecture contracts/cryptokid.sol\":2513:2520  kids[i] */\n      dup2\n      sload\n      dup2\n      lt\n      tag_182\n      jumpi\n      tag_183\n      tag_58\n      jump\t// in\n    tag_183:\n    tag_182:\n      swap1\n      0x00\n      mstore\n      keccak256(0x00, 0x20)\n      swap1\n      0x06\n      mul\n      add\n        /* \"lecture contracts/cryptokid.sol\":2513:2527  kids[i].amount */\n      0x04\n      add\n      0x00\n        /* \"lecture contracts/cryptokid.sol\":2513:2540  kids[i].amount += msg.value */\n      dup3\n      dup3\n      sload\n      tag_185\n      swap2\n      swap1\n      tag_125\n      jump\t// in\n    tag_185:\n      swap3\n      pop\n      pop\n      dup2\n      swap1\n      sstore\n      pop\n        /* \"lecture contracts/cryptokid.sol\":2556:2603  Deposit(msg.sender, msg.value, block.timestamp) */\n      0x90890809c654f11d6e72a28fa60149770a0d11ec6c92319d6ceb2bb0a4ea1a15\n        /* \"lecture contracts/cryptokid.sol\":2564:2574  msg.sender */\n      caller\n        /* \"lecture contracts/cryptokid.sol\":2576:2585  msg.value */\n      callvalue\n        /* \"lecture contracts/cryptokid.sol\":2587:2602  block.timestamp */\n      timestamp\n        /* \"lecture contracts/cryptokid.sol\":2556:2603  Deposit(msg.sender, msg.value, block.timestamp) */\n      mload(0x40)\n      tag_186\n      swap4\n      swap3\n      swap2\n      swap1\n      tag_187\n      jump\t// in\n    tag_186:\n      mload(0x40)\n      dup1\n      swap2\n      sub\n      swap1\n      log1\n        /* \"lecture contracts/cryptokid.sol\":2240:2611  {... */\n      pop\n        /* \"lecture contracts/cryptokid.sol\":2155:2611  function deposit(address _walletAddress) payable public validAddress(_walletAddress) {... */\n      pop\n      pop\n      jump\t// out\n    tag_123:\n      mload(0x40)\n      dup1\n      0xc0\n      add\n      0x40\n      mstore\n      dup1\n      and(0xffffffffffffffffffffffffffffffffffffffff, 0x00)\n      dup2\n      mstore\n      0x20\n      add\n      0x60\n      dup2\n      mstore\n      0x20\n      add\n      0x60\n      dup2\n      mstore\n      0x20\n      add\n      0x00\n      dup2\n      mstore\n      0x20\n      add\n      0x00\n      dup2\n      mstore\n      0x20\n      add\n      iszero(iszero(0x00))\n      dup2\n      mstore\n      pop\n      swap1\n      jump\t// out\n        /* \"#utility.yul\":7:82   */\n    tag_188:\n        /* \"#utility.yul\":40:46   */\n      0x00\n        /* \"#utility.yul\":73:75   */\n      0x40\n        /* \"#utility.yul\":67:76   */\n      mload\n        /* \"#utility.yul\":57:76   */\n      swap1\n      pop\n        /* \"#utility.yul\":7:82   */\n      swap1\n      jump\t// out\n        /* \"#utility.yul\":88:205   */\n    tag_189:\n        /* \"#utility.yul\":197:198   */\n      0x00\n        /* \"#utility.yul\":194:195   */\n      dup1\n        /* \"#utility.yul\":187:199   */\n      revert\n        /* \"#utility.yul\":211:328   */\n    tag_190:\n        /* \"#utility.yul\":320:321   */\n      0x00\n        /* \"#utility.yul\":317:318   */\n      dup1\n        /* \"#utility.yul\":310:322   */\n      revert\n        /* \"#utility.yul\":334:460   */\n    tag_191:\n        /* \"#utility.yul\":371:378   */\n      0x00\n        /* \"#utility.yul\":411:453   */\n      0xffffffffffffffffffffffffffffffffffffffff\n        /* \"#utility.yul\":404:409   */\n      dup3\n        /* \"#utility.yul\":400:454   */\n      and\n        /* \"#utility.yul\":389:454   */\n      swap1\n      pop\n        /* \"#utility.yul\":334:460   */\n      swap2\n      swap1\n      pop\n      jump\t// out\n        /* \"#utility.yul\":466:570   */\n    tag_192:\n        /* \"#utility.yul\":511:518   */\n      0x00\n        /* \"#utility.yul\":540:564   */\n      tag_271\n        /* \"#utility.yul\":558:563   */\n      dup3\n        /* \"#utility.yul\":540:564   */\n      tag_191\n      jump\t// in\n    tag_271:\n        /* \"#utility.yul\":529:564   */\n      swap1\n      pop\n        /* \"#utility.yul\":466:570   */\n      swap2\n      swap1\n      pop\n      jump\t// out\n        /* \"#utility.yul\":576:714   */\n    tag_193:\n        /* \"#utility.yul\":657:689   */\n      tag_273\n        /* \"#utility.yul\":683:688   */\n      dup2\n        /* \"#utility.yul\":657:689   */\n      tag_192\n      jump\t// in\n    tag_273:\n        /* \"#utility.yul\":650:655   */\n      dup2\n        /* \"#utility.yul\":647:690   */\n      eq\n        /* \"#utility.yul\":637:708   */\n      tag_274\n      jumpi\n        /* \"#utility.yul\":704:705   */\n      0x00\n        /* \"#utility.yul\":701:702   */\n      dup1\n        /* \"#utility.yul\":694:706   */\n      revert\n        /* \"#utility.yul\":637:708   */\n    tag_274:\n        /* \"#utility.yul\":576:714   */\n      pop\n      jump\t// out\n        /* \"#utility.yul\":720:875   */\n    tag_194:\n        /* \"#utility.yul\":774:779   */\n      0x00\n        /* \"#utility.yul\":812:818   */\n      dup2\n        /* \"#utility.yul\":799:819   */\n      calldataload\n        /* \"#utility.yul\":790:819   */\n      swap1\n      pop\n        /* \"#utility.yul\":828:869   */\n      tag_276\n        /* \"#utility.yul\":863:868   */\n      dup2\n        /* \"#utility.yul\":828:869   */\n      tag_193\n      jump\t// in\n    tag_276:\n        /* \"#utility.yul\":720:875   */\n      swap3\n      swap2\n      pop\n      pop\n      jump\t// out\n        /* \"#utility.yul\":881:1226   */\n    tag_13:\n        /* \"#utility.yul\":948:954   */\n      0x00\n        /* \"#utility.yul\":997:999   */\n      0x20\n        /* \"#utility.yul\":985:994   */\n      dup3\n        /* \"#utility.yul\":976:983   */\n      dup5\n        /* \"#utility.yul\":972:995   */\n      sub\n        /* \"#utility.yul\":968:1000   */\n      slt\n        /* \"#utility.yul\":965:1084   */\n      iszero\n      tag_278\n      jumpi\n        /* \"#utility.yul\":1003:1082   */\n      tag_279\n      tag_189\n      jump\t// in\n    tag_279:\n        /* \"#utility.yul\":965:1084   */\n    tag_278:\n        /* \"#utility.yul\":1123:1124   */\n      0x00\n        /* \"#utility.yul\":1148:1209   */\n      tag_280\n        /* \"#utility.yul\":1201:1208   */\n      dup5\n        /* \"#utility.yul\":1192:1198   */\n      dup3\n        /* \"#utility.yul\":1181:1190   */\n      dup6\n        /* \"#utility.yul\":1177:1199   */\n      add\n        /* \"#utility.yul\":1148:1209   */\n      tag_194\n      jump\t// in\n    tag_280:\n        /* \"#utility.yul\":1138:1209   */\n      swap2\n      pop\n        /* \"#utility.yul\":1094:1219   */\n      pop\n        /* \"#utility.yul\":881:1226   */\n      swap3\n      swap2\n      pop\n      pop\n      jump\t// out\n        /* \"#utility.yul\":1232:1349   */\n    tag_195:\n        /* \"#utility.yul\":1341:1342   */\n      0x00\n        /* \"#utility.yul\":1338:1339   */\n      dup1\n        /* \"#utility.yul\":1331:1343   */\n      revert\n        /* \"#utility.yul\":1355:1472   */\n    tag_196:\n        /* \"#utility.yul\":1464:1465   */\n      0x00\n        /* \"#utility.yul\":1461:1462   */\n      dup1\n        /* \"#utility.yul\":1454:1466   */\n      revert\n        /* \"#utility.yul\":1478:1580   */\n    tag_197:\n        /* \"#utility.yul\":1519:1525   */\n      0x00\n        /* \"#utility.yul\":1570:1572   */\n      0x1f\n        /* \"#utility.yul\":1566:1573   */\n      not\n        /* \"#utility.yul\":1561:1563   */\n      0x1f\n        /* \"#utility.yul\":1554:1559   */\n      dup4\n        /* \"#utility.yul\":1550:1564   */\n      add\n        /* \"#utility.yul\":1546:1574   */\n      and\n        /* \"#utility.yul\":1536:1574   */\n      swap1\n      pop\n        /* \"#utility.yul\":1478:1580   */\n      swap2\n      swap1\n      pop\n      jump\t// out\n        /* \"#utility.yul\":1586:1766   */\n    tag_198:\n        /* \"#utility.yul\":1634:1711   */\n      0x4e487b7100000000000000000000000000000000000000000000000000000000\n        /* \"#utility.yul\":1631:1632   */\n      0x00\n        /* \"#utility.yul\":1624:1712   */\n      mstore\n        /* \"#utility.yul\":1731:1735   */\n      0x41\n        /* \"#utility.yul\":1728:1729   */\n      0x04\n        /* \"#utility.yul\":1721:1736   */\n      mstore\n        /* \"#utility.yul\":1755:1759   */\n      0x24\n        /* \"#utility.yul\":1752:1753   */\n      0x00\n        /* \"#utility.yul\":1745:1760   */\n      revert\n        /* \"#utility.yul\":1772:2053   */\n    tag_199:\n        /* \"#utility.yul\":1855:1882   */\n      tag_286\n        /* \"#utility.yul\":1877:1881   */\n      dup3\n        /* \"#utility.yul\":1855:1882   */\n      tag_197\n      jump\t// in\n    tag_286:\n        /* \"#utility.yul\":1847:1853   */\n      dup2\n        /* \"#utility.yul\":1843:1883   */\n      add\n        /* \"#utility.yul\":1985:1991   */\n      dup2\n        /* \"#utility.yul\":1973:1983   */\n      dup2\n        /* \"#utility.yul\":1970:1992   */\n      lt\n        /* \"#utility.yul\":1949:1967   */\n      0xffffffffffffffff\n        /* \"#utility.yul\":1937:1947   */\n      dup3\n        /* \"#utility.yul\":1934:1968   */\n      gt\n        /* \"#utility.yul\":1931:1993   */\n      or\n        /* \"#utility.yul\":1928:2016   */\n      iszero\n      tag_287\n      jumpi\n        /* \"#utility.yul\":1996:2014   */\n      tag_288\n      tag_198\n      jump\t// in\n    tag_288:\n        /* \"#utility.yul\":1928:2016   */\n    tag_287:\n        /* \"#utility.yul\":2036:2046   */\n      dup1\n        /* \"#utility.yul\":2032:2034   */\n      0x40\n        /* \"#utility.yul\":2025:2047   */\n      mstore\n        /* \"#utility.yul\":1815:2053   */\n      pop\n        /* \"#utility.yul\":1772:2053   */\n      pop\n      pop\n      jump\t// out\n        /* \"#utility.yul\":2059:2188   */\n    tag_200:\n        /* \"#utility.yul\":2093:2099   */\n      0x00\n        /* \"#utility.yul\":2120:2140   */\n      tag_290\n      tag_188\n      jump\t// in\n    tag_290:\n        /* \"#utility.yul\":2110:2140   */\n      swap1\n      pop\n        /* \"#utility.yul\":2149:2182   */\n      tag_291\n        /* \"#utility.yul\":2177:2181   */\n      dup3\n        /* \"#utility.yul\":2169:2175   */\n      dup3\n        /* \"#utility.yul\":2149:2182   */\n      tag_199\n      jump\t// in\n    tag_291:\n        /* \"#utility.yul\":2059:2188   */\n      swap2\n      swap1\n      pop\n      jump\t// out\n        /* \"#utility.yul\":2194:2502   */\n    tag_201:\n        /* \"#utility.yul\":2256:2260   */\n      0x00\n        /* \"#utility.yul\":2346:2364   */\n      0xffffffffffffffff\n        /* \"#utility.yul\":2338:2344   */\n      dup3\n        /* \"#utility.yul\":2335:2365   */\n      gt\n        /* \"#utility.yul\":2332:2388   */\n      iszero\n      tag_293\n      jumpi\n        /* \"#utility.yul\":2368:2386   */\n      tag_294\n      tag_198\n      jump\t// in\n    tag_294:\n        /* \"#utility.yul\":2332:2388   */\n    tag_293:\n        /* \"#utility.yul\":2406:2435   */\n      tag_295\n        /* \"#utility.yul\":2428:2434   */\n      dup3\n        /* \"#utility.yul\":2406:2435   */\n      tag_197\n      jump\t// in\n    tag_295:\n        /* \"#utility.yul\":2398:2435   */\n      swap1\n      pop\n        /* \"#utility.yul\":2490:2494   */\n      0x20\n        /* \"#utility.yul\":2484:2488   */\n      dup2\n        /* \"#utility.yul\":2480:2495   */\n      add\n        /* \"#utility.yul\":2472:2495   */\n      swap1\n      pop\n        /* \"#utility.yul\":2194:2502   */\n      swap2\n      swap1\n      pop\n      jump\t// out\n        /* \"#utility.yul\":2508:2656   */\n    tag_202:\n        /* \"#utility.yul\":2606:2612   */\n      dup3\n        /* \"#utility.yul\":2601:2604   */\n      dup2\n        /* \"#utility.yul\":2596:2599   */\n      dup4\n        /* \"#utility.yul\":2583:2613   */\n      calldatacopy\n        /* \"#utility.yul\":2647:2648   */\n      0x00\n        /* \"#utility.yul\":2638:2644   */\n      dup4\n        /* \"#utility.yul\":2633:2636   */\n      dup4\n        /* \"#utility.yul\":2629:2645   */\n      add\n        /* \"#utility.yul\":2622:2649   */\n      mstore\n        /* \"#utility.yul\":2508:2656   */\n      pop\n      pop\n      pop\n      jump\t// out\n        /* \"#utility.yul\":2662:3087   */\n    tag_203:\n        /* \"#utility.yul\":2740:2745   */\n      0x00\n        /* \"#utility.yul\":2765:2831   */\n      tag_298\n        /* \"#utility.yul\":2781:2830   */\n      tag_299\n        /* \"#utility.yul\":2823:2829   */\n      dup5\n        /* \"#utility.yul\":2781:2830   */\n      tag_201\n      jump\t// in\n    tag_299:\n        /* \"#utility.yul\":2765:2831   */\n      tag_200\n      jump\t// in\n    tag_298:\n        /* \"#utility.yul\":2756:2831   */\n      swap1\n      pop\n        /* \"#utility.yul\":2854:2860   */\n      dup3\n        /* \"#utility.yul\":2847:2852   */\n      dup2\n        /* \"#utility.yul\":2840:2861   */\n      mstore\n        /* \"#utility.yul\":2892:2896   */\n      0x20\n        /* \"#utility.yul\":2885:2890   */\n      dup2\n        /* \"#utility.yul\":2881:2897   */\n      add\n        /* \"#utility.yul\":2930:2933   */\n      dup5\n        /* \"#utility.yul\":2921:2927   */\n      dup5\n        /* \"#utility.yul\":2916:2919   */\n      dup5\n        /* \"#utility.yul\":2912:2928   */\n      add\n        /* \"#utility.yul\":2909:2934   */\n      gt\n        /* \"#utility.yul\":2906:3018   */\n      iszero\n      tag_300\n      jumpi\n        /* \"#utility.yul\":2937:3016   */\n      tag_301\n      tag_196\n      jump\t// in\n    tag_301:\n        /* \"#utility.yul\":2906:3018   */\n    tag_300:\n        /* \"#utility.yul\":3027:3081   */\n      tag_302\n        /* \"#utility.yul\":3074:3080   */\n      dup5\n        /* \"#utility.yul\":3069:3072   */\n      dup3\n        /* \"#utility.yul\":3064:3067   */\n      dup6\n        /* \"#utility.yul\":3027:3081   */\n      tag_202\n      jump\t// in\n    tag_302:\n        /* \"#utility.yul\":2746:3087   */\n      pop\n        /* \"#utility.yul\":2662:3087   */\n      swap4\n      swap3\n      pop\n      pop\n      pop\n      jump\t// out\n        /* \"#utility.yul\":3107:3447   */\n    tag_204:\n        /* \"#utility.yul\":3163:3168   */\n      0x00\n        /* \"#utility.yul\":3212:3215   */\n      dup3\n        /* \"#utility.yul\":3205:3209   */\n      0x1f\n        /* \"#utility.yul\":3197:3203   */\n      dup4\n        /* \"#utility.yul\":3193:3210   */\n      add\n        /* \"#utility.yul\":3189:3216   */\n      slt\n        /* \"#utility.yul\":3179:3301   */\n      tag_304\n      jumpi\n        /* \"#utility.yul\":3220:3299   */\n      tag_305\n      tag_195\n      jump\t// in\n    tag_305:\n        /* \"#utility.yul\":3179:3301   */\n    tag_304:\n        /* \"#utility.yul\":3337:3343   */\n      dup2\n        /* \"#utility.yul\":3324:3344   */\n      calldataload\n        /* \"#utility.yul\":3362:3441   */\n      tag_306\n        /* \"#utility.yul\":3437:3440   */\n      dup5\n        /* \"#utility.yul\":3429:3435   */\n      dup3\n        /* \"#utility.yul\":3422:3426   */\n      0x20\n        /* \"#utility.yul\":3414:3420   */\n      dup7\n        /* \"#utility.yul\":3410:3427   */\n      add\n        /* \"#utility.yul\":3362:3441   */\n      tag_203\n      jump\t// in\n    tag_306:\n        /* \"#utility.yul\":3353:3441   */\n      swap2\n      pop\n        /* \"#utility.yul\":3169:3447   */\n      pop\n        /* \"#utility.yul\":3107:3447   */\n      swap3\n      swap2\n      pop\n      pop\n      jump\t// out\n        /* \"#utility.yul\":3453:4448   */\n    tag_18:\n        /* \"#utility.yul\":3558:3564   */\n      0x00\n        /* \"#utility.yul\":3566:3572   */\n      dup1\n        /* \"#utility.yul\":3574:3580   */\n      0x00\n        /* \"#utility.yul\":3623:3625   */\n      0x60\n        /* \"#utility.yul\":3611:3620   */\n      dup5\n        /* \"#utility.yul\":3602:3609   */\n      dup7\n        /* \"#utility.yul\":3598:3621   */\n      sub\n        /* \"#utility.yul\":3594:3626   */\n      slt\n        /* \"#utility.yul\":3591:3710   */\n      iszero\n      tag_308\n      jumpi\n        /* \"#utility.yul\":3629:3708   */\n      tag_309\n      tag_189\n      jump\t// in\n    tag_309:\n        /* \"#utility.yul\":3591:3710   */\n    tag_308:\n        /* \"#utility.yul\":3749:3750   */\n      0x00\n        /* \"#utility.yul\":3774:3835   */\n      tag_310\n        /* \"#utility.yul\":3827:3834   */\n      dup7\n        /* \"#utility.yul\":3818:3824   */\n      dup3\n        /* \"#utility.yul\":3807:3816   */\n      dup8\n        /* \"#utility.yul\":3803:3825   */\n      add\n        /* \"#utility.yul\":3774:3835   */\n      tag_194\n      jump\t// in\n    tag_310:\n        /* \"#utility.yul\":3764:3835   */\n      swap4\n      pop\n        /* \"#utility.yul\":3720:3845   */\n      pop\n        /* \"#utility.yul\":3912:3914   */\n      0x20\n        /* \"#utility.yul\":3901:3910   */\n      dup5\n        /* \"#utility.yul\":3897:3915   */\n      add\n        /* \"#utility.yul\":3884:3916   */\n      calldataload\n        /* \"#utility.yul\":3943:3961   */\n      0xffffffffffffffff\n        /* \"#utility.yul\":3935:3941   */\n      dup2\n        /* \"#utility.yul\":3932:3962   */\n      gt\n        /* \"#utility.yul\":3929:4046   */\n      iszero\n      tag_311\n      jumpi\n        /* \"#utility.yul\":3965:4044   */\n      tag_312\n      tag_190\n      jump\t// in\n    tag_312:\n        /* \"#utility.yul\":3929:4046   */\n    tag_311:\n        /* \"#utility.yul\":4070:4133   */\n      tag_313\n        /* \"#utility.yul\":4125:4132   */\n      dup7\n        /* \"#utility.yul\":4116:4122   */\n      dup3\n        /* \"#utility.yul\":4105:4114   */\n      dup8\n        /* \"#utility.yul\":4101:4123   */\n      add\n        /* \"#utility.yul\":4070:4133   */\n      tag_204\n      jump\t// in\n    tag_313:\n        /* \"#utility.yul\":4060:4133   */\n      swap3\n      pop\n        /* \"#utility.yul\":3855:4143   */\n      pop\n        /* \"#utility.yul\":4210:4212   */\n      0x40\n        /* \"#utility.yul\":4199:4208   */\n      dup5\n        /* \"#utility.yul\":4195:4213   */\n      add\n        /* \"#utility.yul\":4182:4214   */\n      calldataload\n        /* \"#utility.yul\":4241:4259   */\n      0xffffffffffffffff\n        /* \"#utility.yul\":4233:4239   */\n      dup2\n        /* \"#utility.yul\":4230:4260   */\n      gt\n        /* \"#utility.yul\":4227:4344   */\n      iszero\n      tag_314\n      jumpi\n        /* \"#utility.yul\":4263:4342   */\n      tag_315\n      tag_190\n      jump\t// in\n    tag_315:\n        /* \"#utility.yul\":4227:4344   */\n    tag_314:\n        /* \"#utility.yul\":4368:4431   */\n      tag_316\n        /* \"#utility.yul\":4423:4430   */\n      dup7\n        /* \"#utility.yul\":4414:4420   */\n      dup3\n        /* \"#utility.yul\":4403:4412   */\n      dup8\n        /* \"#utility.yul\":4399:4421   */\n      add\n        /* \"#utility.yul\":4368:4431   */\n      tag_204\n      jump\t// in\n    tag_316:\n        /* \"#utility.yul\":4358:4431   */\n      swap2\n      pop\n        /* \"#utility.yul\":4153:4441   */\n      pop\n        /* \"#utility.yul\":3453:4448   */\n      swap3\n      pop\n      swap3\n      pop\n      swap3\n      jump\t// out\n        /* \"#utility.yul\":4454:4531   */\n    tag_205:\n        /* \"#utility.yul\":4491:4498   */\n      0x00\n        /* \"#utility.yul\":4520:4525   */\n      dup2\n        /* \"#utility.yul\":4509:4525   */\n      swap1\n      pop\n        /* \"#utility.yul\":4454:4531   */\n      swap2\n      swap1\n      pop\n      jump\t// out\n        /* \"#utility.yul\":4537:4659   */\n    tag_206:\n        /* \"#utility.yul\":4610:4634   */\n      tag_319\n        /* \"#utility.yul\":4628:4633   */\n      dup2\n        /* \"#utility.yul\":4610:4634   */\n      tag_205\n      jump\t// in\n    tag_319:\n        /* \"#utility.yul\":4603:4608   */\n      dup2\n        /* \"#utility.yul\":4600:4635   */\n      eq\n        /* \"#utility.yul\":4590:4653   */\n      tag_320\n      jumpi\n        /* \"#utility.yul\":4649:4650   */\n      0x00\n        /* \"#utility.yul\":4646:4647   */\n      dup1\n        /* \"#utility.yul\":4639:4651   */\n      revert\n        /* \"#utility.yul\":4590:4653   */\n    tag_320:\n        /* \"#utility.yul\":4537:4659   */\n      pop\n      jump\t// out\n        /* \"#utility.yul\":4665:4804   */\n    tag_207:\n        /* \"#utility.yul\":4711:4716   */\n      0x00\n        /* \"#utility.yul\":4749:4755   */\n      dup2\n        /* \"#utility.yul\":4736:4756   */\n      calldataload\n        /* \"#utility.yul\":4727:4756   */\n      swap1\n      pop\n        /* \"#utility.yul\":4765:4798   */\n      tag_322\n        /* \"#utility.yul\":4792:4797   */\n      dup2\n        /* \"#utility.yul\":4765:4798   */\n      tag_206\n      jump\t// in\n    tag_322:\n        /* \"#utility.yul\":4665:4804   */\n      swap3\n      swap2\n      pop\n      pop\n      jump\t// out\n        /* \"#utility.yul\":4810:5139   */\n    tag_23:\n        /* \"#utility.yul\":4869:4875   */\n      0x00\n        /* \"#utility.yul\":4918:4920   */\n      0x20\n        /* \"#utility.yul\":4906:4915   */\n      dup3\n        /* \"#utility.yul\":4897:4904   */\n      dup5\n        /* \"#utility.yul\":4893:4916   */\n      sub\n        /* \"#utility.yul\":4889:4921   */\n      slt\n        /* \"#utility.yul\":4886:5005   */\n      iszero\n      tag_324\n      jumpi\n        /* \"#utility.yul\":4924:5003   */\n      tag_325\n      tag_189\n      jump\t// in\n    tag_325:\n        /* \"#utility.yul\":4886:5005   */\n    tag_324:\n        /* \"#utility.yul\":5044:5045   */\n      0x00\n        /* \"#utility.yul\":5069:5122   */\n      tag_326\n        /* \"#utility.yul\":5114:5121   */\n      dup5\n        /* \"#utility.yul\":5105:5111   */\n      dup3\n        /* \"#utility.yul\":5094:5103   */\n      dup6\n        /* \"#utility.yul\":5090:5112   */\n      add\n        /* \"#utility.yul\":5069:5122   */\n      tag_207\n      jump\t// in\n    tag_326:\n        /* \"#utility.yul\":5059:5122   */\n      swap2\n      pop\n        /* \"#utility.yul\":5015:5132   */\n      pop\n        /* \"#utility.yul\":4810:5139   */\n      swap3\n      swap2\n      pop\n      pop\n      jump\t// out\n        /* \"#utility.yul\":5145:5287   */\n    tag_208:\n        /* \"#utility.yul\":5248:5280   */\n      tag_328\n        /* \"#utility.yul\":5274:5279   */\n      dup2\n        /* \"#utility.yul\":5248:5280   */\n      tag_192\n      jump\t// in\n    tag_328:\n        /* \"#utility.yul\":5243:5246   */\n      dup3\n        /* \"#utility.yul\":5236:5281   */\n      mstore\n        /* \"#utility.yul\":5145:5287   */\n      pop\n      pop\n      jump\t// out\n        /* \"#utility.yul\":5293:5392   */\n    tag_209:\n        /* \"#utility.yul\":5345:5351   */\n      0x00\n        /* \"#utility.yul\":5379:5384   */\n      dup2\n        /* \"#utility.yul\":5373:5385   */\n      mload\n        /* \"#utility.yul\":5363:5385   */\n      swap1\n      pop\n        /* \"#utility.yul\":5293:5392   */\n      swap2\n      swap1\n      pop\n      jump\t// out\n        /* \"#utility.yul\":5398:5567   */\n    tag_210:\n        /* \"#utility.yul\":5482:5493   */\n      0x00\n        /* \"#utility.yul\":5516:5522   */\n      dup3\n        /* \"#utility.yul\":5511:5514   */\n      dup3\n        /* \"#utility.yul\":5504:5523   */\n      mstore\n        /* \"#utility.yul\":5556:5560   */\n      0x20\n        /* \"#utility.yul\":5551:5554   */\n      dup3\n        /* \"#utility.yul\":5547:5561   */\n      add\n        /* \"#utility.yul\":5532:5561   */\n      swap1\n      pop\n        /* \"#utility.yul\":5398:5567   */\n      swap3\n      swap2\n      pop\n      pop\n      jump\t// out\n        /* \"#utility.yul\":5573:5712   */\n    tag_211:\n        /* \"#utility.yul\":5662:5668   */\n      dup3\n        /* \"#utility.yul\":5657:5660   */\n      dup2\n        /* \"#utility.yul\":5652:5655   */\n      dup4\n        /* \"#utility.yul\":5646:5669   */\n      mcopy\n        /* \"#utility.yul\":5703:5704   */\n      0x00\n        /* \"#utility.yul\":5694:5700   */\n      dup4\n        /* \"#utility.yul\":5689:5692   */\n      dup4\n        /* \"#utility.yul\":5685:5701   */\n      add\n        /* \"#utility.yul\":5678:5705   */\n      mstore\n        /* \"#utility.yul\":5573:5712   */\n      pop\n      pop\n      pop\n      jump\t// out\n        /* \"#utility.yul\":5718:6095   */\n    tag_212:\n        /* \"#utility.yul\":5806:5809   */\n      0x00\n        /* \"#utility.yul\":5834:5873   */\n      tag_333\n        /* \"#utility.yul\":5867:5872   */\n      dup3\n        /* \"#utility.yul\":5834:5873   */\n      tag_209\n      jump\t// in\n    tag_333:\n        /* \"#utility.yul\":5889:5960   */\n      tag_334\n        /* \"#utility.yul\":5953:5959   */\n      dup2\n        /* \"#utility.yul\":5948:5951   */\n      dup6\n        /* \"#utility.yul\":5889:5960   */\n      tag_210\n      jump\t// in\n    tag_334:\n        /* \"#utility.yul\":5882:5960   */\n      swap4\n      pop\n        /* \"#utility.yul\":5969:6034   */\n      tag_335\n        /* \"#utility.yul\":6027:6033   */\n      dup2\n        /* \"#utility.yul\":6022:6025   */\n      dup6\n        /* \"#utility.yul\":6015:6019   */\n      0x20\n        /* \"#utility.yul\":6008:6013   */\n      dup7\n        /* \"#utility.yul\":6004:6020   */\n      add\n        /* \"#utility.yul\":5969:6034   */\n      tag_211\n      jump\t// in\n    tag_335:\n        /* \"#utility.yul\":6059:6088   */\n      tag_336\n        /* \"#utility.yul\":6081:6087   */\n      dup2\n        /* \"#utility.yul\":6059:6088   */\n      tag_197\n      jump\t// in\n    tag_336:\n        /* \"#utility.yul\":6054:6057   */\n      dup5\n        /* \"#utility.yul\":6050:6089   */\n      add\n        /* \"#utility.yul\":6043:6089   */\n      swap2\n      pop\n        /* \"#utility.yul\":5810:6095   */\n      pop\n        /* \"#utility.yul\":5718:6095   */\n      swap3\n      swap2\n      pop\n      pop\n      jump\t// out\n        /* \"#utility.yul\":6101:6219   */\n    tag_213:\n        /* \"#utility.yul\":6188:6212   */\n      tag_338\n        /* \"#utility.yul\":6206:6211   */\n      dup2\n        /* \"#utility.yul\":6188:6212   */\n      tag_205\n      jump\t// in\n    tag_338:\n        /* \"#utility.yul\":6183:6186   */\n      dup3\n        /* \"#utility.yul\":6176:6213   */\n      mstore\n        /* \"#utility.yul\":6101:6219   */\n      pop\n      pop\n      jump\t// out\n        /* \"#utility.yul\":6225:6315   */\n    tag_214:\n        /* \"#utility.yul\":6259:6266   */\n      0x00\n        /* \"#utility.yul\":6302:6307   */\n      dup2\n        /* \"#utility.yul\":6295:6308   */\n      iszero\n        /* \"#utility.yul\":6288:6309   */\n      iszero\n        /* \"#utility.yul\":6277:6309   */\n      swap1\n      pop\n        /* \"#utility.yul\":6225:6315   */\n      swap2\n      swap1\n      pop\n      jump\t// out\n        /* \"#utility.yul\":6321:6430   */\n    tag_215:\n        /* \"#utility.yul\":6402:6423   */\n      tag_341\n        /* \"#utility.yul\":6417:6422   */\n      dup2\n        /* \"#utility.yul\":6402:6423   */\n      tag_214\n      jump\t// in\n    tag_341:\n        /* \"#utility.yul\":6397:6400   */\n      dup3\n        /* \"#utility.yul\":6390:6424   */\n      mstore\n        /* \"#utility.yul\":6321:6430   */\n      pop\n      pop\n      jump\t// out\n        /* \"#utility.yul\":6436:7413   */\n    tag_26:\n        /* \"#utility.yul\":6719:6723   */\n      0x00\n        /* \"#utility.yul\":6757:6760   */\n      0xc0\n        /* \"#utility.yul\":6746:6755   */\n      dup3\n        /* \"#utility.yul\":6742:6761   */\n      add\n        /* \"#utility.yul\":6734:6761   */\n      swap1\n      pop\n        /* \"#utility.yul\":6771:6858   */\n      tag_343\n        /* \"#utility.yul\":6855:6856   */\n      0x00\n        /* \"#utility.yul\":6844:6853   */\n      dup4\n        /* \"#utility.yul\":6840:6857   */\n      add\n        /* \"#utility.yul\":6831:6837   */\n      dup10\n        /* \"#utility.yul\":6771:6858   */\n      tag_208\n      jump\t// in\n    tag_343:\n        /* \"#utility.yul\":6905:6914   */\n      dup2\n        /* \"#utility.yul\":6899:6903   */\n      dup2\n        /* \"#utility.yul\":6895:6915   */\n      sub\n        /* \"#utility.yul\":6890:6892   */\n      0x20\n        /* \"#utility.yul\":6879:6888   */\n      dup4\n        /* \"#utility.yul\":6875:6893   */\n      add\n        /* \"#utility.yul\":6868:6916   */\n      mstore\n        /* \"#utility.yul\":6933:7011   */\n      tag_344\n        /* \"#utility.yul\":7006:7010   */\n      dup2\n        /* \"#utility.yul\":6997:7003   */\n      dup9\n        /* \"#utility.yul\":6933:7011   */\n      tag_212\n      jump\t// in\n    tag_344:\n        /* \"#utility.yul\":6925:7011   */\n      swap1\n      pop\n        /* \"#utility.yul\":7058:7067   */\n      dup2\n        /* \"#utility.yul\":7052:7056   */\n      dup2\n        /* \"#utility.yul\":7048:7068   */\n      sub\n        /* \"#utility.yul\":7043:7045   */\n      0x40\n        /* \"#utility.yul\":7032:7041   */\n      dup4\n        /* \"#utility.yul\":7028:7046   */\n      add\n        /* \"#utility.yul\":7021:7069   */\n      mstore\n        /* \"#utility.yul\":7086:7164   */\n      tag_345\n        /* \"#utility.yul\":7159:7163   */\n      dup2\n        /* \"#utility.yul\":7150:7156   */\n      dup8\n        /* \"#utility.yul\":7086:7164   */\n      tag_212\n      jump\t// in\n    tag_345:\n        /* \"#utility.yul\":7078:7164   */\n      swap1\n      pop\n        /* \"#utility.yul\":7174:7246   */\n      tag_346\n        /* \"#utility.yul\":7242:7244   */\n      0x60\n        /* \"#utility.yul\":7231:7240   */\n      dup4\n        /* \"#utility.yul\":7227:7245   */\n      add\n        /* \"#utility.yul\":7218:7224   */\n      dup7\n        /* \"#utility.yul\":7174:7246   */\n      tag_213\n      jump\t// in\n    tag_346:\n        /* \"#utility.yul\":7256:7329   */\n      tag_347\n        /* \"#utility.yul\":7324:7327   */\n      0x80\n        /* \"#utility.yul\":7313:7322   */\n      dup4\n        /* \"#utility.yul\":7309:7328   */\n      add\n        /* \"#utility.yul\":7300:7306   */\n      dup6\n        /* \"#utility.yul\":7256:7329   */\n      tag_213\n      jump\t// in\n    tag_347:\n        /* \"#utility.yul\":7339:7406   */\n      tag_348\n        /* \"#utility.yul\":7401:7404   */\n      0xa0\n        /* \"#utility.yul\":7390:7399   */\n      dup4\n        /* \"#utility.yul\":7386:7405   */\n      add\n        /* \"#utility.yul\":7377:7383   */\n      dup5\n        /* \"#utility.yul\":7339:7406   */\n      tag_215\n      jump\t// in\n    tag_348:\n        /* \"#utility.yul\":6436:7413   */\n      swap8\n      swap7\n      pop\n      pop\n      pop\n      pop\n      pop\n      pop\n      pop\n      jump\t// out\n        /* \"#utility.yul\":7419:7515   */\n    tag_216:\n        /* \"#utility.yul\":7456:7463   */\n      0x00\n        /* \"#utility.yul\":7485:7509   */\n      tag_350\n        /* \"#utility.yul\":7503:7508   */\n      dup3\n        /* \"#utility.yul\":7485:7509   */\n      tag_191\n      jump\t// in\n    tag_350:\n        /* \"#utility.yul\":7474:7509   */\n      swap1\n      pop\n        /* \"#utility.yul\":7419:7515   */\n      swap2\n      swap1\n      pop\n      jump\t// out\n        /* \"#utility.yul\":7521:7639   */\n    tag_217:\n        /* \"#utility.yul\":7608:7632   */\n      tag_352\n        /* \"#utility.yul\":7626:7631   */\n      dup2\n        /* \"#utility.yul\":7608:7632   */\n      tag_216\n      jump\t// in\n    tag_352:\n        /* \"#utility.yul\":7603:7606   */\n      dup3\n        /* \"#utility.yul\":7596:7633   */\n      mstore\n        /* \"#utility.yul\":7521:7639   */\n      pop\n      pop\n      jump\t// out\n        /* \"#utility.yul\":7645:7867   */\n    tag_31:\n        /* \"#utility.yul\":7738:7742   */\n      0x00\n        /* \"#utility.yul\":7776:7778   */\n      0x20\n        /* \"#utility.yul\":7765:7774   */\n      dup3\n        /* \"#utility.yul\":7761:7779   */\n      add\n        /* \"#utility.yul\":7753:7779   */\n      swap1\n      pop\n        /* \"#utility.yul\":7789:7860   */\n      tag_354\n        /* \"#utility.yul\":7857:7858   */\n      0x00\n        /* \"#utility.yul\":7846:7855   */\n      dup4\n        /* \"#utility.yul\":7842:7859   */\n      add\n        /* \"#utility.yul\":7833:7839   */\n      dup5\n        /* \"#utility.yul\":7789:7860   */\n      tag_217\n      jump\t// in\n    tag_354:\n        /* \"#utility.yul\":7645:7867   */\n      swap3\n      swap2\n      pop\n      pop\n      jump\t// out\n        /* \"#utility.yul\":7873:7995   */\n    tag_218:\n        /* \"#utility.yul\":7946:7970   */\n      tag_356\n        /* \"#utility.yul\":7964:7969   */\n      dup2\n        /* \"#utility.yul\":7946:7970   */\n      tag_216\n      jump\t// in\n    tag_356:\n        /* \"#utility.yul\":7939:7944   */\n      dup2\n        /* \"#utility.yul\":7936:7971   */\n      eq\n        /* \"#utility.yul\":7926:7989   */\n      tag_357\n      jumpi\n        /* \"#utility.yul\":7985:7986   */\n      0x00\n        /* \"#utility.yul\":7982:7983   */\n      dup1\n        /* \"#utility.yul\":7975:7987   */\n      revert\n        /* \"#utility.yul\":7926:7989   */\n    tag_357:\n        /* \"#utility.yul\":7873:7995   */\n      pop\n      jump\t// out\n        /* \"#utility.yul\":8001:8140   */\n    tag_219:\n        /* \"#utility.yul\":8047:8052   */\n      0x00\n        /* \"#utility.yul\":8085:8091   */\n      dup2\n        /* \"#utility.yul\":8072:8092   */\n      calldataload\n        /* \"#utility.yul\":8063:8092   */\n      swap1\n      pop\n        /* \"#utility.yul\":8101:8134   */\n      tag_359\n        /* \"#utility.yul\":8128:8133   */\n      dup2\n        /* \"#utility.yul\":8101:8134   */\n      tag_218\n      jump\t// in\n    tag_359:\n        /* \"#utility.yul\":8001:8140   */\n      swap3\n      swap2\n      pop\n      pop\n      jump\t// out\n        /* \"#utility.yul\":8146:8475   */\n    tag_35:\n        /* \"#utility.yul\":8205:8211   */\n      0x00\n        /* \"#utility.yul\":8254:8256   */\n      0x20\n        /* \"#utility.yul\":8242:8251   */\n      dup3\n        /* \"#utility.yul\":8233:8240   */\n      dup5\n        /* \"#utility.yul\":8229:8252   */\n      sub\n        /* \"#utility.yul\":8225:8257   */\n      slt\n        /* \"#utility.yul\":8222:8341   */\n      iszero\n      tag_361\n      jumpi\n        /* \"#utility.yul\":8260:8339   */\n      tag_362\n      tag_189\n      jump\t// in\n    tag_362:\n        /* \"#utility.yul\":8222:8341   */\n    tag_361:\n        /* \"#utility.yul\":8380:8381   */\n      0x00\n        /* \"#utility.yul\":8405:8458   */\n      tag_363\n        /* \"#utility.yul\":8450:8457   */\n      dup5\n        /* \"#utility.yul\":8441:8447   */\n      dup3\n        /* \"#utility.yul\":8430:8439   */\n      dup6\n        /* \"#utility.yul\":8426:8448   */\n      add\n        /* \"#utility.yul\":8405:8458   */\n      tag_219\n      jump\t// in\n    tag_363:\n        /* \"#utility.yul\":8395:8458   */\n      swap2\n      pop\n        /* \"#utility.yul\":8351:8468   */\n      pop\n        /* \"#utility.yul\":8146:8475   */\n      swap3\n      swap2\n      pop\n      pop\n      jump\t// out\n        /* \"#utility.yul\":8481:8691   */\n    tag_38:\n        /* \"#utility.yul\":8568:8572   */\n      0x00\n        /* \"#utility.yul\":8606:8608   */\n      0x20\n        /* \"#utility.yul\":8595:8604   */\n      dup3\n        /* \"#utility.yul\":8591:8609   */\n      add\n        /* \"#utility.yul\":8583:8609   */\n      swap1\n      pop\n        /* \"#utility.yul\":8619:8684   */\n      tag_365\n        /* \"#utility.yul\":8681:8682   */\n      0x00\n        /* \"#utility.yul\":8670:8679   */\n      dup4\n        /* \"#utility.yul\":8666:8683   */\n      add\n        /* \"#utility.yul\":8657:8663   */\n      dup5\n        /* \"#utility.yul\":8619:8684   */\n      tag_215\n      jump\t// in\n    tag_365:\n        /* \"#utility.yul\":8481:8691   */\n      swap3\n      swap2\n      pop\n      pop\n      jump\t// out\n        /* \"#utility.yul\":8697:8919   */\n    tag_44:\n        /* \"#utility.yul\":8790:8794   */\n      0x00\n        /* \"#utility.yul\":8828:8830   */\n      0x20\n        /* \"#utility.yul\":8817:8826   */\n      dup3\n        /* \"#utility.yul\":8813:8831   */\n      add\n        /* \"#utility.yul\":8805:8831   */\n      swap1\n      pop\n        /* \"#utility.yul\":8841:8912   */\n      tag_367\n        /* \"#utility.yul\":8909:8910   */\n      0x00\n        /* \"#utility.yul\":8898:8907   */\n      dup4\n        /* \"#utility.yul\":8894:8911   */\n      add\n        /* \"#utility.yul\":8885:8891   */\n      dup5\n        /* \"#utility.yul\":8841:8912   */\n      tag_213\n      jump\t// in\n    tag_367:\n        /* \"#utility.yul\":8697:8919   */\n      swap3\n      swap2\n      pop\n      pop\n      jump\t// out\n        /* \"#utility.yul\":8925:9105   */\n    tag_58:\n        /* \"#utility.yul\":8973:9050   */\n      0x4e487b7100000000000000000000000000000000000000000000000000000000\n        /* \"#utility.yul\":8970:8971   */\n      0x00\n        /* \"#utility.yul\":8963:9051   */\n      mstore\n        /* \"#utility.yul\":9070:9074   */\n      0x32\n        /* \"#utility.yul\":9067:9068   */\n      0x04\n        /* \"#utility.yul\":9060:9075   */\n      mstore\n        /* \"#utility.yul\":9094:9098   */\n      0x24\n        /* \"#utility.yul\":9091:9092   */\n      0x00\n        /* \"#utility.yul\":9084:9099   */\n      revert\n        /* \"#utility.yul\":9111:9281   */\n    tag_220:\n        /* \"#utility.yul\":9251:9273   */\n      0x496e73756666696369656e742062616c616e6365000000000000000000000000\n        /* \"#utility.yul\":9247:9248   */\n      0x00\n        /* \"#utility.yul\":9239:9245   */\n      dup3\n        /* \"#utility.yul\":9235:9249   */\n      add\n        /* \"#utility.yul\":9228:9274   */\n      mstore\n        /* \"#utility.yul\":9111:9281   */\n      pop\n      jump\t// out\n        /* \"#utility.yul\":9287:9653   */\n    tag_221:\n        /* \"#utility.yul\":9429:9432   */\n      0x00\n        /* \"#utility.yul\":9450:9517   */\n      tag_371\n        /* \"#utility.yul\":9514:9516   */\n      0x14\n        /* \"#utility.yul\":9509:9512   */\n      dup4\n        /* \"#utility.yul\":9450:9517   */\n      tag_210\n      jump\t// in\n    tag_371:\n        /* \"#utility.yul\":9443:9517   */\n      swap2\n      pop\n        /* \"#utility.yul\":9526:9619   */\n      tag_372\n        /* \"#utility.yul\":9615:9618   */\n      dup3\n        /* \"#utility.yul\":9526:9619   */\n      tag_220\n      jump\t// in\n    tag_372:\n        /* \"#utility.yul\":9644:9646   */\n      0x20\n        /* \"#utility.yul\":9639:9642   */\n      dup3\n        /* \"#utility.yul\":9635:9647   */\n      add\n        /* \"#utility.yul\":9628:9647   */\n      swap1\n      pop\n        /* \"#utility.yul\":9287:9653   */\n      swap2\n      swap1\n      pop\n      jump\t// out\n        /* \"#utility.yul\":9659:10078   */\n    tag_62:\n        /* \"#utility.yul\":9825:9829   */\n      0x00\n        /* \"#utility.yul\":9863:9865   */\n      0x20\n        /* \"#utility.yul\":9852:9861   */\n      dup3\n        /* \"#utility.yul\":9848:9866   */\n      add\n        /* \"#utility.yul\":9840:9866   */\n      swap1\n      pop\n        /* \"#utility.yul\":9912:9921   */\n      dup2\n        /* \"#utility.yul\":9906:9910   */\n      dup2\n        /* \"#utility.yul\":9902:9922   */\n      sub\n        /* \"#utility.yul\":9898:9899   */\n      0x00\n        /* \"#utility.yul\":9887:9896   */\n      dup4\n        /* \"#utility.yul\":9883:9900   */\n      add\n        /* \"#utility.yul\":9876:9923   */\n      mstore\n        /* \"#utility.yul\":9940:10071   */\n      tag_374\n        /* \"#utility.yul\":10066:10070   */\n      dup2\n        /* \"#utility.yul\":9940:10071   */\n      tag_221\n      jump\t// in\n    tag_374:\n        /* \"#utility.yul\":9932:10071   */\n      swap1\n      pop\n        /* \"#utility.yul\":9659:10078   */\n      swap2\n      swap1\n      pop\n      jump\t// out\n        /* \"#utility.yul\":10084:10259   */\n    tag_222:\n        /* \"#utility.yul\":10224:10251   */\n      0x4f6e6c79206f776e6572206f6620746865206163636f756e7400000000000000\n        /* \"#utility.yul\":10220:10221   */\n      0x00\n        /* \"#utility.yul\":10212:10218   */\n      dup3\n        /* \"#utility.yul\":10208:10222   */\n      add\n        /* \"#utility.yul\":10201:10252   */\n      mstore\n        /* \"#utility.yul\":10084:10259   */\n      pop\n      jump\t// out\n        /* \"#utility.yul\":10265:10631   */\n    tag_223:\n        /* \"#utility.yul\":10407:10410   */\n      0x00\n        /* \"#utility.yul\":10428:10495   */\n      tag_377\n        /* \"#utility.yul\":10492:10494   */\n      0x19\n        /* \"#utility.yul\":10487:10490   */\n      dup4\n        /* \"#utility.yul\":10428:10495   */\n      tag_210\n      jump\t// in\n    tag_377:\n        /* \"#utility.yul\":10421:10495   */\n      swap2\n      pop\n        /* \"#utility.yul\":10504:10597   */\n      tag_378\n        /* \"#utility.yul\":10593:10596   */\n      dup3\n        /* \"#utility.yul\":10504:10597   */\n      tag_222\n      jump\t// in\n    tag_378:\n        /* \"#utility.yul\":10622:10624   */\n      0x20\n        /* \"#utility.yul\":10617:10620   */\n      dup3\n        /* \"#utility.yul\":10613:10625   */\n      add\n        /* \"#utility.yul\":10606:10625   */\n      swap1\n      pop\n        /* \"#utility.yul\":10265:10631   */\n      swap2\n      swap1\n      pop\n      jump\t// out\n        /* \"#utility.yul\":10637:11056   */\n    tag_68:\n        /* \"#utility.yul\":10803:10807   */\n      0x00\n        /* \"#utility.yul\":10841:10843   */\n      0x20\n        /* \"#utility.yul\":10830:10839   */\n      dup3\n        /* \"#utility.yul\":10826:10844   */\n      add\n        /* \"#utility.yul\":10818:10844   */\n      swap1\n      pop\n        /* \"#utility.yul\":10890:10899   */\n      dup2\n        /* \"#utility.yul\":10884:10888   */\n      dup2\n        /* \"#utility.yul\":10880:10900   */\n      sub\n        /* \"#utility.yul\":10876:10877   */\n      0x00\n        /* \"#utility.yul\":10865:10874   */\n      dup4\n        /* \"#utility.yul\":10861:10878   */\n      add\n        /* \"#utility.yul\":10854:10901   */\n      mstore\n        /* \"#utility.yul\":10918:11049   */\n      tag_380\n        /* \"#utility.yul\":11044:11048   */\n      dup2\n        /* \"#utility.yul\":10918:11049   */\n      tag_223\n      jump\t// in\n    tag_380:\n        /* \"#utility.yul\":10910:11049   */\n      swap1\n      pop\n        /* \"#utility.yul\":10637:11056   */\n      swap2\n      swap1\n      pop\n      jump\t// out\n        /* \"#utility.yul\":11062:11237   */\n    tag_224:\n        /* \"#utility.yul\":11202:11229   */\n      0x5761697420666f72207468652072656c656173652074696d6500000000000000\n        /* \"#utility.yul\":11198:11199   */\n      0x00\n        /* \"#utility.yul\":11190:11196   */\n      dup3\n        /* \"#utility.yul\":11186:11200   */\n      add\n        /* \"#utility.yul\":11179:11230   */\n      mstore\n        /* \"#utility.yul\":11062:11237   */\n      pop\n      jump\t// out\n        /* \"#utility.yul\":11243:11609   */\n    tag_225:\n        /* \"#utility.yul\":11385:11388   */\n      0x00\n        /* \"#utility.yul\":11406:11473   */\n      tag_383\n        /* \"#utility.yul\":11470:11472   */\n      0x19\n        /* \"#utility.yul\":11465:11468   */\n      dup4\n        /* \"#utility.yul\":11406:11473   */\n      tag_210\n      jump\t// in\n    tag_383:\n        /* \"#utility.yul\":11399:11473   */\n      swap2\n      pop\n        /* \"#utility.yul\":11482:11575   */\n      tag_384\n        /* \"#utility.yul\":11571:11574   */\n      dup3\n        /* \"#utility.yul\":11482:11575   */\n      tag_224\n      jump\t// in\n    tag_384:\n        /* \"#utility.yul\":11600:11602   */\n      0x20\n        /* \"#utility.yul\":11595:11598   */\n      dup3\n        /* \"#utility.yul\":11591:11603   */\n      add\n        /* \"#utility.yul\":11584:11603   */\n      swap1\n      pop\n        /* \"#utility.yul\":11243:11609   */\n      swap2\n      swap1\n      pop\n      jump\t// out\n        /* \"#utility.yul\":11615:12034   */\n    tag_74:\n        /* \"#utility.yul\":11781:11785   */\n      0x00\n        /* \"#utility.yul\":11819:11821   */\n      0x20\n        /* \"#utility.yul\":11808:11817   */\n      dup3\n        /* \"#utility.yul\":11804:11822   */\n      add\n        /* \"#utility.yul\":11796:11822   */\n      swap1\n      pop\n        /* \"#utility.yul\":11868:11877   */\n      dup2\n        /* \"#utility.yul\":11862:11866   */\n      dup2\n        /* \"#utility.yul\":11858:11878   */\n      sub\n        /* \"#utility.yul\":11854:11855   */\n      0x00\n        /* \"#utility.yul\":11843:11852   */\n      dup4\n        /* \"#utility.yul\":11839:11856   */\n      add\n        /* \"#utility.yul\":11832:11879   */\n      mstore\n        /* \"#utility.yul\":11896:12027   */\n      tag_386\n        /* \"#utility.yul\":12022:12026   */\n      dup2\n        /* \"#utility.yul\":11896:12027   */\n      tag_225\n      jump\t// in\n    tag_386:\n        /* \"#utility.yul\":11888:12027   */\n      swap1\n      pop\n        /* \"#utility.yul\":11615:12034   */\n      swap2\n      swap1\n      pop\n      jump\t// out\n        /* \"#utility.yul\":12040:12213   */\n    tag_226:\n        /* \"#utility.yul\":12180:12205   */\n      0x46756e647320616c72656164792077697468647261776e000000000000000000\n        /* \"#utility.yul\":12176:12177   */\n      0x00\n        /* \"#utility.yul\":12168:12174   */\n      dup3\n        /* \"#utility.yul\":12164:12178   */\n      add\n        /* \"#utility.yul\":12157:12206   */\n      mstore\n        /* \"#utility.yul\":12040:12213   */\n      pop\n      jump\t// out\n        /* \"#utility.yul\":12219:12585   */\n    tag_227:\n        /* \"#utility.yul\":12361:12364   */\n      0x00\n        /* \"#utility.yul\":12382:12449   */\n      tag_389\n        /* \"#utility.yul\":12446:12448   */\n      0x17\n        /* \"#utility.yul\":12441:12444   */\n      dup4\n        /* \"#utility.yul\":12382:12449   */\n      tag_210\n      jump\t// in\n    tag_389:\n        /* \"#utility.yul\":12375:12449   */\n      swap2\n      pop\n        /* \"#utility.yul\":12458:12551   */\n      tag_390\n        /* \"#utility.yul\":12547:12550   */\n      dup3\n        /* \"#utility.yul\":12458:12551   */\n      tag_226\n      jump\t// in\n    tag_390:\n        /* \"#utility.yul\":12576:12578   */\n      0x20\n        /* \"#utility.yul\":12571:12574   */\n      dup3\n        /* \"#utility.yul\":12567:12579   */\n      add\n        /* \"#utility.yul\":12560:12579   */\n      swap1\n      pop\n        /* \"#utility.yul\":12219:12585   */\n      swap2\n      swap1\n      pop\n      jump\t// out\n        /* \"#utility.yul\":12591:13010   */\n    tag_80:\n        /* \"#utility.yul\":12757:12761   */\n      0x00\n        /* \"#utility.yul\":12795:12797   */\n      0x20\n        /* \"#utility.yul\":12784:12793   */\n      dup3\n        /* \"#utility.yul\":12780:12798   */\n      add\n        /* \"#utility.yul\":12772:12798   */\n      swap1\n      pop\n        /* \"#utility.yul\":12844:12853   */\n      dup2\n        /* \"#utility.yul\":12838:12842   */\n      dup2\n        /* \"#utility.yul\":12834:12854   */\n      sub\n        /* \"#utility.yul\":12830:12831   */\n      0x00\n        /* \"#utility.yul\":12819:12828   */\n      dup4\n        /* \"#utility.yul\":12815:12832   */\n      add\n        /* \"#utility.yul\":12808:12855   */\n      mstore\n        /* \"#utility.yul\":12872:13003   */\n      tag_392\n        /* \"#utility.yul\":12998:13002   */\n      dup2\n        /* \"#utility.yul\":12872:13003   */\n      tag_227\n      jump\t// in\n    tag_392:\n        /* \"#utility.yul\":12864:13003   */\n      swap1\n      pop\n        /* \"#utility.yul\":12591:13010   */\n      swap2\n      swap1\n      pop\n      jump\t// out\n        /* \"#utility.yul\":13016:13076   */\n    tag_228:\n        /* \"#utility.yul\":13044:13047   */\n      0x00\n        /* \"#utility.yul\":13065:13070   */\n      dup2\n        /* \"#utility.yul\":13058:13070   */\n      swap1\n      pop\n        /* \"#utility.yul\":13016:13076   */\n      swap2\n      swap1\n      pop\n      jump\t// out\n        /* \"#utility.yul\":13082:13224   */\n    tag_229:\n        /* \"#utility.yul\":13132:13141   */\n      0x00\n        /* \"#utility.yul\":13165:13218   */\n      tag_395\n        /* \"#utility.yul\":13183:13217   */\n      tag_396\n        /* \"#utility.yul\":13192:13216   */\n      tag_397\n        /* \"#utility.yul\":13210:13215   */\n      dup5\n        /* \"#utility.yul\":13192:13216   */\n      tag_191\n      jump\t// in\n    tag_397:\n        /* \"#utility.yul\":13183:13217   */\n      tag_228\n      jump\t// in\n    tag_396:\n        /* \"#utility.yul\":13165:13218   */\n      tag_191\n      jump\t// in\n    tag_395:\n        /* \"#utility.yul\":13152:13218   */\n      swap1\n      pop\n        /* \"#utility.yul\":13082:13224   */\n      swap2\n      swap1\n      pop\n      jump\t// out\n        /* \"#utility.yul\":13230:13356   */\n    tag_230:\n        /* \"#utility.yul\":13280:13289   */\n      0x00\n        /* \"#utility.yul\":13313:13350   */\n      tag_399\n        /* \"#utility.yul\":13344:13349   */\n      dup3\n        /* \"#utility.yul\":13313:13350   */\n      tag_229\n      jump\t// in\n    tag_399:\n        /* \"#utility.yul\":13300:13350   */\n      swap1\n      pop\n        /* \"#utility.yul\":13230:13356   */\n      swap2\n      swap1\n      pop\n      jump\t// out\n        /* \"#utility.yul\":13362:13496   */\n    tag_231:\n        /* \"#utility.yul\":13420:13429   */\n      0x00\n        /* \"#utility.yul\":13453:13490   */\n      tag_401\n        /* \"#utility.yul\":13484:13489   */\n      dup3\n        /* \"#utility.yul\":13453:13490   */\n      tag_230\n      jump\t// in\n    tag_401:\n        /* \"#utility.yul\":13440:13490   */\n      swap1\n      pop\n        /* \"#utility.yul\":13362:13496   */\n      swap2\n      swap1\n      pop\n      jump\t// out\n        /* \"#utility.yul\":13502:13649   */\n    tag_232:\n        /* \"#utility.yul\":13597:13642   */\n      tag_403\n        /* \"#utility.yul\":13636:13641   */\n      dup2\n        /* \"#utility.yul\":13597:13642   */\n      tag_231\n      jump\t// in\n    tag_403:\n        /* \"#utility.yul\":13592:13595   */\n      dup3\n        /* \"#utility.yul\":13585:13643   */\n      mstore\n        /* \"#utility.yul\":13502:13649   */\n      pop\n      pop\n      jump\t// out\n        /* \"#utility.yul\":13655:14113   */\n    tag_90:\n        /* \"#utility.yul\":13812:13816   */\n      0x00\n        /* \"#utility.yul\":13850:13852   */\n      0x60\n        /* \"#utility.yul\":13839:13848   */\n      dup3\n        /* \"#utility.yul\":13835:13853   */\n      add\n        /* \"#utility.yul\":13827:13853   */\n      swap1\n      pop\n        /* \"#utility.yul\":13863:13942   */\n      tag_405\n        /* \"#utility.yul\":13939:13940   */\n      0x00\n        /* \"#utility.yul\":13928:13937   */\n      dup4\n        /* \"#utility.yul\":13924:13941   */\n      add\n        /* \"#utility.yul\":13915:13921   */\n      dup7\n        /* \"#utility.yul\":13863:13942   */\n      tag_232\n      jump\t// in\n    tag_405:\n        /* \"#utility.yul\":13952:14024   */\n      tag_406\n        /* \"#utility.yul\":14020:14022   */\n      0x20\n        /* \"#utility.yul\":14009:14018   */\n      dup4\n        /* \"#utility.yul\":14005:14023   */\n      add\n        /* \"#utility.yul\":13996:14002   */\n      dup6\n        /* \"#utility.yul\":13952:14024   */\n      tag_213\n      jump\t// in\n    tag_406:\n        /* \"#utility.yul\":14034:14106   */\n      tag_407\n        /* \"#utility.yul\":14102:14104   */\n      0x40\n        /* \"#utility.yul\":14091:14100   */\n      dup4\n        /* \"#utility.yul\":14087:14105   */\n      add\n        /* \"#utility.yul\":14078:14084   */\n      dup5\n        /* \"#utility.yul\":14034:14106   */\n      tag_213\n      jump\t// in\n    tag_407:\n        /* \"#utility.yul\":13655:14113   */\n      swap5\n      swap4\n      pop\n      pop\n      pop\n      pop\n      jump\t// out\n        /* \"#utility.yul\":14119:14289   */\n    tag_233:\n        /* \"#utility.yul\":14259:14281   */\n      0x4f776e65722063616e27742062652061206b6964000000000000000000000000\n        /* \"#utility.yul\":14255:14256   */\n      0x00\n        /* \"#utility.yul\":14247:14253   */\n      dup3\n        /* \"#utility.yul\":14243:14257   */\n      add\n        /* \"#utility.yul\":14236:14282   */\n      mstore\n        /* \"#utility.yul\":14119:14289   */\n      pop\n      jump\t// out\n        /* \"#utility.yul\":14295:14661   */\n    tag_234:\n        /* \"#utility.yul\":14437:14440   */\n      0x00\n        /* \"#utility.yul\":14458:14525   */\n      tag_410\n        /* \"#utility.yul\":14522:14524   */\n      0x14\n        /* \"#utility.yul\":14517:14520   */\n      dup4\n        /* \"#utility.yul\":14458:14525   */\n      tag_210\n      jump\t// in\n    tag_410:\n        /* \"#utility.yul\":14451:14525   */\n      swap2\n      pop\n        /* \"#utility.yul\":14534:14627   */\n      tag_411\n        /* \"#utility.yul\":14623:14626   */\n      dup3\n        /* \"#utility.yul\":14534:14627   */\n      tag_233\n      jump\t// in\n    tag_411:\n        /* \"#utility.yul\":14652:14654   */\n      0x20\n        /* \"#utility.yul\":14647:14650   */\n      dup3\n        /* \"#utility.yul\":14643:14655   */\n      add\n        /* \"#utility.yul\":14636:14655   */\n      swap1\n      pop\n        /* \"#utility.yul\":14295:14661   */\n      swap2\n      swap1\n      pop\n      jump\t// out\n        /* \"#utility.yul\":14667:15086   */\n    tag_101:\n        /* \"#utility.yul\":14833:14837   */\n      0x00\n        /* \"#utility.yul\":14871:14873   */\n      0x20\n        /* \"#utility.yul\":14860:14869   */\n      dup3\n        /* \"#utility.yul\":14856:14874   */\n      add\n        /* \"#utility.yul\":14848:14874   */\n      swap1\n      pop\n        /* \"#utility.yul\":14920:14929   */\n      dup2\n        /* \"#utility.yul\":14914:14918   */\n      dup2\n        /* \"#utility.yul\":14910:14930   */\n      sub\n        /* \"#utility.yul\":14906:14907   */\n      0x00\n        /* \"#utility.yul\":14895:14904   */\n      dup4\n        /* \"#utility.yul\":14891:14908   */\n      add\n        /* \"#utility.yul\":14884:14931   */\n      mstore\n        /* \"#utility.yul\":14948:15079   */\n      tag_413\n        /* \"#utility.yul\":15074:15078   */\n      dup2\n        /* \"#utility.yul\":14948:15079   */\n      tag_234\n      jump\t// in\n    tag_413:\n        /* \"#utility.yul\":14940:15079   */\n      swap1\n      pop\n        /* \"#utility.yul\":14667:15086   */\n      swap2\n      swap1\n      pop\n      jump\t// out\n        /* \"#utility.yul\":15092:15265   */\n    tag_235:\n        /* \"#utility.yul\":15232:15257   */\n      0x4164647265737320697320616c72656164792075736564000000000000000000\n        /* \"#utility.yul\":15228:15229   */\n      0x00\n        /* \"#utility.yul\":15220:15226   */\n      dup3\n        /* \"#utility.yul\":15216:15230   */\n      add\n        /* \"#utility.yul\":15209:15258   */\n      mstore\n        /* \"#utility.yul\":15092:15265   */\n      pop\n      jump\t// out\n        /* \"#utility.yul\":15271:15637   */\n    tag_236:\n        /* \"#utility.yul\":15413:15416   */\n      0x00\n        /* \"#utility.yul\":15434:15501   */\n      tag_416\n        /* \"#utility.yul\":15498:15500   */\n      0x17\n        /* \"#utility.yul\":15493:15496   */\n      dup4\n        /* \"#utility.yul\":15434:15501   */\n      tag_210\n      jump\t// in\n    tag_416:\n        /* \"#utility.yul\":15427:15501   */\n      swap2\n      pop\n        /* \"#utility.yul\":15510:15603   */\n      tag_417\n        /* \"#utility.yul\":15599:15602   */\n      dup3\n        /* \"#utility.yul\":15510:15603   */\n      tag_235\n      jump\t// in\n    tag_417:\n        /* \"#utility.yul\":15628:15630   */\n      0x20\n        /* \"#utility.yul\":15623:15626   */\n      dup3\n        /* \"#utility.yul\":15619:15631   */\n      add\n        /* \"#utility.yul\":15612:15631   */\n      swap1\n      pop\n        /* \"#utility.yul\":15271:15637   */\n      swap2\n      swap1\n      pop\n      jump\t// out\n        /* \"#utility.yul\":15643:16062   */\n    tag_110:\n        /* \"#utility.yul\":15809:15813   */\n      0x00\n        /* \"#utility.yul\":15847:15849   */\n      0x20\n        /* \"#utility.yul\":15836:15845   */\n      dup3\n        /* \"#utility.yul\":15832:15850   */\n      add\n        /* \"#utility.yul\":15824:15850   */\n      swap1\n      pop\n        /* \"#utility.yul\":15896:15905   */\n      dup2\n        /* \"#utility.yul\":15890:15894   */\n      dup2\n        /* \"#utility.yul\":15886:15906   */\n      sub\n        /* \"#utility.yul\":15882:15883   */\n      0x00\n        /* \"#utility.yul\":15871:15880   */\n      dup4\n        /* \"#utility.yul\":15867:15884   */\n      add\n        /* \"#utility.yul\":15860:15907   */\n      mstore\n        /* \"#utility.yul\":15924:16055   */\n      tag_419\n        /* \"#utility.yul\":16050:16054   */\n      dup2\n        /* \"#utility.yul\":15924:16055   */\n      tag_236\n      jump\t// in\n    tag_419:\n        /* \"#utility.yul\":15916:16055   */\n      swap1\n      pop\n        /* \"#utility.yul\":15643:16062   */\n      swap2\n      swap1\n      pop\n      jump\t// out\n        /* \"#utility.yul\":16068:16216   */\n    tag_237:\n        /* \"#utility.yul\":16170:16181   */\n      0x00\n        /* \"#utility.yul\":16207:16210   */\n      dup2\n        /* \"#utility.yul\":16192:16210   */\n      swap1\n      pop\n        /* \"#utility.yul\":16068:16216   */\n      swap3\n      swap2\n      pop\n      pop\n      jump\t// out\n        /* \"#utility.yul\":16222:16612   */\n    tag_238:\n        /* \"#utility.yul\":16328:16331   */\n      0x00\n        /* \"#utility.yul\":16356:16395   */\n      tag_422\n        /* \"#utility.yul\":16389:16394   */\n      dup3\n        /* \"#utility.yul\":16356:16395   */\n      tag_209\n      jump\t// in\n    tag_422:\n        /* \"#utility.yul\":16411:16500   */\n      tag_423\n        /* \"#utility.yul\":16493:16499   */\n      dup2\n        /* \"#utility.yul\":16488:16491   */\n      dup6\n        /* \"#utility.yul\":16411:16500   */\n      tag_237\n      jump\t// in\n    tag_423:\n        /* \"#utility.yul\":16404:16500   */\n      swap4\n      pop\n        /* \"#utility.yul\":16509:16574   */\n      tag_424\n        /* \"#utility.yul\":16567:16573   */\n      dup2\n        /* \"#utility.yul\":16562:16565   */\n      dup6\n        /* \"#utility.yul\":16555:16559   */\n      0x20\n        /* \"#utility.yul\":16548:16553   */\n      dup7\n        /* \"#utility.yul\":16544:16560   */\n      add\n        /* \"#utility.yul\":16509:16574   */\n      tag_211\n      jump\t// in\n    tag_424:\n        /* \"#utility.yul\":16599:16605   */\n      dup1\n        /* \"#utility.yul\":16594:16597   */\n      dup5\n        /* \"#utility.yul\":16590:16606   */\n      add\n        /* \"#utility.yul\":16583:16606   */\n      swap2\n      pop\n        /* \"#utility.yul\":16332:16612   */\n      pop\n        /* \"#utility.yul\":16222:16612   */\n      swap3\n      swap2\n      pop\n      pop\n      jump\t// out\n        /* \"#utility.yul\":16618:16893   */\n    tag_112:\n        /* \"#utility.yul\":16750:16753   */\n      0x00\n        /* \"#utility.yul\":16772:16867   */\n      tag_426\n        /* \"#utility.yul\":16863:16866   */\n      dup3\n        /* \"#utility.yul\":16854:16860   */\n      dup5\n        /* \"#utility.yul\":16772:16867   */\n      tag_238\n      jump\t// in\n    tag_426:\n        /* \"#utility.yul\":16765:16867   */\n      swap2\n      pop\n        /* \"#utility.yul\":16884:16887   */\n      dup2\n        /* \"#utility.yul\":16877:16887   */\n      swap1\n      pop\n        /* \"#utility.yul\":16618:16893   */\n      swap3\n      swap2\n      pop\n      pop\n      jump\t// out\n        /* \"#utility.yul\":16899:17013   */\n    tag_239:\n      pop\n      jump\t// out\n        /* \"#utility.yul\":17019:17419   */\n    tag_240:\n        /* \"#utility.yul\":17179:17182   */\n      0x00\n        /* \"#utility.yul\":17200:17284   */\n      tag_429\n        /* \"#utility.yul\":17282:17283   */\n      0x00\n        /* \"#utility.yul\":17277:17280   */\n      dup4\n        /* \"#utility.yul\":17200:17284   */\n      tag_237\n      jump\t// in\n    tag_429:\n        /* \"#utility.yul\":17193:17284   */\n      swap2\n      pop\n        /* \"#utility.yul\":17293:17386   */\n      tag_430\n        /* \"#utility.yul\":17382:17385   */\n      dup3\n        /* \"#utility.yul\":17293:17386   */\n      tag_239\n      jump\t// in\n    tag_430:\n        /* \"#utility.yul\":17411:17412   */\n      0x00\n        /* \"#utility.yul\":17406:17409   */\n      dup3\n        /* \"#utility.yul\":17402:17413   */\n      add\n        /* \"#utility.yul\":17395:17413   */\n      swap1\n      pop\n        /* \"#utility.yul\":17019:17419   */\n      swap2\n      swap1\n      pop\n      jump\t// out\n        /* \"#utility.yul\":17425:17806   */\n    tag_115:\n        /* \"#utility.yul\":17610:17613   */\n      0x00\n        /* \"#utility.yul\":17632:17780   */\n      tag_432\n        /* \"#utility.yul\":17776:17779   */\n      dup3\n        /* \"#utility.yul\":17632:17780   */\n      tag_240\n      jump\t// in\n    tag_432:\n        /* \"#utility.yul\":17625:17780   */\n      swap2\n      pop\n        /* \"#utility.yul\":17797:17800   */\n      dup2\n        /* \"#utility.yul\":17790:17800   */\n      swap1\n      pop\n        /* \"#utility.yul\":17425:17806   */\n      swap2\n      swap1\n      pop\n      jump\t// out\n        /* \"#utility.yul\":17812:17988   */\n    tag_241:\n        /* \"#utility.yul\":17952:17980   */\n      0x4669727374204e616d652063616e6e6f7420626520656d707479000000000000\n        /* \"#utility.yul\":17948:17949   */\n      0x00\n        /* \"#utility.yul\":17940:17946   */\n      dup3\n        /* \"#utility.yul\":17936:17950   */\n      add\n        /* \"#utility.yul\":17929:17981   */\n      mstore\n        /* \"#utility.yul\":17812:17988   */\n      pop\n      jump\t// out\n        /* \"#utility.yul\":17994:18360   */\n    tag_242:\n        /* \"#utility.yul\":18136:18139   */\n      0x00\n        /* \"#utility.yul\":18157:18224   */\n      tag_435\n        /* \"#utility.yul\":18221:18223   */\n      0x1a\n        /* \"#utility.yul\":18216:18219   */\n      dup4\n        /* \"#utility.yul\":18157:18224   */\n      tag_210\n      jump\t// in\n    tag_435:\n        /* \"#utility.yul\":18150:18224   */\n      swap2\n      pop\n        /* \"#utility.yul\":18233:18326   */\n      tag_436\n        /* \"#utility.yul\":18322:18325   */\n      dup3\n        /* \"#utility.yul\":18233:18326   */\n      tag_241\n      jump\t// in\n    tag_436:\n        /* \"#utility.yul\":18351:18353   */\n      0x20\n        /* \"#utility.yul\":18346:18349   */\n      dup3\n        /* \"#utility.yul\":18342:18354   */\n      add\n        /* \"#utility.yul\":18335:18354   */\n      swap1\n      pop\n        /* \"#utility.yul\":17994:18360   */\n      swap2\n      swap1\n      pop\n      jump\t// out\n        /* \"#utility.yul\":18366:18785   */\n    tag_118:\n        /* \"#utility.yul\":18532:18536   */\n      0x00\n        /* \"#utility.yul\":18570:18572   */\n      0x20\n        /* \"#utility.yul\":18559:18568   */\n      dup3\n        /* \"#utility.yul\":18555:18573   */\n      add\n        /* \"#utility.yul\":18547:18573   */\n      swap1\n      pop\n        /* \"#utility.yul\":18619:18628   */\n      dup2\n        /* \"#utility.yul\":18613:18617   */\n      dup2\n        /* \"#utility.yul\":18609:18629   */\n      sub\n        /* \"#utility.yul\":18605:18606   */\n      0x00\n        /* \"#utility.yul\":18594:18603   */\n      dup4\n        /* \"#utility.yul\":18590:18607   */\n      add\n        /* \"#utility.yul\":18583:18630   */\n      mstore\n        /* \"#utility.yul\":18647:18778   */\n      tag_438\n        /* \"#utility.yul\":18773:18777   */\n      dup2\n        /* \"#utility.yul\":18647:18778   */\n      tag_242\n      jump\t// in\n    tag_438:\n        /* \"#utility.yul\":18639:18778   */\n      swap1\n      pop\n        /* \"#utility.yul\":18366:18785   */\n      swap2\n      swap1\n      pop\n      jump\t// out\n        /* \"#utility.yul\":18791:18966   */\n    tag_243:\n        /* \"#utility.yul\":18931:18958   */\n      0x4c617374204e616d652063616e6e6f7420626520656d70747900000000000000\n        /* \"#utility.yul\":18927:18928   */\n      0x00\n        /* \"#utility.yul\":18919:18925   */\n      dup3\n        /* \"#utility.yul\":18915:18929   */\n      add\n        /* \"#utility.yul\":18908:18959   */\n      mstore\n        /* \"#utility.yul\":18791:18966   */\n      pop\n      jump\t// out\n        /* \"#utility.yul\":18972:19338   */\n    tag_244:\n        /* \"#utility.yul\":19114:19117   */\n      0x00\n        /* \"#utility.yul\":19135:19202   */\n      tag_441\n        /* \"#utility.yul\":19199:19201   */\n      0x19\n        /* \"#utility.yul\":19194:19197   */\n      dup4\n        /* \"#utility.yul\":19135:19202   */\n      tag_210\n      jump\t// in\n    tag_441:\n        /* \"#utility.yul\":19128:19202   */\n      swap2\n      pop\n        /* \"#utility.yul\":19211:19304   */\n      tag_442\n        /* \"#utility.yul\":19300:19303   */\n      dup3\n        /* \"#utility.yul\":19211:19304   */\n      tag_243\n      jump\t// in\n    tag_442:\n        /* \"#utility.yul\":19329:19331   */\n      0x20\n        /* \"#utility.yul\":19324:19327   */\n      dup3\n        /* \"#utility.yul\":19320:19332   */\n      add\n        /* \"#utility.yul\":19313:19332   */\n      swap1\n      pop\n        /* \"#utility.yul\":18972:19338   */\n      swap2\n      swap1\n      pop\n      jump\t// out\n        /* \"#utility.yul\":19344:19763   */\n    tag_121:\n        /* \"#utility.yul\":19510:19514   */\n      0x00\n        /* \"#utility.yul\":19548:19550   */\n      0x20\n        /* \"#utility.yul\":19537:19546   */\n      dup3\n        /* \"#utility.yul\":19533:19551   */\n      add\n        /* \"#utility.yul\":19525:19551   */\n      swap1\n      pop\n        /* \"#utility.yul\":19597:19606   */\n      dup2\n        /* \"#utility.yul\":19591:19595   */\n      dup2\n        /* \"#utility.yul\":19587:19607   */\n      sub\n        /* \"#utility.yul\":19583:19584   */\n      0x00\n        /* \"#utility.yul\":19572:19581   */\n      dup4\n        /* \"#utility.yul\":19568:19585   */\n      add\n        /* \"#utility.yul\":19561:19608   */\n      mstore\n        /* \"#utility.yul\":19625:19756   */\n      tag_444\n        /* \"#utility.yul\":19751:19755   */\n      dup2\n        /* \"#utility.yul\":19625:19756   */\n      tag_244\n      jump\t// in\n    tag_444:\n        /* \"#utility.yul\":19617:19756   */\n      swap1\n      pop\n        /* \"#utility.yul\":19344:19763   */\n      swap2\n      swap1\n      pop\n      jump\t// out\n        /* \"#utility.yul\":19769:19949   */\n    tag_245:\n        /* \"#utility.yul\":19817:19894   */\n      0x4e487b7100000000000000000000000000000000000000000000000000000000\n        /* \"#utility.yul\":19814:19815   */\n      0x00\n        /* \"#utility.yul\":19807:19895   */\n      mstore\n        /* \"#utility.yul\":19914:19918   */\n      0x11\n        /* \"#utility.yul\":19911:19912   */\n      0x04\n        /* \"#utility.yul\":19904:19919   */\n      mstore\n        /* \"#utility.yul\":19938:19942   */\n      0x24\n        /* \"#utility.yul\":19935:19936   */\n      0x00\n        /* \"#utility.yul\":19928:19943   */\n      revert\n        /* \"#utility.yul\":19955:20146   */\n    tag_125:\n        /* \"#utility.yul\":19995:19998   */\n      0x00\n        /* \"#utility.yul\":20014:20034   */\n      tag_447\n        /* \"#utility.yul\":20032:20033   */\n      dup3\n        /* \"#utility.yul\":20014:20034   */\n      tag_205\n      jump\t// in\n    tag_447:\n        /* \"#utility.yul\":20009:20034   */\n      swap2\n      pop\n        /* \"#utility.yul\":20048:20068   */\n      tag_448\n        /* \"#utility.yul\":20066:20067   */\n      dup4\n        /* \"#utility.yul\":20048:20068   */\n      tag_205\n      jump\t// in\n    tag_448:\n        /* \"#utility.yul\":20043:20068   */\n      swap3\n      pop\n        /* \"#utility.yul\":20091:20092   */\n      dup3\n        /* \"#utility.yul\":20088:20089   */\n      dup3\n        /* \"#utility.yul\":20084:20093   */\n      add\n        /* \"#utility.yul\":20077:20093   */\n      swap1\n      pop\n        /* \"#utility.yul\":20112:20115   */\n      dup1\n        /* \"#utility.yul\":20109:20110   */\n      dup3\n        /* \"#utility.yul\":20106:20116   */\n      gt\n        /* \"#utility.yul\":20103:20139   */\n      iszero\n      tag_449\n      jumpi\n        /* \"#utility.yul\":20119:20137   */\n      tag_450\n      tag_245\n      jump\t// in\n    tag_450:\n        /* \"#utility.yul\":20103:20139   */\n    tag_449:\n        /* \"#utility.yul\":19955:20146   */\n      swap3\n      swap2\n      pop\n      pop\n      jump\t// out\n        /* \"#utility.yul\":20152:20332   */\n    tag_246:\n        /* \"#utility.yul\":20200:20277   */\n      0x4e487b7100000000000000000000000000000000000000000000000000000000\n        /* \"#utility.yul\":20197:20198   */\n      0x00\n        /* \"#utility.yul\":20190:20278   */\n      mstore\n        /* \"#utility.yul\":20297:20301   */\n      0x22\n        /* \"#utility.yul\":20294:20295   */\n      0x04\n        /* \"#utility.yul\":20287:20302   */\n      mstore\n        /* \"#utility.yul\":20321:20325   */\n      0x24\n        /* \"#utility.yul\":20318:20319   */\n      0x00\n        /* \"#utility.yul\":20311:20326   */\n      revert\n        /* \"#utility.yul\":20338:20658   */\n    tag_133:\n        /* \"#utility.yul\":20382:20388   */\n      0x00\n        /* \"#utility.yul\":20419:20420   */\n      0x02\n        /* \"#utility.yul\":20413:20417   */\n      dup3\n        /* \"#utility.yul\":20409:20421   */\n      div\n        /* \"#utility.yul\":20399:20421   */\n      swap1\n      pop\n        /* \"#utility.yul\":20466:20467   */\n      0x01\n        /* \"#utility.yul\":20460:20464   */\n      dup3\n        /* \"#utility.yul\":20456:20468   */\n      and\n        /* \"#utility.yul\":20487:20505   */\n      dup1\n        /* \"#utility.yul\":20477:20558   */\n      tag_453\n      jumpi\n        /* \"#utility.yul\":20543:20547   */\n      0x7f\n        /* \"#utility.yul\":20535:20541   */\n      dup3\n        /* \"#utility.yul\":20531:20548   */\n      and\n        /* \"#utility.yul\":20521:20548   */\n      swap2\n      pop\n        /* \"#utility.yul\":20477:20558   */\n    tag_453:\n        /* \"#utility.yul\":20605:20607   */\n      0x20\n        /* \"#utility.yul\":20597:20603   */\n      dup3\n        /* \"#utility.yul\":20594:20608   */\n      lt\n        /* \"#utility.yul\":20574:20592   */\n      dup2\n        /* \"#utility.yul\":20571:20609   */\n      sub\n        /* \"#utility.yul\":20568:20652   */\n      tag_454\n      jumpi\n        /* \"#utility.yul\":20624:20642   */\n      tag_455\n      tag_246\n      jump\t// in\n    tag_455:\n        /* \"#utility.yul\":20568:20652   */\n    tag_454:\n        /* \"#utility.yul\":20389:20658   */\n      pop\n        /* \"#utility.yul\":20338:20658   */\n      swap2\n      swap1\n      pop\n      jump\t// out\n        /* \"#utility.yul\":20664:20805   */\n    tag_247:\n        /* \"#utility.yul\":20713:20717   */\n      0x00\n        /* \"#utility.yul\":20736:20739   */\n      dup2\n        /* \"#utility.yul\":20728:20739   */\n      swap1\n      pop\n        /* \"#utility.yul\":20759:20762   */\n      dup2\n        /* \"#utility.yul\":20756:20757   */\n      0x00\n        /* \"#utility.yul\":20749:20763   */\n      mstore\n        /* \"#utility.yul\":20793:20797   */\n      0x20\n        /* \"#utility.yul\":20790:20791   */\n      0x00\n        /* \"#utility.yul\":20780:20798   */\n      keccak256\n        /* \"#utility.yul\":20772:20798   */\n      swap1\n      pop\n        /* \"#utility.yul\":20664:20805   */\n      swap2\n      swap1\n      pop\n      jump\t// out\n        /* \"#utility.yul\":20811:20904   */\n    tag_248:\n        /* \"#utility.yul\":20848:20854   */\n      0x00\n        /* \"#utility.yul\":20895:20897   */\n      0x20\n        /* \"#utility.yul\":20890:20892   */\n      0x1f\n        /* \"#utility.yul\":20883:20888   */\n      dup4\n        /* \"#utility.yul\":20879:20893   */\n      add\n        /* \"#utility.yul\":20875:20898   */\n      div\n        /* \"#utility.yul\":20865:20898   */\n      swap1\n      pop\n        /* \"#utility.yul\":20811:20904   */\n      swap2\n      swap1\n      pop\n      jump\t// out\n        /* \"#utility.yul\":20910:21017   */\n    tag_249:\n        /* \"#utility.yul\":20954:20962   */\n      0x00\n        /* \"#utility.yul\":21004:21009   */\n      dup3\n        /* \"#utility.yul\":20998:21002   */\n      dup3\n        /* \"#utility.yul\":20994:21010   */\n      shl\n        /* \"#utility.yul\":20973:21010   */\n      swap1\n      pop\n        /* \"#utility.yul\":20910:21017   */\n      swap3\n      swap2\n      pop\n      pop\n      jump\t// out\n        /* \"#utility.yul\":21023:21416   */\n    tag_250:\n        /* \"#utility.yul\":21092:21098   */\n      0x00\n        /* \"#utility.yul\":21142:21143   */\n      0x08\n        /* \"#utility.yul\":21130:21140   */\n      dup4\n        /* \"#utility.yul\":21126:21144   */\n      mul\n        /* \"#utility.yul\":21165:21262   */\n      tag_460\n        /* \"#utility.yul\":21195:21261   */\n      0xffffffffffffffffffffffffffffffffffffffffffffffffffffffffffffffff\n        /* \"#utility.yul\":21184:21193   */\n      dup3\n        /* \"#utility.yul\":21165:21262   */\n      tag_249\n      jump\t// in\n    tag_460:\n        /* \"#utility.yul\":21283:21322   */\n      tag_461\n        /* \"#utility.yul\":21313:21321   */\n      dup7\n        /* \"#utility.yul\":21302:21311   */\n      dup4\n        /* \"#utility.yul\":21283:21322   */\n      tag_249\n      jump\t// in\n    tag_461:\n        /* \"#utility.yul\":21271:21322   */\n      swap6\n      pop\n        /* \"#utility.yul\":21355:21359   */\n      dup1\n        /* \"#utility.yul\":21351:21360   */\n      not\n        /* \"#utility.yul\":21344:21349   */\n      dup5\n        /* \"#utility.yul\":21340:21361   */\n      and\n        /* \"#utility.yul\":21331:21361   */\n      swap4\n      pop\n        /* \"#utility.yul\":21404:21408   */\n      dup1\n        /* \"#utility.yul\":21394:21402   */\n      dup7\n        /* \"#utility.yul\":21390:21409   */\n      and\n        /* \"#utility.yul\":21383:21388   */\n      dup5\n        /* \"#utility.yul\":21380:21410   */\n      or\n        /* \"#utility.yul\":21370:21410   */\n      swap3\n      pop\n        /* \"#utility.yul\":21099:21416   */\n      pop\n      pop\n        /* \"#utility.yul\":21023:21416   */\n      swap4\n      swap3\n      pop\n      pop\n      pop\n      jump\t// out\n        /* \"#utility.yul\":21422:21564   */\n    tag_251:\n        /* \"#utility.yul\":21472:21481   */\n      0x00\n        /* \"#utility.yul\":21505:21558   */\n      tag_463\n        /* \"#utility.yul\":21523:21557   */\n      tag_464\n        /* \"#utility.yul\":21532:21556   */\n      tag_465\n        /* \"#utility.yul\":21550:21555   */\n      dup5\n        /* \"#utility.yul\":21532:21556   */\n      tag_205\n      jump\t// in\n    tag_465:\n        /* \"#utility.yul\":21523:21557   */\n      tag_228\n      jump\t// in\n    tag_464:\n        /* \"#utility.yul\":21505:21558   */\n      tag_205\n      jump\t// in\n    tag_463:\n        /* \"#utility.yul\":21492:21558   */\n      swap1\n      pop\n        /* \"#utility.yul\":21422:21564   */\n      swap2\n      swap1\n      pop\n      jump\t// out\n        /* \"#utility.yul\":21570:21645   */\n    tag_252:\n        /* \"#utility.yul\":21613:21616   */\n      0x00\n        /* \"#utility.yul\":21634:21639   */\n      dup2\n        /* \"#utility.yul\":21627:21639   */\n      swap1\n      pop\n        /* \"#utility.yul\":21570:21645   */\n      swap2\n      swap1\n      pop\n      jump\t// out\n        /* \"#utility.yul\":21651:21920   */\n    tag_253:\n        /* \"#utility.yul\":21761:21800   */\n      tag_468\n        /* \"#utility.yul\":21792:21799   */\n      dup4\n        /* \"#utility.yul\":21761:21800   */\n      tag_251\n      jump\t// in\n    tag_468:\n        /* \"#utility.yul\":21822:21913   */\n      tag_469\n        /* \"#utility.yul\":21871:21912   */\n      tag_470\n        /* \"#utility.yul\":21895:21911   */\n      dup3\n        /* \"#utility.yul\":21871:21912   */\n      tag_252\n      jump\t// in\n    tag_470:\n        /* \"#utility.yul\":21863:21869   */\n      dup5\n        /* \"#utility.yul\":21856:21860   */\n      dup5\n        /* \"#utility.yul\":21850:21861   */\n      sload\n        /* \"#utility.yul\":21822:21913   */\n      tag_250\n      jump\t// in\n    tag_469:\n        /* \"#utility.yul\":21816:21820   */\n      dup3\n        /* \"#utility.yul\":21809:21914   */\n      sstore\n        /* \"#utility.yul\":21727:21920   */\n      pop\n        /* \"#utility.yul\":21651:21920   */\n      pop\n      pop\n      pop\n      jump\t// out\n        /* \"#utility.yul\":21926:21999   */\n    tag_254:\n        /* \"#utility.yul\":21971:21974   */\n      0x00\n        /* \"#utility.yul\":21926:21999   */\n      swap1\n      jump\t// out\n        /* \"#utility.yul\":22005:22194   */\n    tag_255:\n        /* \"#utility.yul\":22082:22114   */\n      tag_473\n      tag_254\n      jump\t// in\n    tag_473:\n        /* \"#utility.yul\":22123:22188   */\n      tag_474\n        /* \"#utility.yul\":22181:22187   */\n      dup2\n        /* \"#utility.yul\":22173:22179   */\n      dup5\n        /* \"#utility.yul\":22167:22171   */\n      dup5\n        /* \"#utility.yul\":22123:22188   */\n      tag_253\n      jump\t// in\n    tag_474:\n        /* \"#utility.yul\":22058:22194   */\n      pop\n        /* \"#utility.yul\":22005:22194   */\n      pop\n      pop\n      jump\t// out\n        /* \"#utility.yul\":22200:22386   */\n    tag_256:\n        /* \"#utility.yul\":22260:22380   */\n    tag_476:\n        /* \"#utility.yul\":22277:22280   */\n      dup2\n        /* \"#utility.yul\":22270:22275   */\n      dup2\n        /* \"#utility.yul\":22267:22281   */\n      lt\n        /* \"#utility.yul\":22260:22380   */\n      iszero\n      tag_478\n      jumpi\n        /* \"#utility.yul\":22331:22370   */\n      tag_479\n        /* \"#utility.yul\":22368:22369   */\n      0x00\n        /* \"#utility.yul\":22361:22366   */\n      dup3\n        /* \"#utility.yul\":22331:22370   */\n      tag_255\n      jump\t// in\n    tag_479:\n        /* \"#utility.yul\":22304:22305   */\n      0x01\n        /* \"#utility.yul\":22297:22302   */\n      dup2\n        /* \"#utility.yul\":22293:22306   */\n      add\n        /* \"#utility.yul\":22284:22306   */\n      swap1\n      pop\n        /* \"#utility.yul\":22260:22380   */\n      jump(tag_476)\n    tag_478:\n        /* \"#utility.yul\":22200:22386   */\n      pop\n      pop\n      jump\t// out\n        /* \"#utility.yul\":22392:22935   */\n    tag_257:\n        /* \"#utility.yul\":22493:22495   */\n      0x1f\n        /* \"#utility.yul\":22488:22491   */\n      dup3\n        /* \"#utility.yul\":22485:22496   */\n      gt\n        /* \"#utility.yul\":22482:22928   */\n      iszero\n      tag_481\n      jumpi\n        /* \"#utility.yul\":22527:22565   */\n      tag_482\n        /* \"#utility.yul\":22559:22564   */\n      dup2\n        /* \"#utility.yul\":22527:22565   */\n      tag_247\n      jump\t// in\n    tag_482:\n        /* \"#utility.yul\":22611:22640   */\n      tag_483\n        /* \"#utility.yul\":22629:22639   */\n      dup5\n        /* \"#utility.yul\":22611:22640   */\n      tag_248\n      jump\t// in\n    tag_483:\n        /* \"#utility.yul\":22601:22609   */\n      dup2\n        /* \"#utility.yul\":22597:22641   */\n      add\n        /* \"#utility.yul\":22794:22796   */\n      0x20\n        /* \"#utility.yul\":22782:22792   */\n      dup6\n        /* \"#utility.yul\":22779:22797   */\n      lt\n        /* \"#utility.yul\":22776:22825   */\n      iszero\n      tag_484\n      jumpi\n        /* \"#utility.yul\":22815:22823   */\n      dup2\n        /* \"#utility.yul\":22800:22823   */\n      swap1\n      pop\n        /* \"#utility.yul\":22776:22825   */\n    tag_484:\n        /* \"#utility.yul\":22838:22918   */\n      tag_485\n        /* \"#utility.yul\":22894:22916   */\n      tag_486\n        /* \"#utility.yul\":22912:22915   */\n      dup6\n        /* \"#utility.yul\":22894:22916   */\n      tag_248\n      jump\t// in\n    tag_486:\n        /* \"#utility.yul\":22884:22892   */\n      dup4\n        /* \"#utility.yul\":22880:22917   */\n      add\n        /* \"#utility.yul\":22867:22878   */\n      dup3\n        /* \"#utility.yul\":22838:22918   */\n      tag_256\n      jump\t// in\n    tag_485:\n        /* \"#utility.yul\":22497:22928   */\n      pop\n      pop\n        /* \"#utility.yul\":22482:22928   */\n    tag_481:\n        /* \"#utility.yul\":22392:22935   */\n      pop\n      pop\n      pop\n      jump\t// out\n        /* \"#utility.yul\":22941:23058   */\n    tag_258:\n        /* \"#utility.yul\":22995:23003   */\n      0x00\n        /* \"#utility.yul\":23045:23050   */\n      dup3\n        /* \"#utility.yul\":23039:23043   */\n      dup3\n        /* \"#utility.yul\":23035:23051   */\n      shr\n        /* \"#utility.yul\":23014:23051   */\n      swap1\n      pop\n        /* \"#utility.yul\":22941:23058   */\n      swap3\n      swap2\n      pop\n      pop\n      jump\t// out\n        /* \"#utility.yul\":23064:23233   */\n    tag_259:\n        /* \"#utility.yul\":23108:23114   */\n      0x00\n        /* \"#utility.yul\":23141:23192   */\n      tag_489\n        /* \"#utility.yul\":23189:23190   */\n      0x00\n        /* \"#utility.yul\":23185:23191   */\n      not\n        /* \"#utility.yul\":23177:23182   */\n      dup5\n        /* \"#utility.yul\":23174:23175   */\n      0x08\n        /* \"#utility.yul\":23170:23183   */\n      mul\n        /* \"#utility.yul\":23141:23192   */\n      tag_258\n      jump\t// in\n    tag_489:\n        /* \"#utility.yul\":23137:23193   */\n      not\n        /* \"#utility.yul\":23222:23226   */\n      dup1\n        /* \"#utility.yul\":23216:23220   */\n      dup4\n        /* \"#utility.yul\":23212:23227   */\n      and\n        /* \"#utility.yul\":23202:23227   */\n      swap2\n      pop\n        /* \"#utility.yul\":23115:23233   */\n      pop\n        /* \"#utility.yul\":23064:23233   */\n      swap3\n      swap2\n      pop\n      pop\n      jump\t// out\n        /* \"#utility.yul\":23238:23533   */\n    tag_260:\n        /* \"#utility.yul\":23314:23318   */\n      0x00\n        /* \"#utility.yul\":23460:23489   */\n      tag_491\n        /* \"#utility.yul\":23485:23488   */\n      dup4\n        /* \"#utility.yul\":23479:23483   */\n      dup4\n        /* \"#utility.yul\":23460:23489   */\n      tag_259\n      jump\t// in\n    tag_491:\n        /* \"#utility.yul\":23452:23489   */\n      swap2\n      pop\n        /* \"#utility.yul\":23522:23525   */\n      dup3\n        /* \"#utility.yul\":23519:23520   */\n      0x02\n        /* \"#utility.yul\":23515:23526   */\n      mul\n        /* \"#utility.yul\":23509:23513   */\n      dup3\n        /* \"#utility.yul\":23506:23527   */\n      or\n        /* \"#utility.yul\":23498:23527   */\n      swap1\n      pop\n        /* \"#utility.yul\":23238:23533   */\n      swap3\n      swap2\n      pop\n      pop\n      jump\t// out\n        /* \"#utility.yul\":23538:24933   */\n    tag_128:\n        /* \"#utility.yul\":23655:23692   */\n      tag_493\n        /* \"#utility.yul\":23688:23691   */\n      dup3\n        /* \"#utility.yul\":23655:23692   */\n      tag_209\n      jump\t// in\n    tag_493:\n        /* \"#utility.yul\":23757:23775   */\n      0xffffffffffffffff\n        /* \"#utility.yul\":23749:23755   */\n      dup2\n        /* \"#utility.yul\":23746:23776   */\n      gt\n        /* \"#utility.yul\":23743:23799   */\n      iszero\n      tag_494\n      jumpi\n        /* \"#utility.yul\":23779:23797   */\n      tag_495\n      tag_198\n      jump\t// in\n    tag_495:\n        /* \"#utility.yul\":23743:23799   */\n    tag_494:\n        /* \"#utility.yul\":23823:23861   */\n      tag_496\n        /* \"#utility.yul\":23855:23859   */\n      dup3\n        /* \"#utility.yul\":23849:23860   */\n      sload\n        /* \"#utility.yul\":23823:23861   */\n      tag_133\n      jump\t// in\n    tag_496:\n        /* \"#utility.yul\":23908:23975   */\n      tag_497\n        /* \"#utility.yul\":23968:23974   */\n      dup3\n        /* \"#utility.yul\":23960:23966   */\n      dup3\n        /* \"#utility.yul\":23954:23958   */\n      dup6\n        /* \"#utility.yul\":23908:23975   */\n      tag_257\n      jump\t// in\n    tag_497:\n        /* \"#utility.yul\":24002:24003   */\n      0x00\n        /* \"#utility.yul\":24026:24030   */\n      0x20\n        /* \"#utility.yul\":24013:24030   */\n      swap1\n      pop\n        /* \"#utility.yul\":24058:24060   */\n      0x1f\n        /* \"#utility.yul\":24050:24056   */\n      dup4\n        /* \"#utility.yul\":24047:24061   */\n      gt\n        /* \"#utility.yul\":24075:24076   */\n      0x01\n        /* \"#utility.yul\":24070:24688   */\n      dup2\n      eq\n      tag_499\n      jumpi\n        /* \"#utility.yul\":24732:24733   */\n      0x00\n        /* \"#utility.yul\":24749:24755   */\n      dup5\n        /* \"#utility.yul\":24746:24823   */\n      iszero\n      tag_500\n      jumpi\n        /* \"#utility.yul\":24798:24807   */\n      dup3\n        /* \"#utility.yul\":24793:24796   */\n      dup8\n        /* \"#utility.yul\":24789:24808   */\n      add\n        /* \"#utility.yul\":24783:24809   */\n      mload\n        /* \"#utility.yul\":24774:24809   */\n      swap1\n      pop\n        /* \"#utility.yul\":24746:24823   */\n    tag_500:\n        /* \"#utility.yul\":24849:24916   */\n      tag_501\n        /* \"#utility.yul\":24909:24915   */\n      dup6\n        /* \"#utility.yul\":24902:24907   */\n      dup3\n        /* \"#utility.yul\":24849:24916   */\n      tag_260\n      jump\t// in\n    tag_501:\n        /* \"#utility.yul\":24843:24847   */\n      dup7\n        /* \"#utility.yul\":24836:24917   */\n      sstore\n        /* \"#utility.yul\":24705:24927   */\n      pop\n        /* \"#utility.yul\":24040:24927   */\n      jump(tag_498)\n        /* \"#utility.yul\":24070:24688   */\n    tag_499:\n        /* \"#utility.yul\":24122:24126   */\n      0x1f\n        /* \"#utility.yul\":24118:24127   */\n      not\n        /* \"#utility.yul\":24110:24116   */\n      dup5\n        /* \"#utility.yul\":24106:24128   */\n      and\n        /* \"#utility.yul\":24156:24193   */\n      tag_502\n        /* \"#utility.yul\":24188:24192   */\n      dup7\n        /* \"#utility.yul\":24156:24193   */\n      tag_247\n      jump\t// in\n    tag_502:\n        /* \"#utility.yul\":24215:24216   */\n      0x00\n        /* \"#utility.yul\":24229:24437   */\n    tag_503:\n        /* \"#utility.yul\":24243:24250   */\n      dup3\n        /* \"#utility.yul\":24240:24241   */\n      dup2\n        /* \"#utility.yul\":24237:24251   */\n      lt\n        /* \"#utility.yul\":24229:24437   */\n      iszero\n      tag_505\n      jumpi\n        /* \"#utility.yul\":24322:24331   */\n      dup5\n        /* \"#utility.yul\":24317:24320   */\n      dup10\n        /* \"#utility.yul\":24313:24332   */\n      add\n        /* \"#utility.yul\":24307:24333   */\n      mload\n        /* \"#utility.yul\":24299:24305   */\n      dup3\n        /* \"#utility.yul\":24292:24334   */\n      sstore\n        /* \"#utility.yul\":24373:24374   */\n      0x01\n        /* \"#utility.yul\":24365:24371   */\n      dup3\n        /* \"#utility.yul\":24361:24375   */\n      add\n        /* \"#utility.yul\":24351:24375   */\n      swap2\n      pop\n        /* \"#utility.yul\":24420:24422   */\n      0x20\n        /* \"#utility.yul\":24409:24418   */\n      dup6\n        /* \"#utility.yul\":24405:24423   */\n      add\n        /* \"#utility.yul\":24392:24423   */\n      swap5\n      pop\n        /* \"#utility.yul\":24266:24270   */\n      0x20\n        /* \"#utility.yul\":24263:24264   */\n      dup2\n        /* \"#utility.yul\":24259:24271   */\n      add\n        /* \"#utility.yul\":24254:24271   */\n      swap1\n      pop\n        /* \"#utility.yul\":24229:24437   */\n      jump(tag_503)\n    tag_505:\n        /* \"#utility.yul\":24465:24471   */\n      dup7\n        /* \"#utility.yul\":24456:24463   */\n      dup4\n        /* \"#utility.yul\":24453:24472   */\n      lt\n        /* \"#utility.yul\":24450:24629   */\n      iszero\n      tag_506\n      jumpi\n        /* \"#utility.yul\":24523:24532   */\n      dup5\n        /* \"#utility.yul\":24518:24521   */\n      dup10\n        /* \"#utility.yul\":24514:24533   */\n      add\n        /* \"#utility.yul\":24508:24534   */\n      mload\n        /* \"#utility.yul\":24566:24614   */\n      tag_507\n        /* \"#utility.yul\":24608:24612   */\n      0x1f\n        /* \"#utility.yul\":24600:24606   */\n      dup10\n        /* \"#utility.yul\":24596:24613   */\n      and\n        /* \"#utility.yul\":24585:24594   */\n      dup3\n        /* \"#utility.yul\":24566:24614   */\n      tag_259\n      jump\t// in\n    tag_507:\n        /* \"#utility.yul\":24558:24564   */\n      dup4\n        /* \"#utility.yul\":24551:24615   */\n      sstore\n        /* \"#utility.yul\":24473:24629   */\n      pop\n        /* \"#utility.yul\":24450:24629   */\n    tag_506:\n        /* \"#utility.yul\":24675:24676   */\n      0x01\n        /* \"#utility.yul\":24671:24672   */\n      0x02\n        /* \"#utility.yul\":24663:24669   */\n      dup9\n        /* \"#utility.yul\":24659:24673   */\n      mul\n        /* \"#utility.yul\":24655:24677   */\n      add\n        /* \"#utility.yul\":24649:24653   */\n      dup9\n        /* \"#utility.yul\":24642:24678   */\n      sstore\n        /* \"#utility.yul\":24077:24688   */\n      pop\n      pop\n      pop\n        /* \"#utility.yul\":24040:24927   */\n    tag_498:\n      pop\n        /* \"#utility.yul\":23630:24933   */\n      pop\n      pop\n      pop\n        /* \"#utility.yul\":23538:24933   */\n      pop\n      pop\n      jump\t// out\n        /* \"#utility.yul\":24939:25112   */\n    tag_261:\n        /* \"#utility.yul\":25079:25104   */\n      0x4f776e65722063616e6e6f742062652061206368696c64000000000000000000\n        /* \"#utility.yul\":25075:25076   */\n      0x00\n        /* \"#utility.yul\":25067:25073   */\n      dup3\n        /* \"#utility.yul\":25063:25077   */\n      add\n        /* \"#utility.yul\":25056:25105   */\n      mstore\n        /* \"#utility.yul\":24939:25112   */\n      pop\n      jump\t// out\n        /* \"#utility.yul\":25118:25484   */\n    tag_262:\n        /* \"#utility.yul\":25260:25263   */\n      0x00\n        /* \"#utility.yul\":25281:25348   */\n      tag_510\n        /* \"#utility.yul\":25345:25347   */\n      0x17\n        /* \"#utility.yul\":25340:25343   */\n      dup4\n        /* \"#utility.yul\":25281:25348   */\n      tag_210\n      jump\t// in\n    tag_510:\n        /* \"#utility.yul\":25274:25348   */\n      swap2\n      pop\n        /* \"#utility.yul\":25357:25450   */\n      tag_511\n        /* \"#utility.yul\":25446:25449   */\n      dup3\n        /* \"#utility.yul\":25357:25450   */\n      tag_261\n      jump\t// in\n    tag_511:\n        /* \"#utility.yul\":25475:25477   */\n      0x20\n        /* \"#utility.yul\":25470:25473   */\n      dup3\n        /* \"#utility.yul\":25466:25478   */\n      add\n        /* \"#utility.yul\":25459:25478   */\n      swap1\n      pop\n        /* \"#utility.yul\":25118:25484   */\n      swap2\n      swap1\n      pop\n      jump\t// out\n        /* \"#utility.yul\":25490:25909   */\n    tag_172:\n        /* \"#utility.yul\":25656:25660   */\n      0x00\n        /* \"#utility.yul\":25694:25696   */\n      0x20\n        /* \"#utility.yul\":25683:25692   */\n      dup3\n        /* \"#utility.yul\":25679:25697   */\n      add\n        /* \"#utility.yul\":25671:25697   */\n      swap1\n      pop\n        /* \"#utility.yul\":25743:25752   */\n      dup2\n        /* \"#utility.yul\":25737:25741   */\n      dup2\n        /* \"#utility.yul\":25733:25753   */\n      sub\n        /* \"#utility.yul\":25729:25730   */\n      0x00\n        /* \"#utility.yul\":25718:25727   */\n      dup4\n        /* \"#utility.yul\":25714:25731   */\n      add\n        /* \"#utility.yul\":25707:25754   */\n      mstore\n        /* \"#utility.yul\":25771:25902   */\n      tag_513\n        /* \"#utility.yul\":25897:25901   */\n      dup2\n        /* \"#utility.yul\":25771:25902   */\n      tag_262\n      jump\t// in\n    tag_513:\n        /* \"#utility.yul\":25763:25902   */\n      swap1\n      pop\n        /* \"#utility.yul\":25490:25909   */\n      swap2\n      swap1\n      pop\n      jump\t// out\n        /* \"#utility.yul\":25915:26093   */\n    tag_263:\n        /* \"#utility.yul\":26055:26085   */\n      0x41646472657373206973206e6f7420696e206b69647320617272617900000000\n        /* \"#utility.yul\":26051:26052   */\n      0x00\n        /* \"#utility.yul\":26043:26049   */\n      dup3\n        /* \"#utility.yul\":26039:26053   */\n      add\n        /* \"#utility.yul\":26032:26086   */\n      mstore\n        /* \"#utility.yul\":25915:26093   */\n      pop\n      jump\t// out\n        /* \"#utility.yul\":26099:26465   */\n    tag_264:\n        /* \"#utility.yul\":26241:26244   */\n      0x00\n        /* \"#utility.yul\":26262:26329   */\n      tag_516\n        /* \"#utility.yul\":26326:26328   */\n      0x1c\n        /* \"#utility.yul\":26321:26324   */\n      dup4\n        /* \"#utility.yul\":26262:26329   */\n      tag_210\n      jump\t// in\n    tag_516:\n        /* \"#utility.yul\":26255:26329   */\n      swap2\n      pop\n        /* \"#utility.yul\":26338:26431   */\n      tag_517\n        /* \"#utility.yul\":26427:26430   */\n      dup3\n        /* \"#utility.yul\":26338:26431   */\n      tag_263\n      jump\t// in\n    tag_517:\n        /* \"#utility.yul\":26456:26458   */\n      0x20\n        /* \"#utility.yul\":26451:26454   */\n      dup3\n        /* \"#utility.yul\":26447:26459   */\n      add\n        /* \"#utility.yul\":26440:26459   */\n      swap1\n      pop\n        /* \"#utility.yul\":26099:26465   */\n      swap2\n      swap1\n      pop\n      jump\t// out\n        /* \"#utility.yul\":26471:26890   */\n    tag_181:\n        /* \"#utility.yul\":26637:26641   */\n      0x00\n        /* \"#utility.yul\":26675:26677   */\n      0x20\n        /* \"#utility.yul\":26664:26673   */\n      dup3\n        /* \"#utility.yul\":26660:26678   */\n      add\n        /* \"#utility.yul\":26652:26678   */\n      swap1\n      pop\n        /* \"#utility.yul\":26724:26733   */\n      dup2\n        /* \"#utility.yul\":26718:26722   */\n      dup2\n        /* \"#utility.yul\":26714:26734   */\n      sub\n        /* \"#utility.yul\":26710:26711   */\n      0x00\n        /* \"#utility.yul\":26699:26708   */\n      dup4\n        /* \"#utility.yul\":26695:26712   */\n      add\n        /* \"#utility.yul\":26688:26735   */\n      mstore\n        /* \"#utility.yul\":26752:26883   */\n      tag_519\n        /* \"#utility.yul\":26878:26882   */\n      dup2\n        /* \"#utility.yul\":26752:26883   */\n      tag_264\n      jump\t// in\n    tag_519:\n        /* \"#utility.yul\":26744:26883   */\n      swap1\n      pop\n        /* \"#utility.yul\":26471:26890   */\n      swap2\n      swap1\n      pop\n      jump\t// out\n        /* \"#utility.yul\":26896:27338   */\n    tag_187:\n        /* \"#utility.yul\":27045:27049   */\n      0x00\n        /* \"#utility.yul\":27083:27085   */\n      0x60\n        /* \"#utility.yul\":27072:27081   */\n      dup3\n        /* \"#utility.yul\":27068:27086   */\n      add\n        /* \"#utility.yul\":27060:27086   */\n      swap1\n      pop\n        /* \"#utility.yul\":27096:27167   */\n      tag_521\n        /* \"#utility.yul\":27164:27165   */\n      0x00\n        /* \"#utility.yul\":27153:27162   */\n      dup4\n        /* \"#utility.yul\":27149:27166   */\n      add\n        /* \"#utility.yul\":27140:27146   */\n      dup7\n        /* \"#utility.yul\":27096:27167   */\n      tag_217\n      jump\t// in\n    tag_521:\n        /* \"#utility.yul\":27177:27249   */\n      tag_522\n        /* \"#utility.yul\":27245:27247   */\n      0x20\n        /* \"#utility.yul\":27234:27243   */\n      dup4\n        /* \"#utility.yul\":27230:27248   */\n      add\n        /* \"#utility.yul\":27221:27227   */\n      dup6\n        /* \"#utility.yul\":27177:27249   */\n      tag_213\n      jump\t// in\n    tag_522:\n        /* \"#utility.yul\":27259:27331   */\n      tag_523\n        /* \"#utility.yul\":27327:27329   */\n      0x40\n        /* \"#utility.yul\":27316:27325   */\n      dup4\n        /* \"#utility.yul\":27312:27330   */\n      add\n        /* \"#utility.yul\":27303:27309   */\n      dup5\n        /* \"#utility.yul\":27259:27331   */\n      tag_213\n      jump\t// in\n    tag_523:\n        /* \"#utility.yul\":26896:27338   */\n      swap5\n      swap4\n      pop\n      pop\n      pop\n      pop\n      jump\t// out\n\n    auxdata: 0xa2646970667358221220efa12878852dd60627cf60246ff5e4f61197b450f24df6ac467d8d4175b00ec864736f6c634300081a0033\n}\n",
				"bytecode": {
					"linkReferences": {},
					"object": "6080604052348015600e575f80fd5b50335f806101000a81548173ffffffffffffffffffffffffffffffffffffffff021916908373ffffffffffffffffffffffffffffffffffffffff160217905550611d538061005b5f395ff3fe60806040526004361061007a575f3560e01c8063a25db8ce1161004d578063a25db8ce1461012d578063b31610db14610169578063b69ef8a8146101a5578063f340fa01146101cf5761007a565b806351cff8d91461007e57806355da12ce1461009a5780637285fd3a146100c25780638da5cb5b14610103575b5f80fd5b61009860048036038101906100939190611062565b6101eb565b005b3480156100a5575f80fd5b506100c060048036038101906100bb91906111c9565b61054f565b005b3480156100cd575f80fd5b506100e860048036038101906100e39190611284565b6109d4565b6040516100fa96959493929190611347565b60405180910390f35b34801561010e575f80fd5b50610117610b52565b60405161012491906113d4565b60405180910390f35b348015610138575f80fd5b50610153600480360381019061014e9190611417565b610b75565b6040516101609190611442565b60405180910390f35b348015610174575f80fd5b5061018f600480360381019061018a9190611417565b610bc1565b60405161019c919061145b565b60405180910390f35b3480156101b0575f80fd5b506101b9610c67565b6040516101c6919061145b565b60405180910390f35b6101e960048036038101906101e49190611417565b610d44565b005b805f73ffffffffffffffffffffffffffffffffffffffff168173ffffffffffffffffffffffffffffffffffffffff1603610251576040517f6623c80d00000000000000000000000000000000000000000000000000000000815260040160405180910390fd5b5f61025b83610bc1565b90505f6001828154811061027257610271611474565b5b905f5260205f20906006020160040154116102c2576040517f08c379a00000000000000000000000000000000000000000000000000000000081526004016102b9906114eb565b60405180910390fd5b600181815481106102d6576102d5611474565b5b905f5260205f2090600602015f015f9054906101000a900473ffffffffffffffffffffffffffffffffffffffff1673ffffffffffffffffffffffffffffffffffffffff163373ffffffffffffffffffffffffffffffffffffffff1614610371576040517f08c379a000000000000000000000000000000000000000000000000000000000815260040161036890611553565b60405180910390fd5b6001818154811061038557610384611474565b5b905f5260205f2090600602016003015442116103d6576040517f08c379a00000000000000000000000000000000000000000000000000000000081526004016103cd906115bb565b60405180910390fd5b600181815481106103ea576103e9611474565b5b905f5260205f2090600602016005015f9054906101000a900460ff1615610446576040517f08c379a000000000000000000000000000000000000000000000000000000000815260040161043d90611623565b60405180910390fd5b5f6001828154811061045b5761045a611474565b5b905f5260205f209060060201600401819055508273ffffffffffffffffffffffffffffffffffffffff166108fc6001838154811061049c5761049b611474565b5b905f5260205f2090600602016004015490811502906040515f60405180830381858888f193505050501580156104d4573d5f803e3d5ffd5b507fdf273cb619d95419a9cd0ec88123a0538c85064229baa6363788f743fff90deb8334426040516105089392919061169c565b60405180910390a1600180828154811061052557610524611474565b5b905f5260205f2090600602016005015f6101000a81548160ff021916908315150217905550505050565b5f8054906101000a900473ffffffffffffffffffffffffffffffffffffffff1673ffffffffffffffffffffffffffffffffffffffff163373ffffffffffffffffffffffffffffffffffffffff16146105d3576040517f5fc483c500000000000000000000000000000000000000000000000000000000815260040160405180910390fd5b825f73ffffffffffffffffffffffffffffffffffffffff168173ffffffffffffffffffffffffffffffffffffffff1603610639576040517f6623c80d00000000000000000000000000000000000000000000000000000000815260040160405180910390fd5b5f8054906101000a900473ffffffffffffffffffffffffffffffffffffffff1673ffffffffffffffffffffffffffffffffffffffff168473ffffffffffffffffffffffffffffffffffffffff16036106c6576040517f08c379a00000000000000000000000000000000000000000000000000000000081526004016106bd9061171b565b60405180910390fd5b5f5b600180549050811015610791578473ffffffffffffffffffffffffffffffffffffffff1660018281548110610700576106ff611474565b5b905f5260205f2090600602015f015f9054906101000a900473ffffffffffffffffffffffffffffffffffffffff1673ffffffffffffffffffffffffffffffffffffffff1603610784576040517f08c379a000000000000000000000000000000000000000000000000000000000815260040161077b90611783565b60405180910390fd5b80806001019150506106c8565b505f836040516020016107a491906117db565b6040516020818303038152906040528051906020012090505f836040516020016107ce91906117db565b6040516020818303038152906040528051906020012090505f6040516020016107f690611814565b604051602081830303815290604052805190602001209050808303610850576040517f08c379a000000000000000000000000000000000000000000000000000000000815260040161084790611872565b60405180910390fd5b808203610892576040517f08c379a0000000000000000000000000000000000000000000000000000000008152600401610889906118da565b60405180910390fd5b61089a610fad565b87815f019073ffffffffffffffffffffffffffffffffffffffff16908173ffffffffffffffffffffffffffffffffffffffff1681525050868160200181905250858160400181905250631d556000426108f39190611925565b816060018181525050600181908060018154018082558091505060019003905f5260205f2090600602015f909190919091505f820151815f015f6101000a81548173ffffffffffffffffffffffffffffffffffffffff021916908373ffffffffffffffffffffffffffffffffffffffff160217905550602082015181600101908161097e9190611b49565b5060408201518160020190816109949190611b49565b50606082015181600301556080820151816004015560a0820151816005015f6101000a81548160ff02191690831515021790555050505050505050505050565b600181815481106109e3575f80fd5b905f5260205f2090600602015f91509050805f015f9054906101000a900473ffffffffffffffffffffffffffffffffffffffff1690806001018054610a2790611985565b80601f0160208091040260200160405190810160405280929190818152602001828054610a5390611985565b8015610a9e5780601f10610a7557610100808354040283529160200191610a9e565b820191905f5260205f20905b815481529060010190602001808311610a8157829003601f168201915b505050505090806002018054610ab390611985565b80601f0160208091040260200160405190810160405280929190818152602001828054610adf90611985565b8015610b2a5780601f10610b0157610100808354040283529160200191610b2a565b820191905f5260205f20905b815481529060010190602001808311610b0d57829003601f168201915b505050505090806003015490806004015490806005015f9054906101000a900460ff16905086565b5f8054906101000a900473ffffffffffffffffffffffffffffffffffffffff1681565b5f80610b8083610bc1565b905060018181548110610b9657610b95611474565b5b905f5260205f20906006020160030154421115610bb7576001915050610bbc565b5f9150505b919050565b5f805b600180549050811015610c5b578273ffffffffffffffffffffffffffffffffffffffff1660018281548110610bfc57610bfb611474565b5b905f5260205f2090600602015f015f9054906101000a900473ffffffffffffffffffffffffffffffffffffffff1673ffffffffffffffffffffffffffffffffffffffff1603610c4e5780915050610c62565b8080600101915050610bc4565b5061019990505b919050565b5f80610c7233610bc1565b905060018181548110610c8857610c87611474565b5b905f5260205f2090600602015f015f9054906101000a900473ffffffffffffffffffffffffffffffffffffffff1673ffffffffffffffffffffffffffffffffffffffff163373ffffffffffffffffffffffffffffffffffffffff1614610d1a576040517f6623c80d00000000000000000000000000000000000000000000000000000000815260040160405180910390fd5b60018181548110610d2e57610d2d611474565b5b905f5260205f2090600602016004015491505090565b805f73ffffffffffffffffffffffffffffffffffffffff168173ffffffffffffffffffffffffffffffffffffffff1603610daa576040517f6623c80d00000000000000000000000000000000000000000000000000000000815260040160405180910390fd5b5f8054906101000a900473ffffffffffffffffffffffffffffffffffffffff1673ffffffffffffffffffffffffffffffffffffffff168273ffffffffffffffffffffffffffffffffffffffff1603610e37576040517f08c379a0000000000000000000000000000000000000000000000000000000008152600401610e2e90611c62565b60405180910390fd5b5f3411610e79576040517f08c379a0000000000000000000000000000000000000000000000000000000008152600401610e70906114eb565b60405180910390fd5b5f610e8383610bc1565b90508273ffffffffffffffffffffffffffffffffffffffff1660018281548110610eb057610eaf611474565b5b905f5260205f2090600602015f015f9054906101000a900473ffffffffffffffffffffffffffffffffffffffff1673ffffffffffffffffffffffffffffffffffffffff1614610f34576040517f08c379a0000000000000000000000000000000000000000000000000000000008152600401610f2b90611cca565b60405180910390fd5b3460018281548110610f4957610f48611474565b5b905f5260205f2090600602016004015f828254610f669190611925565b925050819055507f90890809c654f11d6e72a28fa60149770a0d11ec6c92319d6ceb2bb0a4ea1a15333442604051610fa093929190611ce8565b60405180910390a1505050565b6040518060c001604052805f73ffffffffffffffffffffffffffffffffffffffff16815260200160608152602001606081526020015f81526020015f81526020015f151581525090565b5f604051905090565b5f80fd5b5f80fd5b5f73ffffffffffffffffffffffffffffffffffffffff82169050919050565b5f61103182611008565b9050919050565b61104181611027565b811461104b575f80fd5b50565b5f8135905061105c81611038565b92915050565b5f6020828403121561107757611076611000565b5b5f6110848482850161104e565b91505092915050565b5f80fd5b5f80fd5b5f601f19601f8301169050919050565b7f4e487b71000000000000000000000000000000000000000000000000000000005f52604160045260245ffd5b6110db82611095565b810181811067ffffffffffffffff821117156110fa576110f96110a5565b5b80604052505050565b5f61110c610ff7565b905061111882826110d2565b919050565b5f67ffffffffffffffff821115611137576111366110a5565b5b61114082611095565b9050602081019050919050565b828183375f83830152505050565b5f61116d6111688461111d565b611103565b90508281526020810184848401111561118957611188611091565b5b61119484828561114d565b509392505050565b5f82601f8301126111b0576111af61108d565b5b81356111c084826020860161115b565b91505092915050565b5f805f606084860312156111e0576111df611000565b5b5f6111ed8682870161104e565b935050602084013567ffffffffffffffff81111561120e5761120d611004565b5b61121a8682870161119c565b925050604084013567ffffffffffffffff81111561123b5761123a611004565b5b6112478682870161119c565b9150509250925092565b5f819050919050565b61126381611251565b811461126d575f80fd5b50565b5f8135905061127e8161125a565b92915050565b5f6020828403121561129957611298611000565b5b5f6112a684828501611270565b91505092915050565b6112b881611027565b82525050565b5f81519050919050565b5f82825260208201905092915050565b8281835e5f83830152505050565b5f6112f0826112be565b6112fa81856112c8565b935061130a8185602086016112d8565b61131381611095565b840191505092915050565b61132781611251565b82525050565b5f8115159050919050565b6113418161132d565b82525050565b5f60c08201905061135a5f8301896112af565b818103602083015261136c81886112e6565b9050818103604083015261138081876112e6565b905061138f606083018661131e565b61139c608083018561131e565b6113a960a0830184611338565b979650505050505050565b5f6113be82611008565b9050919050565b6113ce816113b4565b82525050565b5f6020820190506113e75f8301846113c5565b92915050565b6113f6816113b4565b8114611400575f80fd5b50565b5f81359050611411816113ed565b92915050565b5f6020828403121561142c5761142b611000565b5b5f61143984828501611403565b91505092915050565b5f6020820190506114555f830184611338565b92915050565b5f60208201905061146e5f83018461131e565b92915050565b7f4e487b71000000000000000000000000000000000000000000000000000000005f52603260045260245ffd5b7f496e73756666696369656e742062616c616e63650000000000000000000000005f82015250565b5f6114d56014836112c8565b91506114e0826114a1565b602082019050919050565b5f6020820190508181035f830152611502816114c9565b9050919050565b7f4f6e6c79206f776e6572206f6620746865206163636f756e74000000000000005f82015250565b5f61153d6019836112c8565b915061154882611509565b602082019050919050565b5f6020820190508181035f83015261156a81611531565b9050919050565b7f5761697420666f72207468652072656c656173652074696d65000000000000005f82015250565b5f6115a56019836112c8565b91506115b082611571565b602082019050919050565b5f6020820190508181035f8301526115d281611599565b9050919050565b7f46756e647320616c72656164792077697468647261776e0000000000000000005f82015250565b5f61160d6017836112c8565b9150611618826115d9565b602082019050919050565b5f6020820190508181035f83015261163a81611601565b9050919050565b5f819050919050565b5f61166461165f61165a84611008565b611641565b611008565b9050919050565b5f6116758261164a565b9050919050565b5f6116868261166b565b9050919050565b6116968161167c565b82525050565b5f6060820190506116af5f83018661168d565b6116bc602083018561131e565b6116c9604083018461131e565b949350505050565b7f4f776e65722063616e27742062652061206b69640000000000000000000000005f82015250565b5f6117056014836112c8565b9150611710826116d1565b602082019050919050565b5f6020820190508181035f830152611732816116f9565b9050919050565b7f4164647265737320697320616c726561647920757365640000000000000000005f82015250565b5f61176d6017836112c8565b915061177882611739565b602082019050919050565b5f6020820190508181035f83015261179a81611761565b9050919050565b5f81905092915050565b5f6117b5826112be565b6117bf81856117a1565b93506117cf8185602086016112d8565b80840191505092915050565b5f6117e682846117ab565b915081905092915050565b50565b5f6117ff5f836117a1565b915061180a826117f1565b5f82019050919050565b5f61181e826117f4565b9150819050919050565b7f4669727374204e616d652063616e6e6f7420626520656d7074790000000000005f82015250565b5f61185c601a836112c8565b915061186782611828565b602082019050919050565b5f6020820190508181035f83015261188981611850565b9050919050565b7f4c617374204e616d652063616e6e6f7420626520656d707479000000000000005f82015250565b5f6118c46019836112c8565b91506118cf82611890565b602082019050919050565b5f6020820190508181035f8301526118f1816118b8565b9050919050565b7f4e487b71000000000000000000000000000000000000000000000000000000005f52601160045260245ffd5b5f61192f82611251565b915061193a83611251565b9250828201905080821115611952576119516118f8565b5b92915050565b7f4e487b71000000000000000000000000000000000000000000000000000000005f52602260045260245ffd5b5f600282049050600182168061199c57607f821691505b6020821081036119af576119ae611958565b5b50919050565b5f819050815f5260205f209050919050565b5f6020601f8301049050919050565b5f82821b905092915050565b5f60088302611a117fffffffffffffffffffffffffffffffffffffffffffffffffffffffffffffffff826119d6565b611a1b86836119d6565b95508019841693508086168417925050509392505050565b5f611a4d611a48611a4384611251565b611641565b611251565b9050919050565b5f819050919050565b611a6683611a33565b611a7a611a7282611a54565b8484546119e2565b825550505050565b5f90565b611a8e611a82565b611a99818484611a5d565b505050565b5b81811015611abc57611ab15f82611a86565b600181019050611a9f565b5050565b601f821115611b0157611ad2816119b5565b611adb846119c7565b81016020851015611aea578190505b611afe611af6856119c7565b830182611a9e565b50505b505050565b5f82821c905092915050565b5f611b215f1984600802611b06565b1980831691505092915050565b5f611b398383611b12565b9150826002028217905092915050565b611b52826112be565b67ffffffffffffffff811115611b6b57611b6a6110a5565b5b611b758254611985565b611b80828285611ac0565b5f60209050601f831160018114611bb1575f8415611b9f578287015190505b611ba98582611b2e565b865550611c10565b601f198416611bbf866119b5565b5f5b82811015611be657848901518255600182019150602085019450602081019050611bc1565b86831015611c035784890151611bff601f891682611b12565b8355505b6001600288020188555050505b505050505050565b7f4f776e65722063616e6e6f742062652061206368696c640000000000000000005f82015250565b5f611c4c6017836112c8565b9150611c5782611c18565b602082019050919050565b5f6020820190508181035f830152611c7981611c40565b9050919050565b7f41646472657373206973206e6f7420696e206b696473206172726179000000005f82015250565b5f611cb4601c836112c8565b9150611cbf82611c80565b602082019050919050565b5f6020820190508181035f830152611ce181611ca8565b9050919050565b5f606082019050611cfb5f8301866113c5565b611d08602083018561131e565b611d15604083018461131e565b94935050505056fea2646970667358221220efa12878852dd60627cf60246ff5e4f61197b450f24df6ac467d8d4175b00ec864736f6c634300081a0033",
					"opcodes": "PUSH1 0x80 PUSH1 0x40 MSTORE CALLVALUE DUP1 ISZERO PUSH1 0xE JUMPI PUSH0 DUP1 REVERT JUMPDEST POP CALLER PUSH0 DUP1 PUSH2 0x100 EXP DUP2 SLOAD DUP2 PUSH20 0xFFFFFFFFFFFFFFFFFFFFFFFFFFFFFFFFFFFFFFFF MUL NOT AND SWAP1 DUP4 PUSH20 0xFFFFFFFFFFFFFFFFFFFFFFFFFFFFFFFFFFFFFFFF AND MUL OR SWAP1 SSTORE POP PUSH2 0x1D53 DUP1 PUSH2 0x5B PUSH0 CODECOPY PUSH0 RETURN INVALID PUSH1 0x80 PUSH1 0x40 MSTORE PUSH1 0x4 CALLDATASIZE LT PUSH2 0x7A JUMPI PUSH0 CALLDATALOAD PUSH1 0xE0 SHR DUP1 PUSH4 0xA25DB8CE GT PUSH2 0x4D JUMPI DUP1 PUSH4 0xA25DB8CE EQ PUSH2 0x12D JUMPI DUP1 PUSH4 0xB31610DB EQ PUSH2 0x169 JUMPI DUP1 PUSH4 0xB69EF8A8 EQ PUSH2 0x1A5 JUMPI DUP1 PUSH4 0xF340FA01 EQ PUSH2 0x1CF JUMPI PUSH2 0x7A JUMP JUMPDEST DUP1 PUSH4 0x51CFF8D9 EQ PUSH2 0x7E JUMPI DUP1 PUSH4 0x55DA12CE EQ PUSH2 0x9A JUMPI DUP1 PUSH4 0x7285FD3A EQ PUSH2 0xC2 JUMPI DUP1 PUSH4 0x8DA5CB5B EQ PUSH2 0x103 JUMPI JUMPDEST PUSH0 DUP1 REVERT JUMPDEST PUSH2 0x98 PUSH1 0x4 DUP1 CALLDATASIZE SUB DUP2 ADD SWAP1 PUSH2 0x93 SWAP2 SWAP1 PUSH2 0x1062 JUMP JUMPDEST PUSH2 0x1EB JUMP JUMPDEST STOP JUMPDEST CALLVALUE DUP1 ISZERO PUSH2 0xA5 JUMPI PUSH0 DUP1 REVERT JUMPDEST POP PUSH2 0xC0 PUSH1 0x4 DUP1 CALLDATASIZE SUB DUP2 ADD SWAP1 PUSH2 0xBB SWAP2 SWAP1 PUSH2 0x11C9 JUMP JUMPDEST PUSH2 0x54F JUMP JUMPDEST STOP JUMPDEST CALLVALUE DUP1 ISZERO PUSH2 0xCD JUMPI PUSH0 DUP1 REVERT JUMPDEST POP PUSH2 0xE8 PUSH1 0x4 DUP1 CALLDATASIZE SUB DUP2 ADD SWAP1 PUSH2 0xE3 SWAP2 SWAP1 PUSH2 0x1284 JUMP JUMPDEST PUSH2 0x9D4 JUMP JUMPDEST PUSH1 0x40 MLOAD PUSH2 0xFA SWAP7 SWAP6 SWAP5 SWAP4 SWAP3 SWAP2 SWAP1 PUSH2 0x1347 JUMP JUMPDEST PUSH1 0x40 MLOAD DUP1 SWAP2 SUB SWAP1 RETURN JUMPDEST CALLVALUE DUP1 ISZERO PUSH2 0x10E JUMPI PUSH0 DUP1 REVERT JUMPDEST POP PUSH2 0x117 PUSH2 0xB52 JUMP JUMPDEST PUSH1 0x40 MLOAD PUSH2 0x124 SWAP2 SWAP1 PUSH2 0x13D4 JUMP JUMPDEST PUSH1 0x40 MLOAD DUP1 SWAP2 SUB SWAP1 RETURN JUMPDEST CALLVALUE DUP1 ISZERO PUSH2 0x138 JUMPI PUSH0 DUP1 REVERT JUMPDEST POP PUSH2 0x153 PUSH1 0x4 DUP1 CALLDATASIZE SUB DUP2 ADD SWAP1 PUSH2 0x14E SWAP2 SWAP1 PUSH2 0x1417 JUMP JUMPDEST PUSH2 0xB75 JUMP JUMPDEST PUSH1 0x40 MLOAD PUSH2 0x160 SWAP2 SWAP1 PUSH2 0x1442 JUMP JUMPDEST PUSH1 0x40 MLOAD DUP1 SWAP2 SUB SWAP1 RETURN JUMPDEST CALLVALUE DUP1 ISZERO PUSH2 0x174 JUMPI PUSH0 DUP1 REVERT JUMPDEST POP PUSH2 0x18F PUSH1 0x4 DUP1 CALLDATASIZE SUB DUP2 ADD SWAP1 PUSH2 0x18A SWAP2 SWAP1 PUSH2 0x1417 JUMP JUMPDEST PUSH2 0xBC1 JUMP JUMPDEST PUSH1 0x40 MLOAD PUSH2 0x19C SWAP2 SWAP1 PUSH2 0x145B JUMP JUMPDEST PUSH1 0x40 MLOAD DUP1 SWAP2 SUB SWAP1 RETURN JUMPDEST CALLVALUE DUP1 ISZERO PUSH2 0x1B0 JUMPI PUSH0 DUP1 REVERT JUMPDEST POP PUSH2 0x1B9 PUSH2 0xC67 JUMP JUMPDEST PUSH1 0x40 MLOAD PUSH2 0x1C6 SWAP2 SWAP1 PUSH2 0x145B JUMP JUMPDEST PUSH1 0x40 MLOAD DUP1 SWAP2 SUB SWAP1 RETURN JUMPDEST PUSH2 0x1E9 PUSH1 0x4 DUP1 CALLDATASIZE SUB DUP2 ADD SWAP1 PUSH2 0x1E4 SWAP2 SWAP1 PUSH2 0x1417 JUMP JUMPDEST PUSH2 0xD44 JUMP JUMPDEST STOP JUMPDEST DUP1 PUSH0 PUSH20 0xFFFFFFFFFFFFFFFFFFFFFFFFFFFFFFFFFFFFFFFF AND DUP2 PUSH20 0xFFFFFFFFFFFFFFFFFFFFFFFFFFFFFFFFFFFFFFFF AND SUB PUSH2 0x251 JUMPI PUSH1 0x40 MLOAD PUSH32 0x6623C80D00000000000000000000000000000000000000000000000000000000 DUP2 MSTORE PUSH1 0x4 ADD PUSH1 0x40 MLOAD DUP1 SWAP2 SUB SWAP1 REVERT JUMPDEST PUSH0 PUSH2 0x25B DUP4 PUSH2 0xBC1 JUMP JUMPDEST SWAP1 POP PUSH0 PUSH1 0x1 DUP3 DUP2 SLOAD DUP2 LT PUSH2 0x272 JUMPI PUSH2 0x271 PUSH2 0x1474 JUMP JUMPDEST JUMPDEST SWAP1 PUSH0 MSTORE PUSH1 0x20 PUSH0 KECCAK256 SWAP1 PUSH1 0x6 MUL ADD PUSH1 0x4 ADD SLOAD GT PUSH2 0x2C2 JUMPI PUSH1 0x40 MLOAD PUSH32 0x8C379A000000000000000000000000000000000000000000000000000000000 DUP2 MSTORE PUSH1 0x4 ADD PUSH2 0x2B9 SWAP1 PUSH2 0x14EB JUMP JUMPDEST PUSH1 0x40 MLOAD DUP1 SWAP2 SUB SWAP1 REVERT JUMPDEST PUSH1 0x1 DUP2 DUP2 SLOAD DUP2 LT PUSH2 0x2D6 JUMPI PUSH2 0x2D5 PUSH2 0x1474 JUMP JUMPDEST JUMPDEST SWAP1 PUSH0 MSTORE PUSH1 0x20 PUSH0 KECCAK256 SWAP1 PUSH1 0x6 MUL ADD PUSH0 ADD PUSH0 SWAP1 SLOAD SWAP1 PUSH2 0x100 EXP SWAP1 DIV PUSH20 0xFFFFFFFFFFFFFFFFFFFFFFFFFFFFFFFFFFFFFFFF AND PUSH20 0xFFFFFFFFFFFFFFFFFFFFFFFFFFFFFFFFFFFFFFFF AND CALLER PUSH20 0xFFFFFFFFFFFFFFFFFFFFFFFFFFFFFFFFFFFFFFFF AND EQ PUSH2 0x371 JUMPI PUSH1 0x40 MLOAD PUSH32 0x8C379A000000000000000000000000000000000000000000000000000000000 DUP2 MSTORE PUSH1 0x4 ADD PUSH2 0x368 SWAP1 PUSH2 0x1553 JUMP JUMPDEST PUSH1 0x40 MLOAD DUP1 SWAP2 SUB SWAP1 REVERT JUMPDEST PUSH1 0x1 DUP2 DUP2 SLOAD DUP2 LT PUSH2 0x385 JUMPI PUSH2 0x384 PUSH2 0x1474 JUMP JUMPDEST JUMPDEST SWAP1 PUSH0 MSTORE PUSH1 0x20 PUSH0 KECCAK256 SWAP1 PUSH1 0x6 MUL ADD PUSH1 0x3 ADD SLOAD TIMESTAMP GT PUSH2 0x3D6 JUMPI PUSH1 0x40 MLOAD PUSH32 0x8C379A000000000000000000000000000000000000000000000000000000000 DUP2 MSTORE PUSH1 0x4 ADD PUSH2 0x3CD SWAP1 PUSH2 0x15BB JUMP JUMPDEST PUSH1 0x40 MLOAD DUP1 SWAP2 SUB SWAP1 REVERT JUMPDEST PUSH1 0x1 DUP2 DUP2 SLOAD DUP2 LT PUSH2 0x3EA JUMPI PUSH2 0x3E9 PUSH2 0x1474 JUMP JUMPDEST JUMPDEST SWAP1 PUSH0 MSTORE PUSH1 0x20 PUSH0 KECCAK256 SWAP1 PUSH1 0x6 MUL ADD PUSH1 0x5 ADD PUSH0 SWAP1 SLOAD SWAP1 PUSH2 0x100 EXP SWAP1 DIV PUSH1 0xFF AND ISZERO PUSH2 0x446 JUMPI PUSH1 0x40 MLOAD PUSH32 0x8C379A000000000000000000000000000000000000000000000000000000000 DUP2 MSTORE PUSH1 0x4 ADD PUSH2 0x43D SWAP1 PUSH2 0x1623 JUMP JUMPDEST PUSH1 0x40 MLOAD DUP1 SWAP2 SUB SWAP1 REVERT JUMPDEST PUSH0 PUSH1 0x1 DUP3 DUP2 SLOAD DUP2 LT PUSH2 0x45B JUMPI PUSH2 0x45A PUSH2 0x1474 JUMP JUMPDEST JUMPDEST SWAP1 PUSH0 MSTORE PUSH1 0x20 PUSH0 KECCAK256 SWAP1 PUSH1 0x6 MUL ADD PUSH1 0x4 ADD DUP2 SWAP1 SSTORE POP DUP3 PUSH20 0xFFFFFFFFFFFFFFFFFFFFFFFFFFFFFFFFFFFFFFFF AND PUSH2 0x8FC PUSH1 0x1 DUP4 DUP2 SLOAD DUP2 LT PUSH2 0x49C JUMPI PUSH2 0x49B PUSH2 0x1474 JUMP JUMPDEST JUMPDEST SWAP1 PUSH0 MSTORE PUSH1 0x20 PUSH0 KECCAK256 SWAP1 PUSH1 0x6 MUL ADD PUSH1 0x4 ADD SLOAD SWAP1 DUP2 ISZERO MUL SWAP1 PUSH1 0x40 MLOAD PUSH0 PUSH1 0x40 MLOAD DUP1 DUP4 SUB DUP2 DUP6 DUP9 DUP9 CALL SWAP4 POP POP POP POP ISZERO DUP1 ISZERO PUSH2 0x4D4 JUMPI RETURNDATASIZE PUSH0 DUP1 RETURNDATACOPY RETURNDATASIZE PUSH0 REVERT JUMPDEST POP PUSH32 0xDF273CB619D95419A9CD0EC88123A0538C85064229BAA6363788F743FFF90DEB DUP4 CALLVALUE TIMESTAMP PUSH1 0x40 MLOAD PUSH2 0x508 SWAP4 SWAP3 SWAP2 SWAP1 PUSH2 0x169C JUMP JUMPDEST PUSH1 0x40 MLOAD DUP1 SWAP2 SUB SWAP1 LOG1 PUSH1 0x1 DUP1 DUP3 DUP2 SLOAD DUP2 LT PUSH2 0x525 JUMPI PUSH2 0x524 PUSH2 0x1474 JUMP JUMPDEST JUMPDEST SWAP1 PUSH0 MSTORE PUSH1 0x20 PUSH0 KECCAK256 SWAP1 PUSH1 0x6 MUL ADD PUSH1 0x5 ADD PUSH0 PUSH2 0x100 EXP DUP2 SLOAD DUP2 PUSH1 0xFF MUL NOT AND SWAP1 DUP4 ISZERO ISZERO MUL OR SWAP1 SSTORE POP POP POP POP JUMP JUMPDEST PUSH0 DUP1 SLOAD SWAP1 PUSH2 0x100 EXP SWAP1 DIV PUSH20 0xFFFFFFFFFFFFFFFFFFFFFFFFFFFFFFFFFFFFFFFF AND PUSH20 0xFFFFFFFFFFFFFFFFFFFFFFFFFFFFFFFFFFFFFFFF AND CALLER PUSH20 0xFFFFFFFFFFFFFFFFFFFFFFFFFFFFFFFFFFFFFFFF AND EQ PUSH2 0x5D3 JUMPI PUSH1 0x40 MLOAD PUSH32 0x5FC483C500000000000000000000000000000000000000000000000000000000 DUP2 MSTORE PUSH1 0x4 ADD PUSH1 0x40 MLOAD DUP1 SWAP2 SUB SWAP1 REVERT JUMPDEST DUP3 PUSH0 PUSH20 0xFFFFFFFFFFFFFFFFFFFFFFFFFFFFFFFFFFFFFFFF AND DUP2 PUSH20 0xFFFFFFFFFFFFFFFFFFFFFFFFFFFFFFFFFFFFFFFF AND SUB PUSH2 0x639 JUMPI PUSH1 0x40 MLOAD PUSH32 0x6623C80D00000000000000000000000000000000000000000000000000000000 DUP2 MSTORE PUSH1 0x4 ADD PUSH1 0x40 MLOAD DUP1 SWAP2 SUB SWAP1 REVERT JUMPDEST PUSH0 DUP1 SLOAD SWAP1 PUSH2 0x100 EXP SWAP1 DIV PUSH20 0xFFFFFFFFFFFFFFFFFFFFFFFFFFFFFFFFFFFFFFFF AND PUSH20 0xFFFFFFFFFFFFFFFFFFFFFFFFFFFFFFFFFFFFFFFF AND DUP5 PUSH20 0xFFFFFFFFFFFFFFFFFFFFFFFFFFFFFFFFFFFFFFFF AND SUB PUSH2 0x6C6 JUMPI PUSH1 0x40 MLOAD PUSH32 0x8C379A000000000000000000000000000000000000000000000000000000000 DUP2 MSTORE PUSH1 0x4 ADD PUSH2 0x6BD SWAP1 PUSH2 0x171B JUMP JUMPDEST PUSH1 0x40 MLOAD DUP1 SWAP2 SUB SWAP1 REVERT JUMPDEST PUSH0 JUMPDEST PUSH1 0x1 DUP1 SLOAD SWAP1 POP DUP2 LT ISZERO PUSH2 0x791 JUMPI DUP5 PUSH20 0xFFFFFFFFFFFFFFFFFFFFFFFFFFFFFFFFFFFFFFFF AND PUSH1 0x1 DUP3 DUP2 SLOAD DUP2 LT PUSH2 0x700 JUMPI PUSH2 0x6FF PUSH2 0x1474 JUMP JUMPDEST JUMPDEST SWAP1 PUSH0 MSTORE PUSH1 0x20 PUSH0 KECCAK256 SWAP1 PUSH1 0x6 MUL ADD PUSH0 ADD PUSH0 SWAP1 SLOAD SWAP1 PUSH2 0x100 EXP SWAP1 DIV PUSH20 0xFFFFFFFFFFFFFFFFFFFFFFFFFFFFFFFFFFFFFFFF AND PUSH20 0xFFFFFFFFFFFFFFFFFFFFFFFFFFFFFFFFFFFFFFFF AND SUB PUSH2 0x784 JUMPI PUSH1 0x40 MLOAD PUSH32 0x8C379A000000000000000000000000000000000000000000000000000000000 DUP2 MSTORE PUSH1 0x4 ADD PUSH2 0x77B SWAP1 PUSH2 0x1783 JUMP JUMPDEST PUSH1 0x40 MLOAD DUP1 SWAP2 SUB SWAP1 REVERT JUMPDEST DUP1 DUP1 PUSH1 0x1 ADD SWAP2 POP POP PUSH2 0x6C8 JUMP JUMPDEST POP PUSH0 DUP4 PUSH1 0x40 MLOAD PUSH1 0x20 ADD PUSH2 0x7A4 SWAP2 SWAP1 PUSH2 0x17DB JUMP JUMPDEST PUSH1 0x40 MLOAD PUSH1 0x20 DUP2 DUP4 SUB SUB DUP2 MSTORE SWAP1 PUSH1 0x40 MSTORE DUP1 MLOAD SWAP1 PUSH1 0x20 ADD KECCAK256 SWAP1 POP PUSH0 DUP4 PUSH1 0x40 MLOAD PUSH1 0x20 ADD PUSH2 0x7CE SWAP2 SWAP1 PUSH2 0x17DB JUMP JUMPDEST PUSH1 0x40 MLOAD PUSH1 0x20 DUP2 DUP4 SUB SUB DUP2 MSTORE SWAP1 PUSH1 0x40 MSTORE DUP1 MLOAD SWAP1 PUSH1 0x20 ADD KECCAK256 SWAP1 POP PUSH0 PUSH1 0x40 MLOAD PUSH1 0x20 ADD PUSH2 0x7F6 SWAP1 PUSH2 0x1814 JUMP JUMPDEST PUSH1 0x40 MLOAD PUSH1 0x20 DUP2 DUP4 SUB SUB DUP2 MSTORE SWAP1 PUSH1 0x40 MSTORE DUP1 MLOAD SWAP1 PUSH1 0x20 ADD KECCAK256 SWAP1 POP DUP1 DUP4 SUB PUSH2 0x850 JUMPI PUSH1 0x40 MLOAD PUSH32 0x8C379A000000000000000000000000000000000000000000000000000000000 DUP2 MSTORE PUSH1 0x4 ADD PUSH2 0x847 SWAP1 PUSH2 0x1872 JUMP JUMPDEST PUSH1 0x40 MLOAD DUP1 SWAP2 SUB SWAP1 REVERT JUMPDEST DUP1 DUP3 SUB PUSH2 0x892 JUMPI PUSH1 0x40 MLOAD PUSH32 0x8C379A000000000000000000000000000000000000000000000000000000000 DUP2 MSTORE PUSH1 0x4 ADD PUSH2 0x889 SWAP1 PUSH2 0x18DA JUMP JUMPDEST PUSH1 0x40 MLOAD DUP1 SWAP2 SUB SWAP1 REVERT JUMPDEST PUSH2 0x89A PUSH2 0xFAD JUMP JUMPDEST DUP8 DUP2 PUSH0 ADD SWAP1 PUSH20 0xFFFFFFFFFFFFFFFFFFFFFFFFFFFFFFFFFFFFFFFF AND SWAP1 DUP2 PUSH20 0xFFFFFFFFFFFFFFFFFFFFFFFFFFFFFFFFFFFFFFFF AND DUP2 MSTORE POP POP DUP7 DUP2 PUSH1 0x20 ADD DUP2 SWAP1 MSTORE POP DUP6 DUP2 PUSH1 0x40 ADD DUP2 SWAP1 MSTORE POP PUSH4 0x1D556000 TIMESTAMP PUSH2 0x8F3 SWAP2 SWAP1 PUSH2 0x1925 JUMP JUMPDEST DUP2 PUSH1 0x60 ADD DUP2 DUP2 MSTORE POP POP PUSH1 0x1 DUP2 SWAP1 DUP1 PUSH1 0x1 DUP2 SLOAD ADD DUP1 DUP3 SSTORE DUP1 SWAP2 POP POP PUSH1 0x1 SWAP1 SUB SWAP1 PUSH0 MSTORE PUSH1 0x20 PUSH0 KECCAK256 SWAP1 PUSH1 0x6 MUL ADD PUSH0 SWAP1 SWAP2 SWAP1 SWAP2 SWAP1 SWAP2 POP PUSH0 DUP3 ADD MLOAD DUP2 PUSH0 ADD PUSH0 PUSH2 0x100 EXP DUP2 SLOAD DUP2 PUSH20 0xFFFFFFFFFFFFFFFFFFFFFFFFFFFFFFFFFFFFFFFF MUL NOT AND SWAP1 DUP4 PUSH20 0xFFFFFFFFFFFFFFFFFFFFFFFFFFFFFFFFFFFFFFFF AND MUL OR SWAP1 SSTORE POP PUSH1 0x20 DUP3 ADD MLOAD DUP2 PUSH1 0x1 ADD SWAP1 DUP2 PUSH2 0x97E SWAP2 SWAP1 PUSH2 0x1B49 JUMP JUMPDEST POP PUSH1 0x40 DUP3 ADD MLOAD DUP2 PUSH1 0x2 ADD SWAP1 DUP2 PUSH2 0x994 SWAP2 SWAP1 PUSH2 0x1B49 JUMP JUMPDEST POP PUSH1 0x60 DUP3 ADD MLOAD DUP2 PUSH1 0x3 ADD SSTORE PUSH1 0x80 DUP3 ADD MLOAD DUP2 PUSH1 0x4 ADD SSTORE PUSH1 0xA0 DUP3 ADD MLOAD DUP2 PUSH1 0x5 ADD PUSH0 PUSH2 0x100 EXP DUP2 SLOAD DUP2 PUSH1 0xFF MUL NOT AND SWAP1 DUP4 ISZERO ISZERO MUL OR SWAP1 SSTORE POP POP POP POP POP POP POP POP POP POP POP JUMP JUMPDEST PUSH1 0x1 DUP2 DUP2 SLOAD DUP2 LT PUSH2 0x9E3 JUMPI PUSH0 DUP1 REVERT JUMPDEST SWAP1 PUSH0 MSTORE PUSH1 0x20 PUSH0 KECCAK256 SWAP1 PUSH1 0x6 MUL ADD PUSH0 SWAP2 POP SWAP1 POP DUP1 PUSH0 ADD PUSH0 SWAP1 SLOAD SWAP1 PUSH2 0x100 EXP SWAP1 DIV PUSH20 0xFFFFFFFFFFFFFFFFFFFFFFFFFFFFFFFFFFFFFFFF AND SWAP1 DUP1 PUSH1 0x1 ADD DUP1 SLOAD PUSH2 0xA27 SWAP1 PUSH2 0x1985 JUMP JUMPDEST DUP1 PUSH1 0x1F ADD PUSH1 0x20 DUP1 SWAP2 DIV MUL PUSH1 0x20 ADD PUSH1 0x40 MLOAD SWAP1 DUP2 ADD PUSH1 0x40 MSTORE DUP1 SWAP3 SWAP2 SWAP1 DUP2 DUP2 MSTORE PUSH1 0x20 ADD DUP3 DUP1 SLOAD PUSH2 0xA53 SWAP1 PUSH2 0x1985 JUMP JUMPDEST DUP1 ISZERO PUSH2 0xA9E JUMPI DUP1 PUSH1 0x1F LT PUSH2 0xA75 JUMPI PUSH2 0x100 DUP1 DUP4 SLOAD DIV MUL DUP4 MSTORE SWAP2 PUSH1 0x20 ADD SWAP2 PUSH2 0xA9E JUMP JUMPDEST DUP3 ADD SWAP2 SWAP1 PUSH0 MSTORE PUSH1 0x20 PUSH0 KECCAK256 SWAP1 JUMPDEST DUP2 SLOAD DUP2 MSTORE SWAP1 PUSH1 0x1 ADD SWAP1 PUSH1 0x20 ADD DUP1 DUP4 GT PUSH2 0xA81 JUMPI DUP3 SWAP1 SUB PUSH1 0x1F AND DUP3 ADD SWAP2 JUMPDEST POP POP POP POP POP SWAP1 DUP1 PUSH1 0x2 ADD DUP1 SLOAD PUSH2 0xAB3 SWAP1 PUSH2 0x1985 JUMP JUMPDEST DUP1 PUSH1 0x1F ADD PUSH1 0x20 DUP1 SWAP2 DIV MUL PUSH1 0x20 ADD PUSH1 0x40 MLOAD SWAP1 DUP2 ADD PUSH1 0x40 MSTORE DUP1 SWAP3 SWAP2 SWAP1 DUP2 DUP2 MSTORE PUSH1 0x20 ADD DUP3 DUP1 SLOAD PUSH2 0xADF SWAP1 PUSH2 0x1985 JUMP JUMPDEST DUP1 ISZERO PUSH2 0xB2A JUMPI DUP1 PUSH1 0x1F LT PUSH2 0xB01 JUMPI PUSH2 0x100 DUP1 DUP4 SLOAD DIV MUL DUP4 MSTORE SWAP2 PUSH1 0x20 ADD SWAP2 PUSH2 0xB2A JUMP JUMPDEST DUP3 ADD SWAP2 SWAP1 PUSH0 MSTORE PUSH1 0x20 PUSH0 KECCAK256 SWAP1 JUMPDEST DUP2 SLOAD DUP2 MSTORE SWAP1 PUSH1 0x1 ADD SWAP1 PUSH1 0x20 ADD DUP1 DUP4 GT PUSH2 0xB0D JUMPI DUP3 SWAP1 SUB PUSH1 0x1F AND DUP3 ADD SWAP2 JUMPDEST POP POP POP POP POP SWAP1 DUP1 PUSH1 0x3 ADD SLOAD SWAP1 DUP1 PUSH1 0x4 ADD SLOAD SWAP1 DUP1 PUSH1 0x5 ADD PUSH0 SWAP1 SLOAD SWAP1 PUSH2 0x100 EXP SWAP1 DIV PUSH1 0xFF AND SWAP1 POP DUP7 JUMP JUMPDEST PUSH0 DUP1 SLOAD SWAP1 PUSH2 0x100 EXP SWAP1 DIV PUSH20 0xFFFFFFFFFFFFFFFFFFFFFFFFFFFFFFFFFFFFFFFF AND DUP2 JUMP JUMPDEST PUSH0 DUP1 PUSH2 0xB80 DUP4 PUSH2 0xBC1 JUMP JUMPDEST SWAP1 POP PUSH1 0x1 DUP2 DUP2 SLOAD DUP2 LT PUSH2 0xB96 JUMPI PUSH2 0xB95 PUSH2 0x1474 JUMP JUMPDEST JUMPDEST SWAP1 PUSH0 MSTORE PUSH1 0x20 PUSH0 KECCAK256 SWAP1 PUSH1 0x6 MUL ADD PUSH1 0x3 ADD SLOAD TIMESTAMP GT ISZERO PUSH2 0xBB7 JUMPI PUSH1 0x1 SWAP2 POP POP PUSH2 0xBBC JUMP JUMPDEST PUSH0 SWAP2 POP POP JUMPDEST SWAP2 SWAP1 POP JUMP JUMPDEST PUSH0 DUP1 JUMPDEST PUSH1 0x1 DUP1 SLOAD SWAP1 POP DUP2 LT ISZERO PUSH2 0xC5B JUMPI DUP3 PUSH20 0xFFFFFFFFFFFFFFFFFFFFFFFFFFFFFFFFFFFFFFFF AND PUSH1 0x1 DUP3 DUP2 SLOAD DUP2 LT PUSH2 0xBFC JUMPI PUSH2 0xBFB PUSH2 0x1474 JUMP JUMPDEST JUMPDEST SWAP1 PUSH0 MSTORE PUSH1 0x20 PUSH0 KECCAK256 SWAP1 PUSH1 0x6 MUL ADD PUSH0 ADD PUSH0 SWAP1 SLOAD SWAP1 PUSH2 0x100 EXP SWAP1 DIV PUSH20 0xFFFFFFFFFFFFFFFFFFFFFFFFFFFFFFFFFFFFFFFF AND PUSH20 0xFFFFFFFFFFFFFFFFFFFFFFFFFFFFFFFFFFFFFFFF AND SUB PUSH2 0xC4E JUMPI DUP1 SWAP2 POP POP PUSH2 0xC62 JUMP JUMPDEST DUP1 DUP1 PUSH1 0x1 ADD SWAP2 POP POP PUSH2 0xBC4 JUMP JUMPDEST POP PUSH2 0x199 SWAP1 POP JUMPDEST SWAP2 SWAP1 POP JUMP JUMPDEST PUSH0 DUP1 PUSH2 0xC72 CALLER PUSH2 0xBC1 JUMP JUMPDEST SWAP1 POP PUSH1 0x1 DUP2 DUP2 SLOAD DUP2 LT PUSH2 0xC88 JUMPI PUSH2 0xC87 PUSH2 0x1474 JUMP JUMPDEST JUMPDEST SWAP1 PUSH0 MSTORE PUSH1 0x20 PUSH0 KECCAK256 SWAP1 PUSH1 0x6 MUL ADD PUSH0 ADD PUSH0 SWAP1 SLOAD SWAP1 PUSH2 0x100 EXP SWAP1 DIV PUSH20 0xFFFFFFFFFFFFFFFFFFFFFFFFFFFFFFFFFFFFFFFF AND PUSH20 0xFFFFFFFFFFFFFFFFFFFFFFFFFFFFFFFFFFFFFFFF AND CALLER PUSH20 0xFFFFFFFFFFFFFFFFFFFFFFFFFFFFFFFFFFFFFFFF AND EQ PUSH2 0xD1A JUMPI PUSH1 0x40 MLOAD PUSH32 0x6623C80D00000000000000000000000000000000000000000000000000000000 DUP2 MSTORE PUSH1 0x4 ADD PUSH1 0x40 MLOAD DUP1 SWAP2 SUB SWAP1 REVERT JUMPDEST PUSH1 0x1 DUP2 DUP2 SLOAD DUP2 LT PUSH2 0xD2E JUMPI PUSH2 0xD2D PUSH2 0x1474 JUMP JUMPDEST JUMPDEST SWAP1 PUSH0 MSTORE PUSH1 0x20 PUSH0 KECCAK256 SWAP1 PUSH1 0x6 MUL ADD PUSH1 0x4 ADD SLOAD SWAP2 POP POP SWAP1 JUMP JUMPDEST DUP1 PUSH0 PUSH20 0xFFFFFFFFFFFFFFFFFFFFFFFFFFFFFFFFFFFFFFFF AND DUP2 PUSH20 0xFFFFFFFFFFFFFFFFFFFFFFFFFFFFFFFFFFFFFFFF AND SUB PUSH2 0xDAA JUMPI PUSH1 0x40 MLOAD PUSH32 0x6623C80D00000000000000000000000000000000000000000000000000000000 DUP2 MSTORE PUSH1 0x4 ADD PUSH1 0x40 MLOAD DUP1 SWAP2 SUB SWAP1 REVERT JUMPDEST PUSH0 DUP1 SLOAD SWAP1 PUSH2 0x100 EXP SWAP1 DIV PUSH20 0xFFFFFFFFFFFFFFFFFFFFFFFFFFFFFFFFFFFFFFFF AND PUSH20 0xFFFFFFFFFFFFFFFFFFFFFFFFFFFFFFFFFFFFFFFF AND DUP3 PUSH20 0xFFFFFFFFFFFFFFFFFFFFFFFFFFFFFFFFFFFFFFFF AND SUB PUSH2 0xE37 JUMPI PUSH1 0x40 MLOAD PUSH32 0x8C379A000000000000000000000000000000000000000000000000000000000 DUP2 MSTORE PUSH1 0x4 ADD PUSH2 0xE2E SWAP1 PUSH2 0x1C62 JUMP JUMPDEST PUSH1 0x40 MLOAD DUP1 SWAP2 SUB SWAP1 REVERT JUMPDEST PUSH0 CALLVALUE GT PUSH2 0xE79 JUMPI PUSH1 0x40 MLOAD PUSH32 0x8C379A000000000000000000000000000000000000000000000000000000000 DUP2 MSTORE PUSH1 0x4 ADD PUSH2 0xE70 SWAP1 PUSH2 0x14EB JUMP JUMPDEST PUSH1 0x40 MLOAD DUP1 SWAP2 SUB SWAP1 REVERT JUMPDEST PUSH0 PUSH2 0xE83 DUP4 PUSH2 0xBC1 JUMP JUMPDEST SWAP1 POP DUP3 PUSH20 0xFFFFFFFFFFFFFFFFFFFFFFFFFFFFFFFFFFFFFFFF AND PUSH1 0x1 DUP3 DUP2 SLOAD DUP2 LT PUSH2 0xEB0 JUMPI PUSH2 0xEAF PUSH2 0x1474 JUMP JUMPDEST JUMPDEST SWAP1 PUSH0 MSTORE PUSH1 0x20 PUSH0 KECCAK256 SWAP1 PUSH1 0x6 MUL ADD PUSH0 ADD PUSH0 SWAP1 SLOAD SWAP1 PUSH2 0x100 EXP SWAP1 DIV PUSH20 0xFFFFFFFFFFFFFFFFFFFFFFFFFFFFFFFFFFFFFFFF AND PUSH20 0xFFFFFFFFFFFFFFFFFFFFFFFFFFFFFFFFFFFFFFFF AND EQ PUSH2 0xF34 JUMPI PUSH1 0x40 MLOAD PUSH32 0x8C379A000000000000000000000000000000000000000000000000000000000 DUP2 MSTORE PUSH1 0x4 ADD PUSH2 0xF2B SWAP1 PUSH2 0x1CCA JUMP JUMPDEST PUSH1 0x40 MLOAD DUP1 SWAP2 SUB SWAP1 REVERT JUMPDEST CALLVALUE PUSH1 0x1 DUP3 DUP2 SLOAD DUP2 LT PUSH2 0xF49 JUMPI PUSH2 0xF48 PUSH2 0x1474 JUMP JUMPDEST JUMPDEST SWAP1 PUSH0 MSTORE PUSH1 0x20 PUSH0 KECCAK256 SWAP1 PUSH1 0x6 MUL ADD PUSH1 0x4 ADD PUSH0 DUP3 DUP3 SLOAD PUSH2 0xF66 SWAP2 SWAP1 PUSH2 0x1925 JUMP JUMPDEST SWAP3 POP POP DUP2 SWAP1 SSTORE POP PUSH32 0x90890809C654F11D6E72A28FA60149770A0D11EC6C92319D6CEB2BB0A4EA1A15 CALLER CALLVALUE TIMESTAMP PUSH1 0x40 MLOAD PUSH2 0xFA0 SWAP4 SWAP3 SWAP2 SWAP1 PUSH2 0x1CE8 JUMP JUMPDEST PUSH1 0x40 MLOAD DUP1 SWAP2 SUB SWAP1 LOG1 POP POP POP JUMP JUMPDEST PUSH1 0x40 MLOAD DUP1 PUSH1 0xC0 ADD PUSH1 0x40 MSTORE DUP1 PUSH0 PUSH20 0xFFFFFFFFFFFFFFFFFFFFFFFFFFFFFFFFFFFFFFFF AND DUP2 MSTORE PUSH1 0x20 ADD PUSH1 0x60 DUP2 MSTORE PUSH1 0x20 ADD PUSH1 0x60 DUP2 MSTORE PUSH1 0x20 ADD PUSH0 DUP2 MSTORE PUSH1 0x20 ADD PUSH0 DUP2 MSTORE PUSH1 0x20 ADD PUSH0 ISZERO ISZERO DUP2 MSTORE POP SWAP1 JUMP JUMPDEST PUSH0 PUSH1 0x40 MLOAD SWAP1 POP SWAP1 JUMP JUMPDEST PUSH0 DUP1 REVERT JUMPDEST PUSH0 DUP1 REVERT JUMPDEST PUSH0 PUSH20 0xFFFFFFFFFFFFFFFFFFFFFFFFFFFFFFFFFFFFFFFF DUP3 AND SWAP1 POP SWAP2 SWAP1 POP JUMP JUMPDEST PUSH0 PUSH2 0x1031 DUP3 PUSH2 0x1008 JUMP JUMPDEST SWAP1 POP SWAP2 SWAP1 POP JUMP JUMPDEST PUSH2 0x1041 DUP2 PUSH2 0x1027 JUMP JUMPDEST DUP2 EQ PUSH2 0x104B JUMPI PUSH0 DUP1 REVERT JUMPDEST POP JUMP JUMPDEST PUSH0 DUP2 CALLDATALOAD SWAP1 POP PUSH2 0x105C DUP2 PUSH2 0x1038 JUMP JUMPDEST SWAP3 SWAP2 POP POP JUMP JUMPDEST PUSH0 PUSH1 0x20 DUP3 DUP5 SUB SLT ISZERO PUSH2 0x1077 JUMPI PUSH2 0x1076 PUSH2 0x1000 JUMP JUMPDEST JUMPDEST PUSH0 PUSH2 0x1084 DUP5 DUP3 DUP6 ADD PUSH2 0x104E JUMP JUMPDEST SWAP2 POP POP SWAP3 SWAP2 POP POP JUMP JUMPDEST PUSH0 DUP1 REVERT JUMPDEST PUSH0 DUP1 REVERT JUMPDEST PUSH0 PUSH1 0x1F NOT PUSH1 0x1F DUP4 ADD AND SWAP1 POP SWAP2 SWAP1 POP JUMP JUMPDEST PUSH32 0x4E487B7100000000000000000000000000000000000000000000000000000000 PUSH0 MSTORE PUSH1 0x41 PUSH1 0x4 MSTORE PUSH1 0x24 PUSH0 REVERT JUMPDEST PUSH2 0x10DB DUP3 PUSH2 0x1095 JUMP JUMPDEST DUP2 ADD DUP2 DUP2 LT PUSH8 0xFFFFFFFFFFFFFFFF DUP3 GT OR ISZERO PUSH2 0x10FA JUMPI PUSH2 0x10F9 PUSH2 0x10A5 JUMP JUMPDEST JUMPDEST DUP1 PUSH1 0x40 MSTORE POP POP POP JUMP JUMPDEST PUSH0 PUSH2 0x110C PUSH2 0xFF7 JUMP JUMPDEST SWAP1 POP PUSH2 0x1118 DUP3 DUP3 PUSH2 0x10D2 JUMP JUMPDEST SWAP2 SWAP1 POP JUMP JUMPDEST PUSH0 PUSH8 0xFFFFFFFFFFFFFFFF DUP3 GT ISZERO PUSH2 0x1137 JUMPI PUSH2 0x1136 PUSH2 0x10A5 JUMP JUMPDEST JUMPDEST PUSH2 0x1140 DUP3 PUSH2 0x1095 JUMP JUMPDEST SWAP1 POP PUSH1 0x20 DUP2 ADD SWAP1 POP SWAP2 SWAP1 POP JUMP JUMPDEST DUP3 DUP2 DUP4 CALLDATACOPY PUSH0 DUP4 DUP4 ADD MSTORE POP POP POP JUMP JUMPDEST PUSH0 PUSH2 0x116D PUSH2 0x1168 DUP5 PUSH2 0x111D JUMP JUMPDEST PUSH2 0x1103 JUMP JUMPDEST SWAP1 POP DUP3 DUP2 MSTORE PUSH1 0x20 DUP2 ADD DUP5 DUP5 DUP5 ADD GT ISZERO PUSH2 0x1189 JUMPI PUSH2 0x1188 PUSH2 0x1091 JUMP JUMPDEST JUMPDEST PUSH2 0x1194 DUP5 DUP3 DUP6 PUSH2 0x114D JUMP JUMPDEST POP SWAP4 SWAP3 POP POP POP JUMP JUMPDEST PUSH0 DUP3 PUSH1 0x1F DUP4 ADD SLT PUSH2 0x11B0 JUMPI PUSH2 0x11AF PUSH2 0x108D JUMP JUMPDEST JUMPDEST DUP2 CALLDATALOAD PUSH2 0x11C0 DUP5 DUP3 PUSH1 0x20 DUP7 ADD PUSH2 0x115B JUMP JUMPDEST SWAP2 POP POP SWAP3 SWAP2 POP POP JUMP JUMPDEST PUSH0 DUP1 PUSH0 PUSH1 0x60 DUP5 DUP7 SUB SLT ISZERO PUSH2 0x11E0 JUMPI PUSH2 0x11DF PUSH2 0x1000 JUMP JUMPDEST JUMPDEST PUSH0 PUSH2 0x11ED DUP7 DUP3 DUP8 ADD PUSH2 0x104E JUMP JUMPDEST SWAP4 POP POP PUSH1 0x20 DUP5 ADD CALLDATALOAD PUSH8 0xFFFFFFFFFFFFFFFF DUP2 GT ISZERO PUSH2 0x120E JUMPI PUSH2 0x120D PUSH2 0x1004 JUMP JUMPDEST JUMPDEST PUSH2 0x121A DUP7 DUP3 DUP8 ADD PUSH2 0x119C JUMP JUMPDEST SWAP3 POP POP PUSH1 0x40 DUP5 ADD CALLDATALOAD PUSH8 0xFFFFFFFFFFFFFFFF DUP2 GT ISZERO PUSH2 0x123B JUMPI PUSH2 0x123A PUSH2 0x1004 JUMP JUMPDEST JUMPDEST PUSH2 0x1247 DUP7 DUP3 DUP8 ADD PUSH2 0x119C JUMP JUMPDEST SWAP2 POP POP SWAP3 POP SWAP3 POP SWAP3 JUMP JUMPDEST PUSH0 DUP2 SWAP1 POP SWAP2 SWAP1 POP JUMP JUMPDEST PUSH2 0x1263 DUP2 PUSH2 0x1251 JUMP JUMPDEST DUP2 EQ PUSH2 0x126D JUMPI PUSH0 DUP1 REVERT JUMPDEST POP JUMP JUMPDEST PUSH0 DUP2 CALLDATALOAD SWAP1 POP PUSH2 0x127E DUP2 PUSH2 0x125A JUMP JUMPDEST SWAP3 SWAP2 POP POP JUMP JUMPDEST PUSH0 PUSH1 0x20 DUP3 DUP5 SUB SLT ISZERO PUSH2 0x1299 JUMPI PUSH2 0x1298 PUSH2 0x1000 JUMP JUMPDEST JUMPDEST PUSH0 PUSH2 0x12A6 DUP5 DUP3 DUP6 ADD PUSH2 0x1270 JUMP JUMPDEST SWAP2 POP POP SWAP3 SWAP2 POP POP JUMP JUMPDEST PUSH2 0x12B8 DUP2 PUSH2 0x1027 JUMP JUMPDEST DUP3 MSTORE POP POP JUMP JUMPDEST PUSH0 DUP2 MLOAD SWAP1 POP SWAP2 SWAP1 POP JUMP JUMPDEST PUSH0 DUP3 DUP3 MSTORE PUSH1 0x20 DUP3 ADD SWAP1 POP SWAP3 SWAP2 POP POP JUMP JUMPDEST DUP3 DUP2 DUP4 MCOPY PUSH0 DUP4 DUP4 ADD MSTORE POP POP POP JUMP JUMPDEST PUSH0 PUSH2 0x12F0 DUP3 PUSH2 0x12BE JUMP JUMPDEST PUSH2 0x12FA DUP2 DUP6 PUSH2 0x12C8 JUMP JUMPDEST SWAP4 POP PUSH2 0x130A DUP2 DUP6 PUSH1 0x20 DUP7 ADD PUSH2 0x12D8 JUMP JUMPDEST PUSH2 0x1313 DUP2 PUSH2 0x1095 JUMP JUMPDEST DUP5 ADD SWAP2 POP POP SWAP3 SWAP2 POP POP JUMP JUMPDEST PUSH2 0x1327 DUP2 PUSH2 0x1251 JUMP JUMPDEST DUP3 MSTORE POP POP JUMP JUMPDEST PUSH0 DUP2 ISZERO ISZERO SWAP1 POP SWAP2 SWAP1 POP JUMP JUMPDEST PUSH2 0x1341 DUP2 PUSH2 0x132D JUMP JUMPDEST DUP3 MSTORE POP POP JUMP JUMPDEST PUSH0 PUSH1 0xC0 DUP3 ADD SWAP1 POP PUSH2 0x135A PUSH0 DUP4 ADD DUP10 PUSH2 0x12AF JUMP JUMPDEST DUP2 DUP2 SUB PUSH1 0x20 DUP4 ADD MSTORE PUSH2 0x136C DUP2 DUP9 PUSH2 0x12E6 JUMP JUMPDEST SWAP1 POP DUP2 DUP2 SUB PUSH1 0x40 DUP4 ADD MSTORE PUSH2 0x1380 DUP2 DUP8 PUSH2 0x12E6 JUMP JUMPDEST SWAP1 POP PUSH2 0x138F PUSH1 0x60 DUP4 ADD DUP7 PUSH2 0x131E JUMP JUMPDEST PUSH2 0x139C PUSH1 0x80 DUP4 ADD DUP6 PUSH2 0x131E JUMP JUMPDEST PUSH2 0x13A9 PUSH1 0xA0 DUP4 ADD DUP5 PUSH2 0x1338 JUMP JUMPDEST SWAP8 SWAP7 POP POP POP POP POP POP POP JUMP JUMPDEST PUSH0 PUSH2 0x13BE DUP3 PUSH2 0x1008 JUMP JUMPDEST SWAP1 POP SWAP2 SWAP1 POP JUMP JUMPDEST PUSH2 0x13CE DUP2 PUSH2 0x13B4 JUMP JUMPDEST DUP3 MSTORE POP POP JUMP JUMPDEST PUSH0 PUSH1 0x20 DUP3 ADD SWAP1 POP PUSH2 0x13E7 PUSH0 DUP4 ADD DUP5 PUSH2 0x13C5 JUMP JUMPDEST SWAP3 SWAP2 POP POP JUMP JUMPDEST PUSH2 0x13F6 DUP2 PUSH2 0x13B4 JUMP JUMPDEST DUP2 EQ PUSH2 0x1400 JUMPI PUSH0 DUP1 REVERT JUMPDEST POP JUMP JUMPDEST PUSH0 DUP2 CALLDATALOAD SWAP1 POP PUSH2 0x1411 DUP2 PUSH2 0x13ED JUMP JUMPDEST SWAP3 SWAP2 POP POP JUMP JUMPDEST PUSH0 PUSH1 0x20 DUP3 DUP5 SUB SLT ISZERO PUSH2 0x142C JUMPI PUSH2 0x142B PUSH2 0x1000 JUMP JUMPDEST JUMPDEST PUSH0 PUSH2 0x1439 DUP5 DUP3 DUP6 ADD PUSH2 0x1403 JUMP JUMPDEST SWAP2 POP POP SWAP3 SWAP2 POP POP JUMP JUMPDEST PUSH0 PUSH1 0x20 DUP3 ADD SWAP1 POP PUSH2 0x1455 PUSH0 DUP4 ADD DUP5 PUSH2 0x1338 JUMP JUMPDEST SWAP3 SWAP2 POP POP JUMP JUMPDEST PUSH0 PUSH1 0x20 DUP3 ADD SWAP1 POP PUSH2 0x146E PUSH0 DUP4 ADD DUP5 PUSH2 0x131E JUMP JUMPDEST SWAP3 SWAP2 POP POP JUMP JUMPDEST PUSH32 0x4E487B7100000000000000000000000000000000000000000000000000000000 PUSH0 MSTORE PUSH1 0x32 PUSH1 0x4 MSTORE PUSH1 0x24 PUSH0 REVERT JUMPDEST PUSH32 0x496E73756666696369656E742062616C616E6365000000000000000000000000 PUSH0 DUP3 ADD MSTORE POP JUMP JUMPDEST PUSH0 PUSH2 0x14D5 PUSH1 0x14 DUP4 PUSH2 0x12C8 JUMP JUMPDEST SWAP2 POP PUSH2 0x14E0 DUP3 PUSH2 0x14A1 JUMP JUMPDEST PUSH1 0x20 DUP3 ADD SWAP1 POP SWAP2 SWAP1 POP JUMP JUMPDEST PUSH0 PUSH1 0x20 DUP3 ADD SWAP1 POP DUP2 DUP2 SUB PUSH0 DUP4 ADD MSTORE PUSH2 0x1502 DUP2 PUSH2 0x14C9 JUMP JUMPDEST SWAP1 POP SWAP2 SWAP1 POP JUMP JUMPDEST PUSH32 0x4F6E6C79206F776E6572206F6620746865206163636F756E7400000000000000 PUSH0 DUP3 ADD MSTORE POP JUMP JUMPDEST PUSH0 PUSH2 0x153D PUSH1 0x19 DUP4 PUSH2 0x12C8 JUMP JUMPDEST SWAP2 POP PUSH2 0x1548 DUP3 PUSH2 0x1509 JUMP JUMPDEST PUSH1 0x20 DUP3 ADD SWAP1 POP SWAP2 SWAP1 POP JUMP JUMPDEST PUSH0 PUSH1 0x20 DUP3 ADD SWAP1 POP DUP2 DUP2 SUB PUSH0 DUP4 ADD MSTORE PUSH2 0x156A DUP2 PUSH2 0x1531 JUMP JUMPDEST SWAP1 POP SWAP2 SWAP1 POP JUMP JUMPDEST PUSH32 0x5761697420666F72207468652072656C656173652074696D6500000000000000 PUSH0 DUP3 ADD MSTORE POP JUMP JUMPDEST PUSH0 PUSH2 0x15A5 PUSH1 0x19 DUP4 PUSH2 0x12C8 JUMP JUMPDEST SWAP2 POP PUSH2 0x15B0 DUP3 PUSH2 0x1571 JUMP JUMPDEST PUSH1 0x20 DUP3 ADD SWAP1 POP SWAP2 SWAP1 POP JUMP JUMPDEST PUSH0 PUSH1 0x20 DUP3 ADD SWAP1 POP DUP2 DUP2 SUB PUSH0 DUP4 ADD MSTORE PUSH2 0x15D2 DUP2 PUSH2 0x1599 JUMP JUMPDEST SWAP1 POP SWAP2 SWAP1 POP JUMP JUMPDEST PUSH32 0x46756E647320616C72656164792077697468647261776E000000000000000000 PUSH0 DUP3 ADD MSTORE POP JUMP JUMPDEST PUSH0 PUSH2 0x160D PUSH1 0x17 DUP4 PUSH2 0x12C8 JUMP JUMPDEST SWAP2 POP PUSH2 0x1618 DUP3 PUSH2 0x15D9 JUMP JUMPDEST PUSH1 0x20 DUP3 ADD SWAP1 POP SWAP2 SWAP1 POP JUMP JUMPDEST PUSH0 PUSH1 0x20 DUP3 ADD SWAP1 POP DUP2 DUP2 SUB PUSH0 DUP4 ADD MSTORE PUSH2 0x163A DUP2 PUSH2 0x1601 JUMP JUMPDEST SWAP1 POP SWAP2 SWAP1 POP JUMP JUMPDEST PUSH0 DUP2 SWAP1 POP SWAP2 SWAP1 POP JUMP JUMPDEST PUSH0 PUSH2 0x1664 PUSH2 0x165F PUSH2 0x165A DUP5 PUSH2 0x1008 JUMP JUMPDEST PUSH2 0x1641 JUMP JUMPDEST PUSH2 0x1008 JUMP JUMPDEST SWAP1 POP SWAP2 SWAP1 POP JUMP JUMPDEST PUSH0 PUSH2 0x1675 DUP3 PUSH2 0x164A JUMP JUMPDEST SWAP1 POP SWAP2 SWAP1 POP JUMP JUMPDEST PUSH0 PUSH2 0x1686 DUP3 PUSH2 0x166B JUMP JUMPDEST SWAP1 POP SWAP2 SWAP1 POP JUMP JUMPDEST PUSH2 0x1696 DUP2 PUSH2 0x167C JUMP JUMPDEST DUP3 MSTORE POP POP JUMP JUMPDEST PUSH0 PUSH1 0x60 DUP3 ADD SWAP1 POP PUSH2 0x16AF PUSH0 DUP4 ADD DUP7 PUSH2 0x168D JUMP JUMPDEST PUSH2 0x16BC PUSH1 0x20 DUP4 ADD DUP6 PUSH2 0x131E JUMP JUMPDEST PUSH2 0x16C9 PUSH1 0x40 DUP4 ADD DUP5 PUSH2 0x131E JUMP JUMPDEST SWAP5 SWAP4 POP POP POP POP JUMP JUMPDEST PUSH32 0x4F776E65722063616E27742062652061206B6964000000000000000000000000 PUSH0 DUP3 ADD MSTORE POP JUMP JUMPDEST PUSH0 PUSH2 0x1705 PUSH1 0x14 DUP4 PUSH2 0x12C8 JUMP JUMPDEST SWAP2 POP PUSH2 0x1710 DUP3 PUSH2 0x16D1 JUMP JUMPDEST PUSH1 0x20 DUP3 ADD SWAP1 POP SWAP2 SWAP1 POP JUMP JUMPDEST PUSH0 PUSH1 0x20 DUP3 ADD SWAP1 POP DUP2 DUP2 SUB PUSH0 DUP4 ADD MSTORE PUSH2 0x1732 DUP2 PUSH2 0x16F9 JUMP JUMPDEST SWAP1 POP SWAP2 SWAP1 POP JUMP JUMPDEST PUSH32 0x4164647265737320697320616C72656164792075736564000000000000000000 PUSH0 DUP3 ADD MSTORE POP JUMP JUMPDEST PUSH0 PUSH2 0x176D PUSH1 0x17 DUP4 PUSH2 0x12C8 JUMP JUMPDEST SWAP2 POP PUSH2 0x1778 DUP3 PUSH2 0x1739 JUMP JUMPDEST PUSH1 0x20 DUP3 ADD SWAP1 POP SWAP2 SWAP1 POP JUMP JUMPDEST PUSH0 PUSH1 0x20 DUP3 ADD SWAP1 POP DUP2 DUP2 SUB PUSH0 DUP4 ADD MSTORE PUSH2 0x179A DUP2 PUSH2 0x1761 JUMP JUMPDEST SWAP1 POP SWAP2 SWAP1 POP JUMP JUMPDEST PUSH0 DUP2 SWAP1 POP SWAP3 SWAP2 POP POP JUMP JUMPDEST PUSH0 PUSH2 0x17B5 DUP3 PUSH2 0x12BE JUMP JUMPDEST PUSH2 0x17BF DUP2 DUP6 PUSH2 0x17A1 JUMP JUMPDEST SWAP4 POP PUSH2 0x17CF DUP2 DUP6 PUSH1 0x20 DUP7 ADD PUSH2 0x12D8 JUMP JUMPDEST DUP1 DUP5 ADD SWAP2 POP POP SWAP3 SWAP2 POP POP JUMP JUMPDEST PUSH0 PUSH2 0x17E6 DUP3 DUP5 PUSH2 0x17AB JUMP JUMPDEST SWAP2 POP DUP2 SWAP1 POP SWAP3 SWAP2 POP POP JUMP JUMPDEST POP JUMP JUMPDEST PUSH0 PUSH2 0x17FF PUSH0 DUP4 PUSH2 0x17A1 JUMP JUMPDEST SWAP2 POP PUSH2 0x180A DUP3 PUSH2 0x17F1 JUMP JUMPDEST PUSH0 DUP3 ADD SWAP1 POP SWAP2 SWAP1 POP JUMP JUMPDEST PUSH0 PUSH2 0x181E DUP3 PUSH2 0x17F4 JUMP JUMPDEST SWAP2 POP DUP2 SWAP1 POP SWAP2 SWAP1 POP JUMP JUMPDEST PUSH32 0x4669727374204E616D652063616E6E6F7420626520656D707479000000000000 PUSH0 DUP3 ADD MSTORE POP JUMP JUMPDEST PUSH0 PUSH2 0x185C PUSH1 0x1A DUP4 PUSH2 0x12C8 JUMP JUMPDEST SWAP2 POP PUSH2 0x1867 DUP3 PUSH2 0x1828 JUMP JUMPDEST PUSH1 0x20 DUP3 ADD SWAP1 POP SWAP2 SWAP1 POP JUMP JUMPDEST PUSH0 PUSH1 0x20 DUP3 ADD SWAP1 POP DUP2 DUP2 SUB PUSH0 DUP4 ADD MSTORE PUSH2 0x1889 DUP2 PUSH2 0x1850 JUMP JUMPDEST SWAP1 POP SWAP2 SWAP1 POP JUMP JUMPDEST PUSH32 0x4C617374204E616D652063616E6E6F7420626520656D70747900000000000000 PUSH0 DUP3 ADD MSTORE POP JUMP JUMPDEST PUSH0 PUSH2 0x18C4 PUSH1 0x19 DUP4 PUSH2 0x12C8 JUMP JUMPDEST SWAP2 POP PUSH2 0x18CF DUP3 PUSH2 0x1890 JUMP JUMPDEST PUSH1 0x20 DUP3 ADD SWAP1 POP SWAP2 SWAP1 POP JUMP JUMPDEST PUSH0 PUSH1 0x20 DUP3 ADD SWAP1 POP DUP2 DUP2 SUB PUSH0 DUP4 ADD MSTORE PUSH2 0x18F1 DUP2 PUSH2 0x18B8 JUMP JUMPDEST SWAP1 POP SWAP2 SWAP1 POP JUMP JUMPDEST PUSH32 0x4E487B7100000000000000000000000000000000000000000000000000000000 PUSH0 MSTORE PUSH1 0x11 PUSH1 0x4 MSTORE PUSH1 0x24 PUSH0 REVERT JUMPDEST PUSH0 PUSH2 0x192F DUP3 PUSH2 0x1251 JUMP JUMPDEST SWAP2 POP PUSH2 0x193A DUP4 PUSH2 0x1251 JUMP JUMPDEST SWAP3 POP DUP3 DUP3 ADD SWAP1 POP DUP1 DUP3 GT ISZERO PUSH2 0x1952 JUMPI PUSH2 0x1951 PUSH2 0x18F8 JUMP JUMPDEST JUMPDEST SWAP3 SWAP2 POP POP JUMP JUMPDEST PUSH32 0x4E487B7100000000000000000000000000000000000000000000000000000000 PUSH0 MSTORE PUSH1 0x22 PUSH1 0x4 MSTORE PUSH1 0x24 PUSH0 REVERT JUMPDEST PUSH0 PUSH1 0x2 DUP3 DIV SWAP1 POP PUSH1 0x1 DUP3 AND DUP1 PUSH2 0x199C JUMPI PUSH1 0x7F DUP3 AND SWAP2 POP JUMPDEST PUSH1 0x20 DUP3 LT DUP2 SUB PUSH2 0x19AF JUMPI PUSH2 0x19AE PUSH2 0x1958 JUMP JUMPDEST JUMPDEST POP SWAP2 SWAP1 POP JUMP JUMPDEST PUSH0 DUP2 SWAP1 POP DUP2 PUSH0 MSTORE PUSH1 0x20 PUSH0 KECCAK256 SWAP1 POP SWAP2 SWAP1 POP JUMP JUMPDEST PUSH0 PUSH1 0x20 PUSH1 0x1F DUP4 ADD DIV SWAP1 POP SWAP2 SWAP1 POP JUMP JUMPDEST PUSH0 DUP3 DUP3 SHL SWAP1 POP SWAP3 SWAP2 POP POP JUMP JUMPDEST PUSH0 PUSH1 0x8 DUP4 MUL PUSH2 0x1A11 PUSH32 0xFFFFFFFFFFFFFFFFFFFFFFFFFFFFFFFFFFFFFFFFFFFFFFFFFFFFFFFFFFFFFFFF DUP3 PUSH2 0x19D6 JUMP JUMPDEST PUSH2 0x1A1B DUP7 DUP4 PUSH2 0x19D6 JUMP JUMPDEST SWAP6 POP DUP1 NOT DUP5 AND SWAP4 POP DUP1 DUP7 AND DUP5 OR SWAP3 POP POP POP SWAP4 SWAP3 POP POP POP JUMP JUMPDEST PUSH0 PUSH2 0x1A4D PUSH2 0x1A48 PUSH2 0x1A43 DUP5 PUSH2 0x1251 JUMP JUMPDEST PUSH2 0x1641 JUMP JUMPDEST PUSH2 0x1251 JUMP JUMPDEST SWAP1 POP SWAP2 SWAP1 POP JUMP JUMPDEST PUSH0 DUP2 SWAP1 POP SWAP2 SWAP1 POP JUMP JUMPDEST PUSH2 0x1A66 DUP4 PUSH2 0x1A33 JUMP JUMPDEST PUSH2 0x1A7A PUSH2 0x1A72 DUP3 PUSH2 0x1A54 JUMP JUMPDEST DUP5 DUP5 SLOAD PUSH2 0x19E2 JUMP JUMPDEST DUP3 SSTORE POP POP POP POP JUMP JUMPDEST PUSH0 SWAP1 JUMP JUMPDEST PUSH2 0x1A8E PUSH2 0x1A82 JUMP JUMPDEST PUSH2 0x1A99 DUP2 DUP5 DUP5 PUSH2 0x1A5D JUMP JUMPDEST POP POP POP JUMP JUMPDEST JUMPDEST DUP2 DUP2 LT ISZERO PUSH2 0x1ABC JUMPI PUSH2 0x1AB1 PUSH0 DUP3 PUSH2 0x1A86 JUMP JUMPDEST PUSH1 0x1 DUP2 ADD SWAP1 POP PUSH2 0x1A9F JUMP JUMPDEST POP POP JUMP JUMPDEST PUSH1 0x1F DUP3 GT ISZERO PUSH2 0x1B01 JUMPI PUSH2 0x1AD2 DUP2 PUSH2 0x19B5 JUMP JUMPDEST PUSH2 0x1ADB DUP5 PUSH2 0x19C7 JUMP JUMPDEST DUP2 ADD PUSH1 0x20 DUP6 LT ISZERO PUSH2 0x1AEA JUMPI DUP2 SWAP1 POP JUMPDEST PUSH2 0x1AFE PUSH2 0x1AF6 DUP6 PUSH2 0x19C7 JUMP JUMPDEST DUP4 ADD DUP3 PUSH2 0x1A9E JUMP JUMPDEST POP POP JUMPDEST POP POP POP JUMP JUMPDEST PUSH0 DUP3 DUP3 SHR SWAP1 POP SWAP3 SWAP2 POP POP JUMP JUMPDEST PUSH0 PUSH2 0x1B21 PUSH0 NOT DUP5 PUSH1 0x8 MUL PUSH2 0x1B06 JUMP JUMPDEST NOT DUP1 DUP4 AND SWAP2 POP POP SWAP3 SWAP2 POP POP JUMP JUMPDEST PUSH0 PUSH2 0x1B39 DUP4 DUP4 PUSH2 0x1B12 JUMP JUMPDEST SWAP2 POP DUP3 PUSH1 0x2 MUL DUP3 OR SWAP1 POP SWAP3 SWAP2 POP POP JUMP JUMPDEST PUSH2 0x1B52 DUP3 PUSH2 0x12BE JUMP JUMPDEST PUSH8 0xFFFFFFFFFFFFFFFF DUP2 GT ISZERO PUSH2 0x1B6B JUMPI PUSH2 0x1B6A PUSH2 0x10A5 JUMP JUMPDEST JUMPDEST PUSH2 0x1B75 DUP3 SLOAD PUSH2 0x1985 JUMP JUMPDEST PUSH2 0x1B80 DUP3 DUP3 DUP6 PUSH2 0x1AC0 JUMP JUMPDEST PUSH0 PUSH1 0x20 SWAP1 POP PUSH1 0x1F DUP4 GT PUSH1 0x1 DUP2 EQ PUSH2 0x1BB1 JUMPI PUSH0 DUP5 ISZERO PUSH2 0x1B9F JUMPI DUP3 DUP8 ADD MLOAD SWAP1 POP JUMPDEST PUSH2 0x1BA9 DUP6 DUP3 PUSH2 0x1B2E JUMP JUMPDEST DUP7 SSTORE POP PUSH2 0x1C10 JUMP JUMPDEST PUSH1 0x1F NOT DUP5 AND PUSH2 0x1BBF DUP7 PUSH2 0x19B5 JUMP JUMPDEST PUSH0 JUMPDEST DUP3 DUP2 LT ISZERO PUSH2 0x1BE6 JUMPI DUP5 DUP10 ADD MLOAD DUP3 SSTORE PUSH1 0x1 DUP3 ADD SWAP2 POP PUSH1 0x20 DUP6 ADD SWAP5 POP PUSH1 0x20 DUP2 ADD SWAP1 POP PUSH2 0x1BC1 JUMP JUMPDEST DUP7 DUP4 LT ISZERO PUSH2 0x1C03 JUMPI DUP5 DUP10 ADD MLOAD PUSH2 0x1BFF PUSH1 0x1F DUP10 AND DUP3 PUSH2 0x1B12 JUMP JUMPDEST DUP4 SSTORE POP JUMPDEST PUSH1 0x1 PUSH1 0x2 DUP9 MUL ADD DUP9 SSTORE POP POP POP JUMPDEST POP POP POP POP POP POP JUMP JUMPDEST PUSH32 0x4F776E65722063616E6E6F742062652061206368696C64000000000000000000 PUSH0 DUP3 ADD MSTORE POP JUMP JUMPDEST PUSH0 PUSH2 0x1C4C PUSH1 0x17 DUP4 PUSH2 0x12C8 JUMP JUMPDEST SWAP2 POP PUSH2 0x1C57 DUP3 PUSH2 0x1C18 JUMP JUMPDEST PUSH1 0x20 DUP3 ADD SWAP1 POP SWAP2 SWAP1 POP JUMP JUMPDEST PUSH0 PUSH1 0x20 DUP3 ADD SWAP1 POP DUP2 DUP2 SUB PUSH0 DUP4 ADD MSTORE PUSH2 0x1C79 DUP2 PUSH2 0x1C40 JUMP JUMPDEST SWAP1 POP SWAP2 SWAP1 POP JUMP JUMPDEST PUSH32 0x41646472657373206973206E6F7420696E206B69647320617272617900000000 PUSH0 DUP3 ADD MSTORE POP JUMP JUMPDEST PUSH0 PUSH2 0x1CB4 PUSH1 0x1C DUP4 PUSH2 0x12C8 JUMP JUMPDEST SWAP2 POP PUSH2 0x1CBF DUP3 PUSH2 0x1C80 JUMP JUMPDEST PUSH1 0x20 DUP3 ADD SWAP1 POP SWAP2 SWAP1 POP JUMP JUMPDEST PUSH0 PUSH1 0x20 DUP3 ADD SWAP1 POP DUP2 DUP2 SUB PUSH0 DUP4 ADD MSTORE PUSH2 0x1CE1 DUP2 PUSH2 0x1CA8 JUMP JUMPDEST SWAP1 POP SWAP2 SWAP1 POP JUMP JUMPDEST PUSH0 PUSH1 0x60 DUP3 ADD SWAP1 POP PUSH2 0x1CFB PUSH0 DUP4 ADD DUP7 PUSH2 0x13C5 JUMP JUMPDEST PUSH2 0x1D08 PUSH1 0x20 DUP4 ADD DUP6 PUSH2 0x131E JUMP JUMPDEST PUSH2 0x1D15 PUSH1 0x40 DUP4 ADD DUP5 PUSH2 0x131E JUMP JUMPDEST SWAP5 SWAP4 POP POP POP POP JUMP INVALID LOG2 PUSH5 0x6970667358 0x22 SLT KECCAK256 0xEF LOG1 0x28 PUSH25 0x852DD60627CF60246FF5E4F61197B450F24DF6AC467D8D4175 0xB0 0xE 0xC8 PUSH5 0x736F6C6343 STOP ADDMOD BYTE STOP CALLER "
				},
				"gasEstimates": {
					"creation": {
						"codeDepositCost": "1501400",
						"executionCost": "25831",
						"totalCost": "1527231"
					},
					"external": {
						"addKid(address,string,string)": "infinite",
						"availableToWithdraw(address)": "infinite",
						"balance()": "infinite",
						"deposit(address)": "infinite",
						"getIndex(address)": "infinite",
						"kids(uint256)": "infinite",
						"owner()": "2572",
						"withdraw(address)": "infinite"
					}
				},
				"methodIdentifiers": {
					"addKid(address,string,string)": "55da12ce",
					"availableToWithdraw(address)": "a25db8ce",
					"balance()": "b69ef8a8",
					"deposit(address)": "f340fa01",
					"getIndex(address)": "b31610db",
					"kids(uint256)": "7285fd3a",
					"owner()": "8da5cb5b",
					"withdraw(address)": "51cff8d9"
				}
			},
			"storageLayout": {
				"storage": [
					{
						"astId": 3,
						"contract": "lecture contracts/cryptokid.sol:CryptoKid",
						"label": "owner",
						"offset": 0,
						"slot": "0",
						"type": "t_address"
					},
					{
						"astId": 40,
						"contract": "lecture contracts/cryptokid.sol:CryptoKid",
						"label": "kids",
						"offset": 0,
						"slot": "1",
						"type": "t_array(t_struct(Kid)36_storage)dyn_storage"
					}
				],
				"types": {
					"t_address": {
						"encoding": "inplace",
						"label": "address",
						"numberOfBytes": "20"
					},
					"t_address_payable": {
						"encoding": "inplace",
						"label": "address payable",
						"numberOfBytes": "20"
					},
					"t_array(t_struct(Kid)36_storage)dyn_storage": {
						"base": "t_struct(Kid)36_storage",
						"encoding": "dynamic_array",
						"label": "struct CryptoKid.Kid[]",
						"numberOfBytes": "32"
					},
					"t_bool": {
						"encoding": "inplace",
						"label": "bool",
						"numberOfBytes": "1"
					},
					"t_string_storage": {
						"encoding": "bytes",
						"label": "string",
						"numberOfBytes": "32"
					},
					"t_struct(Kid)36_storage": {
						"encoding": "inplace",
						"label": "struct CryptoKid.Kid",
						"members": [
							{
								"astId": 25,
								"contract": "lecture contracts/cryptokid.sol:CryptoKid",
								"label": "walletAddress",
								"offset": 0,
								"slot": "0",
								"type": "t_address_payable"
							},
							{
								"astId": 27,
								"contract": "lecture contracts/cryptokid.sol:CryptoKid",
								"label": "firstName",
								"offset": 0,
								"slot": "1",
								"type": "t_string_storage"
							},
							{
								"astId": 29,
								"contract": "lecture contracts/cryptokid.sol:CryptoKid",
								"label": "lastName",
								"offset": 0,
								"slot": "2",
								"type": "t_string_storage"
							},
							{
								"astId": 31,
								"contract": "lecture contracts/cryptokid.sol:CryptoKid",
								"label": "releaseDate",
								"offset": 0,
								"slot": "3",
								"type": "t_uint256"
							},
							{
								"astId": 33,
								"contract": "lecture contracts/cryptokid.sol:CryptoKid",
								"label": "amount",
								"offset": 0,
								"slot": "4",
								"type": "t_uint256"
							},
							{
								"astId": 35,
								"contract": "lecture contracts/cryptokid.sol:CryptoKid",
								"label": "withdrawn",
								"offset": 0,
								"slot": "5",
								"type": "t_bool"
							}
						],
						"numberOfBytes": "192"
					},
					"t_uint256": {
						"encoding": "inplace",
						"label": "uint256",
						"numberOfBytes": "32"
					}
				}
			},
			"userdoc": {
				"kind": "user",
				"methods": {},
				"version": 1
			}
		}
	}
}