{
	"lecture contracts/SimpleToDo.sol": {
		"SimpleToDo": {
			"abi": [
				{
					"inputs": [],
					"stateMutability": "nonpayable",
					"type": "constructor"
				},
				{
					"inputs": [],
					"name": "invalidUser",
					"type": "error"
				},
				{
					"anonymous": false,
					"inputs": [],
					"name": "allToDoDeleted",
					"type": "event"
				},
				{
					"anonymous": false,
					"inputs": [
						{
							"indexed": false,
							"internalType": "string",
							"name": "text",
							"type": "string"
						}
					],
					"name": "toDoCreated",
					"type": "event"
				},
				{
					"anonymous": false,
					"inputs": [
						{
							"indexed": false,
							"internalType": "uint256",
							"name": "index",
							"type": "uint256"
						}
					],
					"name": "toDoDeleted",
					"type": "event"
				},
				{
					"anonymous": false,
					"inputs": [
						{
							"indexed": false,
							"internalType": "uint256",
							"name": "index",
							"type": "uint256"
						},
						{
							"indexed": false,
							"internalType": "string",
							"name": "text",
							"type": "string"
						}
					],
					"name": "toDoUpdated",
					"type": "event"
				},
				{
					"inputs": [
						{
							"internalType": "string",
							"name": "_text",
							"type": "string"
						}
					],
					"name": "create",
					"outputs": [],
					"stateMutability": "nonpayable",
					"type": "function"
				},
				{
					"inputs": [
						{
							"internalType": "uint256",
							"name": "_index",
							"type": "uint256"
						}
					],
					"name": "deleteToDo",
					"outputs": [],
					"stateMutability": "nonpayable",
					"type": "function"
				},
				{
					"inputs": [
						{
							"internalType": "uint256",
							"name": "_index",
							"type": "uint256"
						}
					],
					"name": "get",
					"outputs": [
						{
							"internalType": "string",
							"name": "",
							"type": "string"
						},
						{
							"internalType": "bool",
							"name": "",
							"type": "bool"
						}
					],
					"stateMutability": "view",
					"type": "function"
				},
				{
					"inputs": [],
					"name": "lengthOfToDo",
					"outputs": [
						{
							"internalType": "uint256",
							"name": "",
							"type": "uint256"
						}
					],
					"stateMutability": "view",
					"type": "function"
				},
				{
					"inputs": [
						{
							"internalType": "uint256",
							"name": "",
							"type": "uint256"
						}
					],
					"name": "todos",
					"outputs": [
						{
							"internalType": "string",
							"name": "text",
							"type": "string"
						},
						{
							"internalType": "bool",
							"name": "completed",
							"type": "bool"
						}
					],
					"stateMutability": "view",
					"type": "function"
				},
				{
					"inputs": [
						{
							"internalType": "uint256",
							"name": "_index",
							"type": "uint256"
						}
					],
					"name": "toggleCompleted",
					"outputs": [],
					"stateMutability": "nonpayable",
					"type": "function"
				},
				{
					"inputs": [
						{
							"internalType": "uint256",
							"name": "_index",
							"type": "uint256"
						},
						{
							"internalType": "string",
							"name": "_text",
							"type": "string"
						}
					],
					"name": "updateText",
					"outputs": [],
					"stateMutability": "nonpayable",
					"type": "function"
				},
				{
					"inputs": [],
					"name": "user",
					"outputs": [
						{
							"internalType": "address",
							"name": "",
							"type": "address"
						}
					],
					"stateMutability": "view",
					"type": "function"
				}
			],
			"devdoc": {
				"kind": "dev",
				"methods": {},
				"version": 1
			},
			"evm": {
				"assembly": "    /* \"lecture contracts/SimpleToDo.sol\":114:1786  contract SimpleToDo {... */\n  mstore(0x40, 0x80)\n    /* \"lecture contracts/SimpleToDo.sol\":663:713  constructor() {... */\n  callvalue\n  dup1\n  iszero\n  tag_1\n  jumpi\n  0x00\n  dup1\n  revert\ntag_1:\n  pop\n    /* \"lecture contracts/SimpleToDo.sol\":695:705  msg.sender */\n  caller\n    /* \"lecture contracts/SimpleToDo.sol\":688:692  user */\n  0x00\n  dup1\n    /* \"lecture contracts/SimpleToDo.sol\":688:705  user = msg.sender */\n  0x0100\n  exp\n  dup2\n  sload\n  dup2\n  0xffffffffffffffffffffffffffffffffffffffff\n  mul\n  not\n  and\n  swap1\n  dup4\n  0xffffffffffffffffffffffffffffffffffffffff\n  and\n  mul\n  or\n  swap1\n  sstore\n  pop\n    /* \"lecture contracts/SimpleToDo.sol\":114:1786  contract SimpleToDo {... */\n  dataSize(sub_0)\n  dup1\n  dataOffset(sub_0)\n  0x00\n  codecopy\n  0x00\n  return\nstop\n\nsub_0: assembly {\n        /* \"lecture contracts/SimpleToDo.sol\":114:1786  contract SimpleToDo {... */\n      mstore(0x40, 0x80)\n      callvalue\n      dup1\n      iszero\n      tag_1\n      jumpi\n      0x00\n      dup1\n      revert\n    tag_1:\n      pop\n      jumpi(tag_2, lt(calldatasize, 0x04))\n      shr(0xe0, calldataload(0x00))\n      dup1\n      0x9507d39a\n      gt\n      tag_11\n      jumpi\n      dup1\n      0x9507d39a\n      eq\n      tag_7\n      jumpi\n      dup1\n      0xb6a46b3b\n      eq\n      tag_8\n      jumpi\n      dup1\n      0xbc8bc2b4\n      eq\n      tag_9\n      jumpi\n      dup1\n      0xcd111614\n      eq\n      tag_10\n      jumpi\n      jump(tag_2)\n    tag_11:\n      dup1\n      0x23eaeadd\n      eq\n      tag_3\n      jumpi\n      dup1\n      0x455f5024\n      eq\n      tag_4\n      jumpi\n      dup1\n      0x4f8632ba\n      eq\n      tag_5\n      jumpi\n      dup1\n      0x549fd151\n      eq\n      tag_6\n      jumpi\n    tag_2:\n      0x00\n      dup1\n      revert\n        /* \"lecture contracts/SimpleToDo.sol\":1690:1783  function lengthOfToDo() external view returns(uint256) {... */\n    tag_3:\n      tag_12\n      tag_13\n      jump\t// in\n    tag_12:\n      mload(0x40)\n      tag_14\n      swap2\n      swap1\n      tag_15\n      jump\t// in\n    tag_14:\n      mload(0x40)\n      dup1\n      swap2\n      sub\n      swap1\n      return\n        /* \"lecture contracts/SimpleToDo.sol\":1341:1487  function toggleCompleted(uint _index) external validUser outOfBounds(_index) {... */\n    tag_4:\n      tag_16\n      0x04\n      dup1\n      calldatasize\n      sub\n      dup2\n      add\n      swap1\n      tag_17\n      swap2\n      swap1\n      tag_18\n      jump\t// in\n    tag_17:\n      tag_19\n      jump\t// in\n    tag_16:\n      stop\n        /* \"lecture contracts/SimpleToDo.sol\":143:162  address public user */\n    tag_5:\n      tag_20\n      tag_21\n      jump\t// in\n    tag_20:\n      mload(0x40)\n      tag_22\n      swap2\n      swap1\n      tag_23\n      jump\t// in\n    tag_22:\n      mload(0x40)\n      dup1\n      swap2\n      sub\n      swap1\n      return\n        /* \"lecture contracts/SimpleToDo.sol\":1495:1682  function deleteToDo(uint _index) external validUser outOfBounds(_index) {... */\n    tag_6:\n      tag_24\n      0x04\n      dup1\n      calldatasize\n      sub\n      dup2\n      add\n      swap1\n      tag_25\n      swap2\n      swap1\n      tag_18\n      jump\t// in\n    tag_25:\n      tag_26\n      jump\t// in\n    tag_24:\n      stop\n        /* \"lecture contracts/SimpleToDo.sol\":1143:1329  function get(uint _index) external view outOfBounds(_index) returns (string memory, bool) {... */\n    tag_7:\n      tag_27\n      0x04\n      dup1\n      calldatasize\n      sub\n      dup2\n      add\n      swap1\n      tag_28\n      swap2\n      swap1\n      tag_18\n      jump\t// in\n    tag_28:\n      tag_29\n      jump\t// in\n    tag_27:\n      mload(0x40)\n      tag_30\n      swap3\n      swap2\n      swap1\n      tag_31\n      jump\t// in\n    tag_30:\n      mload(0x40)\n      dup1\n      swap2\n      sub\n      swap1\n      return\n        /* \"lecture contracts/SimpleToDo.sol\":824:984  function create(string calldata _text) external validUser {... */\n    tag_8:\n      tag_32\n      0x04\n      dup1\n      calldatasize\n      sub\n      dup2\n      add\n      swap1\n      tag_33\n      swap2\n      swap1\n      tag_34\n      jump\t// in\n    tag_33:\n      tag_35\n      jump\t// in\n    tag_32:\n      stop\n        /* \"lecture contracts/SimpleToDo.sol\":796:815  ToDo[] public todos */\n    tag_9:\n      tag_36\n      0x04\n      dup1\n      calldatasize\n      sub\n      dup2\n      add\n      swap1\n      tag_37\n      swap2\n      swap1\n      tag_18\n      jump\t// in\n    tag_37:\n      tag_38\n      jump\t// in\n    tag_36:\n      mload(0x40)\n      tag_39\n      swap3\n      swap2\n      swap1\n      tag_31\n      jump\t// in\n    tag_39:\n      mload(0x40)\n      dup1\n      swap2\n      sub\n      swap1\n      return\n        /* \"lecture contracts/SimpleToDo.sol\":992:1135  function updateText(uint256 _index, string calldata _text) external validUser outOfBounds(_index) {... */\n    tag_10:\n      tag_40\n      0x04\n      dup1\n      calldatasize\n      sub\n      dup2\n      add\n      swap1\n      tag_41\n      swap2\n      swap1\n      tag_42\n      jump\t// in\n    tag_41:\n      tag_43\n      jump\t// in\n    tag_40:\n      stop\n        /* \"lecture contracts/SimpleToDo.sol\":1690:1783  function lengthOfToDo() external view returns(uint256) {... */\n    tag_13:\n        /* \"lecture contracts/SimpleToDo.sol\":1736:1743  uint256 */\n      0x00\n        /* \"lecture contracts/SimpleToDo.sol\":1763:1768  todos */\n      0x01\n        /* \"lecture contracts/SimpleToDo.sol\":1763:1775  todos.length */\n      dup1\n      sload\n      swap1\n      pop\n        /* \"lecture contracts/SimpleToDo.sol\":1756:1775  return todos.length */\n      swap1\n      pop\n        /* \"lecture contracts/SimpleToDo.sol\":1690:1783  function lengthOfToDo() external view returns(uint256) {... */\n      swap1\n      jump\t// out\n        /* \"lecture contracts/SimpleToDo.sol\":1341:1487  function toggleCompleted(uint _index) external validUser outOfBounds(_index) {... */\n    tag_19:\n        /* \"lecture contracts/SimpleToDo.sol\":454:458  user */\n      0x00\n      dup1\n      sload\n      swap1\n      0x0100\n      exp\n      swap1\n      div\n      0xffffffffffffffffffffffffffffffffffffffff\n      and\n        /* \"lecture contracts/SimpleToDo.sol\":440:458  msg.sender != user */\n      0xffffffffffffffffffffffffffffffffffffffff\n      and\n        /* \"lecture contracts/SimpleToDo.sol\":440:450  msg.sender */\n      caller\n        /* \"lecture contracts/SimpleToDo.sol\":440:458  msg.sender != user */\n      0xffffffffffffffffffffffffffffffffffffffff\n      and\n      eq\n        /* \"lecture contracts/SimpleToDo.sol\":437:507  if(msg.sender != user) {... */\n      tag_46\n      jumpi\n        /* \"lecture contracts/SimpleToDo.sol\":482:495  invalidUser() */\n      mload(0x40)\n      0xc939d2b700000000000000000000000000000000000000000000000000000000\n      dup2\n      mstore\n      0x04\n      add\n      mload(0x40)\n      dup1\n      swap2\n      sub\n      swap1\n      revert\n        /* \"lecture contracts/SimpleToDo.sol\":437:507  if(msg.sender != user) {... */\n    tag_46:\n        /* \"lecture contracts/SimpleToDo.sol\":1410:1416  _index */\n      dup1\n        /* \"lecture contracts/SimpleToDo.sol\":599:604  todos */\n      0x01\n        /* \"lecture contracts/SimpleToDo.sol\":599:611  todos.length */\n      dup1\n      sload\n      swap1\n      pop\n        /* \"lecture contracts/SimpleToDo.sol\":590:596  _index */\n      dup2\n        /* \"lecture contracts/SimpleToDo.sol\":590:611  _index < todos.length */\n      lt\n        /* \"lecture contracts/SimpleToDo.sol\":582:635  require(_index < todos.length, \"Index out of bounds\") */\n      tag_48\n      jumpi\n      mload(0x40)\n      0x08c379a000000000000000000000000000000000000000000000000000000000\n      dup2\n      mstore\n      0x04\n      add\n      tag_49\n      swap1\n      tag_50\n      jump\t// in\n    tag_49:\n      mload(0x40)\n      dup1\n      swap2\n      sub\n      swap1\n      revert\n    tag_48:\n        /* \"lecture contracts/SimpleToDo.sol\":1456:1461  todos */\n      0x01\n        /* \"lecture contracts/SimpleToDo.sol\":1462:1468  _index */\n      dup3\n        /* \"lecture contracts/SimpleToDo.sol\":1456:1469  todos[_index] */\n      dup2\n      sload\n      dup2\n      lt\n      tag_52\n      jumpi\n      tag_53\n      tag_54\n      jump\t// in\n    tag_53:\n    tag_52:\n      swap1\n      0x00\n      mstore\n      keccak256(0x00, 0x20)\n      swap1\n      0x02\n      mul\n      add\n        /* \"lecture contracts/SimpleToDo.sol\":1456:1479  todos[_index].completed */\n      0x01\n      add\n      0x00\n      swap1\n      sload\n      swap1\n      0x0100\n      exp\n      swap1\n      div\n      0xff\n      and\n        /* \"lecture contracts/SimpleToDo.sol\":1455:1479  !todos[_index].completed */\n      iszero\n        /* \"lecture contracts/SimpleToDo.sol\":1429:1434  todos */\n      0x01\n        /* \"lecture contracts/SimpleToDo.sol\":1435:1441  _index */\n      dup4\n        /* \"lecture contracts/SimpleToDo.sol\":1429:1442  todos[_index] */\n      dup2\n      sload\n      dup2\n      lt\n      tag_56\n      jumpi\n      tag_57\n      tag_54\n      jump\t// in\n    tag_57:\n    tag_56:\n      swap1\n      0x00\n      mstore\n      keccak256(0x00, 0x20)\n      swap1\n      0x02\n      mul\n      add\n        /* \"lecture contracts/SimpleToDo.sol\":1429:1452  todos[_index].completed */\n      0x01\n      add\n      0x00\n        /* \"lecture contracts/SimpleToDo.sol\":1429:1479  todos[_index].completed = !todos[_index].completed */\n      0x0100\n      exp\n      dup2\n      sload\n      dup2\n      0xff\n      mul\n      not\n      and\n      swap1\n      dup4\n      iszero\n      iszero\n      mul\n      or\n      swap1\n      sstore\n      pop\n        /* \"lecture contracts/SimpleToDo.sol\":517:518  _ */\n      pop\n        /* \"lecture contracts/SimpleToDo.sol\":1341:1487  function toggleCompleted(uint _index) external validUser outOfBounds(_index) {... */\n      pop\n      jump\t// out\n        /* \"lecture contracts/SimpleToDo.sol\":143:162  address public user */\n    tag_21:\n      0x00\n      dup1\n      sload\n      swap1\n      0x0100\n      exp\n      swap1\n      div\n      0xffffffffffffffffffffffffffffffffffffffff\n      and\n      dup2\n      jump\t// out\n        /* \"lecture contracts/SimpleToDo.sol\":1495:1682  function deleteToDo(uint _index) external validUser outOfBounds(_index) {... */\n    tag_26:\n        /* \"lecture contracts/SimpleToDo.sol\":454:458  user */\n      0x00\n      dup1\n      sload\n      swap1\n      0x0100\n      exp\n      swap1\n      div\n      0xffffffffffffffffffffffffffffffffffffffff\n      and\n        /* \"lecture contracts/SimpleToDo.sol\":440:458  msg.sender != user */\n      0xffffffffffffffffffffffffffffffffffffffff\n      and\n        /* \"lecture contracts/SimpleToDo.sol\":440:450  msg.sender */\n      caller\n        /* \"lecture contracts/SimpleToDo.sol\":440:458  msg.sender != user */\n      0xffffffffffffffffffffffffffffffffffffffff\n      and\n      eq\n        /* \"lecture contracts/SimpleToDo.sol\":437:507  if(msg.sender != user) {... */\n      tag_60\n      jumpi\n        /* \"lecture contracts/SimpleToDo.sol\":482:495  invalidUser() */\n      mload(0x40)\n      0xc939d2b700000000000000000000000000000000000000000000000000000000\n      dup2\n      mstore\n      0x04\n      add\n      mload(0x40)\n      dup1\n      swap2\n      sub\n      swap1\n      revert\n        /* \"lecture contracts/SimpleToDo.sol\":437:507  if(msg.sender != user) {... */\n    tag_60:\n        /* \"lecture contracts/SimpleToDo.sol\":1559:1565  _index */\n      dup1\n        /* \"lecture contracts/SimpleToDo.sol\":599:604  todos */\n      0x01\n        /* \"lecture contracts/SimpleToDo.sol\":599:611  todos.length */\n      dup1\n      sload\n      swap1\n      pop\n        /* \"lecture contracts/SimpleToDo.sol\":590:596  _index */\n      dup2\n        /* \"lecture contracts/SimpleToDo.sol\":590:611  _index < todos.length */\n      lt\n        /* \"lecture contracts/SimpleToDo.sol\":582:635  require(_index < todos.length, \"Index out of bounds\") */\n      tag_62\n      jumpi\n      mload(0x40)\n      0x08c379a000000000000000000000000000000000000000000000000000000000\n      dup2\n      mstore\n      0x04\n      add\n      tag_63\n      swap1\n      tag_50\n      jump\t// in\n    tag_63:\n      mload(0x40)\n      dup1\n      swap2\n      sub\n      swap1\n      revert\n    tag_62:\n        /* \"lecture contracts/SimpleToDo.sol\":1594:1599  todos */\n      0x01\n        /* \"lecture contracts/SimpleToDo.sol\":1615:1616  1 */\n      dup1\n        /* \"lecture contracts/SimpleToDo.sol\":1600:1605  todos */\n      dup1\n        /* \"lecture contracts/SimpleToDo.sol\":1600:1612  todos.length */\n      dup1\n      sload\n      swap1\n      pop\n        /* \"lecture contracts/SimpleToDo.sol\":1600:1616  todos.length - 1 */\n      tag_65\n      swap2\n      swap1\n      tag_66\n      jump\t// in\n    tag_65:\n        /* \"lecture contracts/SimpleToDo.sol\":1594:1617  todos[todos.length - 1] */\n      dup2\n      sload\n      dup2\n      lt\n      tag_67\n      jumpi\n      tag_68\n      tag_54\n      jump\t// in\n    tag_68:\n    tag_67:\n      swap1\n      0x00\n      mstore\n      keccak256(0x00, 0x20)\n      swap1\n      0x02\n      mul\n      add\n        /* \"lecture contracts/SimpleToDo.sol\":1578:1583  todos */\n      0x01\n        /* \"lecture contracts/SimpleToDo.sol\":1584:1590  _index */\n      dup4\n        /* \"lecture contracts/SimpleToDo.sol\":1578:1591  todos[_index] */\n      dup2\n      sload\n      dup2\n      lt\n      tag_70\n      jumpi\n      tag_71\n      tag_54\n      jump\t// in\n    tag_71:\n    tag_70:\n      swap1\n      0x00\n      mstore\n      keccak256(0x00, 0x20)\n      swap1\n      0x02\n      mul\n      add\n        /* \"lecture contracts/SimpleToDo.sol\":1578:1617  todos[_index] = todos[todos.length - 1] */\n      0x00\n      dup3\n      add\n      dup2\n      0x00\n      add\n      swap1\n      dup2\n      tag_73\n      swap2\n      swap1\n      tag_74\n      jump\t// in\n    tag_73:\n      pop\n      0x01\n      dup3\n      add\n      0x00\n      swap1\n      sload\n      swap1\n      0x0100\n      exp\n      swap1\n      div\n      0xff\n      and\n      dup2\n      0x01\n      add\n      exp(0x0100, 0x00)\n      dup2\n      sload\n      dup2\n      0xff\n      mul\n      not\n      and\n      swap1\n      dup4\n      iszero\n      iszero\n      mul\n      or\n      swap1\n      sstore\n      pop\n      swap1\n      pop\n      pop\n        /* \"lecture contracts/SimpleToDo.sol\":1628:1633  todos */\n      0x01\n        /* \"lecture contracts/SimpleToDo.sol\":1628:1639  todos.pop() */\n      dup1\n      sload\n      dup1\n      tag_75\n      jumpi\n      tag_76\n      tag_77\n      jump\t// in\n    tag_76:\n    tag_75:\n      0x01\n      swap1\n      sub\n      dup2\n      dup2\n      swap1\n      0x00\n      mstore\n      keccak256(0x00, 0x20)\n      swap1\n      0x02\n      mul\n      add\n      0x00\n      dup1\n      dup3\n      add\n      0x00\n      tag_79\n      swap2\n      swap1\n      tag_80\n      jump\t// in\n    tag_79:\n      0x01\n      dup3\n      add\n      exp(0x0100, 0x00)\n      dup2\n      sload\n      swap1\n      0xff\n      mul\n      not\n      and\n      swap1\n      sstore\n      pop\n      pop\n      swap1\n      sstore\n        /* \"lecture contracts/SimpleToDo.sol\":1655:1674  toDoDeleted(_index) */\n      0x8dc20f2d1c4b122c207261d55b94609d434113f2fe40b70797c1b445eb6eef03\n        /* \"lecture contracts/SimpleToDo.sol\":1667:1673  _index */\n      dup3\n        /* \"lecture contracts/SimpleToDo.sol\":1655:1674  toDoDeleted(_index) */\n      mload(0x40)\n      tag_81\n      swap2\n      swap1\n      tag_15\n      jump\t// in\n    tag_81:\n      mload(0x40)\n      dup1\n      swap2\n      sub\n      swap1\n      log1\n        /* \"lecture contracts/SimpleToDo.sol\":517:518  _ */\n      pop\n        /* \"lecture contracts/SimpleToDo.sol\":1495:1682  function deleteToDo(uint _index) external validUser outOfBounds(_index) {... */\n      pop\n      jump\t// out\n        /* \"lecture contracts/SimpleToDo.sol\":1143:1329  function get(uint _index) external view outOfBounds(_index) returns (string memory, bool) {... */\n    tag_29:\n        /* \"lecture contracts/SimpleToDo.sol\":1212:1225  string memory */\n      0x60\n        /* \"lecture contracts/SimpleToDo.sol\":1227:1231  bool */\n      0x00\n        /* \"lecture contracts/SimpleToDo.sol\":1195:1201  _index */\n      dup3\n        /* \"lecture contracts/SimpleToDo.sol\":599:604  todos */\n      0x01\n        /* \"lecture contracts/SimpleToDo.sol\":599:611  todos.length */\n      dup1\n      sload\n      swap1\n      pop\n        /* \"lecture contracts/SimpleToDo.sol\":590:596  _index */\n      dup2\n        /* \"lecture contracts/SimpleToDo.sol\":590:611  _index < todos.length */\n      lt\n        /* \"lecture contracts/SimpleToDo.sol\":582:635  require(_index < todos.length, \"Index out of bounds\") */\n      tag_83\n      jumpi\n      mload(0x40)\n      0x08c379a000000000000000000000000000000000000000000000000000000000\n      dup2\n      mstore\n      0x04\n      add\n      tag_84\n      swap1\n      tag_50\n      jump\t// in\n    tag_84:\n      mload(0x40)\n      dup1\n      swap2\n      sub\n      swap1\n      revert\n    tag_83:\n        /* \"lecture contracts/SimpleToDo.sol\":1244:1260  ToDo memory todo */\n      0x00\n        /* \"lecture contracts/SimpleToDo.sol\":1263:1268  todos */\n      0x01\n        /* \"lecture contracts/SimpleToDo.sol\":1269:1275  _index */\n      dup6\n        /* \"lecture contracts/SimpleToDo.sol\":1263:1276  todos[_index] */\n      dup2\n      sload\n      dup2\n      lt\n      tag_86\n      jumpi\n      tag_87\n      tag_54\n      jump\t// in\n    tag_87:\n    tag_86:\n      swap1\n      0x00\n      mstore\n      keccak256(0x00, 0x20)\n      swap1\n      0x02\n      mul\n      add\n        /* \"lecture contracts/SimpleToDo.sol\":1244:1276  ToDo memory todo = todos[_index] */\n      mload(0x40)\n      dup1\n      0x40\n      add\n      0x40\n      mstore\n      swap1\n      dup2\n      0x00\n      dup3\n      add\n      dup1\n      sload\n      tag_89\n      swap1\n      tag_90\n      jump\t// in\n    tag_89:\n      dup1\n      0x1f\n      add\n      0x20\n      dup1\n      swap2\n      div\n      mul\n      0x20\n      add\n      mload(0x40)\n      swap1\n      dup2\n      add\n      0x40\n      mstore\n      dup1\n      swap3\n      swap2\n      swap1\n      dup2\n      dup2\n      mstore\n      0x20\n      add\n      dup3\n      dup1\n      sload\n      tag_91\n      swap1\n      tag_90\n      jump\t// in\n    tag_91:\n      dup1\n      iszero\n      tag_92\n      jumpi\n      dup1\n      0x1f\n      lt\n      tag_93\n      jumpi\n      0x0100\n      dup1\n      dup4\n      sload\n      div\n      mul\n      dup4\n      mstore\n      swap2\n      0x20\n      add\n      swap2\n      jump(tag_92)\n    tag_93:\n      dup3\n      add\n      swap2\n      swap1\n      0x00\n      mstore\n      keccak256(0x00, 0x20)\n      swap1\n    tag_94:\n      dup2\n      sload\n      dup2\n      mstore\n      swap1\n      0x01\n      add\n      swap1\n      0x20\n      add\n      dup1\n      dup4\n      gt\n      tag_94\n      jumpi\n      dup3\n      swap1\n      sub\n      0x1f\n      and\n      dup3\n      add\n      swap2\n    tag_92:\n      pop\n      pop\n      pop\n      pop\n      pop\n      dup2\n      mstore\n      0x20\n      add\n      0x01\n      dup3\n      add\n      0x00\n      swap1\n      sload\n      swap1\n      0x0100\n      exp\n      swap1\n      div\n      0xff\n      and\n      iszero\n      iszero\n      iszero\n      iszero\n      dup2\n      mstore\n      pop\n      pop\n      swap1\n      pop\n        /* \"lecture contracts/SimpleToDo.sol\":1295:1299  todo */\n      dup1\n        /* \"lecture contracts/SimpleToDo.sol\":1295:1304  todo.text */\n      0x00\n      add\n      mload\n        /* \"lecture contracts/SimpleToDo.sol\":1306:1310  todo */\n      dup2\n        /* \"lecture contracts/SimpleToDo.sol\":1306:1320  todo.completed */\n      0x20\n      add\n      mload\n        /* \"lecture contracts/SimpleToDo.sol\":1287:1321  return (todo.text, todo.completed) */\n      swap4\n      pop\n      swap4\n      pop\n      pop\n        /* \"lecture contracts/SimpleToDo.sol\":1143:1329  function get(uint _index) external view outOfBounds(_index) returns (string memory, bool) {... */\n      pop\n      swap2\n      pop\n      swap2\n      jump\t// out\n        /* \"lecture contracts/SimpleToDo.sol\":824:984  function create(string calldata _text) external validUser {... */\n    tag_35:\n        /* \"lecture contracts/SimpleToDo.sol\":454:458  user */\n      0x00\n      dup1\n      sload\n      swap1\n      0x0100\n      exp\n      swap1\n      div\n      0xffffffffffffffffffffffffffffffffffffffff\n      and\n        /* \"lecture contracts/SimpleToDo.sol\":440:458  msg.sender != user */\n      0xffffffffffffffffffffffffffffffffffffffff\n      and\n        /* \"lecture contracts/SimpleToDo.sol\":440:450  msg.sender */\n      caller\n        /* \"lecture contracts/SimpleToDo.sol\":440:458  msg.sender != user */\n      0xffffffffffffffffffffffffffffffffffffffff\n      and\n      eq\n        /* \"lecture contracts/SimpleToDo.sol\":437:507  if(msg.sender != user) {... */\n      tag_96\n      jumpi\n        /* \"lecture contracts/SimpleToDo.sol\":482:495  invalidUser() */\n      mload(0x40)\n      0xc939d2b700000000000000000000000000000000000000000000000000000000\n      dup2\n      mstore\n      0x04\n      add\n      mload(0x40)\n      dup1\n      swap2\n      sub\n      swap1\n      revert\n        /* \"lecture contracts/SimpleToDo.sol\":437:507  if(msg.sender != user) {... */\n    tag_96:\n        /* \"lecture contracts/SimpleToDo.sol\":893:898  todos */\n      0x01\n        /* \"lecture contracts/SimpleToDo.sol\":904:941  ToDo({text: _text, completed: false}) */\n      mload(0x40)\n      dup1\n      0x40\n      add\n      0x40\n      mstore\n      dup1\n        /* \"lecture contracts/SimpleToDo.sol\":916:921  _text */\n      dup5\n      dup5\n        /* \"lecture contracts/SimpleToDo.sol\":904:941  ToDo({text: _text, completed: false}) */\n      dup1\n      dup1\n      0x1f\n      add\n      0x20\n      dup1\n      swap2\n      div\n      mul\n      0x20\n      add\n      mload(0x40)\n      swap1\n      dup2\n      add\n      0x40\n      mstore\n      dup1\n      swap4\n      swap3\n      swap2\n      swap1\n      dup2\n      dup2\n      mstore\n      0x20\n      add\n      dup4\n      dup4\n      dup1\n      dup3\n      dup5\n      calldatacopy\n      0x00\n      dup2\n      dup5\n      add\n      mstore\n      not(0x1f)\n      0x1f\n      dup3\n      add\n      and\n      swap1\n      pop\n      dup1\n      dup4\n      add\n      swap3\n      pop\n      pop\n      pop\n      pop\n      pop\n      pop\n      pop\n      dup2\n      mstore\n      0x20\n      add\n        /* \"lecture contracts/SimpleToDo.sol\":934:939  false */\n      0x00\n        /* \"lecture contracts/SimpleToDo.sol\":904:941  ToDo({text: _text, completed: false}) */\n      iszero\n      iszero\n      dup2\n      mstore\n      pop\n        /* \"lecture contracts/SimpleToDo.sol\":893:942  todos.push(ToDo({text: _text, completed: false})) */\n      swap1\n      dup1\n      0x01\n      dup2\n      sload\n      add\n      dup1\n      dup3\n      sstore\n      dup1\n      swap2\n      pop\n      pop\n      0x01\n      swap1\n      sub\n      swap1\n      0x00\n      mstore\n      keccak256(0x00, 0x20)\n      swap1\n      0x02\n      mul\n      add\n      0x00\n      swap1\n      swap2\n      swap1\n      swap2\n      swap1\n      swap2\n      pop\n      0x00\n      dup3\n      add\n      mload\n      dup2\n      0x00\n      add\n      swap1\n      dup2\n      tag_99\n      swap2\n      swap1\n      tag_100\n      jump\t// in\n    tag_99:\n      pop\n      0x20\n      dup3\n      add\n      mload\n      dup2\n      0x01\n      add\n      exp(0x0100, 0x00)\n      dup2\n      sload\n      dup2\n      0xff\n      mul\n      not\n      and\n      swap1\n      dup4\n      iszero\n      iszero\n      mul\n      or\n      swap1\n      sstore\n      pop\n      pop\n      pop\n        /* \"lecture contracts/SimpleToDo.sol\":958:976  toDoCreated(_text) */\n      0xa742d97269120ffb3772462b1a0df7dfc4461b339676518cad33eb2884523adc\n        /* \"lecture contracts/SimpleToDo.sol\":970:975  _text */\n      dup3\n      dup3\n        /* \"lecture contracts/SimpleToDo.sol\":958:976  toDoCreated(_text) */\n      mload(0x40)\n      tag_101\n      swap3\n      swap2\n      swap1\n      tag_102\n      jump\t// in\n    tag_101:\n      mload(0x40)\n      dup1\n      swap2\n      sub\n      swap1\n      log1\n        /* \"lecture contracts/SimpleToDo.sol\":824:984  function create(string calldata _text) external validUser {... */\n      pop\n      pop\n      jump\t// out\n        /* \"lecture contracts/SimpleToDo.sol\":796:815  ToDo[] public todos */\n    tag_38:\n      0x01\n      dup2\n      dup2\n      sload\n      dup2\n      lt\n      tag_103\n      jumpi\n      0x00\n      dup1\n      revert\n    tag_103:\n      swap1\n      0x00\n      mstore\n      keccak256(0x00, 0x20)\n      swap1\n      0x02\n      mul\n      add\n      0x00\n      swap2\n      pop\n      swap1\n      pop\n      dup1\n      0x00\n      add\n      dup1\n      sload\n      tag_105\n      swap1\n      tag_90\n      jump\t// in\n    tag_105:\n      dup1\n      0x1f\n      add\n      0x20\n      dup1\n      swap2\n      div\n      mul\n      0x20\n      add\n      mload(0x40)\n      swap1\n      dup2\n      add\n      0x40\n      mstore\n      dup1\n      swap3\n      swap2\n      swap1\n      dup2\n      dup2\n      mstore\n      0x20\n      add\n      dup3\n      dup1\n      sload\n      tag_106\n      swap1\n      tag_90\n      jump\t// in\n    tag_106:\n      dup1\n      iszero\n      tag_107\n      jumpi\n      dup1\n      0x1f\n      lt\n      tag_108\n      jumpi\n      0x0100\n      dup1\n      dup4\n      sload\n      div\n      mul\n      dup4\n      mstore\n      swap2\n      0x20\n      add\n      swap2\n      jump(tag_107)\n    tag_108:\n      dup3\n      add\n      swap2\n      swap1\n      0x00\n      mstore\n      keccak256(0x00, 0x20)\n      swap1\n    tag_109:\n      dup2\n      sload\n      dup2\n      mstore\n      swap1\n      0x01\n      add\n      swap1\n      0x20\n      add\n      dup1\n      dup4\n      gt\n      tag_109\n      jumpi\n      dup3\n      swap1\n      sub\n      0x1f\n      and\n      dup3\n      add\n      swap2\n    tag_107:\n      pop\n      pop\n      pop\n      pop\n      pop\n      swap1\n      dup1\n      0x01\n      add\n      0x00\n      swap1\n      sload\n      swap1\n      0x0100\n      exp\n      swap1\n      div\n      0xff\n      and\n      swap1\n      pop\n      dup3\n      jump\t// out\n        /* \"lecture contracts/SimpleToDo.sol\":992:1135  function updateText(uint256 _index, string calldata _text) external validUser outOfBounds(_index) {... */\n    tag_43:\n        /* \"lecture contracts/SimpleToDo.sol\":454:458  user */\n      0x00\n      dup1\n      sload\n      swap1\n      0x0100\n      exp\n      swap1\n      div\n      0xffffffffffffffffffffffffffffffffffffffff\n      and\n        /* \"lecture contracts/SimpleToDo.sol\":440:458  msg.sender != user */\n      0xffffffffffffffffffffffffffffffffffffffff\n      and\n        /* \"lecture contracts/SimpleToDo.sol\":440:450  msg.sender */\n      caller\n        /* \"lecture contracts/SimpleToDo.sol\":440:458  msg.sender != user */\n      0xffffffffffffffffffffffffffffffffffffffff\n      and\n      eq\n        /* \"lecture contracts/SimpleToDo.sol\":437:507  if(msg.sender != user) {... */\n      tag_111\n      jumpi\n        /* \"lecture contracts/SimpleToDo.sol\":482:495  invalidUser() */\n      mload(0x40)\n      0xc939d2b700000000000000000000000000000000000000000000000000000000\n      dup2\n      mstore\n      0x04\n      add\n      mload(0x40)\n      dup1\n      swap2\n      sub\n      swap1\n      revert\n        /* \"lecture contracts/SimpleToDo.sol\":437:507  if(msg.sender != user) {... */\n    tag_111:\n        /* \"lecture contracts/SimpleToDo.sol\":1082:1088  _index */\n      dup3\n        /* \"lecture contracts/SimpleToDo.sol\":599:604  todos */\n      0x01\n        /* \"lecture contracts/SimpleToDo.sol\":599:611  todos.length */\n      dup1\n      sload\n      swap1\n      pop\n        /* \"lecture contracts/SimpleToDo.sol\":590:596  _index */\n      dup2\n        /* \"lecture contracts/SimpleToDo.sol\":590:611  _index < todos.length */\n      lt\n        /* \"lecture contracts/SimpleToDo.sol\":582:635  require(_index < todos.length, \"Index out of bounds\") */\n      tag_113\n      jumpi\n      mload(0x40)\n      0x08c379a000000000000000000000000000000000000000000000000000000000\n      dup2\n      mstore\n      0x04\n      add\n      tag_114\n      swap1\n      tag_50\n      jump\t// in\n    tag_114:\n      mload(0x40)\n      dup1\n      swap2\n      sub\n      swap1\n      revert\n    tag_113:\n        /* \"lecture contracts/SimpleToDo.sol\":1122:1127  _text */\n      dup3\n      dup3\n        /* \"lecture contracts/SimpleToDo.sol\":1101:1106  todos */\n      0x01\n        /* \"lecture contracts/SimpleToDo.sol\":1107:1113  _index */\n      dup7\n        /* \"lecture contracts/SimpleToDo.sol\":1101:1114  todos[_index] */\n      dup2\n      sload\n      dup2\n      lt\n      tag_116\n      jumpi\n      tag_117\n      tag_54\n      jump\t// in\n    tag_117:\n    tag_116:\n      swap1\n      0x00\n      mstore\n      keccak256(0x00, 0x20)\n      swap1\n      0x02\n      mul\n      add\n        /* \"lecture contracts/SimpleToDo.sol\":1101:1119  todos[_index].text */\n      0x00\n      add\n        /* \"lecture contracts/SimpleToDo.sol\":1101:1127  todos[_index].text = _text */\n      swap2\n      dup3\n      tag_119\n      swap3\n      swap2\n      swap1\n      tag_120\n      jump\t// in\n    tag_119:\n      pop\n        /* \"lecture contracts/SimpleToDo.sol\":517:518  _ */\n      pop\n        /* \"lecture contracts/SimpleToDo.sol\":992:1135  function updateText(uint256 _index, string calldata _text) external validUser outOfBounds(_index) {... */\n      pop\n      pop\n      pop\n      jump\t// out\n    tag_80:\n      pop\n      dup1\n      sload\n      tag_121\n      swap1\n      tag_90\n      jump\t// in\n    tag_121:\n      0x00\n      dup3\n      sstore\n      dup1\n      0x1f\n      lt\n      tag_123\n      jumpi\n      pop\n      jump(tag_122)\n    tag_123:\n      0x1f\n      add\n      0x20\n      swap1\n      div\n      swap1\n      0x00\n      mstore\n      keccak256(0x00, 0x20)\n      swap1\n      dup2\n      add\n      swap1\n      tag_124\n      swap2\n      swap1\n      tag_125\n      jump\t// in\n    tag_124:\n    tag_122:\n      pop\n      jump\t// out\n    tag_125:\n    tag_126:\n      dup1\n      dup3\n      gt\n      iszero\n      tag_127\n      jumpi\n      0x00\n      dup2\n      0x00\n      swap1\n      sstore\n      pop\n      0x01\n      add\n      jump(tag_126)\n    tag_127:\n      pop\n      swap1\n      jump\t// out\n        /* \"#utility.yul\":7:84   */\n    tag_128:\n        /* \"#utility.yul\":44:51   */\n      0x00\n        /* \"#utility.yul\":73:78   */\n      dup2\n        /* \"#utility.yul\":62:78   */\n      swap1\n      pop\n        /* \"#utility.yul\":7:84   */\n      swap2\n      swap1\n      pop\n      jump\t// out\n        /* \"#utility.yul\":90:208   */\n    tag_129:\n        /* \"#utility.yul\":177:201   */\n      tag_176\n        /* \"#utility.yul\":195:200   */\n      dup2\n        /* \"#utility.yul\":177:201   */\n      tag_128\n      jump\t// in\n    tag_176:\n        /* \"#utility.yul\":172:175   */\n      dup3\n        /* \"#utility.yul\":165:202   */\n      mstore\n        /* \"#utility.yul\":90:208   */\n      pop\n      pop\n      jump\t// out\n        /* \"#utility.yul\":214:436   */\n    tag_15:\n        /* \"#utility.yul\":307:311   */\n      0x00\n        /* \"#utility.yul\":345:347   */\n      0x20\n        /* \"#utility.yul\":334:343   */\n      dup3\n        /* \"#utility.yul\":330:348   */\n      add\n        /* \"#utility.yul\":322:348   */\n      swap1\n      pop\n        /* \"#utility.yul\":358:429   */\n      tag_178\n        /* \"#utility.yul\":426:427   */\n      0x00\n        /* \"#utility.yul\":415:424   */\n      dup4\n        /* \"#utility.yul\":411:428   */\n      add\n        /* \"#utility.yul\":402:408   */\n      dup5\n        /* \"#utility.yul\":358:429   */\n      tag_129\n      jump\t// in\n    tag_178:\n        /* \"#utility.yul\":214:436   */\n      swap3\n      swap2\n      pop\n      pop\n      jump\t// out\n        /* \"#utility.yul\":523:640   */\n    tag_131:\n        /* \"#utility.yul\":632:633   */\n      0x00\n        /* \"#utility.yul\":629:630   */\n      dup1\n        /* \"#utility.yul\":622:634   */\n      revert\n        /* \"#utility.yul\":646:763   */\n    tag_132:\n        /* \"#utility.yul\":755:756   */\n      0x00\n        /* \"#utility.yul\":752:753   */\n      dup1\n        /* \"#utility.yul\":745:757   */\n      revert\n        /* \"#utility.yul\":769:891   */\n    tag_133:\n        /* \"#utility.yul\":842:866   */\n      tag_183\n        /* \"#utility.yul\":860:865   */\n      dup2\n        /* \"#utility.yul\":842:866   */\n      tag_128\n      jump\t// in\n    tag_183:\n        /* \"#utility.yul\":835:840   */\n      dup2\n        /* \"#utility.yul\":832:867   */\n      eq\n        /* \"#utility.yul\":822:885   */\n      tag_184\n      jumpi\n        /* \"#utility.yul\":881:882   */\n      0x00\n        /* \"#utility.yul\":878:879   */\n      dup1\n        /* \"#utility.yul\":871:883   */\n      revert\n        /* \"#utility.yul\":822:885   */\n    tag_184:\n        /* \"#utility.yul\":769:891   */\n      pop\n      jump\t// out\n        /* \"#utility.yul\":897:1036   */\n    tag_134:\n        /* \"#utility.yul\":943:948   */\n      0x00\n        /* \"#utility.yul\":981:987   */\n      dup2\n        /* \"#utility.yul\":968:988   */\n      calldataload\n        /* \"#utility.yul\":959:988   */\n      swap1\n      pop\n        /* \"#utility.yul\":997:1030   */\n      tag_186\n        /* \"#utility.yul\":1024:1029   */\n      dup2\n        /* \"#utility.yul\":997:1030   */\n      tag_133\n      jump\t// in\n    tag_186:\n        /* \"#utility.yul\":897:1036   */\n      swap3\n      swap2\n      pop\n      pop\n      jump\t// out\n        /* \"#utility.yul\":1042:1371   */\n    tag_18:\n        /* \"#utility.yul\":1101:1107   */\n      0x00\n        /* \"#utility.yul\":1150:1152   */\n      0x20\n        /* \"#utility.yul\":1138:1147   */\n      dup3\n        /* \"#utility.yul\":1129:1136   */\n      dup5\n        /* \"#utility.yul\":1125:1148   */\n      sub\n        /* \"#utility.yul\":1121:1153   */\n      slt\n        /* \"#utility.yul\":1118:1237   */\n      iszero\n      tag_188\n      jumpi\n        /* \"#utility.yul\":1156:1235   */\n      tag_189\n      tag_131\n      jump\t// in\n    tag_189:\n        /* \"#utility.yul\":1118:1237   */\n    tag_188:\n        /* \"#utility.yul\":1276:1277   */\n      0x00\n        /* \"#utility.yul\":1301:1354   */\n      tag_190\n        /* \"#utility.yul\":1346:1353   */\n      dup5\n        /* \"#utility.yul\":1337:1343   */\n      dup3\n        /* \"#utility.yul\":1326:1335   */\n      dup6\n        /* \"#utility.yul\":1322:1344   */\n      add\n        /* \"#utility.yul\":1301:1354   */\n      tag_134\n      jump\t// in\n    tag_190:\n        /* \"#utility.yul\":1291:1354   */\n      swap2\n      pop\n        /* \"#utility.yul\":1247:1364   */\n      pop\n        /* \"#utility.yul\":1042:1371   */\n      swap3\n      swap2\n      pop\n      pop\n      jump\t// out\n        /* \"#utility.yul\":1377:1503   */\n    tag_135:\n        /* \"#utility.yul\":1414:1421   */\n      0x00\n        /* \"#utility.yul\":1454:1496   */\n      0xffffffffffffffffffffffffffffffffffffffff\n        /* \"#utility.yul\":1447:1452   */\n      dup3\n        /* \"#utility.yul\":1443:1497   */\n      and\n        /* \"#utility.yul\":1432:1497   */\n      swap1\n      pop\n        /* \"#utility.yul\":1377:1503   */\n      swap2\n      swap1\n      pop\n      jump\t// out\n        /* \"#utility.yul\":1509:1605   */\n    tag_136:\n        /* \"#utility.yul\":1546:1553   */\n      0x00\n        /* \"#utility.yul\":1575:1599   */\n      tag_193\n        /* \"#utility.yul\":1593:1598   */\n      dup3\n        /* \"#utility.yul\":1575:1599   */\n      tag_135\n      jump\t// in\n    tag_193:\n        /* \"#utility.yul\":1564:1599   */\n      swap1\n      pop\n        /* \"#utility.yul\":1509:1605   */\n      swap2\n      swap1\n      pop\n      jump\t// out\n        /* \"#utility.yul\":1611:1729   */\n    tag_137:\n        /* \"#utility.yul\":1698:1722   */\n      tag_195\n        /* \"#utility.yul\":1716:1721   */\n      dup2\n        /* \"#utility.yul\":1698:1722   */\n      tag_136\n      jump\t// in\n    tag_195:\n        /* \"#utility.yul\":1693:1696   */\n      dup3\n        /* \"#utility.yul\":1686:1723   */\n      mstore\n        /* \"#utility.yul\":1611:1729   */\n      pop\n      pop\n      jump\t// out\n        /* \"#utility.yul\":1735:1957   */\n    tag_23:\n        /* \"#utility.yul\":1828:1832   */\n      0x00\n        /* \"#utility.yul\":1866:1868   */\n      0x20\n        /* \"#utility.yul\":1855:1864   */\n      dup3\n        /* \"#utility.yul\":1851:1869   */\n      add\n        /* \"#utility.yul\":1843:1869   */\n      swap1\n      pop\n        /* \"#utility.yul\":1879:1950   */\n      tag_197\n        /* \"#utility.yul\":1947:1948   */\n      0x00\n        /* \"#utility.yul\":1936:1945   */\n      dup4\n        /* \"#utility.yul\":1932:1949   */\n      add\n        /* \"#utility.yul\":1923:1929   */\n      dup5\n        /* \"#utility.yul\":1879:1950   */\n      tag_137\n      jump\t// in\n    tag_197:\n        /* \"#utility.yul\":1735:1957   */\n      swap3\n      swap2\n      pop\n      pop\n      jump\t// out\n        /* \"#utility.yul\":1963:2062   */\n    tag_138:\n        /* \"#utility.yul\":2015:2021   */\n      0x00\n        /* \"#utility.yul\":2049:2054   */\n      dup2\n        /* \"#utility.yul\":2043:2055   */\n      mload\n        /* \"#utility.yul\":2033:2055   */\n      swap1\n      pop\n        /* \"#utility.yul\":1963:2062   */\n      swap2\n      swap1\n      pop\n      jump\t// out\n        /* \"#utility.yul\":2068:2237   */\n    tag_139:\n        /* \"#utility.yul\":2152:2163   */\n      0x00\n        /* \"#utility.yul\":2186:2192   */\n      dup3\n        /* \"#utility.yul\":2181:2184   */\n      dup3\n        /* \"#utility.yul\":2174:2193   */\n      mstore\n        /* \"#utility.yul\":2226:2230   */\n      0x20\n        /* \"#utility.yul\":2221:2224   */\n      dup3\n        /* \"#utility.yul\":2217:2231   */\n      add\n        /* \"#utility.yul\":2202:2231   */\n      swap1\n      pop\n        /* \"#utility.yul\":2068:2237   */\n      swap3\n      swap2\n      pop\n      pop\n      jump\t// out\n        /* \"#utility.yul\":2243:2382   */\n    tag_140:\n        /* \"#utility.yul\":2332:2338   */\n      dup3\n        /* \"#utility.yul\":2327:2330   */\n      dup2\n        /* \"#utility.yul\":2322:2325   */\n      dup4\n        /* \"#utility.yul\":2316:2339   */\n      mcopy\n        /* \"#utility.yul\":2373:2374   */\n      0x00\n        /* \"#utility.yul\":2364:2370   */\n      dup4\n        /* \"#utility.yul\":2359:2362   */\n      dup4\n        /* \"#utility.yul\":2355:2371   */\n      add\n        /* \"#utility.yul\":2348:2375   */\n      mstore\n        /* \"#utility.yul\":2243:2382   */\n      pop\n      pop\n      pop\n      jump\t// out\n        /* \"#utility.yul\":2388:2490   */\n    tag_141:\n        /* \"#utility.yul\":2429:2435   */\n      0x00\n        /* \"#utility.yul\":2480:2482   */\n      0x1f\n        /* \"#utility.yul\":2476:2483   */\n      not\n        /* \"#utility.yul\":2471:2473   */\n      0x1f\n        /* \"#utility.yul\":2464:2469   */\n      dup4\n        /* \"#utility.yul\":2460:2474   */\n      add\n        /* \"#utility.yul\":2456:2484   */\n      and\n        /* \"#utility.yul\":2446:2484   */\n      swap1\n      pop\n        /* \"#utility.yul\":2388:2490   */\n      swap2\n      swap1\n      pop\n      jump\t// out\n        /* \"#utility.yul\":2496:2873   */\n    tag_142:\n        /* \"#utility.yul\":2584:2587   */\n      0x00\n        /* \"#utility.yul\":2612:2651   */\n      tag_203\n        /* \"#utility.yul\":2645:2650   */\n      dup3\n        /* \"#utility.yul\":2612:2651   */\n      tag_138\n      jump\t// in\n    tag_203:\n        /* \"#utility.yul\":2667:2738   */\n      tag_204\n        /* \"#utility.yul\":2731:2737   */\n      dup2\n        /* \"#utility.yul\":2726:2729   */\n      dup6\n        /* \"#utility.yul\":2667:2738   */\n      tag_139\n      jump\t// in\n    tag_204:\n        /* \"#utility.yul\":2660:2738   */\n      swap4\n      pop\n        /* \"#utility.yul\":2747:2812   */\n      tag_205\n        /* \"#utility.yul\":2805:2811   */\n      dup2\n        /* \"#utility.yul\":2800:2803   */\n      dup6\n        /* \"#utility.yul\":2793:2797   */\n      0x20\n        /* \"#utility.yul\":2786:2791   */\n      dup7\n        /* \"#utility.yul\":2782:2798   */\n      add\n        /* \"#utility.yul\":2747:2812   */\n      tag_140\n      jump\t// in\n    tag_205:\n        /* \"#utility.yul\":2837:2866   */\n      tag_206\n        /* \"#utility.yul\":2859:2865   */\n      dup2\n        /* \"#utility.yul\":2837:2866   */\n      tag_141\n      jump\t// in\n    tag_206:\n        /* \"#utility.yul\":2832:2835   */\n      dup5\n        /* \"#utility.yul\":2828:2867   */\n      add\n        /* \"#utility.yul\":2821:2867   */\n      swap2\n      pop\n        /* \"#utility.yul\":2588:2873   */\n      pop\n        /* \"#utility.yul\":2496:2873   */\n      swap3\n      swap2\n      pop\n      pop\n      jump\t// out\n        /* \"#utility.yul\":2879:2969   */\n    tag_143:\n        /* \"#utility.yul\":2913:2920   */\n      0x00\n        /* \"#utility.yul\":2956:2961   */\n      dup2\n        /* \"#utility.yul\":2949:2962   */\n      iszero\n        /* \"#utility.yul\":2942:2963   */\n      iszero\n        /* \"#utility.yul\":2931:2963   */\n      swap1\n      pop\n        /* \"#utility.yul\":2879:2969   */\n      swap2\n      swap1\n      pop\n      jump\t// out\n        /* \"#utility.yul\":2975:3084   */\n    tag_144:\n        /* \"#utility.yul\":3056:3077   */\n      tag_209\n        /* \"#utility.yul\":3071:3076   */\n      dup2\n        /* \"#utility.yul\":3056:3077   */\n      tag_143\n      jump\t// in\n    tag_209:\n        /* \"#utility.yul\":3051:3054   */\n      dup3\n        /* \"#utility.yul\":3044:3078   */\n      mstore\n        /* \"#utility.yul\":2975:3084   */\n      pop\n      pop\n      jump\t// out\n        /* \"#utility.yul\":3090:3501   */\n    tag_31:\n        /* \"#utility.yul\":3225:3229   */\n      0x00\n        /* \"#utility.yul\":3263:3265   */\n      0x40\n        /* \"#utility.yul\":3252:3261   */\n      dup3\n        /* \"#utility.yul\":3248:3266   */\n      add\n        /* \"#utility.yul\":3240:3266   */\n      swap1\n      pop\n        /* \"#utility.yul\":3312:3321   */\n      dup2\n        /* \"#utility.yul\":3306:3310   */\n      dup2\n        /* \"#utility.yul\":3302:3322   */\n      sub\n        /* \"#utility.yul\":3298:3299   */\n      0x00\n        /* \"#utility.yul\":3287:3296   */\n      dup4\n        /* \"#utility.yul\":3283:3300   */\n      add\n        /* \"#utility.yul\":3276:3323   */\n      mstore\n        /* \"#utility.yul\":3340:3418   */\n      tag_211\n        /* \"#utility.yul\":3413:3417   */\n      dup2\n        /* \"#utility.yul\":3404:3410   */\n      dup6\n        /* \"#utility.yul\":3340:3418   */\n      tag_142\n      jump\t// in\n    tag_211:\n        /* \"#utility.yul\":3332:3418   */\n      swap1\n      pop\n        /* \"#utility.yul\":3428:3494   */\n      tag_212\n        /* \"#utility.yul\":3490:3492   */\n      0x20\n        /* \"#utility.yul\":3479:3488   */\n      dup4\n        /* \"#utility.yul\":3475:3493   */\n      add\n        /* \"#utility.yul\":3466:3472   */\n      dup5\n        /* \"#utility.yul\":3428:3494   */\n      tag_144\n      jump\t// in\n    tag_212:\n        /* \"#utility.yul\":3090:3501   */\n      swap4\n      swap3\n      pop\n      pop\n      pop\n      jump\t// out\n        /* \"#utility.yul\":3507:3624   */\n    tag_145:\n        /* \"#utility.yul\":3616:3617   */\n      0x00\n        /* \"#utility.yul\":3613:3614   */\n      dup1\n        /* \"#utility.yul\":3606:3618   */\n      revert\n        /* \"#utility.yul\":3630:3747   */\n    tag_146:\n        /* \"#utility.yul\":3739:3740   */\n      0x00\n        /* \"#utility.yul\":3736:3737   */\n      dup1\n        /* \"#utility.yul\":3729:3741   */\n      revert\n        /* \"#utility.yul\":3753:3870   */\n    tag_147:\n        /* \"#utility.yul\":3862:3863   */\n      0x00\n        /* \"#utility.yul\":3859:3860   */\n      dup1\n        /* \"#utility.yul\":3852:3864   */\n      revert\n        /* \"#utility.yul\":3890:4443   */\n    tag_148:\n        /* \"#utility.yul\":3948:3956   */\n      0x00\n        /* \"#utility.yul\":3958:3964   */\n      dup1\n        /* \"#utility.yul\":4008:4011   */\n      dup4\n        /* \"#utility.yul\":4001:4005   */\n      0x1f\n        /* \"#utility.yul\":3993:3999   */\n      dup5\n        /* \"#utility.yul\":3989:4006   */\n      add\n        /* \"#utility.yul\":3985:4012   */\n      slt\n        /* \"#utility.yul\":3975:4097   */\n      tag_217\n      jumpi\n        /* \"#utility.yul\":4016:4095   */\n      tag_218\n      tag_145\n      jump\t// in\n    tag_218:\n        /* \"#utility.yul\":3975:4097   */\n    tag_217:\n        /* \"#utility.yul\":4129:4135   */\n      dup3\n        /* \"#utility.yul\":4116:4136   */\n      calldataload\n        /* \"#utility.yul\":4106:4136   */\n      swap1\n      pop\n        /* \"#utility.yul\":4159:4177   */\n      0xffffffffffffffff\n        /* \"#utility.yul\":4151:4157   */\n      dup2\n        /* \"#utility.yul\":4148:4178   */\n      gt\n        /* \"#utility.yul\":4145:4262   */\n      iszero\n      tag_219\n      jumpi\n        /* \"#utility.yul\":4181:4260   */\n      tag_220\n      tag_146\n      jump\t// in\n    tag_220:\n        /* \"#utility.yul\":4145:4262   */\n    tag_219:\n        /* \"#utility.yul\":4295:4299   */\n      0x20\n        /* \"#utility.yul\":4287:4293   */\n      dup4\n        /* \"#utility.yul\":4283:4300   */\n      add\n        /* \"#utility.yul\":4271:4300   */\n      swap2\n      pop\n        /* \"#utility.yul\":4349:4352   */\n      dup4\n        /* \"#utility.yul\":4341:4345   */\n      0x01\n        /* \"#utility.yul\":4333:4339   */\n      dup3\n        /* \"#utility.yul\":4329:4346   */\n      mul\n        /* \"#utility.yul\":4319:4327   */\n      dup4\n        /* \"#utility.yul\":4315:4347   */\n      add\n        /* \"#utility.yul\":4312:4353   */\n      gt\n        /* \"#utility.yul\":4309:4437   */\n      iszero\n      tag_221\n      jumpi\n        /* \"#utility.yul\":4356:4435   */\n      tag_222\n      tag_147\n      jump\t// in\n    tag_222:\n        /* \"#utility.yul\":4309:4437   */\n    tag_221:\n        /* \"#utility.yul\":3890:4443   */\n      swap3\n      pop\n      swap3\n      swap1\n      pop\n      jump\t// out\n        /* \"#utility.yul\":4449:4978   */\n    tag_34:\n        /* \"#utility.yul\":4520:4526   */\n      0x00\n        /* \"#utility.yul\":4528:4534   */\n      dup1\n        /* \"#utility.yul\":4577:4579   */\n      0x20\n        /* \"#utility.yul\":4565:4574   */\n      dup4\n        /* \"#utility.yul\":4556:4563   */\n      dup6\n        /* \"#utility.yul\":4552:4575   */\n      sub\n        /* \"#utility.yul\":4548:4580   */\n      slt\n        /* \"#utility.yul\":4545:4664   */\n      iszero\n      tag_224\n      jumpi\n        /* \"#utility.yul\":4583:4662   */\n      tag_225\n      tag_131\n      jump\t// in\n    tag_225:\n        /* \"#utility.yul\":4545:4664   */\n    tag_224:\n        /* \"#utility.yul\":4731:4732   */\n      0x00\n        /* \"#utility.yul\":4720:4729   */\n      dup4\n        /* \"#utility.yul\":4716:4733   */\n      add\n        /* \"#utility.yul\":4703:4734   */\n      calldataload\n        /* \"#utility.yul\":4761:4779   */\n      0xffffffffffffffff\n        /* \"#utility.yul\":4753:4759   */\n      dup2\n        /* \"#utility.yul\":4750:4780   */\n      gt\n        /* \"#utility.yul\":4747:4864   */\n      iszero\n      tag_226\n      jumpi\n        /* \"#utility.yul\":4783:4862   */\n      tag_227\n      tag_132\n      jump\t// in\n    tag_227:\n        /* \"#utility.yul\":4747:4864   */\n    tag_226:\n        /* \"#utility.yul\":4896:4961   */\n      tag_228\n        /* \"#utility.yul\":4953:4960   */\n      dup6\n        /* \"#utility.yul\":4944:4950   */\n      dup3\n        /* \"#utility.yul\":4933:4942   */\n      dup7\n        /* \"#utility.yul\":4929:4951   */\n      add\n        /* \"#utility.yul\":4896:4961   */\n      tag_148\n      jump\t// in\n    tag_228:\n        /* \"#utility.yul\":4878:4961   */\n      swap3\n      pop\n      swap3\n      pop\n        /* \"#utility.yul\":4674:4971   */\n      pop\n        /* \"#utility.yul\":4449:4978   */\n      swap3\n      pop\n      swap3\n      swap1\n      pop\n      jump\t// out\n        /* \"#utility.yul\":4984:5658   */\n    tag_42:\n        /* \"#utility.yul\":5064:5070   */\n      0x00\n        /* \"#utility.yul\":5072:5078   */\n      dup1\n        /* \"#utility.yul\":5080:5086   */\n      0x00\n        /* \"#utility.yul\":5129:5131   */\n      0x40\n        /* \"#utility.yul\":5117:5126   */\n      dup5\n        /* \"#utility.yul\":5108:5115   */\n      dup7\n        /* \"#utility.yul\":5104:5127   */\n      sub\n        /* \"#utility.yul\":5100:5132   */\n      slt\n        /* \"#utility.yul\":5097:5216   */\n      iszero\n      tag_230\n      jumpi\n        /* \"#utility.yul\":5135:5214   */\n      tag_231\n      tag_131\n      jump\t// in\n    tag_231:\n        /* \"#utility.yul\":5097:5216   */\n    tag_230:\n        /* \"#utility.yul\":5255:5256   */\n      0x00\n        /* \"#utility.yul\":5280:5333   */\n      tag_232\n        /* \"#utility.yul\":5325:5332   */\n      dup7\n        /* \"#utility.yul\":5316:5322   */\n      dup3\n        /* \"#utility.yul\":5305:5314   */\n      dup8\n        /* \"#utility.yul\":5301:5323   */\n      add\n        /* \"#utility.yul\":5280:5333   */\n      tag_134\n      jump\t// in\n    tag_232:\n        /* \"#utility.yul\":5270:5333   */\n      swap4\n      pop\n        /* \"#utility.yul\":5226:5343   */\n      pop\n        /* \"#utility.yul\":5410:5412   */\n      0x20\n        /* \"#utility.yul\":5399:5408   */\n      dup5\n        /* \"#utility.yul\":5395:5413   */\n      add\n        /* \"#utility.yul\":5382:5414   */\n      calldataload\n        /* \"#utility.yul\":5441:5459   */\n      0xffffffffffffffff\n        /* \"#utility.yul\":5433:5439   */\n      dup2\n        /* \"#utility.yul\":5430:5460   */\n      gt\n        /* \"#utility.yul\":5427:5544   */\n      iszero\n      tag_233\n      jumpi\n        /* \"#utility.yul\":5463:5542   */\n      tag_234\n      tag_132\n      jump\t// in\n    tag_234:\n        /* \"#utility.yul\":5427:5544   */\n    tag_233:\n        /* \"#utility.yul\":5576:5641   */\n      tag_235\n        /* \"#utility.yul\":5633:5640   */\n      dup7\n        /* \"#utility.yul\":5624:5630   */\n      dup3\n        /* \"#utility.yul\":5613:5622   */\n      dup8\n        /* \"#utility.yul\":5609:5631   */\n      add\n        /* \"#utility.yul\":5576:5641   */\n      tag_148\n      jump\t// in\n    tag_235:\n        /* \"#utility.yul\":5558:5641   */\n      swap3\n      pop\n      swap3\n      pop\n        /* \"#utility.yul\":5353:5651   */\n      pop\n        /* \"#utility.yul\":4984:5658   */\n      swap3\n      pop\n      swap3\n      pop\n      swap3\n      jump\t// out\n        /* \"#utility.yul\":5664:5833   */\n    tag_149:\n        /* \"#utility.yul\":5804:5825   */\n      0x496e646578206f7574206f6620626f756e647300000000000000000000000000\n        /* \"#utility.yul\":5800:5801   */\n      0x00\n        /* \"#utility.yul\":5792:5798   */\n      dup3\n        /* \"#utility.yul\":5788:5802   */\n      add\n        /* \"#utility.yul\":5781:5826   */\n      mstore\n        /* \"#utility.yul\":5664:5833   */\n      pop\n      jump\t// out\n        /* \"#utility.yul\":5839:6205   */\n    tag_150:\n        /* \"#utility.yul\":5981:5984   */\n      0x00\n        /* \"#utility.yul\":6002:6069   */\n      tag_238\n        /* \"#utility.yul\":6066:6068   */\n      0x13\n        /* \"#utility.yul\":6061:6064   */\n      dup4\n        /* \"#utility.yul\":6002:6069   */\n      tag_139\n      jump\t// in\n    tag_238:\n        /* \"#utility.yul\":5995:6069   */\n      swap2\n      pop\n        /* \"#utility.yul\":6078:6171   */\n      tag_239\n        /* \"#utility.yul\":6167:6170   */\n      dup3\n        /* \"#utility.yul\":6078:6171   */\n      tag_149\n      jump\t// in\n    tag_239:\n        /* \"#utility.yul\":6196:6198   */\n      0x20\n        /* \"#utility.yul\":6191:6194   */\n      dup3\n        /* \"#utility.yul\":6187:6199   */\n      add\n        /* \"#utility.yul\":6180:6199   */\n      swap1\n      pop\n        /* \"#utility.yul\":5839:6205   */\n      swap2\n      swap1\n      pop\n      jump\t// out\n        /* \"#utility.yul\":6211:6630   */\n    tag_50:\n        /* \"#utility.yul\":6377:6381   */\n      0x00\n        /* \"#utility.yul\":6415:6417   */\n      0x20\n        /* \"#utility.yul\":6404:6413   */\n      dup3\n        /* \"#utility.yul\":6400:6418   */\n      add\n        /* \"#utility.yul\":6392:6418   */\n      swap1\n      pop\n        /* \"#utility.yul\":6464:6473   */\n      dup2\n        /* \"#utility.yul\":6458:6462   */\n      dup2\n        /* \"#utility.yul\":6454:6474   */\n      sub\n        /* \"#utility.yul\":6450:6451   */\n      0x00\n        /* \"#utility.yul\":6439:6448   */\n      dup4\n        /* \"#utility.yul\":6435:6452   */\n      add\n        /* \"#utility.yul\":6428:6475   */\n      mstore\n        /* \"#utility.yul\":6492:6623   */\n      tag_241\n        /* \"#utility.yul\":6618:6622   */\n      dup2\n        /* \"#utility.yul\":6492:6623   */\n      tag_150\n      jump\t// in\n    tag_241:\n        /* \"#utility.yul\":6484:6623   */\n      swap1\n      pop\n        /* \"#utility.yul\":6211:6630   */\n      swap2\n      swap1\n      pop\n      jump\t// out\n        /* \"#utility.yul\":6636:6816   */\n    tag_54:\n        /* \"#utility.yul\":6684:6761   */\n      0x4e487b7100000000000000000000000000000000000000000000000000000000\n        /* \"#utility.yul\":6681:6682   */\n      0x00\n        /* \"#utility.yul\":6674:6762   */\n      mstore\n        /* \"#utility.yul\":6781:6785   */\n      0x32\n        /* \"#utility.yul\":6778:6779   */\n      0x04\n        /* \"#utility.yul\":6771:6786   */\n      mstore\n        /* \"#utility.yul\":6805:6809   */\n      0x24\n        /* \"#utility.yul\":6802:6803   */\n      0x00\n        /* \"#utility.yul\":6795:6810   */\n      revert\n        /* \"#utility.yul\":6822:7002   */\n    tag_151:\n        /* \"#utility.yul\":6870:6947   */\n      0x4e487b7100000000000000000000000000000000000000000000000000000000\n        /* \"#utility.yul\":6867:6868   */\n      0x00\n        /* \"#utility.yul\":6860:6948   */\n      mstore\n        /* \"#utility.yul\":6967:6971   */\n      0x11\n        /* \"#utility.yul\":6964:6965   */\n      0x04\n        /* \"#utility.yul\":6957:6972   */\n      mstore\n        /* \"#utility.yul\":6991:6995   */\n      0x24\n        /* \"#utility.yul\":6988:6989   */\n      0x00\n        /* \"#utility.yul\":6981:6996   */\n      revert\n        /* \"#utility.yul\":7008:7202   */\n    tag_66:\n        /* \"#utility.yul\":7048:7052   */\n      0x00\n        /* \"#utility.yul\":7068:7088   */\n      tag_245\n        /* \"#utility.yul\":7086:7087   */\n      dup3\n        /* \"#utility.yul\":7068:7088   */\n      tag_128\n      jump\t// in\n    tag_245:\n        /* \"#utility.yul\":7063:7088   */\n      swap2\n      pop\n        /* \"#utility.yul\":7102:7122   */\n      tag_246\n        /* \"#utility.yul\":7120:7121   */\n      dup4\n        /* \"#utility.yul\":7102:7122   */\n      tag_128\n      jump\t// in\n    tag_246:\n        /* \"#utility.yul\":7097:7122   */\n      swap3\n      pop\n        /* \"#utility.yul\":7146:7147   */\n      dup3\n        /* \"#utility.yul\":7143:7144   */\n      dup3\n        /* \"#utility.yul\":7139:7148   */\n      sub\n        /* \"#utility.yul\":7131:7148   */\n      swap1\n      pop\n        /* \"#utility.yul\":7170:7171   */\n      dup2\n        /* \"#utility.yul\":7164:7168   */\n      dup2\n        /* \"#utility.yul\":7161:7172   */\n      gt\n        /* \"#utility.yul\":7158:7195   */\n      iszero\n      tag_247\n      jumpi\n        /* \"#utility.yul\":7175:7193   */\n      tag_248\n      tag_151\n      jump\t// in\n    tag_248:\n        /* \"#utility.yul\":7158:7195   */\n    tag_247:\n        /* \"#utility.yul\":7008:7202   */\n      swap3\n      swap2\n      pop\n      pop\n      jump\t// out\n        /* \"#utility.yul\":7208:7388   */\n    tag_152:\n        /* \"#utility.yul\":7256:7333   */\n      0x4e487b7100000000000000000000000000000000000000000000000000000000\n        /* \"#utility.yul\":7253:7254   */\n      0x00\n        /* \"#utility.yul\":7246:7334   */\n      mstore\n        /* \"#utility.yul\":7353:7357   */\n      0x22\n        /* \"#utility.yul\":7350:7351   */\n      0x04\n        /* \"#utility.yul\":7343:7358   */\n      mstore\n        /* \"#utility.yul\":7377:7381   */\n      0x24\n        /* \"#utility.yul\":7374:7375   */\n      0x00\n        /* \"#utility.yul\":7367:7382   */\n      revert\n        /* \"#utility.yul\":7394:7714   */\n    tag_90:\n        /* \"#utility.yul\":7438:7444   */\n      0x00\n        /* \"#utility.yul\":7475:7476   */\n      0x02\n        /* \"#utility.yul\":7469:7473   */\n      dup3\n        /* \"#utility.yul\":7465:7477   */\n      div\n        /* \"#utility.yul\":7455:7477   */\n      swap1\n      pop\n        /* \"#utility.yul\":7522:7523   */\n      0x01\n        /* \"#utility.yul\":7516:7520   */\n      dup3\n        /* \"#utility.yul\":7512:7524   */\n      and\n        /* \"#utility.yul\":7543:7561   */\n      dup1\n        /* \"#utility.yul\":7533:7614   */\n      tag_251\n      jumpi\n        /* \"#utility.yul\":7599:7603   */\n      0x7f\n        /* \"#utility.yul\":7591:7597   */\n      dup3\n        /* \"#utility.yul\":7587:7604   */\n      and\n        /* \"#utility.yul\":7577:7604   */\n      swap2\n      pop\n        /* \"#utility.yul\":7533:7614   */\n    tag_251:\n        /* \"#utility.yul\":7661:7663   */\n      0x20\n        /* \"#utility.yul\":7653:7659   */\n      dup3\n        /* \"#utility.yul\":7650:7664   */\n      lt\n        /* \"#utility.yul\":7630:7648   */\n      dup2\n        /* \"#utility.yul\":7627:7665   */\n      sub\n        /* \"#utility.yul\":7624:7708   */\n      tag_252\n      jumpi\n        /* \"#utility.yul\":7680:7698   */\n      tag_253\n      tag_152\n      jump\t// in\n    tag_253:\n        /* \"#utility.yul\":7624:7708   */\n    tag_252:\n        /* \"#utility.yul\":7445:7714   */\n      pop\n        /* \"#utility.yul\":7394:7714   */\n      swap2\n      swap1\n      pop\n      jump\t// out\n        /* \"#utility.yul\":7720:7869   */\n    tag_153:\n        /* \"#utility.yul\":7769:7775   */\n      0x00\n        /* \"#utility.yul\":7803:7808   */\n      dup2\n        /* \"#utility.yul\":7797:7809   */\n      sload\n        /* \"#utility.yul\":7787:7809   */\n      swap1\n      pop\n        /* \"#utility.yul\":7829:7862   */\n      tag_255\n        /* \"#utility.yul\":7855:7861   */\n      dup2\n        /* \"#utility.yul\":7829:7862   */\n      tag_90\n      jump\t// in\n    tag_255:\n        /* \"#utility.yul\":7819:7862   */\n      swap1\n      pop\n        /* \"#utility.yul\":7720:7869   */\n      swap2\n      swap1\n      pop\n      jump\t// out\n        /* \"#utility.yul\":7875:8055   */\n    tag_154:\n        /* \"#utility.yul\":7923:8000   */\n      0x4e487b7100000000000000000000000000000000000000000000000000000000\n        /* \"#utility.yul\":7920:7921   */\n      0x00\n        /* \"#utility.yul\":7913:8001   */\n      mstore\n        /* \"#utility.yul\":8020:8024   */\n      0x41\n        /* \"#utility.yul\":8017:8018   */\n      0x04\n        /* \"#utility.yul\":8010:8025   */\n      mstore\n        /* \"#utility.yul\":8044:8048   */\n      0x24\n        /* \"#utility.yul\":8041:8042   */\n      0x00\n        /* \"#utility.yul\":8034:8049   */\n      revert\n        /* \"#utility.yul\":8061:8202   */\n    tag_155:\n        /* \"#utility.yul\":8110:8114   */\n      0x00\n        /* \"#utility.yul\":8133:8136   */\n      dup2\n        /* \"#utility.yul\":8125:8136   */\n      swap1\n      pop\n        /* \"#utility.yul\":8156:8159   */\n      dup2\n        /* \"#utility.yul\":8153:8154   */\n      0x00\n        /* \"#utility.yul\":8146:8160   */\n      mstore\n        /* \"#utility.yul\":8190:8194   */\n      0x20\n        /* \"#utility.yul\":8187:8188   */\n      0x00\n        /* \"#utility.yul\":8177:8195   */\n      keccak256\n        /* \"#utility.yul\":8169:8195   */\n      swap1\n      pop\n        /* \"#utility.yul\":8061:8202   */\n      swap2\n      swap1\n      pop\n      jump\t// out\n        /* \"#utility.yul\":8208:8301   */\n    tag_156:\n        /* \"#utility.yul\":8245:8251   */\n      0x00\n        /* \"#utility.yul\":8292:8294   */\n      0x20\n        /* \"#utility.yul\":8287:8289   */\n      0x1f\n        /* \"#utility.yul\":8280:8285   */\n      dup4\n        /* \"#utility.yul\":8276:8290   */\n      add\n        /* \"#utility.yul\":8272:8295   */\n      div\n        /* \"#utility.yul\":8262:8295   */\n      swap1\n      pop\n        /* \"#utility.yul\":8208:8301   */\n      swap2\n      swap1\n      pop\n      jump\t// out\n        /* \"#utility.yul\":8307:8414   */\n    tag_157:\n        /* \"#utility.yul\":8351:8359   */\n      0x00\n        /* \"#utility.yul\":8401:8406   */\n      dup3\n        /* \"#utility.yul\":8395:8399   */\n      dup3\n        /* \"#utility.yul\":8391:8407   */\n      shl\n        /* \"#utility.yul\":8370:8407   */\n      swap1\n      pop\n        /* \"#utility.yul\":8307:8414   */\n      swap3\n      swap2\n      pop\n      pop\n      jump\t// out\n        /* \"#utility.yul\":8420:8813   */\n    tag_158:\n        /* \"#utility.yul\":8489:8495   */\n      0x00\n        /* \"#utility.yul\":8539:8540   */\n      0x08\n        /* \"#utility.yul\":8527:8537   */\n      dup4\n        /* \"#utility.yul\":8523:8541   */\n      mul\n        /* \"#utility.yul\":8562:8659   */\n      tag_261\n        /* \"#utility.yul\":8592:8658   */\n      0xffffffffffffffffffffffffffffffffffffffffffffffffffffffffffffffff\n        /* \"#utility.yul\":8581:8590   */\n      dup3\n        /* \"#utility.yul\":8562:8659   */\n      tag_157\n      jump\t// in\n    tag_261:\n        /* \"#utility.yul\":8680:8719   */\n      tag_262\n        /* \"#utility.yul\":8710:8718   */\n      dup7\n        /* \"#utility.yul\":8699:8708   */\n      dup4\n        /* \"#utility.yul\":8680:8719   */\n      tag_157\n      jump\t// in\n    tag_262:\n        /* \"#utility.yul\":8668:8719   */\n      swap6\n      pop\n        /* \"#utility.yul\":8752:8756   */\n      dup1\n        /* \"#utility.yul\":8748:8757   */\n      not\n        /* \"#utility.yul\":8741:8746   */\n      dup5\n        /* \"#utility.yul\":8737:8758   */\n      and\n        /* \"#utility.yul\":8728:8758   */\n      swap4\n      pop\n        /* \"#utility.yul\":8801:8805   */\n      dup1\n        /* \"#utility.yul\":8791:8799   */\n      dup7\n        /* \"#utility.yul\":8787:8806   */\n      and\n        /* \"#utility.yul\":8780:8785   */\n      dup5\n        /* \"#utility.yul\":8777:8807   */\n      or\n        /* \"#utility.yul\":8767:8807   */\n      swap3\n      pop\n        /* \"#utility.yul\":8496:8813   */\n      pop\n      pop\n        /* \"#utility.yul\":8420:8813   */\n      swap4\n      swap3\n      pop\n      pop\n      pop\n      jump\t// out\n        /* \"#utility.yul\":8819:8879   */\n    tag_159:\n        /* \"#utility.yul\":8847:8850   */\n      0x00\n        /* \"#utility.yul\":8868:8873   */\n      dup2\n        /* \"#utility.yul\":8861:8873   */\n      swap1\n      pop\n        /* \"#utility.yul\":8819:8879   */\n      swap2\n      swap1\n      pop\n      jump\t// out\n        /* \"#utility.yul\":8885:9027   */\n    tag_160:\n        /* \"#utility.yul\":8935:8944   */\n      0x00\n        /* \"#utility.yul\":8968:9021   */\n      tag_265\n        /* \"#utility.yul\":8986:9020   */\n      tag_266\n        /* \"#utility.yul\":8995:9019   */\n      tag_267\n        /* \"#utility.yul\":9013:9018   */\n      dup5\n        /* \"#utility.yul\":8995:9019   */\n      tag_128\n      jump\t// in\n    tag_267:\n        /* \"#utility.yul\":8986:9020   */\n      tag_159\n      jump\t// in\n    tag_266:\n        /* \"#utility.yul\":8968:9021   */\n      tag_128\n      jump\t// in\n    tag_265:\n        /* \"#utility.yul\":8955:9021   */\n      swap1\n      pop\n        /* \"#utility.yul\":8885:9027   */\n      swap2\n      swap1\n      pop\n      jump\t// out\n        /* \"#utility.yul\":9033:9108   */\n    tag_161:\n        /* \"#utility.yul\":9076:9079   */\n      0x00\n        /* \"#utility.yul\":9097:9102   */\n      dup2\n        /* \"#utility.yul\":9090:9102   */\n      swap1\n      pop\n        /* \"#utility.yul\":9033:9108   */\n      swap2\n      swap1\n      pop\n      jump\t// out\n        /* \"#utility.yul\":9114:9383   */\n    tag_162:\n        /* \"#utility.yul\":9224:9263   */\n      tag_270\n        /* \"#utility.yul\":9255:9262   */\n      dup4\n        /* \"#utility.yul\":9224:9263   */\n      tag_160\n      jump\t// in\n    tag_270:\n        /* \"#utility.yul\":9285:9376   */\n      tag_271\n        /* \"#utility.yul\":9334:9375   */\n      tag_272\n        /* \"#utility.yul\":9358:9374   */\n      dup3\n        /* \"#utility.yul\":9334:9375   */\n      tag_161\n      jump\t// in\n    tag_272:\n        /* \"#utility.yul\":9326:9332   */\n      dup5\n        /* \"#utility.yul\":9319:9323   */\n      dup5\n        /* \"#utility.yul\":9313:9324   */\n      sload\n        /* \"#utility.yul\":9285:9376   */\n      tag_158\n      jump\t// in\n    tag_271:\n        /* \"#utility.yul\":9279:9283   */\n      dup3\n        /* \"#utility.yul\":9272:9377   */\n      sstore\n        /* \"#utility.yul\":9190:9383   */\n      pop\n        /* \"#utility.yul\":9114:9383   */\n      pop\n      pop\n      pop\n      jump\t// out\n        /* \"#utility.yul\":9389:9462   */\n    tag_163:\n        /* \"#utility.yul\":9434:9437   */\n      0x00\n        /* \"#utility.yul\":9389:9462   */\n      swap1\n      jump\t// out\n        /* \"#utility.yul\":9468:9657   */\n    tag_164:\n        /* \"#utility.yul\":9545:9577   */\n      tag_275\n      tag_163\n      jump\t// in\n    tag_275:\n        /* \"#utility.yul\":9586:9651   */\n      tag_276\n        /* \"#utility.yul\":9644:9650   */\n      dup2\n        /* \"#utility.yul\":9636:9642   */\n      dup5\n        /* \"#utility.yul\":9630:9634   */\n      dup5\n        /* \"#utility.yul\":9586:9651   */\n      tag_162\n      jump\t// in\n    tag_276:\n        /* \"#utility.yul\":9521:9657   */\n      pop\n        /* \"#utility.yul\":9468:9657   */\n      pop\n      pop\n      jump\t// out\n        /* \"#utility.yul\":9663:9849   */\n    tag_165:\n        /* \"#utility.yul\":9723:9843   */\n    tag_278:\n        /* \"#utility.yul\":9740:9743   */\n      dup2\n        /* \"#utility.yul\":9733:9738   */\n      dup2\n        /* \"#utility.yul\":9730:9744   */\n      lt\n        /* \"#utility.yul\":9723:9843   */\n      iszero\n      tag_280\n      jumpi\n        /* \"#utility.yul\":9794:9833   */\n      tag_281\n        /* \"#utility.yul\":9831:9832   */\n      0x00\n        /* \"#utility.yul\":9824:9829   */\n      dup3\n        /* \"#utility.yul\":9794:9833   */\n      tag_164\n      jump\t// in\n    tag_281:\n        /* \"#utility.yul\":9767:9768   */\n      0x01\n        /* \"#utility.yul\":9760:9765   */\n      dup2\n        /* \"#utility.yul\":9756:9769   */\n      add\n        /* \"#utility.yul\":9747:9769   */\n      swap1\n      pop\n        /* \"#utility.yul\":9723:9843   */\n      jump(tag_278)\n    tag_280:\n        /* \"#utility.yul\":9663:9849   */\n      pop\n      pop\n      jump\t// out\n        /* \"#utility.yul\":9855:10398   */\n    tag_166:\n        /* \"#utility.yul\":9956:9958   */\n      0x1f\n        /* \"#utility.yul\":9951:9954   */\n      dup3\n        /* \"#utility.yul\":9948:9959   */\n      gt\n        /* \"#utility.yul\":9945:10391   */\n      iszero\n      tag_283\n      jumpi\n        /* \"#utility.yul\":9990:10028   */\n      tag_284\n        /* \"#utility.yul\":10022:10027   */\n      dup2\n        /* \"#utility.yul\":9990:10028   */\n      tag_155\n      jump\t// in\n    tag_284:\n        /* \"#utility.yul\":10074:10103   */\n      tag_285\n        /* \"#utility.yul\":10092:10102   */\n      dup5\n        /* \"#utility.yul\":10074:10103   */\n      tag_156\n      jump\t// in\n    tag_285:\n        /* \"#utility.yul\":10064:10072   */\n      dup2\n        /* \"#utility.yul\":10060:10104   */\n      add\n        /* \"#utility.yul\":10257:10259   */\n      0x20\n        /* \"#utility.yul\":10245:10255   */\n      dup6\n        /* \"#utility.yul\":10242:10260   */\n      lt\n        /* \"#utility.yul\":10239:10288   */\n      iszero\n      tag_286\n      jumpi\n        /* \"#utility.yul\":10278:10286   */\n      dup2\n        /* \"#utility.yul\":10263:10286   */\n      swap1\n      pop\n        /* \"#utility.yul\":10239:10288   */\n    tag_286:\n        /* \"#utility.yul\":10301:10381   */\n      tag_287\n        /* \"#utility.yul\":10357:10379   */\n      tag_288\n        /* \"#utility.yul\":10375:10378   */\n      dup6\n        /* \"#utility.yul\":10357:10379   */\n      tag_156\n      jump\t// in\n    tag_288:\n        /* \"#utility.yul\":10347:10355   */\n      dup4\n        /* \"#utility.yul\":10343:10380   */\n      add\n        /* \"#utility.yul\":10330:10341   */\n      dup3\n        /* \"#utility.yul\":10301:10381   */\n      tag_165\n      jump\t// in\n    tag_287:\n        /* \"#utility.yul\":9960:10391   */\n      pop\n      pop\n        /* \"#utility.yul\":9945:10391   */\n    tag_283:\n        /* \"#utility.yul\":9855:10398   */\n      pop\n      pop\n      pop\n      jump\t// out\n        /* \"#utility.yul\":10404:10521   */\n    tag_167:\n        /* \"#utility.yul\":10458:10466   */\n      0x00\n        /* \"#utility.yul\":10508:10513   */\n      dup3\n        /* \"#utility.yul\":10502:10506   */\n      dup3\n        /* \"#utility.yul\":10498:10514   */\n      shr\n        /* \"#utility.yul\":10477:10514   */\n      swap1\n      pop\n        /* \"#utility.yul\":10404:10521   */\n      swap3\n      swap2\n      pop\n      pop\n      jump\t// out\n        /* \"#utility.yul\":10527:10696   */\n    tag_168:\n        /* \"#utility.yul\":10571:10577   */\n      0x00\n        /* \"#utility.yul\":10604:10655   */\n      tag_291\n        /* \"#utility.yul\":10652:10653   */\n      0x00\n        /* \"#utility.yul\":10648:10654   */\n      not\n        /* \"#utility.yul\":10640:10645   */\n      dup5\n        /* \"#utility.yul\":10637:10638   */\n      0x08\n        /* \"#utility.yul\":10633:10646   */\n      mul\n        /* \"#utility.yul\":10604:10655   */\n      tag_167\n      jump\t// in\n    tag_291:\n        /* \"#utility.yul\":10600:10656   */\n      not\n        /* \"#utility.yul\":10685:10689   */\n      dup1\n        /* \"#utility.yul\":10679:10683   */\n      dup4\n        /* \"#utility.yul\":10675:10690   */\n      and\n        /* \"#utility.yul\":10665:10690   */\n      swap2\n      pop\n        /* \"#utility.yul\":10578:10696   */\n      pop\n        /* \"#utility.yul\":10527:10696   */\n      swap3\n      swap2\n      pop\n      pop\n      jump\t// out\n        /* \"#utility.yul\":10701:10996   */\n    tag_169:\n        /* \"#utility.yul\":10777:10781   */\n      0x00\n        /* \"#utility.yul\":10923:10952   */\n      tag_293\n        /* \"#utility.yul\":10948:10951   */\n      dup4\n        /* \"#utility.yul\":10942:10946   */\n      dup4\n        /* \"#utility.yul\":10923:10952   */\n      tag_168\n      jump\t// in\n    tag_293:\n        /* \"#utility.yul\":10915:10952   */\n      swap2\n      pop\n        /* \"#utility.yul\":10985:10988   */\n      dup3\n        /* \"#utility.yul\":10982:10983   */\n      0x02\n        /* \"#utility.yul\":10978:10989   */\n      mul\n        /* \"#utility.yul\":10972:10976   */\n      dup3\n        /* \"#utility.yul\":10969:10990   */\n      or\n        /* \"#utility.yul\":10961:10990   */\n      swap1\n      pop\n        /* \"#utility.yul\":10701:10996   */\n      swap3\n      swap2\n      pop\n      pop\n      jump\t// out\n        /* \"#utility.yul\":11001:12452   */\n    tag_74:\n        /* \"#utility.yul\":11112:11115   */\n      dup2\n        /* \"#utility.yul\":11106:11110   */\n      dup2\n        /* \"#utility.yul\":11103:11116   */\n      sub\n        /* \"#utility.yul\":11100:11126   */\n      tag_295\n      jumpi\n        /* \"#utility.yul\":11119:11124   */\n      pop\n      pop\n      jump(tag_294)\n        /* \"#utility.yul\":11100:11126   */\n    tag_295:\n        /* \"#utility.yul\":11150:11184   */\n      tag_296\n        /* \"#utility.yul\":11180:11183   */\n      dup3\n        /* \"#utility.yul\":11150:11184   */\n      tag_153\n      jump\t// in\n    tag_296:\n        /* \"#utility.yul\":11249:11267   */\n      0xffffffffffffffff\n        /* \"#utility.yul\":11241:11247   */\n      dup2\n        /* \"#utility.yul\":11238:11268   */\n      gt\n        /* \"#utility.yul\":11235:11291   */\n      iszero\n      tag_297\n      jumpi\n        /* \"#utility.yul\":11271:11289   */\n      tag_298\n      tag_154\n      jump\t// in\n    tag_298:\n        /* \"#utility.yul\":11235:11291   */\n    tag_297:\n        /* \"#utility.yul\":11315:11353   */\n      tag_299\n        /* \"#utility.yul\":11347:11351   */\n      dup3\n        /* \"#utility.yul\":11341:11352   */\n      sload\n        /* \"#utility.yul\":11315:11353   */\n      tag_90\n      jump\t// in\n    tag_299:\n        /* \"#utility.yul\":11400:11467   */\n      tag_300\n        /* \"#utility.yul\":11460:11466   */\n      dup3\n        /* \"#utility.yul\":11452:11458   */\n      dup3\n        /* \"#utility.yul\":11446:11450   */\n      dup6\n        /* \"#utility.yul\":11400:11467   */\n      tag_166\n      jump\t// in\n    tag_300:\n        /* \"#utility.yul\":11494:11495   */\n      0x00\n        /* \"#utility.yul\":11523:11525   */\n      0x1f\n        /* \"#utility.yul\":11515:11521   */\n      dup4\n        /* \"#utility.yul\":11512:11526   */\n      gt\n        /* \"#utility.yul\":11540:11541   */\n      0x01\n        /* \"#utility.yul\":11535:12207   */\n      dup2\n      eq\n      tag_302\n      jumpi\n        /* \"#utility.yul\":12251:12252   */\n      0x00\n        /* \"#utility.yul\":12268:12274   */\n      dup5\n        /* \"#utility.yul\":12265:12342   */\n      iszero\n      tag_303\n      jumpi\n        /* \"#utility.yul\":12317:12326   */\n      dup3\n        /* \"#utility.yul\":12312:12315   */\n      dup8\n        /* \"#utility.yul\":12308:12327   */\n      add\n        /* \"#utility.yul\":12302:12328   */\n      sload\n        /* \"#utility.yul\":12293:12328   */\n      swap1\n      pop\n        /* \"#utility.yul\":12265:12342   */\n    tag_303:\n        /* \"#utility.yul\":12368:12435   */\n      tag_304\n        /* \"#utility.yul\":12428:12434   */\n      dup6\n        /* \"#utility.yul\":12421:12426   */\n      dup3\n        /* \"#utility.yul\":12368:12435   */\n      tag_169\n      jump\t// in\n    tag_304:\n        /* \"#utility.yul\":12362:12366   */\n      dup7\n        /* \"#utility.yul\":12355:12436   */\n      sstore\n        /* \"#utility.yul\":12224:12446   */\n      pop\n        /* \"#utility.yul\":11505:12446   */\n      jump(tag_301)\n        /* \"#utility.yul\":11535:12207   */\n    tag_302:\n        /* \"#utility.yul\":11587:11591   */\n      0x1f\n        /* \"#utility.yul\":11583:11592   */\n      not\n        /* \"#utility.yul\":11575:11581   */\n      dup5\n        /* \"#utility.yul\":11571:11593   */\n      and\n        /* \"#utility.yul\":11613:11649   */\n      tag_305\n        /* \"#utility.yul\":11645:11648   */\n      dup8\n        /* \"#utility.yul\":11613:11649   */\n      tag_155\n      jump\t// in\n    tag_305:\n        /* \"#utility.yul\":11606:11649   */\n      swap7\n      pop\n        /* \"#utility.yul\":11676:11713   */\n      tag_306\n        /* \"#utility.yul\":11708:11712   */\n      dup7\n        /* \"#utility.yul\":11676:11713   */\n      tag_155\n      jump\t// in\n    tag_306:\n        /* \"#utility.yul\":11735:11736   */\n      0x00\n        /* \"#utility.yul\":11749:11956   */\n    tag_307:\n        /* \"#utility.yul\":11763:11770   */\n      dup3\n        /* \"#utility.yul\":11760:11761   */\n      dup2\n        /* \"#utility.yul\":11757:11771   */\n      lt\n        /* \"#utility.yul\":11749:11956   */\n      iszero\n      tag_309\n      jumpi\n        /* \"#utility.yul\":11842:11851   */\n      dup5\n        /* \"#utility.yul\":11837:11840   */\n      dup10\n        /* \"#utility.yul\":11833:11852   */\n      add\n        /* \"#utility.yul\":11827:11853   */\n      sload\n        /* \"#utility.yul\":11819:11825   */\n      dup3\n        /* \"#utility.yul\":11812:11854   */\n      sstore\n        /* \"#utility.yul\":11893:11894   */\n      0x01\n        /* \"#utility.yul\":11885:11891   */\n      dup3\n        /* \"#utility.yul\":11881:11895   */\n      add\n        /* \"#utility.yul\":11871:11895   */\n      swap2\n      pop\n        /* \"#utility.yul\":11940:11941   */\n      0x01\n        /* \"#utility.yul\":11929:11938   */\n      dup6\n        /* \"#utility.yul\":11925:11942   */\n      add\n        /* \"#utility.yul\":11912:11942   */\n      swap5\n      pop\n        /* \"#utility.yul\":11786:11790   */\n      0x20\n        /* \"#utility.yul\":11783:11784   */\n      dup2\n        /* \"#utility.yul\":11779:11791   */\n      add\n        /* \"#utility.yul\":11774:11791   */\n      swap1\n      pop\n        /* \"#utility.yul\":11749:11956   */\n      jump(tag_307)\n    tag_309:\n        /* \"#utility.yul\":11984:11990   */\n      dup7\n        /* \"#utility.yul\":11975:11982   */\n      dup4\n        /* \"#utility.yul\":11972:11991   */\n      lt\n        /* \"#utility.yul\":11969:12148   */\n      iszero\n      tag_310\n      jumpi\n        /* \"#utility.yul\":12042:12051   */\n      dup5\n        /* \"#utility.yul\":12037:12040   */\n      dup10\n        /* \"#utility.yul\":12033:12052   */\n      add\n        /* \"#utility.yul\":12027:12053   */\n      sload\n        /* \"#utility.yul\":12085:12133   */\n      tag_311\n        /* \"#utility.yul\":12127:12131   */\n      0x1f\n        /* \"#utility.yul\":12119:12125   */\n      dup10\n        /* \"#utility.yul\":12115:12132   */\n      and\n        /* \"#utility.yul\":12104:12113   */\n      dup3\n        /* \"#utility.yul\":12085:12133   */\n      tag_168\n      jump\t// in\n    tag_311:\n        /* \"#utility.yul\":12077:12083   */\n      dup4\n        /* \"#utility.yul\":12070:12134   */\n      sstore\n        /* \"#utility.yul\":11992:12148   */\n      pop\n        /* \"#utility.yul\":11969:12148   */\n    tag_310:\n        /* \"#utility.yul\":12194:12195   */\n      0x01\n        /* \"#utility.yul\":12190:12191   */\n      0x02\n        /* \"#utility.yul\":12182:12188   */\n      dup9\n        /* \"#utility.yul\":12178:12192   */\n      mul\n        /* \"#utility.yul\":12174:12196   */\n      add\n        /* \"#utility.yul\":12168:12172   */\n      dup9\n        /* \"#utility.yul\":12161:12197   */\n      sstore\n        /* \"#utility.yul\":11542:12207   */\n      pop\n      pop\n      pop\n        /* \"#utility.yul\":11505:12446   */\n    tag_301:\n      pop\n        /* \"#utility.yul\":11090:12452   */\n      pop\n      pop\n      pop\n        /* \"#utility.yul\":11001:12452   */\n      pop\n      pop\n    tag_294:\n      jump\t// out\n        /* \"#utility.yul\":12458:12638   */\n    tag_77:\n        /* \"#utility.yul\":12506:12583   */\n      0x4e487b7100000000000000000000000000000000000000000000000000000000\n        /* \"#utility.yul\":12503:12504   */\n      0x00\n        /* \"#utility.yul\":12496:12584   */\n      mstore\n        /* \"#utility.yul\":12603:12607   */\n      0x31\n        /* \"#utility.yul\":12600:12601   */\n      0x04\n        /* \"#utility.yul\":12593:12608   */\n      mstore\n        /* \"#utility.yul\":12627:12631   */\n      0x24\n        /* \"#utility.yul\":12624:12625   */\n      0x00\n        /* \"#utility.yul\":12617:12632   */\n      revert\n        /* \"#utility.yul\":12644:14039   */\n    tag_100:\n        /* \"#utility.yul\":12761:12798   */\n      tag_314\n        /* \"#utility.yul\":12794:12797   */\n      dup3\n        /* \"#utility.yul\":12761:12798   */\n      tag_138\n      jump\t// in\n    tag_314:\n        /* \"#utility.yul\":12863:12881   */\n      0xffffffffffffffff\n        /* \"#utility.yul\":12855:12861   */\n      dup2\n        /* \"#utility.yul\":12852:12882   */\n      gt\n        /* \"#utility.yul\":12849:12905   */\n      iszero\n      tag_315\n      jumpi\n        /* \"#utility.yul\":12885:12903   */\n      tag_316\n      tag_154\n      jump\t// in\n    tag_316:\n        /* \"#utility.yul\":12849:12905   */\n    tag_315:\n        /* \"#utility.yul\":12929:12967   */\n      tag_317\n        /* \"#utility.yul\":12961:12965   */\n      dup3\n        /* \"#utility.yul\":12955:12966   */\n      sload\n        /* \"#utility.yul\":12929:12967   */\n      tag_90\n      jump\t// in\n    tag_317:\n        /* \"#utility.yul\":13014:13081   */\n      tag_318\n        /* \"#utility.yul\":13074:13080   */\n      dup3\n        /* \"#utility.yul\":13066:13072   */\n      dup3\n        /* \"#utility.yul\":13060:13064   */\n      dup6\n        /* \"#utility.yul\":13014:13081   */\n      tag_166\n      jump\t// in\n    tag_318:\n        /* \"#utility.yul\":13108:13109   */\n      0x00\n        /* \"#utility.yul\":13132:13136   */\n      0x20\n        /* \"#utility.yul\":13119:13136   */\n      swap1\n      pop\n        /* \"#utility.yul\":13164:13166   */\n      0x1f\n        /* \"#utility.yul\":13156:13162   */\n      dup4\n        /* \"#utility.yul\":13153:13167   */\n      gt\n        /* \"#utility.yul\":13181:13182   */\n      0x01\n        /* \"#utility.yul\":13176:13794   */\n      dup2\n      eq\n      tag_320\n      jumpi\n        /* \"#utility.yul\":13838:13839   */\n      0x00\n        /* \"#utility.yul\":13855:13861   */\n      dup5\n        /* \"#utility.yul\":13852:13929   */\n      iszero\n      tag_321\n      jumpi\n        /* \"#utility.yul\":13904:13913   */\n      dup3\n        /* \"#utility.yul\":13899:13902   */\n      dup8\n        /* \"#utility.yul\":13895:13914   */\n      add\n        /* \"#utility.yul\":13889:13915   */\n      mload\n        /* \"#utility.yul\":13880:13915   */\n      swap1\n      pop\n        /* \"#utility.yul\":13852:13929   */\n    tag_321:\n        /* \"#utility.yul\":13955:14022   */\n      tag_322\n        /* \"#utility.yul\":14015:14021   */\n      dup6\n        /* \"#utility.yul\":14008:14013   */\n      dup3\n        /* \"#utility.yul\":13955:14022   */\n      tag_169\n      jump\t// in\n    tag_322:\n        /* \"#utility.yul\":13949:13953   */\n      dup7\n        /* \"#utility.yul\":13942:14023   */\n      sstore\n        /* \"#utility.yul\":13811:14033   */\n      pop\n        /* \"#utility.yul\":13146:14033   */\n      jump(tag_319)\n        /* \"#utility.yul\":13176:13794   */\n    tag_320:\n        /* \"#utility.yul\":13228:13232   */\n      0x1f\n        /* \"#utility.yul\":13224:13233   */\n      not\n        /* \"#utility.yul\":13216:13222   */\n      dup5\n        /* \"#utility.yul\":13212:13234   */\n      and\n        /* \"#utility.yul\":13262:13299   */\n      tag_323\n        /* \"#utility.yul\":13294:13298   */\n      dup7\n        /* \"#utility.yul\":13262:13299   */\n      tag_155\n      jump\t// in\n    tag_323:\n        /* \"#utility.yul\":13321:13322   */\n      0x00\n        /* \"#utility.yul\":13335:13543   */\n    tag_324:\n        /* \"#utility.yul\":13349:13356   */\n      dup3\n        /* \"#utility.yul\":13346:13347   */\n      dup2\n        /* \"#utility.yul\":13343:13357   */\n      lt\n        /* \"#utility.yul\":13335:13543   */\n      iszero\n      tag_326\n      jumpi\n        /* \"#utility.yul\":13428:13437   */\n      dup5\n        /* \"#utility.yul\":13423:13426   */\n      dup10\n        /* \"#utility.yul\":13419:13438   */\n      add\n        /* \"#utility.yul\":13413:13439   */\n      mload\n        /* \"#utility.yul\":13405:13411   */\n      dup3\n        /* \"#utility.yul\":13398:13440   */\n      sstore\n        /* \"#utility.yul\":13479:13480   */\n      0x01\n        /* \"#utility.yul\":13471:13477   */\n      dup3\n        /* \"#utility.yul\":13467:13481   */\n      add\n        /* \"#utility.yul\":13457:13481   */\n      swap2\n      pop\n        /* \"#utility.yul\":13526:13528   */\n      0x20\n        /* \"#utility.yul\":13515:13524   */\n      dup6\n        /* \"#utility.yul\":13511:13529   */\n      add\n        /* \"#utility.yul\":13498:13529   */\n      swap5\n      pop\n        /* \"#utility.yul\":13372:13376   */\n      0x20\n        /* \"#utility.yul\":13369:13370   */\n      dup2\n        /* \"#utility.yul\":13365:13377   */\n      add\n        /* \"#utility.yul\":13360:13377   */\n      swap1\n      pop\n        /* \"#utility.yul\":13335:13543   */\n      jump(tag_324)\n    tag_326:\n        /* \"#utility.yul\":13571:13577   */\n      dup7\n        /* \"#utility.yul\":13562:13569   */\n      dup4\n        /* \"#utility.yul\":13559:13578   */\n      lt\n        /* \"#utility.yul\":13556:13735   */\n      iszero\n      tag_327\n      jumpi\n        /* \"#utility.yul\":13629:13638   */\n      dup5\n        /* \"#utility.yul\":13624:13627   */\n      dup10\n        /* \"#utility.yul\":13620:13639   */\n      add\n        /* \"#utility.yul\":13614:13640   */\n      mload\n        /* \"#utility.yul\":13672:13720   */\n      tag_328\n        /* \"#utility.yul\":13714:13718   */\n      0x1f\n        /* \"#utility.yul\":13706:13712   */\n      dup10\n        /* \"#utility.yul\":13702:13719   */\n      and\n        /* \"#utility.yul\":13691:13700   */\n      dup3\n        /* \"#utility.yul\":13672:13720   */\n      tag_168\n      jump\t// in\n    tag_328:\n        /* \"#utility.yul\":13664:13670   */\n      dup4\n        /* \"#utility.yul\":13657:13721   */\n      sstore\n        /* \"#utility.yul\":13579:13735   */\n      pop\n        /* \"#utility.yul\":13556:13735   */\n    tag_327:\n        /* \"#utility.yul\":13781:13782   */\n      0x01\n        /* \"#utility.yul\":13777:13778   */\n      0x02\n        /* \"#utility.yul\":13769:13775   */\n      dup9\n        /* \"#utility.yul\":13765:13779   */\n      mul\n        /* \"#utility.yul\":13761:13783   */\n      add\n        /* \"#utility.yul\":13755:13759   */\n      dup9\n        /* \"#utility.yul\":13748:13784   */\n      sstore\n        /* \"#utility.yul\":13183:13794   */\n      pop\n      pop\n      pop\n        /* \"#utility.yul\":13146:14033   */\n    tag_319:\n      pop\n        /* \"#utility.yul\":12736:14039   */\n      pop\n      pop\n      pop\n        /* \"#utility.yul\":12644:14039   */\n      pop\n      pop\n      jump\t// out\n        /* \"#utility.yul\":14045:14193   */\n    tag_170:\n        /* \"#utility.yul\":14143:14149   */\n      dup3\n        /* \"#utility.yul\":14138:14141   */\n      dup2\n        /* \"#utility.yul\":14133:14136   */\n      dup4\n        /* \"#utility.yul\":14120:14150   */\n      calldatacopy\n        /* \"#utility.yul\":14184:14185   */\n      0x00\n        /* \"#utility.yul\":14175:14181   */\n      dup4\n        /* \"#utility.yul\":14170:14173   */\n      dup4\n        /* \"#utility.yul\":14166:14182   */\n      add\n        /* \"#utility.yul\":14159:14186   */\n      mstore\n        /* \"#utility.yul\":14045:14193   */\n      pop\n      pop\n      pop\n      jump\t// out\n        /* \"#utility.yul\":14223:14540   */\n    tag_171:\n        /* \"#utility.yul\":14321:14324   */\n      0x00\n        /* \"#utility.yul\":14342:14413   */\n      tag_331\n        /* \"#utility.yul\":14406:14412   */\n      dup4\n        /* \"#utility.yul\":14401:14404   */\n      dup6\n        /* \"#utility.yul\":14342:14413   */\n      tag_139\n      jump\t// in\n    tag_331:\n        /* \"#utility.yul\":14335:14413   */\n      swap4\n      pop\n        /* \"#utility.yul\":14423:14479   */\n      tag_332\n        /* \"#utility.yul\":14472:14478   */\n      dup4\n        /* \"#utility.yul\":14467:14470   */\n      dup6\n        /* \"#utility.yul\":14460:14465   */\n      dup5\n        /* \"#utility.yul\":14423:14479   */\n      tag_170\n      jump\t// in\n    tag_332:\n        /* \"#utility.yul\":14504:14533   */\n      tag_333\n        /* \"#utility.yul\":14526:14532   */\n      dup4\n        /* \"#utility.yul\":14504:14533   */\n      tag_141\n      jump\t// in\n    tag_333:\n        /* \"#utility.yul\":14499:14502   */\n      dup5\n        /* \"#utility.yul\":14495:14534   */\n      add\n        /* \"#utility.yul\":14488:14534   */\n      swap1\n      pop\n        /* \"#utility.yul\":14223:14540   */\n      swap4\n      swap3\n      pop\n      pop\n      pop\n      jump\t// out\n        /* \"#utility.yul\":14546:14879   */\n    tag_102:\n        /* \"#utility.yul\":14669:14673   */\n      0x00\n        /* \"#utility.yul\":14707:14709   */\n      0x20\n        /* \"#utility.yul\":14696:14705   */\n      dup3\n        /* \"#utility.yul\":14692:14710   */\n      add\n        /* \"#utility.yul\":14684:14710   */\n      swap1\n      pop\n        /* \"#utility.yul\":14756:14765   */\n      dup2\n        /* \"#utility.yul\":14750:14754   */\n      dup2\n        /* \"#utility.yul\":14746:14766   */\n      sub\n        /* \"#utility.yul\":14742:14743   */\n      0x00\n        /* \"#utility.yul\":14731:14740   */\n      dup4\n        /* \"#utility.yul\":14727:14744   */\n      add\n        /* \"#utility.yul\":14720:14767   */\n      mstore\n        /* \"#utility.yul\":14784:14872   */\n      tag_335\n        /* \"#utility.yul\":14867:14871   */\n      dup2\n        /* \"#utility.yul\":14858:14864   */\n      dup5\n        /* \"#utility.yul\":14850:14856   */\n      dup7\n        /* \"#utility.yul\":14784:14872   */\n      tag_171\n      jump\t// in\n    tag_335:\n        /* \"#utility.yul\":14776:14872   */\n      swap1\n      pop\n        /* \"#utility.yul\":14546:14879   */\n      swap4\n      swap3\n      pop\n      pop\n      pop\n      jump\t// out\n        /* \"#utility.yul\":14885:14982   */\n    tag_172:\n        /* \"#utility.yul\":14944:14950   */\n      0x00\n        /* \"#utility.yul\":14972:14975   */\n      dup3\n        /* \"#utility.yul\":14962:14975   */\n      swap1\n      pop\n        /* \"#utility.yul\":14885:14982   */\n      swap3\n      swap2\n      pop\n      pop\n      jump\t// out\n        /* \"#utility.yul\":14988:16391   */\n    tag_120:\n        /* \"#utility.yul\":15112:15156   */\n      tag_338\n        /* \"#utility.yul\":15152:15155   */\n      dup4\n        /* \"#utility.yul\":15147:15150   */\n      dup4\n        /* \"#utility.yul\":15112:15156   */\n      tag_172\n      jump\t// in\n    tag_338:\n        /* \"#utility.yul\":15221:15239   */\n      0xffffffffffffffff\n        /* \"#utility.yul\":15213:15219   */\n      dup2\n        /* \"#utility.yul\":15210:15240   */\n      gt\n        /* \"#utility.yul\":15207:15263   */\n      iszero\n      tag_339\n      jumpi\n        /* \"#utility.yul\":15243:15261   */\n      tag_340\n      tag_154\n      jump\t// in\n    tag_340:\n        /* \"#utility.yul\":15207:15263   */\n    tag_339:\n        /* \"#utility.yul\":15287:15325   */\n      tag_341\n        /* \"#utility.yul\":15319:15323   */\n      dup3\n        /* \"#utility.yul\":15313:15324   */\n      sload\n        /* \"#utility.yul\":15287:15325   */\n      tag_90\n      jump\t// in\n    tag_341:\n        /* \"#utility.yul\":15372:15439   */\n      tag_342\n        /* \"#utility.yul\":15432:15438   */\n      dup3\n        /* \"#utility.yul\":15424:15430   */\n      dup3\n        /* \"#utility.yul\":15418:15422   */\n      dup6\n        /* \"#utility.yul\":15372:15439   */\n      tag_166\n      jump\t// in\n    tag_342:\n        /* \"#utility.yul\":15466:15467   */\n      0x00\n        /* \"#utility.yul\":15495:15497   */\n      0x1f\n        /* \"#utility.yul\":15487:15493   */\n      dup4\n        /* \"#utility.yul\":15484:15498   */\n      gt\n        /* \"#utility.yul\":15512:15513   */\n      0x01\n        /* \"#utility.yul\":15507:16139   */\n      dup2\n      eq\n      tag_344\n      jumpi\n        /* \"#utility.yul\":16183:16184   */\n      0x00\n        /* \"#utility.yul\":16200:16206   */\n      dup5\n        /* \"#utility.yul\":16197:16281   */\n      iszero\n      tag_345\n      jumpi\n        /* \"#utility.yul\":16256:16265   */\n      dup3\n        /* \"#utility.yul\":16251:16254   */\n      dup8\n        /* \"#utility.yul\":16247:16266   */\n      add\n        /* \"#utility.yul\":16234:16267   */\n      calldataload\n        /* \"#utility.yul\":16225:16267   */\n      swap1\n      pop\n        /* \"#utility.yul\":16197:16281   */\n    tag_345:\n        /* \"#utility.yul\":16307:16374   */\n      tag_346\n        /* \"#utility.yul\":16367:16373   */\n      dup6\n        /* \"#utility.yul\":16360:16365   */\n      dup3\n        /* \"#utility.yul\":16307:16374   */\n      tag_169\n      jump\t// in\n    tag_346:\n        /* \"#utility.yul\":16301:16305   */\n      dup7\n        /* \"#utility.yul\":16294:16375   */\n      sstore\n        /* \"#utility.yul\":16156:16385   */\n      pop\n        /* \"#utility.yul\":15477:16385   */\n      jump(tag_343)\n        /* \"#utility.yul\":15507:16139   */\n    tag_344:\n        /* \"#utility.yul\":15559:15563   */\n      0x1f\n        /* \"#utility.yul\":15555:15564   */\n      not\n        /* \"#utility.yul\":15547:15553   */\n      dup5\n        /* \"#utility.yul\":15543:15565   */\n      and\n        /* \"#utility.yul\":15593:15630   */\n      tag_347\n        /* \"#utility.yul\":15625:15629   */\n      dup7\n        /* \"#utility.yul\":15593:15630   */\n      tag_155\n      jump\t// in\n    tag_347:\n        /* \"#utility.yul\":15652:15653   */\n      0x00\n        /* \"#utility.yul\":15666:15881   */\n    tag_348:\n        /* \"#utility.yul\":15680:15687   */\n      dup3\n        /* \"#utility.yul\":15677:15678   */\n      dup2\n        /* \"#utility.yul\":15674:15688   */\n      lt\n        /* \"#utility.yul\":15666:15881   */\n      iszero\n      tag_350\n      jumpi\n        /* \"#utility.yul\":15766:15775   */\n      dup5\n        /* \"#utility.yul\":15761:15764   */\n      dup10\n        /* \"#utility.yul\":15757:15776   */\n      add\n        /* \"#utility.yul\":15744:15777   */\n      calldataload\n        /* \"#utility.yul\":15736:15742   */\n      dup3\n        /* \"#utility.yul\":15729:15778   */\n      sstore\n        /* \"#utility.yul\":15817:15818   */\n      0x01\n        /* \"#utility.yul\":15809:15815   */\n      dup3\n        /* \"#utility.yul\":15805:15819   */\n      add\n        /* \"#utility.yul\":15795:15819   */\n      swap2\n      pop\n        /* \"#utility.yul\":15864:15866   */\n      0x20\n        /* \"#utility.yul\":15853:15862   */\n      dup6\n        /* \"#utility.yul\":15849:15867   */\n      add\n        /* \"#utility.yul\":15836:15867   */\n      swap5\n      pop\n        /* \"#utility.yul\":15703:15707   */\n      0x20\n        /* \"#utility.yul\":15700:15701   */\n      dup2\n        /* \"#utility.yul\":15696:15708   */\n      add\n        /* \"#utility.yul\":15691:15708   */\n      swap1\n      pop\n        /* \"#utility.yul\":15666:15881   */\n      jump(tag_348)\n    tag_350:\n        /* \"#utility.yul\":15909:15915   */\n      dup7\n        /* \"#utility.yul\":15900:15907   */\n      dup4\n        /* \"#utility.yul\":15897:15916   */\n      lt\n        /* \"#utility.yul\":15894:16080   */\n      iszero\n      tag_351\n      jumpi\n        /* \"#utility.yul\":15974:15983   */\n      dup5\n        /* \"#utility.yul\":15969:15972   */\n      dup10\n        /* \"#utility.yul\":15965:15984   */\n      add\n        /* \"#utility.yul\":15952:15985   */\n      calldataload\n        /* \"#utility.yul\":16017:16065   */\n      tag_352\n        /* \"#utility.yul\":16059:16063   */\n      0x1f\n        /* \"#utility.yul\":16051:16057   */\n      dup10\n        /* \"#utility.yul\":16047:16064   */\n      and\n        /* \"#utility.yul\":16036:16045   */\n      dup3\n        /* \"#utility.yul\":16017:16065   */\n      tag_168\n      jump\t// in\n    tag_352:\n        /* \"#utility.yul\":16009:16015   */\n      dup4\n        /* \"#utility.yul\":16002:16066   */\n      sstore\n        /* \"#utility.yul\":15917:16080   */\n      pop\n        /* \"#utility.yul\":15894:16080   */\n    tag_351:\n        /* \"#utility.yul\":16126:16127   */\n      0x01\n        /* \"#utility.yul\":16122:16123   */\n      0x02\n        /* \"#utility.yul\":16114:16120   */\n      dup9\n        /* \"#utility.yul\":16110:16124   */\n      mul\n        /* \"#utility.yul\":16106:16128   */\n      add\n        /* \"#utility.yul\":16100:16104   */\n      dup9\n        /* \"#utility.yul\":16093:16129   */\n      sstore\n        /* \"#utility.yul\":15514:16139   */\n      pop\n      pop\n      pop\n        /* \"#utility.yul\":15477:16385   */\n    tag_343:\n      pop\n        /* \"#utility.yul\":15087:16391   */\n      pop\n      pop\n      pop\n        /* \"#utility.yul\":14988:16391   */\n      pop\n      pop\n      pop\n      jump\t// out\n\n    auxdata: 0xa264697066735822122080cebe24ff3da2b8a6af46c9644c4193d7f0e09076885abb480ec6d7fab0690a64736f6c634300081a0033\n}\n",
				"bytecode": {
					"linkReferences": {},
					"object": "6080604052348015600e575f80fd5b50335f806101000a81548173ffffffffffffffffffffffffffffffffffffffff021916908373ffffffffffffffffffffffffffffffffffffffff1602179055506112cf8061005b5f395ff3fe608060405234801561000f575f80fd5b5060043610610086575f3560e01c80639507d39a116100595780639507d39a146100fe578063b6a46b3b1461012f578063bc8bc2b41461014b578063cd1116141461017c57610086565b806323eaeadd1461008a578063455f5024146100a85780634f8632ba146100c4578063549fd151146100e2575b5f80fd5b610092610198565b60405161009f91906109c5565b60405180910390f35b6100c260048036038101906100bd9190610a10565b6101a4565b005b6100cc6102de565b6040516100d99190610a7a565b60405180910390f35b6100fc60048036038101906100f79190610a10565b610301565b005b61011860048036038101906101139190610a10565b6104e2565b604051610126929190610b1d565b60405180910390f35b61014960048036038101906101449190610bac565b610618565b005b61016560048036038101906101609190610a10565b610790565b604051610173929190610b1d565b60405180910390f35b61019660048036038101906101919190610bf7565b610851565b005b5f600180549050905090565b5f8054906101000a900473ffffffffffffffffffffffffffffffffffffffff1673ffffffffffffffffffffffffffffffffffffffff163373ffffffffffffffffffffffffffffffffffffffff1614610228576040517fc939d2b700000000000000000000000000000000000000000000000000000000815260040160405180910390fd5b806001805490508110610270576040517f08c379a000000000000000000000000000000000000000000000000000000000815260040161026790610c9e565b60405180910390fd5b6001828154811061028457610283610cbc565b5b905f5260205f2090600202016001015f9054906101000a900460ff1615600183815481106102b5576102b4610cbc565b5b905f5260205f2090600202016001015f6101000a81548160ff0219169083151502179055505050565b5f8054906101000a900473ffffffffffffffffffffffffffffffffffffffff1681565b5f8054906101000a900473ffffffffffffffffffffffffffffffffffffffff1673ffffffffffffffffffffffffffffffffffffffff163373ffffffffffffffffffffffffffffffffffffffff1614610385576040517fc939d2b700000000000000000000000000000000000000000000000000000000815260040160405180910390fd5b8060018054905081106103cd576040517f08c379a00000000000000000000000000000000000000000000000000000000081526004016103c490610c9e565b60405180910390fd5b60018080805490506103df9190610d16565b815481106103f0576103ef610cbc565b5b905f5260205f209060020201600183815481106104105761040f610cbc565b5b905f5260205f2090600202015f8201815f01908161042e9190610f85565b50600182015f9054906101000a900460ff16816001015f6101000a81548160ff021916908315150217905550905050600180548061046f5761046e61106a565b5b600190038181905f5260205f2090600202015f8082015f6104909190610955565b600182015f6101000a81549060ff0219169055505090557f8dc20f2d1c4b122c207261d55b94609d434113f2fe40b70797c1b445eb6eef03826040516104d691906109c5565b60405180910390a15050565b60605f82600180549050811061052d576040517f08c379a000000000000000000000000000000000000000000000000000000000815260040161052490610c9e565b60405180910390fd5b5f6001858154811061054257610541610cbc565b5b905f5260205f2090600202016040518060400160405290815f8201805461056890610d76565b80601f016020809104026020016040519081016040528092919081815260200182805461059490610d76565b80156105df5780601f106105b6576101008083540402835291602001916105df565b820191905f5260205f20905b8154815290600101906020018083116105c257829003601f168201915b50505050508152602001600182015f9054906101000a900460ff1615151515815250509050805f01518160200151935093505050915091565b5f8054906101000a900473ffffffffffffffffffffffffffffffffffffffff1673ffffffffffffffffffffffffffffffffffffffff163373ffffffffffffffffffffffffffffffffffffffff161461069c576040517fc939d2b700000000000000000000000000000000000000000000000000000000815260040160405180910390fd5b6001604051806040016040528084848080601f0160208091040260200160405190810160405280939291908181526020018383808284375f81840152601f19601f8201169050808301925050505050505081526020015f1515815250908060018154018082558091505060019003905f5260205f2090600202015f909190919091505f820151815f0190816107319190611097565b506020820151816001015f6101000a81548160ff02191690831515021790555050507fa742d97269120ffb3772462b1a0df7dfc4461b339676518cad33eb2884523adc82826040516107849291906111a0565b60405180910390a15050565b6001818154811061079f575f80fd5b905f5260205f2090600202015f91509050805f0180546107be90610d76565b80601f01602080910402602001604051908101604052809291908181526020018280546107ea90610d76565b80156108355780601f1061080c57610100808354040283529160200191610835565b820191905f5260205f20905b81548152906001019060200180831161081857829003601f168201915b505050505090806001015f9054906101000a900460ff16905082565b5f8054906101000a900473ffffffffffffffffffffffffffffffffffffffff1673ffffffffffffffffffffffffffffffffffffffff163373ffffffffffffffffffffffffffffffffffffffff16146108d5576040517fc939d2b700000000000000000000000000000000000000000000000000000000815260040160405180910390fd5b82600180549050811061091d576040517f08c379a000000000000000000000000000000000000000000000000000000000815260040161091490610c9e565b60405180910390fd5b82826001868154811061093357610932610cbc565b5b905f5260205f2090600202015f01918261094e9291906111cc565b5050505050565b50805461096190610d76565b5f825580601f10610972575061098f565b601f0160209004905f5260205f209081019061098e9190610992565b5b50565b5b808211156109a9575f815f905550600101610993565b5090565b5f819050919050565b6109bf816109ad565b82525050565b5f6020820190506109d85f8301846109b6565b92915050565b5f80fd5b5f80fd5b6109ef816109ad565b81146109f9575f80fd5b50565b5f81359050610a0a816109e6565b92915050565b5f60208284031215610a2557610a246109de565b5b5f610a32848285016109fc565b91505092915050565b5f73ffffffffffffffffffffffffffffffffffffffff82169050919050565b5f610a6482610a3b565b9050919050565b610a7481610a5a565b82525050565b5f602082019050610a8d5f830184610a6b565b92915050565b5f81519050919050565b5f82825260208201905092915050565b8281835e5f83830152505050565b5f601f19601f8301169050919050565b5f610ad582610a93565b610adf8185610a9d565b9350610aef818560208601610aad565b610af881610abb565b840191505092915050565b5f8115159050919050565b610b1781610b03565b82525050565b5f6040820190508181035f830152610b358185610acb565b9050610b446020830184610b0e565b9392505050565b5f80fd5b5f80fd5b5f80fd5b5f8083601f840112610b6c57610b6b610b4b565b5b8235905067ffffffffffffffff811115610b8957610b88610b4f565b5b602083019150836001820283011115610ba557610ba4610b53565b5b9250929050565b5f8060208385031215610bc257610bc16109de565b5b5f83013567ffffffffffffffff811115610bdf57610bde6109e2565b5b610beb85828601610b57565b92509250509250929050565b5f805f60408486031215610c0e57610c0d6109de565b5b5f610c1b868287016109fc565b935050602084013567ffffffffffffffff811115610c3c57610c3b6109e2565b5b610c4886828701610b57565b92509250509250925092565b7f496e646578206f7574206f6620626f756e6473000000000000000000000000005f82015250565b5f610c88601383610a9d565b9150610c9382610c54565b602082019050919050565b5f6020820190508181035f830152610cb581610c7c565b9050919050565b7f4e487b71000000000000000000000000000000000000000000000000000000005f52603260045260245ffd5b7f4e487b71000000000000000000000000000000000000000000000000000000005f52601160045260245ffd5b5f610d20826109ad565b9150610d2b836109ad565b9250828203905081811115610d4357610d42610ce9565b5b92915050565b7f4e487b71000000000000000000000000000000000000000000000000000000005f52602260045260245ffd5b5f6002820490506001821680610d8d57607f821691505b602082108103610da057610d9f610d49565b5b50919050565b5f81549050610db481610d76565b9050919050565b7f4e487b71000000000000000000000000000000000000000000000000000000005f52604160045260245ffd5b5f819050815f5260205f209050919050565b5f6020601f8301049050919050565b5f82821b905092915050565b5f60088302610e447fffffffffffffffffffffffffffffffffffffffffffffffffffffffffffffffff82610e09565b610e4e8683610e09565b95508019841693508086168417925050509392505050565b5f819050919050565b5f610e89610e84610e7f846109ad565b610e66565b6109ad565b9050919050565b5f819050919050565b610ea283610e6f565b610eb6610eae82610e90565b848454610e15565b825550505050565b5f90565b610eca610ebe565b610ed5818484610e99565b505050565b5b81811015610ef857610eed5f82610ec2565b600181019050610edb565b5050565b601f821115610f3d57610f0e81610de8565b610f1784610dfa565b81016020851015610f26578190505b610f3a610f3285610dfa565b830182610eda565b50505b505050565b5f82821c905092915050565b5f610f5d5f1984600802610f42565b1980831691505092915050565b5f610f758383610f4e565b9150826002028217905092915050565b818103610f93575050611068565b610f9c82610da6565b67ffffffffffffffff811115610fb557610fb4610dbb565b5b610fbf8254610d76565b610fca828285610efc565b5f601f831160018114610ff7575f8415610fe5578287015490505b610fef8582610f6a565b865550611061565b601f19841661100587610de8565b965061101086610de8565b5f5b8281101561103757848901548255600182019150600185019450602081019050611012565b868310156110545784890154611050601f891682610f4e565b8355505b6001600288020188555050505b5050505050505b565b7f4e487b71000000000000000000000000000000000000000000000000000000005f52603160045260245ffd5b6110a082610a93565b67ffffffffffffffff8111156110b9576110b8610dbb565b5b6110c38254610d76565b6110ce828285610efc565b5f60209050601f8311600181146110ff575f84156110ed578287015190505b6110f78582610f6a565b86555061115e565b601f19841661110d86610de8565b5f5b828110156111345784890151825560018201915060208501945060208101905061110f565b86831015611151578489015161114d601f891682610f4e565b8355505b6001600288020188555050505b505050505050565b828183375f83830152505050565b5f61117f8385610a9d565b935061118c838584611166565b61119583610abb565b840190509392505050565b5f6020820190508181035f8301526111b9818486611174565b90509392505050565b5f82905092915050565b6111d683836111c2565b67ffffffffffffffff8111156111ef576111ee610dbb565b5b6111f98254610d76565b611204828285610efc565b5f601f831160018114611231575f841561121f578287013590505b6112298582610f6a565b865550611290565b601f19841661123f86610de8565b5f5b8281101561126657848901358255600182019150602085019450602081019050611241565b86831015611283578489013561127f601f891682610f4e565b8355505b6001600288020188555050505b5050505050505056fea264697066735822122080cebe24ff3da2b8a6af46c9644c4193d7f0e09076885abb480ec6d7fab0690a64736f6c634300081a0033",
					"opcodes": "PUSH1 0x80 PUSH1 0x40 MSTORE CALLVALUE DUP1 ISZERO PUSH1 0xE JUMPI PUSH0 DUP1 REVERT JUMPDEST POP CALLER PUSH0 DUP1 PUSH2 0x100 EXP DUP2 SLOAD DUP2 PUSH20 0xFFFFFFFFFFFFFFFFFFFFFFFFFFFFFFFFFFFFFFFF MUL NOT AND SWAP1 DUP4 PUSH20 0xFFFFFFFFFFFFFFFFFFFFFFFFFFFFFFFFFFFFFFFF AND MUL OR SWAP1 SSTORE POP PUSH2 0x12CF DUP1 PUSH2 0x5B PUSH0 CODECOPY PUSH0 RETURN INVALID PUSH1 0x80 PUSH1 0x40 MSTORE CALLVALUE DUP1 ISZERO PUSH2 0xF JUMPI PUSH0 DUP1 REVERT JUMPDEST POP PUSH1 0x4 CALLDATASIZE LT PUSH2 0x86 JUMPI PUSH0 CALLDATALOAD PUSH1 0xE0 SHR DUP1 PUSH4 0x9507D39A GT PUSH2 0x59 JUMPI DUP1 PUSH4 0x9507D39A EQ PUSH2 0xFE JUMPI DUP1 PUSH4 0xB6A46B3B EQ PUSH2 0x12F JUMPI DUP1 PUSH4 0xBC8BC2B4 EQ PUSH2 0x14B JUMPI DUP1 PUSH4 0xCD111614 EQ PUSH2 0x17C JUMPI PUSH2 0x86 JUMP JUMPDEST DUP1 PUSH4 0x23EAEADD EQ PUSH2 0x8A JUMPI DUP1 PUSH4 0x455F5024 EQ PUSH2 0xA8 JUMPI DUP1 PUSH4 0x4F8632BA EQ PUSH2 0xC4 JUMPI DUP1 PUSH4 0x549FD151 EQ PUSH2 0xE2 JUMPI JUMPDEST PUSH0 DUP1 REVERT JUMPDEST PUSH2 0x92 PUSH2 0x198 JUMP JUMPDEST PUSH1 0x40 MLOAD PUSH2 0x9F SWAP2 SWAP1 PUSH2 0x9C5 JUMP JUMPDEST PUSH1 0x40 MLOAD DUP1 SWAP2 SUB SWAP1 RETURN JUMPDEST PUSH2 0xC2 PUSH1 0x4 DUP1 CALLDATASIZE SUB DUP2 ADD SWAP1 PUSH2 0xBD SWAP2 SWAP1 PUSH2 0xA10 JUMP JUMPDEST PUSH2 0x1A4 JUMP JUMPDEST STOP JUMPDEST PUSH2 0xCC PUSH2 0x2DE JUMP JUMPDEST PUSH1 0x40 MLOAD PUSH2 0xD9 SWAP2 SWAP1 PUSH2 0xA7A JUMP JUMPDEST PUSH1 0x40 MLOAD DUP1 SWAP2 SUB SWAP1 RETURN JUMPDEST PUSH2 0xFC PUSH1 0x4 DUP1 CALLDATASIZE SUB DUP2 ADD SWAP1 PUSH2 0xF7 SWAP2 SWAP1 PUSH2 0xA10 JUMP JUMPDEST PUSH2 0x301 JUMP JUMPDEST STOP JUMPDEST PUSH2 0x118 PUSH1 0x4 DUP1 CALLDATASIZE SUB DUP2 ADD SWAP1 PUSH2 0x113 SWAP2 SWAP1 PUSH2 0xA10 JUMP JUMPDEST PUSH2 0x4E2 JUMP JUMPDEST PUSH1 0x40 MLOAD PUSH2 0x126 SWAP3 SWAP2 SWAP1 PUSH2 0xB1D JUMP JUMPDEST PUSH1 0x40 MLOAD DUP1 SWAP2 SUB SWAP1 RETURN JUMPDEST PUSH2 0x149 PUSH1 0x4 DUP1 CALLDATASIZE SUB DUP2 ADD SWAP1 PUSH2 0x144 SWAP2 SWAP1 PUSH2 0xBAC JUMP JUMPDEST PUSH2 0x618 JUMP JUMPDEST STOP JUMPDEST PUSH2 0x165 PUSH1 0x4 DUP1 CALLDATASIZE SUB DUP2 ADD SWAP1 PUSH2 0x160 SWAP2 SWAP1 PUSH2 0xA10 JUMP JUMPDEST PUSH2 0x790 JUMP JUMPDEST PUSH1 0x40 MLOAD PUSH2 0x173 SWAP3 SWAP2 SWAP1 PUSH2 0xB1D JUMP JUMPDEST PUSH1 0x40 MLOAD DUP1 SWAP2 SUB SWAP1 RETURN JUMPDEST PUSH2 0x196 PUSH1 0x4 DUP1 CALLDATASIZE SUB DUP2 ADD SWAP1 PUSH2 0x191 SWAP2 SWAP1 PUSH2 0xBF7 JUMP JUMPDEST PUSH2 0x851 JUMP JUMPDEST STOP JUMPDEST PUSH0 PUSH1 0x1 DUP1 SLOAD SWAP1 POP SWAP1 POP SWAP1 JUMP JUMPDEST PUSH0 DUP1 SLOAD SWAP1 PUSH2 0x100 EXP SWAP1 DIV PUSH20 0xFFFFFFFFFFFFFFFFFFFFFFFFFFFFFFFFFFFFFFFF AND PUSH20 0xFFFFFFFFFFFFFFFFFFFFFFFFFFFFFFFFFFFFFFFF AND CALLER PUSH20 0xFFFFFFFFFFFFFFFFFFFFFFFFFFFFFFFFFFFFFFFF AND EQ PUSH2 0x228 JUMPI PUSH1 0x40 MLOAD PUSH32 0xC939D2B700000000000000000000000000000000000000000000000000000000 DUP2 MSTORE PUSH1 0x4 ADD PUSH1 0x40 MLOAD DUP1 SWAP2 SUB SWAP1 REVERT JUMPDEST DUP1 PUSH1 0x1 DUP1 SLOAD SWAP1 POP DUP2 LT PUSH2 0x270 JUMPI PUSH1 0x40 MLOAD PUSH32 0x8C379A000000000000000000000000000000000000000000000000000000000 DUP2 MSTORE PUSH1 0x4 ADD PUSH2 0x267 SWAP1 PUSH2 0xC9E JUMP JUMPDEST PUSH1 0x40 MLOAD DUP1 SWAP2 SUB SWAP1 REVERT JUMPDEST PUSH1 0x1 DUP3 DUP2 SLOAD DUP2 LT PUSH2 0x284 JUMPI PUSH2 0x283 PUSH2 0xCBC JUMP JUMPDEST JUMPDEST SWAP1 PUSH0 MSTORE PUSH1 0x20 PUSH0 KECCAK256 SWAP1 PUSH1 0x2 MUL ADD PUSH1 0x1 ADD PUSH0 SWAP1 SLOAD SWAP1 PUSH2 0x100 EXP SWAP1 DIV PUSH1 0xFF AND ISZERO PUSH1 0x1 DUP4 DUP2 SLOAD DUP2 LT PUSH2 0x2B5 JUMPI PUSH2 0x2B4 PUSH2 0xCBC JUMP JUMPDEST JUMPDEST SWAP1 PUSH0 MSTORE PUSH1 0x20 PUSH0 KECCAK256 SWAP1 PUSH1 0x2 MUL ADD PUSH1 0x1 ADD PUSH0 PUSH2 0x100 EXP DUP2 SLOAD DUP2 PUSH1 0xFF MUL NOT AND SWAP1 DUP4 ISZERO ISZERO MUL OR SWAP1 SSTORE POP POP POP JUMP JUMPDEST PUSH0 DUP1 SLOAD SWAP1 PUSH2 0x100 EXP SWAP1 DIV PUSH20 0xFFFFFFFFFFFFFFFFFFFFFFFFFFFFFFFFFFFFFFFF AND DUP2 JUMP JUMPDEST PUSH0 DUP1 SLOAD SWAP1 PUSH2 0x100 EXP SWAP1 DIV PUSH20 0xFFFFFFFFFFFFFFFFFFFFFFFFFFFFFFFFFFFFFFFF AND PUSH20 0xFFFFFFFFFFFFFFFFFFFFFFFFFFFFFFFFFFFFFFFF AND CALLER PUSH20 0xFFFFFFFFFFFFFFFFFFFFFFFFFFFFFFFFFFFFFFFF AND EQ PUSH2 0x385 JUMPI PUSH1 0x40 MLOAD PUSH32 0xC939D2B700000000000000000000000000000000000000000000000000000000 DUP2 MSTORE PUSH1 0x4 ADD PUSH1 0x40 MLOAD DUP1 SWAP2 SUB SWAP1 REVERT JUMPDEST DUP1 PUSH1 0x1 DUP1 SLOAD SWAP1 POP DUP2 LT PUSH2 0x3CD JUMPI PUSH1 0x40 MLOAD PUSH32 0x8C379A000000000000000000000000000000000000000000000000000000000 DUP2 MSTORE PUSH1 0x4 ADD PUSH2 0x3C4 SWAP1 PUSH2 0xC9E JUMP JUMPDEST PUSH1 0x40 MLOAD DUP1 SWAP2 SUB SWAP1 REVERT JUMPDEST PUSH1 0x1 DUP1 DUP1 DUP1 SLOAD SWAP1 POP PUSH2 0x3DF SWAP2 SWAP1 PUSH2 0xD16 JUMP JUMPDEST DUP2 SLOAD DUP2 LT PUSH2 0x3F0 JUMPI PUSH2 0x3EF PUSH2 0xCBC JUMP JUMPDEST JUMPDEST SWAP1 PUSH0 MSTORE PUSH1 0x20 PUSH0 KECCAK256 SWAP1 PUSH1 0x2 MUL ADD PUSH1 0x1 DUP4 DUP2 SLOAD DUP2 LT PUSH2 0x410 JUMPI PUSH2 0x40F PUSH2 0xCBC JUMP JUMPDEST JUMPDEST SWAP1 PUSH0 MSTORE PUSH1 0x20 PUSH0 KECCAK256 SWAP1 PUSH1 0x2 MUL ADD PUSH0 DUP3 ADD DUP2 PUSH0 ADD SWAP1 DUP2 PUSH2 0x42E SWAP2 SWAP1 PUSH2 0xF85 JUMP JUMPDEST POP PUSH1 0x1 DUP3 ADD PUSH0 SWAP1 SLOAD SWAP1 PUSH2 0x100 EXP SWAP1 DIV PUSH1 0xFF AND DUP2 PUSH1 0x1 ADD PUSH0 PUSH2 0x100 EXP DUP2 SLOAD DUP2 PUSH1 0xFF MUL NOT AND SWAP1 DUP4 ISZERO ISZERO MUL OR SWAP1 SSTORE POP SWAP1 POP POP PUSH1 0x1 DUP1 SLOAD DUP1 PUSH2 0x46F JUMPI PUSH2 0x46E PUSH2 0x106A JUMP JUMPDEST JUMPDEST PUSH1 0x1 SWAP1 SUB DUP2 DUP2 SWAP1 PUSH0 MSTORE PUSH1 0x20 PUSH0 KECCAK256 SWAP1 PUSH1 0x2 MUL ADD PUSH0 DUP1 DUP3 ADD PUSH0 PUSH2 0x490 SWAP2 SWAP1 PUSH2 0x955 JUMP JUMPDEST PUSH1 0x1 DUP3 ADD PUSH0 PUSH2 0x100 EXP DUP2 SLOAD SWAP1 PUSH1 0xFF MUL NOT AND SWAP1 SSTORE POP POP SWAP1 SSTORE PUSH32 0x8DC20F2D1C4B122C207261D55B94609D434113F2FE40B70797C1B445EB6EEF03 DUP3 PUSH1 0x40 MLOAD PUSH2 0x4D6 SWAP2 SWAP1 PUSH2 0x9C5 JUMP JUMPDEST PUSH1 0x40 MLOAD DUP1 SWAP2 SUB SWAP1 LOG1 POP POP JUMP JUMPDEST PUSH1 0x60 PUSH0 DUP3 PUSH1 0x1 DUP1 SLOAD SWAP1 POP DUP2 LT PUSH2 0x52D JUMPI PUSH1 0x40 MLOAD PUSH32 0x8C379A000000000000000000000000000000000000000000000000000000000 DUP2 MSTORE PUSH1 0x4 ADD PUSH2 0x524 SWAP1 PUSH2 0xC9E JUMP JUMPDEST PUSH1 0x40 MLOAD DUP1 SWAP2 SUB SWAP1 REVERT JUMPDEST PUSH0 PUSH1 0x1 DUP6 DUP2 SLOAD DUP2 LT PUSH2 0x542 JUMPI PUSH2 0x541 PUSH2 0xCBC JUMP JUMPDEST JUMPDEST SWAP1 PUSH0 MSTORE PUSH1 0x20 PUSH0 KECCAK256 SWAP1 PUSH1 0x2 MUL ADD PUSH1 0x40 MLOAD DUP1 PUSH1 0x40 ADD PUSH1 0x40 MSTORE SWAP1 DUP2 PUSH0 DUP3 ADD DUP1 SLOAD PUSH2 0x568 SWAP1 PUSH2 0xD76 JUMP JUMPDEST DUP1 PUSH1 0x1F ADD PUSH1 0x20 DUP1 SWAP2 DIV MUL PUSH1 0x20 ADD PUSH1 0x40 MLOAD SWAP1 DUP2 ADD PUSH1 0x40 MSTORE DUP1 SWAP3 SWAP2 SWAP1 DUP2 DUP2 MSTORE PUSH1 0x20 ADD DUP3 DUP1 SLOAD PUSH2 0x594 SWAP1 PUSH2 0xD76 JUMP JUMPDEST DUP1 ISZERO PUSH2 0x5DF JUMPI DUP1 PUSH1 0x1F LT PUSH2 0x5B6 JUMPI PUSH2 0x100 DUP1 DUP4 SLOAD DIV MUL DUP4 MSTORE SWAP2 PUSH1 0x20 ADD SWAP2 PUSH2 0x5DF JUMP JUMPDEST DUP3 ADD SWAP2 SWAP1 PUSH0 MSTORE PUSH1 0x20 PUSH0 KECCAK256 SWAP1 JUMPDEST DUP2 SLOAD DUP2 MSTORE SWAP1 PUSH1 0x1 ADD SWAP1 PUSH1 0x20 ADD DUP1 DUP4 GT PUSH2 0x5C2 JUMPI DUP3 SWAP1 SUB PUSH1 0x1F AND DUP3 ADD SWAP2 JUMPDEST POP POP POP POP POP DUP2 MSTORE PUSH1 0x20 ADD PUSH1 0x1 DUP3 ADD PUSH0 SWAP1 SLOAD SWAP1 PUSH2 0x100 EXP SWAP1 DIV PUSH1 0xFF AND ISZERO ISZERO ISZERO ISZERO DUP2 MSTORE POP POP SWAP1 POP DUP1 PUSH0 ADD MLOAD DUP2 PUSH1 0x20 ADD MLOAD SWAP4 POP SWAP4 POP POP POP SWAP2 POP SWAP2 JUMP JUMPDEST PUSH0 DUP1 SLOAD SWAP1 PUSH2 0x100 EXP SWAP1 DIV PUSH20 0xFFFFFFFFFFFFFFFFFFFFFFFFFFFFFFFFFFFFFFFF AND PUSH20 0xFFFFFFFFFFFFFFFFFFFFFFFFFFFFFFFFFFFFFFFF AND CALLER PUSH20 0xFFFFFFFFFFFFFFFFFFFFFFFFFFFFFFFFFFFFFFFF AND EQ PUSH2 0x69C JUMPI PUSH1 0x40 MLOAD PUSH32 0xC939D2B700000000000000000000000000000000000000000000000000000000 DUP2 MSTORE PUSH1 0x4 ADD PUSH1 0x40 MLOAD DUP1 SWAP2 SUB SWAP1 REVERT JUMPDEST PUSH1 0x1 PUSH1 0x40 MLOAD DUP1 PUSH1 0x40 ADD PUSH1 0x40 MSTORE DUP1 DUP5 DUP5 DUP1 DUP1 PUSH1 0x1F ADD PUSH1 0x20 DUP1 SWAP2 DIV MUL PUSH1 0x20 ADD PUSH1 0x40 MLOAD SWAP1 DUP2 ADD PUSH1 0x40 MSTORE DUP1 SWAP4 SWAP3 SWAP2 SWAP1 DUP2 DUP2 MSTORE PUSH1 0x20 ADD DUP4 DUP4 DUP1 DUP3 DUP5 CALLDATACOPY PUSH0 DUP2 DUP5 ADD MSTORE PUSH1 0x1F NOT PUSH1 0x1F DUP3 ADD AND SWAP1 POP DUP1 DUP4 ADD SWAP3 POP POP POP POP POP POP POP DUP2 MSTORE PUSH1 0x20 ADD PUSH0 ISZERO ISZERO DUP2 MSTORE POP SWAP1 DUP1 PUSH1 0x1 DUP2 SLOAD ADD DUP1 DUP3 SSTORE DUP1 SWAP2 POP POP PUSH1 0x1 SWAP1 SUB SWAP1 PUSH0 MSTORE PUSH1 0x20 PUSH0 KECCAK256 SWAP1 PUSH1 0x2 MUL ADD PUSH0 SWAP1 SWAP2 SWAP1 SWAP2 SWAP1 SWAP2 POP PUSH0 DUP3 ADD MLOAD DUP2 PUSH0 ADD SWAP1 DUP2 PUSH2 0x731 SWAP2 SWAP1 PUSH2 0x1097 JUMP JUMPDEST POP PUSH1 0x20 DUP3 ADD MLOAD DUP2 PUSH1 0x1 ADD PUSH0 PUSH2 0x100 EXP DUP2 SLOAD DUP2 PUSH1 0xFF MUL NOT AND SWAP1 DUP4 ISZERO ISZERO MUL OR SWAP1 SSTORE POP POP POP PUSH32 0xA742D97269120FFB3772462B1A0DF7DFC4461B339676518CAD33EB2884523ADC DUP3 DUP3 PUSH1 0x40 MLOAD PUSH2 0x784 SWAP3 SWAP2 SWAP1 PUSH2 0x11A0 JUMP JUMPDEST PUSH1 0x40 MLOAD DUP1 SWAP2 SUB SWAP1 LOG1 POP POP JUMP JUMPDEST PUSH1 0x1 DUP2 DUP2 SLOAD DUP2 LT PUSH2 0x79F JUMPI PUSH0 DUP1 REVERT JUMPDEST SWAP1 PUSH0 MSTORE PUSH1 0x20 PUSH0 KECCAK256 SWAP1 PUSH1 0x2 MUL ADD PUSH0 SWAP2 POP SWAP1 POP DUP1 PUSH0 ADD DUP1 SLOAD PUSH2 0x7BE SWAP1 PUSH2 0xD76 JUMP JUMPDEST DUP1 PUSH1 0x1F ADD PUSH1 0x20 DUP1 SWAP2 DIV MUL PUSH1 0x20 ADD PUSH1 0x40 MLOAD SWAP1 DUP2 ADD PUSH1 0x40 MSTORE DUP1 SWAP3 SWAP2 SWAP1 DUP2 DUP2 MSTORE PUSH1 0x20 ADD DUP3 DUP1 SLOAD PUSH2 0x7EA SWAP1 PUSH2 0xD76 JUMP JUMPDEST DUP1 ISZERO PUSH2 0x835 JUMPI DUP1 PUSH1 0x1F LT PUSH2 0x80C JUMPI PUSH2 0x100 DUP1 DUP4 SLOAD DIV MUL DUP4 MSTORE SWAP2 PUSH1 0x20 ADD SWAP2 PUSH2 0x835 JUMP JUMPDEST DUP3 ADD SWAP2 SWAP1 PUSH0 MSTORE PUSH1 0x20 PUSH0 KECCAK256 SWAP1 JUMPDEST DUP2 SLOAD DUP2 MSTORE SWAP1 PUSH1 0x1 ADD SWAP1 PUSH1 0x20 ADD DUP1 DUP4 GT PUSH2 0x818 JUMPI DUP3 SWAP1 SUB PUSH1 0x1F AND DUP3 ADD SWAP2 JUMPDEST POP POP POP POP POP SWAP1 DUP1 PUSH1 0x1 ADD PUSH0 SWAP1 SLOAD SWAP1 PUSH2 0x100 EXP SWAP1 DIV PUSH1 0xFF AND SWAP1 POP DUP3 JUMP JUMPDEST PUSH0 DUP1 SLOAD SWAP1 PUSH2 0x100 EXP SWAP1 DIV PUSH20 0xFFFFFFFFFFFFFFFFFFFFFFFFFFFFFFFFFFFFFFFF AND PUSH20 0xFFFFFFFFFFFFFFFFFFFFFFFFFFFFFFFFFFFFFFFF AND CALLER PUSH20 0xFFFFFFFFFFFFFFFFFFFFFFFFFFFFFFFFFFFFFFFF AND EQ PUSH2 0x8D5 JUMPI PUSH1 0x40 MLOAD PUSH32 0xC939D2B700000000000000000000000000000000000000000000000000000000 DUP2 MSTORE PUSH1 0x4 ADD PUSH1 0x40 MLOAD DUP1 SWAP2 SUB SWAP1 REVERT JUMPDEST DUP3 PUSH1 0x1 DUP1 SLOAD SWAP1 POP DUP2 LT PUSH2 0x91D JUMPI PUSH1 0x40 MLOAD PUSH32 0x8C379A000000000000000000000000000000000000000000000000000000000 DUP2 MSTORE PUSH1 0x4 ADD PUSH2 0x914 SWAP1 PUSH2 0xC9E JUMP JUMPDEST PUSH1 0x40 MLOAD DUP1 SWAP2 SUB SWAP1 REVERT JUMPDEST DUP3 DUP3 PUSH1 0x1 DUP7 DUP2 SLOAD DUP2 LT PUSH2 0x933 JUMPI PUSH2 0x932 PUSH2 0xCBC JUMP JUMPDEST JUMPDEST SWAP1 PUSH0 MSTORE PUSH1 0x20 PUSH0 KECCAK256 SWAP1 PUSH1 0x2 MUL ADD PUSH0 ADD SWAP2 DUP3 PUSH2 0x94E SWAP3 SWAP2 SWAP1 PUSH2 0x11CC JUMP JUMPDEST POP POP POP POP POP JUMP JUMPDEST POP DUP1 SLOAD PUSH2 0x961 SWAP1 PUSH2 0xD76 JUMP JUMPDEST PUSH0 DUP3 SSTORE DUP1 PUSH1 0x1F LT PUSH2 0x972 JUMPI POP PUSH2 0x98F JUMP JUMPDEST PUSH1 0x1F ADD PUSH1 0x20 SWAP1 DIV SWAP1 PUSH0 MSTORE PUSH1 0x20 PUSH0 KECCAK256 SWAP1 DUP2 ADD SWAP1 PUSH2 0x98E SWAP2 SWAP1 PUSH2 0x992 JUMP JUMPDEST JUMPDEST POP JUMP JUMPDEST JUMPDEST DUP1 DUP3 GT ISZERO PUSH2 0x9A9 JUMPI PUSH0 DUP2 PUSH0 SWAP1 SSTORE POP PUSH1 0x1 ADD PUSH2 0x993 JUMP JUMPDEST POP SWAP1 JUMP JUMPDEST PUSH0 DUP2 SWAP1 POP SWAP2 SWAP1 POP JUMP JUMPDEST PUSH2 0x9BF DUP2 PUSH2 0x9AD JUMP JUMPDEST DUP3 MSTORE POP POP JUMP JUMPDEST PUSH0 PUSH1 0x20 DUP3 ADD SWAP1 POP PUSH2 0x9D8 PUSH0 DUP4 ADD DUP5 PUSH2 0x9B6 JUMP JUMPDEST SWAP3 SWAP2 POP POP JUMP JUMPDEST PUSH0 DUP1 REVERT JUMPDEST PUSH0 DUP1 REVERT JUMPDEST PUSH2 0x9EF DUP2 PUSH2 0x9AD JUMP JUMPDEST DUP2 EQ PUSH2 0x9F9 JUMPI PUSH0 DUP1 REVERT JUMPDEST POP JUMP JUMPDEST PUSH0 DUP2 CALLDATALOAD SWAP1 POP PUSH2 0xA0A DUP2 PUSH2 0x9E6 JUMP JUMPDEST SWAP3 SWAP2 POP POP JUMP JUMPDEST PUSH0 PUSH1 0x20 DUP3 DUP5 SUB SLT ISZERO PUSH2 0xA25 JUMPI PUSH2 0xA24 PUSH2 0x9DE JUMP JUMPDEST JUMPDEST PUSH0 PUSH2 0xA32 DUP5 DUP3 DUP6 ADD PUSH2 0x9FC JUMP JUMPDEST SWAP2 POP POP SWAP3 SWAP2 POP POP JUMP JUMPDEST PUSH0 PUSH20 0xFFFFFFFFFFFFFFFFFFFFFFFFFFFFFFFFFFFFFFFF DUP3 AND SWAP1 POP SWAP2 SWAP1 POP JUMP JUMPDEST PUSH0 PUSH2 0xA64 DUP3 PUSH2 0xA3B JUMP JUMPDEST SWAP1 POP SWAP2 SWAP1 POP JUMP JUMPDEST PUSH2 0xA74 DUP2 PUSH2 0xA5A JUMP JUMPDEST DUP3 MSTORE POP POP JUMP JUMPDEST PUSH0 PUSH1 0x20 DUP3 ADD SWAP1 POP PUSH2 0xA8D PUSH0 DUP4 ADD DUP5 PUSH2 0xA6B JUMP JUMPDEST SWAP3 SWAP2 POP POP JUMP JUMPDEST PUSH0 DUP2 MLOAD SWAP1 POP SWAP2 SWAP1 POP JUMP JUMPDEST PUSH0 DUP3 DUP3 MSTORE PUSH1 0x20 DUP3 ADD SWAP1 POP SWAP3 SWAP2 POP POP JUMP JUMPDEST DUP3 DUP2 DUP4 MCOPY PUSH0 DUP4 DUP4 ADD MSTORE POP POP POP JUMP JUMPDEST PUSH0 PUSH1 0x1F NOT PUSH1 0x1F DUP4 ADD AND SWAP1 POP SWAP2 SWAP1 POP JUMP JUMPDEST PUSH0 PUSH2 0xAD5 DUP3 PUSH2 0xA93 JUMP JUMPDEST PUSH2 0xADF DUP2 DUP6 PUSH2 0xA9D JUMP JUMPDEST SWAP4 POP PUSH2 0xAEF DUP2 DUP6 PUSH1 0x20 DUP7 ADD PUSH2 0xAAD JUMP JUMPDEST PUSH2 0xAF8 DUP2 PUSH2 0xABB JUMP JUMPDEST DUP5 ADD SWAP2 POP POP SWAP3 SWAP2 POP POP JUMP JUMPDEST PUSH0 DUP2 ISZERO ISZERO SWAP1 POP SWAP2 SWAP1 POP JUMP JUMPDEST PUSH2 0xB17 DUP2 PUSH2 0xB03 JUMP JUMPDEST DUP3 MSTORE POP POP JUMP JUMPDEST PUSH0 PUSH1 0x40 DUP3 ADD SWAP1 POP DUP2 DUP2 SUB PUSH0 DUP4 ADD MSTORE PUSH2 0xB35 DUP2 DUP6 PUSH2 0xACB JUMP JUMPDEST SWAP1 POP PUSH2 0xB44 PUSH1 0x20 DUP4 ADD DUP5 PUSH2 0xB0E JUMP JUMPDEST SWAP4 SWAP3 POP POP POP JUMP JUMPDEST PUSH0 DUP1 REVERT JUMPDEST PUSH0 DUP1 REVERT JUMPDEST PUSH0 DUP1 REVERT JUMPDEST PUSH0 DUP1 DUP4 PUSH1 0x1F DUP5 ADD SLT PUSH2 0xB6C JUMPI PUSH2 0xB6B PUSH2 0xB4B JUMP JUMPDEST JUMPDEST DUP3 CALLDATALOAD SWAP1 POP PUSH8 0xFFFFFFFFFFFFFFFF DUP2 GT ISZERO PUSH2 0xB89 JUMPI PUSH2 0xB88 PUSH2 0xB4F JUMP JUMPDEST JUMPDEST PUSH1 0x20 DUP4 ADD SWAP2 POP DUP4 PUSH1 0x1 DUP3 MUL DUP4 ADD GT ISZERO PUSH2 0xBA5 JUMPI PUSH2 0xBA4 PUSH2 0xB53 JUMP JUMPDEST JUMPDEST SWAP3 POP SWAP3 SWAP1 POP JUMP JUMPDEST PUSH0 DUP1 PUSH1 0x20 DUP4 DUP6 SUB SLT ISZERO PUSH2 0xBC2 JUMPI PUSH2 0xBC1 PUSH2 0x9DE JUMP JUMPDEST JUMPDEST PUSH0 DUP4 ADD CALLDATALOAD PUSH8 0xFFFFFFFFFFFFFFFF DUP2 GT ISZERO PUSH2 0xBDF JUMPI PUSH2 0xBDE PUSH2 0x9E2 JUMP JUMPDEST JUMPDEST PUSH2 0xBEB DUP6 DUP3 DUP7 ADD PUSH2 0xB57 JUMP JUMPDEST SWAP3 POP SWAP3 POP POP SWAP3 POP SWAP3 SWAP1 POP JUMP JUMPDEST PUSH0 DUP1 PUSH0 PUSH1 0x40 DUP5 DUP7 SUB SLT ISZERO PUSH2 0xC0E JUMPI PUSH2 0xC0D PUSH2 0x9DE JUMP JUMPDEST JUMPDEST PUSH0 PUSH2 0xC1B DUP7 DUP3 DUP8 ADD PUSH2 0x9FC JUMP JUMPDEST SWAP4 POP POP PUSH1 0x20 DUP5 ADD CALLDATALOAD PUSH8 0xFFFFFFFFFFFFFFFF DUP2 GT ISZERO PUSH2 0xC3C JUMPI PUSH2 0xC3B PUSH2 0x9E2 JUMP JUMPDEST JUMPDEST PUSH2 0xC48 DUP7 DUP3 DUP8 ADD PUSH2 0xB57 JUMP JUMPDEST SWAP3 POP SWAP3 POP POP SWAP3 POP SWAP3 POP SWAP3 JUMP JUMPDEST PUSH32 0x496E646578206F7574206F6620626F756E647300000000000000000000000000 PUSH0 DUP3 ADD MSTORE POP JUMP JUMPDEST PUSH0 PUSH2 0xC88 PUSH1 0x13 DUP4 PUSH2 0xA9D JUMP JUMPDEST SWAP2 POP PUSH2 0xC93 DUP3 PUSH2 0xC54 JUMP JUMPDEST PUSH1 0x20 DUP3 ADD SWAP1 POP SWAP2 SWAP1 POP JUMP JUMPDEST PUSH0 PUSH1 0x20 DUP3 ADD SWAP1 POP DUP2 DUP2 SUB PUSH0 DUP4 ADD MSTORE PUSH2 0xCB5 DUP2 PUSH2 0xC7C JUMP JUMPDEST SWAP1 POP SWAP2 SWAP1 POP JUMP JUMPDEST PUSH32 0x4E487B7100000000000000000000000000000000000000000000000000000000 PUSH0 MSTORE PUSH1 0x32 PUSH1 0x4 MSTORE PUSH1 0x24 PUSH0 REVERT JUMPDEST PUSH32 0x4E487B7100000000000000000000000000000000000000000000000000000000 PUSH0 MSTORE PUSH1 0x11 PUSH1 0x4 MSTORE PUSH1 0x24 PUSH0 REVERT JUMPDEST PUSH0 PUSH2 0xD20 DUP3 PUSH2 0x9AD JUMP JUMPDEST SWAP2 POP PUSH2 0xD2B DUP4 PUSH2 0x9AD JUMP JUMPDEST SWAP3 POP DUP3 DUP3 SUB SWAP1 POP DUP2 DUP2 GT ISZERO PUSH2 0xD43 JUMPI PUSH2 0xD42 PUSH2 0xCE9 JUMP JUMPDEST JUMPDEST SWAP3 SWAP2 POP POP JUMP JUMPDEST PUSH32 0x4E487B7100000000000000000000000000000000000000000000000000000000 PUSH0 MSTORE PUSH1 0x22 PUSH1 0x4 MSTORE PUSH1 0x24 PUSH0 REVERT JUMPDEST PUSH0 PUSH1 0x2 DUP3 DIV SWAP1 POP PUSH1 0x1 DUP3 AND DUP1 PUSH2 0xD8D JUMPI PUSH1 0x7F DUP3 AND SWAP2 POP JUMPDEST PUSH1 0x20 DUP3 LT DUP2 SUB PUSH2 0xDA0 JUMPI PUSH2 0xD9F PUSH2 0xD49 JUMP JUMPDEST JUMPDEST POP SWAP2 SWAP1 POP JUMP JUMPDEST PUSH0 DUP2 SLOAD SWAP1 POP PUSH2 0xDB4 DUP2 PUSH2 0xD76 JUMP JUMPDEST SWAP1 POP SWAP2 SWAP1 POP JUMP JUMPDEST PUSH32 0x4E487B7100000000000000000000000000000000000000000000000000000000 PUSH0 MSTORE PUSH1 0x41 PUSH1 0x4 MSTORE PUSH1 0x24 PUSH0 REVERT JUMPDEST PUSH0 DUP2 SWAP1 POP DUP2 PUSH0 MSTORE PUSH1 0x20 PUSH0 KECCAK256 SWAP1 POP SWAP2 SWAP1 POP JUMP JUMPDEST PUSH0 PUSH1 0x20 PUSH1 0x1F DUP4 ADD DIV SWAP1 POP SWAP2 SWAP1 POP JUMP JUMPDEST PUSH0 DUP3 DUP3 SHL SWAP1 POP SWAP3 SWAP2 POP POP JUMP JUMPDEST PUSH0 PUSH1 0x8 DUP4 MUL PUSH2 0xE44 PUSH32 0xFFFFFFFFFFFFFFFFFFFFFFFFFFFFFFFFFFFFFFFFFFFFFFFFFFFFFFFFFFFFFFFF DUP3 PUSH2 0xE09 JUMP JUMPDEST PUSH2 0xE4E DUP7 DUP4 PUSH2 0xE09 JUMP JUMPDEST SWAP6 POP DUP1 NOT DUP5 AND SWAP4 POP DUP1 DUP7 AND DUP5 OR SWAP3 POP POP POP SWAP4 SWAP3 POP POP POP JUMP JUMPDEST PUSH0 DUP2 SWAP1 POP SWAP2 SWAP1 POP JUMP JUMPDEST PUSH0 PUSH2 0xE89 PUSH2 0xE84 PUSH2 0xE7F DUP5 PUSH2 0x9AD JUMP JUMPDEST PUSH2 0xE66 JUMP JUMPDEST PUSH2 0x9AD JUMP JUMPDEST SWAP1 POP SWAP2 SWAP1 POP JUMP JUMPDEST PUSH0 DUP2 SWAP1 POP SWAP2 SWAP1 POP JUMP JUMPDEST PUSH2 0xEA2 DUP4 PUSH2 0xE6F JUMP JUMPDEST PUSH2 0xEB6 PUSH2 0xEAE DUP3 PUSH2 0xE90 JUMP JUMPDEST DUP5 DUP5 SLOAD PUSH2 0xE15 JUMP JUMPDEST DUP3 SSTORE POP POP POP POP JUMP JUMPDEST PUSH0 SWAP1 JUMP JUMPDEST PUSH2 0xECA PUSH2 0xEBE JUMP JUMPDEST PUSH2 0xED5 DUP2 DUP5 DUP5 PUSH2 0xE99 JUMP JUMPDEST POP POP POP JUMP JUMPDEST JUMPDEST DUP2 DUP2 LT ISZERO PUSH2 0xEF8 JUMPI PUSH2 0xEED PUSH0 DUP3 PUSH2 0xEC2 JUMP JUMPDEST PUSH1 0x1 DUP2 ADD SWAP1 POP PUSH2 0xEDB JUMP JUMPDEST POP POP JUMP JUMPDEST PUSH1 0x1F DUP3 GT ISZERO PUSH2 0xF3D JUMPI PUSH2 0xF0E DUP2 PUSH2 0xDE8 JUMP JUMPDEST PUSH2 0xF17 DUP5 PUSH2 0xDFA JUMP JUMPDEST DUP2 ADD PUSH1 0x20 DUP6 LT ISZERO PUSH2 0xF26 JUMPI DUP2 SWAP1 POP JUMPDEST PUSH2 0xF3A PUSH2 0xF32 DUP6 PUSH2 0xDFA JUMP JUMPDEST DUP4 ADD DUP3 PUSH2 0xEDA JUMP JUMPDEST POP POP JUMPDEST POP POP POP JUMP JUMPDEST PUSH0 DUP3 DUP3 SHR SWAP1 POP SWAP3 SWAP2 POP POP JUMP JUMPDEST PUSH0 PUSH2 0xF5D PUSH0 NOT DUP5 PUSH1 0x8 MUL PUSH2 0xF42 JUMP JUMPDEST NOT DUP1 DUP4 AND SWAP2 POP POP SWAP3 SWAP2 POP POP JUMP JUMPDEST PUSH0 PUSH2 0xF75 DUP4 DUP4 PUSH2 0xF4E JUMP JUMPDEST SWAP2 POP DUP3 PUSH1 0x2 MUL DUP3 OR SWAP1 POP SWAP3 SWAP2 POP POP JUMP JUMPDEST DUP2 DUP2 SUB PUSH2 0xF93 JUMPI POP POP PUSH2 0x1068 JUMP JUMPDEST PUSH2 0xF9C DUP3 PUSH2 0xDA6 JUMP JUMPDEST PUSH8 0xFFFFFFFFFFFFFFFF DUP2 GT ISZERO PUSH2 0xFB5 JUMPI PUSH2 0xFB4 PUSH2 0xDBB JUMP JUMPDEST JUMPDEST PUSH2 0xFBF DUP3 SLOAD PUSH2 0xD76 JUMP JUMPDEST PUSH2 0xFCA DUP3 DUP3 DUP6 PUSH2 0xEFC JUMP JUMPDEST PUSH0 PUSH1 0x1F DUP4 GT PUSH1 0x1 DUP2 EQ PUSH2 0xFF7 JUMPI PUSH0 DUP5 ISZERO PUSH2 0xFE5 JUMPI DUP3 DUP8 ADD SLOAD SWAP1 POP JUMPDEST PUSH2 0xFEF DUP6 DUP3 PUSH2 0xF6A JUMP JUMPDEST DUP7 SSTORE POP PUSH2 0x1061 JUMP JUMPDEST PUSH1 0x1F NOT DUP5 AND PUSH2 0x1005 DUP8 PUSH2 0xDE8 JUMP JUMPDEST SWAP7 POP PUSH2 0x1010 DUP7 PUSH2 0xDE8 JUMP JUMPDEST PUSH0 JUMPDEST DUP3 DUP2 LT ISZERO PUSH2 0x1037 JUMPI DUP5 DUP10 ADD SLOAD DUP3 SSTORE PUSH1 0x1 DUP3 ADD SWAP2 POP PUSH1 0x1 DUP6 ADD SWAP5 POP PUSH1 0x20 DUP2 ADD SWAP1 POP PUSH2 0x1012 JUMP JUMPDEST DUP7 DUP4 LT ISZERO PUSH2 0x1054 JUMPI DUP5 DUP10 ADD SLOAD PUSH2 0x1050 PUSH1 0x1F DUP10 AND DUP3 PUSH2 0xF4E JUMP JUMPDEST DUP4 SSTORE POP JUMPDEST PUSH1 0x1 PUSH1 0x2 DUP9 MUL ADD DUP9 SSTORE POP POP POP JUMPDEST POP POP POP POP POP POP JUMPDEST JUMP JUMPDEST PUSH32 0x4E487B7100000000000000000000000000000000000000000000000000000000 PUSH0 MSTORE PUSH1 0x31 PUSH1 0x4 MSTORE PUSH1 0x24 PUSH0 REVERT JUMPDEST PUSH2 0x10A0 DUP3 PUSH2 0xA93 JUMP JUMPDEST PUSH8 0xFFFFFFFFFFFFFFFF DUP2 GT ISZERO PUSH2 0x10B9 JUMPI PUSH2 0x10B8 PUSH2 0xDBB JUMP JUMPDEST JUMPDEST PUSH2 0x10C3 DUP3 SLOAD PUSH2 0xD76 JUMP JUMPDEST PUSH2 0x10CE DUP3 DUP3 DUP6 PUSH2 0xEFC JUMP JUMPDEST PUSH0 PUSH1 0x20 SWAP1 POP PUSH1 0x1F DUP4 GT PUSH1 0x1 DUP2 EQ PUSH2 0x10FF JUMPI PUSH0 DUP5 ISZERO PUSH2 0x10ED JUMPI DUP3 DUP8 ADD MLOAD SWAP1 POP JUMPDEST PUSH2 0x10F7 DUP6 DUP3 PUSH2 0xF6A JUMP JUMPDEST DUP7 SSTORE POP PUSH2 0x115E JUMP JUMPDEST PUSH1 0x1F NOT DUP5 AND PUSH2 0x110D DUP7 PUSH2 0xDE8 JUMP JUMPDEST PUSH0 JUMPDEST DUP3 DUP2 LT ISZERO PUSH2 0x1134 JUMPI DUP5 DUP10 ADD MLOAD DUP3 SSTORE PUSH1 0x1 DUP3 ADD SWAP2 POP PUSH1 0x20 DUP6 ADD SWAP5 POP PUSH1 0x20 DUP2 ADD SWAP1 POP PUSH2 0x110F JUMP JUMPDEST DUP7 DUP4 LT ISZERO PUSH2 0x1151 JUMPI DUP5 DUP10 ADD MLOAD PUSH2 0x114D PUSH1 0x1F DUP10 AND DUP3 PUSH2 0xF4E JUMP JUMPDEST DUP4 SSTORE POP JUMPDEST PUSH1 0x1 PUSH1 0x2 DUP9 MUL ADD DUP9 SSTORE POP POP POP JUMPDEST POP POP POP POP POP POP JUMP JUMPDEST DUP3 DUP2 DUP4 CALLDATACOPY PUSH0 DUP4 DUP4 ADD MSTORE POP POP POP JUMP JUMPDEST PUSH0 PUSH2 0x117F DUP4 DUP6 PUSH2 0xA9D JUMP JUMPDEST SWAP4 POP PUSH2 0x118C DUP4 DUP6 DUP5 PUSH2 0x1166 JUMP JUMPDEST PUSH2 0x1195 DUP4 PUSH2 0xABB JUMP JUMPDEST DUP5 ADD SWAP1 POP SWAP4 SWAP3 POP POP POP JUMP JUMPDEST PUSH0 PUSH1 0x20 DUP3 ADD SWAP1 POP DUP2 DUP2 SUB PUSH0 DUP4 ADD MSTORE PUSH2 0x11B9 DUP2 DUP5 DUP7 PUSH2 0x1174 JUMP JUMPDEST SWAP1 POP SWAP4 SWAP3 POP POP POP JUMP JUMPDEST PUSH0 DUP3 SWAP1 POP SWAP3 SWAP2 POP POP JUMP JUMPDEST PUSH2 0x11D6 DUP4 DUP4 PUSH2 0x11C2 JUMP JUMPDEST PUSH8 0xFFFFFFFFFFFFFFFF DUP2 GT ISZERO PUSH2 0x11EF JUMPI PUSH2 0x11EE PUSH2 0xDBB JUMP JUMPDEST JUMPDEST PUSH2 0x11F9 DUP3 SLOAD PUSH2 0xD76 JUMP JUMPDEST PUSH2 0x1204 DUP3 DUP3 DUP6 PUSH2 0xEFC JUMP JUMPDEST PUSH0 PUSH1 0x1F DUP4 GT PUSH1 0x1 DUP2 EQ PUSH2 0x1231 JUMPI PUSH0 DUP5 ISZERO PUSH2 0x121F JUMPI DUP3 DUP8 ADD CALLDATALOAD SWAP1 POP JUMPDEST PUSH2 0x1229 DUP6 DUP3 PUSH2 0xF6A JUMP JUMPDEST DUP7 SSTORE POP PUSH2 0x1290 JUMP JUMPDEST PUSH1 0x1F NOT DUP5 AND PUSH2 0x123F DUP7 PUSH2 0xDE8 JUMP JUMPDEST PUSH0 JUMPDEST DUP3 DUP2 LT ISZERO PUSH2 0x1266 JUMPI DUP5 DUP10 ADD CALLDATALOAD DUP3 SSTORE PUSH1 0x1 DUP3 ADD SWAP2 POP PUSH1 0x20 DUP6 ADD SWAP5 POP PUSH1 0x20 DUP2 ADD SWAP1 POP PUSH2 0x1241 JUMP JUMPDEST DUP7 DUP4 LT ISZERO PUSH2 0x1283 JUMPI DUP5 DUP10 ADD CALLDATALOAD PUSH2 0x127F PUSH1 0x1F DUP10 AND DUP3 PUSH2 0xF4E JUMP JUMPDEST DUP4 SSTORE POP JUMPDEST PUSH1 0x1 PUSH1 0x2 DUP9 MUL ADD DUP9 SSTORE POP POP POP JUMPDEST POP POP POP POP POP POP POP JUMP INVALID LOG2 PUSH5 0x6970667358 0x22 SLT KECCAK256 DUP1 0xCE 0xBE 0x24 SELFDESTRUCT RETURNDATASIZE LOG2 0xB8 0xA6 0xAF CHAINID 0xC9 PUSH5 0x4C4193D7F0 0xE0 SWAP1 PUSH23 0x885ABB480EC6D7FAB0690A64736F6C634300081A003300 "
				},
				"gasEstimates": {
					"creation": {
						"codeDepositCost": "963000",
						"executionCost": "25264",
						"totalCost": "988264"
					},
					"external": {
						"create(string)": "infinite",
						"deleteToDo(uint256)": "infinite",
						"get(uint256)": "infinite",
						"lengthOfToDo()": "2441",
						"todos(uint256)": "infinite",
						"toggleCompleted(uint256)": "35520",
						"updateText(uint256,string)": "infinite",
						"user()": "2550"
					}
				},
				"methodIdentifiers": {
					"create(string)": "b6a46b3b",
					"deleteToDo(uint256)": "549fd151",
					"get(uint256)": "9507d39a",
					"lengthOfToDo()": "23eaeadd",
					"todos(uint256)": "bc8bc2b4",
					"toggleCompleted(uint256)": "455f5024",
					"updateText(uint256,string)": "cd111614",
					"user()": "4f8632ba"
				}
			},
			"storageLayout": {
				"storage": [
					{
						"astId": 3,
						"contract": "lecture contracts/SimpleToDo.sol:SimpleToDo",
						"label": "user",
						"offset": 0,
						"slot": "0",
						"type": "t_address"
					},
					{
						"astId": 66,
						"contract": "lecture contracts/SimpleToDo.sol:SimpleToDo",
						"label": "todos",
						"offset": 0,
						"slot": "1",
						"type": "t_array(t_struct(ToDo)62_storage)dyn_storage"
					}
				],
				"types": {
					"t_address": {
						"encoding": "inplace",
						"label": "address",
						"numberOfBytes": "20"
					},
					"t_array(t_struct(ToDo)62_storage)dyn_storage": {
						"base": "t_struct(ToDo)62_storage",
						"encoding": "dynamic_array",
						"label": "struct SimpleToDo.ToDo[]",
						"numberOfBytes": "32"
					},
					"t_bool": {
						"encoding": "inplace",
						"label": "bool",
						"numberOfBytes": "1"
					},
					"t_string_storage": {
						"encoding": "bytes",
						"label": "string",
						"numberOfBytes": "32"
					},
					"t_struct(ToDo)62_storage": {
						"encoding": "inplace",
						"label": "struct SimpleToDo.ToDo",
						"members": [
							{
								"astId": 59,
								"contract": "lecture contracts/SimpleToDo.sol:SimpleToDo",
								"label": "text",
								"offset": 0,
								"slot": "0",
								"type": "t_string_storage"
							},
							{
								"astId": 61,
								"contract": "lecture contracts/SimpleToDo.sol:SimpleToDo",
								"label": "completed",
								"offset": 0,
								"slot": "1",
								"type": "t_bool"
							}
						],
						"numberOfBytes": "64"
					}
				}
			},
			"userdoc": {
				"kind": "user",
				"methods": {},
				"version": 1
			}
		}
	}
}