{
	"data": {
		"bytecode": {
			"linkReferences": {},
			"object": "608060405234801561000f575f80fd5b50604051611288380380611288833981810160405281019061003191906101e5565b5f73ffffffffffffffffffffffffffffffffffffffff168273ffffffffffffffffffffffffffffffffffffffff160361009f576040517f08c379a00000000000000000000000000000000000000000000000000000000081526004016100969061027d565b60405180910390fd5b5f81116100e1576040517f08c379a00000000000000000000000000000000000000000000000000000000081526004016100d89061030b565b60405180910390fd5b815f806101000a81548173ffffffffffffffffffffffffffffffffffffffff021916908373ffffffffffffffffffffffffffffffffffffffff1602179055508060038190555062015180426101369190610356565b6004819055505050610389565b5f80fd5b5f73ffffffffffffffffffffffffffffffffffffffff82169050919050565b5f61017082610147565b9050919050565b5f61018182610166565b9050919050565b61019181610177565b811461019b575f80fd5b50565b5f815190506101ac81610188565b92915050565b5f819050919050565b6101c4816101b2565b81146101ce575f80fd5b50565b5f815190506101df816101bb565b92915050565b5f80604083850312156101fb576101fa610143565b5b5f6102088582860161019e565b9250506020610219858286016101d1565b9150509250929050565b5f82825260208201905092915050565b7f546f6b656e20616464726573732063616e6e6f74206265207a65726f000000005f82015250565b5f610267601c83610223565b915061027282610233565b602082019050919050565b5f6020820190508181035f8301526102948161025b565b9050919050565b7f5469636b6574207072696365206d7573742062652067726561746572207468615f8201527f6e207a65726f0000000000000000000000000000000000000000000000000000602082015250565b5f6102f5602683610223565b91506103008261029b565b604082019050919050565b5f6020820190508181035f830152610322816102e9565b9050919050565b7f4e487b71000000000000000000000000000000000000000000000000000000005f52601160045260245ffd5b5f610360826101b2565b915061036b836101b2565b925082820190508082111561038357610382610329565b5b92915050565b610ef2806103965f395ff3fe60806040526004361061006f575f3560e01c806370e36d461161004d57806370e36d46146100dd578063773a115414610107578063edca914c14610131578063fc0c546a1461013b5761006f565b80631209b1f61461007357806333a99e041461009d5780635aa68ac0146100b3575b5f80fd5b34801561007e575f80fd5b50610087610165565b6040516100949190610810565b60405180910390f35b3480156100a8575f80fd5b506100b161016b565b005b3480156100be575f80fd5b506100c761054e565b6040516100d49190610910565b60405180910390f35b3480156100e8575f80fd5b506100f16105d9565b6040516100fe9190610810565b60405180910390f35b348015610112575f80fd5b5061011b6105df565b6040516101289190610810565b60405180910390f35b610139610612565b005b348015610146575f80fd5b5061014f6107d5565b60405161015c919061098b565b60405180910390f35b60035481565b60045442116101af576040517f08c379a00000000000000000000000000000000000000000000000000000000081526004016101a690610a24565b60405180910390fd5b5f600180549050116101f6576040517f08c379a00000000000000000000000000000000000000000000000000000000081526004016101ed90610a8c565b60405180910390fd5b5f73ffffffffffffffffffffffffffffffffffffffff1660025f9054906101000a900473ffffffffffffffffffffffffffffffffffffffff1673ffffffffffffffffffffffffffffffffffffffff1614610285576040517f08c379a000000000000000000000000000000000000000000000000000000000815260040161027c90610af4565b60405180910390fd5b5f6001805490506102946105df565b61029e9190610b3f565b9050600181815481106102b4576102b3610b6f565b5b905f5260205f20015f9054906101000a900473ffffffffffffffffffffffffffffffffffffffff1660025f6101000a81548173ffffffffffffffffffffffffffffffffffffffff021916908373ffffffffffffffffffffffffffffffffffffffff16021790555060025f9054906101000a900473ffffffffffffffffffffffffffffffffffffffff1673ffffffffffffffffffffffffffffffffffffffff167f1d4c260f1824cd028e6c9e6e31c3a0b94f2513e7a641113ec759d382f9bdd5a160405160405180910390a25f805f9054906101000a900473ffffffffffffffffffffffffffffffffffffffff1673ffffffffffffffffffffffffffffffffffffffff166370a08231306040518263ffffffff1660e01b81526004016103d99190610bab565b602060405180830381865afa1580156103f4573d5f803e3d5ffd5b505050506040513d601f19601f820116820180604052508101906104189190610bf2565b90505f8054906101000a900473ffffffffffffffffffffffffffffffffffffffff1673ffffffffffffffffffffffffffffffffffffffff1663a9059cbb60025f9054906101000a900473ffffffffffffffffffffffffffffffffffffffff16836040518363ffffffff1660e01b8152600401610495929190610c1d565b6020604051808303815f875af19250505080156104d057506040513d601f19601f820116820180604052508101906104cd9190610c79565b60015b6105485760025f9054906101000a900473ffffffffffffffffffffffffffffffffffffffff1673ffffffffffffffffffffffffffffffffffffffff167fe3e92735f0a5e1ddad0b68fe8526d646a42b4833010773101b7a3aa7e5ec62f08260405161053b9190610810565b60405180910390a261054a565b505b5050565b606060018054806020026020016040519081016040528092919081815260200182805480156105cf57602002820191905f5260205f20905b815f9054906101000a900473ffffffffffffffffffffffffffffffffffffffff1673ffffffffffffffffffffffffffffffffffffffff1681526020019060010190808311610586575b5050505050905090565b60045481565b5f4243306040516020016105f593929190610d09565b604051602081830303815290604052805190602001205f1c905090565b600454421115610657576040517f08c379a000000000000000000000000000000000000000000000000000000000815260040161064e90610db5565b60405180910390fd5b5f8054906101000a900473ffffffffffffffffffffffffffffffffffffffff1673ffffffffffffffffffffffffffffffffffffffff166323b872dd33306003546040518463ffffffff1660e01b81526004016106b593929190610dd3565b6020604051808303815f875af19250505080156106f057506040513d601f19601f820116820180604052508101906106ed9190610c79565b60015b61072f576040517f08c379a000000000000000000000000000000000000000000000000000000000815260040161072690610e9e565b60405180910390fd5b50600133908060018154018082558091505060019003905f5260205f20015f9091909190916101000a81548173ffffffffffffffffffffffffffffffffffffffff021916908373ffffffffffffffffffffffffffffffffffffffff1602179055503373ffffffffffffffffffffffffffffffffffffffff167f23443ac3afaec974c2d4368824912f61a50fee541bcc94ec52414ba6a9b14aab60405160405180910390a2565b5f8054906101000a900473ffffffffffffffffffffffffffffffffffffffff1681565b5f819050919050565b61080a816107f8565b82525050565b5f6020820190506108235f830184610801565b92915050565b5f81519050919050565b5f82825260208201905092915050565b5f819050602082019050919050565b5f73ffffffffffffffffffffffffffffffffffffffff82169050919050565b5f61087b82610852565b9050919050565b61088b81610871565b82525050565b5f61089c8383610882565b60208301905092915050565b5f602082019050919050565b5f6108be82610829565b6108c88185610833565b93506108d383610843565b805f5b838110156109035781516108ea8882610891565b97506108f5836108a8565b9250506001810190506108d6565b5085935050505092915050565b5f6020820190508181035f83015261092881846108b4565b905092915050565b5f819050919050565b5f61095361094e61094984610852565b610930565b610852565b9050919050565b5f61096482610939565b9050919050565b5f6109758261095a565b9050919050565b6109858161096b565b82525050565b5f60208201905061099e5f83018461097c565b92915050565b5f82825260208201905092915050565b7f43616e6e6f742073656c65637420612077696e6e6572206265666f72652074685f8201527f6520646561646c696e6500000000000000000000000000000000000000000000602082015250565b5f610a0e602a836109a4565b9150610a19826109b4565b604082019050919050565b5f6020820190508181035f830152610a3b81610a02565b9050919050565b7f4e6f207061727469636970616e747320696e20746865206c6f747465727900005f82015250565b5f610a76601e836109a4565b9150610a8182610a42565b602082019050919050565b5f6020820190508181035f830152610aa381610a6a565b9050919050565b7f57696e6e65722068617320616c7265616479206265656e2073656c65637465645f82015250565b5f610ade6020836109a4565b9150610ae982610aaa565b602082019050919050565b5f6020820190508181035f830152610b0b81610ad2565b9050919050565b7f4e487b71000000000000000000000000000000000000000000000000000000005f52601260045260245ffd5b5f610b49826107f8565b9150610b54836107f8565b925082610b6457610b63610b12565b5b828206905092915050565b7f4e487b71000000000000000000000000000000000000000000000000000000005f52603260045260245ffd5b610ba581610871565b82525050565b5f602082019050610bbe5f830184610b9c565b92915050565b5f80fd5b610bd1816107f8565b8114610bdb575f80fd5b50565b5f81519050610bec81610bc8565b92915050565b5f60208284031215610c0757610c06610bc4565b5b5f610c1484828501610bde565b91505092915050565b5f604082019050610c305f830185610b9c565b610c3d6020830184610801565b9392505050565b5f8115159050919050565b610c5881610c44565b8114610c62575f80fd5b50565b5f81519050610c7381610c4f565b92915050565b5f60208284031215610c8e57610c8d610bc4565b5b5f610c9b84828501610c65565b91505092915050565b5f819050919050565b610cbe610cb9826107f8565b610ca4565b82525050565b5f8160601b9050919050565b5f610cda82610cc4565b9050919050565b5f610ceb82610cd0565b9050919050565b610d03610cfe82610871565b610ce1565b82525050565b5f610d148286610cad565b602082019150610d248285610cad565b602082019150610d348284610cf2565b601482019150819050949350505050565b7f5469636b657420707572636861736520646561646c696e6520686173207061735f8201527f7365640000000000000000000000000000000000000000000000000000000000602082015250565b5f610d9f6023836109a4565b9150610daa82610d45565b604082019050919050565b5f6020820190508181035f830152610dcc81610d93565b9050919050565b5f606082019050610de65f830186610b9c565b610df36020830185610b9c565b610e006040830184610801565b949350505050565b7f546f6b656e207472616e73666572206661696c65642e20456e7375726520796f5f8201527f7520617070726f7665642074686520636f6e747261637420746f207370656e6460208201527f20746f6b656e732e000000000000000000000000000000000000000000000000604082015250565b5f610e886048836109a4565b9150610e9382610e08565b606082019050919050565b5f6020820190508181035f830152610eb581610e7c565b905091905056fea2646970667358221220919ec5ea2b233fccad2beb1447016720aea85b1972a512263c59e2b9e02b1a5764736f6c634300081a0033",
			"opcodes": "PUSH1 0x80 PUSH1 0x40 MSTORE CALLVALUE DUP1 ISZERO PUSH2 0xF JUMPI PUSH0 DUP1 REVERT JUMPDEST POP PUSH1 0x40 MLOAD PUSH2 0x1288 CODESIZE SUB DUP1 PUSH2 0x1288 DUP4 CODECOPY DUP2 DUP2 ADD PUSH1 0x40 MSTORE DUP2 ADD SWAP1 PUSH2 0x31 SWAP2 SWAP1 PUSH2 0x1E5 JUMP JUMPDEST PUSH0 PUSH20 0xFFFFFFFFFFFFFFFFFFFFFFFFFFFFFFFFFFFFFFFF AND DUP3 PUSH20 0xFFFFFFFFFFFFFFFFFFFFFFFFFFFFFFFFFFFFFFFF AND SUB PUSH2 0x9F JUMPI PUSH1 0x40 MLOAD PUSH32 0x8C379A000000000000000000000000000000000000000000000000000000000 DUP2 MSTORE PUSH1 0x4 ADD PUSH2 0x96 SWAP1 PUSH2 0x27D JUMP JUMPDEST PUSH1 0x40 MLOAD DUP1 SWAP2 SUB SWAP1 REVERT JUMPDEST PUSH0 DUP2 GT PUSH2 0xE1 JUMPI PUSH1 0x40 MLOAD PUSH32 0x8C379A000000000000000000000000000000000000000000000000000000000 DUP2 MSTORE PUSH1 0x4 ADD PUSH2 0xD8 SWAP1 PUSH2 0x30B JUMP JUMPDEST PUSH1 0x40 MLOAD DUP1 SWAP2 SUB SWAP1 REVERT JUMPDEST DUP2 PUSH0 DUP1 PUSH2 0x100 EXP DUP2 SLOAD DUP2 PUSH20 0xFFFFFFFFFFFFFFFFFFFFFFFFFFFFFFFFFFFFFFFF MUL NOT AND SWAP1 DUP4 PUSH20 0xFFFFFFFFFFFFFFFFFFFFFFFFFFFFFFFFFFFFFFFF AND MUL OR SWAP1 SSTORE POP DUP1 PUSH1 0x3 DUP2 SWAP1 SSTORE POP PUSH3 0x15180 TIMESTAMP PUSH2 0x136 SWAP2 SWAP1 PUSH2 0x356 JUMP JUMPDEST PUSH1 0x4 DUP2 SWAP1 SSTORE POP POP POP PUSH2 0x389 JUMP JUMPDEST PUSH0 DUP1 REVERT JUMPDEST PUSH0 PUSH20 0xFFFFFFFFFFFFFFFFFFFFFFFFFFFFFFFFFFFFFFFF DUP3 AND SWAP1 POP SWAP2 SWAP1 POP JUMP JUMPDEST PUSH0 PUSH2 0x170 DUP3 PUSH2 0x147 JUMP JUMPDEST SWAP1 POP SWAP2 SWAP1 POP JUMP JUMPDEST PUSH0 PUSH2 0x181 DUP3 PUSH2 0x166 JUMP JUMPDEST SWAP1 POP SWAP2 SWAP1 POP JUMP JUMPDEST PUSH2 0x191 DUP2 PUSH2 0x177 JUMP JUMPDEST DUP2 EQ PUSH2 0x19B JUMPI PUSH0 DUP1 REVERT JUMPDEST POP JUMP JUMPDEST PUSH0 DUP2 MLOAD SWAP1 POP PUSH2 0x1AC DUP2 PUSH2 0x188 JUMP JUMPDEST SWAP3 SWAP2 POP POP JUMP JUMPDEST PUSH0 DUP2 SWAP1 POP SWAP2 SWAP1 POP JUMP JUMPDEST PUSH2 0x1C4 DUP2 PUSH2 0x1B2 JUMP JUMPDEST DUP2 EQ PUSH2 0x1CE JUMPI PUSH0 DUP1 REVERT JUMPDEST POP JUMP JUMPDEST PUSH0 DUP2 MLOAD SWAP1 POP PUSH2 0x1DF DUP2 PUSH2 0x1BB JUMP JUMPDEST SWAP3 SWAP2 POP POP JUMP JUMPDEST PUSH0 DUP1 PUSH1 0x40 DUP4 DUP6 SUB SLT ISZERO PUSH2 0x1FB JUMPI PUSH2 0x1FA PUSH2 0x143 JUMP JUMPDEST JUMPDEST PUSH0 PUSH2 0x208 DUP6 DUP3 DUP7 ADD PUSH2 0x19E JUMP JUMPDEST SWAP3 POP POP PUSH1 0x20 PUSH2 0x219 DUP6 DUP3 DUP7 ADD PUSH2 0x1D1 JUMP JUMPDEST SWAP2 POP POP SWAP3 POP SWAP3 SWAP1 POP JUMP JUMPDEST PUSH0 DUP3 DUP3 MSTORE PUSH1 0x20 DUP3 ADD SWAP1 POP SWAP3 SWAP2 POP POP JUMP JUMPDEST PUSH32 0x546F6B656E20616464726573732063616E6E6F74206265207A65726F00000000 PUSH0 DUP3 ADD MSTORE POP JUMP JUMPDEST PUSH0 PUSH2 0x267 PUSH1 0x1C DUP4 PUSH2 0x223 JUMP JUMPDEST SWAP2 POP PUSH2 0x272 DUP3 PUSH2 0x233 JUMP JUMPDEST PUSH1 0x20 DUP3 ADD SWAP1 POP SWAP2 SWAP1 POP JUMP JUMPDEST PUSH0 PUSH1 0x20 DUP3 ADD SWAP1 POP DUP2 DUP2 SUB PUSH0 DUP4 ADD MSTORE PUSH2 0x294 DUP2 PUSH2 0x25B JUMP JUMPDEST SWAP1 POP SWAP2 SWAP1 POP JUMP JUMPDEST PUSH32 0x5469636B6574207072696365206D757374206265206772656174657220746861 PUSH0 DUP3 ADD MSTORE PUSH32 0x6E207A65726F0000000000000000000000000000000000000000000000000000 PUSH1 0x20 DUP3 ADD MSTORE POP JUMP JUMPDEST PUSH0 PUSH2 0x2F5 PUSH1 0x26 DUP4 PUSH2 0x223 JUMP JUMPDEST SWAP2 POP PUSH2 0x300 DUP3 PUSH2 0x29B JUMP JUMPDEST PUSH1 0x40 DUP3 ADD SWAP1 POP SWAP2 SWAP1 POP JUMP JUMPDEST PUSH0 PUSH1 0x20 DUP3 ADD SWAP1 POP DUP2 DUP2 SUB PUSH0 DUP4 ADD MSTORE PUSH2 0x322 DUP2 PUSH2 0x2E9 JUMP JUMPDEST SWAP1 POP SWAP2 SWAP1 POP JUMP JUMPDEST PUSH32 0x4E487B7100000000000000000000000000000000000000000000000000000000 PUSH0 MSTORE PUSH1 0x11 PUSH1 0x4 MSTORE PUSH1 0x24 PUSH0 REVERT JUMPDEST PUSH0 PUSH2 0x360 DUP3 PUSH2 0x1B2 JUMP JUMPDEST SWAP2 POP PUSH2 0x36B DUP4 PUSH2 0x1B2 JUMP JUMPDEST SWAP3 POP DUP3 DUP3 ADD SWAP1 POP DUP1 DUP3 GT ISZERO PUSH2 0x383 JUMPI PUSH2 0x382 PUSH2 0x329 JUMP JUMPDEST JUMPDEST SWAP3 SWAP2 POP POP JUMP JUMPDEST PUSH2 0xEF2 DUP1 PUSH2 0x396 PUSH0 CODECOPY PUSH0 RETURN INVALID PUSH1 0x80 PUSH1 0x40 MSTORE PUSH1 0x4 CALLDATASIZE LT PUSH2 0x6F JUMPI PUSH0 CALLDATALOAD PUSH1 0xE0 SHR DUP1 PUSH4 0x70E36D46 GT PUSH2 0x4D JUMPI DUP1 PUSH4 0x70E36D46 EQ PUSH2 0xDD JUMPI DUP1 PUSH4 0x773A1154 EQ PUSH2 0x107 JUMPI DUP1 PUSH4 0xEDCA914C EQ PUSH2 0x131 JUMPI DUP1 PUSH4 0xFC0C546A EQ PUSH2 0x13B JUMPI PUSH2 0x6F JUMP JUMPDEST DUP1 PUSH4 0x1209B1F6 EQ PUSH2 0x73 JUMPI DUP1 PUSH4 0x33A99E04 EQ PUSH2 0x9D JUMPI DUP1 PUSH4 0x5AA68AC0 EQ PUSH2 0xB3 JUMPI JUMPDEST PUSH0 DUP1 REVERT JUMPDEST CALLVALUE DUP1 ISZERO PUSH2 0x7E JUMPI PUSH0 DUP1 REVERT JUMPDEST POP PUSH2 0x87 PUSH2 0x165 JUMP JUMPDEST PUSH1 0x40 MLOAD PUSH2 0x94 SWAP2 SWAP1 PUSH2 0x810 JUMP JUMPDEST PUSH1 0x40 MLOAD DUP1 SWAP2 SUB SWAP1 RETURN JUMPDEST CALLVALUE DUP1 ISZERO PUSH2 0xA8 JUMPI PUSH0 DUP1 REVERT JUMPDEST POP PUSH2 0xB1 PUSH2 0x16B JUMP JUMPDEST STOP JUMPDEST CALLVALUE DUP1 ISZERO PUSH2 0xBE JUMPI PUSH0 DUP1 REVERT JUMPDEST POP PUSH2 0xC7 PUSH2 0x54E JUMP JUMPDEST PUSH1 0x40 MLOAD PUSH2 0xD4 SWAP2 SWAP1 PUSH2 0x910 JUMP JUMPDEST PUSH1 0x40 MLOAD DUP1 SWAP2 SUB SWAP1 RETURN JUMPDEST CALLVALUE DUP1 ISZERO PUSH2 0xE8 JUMPI PUSH0 DUP1 REVERT JUMPDEST POP PUSH2 0xF1 PUSH2 0x5D9 JUMP JUMPDEST PUSH1 0x40 MLOAD PUSH2 0xFE SWAP2 SWAP1 PUSH2 0x810 JUMP JUMPDEST PUSH1 0x40 MLOAD DUP1 SWAP2 SUB SWAP1 RETURN JUMPDEST CALLVALUE DUP1 ISZERO PUSH2 0x112 JUMPI PUSH0 DUP1 REVERT JUMPDEST POP PUSH2 0x11B PUSH2 0x5DF JUMP JUMPDEST PUSH1 0x40 MLOAD PUSH2 0x128 SWAP2 SWAP1 PUSH2 0x810 JUMP JUMPDEST PUSH1 0x40 MLOAD DUP1 SWAP2 SUB SWAP1 RETURN JUMPDEST PUSH2 0x139 PUSH2 0x612 JUMP JUMPDEST STOP JUMPDEST CALLVALUE DUP1 ISZERO PUSH2 0x146 JUMPI PUSH0 DUP1 REVERT JUMPDEST POP PUSH2 0x14F PUSH2 0x7D5 JUMP JUMPDEST PUSH1 0x40 MLOAD PUSH2 0x15C SWAP2 SWAP1 PUSH2 0x98B JUMP JUMPDEST PUSH1 0x40 MLOAD DUP1 SWAP2 SUB SWAP1 RETURN JUMPDEST PUSH1 0x3 SLOAD DUP2 JUMP JUMPDEST PUSH1 0x4 SLOAD TIMESTAMP GT PUSH2 0x1AF JUMPI PUSH1 0x40 MLOAD PUSH32 0x8C379A000000000000000000000000000000000000000000000000000000000 DUP2 MSTORE PUSH1 0x4 ADD PUSH2 0x1A6 SWAP1 PUSH2 0xA24 JUMP JUMPDEST PUSH1 0x40 MLOAD DUP1 SWAP2 SUB SWAP1 REVERT JUMPDEST PUSH0 PUSH1 0x1 DUP1 SLOAD SWAP1 POP GT PUSH2 0x1F6 JUMPI PUSH1 0x40 MLOAD PUSH32 0x8C379A000000000000000000000000000000000000000000000000000000000 DUP2 MSTORE PUSH1 0x4 ADD PUSH2 0x1ED SWAP1 PUSH2 0xA8C JUMP JUMPDEST PUSH1 0x40 MLOAD DUP1 SWAP2 SUB SWAP1 REVERT JUMPDEST PUSH0 PUSH20 0xFFFFFFFFFFFFFFFFFFFFFFFFFFFFFFFFFFFFFFFF AND PUSH1 0x2 PUSH0 SWAP1 SLOAD SWAP1 PUSH2 0x100 EXP SWAP1 DIV PUSH20 0xFFFFFFFFFFFFFFFFFFFFFFFFFFFFFFFFFFFFFFFF AND PUSH20 0xFFFFFFFFFFFFFFFFFFFFFFFFFFFFFFFFFFFFFFFF AND EQ PUSH2 0x285 JUMPI PUSH1 0x40 MLOAD PUSH32 0x8C379A000000000000000000000000000000000000000000000000000000000 DUP2 MSTORE PUSH1 0x4 ADD PUSH2 0x27C SWAP1 PUSH2 0xAF4 JUMP JUMPDEST PUSH1 0x40 MLOAD DUP1 SWAP2 SUB SWAP1 REVERT JUMPDEST PUSH0 PUSH1 0x1 DUP1 SLOAD SWAP1 POP PUSH2 0x294 PUSH2 0x5DF JUMP JUMPDEST PUSH2 0x29E SWAP2 SWAP1 PUSH2 0xB3F JUMP JUMPDEST SWAP1 POP PUSH1 0x1 DUP2 DUP2 SLOAD DUP2 LT PUSH2 0x2B4 JUMPI PUSH2 0x2B3 PUSH2 0xB6F JUMP JUMPDEST JUMPDEST SWAP1 PUSH0 MSTORE PUSH1 0x20 PUSH0 KECCAK256 ADD PUSH0 SWAP1 SLOAD SWAP1 PUSH2 0x100 EXP SWAP1 DIV PUSH20 0xFFFFFFFFFFFFFFFFFFFFFFFFFFFFFFFFFFFFFFFF AND PUSH1 0x2 PUSH0 PUSH2 0x100 EXP DUP2 SLOAD DUP2 PUSH20 0xFFFFFFFFFFFFFFFFFFFFFFFFFFFFFFFFFFFFFFFF MUL NOT AND SWAP1 DUP4 PUSH20 0xFFFFFFFFFFFFFFFFFFFFFFFFFFFFFFFFFFFFFFFF AND MUL OR SWAP1 SSTORE POP PUSH1 0x2 PUSH0 SWAP1 SLOAD SWAP1 PUSH2 0x100 EXP SWAP1 DIV PUSH20 0xFFFFFFFFFFFFFFFFFFFFFFFFFFFFFFFFFFFFFFFF AND PUSH20 0xFFFFFFFFFFFFFFFFFFFFFFFFFFFFFFFFFFFFFFFF AND PUSH32 0x1D4C260F1824CD028E6C9E6E31C3A0B94F2513E7A641113EC759D382F9BDD5A1 PUSH1 0x40 MLOAD PUSH1 0x40 MLOAD DUP1 SWAP2 SUB SWAP1 LOG2 PUSH0 DUP1 PUSH0 SWAP1 SLOAD SWAP1 PUSH2 0x100 EXP SWAP1 DIV PUSH20 0xFFFFFFFFFFFFFFFFFFFFFFFFFFFFFFFFFFFFFFFF AND PUSH20 0xFFFFFFFFFFFFFFFFFFFFFFFFFFFFFFFFFFFFFFFF AND PUSH4 0x70A08231 ADDRESS PUSH1 0x40 MLOAD DUP3 PUSH4 0xFFFFFFFF AND PUSH1 0xE0 SHL DUP2 MSTORE PUSH1 0x4 ADD PUSH2 0x3D9 SWAP2 SWAP1 PUSH2 0xBAB JUMP JUMPDEST PUSH1 0x20 PUSH1 0x40 MLOAD DUP1 DUP4 SUB DUP2 DUP7 GAS STATICCALL ISZERO DUP1 ISZERO PUSH2 0x3F4 JUMPI RETURNDATASIZE PUSH0 DUP1 RETURNDATACOPY RETURNDATASIZE PUSH0 REVERT JUMPDEST POP POP POP POP PUSH1 0x40 MLOAD RETURNDATASIZE PUSH1 0x1F NOT PUSH1 0x1F DUP3 ADD AND DUP3 ADD DUP1 PUSH1 0x40 MSTORE POP DUP2 ADD SWAP1 PUSH2 0x418 SWAP2 SWAP1 PUSH2 0xBF2 JUMP JUMPDEST SWAP1 POP PUSH0 DUP1 SLOAD SWAP1 PUSH2 0x100 EXP SWAP1 DIV PUSH20 0xFFFFFFFFFFFFFFFFFFFFFFFFFFFFFFFFFFFFFFFF AND PUSH20 0xFFFFFFFFFFFFFFFFFFFFFFFFFFFFFFFFFFFFFFFF AND PUSH4 0xA9059CBB PUSH1 0x2 PUSH0 SWAP1 SLOAD SWAP1 PUSH2 0x100 EXP SWAP1 DIV PUSH20 0xFFFFFFFFFFFFFFFFFFFFFFFFFFFFFFFFFFFFFFFF AND DUP4 PUSH1 0x40 MLOAD DUP4 PUSH4 0xFFFFFFFF AND PUSH1 0xE0 SHL DUP2 MSTORE PUSH1 0x4 ADD PUSH2 0x495 SWAP3 SWAP2 SWAP1 PUSH2 0xC1D JUMP JUMPDEST PUSH1 0x20 PUSH1 0x40 MLOAD DUP1 DUP4 SUB DUP2 PUSH0 DUP8 GAS CALL SWAP3 POP POP POP DUP1 ISZERO PUSH2 0x4D0 JUMPI POP PUSH1 0x40 MLOAD RETURNDATASIZE PUSH1 0x1F NOT PUSH1 0x1F DUP3 ADD AND DUP3 ADD DUP1 PUSH1 0x40 MSTORE POP DUP2 ADD SWAP1 PUSH2 0x4CD SWAP2 SWAP1 PUSH2 0xC79 JUMP JUMPDEST PUSH1 0x1 JUMPDEST PUSH2 0x548 JUMPI PUSH1 0x2 PUSH0 SWAP1 SLOAD SWAP1 PUSH2 0x100 EXP SWAP1 DIV PUSH20 0xFFFFFFFFFFFFFFFFFFFFFFFFFFFFFFFFFFFFFFFF AND PUSH20 0xFFFFFFFFFFFFFFFFFFFFFFFFFFFFFFFFFFFFFFFF AND PUSH32 0xE3E92735F0A5E1DDAD0B68FE8526D646A42B4833010773101B7A3AA7E5EC62F0 DUP3 PUSH1 0x40 MLOAD PUSH2 0x53B SWAP2 SWAP1 PUSH2 0x810 JUMP JUMPDEST PUSH1 0x40 MLOAD DUP1 SWAP2 SUB SWAP1 LOG2 PUSH2 0x54A JUMP JUMPDEST POP JUMPDEST POP POP JUMP JUMPDEST PUSH1 0x60 PUSH1 0x1 DUP1 SLOAD DUP1 PUSH1 0x20 MUL PUSH1 0x20 ADD PUSH1 0x40 MLOAD SWAP1 DUP2 ADD PUSH1 0x40 MSTORE DUP1 SWAP3 SWAP2 SWAP1 DUP2 DUP2 MSTORE PUSH1 0x20 ADD DUP3 DUP1 SLOAD DUP1 ISZERO PUSH2 0x5CF JUMPI PUSH1 0x20 MUL DUP3 ADD SWAP2 SWAP1 PUSH0 MSTORE PUSH1 0x20 PUSH0 KECCAK256 SWAP1 JUMPDEST DUP2 PUSH0 SWAP1 SLOAD SWAP1 PUSH2 0x100 EXP SWAP1 DIV PUSH20 0xFFFFFFFFFFFFFFFFFFFFFFFFFFFFFFFFFFFFFFFF AND PUSH20 0xFFFFFFFFFFFFFFFFFFFFFFFFFFFFFFFFFFFFFFFF AND DUP2 MSTORE PUSH1 0x20 ADD SWAP1 PUSH1 0x1 ADD SWAP1 DUP1 DUP4 GT PUSH2 0x586 JUMPI JUMPDEST POP POP POP POP POP SWAP1 POP SWAP1 JUMP JUMPDEST PUSH1 0x4 SLOAD DUP2 JUMP JUMPDEST PUSH0 TIMESTAMP NUMBER ADDRESS PUSH1 0x40 MLOAD PUSH1 0x20 ADD PUSH2 0x5F5 SWAP4 SWAP3 SWAP2 SWAP1 PUSH2 0xD09 JUMP JUMPDEST PUSH1 0x40 MLOAD PUSH1 0x20 DUP2 DUP4 SUB SUB DUP2 MSTORE SWAP1 PUSH1 0x40 MSTORE DUP1 MLOAD SWAP1 PUSH1 0x20 ADD KECCAK256 PUSH0 SHR SWAP1 POP SWAP1 JUMP JUMPDEST PUSH1 0x4 SLOAD TIMESTAMP GT ISZERO PUSH2 0x657 JUMPI PUSH1 0x40 MLOAD PUSH32 0x8C379A000000000000000000000000000000000000000000000000000000000 DUP2 MSTORE PUSH1 0x4 ADD PUSH2 0x64E SWAP1 PUSH2 0xDB5 JUMP JUMPDEST PUSH1 0x40 MLOAD DUP1 SWAP2 SUB SWAP1 REVERT JUMPDEST PUSH0 DUP1 SLOAD SWAP1 PUSH2 0x100 EXP SWAP1 DIV PUSH20 0xFFFFFFFFFFFFFFFFFFFFFFFFFFFFFFFFFFFFFFFF AND PUSH20 0xFFFFFFFFFFFFFFFFFFFFFFFFFFFFFFFFFFFFFFFF AND PUSH4 0x23B872DD CALLER ADDRESS PUSH1 0x3 SLOAD PUSH1 0x40 MLOAD DUP5 PUSH4 0xFFFFFFFF AND PUSH1 0xE0 SHL DUP2 MSTORE PUSH1 0x4 ADD PUSH2 0x6B5 SWAP4 SWAP3 SWAP2 SWAP1 PUSH2 0xDD3 JUMP JUMPDEST PUSH1 0x20 PUSH1 0x40 MLOAD DUP1 DUP4 SUB DUP2 PUSH0 DUP8 GAS CALL SWAP3 POP POP POP DUP1 ISZERO PUSH2 0x6F0 JUMPI POP PUSH1 0x40 MLOAD RETURNDATASIZE PUSH1 0x1F NOT PUSH1 0x1F DUP3 ADD AND DUP3 ADD DUP1 PUSH1 0x40 MSTORE POP DUP2 ADD SWAP1 PUSH2 0x6ED SWAP2 SWAP1 PUSH2 0xC79 JUMP JUMPDEST PUSH1 0x1 JUMPDEST PUSH2 0x72F JUMPI PUSH1 0x40 MLOAD PUSH32 0x8C379A000000000000000000000000000000000000000000000000000000000 DUP2 MSTORE PUSH1 0x4 ADD PUSH2 0x726 SWAP1 PUSH2 0xE9E JUMP JUMPDEST PUSH1 0x40 MLOAD DUP1 SWAP2 SUB SWAP1 REVERT JUMPDEST POP PUSH1 0x1 CALLER SWAP1 DUP1 PUSH1 0x1 DUP2 SLOAD ADD DUP1 DUP3 SSTORE DUP1 SWAP2 POP POP PUSH1 0x1 SWAP1 SUB SWAP1 PUSH0 MSTORE PUSH1 0x20 PUSH0 KECCAK256 ADD PUSH0 SWAP1 SWAP2 SWAP1 SWAP2 SWAP1 SWAP2 PUSH2 0x100 EXP DUP2 SLOAD DUP2 PUSH20 0xFFFFFFFFFFFFFFFFFFFFFFFFFFFFFFFFFFFFFFFF MUL NOT AND SWAP1 DUP4 PUSH20 0xFFFFFFFFFFFFFFFFFFFFFFFFFFFFFFFFFFFFFFFF AND MUL OR SWAP1 SSTORE POP CALLER PUSH20 0xFFFFFFFFFFFFFFFFFFFFFFFFFFFFFFFFFFFFFFFF AND PUSH32 0x23443AC3AFAEC974C2D4368824912F61A50FEE541BCC94EC52414BA6A9B14AAB PUSH1 0x40 MLOAD PUSH1 0x40 MLOAD DUP1 SWAP2 SUB SWAP1 LOG2 JUMP JUMPDEST PUSH0 DUP1 SLOAD SWAP1 PUSH2 0x100 EXP SWAP1 DIV PUSH20 0xFFFFFFFFFFFFFFFFFFFFFFFFFFFFFFFFFFFFFFFF AND DUP2 JUMP JUMPDEST PUSH0 DUP2 SWAP1 POP SWAP2 SWAP1 POP JUMP JUMPDEST PUSH2 0x80A DUP2 PUSH2 0x7F8 JUMP JUMPDEST DUP3 MSTORE POP POP JUMP JUMPDEST PUSH0 PUSH1 0x20 DUP3 ADD SWAP1 POP PUSH2 0x823 PUSH0 DUP4 ADD DUP5 PUSH2 0x801 JUMP JUMPDEST SWAP3 SWAP2 POP POP JUMP JUMPDEST PUSH0 DUP2 MLOAD SWAP1 POP SWAP2 SWAP1 POP JUMP JUMPDEST PUSH0 DUP3 DUP3 MSTORE PUSH1 0x20 DUP3 ADD SWAP1 POP SWAP3 SWAP2 POP POP JUMP JUMPDEST PUSH0 DUP2 SWAP1 POP PUSH1 0x20 DUP3 ADD SWAP1 POP SWAP2 SWAP1 POP JUMP JUMPDEST PUSH0 PUSH20 0xFFFFFFFFFFFFFFFFFFFFFFFFFFFFFFFFFFFFFFFF DUP3 AND SWAP1 POP SWAP2 SWAP1 POP JUMP JUMPDEST PUSH0 PUSH2 0x87B DUP3 PUSH2 0x852 JUMP JUMPDEST SWAP1 POP SWAP2 SWAP1 POP JUMP JUMPDEST PUSH2 0x88B DUP2 PUSH2 0x871 JUMP JUMPDEST DUP3 MSTORE POP POP JUMP JUMPDEST PUSH0 PUSH2 0x89C DUP4 DUP4 PUSH2 0x882 JUMP JUMPDEST PUSH1 0x20 DUP4 ADD SWAP1 POP SWAP3 SWAP2 POP POP JUMP JUMPDEST PUSH0 PUSH1 0x20 DUP3 ADD SWAP1 POP SWAP2 SWAP1 POP JUMP JUMPDEST PUSH0 PUSH2 0x8BE DUP3 PUSH2 0x829 JUMP JUMPDEST PUSH2 0x8C8 DUP2 DUP6 PUSH2 0x833 JUMP JUMPDEST SWAP4 POP PUSH2 0x8D3 DUP4 PUSH2 0x843 JUMP JUMPDEST DUP1 PUSH0 JUMPDEST DUP4 DUP2 LT ISZERO PUSH2 0x903 JUMPI DUP2 MLOAD PUSH2 0x8EA DUP9 DUP3 PUSH2 0x891 JUMP JUMPDEST SWAP8 POP PUSH2 0x8F5 DUP4 PUSH2 0x8A8 JUMP JUMPDEST SWAP3 POP POP PUSH1 0x1 DUP2 ADD SWAP1 POP PUSH2 0x8D6 JUMP JUMPDEST POP DUP6 SWAP4 POP POP POP POP SWAP3 SWAP2 POP POP JUMP JUMPDEST PUSH0 PUSH1 0x20 DUP3 ADD SWAP1 POP DUP2 DUP2 SUB PUSH0 DUP4 ADD MSTORE PUSH2 0x928 DUP2 DUP5 PUSH2 0x8B4 JUMP JUMPDEST SWAP1 POP SWAP3 SWAP2 POP POP JUMP JUMPDEST PUSH0 DUP2 SWAP1 POP SWAP2 SWAP1 POP JUMP JUMPDEST PUSH0 PUSH2 0x953 PUSH2 0x94E PUSH2 0x949 DUP5 PUSH2 0x852 JUMP JUMPDEST PUSH2 0x930 JUMP JUMPDEST PUSH2 0x852 JUMP JUMPDEST SWAP1 POP SWAP2 SWAP1 POP JUMP JUMPDEST PUSH0 PUSH2 0x964 DUP3 PUSH2 0x939 JUMP JUMPDEST SWAP1 POP SWAP2 SWAP1 POP JUMP JUMPDEST PUSH0 PUSH2 0x975 DUP3 PUSH2 0x95A JUMP JUMPDEST SWAP1 POP SWAP2 SWAP1 POP JUMP JUMPDEST PUSH2 0x985 DUP2 PUSH2 0x96B JUMP JUMPDEST DUP3 MSTORE POP POP JUMP JUMPDEST PUSH0 PUSH1 0x20 DUP3 ADD SWAP1 POP PUSH2 0x99E PUSH0 DUP4 ADD DUP5 PUSH2 0x97C JUMP JUMPDEST SWAP3 SWAP2 POP POP JUMP JUMPDEST PUSH0 DUP3 DUP3 MSTORE PUSH1 0x20 DUP3 ADD SWAP1 POP SWAP3 SWAP2 POP POP JUMP JUMPDEST PUSH32 0x43616E6E6F742073656C65637420612077696E6E6572206265666F7265207468 PUSH0 DUP3 ADD MSTORE PUSH32 0x6520646561646C696E6500000000000000000000000000000000000000000000 PUSH1 0x20 DUP3 ADD MSTORE POP JUMP JUMPDEST PUSH0 PUSH2 0xA0E PUSH1 0x2A DUP4 PUSH2 0x9A4 JUMP JUMPDEST SWAP2 POP PUSH2 0xA19 DUP3 PUSH2 0x9B4 JUMP JUMPDEST PUSH1 0x40 DUP3 ADD SWAP1 POP SWAP2 SWAP1 POP JUMP JUMPDEST PUSH0 PUSH1 0x20 DUP3 ADD SWAP1 POP DUP2 DUP2 SUB PUSH0 DUP4 ADD MSTORE PUSH2 0xA3B DUP2 PUSH2 0xA02 JUMP JUMPDEST SWAP1 POP SWAP2 SWAP1 POP JUMP JUMPDEST PUSH32 0x4E6F207061727469636970616E747320696E20746865206C6F74746572790000 PUSH0 DUP3 ADD MSTORE POP JUMP JUMPDEST PUSH0 PUSH2 0xA76 PUSH1 0x1E DUP4 PUSH2 0x9A4 JUMP JUMPDEST SWAP2 POP PUSH2 0xA81 DUP3 PUSH2 0xA42 JUMP JUMPDEST PUSH1 0x20 DUP3 ADD SWAP1 POP SWAP2 SWAP1 POP JUMP JUMPDEST PUSH0 PUSH1 0x20 DUP3 ADD SWAP1 POP DUP2 DUP2 SUB PUSH0 DUP4 ADD MSTORE PUSH2 0xAA3 DUP2 PUSH2 0xA6A JUMP JUMPDEST SWAP1 POP SWAP2 SWAP1 POP JUMP JUMPDEST PUSH32 0x57696E6E65722068617320616C7265616479206265656E2073656C6563746564 PUSH0 DUP3 ADD MSTORE POP JUMP JUMPDEST PUSH0 PUSH2 0xADE PUSH1 0x20 DUP4 PUSH2 0x9A4 JUMP JUMPDEST SWAP2 POP PUSH2 0xAE9 DUP3 PUSH2 0xAAA JUMP JUMPDEST PUSH1 0x20 DUP3 ADD SWAP1 POP SWAP2 SWAP1 POP JUMP JUMPDEST PUSH0 PUSH1 0x20 DUP3 ADD SWAP1 POP DUP2 DUP2 SUB PUSH0 DUP4 ADD MSTORE PUSH2 0xB0B DUP2 PUSH2 0xAD2 JUMP JUMPDEST SWAP1 POP SWAP2 SWAP1 POP JUMP JUMPDEST PUSH32 0x4E487B7100000000000000000000000000000000000000000000000000000000 PUSH0 MSTORE PUSH1 0x12 PUSH1 0x4 MSTORE PUSH1 0x24 PUSH0 REVERT JUMPDEST PUSH0 PUSH2 0xB49 DUP3 PUSH2 0x7F8 JUMP JUMPDEST SWAP2 POP PUSH2 0xB54 DUP4 PUSH2 0x7F8 JUMP JUMPDEST SWAP3 POP DUP3 PUSH2 0xB64 JUMPI PUSH2 0xB63 PUSH2 0xB12 JUMP JUMPDEST JUMPDEST DUP3 DUP3 MOD SWAP1 POP SWAP3 SWAP2 POP POP JUMP JUMPDEST PUSH32 0x4E487B7100000000000000000000000000000000000000000000000000000000 PUSH0 MSTORE PUSH1 0x32 PUSH1 0x4 MSTORE PUSH1 0x24 PUSH0 REVERT JUMPDEST PUSH2 0xBA5 DUP2 PUSH2 0x871 JUMP JUMPDEST DUP3 MSTORE POP POP JUMP JUMPDEST PUSH0 PUSH1 0x20 DUP3 ADD SWAP1 POP PUSH2 0xBBE PUSH0 DUP4 ADD DUP5 PUSH2 0xB9C JUMP JUMPDEST SWAP3 SWAP2 POP POP JUMP JUMPDEST PUSH0 DUP1 REVERT JUMPDEST PUSH2 0xBD1 DUP2 PUSH2 0x7F8 JUMP JUMPDEST DUP2 EQ PUSH2 0xBDB JUMPI PUSH0 DUP1 REVERT JUMPDEST POP JUMP JUMPDEST PUSH0 DUP2 MLOAD SWAP1 POP PUSH2 0xBEC DUP2 PUSH2 0xBC8 JUMP JUMPDEST SWAP3 SWAP2 POP POP JUMP JUMPDEST PUSH0 PUSH1 0x20 DUP3 DUP5 SUB SLT ISZERO PUSH2 0xC07 JUMPI PUSH2 0xC06 PUSH2 0xBC4 JUMP JUMPDEST JUMPDEST PUSH0 PUSH2 0xC14 DUP5 DUP3 DUP6 ADD PUSH2 0xBDE JUMP JUMPDEST SWAP2 POP POP SWAP3 SWAP2 POP POP JUMP JUMPDEST PUSH0 PUSH1 0x40 DUP3 ADD SWAP1 POP PUSH2 0xC30 PUSH0 DUP4 ADD DUP6 PUSH2 0xB9C JUMP JUMPDEST PUSH2 0xC3D PUSH1 0x20 DUP4 ADD DUP5 PUSH2 0x801 JUMP JUMPDEST SWAP4 SWAP3 POP POP POP JUMP JUMPDEST PUSH0 DUP2 ISZERO ISZERO SWAP1 POP SWAP2 SWAP1 POP JUMP JUMPDEST PUSH2 0xC58 DUP2 PUSH2 0xC44 JUMP JUMPDEST DUP2 EQ PUSH2 0xC62 JUMPI PUSH0 DUP1 REVERT JUMPDEST POP JUMP JUMPDEST PUSH0 DUP2 MLOAD SWAP1 POP PUSH2 0xC73 DUP2 PUSH2 0xC4F JUMP JUMPDEST SWAP3 SWAP2 POP POP JUMP JUMPDEST PUSH0 PUSH1 0x20 DUP3 DUP5 SUB SLT ISZERO PUSH2 0xC8E JUMPI PUSH2 0xC8D PUSH2 0xBC4 JUMP JUMPDEST JUMPDEST PUSH0 PUSH2 0xC9B DUP5 DUP3 DUP6 ADD PUSH2 0xC65 JUMP JUMPDEST SWAP2 POP POP SWAP3 SWAP2 POP POP JUMP JUMPDEST PUSH0 DUP2 SWAP1 POP SWAP2 SWAP1 POP JUMP JUMPDEST PUSH2 0xCBE PUSH2 0xCB9 DUP3 PUSH2 0x7F8 JUMP JUMPDEST PUSH2 0xCA4 JUMP JUMPDEST DUP3 MSTORE POP POP JUMP JUMPDEST PUSH0 DUP2 PUSH1 0x60 SHL SWAP1 POP SWAP2 SWAP1 POP JUMP JUMPDEST PUSH0 PUSH2 0xCDA DUP3 PUSH2 0xCC4 JUMP JUMPDEST SWAP1 POP SWAP2 SWAP1 POP JUMP JUMPDEST PUSH0 PUSH2 0xCEB DUP3 PUSH2 0xCD0 JUMP JUMPDEST SWAP1 POP SWAP2 SWAP1 POP JUMP JUMPDEST PUSH2 0xD03 PUSH2 0xCFE DUP3 PUSH2 0x871 JUMP JUMPDEST PUSH2 0xCE1 JUMP JUMPDEST DUP3 MSTORE POP POP JUMP JUMPDEST PUSH0 PUSH2 0xD14 DUP3 DUP7 PUSH2 0xCAD JUMP JUMPDEST PUSH1 0x20 DUP3 ADD SWAP2 POP PUSH2 0xD24 DUP3 DUP6 PUSH2 0xCAD JUMP JUMPDEST PUSH1 0x20 DUP3 ADD SWAP2 POP PUSH2 0xD34 DUP3 DUP5 PUSH2 0xCF2 JUMP JUMPDEST PUSH1 0x14 DUP3 ADD SWAP2 POP DUP2 SWAP1 POP SWAP5 SWAP4 POP POP POP POP JUMP JUMPDEST PUSH32 0x5469636B657420707572636861736520646561646C696E652068617320706173 PUSH0 DUP3 ADD MSTORE PUSH32 0x7365640000000000000000000000000000000000000000000000000000000000 PUSH1 0x20 DUP3 ADD MSTORE POP JUMP JUMPDEST PUSH0 PUSH2 0xD9F PUSH1 0x23 DUP4 PUSH2 0x9A4 JUMP JUMPDEST SWAP2 POP PUSH2 0xDAA DUP3 PUSH2 0xD45 JUMP JUMPDEST PUSH1 0x40 DUP3 ADD SWAP1 POP SWAP2 SWAP1 POP JUMP JUMPDEST PUSH0 PUSH1 0x20 DUP3 ADD SWAP1 POP DUP2 DUP2 SUB PUSH0 DUP4 ADD MSTORE PUSH2 0xDCC DUP2 PUSH2 0xD93 JUMP JUMPDEST SWAP1 POP SWAP2 SWAP1 POP JUMP JUMPDEST PUSH0 PUSH1 0x60 DUP3 ADD SWAP1 POP PUSH2 0xDE6 PUSH0 DUP4 ADD DUP7 PUSH2 0xB9C JUMP JUMPDEST PUSH2 0xDF3 PUSH1 0x20 DUP4 ADD DUP6 PUSH2 0xB9C JUMP JUMPDEST PUSH2 0xE00 PUSH1 0x40 DUP4 ADD DUP5 PUSH2 0x801 JUMP JUMPDEST SWAP5 SWAP4 POP POP POP POP JUMP JUMPDEST PUSH32 0x546F6B656E207472616E73666572206661696C65642E20456E7375726520796F PUSH0 DUP3 ADD MSTORE PUSH32 0x7520617070726F7665642074686520636F6E747261637420746F207370656E64 PUSH1 0x20 DUP3 ADD MSTORE PUSH32 0x20746F6B656E732E000000000000000000000000000000000000000000000000 PUSH1 0x40 DUP3 ADD MSTORE POP JUMP JUMPDEST PUSH0 PUSH2 0xE88 PUSH1 0x48 DUP4 PUSH2 0x9A4 JUMP JUMPDEST SWAP2 POP PUSH2 0xE93 DUP3 PUSH2 0xE08 JUMP JUMPDEST PUSH1 0x60 DUP3 ADD SWAP1 POP SWAP2 SWAP1 POP JUMP JUMPDEST PUSH0 PUSH1 0x20 DUP3 ADD SWAP1 POP DUP2 DUP2 SUB PUSH0 DUP4 ADD MSTORE PUSH2 0xEB5 DUP2 PUSH2 0xE7C JUMP JUMPDEST SWAP1 POP SWAP2 SWAP1 POP JUMP INVALID LOG2 PUSH5 0x6970667358 0x22 SLT KECCAK256 SWAP2 SWAP15 0xC5 0xEA 0x2B 0x23 EXTCODEHASH 0xCC 0xAD 0x2B 0xEB EQ SELFBALANCE ADD PUSH8 0x20AEA85B1972A512 0x26 EXTCODECOPY MSIZE 0xE2 0xB9 0xE0 0x2B BYTE JUMPI PUSH5 0x736F6C6343 STOP ADDMOD BYTE STOP CALLER "
		},
		"gasEstimates": {
			"creation": {
				"codeDepositCost": "765200",
				"executionCost": "infinite",
				"totalCost": "infinite"
			},
			"external": {
				"buyTicket()": "infinite",
				"generateRandomNumber()": "infinite",
				"getParticipants()": "infinite",
				"selectWinner()": "infinite",
				"ticketPrice()": "2426",
				"ticketPurchaseDeadline()": "2425",
				"token()": "infinite"
			}
		},
		"methodIdentifiers": {
			"buyTicket()": "edca914c",
			"generateRandomNumber()": "773a1154",
			"getParticipants()": "5aa68ac0",
			"selectWinner()": "33a99e04",
			"ticketPrice()": "1209b1f6",
			"ticketPurchaseDeadline()": "70e36d46",
			"token()": "fc0c546a"
		}
	},
	"abi": [
		{
			"inputs": [
				{
					"internalType": "contract IERC20",
					"name": "_token",
					"type": "address"
				},
				{
					"internalType": "uint256",
					"name": "_ticketPrice",
					"type": "uint256"
				}
			],
			"stateMutability": "nonpayable",
			"type": "constructor"
		},
		{
			"anonymous": false,
			"inputs": [
				{
					"indexed": true,
					"internalType": "address",
					"name": "winner",
					"type": "address"
				},
				{
					"indexed": false,
					"internalType": "uint256",
					"name": "amount",
					"type": "uint256"
				}
			],
			"name": "PayoutFailed",
			"type": "event"
		},
		{
			"anonymous": false,
			"inputs": [
				{
					"indexed": true,
					"internalType": "address",
					"name": "participant",
					"type": "address"
				}
			],
			"name": "TicketPurchased",
			"type": "event"
		},
		{
			"anonymous": false,
			"inputs": [
				{
					"indexed": true,
					"internalType": "address",
					"name": "winner",
					"type": "address"
				}
			],
			"name": "WinnerSelected",
			"type": "event"
		},
		{
			"inputs": [],
			"name": "buyTicket",
			"outputs": [],
			"stateMutability": "payable",
			"type": "function"
		},
		{
			"inputs": [],
			"name": "generateRandomNumber",
			"outputs": [
				{
					"internalType": "uint256",
					"name": "",
					"type": "uint256"
				}
			],
			"stateMutability": "view",
			"type": "function"
		},
		{
			"inputs": [],
			"name": "getParticipants",
			"outputs": [
				{
					"internalType": "address[]",
					"name": "",
					"type": "address[]"
				}
			],
			"stateMutability": "view",
			"type": "function"
		},
		{
			"inputs": [],
			"name": "selectWinner",
			"outputs": [],
			"stateMutability": "nonpayable",
			"type": "function"
		},
		{
			"inputs": [],
			"name": "ticketPrice",
			"outputs": [
				{
					"internalType": "uint256",
					"name": "",
					"type": "uint256"
				}
			],
			"stateMutability": "view",
			"type": "function"
		},
		{
			"inputs": [],
			"name": "ticketPurchaseDeadline",
			"outputs": [
				{
					"internalType": "uint256",
					"name": "",
					"type": "uint256"
				}
			],
			"stateMutability": "view",
			"type": "function"
		},
		{
			"inputs": [],
			"name": "token",
			"outputs": [
				{
					"internalType": "contract IERC20",
					"name": "",
					"type": "address"
				}
			],
			"stateMutability": "view",
			"type": "function"
		}
	]
}