{
	"data": {
		"bytecode": {
			"linkReferences": {},
			"object": "6080604052348015600e575f80fd5b506102d88061001c5f395ff3fe608060405234801561000f575f80fd5b5060043610610060575f3560e01c806302da667b146100645780631b55e338146100805780635f8439e31461009c5780638c590917146100b8578063d5977b5e146100d4578063fc0c546a146100f2575b5f80fd5b61007e6004803603810190610079919061017e565b610110565b005b61009a600480360381019061009591906101bc565b610114565b005b6100b660048036038101906100b191906101bc565b610117565b005b6100d260048036038101906100cd919061017e565b61011a565b005b6100dc61011e565b6040516100e991906101f6565b60405180910390f35b6100fa610124565b6040516101079190610289565b60405180910390f35b5050565b50565b50565b5050565b60025481565b5f8054906101000a900473ffffffffffffffffffffffffffffffffffffffff1681565b5f80fd5b5f819050919050565b61015d8161014b565b8114610167575f80fd5b50565b5f8135905061017881610154565b92915050565b5f806040838503121561019457610193610147565b5b5f6101a18582860161016a565b92505060206101b28582860161016a565b9150509250929050565b5f602082840312156101d1576101d0610147565b5b5f6101de8482850161016a565b91505092915050565b6101f08161014b565b82525050565b5f6020820190506102095f8301846101e7565b92915050565b5f73ffffffffffffffffffffffffffffffffffffffff82169050919050565b5f819050919050565b5f61025161024c6102478461020f565b61022e565b61020f565b9050919050565b5f61026282610237565b9050919050565b5f61027382610258565b9050919050565b61028381610269565b82525050565b5f60208201905061029c5f83018461027a565b9291505056fea2646970667358221220e8814e20bedd92c65ba31a9547d5a913fe893d7b6a43a05fefca831d4e27732a64736f6c634300081a0033",
			"opcodes": "PUSH1 0x80 PUSH1 0x40 MSTORE CALLVALUE DUP1 ISZERO PUSH1 0xE JUMPI PUSH0 DUP1 REVERT JUMPDEST POP PUSH2 0x2D8 DUP1 PUSH2 0x1C PUSH0 CODECOPY PUSH0 RETURN INVALID PUSH1 0x80 PUSH1 0x40 MSTORE CALLVALUE DUP1 ISZERO PUSH2 0xF JUMPI PUSH0 DUP1 REVERT JUMPDEST POP PUSH1 0x4 CALLDATASIZE LT PUSH2 0x60 JUMPI PUSH0 CALLDATALOAD PUSH1 0xE0 SHR DUP1 PUSH4 0x2DA667B EQ PUSH2 0x64 JUMPI DUP1 PUSH4 0x1B55E338 EQ PUSH2 0x80 JUMPI DUP1 PUSH4 0x5F8439E3 EQ PUSH2 0x9C JUMPI DUP1 PUSH4 0x8C590917 EQ PUSH2 0xB8 JUMPI DUP1 PUSH4 0xD5977B5E EQ PUSH2 0xD4 JUMPI DUP1 PUSH4 0xFC0C546A EQ PUSH2 0xF2 JUMPI JUMPDEST PUSH0 DUP1 REVERT JUMPDEST PUSH2 0x7E PUSH1 0x4 DUP1 CALLDATASIZE SUB DUP2 ADD SWAP1 PUSH2 0x79 SWAP2 SWAP1 PUSH2 0x17E JUMP JUMPDEST PUSH2 0x110 JUMP JUMPDEST STOP JUMPDEST PUSH2 0x9A PUSH1 0x4 DUP1 CALLDATASIZE SUB DUP2 ADD SWAP1 PUSH2 0x95 SWAP2 SWAP1 PUSH2 0x1BC JUMP JUMPDEST PUSH2 0x114 JUMP JUMPDEST STOP JUMPDEST PUSH2 0xB6 PUSH1 0x4 DUP1 CALLDATASIZE SUB DUP2 ADD SWAP1 PUSH2 0xB1 SWAP2 SWAP1 PUSH2 0x1BC JUMP JUMPDEST PUSH2 0x117 JUMP JUMPDEST STOP JUMPDEST PUSH2 0xD2 PUSH1 0x4 DUP1 CALLDATASIZE SUB DUP2 ADD SWAP1 PUSH2 0xCD SWAP2 SWAP1 PUSH2 0x17E JUMP JUMPDEST PUSH2 0x11A JUMP JUMPDEST STOP JUMPDEST PUSH2 0xDC PUSH2 0x11E JUMP JUMPDEST PUSH1 0x40 MLOAD PUSH2 0xE9 SWAP2 SWAP1 PUSH2 0x1F6 JUMP JUMPDEST PUSH1 0x40 MLOAD DUP1 SWAP2 SUB SWAP1 RETURN JUMPDEST PUSH2 0xFA PUSH2 0x124 JUMP JUMPDEST PUSH1 0x40 MLOAD PUSH2 0x107 SWAP2 SWAP1 PUSH2 0x289 JUMP JUMPDEST PUSH1 0x40 MLOAD DUP1 SWAP2 SUB SWAP1 RETURN JUMPDEST POP POP JUMP JUMPDEST POP JUMP JUMPDEST POP JUMP JUMPDEST POP POP JUMP JUMPDEST PUSH1 0x2 SLOAD DUP2 JUMP JUMPDEST PUSH0 DUP1 SLOAD SWAP1 PUSH2 0x100 EXP SWAP1 DIV PUSH20 0xFFFFFFFFFFFFFFFFFFFFFFFFFFFFFFFFFFFFFFFF AND DUP2 JUMP JUMPDEST PUSH0 DUP1 REVERT JUMPDEST PUSH0 DUP2 SWAP1 POP SWAP2 SWAP1 POP JUMP JUMPDEST PUSH2 0x15D DUP2 PUSH2 0x14B JUMP JUMPDEST DUP2 EQ PUSH2 0x167 JUMPI PUSH0 DUP1 REVERT JUMPDEST POP JUMP JUMPDEST PUSH0 DUP2 CALLDATALOAD SWAP1 POP PUSH2 0x178 DUP2 PUSH2 0x154 JUMP JUMPDEST SWAP3 SWAP2 POP POP JUMP JUMPDEST PUSH0 DUP1 PUSH1 0x40 DUP4 DUP6 SUB SLT ISZERO PUSH2 0x194 JUMPI PUSH2 0x193 PUSH2 0x147 JUMP JUMPDEST JUMPDEST PUSH0 PUSH2 0x1A1 DUP6 DUP3 DUP7 ADD PUSH2 0x16A JUMP JUMPDEST SWAP3 POP POP PUSH1 0x20 PUSH2 0x1B2 DUP6 DUP3 DUP7 ADD PUSH2 0x16A JUMP JUMPDEST SWAP2 POP POP SWAP3 POP SWAP3 SWAP1 POP JUMP JUMPDEST PUSH0 PUSH1 0x20 DUP3 DUP5 SUB SLT ISZERO PUSH2 0x1D1 JUMPI PUSH2 0x1D0 PUSH2 0x147 JUMP JUMPDEST JUMPDEST PUSH0 PUSH2 0x1DE DUP5 DUP3 DUP6 ADD PUSH2 0x16A JUMP JUMPDEST SWAP2 POP POP SWAP3 SWAP2 POP POP JUMP JUMPDEST PUSH2 0x1F0 DUP2 PUSH2 0x14B JUMP JUMPDEST DUP3 MSTORE POP POP JUMP JUMPDEST PUSH0 PUSH1 0x20 DUP3 ADD SWAP1 POP PUSH2 0x209 PUSH0 DUP4 ADD DUP5 PUSH2 0x1E7 JUMP JUMPDEST SWAP3 SWAP2 POP POP JUMP JUMPDEST PUSH0 PUSH20 0xFFFFFFFFFFFFFFFFFFFFFFFFFFFFFFFFFFFFFFFF DUP3 AND SWAP1 POP SWAP2 SWAP1 POP JUMP JUMPDEST PUSH0 DUP2 SWAP1 POP SWAP2 SWAP1 POP JUMP JUMPDEST PUSH0 PUSH2 0x251 PUSH2 0x24C PUSH2 0x247 DUP5 PUSH2 0x20F JUMP JUMPDEST PUSH2 0x22E JUMP JUMPDEST PUSH2 0x20F JUMP JUMPDEST SWAP1 POP SWAP2 SWAP1 POP JUMP JUMPDEST PUSH0 PUSH2 0x262 DUP3 PUSH2 0x237 JUMP JUMPDEST SWAP1 POP SWAP2 SWAP1 POP JUMP JUMPDEST PUSH0 PUSH2 0x273 DUP3 PUSH2 0x258 JUMP JUMPDEST SWAP1 POP SWAP2 SWAP1 POP JUMP JUMPDEST PUSH2 0x283 DUP2 PUSH2 0x269 JUMP JUMPDEST DUP3 MSTORE POP POP JUMP JUMPDEST PUSH0 PUSH1 0x20 DUP3 ADD SWAP1 POP PUSH2 0x29C PUSH0 DUP4 ADD DUP5 PUSH2 0x27A JUMP JUMPDEST SWAP3 SWAP2 POP POP JUMP INVALID LOG2 PUSH5 0x6970667358 0x22 SLT KECCAK256 0xE8 DUP2 0x4E KECCAK256 0xBE 0xDD SWAP3 0xC6 JUMPDEST LOG3 BYTE SWAP6 SELFBALANCE 0xD5 0xA9 SGT INVALID DUP10 RETURNDATASIZE PUSH28 0x6A43A05FEFCA831D4E27732A64736F6C634300081A00330000000000 "
		},
		"gasEstimates": {
			"creation": {
				"codeDepositCost": "145600",
				"executionCost": "188",
				"totalCost": "145788"
			},
			"external": {
				"claimFunds(uint256)": "401",
				"contribute(uint256,uint256)": "infinite",
				"createProject(uint256,uint256)": "infinite",
				"getProjectDetails(uint256)": "423",
				"projectIdCounter()": "2491",
				"token()": "infinite"
			}
		},
		"methodIdentifiers": {
			"claimFunds(uint256)": "1b55e338",
			"contribute(uint256,uint256)": "8c590917",
			"createProject(uint256,uint256)": "02da667b",
			"getProjectDetails(uint256)": "5f8439e3",
			"projectIdCounter()": "d5977b5e",
			"token()": "fc0c546a"
		}
	},
	"abi": [
		{
			"inputs": [],
			"stateMutability": "nonpayable",
			"type": "constructor"
		},
		{
			"inputs": [
				{
					"internalType": "uint256",
					"name": "_projectId",
					"type": "uint256"
				}
			],
			"name": "claimFunds",
			"outputs": [],
			"stateMutability": "nonpayable",
			"type": "function"
		},
		{
			"inputs": [
				{
					"internalType": "uint256",
					"name": "_projectId",
					"type": "uint256"
				},
				{
					"internalType": "uint256",
					"name": "_amount",
					"type": "uint256"
				}
			],
			"name": "contribute",
			"outputs": [],
			"stateMutability": "nonpayable",
			"type": "function"
		},
		{
			"inputs": [
				{
					"internalType": "uint256",
					"name": "_goalAmount",
					"type": "uint256"
				},
				{
					"internalType": "uint256",
					"name": "_vestingDuration",
					"type": "uint256"
				}
			],
			"name": "createProject",
			"outputs": [],
			"stateMutability": "nonpayable",
			"type": "function"
		},
		{
			"inputs": [
				{
					"internalType": "uint256",
					"name": "_projectId",
					"type": "uint256"
				}
			],
			"name": "getProjectDetails",
			"outputs": [],
			"stateMutability": "nonpayable",
			"type": "function"
		},
		{
			"inputs": [],
			"name": "projectIdCounter",
			"outputs": [
				{
					"internalType": "uint256",
					"name": "",
					"type": "uint256"
				}
			],
			"stateMutability": "view",
			"type": "function"
		},
		{
			"inputs": [],
			"name": "token",
			"outputs": [
				{
					"internalType": "contract IERC20",
					"name": "",
					"type": "address"
				}
			],
			"stateMutability": "view",
			"type": "function"
		}
	]
}