{
	"data": {
		"bytecode": {
			"linkReferences": {},
			"object": "608060405234801561000f575f80fd5b5060405161180338038061180383398181016040528101906100319190610142565b5f73ffffffffffffffffffffffffffffffffffffffff168173ffffffffffffffffffffffffffffffffffffffff160361009f576040517f08c379a0000000000000000000000000000000000000000000000000000000008152600401610096906101c7565b60405180910390fd5b805f806101000a81548173ffffffffffffffffffffffffffffffffffffffff021916908373ffffffffffffffffffffffffffffffffffffffff160217905550506101e5565b5f80fd5b5f73ffffffffffffffffffffffffffffffffffffffff82169050919050565b5f610111826100e8565b9050919050565b61012181610107565b811461012b575f80fd5b50565b5f8151905061013c81610118565b92915050565b5f60208284031215610157576101566100e4565b5b5f6101648482850161012e565b91505092915050565b5f82825260208201905092915050565b7f496e76616c696420746f6b656e206164647265737300000000000000000000005f82015250565b5f6101b160158361016d565b91506101bc8261017d565b602082019050919050565b5f6020820190508181035f8301526101de816101a5565b9050919050565b611611806101f25f395ff3fe608060405234801561000f575f80fd5b5060043610610060575f3560e01c806302da667b146100645780631b55e338146100805780635f8439e31461009c5780638c590917146100cc578063d5977b5e146100e8578063fc0c546a14610106575b5f80fd5b61007e60048036038101906100799190610ad6565b610124565b005b61009a60048036038101906100959190610b14565b6102fd565b005b6100b660048036038101906100b19190610b14565b61068b565b6040516100c39190610c19565b60405180910390f35b6100e660048036038101906100e19190610ad6565b61079c565b005b6100f0610a21565b6040516100fd9190610c41565b60405180910390f35b61010e610a27565b60405161011b9190610cb5565b60405180910390f35b5f8211610166576040517f08c379a000000000000000000000000000000000000000000000000000000000815260040161015d90610d4e565b60405180910390fd5b5f81116101a8576040517f08c379a000000000000000000000000000000000000000000000000000000000815260040161019f90610ddc565b60405180910390fd5b5f6040518060e0016040528060025481526020013373ffffffffffffffffffffffffffffffffffffffff1681526020018481526020015f81526020014281526020018381526020015f8152509050600181908060018154018082558091505060019003905f5260205f2090600702015f909190919091505f820151815f01556020820151816001015f6101000a81548173ffffffffffffffffffffffffffffffffffffffff021916908373ffffffffffffffffffffffffffffffffffffffff16021790555060408201518160020155606082015181600301556080820151816004015560a0820151816005015560c08201518160060155505060025f8154809291906102b390610e27565b91905055507fb5d890eb2df709d2f732ed81f328b444e49c1618ed8d64c53c0a040ec4040e1e815f01513385856040516102f09493929190610e7d565b60405180910390a1505050565b6001805490508110610344576040517f08c379a000000000000000000000000000000000000000000000000000000000815260040161033b90610f0a565b60405180910390fd5b5f6001828154811061035957610358610f28565b5b905f5260205f2090600702019050806001015f9054906101000a900473ffffffffffffffffffffffffffffffffffffffff1673ffffffffffffffffffffffffffffffffffffffff163373ffffffffffffffffffffffffffffffffffffffff16146103f8576040517f08c379a00000000000000000000000000000000000000000000000000000000081526004016103ef90610fc5565b60405180910390fd5b806002015481600301541015610443576040517f08c379a000000000000000000000000000000000000000000000000000000000815260040161043a9061102d565b60405180910390fd5b5f816004015442610454919061104b565b90505f8260050154821061046e5782600301549050610490565b8260050154828460030154610483919061107e565b61048d91906110ec565b90505b5f8360060154826104a1919061104b565b90505f81116104e5576040517f08c379a00000000000000000000000000000000000000000000000000000000081526004016104dc90611166565b60405180910390fd5b5f8054906101000a900473ffffffffffffffffffffffffffffffffffffffff1673ffffffffffffffffffffffffffffffffffffffff1663a9059cbb856001015f9054906101000a900473ffffffffffffffffffffffffffffffffffffffff16836040518363ffffffff1660e01b8152600401610562929190611184565b6020604051808303815f875af192505050801561059d57506040513d601f19601f8201168201806040525081019061059a91906111e0565b60015b61062e576105a9611217565b806308c379a00361062457506105bd6112a4565b806105c85750610626565b806040516020016105d991906113cf565b6040516020818303038152906040526040517f08c379a000000000000000000000000000000000000000000000000000000000815260040161061b9190611428565b60405180910390fd5b505b3d5f803e3d5ffd5b5080846006015f8282546106429190611448565b925050819055507fa4eb50103b0591feb0bc913f479d92af5eb7ea33e8c397b49bab52ce6af26cb585338360405161067c9392919061147b565b60405180910390a15050505050565b610693610a4a565b60018054905082106106da576040517f08c379a00000000000000000000000000000000000000000000000000000000081526004016106d190610f0a565b60405180910390fd5b600182815481106106ee576106ed610f28565b5b905f5260205f2090600702016040518060e00160405290815f8201548152602001600182015f9054906101000a900473ffffffffffffffffffffffffffffffffffffffff1673ffffffffffffffffffffffffffffffffffffffff1673ffffffffffffffffffffffffffffffffffffffff168152602001600282015481526020016003820154815260200160048201548152602001600582015481526020016006820154815250509050919050565b60018054905082106107e3576040517f08c379a00000000000000000000000000000000000000000000000000000000081526004016107da90610f0a565b60405180910390fd5b5f8111610825576040517f08c379a000000000000000000000000000000000000000000000000000000000815260040161081c90611520565b60405180910390fd5b5f6001838154811061083a57610839610f28565b5b905f5260205f2090600702019050806002015482826003015461085d9190611448565b111561089e576040517f08c379a000000000000000000000000000000000000000000000000000000000815260040161089590611588565b60405180910390fd5b5f8054906101000a900473ffffffffffffffffffffffffffffffffffffffff1673ffffffffffffffffffffffffffffffffffffffff166323b872dd3330856040518463ffffffff1660e01b81526004016108fa939291906115a6565b6020604051808303815f875af192505050801561093557506040513d601f19601f8201168201806040525081019061093291906111e0565b60015b6109c657610941611217565b806308c379a0036109bc57506109556112a4565b8061096057506109be565b8060405160200161097191906113cf565b6040516020818303038152906040526040517f08c379a00000000000000000000000000000000000000000000000000000000081526004016109b39190611428565b60405180910390fd5b505b3d5f803e3d5ffd5b5081816003015f8282546109da9190611448565b925050819055507f0a4a91237423e0a1766a761c7cb029311d8b95d6b1b81db1b949a70c98b4e08e833384604051610a149392919061147b565b60405180910390a1505050565b60025481565b5f8054906101000a900473ffffffffffffffffffffffffffffffffffffffff1681565b6040518060e001604052805f81526020015f73ffffffffffffffffffffffffffffffffffffffff1681526020015f81526020015f81526020015f81526020015f81526020015f81525090565b5f604051905090565b5f80fd5b5f819050919050565b610ab581610aa3565b8114610abf575f80fd5b50565b5f81359050610ad081610aac565b92915050565b5f8060408385031215610aec57610aeb610a9f565b5b5f610af985828601610ac2565b9250506020610b0a85828601610ac2565b9150509250929050565b5f60208284031215610b2957610b28610a9f565b5b5f610b3684828501610ac2565b91505092915050565b610b4881610aa3565b82525050565b5f73ffffffffffffffffffffffffffffffffffffffff82169050919050565b5f610b7782610b4e565b9050919050565b610b8781610b6d565b82525050565b60e082015f820151610ba15f850182610b3f565b506020820151610bb46020850182610b7e565b506040820151610bc76040850182610b3f565b506060820151610bda6060850182610b3f565b506080820151610bed6080850182610b3f565b5060a0820151610c0060a0850182610b3f565b5060c0820151610c1360c0850182610b3f565b50505050565b5f60e082019050610c2c5f830184610b8d565b92915050565b610c3b81610aa3565b82525050565b5f602082019050610c545f830184610c32565b92915050565b5f819050919050565b5f610c7d610c78610c7384610b4e565b610c5a565b610b4e565b9050919050565b5f610c8e82610c63565b9050919050565b5f610c9f82610c84565b9050919050565b610caf81610c95565b82525050565b5f602082019050610cc85f830184610ca6565b92915050565b5f82825260208201905092915050565b7f476f616c20616d6f756e74206d7573742062652067726561746572207468616e5f8201527f207a65726f000000000000000000000000000000000000000000000000000000602082015250565b5f610d38602583610cce565b9150610d4382610cde565b604082019050919050565b5f6020820190508181035f830152610d6581610d2c565b9050919050565b7f56657374696e67206475726174696f6e206d75737420626520677265617465725f8201527f207468616e207a65726f00000000000000000000000000000000000000000000602082015250565b5f610dc6602a83610cce565b9150610dd182610d6c565b604082019050919050565b5f6020820190508181035f830152610df381610dba565b9050919050565b7f4e487b71000000000000000000000000000000000000000000000000000000005f52601160045260245ffd5b5f610e3182610aa3565b91507fffffffffffffffffffffffffffffffffffffffffffffffffffffffffffffffff8203610e6357610e62610dfa565b5b600182019050919050565b610e7781610b6d565b82525050565b5f608082019050610e905f830187610c32565b610e9d6020830186610e6e565b610eaa6040830185610c32565b610eb76060830184610c32565b95945050505050565b7f50726f6a65637420646f6573206e6f74206578697374000000000000000000005f82015250565b5f610ef4601683610cce565b9150610eff82610ec0565b602082019050919050565b5f6020820190508181035f830152610f2181610ee8565b9050919050565b7f4e487b71000000000000000000000000000000000000000000000000000000005f52603260045260245ffd5b7f4f6e6c79207468652070726f6a6563742063726561746f722063616e20636c615f8201527f696d2066756e6473000000000000000000000000000000000000000000000000602082015250565b5f610faf602883610cce565b9150610fba82610f55565b604082019050919050565b5f6020820190508181035f830152610fdc81610fa3565b9050919050565b7f50726f6a65637420676f616c206e6f74206d65740000000000000000000000005f82015250565b5f611017601483610cce565b915061102282610fe3565b602082019050919050565b5f6020820190508181035f8301526110448161100b565b9050919050565b5f61105582610aa3565b915061106083610aa3565b925082820390508181111561107857611077610dfa565b5b92915050565b5f61108882610aa3565b915061109383610aa3565b92508282026110a181610aa3565b915082820484148315176110b8576110b7610dfa565b5b5092915050565b7f4e487b71000000000000000000000000000000000000000000000000000000005f52601260045260245ffd5b5f6110f682610aa3565b915061110183610aa3565b925082611111576111106110bf565b5b828204905092915050565b7f4e6f20746f6b656e7320617661696c61626c6520666f722072656c65617365005f82015250565b5f611150601f83610cce565b915061115b8261111c565b602082019050919050565b5f6020820190508181035f83015261117d81611144565b9050919050565b5f6040820190506111975f830185610e6e565b6111a46020830184610c32565b9392505050565b5f8115159050919050565b6111bf816111ab565b81146111c9575f80fd5b50565b5f815190506111da816111b6565b92915050565b5f602082840312156111f5576111f4610a9f565b5b5f611202848285016111cc565b91505092915050565b5f8160e01c9050919050565b5f60033d11156112335760045f803e6112305f5161120b565b90505b90565b5f601f19601f8301169050919050565b7f4e487b71000000000000000000000000000000000000000000000000000000005f52604160045260245ffd5b61127c82611236565b810181811067ffffffffffffffff8211171561129b5761129a611246565b5b80604052505050565b5f60443d10611330576112b5610a96565b60043d036004823e80513d602482011167ffffffffffffffff821117156112dd575050611330565b808201805167ffffffffffffffff8111156112fb5750505050611330565b80602083010160043d038501811115611318575050505050611330565b61132782602001850186611273565b82955050505050505b90565b5f81905092915050565b7f546f6b656e207472616e73666572206661696c65643a200000000000000000005f82015250565b5f611371601783611333565b915061137c8261133d565b601782019050919050565b5f81519050919050565b8281835e5f83830152505050565b5f6113a982611387565b6113b38185611333565b93506113c3818560208601611391565b80840191505092915050565b5f6113d982611365565b91506113e5828461139f565b915081905092915050565b5f6113fa82611387565b6114048185610cce565b9350611414818560208601611391565b61141d81611236565b840191505092915050565b5f6020820190508181035f83015261144081846113f0565b905092915050565b5f61145282610aa3565b915061145d83610aa3565b925082820190508082111561147557611474610dfa565b5b92915050565b5f60608201905061148e5f830186610c32565b61149b6020830185610e6e565b6114a86040830184610c32565b949350505050565b7f436f6e747269627574696f6e206d7573742062652067726561746572207468615f8201527f6e207a65726f0000000000000000000000000000000000000000000000000000602082015250565b5f61150a602683610cce565b9150611515826114b0565b604082019050919050565b5f6020820190508181035f830152611537816114fe565b9050919050565b7f4f7665722070726f6a65637420676f616c0000000000000000000000000000005f82015250565b5f611572601183610cce565b915061157d8261153e565b602082019050919050565b5f6020820190508181035f83015261159f81611566565b9050919050565b5f6060820190506115b95f830186610e6e565b6115c66020830185610e6e565b6115d36040830184610c32565b94935050505056fea2646970667358221220abea63c988fba3728429d856591e4a6db0b6792aeb4f0aa75f0dc168a43dee4364736f6c634300081a0033",
			"opcodes": "PUSH1 0x80 PUSH1 0x40 MSTORE CALLVALUE DUP1 ISZERO PUSH2 0xF JUMPI PUSH0 DUP1 REVERT JUMPDEST POP PUSH1 0x40 MLOAD PUSH2 0x1803 CODESIZE SUB DUP1 PUSH2 0x1803 DUP4 CODECOPY DUP2 DUP2 ADD PUSH1 0x40 MSTORE DUP2 ADD SWAP1 PUSH2 0x31 SWAP2 SWAP1 PUSH2 0x142 JUMP JUMPDEST PUSH0 PUSH20 0xFFFFFFFFFFFFFFFFFFFFFFFFFFFFFFFFFFFFFFFF AND DUP2 PUSH20 0xFFFFFFFFFFFFFFFFFFFFFFFFFFFFFFFFFFFFFFFF AND SUB PUSH2 0x9F JUMPI PUSH1 0x40 MLOAD PUSH32 0x8C379A000000000000000000000000000000000000000000000000000000000 DUP2 MSTORE PUSH1 0x4 ADD PUSH2 0x96 SWAP1 PUSH2 0x1C7 JUMP JUMPDEST PUSH1 0x40 MLOAD DUP1 SWAP2 SUB SWAP1 REVERT JUMPDEST DUP1 PUSH0 DUP1 PUSH2 0x100 EXP DUP2 SLOAD DUP2 PUSH20 0xFFFFFFFFFFFFFFFFFFFFFFFFFFFFFFFFFFFFFFFF MUL NOT AND SWAP1 DUP4 PUSH20 0xFFFFFFFFFFFFFFFFFFFFFFFFFFFFFFFFFFFFFFFF AND MUL OR SWAP1 SSTORE POP POP PUSH2 0x1E5 JUMP JUMPDEST PUSH0 DUP1 REVERT JUMPDEST PUSH0 PUSH20 0xFFFFFFFFFFFFFFFFFFFFFFFFFFFFFFFFFFFFFFFF DUP3 AND SWAP1 POP SWAP2 SWAP1 POP JUMP JUMPDEST PUSH0 PUSH2 0x111 DUP3 PUSH2 0xE8 JUMP JUMPDEST SWAP1 POP SWAP2 SWAP1 POP JUMP JUMPDEST PUSH2 0x121 DUP2 PUSH2 0x107 JUMP JUMPDEST DUP2 EQ PUSH2 0x12B JUMPI PUSH0 DUP1 REVERT JUMPDEST POP JUMP JUMPDEST PUSH0 DUP2 MLOAD SWAP1 POP PUSH2 0x13C DUP2 PUSH2 0x118 JUMP JUMPDEST SWAP3 SWAP2 POP POP JUMP JUMPDEST PUSH0 PUSH1 0x20 DUP3 DUP5 SUB SLT ISZERO PUSH2 0x157 JUMPI PUSH2 0x156 PUSH2 0xE4 JUMP JUMPDEST JUMPDEST PUSH0 PUSH2 0x164 DUP5 DUP3 DUP6 ADD PUSH2 0x12E JUMP JUMPDEST SWAP2 POP POP SWAP3 SWAP2 POP POP JUMP JUMPDEST PUSH0 DUP3 DUP3 MSTORE PUSH1 0x20 DUP3 ADD SWAP1 POP SWAP3 SWAP2 POP POP JUMP JUMPDEST PUSH32 0x496E76616C696420746F6B656E20616464726573730000000000000000000000 PUSH0 DUP3 ADD MSTORE POP JUMP JUMPDEST PUSH0 PUSH2 0x1B1 PUSH1 0x15 DUP4 PUSH2 0x16D JUMP JUMPDEST SWAP2 POP PUSH2 0x1BC DUP3 PUSH2 0x17D JUMP JUMPDEST PUSH1 0x20 DUP3 ADD SWAP1 POP SWAP2 SWAP1 POP JUMP JUMPDEST PUSH0 PUSH1 0x20 DUP3 ADD SWAP1 POP DUP2 DUP2 SUB PUSH0 DUP4 ADD MSTORE PUSH2 0x1DE DUP2 PUSH2 0x1A5 JUMP JUMPDEST SWAP1 POP SWAP2 SWAP1 POP JUMP JUMPDEST PUSH2 0x1611 DUP1 PUSH2 0x1F2 PUSH0 CODECOPY PUSH0 RETURN INVALID PUSH1 0x80 PUSH1 0x40 MSTORE CALLVALUE DUP1 ISZERO PUSH2 0xF JUMPI PUSH0 DUP1 REVERT JUMPDEST POP PUSH1 0x4 CALLDATASIZE LT PUSH2 0x60 JUMPI PUSH0 CALLDATALOAD PUSH1 0xE0 SHR DUP1 PUSH4 0x2DA667B EQ PUSH2 0x64 JUMPI DUP1 PUSH4 0x1B55E338 EQ PUSH2 0x80 JUMPI DUP1 PUSH4 0x5F8439E3 EQ PUSH2 0x9C JUMPI DUP1 PUSH4 0x8C590917 EQ PUSH2 0xCC JUMPI DUP1 PUSH4 0xD5977B5E EQ PUSH2 0xE8 JUMPI DUP1 PUSH4 0xFC0C546A EQ PUSH2 0x106 JUMPI JUMPDEST PUSH0 DUP1 REVERT JUMPDEST PUSH2 0x7E PUSH1 0x4 DUP1 CALLDATASIZE SUB DUP2 ADD SWAP1 PUSH2 0x79 SWAP2 SWAP1 PUSH2 0xAD6 JUMP JUMPDEST PUSH2 0x124 JUMP JUMPDEST STOP JUMPDEST PUSH2 0x9A PUSH1 0x4 DUP1 CALLDATASIZE SUB DUP2 ADD SWAP1 PUSH2 0x95 SWAP2 SWAP1 PUSH2 0xB14 JUMP JUMPDEST PUSH2 0x2FD JUMP JUMPDEST STOP JUMPDEST PUSH2 0xB6 PUSH1 0x4 DUP1 CALLDATASIZE SUB DUP2 ADD SWAP1 PUSH2 0xB1 SWAP2 SWAP1 PUSH2 0xB14 JUMP JUMPDEST PUSH2 0x68B JUMP JUMPDEST PUSH1 0x40 MLOAD PUSH2 0xC3 SWAP2 SWAP1 PUSH2 0xC19 JUMP JUMPDEST PUSH1 0x40 MLOAD DUP1 SWAP2 SUB SWAP1 RETURN JUMPDEST PUSH2 0xE6 PUSH1 0x4 DUP1 CALLDATASIZE SUB DUP2 ADD SWAP1 PUSH2 0xE1 SWAP2 SWAP1 PUSH2 0xAD6 JUMP JUMPDEST PUSH2 0x79C JUMP JUMPDEST STOP JUMPDEST PUSH2 0xF0 PUSH2 0xA21 JUMP JUMPDEST PUSH1 0x40 MLOAD PUSH2 0xFD SWAP2 SWAP1 PUSH2 0xC41 JUMP JUMPDEST PUSH1 0x40 MLOAD DUP1 SWAP2 SUB SWAP1 RETURN JUMPDEST PUSH2 0x10E PUSH2 0xA27 JUMP JUMPDEST PUSH1 0x40 MLOAD PUSH2 0x11B SWAP2 SWAP1 PUSH2 0xCB5 JUMP JUMPDEST PUSH1 0x40 MLOAD DUP1 SWAP2 SUB SWAP1 RETURN JUMPDEST PUSH0 DUP3 GT PUSH2 0x166 JUMPI PUSH1 0x40 MLOAD PUSH32 0x8C379A000000000000000000000000000000000000000000000000000000000 DUP2 MSTORE PUSH1 0x4 ADD PUSH2 0x15D SWAP1 PUSH2 0xD4E JUMP JUMPDEST PUSH1 0x40 MLOAD DUP1 SWAP2 SUB SWAP1 REVERT JUMPDEST PUSH0 DUP2 GT PUSH2 0x1A8 JUMPI PUSH1 0x40 MLOAD PUSH32 0x8C379A000000000000000000000000000000000000000000000000000000000 DUP2 MSTORE PUSH1 0x4 ADD PUSH2 0x19F SWAP1 PUSH2 0xDDC JUMP JUMPDEST PUSH1 0x40 MLOAD DUP1 SWAP2 SUB SWAP1 REVERT JUMPDEST PUSH0 PUSH1 0x40 MLOAD DUP1 PUSH1 0xE0 ADD PUSH1 0x40 MSTORE DUP1 PUSH1 0x2 SLOAD DUP2 MSTORE PUSH1 0x20 ADD CALLER PUSH20 0xFFFFFFFFFFFFFFFFFFFFFFFFFFFFFFFFFFFFFFFF AND DUP2 MSTORE PUSH1 0x20 ADD DUP5 DUP2 MSTORE PUSH1 0x20 ADD PUSH0 DUP2 MSTORE PUSH1 0x20 ADD TIMESTAMP DUP2 MSTORE PUSH1 0x20 ADD DUP4 DUP2 MSTORE PUSH1 0x20 ADD PUSH0 DUP2 MSTORE POP SWAP1 POP PUSH1 0x1 DUP2 SWAP1 DUP1 PUSH1 0x1 DUP2 SLOAD ADD DUP1 DUP3 SSTORE DUP1 SWAP2 POP POP PUSH1 0x1 SWAP1 SUB SWAP1 PUSH0 MSTORE PUSH1 0x20 PUSH0 KECCAK256 SWAP1 PUSH1 0x7 MUL ADD PUSH0 SWAP1 SWAP2 SWAP1 SWAP2 SWAP1 SWAP2 POP PUSH0 DUP3 ADD MLOAD DUP2 PUSH0 ADD SSTORE PUSH1 0x20 DUP3 ADD MLOAD DUP2 PUSH1 0x1 ADD PUSH0 PUSH2 0x100 EXP DUP2 SLOAD DUP2 PUSH20 0xFFFFFFFFFFFFFFFFFFFFFFFFFFFFFFFFFFFFFFFF MUL NOT AND SWAP1 DUP4 PUSH20 0xFFFFFFFFFFFFFFFFFFFFFFFFFFFFFFFFFFFFFFFF AND MUL OR SWAP1 SSTORE POP PUSH1 0x40 DUP3 ADD MLOAD DUP2 PUSH1 0x2 ADD SSTORE PUSH1 0x60 DUP3 ADD MLOAD DUP2 PUSH1 0x3 ADD SSTORE PUSH1 0x80 DUP3 ADD MLOAD DUP2 PUSH1 0x4 ADD SSTORE PUSH1 0xA0 DUP3 ADD MLOAD DUP2 PUSH1 0x5 ADD SSTORE PUSH1 0xC0 DUP3 ADD MLOAD DUP2 PUSH1 0x6 ADD SSTORE POP POP PUSH1 0x2 PUSH0 DUP2 SLOAD DUP1 SWAP3 SWAP2 SWAP1 PUSH2 0x2B3 SWAP1 PUSH2 0xE27 JUMP JUMPDEST SWAP2 SWAP1 POP SSTORE POP PUSH32 0xB5D890EB2DF709D2F732ED81F328B444E49C1618ED8D64C53C0A040EC4040E1E DUP2 PUSH0 ADD MLOAD CALLER DUP6 DUP6 PUSH1 0x40 MLOAD PUSH2 0x2F0 SWAP5 SWAP4 SWAP3 SWAP2 SWAP1 PUSH2 0xE7D JUMP JUMPDEST PUSH1 0x40 MLOAD DUP1 SWAP2 SUB SWAP1 LOG1 POP POP POP JUMP JUMPDEST PUSH1 0x1 DUP1 SLOAD SWAP1 POP DUP2 LT PUSH2 0x344 JUMPI PUSH1 0x40 MLOAD PUSH32 0x8C379A000000000000000000000000000000000000000000000000000000000 DUP2 MSTORE PUSH1 0x4 ADD PUSH2 0x33B SWAP1 PUSH2 0xF0A JUMP JUMPDEST PUSH1 0x40 MLOAD DUP1 SWAP2 SUB SWAP1 REVERT JUMPDEST PUSH0 PUSH1 0x1 DUP3 DUP2 SLOAD DUP2 LT PUSH2 0x359 JUMPI PUSH2 0x358 PUSH2 0xF28 JUMP JUMPDEST JUMPDEST SWAP1 PUSH0 MSTORE PUSH1 0x20 PUSH0 KECCAK256 SWAP1 PUSH1 0x7 MUL ADD SWAP1 POP DUP1 PUSH1 0x1 ADD PUSH0 SWAP1 SLOAD SWAP1 PUSH2 0x100 EXP SWAP1 DIV PUSH20 0xFFFFFFFFFFFFFFFFFFFFFFFFFFFFFFFFFFFFFFFF AND PUSH20 0xFFFFFFFFFFFFFFFFFFFFFFFFFFFFFFFFFFFFFFFF AND CALLER PUSH20 0xFFFFFFFFFFFFFFFFFFFFFFFFFFFFFFFFFFFFFFFF AND EQ PUSH2 0x3F8 JUMPI PUSH1 0x40 MLOAD PUSH32 0x8C379A000000000000000000000000000000000000000000000000000000000 DUP2 MSTORE PUSH1 0x4 ADD PUSH2 0x3EF SWAP1 PUSH2 0xFC5 JUMP JUMPDEST PUSH1 0x40 MLOAD DUP1 SWAP2 SUB SWAP1 REVERT JUMPDEST DUP1 PUSH1 0x2 ADD SLOAD DUP2 PUSH1 0x3 ADD SLOAD LT ISZERO PUSH2 0x443 JUMPI PUSH1 0x40 MLOAD PUSH32 0x8C379A000000000000000000000000000000000000000000000000000000000 DUP2 MSTORE PUSH1 0x4 ADD PUSH2 0x43A SWAP1 PUSH2 0x102D JUMP JUMPDEST PUSH1 0x40 MLOAD DUP1 SWAP2 SUB SWAP1 REVERT JUMPDEST PUSH0 DUP2 PUSH1 0x4 ADD SLOAD TIMESTAMP PUSH2 0x454 SWAP2 SWAP1 PUSH2 0x104B JUMP JUMPDEST SWAP1 POP PUSH0 DUP3 PUSH1 0x5 ADD SLOAD DUP3 LT PUSH2 0x46E JUMPI DUP3 PUSH1 0x3 ADD SLOAD SWAP1 POP PUSH2 0x490 JUMP JUMPDEST DUP3 PUSH1 0x5 ADD SLOAD DUP3 DUP5 PUSH1 0x3 ADD SLOAD PUSH2 0x483 SWAP2 SWAP1 PUSH2 0x107E JUMP JUMPDEST PUSH2 0x48D SWAP2 SWAP1 PUSH2 0x10EC JUMP JUMPDEST SWAP1 POP JUMPDEST PUSH0 DUP4 PUSH1 0x6 ADD SLOAD DUP3 PUSH2 0x4A1 SWAP2 SWAP1 PUSH2 0x104B JUMP JUMPDEST SWAP1 POP PUSH0 DUP2 GT PUSH2 0x4E5 JUMPI PUSH1 0x40 MLOAD PUSH32 0x8C379A000000000000000000000000000000000000000000000000000000000 DUP2 MSTORE PUSH1 0x4 ADD PUSH2 0x4DC SWAP1 PUSH2 0x1166 JUMP JUMPDEST PUSH1 0x40 MLOAD DUP1 SWAP2 SUB SWAP1 REVERT JUMPDEST PUSH0 DUP1 SLOAD SWAP1 PUSH2 0x100 EXP SWAP1 DIV PUSH20 0xFFFFFFFFFFFFFFFFFFFFFFFFFFFFFFFFFFFFFFFF AND PUSH20 0xFFFFFFFFFFFFFFFFFFFFFFFFFFFFFFFFFFFFFFFF AND PUSH4 0xA9059CBB DUP6 PUSH1 0x1 ADD PUSH0 SWAP1 SLOAD SWAP1 PUSH2 0x100 EXP SWAP1 DIV PUSH20 0xFFFFFFFFFFFFFFFFFFFFFFFFFFFFFFFFFFFFFFFF AND DUP4 PUSH1 0x40 MLOAD DUP4 PUSH4 0xFFFFFFFF AND PUSH1 0xE0 SHL DUP2 MSTORE PUSH1 0x4 ADD PUSH2 0x562 SWAP3 SWAP2 SWAP1 PUSH2 0x1184 JUMP JUMPDEST PUSH1 0x20 PUSH1 0x40 MLOAD DUP1 DUP4 SUB DUP2 PUSH0 DUP8 GAS CALL SWAP3 POP POP POP DUP1 ISZERO PUSH2 0x59D JUMPI POP PUSH1 0x40 MLOAD RETURNDATASIZE PUSH1 0x1F NOT PUSH1 0x1F DUP3 ADD AND DUP3 ADD DUP1 PUSH1 0x40 MSTORE POP DUP2 ADD SWAP1 PUSH2 0x59A SWAP2 SWAP1 PUSH2 0x11E0 JUMP JUMPDEST PUSH1 0x1 JUMPDEST PUSH2 0x62E JUMPI PUSH2 0x5A9 PUSH2 0x1217 JUMP JUMPDEST DUP1 PUSH4 0x8C379A0 SUB PUSH2 0x624 JUMPI POP PUSH2 0x5BD PUSH2 0x12A4 JUMP JUMPDEST DUP1 PUSH2 0x5C8 JUMPI POP PUSH2 0x626 JUMP JUMPDEST DUP1 PUSH1 0x40 MLOAD PUSH1 0x20 ADD PUSH2 0x5D9 SWAP2 SWAP1 PUSH2 0x13CF JUMP JUMPDEST PUSH1 0x40 MLOAD PUSH1 0x20 DUP2 DUP4 SUB SUB DUP2 MSTORE SWAP1 PUSH1 0x40 MSTORE PUSH1 0x40 MLOAD PUSH32 0x8C379A000000000000000000000000000000000000000000000000000000000 DUP2 MSTORE PUSH1 0x4 ADD PUSH2 0x61B SWAP2 SWAP1 PUSH2 0x1428 JUMP JUMPDEST PUSH1 0x40 MLOAD DUP1 SWAP2 SUB SWAP1 REVERT JUMPDEST POP JUMPDEST RETURNDATASIZE PUSH0 DUP1 RETURNDATACOPY RETURNDATASIZE PUSH0 REVERT JUMPDEST POP DUP1 DUP5 PUSH1 0x6 ADD PUSH0 DUP3 DUP3 SLOAD PUSH2 0x642 SWAP2 SWAP1 PUSH2 0x1448 JUMP JUMPDEST SWAP3 POP POP DUP2 SWAP1 SSTORE POP PUSH32 0xA4EB50103B0591FEB0BC913F479D92AF5EB7EA33E8C397B49BAB52CE6AF26CB5 DUP6 CALLER DUP4 PUSH1 0x40 MLOAD PUSH2 0x67C SWAP4 SWAP3 SWAP2 SWAP1 PUSH2 0x147B JUMP JUMPDEST PUSH1 0x40 MLOAD DUP1 SWAP2 SUB SWAP1 LOG1 POP POP POP POP POP JUMP JUMPDEST PUSH2 0x693 PUSH2 0xA4A JUMP JUMPDEST PUSH1 0x1 DUP1 SLOAD SWAP1 POP DUP3 LT PUSH2 0x6DA JUMPI PUSH1 0x40 MLOAD PUSH32 0x8C379A000000000000000000000000000000000000000000000000000000000 DUP2 MSTORE PUSH1 0x4 ADD PUSH2 0x6D1 SWAP1 PUSH2 0xF0A JUMP JUMPDEST PUSH1 0x40 MLOAD DUP1 SWAP2 SUB SWAP1 REVERT JUMPDEST PUSH1 0x1 DUP3 DUP2 SLOAD DUP2 LT PUSH2 0x6EE JUMPI PUSH2 0x6ED PUSH2 0xF28 JUMP JUMPDEST JUMPDEST SWAP1 PUSH0 MSTORE PUSH1 0x20 PUSH0 KECCAK256 SWAP1 PUSH1 0x7 MUL ADD PUSH1 0x40 MLOAD DUP1 PUSH1 0xE0 ADD PUSH1 0x40 MSTORE SWAP1 DUP2 PUSH0 DUP3 ADD SLOAD DUP2 MSTORE PUSH1 0x20 ADD PUSH1 0x1 DUP3 ADD PUSH0 SWAP1 SLOAD SWAP1 PUSH2 0x100 EXP SWAP1 DIV PUSH20 0xFFFFFFFFFFFFFFFFFFFFFFFFFFFFFFFFFFFFFFFF AND PUSH20 0xFFFFFFFFFFFFFFFFFFFFFFFFFFFFFFFFFFFFFFFF AND PUSH20 0xFFFFFFFFFFFFFFFFFFFFFFFFFFFFFFFFFFFFFFFF AND DUP2 MSTORE PUSH1 0x20 ADD PUSH1 0x2 DUP3 ADD SLOAD DUP2 MSTORE PUSH1 0x20 ADD PUSH1 0x3 DUP3 ADD SLOAD DUP2 MSTORE PUSH1 0x20 ADD PUSH1 0x4 DUP3 ADD SLOAD DUP2 MSTORE PUSH1 0x20 ADD PUSH1 0x5 DUP3 ADD SLOAD DUP2 MSTORE PUSH1 0x20 ADD PUSH1 0x6 DUP3 ADD SLOAD DUP2 MSTORE POP POP SWAP1 POP SWAP2 SWAP1 POP JUMP JUMPDEST PUSH1 0x1 DUP1 SLOAD SWAP1 POP DUP3 LT PUSH2 0x7E3 JUMPI PUSH1 0x40 MLOAD PUSH32 0x8C379A000000000000000000000000000000000000000000000000000000000 DUP2 MSTORE PUSH1 0x4 ADD PUSH2 0x7DA SWAP1 PUSH2 0xF0A JUMP JUMPDEST PUSH1 0x40 MLOAD DUP1 SWAP2 SUB SWAP1 REVERT JUMPDEST PUSH0 DUP2 GT PUSH2 0x825 JUMPI PUSH1 0x40 MLOAD PUSH32 0x8C379A000000000000000000000000000000000000000000000000000000000 DUP2 MSTORE PUSH1 0x4 ADD PUSH2 0x81C SWAP1 PUSH2 0x1520 JUMP JUMPDEST PUSH1 0x40 MLOAD DUP1 SWAP2 SUB SWAP1 REVERT JUMPDEST PUSH0 PUSH1 0x1 DUP4 DUP2 SLOAD DUP2 LT PUSH2 0x83A JUMPI PUSH2 0x839 PUSH2 0xF28 JUMP JUMPDEST JUMPDEST SWAP1 PUSH0 MSTORE PUSH1 0x20 PUSH0 KECCAK256 SWAP1 PUSH1 0x7 MUL ADD SWAP1 POP DUP1 PUSH1 0x2 ADD SLOAD DUP3 DUP3 PUSH1 0x3 ADD SLOAD PUSH2 0x85D SWAP2 SWAP1 PUSH2 0x1448 JUMP JUMPDEST GT ISZERO PUSH2 0x89E JUMPI PUSH1 0x40 MLOAD PUSH32 0x8C379A000000000000000000000000000000000000000000000000000000000 DUP2 MSTORE PUSH1 0x4 ADD PUSH2 0x895 SWAP1 PUSH2 0x1588 JUMP JUMPDEST PUSH1 0x40 MLOAD DUP1 SWAP2 SUB SWAP1 REVERT JUMPDEST PUSH0 DUP1 SLOAD SWAP1 PUSH2 0x100 EXP SWAP1 DIV PUSH20 0xFFFFFFFFFFFFFFFFFFFFFFFFFFFFFFFFFFFFFFFF AND PUSH20 0xFFFFFFFFFFFFFFFFFFFFFFFFFFFFFFFFFFFFFFFF AND PUSH4 0x23B872DD CALLER ADDRESS DUP6 PUSH1 0x40 MLOAD DUP5 PUSH4 0xFFFFFFFF AND PUSH1 0xE0 SHL DUP2 MSTORE PUSH1 0x4 ADD PUSH2 0x8FA SWAP4 SWAP3 SWAP2 SWAP1 PUSH2 0x15A6 JUMP JUMPDEST PUSH1 0x20 PUSH1 0x40 MLOAD DUP1 DUP4 SUB DUP2 PUSH0 DUP8 GAS CALL SWAP3 POP POP POP DUP1 ISZERO PUSH2 0x935 JUMPI POP PUSH1 0x40 MLOAD RETURNDATASIZE PUSH1 0x1F NOT PUSH1 0x1F DUP3 ADD AND DUP3 ADD DUP1 PUSH1 0x40 MSTORE POP DUP2 ADD SWAP1 PUSH2 0x932 SWAP2 SWAP1 PUSH2 0x11E0 JUMP JUMPDEST PUSH1 0x1 JUMPDEST PUSH2 0x9C6 JUMPI PUSH2 0x941 PUSH2 0x1217 JUMP JUMPDEST DUP1 PUSH4 0x8C379A0 SUB PUSH2 0x9BC JUMPI POP PUSH2 0x955 PUSH2 0x12A4 JUMP JUMPDEST DUP1 PUSH2 0x960 JUMPI POP PUSH2 0x9BE JUMP JUMPDEST DUP1 PUSH1 0x40 MLOAD PUSH1 0x20 ADD PUSH2 0x971 SWAP2 SWAP1 PUSH2 0x13CF JUMP JUMPDEST PUSH1 0x40 MLOAD PUSH1 0x20 DUP2 DUP4 SUB SUB DUP2 MSTORE SWAP1 PUSH1 0x40 MSTORE PUSH1 0x40 MLOAD PUSH32 0x8C379A000000000000000000000000000000000000000000000000000000000 DUP2 MSTORE PUSH1 0x4 ADD PUSH2 0x9B3 SWAP2 SWAP1 PUSH2 0x1428 JUMP JUMPDEST PUSH1 0x40 MLOAD DUP1 SWAP2 SUB SWAP1 REVERT JUMPDEST POP JUMPDEST RETURNDATASIZE PUSH0 DUP1 RETURNDATACOPY RETURNDATASIZE PUSH0 REVERT JUMPDEST POP DUP2 DUP2 PUSH1 0x3 ADD PUSH0 DUP3 DUP3 SLOAD PUSH2 0x9DA SWAP2 SWAP1 PUSH2 0x1448 JUMP JUMPDEST SWAP3 POP POP DUP2 SWAP1 SSTORE POP PUSH32 0xA4A91237423E0A1766A761C7CB029311D8B95D6B1B81DB1B949A70C98B4E08E DUP4 CALLER DUP5 PUSH1 0x40 MLOAD PUSH2 0xA14 SWAP4 SWAP3 SWAP2 SWAP1 PUSH2 0x147B JUMP JUMPDEST PUSH1 0x40 MLOAD DUP1 SWAP2 SUB SWAP1 LOG1 POP POP POP JUMP JUMPDEST PUSH1 0x2 SLOAD DUP2 JUMP JUMPDEST PUSH0 DUP1 SLOAD SWAP1 PUSH2 0x100 EXP SWAP1 DIV PUSH20 0xFFFFFFFFFFFFFFFFFFFFFFFFFFFFFFFFFFFFFFFF AND DUP2 JUMP JUMPDEST PUSH1 0x40 MLOAD DUP1 PUSH1 0xE0 ADD PUSH1 0x40 MSTORE DUP1 PUSH0 DUP2 MSTORE PUSH1 0x20 ADD PUSH0 PUSH20 0xFFFFFFFFFFFFFFFFFFFFFFFFFFFFFFFFFFFFFFFF AND DUP2 MSTORE PUSH1 0x20 ADD PUSH0 DUP2 MSTORE PUSH1 0x20 ADD PUSH0 DUP2 MSTORE PUSH1 0x20 ADD PUSH0 DUP2 MSTORE PUSH1 0x20 ADD PUSH0 DUP2 MSTORE PUSH1 0x20 ADD PUSH0 DUP2 MSTORE POP SWAP1 JUMP JUMPDEST PUSH0 PUSH1 0x40 MLOAD SWAP1 POP SWAP1 JUMP JUMPDEST PUSH0 DUP1 REVERT JUMPDEST PUSH0 DUP2 SWAP1 POP SWAP2 SWAP1 POP JUMP JUMPDEST PUSH2 0xAB5 DUP2 PUSH2 0xAA3 JUMP JUMPDEST DUP2 EQ PUSH2 0xABF JUMPI PUSH0 DUP1 REVERT JUMPDEST POP JUMP JUMPDEST PUSH0 DUP2 CALLDATALOAD SWAP1 POP PUSH2 0xAD0 DUP2 PUSH2 0xAAC JUMP JUMPDEST SWAP3 SWAP2 POP POP JUMP JUMPDEST PUSH0 DUP1 PUSH1 0x40 DUP4 DUP6 SUB SLT ISZERO PUSH2 0xAEC JUMPI PUSH2 0xAEB PUSH2 0xA9F JUMP JUMPDEST JUMPDEST PUSH0 PUSH2 0xAF9 DUP6 DUP3 DUP7 ADD PUSH2 0xAC2 JUMP JUMPDEST SWAP3 POP POP PUSH1 0x20 PUSH2 0xB0A DUP6 DUP3 DUP7 ADD PUSH2 0xAC2 JUMP JUMPDEST SWAP2 POP POP SWAP3 POP SWAP3 SWAP1 POP JUMP JUMPDEST PUSH0 PUSH1 0x20 DUP3 DUP5 SUB SLT ISZERO PUSH2 0xB29 JUMPI PUSH2 0xB28 PUSH2 0xA9F JUMP JUMPDEST JUMPDEST PUSH0 PUSH2 0xB36 DUP5 DUP3 DUP6 ADD PUSH2 0xAC2 JUMP JUMPDEST SWAP2 POP POP SWAP3 SWAP2 POP POP JUMP JUMPDEST PUSH2 0xB48 DUP2 PUSH2 0xAA3 JUMP JUMPDEST DUP3 MSTORE POP POP JUMP JUMPDEST PUSH0 PUSH20 0xFFFFFFFFFFFFFFFFFFFFFFFFFFFFFFFFFFFFFFFF DUP3 AND SWAP1 POP SWAP2 SWAP1 POP JUMP JUMPDEST PUSH0 PUSH2 0xB77 DUP3 PUSH2 0xB4E JUMP JUMPDEST SWAP1 POP SWAP2 SWAP1 POP JUMP JUMPDEST PUSH2 0xB87 DUP2 PUSH2 0xB6D JUMP JUMPDEST DUP3 MSTORE POP POP JUMP JUMPDEST PUSH1 0xE0 DUP3 ADD PUSH0 DUP3 ADD MLOAD PUSH2 0xBA1 PUSH0 DUP6 ADD DUP3 PUSH2 0xB3F JUMP JUMPDEST POP PUSH1 0x20 DUP3 ADD MLOAD PUSH2 0xBB4 PUSH1 0x20 DUP6 ADD DUP3 PUSH2 0xB7E JUMP JUMPDEST POP PUSH1 0x40 DUP3 ADD MLOAD PUSH2 0xBC7 PUSH1 0x40 DUP6 ADD DUP3 PUSH2 0xB3F JUMP JUMPDEST POP PUSH1 0x60 DUP3 ADD MLOAD PUSH2 0xBDA PUSH1 0x60 DUP6 ADD DUP3 PUSH2 0xB3F JUMP JUMPDEST POP PUSH1 0x80 DUP3 ADD MLOAD PUSH2 0xBED PUSH1 0x80 DUP6 ADD DUP3 PUSH2 0xB3F JUMP JUMPDEST POP PUSH1 0xA0 DUP3 ADD MLOAD PUSH2 0xC00 PUSH1 0xA0 DUP6 ADD DUP3 PUSH2 0xB3F JUMP JUMPDEST POP PUSH1 0xC0 DUP3 ADD MLOAD PUSH2 0xC13 PUSH1 0xC0 DUP6 ADD DUP3 PUSH2 0xB3F JUMP JUMPDEST POP POP POP POP JUMP JUMPDEST PUSH0 PUSH1 0xE0 DUP3 ADD SWAP1 POP PUSH2 0xC2C PUSH0 DUP4 ADD DUP5 PUSH2 0xB8D JUMP JUMPDEST SWAP3 SWAP2 POP POP JUMP JUMPDEST PUSH2 0xC3B DUP2 PUSH2 0xAA3 JUMP JUMPDEST DUP3 MSTORE POP POP JUMP JUMPDEST PUSH0 PUSH1 0x20 DUP3 ADD SWAP1 POP PUSH2 0xC54 PUSH0 DUP4 ADD DUP5 PUSH2 0xC32 JUMP JUMPDEST SWAP3 SWAP2 POP POP JUMP JUMPDEST PUSH0 DUP2 SWAP1 POP SWAP2 SWAP1 POP JUMP JUMPDEST PUSH0 PUSH2 0xC7D PUSH2 0xC78 PUSH2 0xC73 DUP5 PUSH2 0xB4E JUMP JUMPDEST PUSH2 0xC5A JUMP JUMPDEST PUSH2 0xB4E JUMP JUMPDEST SWAP1 POP SWAP2 SWAP1 POP JUMP JUMPDEST PUSH0 PUSH2 0xC8E DUP3 PUSH2 0xC63 JUMP JUMPDEST SWAP1 POP SWAP2 SWAP1 POP JUMP JUMPDEST PUSH0 PUSH2 0xC9F DUP3 PUSH2 0xC84 JUMP JUMPDEST SWAP1 POP SWAP2 SWAP1 POP JUMP JUMPDEST PUSH2 0xCAF DUP2 PUSH2 0xC95 JUMP JUMPDEST DUP3 MSTORE POP POP JUMP JUMPDEST PUSH0 PUSH1 0x20 DUP3 ADD SWAP1 POP PUSH2 0xCC8 PUSH0 DUP4 ADD DUP5 PUSH2 0xCA6 JUMP JUMPDEST SWAP3 SWAP2 POP POP JUMP JUMPDEST PUSH0 DUP3 DUP3 MSTORE PUSH1 0x20 DUP3 ADD SWAP1 POP SWAP3 SWAP2 POP POP JUMP JUMPDEST PUSH32 0x476F616C20616D6F756E74206D7573742062652067726561746572207468616E PUSH0 DUP3 ADD MSTORE PUSH32 0x207A65726F000000000000000000000000000000000000000000000000000000 PUSH1 0x20 DUP3 ADD MSTORE POP JUMP JUMPDEST PUSH0 PUSH2 0xD38 PUSH1 0x25 DUP4 PUSH2 0xCCE JUMP JUMPDEST SWAP2 POP PUSH2 0xD43 DUP3 PUSH2 0xCDE JUMP JUMPDEST PUSH1 0x40 DUP3 ADD SWAP1 POP SWAP2 SWAP1 POP JUMP JUMPDEST PUSH0 PUSH1 0x20 DUP3 ADD SWAP1 POP DUP2 DUP2 SUB PUSH0 DUP4 ADD MSTORE PUSH2 0xD65 DUP2 PUSH2 0xD2C JUMP JUMPDEST SWAP1 POP SWAP2 SWAP1 POP JUMP JUMPDEST PUSH32 0x56657374696E67206475726174696F6E206D7573742062652067726561746572 PUSH0 DUP3 ADD MSTORE PUSH32 0x207468616E207A65726F00000000000000000000000000000000000000000000 PUSH1 0x20 DUP3 ADD MSTORE POP JUMP JUMPDEST PUSH0 PUSH2 0xDC6 PUSH1 0x2A DUP4 PUSH2 0xCCE JUMP JUMPDEST SWAP2 POP PUSH2 0xDD1 DUP3 PUSH2 0xD6C JUMP JUMPDEST PUSH1 0x40 DUP3 ADD SWAP1 POP SWAP2 SWAP1 POP JUMP JUMPDEST PUSH0 PUSH1 0x20 DUP3 ADD SWAP1 POP DUP2 DUP2 SUB PUSH0 DUP4 ADD MSTORE PUSH2 0xDF3 DUP2 PUSH2 0xDBA JUMP JUMPDEST SWAP1 POP SWAP2 SWAP1 POP JUMP JUMPDEST PUSH32 0x4E487B7100000000000000000000000000000000000000000000000000000000 PUSH0 MSTORE PUSH1 0x11 PUSH1 0x4 MSTORE PUSH1 0x24 PUSH0 REVERT JUMPDEST PUSH0 PUSH2 0xE31 DUP3 PUSH2 0xAA3 JUMP JUMPDEST SWAP2 POP PUSH32 0xFFFFFFFFFFFFFFFFFFFFFFFFFFFFFFFFFFFFFFFFFFFFFFFFFFFFFFFFFFFFFFFF DUP3 SUB PUSH2 0xE63 JUMPI PUSH2 0xE62 PUSH2 0xDFA JUMP JUMPDEST JUMPDEST PUSH1 0x1 DUP3 ADD SWAP1 POP SWAP2 SWAP1 POP JUMP JUMPDEST PUSH2 0xE77 DUP2 PUSH2 0xB6D JUMP JUMPDEST DUP3 MSTORE POP POP JUMP JUMPDEST PUSH0 PUSH1 0x80 DUP3 ADD SWAP1 POP PUSH2 0xE90 PUSH0 DUP4 ADD DUP8 PUSH2 0xC32 JUMP JUMPDEST PUSH2 0xE9D PUSH1 0x20 DUP4 ADD DUP7 PUSH2 0xE6E JUMP JUMPDEST PUSH2 0xEAA PUSH1 0x40 DUP4 ADD DUP6 PUSH2 0xC32 JUMP JUMPDEST PUSH2 0xEB7 PUSH1 0x60 DUP4 ADD DUP5 PUSH2 0xC32 JUMP JUMPDEST SWAP6 SWAP5 POP POP POP POP POP JUMP JUMPDEST PUSH32 0x50726F6A65637420646F6573206E6F7420657869737400000000000000000000 PUSH0 DUP3 ADD MSTORE POP JUMP JUMPDEST PUSH0 PUSH2 0xEF4 PUSH1 0x16 DUP4 PUSH2 0xCCE JUMP JUMPDEST SWAP2 POP PUSH2 0xEFF DUP3 PUSH2 0xEC0 JUMP JUMPDEST PUSH1 0x20 DUP3 ADD SWAP1 POP SWAP2 SWAP1 POP JUMP JUMPDEST PUSH0 PUSH1 0x20 DUP3 ADD SWAP1 POP DUP2 DUP2 SUB PUSH0 DUP4 ADD MSTORE PUSH2 0xF21 DUP2 PUSH2 0xEE8 JUMP JUMPDEST SWAP1 POP SWAP2 SWAP1 POP JUMP JUMPDEST PUSH32 0x4E487B7100000000000000000000000000000000000000000000000000000000 PUSH0 MSTORE PUSH1 0x32 PUSH1 0x4 MSTORE PUSH1 0x24 PUSH0 REVERT JUMPDEST PUSH32 0x4F6E6C79207468652070726F6A6563742063726561746F722063616E20636C61 PUSH0 DUP3 ADD MSTORE PUSH32 0x696D2066756E6473000000000000000000000000000000000000000000000000 PUSH1 0x20 DUP3 ADD MSTORE POP JUMP JUMPDEST PUSH0 PUSH2 0xFAF PUSH1 0x28 DUP4 PUSH2 0xCCE JUMP JUMPDEST SWAP2 POP PUSH2 0xFBA DUP3 PUSH2 0xF55 JUMP JUMPDEST PUSH1 0x40 DUP3 ADD SWAP1 POP SWAP2 SWAP1 POP JUMP JUMPDEST PUSH0 PUSH1 0x20 DUP3 ADD SWAP1 POP DUP2 DUP2 SUB PUSH0 DUP4 ADD MSTORE PUSH2 0xFDC DUP2 PUSH2 0xFA3 JUMP JUMPDEST SWAP1 POP SWAP2 SWAP1 POP JUMP JUMPDEST PUSH32 0x50726F6A65637420676F616C206E6F74206D6574000000000000000000000000 PUSH0 DUP3 ADD MSTORE POP JUMP JUMPDEST PUSH0 PUSH2 0x1017 PUSH1 0x14 DUP4 PUSH2 0xCCE JUMP JUMPDEST SWAP2 POP PUSH2 0x1022 DUP3 PUSH2 0xFE3 JUMP JUMPDEST PUSH1 0x20 DUP3 ADD SWAP1 POP SWAP2 SWAP1 POP JUMP JUMPDEST PUSH0 PUSH1 0x20 DUP3 ADD SWAP1 POP DUP2 DUP2 SUB PUSH0 DUP4 ADD MSTORE PUSH2 0x1044 DUP2 PUSH2 0x100B JUMP JUMPDEST SWAP1 POP SWAP2 SWAP1 POP JUMP JUMPDEST PUSH0 PUSH2 0x1055 DUP3 PUSH2 0xAA3 JUMP JUMPDEST SWAP2 POP PUSH2 0x1060 DUP4 PUSH2 0xAA3 JUMP JUMPDEST SWAP3 POP DUP3 DUP3 SUB SWAP1 POP DUP2 DUP2 GT ISZERO PUSH2 0x1078 JUMPI PUSH2 0x1077 PUSH2 0xDFA JUMP JUMPDEST JUMPDEST SWAP3 SWAP2 POP POP JUMP JUMPDEST PUSH0 PUSH2 0x1088 DUP3 PUSH2 0xAA3 JUMP JUMPDEST SWAP2 POP PUSH2 0x1093 DUP4 PUSH2 0xAA3 JUMP JUMPDEST SWAP3 POP DUP3 DUP3 MUL PUSH2 0x10A1 DUP2 PUSH2 0xAA3 JUMP JUMPDEST SWAP2 POP DUP3 DUP3 DIV DUP5 EQ DUP4 ISZERO OR PUSH2 0x10B8 JUMPI PUSH2 0x10B7 PUSH2 0xDFA JUMP JUMPDEST JUMPDEST POP SWAP3 SWAP2 POP POP JUMP JUMPDEST PUSH32 0x4E487B7100000000000000000000000000000000000000000000000000000000 PUSH0 MSTORE PUSH1 0x12 PUSH1 0x4 MSTORE PUSH1 0x24 PUSH0 REVERT JUMPDEST PUSH0 PUSH2 0x10F6 DUP3 PUSH2 0xAA3 JUMP JUMPDEST SWAP2 POP PUSH2 0x1101 DUP4 PUSH2 0xAA3 JUMP JUMPDEST SWAP3 POP DUP3 PUSH2 0x1111 JUMPI PUSH2 0x1110 PUSH2 0x10BF JUMP JUMPDEST JUMPDEST DUP3 DUP3 DIV SWAP1 POP SWAP3 SWAP2 POP POP JUMP JUMPDEST PUSH32 0x4E6F20746F6B656E7320617661696C61626C6520666F722072656C6561736500 PUSH0 DUP3 ADD MSTORE POP JUMP JUMPDEST PUSH0 PUSH2 0x1150 PUSH1 0x1F DUP4 PUSH2 0xCCE JUMP JUMPDEST SWAP2 POP PUSH2 0x115B DUP3 PUSH2 0x111C JUMP JUMPDEST PUSH1 0x20 DUP3 ADD SWAP1 POP SWAP2 SWAP1 POP JUMP JUMPDEST PUSH0 PUSH1 0x20 DUP3 ADD SWAP1 POP DUP2 DUP2 SUB PUSH0 DUP4 ADD MSTORE PUSH2 0x117D DUP2 PUSH2 0x1144 JUMP JUMPDEST SWAP1 POP SWAP2 SWAP1 POP JUMP JUMPDEST PUSH0 PUSH1 0x40 DUP3 ADD SWAP1 POP PUSH2 0x1197 PUSH0 DUP4 ADD DUP6 PUSH2 0xE6E JUMP JUMPDEST PUSH2 0x11A4 PUSH1 0x20 DUP4 ADD DUP5 PUSH2 0xC32 JUMP JUMPDEST SWAP4 SWAP3 POP POP POP JUMP JUMPDEST PUSH0 DUP2 ISZERO ISZERO SWAP1 POP SWAP2 SWAP1 POP JUMP JUMPDEST PUSH2 0x11BF DUP2 PUSH2 0x11AB JUMP JUMPDEST DUP2 EQ PUSH2 0x11C9 JUMPI PUSH0 DUP1 REVERT JUMPDEST POP JUMP JUMPDEST PUSH0 DUP2 MLOAD SWAP1 POP PUSH2 0x11DA DUP2 PUSH2 0x11B6 JUMP JUMPDEST SWAP3 SWAP2 POP POP JUMP JUMPDEST PUSH0 PUSH1 0x20 DUP3 DUP5 SUB SLT ISZERO PUSH2 0x11F5 JUMPI PUSH2 0x11F4 PUSH2 0xA9F JUMP JUMPDEST JUMPDEST PUSH0 PUSH2 0x1202 DUP5 DUP3 DUP6 ADD PUSH2 0x11CC JUMP JUMPDEST SWAP2 POP POP SWAP3 SWAP2 POP POP JUMP JUMPDEST PUSH0 DUP2 PUSH1 0xE0 SHR SWAP1 POP SWAP2 SWAP1 POP JUMP JUMPDEST PUSH0 PUSH1 0x3 RETURNDATASIZE GT ISZERO PUSH2 0x1233 JUMPI PUSH1 0x4 PUSH0 DUP1 RETURNDATACOPY PUSH2 0x1230 PUSH0 MLOAD PUSH2 0x120B JUMP JUMPDEST SWAP1 POP JUMPDEST SWAP1 JUMP JUMPDEST PUSH0 PUSH1 0x1F NOT PUSH1 0x1F DUP4 ADD AND SWAP1 POP SWAP2 SWAP1 POP JUMP JUMPDEST PUSH32 0x4E487B7100000000000000000000000000000000000000000000000000000000 PUSH0 MSTORE PUSH1 0x41 PUSH1 0x4 MSTORE PUSH1 0x24 PUSH0 REVERT JUMPDEST PUSH2 0x127C DUP3 PUSH2 0x1236 JUMP JUMPDEST DUP2 ADD DUP2 DUP2 LT PUSH8 0xFFFFFFFFFFFFFFFF DUP3 GT OR ISZERO PUSH2 0x129B JUMPI PUSH2 0x129A PUSH2 0x1246 JUMP JUMPDEST JUMPDEST DUP1 PUSH1 0x40 MSTORE POP POP POP JUMP JUMPDEST PUSH0 PUSH1 0x44 RETURNDATASIZE LT PUSH2 0x1330 JUMPI PUSH2 0x12B5 PUSH2 0xA96 JUMP JUMPDEST PUSH1 0x4 RETURNDATASIZE SUB PUSH1 0x4 DUP3 RETURNDATACOPY DUP1 MLOAD RETURNDATASIZE PUSH1 0x24 DUP3 ADD GT PUSH8 0xFFFFFFFFFFFFFFFF DUP3 GT OR ISZERO PUSH2 0x12DD JUMPI POP POP PUSH2 0x1330 JUMP JUMPDEST DUP1 DUP3 ADD DUP1 MLOAD PUSH8 0xFFFFFFFFFFFFFFFF DUP2 GT ISZERO PUSH2 0x12FB JUMPI POP POP POP POP PUSH2 0x1330 JUMP JUMPDEST DUP1 PUSH1 0x20 DUP4 ADD ADD PUSH1 0x4 RETURNDATASIZE SUB DUP6 ADD DUP2 GT ISZERO PUSH2 0x1318 JUMPI POP POP POP POP POP PUSH2 0x1330 JUMP JUMPDEST PUSH2 0x1327 DUP3 PUSH1 0x20 ADD DUP6 ADD DUP7 PUSH2 0x1273 JUMP JUMPDEST DUP3 SWAP6 POP POP POP POP POP POP JUMPDEST SWAP1 JUMP JUMPDEST PUSH0 DUP2 SWAP1 POP SWAP3 SWAP2 POP POP JUMP JUMPDEST PUSH32 0x546F6B656E207472616E73666572206661696C65643A20000000000000000000 PUSH0 DUP3 ADD MSTORE POP JUMP JUMPDEST PUSH0 PUSH2 0x1371 PUSH1 0x17 DUP4 PUSH2 0x1333 JUMP JUMPDEST SWAP2 POP PUSH2 0x137C DUP3 PUSH2 0x133D JUMP JUMPDEST PUSH1 0x17 DUP3 ADD SWAP1 POP SWAP2 SWAP1 POP JUMP JUMPDEST PUSH0 DUP2 MLOAD SWAP1 POP SWAP2 SWAP1 POP JUMP JUMPDEST DUP3 DUP2 DUP4 MCOPY PUSH0 DUP4 DUP4 ADD MSTORE POP POP POP JUMP JUMPDEST PUSH0 PUSH2 0x13A9 DUP3 PUSH2 0x1387 JUMP JUMPDEST PUSH2 0x13B3 DUP2 DUP6 PUSH2 0x1333 JUMP JUMPDEST SWAP4 POP PUSH2 0x13C3 DUP2 DUP6 PUSH1 0x20 DUP7 ADD PUSH2 0x1391 JUMP JUMPDEST DUP1 DUP5 ADD SWAP2 POP POP SWAP3 SWAP2 POP POP JUMP JUMPDEST PUSH0 PUSH2 0x13D9 DUP3 PUSH2 0x1365 JUMP JUMPDEST SWAP2 POP PUSH2 0x13E5 DUP3 DUP5 PUSH2 0x139F JUMP JUMPDEST SWAP2 POP DUP2 SWAP1 POP SWAP3 SWAP2 POP POP JUMP JUMPDEST PUSH0 PUSH2 0x13FA DUP3 PUSH2 0x1387 JUMP JUMPDEST PUSH2 0x1404 DUP2 DUP6 PUSH2 0xCCE JUMP JUMPDEST SWAP4 POP PUSH2 0x1414 DUP2 DUP6 PUSH1 0x20 DUP7 ADD PUSH2 0x1391 JUMP JUMPDEST PUSH2 0x141D DUP2 PUSH2 0x1236 JUMP JUMPDEST DUP5 ADD SWAP2 POP POP SWAP3 SWAP2 POP POP JUMP JUMPDEST PUSH0 PUSH1 0x20 DUP3 ADD SWAP1 POP DUP2 DUP2 SUB PUSH0 DUP4 ADD MSTORE PUSH2 0x1440 DUP2 DUP5 PUSH2 0x13F0 JUMP JUMPDEST SWAP1 POP SWAP3 SWAP2 POP POP JUMP JUMPDEST PUSH0 PUSH2 0x1452 DUP3 PUSH2 0xAA3 JUMP JUMPDEST SWAP2 POP PUSH2 0x145D DUP4 PUSH2 0xAA3 JUMP JUMPDEST SWAP3 POP DUP3 DUP3 ADD SWAP1 POP DUP1 DUP3 GT ISZERO PUSH2 0x1475 JUMPI PUSH2 0x1474 PUSH2 0xDFA JUMP JUMPDEST JUMPDEST SWAP3 SWAP2 POP POP JUMP JUMPDEST PUSH0 PUSH1 0x60 DUP3 ADD SWAP1 POP PUSH2 0x148E PUSH0 DUP4 ADD DUP7 PUSH2 0xC32 JUMP JUMPDEST PUSH2 0x149B PUSH1 0x20 DUP4 ADD DUP6 PUSH2 0xE6E JUMP JUMPDEST PUSH2 0x14A8 PUSH1 0x40 DUP4 ADD DUP5 PUSH2 0xC32 JUMP JUMPDEST SWAP5 SWAP4 POP POP POP POP JUMP JUMPDEST PUSH32 0x436F6E747269627574696F6E206D757374206265206772656174657220746861 PUSH0 DUP3 ADD MSTORE PUSH32 0x6E207A65726F0000000000000000000000000000000000000000000000000000 PUSH1 0x20 DUP3 ADD MSTORE POP JUMP JUMPDEST PUSH0 PUSH2 0x150A PUSH1 0x26 DUP4 PUSH2 0xCCE JUMP JUMPDEST SWAP2 POP PUSH2 0x1515 DUP3 PUSH2 0x14B0 JUMP JUMPDEST PUSH1 0x40 DUP3 ADD SWAP1 POP SWAP2 SWAP1 POP JUMP JUMPDEST PUSH0 PUSH1 0x20 DUP3 ADD SWAP1 POP DUP2 DUP2 SUB PUSH0 DUP4 ADD MSTORE PUSH2 0x1537 DUP2 PUSH2 0x14FE JUMP JUMPDEST SWAP1 POP SWAP2 SWAP1 POP JUMP JUMPDEST PUSH32 0x4F7665722070726F6A65637420676F616C000000000000000000000000000000 PUSH0 DUP3 ADD MSTORE POP JUMP JUMPDEST PUSH0 PUSH2 0x1572 PUSH1 0x11 DUP4 PUSH2 0xCCE JUMP JUMPDEST SWAP2 POP PUSH2 0x157D DUP3 PUSH2 0x153E JUMP JUMPDEST PUSH1 0x20 DUP3 ADD SWAP1 POP SWAP2 SWAP1 POP JUMP JUMPDEST PUSH0 PUSH1 0x20 DUP3 ADD SWAP1 POP DUP2 DUP2 SUB PUSH0 DUP4 ADD MSTORE PUSH2 0x159F DUP2 PUSH2 0x1566 JUMP JUMPDEST SWAP1 POP SWAP2 SWAP1 POP JUMP JUMPDEST PUSH0 PUSH1 0x60 DUP3 ADD SWAP1 POP PUSH2 0x15B9 PUSH0 DUP4 ADD DUP7 PUSH2 0xE6E JUMP JUMPDEST PUSH2 0x15C6 PUSH1 0x20 DUP4 ADD DUP6 PUSH2 0xE6E JUMP JUMPDEST PUSH2 0x15D3 PUSH1 0x40 DUP4 ADD DUP5 PUSH2 0xC32 JUMP JUMPDEST SWAP5 SWAP4 POP POP POP POP JUMP INVALID LOG2 PUSH5 0x6970667358 0x22 SLT KECCAK256 0xAB 0xEA PUSH4 0xC988FBA3 PUSH19 0x8429D856591E4A6DB0B6792AEB4F0AA75F0DC1 PUSH9 0xA43DEE4364736F6C63 NUMBER STOP ADDMOD BYTE STOP CALLER "
		},
		"gasEstimates": {
			"creation": {
				"codeDepositCost": "1129800",
				"executionCost": "infinite",
				"totalCost": "infinite"
			},
			"external": {
				"claimFunds(uint256)": "infinite",
				"contribute(uint256,uint256)": "infinite",
				"createProject(uint256,uint256)": "infinite",
				"getProjectDetails(uint256)": "infinite",
				"projectIdCounter()": "2491",
				"token()": "infinite"
			}
		},
		"methodIdentifiers": {
			"claimFunds(uint256)": "1b55e338",
			"contribute(uint256,uint256)": "8c590917",
			"createProject(uint256,uint256)": "02da667b",
			"getProjectDetails(uint256)": "5f8439e3",
			"projectIdCounter()": "d5977b5e",
			"token()": "fc0c546a"
		}
	},
	"abi": [
		{
			"inputs": [
				{
					"internalType": "address",
					"name": "_tokenAddress",
					"type": "address"
				}
			],
			"stateMutability": "nonpayable",
			"type": "constructor"
		},
		{
			"anonymous": false,
			"inputs": [
				{
					"indexed": false,
					"internalType": "uint256",
					"name": "projectId",
					"type": "uint256"
				},
				{
					"indexed": false,
					"internalType": "address",
					"name": "contributor",
					"type": "address"
				},
				{
					"indexed": false,
					"internalType": "uint256",
					"name": "amount",
					"type": "uint256"
				}
			],
			"name": "ContributionMade",
			"type": "event"
		},
		{
			"anonymous": false,
			"inputs": [
				{
					"indexed": false,
					"internalType": "uint256",
					"name": "projectId",
					"type": "uint256"
				},
				{
					"indexed": false,
					"internalType": "address",
					"name": "creator",
					"type": "address"
				},
				{
					"indexed": false,
					"internalType": "uint256",
					"name": "amount",
					"type": "uint256"
				}
			],
			"name": "FundsClaimed",
			"type": "event"
		},
		{
			"anonymous": false,
			"inputs": [
				{
					"indexed": false,
					"internalType": "uint256",
					"name": "projectId",
					"type": "uint256"
				},
				{
					"indexed": false,
					"internalType": "address",
					"name": "creator",
					"type": "address"
				},
				{
					"indexed": false,
					"internalType": "uint256",
					"name": "goalAmount",
					"type": "uint256"
				},
				{
					"indexed": false,
					"internalType": "uint256",
					"name": "vestingDuration",
					"type": "uint256"
				}
			],
			"name": "ProjectCreated",
			"type": "event"
		},
		{
			"inputs": [
				{
					"internalType": "uint256",
					"name": "_projectId",
					"type": "uint256"
				}
			],
			"name": "claimFunds",
			"outputs": [],
			"stateMutability": "nonpayable",
			"type": "function"
		},
		{
			"inputs": [
				{
					"internalType": "uint256",
					"name": "_projectId",
					"type": "uint256"
				},
				{
					"internalType": "uint256",
					"name": "_amount",
					"type": "uint256"
				}
			],
			"name": "contribute",
			"outputs": [],
			"stateMutability": "nonpayable",
			"type": "function"
		},
		{
			"inputs": [
				{
					"internalType": "uint256",
					"name": "_goalAmount",
					"type": "uint256"
				},
				{
					"internalType": "uint256",
					"name": "_vestingDuration",
					"type": "uint256"
				}
			],
			"name": "createProject",
			"outputs": [],
			"stateMutability": "nonpayable",
			"type": "function"
		},
		{
			"inputs": [
				{
					"internalType": "uint256",
					"name": "_projectId",
					"type": "uint256"
				}
			],
			"name": "getProjectDetails",
			"outputs": [
				{
					"components": [
						{
							"internalType": "uint256",
							"name": "id",
							"type": "uint256"
						},
						{
							"internalType": "address",
							"name": "creator",
							"type": "address"
						},
						{
							"internalType": "uint256",
							"name": "goalAmount",
							"type": "uint256"
						},
						{
							"internalType": "uint256",
							"name": "currentAmount",
							"type": "uint256"
						},
						{
							"internalType": "uint256",
							"name": "startTime",
							"type": "uint256"
						},
						{
							"internalType": "uint256",
							"name": "vestingDuration",
							"type": "uint256"
						},
						{
							"internalType": "uint256",
							"name": "releasedTokens",
							"type": "uint256"
						}
					],
					"internalType": "struct SafeCrowdfunding.Project",
					"name": "",
					"type": "tuple"
				}
			],
			"stateMutability": "view",
			"type": "function"
		},
		{
			"inputs": [],
			"name": "projectIdCounter",
			"outputs": [
				{
					"internalType": "uint256",
					"name": "",
					"type": "uint256"
				}
			],
			"stateMutability": "view",
			"type": "function"
		},
		{
			"inputs": [],
			"name": "token",
			"outputs": [
				{
					"internalType": "contract IERC20",
					"name": "",
					"type": "address"
				}
			],
			"stateMutability": "view",
			"type": "function"
		}
	]
}